{
	"data": {
		"bytecode": {
			"linkReferences": {},
			"object": "6080604052600160045568056bc75e2d63100000600555600a600655611f40600755600a600855603260095534801561003757600080fd5b5060405161154e38038061154e833981016040819052610056916101e1565b6001600055806001600160a01b03811661008b57604051631e4fbdf760e01b8152600060048201526024015b60405180910390fd5b61009481610173565b506001600160a01b0383166100eb5760405162461bcd60e51b815260206004820152601560248201527f496e76616c696420746f6b656e206164647265737300000000000000000000006044820152606401610082565b6001600160a01b0382166101415760405162461bcd60e51b815260206004820152601660248201527f496e76616c6964206f7261636c652061646472657373000000000000000000006044820152606401610082565b50600a80546001600160a01b039384166001600160a01b031991821617909155600b8054929093169116179055610224565b600180546001600160a01b038381166001600160a01b0319831681179093556040519116919082907f8be0079c531659141344cd1fd0a4f28419497f9722a3daafe3b4186f6b6457e090600090a35050565b80516001600160a01b03811681146101dc57600080fd5b919050565b6000806000606084860312156101f657600080fd5b6101ff846101c5565b925061020d602085016101c5565b915061021b604085016101c5565b90509250925092565b61131b806102336000396000f3fe608060405234801561001057600080fd5b50600436106101165760003560e01c80638da5cb5b116100a2578063b0e21e8a11610071578063b0e21e8a1461029f578063ba2de9bc146102a8578063cdddd4e5146102b1578063d3127e63146102c4578063f2fde38b146102d757600080fd5b80638da5cb5b146101ca57806399fbab88146101db578063a126d60114610283578063ae3302c21461029657600080fd5b80635e1b4d99116100e95780635e1b4d9914610180578063715018a6146101935780637dc0d1d01461019b578063846321a4146101ae578063899346c7146101c157600080fd5b806310d670981461011b5780631558c9661461014b5780634031234c1461016057806341d3c84c14610177575b600080fd5b600a5461012e906001600160a01b031681565b6040516001600160a01b0390911681526020015b60405180910390f35b61015e61015936600461102c565b6102ea565b005b61016960075481565b604051908152602001610142565b61016960085481565b61016961018e366004611081565b610681565b61015e6106b2565b600b5461012e906001600160a01b031681565b61015e6101bc3660046110ab565b6106c6565b61016960045481565b6001546001600160a01b031661012e565b61023c6101e93660046110ab565b6002602081905260009182526040909120805460018201549282015460038301546004840154600585015460068601546007909601546001600160a01b03909516969593949293919260ff909116919088565b604080516001600160a01b03909916895260208901979097529587019490945260608601929092526080850152151560a084015260c083015260e082015261010001610142565b61015e6102913660046110ab565b610718565b61016960065481565b61016960095481565b61016960055481565b61015e6102bf3660046110ab565b610a6b565b61015e6102d23660046110ab565b610d38565b61015e6102e53660046110c4565b610d89565b6102f2610dc4565b6005548310156103495760405162461bcd60e51b815260206004820152601760248201527f496e73756666696369656e7420636f6c6c61746572616c00000000000000000060448201526064015b60405180910390fd5b6001821015801561035c57506006548211155b61039b5760405162461bcd60e51b815260206004820152601060248201526f496e76616c6964206c6576657261676560801b6044820152606401610340565b600a546040516323b872dd60e01b8152336004820152306024820152604481018590526001600160a01b03909116906323b872dd906064016020604051808303816000875af11580156103f2573d6000803e3d6000fd5b505050506040513d601f19601f8201168201806040525081019061041691906110e6565b6104325760405162461bcd60e51b815260040161034090611103565b600b546040516331d98b3f60e01b8152661155548bd554d160ca1b600482015260009182916001600160a01b03909116906331d98b3f90602401606060405180830381865afa158015610489573d6000803e3d6000fd5b505050506040513d601f19601f820116820180604052508101906104ad919061112c565b9250509150806104cf5760405162461bcd60e51b81526004016103409061115b565b60006104db8587611198565b90506000846105105761050b6007546127106104f791906111af565b61050388612710611198565b869190610e1d565b610523565b6007546105239061050388612710611198565b60408051610100810182523380825260208083018c8152838501888152606085018b8152608086018e81528d151560a088019081524260c0890190815260e089018b81526004805460009081526002808b528d82209c518d546001600160a01b03919091166001600160a01b0319909116178d5598516001808e01919091559751988c019890985594516003808c019190915593518a860155915160058a01805491151560ff199092169190911790555160068901555160079097019690965584835294835285822085548154928301825590835292909120015590549151929350917fc777b444aea25c2f8905fb974030d522f61d044da18f577cfdb67b3f4f66df4090610651908b9087908c908c90938452602084019290925260408301521515606082015260800190565b60405180910390a360048054906000610669836111c2565b91905055505050505061067c6001600055565b505050565b6003602052816000526040600020818154811061069d57600080fd5b90600052602060002001600091509150505481565b6106ba610e3c565b6106c46000610e69565b565b6106ce610e3c565b600081116107135760405162461bcd60e51b8152602060048201526012602482015271125b9d985b1a590818dbdb1b185d195c985b60721b6044820152606401610340565b600555565b610720610dc4565b600081815260026020526040902080546001600160a01b0316331461077b5760405162461bcd60e51b81526020600482015260116024820152702737ba103cb7bab9103837b9b4ba34b7b760791b6044820152606401610340565b60008160010154116107c95760405162461bcd60e51b8152602060048201526017602482015276141bdcda5d1a5bdb88191bd95cc81b9bdd08195e1a5cdd604a1b6044820152606401610340565b600b546040516331d98b3f60e01b8152661155548bd554d160ca1b600482015260009182916001600160a01b03909116906331d98b3f90602401606060405180830381865afa158015610820573d6000803e3d6000fd5b505050506040513d601f19601f82011682018060405250810190610844919061112c565b9250509150806108665760405162461bcd60e51b81526004016103409061115b565b604080516101008101825284546001600160a01b03168152600185015460208201526002850154918101919091526003840154606082015260048401546080820152600584015460ff16151560a0820152600684015460c0820152600784015460e08201526000906108d89084610ebb565b905060008082126108fa578185600101546108f391906111af565b905061092e565b6000610905836111db565b9050856001015481116109275780866001015461092291906111f7565b61092a565b60005b9150505b80156109c557600a5460405163a9059cbb60e01b8152336004820152602481018390526001600160a01b039091169063a9059cbb906044016020604051808303816000875af1158015610985573d6000803e3d6000fd5b505050506040513d601f19601f820116820180604052508101906109a991906110e6565b6109c55760405162461bcd60e51b815260040161034090611103565b857f33fe89afd23cab21b9e7372fefbd5f105f651931b65a97a5164898f3a723c48d836040516109f791815260200190565b60405180910390a26000868152600260208190526040822080546001600160a01b031916815560018101839055908101829055600381018290556004810182905560058101805460ff191690556006810182905560070155610a593387610f54565b5050505050610a686001600055565b50565b610a73610dc4565b60008181526002602052604090206001810154610acc5760405162461bcd60e51b8152602060048201526017602482015276141bdcda5d1a5bdb88191bd95cc81b9bdd08195e1a5cdd604a1b6044820152606401610340565b600b546040516331d98b3f60e01b8152661155548bd554d160ca1b600482015260009182916001600160a01b03909116906331d98b3f90602401606060405180830381865afa158015610b23573d6000803e3d6000fd5b505050506040513d601f19601f82011682018060405250810190610b47919061112c565b925050915080610b695760405162461bcd60e51b81526004016103409061115b565b600583015460ff168015610b81575082600701548211155b80610ba05750600583015460ff16158015610ba0575082600701548210155b610bdf5760405162461bcd60e51b815260206004820152601060248201526f4e6f74206c6971756964617461626c6560801b6044820152606401610340565b6000606484600101546005610bf49190611198565b610bfe9190611220565b600a5460405163a9059cbb60e01b8152336004820152602481018390529192506001600160a01b03169063a9059cbb906044016020604051808303816000875af1158015610c50573d6000803e3d6000fd5b505050506040513d601f19601f82011682018060405250810190610c7491906110e6565b610c905760405162461bcd60e51b815260040161034090611103565b60405133815285907fa9ae24adea380a0aaa5f1e18bfe4427ac76c27d30a0159971c13f930c4d4e5a39060200160405180910390a26000858152600260208190526040822080546001600160a01b031916815560018101839055908101829055600381018290556004810182905560058101805460ff1916905560068101829055600701558354610d2a906001600160a01b031686610f54565b50505050610a686001600055565b610d40610e3c565b6001811015610d845760405162461bcd60e51b815260206004820152601060248201526f496e76616c6964206c6576657261676560801b6044820152606401610340565b600655565b610d91610e3c565b6001600160a01b038116610dbb57604051631e4fbdf760e01b815260006004820152602401610340565b610a6881610e69565b600260005403610e165760405162461bcd60e51b815260206004820152601f60248201527f5265656e7472616e637947756172643a207265656e7472616e742063616c6c006044820152606401610340565b6002600055565b600081610e2a8486611198565b610e349190611220565b949350505050565b6001546001600160a01b031633146106c45760405163118cdaa760e01b8152336004820152602401610340565b600180546001600160a01b038381166001600160a01b0319831681179093556040519116919082907f8be0079c531659141344cd1fd0a4f28419497f9722a3daafe3b4186f6b6457e090600090a35050565b600080836060015111610f065760405162461bcd60e51b8152602060048201526013602482015272496e76616c696420656e74727920707269636560681b6044820152606401610340565b8260a0015115610f3f576060830151610f1f8184611234565b8460400151610f2e919061125b565b610f38919061128b565b9050610f4e565b6060830151610f1f8382611234565b92915050565b6001600160a01b0382166000908152600360205260408120905b81548110156110185782828281548110610f8a57610f8a6112b9565b9060005260206000200154036110105781548290610faa906001906111f7565b81548110610fba57610fba6112b9565b9060005260206000200154828281548110610fd757610fd76112b9565b906000526020600020018190555081805480610ff557610ff56112cf565b60019003818190600052602060002001600090559055611018565b600101610f6e565b50505050565b8015158114610a6857600080fd5b60008060006060848603121561104157600080fd5b8335925060208401359150604084013561105a8161101e565b809150509250925092565b80356001600160a01b038116811461107c57600080fd5b919050565b6000806040838503121561109457600080fd5b61109d83611065565b946020939093013593505050565b6000602082840312156110bd57600080fd5b5035919050565b6000602082840312156110d657600080fd5b6110df82611065565b9392505050565b6000602082840312156110f857600080fd5b81516110df8161101e565b6020808252600f908201526e151c985b9cd9995c8819985a5b1959608a1b604082015260600190565b60008060006060848603121561114157600080fd5b835160208501516040860151919450925061105a8161101e565b6020808252600d908201526c496e76616c696420707269636560981b604082015260600190565b634e487b7160e01b600052601160045260246000fd5b8082028115828204841417610f4e57610f4e611182565b80820180821115610f4e57610f4e611182565b6000600182016111d4576111d4611182565b5060010190565b6000600160ff1b82016111f0576111f0611182565b5060000390565b81810381811115610f4e57610f4e611182565b634e487b7160e01b600052601260045260246000fd5b60008261122f5761122f61120a565b500490565b818103600083128015838313168383128216171561125457611254611182565b5092915050565b80820260008212600160ff1b8414161561127757611277611182565b8181058314821517610f4e57610f4e611182565b60008261129a5761129a61120a565b600160ff1b8214600019841416156112b4576112b4611182565b500590565b634e487b7160e01b600052603260045260246000fd5b634e487b7160e01b600052603160045260246000fdfea2646970667358221220d6c80c0e54ea0f8c9714300bac7bdecfae6ac6590d4af67c1ab07aba97569f7164736f6c634300081c0033",
			"opcodes": "PUSH1 0x80 PUSH1 0x40 MSTORE PUSH1 0x1 PUSH1 0x4 SSTORE PUSH9 0x56BC75E2D63100000 PUSH1 0x5 SSTORE PUSH1 0xA PUSH1 0x6 SSTORE PUSH2 0x1F40 PUSH1 0x7 SSTORE PUSH1 0xA PUSH1 0x8 SSTORE PUSH1 0x32 PUSH1 0x9 SSTORE CALLVALUE DUP1 ISZERO PUSH2 0x37 JUMPI PUSH1 0x0 DUP1 REVERT JUMPDEST POP PUSH1 0x40 MLOAD PUSH2 0x154E CODESIZE SUB DUP1 PUSH2 0x154E DUP4 CODECOPY DUP2 ADD PUSH1 0x40 DUP2 SWAP1 MSTORE PUSH2 0x56 SWAP2 PUSH2 0x1E1 JUMP JUMPDEST PUSH1 0x1 PUSH1 0x0 SSTORE DUP1 PUSH1 0x1 PUSH1 0x1 PUSH1 0xA0 SHL SUB DUP2 AND PUSH2 0x8B JUMPI PUSH1 0x40 MLOAD PUSH4 0x1E4FBDF7 PUSH1 0xE0 SHL DUP2 MSTORE PUSH1 0x0 PUSH1 0x4 DUP3 ADD MSTORE PUSH1 0x24 ADD JUMPDEST PUSH1 0x40 MLOAD DUP1 SWAP2 SUB SWAP1 REVERT JUMPDEST PUSH2 0x94 DUP2 PUSH2 0x173 JUMP JUMPDEST POP PUSH1 0x1 PUSH1 0x1 PUSH1 0xA0 SHL SUB DUP4 AND PUSH2 0xEB JUMPI PUSH1 0x40 MLOAD PUSH3 0x461BCD PUSH1 0xE5 SHL DUP2 MSTORE PUSH1 0x20 PUSH1 0x4 DUP3 ADD MSTORE PUSH1 0x15 PUSH1 0x24 DUP3 ADD MSTORE PUSH32 0x496E76616C696420746F6B656E20616464726573730000000000000000000000 PUSH1 0x44 DUP3 ADD MSTORE PUSH1 0x64 ADD PUSH2 0x82 JUMP JUMPDEST PUSH1 0x1 PUSH1 0x1 PUSH1 0xA0 SHL SUB DUP3 AND PUSH2 0x141 JUMPI PUSH1 0x40 MLOAD PUSH3 0x461BCD PUSH1 0xE5 SHL DUP2 MSTORE PUSH1 0x20 PUSH1 0x4 DUP3 ADD MSTORE PUSH1 0x16 PUSH1 0x24 DUP3 ADD MSTORE PUSH32 0x496E76616C6964206F7261636C65206164647265737300000000000000000000 PUSH1 0x44 DUP3 ADD MSTORE PUSH1 0x64 ADD PUSH2 0x82 JUMP JUMPDEST POP PUSH1 0xA DUP1 SLOAD PUSH1 0x1 PUSH1 0x1 PUSH1 0xA0 SHL SUB SWAP4 DUP5 AND PUSH1 0x1 PUSH1 0x1 PUSH1 0xA0 SHL SUB NOT SWAP2 DUP3 AND OR SWAP1 SWAP2 SSTORE PUSH1 0xB DUP1 SLOAD SWAP3 SWAP1 SWAP4 AND SWAP2 AND OR SWAP1 SSTORE PUSH2 0x224 JUMP JUMPDEST PUSH1 0x1 DUP1 SLOAD PUSH1 0x1 PUSH1 0x1 PUSH1 0xA0 SHL SUB DUP4 DUP2 AND PUSH1 0x1 PUSH1 0x1 PUSH1 0xA0 SHL SUB NOT DUP4 AND DUP2 OR SWAP1 SWAP4 SSTORE PUSH1 0x40 MLOAD SWAP2 AND SWAP2 SWAP1 DUP3 SWAP1 PUSH32 0x8BE0079C531659141344CD1FD0A4F28419497F9722A3DAAFE3B4186F6B6457E0 SWAP1 PUSH1 0x0 SWAP1 LOG3 POP POP JUMP JUMPDEST DUP1 MLOAD PUSH1 0x1 PUSH1 0x1 PUSH1 0xA0 SHL SUB DUP2 AND DUP2 EQ PUSH2 0x1DC JUMPI PUSH1 0x0 DUP1 REVERT JUMPDEST SWAP2 SWAP1 POP JUMP JUMPDEST PUSH1 0x0 DUP1 PUSH1 0x0 PUSH1 0x60 DUP5 DUP7 SUB SLT ISZERO PUSH2 0x1F6 JUMPI PUSH1 0x0 DUP1 REVERT JUMPDEST PUSH2 0x1FF DUP5 PUSH2 0x1C5 JUMP JUMPDEST SWAP3 POP PUSH2 0x20D PUSH1 0x20 DUP6 ADD PUSH2 0x1C5 JUMP JUMPDEST SWAP2 POP PUSH2 0x21B PUSH1 0x40 DUP6 ADD PUSH2 0x1C5 JUMP JUMPDEST SWAP1 POP SWAP3 POP SWAP3 POP SWAP3 JUMP JUMPDEST PUSH2 0x131B DUP1 PUSH2 0x233 PUSH1 0x0 CODECOPY PUSH1 0x0 RETURN INVALID PUSH1 0x80 PUSH1 0x40 MSTORE CALLVALUE DUP1 ISZERO PUSH2 0x10 JUMPI PUSH1 0x0 DUP1 REVERT JUMPDEST POP PUSH1 0x4 CALLDATASIZE LT PUSH2 0x116 JUMPI PUSH1 0x0 CALLDATALOAD PUSH1 0xE0 SHR DUP1 PUSH4 0x8DA5CB5B GT PUSH2 0xA2 JUMPI DUP1 PUSH4 0xB0E21E8A GT PUSH2 0x71 JUMPI DUP1 PUSH4 0xB0E21E8A EQ PUSH2 0x29F JUMPI DUP1 PUSH4 0xBA2DE9BC EQ PUSH2 0x2A8 JUMPI DUP1 PUSH4 0xCDDDD4E5 EQ PUSH2 0x2B1 JUMPI DUP1 PUSH4 0xD3127E63 EQ PUSH2 0x2C4 JUMPI DUP1 PUSH4 0xF2FDE38B EQ PUSH2 0x2D7 JUMPI PUSH1 0x0 DUP1 REVERT JUMPDEST DUP1 PUSH4 0x8DA5CB5B EQ PUSH2 0x1CA JUMPI DUP1 PUSH4 0x99FBAB88 EQ PUSH2 0x1DB JUMPI DUP1 PUSH4 0xA126D601 EQ PUSH2 0x283 JUMPI DUP1 PUSH4 0xAE3302C2 EQ PUSH2 0x296 JUMPI PUSH1 0x0 DUP1 REVERT JUMPDEST DUP1 PUSH4 0x5E1B4D99 GT PUSH2 0xE9 JUMPI DUP1 PUSH4 0x5E1B4D99 EQ PUSH2 0x180 JUMPI DUP1 PUSH4 0x715018A6 EQ PUSH2 0x193 JUMPI DUP1 PUSH4 0x7DC0D1D0 EQ PUSH2 0x19B JUMPI DUP1 PUSH4 0x846321A4 EQ PUSH2 0x1AE JUMPI DUP1 PUSH4 0x899346C7 EQ PUSH2 0x1C1 JUMPI PUSH1 0x0 DUP1 REVERT JUMPDEST DUP1 PUSH4 0x10D67098 EQ PUSH2 0x11B JUMPI DUP1 PUSH4 0x1558C966 EQ PUSH2 0x14B JUMPI DUP1 PUSH4 0x4031234C EQ PUSH2 0x160 JUMPI DUP1 PUSH4 0x41D3C84C EQ PUSH2 0x177 JUMPI JUMPDEST PUSH1 0x0 DUP1 REVERT JUMPDEST PUSH1 0xA SLOAD PUSH2 0x12E SWAP1 PUSH1 0x1 PUSH1 0x1 PUSH1 0xA0 SHL SUB AND DUP2 JUMP JUMPDEST PUSH1 0x40 MLOAD PUSH1 0x1 PUSH1 0x1 PUSH1 0xA0 SHL SUB SWAP1 SWAP2 AND DUP2 MSTORE PUSH1 0x20 ADD JUMPDEST PUSH1 0x40 MLOAD DUP1 SWAP2 SUB SWAP1 RETURN JUMPDEST PUSH2 0x15E PUSH2 0x159 CALLDATASIZE PUSH1 0x4 PUSH2 0x102C JUMP JUMPDEST PUSH2 0x2EA JUMP JUMPDEST STOP JUMPDEST PUSH2 0x169 PUSH1 0x7 SLOAD DUP2 JUMP JUMPDEST PUSH1 0x40 MLOAD SWAP1 DUP2 MSTORE PUSH1 0x20 ADD PUSH2 0x142 JUMP JUMPDEST PUSH2 0x169 PUSH1 0x8 SLOAD DUP2 JUMP JUMPDEST PUSH2 0x169 PUSH2 0x18E CALLDATASIZE PUSH1 0x4 PUSH2 0x1081 JUMP JUMPDEST PUSH2 0x681 JUMP JUMPDEST PUSH2 0x15E PUSH2 0x6B2 JUMP JUMPDEST PUSH1 0xB SLOAD PUSH2 0x12E SWAP1 PUSH1 0x1 PUSH1 0x1 PUSH1 0xA0 SHL SUB AND DUP2 JUMP JUMPDEST PUSH2 0x15E PUSH2 0x1BC CALLDATASIZE PUSH1 0x4 PUSH2 0x10AB JUMP JUMPDEST PUSH2 0x6C6 JUMP JUMPDEST PUSH2 0x169 PUSH1 0x4 SLOAD DUP2 JUMP JUMPDEST PUSH1 0x1 SLOAD PUSH1 0x1 PUSH1 0x1 PUSH1 0xA0 SHL SUB AND PUSH2 0x12E JUMP JUMPDEST PUSH2 0x23C PUSH2 0x1E9 CALLDATASIZE PUSH1 0x4 PUSH2 0x10AB JUMP JUMPDEST PUSH1 0x2 PUSH1 0x20 DUP2 SWAP1 MSTORE PUSH1 0x0 SWAP2 DUP3 MSTORE PUSH1 0x40 SWAP1 SWAP2 KECCAK256 DUP1 SLOAD PUSH1 0x1 DUP3 ADD SLOAD SWAP3 DUP3 ADD SLOAD PUSH1 0x3 DUP4 ADD SLOAD PUSH1 0x4 DUP5 ADD SLOAD PUSH1 0x5 DUP6 ADD SLOAD PUSH1 0x6 DUP7 ADD SLOAD PUSH1 0x7 SWAP1 SWAP7 ADD SLOAD PUSH1 0x1 PUSH1 0x1 PUSH1 0xA0 SHL SUB SWAP1 SWAP6 AND SWAP7 SWAP6 SWAP4 SWAP5 SWAP3 SWAP4 SWAP2 SWAP3 PUSH1 0xFF SWAP1 SWAP2 AND SWAP2 SWAP1 DUP9 JUMP JUMPDEST PUSH1 0x40 DUP1 MLOAD PUSH1 0x1 PUSH1 0x1 PUSH1 0xA0 SHL SUB SWAP1 SWAP10 AND DUP10 MSTORE PUSH1 0x20 DUP10 ADD SWAP8 SWAP1 SWAP8 MSTORE SWAP6 DUP8 ADD SWAP5 SWAP1 SWAP5 MSTORE PUSH1 0x60 DUP7 ADD SWAP3 SWAP1 SWAP3 MSTORE PUSH1 0x80 DUP6 ADD MSTORE ISZERO ISZERO PUSH1 0xA0 DUP5 ADD MSTORE PUSH1 0xC0 DUP4 ADD MSTORE PUSH1 0xE0 DUP3 ADD MSTORE PUSH2 0x100 ADD PUSH2 0x142 JUMP JUMPDEST PUSH2 0x15E PUSH2 0x291 CALLDATASIZE PUSH1 0x4 PUSH2 0x10AB JUMP JUMPDEST PUSH2 0x718 JUMP JUMPDEST PUSH2 0x169 PUSH1 0x6 SLOAD DUP2 JUMP JUMPDEST PUSH2 0x169 PUSH1 0x9 SLOAD DUP2 JUMP JUMPDEST PUSH2 0x169 PUSH1 0x5 SLOAD DUP2 JUMP JUMPDEST PUSH2 0x15E PUSH2 0x2BF CALLDATASIZE PUSH1 0x4 PUSH2 0x10AB JUMP JUMPDEST PUSH2 0xA6B JUMP JUMPDEST PUSH2 0x15E PUSH2 0x2D2 CALLDATASIZE PUSH1 0x4 PUSH2 0x10AB JUMP JUMPDEST PUSH2 0xD38 JUMP JUMPDEST PUSH2 0x15E PUSH2 0x2E5 CALLDATASIZE PUSH1 0x4 PUSH2 0x10C4 JUMP JUMPDEST PUSH2 0xD89 JUMP JUMPDEST PUSH2 0x2F2 PUSH2 0xDC4 JUMP JUMPDEST PUSH1 0x5 SLOAD DUP4 LT ISZERO PUSH2 0x349 JUMPI PUSH1 0x40 MLOAD PUSH3 0x461BCD PUSH1 0xE5 SHL DUP2 MSTORE PUSH1 0x20 PUSH1 0x4 DUP3 ADD MSTORE PUSH1 0x17 PUSH1 0x24 DUP3 ADD MSTORE PUSH32 0x496E73756666696369656E7420636F6C6C61746572616C000000000000000000 PUSH1 0x44 DUP3 ADD MSTORE PUSH1 0x64 ADD JUMPDEST PUSH1 0x40 MLOAD DUP1 SWAP2 SUB SWAP1 REVERT JUMPDEST PUSH1 0x1 DUP3 LT ISZERO DUP1 ISZERO PUSH2 0x35C JUMPI POP PUSH1 0x6 SLOAD DUP3 GT ISZERO JUMPDEST PUSH2 0x39B JUMPI PUSH1 0x40 MLOAD PUSH3 0x461BCD PUSH1 0xE5 SHL DUP2 MSTORE PUSH1 0x20 PUSH1 0x4 DUP3 ADD MSTORE PUSH1 0x10 PUSH1 0x24 DUP3 ADD MSTORE PUSH16 0x496E76616C6964206C65766572616765 PUSH1 0x80 SHL PUSH1 0x44 DUP3 ADD MSTORE PUSH1 0x64 ADD PUSH2 0x340 JUMP JUMPDEST PUSH1 0xA SLOAD PUSH1 0x40 MLOAD PUSH4 0x23B872DD PUSH1 0xE0 SHL DUP2 MSTORE CALLER PUSH1 0x4 DUP3 ADD MSTORE ADDRESS PUSH1 0x24 DUP3 ADD MSTORE PUSH1 0x44 DUP2 ADD DUP6 SWAP1 MSTORE PUSH1 0x1 PUSH1 0x1 PUSH1 0xA0 SHL SUB SWAP1 SWAP2 AND SWAP1 PUSH4 0x23B872DD SWAP1 PUSH1 0x64 ADD PUSH1 0x20 PUSH1 0x40 MLOAD DUP1 DUP4 SUB DUP2 PUSH1 0x0 DUP8 GAS CALL ISZERO DUP1 ISZERO PUSH2 0x3F2 JUMPI RETURNDATASIZE PUSH1 0x0 DUP1 RETURNDATACOPY RETURNDATASIZE PUSH1 0x0 REVERT JUMPDEST POP POP POP POP PUSH1 0x40 MLOAD RETURNDATASIZE PUSH1 0x1F NOT PUSH1 0x1F DUP3 ADD AND DUP3 ADD DUP1 PUSH1 0x40 MSTORE POP DUP2 ADD SWAP1 PUSH2 0x416 SWAP2 SWAP1 PUSH2 0x10E6 JUMP JUMPDEST PUSH2 0x432 JUMPI PUSH1 0x40 MLOAD PUSH3 0x461BCD PUSH1 0xE5 SHL DUP2 MSTORE PUSH1 0x4 ADD PUSH2 0x340 SWAP1 PUSH2 0x1103 JUMP JUMPDEST PUSH1 0xB SLOAD PUSH1 0x40 MLOAD PUSH4 0x31D98B3F PUSH1 0xE0 SHL DUP2 MSTORE PUSH7 0x1155548BD554D1 PUSH1 0xCA SHL PUSH1 0x4 DUP3 ADD MSTORE PUSH1 0x0 SWAP2 DUP3 SWAP2 PUSH1 0x1 PUSH1 0x1 PUSH1 0xA0 SHL SUB SWAP1 SWAP2 AND SWAP1 PUSH4 0x31D98B3F SWAP1 PUSH1 0x24 ADD PUSH1 0x60 PUSH1 0x40 MLOAD DUP1 DUP4 SUB DUP2 DUP7 GAS STATICCALL ISZERO DUP1 ISZERO PUSH2 0x489 JUMPI RETURNDATASIZE PUSH1 0x0 DUP1 RETURNDATACOPY RETURNDATASIZE PUSH1 0x0 REVERT JUMPDEST POP POP POP POP PUSH1 0x40 MLOAD RETURNDATASIZE PUSH1 0x1F NOT PUSH1 0x1F DUP3 ADD AND DUP3 ADD DUP1 PUSH1 0x40 MSTORE POP DUP2 ADD SWAP1 PUSH2 0x4AD SWAP2 SWAP1 PUSH2 0x112C JUMP JUMPDEST SWAP3 POP POP SWAP2 POP DUP1 PUSH2 0x4CF JUMPI PUSH1 0x40 MLOAD PUSH3 0x461BCD PUSH1 0xE5 SHL DUP2 MSTORE PUSH1 0x4 ADD PUSH2 0x340 SWAP1 PUSH2 0x115B JUMP JUMPDEST PUSH1 0x0 PUSH2 0x4DB DUP6 DUP8 PUSH2 0x1198 JUMP JUMPDEST SWAP1 POP PUSH1 0x0 DUP5 PUSH2 0x510 JUMPI PUSH2 0x50B PUSH1 0x7 SLOAD PUSH2 0x2710 PUSH2 0x4F7 SWAP2 SWAP1 PUSH2 0x11AF JUMP JUMPDEST PUSH2 0x503 DUP9 PUSH2 0x2710 PUSH2 0x1198 JUMP JUMPDEST DUP7 SWAP2 SWAP1 PUSH2 0xE1D JUMP JUMPDEST PUSH2 0x523 JUMP JUMPDEST PUSH1 0x7 SLOAD PUSH2 0x523 SWAP1 PUSH2 0x503 DUP9 PUSH2 0x2710 PUSH2 0x1198 JUMP JUMPDEST PUSH1 0x40 DUP1 MLOAD PUSH2 0x100 DUP2 ADD DUP3 MSTORE CALLER DUP1 DUP3 MSTORE PUSH1 0x20 DUP1 DUP4 ADD DUP13 DUP2 MSTORE DUP4 DUP6 ADD DUP9 DUP2 MSTORE PUSH1 0x60 DUP6 ADD DUP12 DUP2 MSTORE PUSH1 0x80 DUP7 ADD DUP15 DUP2 MSTORE DUP14 ISZERO ISZERO PUSH1 0xA0 DUP9 ADD SWAP1 DUP2 MSTORE TIMESTAMP PUSH1 0xC0 DUP10 ADD SWAP1 DUP2 MSTORE PUSH1 0xE0 DUP10 ADD DUP12 DUP2 MSTORE PUSH1 0x4 DUP1 SLOAD PUSH1 0x0 SWAP1 DUP2 MSTORE PUSH1 0x2 DUP1 DUP12 MSTORE DUP14 DUP3 KECCAK256 SWAP13 MLOAD DUP14 SLOAD PUSH1 0x1 PUSH1 0x1 PUSH1 0xA0 SHL SUB SWAP2 SWAP1 SWAP2 AND PUSH1 0x1 PUSH1 0x1 PUSH1 0xA0 SHL SUB NOT SWAP1 SWAP2 AND OR DUP14 SSTORE SWAP9 MLOAD PUSH1 0x1 DUP1 DUP15 ADD SWAP2 SWAP1 SWAP2 SSTORE SWAP8 MLOAD SWAP9 DUP13 ADD SWAP9 SWAP1 SWAP9 SSTORE SWAP5 MLOAD PUSH1 0x3 DUP1 DUP13 ADD SWAP2 SWAP1 SWAP2 SSTORE SWAP4 MLOAD DUP11 DUP7 ADD SSTORE SWAP2 MLOAD PUSH1 0x5 DUP11 ADD DUP1 SLOAD SWAP2 ISZERO ISZERO PUSH1 0xFF NOT SWAP1 SWAP3 AND SWAP2 SWAP1 SWAP2 OR SWAP1 SSTORE MLOAD PUSH1 0x6 DUP10 ADD SSTORE MLOAD PUSH1 0x7 SWAP1 SWAP8 ADD SWAP7 SWAP1 SWAP7 SSTORE DUP5 DUP4 MSTORE SWAP5 DUP4 MSTORE DUP6 DUP3 KECCAK256 DUP6 SLOAD DUP2 SLOAD SWAP3 DUP4 ADD DUP3 SSTORE SWAP1 DUP4 MSTORE SWAP3 SWAP1 SWAP2 KECCAK256 ADD SSTORE SWAP1 SLOAD SWAP2 MLOAD SWAP3 SWAP4 POP SWAP2 PUSH32 0xC777B444AEA25C2F8905FB974030D522F61D044DA18F577CFDB67B3F4F66DF40 SWAP1 PUSH2 0x651 SWAP1 DUP12 SWAP1 DUP8 SWAP1 DUP13 SWAP1 DUP13 SWAP1 SWAP4 DUP5 MSTORE PUSH1 0x20 DUP5 ADD SWAP3 SWAP1 SWAP3 MSTORE PUSH1 0x40 DUP4 ADD MSTORE ISZERO ISZERO PUSH1 0x60 DUP3 ADD MSTORE PUSH1 0x80 ADD SWAP1 JUMP JUMPDEST PUSH1 0x40 MLOAD DUP1 SWAP2 SUB SWAP1 LOG3 PUSH1 0x4 DUP1 SLOAD SWAP1 PUSH1 0x0 PUSH2 0x669 DUP4 PUSH2 0x11C2 JUMP JUMPDEST SWAP2 SWAP1 POP SSTORE POP POP POP POP POP PUSH2 0x67C PUSH1 0x1 PUSH1 0x0 SSTORE JUMP JUMPDEST POP POP POP JUMP JUMPDEST PUSH1 0x3 PUSH1 0x20 MSTORE DUP2 PUSH1 0x0 MSTORE PUSH1 0x40 PUSH1 0x0 KECCAK256 DUP2 DUP2 SLOAD DUP2 LT PUSH2 0x69D JUMPI PUSH1 0x0 DUP1 REVERT JUMPDEST SWAP1 PUSH1 0x0 MSTORE PUSH1 0x20 PUSH1 0x0 KECCAK256 ADD PUSH1 0x0 SWAP2 POP SWAP2 POP POP SLOAD DUP2 JUMP JUMPDEST PUSH2 0x6BA PUSH2 0xE3C JUMP JUMPDEST PUSH2 0x6C4 PUSH1 0x0 PUSH2 0xE69 JUMP JUMPDEST JUMP JUMPDEST PUSH2 0x6CE PUSH2 0xE3C JUMP JUMPDEST PUSH1 0x0 DUP2 GT PUSH2 0x713 JUMPI PUSH1 0x40 MLOAD PUSH3 0x461BCD PUSH1 0xE5 SHL DUP2 MSTORE PUSH1 0x20 PUSH1 0x4 DUP3 ADD MSTORE PUSH1 0x12 PUSH1 0x24 DUP3 ADD MSTORE PUSH18 0x125B9D985B1A590818DBDB1B185D195C985B PUSH1 0x72 SHL PUSH1 0x44 DUP3 ADD MSTORE PUSH1 0x64 ADD PUSH2 0x340 JUMP JUMPDEST PUSH1 0x5 SSTORE JUMP JUMPDEST PUSH2 0x720 PUSH2 0xDC4 JUMP JUMPDEST PUSH1 0x0 DUP2 DUP2 MSTORE PUSH1 0x2 PUSH1 0x20 MSTORE PUSH1 0x40 SWAP1 KECCAK256 DUP1 SLOAD PUSH1 0x1 PUSH1 0x1 PUSH1 0xA0 SHL SUB AND CALLER EQ PUSH2 0x77B JUMPI PUSH1 0x40 MLOAD PUSH3 0x461BCD PUSH1 0xE5 SHL DUP2 MSTORE PUSH1 0x20 PUSH1 0x4 DUP3 ADD MSTORE PUSH1 0x11 PUSH1 0x24 DUP3 ADD MSTORE PUSH17 0x2737BA103CB7BAB9103837B9B4BA34B7B7 PUSH1 0x79 SHL PUSH1 0x44 DUP3 ADD MSTORE PUSH1 0x64 ADD PUSH2 0x340 JUMP JUMPDEST PUSH1 0x0 DUP2 PUSH1 0x1 ADD SLOAD GT PUSH2 0x7C9 JUMPI PUSH1 0x40 MLOAD PUSH3 0x461BCD PUSH1 0xE5 SHL DUP2 MSTORE PUSH1 0x20 PUSH1 0x4 DUP3 ADD MSTORE PUSH1 0x17 PUSH1 0x24 DUP3 ADD MSTORE PUSH23 0x141BDCDA5D1A5BDB88191BD95CC81B9BDD08195E1A5CDD PUSH1 0x4A SHL PUSH1 0x44 DUP3 ADD MSTORE PUSH1 0x64 ADD PUSH2 0x340 JUMP JUMPDEST PUSH1 0xB SLOAD PUSH1 0x40 MLOAD PUSH4 0x31D98B3F PUSH1 0xE0 SHL DUP2 MSTORE PUSH7 0x1155548BD554D1 PUSH1 0xCA SHL PUSH1 0x4 DUP3 ADD MSTORE PUSH1 0x0 SWAP2 DUP3 SWAP2 PUSH1 0x1 PUSH1 0x1 PUSH1 0xA0 SHL SUB SWAP1 SWAP2 AND SWAP1 PUSH4 0x31D98B3F SWAP1 PUSH1 0x24 ADD PUSH1 0x60 PUSH1 0x40 MLOAD DUP1 DUP4 SUB DUP2 DUP7 GAS STATICCALL ISZERO DUP1 ISZERO PUSH2 0x820 JUMPI RETURNDATASIZE PUSH1 0x0 DUP1 RETURNDATACOPY RETURNDATASIZE PUSH1 0x0 REVERT JUMPDEST POP POP POP POP PUSH1 0x40 MLOAD RETURNDATASIZE PUSH1 0x1F NOT PUSH1 0x1F DUP3 ADD AND DUP3 ADD DUP1 PUSH1 0x40 MSTORE POP DUP2 ADD SWAP1 PUSH2 0x844 SWAP2 SWAP1 PUSH2 0x112C JUMP JUMPDEST SWAP3 POP POP SWAP2 POP DUP1 PUSH2 0x866 JUMPI PUSH1 0x40 MLOAD PUSH3 0x461BCD PUSH1 0xE5 SHL DUP2 MSTORE PUSH1 0x4 ADD PUSH2 0x340 SWAP1 PUSH2 0x115B JUMP JUMPDEST PUSH1 0x40 DUP1 MLOAD PUSH2 0x100 DUP2 ADD DUP3 MSTORE DUP5 SLOAD PUSH1 0x1 PUSH1 0x1 PUSH1 0xA0 SHL SUB AND DUP2 MSTORE PUSH1 0x1 DUP6 ADD SLOAD PUSH1 0x20 DUP3 ADD MSTORE PUSH1 0x2 DUP6 ADD SLOAD SWAP2 DUP2 ADD SWAP2 SWAP1 SWAP2 MSTORE PUSH1 0x3 DUP5 ADD SLOAD PUSH1 0x60 DUP3 ADD MSTORE PUSH1 0x4 DUP5 ADD SLOAD PUSH1 0x80 DUP3 ADD MSTORE PUSH1 0x5 DUP5 ADD SLOAD PUSH1 0xFF AND ISZERO ISZERO PUSH1 0xA0 DUP3 ADD MSTORE PUSH1 0x6 DUP5 ADD SLOAD PUSH1 0xC0 DUP3 ADD MSTORE PUSH1 0x7 DUP5 ADD SLOAD PUSH1 0xE0 DUP3 ADD MSTORE PUSH1 0x0 SWAP1 PUSH2 0x8D8 SWAP1 DUP5 PUSH2 0xEBB JUMP JUMPDEST SWAP1 POP PUSH1 0x0 DUP1 DUP3 SLT PUSH2 0x8FA JUMPI DUP2 DUP6 PUSH1 0x1 ADD SLOAD PUSH2 0x8F3 SWAP2 SWAP1 PUSH2 0x11AF JUMP JUMPDEST SWAP1 POP PUSH2 0x92E JUMP JUMPDEST PUSH1 0x0 PUSH2 0x905 DUP4 PUSH2 0x11DB JUMP JUMPDEST SWAP1 POP DUP6 PUSH1 0x1 ADD SLOAD DUP2 GT PUSH2 0x927 JUMPI DUP1 DUP7 PUSH1 0x1 ADD SLOAD PUSH2 0x922 SWAP2 SWAP1 PUSH2 0x11F7 JUMP JUMPDEST PUSH2 0x92A JUMP JUMPDEST PUSH1 0x0 JUMPDEST SWAP2 POP POP JUMPDEST DUP1 ISZERO PUSH2 0x9C5 JUMPI PUSH1 0xA SLOAD PUSH1 0x40 MLOAD PUSH4 0xA9059CBB PUSH1 0xE0 SHL DUP2 MSTORE CALLER PUSH1 0x4 DUP3 ADD MSTORE PUSH1 0x24 DUP2 ADD DUP4 SWAP1 MSTORE PUSH1 0x1 PUSH1 0x1 PUSH1 0xA0 SHL SUB SWAP1 SWAP2 AND SWAP1 PUSH4 0xA9059CBB SWAP1 PUSH1 0x44 ADD PUSH1 0x20 PUSH1 0x40 MLOAD DUP1 DUP4 SUB DUP2 PUSH1 0x0 DUP8 GAS CALL ISZERO DUP1 ISZERO PUSH2 0x985 JUMPI RETURNDATASIZE PUSH1 0x0 DUP1 RETURNDATACOPY RETURNDATASIZE PUSH1 0x0 REVERT JUMPDEST POP POP POP POP PUSH1 0x40 MLOAD RETURNDATASIZE PUSH1 0x1F NOT PUSH1 0x1F DUP3 ADD AND DUP3 ADD DUP1 PUSH1 0x40 MSTORE POP DUP2 ADD SWAP1 PUSH2 0x9A9 SWAP2 SWAP1 PUSH2 0x10E6 JUMP JUMPDEST PUSH2 0x9C5 JUMPI PUSH1 0x40 MLOAD PUSH3 0x461BCD PUSH1 0xE5 SHL DUP2 MSTORE PUSH1 0x4 ADD PUSH2 0x340 SWAP1 PUSH2 0x1103 JUMP JUMPDEST DUP6 PUSH32 0x33FE89AFD23CAB21B9E7372FEFBD5F105F651931B65A97A5164898F3A723C48D DUP4 PUSH1 0x40 MLOAD PUSH2 0x9F7 SWAP2 DUP2 MSTORE PUSH1 0x20 ADD SWAP1 JUMP JUMPDEST PUSH1 0x40 MLOAD DUP1 SWAP2 SUB SWAP1 LOG2 PUSH1 0x0 DUP7 DUP2 MSTORE PUSH1 0x2 PUSH1 0x20 DUP2 SWAP1 MSTORE PUSH1 0x40 DUP3 KECCAK256 DUP1 SLOAD PUSH1 0x1 PUSH1 0x1 PUSH1 0xA0 SHL SUB NOT AND DUP2 SSTORE PUSH1 0x1 DUP2 ADD DUP4 SWAP1 SSTORE SWAP1 DUP2 ADD DUP3 SWAP1 SSTORE PUSH1 0x3 DUP2 ADD DUP3 SWAP1 SSTORE PUSH1 0x4 DUP2 ADD DUP3 SWAP1 SSTORE PUSH1 0x5 DUP2 ADD DUP1 SLOAD PUSH1 0xFF NOT AND SWAP1 SSTORE PUSH1 0x6 DUP2 ADD DUP3 SWAP1 SSTORE PUSH1 0x7 ADD SSTORE PUSH2 0xA59 CALLER DUP8 PUSH2 0xF54 JUMP JUMPDEST POP POP POP POP POP PUSH2 0xA68 PUSH1 0x1 PUSH1 0x0 SSTORE JUMP JUMPDEST POP JUMP JUMPDEST PUSH2 0xA73 PUSH2 0xDC4 JUMP JUMPDEST PUSH1 0x0 DUP2 DUP2 MSTORE PUSH1 0x2 PUSH1 0x20 MSTORE PUSH1 0x40 SWAP1 KECCAK256 PUSH1 0x1 DUP2 ADD SLOAD PUSH2 0xACC JUMPI PUSH1 0x40 MLOAD PUSH3 0x461BCD PUSH1 0xE5 SHL DUP2 MSTORE PUSH1 0x20 PUSH1 0x4 DUP3 ADD MSTORE PUSH1 0x17 PUSH1 0x24 DUP3 ADD MSTORE PUSH23 0x141BDCDA5D1A5BDB88191BD95CC81B9BDD08195E1A5CDD PUSH1 0x4A SHL PUSH1 0x44 DUP3 ADD MSTORE PUSH1 0x64 ADD PUSH2 0x340 JUMP JUMPDEST PUSH1 0xB SLOAD PUSH1 0x40 MLOAD PUSH4 0x31D98B3F PUSH1 0xE0 SHL DUP2 MSTORE PUSH7 0x1155548BD554D1 PUSH1 0xCA SHL PUSH1 0x4 DUP3 ADD MSTORE PUSH1 0x0 SWAP2 DUP3 SWAP2 PUSH1 0x1 PUSH1 0x1 PUSH1 0xA0 SHL SUB SWAP1 SWAP2 AND SWAP1 PUSH4 0x31D98B3F SWAP1 PUSH1 0x24 ADD PUSH1 0x60 PUSH1 0x40 MLOAD DUP1 DUP4 SUB DUP2 DUP7 GAS STATICCALL ISZERO DUP1 ISZERO PUSH2 0xB23 JUMPI RETURNDATASIZE PUSH1 0x0 DUP1 RETURNDATACOPY RETURNDATASIZE PUSH1 0x0 REVERT JUMPDEST POP POP POP POP PUSH1 0x40 MLOAD RETURNDATASIZE PUSH1 0x1F NOT PUSH1 0x1F DUP3 ADD AND DUP3 ADD DUP1 PUSH1 0x40 MSTORE POP DUP2 ADD SWAP1 PUSH2 0xB47 SWAP2 SWAP1 PUSH2 0x112C JUMP JUMPDEST SWAP3 POP POP SWAP2 POP DUP1 PUSH2 0xB69 JUMPI PUSH1 0x40 MLOAD PUSH3 0x461BCD PUSH1 0xE5 SHL DUP2 MSTORE PUSH1 0x4 ADD PUSH2 0x340 SWAP1 PUSH2 0x115B JUMP JUMPDEST PUSH1 0x5 DUP4 ADD SLOAD PUSH1 0xFF AND DUP1 ISZERO PUSH2 0xB81 JUMPI POP DUP3 PUSH1 0x7 ADD SLOAD DUP3 GT ISZERO JUMPDEST DUP1 PUSH2 0xBA0 JUMPI POP PUSH1 0x5 DUP4 ADD SLOAD PUSH1 0xFF AND ISZERO DUP1 ISZERO PUSH2 0xBA0 JUMPI POP DUP3 PUSH1 0x7 ADD SLOAD DUP3 LT ISZERO JUMPDEST PUSH2 0xBDF JUMPI PUSH1 0x40 MLOAD PUSH3 0x461BCD PUSH1 0xE5 SHL DUP2 MSTORE PUSH1 0x20 PUSH1 0x4 DUP3 ADD MSTORE PUSH1 0x10 PUSH1 0x24 DUP3 ADD MSTORE PUSH16 0x4E6F74206C6971756964617461626C65 PUSH1 0x80 SHL PUSH1 0x44 DUP3 ADD MSTORE PUSH1 0x64 ADD PUSH2 0x340 JUMP JUMPDEST PUSH1 0x0 PUSH1 0x64 DUP5 PUSH1 0x1 ADD SLOAD PUSH1 0x5 PUSH2 0xBF4 SWAP2 SWAP1 PUSH2 0x1198 JUMP JUMPDEST PUSH2 0xBFE SWAP2 SWAP1 PUSH2 0x1220 JUMP JUMPDEST PUSH1 0xA SLOAD PUSH1 0x40 MLOAD PUSH4 0xA9059CBB PUSH1 0xE0 SHL DUP2 MSTORE CALLER PUSH1 0x4 DUP3 ADD MSTORE PUSH1 0x24 DUP2 ADD DUP4 SWAP1 MSTORE SWAP2 SWAP3 POP PUSH1 0x1 PUSH1 0x1 PUSH1 0xA0 SHL SUB AND SWAP1 PUSH4 0xA9059CBB SWAP1 PUSH1 0x44 ADD PUSH1 0x20 PUSH1 0x40 MLOAD DUP1 DUP4 SUB DUP2 PUSH1 0x0 DUP8 GAS CALL ISZERO DUP1 ISZERO PUSH2 0xC50 JUMPI RETURNDATASIZE PUSH1 0x0 DUP1 RETURNDATACOPY RETURNDATASIZE PUSH1 0x0 REVERT JUMPDEST POP POP POP POP PUSH1 0x40 MLOAD RETURNDATASIZE PUSH1 0x1F NOT PUSH1 0x1F DUP3 ADD AND DUP3 ADD DUP1 PUSH1 0x40 MSTORE POP DUP2 ADD SWAP1 PUSH2 0xC74 SWAP2 SWAP1 PUSH2 0x10E6 JUMP JUMPDEST PUSH2 0xC90 JUMPI PUSH1 0x40 MLOAD PUSH3 0x461BCD PUSH1 0xE5 SHL DUP2 MSTORE PUSH1 0x4 ADD PUSH2 0x340 SWAP1 PUSH2 0x1103 JUMP JUMPDEST PUSH1 0x40 MLOAD CALLER DUP2 MSTORE DUP6 SWAP1 PUSH32 0xA9AE24ADEA380A0AAA5F1E18BFE4427AC76C27D30A0159971C13F930C4D4E5A3 SWAP1 PUSH1 0x20 ADD PUSH1 0x40 MLOAD DUP1 SWAP2 SUB SWAP1 LOG2 PUSH1 0x0 DUP6 DUP2 MSTORE PUSH1 0x2 PUSH1 0x20 DUP2 SWAP1 MSTORE PUSH1 0x40 DUP3 KECCAK256 DUP1 SLOAD PUSH1 0x1 PUSH1 0x1 PUSH1 0xA0 SHL SUB NOT AND DUP2 SSTORE PUSH1 0x1 DUP2 ADD DUP4 SWAP1 SSTORE SWAP1 DUP2 ADD DUP3 SWAP1 SSTORE PUSH1 0x3 DUP2 ADD DUP3 SWAP1 SSTORE PUSH1 0x4 DUP2 ADD DUP3 SWAP1 SSTORE PUSH1 0x5 DUP2 ADD DUP1 SLOAD PUSH1 0xFF NOT AND SWAP1 SSTORE PUSH1 0x6 DUP2 ADD DUP3 SWAP1 SSTORE PUSH1 0x7 ADD SSTORE DUP4 SLOAD PUSH2 0xD2A SWAP1 PUSH1 0x1 PUSH1 0x1 PUSH1 0xA0 SHL SUB AND DUP7 PUSH2 0xF54 JUMP JUMPDEST POP POP POP POP PUSH2 0xA68 PUSH1 0x1 PUSH1 0x0 SSTORE JUMP JUMPDEST PUSH2 0xD40 PUSH2 0xE3C JUMP JUMPDEST PUSH1 0x1 DUP2 LT ISZERO PUSH2 0xD84 JUMPI PUSH1 0x40 MLOAD PUSH3 0x461BCD PUSH1 0xE5 SHL DUP2 MSTORE PUSH1 0x20 PUSH1 0x4 DUP3 ADD MSTORE PUSH1 0x10 PUSH1 0x24 DUP3 ADD MSTORE PUSH16 0x496E76616C6964206C65766572616765 PUSH1 0x80 SHL PUSH1 0x44 DUP3 ADD MSTORE PUSH1 0x64 ADD PUSH2 0x340 JUMP JUMPDEST PUSH1 0x6 SSTORE JUMP JUMPDEST PUSH2 0xD91 PUSH2 0xE3C JUMP JUMPDEST PUSH1 0x1 PUSH1 0x1 PUSH1 0xA0 SHL SUB DUP2 AND PUSH2 0xDBB JUMPI PUSH1 0x40 MLOAD PUSH4 0x1E4FBDF7 PUSH1 0xE0 SHL DUP2 MSTORE PUSH1 0x0 PUSH1 0x4 DUP3 ADD MSTORE PUSH1 0x24 ADD PUSH2 0x340 JUMP JUMPDEST PUSH2 0xA68 DUP2 PUSH2 0xE69 JUMP JUMPDEST PUSH1 0x2 PUSH1 0x0 SLOAD SUB PUSH2 0xE16 JUMPI PUSH1 0x40 MLOAD PUSH3 0x461BCD PUSH1 0xE5 SHL DUP2 MSTORE PUSH1 0x20 PUSH1 0x4 DUP3 ADD MSTORE PUSH1 0x1F PUSH1 0x24 DUP3 ADD MSTORE PUSH32 0x5265656E7472616E637947756172643A207265656E7472616E742063616C6C00 PUSH1 0x44 DUP3 ADD MSTORE PUSH1 0x64 ADD PUSH2 0x340 JUMP JUMPDEST PUSH1 0x2 PUSH1 0x0 SSTORE JUMP JUMPDEST PUSH1 0x0 DUP2 PUSH2 0xE2A DUP5 DUP7 PUSH2 0x1198 JUMP JUMPDEST PUSH2 0xE34 SWAP2 SWAP1 PUSH2 0x1220 JUMP JUMPDEST SWAP5 SWAP4 POP POP POP POP JUMP JUMPDEST PUSH1 0x1 SLOAD PUSH1 0x1 PUSH1 0x1 PUSH1 0xA0 SHL SUB AND CALLER EQ PUSH2 0x6C4 JUMPI PUSH1 0x40 MLOAD PUSH4 0x118CDAA7 PUSH1 0xE0 SHL DUP2 MSTORE CALLER PUSH1 0x4 DUP3 ADD MSTORE PUSH1 0x24 ADD PUSH2 0x340 JUMP JUMPDEST PUSH1 0x1 DUP1 SLOAD PUSH1 0x1 PUSH1 0x1 PUSH1 0xA0 SHL SUB DUP4 DUP2 AND PUSH1 0x1 PUSH1 0x1 PUSH1 0xA0 SHL SUB NOT DUP4 AND DUP2 OR SWAP1 SWAP4 SSTORE PUSH1 0x40 MLOAD SWAP2 AND SWAP2 SWAP1 DUP3 SWAP1 PUSH32 0x8BE0079C531659141344CD1FD0A4F28419497F9722A3DAAFE3B4186F6B6457E0 SWAP1 PUSH1 0x0 SWAP1 LOG3 POP POP JUMP JUMPDEST PUSH1 0x0 DUP1 DUP4 PUSH1 0x60 ADD MLOAD GT PUSH2 0xF06 JUMPI PUSH1 0x40 MLOAD PUSH3 0x461BCD PUSH1 0xE5 SHL DUP2 MSTORE PUSH1 0x20 PUSH1 0x4 DUP3 ADD MSTORE PUSH1 0x13 PUSH1 0x24 DUP3 ADD MSTORE PUSH19 0x496E76616C696420656E747279207072696365 PUSH1 0x68 SHL PUSH1 0x44 DUP3 ADD MSTORE PUSH1 0x64 ADD PUSH2 0x340 JUMP JUMPDEST DUP3 PUSH1 0xA0 ADD MLOAD ISZERO PUSH2 0xF3F JUMPI PUSH1 0x60 DUP4 ADD MLOAD PUSH2 0xF1F DUP2 DUP5 PUSH2 0x1234 JUMP JUMPDEST DUP5 PUSH1 0x40 ADD MLOAD PUSH2 0xF2E SWAP2 SWAP1 PUSH2 0x125B JUMP JUMPDEST PUSH2 0xF38 SWAP2 SWAP1 PUSH2 0x128B JUMP JUMPDEST SWAP1 POP PUSH2 0xF4E JUMP JUMPDEST PUSH1 0x60 DUP4 ADD MLOAD PUSH2 0xF1F DUP4 DUP3 PUSH2 0x1234 JUMP JUMPDEST SWAP3 SWAP2 POP POP JUMP JUMPDEST PUSH1 0x1 PUSH1 0x1 PUSH1 0xA0 SHL SUB DUP3 AND PUSH1 0x0 SWAP1 DUP2 MSTORE PUSH1 0x3 PUSH1 0x20 MSTORE PUSH1 0x40 DUP2 KECCAK256 SWAP1 JUMPDEST DUP2 SLOAD DUP2 LT ISZERO PUSH2 0x1018 JUMPI DUP3 DUP3 DUP3 DUP2 SLOAD DUP2 LT PUSH2 0xF8A JUMPI PUSH2 0xF8A PUSH2 0x12B9 JUMP JUMPDEST SWAP1 PUSH1 0x0 MSTORE PUSH1 0x20 PUSH1 0x0 KECCAK256 ADD SLOAD SUB PUSH2 0x1010 JUMPI DUP2 SLOAD DUP3 SWAP1 PUSH2 0xFAA SWAP1 PUSH1 0x1 SWAP1 PUSH2 0x11F7 JUMP JUMPDEST DUP2 SLOAD DUP2 LT PUSH2 0xFBA JUMPI PUSH2 0xFBA PUSH2 0x12B9 JUMP JUMPDEST SWAP1 PUSH1 0x0 MSTORE PUSH1 0x20 PUSH1 0x0 KECCAK256 ADD SLOAD DUP3 DUP3 DUP2 SLOAD DUP2 LT PUSH2 0xFD7 JUMPI PUSH2 0xFD7 PUSH2 0x12B9 JUMP JUMPDEST SWAP1 PUSH1 0x0 MSTORE PUSH1 0x20 PUSH1 0x0 KECCAK256 ADD DUP2 SWAP1 SSTORE POP DUP2 DUP1 SLOAD DUP1 PUSH2 0xFF5 JUMPI PUSH2 0xFF5 PUSH2 0x12CF JUMP JUMPDEST PUSH1 0x1 SWAP1 SUB DUP2 DUP2 SWAP1 PUSH1 0x0 MSTORE PUSH1 0x20 PUSH1 0x0 KECCAK256 ADD PUSH1 0x0 SWAP1 SSTORE SWAP1 SSTORE PUSH2 0x1018 JUMP JUMPDEST PUSH1 0x1 ADD PUSH2 0xF6E JUMP JUMPDEST POP POP POP POP JUMP JUMPDEST DUP1 ISZERO ISZERO DUP2 EQ PUSH2 0xA68 JUMPI PUSH1 0x0 DUP1 REVERT JUMPDEST PUSH1 0x0 DUP1 PUSH1 0x0 PUSH1 0x60 DUP5 DUP7 SUB SLT ISZERO PUSH2 0x1041 JUMPI PUSH1 0x0 DUP1 REVERT JUMPDEST DUP4 CALLDATALOAD SWAP3 POP PUSH1 0x20 DUP5 ADD CALLDATALOAD SWAP2 POP PUSH1 0x40 DUP5 ADD CALLDATALOAD PUSH2 0x105A DUP2 PUSH2 0x101E JUMP JUMPDEST DUP1 SWAP2 POP POP SWAP3 POP SWAP3 POP SWAP3 JUMP JUMPDEST DUP1 CALLDATALOAD PUSH1 0x1 PUSH1 0x1 PUSH1 0xA0 SHL SUB DUP2 AND DUP2 EQ PUSH2 0x107C JUMPI PUSH1 0x0 DUP1 REVERT JUMPDEST SWAP2 SWAP1 POP JUMP JUMPDEST PUSH1 0x0 DUP1 PUSH1 0x40 DUP4 DUP6 SUB SLT ISZERO PUSH2 0x1094 JUMPI PUSH1 0x0 DUP1 REVERT JUMPDEST PUSH2 0x109D DUP4 PUSH2 0x1065 JUMP JUMPDEST SWAP5 PUSH1 0x20 SWAP4 SWAP1 SWAP4 ADD CALLDATALOAD SWAP4 POP POP POP JUMP JUMPDEST PUSH1 0x0 PUSH1 0x20 DUP3 DUP5 SUB SLT ISZERO PUSH2 0x10BD JUMPI PUSH1 0x0 DUP1 REVERT JUMPDEST POP CALLDATALOAD SWAP2 SWAP1 POP JUMP JUMPDEST PUSH1 0x0 PUSH1 0x20 DUP3 DUP5 SUB SLT ISZERO PUSH2 0x10D6 JUMPI PUSH1 0x0 DUP1 REVERT JUMPDEST PUSH2 0x10DF DUP3 PUSH2 0x1065 JUMP JUMPDEST SWAP4 SWAP3 POP POP POP JUMP JUMPDEST PUSH1 0x0 PUSH1 0x20 DUP3 DUP5 SUB SLT ISZERO PUSH2 0x10F8 JUMPI PUSH1 0x0 DUP1 REVERT JUMPDEST DUP2 MLOAD PUSH2 0x10DF DUP2 PUSH2 0x101E JUMP JUMPDEST PUSH1 0x20 DUP1 DUP3 MSTORE PUSH1 0xF SWAP1 DUP3 ADD MSTORE PUSH15 0x151C985B9CD9995C8819985A5B1959 PUSH1 0x8A SHL PUSH1 0x40 DUP3 ADD MSTORE PUSH1 0x60 ADD SWAP1 JUMP JUMPDEST PUSH1 0x0 DUP1 PUSH1 0x0 PUSH1 0x60 DUP5 DUP7 SUB SLT ISZERO PUSH2 0x1141 JUMPI PUSH1 0x0 DUP1 REVERT JUMPDEST DUP4 MLOAD PUSH1 0x20 DUP6 ADD MLOAD PUSH1 0x40 DUP7 ADD MLOAD SWAP2 SWAP5 POP SWAP3 POP PUSH2 0x105A DUP2 PUSH2 0x101E JUMP JUMPDEST PUSH1 0x20 DUP1 DUP3 MSTORE PUSH1 0xD SWAP1 DUP3 ADD MSTORE PUSH13 0x496E76616C6964207072696365 PUSH1 0x98 SHL PUSH1 0x40 DUP3 ADD MSTORE PUSH1 0x60 ADD SWAP1 JUMP JUMPDEST PUSH4 0x4E487B71 PUSH1 0xE0 SHL PUSH1 0x0 MSTORE PUSH1 0x11 PUSH1 0x4 MSTORE PUSH1 0x24 PUSH1 0x0 REVERT JUMPDEST DUP1 DUP3 MUL DUP2 ISZERO DUP3 DUP3 DIV DUP5 EQ OR PUSH2 0xF4E JUMPI PUSH2 0xF4E PUSH2 0x1182 JUMP JUMPDEST DUP1 DUP3 ADD DUP1 DUP3 GT ISZERO PUSH2 0xF4E JUMPI PUSH2 0xF4E PUSH2 0x1182 JUMP JUMPDEST PUSH1 0x0 PUSH1 0x1 DUP3 ADD PUSH2 0x11D4 JUMPI PUSH2 0x11D4 PUSH2 0x1182 JUMP JUMPDEST POP PUSH1 0x1 ADD SWAP1 JUMP JUMPDEST PUSH1 0x0 PUSH1 0x1 PUSH1 0xFF SHL DUP3 ADD PUSH2 0x11F0 JUMPI PUSH2 0x11F0 PUSH2 0x1182 JUMP JUMPDEST POP PUSH1 0x0 SUB SWAP1 JUMP JUMPDEST DUP2 DUP2 SUB DUP2 DUP2 GT ISZERO PUSH2 0xF4E JUMPI PUSH2 0xF4E PUSH2 0x1182 JUMP JUMPDEST PUSH4 0x4E487B71 PUSH1 0xE0 SHL PUSH1 0x0 MSTORE PUSH1 0x12 PUSH1 0x4 MSTORE PUSH1 0x24 PUSH1 0x0 REVERT JUMPDEST PUSH1 0x0 DUP3 PUSH2 0x122F JUMPI PUSH2 0x122F PUSH2 0x120A JUMP JUMPDEST POP DIV SWAP1 JUMP JUMPDEST DUP2 DUP2 SUB PUSH1 0x0 DUP4 SLT DUP1 ISZERO DUP4 DUP4 SGT AND DUP4 DUP4 SLT DUP3 AND OR ISZERO PUSH2 0x1254 JUMPI PUSH2 0x1254 PUSH2 0x1182 JUMP JUMPDEST POP SWAP3 SWAP2 POP POP JUMP JUMPDEST DUP1 DUP3 MUL PUSH1 0x0 DUP3 SLT PUSH1 0x1 PUSH1 0xFF SHL DUP5 EQ AND ISZERO PUSH2 0x1277 JUMPI PUSH2 0x1277 PUSH2 0x1182 JUMP JUMPDEST DUP2 DUP2 SDIV DUP4 EQ DUP3 ISZERO OR PUSH2 0xF4E JUMPI PUSH2 0xF4E PUSH2 0x1182 JUMP JUMPDEST PUSH1 0x0 DUP3 PUSH2 0x129A JUMPI PUSH2 0x129A PUSH2 0x120A JUMP JUMPDEST PUSH1 0x1 PUSH1 0xFF SHL DUP3 EQ PUSH1 0x0 NOT DUP5 EQ AND ISZERO PUSH2 0x12B4 JUMPI PUSH2 0x12B4 PUSH2 0x1182 JUMP JUMPDEST POP SDIV SWAP1 JUMP JUMPDEST PUSH4 0x4E487B71 PUSH1 0xE0 SHL PUSH1 0x0 MSTORE PUSH1 0x32 PUSH1 0x4 MSTORE PUSH1 0x24 PUSH1 0x0 REVERT JUMPDEST PUSH4 0x4E487B71 PUSH1 0xE0 SHL PUSH1 0x0 MSTORE PUSH1 0x31 PUSH1 0x4 MSTORE PUSH1 0x24 PUSH1 0x0 REVERT INVALID LOG2 PUSH5 0x6970667358 0x22 SLT KECCAK256 0xD6 0xC8 0xC 0xE SLOAD 0xEA 0xF DUP13 SWAP8 EQ ADDRESS SIGNEXTEND 0xAC PUSH28 0xDECFAE6AC6590D4AF67C1AB07ABA97569F7164736F6C634300081C00 CALLER "
		},
		"gasEstimates": {
			"creation": {
				"codeDepositCost": "978200",
				"executionCost": "infinite",
				"totalCost": "infinite"
			},
			"external": {
				"closePosition(uint256)": "infinite",
				"fundingRate()": "2385",
				"liquidatePosition(uint256)": "infinite",
				"liquidationThreshold()": "2363",
				"maxLeverage()": "2384",
				"minCollateral()": "2339",
				"nextPositionId()": "2406",
				"openPosition(uint256,uint256,bool)": "infinite",
				"oracle()": "2393",
				"owner()": "2343",
				"positions(uint256)": "17489",
				"protocolFee()": "2317",
				"renounceOwnership()": "infinite",
				"setMaxLeverage(uint256)": "24602",
				"setMinCollateral(uint256)": "24600",
				"transferOwnership(address)": "28446",
				"ubi4allToken()": "2350",
				"userPositions(address,uint256)": "4767"
			},
			"internal": {
				"_removeUserPosition(address,uint256)": "infinite",
				"calculatePnL(struct UBI4ALLTrading.Position memory,uint256)": "infinite"
			}
		},
		"methodIdentifiers": {
			"closePosition(uint256)": "a126d601",
			"fundingRate()": "41d3c84c",
			"liquidatePosition(uint256)": "cdddd4e5",
			"liquidationThreshold()": "4031234c",
			"maxLeverage()": "ae3302c2",
			"minCollateral()": "ba2de9bc",
			"nextPositionId()": "899346c7",
			"openPosition(uint256,uint256,bool)": "1558c966",
			"oracle()": "7dc0d1d0",
			"owner()": "8da5cb5b",
			"positions(uint256)": "99fbab88",
			"protocolFee()": "b0e21e8a",
			"renounceOwnership()": "715018a6",
			"setMaxLeverage(uint256)": "d3127e63",
			"setMinCollateral(uint256)": "846321a4",
			"transferOwnership(address)": "f2fde38b",
			"ubi4allToken()": "10d67098",
			"userPositions(address,uint256)": "5e1b4d99"
		}
	},
	"abi": [
		{
			"inputs": [
				{
					"internalType": "address",
					"name": "_ubi4allToken",
					"type": "address"
				},
				{
					"internalType": "address",
					"name": "_oracle",
					"type": "address"
				},
				{
					"internalType": "address",
					"name": "initialOwner",
					"type": "address"
				}
			],
			"stateMutability": "nonpayable",
			"type": "constructor"
		},
		{
			"inputs": [
				{
					"internalType": "address",
					"name": "owner",
					"type": "address"
				}
			],
			"name": "OwnableInvalidOwner",
			"type": "error"
		},
		{
			"inputs": [
				{
					"internalType": "address",
					"name": "account",
					"type": "address"
				}
			],
			"name": "OwnableUnauthorizedAccount",
			"type": "error"
		},
		{
			"anonymous": false,
			"inputs": [
				{
					"indexed": true,
					"internalType": "address",
					"name": "previousOwner",
					"type": "address"
				},
				{
					"indexed": true,
					"internalType": "address",
					"name": "newOwner",
					"type": "address"
				}
			],
			"name": "OwnershipTransferred",
			"type": "event"
		},
		{
			"anonymous": false,
			"inputs": [
				{
					"indexed": true,
					"internalType": "uint256",
					"name": "positionId",
					"type": "uint256"
				},
				{
					"indexed": false,
					"internalType": "int256",
					"name": "pnl",
					"type": "int256"
				}
			],
			"name": "PositionClosed",
			"type": "event"
		},
		{
			"anonymous": false,
			"inputs": [
				{
					"indexed": true,
					"internalType": "uint256",
					"name": "positionId",
					"type": "uint256"
				},
				{
					"indexed": false,
					"internalType": "address",
					"name": "liquidator",
					"type": "address"
				}
			],
			"name": "PositionLiquidated",
			"type": "event"
		},
		{
			"anonymous": false,
			"inputs": [
				{
					"indexed": true,
					"internalType": "uint256",
					"name": "positionId",
					"type": "uint256"
				},
				{
					"indexed": true,
					"internalType": "address",
					"name": "trader",
					"type": "address"
				},
				{
					"indexed": false,
					"internalType": "uint256",
					"name": "collateral",
					"type": "uint256"
				},
				{
					"indexed": false,
					"internalType": "uint256",
					"name": "size",
					"type": "uint256"
				},
				{
					"indexed": false,
					"internalType": "uint256",
					"name": "leverage",
					"type": "uint256"
				},
				{
					"indexed": false,
					"internalType": "bool",
					"name": "isLong",
					"type": "bool"
				}
			],
			"name": "PositionOpened",
			"type": "event"
		},
		{
			"inputs": [
				{
					"internalType": "uint256",
					"name": "positionId",
					"type": "uint256"
				}
			],
			"name": "closePosition",
			"outputs": [],
			"stateMutability": "nonpayable",
			"type": "function"
		},
		{
			"inputs": [],
			"name": "fundingRate",
			"outputs": [
				{
					"internalType": "uint256",
					"name": "",
					"type": "uint256"
				}
			],
			"stateMutability": "view",
			"type": "function"
		},
		{
			"inputs": [
				{
					"internalType": "uint256",
					"name": "positionId",
					"type": "uint256"
				}
			],
			"name": "liquidatePosition",
			"outputs": [],
			"stateMutability": "nonpayable",
			"type": "function"
		},
		{
			"inputs": [],
			"name": "liquidationThreshold",
			"outputs": [
				{
					"internalType": "uint256",
					"name": "",
					"type": "uint256"
				}
			],
			"stateMutability": "view",
			"type": "function"
		},
		{
			"inputs": [],
			"name": "maxLeverage",
			"outputs": [
				{
					"internalType": "uint256",
					"name": "",
					"type": "uint256"
				}
			],
			"stateMutability": "view",
			"type": "function"
		},
		{
			"inputs": [],
			"name": "minCollateral",
			"outputs": [
				{
					"internalType": "uint256",
					"name": "",
					"type": "uint256"
				}
			],
			"stateMutability": "view",
			"type": "function"
		},
		{
			"inputs": [],
			"name": "nextPositionId",
			"outputs": [
				{
					"internalType": "uint256",
					"name": "",
					"type": "uint256"
				}
			],
			"stateMutability": "view",
			"type": "function"
		},
		{
			"inputs": [
				{
					"internalType": "uint256",
					"name": "collateral",
					"type": "uint256"
				},
				{
					"internalType": "uint256",
					"name": "leverage",
					"type": "uint256"
				},
				{
					"internalType": "bool",
					"name": "isLong",
					"type": "bool"
				}
			],
			"name": "openPosition",
			"outputs": [],
			"stateMutability": "nonpayable",
			"type": "function"
		},
		{
			"inputs": [],
			"name": "oracle",
			"outputs": [
				{
					"internalType": "contract IUBI4ALLOracle",
					"name": "",
					"type": "address"
				}
			],
			"stateMutability": "view",
			"type": "function"
		},
		{
			"inputs": [],
			"name": "owner",
			"outputs": [
				{
					"internalType": "address",
					"name": "",
					"type": "address"
				}
			],
			"stateMutability": "view",
			"type": "function"
		},
		{
			"inputs": [
				{
					"internalType": "uint256",
					"name": "",
					"type": "uint256"
				}
			],
			"name": "positions",
			"outputs": [
				{
					"internalType": "address",
					"name": "trader",
					"type": "address"
				},
				{
					"internalType": "uint256",
					"name": "collateral",
					"type": "uint256"
				},
				{
					"internalType": "uint256",
					"name": "size",
					"type": "uint256"
				},
				{
					"internalType": "uint256",
					"name": "entryPrice",
					"type": "uint256"
				},
				{
					"internalType": "uint256",
					"name": "leverage",
					"type": "uint256"
				},
				{
					"internalType": "bool",
					"name": "isLong",
					"type": "bool"
				},
				{
					"internalType": "uint256",
					"name": "timestamp",
					"type": "uint256"
				},
				{
					"internalType": "uint256",
					"name": "liquidationPrice",
					"type": "uint256"
				}
			],
			"stateMutability": "view",
			"type": "function"
		},
		{
			"inputs": [],
			"name": "protocolFee",
			"outputs": [
				{
					"internalType": "uint256",
					"name": "",
					"type": "uint256"
				}
			],
			"stateMutability": "view",
			"type": "function"
		},
		{
			"inputs": [],
			"name": "renounceOwnership",
			"outputs": [],
			"stateMutability": "nonpayable",
			"type": "function"
		},
		{
			"inputs": [
				{
					"internalType": "uint256",
					"name": "_maxLeverage",
					"type": "uint256"
				}
			],
			"name": "setMaxLeverage",
			"outputs": [],
			"stateMutability": "nonpayable",
			"type": "function"
		},
		{
			"inputs": [
				{
					"internalType": "uint256",
					"name": "_minCollateral",
					"type": "uint256"
				}
			],
			"name": "setMinCollateral",
			"outputs": [],
			"stateMutability": "nonpayable",
			"type": "function"
		},
		{
			"inputs": [
				{
					"internalType": "address",
					"name": "newOwner",
					"type": "address"
				}
			],
			"name": "transferOwnership",
			"outputs": [],
			"stateMutability": "nonpayable",
			"type": "function"
		},
		{
			"inputs": [],
			"name": "ubi4allToken",
			"outputs": [
				{
					"internalType": "contract IERC20",
					"name": "",
					"type": "address"
				}
			],
			"stateMutability": "view",
			"type": "function"
		},
		{
			"inputs": [
				{
					"internalType": "address",
					"name": "",
					"type": "address"
				},
				{
					"internalType": "uint256",
					"name": "",
					"type": "uint256"
				}
			],
			"name": "userPositions",
			"outputs": [
				{
					"internalType": "uint256",
					"name": "",
					"type": "uint256"
				}
			],
			"stateMutability": "view",
			"type": "function"
		}
	]
}