{
	"data": {
		"bytecode": {
			"linkReferences": {},
			"object": "60a060405234801561001057600080fd5b5060405161290738038061290783398101604081905261002f91610678565b806040518060400160405280600f81526020016e145d585b9d1d5b481550924d105313608a1b8152506040518060400160405280600381526020016251344160e81b8152508160039081610083919061078b565b506004610090828261078b565b5050506001600160a01b0381166100c257604051631e4fbdf760e01b8152600060048201526024015b60405180910390fd5b6100cb816104a6565b5060016006556007805460ff191690556001600160a01b0386166101315760405162461bcd60e51b815260206004820152601760248201527f496e76616c69642074726561737572792077616c6c657400000000000000000060448201526064016100b9565b6001600160a01b0385166101875760405162461bcd60e51b815260206004820152601860248201527f496e76616c69642065636f73797374656d2077616c6c6574000000000000000060448201526064016100b9565b6001600160a01b0384166101dd5760405162461bcd60e51b815260206004820152601860248201527f496e76616c696420636f6d6d756e6974792077616c6c6574000000000000000060448201526064016100b9565b6001600160a01b0383166102335760405162461bcd60e51b815260206004820152601860248201527f496e76616c6964206c69717569646974792077616c6c6574000000000000000060448201526064016100b9565b6001600160a01b0382166102895760405162461bcd60e51b815260206004820152601660248201527f496e76616c696420726573657276652077616c6c65740000000000000000000060448201526064016100b9565b60078054610100600160a81b0319166101006001600160a01b038981169190910291909117909155600880546001600160a01b031990811688841617909155600980548216878416179055600a80548216868416179055600b805490911691841691909117905542608052604080518082019091528060646103186b033b2e3c9fd0803ce8000000603261085f565b610322919061087c565b81526000602091820181905260075461010090046001600160a01b03168152600e8252604090819020835181559290910151600190920191909155805180820190915280606461037f6b033b2e3c9fd0803ce8000000601461085f565b610389919061087c565b8152600060209182018190526008546001600160a01b03168152600e825260409020825181559101516001909101556104113060646103d56b033b2e3c9fd0803ce8000000601461085f565b6103df919061087c565b60646103f86b033b2e3c9fd0803ce8000000603261085f565b610402919061087c565b61040c919061089e565b6104f8565b600954610444906001600160a01b0316606461043a6b033b2e3c9fd0803ce8000000600f61085f565b61040c919061087c565b600a8054610472916001600160a01b039091169060649061043a906b033b2e3c9fd0803ce80000009061085f565b600b5461049b906001600160a01b0316606461043a6b033b2e3c9fd0803ce8000000600561085f565b5050505050506108b1565b600580546001600160a01b038381166001600160a01b0319831681179093556040519116919082907f8be0079c531659141344cd1fd0a4f28419497f9722a3daafe3b4186f6b6457e090600090a35050565b6001600160a01b0382166105225760405163ec442f0560e01b8152600060048201526024016100b9565b61052e60008383610532565b5050565b6001600160a01b03831661055d578060026000828254610552919061089e565b909155506105cf9050565b6001600160a01b038316600090815260208190526040902054818110156105b05760405163391434e360e21b81526001600160a01b038516600482015260248101829052604481018390526064016100b9565b6001600160a01b03841660009081526020819052604090209082900390555b6001600160a01b0382166105eb5760028054829003905561060a565b6001600160a01b03821660009081526020819052604090208054820190555b816001600160a01b0316836001600160a01b03167fddf252ad1be2c89b69c2b068fc378daa952ba7f163c4a11628f55a4df523b3ef8360405161064f91815260200190565b60405180910390a3505050565b80516001600160a01b038116811461067357600080fd5b919050565b60008060008060008060c0878903121561069157600080fd5b61069a8761065c565b95506106a86020880161065c565b94506106b66040880161065c565b93506106c46060880161065c565b92506106d26080880161065c565b91506106e060a0880161065c565b90509295509295509295565b634e487b7160e01b600052604160045260246000fd5b600181811c9082168061071657607f821691505b60208210810361073657634e487b7160e01b600052602260045260246000fd5b50919050565b601f82111561078657806000526020600020601f840160051c810160208510156107635750805b601f840160051c820191505b81811015610783576000815560010161076f565b50505b505050565b81516001600160401b038111156107a4576107a46106ec565b6107b8816107b28454610702565b8461073c565b6020601f8211600181146107ec57600083156107d45750848201515b600019600385901b1c1916600184901b178455610783565b600084815260208120601f198516915b8281101561081c57878501518255602094850194600190920191016107fc565b508482101561083a5786840151600019600387901b60f8161c191681555b50505050600190811b01905550565b634e487b7160e01b600052601160045260246000fd5b808202811582820484141761087657610876610849565b92915050565b60008261089957634e487b7160e01b600052601260045260246000fd5b500490565b8082018082111561087657610876610849565b60805161202d6108da600039600081816102f70152818161064a01526114e5015261202d6000f3fe608060405234801561001057600080fd5b50600436106102695760003560e01c8063780b973711610151578063bf1ad7e0116100c3578063d72b11bd11610087578063d72b11bd14610529578063db7a46051461053c578063dd62ed3e14610589578063f2fde38b146105c2578063f9428f38146105d5578063fdb20ccb146105dd57600080fd5b8063bf1ad7e0146104d7578063c4e41b22146104df578063c7574839146104f0578063d469801614610503578063d486d1291461051657600080fd5b806390534f241161011557806390534f24146104865780639576a3741461048e57806395d89b41146104a1578063993eb1c5146104a9578063a9059cbb146104b1578063b7e26a2e146104c457600080fd5b8063780b9737146104405780637b5c7f03146104535780638456cb591461045b5780638da5cb5b14610463578063902d55a51461047457600080fd5b80633f4ba83a116101ea5780634a0ced96116101ae5780634a0ced96146103ce5780635c975abb146103d757806365ed6e23146103e257806370a0823114610412578063715018a614610425578063743003781461042d57600080fd5b80633f4ba83a1461035b57806340c10f191461036557806342966c6814610378578063435263ef1461038b5780634626402b146103b657600080fd5b806323b872dd1161023157806323b872dd146102df578063254800d4146102f25780632af4459214610319578063313ce5671461033957806333127b0d1461034857600080fd5b80630197d9721461026e5780630553be1e1461028c57806306fdde031461029f578063095ea7b3146102b457806318160ddd146102d7575b600080fd5b6102796301e1338081565b6040519081526020015b60405180910390f35b61027961029a366004611c0c565b610619565b6102a76106c0565b6040516102839190611c77565b6102c76102c2366004611c8a565b610752565b6040519015158152602001610283565b600254610279565b6102c76102ed366004611cb4565b61076c565b6102797f000000000000000000000000000000000000000000000000000000000000000081565b610279610327366004611c0c565b600c6020526000908152604090205481565b60405160128152602001610283565b6102c7610356366004611cf1565b610792565b6103636108fa565b005b610363610373366004611c8a565b61090c565b610363610386366004611d24565b610982565b60085461039e906001600160a01b031681565b6040516001600160a01b039091168152602001610283565b60075461039e9061010090046001600160a01b031681565b610279600d5481565b60075460ff166102c7565b6103ea6109ff565b604080519586526020860194909452928401919091526060830152608082015260a001610283565b610279610420366004611c0c565b610ac0565b610363610ade565b61036361043b366004611d24565b610af0565b61036361044e366004611d53565b610bf5565b610279611003565b610363611028565b6005546001600160a01b031661039e565b610279676765c793fa10079d601b1b81565b610279611038565b61036361049c366004611d24565b611050565b6102a7611145565b610279611154565b6102c76104bf366004611c8a565b61116c565b6103636104d2366004611e1d565b6111d1565b6102796113df565b676765c793fa10079d601b1b610279565b60095461039e906001600160a01b031681565b600a5461039e906001600160a01b031681565b610363610524366004611c0c565b6113f7565b600b5461039e906001600160a01b031681565b600754600854600954600a54600b54604080516101009096046001600160a01b0390811687529485166020870152928416928501929092528216606084015216608082015260a001610283565b610279610597366004611e1d565b6001600160a01b03918216600090815260016020908152604080832093909416825291909152205490565b6103636105d0366004611c0c565b61160e565b610279611649565b6106046105eb366004611c0c565b600e602052600090815260409020805460019091015482565b60408051928352602083019190915201610283565b6001600160a01b0381166000908152600e60205260408120805482036106425750600092915050565b600061066e427f0000000000000000000000000000000000000000000000000000000000000000611661565b905060006106976301e1338061069184866000015461166d90919063ffffffff16565b90611679565b83549091508111156106a7575081545b60018301546106b7908290611661565b95945050505050565b6060600380546106cf90611e47565b80601f01602080910402602001604051908101604052809291908181526020018280546106fb90611e47565b80156107485780601f1061071d57610100808354040283529160200191610748565b820191906000526020600020905b81548152906001019060200180831161072b57829003601f168201915b5050505050905090565b600033610760818585611685565b60019150505b92915050565b60003361077a858285611697565b610785858585611716565b60019150505b9392505050565b600061079c611775565b6107a46117ce565b6001600160a01b0384166107d35760405162461bcd60e51b81526004016107ca90611e81565b60405180910390fd5b600083116107f35760405162461bcd60e51b81526004016107ca90611eac565b60648210156108445760405162461bcd60e51b815260206004820152601c60248201527f4c65766572616765206d757374206265206174206c656173742031780000000060448201526064016107ca565b8261084e33610ac0565b10156108935760405162461bcd60e51b8152602060048201526014602482015273496e73756666696369656e742062616c616e636560601b60448201526064016107ca565b600061089f8585611814565b905080156108ee5760408051858152602081018590526001600160a01b0387169133917fae5a72e837b1c61d8f56d35c16816d1e29cc1a1e858253419499dda337ea03e3910160405180910390a35b905061078b6001600655565b610902611822565b61090a61184f565b565b610914611822565b61091c611775565b6109246117ce565b6001600160a01b03821661094a5760405162461bcd60e51b81526004016107ca90611e81565b6000811161096a5760405162461bcd60e51b81526004016107ca90611eac565b61097482826118a1565b61097e6001600655565b5050565b61098a611775565b6109926117ce565b600081116109b25760405162461bcd60e51b81526004016107ca90611eac565b6109bc33826118d7565b60405181815233907ffd38818f5291bf0bb3a2a48aadc06ba8757865d1dabd804585338aab3009dcb6906020015b60405180910390a26109fc6001600655565b50565b6000808080806064610a1d676765c793fa10079d601b1b6032611eea565b610a279190611f01565b6064610a3f676765c793fa10079d601b1b6014611eea565b610a499190611f01565b6064610a61676765c793fa10079d601b1b600f611eea565b610a6b9190611f01565b6064610a83676765c793fa10079d601b1b600a611eea565b610a8d9190611f01565b6064610aa5676765c793fa10079d601b1b6005611eea565b610aaf9190611f01565b945094509450945094509091929394565b6001600160a01b038116600090815260208190526040812054610766565b610ae6611822565b61090a600061190d565b610af8611775565b610b006117ce565b60008111610b205760405162461bcd60e51b81526004016107ca90611eac565b336000908152600c6020526040902054811115610b7f5760405162461bcd60e51b815260206004820152601b60248201527f496e73756666696369656e74206c6f636b65642062616c616e6365000000000060448201526064016107ca565b336000908152600c6020526040902054610b999082611661565b336000908152600c6020526040902055600d54610bb69082611661565b600d55610bc333826118a1565b60405181815233907f86e5f036736269c50194228317f229b5684d89d9db959c604a1ef646d6cd6ca9906020016109ea565b610bfd611822565b6001600160a01b038116610c4c5760405162461bcd60e51b8152602060048201526016602482015275496e76616c69642077616c6c6574206164647265737360501b60448201526064016107ca565b600082604051602001610c5f9190611f23565b604051602081830303815290604052805190602001209050604051602001610c959067747265617375727960c01b815260080190565b604051602081830303815290604052805190602001208103610d49576007546001600160a01b03610100909104811690831603610ce45760405162461bcd60e51b81526004016107ca90611f3f565b60078054610100908190046001600160a01b039081166000908152600e602052604080822087841680845282842082548155600192830154908301558654869004909416835290822082815501558254610100600160a81b0319169102179055610fc5565b6040516865636f73797374656d60b81b6020820152602901604051602081830303815290604052805190602001208103610e03576008546001600160a01b0390811690831603610dab5760405162461bcd60e51b81526004016107ca90611f3f565b600880546001600160a01b039081166000908152600e6020526040808220868416808452828420825481556001928301549083015585549094168352908220828155015581546001600160a01b031916179055610fc5565b60405168636f6d6d756e69747960b81b6020820152602901604051602081830303815290604052805190602001208103610e85576009546001600160a01b0390811690831603610e655760405162461bcd60e51b81526004016107ca90611f3f565b600980546001600160a01b0319166001600160a01b038416179055610fc5565b604051686c697175696469747960b81b6020820152602901604051602081830303815290604052805190602001208103610f0757600a546001600160a01b0390811690831603610ee75760405162461bcd60e51b81526004016107ca90611f3f565b600a80546001600160a01b0319166001600160a01b038416179055610fc5565b604051667265736572766560c81b6020820152602701604051602081830303815290604052805190602001208103610f8757600b546001600160a01b0390811690831603610f675760405162461bcd60e51b81526004016107ca90611f3f565b600b80546001600160a01b0319166001600160a01b038416179055610fc5565b60405162461bcd60e51b8152602060048201526013602482015272496e76616c69642077616c6c6574207479706560681b60448201526064016107ca565b7f6ff3a4003b90be84595beb5f6acb9d54f88bd3e6dd4887ca67e53dc9645465ea8383604051610ff6929190611f6c565b60405180910390a1505050565b606461101b676765c793fa10079d601b1b6005611eea565b6110259190611f01565b81565b611030611822565b61090a61195f565b606461101b676765c793fa10079d601b1b6014611eea565b611058611775565b6110606117ce565b600081116110805760405162461bcd60e51b81526004016107ca90611eac565b8061108a33610ac0565b10156110cf5760405162461bcd60e51b8152602060048201526014602482015273496e73756666696369656e742062616c616e636560601b60448201526064016107ca565b6110d933826118d7565b336000908152600c60205260409020546110f3908261199c565b336000908152600c6020526040902055600d54611110908261199c565b600d5560405181815233907f6b4f55697b6ddad583b377bb7ab9d921afc2eb9ffa0b12fbcea5ae24a7a34e6a906020016109ea565b6060600480546106cf90611e47565b606461101b676765c793fa10079d601b1b600f611eea565b60006111766117ce565b60006111828484611814565b9050801561078b576040518381526001600160a01b0385169033907f94e83ca767b0d965638d27b68a75ea07cd5c28c86299b5c7e02d2d5f1ee9aff29060200160405180910390a39392505050565b6111d9611822565b6111e1611775565b306001600160a01b038316036112395760405162461bcd60e51b815260206004820152601960248201527f43616e6e6f74207265636f7665722051344120746f6b656e730000000000000060448201526064016107ca565b6001600160a01b03811661125f5760405162461bcd60e51b81526004016107ca90611e81565b6040516370a0823160e01b81523060048201526000906001600160a01b038416906370a0823190602401602060405180830381865afa1580156112a6573d6000803e3d6000fd5b505050506040513d601f19601f820116820180604052508101906112ca9190611f96565b9050600081116113135760405162461bcd60e51b81526020600482015260146024820152732737903a37b5b2b739903a37903932b1b7bb32b960611b60448201526064016107ca565b60405163a9059cbb60e01b81526001600160a01b0383811660048301526024820183905284169063a9059cbb906044016020604051808303816000875af1158015611362573d6000803e3d6000fd5b505050506040513d601f19601f820116820180604052508101906113869190611faf565b50816001600160a01b0316836001600160a01b03167f1ac506e936e7f02f4036dbe44708f5e8d72af9ace8745a29fd391481a8fbcb87836040516113cc91815260200190565b60405180910390a35061097e6001600655565b606461101b676765c793fa10079d601b1b6032611eea565b6113ff611775565b6114076117ce565b6007546001600160a01b0382811661010090920416148061143557506008546001600160a01b038281169116145b61147a5760405162461bcd60e51b8152602060048201526016602482015275125b9d985b1a59081d995cdd1a5b99c81dd85b1b195d60521b60448201526064016107ca565b6001600160a01b0381166000908152600e6020526040902060018101548154116114dd5760405162461bcd60e51b81526020600482015260146024820152734e6f20746f6b656e7320746f2072656c6561736560601b60448201526064016107ca565b6000611509427f0000000000000000000000000000000000000000000000000000000000000000611661565b9050600061152c6301e1338061069184866000015461166d90919063ffffffff16565b835490915081111561153c575081545b600061155584600101548361166190919063ffffffff16565b90506000811161159e5760405162461bcd60e51b81526020600482015260146024820152734e6f20746f6b656e732072656c65617361626c6560601b60448201526064016107ca565b60018401546115ad908261199c565b60018501556115bd308683611716565b846001600160a01b03167f4ad7799f99297062cea73c5a21d23a1fcf49f6a1957f7409712e555a0dcd1e1d826040516115f891815260200190565b60405180910390a2505050506109fc6001600655565b611616611822565b6001600160a01b03811661164057604051631e4fbdf760e01b8152600060048201526024016107ca565b6109fc8161190d565b606461101b676765c793fa10079d601b1b600a611eea565b600061078b8284611fd1565b600061078b8284611eea565b600061078b8284611f01565b61169283838360016119a8565b505050565b6001600160a01b03838116600090815260016020908152604080832093861683529290522054600019811015611710578181101561170157604051637dc7a0d960e11b81526001600160a01b038416600482015260248101829052604481018390526064016107ca565b611710848484840360006119a8565b50505050565b6001600160a01b03831661174057604051634b637e8f60e11b8152600060048201526024016107ca565b6001600160a01b03821661176a5760405163ec442f0560e01b8152600060048201526024016107ca565b611692838383611a7d565b6002600654036117c75760405162461bcd60e51b815260206004820152601f60248201527f5265656e7472616e637947756172643a207265656e7472616e742063616c6c0060448201526064016107ca565b6002600655565b60075460ff161561090a5760405162461bcd60e51b815260206004820152601060248201526f14185d5cd8589b194e881c185d5cd95960821b60448201526064016107ca565b600033610760818585611716565b6005546001600160a01b0316331461090a5760405163118cdaa760e01b81523360048201526024016107ca565b611857611ba7565b6007805460ff191690557f5db9ee0a495bf2e6ff9c91a7834c1ba4fdd244a5e8aa4e537bd38aeae4b073aa335b6040516001600160a01b03909116815260200160405180910390a1565b6001600160a01b0382166118cb5760405163ec442f0560e01b8152600060048201526024016107ca565b61097e60008383611a7d565b6001600160a01b03821661190157604051634b637e8f60e11b8152600060048201526024016107ca565b61097e82600083611a7d565b600580546001600160a01b038381166001600160a01b0319831681179093556040519116919082907f8be0079c531659141344cd1fd0a4f28419497f9722a3daafe3b4186f6b6457e090600090a35050565b6119676117ce565b6007805460ff191660011790557f62e78cea01bee320cd4e420270b5ea74000d11b0c9f74754ebdbfc544b05a2586118843390565b600061078b8284611fe4565b6001600160a01b0384166119d25760405163e602df0560e01b8152600060048201526024016107ca565b6001600160a01b0383166119fc57604051634a1406b160e11b8152600060048201526024016107ca565b6001600160a01b038085166000908152600160209081526040808320938716835292905220829055801561171057826001600160a01b0316846001600160a01b03167f8c5be1e5ebec7d5bd14f71427d1e84f3dd0314c0f7b2291e5b200ac8c7c3b92584604051611a6f91815260200190565b60405180910390a350505050565b6001600160a01b038316611aa8578060026000828254611a9d9190611fe4565b90915550611b1a9050565b6001600160a01b03831660009081526020819052604090205481811015611afb5760405163391434e360e21b81526001600160a01b038516600482015260248101829052604481018390526064016107ca565b6001600160a01b03841660009081526020819052604090209082900390555b6001600160a01b038216611b3657600280548290039055611b55565b6001600160a01b03821660009081526020819052604090208054820190555b816001600160a01b0316836001600160a01b03167fddf252ad1be2c89b69c2b068fc378daa952ba7f163c4a11628f55a4df523b3ef83604051611b9a91815260200190565b60405180910390a3505050565b60075460ff1661090a5760405162461bcd60e51b815260206004820152601460248201527314185d5cd8589b194e881b9bdd081c185d5cd95960621b60448201526064016107ca565b80356001600160a01b0381168114611c0757600080fd5b919050565b600060208284031215611c1e57600080fd5b61078b82611bf0565b60005b83811015611c42578181015183820152602001611c2a565b50506000910152565b60008151808452611c63816020860160208601611c27565b601f01601f19169290920160200192915050565b60208152600061078b6020830184611c4b565b60008060408385031215611c9d57600080fd5b611ca683611bf0565b946020939093013593505050565b600080600060608486031215611cc957600080fd5b611cd284611bf0565b9250611ce060208501611bf0565b929592945050506040919091013590565b600080600060608486031215611d0657600080fd5b611d0f84611bf0565b95602085013595506040909401359392505050565b600060208284031215611d3657600080fd5b5035919050565b634e487b7160e01b600052604160045260246000fd5b60008060408385031215611d6657600080fd5b823567ffffffffffffffff811115611d7d57600080fd5b8301601f81018513611d8e57600080fd5b803567ffffffffffffffff811115611da857611da8611d3d565b604051601f8201601f19908116603f0116810167ffffffffffffffff81118282101715611dd757611dd7611d3d565b604052818152828201602001871015611def57600080fd5b81602084016020830137600060208383010152809450505050611e1460208401611bf0565b90509250929050565b60008060408385031215611e3057600080fd5b611e3983611bf0565b9150611e1460208401611bf0565b600181811c90821680611e5b57607f821691505b602082108103611e7b57634e487b7160e01b600052602260045260246000fd5b50919050565b602080825260119082015270125b9d985b1a59081c9958da5c1a595b9d607a1b604082015260600190565b6020808252600e908201526d125b9d985b1a5908185b5bdd5b9d60921b604082015260600190565b634e487b7160e01b600052601160045260246000fd5b808202811582820484141761076657610766611ed4565b600082611f1e57634e487b7160e01b600052601260045260246000fd5b500490565b60008251611f35818460208701611c27565b9190910192915050565b60208082526013908201527253616d652077616c6c6574206164647265737360681b604082015260600190565b604081526000611f7f6040830185611c4b565b905060018060a01b03831660208301529392505050565b600060208284031215611fa857600080fd5b5051919050565b600060208284031215611fc157600080fd5b8151801515811461078b57600080fd5b8181038181111561076657610766611ed4565b8082018082111561076657610766611ed456fea2646970667358221220f184e98d2f389374b4bad94c2d07accf52fb3a7d3f3bb13acd4d85349f93f33a64736f6c634300081c0033",
			"opcodes": "PUSH1 0xA0 PUSH1 0x40 MSTORE CALLVALUE DUP1 ISZERO PUSH2 0x10 JUMPI PUSH1 0x0 DUP1 REVERT JUMPDEST POP PUSH1 0x40 MLOAD PUSH2 0x2907 CODESIZE SUB DUP1 PUSH2 0x2907 DUP4 CODECOPY DUP2 ADD PUSH1 0x40 DUP2 SWAP1 MSTORE PUSH2 0x2F SWAP2 PUSH2 0x678 JUMP JUMPDEST DUP1 PUSH1 0x40 MLOAD DUP1 PUSH1 0x40 ADD PUSH1 0x40 MSTORE DUP1 PUSH1 0xF DUP2 MSTORE PUSH1 0x20 ADD PUSH15 0x145D585B9D1D5B481550924D105313 PUSH1 0x8A SHL DUP2 MSTORE POP PUSH1 0x40 MLOAD DUP1 PUSH1 0x40 ADD PUSH1 0x40 MSTORE DUP1 PUSH1 0x3 DUP2 MSTORE PUSH1 0x20 ADD PUSH3 0x513441 PUSH1 0xE8 SHL DUP2 MSTORE POP DUP2 PUSH1 0x3 SWAP1 DUP2 PUSH2 0x83 SWAP2 SWAP1 PUSH2 0x78B JUMP JUMPDEST POP PUSH1 0x4 PUSH2 0x90 DUP3 DUP3 PUSH2 0x78B JUMP JUMPDEST POP POP POP PUSH1 0x1 PUSH1 0x1 PUSH1 0xA0 SHL SUB DUP2 AND PUSH2 0xC2 JUMPI PUSH1 0x40 MLOAD PUSH4 0x1E4FBDF7 PUSH1 0xE0 SHL DUP2 MSTORE PUSH1 0x0 PUSH1 0x4 DUP3 ADD MSTORE PUSH1 0x24 ADD JUMPDEST PUSH1 0x40 MLOAD DUP1 SWAP2 SUB SWAP1 REVERT JUMPDEST PUSH2 0xCB DUP2 PUSH2 0x4A6 JUMP JUMPDEST POP PUSH1 0x1 PUSH1 0x6 SSTORE PUSH1 0x7 DUP1 SLOAD PUSH1 0xFF NOT AND SWAP1 SSTORE PUSH1 0x1 PUSH1 0x1 PUSH1 0xA0 SHL SUB DUP7 AND PUSH2 0x131 JUMPI PUSH1 0x40 MLOAD PUSH3 0x461BCD PUSH1 0xE5 SHL DUP2 MSTORE PUSH1 0x20 PUSH1 0x4 DUP3 ADD MSTORE PUSH1 0x17 PUSH1 0x24 DUP3 ADD MSTORE PUSH32 0x496E76616C69642074726561737572792077616C6C6574000000000000000000 PUSH1 0x44 DUP3 ADD MSTORE PUSH1 0x64 ADD PUSH2 0xB9 JUMP JUMPDEST PUSH1 0x1 PUSH1 0x1 PUSH1 0xA0 SHL SUB DUP6 AND PUSH2 0x187 JUMPI PUSH1 0x40 MLOAD PUSH3 0x461BCD PUSH1 0xE5 SHL DUP2 MSTORE PUSH1 0x20 PUSH1 0x4 DUP3 ADD MSTORE PUSH1 0x18 PUSH1 0x24 DUP3 ADD MSTORE PUSH32 0x496E76616C69642065636F73797374656D2077616C6C65740000000000000000 PUSH1 0x44 DUP3 ADD MSTORE PUSH1 0x64 ADD PUSH2 0xB9 JUMP JUMPDEST PUSH1 0x1 PUSH1 0x1 PUSH1 0xA0 SHL SUB DUP5 AND PUSH2 0x1DD JUMPI PUSH1 0x40 MLOAD PUSH3 0x461BCD PUSH1 0xE5 SHL DUP2 MSTORE PUSH1 0x20 PUSH1 0x4 DUP3 ADD MSTORE PUSH1 0x18 PUSH1 0x24 DUP3 ADD MSTORE PUSH32 0x496E76616C696420636F6D6D756E6974792077616C6C65740000000000000000 PUSH1 0x44 DUP3 ADD MSTORE PUSH1 0x64 ADD PUSH2 0xB9 JUMP JUMPDEST PUSH1 0x1 PUSH1 0x1 PUSH1 0xA0 SHL SUB DUP4 AND PUSH2 0x233 JUMPI PUSH1 0x40 MLOAD PUSH3 0x461BCD PUSH1 0xE5 SHL DUP2 MSTORE PUSH1 0x20 PUSH1 0x4 DUP3 ADD MSTORE PUSH1 0x18 PUSH1 0x24 DUP3 ADD MSTORE PUSH32 0x496E76616C6964206C69717569646974792077616C6C65740000000000000000 PUSH1 0x44 DUP3 ADD MSTORE PUSH1 0x64 ADD PUSH2 0xB9 JUMP JUMPDEST PUSH1 0x1 PUSH1 0x1 PUSH1 0xA0 SHL SUB DUP3 AND PUSH2 0x289 JUMPI PUSH1 0x40 MLOAD PUSH3 0x461BCD PUSH1 0xE5 SHL DUP2 MSTORE PUSH1 0x20 PUSH1 0x4 DUP3 ADD MSTORE PUSH1 0x16 PUSH1 0x24 DUP3 ADD MSTORE PUSH32 0x496E76616C696420726573657276652077616C6C657400000000000000000000 PUSH1 0x44 DUP3 ADD MSTORE PUSH1 0x64 ADD PUSH2 0xB9 JUMP JUMPDEST PUSH1 0x7 DUP1 SLOAD PUSH2 0x100 PUSH1 0x1 PUSH1 0xA8 SHL SUB NOT AND PUSH2 0x100 PUSH1 0x1 PUSH1 0x1 PUSH1 0xA0 SHL SUB DUP10 DUP2 AND SWAP2 SWAP1 SWAP2 MUL SWAP2 SWAP1 SWAP2 OR SWAP1 SWAP2 SSTORE PUSH1 0x8 DUP1 SLOAD PUSH1 0x1 PUSH1 0x1 PUSH1 0xA0 SHL SUB NOT SWAP1 DUP2 AND DUP9 DUP5 AND OR SWAP1 SWAP2 SSTORE PUSH1 0x9 DUP1 SLOAD DUP3 AND DUP8 DUP5 AND OR SWAP1 SSTORE PUSH1 0xA DUP1 SLOAD DUP3 AND DUP7 DUP5 AND OR SWAP1 SSTORE PUSH1 0xB DUP1 SLOAD SWAP1 SWAP2 AND SWAP2 DUP5 AND SWAP2 SWAP1 SWAP2 OR SWAP1 SSTORE TIMESTAMP PUSH1 0x80 MSTORE PUSH1 0x40 DUP1 MLOAD DUP1 DUP3 ADD SWAP1 SWAP2 MSTORE DUP1 PUSH1 0x64 PUSH2 0x318 PUSH12 0x33B2E3C9FD0803CE8000000 PUSH1 0x32 PUSH2 0x85F JUMP JUMPDEST PUSH2 0x322 SWAP2 SWAP1 PUSH2 0x87C JUMP JUMPDEST DUP2 MSTORE PUSH1 0x0 PUSH1 0x20 SWAP2 DUP3 ADD DUP2 SWAP1 MSTORE PUSH1 0x7 SLOAD PUSH2 0x100 SWAP1 DIV PUSH1 0x1 PUSH1 0x1 PUSH1 0xA0 SHL SUB AND DUP2 MSTORE PUSH1 0xE DUP3 MSTORE PUSH1 0x40 SWAP1 DUP2 SWAP1 KECCAK256 DUP4 MLOAD DUP2 SSTORE SWAP3 SWAP1 SWAP2 ADD MLOAD PUSH1 0x1 SWAP1 SWAP3 ADD SWAP2 SWAP1 SWAP2 SSTORE DUP1 MLOAD DUP1 DUP3 ADD SWAP1 SWAP2 MSTORE DUP1 PUSH1 0x64 PUSH2 0x37F PUSH12 0x33B2E3C9FD0803CE8000000 PUSH1 0x14 PUSH2 0x85F JUMP JUMPDEST PUSH2 0x389 SWAP2 SWAP1 PUSH2 0x87C JUMP JUMPDEST DUP2 MSTORE PUSH1 0x0 PUSH1 0x20 SWAP2 DUP3 ADD DUP2 SWAP1 MSTORE PUSH1 0x8 SLOAD PUSH1 0x1 PUSH1 0x1 PUSH1 0xA0 SHL SUB AND DUP2 MSTORE PUSH1 0xE DUP3 MSTORE PUSH1 0x40 SWAP1 KECCAK256 DUP3 MLOAD DUP2 SSTORE SWAP2 ADD MLOAD PUSH1 0x1 SWAP1 SWAP2 ADD SSTORE PUSH2 0x411 ADDRESS PUSH1 0x64 PUSH2 0x3D5 PUSH12 0x33B2E3C9FD0803CE8000000 PUSH1 0x14 PUSH2 0x85F JUMP JUMPDEST PUSH2 0x3DF SWAP2 SWAP1 PUSH2 0x87C JUMP JUMPDEST PUSH1 0x64 PUSH2 0x3F8 PUSH12 0x33B2E3C9FD0803CE8000000 PUSH1 0x32 PUSH2 0x85F JUMP JUMPDEST PUSH2 0x402 SWAP2 SWAP1 PUSH2 0x87C JUMP JUMPDEST PUSH2 0x40C SWAP2 SWAP1 PUSH2 0x89E JUMP JUMPDEST PUSH2 0x4F8 JUMP JUMPDEST PUSH1 0x9 SLOAD PUSH2 0x444 SWAP1 PUSH1 0x1 PUSH1 0x1 PUSH1 0xA0 SHL SUB AND PUSH1 0x64 PUSH2 0x43A PUSH12 0x33B2E3C9FD0803CE8000000 PUSH1 0xF PUSH2 0x85F JUMP JUMPDEST PUSH2 0x40C SWAP2 SWAP1 PUSH2 0x87C JUMP JUMPDEST PUSH1 0xA DUP1 SLOAD PUSH2 0x472 SWAP2 PUSH1 0x1 PUSH1 0x1 PUSH1 0xA0 SHL SUB SWAP1 SWAP2 AND SWAP1 PUSH1 0x64 SWAP1 PUSH2 0x43A SWAP1 PUSH12 0x33B2E3C9FD0803CE8000000 SWAP1 PUSH2 0x85F JUMP JUMPDEST PUSH1 0xB SLOAD PUSH2 0x49B SWAP1 PUSH1 0x1 PUSH1 0x1 PUSH1 0xA0 SHL SUB AND PUSH1 0x64 PUSH2 0x43A PUSH12 0x33B2E3C9FD0803CE8000000 PUSH1 0x5 PUSH2 0x85F JUMP JUMPDEST POP POP POP POP POP POP PUSH2 0x8B1 JUMP JUMPDEST PUSH1 0x5 DUP1 SLOAD PUSH1 0x1 PUSH1 0x1 PUSH1 0xA0 SHL SUB DUP4 DUP2 AND PUSH1 0x1 PUSH1 0x1 PUSH1 0xA0 SHL SUB NOT DUP4 AND DUP2 OR SWAP1 SWAP4 SSTORE PUSH1 0x40 MLOAD SWAP2 AND SWAP2 SWAP1 DUP3 SWAP1 PUSH32 0x8BE0079C531659141344CD1FD0A4F28419497F9722A3DAAFE3B4186F6B6457E0 SWAP1 PUSH1 0x0 SWAP1 LOG3 POP POP JUMP JUMPDEST PUSH1 0x1 PUSH1 0x1 PUSH1 0xA0 SHL SUB DUP3 AND PUSH2 0x522 JUMPI PUSH1 0x40 MLOAD PUSH4 0xEC442F05 PUSH1 0xE0 SHL DUP2 MSTORE PUSH1 0x0 PUSH1 0x4 DUP3 ADD MSTORE PUSH1 0x24 ADD PUSH2 0xB9 JUMP JUMPDEST PUSH2 0x52E PUSH1 0x0 DUP4 DUP4 PUSH2 0x532 JUMP JUMPDEST POP POP JUMP JUMPDEST PUSH1 0x1 PUSH1 0x1 PUSH1 0xA0 SHL SUB DUP4 AND PUSH2 0x55D JUMPI DUP1 PUSH1 0x2 PUSH1 0x0 DUP3 DUP3 SLOAD PUSH2 0x552 SWAP2 SWAP1 PUSH2 0x89E JUMP JUMPDEST SWAP1 SWAP2 SSTORE POP PUSH2 0x5CF SWAP1 POP JUMP JUMPDEST PUSH1 0x1 PUSH1 0x1 PUSH1 0xA0 SHL SUB DUP4 AND PUSH1 0x0 SWAP1 DUP2 MSTORE PUSH1 0x20 DUP2 SWAP1 MSTORE PUSH1 0x40 SWAP1 KECCAK256 SLOAD DUP2 DUP2 LT ISZERO PUSH2 0x5B0 JUMPI PUSH1 0x40 MLOAD PUSH4 0x391434E3 PUSH1 0xE2 SHL DUP2 MSTORE PUSH1 0x1 PUSH1 0x1 PUSH1 0xA0 SHL SUB DUP6 AND PUSH1 0x4 DUP3 ADD MSTORE PUSH1 0x24 DUP2 ADD DUP3 SWAP1 MSTORE PUSH1 0x44 DUP2 ADD DUP4 SWAP1 MSTORE PUSH1 0x64 ADD PUSH2 0xB9 JUMP JUMPDEST PUSH1 0x1 PUSH1 0x1 PUSH1 0xA0 SHL SUB DUP5 AND PUSH1 0x0 SWAP1 DUP2 MSTORE PUSH1 0x20 DUP2 SWAP1 MSTORE PUSH1 0x40 SWAP1 KECCAK256 SWAP1 DUP3 SWAP1 SUB SWAP1 SSTORE JUMPDEST PUSH1 0x1 PUSH1 0x1 PUSH1 0xA0 SHL SUB DUP3 AND PUSH2 0x5EB JUMPI PUSH1 0x2 DUP1 SLOAD DUP3 SWAP1 SUB SWAP1 SSTORE PUSH2 0x60A JUMP JUMPDEST PUSH1 0x1 PUSH1 0x1 PUSH1 0xA0 SHL SUB DUP3 AND PUSH1 0x0 SWAP1 DUP2 MSTORE PUSH1 0x20 DUP2 SWAP1 MSTORE PUSH1 0x40 SWAP1 KECCAK256 DUP1 SLOAD DUP3 ADD SWAP1 SSTORE JUMPDEST DUP2 PUSH1 0x1 PUSH1 0x1 PUSH1 0xA0 SHL SUB AND DUP4 PUSH1 0x1 PUSH1 0x1 PUSH1 0xA0 SHL SUB AND PUSH32 0xDDF252AD1BE2C89B69C2B068FC378DAA952BA7F163C4A11628F55A4DF523B3EF DUP4 PUSH1 0x40 MLOAD PUSH2 0x64F SWAP2 DUP2 MSTORE PUSH1 0x20 ADD SWAP1 JUMP JUMPDEST PUSH1 0x40 MLOAD DUP1 SWAP2 SUB SWAP1 LOG3 POP POP POP JUMP JUMPDEST DUP1 MLOAD PUSH1 0x1 PUSH1 0x1 PUSH1 0xA0 SHL SUB DUP2 AND DUP2 EQ PUSH2 0x673 JUMPI PUSH1 0x0 DUP1 REVERT JUMPDEST SWAP2 SWAP1 POP JUMP JUMPDEST PUSH1 0x0 DUP1 PUSH1 0x0 DUP1 PUSH1 0x0 DUP1 PUSH1 0xC0 DUP8 DUP10 SUB SLT ISZERO PUSH2 0x691 JUMPI PUSH1 0x0 DUP1 REVERT JUMPDEST PUSH2 0x69A DUP8 PUSH2 0x65C JUMP JUMPDEST SWAP6 POP PUSH2 0x6A8 PUSH1 0x20 DUP9 ADD PUSH2 0x65C JUMP JUMPDEST SWAP5 POP PUSH2 0x6B6 PUSH1 0x40 DUP9 ADD PUSH2 0x65C JUMP JUMPDEST SWAP4 POP PUSH2 0x6C4 PUSH1 0x60 DUP9 ADD PUSH2 0x65C JUMP JUMPDEST SWAP3 POP PUSH2 0x6D2 PUSH1 0x80 DUP9 ADD PUSH2 0x65C JUMP JUMPDEST SWAP2 POP PUSH2 0x6E0 PUSH1 0xA0 DUP9 ADD PUSH2 0x65C JUMP JUMPDEST SWAP1 POP SWAP3 SWAP6 POP SWAP3 SWAP6 POP SWAP3 SWAP6 JUMP JUMPDEST PUSH4 0x4E487B71 PUSH1 0xE0 SHL PUSH1 0x0 MSTORE PUSH1 0x41 PUSH1 0x4 MSTORE PUSH1 0x24 PUSH1 0x0 REVERT JUMPDEST PUSH1 0x1 DUP2 DUP2 SHR SWAP1 DUP3 AND DUP1 PUSH2 0x716 JUMPI PUSH1 0x7F DUP3 AND SWAP2 POP JUMPDEST PUSH1 0x20 DUP3 LT DUP2 SUB PUSH2 0x736 JUMPI PUSH4 0x4E487B71 PUSH1 0xE0 SHL PUSH1 0x0 MSTORE PUSH1 0x22 PUSH1 0x4 MSTORE PUSH1 0x24 PUSH1 0x0 REVERT JUMPDEST POP SWAP2 SWAP1 POP JUMP JUMPDEST PUSH1 0x1F DUP3 GT ISZERO PUSH2 0x786 JUMPI DUP1 PUSH1 0x0 MSTORE PUSH1 0x20 PUSH1 0x0 KECCAK256 PUSH1 0x1F DUP5 ADD PUSH1 0x5 SHR DUP2 ADD PUSH1 0x20 DUP6 LT ISZERO PUSH2 0x763 JUMPI POP DUP1 JUMPDEST PUSH1 0x1F DUP5 ADD PUSH1 0x5 SHR DUP3 ADD SWAP2 POP JUMPDEST DUP2 DUP2 LT ISZERO PUSH2 0x783 JUMPI PUSH1 0x0 DUP2 SSTORE PUSH1 0x1 ADD PUSH2 0x76F JUMP JUMPDEST POP POP JUMPDEST POP POP POP JUMP JUMPDEST DUP2 MLOAD PUSH1 0x1 PUSH1 0x1 PUSH1 0x40 SHL SUB DUP2 GT ISZERO PUSH2 0x7A4 JUMPI PUSH2 0x7A4 PUSH2 0x6EC JUMP JUMPDEST PUSH2 0x7B8 DUP2 PUSH2 0x7B2 DUP5 SLOAD PUSH2 0x702 JUMP JUMPDEST DUP5 PUSH2 0x73C JUMP JUMPDEST PUSH1 0x20 PUSH1 0x1F DUP3 GT PUSH1 0x1 DUP2 EQ PUSH2 0x7EC JUMPI PUSH1 0x0 DUP4 ISZERO PUSH2 0x7D4 JUMPI POP DUP5 DUP3 ADD MLOAD JUMPDEST PUSH1 0x0 NOT PUSH1 0x3 DUP6 SWAP1 SHL SHR NOT AND PUSH1 0x1 DUP5 SWAP1 SHL OR DUP5 SSTORE PUSH2 0x783 JUMP JUMPDEST PUSH1 0x0 DUP5 DUP2 MSTORE PUSH1 0x20 DUP2 KECCAK256 PUSH1 0x1F NOT DUP6 AND SWAP2 JUMPDEST DUP3 DUP2 LT ISZERO PUSH2 0x81C JUMPI DUP8 DUP6 ADD MLOAD DUP3 SSTORE PUSH1 0x20 SWAP5 DUP6 ADD SWAP5 PUSH1 0x1 SWAP1 SWAP3 ADD SWAP2 ADD PUSH2 0x7FC JUMP JUMPDEST POP DUP5 DUP3 LT ISZERO PUSH2 0x83A JUMPI DUP7 DUP5 ADD MLOAD PUSH1 0x0 NOT PUSH1 0x3 DUP8 SWAP1 SHL PUSH1 0xF8 AND SHR NOT AND DUP2 SSTORE JUMPDEST POP POP POP POP PUSH1 0x1 SWAP1 DUP2 SHL ADD SWAP1 SSTORE POP JUMP JUMPDEST PUSH4 0x4E487B71 PUSH1 0xE0 SHL PUSH1 0x0 MSTORE PUSH1 0x11 PUSH1 0x4 MSTORE PUSH1 0x24 PUSH1 0x0 REVERT JUMPDEST DUP1 DUP3 MUL DUP2 ISZERO DUP3 DUP3 DIV DUP5 EQ OR PUSH2 0x876 JUMPI PUSH2 0x876 PUSH2 0x849 JUMP JUMPDEST SWAP3 SWAP2 POP POP JUMP JUMPDEST PUSH1 0x0 DUP3 PUSH2 0x899 JUMPI PUSH4 0x4E487B71 PUSH1 0xE0 SHL PUSH1 0x0 MSTORE PUSH1 0x12 PUSH1 0x4 MSTORE PUSH1 0x24 PUSH1 0x0 REVERT JUMPDEST POP DIV SWAP1 JUMP JUMPDEST DUP1 DUP3 ADD DUP1 DUP3 GT ISZERO PUSH2 0x876 JUMPI PUSH2 0x876 PUSH2 0x849 JUMP JUMPDEST PUSH1 0x80 MLOAD PUSH2 0x202D PUSH2 0x8DA PUSH1 0x0 CODECOPY PUSH1 0x0 DUP2 DUP2 PUSH2 0x2F7 ADD MSTORE DUP2 DUP2 PUSH2 0x64A ADD MSTORE PUSH2 0x14E5 ADD MSTORE PUSH2 0x202D PUSH1 0x0 RETURN INVALID PUSH1 0x80 PUSH1 0x40 MSTORE CALLVALUE DUP1 ISZERO PUSH2 0x10 JUMPI PUSH1 0x0 DUP1 REVERT JUMPDEST POP PUSH1 0x4 CALLDATASIZE LT PUSH2 0x269 JUMPI PUSH1 0x0 CALLDATALOAD PUSH1 0xE0 SHR DUP1 PUSH4 0x780B9737 GT PUSH2 0x151 JUMPI DUP1 PUSH4 0xBF1AD7E0 GT PUSH2 0xC3 JUMPI DUP1 PUSH4 0xD72B11BD GT PUSH2 0x87 JUMPI DUP1 PUSH4 0xD72B11BD EQ PUSH2 0x529 JUMPI DUP1 PUSH4 0xDB7A4605 EQ PUSH2 0x53C JUMPI DUP1 PUSH4 0xDD62ED3E EQ PUSH2 0x589 JUMPI DUP1 PUSH4 0xF2FDE38B EQ PUSH2 0x5C2 JUMPI DUP1 PUSH4 0xF9428F38 EQ PUSH2 0x5D5 JUMPI DUP1 PUSH4 0xFDB20CCB EQ PUSH2 0x5DD JUMPI PUSH1 0x0 DUP1 REVERT JUMPDEST DUP1 PUSH4 0xBF1AD7E0 EQ PUSH2 0x4D7 JUMPI DUP1 PUSH4 0xC4E41B22 EQ PUSH2 0x4DF JUMPI DUP1 PUSH4 0xC7574839 EQ PUSH2 0x4F0 JUMPI DUP1 PUSH4 0xD4698016 EQ PUSH2 0x503 JUMPI DUP1 PUSH4 0xD486D129 EQ PUSH2 0x516 JUMPI PUSH1 0x0 DUP1 REVERT JUMPDEST DUP1 PUSH4 0x90534F24 GT PUSH2 0x115 JUMPI DUP1 PUSH4 0x90534F24 EQ PUSH2 0x486 JUMPI DUP1 PUSH4 0x9576A374 EQ PUSH2 0x48E JUMPI DUP1 PUSH4 0x95D89B41 EQ PUSH2 0x4A1 JUMPI DUP1 PUSH4 0x993EB1C5 EQ PUSH2 0x4A9 JUMPI DUP1 PUSH4 0xA9059CBB EQ PUSH2 0x4B1 JUMPI DUP1 PUSH4 0xB7E26A2E EQ PUSH2 0x4C4 JUMPI PUSH1 0x0 DUP1 REVERT JUMPDEST DUP1 PUSH4 0x780B9737 EQ PUSH2 0x440 JUMPI DUP1 PUSH4 0x7B5C7F03 EQ PUSH2 0x453 JUMPI DUP1 PUSH4 0x8456CB59 EQ PUSH2 0x45B JUMPI DUP1 PUSH4 0x8DA5CB5B EQ PUSH2 0x463 JUMPI DUP1 PUSH4 0x902D55A5 EQ PUSH2 0x474 JUMPI PUSH1 0x0 DUP1 REVERT JUMPDEST DUP1 PUSH4 0x3F4BA83A GT PUSH2 0x1EA JUMPI DUP1 PUSH4 0x4A0CED96 GT PUSH2 0x1AE JUMPI DUP1 PUSH4 0x4A0CED96 EQ PUSH2 0x3CE JUMPI DUP1 PUSH4 0x5C975ABB EQ PUSH2 0x3D7 JUMPI DUP1 PUSH4 0x65ED6E23 EQ PUSH2 0x3E2 JUMPI DUP1 PUSH4 0x70A08231 EQ PUSH2 0x412 JUMPI DUP1 PUSH4 0x715018A6 EQ PUSH2 0x425 JUMPI DUP1 PUSH4 0x74300378 EQ PUSH2 0x42D JUMPI PUSH1 0x0 DUP1 REVERT JUMPDEST DUP1 PUSH4 0x3F4BA83A EQ PUSH2 0x35B JUMPI DUP1 PUSH4 0x40C10F19 EQ PUSH2 0x365 JUMPI DUP1 PUSH4 0x42966C68 EQ PUSH2 0x378 JUMPI DUP1 PUSH4 0x435263EF EQ PUSH2 0x38B JUMPI DUP1 PUSH4 0x4626402B EQ PUSH2 0x3B6 JUMPI PUSH1 0x0 DUP1 REVERT JUMPDEST DUP1 PUSH4 0x23B872DD GT PUSH2 0x231 JUMPI DUP1 PUSH4 0x23B872DD EQ PUSH2 0x2DF JUMPI DUP1 PUSH4 0x254800D4 EQ PUSH2 0x2F2 JUMPI DUP1 PUSH4 0x2AF44592 EQ PUSH2 0x319 JUMPI DUP1 PUSH4 0x313CE567 EQ PUSH2 0x339 JUMPI DUP1 PUSH4 0x33127B0D EQ PUSH2 0x348 JUMPI PUSH1 0x0 DUP1 REVERT JUMPDEST DUP1 PUSH4 0x197D972 EQ PUSH2 0x26E JUMPI DUP1 PUSH4 0x553BE1E EQ PUSH2 0x28C JUMPI DUP1 PUSH4 0x6FDDE03 EQ PUSH2 0x29F JUMPI DUP1 PUSH4 0x95EA7B3 EQ PUSH2 0x2B4 JUMPI DUP1 PUSH4 0x18160DDD EQ PUSH2 0x2D7 JUMPI JUMPDEST PUSH1 0x0 DUP1 REVERT JUMPDEST PUSH2 0x279 PUSH4 0x1E13380 DUP2 JUMP JUMPDEST PUSH1 0x40 MLOAD SWAP1 DUP2 MSTORE PUSH1 0x20 ADD JUMPDEST PUSH1 0x40 MLOAD DUP1 SWAP2 SUB SWAP1 RETURN JUMPDEST PUSH2 0x279 PUSH2 0x29A CALLDATASIZE PUSH1 0x4 PUSH2 0x1C0C JUMP JUMPDEST PUSH2 0x619 JUMP JUMPDEST PUSH2 0x2A7 PUSH2 0x6C0 JUMP JUMPDEST PUSH1 0x40 MLOAD PUSH2 0x283 SWAP2 SWAP1 PUSH2 0x1C77 JUMP JUMPDEST PUSH2 0x2C7 PUSH2 0x2C2 CALLDATASIZE PUSH1 0x4 PUSH2 0x1C8A JUMP JUMPDEST PUSH2 0x752 JUMP JUMPDEST PUSH1 0x40 MLOAD SWAP1 ISZERO ISZERO DUP2 MSTORE PUSH1 0x20 ADD PUSH2 0x283 JUMP JUMPDEST PUSH1 0x2 SLOAD PUSH2 0x279 JUMP JUMPDEST PUSH2 0x2C7 PUSH2 0x2ED CALLDATASIZE PUSH1 0x4 PUSH2 0x1CB4 JUMP JUMPDEST PUSH2 0x76C JUMP JUMPDEST PUSH2 0x279 PUSH32 0x0 DUP2 JUMP JUMPDEST PUSH2 0x279 PUSH2 0x327 CALLDATASIZE PUSH1 0x4 PUSH2 0x1C0C JUMP JUMPDEST PUSH1 0xC PUSH1 0x20 MSTORE PUSH1 0x0 SWAP1 DUP2 MSTORE PUSH1 0x40 SWAP1 KECCAK256 SLOAD DUP2 JUMP JUMPDEST PUSH1 0x40 MLOAD PUSH1 0x12 DUP2 MSTORE PUSH1 0x20 ADD PUSH2 0x283 JUMP JUMPDEST PUSH2 0x2C7 PUSH2 0x356 CALLDATASIZE PUSH1 0x4 PUSH2 0x1CF1 JUMP JUMPDEST PUSH2 0x792 JUMP JUMPDEST PUSH2 0x363 PUSH2 0x8FA JUMP JUMPDEST STOP JUMPDEST PUSH2 0x363 PUSH2 0x373 CALLDATASIZE PUSH1 0x4 PUSH2 0x1C8A JUMP JUMPDEST PUSH2 0x90C JUMP JUMPDEST PUSH2 0x363 PUSH2 0x386 CALLDATASIZE PUSH1 0x4 PUSH2 0x1D24 JUMP JUMPDEST PUSH2 0x982 JUMP JUMPDEST PUSH1 0x8 SLOAD PUSH2 0x39E SWAP1 PUSH1 0x1 PUSH1 0x1 PUSH1 0xA0 SHL SUB AND DUP2 JUMP JUMPDEST PUSH1 0x40 MLOAD PUSH1 0x1 PUSH1 0x1 PUSH1 0xA0 SHL SUB SWAP1 SWAP2 AND DUP2 MSTORE PUSH1 0x20 ADD PUSH2 0x283 JUMP JUMPDEST PUSH1 0x7 SLOAD PUSH2 0x39E SWAP1 PUSH2 0x100 SWAP1 DIV PUSH1 0x1 PUSH1 0x1 PUSH1 0xA0 SHL SUB AND DUP2 JUMP JUMPDEST PUSH2 0x279 PUSH1 0xD SLOAD DUP2 JUMP JUMPDEST PUSH1 0x7 SLOAD PUSH1 0xFF AND PUSH2 0x2C7 JUMP JUMPDEST PUSH2 0x3EA PUSH2 0x9FF JUMP JUMPDEST PUSH1 0x40 DUP1 MLOAD SWAP6 DUP7 MSTORE PUSH1 0x20 DUP7 ADD SWAP5 SWAP1 SWAP5 MSTORE SWAP3 DUP5 ADD SWAP2 SWAP1 SWAP2 MSTORE PUSH1 0x60 DUP4 ADD MSTORE PUSH1 0x80 DUP3 ADD MSTORE PUSH1 0xA0 ADD PUSH2 0x283 JUMP JUMPDEST PUSH2 0x279 PUSH2 0x420 CALLDATASIZE PUSH1 0x4 PUSH2 0x1C0C JUMP JUMPDEST PUSH2 0xAC0 JUMP JUMPDEST PUSH2 0x363 PUSH2 0xADE JUMP JUMPDEST PUSH2 0x363 PUSH2 0x43B CALLDATASIZE PUSH1 0x4 PUSH2 0x1D24 JUMP JUMPDEST PUSH2 0xAF0 JUMP JUMPDEST PUSH2 0x363 PUSH2 0x44E CALLDATASIZE PUSH1 0x4 PUSH2 0x1D53 JUMP JUMPDEST PUSH2 0xBF5 JUMP JUMPDEST PUSH2 0x279 PUSH2 0x1003 JUMP JUMPDEST PUSH2 0x363 PUSH2 0x1028 JUMP JUMPDEST PUSH1 0x5 SLOAD PUSH1 0x1 PUSH1 0x1 PUSH1 0xA0 SHL SUB AND PUSH2 0x39E JUMP JUMPDEST PUSH2 0x279 PUSH8 0x6765C793FA10079D PUSH1 0x1B SHL DUP2 JUMP JUMPDEST PUSH2 0x279 PUSH2 0x1038 JUMP JUMPDEST PUSH2 0x363 PUSH2 0x49C CALLDATASIZE PUSH1 0x4 PUSH2 0x1D24 JUMP JUMPDEST PUSH2 0x1050 JUMP JUMPDEST PUSH2 0x2A7 PUSH2 0x1145 JUMP JUMPDEST PUSH2 0x279 PUSH2 0x1154 JUMP JUMPDEST PUSH2 0x2C7 PUSH2 0x4BF CALLDATASIZE PUSH1 0x4 PUSH2 0x1C8A JUMP JUMPDEST PUSH2 0x116C JUMP JUMPDEST PUSH2 0x363 PUSH2 0x4D2 CALLDATASIZE PUSH1 0x4 PUSH2 0x1E1D JUMP JUMPDEST PUSH2 0x11D1 JUMP JUMPDEST PUSH2 0x279 PUSH2 0x13DF JUMP JUMPDEST PUSH8 0x6765C793FA10079D PUSH1 0x1B SHL PUSH2 0x279 JUMP JUMPDEST PUSH1 0x9 SLOAD PUSH2 0x39E SWAP1 PUSH1 0x1 PUSH1 0x1 PUSH1 0xA0 SHL SUB AND DUP2 JUMP JUMPDEST PUSH1 0xA SLOAD PUSH2 0x39E SWAP1 PUSH1 0x1 PUSH1 0x1 PUSH1 0xA0 SHL SUB AND DUP2 JUMP JUMPDEST PUSH2 0x363 PUSH2 0x524 CALLDATASIZE PUSH1 0x4 PUSH2 0x1C0C JUMP JUMPDEST PUSH2 0x13F7 JUMP JUMPDEST PUSH1 0xB SLOAD PUSH2 0x39E SWAP1 PUSH1 0x1 PUSH1 0x1 PUSH1 0xA0 SHL SUB AND DUP2 JUMP JUMPDEST PUSH1 0x7 SLOAD PUSH1 0x8 SLOAD PUSH1 0x9 SLOAD PUSH1 0xA SLOAD PUSH1 0xB SLOAD PUSH1 0x40 DUP1 MLOAD PUSH2 0x100 SWAP1 SWAP7 DIV PUSH1 0x1 PUSH1 0x1 PUSH1 0xA0 SHL SUB SWAP1 DUP2 AND DUP8 MSTORE SWAP5 DUP6 AND PUSH1 0x20 DUP8 ADD MSTORE SWAP3 DUP5 AND SWAP3 DUP6 ADD SWAP3 SWAP1 SWAP3 MSTORE DUP3 AND PUSH1 0x60 DUP5 ADD MSTORE AND PUSH1 0x80 DUP3 ADD MSTORE PUSH1 0xA0 ADD PUSH2 0x283 JUMP JUMPDEST PUSH2 0x279 PUSH2 0x597 CALLDATASIZE PUSH1 0x4 PUSH2 0x1E1D JUMP JUMPDEST PUSH1 0x1 PUSH1 0x1 PUSH1 0xA0 SHL SUB SWAP2 DUP3 AND PUSH1 0x0 SWAP1 DUP2 MSTORE PUSH1 0x1 PUSH1 0x20 SWAP1 DUP2 MSTORE PUSH1 0x40 DUP1 DUP4 KECCAK256 SWAP4 SWAP1 SWAP5 AND DUP3 MSTORE SWAP2 SWAP1 SWAP2 MSTORE KECCAK256 SLOAD SWAP1 JUMP JUMPDEST PUSH2 0x363 PUSH2 0x5D0 CALLDATASIZE PUSH1 0x4 PUSH2 0x1C0C JUMP JUMPDEST PUSH2 0x160E JUMP JUMPDEST PUSH2 0x279 PUSH2 0x1649 JUMP JUMPDEST PUSH2 0x604 PUSH2 0x5EB CALLDATASIZE PUSH1 0x4 PUSH2 0x1C0C JUMP JUMPDEST PUSH1 0xE PUSH1 0x20 MSTORE PUSH1 0x0 SWAP1 DUP2 MSTORE PUSH1 0x40 SWAP1 KECCAK256 DUP1 SLOAD PUSH1 0x1 SWAP1 SWAP2 ADD SLOAD DUP3 JUMP JUMPDEST PUSH1 0x40 DUP1 MLOAD SWAP3 DUP4 MSTORE PUSH1 0x20 DUP4 ADD SWAP2 SWAP1 SWAP2 MSTORE ADD PUSH2 0x283 JUMP JUMPDEST PUSH1 0x1 PUSH1 0x1 PUSH1 0xA0 SHL SUB DUP2 AND PUSH1 0x0 SWAP1 DUP2 MSTORE PUSH1 0xE PUSH1 0x20 MSTORE PUSH1 0x40 DUP2 KECCAK256 DUP1 SLOAD DUP3 SUB PUSH2 0x642 JUMPI POP PUSH1 0x0 SWAP3 SWAP2 POP POP JUMP JUMPDEST PUSH1 0x0 PUSH2 0x66E TIMESTAMP PUSH32 0x0 PUSH2 0x1661 JUMP JUMPDEST SWAP1 POP PUSH1 0x0 PUSH2 0x697 PUSH4 0x1E13380 PUSH2 0x691 DUP5 DUP7 PUSH1 0x0 ADD SLOAD PUSH2 0x166D SWAP1 SWAP2 SWAP1 PUSH4 0xFFFFFFFF AND JUMP JUMPDEST SWAP1 PUSH2 0x1679 JUMP JUMPDEST DUP4 SLOAD SWAP1 SWAP2 POP DUP2 GT ISZERO PUSH2 0x6A7 JUMPI POP DUP2 SLOAD JUMPDEST PUSH1 0x1 DUP4 ADD SLOAD PUSH2 0x6B7 SWAP1 DUP3 SWAP1 PUSH2 0x1661 JUMP JUMPDEST SWAP6 SWAP5 POP POP POP POP POP JUMP JUMPDEST PUSH1 0x60 PUSH1 0x3 DUP1 SLOAD PUSH2 0x6CF SWAP1 PUSH2 0x1E47 JUMP JUMPDEST DUP1 PUSH1 0x1F ADD PUSH1 0x20 DUP1 SWAP2 DIV MUL PUSH1 0x20 ADD PUSH1 0x40 MLOAD SWAP1 DUP2 ADD PUSH1 0x40 MSTORE DUP1 SWAP3 SWAP2 SWAP1 DUP2 DUP2 MSTORE PUSH1 0x20 ADD DUP3 DUP1 SLOAD PUSH2 0x6FB SWAP1 PUSH2 0x1E47 JUMP JUMPDEST DUP1 ISZERO PUSH2 0x748 JUMPI DUP1 PUSH1 0x1F LT PUSH2 0x71D JUMPI PUSH2 0x100 DUP1 DUP4 SLOAD DIV MUL DUP4 MSTORE SWAP2 PUSH1 0x20 ADD SWAP2 PUSH2 0x748 JUMP JUMPDEST DUP3 ADD SWAP2 SWAP1 PUSH1 0x0 MSTORE PUSH1 0x20 PUSH1 0x0 KECCAK256 SWAP1 JUMPDEST DUP2 SLOAD DUP2 MSTORE SWAP1 PUSH1 0x1 ADD SWAP1 PUSH1 0x20 ADD DUP1 DUP4 GT PUSH2 0x72B JUMPI DUP3 SWAP1 SUB PUSH1 0x1F AND DUP3 ADD SWAP2 JUMPDEST POP POP POP POP POP SWAP1 POP SWAP1 JUMP JUMPDEST PUSH1 0x0 CALLER PUSH2 0x760 DUP2 DUP6 DUP6 PUSH2 0x1685 JUMP JUMPDEST PUSH1 0x1 SWAP2 POP POP JUMPDEST SWAP3 SWAP2 POP POP JUMP JUMPDEST PUSH1 0x0 CALLER PUSH2 0x77A DUP6 DUP3 DUP6 PUSH2 0x1697 JUMP JUMPDEST PUSH2 0x785 DUP6 DUP6 DUP6 PUSH2 0x1716 JUMP JUMPDEST PUSH1 0x1 SWAP2 POP POP JUMPDEST SWAP4 SWAP3 POP POP POP JUMP JUMPDEST PUSH1 0x0 PUSH2 0x79C PUSH2 0x1775 JUMP JUMPDEST PUSH2 0x7A4 PUSH2 0x17CE JUMP JUMPDEST PUSH1 0x1 PUSH1 0x1 PUSH1 0xA0 SHL SUB DUP5 AND PUSH2 0x7D3 JUMPI PUSH1 0x40 MLOAD PUSH3 0x461BCD PUSH1 0xE5 SHL DUP2 MSTORE PUSH1 0x4 ADD PUSH2 0x7CA SWAP1 PUSH2 0x1E81 JUMP JUMPDEST PUSH1 0x40 MLOAD DUP1 SWAP2 SUB SWAP1 REVERT JUMPDEST PUSH1 0x0 DUP4 GT PUSH2 0x7F3 JUMPI PUSH1 0x40 MLOAD PUSH3 0x461BCD PUSH1 0xE5 SHL DUP2 MSTORE PUSH1 0x4 ADD PUSH2 0x7CA SWAP1 PUSH2 0x1EAC JUMP JUMPDEST PUSH1 0x64 DUP3 LT ISZERO PUSH2 0x844 JUMPI PUSH1 0x40 MLOAD PUSH3 0x461BCD PUSH1 0xE5 SHL DUP2 MSTORE PUSH1 0x20 PUSH1 0x4 DUP3 ADD MSTORE PUSH1 0x1C PUSH1 0x24 DUP3 ADD MSTORE PUSH32 0x4C65766572616765206D757374206265206174206C6561737420317800000000 PUSH1 0x44 DUP3 ADD MSTORE PUSH1 0x64 ADD PUSH2 0x7CA JUMP JUMPDEST DUP3 PUSH2 0x84E CALLER PUSH2 0xAC0 JUMP JUMPDEST LT ISZERO PUSH2 0x893 JUMPI PUSH1 0x40 MLOAD PUSH3 0x461BCD PUSH1 0xE5 SHL DUP2 MSTORE PUSH1 0x20 PUSH1 0x4 DUP3 ADD MSTORE PUSH1 0x14 PUSH1 0x24 DUP3 ADD MSTORE PUSH20 0x496E73756666696369656E742062616C616E6365 PUSH1 0x60 SHL PUSH1 0x44 DUP3 ADD MSTORE PUSH1 0x64 ADD PUSH2 0x7CA JUMP JUMPDEST PUSH1 0x0 PUSH2 0x89F DUP6 DUP6 PUSH2 0x1814 JUMP JUMPDEST SWAP1 POP DUP1 ISZERO PUSH2 0x8EE JUMPI PUSH1 0x40 DUP1 MLOAD DUP6 DUP2 MSTORE PUSH1 0x20 DUP2 ADD DUP6 SWAP1 MSTORE PUSH1 0x1 PUSH1 0x1 PUSH1 0xA0 SHL SUB DUP8 AND SWAP2 CALLER SWAP2 PUSH32 0xAE5A72E837B1C61D8F56D35C16816D1E29CC1A1E858253419499DDA337EA03E3 SWAP2 ADD PUSH1 0x40 MLOAD DUP1 SWAP2 SUB SWAP1 LOG3 JUMPDEST SWAP1 POP PUSH2 0x78B PUSH1 0x1 PUSH1 0x6 SSTORE JUMP JUMPDEST PUSH2 0x902 PUSH2 0x1822 JUMP JUMPDEST PUSH2 0x90A PUSH2 0x184F JUMP JUMPDEST JUMP JUMPDEST PUSH2 0x914 PUSH2 0x1822 JUMP JUMPDEST PUSH2 0x91C PUSH2 0x1775 JUMP JUMPDEST PUSH2 0x924 PUSH2 0x17CE JUMP JUMPDEST PUSH1 0x1 PUSH1 0x1 PUSH1 0xA0 SHL SUB DUP3 AND PUSH2 0x94A JUMPI PUSH1 0x40 MLOAD PUSH3 0x461BCD PUSH1 0xE5 SHL DUP2 MSTORE PUSH1 0x4 ADD PUSH2 0x7CA SWAP1 PUSH2 0x1E81 JUMP JUMPDEST PUSH1 0x0 DUP2 GT PUSH2 0x96A JUMPI PUSH1 0x40 MLOAD PUSH3 0x461BCD PUSH1 0xE5 SHL DUP2 MSTORE PUSH1 0x4 ADD PUSH2 0x7CA SWAP1 PUSH2 0x1EAC JUMP JUMPDEST PUSH2 0x974 DUP3 DUP3 PUSH2 0x18A1 JUMP JUMPDEST PUSH2 0x97E PUSH1 0x1 PUSH1 0x6 SSTORE JUMP JUMPDEST POP POP JUMP JUMPDEST PUSH2 0x98A PUSH2 0x1775 JUMP JUMPDEST PUSH2 0x992 PUSH2 0x17CE JUMP JUMPDEST PUSH1 0x0 DUP2 GT PUSH2 0x9B2 JUMPI PUSH1 0x40 MLOAD PUSH3 0x461BCD PUSH1 0xE5 SHL DUP2 MSTORE PUSH1 0x4 ADD PUSH2 0x7CA SWAP1 PUSH2 0x1EAC JUMP JUMPDEST PUSH2 0x9BC CALLER DUP3 PUSH2 0x18D7 JUMP JUMPDEST PUSH1 0x40 MLOAD DUP2 DUP2 MSTORE CALLER SWAP1 PUSH32 0xFD38818F5291BF0BB3A2A48AADC06BA8757865D1DABD804585338AAB3009DCB6 SWAP1 PUSH1 0x20 ADD JUMPDEST PUSH1 0x40 MLOAD DUP1 SWAP2 SUB SWAP1 LOG2 PUSH2 0x9FC PUSH1 0x1 PUSH1 0x6 SSTORE JUMP JUMPDEST POP JUMP JUMPDEST PUSH1 0x0 DUP1 DUP1 DUP1 DUP1 PUSH1 0x64 PUSH2 0xA1D PUSH8 0x6765C793FA10079D PUSH1 0x1B SHL PUSH1 0x32 PUSH2 0x1EEA JUMP JUMPDEST PUSH2 0xA27 SWAP2 SWAP1 PUSH2 0x1F01 JUMP JUMPDEST PUSH1 0x64 PUSH2 0xA3F PUSH8 0x6765C793FA10079D PUSH1 0x1B SHL PUSH1 0x14 PUSH2 0x1EEA JUMP JUMPDEST PUSH2 0xA49 SWAP2 SWAP1 PUSH2 0x1F01 JUMP JUMPDEST PUSH1 0x64 PUSH2 0xA61 PUSH8 0x6765C793FA10079D PUSH1 0x1B SHL PUSH1 0xF PUSH2 0x1EEA JUMP JUMPDEST PUSH2 0xA6B SWAP2 SWAP1 PUSH2 0x1F01 JUMP JUMPDEST PUSH1 0x64 PUSH2 0xA83 PUSH8 0x6765C793FA10079D PUSH1 0x1B SHL PUSH1 0xA PUSH2 0x1EEA JUMP JUMPDEST PUSH2 0xA8D SWAP2 SWAP1 PUSH2 0x1F01 JUMP JUMPDEST PUSH1 0x64 PUSH2 0xAA5 PUSH8 0x6765C793FA10079D PUSH1 0x1B SHL PUSH1 0x5 PUSH2 0x1EEA JUMP JUMPDEST PUSH2 0xAAF SWAP2 SWAP1 PUSH2 0x1F01 JUMP JUMPDEST SWAP5 POP SWAP5 POP SWAP5 POP SWAP5 POP SWAP5 POP SWAP1 SWAP2 SWAP3 SWAP4 SWAP5 JUMP JUMPDEST PUSH1 0x1 PUSH1 0x1 PUSH1 0xA0 SHL SUB DUP2 AND PUSH1 0x0 SWAP1 DUP2 MSTORE PUSH1 0x20 DUP2 SWAP1 MSTORE PUSH1 0x40 DUP2 KECCAK256 SLOAD PUSH2 0x766 JUMP JUMPDEST PUSH2 0xAE6 PUSH2 0x1822 JUMP JUMPDEST PUSH2 0x90A PUSH1 0x0 PUSH2 0x190D JUMP JUMPDEST PUSH2 0xAF8 PUSH2 0x1775 JUMP JUMPDEST PUSH2 0xB00 PUSH2 0x17CE JUMP JUMPDEST PUSH1 0x0 DUP2 GT PUSH2 0xB20 JUMPI PUSH1 0x40 MLOAD PUSH3 0x461BCD PUSH1 0xE5 SHL DUP2 MSTORE PUSH1 0x4 ADD PUSH2 0x7CA SWAP1 PUSH2 0x1EAC JUMP JUMPDEST CALLER PUSH1 0x0 SWAP1 DUP2 MSTORE PUSH1 0xC PUSH1 0x20 MSTORE PUSH1 0x40 SWAP1 KECCAK256 SLOAD DUP2 GT ISZERO PUSH2 0xB7F JUMPI PUSH1 0x40 MLOAD PUSH3 0x461BCD PUSH1 0xE5 SHL DUP2 MSTORE PUSH1 0x20 PUSH1 0x4 DUP3 ADD MSTORE PUSH1 0x1B PUSH1 0x24 DUP3 ADD MSTORE PUSH32 0x496E73756666696369656E74206C6F636B65642062616C616E63650000000000 PUSH1 0x44 DUP3 ADD MSTORE PUSH1 0x64 ADD PUSH2 0x7CA JUMP JUMPDEST CALLER PUSH1 0x0 SWAP1 DUP2 MSTORE PUSH1 0xC PUSH1 0x20 MSTORE PUSH1 0x40 SWAP1 KECCAK256 SLOAD PUSH2 0xB99 SWAP1 DUP3 PUSH2 0x1661 JUMP JUMPDEST CALLER PUSH1 0x0 SWAP1 DUP2 MSTORE PUSH1 0xC PUSH1 0x20 MSTORE PUSH1 0x40 SWAP1 KECCAK256 SSTORE PUSH1 0xD SLOAD PUSH2 0xBB6 SWAP1 DUP3 PUSH2 0x1661 JUMP JUMPDEST PUSH1 0xD SSTORE PUSH2 0xBC3 CALLER DUP3 PUSH2 0x18A1 JUMP JUMPDEST PUSH1 0x40 MLOAD DUP2 DUP2 MSTORE CALLER SWAP1 PUSH32 0x86E5F036736269C50194228317F229B5684D89D9DB959C604A1EF646D6CD6CA9 SWAP1 PUSH1 0x20 ADD PUSH2 0x9EA JUMP JUMPDEST PUSH2 0xBFD PUSH2 0x1822 JUMP JUMPDEST PUSH1 0x1 PUSH1 0x1 PUSH1 0xA0 SHL SUB DUP2 AND PUSH2 0xC4C JUMPI PUSH1 0x40 MLOAD PUSH3 0x461BCD PUSH1 0xE5 SHL DUP2 MSTORE PUSH1 0x20 PUSH1 0x4 DUP3 ADD MSTORE PUSH1 0x16 PUSH1 0x24 DUP3 ADD MSTORE PUSH22 0x496E76616C69642077616C6C65742061646472657373 PUSH1 0x50 SHL PUSH1 0x44 DUP3 ADD MSTORE PUSH1 0x64 ADD PUSH2 0x7CA JUMP JUMPDEST PUSH1 0x0 DUP3 PUSH1 0x40 MLOAD PUSH1 0x20 ADD PUSH2 0xC5F SWAP2 SWAP1 PUSH2 0x1F23 JUMP JUMPDEST PUSH1 0x40 MLOAD PUSH1 0x20 DUP2 DUP4 SUB SUB DUP2 MSTORE SWAP1 PUSH1 0x40 MSTORE DUP1 MLOAD SWAP1 PUSH1 0x20 ADD KECCAK256 SWAP1 POP PUSH1 0x40 MLOAD PUSH1 0x20 ADD PUSH2 0xC95 SWAP1 PUSH8 0x7472656173757279 PUSH1 0xC0 SHL DUP2 MSTORE PUSH1 0x8 ADD SWAP1 JUMP JUMPDEST PUSH1 0x40 MLOAD PUSH1 0x20 DUP2 DUP4 SUB SUB DUP2 MSTORE SWAP1 PUSH1 0x40 MSTORE DUP1 MLOAD SWAP1 PUSH1 0x20 ADD KECCAK256 DUP2 SUB PUSH2 0xD49 JUMPI PUSH1 0x7 SLOAD PUSH1 0x1 PUSH1 0x1 PUSH1 0xA0 SHL SUB PUSH2 0x100 SWAP1 SWAP2 DIV DUP2 AND SWAP1 DUP4 AND SUB PUSH2 0xCE4 JUMPI PUSH1 0x40 MLOAD PUSH3 0x461BCD PUSH1 0xE5 SHL DUP2 MSTORE PUSH1 0x4 ADD PUSH2 0x7CA SWAP1 PUSH2 0x1F3F JUMP JUMPDEST PUSH1 0x7 DUP1 SLOAD PUSH2 0x100 SWAP1 DUP2 SWAP1 DIV PUSH1 0x1 PUSH1 0x1 PUSH1 0xA0 SHL SUB SWAP1 DUP2 AND PUSH1 0x0 SWAP1 DUP2 MSTORE PUSH1 0xE PUSH1 0x20 MSTORE PUSH1 0x40 DUP1 DUP3 KECCAK256 DUP8 DUP5 AND DUP1 DUP5 MSTORE DUP3 DUP5 KECCAK256 DUP3 SLOAD DUP2 SSTORE PUSH1 0x1 SWAP3 DUP4 ADD SLOAD SWAP1 DUP4 ADD SSTORE DUP7 SLOAD DUP7 SWAP1 DIV SWAP1 SWAP5 AND DUP4 MSTORE SWAP1 DUP3 KECCAK256 DUP3 DUP2 SSTORE ADD SSTORE DUP3 SLOAD PUSH2 0x100 PUSH1 0x1 PUSH1 0xA8 SHL SUB NOT AND SWAP2 MUL OR SWAP1 SSTORE PUSH2 0xFC5 JUMP JUMPDEST PUSH1 0x40 MLOAD PUSH9 0x65636F73797374656D PUSH1 0xB8 SHL PUSH1 0x20 DUP3 ADD MSTORE PUSH1 0x29 ADD PUSH1 0x40 MLOAD PUSH1 0x20 DUP2 DUP4 SUB SUB DUP2 MSTORE SWAP1 PUSH1 0x40 MSTORE DUP1 MLOAD SWAP1 PUSH1 0x20 ADD KECCAK256 DUP2 SUB PUSH2 0xE03 JUMPI PUSH1 0x8 SLOAD PUSH1 0x1 PUSH1 0x1 PUSH1 0xA0 SHL SUB SWAP1 DUP2 AND SWAP1 DUP4 AND SUB PUSH2 0xDAB JUMPI PUSH1 0x40 MLOAD PUSH3 0x461BCD PUSH1 0xE5 SHL DUP2 MSTORE PUSH1 0x4 ADD PUSH2 0x7CA SWAP1 PUSH2 0x1F3F JUMP JUMPDEST PUSH1 0x8 DUP1 SLOAD PUSH1 0x1 PUSH1 0x1 PUSH1 0xA0 SHL SUB SWAP1 DUP2 AND PUSH1 0x0 SWAP1 DUP2 MSTORE PUSH1 0xE PUSH1 0x20 MSTORE PUSH1 0x40 DUP1 DUP3 KECCAK256 DUP7 DUP5 AND DUP1 DUP5 MSTORE DUP3 DUP5 KECCAK256 DUP3 SLOAD DUP2 SSTORE PUSH1 0x1 SWAP3 DUP4 ADD SLOAD SWAP1 DUP4 ADD SSTORE DUP6 SLOAD SWAP1 SWAP5 AND DUP4 MSTORE SWAP1 DUP3 KECCAK256 DUP3 DUP2 SSTORE ADD SSTORE DUP2 SLOAD PUSH1 0x1 PUSH1 0x1 PUSH1 0xA0 SHL SUB NOT AND OR SWAP1 SSTORE PUSH2 0xFC5 JUMP JUMPDEST PUSH1 0x40 MLOAD PUSH9 0x636F6D6D756E697479 PUSH1 0xB8 SHL PUSH1 0x20 DUP3 ADD MSTORE PUSH1 0x29 ADD PUSH1 0x40 MLOAD PUSH1 0x20 DUP2 DUP4 SUB SUB DUP2 MSTORE SWAP1 PUSH1 0x40 MSTORE DUP1 MLOAD SWAP1 PUSH1 0x20 ADD KECCAK256 DUP2 SUB PUSH2 0xE85 JUMPI PUSH1 0x9 SLOAD PUSH1 0x1 PUSH1 0x1 PUSH1 0xA0 SHL SUB SWAP1 DUP2 AND SWAP1 DUP4 AND SUB PUSH2 0xE65 JUMPI PUSH1 0x40 MLOAD PUSH3 0x461BCD PUSH1 0xE5 SHL DUP2 MSTORE PUSH1 0x4 ADD PUSH2 0x7CA SWAP1 PUSH2 0x1F3F JUMP JUMPDEST PUSH1 0x9 DUP1 SLOAD PUSH1 0x1 PUSH1 0x1 PUSH1 0xA0 SHL SUB NOT AND PUSH1 0x1 PUSH1 0x1 PUSH1 0xA0 SHL SUB DUP5 AND OR SWAP1 SSTORE PUSH2 0xFC5 JUMP JUMPDEST PUSH1 0x40 MLOAD PUSH9 0x6C6971756964697479 PUSH1 0xB8 SHL PUSH1 0x20 DUP3 ADD MSTORE PUSH1 0x29 ADD PUSH1 0x40 MLOAD PUSH1 0x20 DUP2 DUP4 SUB SUB DUP2 MSTORE SWAP1 PUSH1 0x40 MSTORE DUP1 MLOAD SWAP1 PUSH1 0x20 ADD KECCAK256 DUP2 SUB PUSH2 0xF07 JUMPI PUSH1 0xA SLOAD PUSH1 0x1 PUSH1 0x1 PUSH1 0xA0 SHL SUB SWAP1 DUP2 AND SWAP1 DUP4 AND SUB PUSH2 0xEE7 JUMPI PUSH1 0x40 MLOAD PUSH3 0x461BCD PUSH1 0xE5 SHL DUP2 MSTORE PUSH1 0x4 ADD PUSH2 0x7CA SWAP1 PUSH2 0x1F3F JUMP JUMPDEST PUSH1 0xA DUP1 SLOAD PUSH1 0x1 PUSH1 0x1 PUSH1 0xA0 SHL SUB NOT AND PUSH1 0x1 PUSH1 0x1 PUSH1 0xA0 SHL SUB DUP5 AND OR SWAP1 SSTORE PUSH2 0xFC5 JUMP JUMPDEST PUSH1 0x40 MLOAD PUSH7 0x72657365727665 PUSH1 0xC8 SHL PUSH1 0x20 DUP3 ADD MSTORE PUSH1 0x27 ADD PUSH1 0x40 MLOAD PUSH1 0x20 DUP2 DUP4 SUB SUB DUP2 MSTORE SWAP1 PUSH1 0x40 MSTORE DUP1 MLOAD SWAP1 PUSH1 0x20 ADD KECCAK256 DUP2 SUB PUSH2 0xF87 JUMPI PUSH1 0xB SLOAD PUSH1 0x1 PUSH1 0x1 PUSH1 0xA0 SHL SUB SWAP1 DUP2 AND SWAP1 DUP4 AND SUB PUSH2 0xF67 JUMPI PUSH1 0x40 MLOAD PUSH3 0x461BCD PUSH1 0xE5 SHL DUP2 MSTORE PUSH1 0x4 ADD PUSH2 0x7CA SWAP1 PUSH2 0x1F3F JUMP JUMPDEST PUSH1 0xB DUP1 SLOAD PUSH1 0x1 PUSH1 0x1 PUSH1 0xA0 SHL SUB NOT AND PUSH1 0x1 PUSH1 0x1 PUSH1 0xA0 SHL SUB DUP5 AND OR SWAP1 SSTORE PUSH2 0xFC5 JUMP JUMPDEST PUSH1 0x40 MLOAD PUSH3 0x461BCD PUSH1 0xE5 SHL DUP2 MSTORE PUSH1 0x20 PUSH1 0x4 DUP3 ADD MSTORE PUSH1 0x13 PUSH1 0x24 DUP3 ADD MSTORE PUSH19 0x496E76616C69642077616C6C65742074797065 PUSH1 0x68 SHL PUSH1 0x44 DUP3 ADD MSTORE PUSH1 0x64 ADD PUSH2 0x7CA JUMP JUMPDEST PUSH32 0x6FF3A4003B90BE84595BEB5F6ACB9D54F88BD3E6DD4887CA67E53DC9645465EA DUP4 DUP4 PUSH1 0x40 MLOAD PUSH2 0xFF6 SWAP3 SWAP2 SWAP1 PUSH2 0x1F6C JUMP JUMPDEST PUSH1 0x40 MLOAD DUP1 SWAP2 SUB SWAP1 LOG1 POP POP POP JUMP JUMPDEST PUSH1 0x64 PUSH2 0x101B PUSH8 0x6765C793FA10079D PUSH1 0x1B SHL PUSH1 0x5 PUSH2 0x1EEA JUMP JUMPDEST PUSH2 0x1025 SWAP2 SWAP1 PUSH2 0x1F01 JUMP JUMPDEST DUP2 JUMP JUMPDEST PUSH2 0x1030 PUSH2 0x1822 JUMP JUMPDEST PUSH2 0x90A PUSH2 0x195F JUMP JUMPDEST PUSH1 0x64 PUSH2 0x101B PUSH8 0x6765C793FA10079D PUSH1 0x1B SHL PUSH1 0x14 PUSH2 0x1EEA JUMP JUMPDEST PUSH2 0x1058 PUSH2 0x1775 JUMP JUMPDEST PUSH2 0x1060 PUSH2 0x17CE JUMP JUMPDEST PUSH1 0x0 DUP2 GT PUSH2 0x1080 JUMPI PUSH1 0x40 MLOAD PUSH3 0x461BCD PUSH1 0xE5 SHL DUP2 MSTORE PUSH1 0x4 ADD PUSH2 0x7CA SWAP1 PUSH2 0x1EAC JUMP JUMPDEST DUP1 PUSH2 0x108A CALLER PUSH2 0xAC0 JUMP JUMPDEST LT ISZERO PUSH2 0x10CF JUMPI PUSH1 0x40 MLOAD PUSH3 0x461BCD PUSH1 0xE5 SHL DUP2 MSTORE PUSH1 0x20 PUSH1 0x4 DUP3 ADD MSTORE PUSH1 0x14 PUSH1 0x24 DUP3 ADD MSTORE PUSH20 0x496E73756666696369656E742062616C616E6365 PUSH1 0x60 SHL PUSH1 0x44 DUP3 ADD MSTORE PUSH1 0x64 ADD PUSH2 0x7CA JUMP JUMPDEST PUSH2 0x10D9 CALLER DUP3 PUSH2 0x18D7 JUMP JUMPDEST CALLER PUSH1 0x0 SWAP1 DUP2 MSTORE PUSH1 0xC PUSH1 0x20 MSTORE PUSH1 0x40 SWAP1 KECCAK256 SLOAD PUSH2 0x10F3 SWAP1 DUP3 PUSH2 0x199C JUMP JUMPDEST CALLER PUSH1 0x0 SWAP1 DUP2 MSTORE PUSH1 0xC PUSH1 0x20 MSTORE PUSH1 0x40 SWAP1 KECCAK256 SSTORE PUSH1 0xD SLOAD PUSH2 0x1110 SWAP1 DUP3 PUSH2 0x199C JUMP JUMPDEST PUSH1 0xD SSTORE PUSH1 0x40 MLOAD DUP2 DUP2 MSTORE CALLER SWAP1 PUSH32 0x6B4F55697B6DDAD583B377BB7AB9D921AFC2EB9FFA0B12FBCEA5AE24A7A34E6A SWAP1 PUSH1 0x20 ADD PUSH2 0x9EA JUMP JUMPDEST PUSH1 0x60 PUSH1 0x4 DUP1 SLOAD PUSH2 0x6CF SWAP1 PUSH2 0x1E47 JUMP JUMPDEST PUSH1 0x64 PUSH2 0x101B PUSH8 0x6765C793FA10079D PUSH1 0x1B SHL PUSH1 0xF PUSH2 0x1EEA JUMP JUMPDEST PUSH1 0x0 PUSH2 0x1176 PUSH2 0x17CE JUMP JUMPDEST PUSH1 0x0 PUSH2 0x1182 DUP5 DUP5 PUSH2 0x1814 JUMP JUMPDEST SWAP1 POP DUP1 ISZERO PUSH2 0x78B JUMPI PUSH1 0x40 MLOAD DUP4 DUP2 MSTORE PUSH1 0x1 PUSH1 0x1 PUSH1 0xA0 SHL SUB DUP6 AND SWAP1 CALLER SWAP1 PUSH32 0x94E83CA767B0D965638D27B68A75EA07CD5C28C86299B5C7E02D2D5F1EE9AFF2 SWAP1 PUSH1 0x20 ADD PUSH1 0x40 MLOAD DUP1 SWAP2 SUB SWAP1 LOG3 SWAP4 SWAP3 POP POP POP JUMP JUMPDEST PUSH2 0x11D9 PUSH2 0x1822 JUMP JUMPDEST PUSH2 0x11E1 PUSH2 0x1775 JUMP JUMPDEST ADDRESS PUSH1 0x1 PUSH1 0x1 PUSH1 0xA0 SHL SUB DUP4 AND SUB PUSH2 0x1239 JUMPI PUSH1 0x40 MLOAD PUSH3 0x461BCD PUSH1 0xE5 SHL DUP2 MSTORE PUSH1 0x20 PUSH1 0x4 DUP3 ADD MSTORE PUSH1 0x19 PUSH1 0x24 DUP3 ADD MSTORE PUSH32 0x43616E6E6F74207265636F7665722051344120746F6B656E7300000000000000 PUSH1 0x44 DUP3 ADD MSTORE PUSH1 0x64 ADD PUSH2 0x7CA JUMP JUMPDEST PUSH1 0x1 PUSH1 0x1 PUSH1 0xA0 SHL SUB DUP2 AND PUSH2 0x125F JUMPI PUSH1 0x40 MLOAD PUSH3 0x461BCD PUSH1 0xE5 SHL DUP2 MSTORE PUSH1 0x4 ADD PUSH2 0x7CA SWAP1 PUSH2 0x1E81 JUMP JUMPDEST PUSH1 0x40 MLOAD PUSH4 0x70A08231 PUSH1 0xE0 SHL DUP2 MSTORE ADDRESS PUSH1 0x4 DUP3 ADD MSTORE PUSH1 0x0 SWAP1 PUSH1 0x1 PUSH1 0x1 PUSH1 0xA0 SHL SUB DUP5 AND SWAP1 PUSH4 0x70A08231 SWAP1 PUSH1 0x24 ADD PUSH1 0x20 PUSH1 0x40 MLOAD DUP1 DUP4 SUB DUP2 DUP7 GAS STATICCALL ISZERO DUP1 ISZERO PUSH2 0x12A6 JUMPI RETURNDATASIZE PUSH1 0x0 DUP1 RETURNDATACOPY RETURNDATASIZE PUSH1 0x0 REVERT JUMPDEST POP POP POP POP PUSH1 0x40 MLOAD RETURNDATASIZE PUSH1 0x1F NOT PUSH1 0x1F DUP3 ADD AND DUP3 ADD DUP1 PUSH1 0x40 MSTORE POP DUP2 ADD SWAP1 PUSH2 0x12CA SWAP2 SWAP1 PUSH2 0x1F96 JUMP JUMPDEST SWAP1 POP PUSH1 0x0 DUP2 GT PUSH2 0x1313 JUMPI PUSH1 0x40 MLOAD PUSH3 0x461BCD PUSH1 0xE5 SHL DUP2 MSTORE PUSH1 0x20 PUSH1 0x4 DUP3 ADD MSTORE PUSH1 0x14 PUSH1 0x24 DUP3 ADD MSTORE PUSH20 0x2737903A37B5B2B739903A37903932B1B7BB32B9 PUSH1 0x61 SHL PUSH1 0x44 DUP3 ADD MSTORE PUSH1 0x64 ADD PUSH2 0x7CA JUMP JUMPDEST PUSH1 0x40 MLOAD PUSH4 0xA9059CBB PUSH1 0xE0 SHL DUP2 MSTORE PUSH1 0x1 PUSH1 0x1 PUSH1 0xA0 SHL SUB DUP4 DUP2 AND PUSH1 0x4 DUP4 ADD MSTORE PUSH1 0x24 DUP3 ADD DUP4 SWAP1 MSTORE DUP5 AND SWAP1 PUSH4 0xA9059CBB SWAP1 PUSH1 0x44 ADD PUSH1 0x20 PUSH1 0x40 MLOAD DUP1 DUP4 SUB DUP2 PUSH1 0x0 DUP8 GAS CALL ISZERO DUP1 ISZERO PUSH2 0x1362 JUMPI RETURNDATASIZE PUSH1 0x0 DUP1 RETURNDATACOPY RETURNDATASIZE PUSH1 0x0 REVERT JUMPDEST POP POP POP POP PUSH1 0x40 MLOAD RETURNDATASIZE PUSH1 0x1F NOT PUSH1 0x1F DUP3 ADD AND DUP3 ADD DUP1 PUSH1 0x40 MSTORE POP DUP2 ADD SWAP1 PUSH2 0x1386 SWAP2 SWAP1 PUSH2 0x1FAF JUMP JUMPDEST POP DUP2 PUSH1 0x1 PUSH1 0x1 PUSH1 0xA0 SHL SUB AND DUP4 PUSH1 0x1 PUSH1 0x1 PUSH1 0xA0 SHL SUB AND PUSH32 0x1AC506E936E7F02F4036DBE44708F5E8D72AF9ACE8745A29FD391481A8FBCB87 DUP4 PUSH1 0x40 MLOAD PUSH2 0x13CC SWAP2 DUP2 MSTORE PUSH1 0x20 ADD SWAP1 JUMP JUMPDEST PUSH1 0x40 MLOAD DUP1 SWAP2 SUB SWAP1 LOG3 POP PUSH2 0x97E PUSH1 0x1 PUSH1 0x6 SSTORE JUMP JUMPDEST PUSH1 0x64 PUSH2 0x101B PUSH8 0x6765C793FA10079D PUSH1 0x1B SHL PUSH1 0x32 PUSH2 0x1EEA JUMP JUMPDEST PUSH2 0x13FF PUSH2 0x1775 JUMP JUMPDEST PUSH2 0x1407 PUSH2 0x17CE JUMP JUMPDEST PUSH1 0x7 SLOAD PUSH1 0x1 PUSH1 0x1 PUSH1 0xA0 SHL SUB DUP3 DUP2 AND PUSH2 0x100 SWAP1 SWAP3 DIV AND EQ DUP1 PUSH2 0x1435 JUMPI POP PUSH1 0x8 SLOAD PUSH1 0x1 PUSH1 0x1 PUSH1 0xA0 SHL SUB DUP3 DUP2 AND SWAP2 AND EQ JUMPDEST PUSH2 0x147A JUMPI PUSH1 0x40 MLOAD PUSH3 0x461BCD PUSH1 0xE5 SHL DUP2 MSTORE PUSH1 0x20 PUSH1 0x4 DUP3 ADD MSTORE PUSH1 0x16 PUSH1 0x24 DUP3 ADD MSTORE PUSH22 0x125B9D985B1A59081D995CDD1A5B99C81DD85B1B195D PUSH1 0x52 SHL PUSH1 0x44 DUP3 ADD MSTORE PUSH1 0x64 ADD PUSH2 0x7CA JUMP JUMPDEST PUSH1 0x1 PUSH1 0x1 PUSH1 0xA0 SHL SUB DUP2 AND PUSH1 0x0 SWAP1 DUP2 MSTORE PUSH1 0xE PUSH1 0x20 MSTORE PUSH1 0x40 SWAP1 KECCAK256 PUSH1 0x1 DUP2 ADD SLOAD DUP2 SLOAD GT PUSH2 0x14DD JUMPI PUSH1 0x40 MLOAD PUSH3 0x461BCD PUSH1 0xE5 SHL DUP2 MSTORE PUSH1 0x20 PUSH1 0x4 DUP3 ADD MSTORE PUSH1 0x14 PUSH1 0x24 DUP3 ADD MSTORE PUSH20 0x4E6F20746F6B656E7320746F2072656C65617365 PUSH1 0x60 SHL PUSH1 0x44 DUP3 ADD MSTORE PUSH1 0x64 ADD PUSH2 0x7CA JUMP JUMPDEST PUSH1 0x0 PUSH2 0x1509 TIMESTAMP PUSH32 0x0 PUSH2 0x1661 JUMP JUMPDEST SWAP1 POP PUSH1 0x0 PUSH2 0x152C PUSH4 0x1E13380 PUSH2 0x691 DUP5 DUP7 PUSH1 0x0 ADD SLOAD PUSH2 0x166D SWAP1 SWAP2 SWAP1 PUSH4 0xFFFFFFFF AND JUMP JUMPDEST DUP4 SLOAD SWAP1 SWAP2 POP DUP2 GT ISZERO PUSH2 0x153C JUMPI POP DUP2 SLOAD JUMPDEST PUSH1 0x0 PUSH2 0x1555 DUP5 PUSH1 0x1 ADD SLOAD DUP4 PUSH2 0x1661 SWAP1 SWAP2 SWAP1 PUSH4 0xFFFFFFFF AND JUMP JUMPDEST SWAP1 POP PUSH1 0x0 DUP2 GT PUSH2 0x159E JUMPI PUSH1 0x40 MLOAD PUSH3 0x461BCD PUSH1 0xE5 SHL DUP2 MSTORE PUSH1 0x20 PUSH1 0x4 DUP3 ADD MSTORE PUSH1 0x14 PUSH1 0x24 DUP3 ADD MSTORE PUSH20 0x4E6F20746F6B656E732072656C65617361626C65 PUSH1 0x60 SHL PUSH1 0x44 DUP3 ADD MSTORE PUSH1 0x64 ADD PUSH2 0x7CA JUMP JUMPDEST PUSH1 0x1 DUP5 ADD SLOAD PUSH2 0x15AD SWAP1 DUP3 PUSH2 0x199C JUMP JUMPDEST PUSH1 0x1 DUP6 ADD SSTORE PUSH2 0x15BD ADDRESS DUP7 DUP4 PUSH2 0x1716 JUMP JUMPDEST DUP5 PUSH1 0x1 PUSH1 0x1 PUSH1 0xA0 SHL SUB AND PUSH32 0x4AD7799F99297062CEA73C5A21D23A1FCF49F6A1957F7409712E555A0DCD1E1D DUP3 PUSH1 0x40 MLOAD PUSH2 0x15F8 SWAP2 DUP2 MSTORE PUSH1 0x20 ADD SWAP1 JUMP JUMPDEST PUSH1 0x40 MLOAD DUP1 SWAP2 SUB SWAP1 LOG2 POP POP POP POP PUSH2 0x9FC PUSH1 0x1 PUSH1 0x6 SSTORE JUMP JUMPDEST PUSH2 0x1616 PUSH2 0x1822 JUMP JUMPDEST PUSH1 0x1 PUSH1 0x1 PUSH1 0xA0 SHL SUB DUP2 AND PUSH2 0x1640 JUMPI PUSH1 0x40 MLOAD PUSH4 0x1E4FBDF7 PUSH1 0xE0 SHL DUP2 MSTORE PUSH1 0x0 PUSH1 0x4 DUP3 ADD MSTORE PUSH1 0x24 ADD PUSH2 0x7CA JUMP JUMPDEST PUSH2 0x9FC DUP2 PUSH2 0x190D JUMP JUMPDEST PUSH1 0x64 PUSH2 0x101B PUSH8 0x6765C793FA10079D PUSH1 0x1B SHL PUSH1 0xA PUSH2 0x1EEA JUMP JUMPDEST PUSH1 0x0 PUSH2 0x78B DUP3 DUP5 PUSH2 0x1FD1 JUMP JUMPDEST PUSH1 0x0 PUSH2 0x78B DUP3 DUP5 PUSH2 0x1EEA JUMP JUMPDEST PUSH1 0x0 PUSH2 0x78B DUP3 DUP5 PUSH2 0x1F01 JUMP JUMPDEST PUSH2 0x1692 DUP4 DUP4 DUP4 PUSH1 0x1 PUSH2 0x19A8 JUMP JUMPDEST POP POP POP JUMP JUMPDEST PUSH1 0x1 PUSH1 0x1 PUSH1 0xA0 SHL SUB DUP4 DUP2 AND PUSH1 0x0 SWAP1 DUP2 MSTORE PUSH1 0x1 PUSH1 0x20 SWAP1 DUP2 MSTORE PUSH1 0x40 DUP1 DUP4 KECCAK256 SWAP4 DUP7 AND DUP4 MSTORE SWAP3 SWAP1 MSTORE KECCAK256 SLOAD PUSH1 0x0 NOT DUP2 LT ISZERO PUSH2 0x1710 JUMPI DUP2 DUP2 LT ISZERO PUSH2 0x1701 JUMPI PUSH1 0x40 MLOAD PUSH4 0x7DC7A0D9 PUSH1 0xE1 SHL DUP2 MSTORE PUSH1 0x1 PUSH1 0x1 PUSH1 0xA0 SHL SUB DUP5 AND PUSH1 0x4 DUP3 ADD MSTORE PUSH1 0x24 DUP2 ADD DUP3 SWAP1 MSTORE PUSH1 0x44 DUP2 ADD DUP4 SWAP1 MSTORE PUSH1 0x64 ADD PUSH2 0x7CA JUMP JUMPDEST PUSH2 0x1710 DUP5 DUP5 DUP5 DUP5 SUB PUSH1 0x0 PUSH2 0x19A8 JUMP JUMPDEST POP POP POP POP JUMP JUMPDEST PUSH1 0x1 PUSH1 0x1 PUSH1 0xA0 SHL SUB DUP4 AND PUSH2 0x1740 JUMPI PUSH1 0x40 MLOAD PUSH4 0x4B637E8F PUSH1 0xE1 SHL DUP2 MSTORE PUSH1 0x0 PUSH1 0x4 DUP3 ADD MSTORE PUSH1 0x24 ADD PUSH2 0x7CA JUMP JUMPDEST PUSH1 0x1 PUSH1 0x1 PUSH1 0xA0 SHL SUB DUP3 AND PUSH2 0x176A JUMPI PUSH1 0x40 MLOAD PUSH4 0xEC442F05 PUSH1 0xE0 SHL DUP2 MSTORE PUSH1 0x0 PUSH1 0x4 DUP3 ADD MSTORE PUSH1 0x24 ADD PUSH2 0x7CA JUMP JUMPDEST PUSH2 0x1692 DUP4 DUP4 DUP4 PUSH2 0x1A7D JUMP JUMPDEST PUSH1 0x2 PUSH1 0x6 SLOAD SUB PUSH2 0x17C7 JUMPI PUSH1 0x40 MLOAD PUSH3 0x461BCD PUSH1 0xE5 SHL DUP2 MSTORE PUSH1 0x20 PUSH1 0x4 DUP3 ADD MSTORE PUSH1 0x1F PUSH1 0x24 DUP3 ADD MSTORE PUSH32 0x5265656E7472616E637947756172643A207265656E7472616E742063616C6C00 PUSH1 0x44 DUP3 ADD MSTORE PUSH1 0x64 ADD PUSH2 0x7CA JUMP JUMPDEST PUSH1 0x2 PUSH1 0x6 SSTORE JUMP JUMPDEST PUSH1 0x7 SLOAD PUSH1 0xFF AND ISZERO PUSH2 0x90A JUMPI PUSH1 0x40 MLOAD PUSH3 0x461BCD PUSH1 0xE5 SHL DUP2 MSTORE PUSH1 0x20 PUSH1 0x4 DUP3 ADD MSTORE PUSH1 0x10 PUSH1 0x24 DUP3 ADD MSTORE PUSH16 0x14185D5CD8589B194E881C185D5CD959 PUSH1 0x82 SHL PUSH1 0x44 DUP3 ADD MSTORE PUSH1 0x64 ADD PUSH2 0x7CA JUMP JUMPDEST PUSH1 0x0 CALLER PUSH2 0x760 DUP2 DUP6 DUP6 PUSH2 0x1716 JUMP JUMPDEST PUSH1 0x5 SLOAD PUSH1 0x1 PUSH1 0x1 PUSH1 0xA0 SHL SUB AND CALLER EQ PUSH2 0x90A JUMPI PUSH1 0x40 MLOAD PUSH4 0x118CDAA7 PUSH1 0xE0 SHL DUP2 MSTORE CALLER PUSH1 0x4 DUP3 ADD MSTORE PUSH1 0x24 ADD PUSH2 0x7CA JUMP JUMPDEST PUSH2 0x1857 PUSH2 0x1BA7 JUMP JUMPDEST PUSH1 0x7 DUP1 SLOAD PUSH1 0xFF NOT AND SWAP1 SSTORE PUSH32 0x5DB9EE0A495BF2E6FF9C91A7834C1BA4FDD244A5E8AA4E537BD38AEAE4B073AA CALLER JUMPDEST PUSH1 0x40 MLOAD PUSH1 0x1 PUSH1 0x1 PUSH1 0xA0 SHL SUB SWAP1 SWAP2 AND DUP2 MSTORE PUSH1 0x20 ADD PUSH1 0x40 MLOAD DUP1 SWAP2 SUB SWAP1 LOG1 JUMP JUMPDEST PUSH1 0x1 PUSH1 0x1 PUSH1 0xA0 SHL SUB DUP3 AND PUSH2 0x18CB JUMPI PUSH1 0x40 MLOAD PUSH4 0xEC442F05 PUSH1 0xE0 SHL DUP2 MSTORE PUSH1 0x0 PUSH1 0x4 DUP3 ADD MSTORE PUSH1 0x24 ADD PUSH2 0x7CA JUMP JUMPDEST PUSH2 0x97E PUSH1 0x0 DUP4 DUP4 PUSH2 0x1A7D JUMP JUMPDEST PUSH1 0x1 PUSH1 0x1 PUSH1 0xA0 SHL SUB DUP3 AND PUSH2 0x1901 JUMPI PUSH1 0x40 MLOAD PUSH4 0x4B637E8F PUSH1 0xE1 SHL DUP2 MSTORE PUSH1 0x0 PUSH1 0x4 DUP3 ADD MSTORE PUSH1 0x24 ADD PUSH2 0x7CA JUMP JUMPDEST PUSH2 0x97E DUP3 PUSH1 0x0 DUP4 PUSH2 0x1A7D JUMP JUMPDEST PUSH1 0x5 DUP1 SLOAD PUSH1 0x1 PUSH1 0x1 PUSH1 0xA0 SHL SUB DUP4 DUP2 AND PUSH1 0x1 PUSH1 0x1 PUSH1 0xA0 SHL SUB NOT DUP4 AND DUP2 OR SWAP1 SWAP4 SSTORE PUSH1 0x40 MLOAD SWAP2 AND SWAP2 SWAP1 DUP3 SWAP1 PUSH32 0x8BE0079C531659141344CD1FD0A4F28419497F9722A3DAAFE3B4186F6B6457E0 SWAP1 PUSH1 0x0 SWAP1 LOG3 POP POP JUMP JUMPDEST PUSH2 0x1967 PUSH2 0x17CE JUMP JUMPDEST PUSH1 0x7 DUP1 SLOAD PUSH1 0xFF NOT AND PUSH1 0x1 OR SWAP1 SSTORE PUSH32 0x62E78CEA01BEE320CD4E420270B5EA74000D11B0C9F74754EBDBFC544B05A258 PUSH2 0x1884 CALLER SWAP1 JUMP JUMPDEST PUSH1 0x0 PUSH2 0x78B DUP3 DUP5 PUSH2 0x1FE4 JUMP JUMPDEST PUSH1 0x1 PUSH1 0x1 PUSH1 0xA0 SHL SUB DUP5 AND PUSH2 0x19D2 JUMPI PUSH1 0x40 MLOAD PUSH4 0xE602DF05 PUSH1 0xE0 SHL DUP2 MSTORE PUSH1 0x0 PUSH1 0x4 DUP3 ADD MSTORE PUSH1 0x24 ADD PUSH2 0x7CA JUMP JUMPDEST PUSH1 0x1 PUSH1 0x1 PUSH1 0xA0 SHL SUB DUP4 AND PUSH2 0x19FC JUMPI PUSH1 0x40 MLOAD PUSH4 0x4A1406B1 PUSH1 0xE1 SHL DUP2 MSTORE PUSH1 0x0 PUSH1 0x4 DUP3 ADD MSTORE PUSH1 0x24 ADD PUSH2 0x7CA JUMP JUMPDEST PUSH1 0x1 PUSH1 0x1 PUSH1 0xA0 SHL SUB DUP1 DUP6 AND PUSH1 0x0 SWAP1 DUP2 MSTORE PUSH1 0x1 PUSH1 0x20 SWAP1 DUP2 MSTORE PUSH1 0x40 DUP1 DUP4 KECCAK256 SWAP4 DUP8 AND DUP4 MSTORE SWAP3 SWAP1 MSTORE KECCAK256 DUP3 SWAP1 SSTORE DUP1 ISZERO PUSH2 0x1710 JUMPI DUP3 PUSH1 0x1 PUSH1 0x1 PUSH1 0xA0 SHL SUB AND DUP5 PUSH1 0x1 PUSH1 0x1 PUSH1 0xA0 SHL SUB AND PUSH32 0x8C5BE1E5EBEC7D5BD14F71427D1E84F3DD0314C0F7B2291E5B200AC8C7C3B925 DUP5 PUSH1 0x40 MLOAD PUSH2 0x1A6F SWAP2 DUP2 MSTORE PUSH1 0x20 ADD SWAP1 JUMP JUMPDEST PUSH1 0x40 MLOAD DUP1 SWAP2 SUB SWAP1 LOG3 POP POP POP POP JUMP JUMPDEST PUSH1 0x1 PUSH1 0x1 PUSH1 0xA0 SHL SUB DUP4 AND PUSH2 0x1AA8 JUMPI DUP1 PUSH1 0x2 PUSH1 0x0 DUP3 DUP3 SLOAD PUSH2 0x1A9D SWAP2 SWAP1 PUSH2 0x1FE4 JUMP JUMPDEST SWAP1 SWAP2 SSTORE POP PUSH2 0x1B1A SWAP1 POP JUMP JUMPDEST PUSH1 0x1 PUSH1 0x1 PUSH1 0xA0 SHL SUB DUP4 AND PUSH1 0x0 SWAP1 DUP2 MSTORE PUSH1 0x20 DUP2 SWAP1 MSTORE PUSH1 0x40 SWAP1 KECCAK256 SLOAD DUP2 DUP2 LT ISZERO PUSH2 0x1AFB JUMPI PUSH1 0x40 MLOAD PUSH4 0x391434E3 PUSH1 0xE2 SHL DUP2 MSTORE PUSH1 0x1 PUSH1 0x1 PUSH1 0xA0 SHL SUB DUP6 AND PUSH1 0x4 DUP3 ADD MSTORE PUSH1 0x24 DUP2 ADD DUP3 SWAP1 MSTORE PUSH1 0x44 DUP2 ADD DUP4 SWAP1 MSTORE PUSH1 0x64 ADD PUSH2 0x7CA JUMP JUMPDEST PUSH1 0x1 PUSH1 0x1 PUSH1 0xA0 SHL SUB DUP5 AND PUSH1 0x0 SWAP1 DUP2 MSTORE PUSH1 0x20 DUP2 SWAP1 MSTORE PUSH1 0x40 SWAP1 KECCAK256 SWAP1 DUP3 SWAP1 SUB SWAP1 SSTORE JUMPDEST PUSH1 0x1 PUSH1 0x1 PUSH1 0xA0 SHL SUB DUP3 AND PUSH2 0x1B36 JUMPI PUSH1 0x2 DUP1 SLOAD DUP3 SWAP1 SUB SWAP1 SSTORE PUSH2 0x1B55 JUMP JUMPDEST PUSH1 0x1 PUSH1 0x1 PUSH1 0xA0 SHL SUB DUP3 AND PUSH1 0x0 SWAP1 DUP2 MSTORE PUSH1 0x20 DUP2 SWAP1 MSTORE PUSH1 0x40 SWAP1 KECCAK256 DUP1 SLOAD DUP3 ADD SWAP1 SSTORE JUMPDEST DUP2 PUSH1 0x1 PUSH1 0x1 PUSH1 0xA0 SHL SUB AND DUP4 PUSH1 0x1 PUSH1 0x1 PUSH1 0xA0 SHL SUB AND PUSH32 0xDDF252AD1BE2C89B69C2B068FC378DAA952BA7F163C4A11628F55A4DF523B3EF DUP4 PUSH1 0x40 MLOAD PUSH2 0x1B9A SWAP2 DUP2 MSTORE PUSH1 0x20 ADD SWAP1 JUMP JUMPDEST PUSH1 0x40 MLOAD DUP1 SWAP2 SUB SWAP1 LOG3 POP POP POP JUMP JUMPDEST PUSH1 0x7 SLOAD PUSH1 0xFF AND PUSH2 0x90A JUMPI PUSH1 0x40 MLOAD PUSH3 0x461BCD PUSH1 0xE5 SHL DUP2 MSTORE PUSH1 0x20 PUSH1 0x4 DUP3 ADD MSTORE PUSH1 0x14 PUSH1 0x24 DUP3 ADD MSTORE PUSH20 0x14185D5CD8589B194E881B9BDD081C185D5CD959 PUSH1 0x62 SHL PUSH1 0x44 DUP3 ADD MSTORE PUSH1 0x64 ADD PUSH2 0x7CA JUMP JUMPDEST DUP1 CALLDATALOAD PUSH1 0x1 PUSH1 0x1 PUSH1 0xA0 SHL SUB DUP2 AND DUP2 EQ PUSH2 0x1C07 JUMPI PUSH1 0x0 DUP1 REVERT JUMPDEST SWAP2 SWAP1 POP JUMP JUMPDEST PUSH1 0x0 PUSH1 0x20 DUP3 DUP5 SUB SLT ISZERO PUSH2 0x1C1E JUMPI PUSH1 0x0 DUP1 REVERT JUMPDEST PUSH2 0x78B DUP3 PUSH2 0x1BF0 JUMP JUMPDEST PUSH1 0x0 JUMPDEST DUP4 DUP2 LT ISZERO PUSH2 0x1C42 JUMPI DUP2 DUP2 ADD MLOAD DUP4 DUP3 ADD MSTORE PUSH1 0x20 ADD PUSH2 0x1C2A JUMP JUMPDEST POP POP PUSH1 0x0 SWAP2 ADD MSTORE JUMP JUMPDEST PUSH1 0x0 DUP2 MLOAD DUP1 DUP5 MSTORE PUSH2 0x1C63 DUP2 PUSH1 0x20 DUP7 ADD PUSH1 0x20 DUP7 ADD PUSH2 0x1C27 JUMP JUMPDEST PUSH1 0x1F ADD PUSH1 0x1F NOT AND SWAP3 SWAP1 SWAP3 ADD PUSH1 0x20 ADD SWAP3 SWAP2 POP POP JUMP JUMPDEST PUSH1 0x20 DUP2 MSTORE PUSH1 0x0 PUSH2 0x78B PUSH1 0x20 DUP4 ADD DUP5 PUSH2 0x1C4B JUMP JUMPDEST PUSH1 0x0 DUP1 PUSH1 0x40 DUP4 DUP6 SUB SLT ISZERO PUSH2 0x1C9D JUMPI PUSH1 0x0 DUP1 REVERT JUMPDEST PUSH2 0x1CA6 DUP4 PUSH2 0x1BF0 JUMP JUMPDEST SWAP5 PUSH1 0x20 SWAP4 SWAP1 SWAP4 ADD CALLDATALOAD SWAP4 POP POP POP JUMP JUMPDEST PUSH1 0x0 DUP1 PUSH1 0x0 PUSH1 0x60 DUP5 DUP7 SUB SLT ISZERO PUSH2 0x1CC9 JUMPI PUSH1 0x0 DUP1 REVERT JUMPDEST PUSH2 0x1CD2 DUP5 PUSH2 0x1BF0 JUMP JUMPDEST SWAP3 POP PUSH2 0x1CE0 PUSH1 0x20 DUP6 ADD PUSH2 0x1BF0 JUMP JUMPDEST SWAP3 SWAP6 SWAP3 SWAP5 POP POP POP PUSH1 0x40 SWAP2 SWAP1 SWAP2 ADD CALLDATALOAD SWAP1 JUMP JUMPDEST PUSH1 0x0 DUP1 PUSH1 0x0 PUSH1 0x60 DUP5 DUP7 SUB SLT ISZERO PUSH2 0x1D06 JUMPI PUSH1 0x0 DUP1 REVERT JUMPDEST PUSH2 0x1D0F DUP5 PUSH2 0x1BF0 JUMP JUMPDEST SWAP6 PUSH1 0x20 DUP6 ADD CALLDATALOAD SWAP6 POP PUSH1 0x40 SWAP1 SWAP5 ADD CALLDATALOAD SWAP4 SWAP3 POP POP POP JUMP JUMPDEST PUSH1 0x0 PUSH1 0x20 DUP3 DUP5 SUB SLT ISZERO PUSH2 0x1D36 JUMPI PUSH1 0x0 DUP1 REVERT JUMPDEST POP CALLDATALOAD SWAP2 SWAP1 POP JUMP JUMPDEST PUSH4 0x4E487B71 PUSH1 0xE0 SHL PUSH1 0x0 MSTORE PUSH1 0x41 PUSH1 0x4 MSTORE PUSH1 0x24 PUSH1 0x0 REVERT JUMPDEST PUSH1 0x0 DUP1 PUSH1 0x40 DUP4 DUP6 SUB SLT ISZERO PUSH2 0x1D66 JUMPI PUSH1 0x0 DUP1 REVERT JUMPDEST DUP3 CALLDATALOAD PUSH8 0xFFFFFFFFFFFFFFFF DUP2 GT ISZERO PUSH2 0x1D7D JUMPI PUSH1 0x0 DUP1 REVERT JUMPDEST DUP4 ADD PUSH1 0x1F DUP2 ADD DUP6 SGT PUSH2 0x1D8E JUMPI PUSH1 0x0 DUP1 REVERT JUMPDEST DUP1 CALLDATALOAD PUSH8 0xFFFFFFFFFFFFFFFF DUP2 GT ISZERO PUSH2 0x1DA8 JUMPI PUSH2 0x1DA8 PUSH2 0x1D3D JUMP JUMPDEST PUSH1 0x40 MLOAD PUSH1 0x1F DUP3 ADD PUSH1 0x1F NOT SWAP1 DUP2 AND PUSH1 0x3F ADD AND DUP2 ADD PUSH8 0xFFFFFFFFFFFFFFFF DUP2 GT DUP3 DUP3 LT OR ISZERO PUSH2 0x1DD7 JUMPI PUSH2 0x1DD7 PUSH2 0x1D3D JUMP JUMPDEST PUSH1 0x40 MSTORE DUP2 DUP2 MSTORE DUP3 DUP3 ADD PUSH1 0x20 ADD DUP8 LT ISZERO PUSH2 0x1DEF JUMPI PUSH1 0x0 DUP1 REVERT JUMPDEST DUP2 PUSH1 0x20 DUP5 ADD PUSH1 0x20 DUP4 ADD CALLDATACOPY PUSH1 0x0 PUSH1 0x20 DUP4 DUP4 ADD ADD MSTORE DUP1 SWAP5 POP POP POP POP PUSH2 0x1E14 PUSH1 0x20 DUP5 ADD PUSH2 0x1BF0 JUMP JUMPDEST SWAP1 POP SWAP3 POP SWAP3 SWAP1 POP JUMP JUMPDEST PUSH1 0x0 DUP1 PUSH1 0x40 DUP4 DUP6 SUB SLT ISZERO PUSH2 0x1E30 JUMPI PUSH1 0x0 DUP1 REVERT JUMPDEST PUSH2 0x1E39 DUP4 PUSH2 0x1BF0 JUMP JUMPDEST SWAP2 POP PUSH2 0x1E14 PUSH1 0x20 DUP5 ADD PUSH2 0x1BF0 JUMP JUMPDEST PUSH1 0x1 DUP2 DUP2 SHR SWAP1 DUP3 AND DUP1 PUSH2 0x1E5B JUMPI PUSH1 0x7F DUP3 AND SWAP2 POP JUMPDEST PUSH1 0x20 DUP3 LT DUP2 SUB PUSH2 0x1E7B JUMPI PUSH4 0x4E487B71 PUSH1 0xE0 SHL PUSH1 0x0 MSTORE PUSH1 0x22 PUSH1 0x4 MSTORE PUSH1 0x24 PUSH1 0x0 REVERT JUMPDEST POP SWAP2 SWAP1 POP JUMP JUMPDEST PUSH1 0x20 DUP1 DUP3 MSTORE PUSH1 0x11 SWAP1 DUP3 ADD MSTORE PUSH17 0x125B9D985B1A59081C9958DA5C1A595B9D PUSH1 0x7A SHL PUSH1 0x40 DUP3 ADD MSTORE PUSH1 0x60 ADD SWAP1 JUMP JUMPDEST PUSH1 0x20 DUP1 DUP3 MSTORE PUSH1 0xE SWAP1 DUP3 ADD MSTORE PUSH14 0x125B9D985B1A5908185B5BDD5B9D PUSH1 0x92 SHL PUSH1 0x40 DUP3 ADD MSTORE PUSH1 0x60 ADD SWAP1 JUMP JUMPDEST PUSH4 0x4E487B71 PUSH1 0xE0 SHL PUSH1 0x0 MSTORE PUSH1 0x11 PUSH1 0x4 MSTORE PUSH1 0x24 PUSH1 0x0 REVERT JUMPDEST DUP1 DUP3 MUL DUP2 ISZERO DUP3 DUP3 DIV DUP5 EQ OR PUSH2 0x766 JUMPI PUSH2 0x766 PUSH2 0x1ED4 JUMP JUMPDEST PUSH1 0x0 DUP3 PUSH2 0x1F1E JUMPI PUSH4 0x4E487B71 PUSH1 0xE0 SHL PUSH1 0x0 MSTORE PUSH1 0x12 PUSH1 0x4 MSTORE PUSH1 0x24 PUSH1 0x0 REVERT JUMPDEST POP DIV SWAP1 JUMP JUMPDEST PUSH1 0x0 DUP3 MLOAD PUSH2 0x1F35 DUP2 DUP5 PUSH1 0x20 DUP8 ADD PUSH2 0x1C27 JUMP JUMPDEST SWAP2 SWAP1 SWAP2 ADD SWAP3 SWAP2 POP POP JUMP JUMPDEST PUSH1 0x20 DUP1 DUP3 MSTORE PUSH1 0x13 SWAP1 DUP3 ADD MSTORE PUSH19 0x53616D652077616C6C65742061646472657373 PUSH1 0x68 SHL PUSH1 0x40 DUP3 ADD MSTORE PUSH1 0x60 ADD SWAP1 JUMP JUMPDEST PUSH1 0x40 DUP2 MSTORE PUSH1 0x0 PUSH2 0x1F7F PUSH1 0x40 DUP4 ADD DUP6 PUSH2 0x1C4B JUMP JUMPDEST SWAP1 POP PUSH1 0x1 DUP1 PUSH1 0xA0 SHL SUB DUP4 AND PUSH1 0x20 DUP4 ADD MSTORE SWAP4 SWAP3 POP POP POP JUMP JUMPDEST PUSH1 0x0 PUSH1 0x20 DUP3 DUP5 SUB SLT ISZERO PUSH2 0x1FA8 JUMPI PUSH1 0x0 DUP1 REVERT JUMPDEST POP MLOAD SWAP2 SWAP1 POP JUMP JUMPDEST PUSH1 0x0 PUSH1 0x20 DUP3 DUP5 SUB SLT ISZERO PUSH2 0x1FC1 JUMPI PUSH1 0x0 DUP1 REVERT JUMPDEST DUP2 MLOAD DUP1 ISZERO ISZERO DUP2 EQ PUSH2 0x78B JUMPI PUSH1 0x0 DUP1 REVERT JUMPDEST DUP2 DUP2 SUB DUP2 DUP2 GT ISZERO PUSH2 0x766 JUMPI PUSH2 0x766 PUSH2 0x1ED4 JUMP JUMPDEST DUP1 DUP3 ADD DUP1 DUP3 GT ISZERO PUSH2 0x766 JUMPI PUSH2 0x766 PUSH2 0x1ED4 JUMP INVALID LOG2 PUSH5 0x6970667358 0x22 SLT KECCAK256 CALL DUP5 0xE9 DUP14 0x2F CODESIZE SWAP4 PUSH21 0xB4BAD94C2D07ACCF52FB3A7D3F3BB13ACD4D85349F SWAP4 RETURN GASPRICE PUSH5 0x736F6C6343 STOP ADDMOD SHR STOP CALLER "
		},
		"gasEstimates": {
			"creation": {
				"codeDepositCost": "1647400",
				"executionCost": "infinite",
				"totalCost": "infinite"
			},
			"external": {
				"COMMUNITY_ALLOCATION()": "464",
				"ECOSYSTEM_ALLOCATION()": "398",
				"LIQUIDITY_ALLOCATION()": "485",
				"RESERVE_ALLOCATION()": "421",
				"TOTAL_SUPPLY()": "324",
				"TREASURY_ALLOCATION()": "398",
				"VESTING_PERIOD()": "231",
				"allowance(address,address)": "infinite",
				"approve(address,uint256)": "24829",
				"balanceOf(address)": "2674",
				"burn(uint256)": "100987",
				"communityWallet()": "2426",
				"decimals()": "289",
				"ecosystemWallet()": "2449",
				"emergencyRecoverTokens(address,address)": "infinite",
				"getAllocations()": "infinite",
				"getReleasableVesting(address)": "infinite",
				"getTotalSupply()": "254",
				"getWallets()": "10892",
				"liquidityWallet()": "2448",
				"lockForDAO(uint256)": "infinite",
				"lockedForDAO(address)": "2598",
				"mint(address,uint256)": "infinite",
				"name()": "infinite",
				"owner()": "2443",
				"pause()": "infinite",
				"paused()": "2371",
				"releaseVesting(address)": "infinite",
				"renounceOwnership()": "infinite",
				"reserveWallet()": "2381",
				"symbol()": "infinite",
				"totalLockedForDAO()": "2329",
				"totalSupply()": "2416",
				"transfer(address,uint256)": "55407",
				"transferFrom(address,address,uint256)": "infinite",
				"transferOwnership(address)": "28446",
				"transferWithLeverage(address,uint256,uint256)": "infinite",
				"treasuryWallet()": "2482",
				"unlockFromDAO(uint256)": "infinite",
				"unpause()": "infinite",
				"updateWallet(string,address)": "infinite",
				"vestingSchedules(address)": "4812",
				"vestingStart()": "infinite"
			}
		},
		"methodIdentifiers": {
			"COMMUNITY_ALLOCATION()": "993eb1c5",
			"ECOSYSTEM_ALLOCATION()": "90534f24",
			"LIQUIDITY_ALLOCATION()": "f9428f38",
			"RESERVE_ALLOCATION()": "7b5c7f03",
			"TOTAL_SUPPLY()": "902d55a5",
			"TREASURY_ALLOCATION()": "bf1ad7e0",
			"VESTING_PERIOD()": "0197d972",
			"allowance(address,address)": "dd62ed3e",
			"approve(address,uint256)": "095ea7b3",
			"balanceOf(address)": "70a08231",
			"burn(uint256)": "42966c68",
			"communityWallet()": "c7574839",
			"decimals()": "313ce567",
			"ecosystemWallet()": "435263ef",
			"emergencyRecoverTokens(address,address)": "b7e26a2e",
			"getAllocations()": "65ed6e23",
			"getReleasableVesting(address)": "0553be1e",
			"getTotalSupply()": "c4e41b22",
			"getWallets()": "db7a4605",
			"liquidityWallet()": "d4698016",
			"lockForDAO(uint256)": "9576a374",
			"lockedForDAO(address)": "2af44592",
			"mint(address,uint256)": "40c10f19",
			"name()": "06fdde03",
			"owner()": "8da5cb5b",
			"pause()": "8456cb59",
			"paused()": "5c975abb",
			"releaseVesting(address)": "d486d129",
			"renounceOwnership()": "715018a6",
			"reserveWallet()": "d72b11bd",
			"symbol()": "95d89b41",
			"totalLockedForDAO()": "4a0ced96",
			"totalSupply()": "18160ddd",
			"transfer(address,uint256)": "a9059cbb",
			"transferFrom(address,address,uint256)": "23b872dd",
			"transferOwnership(address)": "f2fde38b",
			"transferWithLeverage(address,uint256,uint256)": "33127b0d",
			"treasuryWallet()": "4626402b",
			"unlockFromDAO(uint256)": "74300378",
			"unpause()": "3f4ba83a",
			"updateWallet(string,address)": "780b9737",
			"vestingSchedules(address)": "fdb20ccb",
			"vestingStart()": "254800d4"
		}
	},
	"abi": [
		{
			"inputs": [
				{
					"internalType": "address",
					"name": "_treasuryWallet",
					"type": "address"
				},
				{
					"internalType": "address",
					"name": "_ecosystemWallet",
					"type": "address"
				},
				{
					"internalType": "address",
					"name": "_communityWallet",
					"type": "address"
				},
				{
					"internalType": "address",
					"name": "_liquidityWallet",
					"type": "address"
				},
				{
					"internalType": "address",
					"name": "_reserveWallet",
					"type": "address"
				},
				{
					"internalType": "address",
					"name": "initialOwner",
					"type": "address"
				}
			],
			"stateMutability": "nonpayable",
			"type": "constructor"
		},
		{
			"inputs": [
				{
					"internalType": "address",
					"name": "spender",
					"type": "address"
				},
				{
					"internalType": "uint256",
					"name": "allowance",
					"type": "uint256"
				},
				{
					"internalType": "uint256",
					"name": "needed",
					"type": "uint256"
				}
			],
			"name": "ERC20InsufficientAllowance",
			"type": "error"
		},
		{
			"inputs": [
				{
					"internalType": "address",
					"name": "sender",
					"type": "address"
				},
				{
					"internalType": "uint256",
					"name": "balance",
					"type": "uint256"
				},
				{
					"internalType": "uint256",
					"name": "needed",
					"type": "uint256"
				}
			],
			"name": "ERC20InsufficientBalance",
			"type": "error"
		},
		{
			"inputs": [
				{
					"internalType": "address",
					"name": "approver",
					"type": "address"
				}
			],
			"name": "ERC20InvalidApprover",
			"type": "error"
		},
		{
			"inputs": [
				{
					"internalType": "address",
					"name": "receiver",
					"type": "address"
				}
			],
			"name": "ERC20InvalidReceiver",
			"type": "error"
		},
		{
			"inputs": [
				{
					"internalType": "address",
					"name": "sender",
					"type": "address"
				}
			],
			"name": "ERC20InvalidSender",
			"type": "error"
		},
		{
			"inputs": [
				{
					"internalType": "address",
					"name": "spender",
					"type": "address"
				}
			],
			"name": "ERC20InvalidSpender",
			"type": "error"
		},
		{
			"inputs": [
				{
					"internalType": "address",
					"name": "owner",
					"type": "address"
				}
			],
			"name": "OwnableInvalidOwner",
			"type": "error"
		},
		{
			"inputs": [
				{
					"internalType": "address",
					"name": "account",
					"type": "address"
				}
			],
			"name": "OwnableUnauthorizedAccount",
			"type": "error"
		},
		{
			"anonymous": false,
			"inputs": [
				{
					"indexed": true,
					"internalType": "address",
					"name": "owner",
					"type": "address"
				},
				{
					"indexed": true,
					"internalType": "address",
					"name": "spender",
					"type": "address"
				},
				{
					"indexed": false,
					"internalType": "uint256",
					"name": "value",
					"type": "uint256"
				}
			],
			"name": "Approval",
			"type": "event"
		},
		{
			"anonymous": false,
			"inputs": [
				{
					"indexed": true,
					"internalType": "address",
					"name": "token",
					"type": "address"
				},
				{
					"indexed": true,
					"internalType": "address",
					"name": "to",
					"type": "address"
				},
				{
					"indexed": false,
					"internalType": "uint256",
					"name": "amount",
					"type": "uint256"
				}
			],
			"name": "EmergencyRecovery",
			"type": "event"
		},
		{
			"anonymous": false,
			"inputs": [
				{
					"indexed": true,
					"internalType": "address",
					"name": "from",
					"type": "address"
				},
				{
					"indexed": true,
					"internalType": "address",
					"name": "to",
					"type": "address"
				},
				{
					"indexed": false,
					"internalType": "uint256",
					"name": "amount",
					"type": "uint256"
				},
				{
					"indexed": false,
					"internalType": "uint256",
					"name": "leverage",
					"type": "uint256"
				}
			],
			"name": "LeveragedTransfer",
			"type": "event"
		},
		{
			"anonymous": false,
			"inputs": [
				{
					"indexed": true,
					"internalType": "address",
					"name": "previousOwner",
					"type": "address"
				},
				{
					"indexed": true,
					"internalType": "address",
					"name": "newOwner",
					"type": "address"
				}
			],
			"name": "OwnershipTransferred",
			"type": "event"
		},
		{
			"anonymous": false,
			"inputs": [
				{
					"indexed": false,
					"internalType": "address",
					"name": "account",
					"type": "address"
				}
			],
			"name": "Paused",
			"type": "event"
		},
		{
			"anonymous": false,
			"inputs": [
				{
					"indexed": true,
					"internalType": "address",
					"name": "from",
					"type": "address"
				},
				{
					"indexed": true,
					"internalType": "address",
					"name": "to",
					"type": "address"
				},
				{
					"indexed": false,
					"internalType": "uint256",
					"name": "amount",
					"type": "uint256"
				}
			],
			"name": "QuantumTransfer",
			"type": "event"
		},
		{
			"anonymous": false,
			"inputs": [
				{
					"indexed": true,
					"internalType": "address",
					"name": "account",
					"type": "address"
				},
				{
					"indexed": false,
					"internalType": "uint256",
					"name": "amount",
					"type": "uint256"
				}
			],
			"name": "TokensBurned",
			"type": "event"
		},
		{
			"anonymous": false,
			"inputs": [
				{
					"indexed": true,
					"internalType": "address",
					"name": "account",
					"type": "address"
				},
				{
					"indexed": false,
					"internalType": "uint256",
					"name": "amount",
					"type": "uint256"
				}
			],
			"name": "TokensLockedForDAO",
			"type": "event"
		},
		{
			"anonymous": false,
			"inputs": [
				{
					"indexed": true,
					"internalType": "address",
					"name": "account",
					"type": "address"
				},
				{
					"indexed": false,
					"internalType": "uint256",
					"name": "amount",
					"type": "uint256"
				}
			],
			"name": "TokensUnlockedForDAO",
			"type": "event"
		},
		{
			"anonymous": false,
			"inputs": [
				{
					"indexed": true,
					"internalType": "address",
					"name": "from",
					"type": "address"
				},
				{
					"indexed": true,
					"internalType": "address",
					"name": "to",
					"type": "address"
				},
				{
					"indexed": false,
					"internalType": "uint256",
					"name": "value",
					"type": "uint256"
				}
			],
			"name": "Transfer",
			"type": "event"
		},
		{
			"anonymous": false,
			"inputs": [
				{
					"indexed": false,
					"internalType": "address",
					"name": "account",
					"type": "address"
				}
			],
			"name": "Unpaused",
			"type": "event"
		},
		{
			"anonymous": false,
			"inputs": [
				{
					"indexed": true,
					"internalType": "address",
					"name": "wallet",
					"type": "address"
				},
				{
					"indexed": false,
					"internalType": "uint256",
					"name": "amount",
					"type": "uint256"
				}
			],
			"name": "VestingReleased",
			"type": "event"
		},
		{
			"anonymous": false,
			"inputs": [
				{
					"indexed": false,
					"internalType": "string",
					"name": "walletType",
					"type": "string"
				},
				{
					"indexed": false,
					"internalType": "address",
					"name": "newWallet",
					"type": "address"
				}
			],
			"name": "WalletUpdated",
			"type": "event"
		},
		{
			"inputs": [],
			"name": "COMMUNITY_ALLOCATION",
			"outputs": [
				{
					"internalType": "uint256",
					"name": "",
					"type": "uint256"
				}
			],
			"stateMutability": "view",
			"type": "function"
		},
		{
			"inputs": [],
			"name": "ECOSYSTEM_ALLOCATION",
			"outputs": [
				{
					"internalType": "uint256",
					"name": "",
					"type": "uint256"
				}
			],
			"stateMutability": "view",
			"type": "function"
		},
		{
			"inputs": [],
			"name": "LIQUIDITY_ALLOCATION",
			"outputs": [
				{
					"internalType": "uint256",
					"name": "",
					"type": "uint256"
				}
			],
			"stateMutability": "view",
			"type": "function"
		},
		{
			"inputs": [],
			"name": "RESERVE_ALLOCATION",
			"outputs": [
				{
					"internalType": "uint256",
					"name": "",
					"type": "uint256"
				}
			],
			"stateMutability": "view",
			"type": "function"
		},
		{
			"inputs": [],
			"name": "TOTAL_SUPPLY",
			"outputs": [
				{
					"internalType": "uint256",
					"name": "",
					"type": "uint256"
				}
			],
			"stateMutability": "view",
			"type": "function"
		},
		{
			"inputs": [],
			"name": "TREASURY_ALLOCATION",
			"outputs": [
				{
					"internalType": "uint256",
					"name": "",
					"type": "uint256"
				}
			],
			"stateMutability": "view",
			"type": "function"
		},
		{
			"inputs": [],
			"name": "VESTING_PERIOD",
			"outputs": [
				{
					"internalType": "uint256",
					"name": "",
					"type": "uint256"
				}
			],
			"stateMutability": "view",
			"type": "function"
		},
		{
			"inputs": [
				{
					"internalType": "address",
					"name": "owner",
					"type": "address"
				},
				{
					"internalType": "address",
					"name": "spender",
					"type": "address"
				}
			],
			"name": "allowance",
			"outputs": [
				{
					"internalType": "uint256",
					"name": "",
					"type": "uint256"
				}
			],
			"stateMutability": "view",
			"type": "function"
		},
		{
			"inputs": [
				{
					"internalType": "address",
					"name": "spender",
					"type": "address"
				},
				{
					"internalType": "uint256",
					"name": "value",
					"type": "uint256"
				}
			],
			"name": "approve",
			"outputs": [
				{
					"internalType": "bool",
					"name": "",
					"type": "bool"
				}
			],
			"stateMutability": "nonpayable",
			"type": "function"
		},
		{
			"inputs": [
				{
					"internalType": "address",
					"name": "account",
					"type": "address"
				}
			],
			"name": "balanceOf",
			"outputs": [
				{
					"internalType": "uint256",
					"name": "",
					"type": "uint256"
				}
			],
			"stateMutability": "view",
			"type": "function"
		},
		{
			"inputs": [
				{
					"internalType": "uint256",
					"name": "amount",
					"type": "uint256"
				}
			],
			"name": "burn",
			"outputs": [],
			"stateMutability": "nonpayable",
			"type": "function"
		},
		{
			"inputs": [],
			"name": "communityWallet",
			"outputs": [
				{
					"internalType": "address",
					"name": "",
					"type": "address"
				}
			],
			"stateMutability": "view",
			"type": "function"
		},
		{
			"inputs": [],
			"name": "decimals",
			"outputs": [
				{
					"internalType": "uint8",
					"name": "",
					"type": "uint8"
				}
			],
			"stateMutability": "view",
			"type": "function"
		},
		{
			"inputs": [],
			"name": "ecosystemWallet",
			"outputs": [
				{
					"internalType": "address",
					"name": "",
					"type": "address"
				}
			],
			"stateMutability": "view",
			"type": "function"
		},
		{
			"inputs": [
				{
					"internalType": "address",
					"name": "token",
					"type": "address"
				},
				{
					"internalType": "address",
					"name": "to",
					"type": "address"
				}
			],
			"name": "emergencyRecoverTokens",
			"outputs": [],
			"stateMutability": "nonpayable",
			"type": "function"
		},
		{
			"inputs": [],
			"name": "getAllocations",
			"outputs": [
				{
					"internalType": "uint256",
					"name": "treasury",
					"type": "uint256"
				},
				{
					"internalType": "uint256",
					"name": "ecosystem",
					"type": "uint256"
				},
				{
					"internalType": "uint256",
					"name": "community",
					"type": "uint256"
				},
				{
					"internalType": "uint256",
					"name": "liquidity",
					"type": "uint256"
				},
				{
					"internalType": "uint256",
					"name": "reserve",
					"type": "uint256"
				}
			],
			"stateMutability": "pure",
			"type": "function"
		},
		{
			"inputs": [
				{
					"internalType": "address",
					"name": "wallet",
					"type": "address"
				}
			],
			"name": "getReleasableVesting",
			"outputs": [
				{
					"internalType": "uint256",
					"name": "",
					"type": "uint256"
				}
			],
			"stateMutability": "view",
			"type": "function"
		},
		{
			"inputs": [],
			"name": "getTotalSupply",
			"outputs": [
				{
					"internalType": "uint256",
					"name": "",
					"type": "uint256"
				}
			],
			"stateMutability": "pure",
			"type": "function"
		},
		{
			"inputs": [],
			"name": "getWallets",
			"outputs": [
				{
					"internalType": "address",
					"name": "treasury",
					"type": "address"
				},
				{
					"internalType": "address",
					"name": "ecosystem",
					"type": "address"
				},
				{
					"internalType": "address",
					"name": "community",
					"type": "address"
				},
				{
					"internalType": "address",
					"name": "liquidity",
					"type": "address"
				},
				{
					"internalType": "address",
					"name": "reserve",
					"type": "address"
				}
			],
			"stateMutability": "view",
			"type": "function"
		},
		{
			"inputs": [],
			"name": "liquidityWallet",
			"outputs": [
				{
					"internalType": "address",
					"name": "",
					"type": "address"
				}
			],
			"stateMutability": "view",
			"type": "function"
		},
		{
			"inputs": [
				{
					"internalType": "uint256",
					"name": "amount",
					"type": "uint256"
				}
			],
			"name": "lockForDAO",
			"outputs": [],
			"stateMutability": "nonpayable",
			"type": "function"
		},
		{
			"inputs": [
				{
					"internalType": "address",
					"name": "",
					"type": "address"
				}
			],
			"name": "lockedForDAO",
			"outputs": [
				{
					"internalType": "uint256",
					"name": "",
					"type": "uint256"
				}
			],
			"stateMutability": "view",
			"type": "function"
		},
		{
			"inputs": [
				{
					"internalType": "address",
					"name": "to",
					"type": "address"
				},
				{
					"internalType": "uint256",
					"name": "amount",
					"type": "uint256"
				}
			],
			"name": "mint",
			"outputs": [],
			"stateMutability": "nonpayable",
			"type": "function"
		},
		{
			"inputs": [],
			"name": "name",
			"outputs": [
				{
					"internalType": "string",
					"name": "",
					"type": "string"
				}
			],
			"stateMutability": "view",
			"type": "function"
		},
		{
			"inputs": [],
			"name": "owner",
			"outputs": [
				{
					"internalType": "address",
					"name": "",
					"type": "address"
				}
			],
			"stateMutability": "view",
			"type": "function"
		},
		{
			"inputs": [],
			"name": "pause",
			"outputs": [],
			"stateMutability": "nonpayable",
			"type": "function"
		},
		{
			"inputs": [],
			"name": "paused",
			"outputs": [
				{
					"internalType": "bool",
					"name": "",
					"type": "bool"
				}
			],
			"stateMutability": "view",
			"type": "function"
		},
		{
			"inputs": [
				{
					"internalType": "address",
					"name": "wallet",
					"type": "address"
				}
			],
			"name": "releaseVesting",
			"outputs": [],
			"stateMutability": "nonpayable",
			"type": "function"
		},
		{
			"inputs": [],
			"name": "renounceOwnership",
			"outputs": [],
			"stateMutability": "nonpayable",
			"type": "function"
		},
		{
			"inputs": [],
			"name": "reserveWallet",
			"outputs": [
				{
					"internalType": "address",
					"name": "",
					"type": "address"
				}
			],
			"stateMutability": "view",
			"type": "function"
		},
		{
			"inputs": [],
			"name": "symbol",
			"outputs": [
				{
					"internalType": "string",
					"name": "",
					"type": "string"
				}
			],
			"stateMutability": "view",
			"type": "function"
		},
		{
			"inputs": [],
			"name": "totalLockedForDAO",
			"outputs": [
				{
					"internalType": "uint256",
					"name": "",
					"type": "uint256"
				}
			],
			"stateMutability": "view",
			"type": "function"
		},
		{
			"inputs": [],
			"name": "totalSupply",
			"outputs": [
				{
					"internalType": "uint256",
					"name": "",
					"type": "uint256"
				}
			],
			"stateMutability": "view",
			"type": "function"
		},
		{
			"inputs": [
				{
					"internalType": "address",
					"name": "to",
					"type": "address"
				},
				{
					"internalType": "uint256",
					"name": "amount",
					"type": "uint256"
				}
			],
			"name": "transfer",
			"outputs": [
				{
					"internalType": "bool",
					"name": "",
					"type": "bool"
				}
			],
			"stateMutability": "nonpayable",
			"type": "function"
		},
		{
			"inputs": [
				{
					"internalType": "address",
					"name": "from",
					"type": "address"
				},
				{
					"internalType": "address",
					"name": "to",
					"type": "address"
				},
				{
					"internalType": "uint256",
					"name": "value",
					"type": "uint256"
				}
			],
			"name": "transferFrom",
			"outputs": [
				{
					"internalType": "bool",
					"name": "",
					"type": "bool"
				}
			],
			"stateMutability": "nonpayable",
			"type": "function"
		},
		{
			"inputs": [
				{
					"internalType": "address",
					"name": "newOwner",
					"type": "address"
				}
			],
			"name": "transferOwnership",
			"outputs": [],
			"stateMutability": "nonpayable",
			"type": "function"
		},
		{
			"inputs": [
				{
					"internalType": "address",
					"name": "to",
					"type": "address"
				},
				{
					"internalType": "uint256",
					"name": "amount",
					"type": "uint256"
				},
				{
					"internalType": "uint256",
					"name": "leverage",
					"type": "uint256"
				}
			],
			"name": "transferWithLeverage",
			"outputs": [
				{
					"internalType": "bool",
					"name": "",
					"type": "bool"
				}
			],
			"stateMutability": "nonpayable",
			"type": "function"
		},
		{
			"inputs": [],
			"name": "treasuryWallet",
			"outputs": [
				{
					"internalType": "address",
					"name": "",
					"type": "address"
				}
			],
			"stateMutability": "view",
			"type": "function"
		},
		{
			"inputs": [
				{
					"internalType": "uint256",
					"name": "amount",
					"type": "uint256"
				}
			],
			"name": "unlockFromDAO",
			"outputs": [],
			"stateMutability": "nonpayable",
			"type": "function"
		},
		{
			"inputs": [],
			"name": "unpause",
			"outputs": [],
			"stateMutability": "nonpayable",
			"type": "function"
		},
		{
			"inputs": [
				{
					"internalType": "string",
					"name": "walletType",
					"type": "string"
				},
				{
					"internalType": "address",
					"name": "newWallet",
					"type": "address"
				}
			],
			"name": "updateWallet",
			"outputs": [],
			"stateMutability": "nonpayable",
			"type": "function"
		},
		{
			"inputs": [
				{
					"internalType": "address",
					"name": "",
					"type": "address"
				}
			],
			"name": "vestingSchedules",
			"outputs": [
				{
					"internalType": "uint256",
					"name": "totalAmount",
					"type": "uint256"
				},
				{
					"internalType": "uint256",
					"name": "releasedAmount",
					"type": "uint256"
				}
			],
			"stateMutability": "view",
			"type": "function"
		},
		{
			"inputs": [],
			"name": "vestingStart",
			"outputs": [
				{
					"internalType": "uint256",
					"name": "",
					"type": "uint256"
				}
			],
			"stateMutability": "view",
			"type": "function"
		}
	]
}