{
	"data": {
		"bytecode": {
			"linkReferences": {},
			"object": "610140604052600480546001600160501b03191666010003000186a017905534801561002a57600080fd5b506040516118823803806118828339810160408190526100499161022b565b83816001600160a01b03811661007a57604051631e4fbdf760e01b8152600060048201526024015b60405180910390fd5b610083816101bf565b506001600160a01b0390811660805286166100e05760405162461bcd60e51b815260206004820152601560248201527f496e76616c696420746f6b656e206164647265737300000000000000000000006044820152606401610071565b6001600160a01b0385166101365760405162461bcd60e51b815260206004820152601660248201527f496e76616c6964206f7261636c652061646472657373000000000000000000006044820152606401610071565b6001600160a01b03841661018c5760405162461bcd60e51b815260206004820152601f60248201527f496e76616c69642056524620636f6f7264696e61746f722061646472657373006044820152606401610071565b506001600160a01b0394851660a05292841660c052921660e052610100919091526001600160401b0316610120526102a7565b600080546001600160a01b038381166001600160a01b0319831681178455604051919092169283917f8be0079c531659141344cd1fd0a4f28419497f9722a3daafe3b4186f6b6457e09190a35050565b80516001600160a01b038116811461022657600080fd5b919050565b60008060008060008060c0878903121561024457600080fd5b61024d8761020f565b955061025b6020880161020f565b94506102696040880161020f565b6060880151608089015191955093506001600160401b038116811461028d57600080fd5b915061029b60a0880161020f565b90509295509295509295565b60805160a05160c05160e051610100516101205161154661033c6000396000818161020b0152610fdc0152600081816103890152610fab01526000818161031801526110350152600081816103d201526111e70152600081816104140152818161063f015281816107f60152818161096201528181610ac90152610b700152600081816104fc015261053e01526115466000f3fe608060405234801561001057600080fd5b50600436106101e55760003560e01c806389ac41471161010f578063b8ed3aad116100a2578063cb8b97f511610071578063cb8b97f5146104b9578063d82e3962146104c2578063ec18154e146104d5578063f2fde38b146104de57600080fd5b8063b8ed3aad14610482578063b94790a41461048a578063bae4e5301461049d578063c75a0715146104b057600080fd5b8063a694fc3a116100de578063a694fc3a14610436578063b0fb162f14610449578063b26025aa14610472578063b88a802f1461047a57600080fd5b806389ac4147146103f45780638da5cb5b146103fe57806393565b4c1461040f5780639da378ab1461037b57600080fd5b80633a02a42d1161018757806361728f391161015657806361728f3914610384578063715018a6146103ab5780637ccfd7fc146103b35780637dc0d1d0146103cd57600080fd5b80633a02a42d146103005780633b2bcbf1146103135780633e2f7eb5146103525780634ca19fd61461037b57600080fd5b80631fe543e3116101c35780631fe543e3146102aa57806324f74697146102bf57806327779748146102e45780632e1a7d4d146102ed57600080fd5b806307b2d32f146101ea57806309c1ba2e1461020657806316934fc414610246575b600080fd5b6101f361032081565b6040519081526020015b60405180910390f35b61022d7f000000000000000000000000000000000000000000000000000000000000000081565b60405167ffffffffffffffff90911681526020016101fd565b61028261025436600461128b565b6001602081905260009182526040909120805491810154600282015460038301546004909301549192909185565b604080519586526020860194909452928401919091526060830152608082015260a0016101fd565b6102bd6102b83660046112ca565b6104f1565b005b6004546102cf9063ffffffff1681565b60405163ffffffff90911681526020016101fd565b6101f36104b081565b6102bd6102fb3660046113a3565b61057e565b6101f361030e36600461128b565b610709565b61033a7f000000000000000000000000000000000000000000000000000000000000000081565b6040516001600160a01b0390911681526020016101fd565b61033a6103603660046113a3565b6003602052600090815260409020546001600160a01b031681565b6101f36103e881565b6101f37f000000000000000000000000000000000000000000000000000000000000000081565b6102bd610739565b6004546102cf906601000000000000900463ffffffff1681565b61033a7f000000000000000000000000000000000000000000000000000000000000000081565b6101f362278d0081565b6000546001600160a01b031661033a565b61033a7f000000000000000000000000000000000000000000000000000000000000000081565b6102bd6104443660046113a3565b61074d565b60045461045f90640100000000900461ffff1681565b60405161ffff90911681526020016101fd565b6002546101f3565b6102bd6108c8565b6101f360c881565b6102bd6104983660046113a3565b610a1d565b6102bd6104ab3660046113bc565b610c15565b6101f361064081565b6101f361057881565b6101f36104d036600461128b565b610c4a565b6101f360025481565b6102bd6104ec36600461128b565b610cb4565b336001600160a01b037f000000000000000000000000000000000000000000000000000000000000000016146105705760405163073e64fd60e21b81523360048201526001600160a01b037f00000000000000000000000000000000000000000000000000000000000000001660248201526044015b60405180910390fd5b61057a8282610cc8565b5050565b61058733610e5f565b336000908152600160205260409020548111156105e65760405162461bcd60e51b815260206004820152601a60248201527f496e73756666696369656e74207374616b656420616d6f756e740000000000006044820152606401610567565b336000908152600160205260408120805483929061060590849061141b565b92505081905550806002600082825461061e919061141b565b909155505060405163a9059cbb60e01b8152336004820152602481018290527f00000000000000000000000000000000000000000000000000000000000000006001600160a01b03169063a9059cbb906044016020604051808303816000875af1158015610690573d6000803e3d6000fd5b505050506040513d601f19601f820116820180604052508101906106b4919061142e565b6106d05760405162461bcd60e51b815260040161056790611450565b60405181815233907f7084f5476618d8e60b11ef0d7d3f06914655adb8793e28ff7f018d4c76d505d5906020015b60405180910390a250565b6001600160a01b038116600090815260016020819052604082209081015490546107339190611479565b92915050565b610741610eeb565b61074b6000610f18565b565b6000811161078e5760405162461bcd60e51b815260206004820152600e60248201526d125b9d985b1a5908185b5bdd5b9d60921b6044820152606401610567565b61079733610e5f565b33600090815260016020526040812080548392906107b6908490611479565b9250508190555080600260008282546107cf9190611479565b90915550506040516323b872dd60e01b8152336004820152306024820152604481018290527f00000000000000000000000000000000000000000000000000000000000000006001600160a01b0316906323b872dd906064016020604051808303816000875af1158015610847573d6000803e3d6000fd5b505050506040513d601f19601f8201168201806040525081019061086b919061142e565b6108875760405162461bcd60e51b815260040161056790611450565b61089033610f68565b604080518281526000602082015233917f37d4053e34fde482e96f6bcd424dfa31342cbd5fe184d497fb3c8bb4b4b9758091016106fe565b6108d133610e5f565b33600090815260016020526040902060030154806109275760405162461bcd60e51b81526020600482015260136024820152724e6f207265776172647320746f20636c61696d60681b6044820152606401610567565b33600081815260016020526040808220600301919091555163a9059cbb60e01b81526004810191909152602481018290526001600160a01b037f0000000000000000000000000000000000000000000000000000000000000000169063a9059cbb906044016020604051808303816000875af11580156109ab573d6000803e3d6000fd5b505050506040513d601f19601f820116820180604052508101906109cf919061142e565b6109eb5760405162461bcd60e51b815260040161056790611450565b60405181815233907f106f923f993c2149d49b4255ff723acafa1f2d94393f561d3eda32ae348f7241906020016106fe565b60008111610a5e5760405162461bcd60e51b815260206004820152600e60248201526d125b9d985b1a5908185b5bdd5b9d60921b6044820152606401610567565b610a6733610e5f565b3360009081526001602081905260408220018054839290610a89908490611479565b925050819055508060026000828254610aa29190611479565b90915550506040516323b872dd60e01b8152336004820152306024820152604481018290527f00000000000000000000000000000000000000000000000000000000000000006001600160a01b0316906323b872dd906064016020604051808303816000875af1158015610b1a573d6000803e3d6000fd5b505050506040513d601f19601f82011682018060405250810190610b3e919061142e565b610b5a5760405162461bcd60e51b815260040161056790611450565b60405163255da8dd60e21b8152600481018290527f00000000000000000000000000000000000000000000000000000000000000006001600160a01b031690639576a37490602401600060405180830381600087803b158015610bbc57600080fd5b505af1158015610bd0573d6000803e3d6000fd5b50505050610bdd33610f68565b604080518281526001602082015233917f37d4053e34fde482e96f6bcd424dfa31342cbd5fe184d497fb3c8bb4b4b9758091016106fe565b610c1d610eeb565b6004805461ffff9092166401000000000265ffffffffffff1990921663ffffffff90931692909217179055565b6001600160a01b0381166000908152600160205260408120805460048201548391610c7791869190611111565b90506000610c8e8584600101548560040154611111565b905080828460030154610ca19190611479565b610cab9190611479565b95945050505050565b610cbc610eeb565b610cc5816111a7565b50565b6000828152600360205260409020546001600160a01b031680610d225760405162461bcd60e51b8152602060048201526012602482015271125b9d985b1a59081c995c5d595cdd08125160721b6044820152606401610567565b6000606483600081518110610d3957610d3961148c565b6020026020010151610d4b91906114b8565b6001600160a01b03831660009081526001602081905260408220015491925090610d8257610d7d61032061057861141b565b610d90565b610d906103e861064061141b565b6001600160a01b03841660009081526001602081905260408220015491925090610dbc57610320610dc0565b6103e85b6064610dcc84866114cc565b610dd691906114e3565b610de09190611479565b6001600160a01b038516600081815260016020908152604080832060048101869055426002909101558a8352600382529182902080546001600160a01b0319169055905183815292935090917f95046b7fdb9bcf09cdb8b5e270934d955f51f771912290ff9a0020045195eee5910160405180910390a2505050505050565b6001600160a01b03811660009081526001602052604090208054151580610e8a575060008160010154115b1561057a576000610ea48383600001548460040154611111565b90506000610ebb8484600101548560040154611111565b9050610ec78183611479565b836003016000828254610eda9190611479565b909155505042600284015550505050565b6000546001600160a01b0316331461074b5760405163118cdaa760e01b8152336004820152602401610567565b600080546001600160a01b038381166001600160a01b0319831681178455604051919092169283917f8be0079c531659141344cd1fd0a4f28419497f9722a3daafe3b4186f6b6457e09190a35050565b6001600160a01b038116600090815260016020526040902060020154610f929062278d0090611479565b4210610cc557600480546040516305d3b1d360e41b81527f00000000000000000000000000000000000000000000000000000000000000009281019290925267ffffffffffffffff7f0000000000000000000000000000000000000000000000000000000000000000166024830152640100000000810461ffff16604483015263ffffffff808216606484015266010000000000009091041660848201526000907f00000000000000000000000000000000000000000000000000000000000000006001600160a01b031690635d3b1d309060a4016020604051808303816000875af1158015611086573d6000803e3d6000fd5b505050506040513d601f19601f820116820180604052508101906110aa91906114f7565b60008181526003602090815260409182902080546001600160a01b0319166001600160a01b038716908117909155915183815292935090917f05acec44d329e4dfea8e1a6dae4b0c46d76b2a92d3a747907a60dee7ad6809fd910160405180910390a25050565b600082600003611123575060006111a0565b600061112d6111e2565b9050600061113b8285611479565b6001600160a01b0387166000908152600160205260408120600281015492935091611166904261141b565b90506127106301e133808261117b868b6114cc565b61118591906114cc565b61118f91906114e3565b61119991906114e3565b9450505050505b9392505050565b6111af610eeb565b6001600160a01b0381166111d957604051631e4fbdf760e01b815260006004820152602401610567565b610cc581610f18565b6000807f00000000000000000000000000000000000000000000000000000000000000006001600160a01b0316638e15f4736040518163ffffffff1660e01b8152600401602060405180830381865afa158015611243573d6000803e3d6000fd5b505050506040513d601f19601f8201168201806040525081019061126791906114f7565b90506000811361127957600091505090565b611285600260c86114e3565b91505090565b60006020828403121561129d57600080fd5b81356001600160a01b03811681146111a057600080fd5b634e487b7160e01b600052604160045260246000fd5b600080604083850312156112dd57600080fd5b82359150602083013567ffffffffffffffff8111156112fb57600080fd5b8301601f8101851361130c57600080fd5b803567ffffffffffffffff811115611326576113266112b4565b8060051b604051601f19603f830116810181811067ffffffffffffffff82111715611353576113536112b4565b60405291825260208184018101929081018884111561137157600080fd5b6020850194505b8385101561139457843580825260209586019590935001611378565b50809450505050509250929050565b6000602082840312156113b557600080fd5b5035919050565b600080604083850312156113cf57600080fd5b823563ffffffff811681146113e357600080fd5b9150602083013561ffff811681146113fa57600080fd5b809150509250929050565b634e487b7160e01b600052601160045260246000fd5b8181038181111561073357610733611405565b60006020828403121561144057600080fd5b815180151581146111a057600080fd5b6020808252600f908201526e151c985b9cd9995c8819985a5b1959608a1b604082015260600190565b8082018082111561073357610733611405565b634e487b7160e01b600052603260045260246000fd5b634e487b7160e01b600052601260045260246000fd5b6000826114c7576114c76114a2565b500690565b808202811582820484141761073357610733611405565b6000826114f2576114f26114a2565b500490565b60006020828403121561150957600080fd5b505191905056fea26469706673582212208cf170318d413ce7f08fb2d1cca545f8d8b408a9fe4941209ae2c1efccd5494764736f6c634300081c0033",
			"opcodes": "PUSH2 0x140 PUSH1 0x40 MSTORE PUSH1 0x4 DUP1 SLOAD PUSH1 0x1 PUSH1 0x1 PUSH1 0x50 SHL SUB NOT AND PUSH7 0x10003000186A0 OR SWAP1 SSTORE CALLVALUE DUP1 ISZERO PUSH2 0x2A JUMPI PUSH1 0x0 DUP1 REVERT JUMPDEST POP PUSH1 0x40 MLOAD PUSH2 0x1882 CODESIZE SUB DUP1 PUSH2 0x1882 DUP4 CODECOPY DUP2 ADD PUSH1 0x40 DUP2 SWAP1 MSTORE PUSH2 0x49 SWAP2 PUSH2 0x22B JUMP JUMPDEST DUP4 DUP2 PUSH1 0x1 PUSH1 0x1 PUSH1 0xA0 SHL SUB DUP2 AND PUSH2 0x7A JUMPI PUSH1 0x40 MLOAD PUSH4 0x1E4FBDF7 PUSH1 0xE0 SHL DUP2 MSTORE PUSH1 0x0 PUSH1 0x4 DUP3 ADD MSTORE PUSH1 0x24 ADD JUMPDEST PUSH1 0x40 MLOAD DUP1 SWAP2 SUB SWAP1 REVERT JUMPDEST PUSH2 0x83 DUP2 PUSH2 0x1BF JUMP JUMPDEST POP PUSH1 0x1 PUSH1 0x1 PUSH1 0xA0 SHL SUB SWAP1 DUP2 AND PUSH1 0x80 MSTORE DUP7 AND PUSH2 0xE0 JUMPI PUSH1 0x40 MLOAD PUSH3 0x461BCD PUSH1 0xE5 SHL DUP2 MSTORE PUSH1 0x20 PUSH1 0x4 DUP3 ADD MSTORE PUSH1 0x15 PUSH1 0x24 DUP3 ADD MSTORE PUSH32 0x496E76616C696420746F6B656E20616464726573730000000000000000000000 PUSH1 0x44 DUP3 ADD MSTORE PUSH1 0x64 ADD PUSH2 0x71 JUMP JUMPDEST PUSH1 0x1 PUSH1 0x1 PUSH1 0xA0 SHL SUB DUP6 AND PUSH2 0x136 JUMPI PUSH1 0x40 MLOAD PUSH3 0x461BCD PUSH1 0xE5 SHL DUP2 MSTORE PUSH1 0x20 PUSH1 0x4 DUP3 ADD MSTORE PUSH1 0x16 PUSH1 0x24 DUP3 ADD MSTORE PUSH32 0x496E76616C6964206F7261636C65206164647265737300000000000000000000 PUSH1 0x44 DUP3 ADD MSTORE PUSH1 0x64 ADD PUSH2 0x71 JUMP JUMPDEST PUSH1 0x1 PUSH1 0x1 PUSH1 0xA0 SHL SUB DUP5 AND PUSH2 0x18C JUMPI PUSH1 0x40 MLOAD PUSH3 0x461BCD PUSH1 0xE5 SHL DUP2 MSTORE PUSH1 0x20 PUSH1 0x4 DUP3 ADD MSTORE PUSH1 0x1F PUSH1 0x24 DUP3 ADD MSTORE PUSH32 0x496E76616C69642056524620636F6F7264696E61746F72206164647265737300 PUSH1 0x44 DUP3 ADD MSTORE PUSH1 0x64 ADD PUSH2 0x71 JUMP JUMPDEST POP PUSH1 0x1 PUSH1 0x1 PUSH1 0xA0 SHL SUB SWAP5 DUP6 AND PUSH1 0xA0 MSTORE SWAP3 DUP5 AND PUSH1 0xC0 MSTORE SWAP3 AND PUSH1 0xE0 MSTORE PUSH2 0x100 SWAP2 SWAP1 SWAP2 MSTORE PUSH1 0x1 PUSH1 0x1 PUSH1 0x40 SHL SUB AND PUSH2 0x120 MSTORE PUSH2 0x2A7 JUMP JUMPDEST PUSH1 0x0 DUP1 SLOAD PUSH1 0x1 PUSH1 0x1 PUSH1 0xA0 SHL SUB DUP4 DUP2 AND PUSH1 0x1 PUSH1 0x1 PUSH1 0xA0 SHL SUB NOT DUP4 AND DUP2 OR DUP5 SSTORE PUSH1 0x40 MLOAD SWAP2 SWAP1 SWAP3 AND SWAP3 DUP4 SWAP2 PUSH32 0x8BE0079C531659141344CD1FD0A4F28419497F9722A3DAAFE3B4186F6B6457E0 SWAP2 SWAP1 LOG3 POP POP JUMP JUMPDEST DUP1 MLOAD PUSH1 0x1 PUSH1 0x1 PUSH1 0xA0 SHL SUB DUP2 AND DUP2 EQ PUSH2 0x226 JUMPI PUSH1 0x0 DUP1 REVERT JUMPDEST SWAP2 SWAP1 POP JUMP JUMPDEST PUSH1 0x0 DUP1 PUSH1 0x0 DUP1 PUSH1 0x0 DUP1 PUSH1 0xC0 DUP8 DUP10 SUB SLT ISZERO PUSH2 0x244 JUMPI PUSH1 0x0 DUP1 REVERT JUMPDEST PUSH2 0x24D DUP8 PUSH2 0x20F JUMP JUMPDEST SWAP6 POP PUSH2 0x25B PUSH1 0x20 DUP9 ADD PUSH2 0x20F JUMP JUMPDEST SWAP5 POP PUSH2 0x269 PUSH1 0x40 DUP9 ADD PUSH2 0x20F JUMP JUMPDEST PUSH1 0x60 DUP9 ADD MLOAD PUSH1 0x80 DUP10 ADD MLOAD SWAP2 SWAP6 POP SWAP4 POP PUSH1 0x1 PUSH1 0x1 PUSH1 0x40 SHL SUB DUP2 AND DUP2 EQ PUSH2 0x28D JUMPI PUSH1 0x0 DUP1 REVERT JUMPDEST SWAP2 POP PUSH2 0x29B PUSH1 0xA0 DUP9 ADD PUSH2 0x20F JUMP JUMPDEST SWAP1 POP SWAP3 SWAP6 POP SWAP3 SWAP6 POP SWAP3 SWAP6 JUMP JUMPDEST PUSH1 0x80 MLOAD PUSH1 0xA0 MLOAD PUSH1 0xC0 MLOAD PUSH1 0xE0 MLOAD PUSH2 0x100 MLOAD PUSH2 0x120 MLOAD PUSH2 0x1546 PUSH2 0x33C PUSH1 0x0 CODECOPY PUSH1 0x0 DUP2 DUP2 PUSH2 0x20B ADD MSTORE PUSH2 0xFDC ADD MSTORE PUSH1 0x0 DUP2 DUP2 PUSH2 0x389 ADD MSTORE PUSH2 0xFAB ADD MSTORE PUSH1 0x0 DUP2 DUP2 PUSH2 0x318 ADD MSTORE PUSH2 0x1035 ADD MSTORE PUSH1 0x0 DUP2 DUP2 PUSH2 0x3D2 ADD MSTORE PUSH2 0x11E7 ADD MSTORE PUSH1 0x0 DUP2 DUP2 PUSH2 0x414 ADD MSTORE DUP2 DUP2 PUSH2 0x63F ADD MSTORE DUP2 DUP2 PUSH2 0x7F6 ADD MSTORE DUP2 DUP2 PUSH2 0x962 ADD MSTORE DUP2 DUP2 PUSH2 0xAC9 ADD MSTORE PUSH2 0xB70 ADD MSTORE PUSH1 0x0 DUP2 DUP2 PUSH2 0x4FC ADD MSTORE PUSH2 0x53E ADD MSTORE PUSH2 0x1546 PUSH1 0x0 RETURN INVALID PUSH1 0x80 PUSH1 0x40 MSTORE CALLVALUE DUP1 ISZERO PUSH2 0x10 JUMPI PUSH1 0x0 DUP1 REVERT JUMPDEST POP PUSH1 0x4 CALLDATASIZE LT PUSH2 0x1E5 JUMPI PUSH1 0x0 CALLDATALOAD PUSH1 0xE0 SHR DUP1 PUSH4 0x89AC4147 GT PUSH2 0x10F JUMPI DUP1 PUSH4 0xB8ED3AAD GT PUSH2 0xA2 JUMPI DUP1 PUSH4 0xCB8B97F5 GT PUSH2 0x71 JUMPI DUP1 PUSH4 0xCB8B97F5 EQ PUSH2 0x4B9 JUMPI DUP1 PUSH4 0xD82E3962 EQ PUSH2 0x4C2 JUMPI DUP1 PUSH4 0xEC18154E EQ PUSH2 0x4D5 JUMPI DUP1 PUSH4 0xF2FDE38B EQ PUSH2 0x4DE JUMPI PUSH1 0x0 DUP1 REVERT JUMPDEST DUP1 PUSH4 0xB8ED3AAD EQ PUSH2 0x482 JUMPI DUP1 PUSH4 0xB94790A4 EQ PUSH2 0x48A JUMPI DUP1 PUSH4 0xBAE4E530 EQ PUSH2 0x49D JUMPI DUP1 PUSH4 0xC75A0715 EQ PUSH2 0x4B0 JUMPI PUSH1 0x0 DUP1 REVERT JUMPDEST DUP1 PUSH4 0xA694FC3A GT PUSH2 0xDE JUMPI DUP1 PUSH4 0xA694FC3A EQ PUSH2 0x436 JUMPI DUP1 PUSH4 0xB0FB162F EQ PUSH2 0x449 JUMPI DUP1 PUSH4 0xB26025AA EQ PUSH2 0x472 JUMPI DUP1 PUSH4 0xB88A802F EQ PUSH2 0x47A JUMPI PUSH1 0x0 DUP1 REVERT JUMPDEST DUP1 PUSH4 0x89AC4147 EQ PUSH2 0x3F4 JUMPI DUP1 PUSH4 0x8DA5CB5B EQ PUSH2 0x3FE JUMPI DUP1 PUSH4 0x93565B4C EQ PUSH2 0x40F JUMPI DUP1 PUSH4 0x9DA378AB EQ PUSH2 0x37B JUMPI PUSH1 0x0 DUP1 REVERT JUMPDEST DUP1 PUSH4 0x3A02A42D GT PUSH2 0x187 JUMPI DUP1 PUSH4 0x61728F39 GT PUSH2 0x156 JUMPI DUP1 PUSH4 0x61728F39 EQ PUSH2 0x384 JUMPI DUP1 PUSH4 0x715018A6 EQ PUSH2 0x3AB JUMPI DUP1 PUSH4 0x7CCFD7FC EQ PUSH2 0x3B3 JUMPI DUP1 PUSH4 0x7DC0D1D0 EQ PUSH2 0x3CD JUMPI PUSH1 0x0 DUP1 REVERT JUMPDEST DUP1 PUSH4 0x3A02A42D EQ PUSH2 0x300 JUMPI DUP1 PUSH4 0x3B2BCBF1 EQ PUSH2 0x313 JUMPI DUP1 PUSH4 0x3E2F7EB5 EQ PUSH2 0x352 JUMPI DUP1 PUSH4 0x4CA19FD6 EQ PUSH2 0x37B JUMPI PUSH1 0x0 DUP1 REVERT JUMPDEST DUP1 PUSH4 0x1FE543E3 GT PUSH2 0x1C3 JUMPI DUP1 PUSH4 0x1FE543E3 EQ PUSH2 0x2AA JUMPI DUP1 PUSH4 0x24F74697 EQ PUSH2 0x2BF JUMPI DUP1 PUSH4 0x27779748 EQ PUSH2 0x2E4 JUMPI DUP1 PUSH4 0x2E1A7D4D EQ PUSH2 0x2ED JUMPI PUSH1 0x0 DUP1 REVERT JUMPDEST DUP1 PUSH4 0x7B2D32F EQ PUSH2 0x1EA JUMPI DUP1 PUSH4 0x9C1BA2E EQ PUSH2 0x206 JUMPI DUP1 PUSH4 0x16934FC4 EQ PUSH2 0x246 JUMPI JUMPDEST PUSH1 0x0 DUP1 REVERT JUMPDEST PUSH2 0x1F3 PUSH2 0x320 DUP2 JUMP JUMPDEST PUSH1 0x40 MLOAD SWAP1 DUP2 MSTORE PUSH1 0x20 ADD JUMPDEST PUSH1 0x40 MLOAD DUP1 SWAP2 SUB SWAP1 RETURN JUMPDEST PUSH2 0x22D PUSH32 0x0 DUP2 JUMP JUMPDEST PUSH1 0x40 MLOAD PUSH8 0xFFFFFFFFFFFFFFFF SWAP1 SWAP2 AND DUP2 MSTORE PUSH1 0x20 ADD PUSH2 0x1FD JUMP JUMPDEST PUSH2 0x282 PUSH2 0x254 CALLDATASIZE PUSH1 0x4 PUSH2 0x128B JUMP JUMPDEST PUSH1 0x1 PUSH1 0x20 DUP2 SWAP1 MSTORE PUSH1 0x0 SWAP2 DUP3 MSTORE PUSH1 0x40 SWAP1 SWAP2 KECCAK256 DUP1 SLOAD SWAP2 DUP2 ADD SLOAD PUSH1 0x2 DUP3 ADD SLOAD PUSH1 0x3 DUP4 ADD SLOAD PUSH1 0x4 SWAP1 SWAP4 ADD SLOAD SWAP2 SWAP3 SWAP1 SWAP2 DUP6 JUMP JUMPDEST PUSH1 0x40 DUP1 MLOAD SWAP6 DUP7 MSTORE PUSH1 0x20 DUP7 ADD SWAP5 SWAP1 SWAP5 MSTORE SWAP3 DUP5 ADD SWAP2 SWAP1 SWAP2 MSTORE PUSH1 0x60 DUP4 ADD MSTORE PUSH1 0x80 DUP3 ADD MSTORE PUSH1 0xA0 ADD PUSH2 0x1FD JUMP JUMPDEST PUSH2 0x2BD PUSH2 0x2B8 CALLDATASIZE PUSH1 0x4 PUSH2 0x12CA JUMP JUMPDEST PUSH2 0x4F1 JUMP JUMPDEST STOP JUMPDEST PUSH1 0x4 SLOAD PUSH2 0x2CF SWAP1 PUSH4 0xFFFFFFFF AND DUP2 JUMP JUMPDEST PUSH1 0x40 MLOAD PUSH4 0xFFFFFFFF SWAP1 SWAP2 AND DUP2 MSTORE PUSH1 0x20 ADD PUSH2 0x1FD JUMP JUMPDEST PUSH2 0x1F3 PUSH2 0x4B0 DUP2 JUMP JUMPDEST PUSH2 0x2BD PUSH2 0x2FB CALLDATASIZE PUSH1 0x4 PUSH2 0x13A3 JUMP JUMPDEST PUSH2 0x57E JUMP JUMPDEST PUSH2 0x1F3 PUSH2 0x30E CALLDATASIZE PUSH1 0x4 PUSH2 0x128B JUMP JUMPDEST PUSH2 0x709 JUMP JUMPDEST PUSH2 0x33A PUSH32 0x0 DUP2 JUMP JUMPDEST PUSH1 0x40 MLOAD PUSH1 0x1 PUSH1 0x1 PUSH1 0xA0 SHL SUB SWAP1 SWAP2 AND DUP2 MSTORE PUSH1 0x20 ADD PUSH2 0x1FD JUMP JUMPDEST PUSH2 0x33A PUSH2 0x360 CALLDATASIZE PUSH1 0x4 PUSH2 0x13A3 JUMP JUMPDEST PUSH1 0x3 PUSH1 0x20 MSTORE PUSH1 0x0 SWAP1 DUP2 MSTORE PUSH1 0x40 SWAP1 KECCAK256 SLOAD PUSH1 0x1 PUSH1 0x1 PUSH1 0xA0 SHL SUB AND DUP2 JUMP JUMPDEST PUSH2 0x1F3 PUSH2 0x3E8 DUP2 JUMP JUMPDEST PUSH2 0x1F3 PUSH32 0x0 DUP2 JUMP JUMPDEST PUSH2 0x2BD PUSH2 0x739 JUMP JUMPDEST PUSH1 0x4 SLOAD PUSH2 0x2CF SWAP1 PUSH7 0x1000000000000 SWAP1 DIV PUSH4 0xFFFFFFFF AND DUP2 JUMP JUMPDEST PUSH2 0x33A PUSH32 0x0 DUP2 JUMP JUMPDEST PUSH2 0x1F3 PUSH3 0x278D00 DUP2 JUMP JUMPDEST PUSH1 0x0 SLOAD PUSH1 0x1 PUSH1 0x1 PUSH1 0xA0 SHL SUB AND PUSH2 0x33A JUMP JUMPDEST PUSH2 0x33A PUSH32 0x0 DUP2 JUMP JUMPDEST PUSH2 0x2BD PUSH2 0x444 CALLDATASIZE PUSH1 0x4 PUSH2 0x13A3 JUMP JUMPDEST PUSH2 0x74D JUMP JUMPDEST PUSH1 0x4 SLOAD PUSH2 0x45F SWAP1 PUSH5 0x100000000 SWAP1 DIV PUSH2 0xFFFF AND DUP2 JUMP JUMPDEST PUSH1 0x40 MLOAD PUSH2 0xFFFF SWAP1 SWAP2 AND DUP2 MSTORE PUSH1 0x20 ADD PUSH2 0x1FD JUMP JUMPDEST PUSH1 0x2 SLOAD PUSH2 0x1F3 JUMP JUMPDEST PUSH2 0x2BD PUSH2 0x8C8 JUMP JUMPDEST PUSH2 0x1F3 PUSH1 0xC8 DUP2 JUMP JUMPDEST PUSH2 0x2BD PUSH2 0x498 CALLDATASIZE PUSH1 0x4 PUSH2 0x13A3 JUMP JUMPDEST PUSH2 0xA1D JUMP JUMPDEST PUSH2 0x2BD PUSH2 0x4AB CALLDATASIZE PUSH1 0x4 PUSH2 0x13BC JUMP JUMPDEST PUSH2 0xC15 JUMP JUMPDEST PUSH2 0x1F3 PUSH2 0x640 DUP2 JUMP JUMPDEST PUSH2 0x1F3 PUSH2 0x578 DUP2 JUMP JUMPDEST PUSH2 0x1F3 PUSH2 0x4D0 CALLDATASIZE PUSH1 0x4 PUSH2 0x128B JUMP JUMPDEST PUSH2 0xC4A JUMP JUMPDEST PUSH2 0x1F3 PUSH1 0x2 SLOAD DUP2 JUMP JUMPDEST PUSH2 0x2BD PUSH2 0x4EC CALLDATASIZE PUSH1 0x4 PUSH2 0x128B JUMP JUMPDEST PUSH2 0xCB4 JUMP JUMPDEST CALLER PUSH1 0x1 PUSH1 0x1 PUSH1 0xA0 SHL SUB PUSH32 0x0 AND EQ PUSH2 0x570 JUMPI PUSH1 0x40 MLOAD PUSH4 0x73E64FD PUSH1 0xE2 SHL DUP2 MSTORE CALLER PUSH1 0x4 DUP3 ADD MSTORE PUSH1 0x1 PUSH1 0x1 PUSH1 0xA0 SHL SUB PUSH32 0x0 AND PUSH1 0x24 DUP3 ADD MSTORE PUSH1 0x44 ADD JUMPDEST PUSH1 0x40 MLOAD DUP1 SWAP2 SUB SWAP1 REVERT JUMPDEST PUSH2 0x57A DUP3 DUP3 PUSH2 0xCC8 JUMP JUMPDEST POP POP JUMP JUMPDEST PUSH2 0x587 CALLER PUSH2 0xE5F JUMP JUMPDEST CALLER PUSH1 0x0 SWAP1 DUP2 MSTORE PUSH1 0x1 PUSH1 0x20 MSTORE PUSH1 0x40 SWAP1 KECCAK256 SLOAD DUP2 GT ISZERO PUSH2 0x5E6 JUMPI PUSH1 0x40 MLOAD PUSH3 0x461BCD PUSH1 0xE5 SHL DUP2 MSTORE PUSH1 0x20 PUSH1 0x4 DUP3 ADD MSTORE PUSH1 0x1A PUSH1 0x24 DUP3 ADD MSTORE PUSH32 0x496E73756666696369656E74207374616B656420616D6F756E74000000000000 PUSH1 0x44 DUP3 ADD MSTORE PUSH1 0x64 ADD PUSH2 0x567 JUMP JUMPDEST CALLER PUSH1 0x0 SWAP1 DUP2 MSTORE PUSH1 0x1 PUSH1 0x20 MSTORE PUSH1 0x40 DUP2 KECCAK256 DUP1 SLOAD DUP4 SWAP3 SWAP1 PUSH2 0x605 SWAP1 DUP5 SWAP1 PUSH2 0x141B JUMP JUMPDEST SWAP3 POP POP DUP2 SWAP1 SSTORE POP DUP1 PUSH1 0x2 PUSH1 0x0 DUP3 DUP3 SLOAD PUSH2 0x61E SWAP2 SWAP1 PUSH2 0x141B JUMP JUMPDEST SWAP1 SWAP2 SSTORE POP POP PUSH1 0x40 MLOAD PUSH4 0xA9059CBB PUSH1 0xE0 SHL DUP2 MSTORE CALLER PUSH1 0x4 DUP3 ADD MSTORE PUSH1 0x24 DUP2 ADD DUP3 SWAP1 MSTORE PUSH32 0x0 PUSH1 0x1 PUSH1 0x1 PUSH1 0xA0 SHL SUB AND SWAP1 PUSH4 0xA9059CBB SWAP1 PUSH1 0x44 ADD PUSH1 0x20 PUSH1 0x40 MLOAD DUP1 DUP4 SUB DUP2 PUSH1 0x0 DUP8 GAS CALL ISZERO DUP1 ISZERO PUSH2 0x690 JUMPI RETURNDATASIZE PUSH1 0x0 DUP1 RETURNDATACOPY RETURNDATASIZE PUSH1 0x0 REVERT JUMPDEST POP POP POP POP PUSH1 0x40 MLOAD RETURNDATASIZE PUSH1 0x1F NOT PUSH1 0x1F DUP3 ADD AND DUP3 ADD DUP1 PUSH1 0x40 MSTORE POP DUP2 ADD SWAP1 PUSH2 0x6B4 SWAP2 SWAP1 PUSH2 0x142E JUMP JUMPDEST PUSH2 0x6D0 JUMPI PUSH1 0x40 MLOAD PUSH3 0x461BCD PUSH1 0xE5 SHL DUP2 MSTORE PUSH1 0x4 ADD PUSH2 0x567 SWAP1 PUSH2 0x1450 JUMP JUMPDEST PUSH1 0x40 MLOAD DUP2 DUP2 MSTORE CALLER SWAP1 PUSH32 0x7084F5476618D8E60B11EF0D7D3F06914655ADB8793E28FF7F018D4C76D505D5 SWAP1 PUSH1 0x20 ADD JUMPDEST PUSH1 0x40 MLOAD DUP1 SWAP2 SUB SWAP1 LOG2 POP JUMP JUMPDEST PUSH1 0x1 PUSH1 0x1 PUSH1 0xA0 SHL SUB DUP2 AND PUSH1 0x0 SWAP1 DUP2 MSTORE PUSH1 0x1 PUSH1 0x20 DUP2 SWAP1 MSTORE PUSH1 0x40 DUP3 KECCAK256 SWAP1 DUP2 ADD SLOAD SWAP1 SLOAD PUSH2 0x733 SWAP2 SWAP1 PUSH2 0x1479 JUMP JUMPDEST SWAP3 SWAP2 POP POP JUMP JUMPDEST PUSH2 0x741 PUSH2 0xEEB JUMP JUMPDEST PUSH2 0x74B PUSH1 0x0 PUSH2 0xF18 JUMP JUMPDEST JUMP JUMPDEST PUSH1 0x0 DUP2 GT PUSH2 0x78E JUMPI PUSH1 0x40 MLOAD PUSH3 0x461BCD PUSH1 0xE5 SHL DUP2 MSTORE PUSH1 0x20 PUSH1 0x4 DUP3 ADD MSTORE PUSH1 0xE PUSH1 0x24 DUP3 ADD MSTORE PUSH14 0x125B9D985B1A5908185B5BDD5B9D PUSH1 0x92 SHL PUSH1 0x44 DUP3 ADD MSTORE PUSH1 0x64 ADD PUSH2 0x567 JUMP JUMPDEST PUSH2 0x797 CALLER PUSH2 0xE5F JUMP JUMPDEST CALLER PUSH1 0x0 SWAP1 DUP2 MSTORE PUSH1 0x1 PUSH1 0x20 MSTORE PUSH1 0x40 DUP2 KECCAK256 DUP1 SLOAD DUP4 SWAP3 SWAP1 PUSH2 0x7B6 SWAP1 DUP5 SWAP1 PUSH2 0x1479 JUMP JUMPDEST SWAP3 POP POP DUP2 SWAP1 SSTORE POP DUP1 PUSH1 0x2 PUSH1 0x0 DUP3 DUP3 SLOAD PUSH2 0x7CF SWAP2 SWAP1 PUSH2 0x1479 JUMP JUMPDEST SWAP1 SWAP2 SSTORE POP POP PUSH1 0x40 MLOAD PUSH4 0x23B872DD PUSH1 0xE0 SHL DUP2 MSTORE CALLER PUSH1 0x4 DUP3 ADD MSTORE ADDRESS PUSH1 0x24 DUP3 ADD MSTORE PUSH1 0x44 DUP2 ADD DUP3 SWAP1 MSTORE PUSH32 0x0 PUSH1 0x1 PUSH1 0x1 PUSH1 0xA0 SHL SUB AND SWAP1 PUSH4 0x23B872DD SWAP1 PUSH1 0x64 ADD PUSH1 0x20 PUSH1 0x40 MLOAD DUP1 DUP4 SUB DUP2 PUSH1 0x0 DUP8 GAS CALL ISZERO DUP1 ISZERO PUSH2 0x847 JUMPI RETURNDATASIZE PUSH1 0x0 DUP1 RETURNDATACOPY RETURNDATASIZE PUSH1 0x0 REVERT JUMPDEST POP POP POP POP PUSH1 0x40 MLOAD RETURNDATASIZE PUSH1 0x1F NOT PUSH1 0x1F DUP3 ADD AND DUP3 ADD DUP1 PUSH1 0x40 MSTORE POP DUP2 ADD SWAP1 PUSH2 0x86B SWAP2 SWAP1 PUSH2 0x142E JUMP JUMPDEST PUSH2 0x887 JUMPI PUSH1 0x40 MLOAD PUSH3 0x461BCD PUSH1 0xE5 SHL DUP2 MSTORE PUSH1 0x4 ADD PUSH2 0x567 SWAP1 PUSH2 0x1450 JUMP JUMPDEST PUSH2 0x890 CALLER PUSH2 0xF68 JUMP JUMPDEST PUSH1 0x40 DUP1 MLOAD DUP3 DUP2 MSTORE PUSH1 0x0 PUSH1 0x20 DUP3 ADD MSTORE CALLER SWAP2 PUSH32 0x37D4053E34FDE482E96F6BCD424DFA31342CBD5FE184D497FB3C8BB4B4B97580 SWAP2 ADD PUSH2 0x6FE JUMP JUMPDEST PUSH2 0x8D1 CALLER PUSH2 0xE5F JUMP JUMPDEST CALLER PUSH1 0x0 SWAP1 DUP2 MSTORE PUSH1 0x1 PUSH1 0x20 MSTORE PUSH1 0x40 SWAP1 KECCAK256 PUSH1 0x3 ADD SLOAD DUP1 PUSH2 0x927 JUMPI PUSH1 0x40 MLOAD PUSH3 0x461BCD PUSH1 0xE5 SHL DUP2 MSTORE PUSH1 0x20 PUSH1 0x4 DUP3 ADD MSTORE PUSH1 0x13 PUSH1 0x24 DUP3 ADD MSTORE PUSH19 0x4E6F207265776172647320746F20636C61696D PUSH1 0x68 SHL PUSH1 0x44 DUP3 ADD MSTORE PUSH1 0x64 ADD PUSH2 0x567 JUMP JUMPDEST CALLER PUSH1 0x0 DUP2 DUP2 MSTORE PUSH1 0x1 PUSH1 0x20 MSTORE PUSH1 0x40 DUP1 DUP3 KECCAK256 PUSH1 0x3 ADD SWAP2 SWAP1 SWAP2 SSTORE MLOAD PUSH4 0xA9059CBB PUSH1 0xE0 SHL DUP2 MSTORE PUSH1 0x4 DUP2 ADD SWAP2 SWAP1 SWAP2 MSTORE PUSH1 0x24 DUP2 ADD DUP3 SWAP1 MSTORE PUSH1 0x1 PUSH1 0x1 PUSH1 0xA0 SHL SUB PUSH32 0x0 AND SWAP1 PUSH4 0xA9059CBB SWAP1 PUSH1 0x44 ADD PUSH1 0x20 PUSH1 0x40 MLOAD DUP1 DUP4 SUB DUP2 PUSH1 0x0 DUP8 GAS CALL ISZERO DUP1 ISZERO PUSH2 0x9AB JUMPI RETURNDATASIZE PUSH1 0x0 DUP1 RETURNDATACOPY RETURNDATASIZE PUSH1 0x0 REVERT JUMPDEST POP POP POP POP PUSH1 0x40 MLOAD RETURNDATASIZE PUSH1 0x1F NOT PUSH1 0x1F DUP3 ADD AND DUP3 ADD DUP1 PUSH1 0x40 MSTORE POP DUP2 ADD SWAP1 PUSH2 0x9CF SWAP2 SWAP1 PUSH2 0x142E JUMP JUMPDEST PUSH2 0x9EB JUMPI PUSH1 0x40 MLOAD PUSH3 0x461BCD PUSH1 0xE5 SHL DUP2 MSTORE PUSH1 0x4 ADD PUSH2 0x567 SWAP1 PUSH2 0x1450 JUMP JUMPDEST PUSH1 0x40 MLOAD DUP2 DUP2 MSTORE CALLER SWAP1 PUSH32 0x106F923F993C2149D49B4255FF723ACAFA1F2D94393F561D3EDA32AE348F7241 SWAP1 PUSH1 0x20 ADD PUSH2 0x6FE JUMP JUMPDEST PUSH1 0x0 DUP2 GT PUSH2 0xA5E JUMPI PUSH1 0x40 MLOAD PUSH3 0x461BCD PUSH1 0xE5 SHL DUP2 MSTORE PUSH1 0x20 PUSH1 0x4 DUP3 ADD MSTORE PUSH1 0xE PUSH1 0x24 DUP3 ADD MSTORE PUSH14 0x125B9D985B1A5908185B5BDD5B9D PUSH1 0x92 SHL PUSH1 0x44 DUP3 ADD MSTORE PUSH1 0x64 ADD PUSH2 0x567 JUMP JUMPDEST PUSH2 0xA67 CALLER PUSH2 0xE5F JUMP JUMPDEST CALLER PUSH1 0x0 SWAP1 DUP2 MSTORE PUSH1 0x1 PUSH1 0x20 DUP2 SWAP1 MSTORE PUSH1 0x40 DUP3 KECCAK256 ADD DUP1 SLOAD DUP4 SWAP3 SWAP1 PUSH2 0xA89 SWAP1 DUP5 SWAP1 PUSH2 0x1479 JUMP JUMPDEST SWAP3 POP POP DUP2 SWAP1 SSTORE POP DUP1 PUSH1 0x2 PUSH1 0x0 DUP3 DUP3 SLOAD PUSH2 0xAA2 SWAP2 SWAP1 PUSH2 0x1479 JUMP JUMPDEST SWAP1 SWAP2 SSTORE POP POP PUSH1 0x40 MLOAD PUSH4 0x23B872DD PUSH1 0xE0 SHL DUP2 MSTORE CALLER PUSH1 0x4 DUP3 ADD MSTORE ADDRESS PUSH1 0x24 DUP3 ADD MSTORE PUSH1 0x44 DUP2 ADD DUP3 SWAP1 MSTORE PUSH32 0x0 PUSH1 0x1 PUSH1 0x1 PUSH1 0xA0 SHL SUB AND SWAP1 PUSH4 0x23B872DD SWAP1 PUSH1 0x64 ADD PUSH1 0x20 PUSH1 0x40 MLOAD DUP1 DUP4 SUB DUP2 PUSH1 0x0 DUP8 GAS CALL ISZERO DUP1 ISZERO PUSH2 0xB1A JUMPI RETURNDATASIZE PUSH1 0x0 DUP1 RETURNDATACOPY RETURNDATASIZE PUSH1 0x0 REVERT JUMPDEST POP POP POP POP PUSH1 0x40 MLOAD RETURNDATASIZE PUSH1 0x1F NOT PUSH1 0x1F DUP3 ADD AND DUP3 ADD DUP1 PUSH1 0x40 MSTORE POP DUP2 ADD SWAP1 PUSH2 0xB3E SWAP2 SWAP1 PUSH2 0x142E JUMP JUMPDEST PUSH2 0xB5A JUMPI PUSH1 0x40 MLOAD PUSH3 0x461BCD PUSH1 0xE5 SHL DUP2 MSTORE PUSH1 0x4 ADD PUSH2 0x567 SWAP1 PUSH2 0x1450 JUMP JUMPDEST PUSH1 0x40 MLOAD PUSH4 0x255DA8DD PUSH1 0xE2 SHL DUP2 MSTORE PUSH1 0x4 DUP2 ADD DUP3 SWAP1 MSTORE PUSH32 0x0 PUSH1 0x1 PUSH1 0x1 PUSH1 0xA0 SHL SUB AND SWAP1 PUSH4 0x9576A374 SWAP1 PUSH1 0x24 ADD PUSH1 0x0 PUSH1 0x40 MLOAD DUP1 DUP4 SUB DUP2 PUSH1 0x0 DUP8 DUP1 EXTCODESIZE ISZERO DUP1 ISZERO PUSH2 0xBBC JUMPI PUSH1 0x0 DUP1 REVERT JUMPDEST POP GAS CALL ISZERO DUP1 ISZERO PUSH2 0xBD0 JUMPI RETURNDATASIZE PUSH1 0x0 DUP1 RETURNDATACOPY RETURNDATASIZE PUSH1 0x0 REVERT JUMPDEST POP POP POP POP PUSH2 0xBDD CALLER PUSH2 0xF68 JUMP JUMPDEST PUSH1 0x40 DUP1 MLOAD DUP3 DUP2 MSTORE PUSH1 0x1 PUSH1 0x20 DUP3 ADD MSTORE CALLER SWAP2 PUSH32 0x37D4053E34FDE482E96F6BCD424DFA31342CBD5FE184D497FB3C8BB4B4B97580 SWAP2 ADD PUSH2 0x6FE JUMP JUMPDEST PUSH2 0xC1D PUSH2 0xEEB JUMP JUMPDEST PUSH1 0x4 DUP1 SLOAD PUSH2 0xFFFF SWAP1 SWAP3 AND PUSH5 0x100000000 MUL PUSH6 0xFFFFFFFFFFFF NOT SWAP1 SWAP3 AND PUSH4 0xFFFFFFFF SWAP1 SWAP4 AND SWAP3 SWAP1 SWAP3 OR OR SWAP1 SSTORE JUMP JUMPDEST PUSH1 0x1 PUSH1 0x1 PUSH1 0xA0 SHL SUB DUP2 AND PUSH1 0x0 SWAP1 DUP2 MSTORE PUSH1 0x1 PUSH1 0x20 MSTORE PUSH1 0x40 DUP2 KECCAK256 DUP1 SLOAD PUSH1 0x4 DUP3 ADD SLOAD DUP4 SWAP2 PUSH2 0xC77 SWAP2 DUP7 SWAP2 SWAP1 PUSH2 0x1111 JUMP JUMPDEST SWAP1 POP PUSH1 0x0 PUSH2 0xC8E DUP6 DUP5 PUSH1 0x1 ADD SLOAD DUP6 PUSH1 0x4 ADD SLOAD PUSH2 0x1111 JUMP JUMPDEST SWAP1 POP DUP1 DUP3 DUP5 PUSH1 0x3 ADD SLOAD PUSH2 0xCA1 SWAP2 SWAP1 PUSH2 0x1479 JUMP JUMPDEST PUSH2 0xCAB SWAP2 SWAP1 PUSH2 0x1479 JUMP JUMPDEST SWAP6 SWAP5 POP POP POP POP POP JUMP JUMPDEST PUSH2 0xCBC PUSH2 0xEEB JUMP JUMPDEST PUSH2 0xCC5 DUP2 PUSH2 0x11A7 JUMP JUMPDEST POP JUMP JUMPDEST PUSH1 0x0 DUP3 DUP2 MSTORE PUSH1 0x3 PUSH1 0x20 MSTORE PUSH1 0x40 SWAP1 KECCAK256 SLOAD PUSH1 0x1 PUSH1 0x1 PUSH1 0xA0 SHL SUB AND DUP1 PUSH2 0xD22 JUMPI PUSH1 0x40 MLOAD PUSH3 0x461BCD PUSH1 0xE5 SHL DUP2 MSTORE PUSH1 0x20 PUSH1 0x4 DUP3 ADD MSTORE PUSH1 0x12 PUSH1 0x24 DUP3 ADD MSTORE PUSH18 0x125B9D985B1A59081C995C5D595CDD081251 PUSH1 0x72 SHL PUSH1 0x44 DUP3 ADD MSTORE PUSH1 0x64 ADD PUSH2 0x567 JUMP JUMPDEST PUSH1 0x0 PUSH1 0x64 DUP4 PUSH1 0x0 DUP2 MLOAD DUP2 LT PUSH2 0xD39 JUMPI PUSH2 0xD39 PUSH2 0x148C JUMP JUMPDEST PUSH1 0x20 MUL PUSH1 0x20 ADD ADD MLOAD PUSH2 0xD4B SWAP2 SWAP1 PUSH2 0x14B8 JUMP JUMPDEST PUSH1 0x1 PUSH1 0x1 PUSH1 0xA0 SHL SUB DUP4 AND PUSH1 0x0 SWAP1 DUP2 MSTORE PUSH1 0x1 PUSH1 0x20 DUP2 SWAP1 MSTORE PUSH1 0x40 DUP3 KECCAK256 ADD SLOAD SWAP2 SWAP3 POP SWAP1 PUSH2 0xD82 JUMPI PUSH2 0xD7D PUSH2 0x320 PUSH2 0x578 PUSH2 0x141B JUMP JUMPDEST PUSH2 0xD90 JUMP JUMPDEST PUSH2 0xD90 PUSH2 0x3E8 PUSH2 0x640 PUSH2 0x141B JUMP JUMPDEST PUSH1 0x1 PUSH1 0x1 PUSH1 0xA0 SHL SUB DUP5 AND PUSH1 0x0 SWAP1 DUP2 MSTORE PUSH1 0x1 PUSH1 0x20 DUP2 SWAP1 MSTORE PUSH1 0x40 DUP3 KECCAK256 ADD SLOAD SWAP2 SWAP3 POP SWAP1 PUSH2 0xDBC JUMPI PUSH2 0x320 PUSH2 0xDC0 JUMP JUMPDEST PUSH2 0x3E8 JUMPDEST PUSH1 0x64 PUSH2 0xDCC DUP5 DUP7 PUSH2 0x14CC JUMP JUMPDEST PUSH2 0xDD6 SWAP2 SWAP1 PUSH2 0x14E3 JUMP JUMPDEST PUSH2 0xDE0 SWAP2 SWAP1 PUSH2 0x1479 JUMP JUMPDEST PUSH1 0x1 PUSH1 0x1 PUSH1 0xA0 SHL SUB DUP6 AND PUSH1 0x0 DUP2 DUP2 MSTORE PUSH1 0x1 PUSH1 0x20 SWAP1 DUP2 MSTORE PUSH1 0x40 DUP1 DUP4 KECCAK256 PUSH1 0x4 DUP2 ADD DUP7 SWAP1 SSTORE TIMESTAMP PUSH1 0x2 SWAP1 SWAP2 ADD SSTORE DUP11 DUP4 MSTORE PUSH1 0x3 DUP3 MSTORE SWAP2 DUP3 SWAP1 KECCAK256 DUP1 SLOAD PUSH1 0x1 PUSH1 0x1 PUSH1 0xA0 SHL SUB NOT AND SWAP1 SSTORE SWAP1 MLOAD DUP4 DUP2 MSTORE SWAP3 SWAP4 POP SWAP1 SWAP2 PUSH32 0x95046B7FDB9BCF09CDB8B5E270934D955F51F771912290FF9A0020045195EEE5 SWAP2 ADD PUSH1 0x40 MLOAD DUP1 SWAP2 SUB SWAP1 LOG2 POP POP POP POP POP POP JUMP JUMPDEST PUSH1 0x1 PUSH1 0x1 PUSH1 0xA0 SHL SUB DUP2 AND PUSH1 0x0 SWAP1 DUP2 MSTORE PUSH1 0x1 PUSH1 0x20 MSTORE PUSH1 0x40 SWAP1 KECCAK256 DUP1 SLOAD ISZERO ISZERO DUP1 PUSH2 0xE8A JUMPI POP PUSH1 0x0 DUP2 PUSH1 0x1 ADD SLOAD GT JUMPDEST ISZERO PUSH2 0x57A JUMPI PUSH1 0x0 PUSH2 0xEA4 DUP4 DUP4 PUSH1 0x0 ADD SLOAD DUP5 PUSH1 0x4 ADD SLOAD PUSH2 0x1111 JUMP JUMPDEST SWAP1 POP PUSH1 0x0 PUSH2 0xEBB DUP5 DUP5 PUSH1 0x1 ADD SLOAD DUP6 PUSH1 0x4 ADD SLOAD PUSH2 0x1111 JUMP JUMPDEST SWAP1 POP PUSH2 0xEC7 DUP2 DUP4 PUSH2 0x1479 JUMP JUMPDEST DUP4 PUSH1 0x3 ADD PUSH1 0x0 DUP3 DUP3 SLOAD PUSH2 0xEDA SWAP2 SWAP1 PUSH2 0x1479 JUMP JUMPDEST SWAP1 SWAP2 SSTORE POP POP TIMESTAMP PUSH1 0x2 DUP5 ADD SSTORE POP POP POP POP JUMP JUMPDEST PUSH1 0x0 SLOAD PUSH1 0x1 PUSH1 0x1 PUSH1 0xA0 SHL SUB AND CALLER EQ PUSH2 0x74B JUMPI PUSH1 0x40 MLOAD PUSH4 0x118CDAA7 PUSH1 0xE0 SHL DUP2 MSTORE CALLER PUSH1 0x4 DUP3 ADD MSTORE PUSH1 0x24 ADD PUSH2 0x567 JUMP JUMPDEST PUSH1 0x0 DUP1 SLOAD PUSH1 0x1 PUSH1 0x1 PUSH1 0xA0 SHL SUB DUP4 DUP2 AND PUSH1 0x1 PUSH1 0x1 PUSH1 0xA0 SHL SUB NOT DUP4 AND DUP2 OR DUP5 SSTORE PUSH1 0x40 MLOAD SWAP2 SWAP1 SWAP3 AND SWAP3 DUP4 SWAP2 PUSH32 0x8BE0079C531659141344CD1FD0A4F28419497F9722A3DAAFE3B4186F6B6457E0 SWAP2 SWAP1 LOG3 POP POP JUMP JUMPDEST PUSH1 0x1 PUSH1 0x1 PUSH1 0xA0 SHL SUB DUP2 AND PUSH1 0x0 SWAP1 DUP2 MSTORE PUSH1 0x1 PUSH1 0x20 MSTORE PUSH1 0x40 SWAP1 KECCAK256 PUSH1 0x2 ADD SLOAD PUSH2 0xF92 SWAP1 PUSH3 0x278D00 SWAP1 PUSH2 0x1479 JUMP JUMPDEST TIMESTAMP LT PUSH2 0xCC5 JUMPI PUSH1 0x4 DUP1 SLOAD PUSH1 0x40 MLOAD PUSH4 0x5D3B1D3 PUSH1 0xE4 SHL DUP2 MSTORE PUSH32 0x0 SWAP3 DUP2 ADD SWAP3 SWAP1 SWAP3 MSTORE PUSH8 0xFFFFFFFFFFFFFFFF PUSH32 0x0 AND PUSH1 0x24 DUP4 ADD MSTORE PUSH5 0x100000000 DUP2 DIV PUSH2 0xFFFF AND PUSH1 0x44 DUP4 ADD MSTORE PUSH4 0xFFFFFFFF DUP1 DUP3 AND PUSH1 0x64 DUP5 ADD MSTORE PUSH7 0x1000000000000 SWAP1 SWAP2 DIV AND PUSH1 0x84 DUP3 ADD MSTORE PUSH1 0x0 SWAP1 PUSH32 0x0 PUSH1 0x1 PUSH1 0x1 PUSH1 0xA0 SHL SUB AND SWAP1 PUSH4 0x5D3B1D30 SWAP1 PUSH1 0xA4 ADD PUSH1 0x20 PUSH1 0x40 MLOAD DUP1 DUP4 SUB DUP2 PUSH1 0x0 DUP8 GAS CALL ISZERO DUP1 ISZERO PUSH2 0x1086 JUMPI RETURNDATASIZE PUSH1 0x0 DUP1 RETURNDATACOPY RETURNDATASIZE PUSH1 0x0 REVERT JUMPDEST POP POP POP POP PUSH1 0x40 MLOAD RETURNDATASIZE PUSH1 0x1F NOT PUSH1 0x1F DUP3 ADD AND DUP3 ADD DUP1 PUSH1 0x40 MSTORE POP DUP2 ADD SWAP1 PUSH2 0x10AA SWAP2 SWAP1 PUSH2 0x14F7 JUMP JUMPDEST PUSH1 0x0 DUP2 DUP2 MSTORE PUSH1 0x3 PUSH1 0x20 SWAP1 DUP2 MSTORE PUSH1 0x40 SWAP2 DUP3 SWAP1 KECCAK256 DUP1 SLOAD PUSH1 0x1 PUSH1 0x1 PUSH1 0xA0 SHL SUB NOT AND PUSH1 0x1 PUSH1 0x1 PUSH1 0xA0 SHL SUB DUP8 AND SWAP1 DUP2 OR SWAP1 SWAP2 SSTORE SWAP2 MLOAD DUP4 DUP2 MSTORE SWAP3 SWAP4 POP SWAP1 SWAP2 PUSH32 0x5ACEC44D329E4DFEA8E1A6DAE4B0C46D76B2A92D3A747907A60DEE7AD6809FD SWAP2 ADD PUSH1 0x40 MLOAD DUP1 SWAP2 SUB SWAP1 LOG2 POP POP JUMP JUMPDEST PUSH1 0x0 DUP3 PUSH1 0x0 SUB PUSH2 0x1123 JUMPI POP PUSH1 0x0 PUSH2 0x11A0 JUMP JUMPDEST PUSH1 0x0 PUSH2 0x112D PUSH2 0x11E2 JUMP JUMPDEST SWAP1 POP PUSH1 0x0 PUSH2 0x113B DUP3 DUP6 PUSH2 0x1479 JUMP JUMPDEST PUSH1 0x1 PUSH1 0x1 PUSH1 0xA0 SHL SUB DUP8 AND PUSH1 0x0 SWAP1 DUP2 MSTORE PUSH1 0x1 PUSH1 0x20 MSTORE PUSH1 0x40 DUP2 KECCAK256 PUSH1 0x2 DUP2 ADD SLOAD SWAP3 SWAP4 POP SWAP2 PUSH2 0x1166 SWAP1 TIMESTAMP PUSH2 0x141B JUMP JUMPDEST SWAP1 POP PUSH2 0x2710 PUSH4 0x1E13380 DUP3 PUSH2 0x117B DUP7 DUP12 PUSH2 0x14CC JUMP JUMPDEST PUSH2 0x1185 SWAP2 SWAP1 PUSH2 0x14CC JUMP JUMPDEST PUSH2 0x118F SWAP2 SWAP1 PUSH2 0x14E3 JUMP JUMPDEST PUSH2 0x1199 SWAP2 SWAP1 PUSH2 0x14E3 JUMP JUMPDEST SWAP5 POP POP POP POP POP JUMPDEST SWAP4 SWAP3 POP POP POP JUMP JUMPDEST PUSH2 0x11AF PUSH2 0xEEB JUMP JUMPDEST PUSH1 0x1 PUSH1 0x1 PUSH1 0xA0 SHL SUB DUP2 AND PUSH2 0x11D9 JUMPI PUSH1 0x40 MLOAD PUSH4 0x1E4FBDF7 PUSH1 0xE0 SHL DUP2 MSTORE PUSH1 0x0 PUSH1 0x4 DUP3 ADD MSTORE PUSH1 0x24 ADD PUSH2 0x567 JUMP JUMPDEST PUSH2 0xCC5 DUP2 PUSH2 0xF18 JUMP JUMPDEST PUSH1 0x0 DUP1 PUSH32 0x0 PUSH1 0x1 PUSH1 0x1 PUSH1 0xA0 SHL SUB AND PUSH4 0x8E15F473 PUSH1 0x40 MLOAD DUP2 PUSH4 0xFFFFFFFF AND PUSH1 0xE0 SHL DUP2 MSTORE PUSH1 0x4 ADD PUSH1 0x20 PUSH1 0x40 MLOAD DUP1 DUP4 SUB DUP2 DUP7 GAS STATICCALL ISZERO DUP1 ISZERO PUSH2 0x1243 JUMPI RETURNDATASIZE PUSH1 0x0 DUP1 RETURNDATACOPY RETURNDATASIZE PUSH1 0x0 REVERT JUMPDEST POP POP POP POP PUSH1 0x40 MLOAD RETURNDATASIZE PUSH1 0x1F NOT PUSH1 0x1F DUP3 ADD AND DUP3 ADD DUP1 PUSH1 0x40 MSTORE POP DUP2 ADD SWAP1 PUSH2 0x1267 SWAP2 SWAP1 PUSH2 0x14F7 JUMP JUMPDEST SWAP1 POP PUSH1 0x0 DUP2 SGT PUSH2 0x1279 JUMPI PUSH1 0x0 SWAP2 POP POP SWAP1 JUMP JUMPDEST PUSH2 0x1285 PUSH1 0x2 PUSH1 0xC8 PUSH2 0x14E3 JUMP JUMPDEST SWAP2 POP POP SWAP1 JUMP JUMPDEST PUSH1 0x0 PUSH1 0x20 DUP3 DUP5 SUB SLT ISZERO PUSH2 0x129D JUMPI PUSH1 0x0 DUP1 REVERT JUMPDEST DUP2 CALLDATALOAD PUSH1 0x1 PUSH1 0x1 PUSH1 0xA0 SHL SUB DUP2 AND DUP2 EQ PUSH2 0x11A0 JUMPI PUSH1 0x0 DUP1 REVERT JUMPDEST PUSH4 0x4E487B71 PUSH1 0xE0 SHL PUSH1 0x0 MSTORE PUSH1 0x41 PUSH1 0x4 MSTORE PUSH1 0x24 PUSH1 0x0 REVERT JUMPDEST PUSH1 0x0 DUP1 PUSH1 0x40 DUP4 DUP6 SUB SLT ISZERO PUSH2 0x12DD JUMPI PUSH1 0x0 DUP1 REVERT JUMPDEST DUP3 CALLDATALOAD SWAP2 POP PUSH1 0x20 DUP4 ADD CALLDATALOAD PUSH8 0xFFFFFFFFFFFFFFFF DUP2 GT ISZERO PUSH2 0x12FB JUMPI PUSH1 0x0 DUP1 REVERT JUMPDEST DUP4 ADD PUSH1 0x1F DUP2 ADD DUP6 SGT PUSH2 0x130C JUMPI PUSH1 0x0 DUP1 REVERT JUMPDEST DUP1 CALLDATALOAD PUSH8 0xFFFFFFFFFFFFFFFF DUP2 GT ISZERO PUSH2 0x1326 JUMPI PUSH2 0x1326 PUSH2 0x12B4 JUMP JUMPDEST DUP1 PUSH1 0x5 SHL PUSH1 0x40 MLOAD PUSH1 0x1F NOT PUSH1 0x3F DUP4 ADD AND DUP2 ADD DUP2 DUP2 LT PUSH8 0xFFFFFFFFFFFFFFFF DUP3 GT OR ISZERO PUSH2 0x1353 JUMPI PUSH2 0x1353 PUSH2 0x12B4 JUMP JUMPDEST PUSH1 0x40 MSTORE SWAP2 DUP3 MSTORE PUSH1 0x20 DUP2 DUP5 ADD DUP2 ADD SWAP3 SWAP1 DUP2 ADD DUP9 DUP5 GT ISZERO PUSH2 0x1371 JUMPI PUSH1 0x0 DUP1 REVERT JUMPDEST PUSH1 0x20 DUP6 ADD SWAP5 POP JUMPDEST DUP4 DUP6 LT ISZERO PUSH2 0x1394 JUMPI DUP5 CALLDATALOAD DUP1 DUP3 MSTORE PUSH1 0x20 SWAP6 DUP7 ADD SWAP6 SWAP1 SWAP4 POP ADD PUSH2 0x1378 JUMP JUMPDEST POP DUP1 SWAP5 POP POP POP POP POP SWAP3 POP SWAP3 SWAP1 POP JUMP JUMPDEST PUSH1 0x0 PUSH1 0x20 DUP3 DUP5 SUB SLT ISZERO PUSH2 0x13B5 JUMPI PUSH1 0x0 DUP1 REVERT JUMPDEST POP CALLDATALOAD SWAP2 SWAP1 POP JUMP JUMPDEST PUSH1 0x0 DUP1 PUSH1 0x40 DUP4 DUP6 SUB SLT ISZERO PUSH2 0x13CF JUMPI PUSH1 0x0 DUP1 REVERT JUMPDEST DUP3 CALLDATALOAD PUSH4 0xFFFFFFFF DUP2 AND DUP2 EQ PUSH2 0x13E3 JUMPI PUSH1 0x0 DUP1 REVERT JUMPDEST SWAP2 POP PUSH1 0x20 DUP4 ADD CALLDATALOAD PUSH2 0xFFFF DUP2 AND DUP2 EQ PUSH2 0x13FA JUMPI PUSH1 0x0 DUP1 REVERT JUMPDEST DUP1 SWAP2 POP POP SWAP3 POP SWAP3 SWAP1 POP JUMP JUMPDEST PUSH4 0x4E487B71 PUSH1 0xE0 SHL PUSH1 0x0 MSTORE PUSH1 0x11 PUSH1 0x4 MSTORE PUSH1 0x24 PUSH1 0x0 REVERT JUMPDEST DUP2 DUP2 SUB DUP2 DUP2 GT ISZERO PUSH2 0x733 JUMPI PUSH2 0x733 PUSH2 0x1405 JUMP JUMPDEST PUSH1 0x0 PUSH1 0x20 DUP3 DUP5 SUB SLT ISZERO PUSH2 0x1440 JUMPI PUSH1 0x0 DUP1 REVERT JUMPDEST DUP2 MLOAD DUP1 ISZERO ISZERO DUP2 EQ PUSH2 0x11A0 JUMPI PUSH1 0x0 DUP1 REVERT JUMPDEST PUSH1 0x20 DUP1 DUP3 MSTORE PUSH1 0xF SWAP1 DUP3 ADD MSTORE PUSH15 0x151C985B9CD9995C8819985A5B1959 PUSH1 0x8A SHL PUSH1 0x40 DUP3 ADD MSTORE PUSH1 0x60 ADD SWAP1 JUMP JUMPDEST DUP1 DUP3 ADD DUP1 DUP3 GT ISZERO PUSH2 0x733 JUMPI PUSH2 0x733 PUSH2 0x1405 JUMP JUMPDEST PUSH4 0x4E487B71 PUSH1 0xE0 SHL PUSH1 0x0 MSTORE PUSH1 0x32 PUSH1 0x4 MSTORE PUSH1 0x24 PUSH1 0x0 REVERT JUMPDEST PUSH4 0x4E487B71 PUSH1 0xE0 SHL PUSH1 0x0 MSTORE PUSH1 0x12 PUSH1 0x4 MSTORE PUSH1 0x24 PUSH1 0x0 REVERT JUMPDEST PUSH1 0x0 DUP3 PUSH2 0x14C7 JUMPI PUSH2 0x14C7 PUSH2 0x14A2 JUMP JUMPDEST POP MOD SWAP1 JUMP JUMPDEST DUP1 DUP3 MUL DUP2 ISZERO DUP3 DUP3 DIV DUP5 EQ OR PUSH2 0x733 JUMPI PUSH2 0x733 PUSH2 0x1405 JUMP JUMPDEST PUSH1 0x0 DUP3 PUSH2 0x14F2 JUMPI PUSH2 0x14F2 PUSH2 0x14A2 JUMP JUMPDEST POP DIV SWAP1 JUMP JUMPDEST PUSH1 0x0 PUSH1 0x20 DUP3 DUP5 SUB SLT ISZERO PUSH2 0x1509 JUMPI PUSH1 0x0 DUP1 REVERT JUMPDEST POP MLOAD SWAP2 SWAP1 POP JUMP INVALID LOG2 PUSH5 0x6970667358 0x22 SLT KECCAK256 DUP13 CALL PUSH17 0x318D413CE7F08FB2D1CCA545F8D8B408A9 INVALID BLOBHASH COINBASE KECCAK256 SWAP11 0xE2 0xC1 0xEF 0xCC 0xD5 BLOBHASH SELFBALANCE PUSH5 0x736F6C6343 STOP ADDMOD SHR STOP CALLER "
		},
		"gasEstimates": {
			"creation": {
				"codeDepositCost": "1089200",
				"executionCost": "infinite",
				"totalCost": "infinite"
			},
			"external": {
				"BASE_APY()": "296",
				"COORDINATOR()": "infinite",
				"DAO_APY()": "274",
				"DAO_SUPERPOSITION_MAX()": "295",
				"DAO_SUPERPOSITION_MIN()": "296",
				"SUPERPOSITION_MAX()": "228",
				"SUPERPOSITION_MIN()": "231",
				"UPDATE_INTERVAL()": "230",
				"VOLATILITY_BONUS()": "229",
				"calculateReward(address)": "infinite",
				"callbackGasLimit()": "2381",
				"claimReward()": "infinite",
				"getStakedBalance(address)": "infinite",
				"getTotalValueLocked()": "2370",
				"keyHash()": "infinite",
				"numWords()": "2413",
				"oracle()": "infinite",
				"owner()": "2399",
				"quantumToken()": "infinite",
				"rawFulfillRandomWords(uint256,uint256[])": "infinite",
				"renounceOwnership()": "infinite",
				"requestConfirmations()": "2391",
				"requestToUser(uint256)": "2567",
				"stake(uint256)": "infinite",
				"stakeForDAO(uint256)": "infinite",
				"stakes(address)": "11119",
				"subscriptionId()": "infinite",
				"totalValueLocked()": "2372",
				"transferOwnership(address)": "infinite",
				"updateVRFParams(uint32,uint16)": "26839",
				"withdraw(uint256)": "infinite"
			},
			"internal": {
				"calculateReward(address,uint256,uint256)": "infinite",
				"fulfillRandomWords(uint256,uint256[] memory)": "infinite",
				"predictVolatility()": "infinite",
				"requestSuperpositionAPY(address)": "infinite",
				"updateStake(address)": "infinite"
			}
		},
		"methodIdentifiers": {
			"BASE_APY()": "4ca19fd6",
			"COORDINATOR()": "3b2bcbf1",
			"DAO_APY()": "27779748",
			"DAO_SUPERPOSITION_MAX()": "c75a0715",
			"DAO_SUPERPOSITION_MIN()": "9da378ab",
			"SUPERPOSITION_MAX()": "cb8b97f5",
			"SUPERPOSITION_MIN()": "07b2d32f",
			"UPDATE_INTERVAL()": "89ac4147",
			"VOLATILITY_BONUS()": "b8ed3aad",
			"calculateReward(address)": "d82e3962",
			"callbackGasLimit()": "24f74697",
			"claimReward()": "b88a802f",
			"getStakedBalance(address)": "3a02a42d",
			"getTotalValueLocked()": "b26025aa",
			"keyHash()": "61728f39",
			"numWords()": "7ccfd7fc",
			"oracle()": "7dc0d1d0",
			"owner()": "8da5cb5b",
			"quantumToken()": "93565b4c",
			"rawFulfillRandomWords(uint256,uint256[])": "1fe543e3",
			"renounceOwnership()": "715018a6",
			"requestConfirmations()": "b0fb162f",
			"requestToUser(uint256)": "3e2f7eb5",
			"stake(uint256)": "a694fc3a",
			"stakeForDAO(uint256)": "b94790a4",
			"stakes(address)": "16934fc4",
			"subscriptionId()": "09c1ba2e",
			"totalValueLocked()": "ec18154e",
			"transferOwnership(address)": "f2fde38b",
			"updateVRFParams(uint32,uint16)": "bae4e530",
			"withdraw(uint256)": "2e1a7d4d"
		}
	},
	"abi": [
		{
			"inputs": [
				{
					"internalType": "address",
					"name": "_quantumToken",
					"type": "address"
				},
				{
					"internalType": "address",
					"name": "_oracle",
					"type": "address"
				},
				{
					"internalType": "address",
					"name": "_vrfCoordinator",
					"type": "address"
				},
				{
					"internalType": "bytes32",
					"name": "_keyHash",
					"type": "bytes32"
				},
				{
					"internalType": "uint64",
					"name": "_subscriptionId",
					"type": "uint64"
				},
				{
					"internalType": "address",
					"name": "initialOwner",
					"type": "address"
				}
			],
			"stateMutability": "nonpayable",
			"type": "constructor"
		},
		{
			"inputs": [
				{
					"internalType": "address",
					"name": "have",
					"type": "address"
				},
				{
					"internalType": "address",
					"name": "want",
					"type": "address"
				}
			],
			"name": "OnlyCoordinatorCanFulfill",
			"type": "error"
		},
		{
			"inputs": [
				{
					"internalType": "address",
					"name": "owner",
					"type": "address"
				}
			],
			"name": "OwnableInvalidOwner",
			"type": "error"
		},
		{
			"inputs": [
				{
					"internalType": "address",
					"name": "account",
					"type": "address"
				}
			],
			"name": "OwnableUnauthorizedAccount",
			"type": "error"
		},
		{
			"anonymous": false,
			"inputs": [
				{
					"indexed": true,
					"internalType": "address",
					"name": "user",
					"type": "address"
				},
				{
					"indexed": false,
					"internalType": "uint256",
					"name": "newAPY",
					"type": "uint256"
				}
			],
			"name": "APYUpdated",
			"type": "event"
		},
		{
			"anonymous": false,
			"inputs": [
				{
					"indexed": true,
					"internalType": "address",
					"name": "previousOwner",
					"type": "address"
				},
				{
					"indexed": true,
					"internalType": "address",
					"name": "newOwner",
					"type": "address"
				}
			],
			"name": "OwnershipTransferred",
			"type": "event"
		},
		{
			"anonymous": false,
			"inputs": [
				{
					"indexed": true,
					"internalType": "address",
					"name": "user",
					"type": "address"
				},
				{
					"indexed": false,
					"internalType": "uint256",
					"name": "requestId",
					"type": "uint256"
				}
			],
			"name": "RandomAPYRequested",
			"type": "event"
		},
		{
			"anonymous": false,
			"inputs": [
				{
					"indexed": true,
					"internalType": "address",
					"name": "user",
					"type": "address"
				},
				{
					"indexed": false,
					"internalType": "uint256",
					"name": "amount",
					"type": "uint256"
				}
			],
			"name": "RewardClaimed",
			"type": "event"
		},
		{
			"anonymous": false,
			"inputs": [
				{
					"indexed": true,
					"internalType": "address",
					"name": "user",
					"type": "address"
				},
				{
					"indexed": false,
					"internalType": "uint256",
					"name": "amount",
					"type": "uint256"
				},
				{
					"indexed": false,
					"internalType": "bool",
					"name": "isDAO",
					"type": "bool"
				}
			],
			"name": "Staked",
			"type": "event"
		},
		{
			"anonymous": false,
			"inputs": [
				{
					"indexed": true,
					"internalType": "address",
					"name": "user",
					"type": "address"
				},
				{
					"indexed": false,
					"internalType": "uint256",
					"name": "amount",
					"type": "uint256"
				}
			],
			"name": "Withdrawn",
			"type": "event"
		},
		{
			"inputs": [],
			"name": "BASE_APY",
			"outputs": [
				{
					"internalType": "uint256",
					"name": "",
					"type": "uint256"
				}
			],
			"stateMutability": "view",
			"type": "function"
		},
		{
			"inputs": [],
			"name": "COORDINATOR",
			"outputs": [
				{
					"internalType": "contract VRFCoordinatorV2Interface",
					"name": "",
					"type": "address"
				}
			],
			"stateMutability": "view",
			"type": "function"
		},
		{
			"inputs": [],
			"name": "DAO_APY",
			"outputs": [
				{
					"internalType": "uint256",
					"name": "",
					"type": "uint256"
				}
			],
			"stateMutability": "view",
			"type": "function"
		},
		{
			"inputs": [],
			"name": "DAO_SUPERPOSITION_MAX",
			"outputs": [
				{
					"internalType": "uint256",
					"name": "",
					"type": "uint256"
				}
			],
			"stateMutability": "view",
			"type": "function"
		},
		{
			"inputs": [],
			"name": "DAO_SUPERPOSITION_MIN",
			"outputs": [
				{
					"internalType": "uint256",
					"name": "",
					"type": "uint256"
				}
			],
			"stateMutability": "view",
			"type": "function"
		},
		{
			"inputs": [],
			"name": "SUPERPOSITION_MAX",
			"outputs": [
				{
					"internalType": "uint256",
					"name": "",
					"type": "uint256"
				}
			],
			"stateMutability": "view",
			"type": "function"
		},
		{
			"inputs": [],
			"name": "SUPERPOSITION_MIN",
			"outputs": [
				{
					"internalType": "uint256",
					"name": "",
					"type": "uint256"
				}
			],
			"stateMutability": "view",
			"type": "function"
		},
		{
			"inputs": [],
			"name": "UPDATE_INTERVAL",
			"outputs": [
				{
					"internalType": "uint256",
					"name": "",
					"type": "uint256"
				}
			],
			"stateMutability": "view",
			"type": "function"
		},
		{
			"inputs": [],
			"name": "VOLATILITY_BONUS",
			"outputs": [
				{
					"internalType": "uint256",
					"name": "",
					"type": "uint256"
				}
			],
			"stateMutability": "view",
			"type": "function"
		},
		{
			"inputs": [
				{
					"internalType": "address",
					"name": "user",
					"type": "address"
				}
			],
			"name": "calculateReward",
			"outputs": [
				{
					"internalType": "uint256",
					"name": "",
					"type": "uint256"
				}
			],
			"stateMutability": "view",
			"type": "function"
		},
		{
			"inputs": [],
			"name": "callbackGasLimit",
			"outputs": [
				{
					"internalType": "uint32",
					"name": "",
					"type": "uint32"
				}
			],
			"stateMutability": "view",
			"type": "function"
		},
		{
			"inputs": [],
			"name": "claimReward",
			"outputs": [],
			"stateMutability": "nonpayable",
			"type": "function"
		},
		{
			"inputs": [
				{
					"internalType": "address",
					"name": "user",
					"type": "address"
				}
			],
			"name": "getStakedBalance",
			"outputs": [
				{
					"internalType": "uint256",
					"name": "",
					"type": "uint256"
				}
			],
			"stateMutability": "view",
			"type": "function"
		},
		{
			"inputs": [],
			"name": "getTotalValueLocked",
			"outputs": [
				{
					"internalType": "uint256",
					"name": "",
					"type": "uint256"
				}
			],
			"stateMutability": "view",
			"type": "function"
		},
		{
			"inputs": [],
			"name": "keyHash",
			"outputs": [
				{
					"internalType": "bytes32",
					"name": "",
					"type": "bytes32"
				}
			],
			"stateMutability": "view",
			"type": "function"
		},
		{
			"inputs": [],
			"name": "numWords",
			"outputs": [
				{
					"internalType": "uint32",
					"name": "",
					"type": "uint32"
				}
			],
			"stateMutability": "view",
			"type": "function"
		},
		{
			"inputs": [],
			"name": "oracle",
			"outputs": [
				{
					"internalType": "contract IUBI4ALLOracle",
					"name": "",
					"type": "address"
				}
			],
			"stateMutability": "view",
			"type": "function"
		},
		{
			"inputs": [],
			"name": "owner",
			"outputs": [
				{
					"internalType": "address",
					"name": "",
					"type": "address"
				}
			],
			"stateMutability": "view",
			"type": "function"
		},
		{
			"inputs": [],
			"name": "quantumToken",
			"outputs": [
				{
					"internalType": "contract IUBI4ALLQuantum",
					"name": "",
					"type": "address"
				}
			],
			"stateMutability": "view",
			"type": "function"
		},
		{
			"inputs": [
				{
					"internalType": "uint256",
					"name": "requestId",
					"type": "uint256"
				},
				{
					"internalType": "uint256[]",
					"name": "randomWords",
					"type": "uint256[]"
				}
			],
			"name": "rawFulfillRandomWords",
			"outputs": [],
			"stateMutability": "nonpayable",
			"type": "function"
		},
		{
			"inputs": [],
			"name": "renounceOwnership",
			"outputs": [],
			"stateMutability": "nonpayable",
			"type": "function"
		},
		{
			"inputs": [],
			"name": "requestConfirmations",
			"outputs": [
				{
					"internalType": "uint16",
					"name": "",
					"type": "uint16"
				}
			],
			"stateMutability": "view",
			"type": "function"
		},
		{
			"inputs": [
				{
					"internalType": "uint256",
					"name": "",
					"type": "uint256"
				}
			],
			"name": "requestToUser",
			"outputs": [
				{
					"internalType": "address",
					"name": "",
					"type": "address"
				}
			],
			"stateMutability": "view",
			"type": "function"
		},
		{
			"inputs": [
				{
					"internalType": "uint256",
					"name": "amount",
					"type": "uint256"
				}
			],
			"name": "stake",
			"outputs": [],
			"stateMutability": "nonpayable",
			"type": "function"
		},
		{
			"inputs": [
				{
					"internalType": "uint256",
					"name": "amount",
					"type": "uint256"
				}
			],
			"name": "stakeForDAO",
			"outputs": [],
			"stateMutability": "nonpayable",
			"type": "function"
		},
		{
			"inputs": [
				{
					"internalType": "address",
					"name": "",
					"type": "address"
				}
			],
			"name": "stakes",
			"outputs": [
				{
					"internalType": "uint256",
					"name": "amount",
					"type": "uint256"
				},
				{
					"internalType": "uint256",
					"name": "daoAmount",
					"type": "uint256"
				},
				{
					"internalType": "uint256",
					"name": "lastUpdate",
					"type": "uint256"
				},
				{
					"internalType": "uint256",
					"name": "accumulatedReward",
					"type": "uint256"
				},
				{
					"internalType": "uint256",
					"name": "currentAPY",
					"type": "uint256"
				}
			],
			"stateMutability": "view",
			"type": "function"
		},
		{
			"inputs": [],
			"name": "subscriptionId",
			"outputs": [
				{
					"internalType": "uint64",
					"name": "",
					"type": "uint64"
				}
			],
			"stateMutability": "view",
			"type": "function"
		},
		{
			"inputs": [],
			"name": "totalValueLocked",
			"outputs": [
				{
					"internalType": "uint256",
					"name": "",
					"type": "uint256"
				}
			],
			"stateMutability": "view",
			"type": "function"
		},
		{
			"inputs": [
				{
					"internalType": "address",
					"name": "newOwner",
					"type": "address"
				}
			],
			"name": "transferOwnership",
			"outputs": [],
			"stateMutability": "nonpayable",
			"type": "function"
		},
		{
			"inputs": [
				{
					"internalType": "uint32",
					"name": "_callbackGasLimit",
					"type": "uint32"
				},
				{
					"internalType": "uint16",
					"name": "_requestConfirmations",
					"type": "uint16"
				}
			],
			"name": "updateVRFParams",
			"outputs": [],
			"stateMutability": "nonpayable",
			"type": "function"
		},
		{
			"inputs": [
				{
					"internalType": "uint256",
					"name": "amount",
					"type": "uint256"
				}
			],
			"name": "withdraw",
			"outputs": [],
			"stateMutability": "nonpayable",
			"type": "function"
		}
	]
}