{
	"governance/UBI4ALLDAO.sol": {
		"UBI4ALLDAO": {
			"abi": [
				{
					"inputs": [
						{
							"internalType": "address",
							"name": "_ubi4allToken",
							"type": "address"
						},
						{
							"internalType": "address",
							"name": "initialOwner",
							"type": "address"
						}
					],
					"stateMutability": "nonpayable",
					"type": "constructor"
				},
				{
					"inputs": [
						{
							"internalType": "address",
							"name": "owner",
							"type": "address"
						}
					],
					"name": "OwnableInvalidOwner",
					"type": "error"
				},
				{
					"inputs": [
						{
							"internalType": "address",
							"name": "account",
							"type": "address"
						}
					],
					"name": "OwnableUnauthorizedAccount",
					"type": "error"
				},
				{
					"anonymous": false,
					"inputs": [
						{
							"indexed": true,
							"internalType": "address",
							"name": "previousOwner",
							"type": "address"
						},
						{
							"indexed": true,
							"internalType": "address",
							"name": "newOwner",
							"type": "address"
						}
					],
					"name": "OwnershipTransferred",
					"type": "event"
				},
				{
					"anonymous": false,
					"inputs": [
						{
							"indexed": false,
							"internalType": "uint256",
							"name": "proposalId",
							"type": "uint256"
						},
						{
							"indexed": false,
							"internalType": "string",
							"name": "description",
							"type": "string"
						},
						{
							"indexed": false,
							"internalType": "uint256",
							"name": "endTime",
							"type": "uint256"
						}
					],
					"name": "ProposalCreated",
					"type": "event"
				},
				{
					"anonymous": false,
					"inputs": [
						{
							"indexed": false,
							"internalType": "uint256",
							"name": "proposalId",
							"type": "uint256"
						}
					],
					"name": "ProposalExecuted",
					"type": "event"
				},
				{
					"anonymous": false,
					"inputs": [
						{
							"indexed": false,
							"internalType": "uint256",
							"name": "proposalId",
							"type": "uint256"
						},
						{
							"indexed": false,
							"internalType": "address",
							"name": "voter",
							"type": "address"
						},
						{
							"indexed": false,
							"internalType": "bool",
							"name": "support",
							"type": "bool"
						}
					],
					"name": "Voted",
					"type": "event"
				},
				{
					"inputs": [],
					"name": "VOTING_DURATION",
					"outputs": [
						{
							"internalType": "uint256",
							"name": "",
							"type": "uint256"
						}
					],
					"stateMutability": "view",
					"type": "function"
				},
				{
					"inputs": [
						{
							"internalType": "string",
							"name": "description",
							"type": "string"
						}
					],
					"name": "createProposal",
					"outputs": [],
					"stateMutability": "nonpayable",
					"type": "function"
				},
				{
					"inputs": [
						{
							"internalType": "uint256",
							"name": "proposalId",
							"type": "uint256"
						}
					],
					"name": "executeProposal",
					"outputs": [],
					"stateMutability": "nonpayable",
					"type": "function"
				},
				{
					"inputs": [
						{
							"internalType": "address",
							"name": "",
							"type": "address"
						},
						{
							"internalType": "uint256",
							"name": "",
							"type": "uint256"
						}
					],
					"name": "hasVoted",
					"outputs": [
						{
							"internalType": "bool",
							"name": "",
							"type": "bool"
						}
					],
					"stateMutability": "view",
					"type": "function"
				},
				{
					"inputs": [],
					"name": "owner",
					"outputs": [
						{
							"internalType": "address",
							"name": "",
							"type": "address"
						}
					],
					"stateMutability": "view",
					"type": "function"
				},
				{
					"inputs": [],
					"name": "proposalCount",
					"outputs": [
						{
							"internalType": "uint256",
							"name": "",
							"type": "uint256"
						}
					],
					"stateMutability": "view",
					"type": "function"
				},
				{
					"inputs": [
						{
							"internalType": "uint256",
							"name": "",
							"type": "uint256"
						}
					],
					"name": "proposals",
					"outputs": [
						{
							"internalType": "uint256",
							"name": "id",
							"type": "uint256"
						},
						{
							"internalType": "string",
							"name": "description",
							"type": "string"
						},
						{
							"internalType": "uint256",
							"name": "votesFor",
							"type": "uint256"
						},
						{
							"internalType": "uint256",
							"name": "votesAgainst",
							"type": "uint256"
						},
						{
							"internalType": "bool",
							"name": "executed",
							"type": "bool"
						},
						{
							"internalType": "uint256",
							"name": "endTime",
							"type": "uint256"
						}
					],
					"stateMutability": "view",
					"type": "function"
				},
				{
					"inputs": [],
					"name": "renounceOwnership",
					"outputs": [],
					"stateMutability": "nonpayable",
					"type": "function"
				},
				{
					"inputs": [
						{
							"internalType": "address",
							"name": "newOwner",
							"type": "address"
						}
					],
					"name": "transferOwnership",
					"outputs": [],
					"stateMutability": "nonpayable",
					"type": "function"
				},
				{
					"inputs": [],
					"name": "ubi4allToken",
					"outputs": [
						{
							"internalType": "contract IERC20",
							"name": "",
							"type": "address"
						}
					],
					"stateMutability": "view",
					"type": "function"
				},
				{
					"inputs": [
						{
							"internalType": "uint256",
							"name": "proposalId",
							"type": "uint256"
						},
						{
							"internalType": "bool",
							"name": "support",
							"type": "bool"
						}
					],
					"name": "vote",
					"outputs": [],
					"stateMutability": "nonpayable",
					"type": "function"
				}
			],
			"devdoc": {
				"errors": {
					"OwnableInvalidOwner(address)": [
						{
							"details": "The owner is not a valid owner account. (eg. `address(0)`)"
						}
					],
					"OwnableUnauthorizedAccount(address)": [
						{
							"details": "The caller account is not authorized to perform an operation."
						}
					]
				},
				"kind": "dev",
				"methods": {
					"owner()": {
						"details": "Returns the address of the current owner."
					},
					"renounceOwnership()": {
						"details": "Leaves the contract without owner. It will not be possible to call `onlyOwner` functions. Can only be called by the current owner. NOTE: Renouncing ownership will leave the contract without an owner, thereby disabling any functionality that is only available to the owner."
					},
					"transferOwnership(address)": {
						"details": "Transfers ownership of the contract to a new account (`newOwner`). Can only be called by the current owner."
					}
				},
				"version": 1
			},
			"evm": {
				"assembly": "    /* \"governance/UBI4ALLDAO.sol\":169:2643  contract UBI4ALLDAO is Ownable {... */\n  mstore(0x40, 0x80)\n    /* \"governance/UBI4ALLDAO.sol\":825:1020  constructor(address _ubi4allToken, address initialOwner) Ownable(initialOwner) {... */\n  callvalue\n  dup1\n  iszero\n  tag_1\n  jumpi\n  revert(0x00, 0x00)\ntag_1:\n  pop\n  mload(0x40)\n  sub(codesize, bytecodeSize)\n  dup1\n  bytecodeSize\n  dup4\n  codecopy\n  dup2\n  dup2\n  add\n  0x40\n  mstore\n  dup2\n  add\n  swap1\n  tag_2\n  swap2\n  swap1\n  tag_3\n  jump\t// in\ntag_2:\n    /* \"governance/UBI4ALLDAO.sol\":890:902  initialOwner */\n  dup1\n    /* \"@openzeppelin/contracts/access/Ownable.sol\":1297:1298  0 */\n  0x00\n    /* \"@openzeppelin/contracts/access/Ownable.sol\":1273:1299  initialOwner == address(0) */\n  0xffffffffffffffffffffffffffffffffffffffff\n  and\n    /* \"@openzeppelin/contracts/access/Ownable.sol\":1273:1285  initialOwner */\n  dup2\n    /* \"@openzeppelin/contracts/access/Ownable.sol\":1273:1299  initialOwner == address(0) */\n  0xffffffffffffffffffffffffffffffffffffffff\n  and\n  sub\n    /* \"@openzeppelin/contracts/access/Ownable.sol\":1269:1364  if (initialOwner == address(0)) {... */\n  tag_7\n  jumpi\n    /* \"@openzeppelin/contracts/access/Ownable.sol\":1350:1351  0 */\n  0x00\n    /* \"@openzeppelin/contracts/access/Ownable.sol\":1322:1353  OwnableInvalidOwner(address(0)) */\n  mload(0x40)\n  0x1e4fbdf700000000000000000000000000000000000000000000000000000000\n  dup2\n  mstore\n  0x04\n  add\n  tag_8\n  swap2\n  swap1\n  tag_9\n  jump\t// in\ntag_8:\n  mload(0x40)\n  dup1\n  swap2\n  sub\n  swap1\n  revert\n    /* \"@openzeppelin/contracts/access/Ownable.sol\":1269:1364  if (initialOwner == address(0)) {... */\ntag_7:\n    /* \"@openzeppelin/contracts/access/Ownable.sol\":1373:1405  _transferOwnership(initialOwner) */\n  tag_10\n    /* \"@openzeppelin/contracts/access/Ownable.sol\":1392:1404  initialOwner */\n  dup2\n    /* \"@openzeppelin/contracts/access/Ownable.sol\":1373:1391  _transferOwnership */\n  shl(0x20, tag_11)\n    /* \"@openzeppelin/contracts/access/Ownable.sol\":1373:1405  _transferOwnership(initialOwner) */\n  0x20\n  shr\n  jump\t// in\ntag_10:\n    /* \"@openzeppelin/contracts/access/Ownable.sol\":1225:1412  constructor(address initialOwner) {... */\n  pop\n    /* \"governance/UBI4ALLDAO.sol\":947:948  0 */\n  0x00\n    /* \"governance/UBI4ALLDAO.sol\":922:949  _ubi4allToken != address(0) */\n  0xffffffffffffffffffffffffffffffffffffffff\n  and\n    /* \"governance/UBI4ALLDAO.sol\":922:935  _ubi4allToken */\n  dup3\n    /* \"governance/UBI4ALLDAO.sol\":922:949  _ubi4allToken != address(0) */\n  0xffffffffffffffffffffffffffffffffffffffff\n  and\n  sub\n    /* \"governance/UBI4ALLDAO.sol\":914:967  require(_ubi4allToken != address(0), \"Invalid token\") */\n  tag_13\n  jumpi\n  mload(0x40)\n  0x08c379a000000000000000000000000000000000000000000000000000000000\n  dup2\n  mstore\n  0x04\n  add\n  tag_14\n  swap1\n  tag_15\n  jump\t// in\ntag_14:\n  mload(0x40)\n  dup1\n  swap2\n  sub\n  swap1\n  revert\ntag_13:\n    /* \"governance/UBI4ALLDAO.sol\":999:1012  _ubi4allToken */\n  dup2\n    /* \"governance/UBI4ALLDAO.sol\":977:989  ubi4allToken */\n  0x01\n  0x00\n    /* \"governance/UBI4ALLDAO.sol\":977:1013  ubi4allToken = IERC20(_ubi4allToken) */\n  0x0100\n  exp\n  dup2\n  sload\n  dup2\n  0xffffffffffffffffffffffffffffffffffffffff\n  mul\n  not\n  and\n  swap1\n  dup4\n  0xffffffffffffffffffffffffffffffffffffffff\n  and\n  mul\n  or\n  swap1\n  sstore\n  pop\n    /* \"governance/UBI4ALLDAO.sol\":825:1020  constructor(address _ubi4allToken, address initialOwner) Ownable(initialOwner) {... */\n  pop\n  pop\n    /* \"governance/UBI4ALLDAO.sol\":169:2643  contract UBI4ALLDAO is Ownable {... */\n  jump(tag_16)\n    /* \"@openzeppelin/contracts/access/Ownable.sol\":2912:3099  function _transferOwnership(address newOwner) internal virtual {... */\ntag_11:\n    /* \"@openzeppelin/contracts/access/Ownable.sol\":2985:3001  address oldOwner */\n  0x00\n    /* \"@openzeppelin/contracts/access/Ownable.sol\":3004:3010  _owner */\n  0x00\n  0x00\n  swap1\n  sload\n  swap1\n  0x0100\n  exp\n  swap1\n  div\n  0xffffffffffffffffffffffffffffffffffffffff\n  and\n    /* \"@openzeppelin/contracts/access/Ownable.sol\":2985:3010  address oldOwner = _owner */\n  swap1\n  pop\n    /* \"@openzeppelin/contracts/access/Ownable.sol\":3029:3037  newOwner */\n  dup2\n    /* \"@openzeppelin/contracts/access/Ownable.sol\":3020:3026  _owner */\n  0x00\n  0x00\n    /* \"@openzeppelin/contracts/access/Ownable.sol\":3020:3037  _owner = newOwner */\n  0x0100\n  exp\n  dup2\n  sload\n  dup2\n  0xffffffffffffffffffffffffffffffffffffffff\n  mul\n  not\n  and\n  swap1\n  dup4\n  0xffffffffffffffffffffffffffffffffffffffff\n  and\n  mul\n  or\n  swap1\n  sstore\n  pop\n    /* \"@openzeppelin/contracts/access/Ownable.sol\":3083:3091  newOwner */\n  dup2\n    /* \"@openzeppelin/contracts/access/Ownable.sol\":3052:3092  OwnershipTransferred(oldOwner, newOwner) */\n  0xffffffffffffffffffffffffffffffffffffffff\n  and\n    /* \"@openzeppelin/contracts/access/Ownable.sol\":3073:3081  oldOwner */\n  dup2\n    /* \"@openzeppelin/contracts/access/Ownable.sol\":3052:3092  OwnershipTransferred(oldOwner, newOwner) */\n  0xffffffffffffffffffffffffffffffffffffffff\n  and\n  0x8be0079c531659141344cd1fd0a4f28419497f9722a3daafe3b4186f6b6457e0\n  mload(0x40)\n  mload(0x40)\n  dup1\n  swap2\n  sub\n  swap1\n  log3\n    /* \"@openzeppelin/contracts/access/Ownable.sol\":2975:3099  {... */\n  pop\n    /* \"@openzeppelin/contracts/access/Ownable.sol\":2912:3099  function _transferOwnership(address newOwner) internal virtual {... */\n  pop\n  jump\t// out\n    /* \"#utility.yul\":88:205   */\ntag_19:\n    /* \"#utility.yul\":197:198   */\n  0x00\n    /* \"#utility.yul\":194:195   */\n  0x00\n    /* \"#utility.yul\":187:199   */\n  revert\n    /* \"#utility.yul\":334:460   */\ntag_21:\n    /* \"#utility.yul\":371:378   */\n  0x00\n    /* \"#utility.yul\":411:453   */\n  0xffffffffffffffffffffffffffffffffffffffff\n    /* \"#utility.yul\":404:409   */\n  dup3\n    /* \"#utility.yul\":400:454   */\n  and\n    /* \"#utility.yul\":389:454   */\n  swap1\n  pop\n    /* \"#utility.yul\":334:460   */\n  swap2\n  swap1\n  pop\n  jump\t// out\n    /* \"#utility.yul\":466:562   */\ntag_22:\n    /* \"#utility.yul\":503:510   */\n  0x00\n    /* \"#utility.yul\":532:556   */\n  tag_35\n    /* \"#utility.yul\":550:555   */\n  dup3\n    /* \"#utility.yul\":532:556   */\n  tag_21\n  jump\t// in\ntag_35:\n    /* \"#utility.yul\":521:556   */\n  swap1\n  pop\n    /* \"#utility.yul\":466:562   */\n  swap2\n  swap1\n  pop\n  jump\t// out\n    /* \"#utility.yul\":568:690   */\ntag_23:\n    /* \"#utility.yul\":641:665   */\n  tag_37\n    /* \"#utility.yul\":659:664   */\n  dup2\n    /* \"#utility.yul\":641:665   */\n  tag_22\n  jump\t// in\ntag_37:\n    /* \"#utility.yul\":634:639   */\n  dup2\n    /* \"#utility.yul\":631:666   */\n  eq\n    /* \"#utility.yul\":621:684   */\n  tag_38\n  jumpi\n    /* \"#utility.yul\":680:681   */\n  0x00\n    /* \"#utility.yul\":677:678   */\n  0x00\n    /* \"#utility.yul\":670:682   */\n  revert\n    /* \"#utility.yul\":621:684   */\ntag_38:\n    /* \"#utility.yul\":568:690   */\n  pop\n  jump\t// out\n    /* \"#utility.yul\":696:839   */\ntag_24:\n    /* \"#utility.yul\":753:758   */\n  0x00\n    /* \"#utility.yul\":784:790   */\n  dup2\n    /* \"#utility.yul\":778:791   */\n  mload\n    /* \"#utility.yul\":769:791   */\n  swap1\n  pop\n    /* \"#utility.yul\":800:833   */\n  tag_40\n    /* \"#utility.yul\":827:832   */\n  dup2\n    /* \"#utility.yul\":800:833   */\n  tag_23\n  jump\t// in\ntag_40:\n    /* \"#utility.yul\":696:839   */\n  swap3\n  swap2\n  pop\n  pop\n  jump\t// out\n    /* \"#utility.yul\":845:1352   */\ntag_3:\n    /* \"#utility.yul\":924:930   */\n  0x00\n    /* \"#utility.yul\":932:938   */\n  0x00\n    /* \"#utility.yul\":981:983   */\n  0x40\n    /* \"#utility.yul\":969:978   */\n  dup4\n    /* \"#utility.yul\":960:967   */\n  dup6\n    /* \"#utility.yul\":956:979   */\n  sub\n    /* \"#utility.yul\":952:984   */\n  slt\n    /* \"#utility.yul\":949:1068   */\n  iszero\n  tag_42\n  jumpi\n    /* \"#utility.yul\":987:1066   */\n  tag_43\n  tag_19\n  jump\t// in\ntag_43:\n    /* \"#utility.yul\":949:1068   */\ntag_42:\n    /* \"#utility.yul\":1107:1108   */\n  0x00\n    /* \"#utility.yul\":1132:1196   */\n  tag_44\n    /* \"#utility.yul\":1188:1195   */\n  dup6\n    /* \"#utility.yul\":1179:1185   */\n  dup3\n    /* \"#utility.yul\":1168:1177   */\n  dup7\n    /* \"#utility.yul\":1164:1186   */\n  add\n    /* \"#utility.yul\":1132:1196   */\n  tag_24\n  jump\t// in\ntag_44:\n    /* \"#utility.yul\":1122:1196   */\n  swap3\n  pop\n    /* \"#utility.yul\":1078:1206   */\n  pop\n    /* \"#utility.yul\":1245:1247   */\n  0x20\n    /* \"#utility.yul\":1271:1335   */\n  tag_45\n    /* \"#utility.yul\":1327:1334   */\n  dup6\n    /* \"#utility.yul\":1318:1324   */\n  dup3\n    /* \"#utility.yul\":1307:1316   */\n  dup7\n    /* \"#utility.yul\":1303:1325   */\n  add\n    /* \"#utility.yul\":1271:1335   */\n  tag_24\n  jump\t// in\ntag_45:\n    /* \"#utility.yul\":1261:1335   */\n  swap2\n  pop\n    /* \"#utility.yul\":1216:1345   */\n  pop\n    /* \"#utility.yul\":845:1352   */\n  swap3\n  pop\n  swap3\n  swap1\n  pop\n  jump\t// out\n    /* \"#utility.yul\":1358:1476   */\ntag_25:\n    /* \"#utility.yul\":1445:1469   */\n  tag_47\n    /* \"#utility.yul\":1463:1468   */\n  dup2\n    /* \"#utility.yul\":1445:1469   */\n  tag_22\n  jump\t// in\ntag_47:\n    /* \"#utility.yul\":1440:1443   */\n  dup3\n    /* \"#utility.yul\":1433:1470   */\n  mstore\n    /* \"#utility.yul\":1358:1476   */\n  pop\n  pop\n  jump\t// out\n    /* \"#utility.yul\":1482:1704   */\ntag_9:\n    /* \"#utility.yul\":1575:1579   */\n  0x00\n    /* \"#utility.yul\":1613:1615   */\n  0x20\n    /* \"#utility.yul\":1602:1611   */\n  dup3\n    /* \"#utility.yul\":1598:1616   */\n  add\n    /* \"#utility.yul\":1590:1616   */\n  swap1\n  pop\n    /* \"#utility.yul\":1626:1697   */\n  tag_49\n    /* \"#utility.yul\":1694:1695   */\n  0x00\n    /* \"#utility.yul\":1683:1692   */\n  dup4\n    /* \"#utility.yul\":1679:1696   */\n  add\n    /* \"#utility.yul\":1670:1676   */\n  dup5\n    /* \"#utility.yul\":1626:1697   */\n  tag_25\n  jump\t// in\ntag_49:\n    /* \"#utility.yul\":1482:1704   */\n  swap3\n  swap2\n  pop\n  pop\n  jump\t// out\n    /* \"#utility.yul\":1710:1879   */\ntag_26:\n    /* \"#utility.yul\":1794:1805   */\n  0x00\n    /* \"#utility.yul\":1828:1834   */\n  dup3\n    /* \"#utility.yul\":1823:1826   */\n  dup3\n    /* \"#utility.yul\":1816:1835   */\n  mstore\n    /* \"#utility.yul\":1868:1872   */\n  0x20\n    /* \"#utility.yul\":1863:1866   */\n  dup3\n    /* \"#utility.yul\":1859:1873   */\n  add\n    /* \"#utility.yul\":1844:1873   */\n  swap1\n  pop\n    /* \"#utility.yul\":1710:1879   */\n  swap3\n  swap2\n  pop\n  pop\n  jump\t// out\n    /* \"#utility.yul\":1885:2048   */\ntag_27:\n    /* \"#utility.yul\":2025:2040   */\n  0x496e76616c696420746f6b656e00000000000000000000000000000000000000\n    /* \"#utility.yul\":2021:2022   */\n  0x00\n    /* \"#utility.yul\":2013:2019   */\n  dup3\n    /* \"#utility.yul\":2009:2023   */\n  add\n    /* \"#utility.yul\":2002:2041   */\n  mstore\n    /* \"#utility.yul\":1885:2048   */\n  pop\n  jump\t// out\n    /* \"#utility.yul\":2054:2420   */\ntag_28:\n    /* \"#utility.yul\":2196:2199   */\n  0x00\n    /* \"#utility.yul\":2217:2284   */\n  tag_53\n    /* \"#utility.yul\":2281:2283   */\n  0x0d\n    /* \"#utility.yul\":2276:2279   */\n  dup4\n    /* \"#utility.yul\":2217:2284   */\n  tag_26\n  jump\t// in\ntag_53:\n    /* \"#utility.yul\":2210:2284   */\n  swap2\n  pop\n    /* \"#utility.yul\":2293:2386   */\n  tag_54\n    /* \"#utility.yul\":2382:2385   */\n  dup3\n    /* \"#utility.yul\":2293:2386   */\n  tag_27\n  jump\t// in\ntag_54:\n    /* \"#utility.yul\":2411:2413   */\n  0x20\n    /* \"#utility.yul\":2406:2409   */\n  dup3\n    /* \"#utility.yul\":2402:2414   */\n  add\n    /* \"#utility.yul\":2395:2414   */\n  swap1\n  pop\n    /* \"#utility.yul\":2054:2420   */\n  swap2\n  swap1\n  pop\n  jump\t// out\n    /* \"#utility.yul\":2426:2845   */\ntag_15:\n    /* \"#utility.yul\":2592:2596   */\n  0x00\n    /* \"#utility.yul\":2630:2632   */\n  0x20\n    /* \"#utility.yul\":2619:2628   */\n  dup3\n    /* \"#utility.yul\":2615:2633   */\n  add\n    /* \"#utility.yul\":2607:2633   */\n  swap1\n  pop\n    /* \"#utility.yul\":2679:2688   */\n  dup2\n    /* \"#utility.yul\":2673:2677   */\n  dup2\n    /* \"#utility.yul\":2669:2689   */\n  sub\n    /* \"#utility.yul\":2665:2666   */\n  0x00\n    /* \"#utility.yul\":2654:2663   */\n  dup4\n    /* \"#utility.yul\":2650:2667   */\n  add\n    /* \"#utility.yul\":2643:2690   */\n  mstore\n    /* \"#utility.yul\":2707:2838   */\n  tag_56\n    /* \"#utility.yul\":2833:2837   */\n  dup2\n    /* \"#utility.yul\":2707:2838   */\n  tag_28\n  jump\t// in\ntag_56:\n    /* \"#utility.yul\":2699:2838   */\n  swap1\n  pop\n    /* \"#utility.yul\":2426:2845   */\n  swap2\n  swap1\n  pop\n  jump\t// out\n    /* \"governance/UBI4ALLDAO.sol\":169:2643  contract UBI4ALLDAO is Ownable {... */\ntag_16:\n  dataSize(sub_0)\n  dup1\n  dataOffset(sub_0)\n  0x00\n  codecopy\n  0x00\n  return\nstop\n\nsub_0: assembly {\n        /* \"governance/UBI4ALLDAO.sol\":169:2643  contract UBI4ALLDAO is Ownable {... */\n      mstore(0x40, 0x80)\n      callvalue\n      dup1\n      iszero\n      tag_1\n      jumpi\n      revert(0x00, 0x00)\n    tag_1:\n      pop\n      jumpi(tag_2, lt(calldatasize, 0x04))\n      shr(0xe0, calldataload(0x00))\n      dup1\n      0x715018a6\n      gt\n      tag_14\n      jumpi\n      dup1\n      0x715018a6\n      eq\n      tag_8\n      jumpi\n      dup1\n      0x8da5cb5b\n      eq\n      tag_9\n      jumpi\n      dup1\n      0xa438d208\n      eq\n      tag_10\n      jumpi\n      dup1\n      0xc9d27afe\n      eq\n      tag_11\n      jumpi\n      dup1\n      0xda35c664\n      eq\n      tag_12\n      jumpi\n      dup1\n      0xf2fde38b\n      eq\n      tag_13\n      jumpi\n      jump(tag_2)\n    tag_14:\n      dup1\n      0x013cf08b\n      eq\n      tag_3\n      jumpi\n      dup1\n      0x0d61b519\n      eq\n      tag_4\n      jumpi\n      dup1\n      0x10d67098\n      eq\n      tag_5\n      jumpi\n      dup1\n      0x42545825\n      eq\n      tag_6\n      jumpi\n      dup1\n      0x49c2a1a6\n      eq\n      tag_7\n      jumpi\n    tag_2:\n      revert(0x00, 0x00)\n        /* \"governance/UBI4ALLDAO.sol\":420:465  mapping(uint256 => Proposal) public proposals */\n    tag_3:\n      tag_15\n      0x04\n      dup1\n      calldatasize\n      sub\n      dup2\n      add\n      swap1\n      tag_16\n      swap2\n      swap1\n      tag_17\n      jump\t// in\n    tag_16:\n      tag_18\n      jump\t// in\n    tag_15:\n      mload(0x40)\n      tag_19\n      swap7\n      swap6\n      swap5\n      swap4\n      swap3\n      swap2\n      swap1\n      tag_20\n      jump\t// in\n    tag_19:\n      mload(0x40)\n      dup1\n      swap2\n      sub\n      swap1\n      return\n        /* \"governance/UBI4ALLDAO.sol\":2204:2641  function executeProposal(uint256 proposalId) external onlyOwner {... */\n    tag_4:\n      tag_21\n      0x04\n      dup1\n      calldatasize\n      sub\n      dup2\n      add\n      swap1\n      tag_22\n      swap2\n      swap1\n      tag_17\n      jump\t// in\n    tag_22:\n      tag_23\n      jump\t// in\n    tag_21:\n      stop\n        /* \"governance/UBI4ALLDAO.sol\":206:232  IERC20 public ubi4allToken */\n    tag_5:\n      tag_24\n      tag_25\n      jump\t// in\n    tag_24:\n      mload(0x40)\n      tag_26\n      swap2\n      swap1\n      tag_27\n      jump\t// in\n    tag_26:\n      mload(0x40)\n      dup1\n      swap2\n      sub\n      swap1\n      return\n        /* \"governance/UBI4ALLDAO.sol\":471:531  mapping(address => mapping(uint256 => bool)) public hasVoted */\n    tag_6:\n      tag_28\n      0x04\n      dup1\n      calldatasize\n      sub\n      dup2\n      add\n      swap1\n      tag_29\n      swap2\n      swap1\n      tag_30\n      jump\t// in\n    tag_29:\n      tag_31\n      jump\t// in\n    tag_28:\n      mload(0x40)\n      tag_32\n      swap2\n      swap1\n      tag_33\n      jump\t// in\n    tag_32:\n      mload(0x40)\n      dup1\n      swap2\n      sub\n      swap1\n      return\n        /* \"governance/UBI4ALLDAO.sol\":1026:1487  function createProposal(string memory description) external onlyOwner {... */\n    tag_7:\n      tag_34\n      0x04\n      dup1\n      calldatasize\n      sub\n      dup2\n      add\n      swap1\n      tag_35\n      swap2\n      swap1\n      tag_36\n      jump\t// in\n    tag_35:\n      tag_37\n      jump\t// in\n    tag_34:\n      stop\n        /* \"@openzeppelin/contracts/access/Ownable.sol\":2293:2394  function renounceOwnership() public virtual onlyOwner {... */\n    tag_8:\n      tag_38\n      tag_39\n      jump\t// in\n    tag_38:\n      stop\n        /* \"@openzeppelin/contracts/access/Ownable.sol\":1638:1723  function owner() public view virtual returns (address) {... */\n    tag_9:\n      tag_40\n      tag_41\n      jump\t// in\n    tag_40:\n      mload(0x40)\n      tag_42\n      swap2\n      swap1\n      tag_43\n      jump\t// in\n    tag_42:\n      mload(0x40)\n      dup1\n      swap2\n      sub\n      swap1\n      return\n        /* \"governance/UBI4ALLDAO.sol\":571:619  uint256 public constant VOTING_DURATION = 3 days */\n    tag_10:\n      tag_44\n      tag_45\n      jump\t// in\n    tag_44:\n      mload(0x40)\n      tag_46\n      swap2\n      swap1\n      tag_47\n      jump\t// in\n    tag_46:\n      mload(0x40)\n      dup1\n      swap2\n      sub\n      swap1\n      return\n        /* \"governance/UBI4ALLDAO.sol\":1493:2198  function vote(uint256 proposalId, bool support) external {... */\n    tag_11:\n      tag_48\n      0x04\n      dup1\n      calldatasize\n      sub\n      dup2\n      add\n      swap1\n      tag_49\n      swap2\n      swap1\n      tag_50\n      jump\t// in\n    tag_49:\n      tag_51\n      jump\t// in\n    tag_48:\n      stop\n        /* \"governance/UBI4ALLDAO.sol\":537:565  uint256 public proposalCount */\n    tag_12:\n      tag_52\n      tag_53\n      jump\t// in\n    tag_52:\n      mload(0x40)\n      tag_54\n      swap2\n      swap1\n      tag_47\n      jump\t// in\n    tag_54:\n      mload(0x40)\n      dup1\n      swap2\n      sub\n      swap1\n      return\n        /* \"@openzeppelin/contracts/access/Ownable.sol\":2543:2758  function transferOwnership(address newOwner) public virtual onlyOwner {... */\n    tag_13:\n      tag_55\n      0x04\n      dup1\n      calldatasize\n      sub\n      dup2\n      add\n      swap1\n      tag_56\n      swap2\n      swap1\n      tag_57\n      jump\t// in\n    tag_56:\n      tag_58\n      jump\t// in\n    tag_55:\n      stop\n        /* \"governance/UBI4ALLDAO.sol\":420:465  mapping(uint256 => Proposal) public proposals */\n    tag_18:\n      mstore(0x20, 0x02)\n      dup1\n      0x00\n      mstore\n      keccak256(0x00, 0x40)\n      0x00\n      swap2\n      pop\n      swap1\n      pop\n      dup1\n      0x00\n      add\n      sload\n      swap1\n      dup1\n      0x01\n      add\n      dup1\n      sload\n      tag_59\n      swap1\n      tag_60\n      jump\t// in\n    tag_59:\n      dup1\n      0x1f\n      add\n      0x20\n      dup1\n      swap2\n      div\n      mul\n      0x20\n      add\n      mload(0x40)\n      swap1\n      dup2\n      add\n      0x40\n      mstore\n      dup1\n      swap3\n      swap2\n      swap1\n      dup2\n      dup2\n      mstore\n      0x20\n      add\n      dup3\n      dup1\n      sload\n      tag_61\n      swap1\n      tag_60\n      jump\t// in\n    tag_61:\n      dup1\n      iszero\n      tag_62\n      jumpi\n      dup1\n      0x1f\n      lt\n      tag_63\n      jumpi\n      0x0100\n      dup1\n      dup4\n      sload\n      div\n      mul\n      dup4\n      mstore\n      swap2\n      0x20\n      add\n      swap2\n      jump(tag_62)\n    tag_63:\n      dup3\n      add\n      swap2\n      swap1\n      0x00\n      mstore\n      keccak256(0x00, 0x20)\n      swap1\n    tag_64:\n      dup2\n      sload\n      dup2\n      mstore\n      swap1\n      0x01\n      add\n      swap1\n      0x20\n      add\n      dup1\n      dup4\n      gt\n      tag_64\n      jumpi\n      dup3\n      swap1\n      sub\n      0x1f\n      and\n      dup3\n      add\n      swap2\n    tag_62:\n      pop\n      pop\n      pop\n      pop\n      pop\n      swap1\n      dup1\n      0x02\n      add\n      sload\n      swap1\n      dup1\n      0x03\n      add\n      sload\n      swap1\n      dup1\n      0x04\n      add\n      0x00\n      swap1\n      sload\n      swap1\n      0x0100\n      exp\n      swap1\n      div\n      0xff\n      and\n      swap1\n      dup1\n      0x05\n      add\n      sload\n      swap1\n      pop\n      dup7\n      jump\t// out\n        /* \"governance/UBI4ALLDAO.sol\":2204:2641  function executeProposal(uint256 proposalId) external onlyOwner {... */\n    tag_23:\n        /* \"@openzeppelin/contracts/access/Ownable.sol\":1531:1544  _checkOwner() */\n      tag_66\n        /* \"@openzeppelin/contracts/access/Ownable.sol\":1531:1542  _checkOwner */\n      tag_67\n        /* \"@openzeppelin/contracts/access/Ownable.sol\":1531:1544  _checkOwner() */\n      jump\t// in\n    tag_66:\n        /* \"governance/UBI4ALLDAO.sol\":2278:2303  Proposal storage proposal */\n      0x00\n        /* \"governance/UBI4ALLDAO.sol\":2306:2315  proposals */\n      0x02\n        /* \"governance/UBI4ALLDAO.sol\":2306:2327  proposals[proposalId] */\n      0x00\n        /* \"governance/UBI4ALLDAO.sol\":2316:2326  proposalId */\n      dup4\n        /* \"governance/UBI4ALLDAO.sol\":2306:2327  proposals[proposalId] */\n      dup2\n      mstore\n      0x20\n      add\n      swap1\n      dup2\n      mstore\n      0x20\n      add\n      0x00\n      keccak256\n        /* \"governance/UBI4ALLDAO.sol\":2278:2327  Proposal storage proposal = proposals[proposalId] */\n      swap1\n      pop\n        /* \"governance/UBI4ALLDAO.sol\":2363:2371  proposal */\n      dup1\n        /* \"governance/UBI4ALLDAO.sol\":2363:2379  proposal.endTime */\n      0x05\n      add\n      sload\n        /* \"governance/UBI4ALLDAO.sol\":2345:2360  block.timestamp */\n      timestamp\n        /* \"governance/UBI4ALLDAO.sol\":2345:2379  block.timestamp > proposal.endTime */\n      gt\n        /* \"governance/UBI4ALLDAO.sol\":2337:2407  require(block.timestamp > proposal.endTime, \"Voting period not ended\") */\n      tag_69\n      jumpi\n      mload(0x40)\n      0x08c379a000000000000000000000000000000000000000000000000000000000\n      dup2\n      mstore\n      0x04\n      add\n      tag_70\n      swap1\n      tag_71\n      jump\t// in\n    tag_70:\n      mload(0x40)\n      dup1\n      swap2\n      sub\n      swap1\n      revert\n    tag_69:\n        /* \"governance/UBI4ALLDAO.sol\":2426:2434  proposal */\n      dup1\n        /* \"governance/UBI4ALLDAO.sol\":2426:2443  proposal.executed */\n      0x04\n      add\n      0x00\n      swap1\n      sload\n      swap1\n      0x0100\n      exp\n      swap1\n      div\n      0xff\n      and\n        /* \"governance/UBI4ALLDAO.sol\":2425:2443  !proposal.executed */\n      iszero\n        /* \"governance/UBI4ALLDAO.sol\":2417:2473  require(!proposal.executed, \"Proposal already executed\") */\n      tag_72\n      jumpi\n      mload(0x40)\n      0x08c379a000000000000000000000000000000000000000000000000000000000\n      dup2\n      mstore\n      0x04\n      add\n      tag_73\n      swap1\n      tag_74\n      jump\t// in\n    tag_73:\n      mload(0x40)\n      dup1\n      swap2\n      sub\n      swap1\n      revert\n    tag_72:\n        /* \"governance/UBI4ALLDAO.sol\":2511:2519  proposal */\n      dup1\n        /* \"governance/UBI4ALLDAO.sol\":2511:2532  proposal.votesAgainst */\n      0x03\n      add\n      sload\n        /* \"governance/UBI4ALLDAO.sol\":2491:2499  proposal */\n      dup2\n        /* \"governance/UBI4ALLDAO.sol\":2491:2508  proposal.votesFor */\n      0x02\n      add\n      sload\n        /* \"governance/UBI4ALLDAO.sol\":2491:2532  proposal.votesFor > proposal.votesAgainst */\n      gt\n        /* \"governance/UBI4ALLDAO.sol\":2483:2556  require(proposal.votesFor > proposal.votesAgainst, \"Proposal not passed\") */\n      tag_75\n      jumpi\n      mload(0x40)\n      0x08c379a000000000000000000000000000000000000000000000000000000000\n      dup2\n      mstore\n      0x04\n      add\n      tag_76\n      swap1\n      tag_77\n      jump\t// in\n    tag_76:\n      mload(0x40)\n      dup1\n      swap2\n      sub\n      swap1\n      revert\n    tag_75:\n        /* \"governance/UBI4ALLDAO.sol\":2587:2591  true */\n      0x01\n        /* \"governance/UBI4ALLDAO.sol\":2567:2575  proposal */\n      dup2\n        /* \"governance/UBI4ALLDAO.sol\":2567:2584  proposal.executed */\n      0x04\n      add\n      0x00\n        /* \"governance/UBI4ALLDAO.sol\":2567:2591  proposal.executed = true */\n      0x0100\n      exp\n      dup2\n      sload\n      dup2\n      0xff\n      mul\n      not\n      and\n      swap1\n      dup4\n      iszero\n      iszero\n      mul\n      or\n      swap1\n      sstore\n      pop\n        /* \"governance/UBI4ALLDAO.sol\":2606:2634  ProposalExecuted(proposalId) */\n      0x712ae1383f79ac853f8d882153778e0260ef8f03b504e2866e0593e04d2b291f\n        /* \"governance/UBI4ALLDAO.sol\":2623:2633  proposalId */\n      dup3\n        /* \"governance/UBI4ALLDAO.sol\":2606:2634  ProposalExecuted(proposalId) */\n      mload(0x40)\n      tag_78\n      swap2\n      swap1\n      tag_47\n      jump\t// in\n    tag_78:\n      mload(0x40)\n      dup1\n      swap2\n      sub\n      swap1\n      log1\n        /* \"governance/UBI4ALLDAO.sol\":2268:2641  {... */\n      pop\n        /* \"governance/UBI4ALLDAO.sol\":2204:2641  function executeProposal(uint256 proposalId) external onlyOwner {... */\n      pop\n      jump\t// out\n        /* \"governance/UBI4ALLDAO.sol\":206:232  IERC20 public ubi4allToken */\n    tag_25:\n      0x01\n      0x00\n      swap1\n      sload\n      swap1\n      0x0100\n      exp\n      swap1\n      div\n      0xffffffffffffffffffffffffffffffffffffffff\n      and\n      dup2\n      jump\t// out\n        /* \"governance/UBI4ALLDAO.sol\":471:531  mapping(address => mapping(uint256 => bool)) public hasVoted */\n    tag_31:\n      mstore(0x20, 0x03)\n      dup2\n      0x00\n      mstore\n      mstore(0x20, keccak256(0x00, 0x40))\n      dup1\n      0x00\n      mstore\n      keccak256(0x00, 0x40)\n      0x00\n      swap2\n      pop\n      swap2\n      pop\n      swap1\n      sload\n      swap1\n      0x0100\n      exp\n      swap1\n      div\n      0xff\n      and\n      dup2\n      jump\t// out\n        /* \"governance/UBI4ALLDAO.sol\":1026:1487  function createProposal(string memory description) external onlyOwner {... */\n    tag_37:\n        /* \"@openzeppelin/contracts/access/Ownable.sol\":1531:1544  _checkOwner() */\n      tag_80\n        /* \"@openzeppelin/contracts/access/Ownable.sol\":1531:1542  _checkOwner */\n      tag_67\n        /* \"@openzeppelin/contracts/access/Ownable.sol\":1531:1544  _checkOwner() */\n      jump\t// in\n    tag_80:\n        /* \"governance/UBI4ALLDAO.sol\":1106:1119  proposalCount */\n      0x04\n      0x00\n        /* \"governance/UBI4ALLDAO.sol\":1106:1121  proposalCount++ */\n      dup2\n      sload\n      dup1\n      swap3\n      swap2\n      swap1\n      tag_82\n      swap1\n      tag_83\n      jump\t// in\n    tag_82:\n      swap2\n      swap1\n      pop\n      sstore\n      pop\n        /* \"governance/UBI4ALLDAO.sol\":1158:1386  Proposal({... */\n      mload(0x40)\n      dup1\n      0xc0\n      add\n      0x40\n      mstore\n      dup1\n        /* \"governance/UBI4ALLDAO.sol\":1185:1198  proposalCount */\n      sload(0x04)\n        /* \"governance/UBI4ALLDAO.sol\":1158:1386  Proposal({... */\n      dup2\n      mstore\n      0x20\n      add\n        /* \"governance/UBI4ALLDAO.sol\":1225:1236  description */\n      dup3\n        /* \"governance/UBI4ALLDAO.sol\":1158:1386  Proposal({... */\n      dup2\n      mstore\n      0x20\n      add\n        /* \"governance/UBI4ALLDAO.sol\":1260:1261  0 */\n      0x00\n        /* \"governance/UBI4ALLDAO.sol\":1158:1386  Proposal({... */\n      dup2\n      mstore\n      0x20\n      add\n        /* \"governance/UBI4ALLDAO.sol\":1289:1290  0 */\n      0x00\n        /* \"governance/UBI4ALLDAO.sol\":1158:1386  Proposal({... */\n      dup2\n      mstore\n      0x20\n      add\n        /* \"governance/UBI4ALLDAO.sol\":1314:1319  false */\n      0x00\n        /* \"governance/UBI4ALLDAO.sol\":1158:1386  Proposal({... */\n      iszero\n      iszero\n      dup2\n      mstore\n      0x20\n      add\n        /* \"governance/UBI4ALLDAO.sol\":613:619  3 days */\n      0x03f480\n        /* \"governance/UBI4ALLDAO.sol\":1342:1357  block.timestamp */\n      timestamp\n        /* \"governance/UBI4ALLDAO.sol\":1342:1375  block.timestamp + VOTING_DURATION */\n      tag_84\n      swap2\n      swap1\n      tag_85\n      jump\t// in\n    tag_84:\n        /* \"governance/UBI4ALLDAO.sol\":1158:1386  Proposal({... */\n      dup2\n      mstore\n      pop\n        /* \"governance/UBI4ALLDAO.sol\":1131:1140  proposals */\n      0x02\n        /* \"governance/UBI4ALLDAO.sol\":1131:1155  proposals[proposalCount] */\n      0x00\n        /* \"governance/UBI4ALLDAO.sol\":1141:1154  proposalCount */\n      sload(0x04)\n        /* \"governance/UBI4ALLDAO.sol\":1131:1155  proposals[proposalCount] */\n      dup2\n      mstore\n      0x20\n      add\n      swap1\n      dup2\n      mstore\n      0x20\n      add\n      0x00\n      keccak256\n        /* \"governance/UBI4ALLDAO.sol\":1131:1386  proposals[proposalCount] = Proposal({... */\n      0x00\n      dup3\n      add\n      mload\n      dup2\n      0x00\n      add\n      sstore\n      0x20\n      dup3\n      add\n      mload\n      dup2\n      0x01\n      add\n      swap1\n      dup2\n      tag_86\n      swap2\n      swap1\n      tag_87\n      jump\t// in\n    tag_86:\n      pop\n      0x40\n      dup3\n      add\n      mload\n      dup2\n      0x02\n      add\n      sstore\n      0x60\n      dup3\n      add\n      mload\n      dup2\n      0x03\n      add\n      sstore\n      0x80\n      dup3\n      add\n      mload\n      dup2\n      0x04\n      add\n      exp(0x0100, 0x00)\n      dup2\n      sload\n      dup2\n      0xff\n      mul\n      not\n      and\n      swap1\n      dup4\n      iszero\n      iszero\n      mul\n      or\n      swap1\n      sstore\n      pop\n      0xa0\n      dup3\n      add\n      mload\n      dup2\n      0x05\n      add\n      sstore\n      swap1\n      pop\n      pop\n        /* \"governance/UBI4ALLDAO.sol\":1402:1480  ProposalCreated(proposalCount, description, block.timestamp + VOTING_DURATION) */\n      0xf5dc0da9afa6d080780a49fd8c680f03d2ddf3c067cd6d0c85360c096644d2d3\n        /* \"governance/UBI4ALLDAO.sol\":1418:1431  proposalCount */\n      sload(0x04)\n        /* \"governance/UBI4ALLDAO.sol\":1433:1444  description */\n      dup3\n        /* \"governance/UBI4ALLDAO.sol\":613:619  3 days */\n      0x03f480\n        /* \"governance/UBI4ALLDAO.sol\":1446:1461  block.timestamp */\n      timestamp\n        /* \"governance/UBI4ALLDAO.sol\":1446:1479  block.timestamp + VOTING_DURATION */\n      tag_88\n      swap2\n      swap1\n      tag_85\n      jump\t// in\n    tag_88:\n        /* \"governance/UBI4ALLDAO.sol\":1402:1480  ProposalCreated(proposalCount, description, block.timestamp + VOTING_DURATION) */\n      mload(0x40)\n      tag_89\n      swap4\n      swap3\n      swap2\n      swap1\n      tag_90\n      jump\t// in\n    tag_89:\n      mload(0x40)\n      dup1\n      swap2\n      sub\n      swap1\n      log1\n        /* \"governance/UBI4ALLDAO.sol\":1026:1487  function createProposal(string memory description) external onlyOwner {... */\n      pop\n      jump\t// out\n        /* \"@openzeppelin/contracts/access/Ownable.sol\":2293:2394  function renounceOwnership() public virtual onlyOwner {... */\n    tag_39:\n        /* \"@openzeppelin/contracts/access/Ownable.sol\":1531:1544  _checkOwner() */\n      tag_92\n        /* \"@openzeppelin/contracts/access/Ownable.sol\":1531:1542  _checkOwner */\n      tag_67\n        /* \"@openzeppelin/contracts/access/Ownable.sol\":1531:1544  _checkOwner() */\n      jump\t// in\n    tag_92:\n        /* \"@openzeppelin/contracts/access/Ownable.sol\":2357:2387  _transferOwnership(address(0)) */\n      tag_94\n        /* \"@openzeppelin/contracts/access/Ownable.sol\":2384:2385  0 */\n      0x00\n        /* \"@openzeppelin/contracts/access/Ownable.sol\":2357:2375  _transferOwnership */\n      tag_95\n        /* \"@openzeppelin/contracts/access/Ownable.sol\":2357:2387  _transferOwnership(address(0)) */\n      jump\t// in\n    tag_94:\n        /* \"@openzeppelin/contracts/access/Ownable.sol\":2293:2394  function renounceOwnership() public virtual onlyOwner {... */\n      jump\t// out\n        /* \"@openzeppelin/contracts/access/Ownable.sol\":1638:1723  function owner() public view virtual returns (address) {... */\n    tag_41:\n        /* \"@openzeppelin/contracts/access/Ownable.sol\":1684:1691  address */\n      0x00\n        /* \"@openzeppelin/contracts/access/Ownable.sol\":1710:1716  _owner */\n      0x00\n      0x00\n      swap1\n      sload\n      swap1\n      0x0100\n      exp\n      swap1\n      div\n      0xffffffffffffffffffffffffffffffffffffffff\n      and\n        /* \"@openzeppelin/contracts/access/Ownable.sol\":1703:1716  return _owner */\n      swap1\n      pop\n        /* \"@openzeppelin/contracts/access/Ownable.sol\":1638:1723  function owner() public view virtual returns (address) {... */\n      swap1\n      jump\t// out\n        /* \"governance/UBI4ALLDAO.sol\":571:619  uint256 public constant VOTING_DURATION = 3 days */\n    tag_45:\n        /* \"governance/UBI4ALLDAO.sol\":613:619  3 days */\n      0x03f480\n        /* \"governance/UBI4ALLDAO.sol\":571:619  uint256 public constant VOTING_DURATION = 3 days */\n      dup2\n      jump\t// out\n        /* \"governance/UBI4ALLDAO.sol\":1493:2198  function vote(uint256 proposalId, bool support) external {... */\n    tag_51:\n        /* \"governance/UBI4ALLDAO.sol\":1560:1585  Proposal storage proposal */\n      0x00\n        /* \"governance/UBI4ALLDAO.sol\":1588:1597  proposals */\n      0x02\n        /* \"governance/UBI4ALLDAO.sol\":1588:1609  proposals[proposalId] */\n      0x00\n        /* \"governance/UBI4ALLDAO.sol\":1598:1608  proposalId */\n      dup5\n        /* \"governance/UBI4ALLDAO.sol\":1588:1609  proposals[proposalId] */\n      dup2\n      mstore\n      0x20\n      add\n      swap1\n      dup2\n      mstore\n      0x20\n      add\n      0x00\n      keccak256\n        /* \"governance/UBI4ALLDAO.sol\":1560:1609  Proposal storage proposal = proposals[proposalId] */\n      swap1\n      pop\n        /* \"governance/UBI4ALLDAO.sol\":1646:1654  proposal */\n      dup1\n        /* \"governance/UBI4ALLDAO.sol\":1646:1662  proposal.endTime */\n      0x05\n      add\n      sload\n        /* \"governance/UBI4ALLDAO.sol\":1627:1642  block.timestamp */\n      timestamp\n        /* \"governance/UBI4ALLDAO.sol\":1627:1662  block.timestamp <= proposal.endTime */\n      gt\n      iszero\n        /* \"governance/UBI4ALLDAO.sol\":1619:1686  require(block.timestamp <= proposal.endTime, \"Voting period ended\") */\n      tag_98\n      jumpi\n      mload(0x40)\n      0x08c379a000000000000000000000000000000000000000000000000000000000\n      dup2\n      mstore\n      0x04\n      add\n      tag_99\n      swap1\n      tag_100\n      jump\t// in\n    tag_99:\n      mload(0x40)\n      dup1\n      swap2\n      sub\n      swap1\n      revert\n    tag_98:\n        /* \"governance/UBI4ALLDAO.sol\":1705:1713  hasVoted */\n      0x03\n        /* \"governance/UBI4ALLDAO.sol\":1705:1725  hasVoted[msg.sender] */\n      0x00\n        /* \"governance/UBI4ALLDAO.sol\":1714:1724  msg.sender */\n      caller\n        /* \"governance/UBI4ALLDAO.sol\":1705:1725  hasVoted[msg.sender] */\n      0xffffffffffffffffffffffffffffffffffffffff\n      and\n      0xffffffffffffffffffffffffffffffffffffffff\n      and\n      dup2\n      mstore\n      0x20\n      add\n      swap1\n      dup2\n      mstore\n      0x20\n      add\n      0x00\n      keccak256\n        /* \"governance/UBI4ALLDAO.sol\":1705:1737  hasVoted[msg.sender][proposalId] */\n      0x00\n        /* \"governance/UBI4ALLDAO.sol\":1726:1736  proposalId */\n      dup5\n        /* \"governance/UBI4ALLDAO.sol\":1705:1737  hasVoted[msg.sender][proposalId] */\n      dup2\n      mstore\n      0x20\n      add\n      swap1\n      dup2\n      mstore\n      0x20\n      add\n      0x00\n      keccak256\n      0x00\n      swap1\n      sload\n      swap1\n      0x0100\n      exp\n      swap1\n      div\n      0xff\n      and\n        /* \"governance/UBI4ALLDAO.sol\":1704:1737  !hasVoted[msg.sender][proposalId] */\n      iszero\n        /* \"governance/UBI4ALLDAO.sol\":1696:1755  require(!hasVoted[msg.sender][proposalId], \"Already voted\") */\n      tag_101\n      jumpi\n      mload(0x40)\n      0x08c379a000000000000000000000000000000000000000000000000000000000\n      dup2\n      mstore\n      0x04\n      add\n      tag_102\n      swap1\n      tag_103\n      jump\t// in\n    tag_102:\n      mload(0x40)\n      dup1\n      swap2\n      sub\n      swap1\n      revert\n    tag_101:\n        /* \"governance/UBI4ALLDAO.sol\":1774:1782  proposal */\n      dup1\n        /* \"governance/UBI4ALLDAO.sol\":1774:1791  proposal.executed */\n      0x04\n      add\n      0x00\n      swap1\n      sload\n      swap1\n      0x0100\n      exp\n      swap1\n      div\n      0xff\n      and\n        /* \"governance/UBI4ALLDAO.sol\":1773:1791  !proposal.executed */\n      iszero\n        /* \"governance/UBI4ALLDAO.sol\":1765:1821  require(!proposal.executed, \"Proposal already executed\") */\n      tag_104\n      jumpi\n      mload(0x40)\n      0x08c379a000000000000000000000000000000000000000000000000000000000\n      dup2\n      mstore\n      0x04\n      add\n      tag_105\n      swap1\n      tag_74\n      jump\t// in\n    tag_105:\n      mload(0x40)\n      dup1\n      swap2\n      sub\n      swap1\n      revert\n    tag_104:\n        /* \"governance/UBI4ALLDAO.sol\":1832:1851  uint256 votingPower */\n      0x00\n        /* \"governance/UBI4ALLDAO.sol\":1854:1866  ubi4allToken */\n      0x01\n      0x00\n      swap1\n      sload\n      swap1\n      0x0100\n      exp\n      swap1\n      div\n      0xffffffffffffffffffffffffffffffffffffffff\n      and\n        /* \"governance/UBI4ALLDAO.sol\":1854:1876  ubi4allToken.balanceOf */\n      0xffffffffffffffffffffffffffffffffffffffff\n      and\n      0x70a08231\n        /* \"governance/UBI4ALLDAO.sol\":1877:1887  msg.sender */\n      caller\n        /* \"governance/UBI4ALLDAO.sol\":1854:1888  ubi4allToken.balanceOf(msg.sender) */\n      mload(0x40)\n      dup3\n      0xffffffff\n      and\n      0xe0\n      shl\n      dup2\n      mstore\n      0x04\n      add\n      tag_106\n      swap2\n      swap1\n      tag_43\n      jump\t// in\n    tag_106:\n      0x20\n      mload(0x40)\n      dup1\n      dup4\n      sub\n      dup2\n      dup7\n      gas\n      staticcall\n      iszero\n      dup1\n      iszero\n      tag_108\n      jumpi\n      returndatacopy(0x00, 0x00, returndatasize)\n      revert(0x00, returndatasize)\n    tag_108:\n      pop\n      pop\n      pop\n      pop\n      mload(0x40)\n      returndatasize\n      not(0x1f)\n      0x1f\n      dup3\n      add\n      and\n      dup3\n      add\n      dup1\n      0x40\n      mstore\n      pop\n      dup2\n      add\n      swap1\n      tag_109\n      swap2\n      swap1\n      tag_110\n      jump\t// in\n    tag_109:\n        /* \"governance/UBI4ALLDAO.sol\":1832:1888  uint256 votingPower = ubi4allToken.balanceOf(msg.sender) */\n      swap1\n      pop\n        /* \"governance/UBI4ALLDAO.sol\":1920:1921  0 */\n      0x00\n        /* \"governance/UBI4ALLDAO.sol\":1906:1917  votingPower */\n      dup2\n        /* \"governance/UBI4ALLDAO.sol\":1906:1921  votingPower > 0 */\n      gt\n        /* \"governance/UBI4ALLDAO.sol\":1898:1941  require(votingPower > 0, \"No voting power\") */\n      tag_111\n      jumpi\n      mload(0x40)\n      0x08c379a000000000000000000000000000000000000000000000000000000000\n      dup2\n      mstore\n      0x04\n      add\n      tag_112\n      swap1\n      tag_113\n      jump\t// in\n    tag_112:\n      mload(0x40)\n      dup1\n      swap2\n      sub\n      swap1\n      revert\n    tag_111:\n        /* \"governance/UBI4ALLDAO.sol\":1956:1963  support */\n      dup3\n        /* \"governance/UBI4ALLDAO.sol\":1952:2089  if (support) {... */\n      iszero\n      tag_114\n      jumpi\n        /* \"governance/UBI4ALLDAO.sol\":2000:2011  votingPower */\n      dup1\n        /* \"governance/UBI4ALLDAO.sol\":1979:1987  proposal */\n      dup3\n        /* \"governance/UBI4ALLDAO.sol\":1979:1996  proposal.votesFor */\n      0x02\n      add\n      0x00\n        /* \"governance/UBI4ALLDAO.sol\":1979:2011  proposal.votesFor += votingPower */\n      dup3\n      dup3\n      sload\n      tag_115\n      swap2\n      swap1\n      tag_85\n      jump\t// in\n    tag_115:\n      swap3\n      pop\n      pop\n      dup2\n      swap1\n      sstore\n      pop\n        /* \"governance/UBI4ALLDAO.sol\":1952:2089  if (support) {... */\n      jump(tag_116)\n    tag_114:\n        /* \"governance/UBI4ALLDAO.sol\":2067:2078  votingPower */\n      dup1\n        /* \"governance/UBI4ALLDAO.sol\":2042:2050  proposal */\n      dup3\n        /* \"governance/UBI4ALLDAO.sol\":2042:2063  proposal.votesAgainst */\n      0x03\n      add\n      0x00\n        /* \"governance/UBI4ALLDAO.sol\":2042:2078  proposal.votesAgainst += votingPower */\n      dup3\n      dup3\n      sload\n      tag_117\n      swap2\n      swap1\n      tag_85\n      jump\t// in\n    tag_117:\n      swap3\n      pop\n      pop\n      dup2\n      swap1\n      sstore\n      pop\n        /* \"governance/UBI4ALLDAO.sol\":1952:2089  if (support) {... */\n    tag_116:\n        /* \"governance/UBI4ALLDAO.sol\":2134:2138  true */\n      0x01\n        /* \"governance/UBI4ALLDAO.sol\":2099:2107  hasVoted */\n      0x03\n        /* \"governance/UBI4ALLDAO.sol\":2099:2119  hasVoted[msg.sender] */\n      0x00\n        /* \"governance/UBI4ALLDAO.sol\":2108:2118  msg.sender */\n      caller\n        /* \"governance/UBI4ALLDAO.sol\":2099:2119  hasVoted[msg.sender] */\n      0xffffffffffffffffffffffffffffffffffffffff\n      and\n      0xffffffffffffffffffffffffffffffffffffffff\n      and\n      dup2\n      mstore\n      0x20\n      add\n      swap1\n      dup2\n      mstore\n      0x20\n      add\n      0x00\n      keccak256\n        /* \"governance/UBI4ALLDAO.sol\":2099:2131  hasVoted[msg.sender][proposalId] */\n      0x00\n        /* \"governance/UBI4ALLDAO.sol\":2120:2130  proposalId */\n      dup7\n        /* \"governance/UBI4ALLDAO.sol\":2099:2131  hasVoted[msg.sender][proposalId] */\n      dup2\n      mstore\n      0x20\n      add\n      swap1\n      dup2\n      mstore\n      0x20\n      add\n      0x00\n      keccak256\n      0x00\n        /* \"governance/UBI4ALLDAO.sol\":2099:2138  hasVoted[msg.sender][proposalId] = true */\n      0x0100\n      exp\n      dup2\n      sload\n      dup2\n      0xff\n      mul\n      not\n      and\n      swap1\n      dup4\n      iszero\n      iszero\n      mul\n      or\n      swap1\n      sstore\n      pop\n        /* \"governance/UBI4ALLDAO.sol\":2153:2191  Voted(proposalId, msg.sender, support) */\n      0xf2913dbe661ee2acc4a046d8fbcdc792373bda34c41c6086484b5345e5785e5f\n        /* \"governance/UBI4ALLDAO.sol\":2159:2169  proposalId */\n      dup5\n        /* \"governance/UBI4ALLDAO.sol\":2171:2181  msg.sender */\n      caller\n        /* \"governance/UBI4ALLDAO.sol\":2183:2190  support */\n      dup6\n        /* \"governance/UBI4ALLDAO.sol\":2153:2191  Voted(proposalId, msg.sender, support) */\n      mload(0x40)\n      tag_118\n      swap4\n      swap3\n      swap2\n      swap1\n      tag_119\n      jump\t// in\n    tag_118:\n      mload(0x40)\n      dup1\n      swap2\n      sub\n      swap1\n      log1\n        /* \"governance/UBI4ALLDAO.sol\":1550:2198  {... */\n      pop\n      pop\n        /* \"governance/UBI4ALLDAO.sol\":1493:2198  function vote(uint256 proposalId, bool support) external {... */\n      pop\n      pop\n      jump\t// out\n        /* \"governance/UBI4ALLDAO.sol\":537:565  uint256 public proposalCount */\n    tag_53:\n      sload(0x04)\n      dup2\n      jump\t// out\n        /* \"@openzeppelin/contracts/access/Ownable.sol\":2543:2758  function transferOwnership(address newOwner) public virtual onlyOwner {... */\n    tag_58:\n        /* \"@openzeppelin/contracts/access/Ownable.sol\":1531:1544  _checkOwner() */\n      tag_121\n        /* \"@openzeppelin/contracts/access/Ownable.sol\":1531:1542  _checkOwner */\n      tag_67\n        /* \"@openzeppelin/contracts/access/Ownable.sol\":1531:1544  _checkOwner() */\n      jump\t// in\n    tag_121:\n        /* \"@openzeppelin/contracts/access/Ownable.sol\":2647:2648  0 */\n      0x00\n        /* \"@openzeppelin/contracts/access/Ownable.sol\":2627:2649  newOwner == address(0) */\n      0xffffffffffffffffffffffffffffffffffffffff\n      and\n        /* \"@openzeppelin/contracts/access/Ownable.sol\":2627:2635  newOwner */\n      dup2\n        /* \"@openzeppelin/contracts/access/Ownable.sol\":2627:2649  newOwner == address(0) */\n      0xffffffffffffffffffffffffffffffffffffffff\n      and\n      sub\n        /* \"@openzeppelin/contracts/access/Ownable.sol\":2623:2714  if (newOwner == address(0)) {... */\n      tag_123\n      jumpi\n        /* \"@openzeppelin/contracts/access/Ownable.sol\":2700:2701  0 */\n      0x00\n        /* \"@openzeppelin/contracts/access/Ownable.sol\":2672:2703  OwnableInvalidOwner(address(0)) */\n      mload(0x40)\n      0x1e4fbdf700000000000000000000000000000000000000000000000000000000\n      dup2\n      mstore\n      0x04\n      add\n      tag_124\n      swap2\n      swap1\n      tag_43\n      jump\t// in\n    tag_124:\n      mload(0x40)\n      dup1\n      swap2\n      sub\n      swap1\n      revert\n        /* \"@openzeppelin/contracts/access/Ownable.sol\":2623:2714  if (newOwner == address(0)) {... */\n    tag_123:\n        /* \"@openzeppelin/contracts/access/Ownable.sol\":2723:2751  _transferOwnership(newOwner) */\n      tag_125\n        /* \"@openzeppelin/contracts/access/Ownable.sol\":2742:2750  newOwner */\n      dup2\n        /* \"@openzeppelin/contracts/access/Ownable.sol\":2723:2741  _transferOwnership */\n      tag_95\n        /* \"@openzeppelin/contracts/access/Ownable.sol\":2723:2751  _transferOwnership(newOwner) */\n      jump\t// in\n    tag_125:\n        /* \"@openzeppelin/contracts/access/Ownable.sol\":2543:2758  function transferOwnership(address newOwner) public virtual onlyOwner {... */\n      pop\n      jump\t// out\n        /* \"@openzeppelin/contracts/access/Ownable.sol\":1796:1958  function _checkOwner() internal view virtual {... */\n    tag_67:\n        /* \"@openzeppelin/contracts/access/Ownable.sol\":1866:1878  _msgSender() */\n      tag_127\n        /* \"@openzeppelin/contracts/access/Ownable.sol\":1866:1876  _msgSender */\n      tag_128\n        /* \"@openzeppelin/contracts/access/Ownable.sol\":1866:1878  _msgSender() */\n      jump\t// in\n    tag_127:\n        /* \"@openzeppelin/contracts/access/Ownable.sol\":1855:1878  owner() != _msgSender() */\n      0xffffffffffffffffffffffffffffffffffffffff\n      and\n        /* \"@openzeppelin/contracts/access/Ownable.sol\":1855:1862  owner() */\n      tag_129\n        /* \"@openzeppelin/contracts/access/Ownable.sol\":1855:1860  owner */\n      tag_41\n        /* \"@openzeppelin/contracts/access/Ownable.sol\":1855:1862  owner() */\n      jump\t// in\n    tag_129:\n        /* \"@openzeppelin/contracts/access/Ownable.sol\":1855:1878  owner() != _msgSender() */\n      0xffffffffffffffffffffffffffffffffffffffff\n      and\n      eq\n        /* \"@openzeppelin/contracts/access/Ownable.sol\":1851:1952  if (owner() != _msgSender()) {... */\n      tag_130\n      jumpi\n        /* \"@openzeppelin/contracts/access/Ownable.sol\":1928:1940  _msgSender() */\n      tag_131\n        /* \"@openzeppelin/contracts/access/Ownable.sol\":1928:1938  _msgSender */\n      tag_128\n        /* \"@openzeppelin/contracts/access/Ownable.sol\":1928:1940  _msgSender() */\n      jump\t// in\n    tag_131:\n        /* \"@openzeppelin/contracts/access/Ownable.sol\":1901:1941  OwnableUnauthorizedAccount(_msgSender()) */\n      mload(0x40)\n      0x118cdaa700000000000000000000000000000000000000000000000000000000\n      dup2\n      mstore\n      0x04\n      add\n      tag_132\n      swap2\n      swap1\n      tag_43\n      jump\t// in\n    tag_132:\n      mload(0x40)\n      dup1\n      swap2\n      sub\n      swap1\n      revert\n        /* \"@openzeppelin/contracts/access/Ownable.sol\":1851:1952  if (owner() != _msgSender()) {... */\n    tag_130:\n        /* \"@openzeppelin/contracts/access/Ownable.sol\":1796:1958  function _checkOwner() internal view virtual {... */\n      jump\t// out\n        /* \"@openzeppelin/contracts/access/Ownable.sol\":2912:3099  function _transferOwnership(address newOwner) internal virtual {... */\n    tag_95:\n        /* \"@openzeppelin/contracts/access/Ownable.sol\":2985:3001  address oldOwner */\n      0x00\n        /* \"@openzeppelin/contracts/access/Ownable.sol\":3004:3010  _owner */\n      0x00\n      0x00\n      swap1\n      sload\n      swap1\n      0x0100\n      exp\n      swap1\n      div\n      0xffffffffffffffffffffffffffffffffffffffff\n      and\n        /* \"@openzeppelin/contracts/access/Ownable.sol\":2985:3010  address oldOwner = _owner */\n      swap1\n      pop\n        /* \"@openzeppelin/contracts/access/Ownable.sol\":3029:3037  newOwner */\n      dup2\n        /* \"@openzeppelin/contracts/access/Ownable.sol\":3020:3026  _owner */\n      0x00\n      0x00\n        /* \"@openzeppelin/contracts/access/Ownable.sol\":3020:3037  _owner = newOwner */\n      0x0100\n      exp\n      dup2\n      sload\n      dup2\n      0xffffffffffffffffffffffffffffffffffffffff\n      mul\n      not\n      and\n      swap1\n      dup4\n      0xffffffffffffffffffffffffffffffffffffffff\n      and\n      mul\n      or\n      swap1\n      sstore\n      pop\n        /* \"@openzeppelin/contracts/access/Ownable.sol\":3083:3091  newOwner */\n      dup2\n        /* \"@openzeppelin/contracts/access/Ownable.sol\":3052:3092  OwnershipTransferred(oldOwner, newOwner) */\n      0xffffffffffffffffffffffffffffffffffffffff\n      and\n        /* \"@openzeppelin/contracts/access/Ownable.sol\":3073:3081  oldOwner */\n      dup2\n        /* \"@openzeppelin/contracts/access/Ownable.sol\":3052:3092  OwnershipTransferred(oldOwner, newOwner) */\n      0xffffffffffffffffffffffffffffffffffffffff\n      and\n      0x8be0079c531659141344cd1fd0a4f28419497f9722a3daafe3b4186f6b6457e0\n      mload(0x40)\n      mload(0x40)\n      dup1\n      swap2\n      sub\n      swap1\n      log3\n        /* \"@openzeppelin/contracts/access/Ownable.sol\":2975:3099  {... */\n      pop\n        /* \"@openzeppelin/contracts/access/Ownable.sol\":2912:3099  function _transferOwnership(address newOwner) internal virtual {... */\n      pop\n      jump\t// out\n        /* \"@openzeppelin/contracts/utils/Context.sol\":656:752  function _msgSender() internal view virtual returns (address) {... */\n    tag_128:\n        /* \"@openzeppelin/contracts/utils/Context.sol\":709:716  address */\n      0x00\n        /* \"@openzeppelin/contracts/utils/Context.sol\":735:745  msg.sender */\n      caller\n        /* \"@openzeppelin/contracts/utils/Context.sol\":728:745  return msg.sender */\n      swap1\n      pop\n        /* \"@openzeppelin/contracts/utils/Context.sol\":656:752  function _msgSender() internal view virtual returns (address) {... */\n      swap1\n      jump\t// out\n        /* \"#utility.yul\":7:82   */\n    tag_135:\n        /* \"#utility.yul\":40:46   */\n      0x00\n        /* \"#utility.yul\":73:75   */\n      0x40\n        /* \"#utility.yul\":67:76   */\n      mload\n        /* \"#utility.yul\":57:76   */\n      swap1\n      pop\n        /* \"#utility.yul\":7:82   */\n      swap1\n      jump\t// out\n        /* \"#utility.yul\":88:205   */\n    tag_136:\n        /* \"#utility.yul\":197:198   */\n      0x00\n        /* \"#utility.yul\":194:195   */\n      0x00\n        /* \"#utility.yul\":187:199   */\n      revert\n        /* \"#utility.yul\":211:328   */\n    tag_137:\n        /* \"#utility.yul\":320:321   */\n      0x00\n        /* \"#utility.yul\":317:318   */\n      0x00\n        /* \"#utility.yul\":310:322   */\n      revert\n        /* \"#utility.yul\":334:411   */\n    tag_138:\n        /* \"#utility.yul\":371:378   */\n      0x00\n        /* \"#utility.yul\":400:405   */\n      dup2\n        /* \"#utility.yul\":389:405   */\n      swap1\n      pop\n        /* \"#utility.yul\":334:411   */\n      swap2\n      swap1\n      pop\n      jump\t// out\n        /* \"#utility.yul\":417:539   */\n    tag_139:\n        /* \"#utility.yul\":490:514   */\n      tag_205\n        /* \"#utility.yul\":508:513   */\n      dup2\n        /* \"#utility.yul\":490:514   */\n      tag_138\n      jump\t// in\n    tag_205:\n        /* \"#utility.yul\":483:488   */\n      dup2\n        /* \"#utility.yul\":480:515   */\n      eq\n        /* \"#utility.yul\":470:533   */\n      tag_206\n      jumpi\n        /* \"#utility.yul\":529:530   */\n      0x00\n        /* \"#utility.yul\":526:527   */\n      0x00\n        /* \"#utility.yul\":519:531   */\n      revert\n        /* \"#utility.yul\":470:533   */\n    tag_206:\n        /* \"#utility.yul\":417:539   */\n      pop\n      jump\t// out\n        /* \"#utility.yul\":545:684   */\n    tag_140:\n        /* \"#utility.yul\":591:596   */\n      0x00\n        /* \"#utility.yul\":629:635   */\n      dup2\n        /* \"#utility.yul\":616:636   */\n      calldataload\n        /* \"#utility.yul\":607:636   */\n      swap1\n      pop\n        /* \"#utility.yul\":645:678   */\n      tag_208\n        /* \"#utility.yul\":672:677   */\n      dup2\n        /* \"#utility.yul\":645:678   */\n      tag_139\n      jump\t// in\n    tag_208:\n        /* \"#utility.yul\":545:684   */\n      swap3\n      swap2\n      pop\n      pop\n      jump\t// out\n        /* \"#utility.yul\":690:1019   */\n    tag_17:\n        /* \"#utility.yul\":749:755   */\n      0x00\n        /* \"#utility.yul\":798:800   */\n      0x20\n        /* \"#utility.yul\":786:795   */\n      dup3\n        /* \"#utility.yul\":777:784   */\n      dup5\n        /* \"#utility.yul\":773:796   */\n      sub\n        /* \"#utility.yul\":769:801   */\n      slt\n        /* \"#utility.yul\":766:885   */\n      iszero\n      tag_210\n      jumpi\n        /* \"#utility.yul\":804:883   */\n      tag_211\n      tag_136\n      jump\t// in\n    tag_211:\n        /* \"#utility.yul\":766:885   */\n    tag_210:\n        /* \"#utility.yul\":924:925   */\n      0x00\n        /* \"#utility.yul\":949:1002   */\n      tag_212\n        /* \"#utility.yul\":994:1001   */\n      dup5\n        /* \"#utility.yul\":985:991   */\n      dup3\n        /* \"#utility.yul\":974:983   */\n      dup6\n        /* \"#utility.yul\":970:992   */\n      add\n        /* \"#utility.yul\":949:1002   */\n      tag_140\n      jump\t// in\n    tag_212:\n        /* \"#utility.yul\":939:1002   */\n      swap2\n      pop\n        /* \"#utility.yul\":895:1012   */\n      pop\n        /* \"#utility.yul\":690:1019   */\n      swap3\n      swap2\n      pop\n      pop\n      jump\t// out\n        /* \"#utility.yul\":1025:1143   */\n    tag_141:\n        /* \"#utility.yul\":1112:1136   */\n      tag_214\n        /* \"#utility.yul\":1130:1135   */\n      dup2\n        /* \"#utility.yul\":1112:1136   */\n      tag_138\n      jump\t// in\n    tag_214:\n        /* \"#utility.yul\":1107:1110   */\n      dup3\n        /* \"#utility.yul\":1100:1137   */\n      mstore\n        /* \"#utility.yul\":1025:1143   */\n      pop\n      pop\n      jump\t// out\n        /* \"#utility.yul\":1149:1248   */\n    tag_142:\n        /* \"#utility.yul\":1201:1207   */\n      0x00\n        /* \"#utility.yul\":1235:1240   */\n      dup2\n        /* \"#utility.yul\":1229:1241   */\n      mload\n        /* \"#utility.yul\":1219:1241   */\n      swap1\n      pop\n        /* \"#utility.yul\":1149:1248   */\n      swap2\n      swap1\n      pop\n      jump\t// out\n        /* \"#utility.yul\":1254:1423   */\n    tag_143:\n        /* \"#utility.yul\":1338:1349   */\n      0x00\n        /* \"#utility.yul\":1372:1378   */\n      dup3\n        /* \"#utility.yul\":1367:1370   */\n      dup3\n        /* \"#utility.yul\":1360:1379   */\n      mstore\n        /* \"#utility.yul\":1412:1416   */\n      0x20\n        /* \"#utility.yul\":1407:1410   */\n      dup3\n        /* \"#utility.yul\":1403:1417   */\n      add\n        /* \"#utility.yul\":1388:1417   */\n      swap1\n      pop\n        /* \"#utility.yul\":1254:1423   */\n      swap3\n      swap2\n      pop\n      pop\n      jump\t// out\n        /* \"#utility.yul\":1429:1568   */\n    tag_144:\n        /* \"#utility.yul\":1518:1524   */\n      dup3\n        /* \"#utility.yul\":1513:1516   */\n      dup2\n        /* \"#utility.yul\":1508:1511   */\n      dup4\n        /* \"#utility.yul\":1502:1525   */\n      mcopy\n        /* \"#utility.yul\":1559:1560   */\n      0x00\n        /* \"#utility.yul\":1550:1556   */\n      dup4\n        /* \"#utility.yul\":1545:1548   */\n      dup4\n        /* \"#utility.yul\":1541:1557   */\n      add\n        /* \"#utility.yul\":1534:1561   */\n      mstore\n        /* \"#utility.yul\":1429:1568   */\n      pop\n      pop\n      pop\n      jump\t// out\n        /* \"#utility.yul\":1574:1676   */\n    tag_145:\n        /* \"#utility.yul\":1615:1621   */\n      0x00\n        /* \"#utility.yul\":1666:1668   */\n      0x1f\n        /* \"#utility.yul\":1662:1669   */\n      not\n        /* \"#utility.yul\":1657:1659   */\n      0x1f\n        /* \"#utility.yul\":1650:1655   */\n      dup4\n        /* \"#utility.yul\":1646:1660   */\n      add\n        /* \"#utility.yul\":1642:1670   */\n      and\n        /* \"#utility.yul\":1632:1670   */\n      swap1\n      pop\n        /* \"#utility.yul\":1574:1676   */\n      swap2\n      swap1\n      pop\n      jump\t// out\n        /* \"#utility.yul\":1682:2059   */\n    tag_146:\n        /* \"#utility.yul\":1770:1773   */\n      0x00\n        /* \"#utility.yul\":1798:1837   */\n      tag_220\n        /* \"#utility.yul\":1831:1836   */\n      dup3\n        /* \"#utility.yul\":1798:1837   */\n      tag_142\n      jump\t// in\n    tag_220:\n        /* \"#utility.yul\":1853:1924   */\n      tag_221\n        /* \"#utility.yul\":1917:1923   */\n      dup2\n        /* \"#utility.yul\":1912:1915   */\n      dup6\n        /* \"#utility.yul\":1853:1924   */\n      tag_143\n      jump\t// in\n    tag_221:\n        /* \"#utility.yul\":1846:1924   */\n      swap4\n      pop\n        /* \"#utility.yul\":1933:1998   */\n      tag_222\n        /* \"#utility.yul\":1991:1997   */\n      dup2\n        /* \"#utility.yul\":1986:1989   */\n      dup6\n        /* \"#utility.yul\":1979:1983   */\n      0x20\n        /* \"#utility.yul\":1972:1977   */\n      dup7\n        /* \"#utility.yul\":1968:1984   */\n      add\n        /* \"#utility.yul\":1933:1998   */\n      tag_144\n      jump\t// in\n    tag_222:\n        /* \"#utility.yul\":2023:2052   */\n      tag_223\n        /* \"#utility.yul\":2045:2051   */\n      dup2\n        /* \"#utility.yul\":2023:2052   */\n      tag_145\n      jump\t// in\n    tag_223:\n        /* \"#utility.yul\":2018:2021   */\n      dup5\n        /* \"#utility.yul\":2014:2053   */\n      add\n        /* \"#utility.yul\":2007:2053   */\n      swap2\n      pop\n        /* \"#utility.yul\":1774:2059   */\n      pop\n        /* \"#utility.yul\":1682:2059   */\n      swap3\n      swap2\n      pop\n      pop\n      jump\t// out\n        /* \"#utility.yul\":2065:2155   */\n    tag_147:\n        /* \"#utility.yul\":2099:2106   */\n      0x00\n        /* \"#utility.yul\":2142:2147   */\n      dup2\n        /* \"#utility.yul\":2135:2148   */\n      iszero\n        /* \"#utility.yul\":2128:2149   */\n      iszero\n        /* \"#utility.yul\":2117:2149   */\n      swap1\n      pop\n        /* \"#utility.yul\":2065:2155   */\n      swap2\n      swap1\n      pop\n      jump\t// out\n        /* \"#utility.yul\":2161:2270   */\n    tag_148:\n        /* \"#utility.yul\":2242:2263   */\n      tag_226\n        /* \"#utility.yul\":2257:2262   */\n      dup2\n        /* \"#utility.yul\":2242:2263   */\n      tag_147\n      jump\t// in\n    tag_226:\n        /* \"#utility.yul\":2237:2240   */\n      dup3\n        /* \"#utility.yul\":2230:2264   */\n      mstore\n        /* \"#utility.yul\":2161:2270   */\n      pop\n      pop\n      jump\t// out\n        /* \"#utility.yul\":2276:3130   */\n    tag_20:\n        /* \"#utility.yul\":2523:2527   */\n      0x00\n        /* \"#utility.yul\":2561:2564   */\n      0xc0\n        /* \"#utility.yul\":2550:2559   */\n      dup3\n        /* \"#utility.yul\":2546:2565   */\n      add\n        /* \"#utility.yul\":2538:2565   */\n      swap1\n      pop\n        /* \"#utility.yul\":2575:2646   */\n      tag_228\n        /* \"#utility.yul\":2643:2644   */\n      0x00\n        /* \"#utility.yul\":2632:2641   */\n      dup4\n        /* \"#utility.yul\":2628:2645   */\n      add\n        /* \"#utility.yul\":2619:2625   */\n      dup10\n        /* \"#utility.yul\":2575:2646   */\n      tag_141\n      jump\t// in\n    tag_228:\n        /* \"#utility.yul\":2693:2702   */\n      dup2\n        /* \"#utility.yul\":2687:2691   */\n      dup2\n        /* \"#utility.yul\":2683:2703   */\n      sub\n        /* \"#utility.yul\":2678:2680   */\n      0x20\n        /* \"#utility.yul\":2667:2676   */\n      dup4\n        /* \"#utility.yul\":2663:2681   */\n      add\n        /* \"#utility.yul\":2656:2704   */\n      mstore\n        /* \"#utility.yul\":2721:2799   */\n      tag_229\n        /* \"#utility.yul\":2794:2798   */\n      dup2\n        /* \"#utility.yul\":2785:2791   */\n      dup9\n        /* \"#utility.yul\":2721:2799   */\n      tag_146\n      jump\t// in\n    tag_229:\n        /* \"#utility.yul\":2713:2799   */\n      swap1\n      pop\n        /* \"#utility.yul\":2809:2881   */\n      tag_230\n        /* \"#utility.yul\":2877:2879   */\n      0x40\n        /* \"#utility.yul\":2866:2875   */\n      dup4\n        /* \"#utility.yul\":2862:2880   */\n      add\n        /* \"#utility.yul\":2853:2859   */\n      dup8\n        /* \"#utility.yul\":2809:2881   */\n      tag_141\n      jump\t// in\n    tag_230:\n        /* \"#utility.yul\":2891:2963   */\n      tag_231\n        /* \"#utility.yul\":2959:2961   */\n      0x60\n        /* \"#utility.yul\":2948:2957   */\n      dup4\n        /* \"#utility.yul\":2944:2962   */\n      add\n        /* \"#utility.yul\":2935:2941   */\n      dup7\n        /* \"#utility.yul\":2891:2963   */\n      tag_141\n      jump\t// in\n    tag_231:\n        /* \"#utility.yul\":2973:3040   */\n      tag_232\n        /* \"#utility.yul\":3035:3038   */\n      0x80\n        /* \"#utility.yul\":3024:3033   */\n      dup4\n        /* \"#utility.yul\":3020:3039   */\n      add\n        /* \"#utility.yul\":3011:3017   */\n      dup6\n        /* \"#utility.yul\":2973:3040   */\n      tag_148\n      jump\t// in\n    tag_232:\n        /* \"#utility.yul\":3050:3123   */\n      tag_233\n        /* \"#utility.yul\":3118:3121   */\n      0xa0\n        /* \"#utility.yul\":3107:3116   */\n      dup4\n        /* \"#utility.yul\":3103:3122   */\n      add\n        /* \"#utility.yul\":3094:3100   */\n      dup5\n        /* \"#utility.yul\":3050:3123   */\n      tag_141\n      jump\t// in\n    tag_233:\n        /* \"#utility.yul\":2276:3130   */\n      swap8\n      swap7\n      pop\n      pop\n      pop\n      pop\n      pop\n      pop\n      pop\n      jump\t// out\n        /* \"#utility.yul\":3136:3262   */\n    tag_149:\n        /* \"#utility.yul\":3173:3180   */\n      0x00\n        /* \"#utility.yul\":3213:3255   */\n      0xffffffffffffffffffffffffffffffffffffffff\n        /* \"#utility.yul\":3206:3211   */\n      dup3\n        /* \"#utility.yul\":3202:3256   */\n      and\n        /* \"#utility.yul\":3191:3256   */\n      swap1\n      pop\n        /* \"#utility.yul\":3136:3262   */\n      swap2\n      swap1\n      pop\n      jump\t// out\n        /* \"#utility.yul\":3268:3328   */\n    tag_150:\n        /* \"#utility.yul\":3296:3299   */\n      0x00\n        /* \"#utility.yul\":3317:3322   */\n      dup2\n        /* \"#utility.yul\":3310:3322   */\n      swap1\n      pop\n        /* \"#utility.yul\":3268:3328   */\n      swap2\n      swap1\n      pop\n      jump\t// out\n        /* \"#utility.yul\":3334:3476   */\n    tag_151:\n        /* \"#utility.yul\":3384:3393   */\n      0x00\n        /* \"#utility.yul\":3417:3470   */\n      tag_237\n        /* \"#utility.yul\":3435:3469   */\n      tag_238\n        /* \"#utility.yul\":3444:3468   */\n      tag_239\n        /* \"#utility.yul\":3462:3467   */\n      dup5\n        /* \"#utility.yul\":3444:3468   */\n      tag_149\n      jump\t// in\n    tag_239:\n        /* \"#utility.yul\":3435:3469   */\n      tag_150\n      jump\t// in\n    tag_238:\n        /* \"#utility.yul\":3417:3470   */\n      tag_149\n      jump\t// in\n    tag_237:\n        /* \"#utility.yul\":3404:3470   */\n      swap1\n      pop\n        /* \"#utility.yul\":3334:3476   */\n      swap2\n      swap1\n      pop\n      jump\t// out\n        /* \"#utility.yul\":3482:3608   */\n    tag_152:\n        /* \"#utility.yul\":3532:3541   */\n      0x00\n        /* \"#utility.yul\":3565:3602   */\n      tag_241\n        /* \"#utility.yul\":3596:3601   */\n      dup3\n        /* \"#utility.yul\":3565:3602   */\n      tag_151\n      jump\t// in\n    tag_241:\n        /* \"#utility.yul\":3552:3602   */\n      swap1\n      pop\n        /* \"#utility.yul\":3482:3608   */\n      swap2\n      swap1\n      pop\n      jump\t// out\n        /* \"#utility.yul\":3614:3754   */\n    tag_153:\n        /* \"#utility.yul\":3678:3687   */\n      0x00\n        /* \"#utility.yul\":3711:3748   */\n      tag_243\n        /* \"#utility.yul\":3742:3747   */\n      dup3\n        /* \"#utility.yul\":3711:3748   */\n      tag_152\n      jump\t// in\n    tag_243:\n        /* \"#utility.yul\":3698:3748   */\n      swap1\n      pop\n        /* \"#utility.yul\":3614:3754   */\n      swap2\n      swap1\n      pop\n      jump\t// out\n        /* \"#utility.yul\":3760:3919   */\n    tag_154:\n        /* \"#utility.yul\":3861:3912   */\n      tag_245\n        /* \"#utility.yul\":3906:3911   */\n      dup2\n        /* \"#utility.yul\":3861:3912   */\n      tag_153\n      jump\t// in\n    tag_245:\n        /* \"#utility.yul\":3856:3859   */\n      dup3\n        /* \"#utility.yul\":3849:3913   */\n      mstore\n        /* \"#utility.yul\":3760:3919   */\n      pop\n      pop\n      jump\t// out\n        /* \"#utility.yul\":3925:4175   */\n    tag_27:\n        /* \"#utility.yul\":4032:4036   */\n      0x00\n        /* \"#utility.yul\":4070:4072   */\n      0x20\n        /* \"#utility.yul\":4059:4068   */\n      dup3\n        /* \"#utility.yul\":4055:4073   */\n      add\n        /* \"#utility.yul\":4047:4073   */\n      swap1\n      pop\n        /* \"#utility.yul\":4083:4168   */\n      tag_247\n        /* \"#utility.yul\":4165:4166   */\n      0x00\n        /* \"#utility.yul\":4154:4163   */\n      dup4\n        /* \"#utility.yul\":4150:4167   */\n      add\n        /* \"#utility.yul\":4141:4147   */\n      dup5\n        /* \"#utility.yul\":4083:4168   */\n      tag_154\n      jump\t// in\n    tag_247:\n        /* \"#utility.yul\":3925:4175   */\n      swap3\n      swap2\n      pop\n      pop\n      jump\t// out\n        /* \"#utility.yul\":4181:4277   */\n    tag_155:\n        /* \"#utility.yul\":4218:4225   */\n      0x00\n        /* \"#utility.yul\":4247:4271   */\n      tag_249\n        /* \"#utility.yul\":4265:4270   */\n      dup3\n        /* \"#utility.yul\":4247:4271   */\n      tag_149\n      jump\t// in\n    tag_249:\n        /* \"#utility.yul\":4236:4271   */\n      swap1\n      pop\n        /* \"#utility.yul\":4181:4277   */\n      swap2\n      swap1\n      pop\n      jump\t// out\n        /* \"#utility.yul\":4283:4405   */\n    tag_156:\n        /* \"#utility.yul\":4356:4380   */\n      tag_251\n        /* \"#utility.yul\":4374:4379   */\n      dup2\n        /* \"#utility.yul\":4356:4380   */\n      tag_155\n      jump\t// in\n    tag_251:\n        /* \"#utility.yul\":4349:4354   */\n      dup2\n        /* \"#utility.yul\":4346:4381   */\n      eq\n        /* \"#utility.yul\":4336:4399   */\n      tag_252\n      jumpi\n        /* \"#utility.yul\":4395:4396   */\n      0x00\n        /* \"#utility.yul\":4392:4393   */\n      0x00\n        /* \"#utility.yul\":4385:4397   */\n      revert\n        /* \"#utility.yul\":4336:4399   */\n    tag_252:\n        /* \"#utility.yul\":4283:4405   */\n      pop\n      jump\t// out\n        /* \"#utility.yul\":4411:4550   */\n    tag_157:\n        /* \"#utility.yul\":4457:4462   */\n      0x00\n        /* \"#utility.yul\":4495:4501   */\n      dup2\n        /* \"#utility.yul\":4482:4502   */\n      calldataload\n        /* \"#utility.yul\":4473:4502   */\n      swap1\n      pop\n        /* \"#utility.yul\":4511:4544   */\n      tag_254\n        /* \"#utility.yul\":4538:4543   */\n      dup2\n        /* \"#utility.yul\":4511:4544   */\n      tag_156\n      jump\t// in\n    tag_254:\n        /* \"#utility.yul\":4411:4550   */\n      swap3\n      swap2\n      pop\n      pop\n      jump\t// out\n        /* \"#utility.yul\":4556:5030   */\n    tag_30:\n        /* \"#utility.yul\":4624:4630   */\n      0x00\n        /* \"#utility.yul\":4632:4638   */\n      0x00\n        /* \"#utility.yul\":4681:4683   */\n      0x40\n        /* \"#utility.yul\":4669:4678   */\n      dup4\n        /* \"#utility.yul\":4660:4667   */\n      dup6\n        /* \"#utility.yul\":4656:4679   */\n      sub\n        /* \"#utility.yul\":4652:4684   */\n      slt\n        /* \"#utility.yul\":4649:4768   */\n      iszero\n      tag_256\n      jumpi\n        /* \"#utility.yul\":4687:4766   */\n      tag_257\n      tag_136\n      jump\t// in\n    tag_257:\n        /* \"#utility.yul\":4649:4768   */\n    tag_256:\n        /* \"#utility.yul\":4807:4808   */\n      0x00\n        /* \"#utility.yul\":4832:4885   */\n      tag_258\n        /* \"#utility.yul\":4877:4884   */\n      dup6\n        /* \"#utility.yul\":4868:4874   */\n      dup3\n        /* \"#utility.yul\":4857:4866   */\n      dup7\n        /* \"#utility.yul\":4853:4875   */\n      add\n        /* \"#utility.yul\":4832:4885   */\n      tag_157\n      jump\t// in\n    tag_258:\n        /* \"#utility.yul\":4822:4885   */\n      swap3\n      pop\n        /* \"#utility.yul\":4778:4895   */\n      pop\n        /* \"#utility.yul\":4934:4936   */\n      0x20\n        /* \"#utility.yul\":4960:5013   */\n      tag_259\n        /* \"#utility.yul\":5005:5012   */\n      dup6\n        /* \"#utility.yul\":4996:5002   */\n      dup3\n        /* \"#utility.yul\":4985:4994   */\n      dup7\n        /* \"#utility.yul\":4981:5003   */\n      add\n        /* \"#utility.yul\":4960:5013   */\n      tag_140\n      jump\t// in\n    tag_259:\n        /* \"#utility.yul\":4950:5013   */\n      swap2\n      pop\n        /* \"#utility.yul\":4905:5023   */\n      pop\n        /* \"#utility.yul\":4556:5030   */\n      swap3\n      pop\n      swap3\n      swap1\n      pop\n      jump\t// out\n        /* \"#utility.yul\":5036:5246   */\n    tag_33:\n        /* \"#utility.yul\":5123:5127   */\n      0x00\n        /* \"#utility.yul\":5161:5163   */\n      0x20\n        /* \"#utility.yul\":5150:5159   */\n      dup3\n        /* \"#utility.yul\":5146:5164   */\n      add\n        /* \"#utility.yul\":5138:5164   */\n      swap1\n      pop\n        /* \"#utility.yul\":5174:5239   */\n      tag_261\n        /* \"#utility.yul\":5236:5237   */\n      0x00\n        /* \"#utility.yul\":5225:5234   */\n      dup4\n        /* \"#utility.yul\":5221:5238   */\n      add\n        /* \"#utility.yul\":5212:5218   */\n      dup5\n        /* \"#utility.yul\":5174:5239   */\n      tag_148\n      jump\t// in\n    tag_261:\n        /* \"#utility.yul\":5036:5246   */\n      swap3\n      swap2\n      pop\n      pop\n      jump\t// out\n        /* \"#utility.yul\":5252:5369   */\n    tag_158:\n        /* \"#utility.yul\":5361:5362   */\n      0x00\n        /* \"#utility.yul\":5358:5359   */\n      0x00\n        /* \"#utility.yul\":5351:5363   */\n      revert\n        /* \"#utility.yul\":5375:5492   */\n    tag_159:\n        /* \"#utility.yul\":5484:5485   */\n      0x00\n        /* \"#utility.yul\":5481:5482   */\n      0x00\n        /* \"#utility.yul\":5474:5486   */\n      revert\n        /* \"#utility.yul\":5498:5678   */\n    tag_160:\n        /* \"#utility.yul\":5546:5623   */\n      0x4e487b7100000000000000000000000000000000000000000000000000000000\n        /* \"#utility.yul\":5543:5544   */\n      0x00\n        /* \"#utility.yul\":5536:5624   */\n      mstore\n        /* \"#utility.yul\":5643:5647   */\n      0x41\n        /* \"#utility.yul\":5640:5641   */\n      0x04\n        /* \"#utility.yul\":5633:5648   */\n      mstore\n        /* \"#utility.yul\":5667:5671   */\n      0x24\n        /* \"#utility.yul\":5664:5665   */\n      0x00\n        /* \"#utility.yul\":5657:5672   */\n      revert\n        /* \"#utility.yul\":5684:5965   */\n    tag_161:\n        /* \"#utility.yul\":5767:5794   */\n      tag_266\n        /* \"#utility.yul\":5789:5793   */\n      dup3\n        /* \"#utility.yul\":5767:5794   */\n      tag_145\n      jump\t// in\n    tag_266:\n        /* \"#utility.yul\":5759:5765   */\n      dup2\n        /* \"#utility.yul\":5755:5795   */\n      add\n        /* \"#utility.yul\":5897:5903   */\n      dup2\n        /* \"#utility.yul\":5885:5895   */\n      dup2\n        /* \"#utility.yul\":5882:5904   */\n      lt\n        /* \"#utility.yul\":5861:5879   */\n      0xffffffffffffffff\n        /* \"#utility.yul\":5849:5859   */\n      dup3\n        /* \"#utility.yul\":5846:5880   */\n      gt\n        /* \"#utility.yul\":5843:5905   */\n      or\n        /* \"#utility.yul\":5840:5928   */\n      iszero\n      tag_267\n      jumpi\n        /* \"#utility.yul\":5908:5926   */\n      tag_268\n      tag_160\n      jump\t// in\n    tag_268:\n        /* \"#utility.yul\":5840:5928   */\n    tag_267:\n        /* \"#utility.yul\":5948:5958   */\n      dup1\n        /* \"#utility.yul\":5944:5946   */\n      0x40\n        /* \"#utility.yul\":5937:5959   */\n      mstore\n        /* \"#utility.yul\":5727:5965   */\n      pop\n        /* \"#utility.yul\":5684:5965   */\n      pop\n      pop\n      jump\t// out\n        /* \"#utility.yul\":5971:6100   */\n    tag_162:\n        /* \"#utility.yul\":6005:6011   */\n      0x00\n        /* \"#utility.yul\":6032:6052   */\n      tag_270\n      tag_135\n      jump\t// in\n    tag_270:\n        /* \"#utility.yul\":6022:6052   */\n      swap1\n      pop\n        /* \"#utility.yul\":6061:6094   */\n      tag_271\n        /* \"#utility.yul\":6089:6093   */\n      dup3\n        /* \"#utility.yul\":6081:6087   */\n      dup3\n        /* \"#utility.yul\":6061:6094   */\n      tag_161\n      jump\t// in\n    tag_271:\n        /* \"#utility.yul\":5971:6100   */\n      swap2\n      swap1\n      pop\n      jump\t// out\n        /* \"#utility.yul\":6106:6414   */\n    tag_163:\n        /* \"#utility.yul\":6168:6172   */\n      0x00\n        /* \"#utility.yul\":6258:6276   */\n      0xffffffffffffffff\n        /* \"#utility.yul\":6250:6256   */\n      dup3\n        /* \"#utility.yul\":6247:6277   */\n      gt\n        /* \"#utility.yul\":6244:6300   */\n      iszero\n      tag_273\n      jumpi\n        /* \"#utility.yul\":6280:6298   */\n      tag_274\n      tag_160\n      jump\t// in\n    tag_274:\n        /* \"#utility.yul\":6244:6300   */\n    tag_273:\n        /* \"#utility.yul\":6318:6347   */\n      tag_275\n        /* \"#utility.yul\":6340:6346   */\n      dup3\n        /* \"#utility.yul\":6318:6347   */\n      tag_145\n      jump\t// in\n    tag_275:\n        /* \"#utility.yul\":6310:6347   */\n      swap1\n      pop\n        /* \"#utility.yul\":6402:6406   */\n      0x20\n        /* \"#utility.yul\":6396:6400   */\n      dup2\n        /* \"#utility.yul\":6392:6407   */\n      add\n        /* \"#utility.yul\":6384:6407   */\n      swap1\n      pop\n        /* \"#utility.yul\":6106:6414   */\n      swap2\n      swap1\n      pop\n      jump\t// out\n        /* \"#utility.yul\":6420:6568   */\n    tag_164:\n        /* \"#utility.yul\":6518:6524   */\n      dup3\n        /* \"#utility.yul\":6513:6516   */\n      dup2\n        /* \"#utility.yul\":6508:6511   */\n      dup4\n        /* \"#utility.yul\":6495:6525   */\n      calldatacopy\n        /* \"#utility.yul\":6559:6560   */\n      0x00\n        /* \"#utility.yul\":6550:6556   */\n      dup4\n        /* \"#utility.yul\":6545:6548   */\n      dup4\n        /* \"#utility.yul\":6541:6557   */\n      add\n        /* \"#utility.yul\":6534:6561   */\n      mstore\n        /* \"#utility.yul\":6420:6568   */\n      pop\n      pop\n      pop\n      jump\t// out\n        /* \"#utility.yul\":6574:6999   */\n    tag_165:\n        /* \"#utility.yul\":6652:6657   */\n      0x00\n        /* \"#utility.yul\":6677:6743   */\n      tag_278\n        /* \"#utility.yul\":6693:6742   */\n      tag_279\n        /* \"#utility.yul\":6735:6741   */\n      dup5\n        /* \"#utility.yul\":6693:6742   */\n      tag_163\n      jump\t// in\n    tag_279:\n        /* \"#utility.yul\":6677:6743   */\n      tag_162\n      jump\t// in\n    tag_278:\n        /* \"#utility.yul\":6668:6743   */\n      swap1\n      pop\n        /* \"#utility.yul\":6766:6772   */\n      dup3\n        /* \"#utility.yul\":6759:6764   */\n      dup2\n        /* \"#utility.yul\":6752:6773   */\n      mstore\n        /* \"#utility.yul\":6804:6808   */\n      0x20\n        /* \"#utility.yul\":6797:6802   */\n      dup2\n        /* \"#utility.yul\":6793:6809   */\n      add\n        /* \"#utility.yul\":6842:6845   */\n      dup5\n        /* \"#utility.yul\":6833:6839   */\n      dup5\n        /* \"#utility.yul\":6828:6831   */\n      dup5\n        /* \"#utility.yul\":6824:6840   */\n      add\n        /* \"#utility.yul\":6821:6846   */\n      gt\n        /* \"#utility.yul\":6818:6930   */\n      iszero\n      tag_280\n      jumpi\n        /* \"#utility.yul\":6849:6928   */\n      tag_281\n      tag_159\n      jump\t// in\n    tag_281:\n        /* \"#utility.yul\":6818:6930   */\n    tag_280:\n        /* \"#utility.yul\":6939:6993   */\n      tag_282\n        /* \"#utility.yul\":6986:6992   */\n      dup5\n        /* \"#utility.yul\":6981:6984   */\n      dup3\n        /* \"#utility.yul\":6976:6979   */\n      dup6\n        /* \"#utility.yul\":6939:6993   */\n      tag_164\n      jump\t// in\n    tag_282:\n        /* \"#utility.yul\":6658:6999   */\n      pop\n        /* \"#utility.yul\":6574:6999   */\n      swap4\n      swap3\n      pop\n      pop\n      pop\n      jump\t// out\n        /* \"#utility.yul\":7019:7359   */\n    tag_166:\n        /* \"#utility.yul\":7075:7080   */\n      0x00\n        /* \"#utility.yul\":7124:7127   */\n      dup3\n        /* \"#utility.yul\":7117:7121   */\n      0x1f\n        /* \"#utility.yul\":7109:7115   */\n      dup4\n        /* \"#utility.yul\":7105:7122   */\n      add\n        /* \"#utility.yul\":7101:7128   */\n      slt\n        /* \"#utility.yul\":7091:7213   */\n      tag_284\n      jumpi\n        /* \"#utility.yul\":7132:7211   */\n      tag_285\n      tag_158\n      jump\t// in\n    tag_285:\n        /* \"#utility.yul\":7091:7213   */\n    tag_284:\n        /* \"#utility.yul\":7249:7255   */\n      dup2\n        /* \"#utility.yul\":7236:7256   */\n      calldataload\n        /* \"#utility.yul\":7274:7353   */\n      tag_286\n        /* \"#utility.yul\":7349:7352   */\n      dup5\n        /* \"#utility.yul\":7341:7347   */\n      dup3\n        /* \"#utility.yul\":7334:7338   */\n      0x20\n        /* \"#utility.yul\":7326:7332   */\n      dup7\n        /* \"#utility.yul\":7322:7339   */\n      add\n        /* \"#utility.yul\":7274:7353   */\n      tag_165\n      jump\t// in\n    tag_286:\n        /* \"#utility.yul\":7265:7353   */\n      swap2\n      pop\n        /* \"#utility.yul\":7081:7359   */\n      pop\n        /* \"#utility.yul\":7019:7359   */\n      swap3\n      swap2\n      pop\n      pop\n      jump\t// out\n        /* \"#utility.yul\":7365:7874   */\n    tag_36:\n        /* \"#utility.yul\":7434:7440   */\n      0x00\n        /* \"#utility.yul\":7483:7485   */\n      0x20\n        /* \"#utility.yul\":7471:7480   */\n      dup3\n        /* \"#utility.yul\":7462:7469   */\n      dup5\n        /* \"#utility.yul\":7458:7481   */\n      sub\n        /* \"#utility.yul\":7454:7486   */\n      slt\n        /* \"#utility.yul\":7451:7570   */\n      iszero\n      tag_288\n      jumpi\n        /* \"#utility.yul\":7489:7568   */\n      tag_289\n      tag_136\n      jump\t// in\n    tag_289:\n        /* \"#utility.yul\":7451:7570   */\n    tag_288:\n        /* \"#utility.yul\":7637:7638   */\n      0x00\n        /* \"#utility.yul\":7626:7635   */\n      dup3\n        /* \"#utility.yul\":7622:7639   */\n      add\n        /* \"#utility.yul\":7609:7640   */\n      calldataload\n        /* \"#utility.yul\":7667:7685   */\n      0xffffffffffffffff\n        /* \"#utility.yul\":7659:7665   */\n      dup2\n        /* \"#utility.yul\":7656:7686   */\n      gt\n        /* \"#utility.yul\":7653:7770   */\n      iszero\n      tag_290\n      jumpi\n        /* \"#utility.yul\":7689:7768   */\n      tag_291\n      tag_137\n      jump\t// in\n    tag_291:\n        /* \"#utility.yul\":7653:7770   */\n    tag_290:\n        /* \"#utility.yul\":7794:7857   */\n      tag_292\n        /* \"#utility.yul\":7849:7856   */\n      dup5\n        /* \"#utility.yul\":7840:7846   */\n      dup3\n        /* \"#utility.yul\":7829:7838   */\n      dup6\n        /* \"#utility.yul\":7825:7847   */\n      add\n        /* \"#utility.yul\":7794:7857   */\n      tag_166\n      jump\t// in\n    tag_292:\n        /* \"#utility.yul\":7784:7857   */\n      swap2\n      pop\n        /* \"#utility.yul\":7580:7867   */\n      pop\n        /* \"#utility.yul\":7365:7874   */\n      swap3\n      swap2\n      pop\n      pop\n      jump\t// out\n        /* \"#utility.yul\":7880:7998   */\n    tag_167:\n        /* \"#utility.yul\":7967:7991   */\n      tag_294\n        /* \"#utility.yul\":7985:7990   */\n      dup2\n        /* \"#utility.yul\":7967:7991   */\n      tag_155\n      jump\t// in\n    tag_294:\n        /* \"#utility.yul\":7962:7965   */\n      dup3\n        /* \"#utility.yul\":7955:7992   */\n      mstore\n        /* \"#utility.yul\":7880:7998   */\n      pop\n      pop\n      jump\t// out\n        /* \"#utility.yul\":8004:8226   */\n    tag_43:\n        /* \"#utility.yul\":8097:8101   */\n      0x00\n        /* \"#utility.yul\":8135:8137   */\n      0x20\n        /* \"#utility.yul\":8124:8133   */\n      dup3\n        /* \"#utility.yul\":8120:8138   */\n      add\n        /* \"#utility.yul\":8112:8138   */\n      swap1\n      pop\n        /* \"#utility.yul\":8148:8219   */\n      tag_296\n        /* \"#utility.yul\":8216:8217   */\n      0x00\n        /* \"#utility.yul\":8205:8214   */\n      dup4\n        /* \"#utility.yul\":8201:8218   */\n      add\n        /* \"#utility.yul\":8192:8198   */\n      dup5\n        /* \"#utility.yul\":8148:8219   */\n      tag_167\n      jump\t// in\n    tag_296:\n        /* \"#utility.yul\":8004:8226   */\n      swap3\n      swap2\n      pop\n      pop\n      jump\t// out\n        /* \"#utility.yul\":8232:8454   */\n    tag_47:\n        /* \"#utility.yul\":8325:8329   */\n      0x00\n        /* \"#utility.yul\":8363:8365   */\n      0x20\n        /* \"#utility.yul\":8352:8361   */\n      dup3\n        /* \"#utility.yul\":8348:8366   */\n      add\n        /* \"#utility.yul\":8340:8366   */\n      swap1\n      pop\n        /* \"#utility.yul\":8376:8447   */\n      tag_298\n        /* \"#utility.yul\":8444:8445   */\n      0x00\n        /* \"#utility.yul\":8433:8442   */\n      dup4\n        /* \"#utility.yul\":8429:8446   */\n      add\n        /* \"#utility.yul\":8420:8426   */\n      dup5\n        /* \"#utility.yul\":8376:8447   */\n      tag_141\n      jump\t// in\n    tag_298:\n        /* \"#utility.yul\":8232:8454   */\n      swap3\n      swap2\n      pop\n      pop\n      jump\t// out\n        /* \"#utility.yul\":8460:8576   */\n    tag_168:\n        /* \"#utility.yul\":8530:8551   */\n      tag_300\n        /* \"#utility.yul\":8545:8550   */\n      dup2\n        /* \"#utility.yul\":8530:8551   */\n      tag_147\n      jump\t// in\n    tag_300:\n        /* \"#utility.yul\":8523:8528   */\n      dup2\n        /* \"#utility.yul\":8520:8552   */\n      eq\n        /* \"#utility.yul\":8510:8570   */\n      tag_301\n      jumpi\n        /* \"#utility.yul\":8566:8567   */\n      0x00\n        /* \"#utility.yul\":8563:8564   */\n      0x00\n        /* \"#utility.yul\":8556:8568   */\n      revert\n        /* \"#utility.yul\":8510:8570   */\n    tag_301:\n        /* \"#utility.yul\":8460:8576   */\n      pop\n      jump\t// out\n        /* \"#utility.yul\":8582:8715   */\n    tag_169:\n        /* \"#utility.yul\":8625:8630   */\n      0x00\n        /* \"#utility.yul\":8663:8669   */\n      dup2\n        /* \"#utility.yul\":8650:8670   */\n      calldataload\n        /* \"#utility.yul\":8641:8670   */\n      swap1\n      pop\n        /* \"#utility.yul\":8679:8709   */\n      tag_303\n        /* \"#utility.yul\":8703:8708   */\n      dup2\n        /* \"#utility.yul\":8679:8709   */\n      tag_168\n      jump\t// in\n    tag_303:\n        /* \"#utility.yul\":8582:8715   */\n      swap3\n      swap2\n      pop\n      pop\n      jump\t// out\n        /* \"#utility.yul\":8721:9189   */\n    tag_50:\n        /* \"#utility.yul\":8786:8792   */\n      0x00\n        /* \"#utility.yul\":8794:8800   */\n      0x00\n        /* \"#utility.yul\":8843:8845   */\n      0x40\n        /* \"#utility.yul\":8831:8840   */\n      dup4\n        /* \"#utility.yul\":8822:8829   */\n      dup6\n        /* \"#utility.yul\":8818:8841   */\n      sub\n        /* \"#utility.yul\":8814:8846   */\n      slt\n        /* \"#utility.yul\":8811:8930   */\n      iszero\n      tag_305\n      jumpi\n        /* \"#utility.yul\":8849:8928   */\n      tag_306\n      tag_136\n      jump\t// in\n    tag_306:\n        /* \"#utility.yul\":8811:8930   */\n    tag_305:\n        /* \"#utility.yul\":8969:8970   */\n      0x00\n        /* \"#utility.yul\":8994:9047   */\n      tag_307\n        /* \"#utility.yul\":9039:9046   */\n      dup6\n        /* \"#utility.yul\":9030:9036   */\n      dup3\n        /* \"#utility.yul\":9019:9028   */\n      dup7\n        /* \"#utility.yul\":9015:9037   */\n      add\n        /* \"#utility.yul\":8994:9047   */\n      tag_140\n      jump\t// in\n    tag_307:\n        /* \"#utility.yul\":8984:9047   */\n      swap3\n      pop\n        /* \"#utility.yul\":8940:9057   */\n      pop\n        /* \"#utility.yul\":9096:9098   */\n      0x20\n        /* \"#utility.yul\":9122:9172   */\n      tag_308\n        /* \"#utility.yul\":9164:9171   */\n      dup6\n        /* \"#utility.yul\":9155:9161   */\n      dup3\n        /* \"#utility.yul\":9144:9153   */\n      dup7\n        /* \"#utility.yul\":9140:9162   */\n      add\n        /* \"#utility.yul\":9122:9172   */\n      tag_169\n      jump\t// in\n    tag_308:\n        /* \"#utility.yul\":9112:9172   */\n      swap2\n      pop\n        /* \"#utility.yul\":9067:9182   */\n      pop\n        /* \"#utility.yul\":8721:9189   */\n      swap3\n      pop\n      swap3\n      swap1\n      pop\n      jump\t// out\n        /* \"#utility.yul\":9195:9524   */\n    tag_57:\n        /* \"#utility.yul\":9254:9260   */\n      0x00\n        /* \"#utility.yul\":9303:9305   */\n      0x20\n        /* \"#utility.yul\":9291:9300   */\n      dup3\n        /* \"#utility.yul\":9282:9289   */\n      dup5\n        /* \"#utility.yul\":9278:9301   */\n      sub\n        /* \"#utility.yul\":9274:9306   */\n      slt\n        /* \"#utility.yul\":9271:9390   */\n      iszero\n      tag_310\n      jumpi\n        /* \"#utility.yul\":9309:9388   */\n      tag_311\n      tag_136\n      jump\t// in\n    tag_311:\n        /* \"#utility.yul\":9271:9390   */\n    tag_310:\n        /* \"#utility.yul\":9429:9430   */\n      0x00\n        /* \"#utility.yul\":9454:9507   */\n      tag_312\n        /* \"#utility.yul\":9499:9506   */\n      dup5\n        /* \"#utility.yul\":9490:9496   */\n      dup3\n        /* \"#utility.yul\":9479:9488   */\n      dup6\n        /* \"#utility.yul\":9475:9497   */\n      add\n        /* \"#utility.yul\":9454:9507   */\n      tag_157\n      jump\t// in\n    tag_312:\n        /* \"#utility.yul\":9444:9507   */\n      swap2\n      pop\n        /* \"#utility.yul\":9400:9517   */\n      pop\n        /* \"#utility.yul\":9195:9524   */\n      swap3\n      swap2\n      pop\n      pop\n      jump\t// out\n        /* \"#utility.yul\":9530:9710   */\n    tag_170:\n        /* \"#utility.yul\":9578:9655   */\n      0x4e487b7100000000000000000000000000000000000000000000000000000000\n        /* \"#utility.yul\":9575:9576   */\n      0x00\n        /* \"#utility.yul\":9568:9656   */\n      mstore\n        /* \"#utility.yul\":9675:9679   */\n      0x22\n        /* \"#utility.yul\":9672:9673   */\n      0x04\n        /* \"#utility.yul\":9665:9680   */\n      mstore\n        /* \"#utility.yul\":9699:9703   */\n      0x24\n        /* \"#utility.yul\":9696:9697   */\n      0x00\n        /* \"#utility.yul\":9689:9704   */\n      revert\n        /* \"#utility.yul\":9716:10036   */\n    tag_60:\n        /* \"#utility.yul\":9760:9766   */\n      0x00\n        /* \"#utility.yul\":9797:9798   */\n      0x02\n        /* \"#utility.yul\":9791:9795   */\n      dup3\n        /* \"#utility.yul\":9787:9799   */\n      div\n        /* \"#utility.yul\":9777:9799   */\n      swap1\n      pop\n        /* \"#utility.yul\":9844:9845   */\n      0x01\n        /* \"#utility.yul\":9838:9842   */\n      dup3\n        /* \"#utility.yul\":9834:9846   */\n      and\n        /* \"#utility.yul\":9865:9883   */\n      dup1\n        /* \"#utility.yul\":9855:9936   */\n      tag_315\n      jumpi\n        /* \"#utility.yul\":9921:9925   */\n      0x7f\n        /* \"#utility.yul\":9913:9919   */\n      dup3\n        /* \"#utility.yul\":9909:9926   */\n      and\n        /* \"#utility.yul\":9899:9926   */\n      swap2\n      pop\n        /* \"#utility.yul\":9855:9936   */\n    tag_315:\n        /* \"#utility.yul\":9983:9985   */\n      0x20\n        /* \"#utility.yul\":9975:9981   */\n      dup3\n        /* \"#utility.yul\":9972:9986   */\n      lt\n        /* \"#utility.yul\":9952:9970   */\n      dup2\n        /* \"#utility.yul\":9949:9987   */\n      sub\n        /* \"#utility.yul\":9946:10030   */\n      tag_316\n      jumpi\n        /* \"#utility.yul\":10002:10020   */\n      tag_317\n      tag_170\n      jump\t// in\n    tag_317:\n        /* \"#utility.yul\":9946:10030   */\n    tag_316:\n        /* \"#utility.yul\":9767:10036   */\n      pop\n        /* \"#utility.yul\":9716:10036   */\n      swap2\n      swap1\n      pop\n      jump\t// out\n        /* \"#utility.yul\":10042:10215   */\n    tag_171:\n        /* \"#utility.yul\":10182:10207   */\n      0x566f74696e6720706572696f64206e6f7420656e646564000000000000000000\n        /* \"#utility.yul\":10178:10179   */\n      0x00\n        /* \"#utility.yul\":10170:10176   */\n      dup3\n        /* \"#utility.yul\":10166:10180   */\n      add\n        /* \"#utility.yul\":10159:10208   */\n      mstore\n        /* \"#utility.yul\":10042:10215   */\n      pop\n      jump\t// out\n        /* \"#utility.yul\":10221:10587   */\n    tag_172:\n        /* \"#utility.yul\":10363:10366   */\n      0x00\n        /* \"#utility.yul\":10384:10451   */\n      tag_320\n        /* \"#utility.yul\":10448:10450   */\n      0x17\n        /* \"#utility.yul\":10443:10446   */\n      dup4\n        /* \"#utility.yul\":10384:10451   */\n      tag_143\n      jump\t// in\n    tag_320:\n        /* \"#utility.yul\":10377:10451   */\n      swap2\n      pop\n        /* \"#utility.yul\":10460:10553   */\n      tag_321\n        /* \"#utility.yul\":10549:10552   */\n      dup3\n        /* \"#utility.yul\":10460:10553   */\n      tag_171\n      jump\t// in\n    tag_321:\n        /* \"#utility.yul\":10578:10580   */\n      0x20\n        /* \"#utility.yul\":10573:10576   */\n      dup3\n        /* \"#utility.yul\":10569:10581   */\n      add\n        /* \"#utility.yul\":10562:10581   */\n      swap1\n      pop\n        /* \"#utility.yul\":10221:10587   */\n      swap2\n      swap1\n      pop\n      jump\t// out\n        /* \"#utility.yul\":10593:11012   */\n    tag_71:\n        /* \"#utility.yul\":10759:10763   */\n      0x00\n        /* \"#utility.yul\":10797:10799   */\n      0x20\n        /* \"#utility.yul\":10786:10795   */\n      dup3\n        /* \"#utility.yul\":10782:10800   */\n      add\n        /* \"#utility.yul\":10774:10800   */\n      swap1\n      pop\n        /* \"#utility.yul\":10846:10855   */\n      dup2\n        /* \"#utility.yul\":10840:10844   */\n      dup2\n        /* \"#utility.yul\":10836:10856   */\n      sub\n        /* \"#utility.yul\":10832:10833   */\n      0x00\n        /* \"#utility.yul\":10821:10830   */\n      dup4\n        /* \"#utility.yul\":10817:10834   */\n      add\n        /* \"#utility.yul\":10810:10857   */\n      mstore\n        /* \"#utility.yul\":10874:11005   */\n      tag_323\n        /* \"#utility.yul\":11000:11004   */\n      dup2\n        /* \"#utility.yul\":10874:11005   */\n      tag_172\n      jump\t// in\n    tag_323:\n        /* \"#utility.yul\":10866:11005   */\n      swap1\n      pop\n        /* \"#utility.yul\":10593:11012   */\n      swap2\n      swap1\n      pop\n      jump\t// out\n        /* \"#utility.yul\":11018:11193   */\n    tag_173:\n        /* \"#utility.yul\":11158:11185   */\n      0x50726f706f73616c20616c726561647920657865637574656400000000000000\n        /* \"#utility.yul\":11154:11155   */\n      0x00\n        /* \"#utility.yul\":11146:11152   */\n      dup3\n        /* \"#utility.yul\":11142:11156   */\n      add\n        /* \"#utility.yul\":11135:11186   */\n      mstore\n        /* \"#utility.yul\":11018:11193   */\n      pop\n      jump\t// out\n        /* \"#utility.yul\":11199:11565   */\n    tag_174:\n        /* \"#utility.yul\":11341:11344   */\n      0x00\n        /* \"#utility.yul\":11362:11429   */\n      tag_326\n        /* \"#utility.yul\":11426:11428   */\n      0x19\n        /* \"#utility.yul\":11421:11424   */\n      dup4\n        /* \"#utility.yul\":11362:11429   */\n      tag_143\n      jump\t// in\n    tag_326:\n        /* \"#utility.yul\":11355:11429   */\n      swap2\n      pop\n        /* \"#utility.yul\":11438:11531   */\n      tag_327\n        /* \"#utility.yul\":11527:11530   */\n      dup3\n        /* \"#utility.yul\":11438:11531   */\n      tag_173\n      jump\t// in\n    tag_327:\n        /* \"#utility.yul\":11556:11558   */\n      0x20\n        /* \"#utility.yul\":11551:11554   */\n      dup3\n        /* \"#utility.yul\":11547:11559   */\n      add\n        /* \"#utility.yul\":11540:11559   */\n      swap1\n      pop\n        /* \"#utility.yul\":11199:11565   */\n      swap2\n      swap1\n      pop\n      jump\t// out\n        /* \"#utility.yul\":11571:11990   */\n    tag_74:\n        /* \"#utility.yul\":11737:11741   */\n      0x00\n        /* \"#utility.yul\":11775:11777   */\n      0x20\n        /* \"#utility.yul\":11764:11773   */\n      dup3\n        /* \"#utility.yul\":11760:11778   */\n      add\n        /* \"#utility.yul\":11752:11778   */\n      swap1\n      pop\n        /* \"#utility.yul\":11824:11833   */\n      dup2\n        /* \"#utility.yul\":11818:11822   */\n      dup2\n        /* \"#utility.yul\":11814:11834   */\n      sub\n        /* \"#utility.yul\":11810:11811   */\n      0x00\n        /* \"#utility.yul\":11799:11808   */\n      dup4\n        /* \"#utility.yul\":11795:11812   */\n      add\n        /* \"#utility.yul\":11788:11835   */\n      mstore\n        /* \"#utility.yul\":11852:11983   */\n      tag_329\n        /* \"#utility.yul\":11978:11982   */\n      dup2\n        /* \"#utility.yul\":11852:11983   */\n      tag_174\n      jump\t// in\n    tag_329:\n        /* \"#utility.yul\":11844:11983   */\n      swap1\n      pop\n        /* \"#utility.yul\":11571:11990   */\n      swap2\n      swap1\n      pop\n      jump\t// out\n        /* \"#utility.yul\":11996:12165   */\n    tag_175:\n        /* \"#utility.yul\":12136:12157   */\n      0x50726f706f73616c206e6f742070617373656400000000000000000000000000\n        /* \"#utility.yul\":12132:12133   */\n      0x00\n        /* \"#utility.yul\":12124:12130   */\n      dup3\n        /* \"#utility.yul\":12120:12134   */\n      add\n        /* \"#utility.yul\":12113:12158   */\n      mstore\n        /* \"#utility.yul\":11996:12165   */\n      pop\n      jump\t// out\n        /* \"#utility.yul\":12171:12537   */\n    tag_176:\n        /* \"#utility.yul\":12313:12316   */\n      0x00\n        /* \"#utility.yul\":12334:12401   */\n      tag_332\n        /* \"#utility.yul\":12398:12400   */\n      0x13\n        /* \"#utility.yul\":12393:12396   */\n      dup4\n        /* \"#utility.yul\":12334:12401   */\n      tag_143\n      jump\t// in\n    tag_332:\n        /* \"#utility.yul\":12327:12401   */\n      swap2\n      pop\n        /* \"#utility.yul\":12410:12503   */\n      tag_333\n        /* \"#utility.yul\":12499:12502   */\n      dup3\n        /* \"#utility.yul\":12410:12503   */\n      tag_175\n      jump\t// in\n    tag_333:\n        /* \"#utility.yul\":12528:12530   */\n      0x20\n        /* \"#utility.yul\":12523:12526   */\n      dup3\n        /* \"#utility.yul\":12519:12531   */\n      add\n        /* \"#utility.yul\":12512:12531   */\n      swap1\n      pop\n        /* \"#utility.yul\":12171:12537   */\n      swap2\n      swap1\n      pop\n      jump\t// out\n        /* \"#utility.yul\":12543:12962   */\n    tag_77:\n        /* \"#utility.yul\":12709:12713   */\n      0x00\n        /* \"#utility.yul\":12747:12749   */\n      0x20\n        /* \"#utility.yul\":12736:12745   */\n      dup3\n        /* \"#utility.yul\":12732:12750   */\n      add\n        /* \"#utility.yul\":12724:12750   */\n      swap1\n      pop\n        /* \"#utility.yul\":12796:12805   */\n      dup2\n        /* \"#utility.yul\":12790:12794   */\n      dup2\n        /* \"#utility.yul\":12786:12806   */\n      sub\n        /* \"#utility.yul\":12782:12783   */\n      0x00\n        /* \"#utility.yul\":12771:12780   */\n      dup4\n        /* \"#utility.yul\":12767:12784   */\n      add\n        /* \"#utility.yul\":12760:12807   */\n      mstore\n        /* \"#utility.yul\":12824:12955   */\n      tag_335\n        /* \"#utility.yul\":12950:12954   */\n      dup2\n        /* \"#utility.yul\":12824:12955   */\n      tag_176\n      jump\t// in\n    tag_335:\n        /* \"#utility.yul\":12816:12955   */\n      swap1\n      pop\n        /* \"#utility.yul\":12543:12962   */\n      swap2\n      swap1\n      pop\n      jump\t// out\n        /* \"#utility.yul\":12968:13148   */\n    tag_177:\n        /* \"#utility.yul\":13016:13093   */\n      0x4e487b7100000000000000000000000000000000000000000000000000000000\n        /* \"#utility.yul\":13013:13014   */\n      0x00\n        /* \"#utility.yul\":13006:13094   */\n      mstore\n        /* \"#utility.yul\":13113:13117   */\n      0x11\n        /* \"#utility.yul\":13110:13111   */\n      0x04\n        /* \"#utility.yul\":13103:13118   */\n      mstore\n        /* \"#utility.yul\":13137:13141   */\n      0x24\n        /* \"#utility.yul\":13134:13135   */\n      0x00\n        /* \"#utility.yul\":13127:13142   */\n      revert\n        /* \"#utility.yul\":13154:13387   */\n    tag_83:\n        /* \"#utility.yul\":13193:13196   */\n      0x00\n        /* \"#utility.yul\":13216:13240   */\n      tag_338\n        /* \"#utility.yul\":13234:13239   */\n      dup3\n        /* \"#utility.yul\":13216:13240   */\n      tag_138\n      jump\t// in\n    tag_338:\n        /* \"#utility.yul\":13207:13240   */\n      swap2\n      pop\n        /* \"#utility.yul\":13262:13328   */\n      0xffffffffffffffffffffffffffffffffffffffffffffffffffffffffffffffff\n        /* \"#utility.yul\":13255:13260   */\n      dup3\n        /* \"#utility.yul\":13252:13329   */\n      sub\n        /* \"#utility.yul\":13249:13352   */\n      tag_339\n      jumpi\n        /* \"#utility.yul\":13332:13350   */\n      tag_340\n      tag_177\n      jump\t// in\n    tag_340:\n        /* \"#utility.yul\":13249:13352   */\n    tag_339:\n        /* \"#utility.yul\":13379:13380   */\n      0x01\n        /* \"#utility.yul\":13372:13377   */\n      dup3\n        /* \"#utility.yul\":13368:13381   */\n      add\n        /* \"#utility.yul\":13361:13381   */\n      swap1\n      pop\n        /* \"#utility.yul\":13154:13387   */\n      swap2\n      swap1\n      pop\n      jump\t// out\n        /* \"#utility.yul\":13393:13584   */\n    tag_85:\n        /* \"#utility.yul\":13433:13436   */\n      0x00\n        /* \"#utility.yul\":13452:13472   */\n      tag_342\n        /* \"#utility.yul\":13470:13471   */\n      dup3\n        /* \"#utility.yul\":13452:13472   */\n      tag_138\n      jump\t// in\n    tag_342:\n        /* \"#utility.yul\":13447:13472   */\n      swap2\n      pop\n        /* \"#utility.yul\":13486:13506   */\n      tag_343\n        /* \"#utility.yul\":13504:13505   */\n      dup4\n        /* \"#utility.yul\":13486:13506   */\n      tag_138\n      jump\t// in\n    tag_343:\n        /* \"#utility.yul\":13481:13506   */\n      swap3\n      pop\n        /* \"#utility.yul\":13529:13530   */\n      dup3\n        /* \"#utility.yul\":13526:13527   */\n      dup3\n        /* \"#utility.yul\":13522:13531   */\n      add\n        /* \"#utility.yul\":13515:13531   */\n      swap1\n      pop\n        /* \"#utility.yul\":13550:13553   */\n      dup1\n        /* \"#utility.yul\":13547:13548   */\n      dup3\n        /* \"#utility.yul\":13544:13554   */\n      gt\n        /* \"#utility.yul\":13541:13577   */\n      iszero\n      tag_344\n      jumpi\n        /* \"#utility.yul\":13557:13575   */\n      tag_345\n      tag_177\n      jump\t// in\n    tag_345:\n        /* \"#utility.yul\":13541:13577   */\n    tag_344:\n        /* \"#utility.yul\":13393:13584   */\n      swap3\n      swap2\n      pop\n      pop\n      jump\t// out\n        /* \"#utility.yul\":13590:13731   */\n    tag_178:\n        /* \"#utility.yul\":13639:13643   */\n      0x00\n        /* \"#utility.yul\":13662:13665   */\n      dup2\n        /* \"#utility.yul\":13654:13665   */\n      swap1\n      pop\n        /* \"#utility.yul\":13685:13688   */\n      dup2\n        /* \"#utility.yul\":13682:13683   */\n      0x00\n        /* \"#utility.yul\":13675:13689   */\n      mstore\n        /* \"#utility.yul\":13719:13723   */\n      0x20\n        /* \"#utility.yul\":13716:13717   */\n      0x00\n        /* \"#utility.yul\":13706:13724   */\n      keccak256\n        /* \"#utility.yul\":13698:13724   */\n      swap1\n      pop\n        /* \"#utility.yul\":13590:13731   */\n      swap2\n      swap1\n      pop\n      jump\t// out\n        /* \"#utility.yul\":13737:13830   */\n    tag_179:\n        /* \"#utility.yul\":13774:13780   */\n      0x00\n        /* \"#utility.yul\":13821:13823   */\n      0x20\n        /* \"#utility.yul\":13816:13818   */\n      0x1f\n        /* \"#utility.yul\":13809:13814   */\n      dup4\n        /* \"#utility.yul\":13805:13819   */\n      add\n        /* \"#utility.yul\":13801:13824   */\n      div\n        /* \"#utility.yul\":13791:13824   */\n      swap1\n      pop\n        /* \"#utility.yul\":13737:13830   */\n      swap2\n      swap1\n      pop\n      jump\t// out\n        /* \"#utility.yul\":13836:13943   */\n    tag_180:\n        /* \"#utility.yul\":13880:13888   */\n      0x00\n        /* \"#utility.yul\":13930:13935   */\n      dup3\n        /* \"#utility.yul\":13924:13928   */\n      dup3\n        /* \"#utility.yul\":13920:13936   */\n      shl\n        /* \"#utility.yul\":13899:13936   */\n      swap1\n      pop\n        /* \"#utility.yul\":13836:13943   */\n      swap3\n      swap2\n      pop\n      pop\n      jump\t// out\n        /* \"#utility.yul\":13949:14342   */\n    tag_181:\n        /* \"#utility.yul\":14018:14024   */\n      0x00\n        /* \"#utility.yul\":14068:14069   */\n      0x08\n        /* \"#utility.yul\":14056:14066   */\n      dup4\n        /* \"#utility.yul\":14052:14070   */\n      mul\n        /* \"#utility.yul\":14091:14188   */\n      tag_350\n        /* \"#utility.yul\":14121:14187   */\n      0xffffffffffffffffffffffffffffffffffffffffffffffffffffffffffffffff\n        /* \"#utility.yul\":14110:14119   */\n      dup3\n        /* \"#utility.yul\":14091:14188   */\n      tag_180\n      jump\t// in\n    tag_350:\n        /* \"#utility.yul\":14209:14248   */\n      tag_351\n        /* \"#utility.yul\":14239:14247   */\n      dup7\n        /* \"#utility.yul\":14228:14237   */\n      dup4\n        /* \"#utility.yul\":14209:14248   */\n      tag_180\n      jump\t// in\n    tag_351:\n        /* \"#utility.yul\":14197:14248   */\n      swap6\n      pop\n        /* \"#utility.yul\":14281:14285   */\n      dup1\n        /* \"#utility.yul\":14277:14286   */\n      not\n        /* \"#utility.yul\":14270:14275   */\n      dup5\n        /* \"#utility.yul\":14266:14287   */\n      and\n        /* \"#utility.yul\":14257:14287   */\n      swap4\n      pop\n        /* \"#utility.yul\":14330:14334   */\n      dup1\n        /* \"#utility.yul\":14320:14328   */\n      dup7\n        /* \"#utility.yul\":14316:14335   */\n      and\n        /* \"#utility.yul\":14309:14314   */\n      dup5\n        /* \"#utility.yul\":14306:14336   */\n      or\n        /* \"#utility.yul\":14296:14336   */\n      swap3\n      pop\n        /* \"#utility.yul\":14025:14342   */\n      pop\n      pop\n        /* \"#utility.yul\":13949:14342   */\n      swap4\n      swap3\n      pop\n      pop\n      pop\n      jump\t// out\n        /* \"#utility.yul\":14348:14490   */\n    tag_182:\n        /* \"#utility.yul\":14398:14407   */\n      0x00\n        /* \"#utility.yul\":14431:14484   */\n      tag_353\n        /* \"#utility.yul\":14449:14483   */\n      tag_354\n        /* \"#utility.yul\":14458:14482   */\n      tag_355\n        /* \"#utility.yul\":14476:14481   */\n      dup5\n        /* \"#utility.yul\":14458:14482   */\n      tag_138\n      jump\t// in\n    tag_355:\n        /* \"#utility.yul\":14449:14483   */\n      tag_150\n      jump\t// in\n    tag_354:\n        /* \"#utility.yul\":14431:14484   */\n      tag_138\n      jump\t// in\n    tag_353:\n        /* \"#utility.yul\":14418:14484   */\n      swap1\n      pop\n        /* \"#utility.yul\":14348:14490   */\n      swap2\n      swap1\n      pop\n      jump\t// out\n        /* \"#utility.yul\":14496:14571   */\n    tag_183:\n        /* \"#utility.yul\":14539:14542   */\n      0x00\n        /* \"#utility.yul\":14560:14565   */\n      dup2\n        /* \"#utility.yul\":14553:14565   */\n      swap1\n      pop\n        /* \"#utility.yul\":14496:14571   */\n      swap2\n      swap1\n      pop\n      jump\t// out\n        /* \"#utility.yul\":14577:14846   */\n    tag_184:\n        /* \"#utility.yul\":14687:14726   */\n      tag_358\n        /* \"#utility.yul\":14718:14725   */\n      dup4\n        /* \"#utility.yul\":14687:14726   */\n      tag_182\n      jump\t// in\n    tag_358:\n        /* \"#utility.yul\":14748:14839   */\n      tag_359\n        /* \"#utility.yul\":14797:14838   */\n      tag_360\n        /* \"#utility.yul\":14821:14837   */\n      dup3\n        /* \"#utility.yul\":14797:14838   */\n      tag_183\n      jump\t// in\n    tag_360:\n        /* \"#utility.yul\":14789:14795   */\n      dup5\n        /* \"#utility.yul\":14782:14786   */\n      dup5\n        /* \"#utility.yul\":14776:14787   */\n      sload\n        /* \"#utility.yul\":14748:14839   */\n      tag_181\n      jump\t// in\n    tag_359:\n        /* \"#utility.yul\":14742:14746   */\n      dup3\n        /* \"#utility.yul\":14735:14840   */\n      sstore\n        /* \"#utility.yul\":14653:14846   */\n      pop\n        /* \"#utility.yul\":14577:14846   */\n      pop\n      pop\n      pop\n      jump\t// out\n        /* \"#utility.yul\":14852:14925   */\n    tag_185:\n        /* \"#utility.yul\":14897:14900   */\n      0x00\n        /* \"#utility.yul\":14918:14919   */\n      0x00\n        /* \"#utility.yul\":14911:14919   */\n      swap1\n      pop\n        /* \"#utility.yul\":14852:14925   */\n      swap1\n      jump\t// out\n        /* \"#utility.yul\":14931:15120   */\n    tag_186:\n        /* \"#utility.yul\":15008:15040   */\n      tag_363\n      tag_185\n      jump\t// in\n    tag_363:\n        /* \"#utility.yul\":15049:15114   */\n      tag_364\n        /* \"#utility.yul\":15107:15113   */\n      dup2\n        /* \"#utility.yul\":15099:15105   */\n      dup5\n        /* \"#utility.yul\":15093:15097   */\n      dup5\n        /* \"#utility.yul\":15049:15114   */\n      tag_184\n      jump\t// in\n    tag_364:\n        /* \"#utility.yul\":14984:15120   */\n      pop\n        /* \"#utility.yul\":14931:15120   */\n      pop\n      pop\n      jump\t// out\n        /* \"#utility.yul\":15126:15312   */\n    tag_187:\n        /* \"#utility.yul\":15186:15306   */\n    tag_366:\n        /* \"#utility.yul\":15203:15206   */\n      dup2\n        /* \"#utility.yul\":15196:15201   */\n      dup2\n        /* \"#utility.yul\":15193:15207   */\n      lt\n        /* \"#utility.yul\":15186:15306   */\n      iszero\n      tag_368\n      jumpi\n        /* \"#utility.yul\":15257:15296   */\n      tag_369\n        /* \"#utility.yul\":15294:15295   */\n      0x00\n        /* \"#utility.yul\":15287:15292   */\n      dup3\n        /* \"#utility.yul\":15257:15296   */\n      tag_186\n      jump\t// in\n    tag_369:\n        /* \"#utility.yul\":15230:15231   */\n      0x01\n        /* \"#utility.yul\":15223:15228   */\n      dup2\n        /* \"#utility.yul\":15219:15232   */\n      add\n        /* \"#utility.yul\":15210:15232   */\n      swap1\n      pop\n        /* \"#utility.yul\":15186:15306   */\n      jump(tag_366)\n    tag_368:\n        /* \"#utility.yul\":15126:15312   */\n      pop\n      pop\n      jump\t// out\n        /* \"#utility.yul\":15318:15861   */\n    tag_188:\n        /* \"#utility.yul\":15419:15421   */\n      0x1f\n        /* \"#utility.yul\":15414:15417   */\n      dup3\n        /* \"#utility.yul\":15411:15422   */\n      gt\n        /* \"#utility.yul\":15408:15854   */\n      iszero\n      tag_371\n      jumpi\n        /* \"#utility.yul\":15453:15491   */\n      tag_372\n        /* \"#utility.yul\":15485:15490   */\n      dup2\n        /* \"#utility.yul\":15453:15491   */\n      tag_178\n      jump\t// in\n    tag_372:\n        /* \"#utility.yul\":15537:15566   */\n      tag_373\n        /* \"#utility.yul\":15555:15565   */\n      dup5\n        /* \"#utility.yul\":15537:15566   */\n      tag_179\n      jump\t// in\n    tag_373:\n        /* \"#utility.yul\":15527:15535   */\n      dup2\n        /* \"#utility.yul\":15523:15567   */\n      add\n        /* \"#utility.yul\":15720:15722   */\n      0x20\n        /* \"#utility.yul\":15708:15718   */\n      dup6\n        /* \"#utility.yul\":15705:15723   */\n      lt\n        /* \"#utility.yul\":15702:15751   */\n      iszero\n      tag_374\n      jumpi\n        /* \"#utility.yul\":15741:15749   */\n      dup2\n        /* \"#utility.yul\":15726:15749   */\n      swap1\n      pop\n        /* \"#utility.yul\":15702:15751   */\n    tag_374:\n        /* \"#utility.yul\":15764:15844   */\n      tag_375\n        /* \"#utility.yul\":15820:15842   */\n      tag_376\n        /* \"#utility.yul\":15838:15841   */\n      dup6\n        /* \"#utility.yul\":15820:15842   */\n      tag_179\n      jump\t// in\n    tag_376:\n        /* \"#utility.yul\":15810:15818   */\n      dup4\n        /* \"#utility.yul\":15806:15843   */\n      add\n        /* \"#utility.yul\":15793:15804   */\n      dup3\n        /* \"#utility.yul\":15764:15844   */\n      tag_187\n      jump\t// in\n    tag_375:\n        /* \"#utility.yul\":15423:15854   */\n      pop\n      pop\n        /* \"#utility.yul\":15408:15854   */\n    tag_371:\n        /* \"#utility.yul\":15318:15861   */\n      pop\n      pop\n      pop\n      jump\t// out\n        /* \"#utility.yul\":15867:15984   */\n    tag_189:\n        /* \"#utility.yul\":15921:15929   */\n      0x00\n        /* \"#utility.yul\":15971:15976   */\n      dup3\n        /* \"#utility.yul\":15965:15969   */\n      dup3\n        /* \"#utility.yul\":15961:15977   */\n      shr\n        /* \"#utility.yul\":15940:15977   */\n      swap1\n      pop\n        /* \"#utility.yul\":15867:15984   */\n      swap3\n      swap2\n      pop\n      pop\n      jump\t// out\n        /* \"#utility.yul\":15990:16159   */\n    tag_190:\n        /* \"#utility.yul\":16034:16040   */\n      0x00\n        /* \"#utility.yul\":16067:16118   */\n      tag_379\n        /* \"#utility.yul\":16115:16116   */\n      0x00\n        /* \"#utility.yul\":16111:16117   */\n      not\n        /* \"#utility.yul\":16103:16108   */\n      dup5\n        /* \"#utility.yul\":16100:16101   */\n      0x08\n        /* \"#utility.yul\":16096:16109   */\n      mul\n        /* \"#utility.yul\":16067:16118   */\n      tag_189\n      jump\t// in\n    tag_379:\n        /* \"#utility.yul\":16063:16119   */\n      not\n        /* \"#utility.yul\":16148:16152   */\n      dup1\n        /* \"#utility.yul\":16142:16146   */\n      dup4\n        /* \"#utility.yul\":16138:16153   */\n      and\n        /* \"#utility.yul\":16128:16153   */\n      swap2\n      pop\n        /* \"#utility.yul\":16041:16159   */\n      pop\n        /* \"#utility.yul\":15990:16159   */\n      swap3\n      swap2\n      pop\n      pop\n      jump\t// out\n        /* \"#utility.yul\":16164:16459   */\n    tag_191:\n        /* \"#utility.yul\":16240:16244   */\n      0x00\n        /* \"#utility.yul\":16386:16415   */\n      tag_381\n        /* \"#utility.yul\":16411:16414   */\n      dup4\n        /* \"#utility.yul\":16405:16409   */\n      dup4\n        /* \"#utility.yul\":16386:16415   */\n      tag_190\n      jump\t// in\n    tag_381:\n        /* \"#utility.yul\":16378:16415   */\n      swap2\n      pop\n        /* \"#utility.yul\":16448:16451   */\n      dup3\n        /* \"#utility.yul\":16445:16446   */\n      0x02\n        /* \"#utility.yul\":16441:16452   */\n      mul\n        /* \"#utility.yul\":16435:16439   */\n      dup3\n        /* \"#utility.yul\":16432:16453   */\n      or\n        /* \"#utility.yul\":16424:16453   */\n      swap1\n      pop\n        /* \"#utility.yul\":16164:16459   */\n      swap3\n      swap2\n      pop\n      pop\n      jump\t// out\n        /* \"#utility.yul\":16464:17859   */\n    tag_87:\n        /* \"#utility.yul\":16581:16618   */\n      tag_383\n        /* \"#utility.yul\":16614:16617   */\n      dup3\n        /* \"#utility.yul\":16581:16618   */\n      tag_142\n      jump\t// in\n    tag_383:\n        /* \"#utility.yul\":16683:16701   */\n      0xffffffffffffffff\n        /* \"#utility.yul\":16675:16681   */\n      dup2\n        /* \"#utility.yul\":16672:16702   */\n      gt\n        /* \"#utility.yul\":16669:16725   */\n      iszero\n      tag_384\n      jumpi\n        /* \"#utility.yul\":16705:16723   */\n      tag_385\n      tag_160\n      jump\t// in\n    tag_385:\n        /* \"#utility.yul\":16669:16725   */\n    tag_384:\n        /* \"#utility.yul\":16749:16787   */\n      tag_386\n        /* \"#utility.yul\":16781:16785   */\n      dup3\n        /* \"#utility.yul\":16775:16786   */\n      sload\n        /* \"#utility.yul\":16749:16787   */\n      tag_60\n      jump\t// in\n    tag_386:\n        /* \"#utility.yul\":16834:16901   */\n      tag_387\n        /* \"#utility.yul\":16894:16900   */\n      dup3\n        /* \"#utility.yul\":16886:16892   */\n      dup3\n        /* \"#utility.yul\":16880:16884   */\n      dup6\n        /* \"#utility.yul\":16834:16901   */\n      tag_188\n      jump\t// in\n    tag_387:\n        /* \"#utility.yul\":16928:16929   */\n      0x00\n        /* \"#utility.yul\":16952:16956   */\n      0x20\n        /* \"#utility.yul\":16939:16956   */\n      swap1\n      pop\n        /* \"#utility.yul\":16984:16986   */\n      0x1f\n        /* \"#utility.yul\":16976:16982   */\n      dup4\n        /* \"#utility.yul\":16973:16987   */\n      gt\n        /* \"#utility.yul\":17001:17002   */\n      0x01\n        /* \"#utility.yul\":16996:17614   */\n      dup2\n      eq\n      tag_389\n      jumpi\n        /* \"#utility.yul\":17658:17659   */\n      0x00\n        /* \"#utility.yul\":17675:17681   */\n      dup5\n        /* \"#utility.yul\":17672:17749   */\n      iszero\n      tag_390\n      jumpi\n        /* \"#utility.yul\":17724:17733   */\n      dup3\n        /* \"#utility.yul\":17719:17722   */\n      dup8\n        /* \"#utility.yul\":17715:17734   */\n      add\n        /* \"#utility.yul\":17709:17735   */\n      mload\n        /* \"#utility.yul\":17700:17735   */\n      swap1\n      pop\n        /* \"#utility.yul\":17672:17749   */\n    tag_390:\n        /* \"#utility.yul\":17775:17842   */\n      tag_391\n        /* \"#utility.yul\":17835:17841   */\n      dup6\n        /* \"#utility.yul\":17828:17833   */\n      dup3\n        /* \"#utility.yul\":17775:17842   */\n      tag_191\n      jump\t// in\n    tag_391:\n        /* \"#utility.yul\":17769:17773   */\n      dup7\n        /* \"#utility.yul\":17762:17843   */\n      sstore\n        /* \"#utility.yul\":17631:17853   */\n      pop\n        /* \"#utility.yul\":16966:17853   */\n      jump(tag_388)\n        /* \"#utility.yul\":16996:17614   */\n    tag_389:\n        /* \"#utility.yul\":17048:17052   */\n      0x1f\n        /* \"#utility.yul\":17044:17053   */\n      not\n        /* \"#utility.yul\":17036:17042   */\n      dup5\n        /* \"#utility.yul\":17032:17054   */\n      and\n        /* \"#utility.yul\":17082:17119   */\n      tag_392\n        /* \"#utility.yul\":17114:17118   */\n      dup7\n        /* \"#utility.yul\":17082:17119   */\n      tag_178\n      jump\t// in\n    tag_392:\n        /* \"#utility.yul\":17141:17142   */\n      0x00\n        /* \"#utility.yul\":17155:17363   */\n    tag_393:\n        /* \"#utility.yul\":17169:17176   */\n      dup3\n        /* \"#utility.yul\":17166:17167   */\n      dup2\n        /* \"#utility.yul\":17163:17177   */\n      lt\n        /* \"#utility.yul\":17155:17363   */\n      iszero\n      tag_395\n      jumpi\n        /* \"#utility.yul\":17248:17257   */\n      dup5\n        /* \"#utility.yul\":17243:17246   */\n      dup10\n        /* \"#utility.yul\":17239:17258   */\n      add\n        /* \"#utility.yul\":17233:17259   */\n      mload\n        /* \"#utility.yul\":17225:17231   */\n      dup3\n        /* \"#utility.yul\":17218:17260   */\n      sstore\n        /* \"#utility.yul\":17299:17300   */\n      0x01\n        /* \"#utility.yul\":17291:17297   */\n      dup3\n        /* \"#utility.yul\":17287:17301   */\n      add\n        /* \"#utility.yul\":17277:17301   */\n      swap2\n      pop\n        /* \"#utility.yul\":17346:17348   */\n      0x20\n        /* \"#utility.yul\":17335:17344   */\n      dup6\n        /* \"#utility.yul\":17331:17349   */\n      add\n        /* \"#utility.yul\":17318:17349   */\n      swap5\n      pop\n        /* \"#utility.yul\":17192:17196   */\n      0x20\n        /* \"#utility.yul\":17189:17190   */\n      dup2\n        /* \"#utility.yul\":17185:17197   */\n      add\n        /* \"#utility.yul\":17180:17197   */\n      swap1\n      pop\n        /* \"#utility.yul\":17155:17363   */\n      jump(tag_393)\n    tag_395:\n        /* \"#utility.yul\":17391:17397   */\n      dup7\n        /* \"#utility.yul\":17382:17389   */\n      dup4\n        /* \"#utility.yul\":17379:17398   */\n      lt\n        /* \"#utility.yul\":17376:17555   */\n      iszero\n      tag_396\n      jumpi\n        /* \"#utility.yul\":17449:17458   */\n      dup5\n        /* \"#utility.yul\":17444:17447   */\n      dup10\n        /* \"#utility.yul\":17440:17459   */\n      add\n        /* \"#utility.yul\":17434:17460   */\n      mload\n        /* \"#utility.yul\":17492:17540   */\n      tag_397\n        /* \"#utility.yul\":17534:17538   */\n      0x1f\n        /* \"#utility.yul\":17526:17532   */\n      dup10\n        /* \"#utility.yul\":17522:17539   */\n      and\n        /* \"#utility.yul\":17511:17520   */\n      dup3\n        /* \"#utility.yul\":17492:17540   */\n      tag_190\n      jump\t// in\n    tag_397:\n        /* \"#utility.yul\":17484:17490   */\n      dup4\n        /* \"#utility.yul\":17477:17541   */\n      sstore\n        /* \"#utility.yul\":17399:17555   */\n      pop\n        /* \"#utility.yul\":17376:17555   */\n    tag_396:\n        /* \"#utility.yul\":17601:17602   */\n      0x01\n        /* \"#utility.yul\":17597:17598   */\n      0x02\n        /* \"#utility.yul\":17589:17595   */\n      dup9\n        /* \"#utility.yul\":17585:17599   */\n      mul\n        /* \"#utility.yul\":17581:17603   */\n      add\n        /* \"#utility.yul\":17575:17579   */\n      dup9\n        /* \"#utility.yul\":17568:17604   */\n      sstore\n        /* \"#utility.yul\":17003:17614   */\n      pop\n      pop\n      pop\n        /* \"#utility.yul\":16966:17853   */\n    tag_388:\n      pop\n        /* \"#utility.yul\":16556:17859   */\n      pop\n      pop\n      pop\n        /* \"#utility.yul\":16464:17859   */\n      pop\n      pop\n      jump\t// out\n        /* \"#utility.yul\":17865:18398   */\n    tag_90:\n        /* \"#utility.yul\":18034:18038   */\n      0x00\n        /* \"#utility.yul\":18072:18074   */\n      0x60\n        /* \"#utility.yul\":18061:18070   */\n      dup3\n        /* \"#utility.yul\":18057:18075   */\n      add\n        /* \"#utility.yul\":18049:18075   */\n      swap1\n      pop\n        /* \"#utility.yul\":18085:18156   */\n      tag_399\n        /* \"#utility.yul\":18153:18154   */\n      0x00\n        /* \"#utility.yul\":18142:18151   */\n      dup4\n        /* \"#utility.yul\":18138:18155   */\n      add\n        /* \"#utility.yul\":18129:18135   */\n      dup7\n        /* \"#utility.yul\":18085:18156   */\n      tag_141\n      jump\t// in\n    tag_399:\n        /* \"#utility.yul\":18203:18212   */\n      dup2\n        /* \"#utility.yul\":18197:18201   */\n      dup2\n        /* \"#utility.yul\":18193:18213   */\n      sub\n        /* \"#utility.yul\":18188:18190   */\n      0x20\n        /* \"#utility.yul\":18177:18186   */\n      dup4\n        /* \"#utility.yul\":18173:18191   */\n      add\n        /* \"#utility.yul\":18166:18214   */\n      mstore\n        /* \"#utility.yul\":18231:18309   */\n      tag_400\n        /* \"#utility.yul\":18304:18308   */\n      dup2\n        /* \"#utility.yul\":18295:18301   */\n      dup6\n        /* \"#utility.yul\":18231:18309   */\n      tag_146\n      jump\t// in\n    tag_400:\n        /* \"#utility.yul\":18223:18309   */\n      swap1\n      pop\n        /* \"#utility.yul\":18319:18391   */\n      tag_401\n        /* \"#utility.yul\":18387:18389   */\n      0x40\n        /* \"#utility.yul\":18376:18385   */\n      dup4\n        /* \"#utility.yul\":18372:18390   */\n      add\n        /* \"#utility.yul\":18363:18369   */\n      dup5\n        /* \"#utility.yul\":18319:18391   */\n      tag_141\n      jump\t// in\n    tag_401:\n        /* \"#utility.yul\":17865:18398   */\n      swap5\n      swap4\n      pop\n      pop\n      pop\n      pop\n      jump\t// out\n        /* \"#utility.yul\":18404:18573   */\n    tag_192:\n        /* \"#utility.yul\":18544:18565   */\n      0x566f74696e6720706572696f6420656e64656400000000000000000000000000\n        /* \"#utility.yul\":18540:18541   */\n      0x00\n        /* \"#utility.yul\":18532:18538   */\n      dup3\n        /* \"#utility.yul\":18528:18542   */\n      add\n        /* \"#utility.yul\":18521:18566   */\n      mstore\n        /* \"#utility.yul\":18404:18573   */\n      pop\n      jump\t// out\n        /* \"#utility.yul\":18579:18945   */\n    tag_193:\n        /* \"#utility.yul\":18721:18724   */\n      0x00\n        /* \"#utility.yul\":18742:18809   */\n      tag_404\n        /* \"#utility.yul\":18806:18808   */\n      0x13\n        /* \"#utility.yul\":18801:18804   */\n      dup4\n        /* \"#utility.yul\":18742:18809   */\n      tag_143\n      jump\t// in\n    tag_404:\n        /* \"#utility.yul\":18735:18809   */\n      swap2\n      pop\n        /* \"#utility.yul\":18818:18911   */\n      tag_405\n        /* \"#utility.yul\":18907:18910   */\n      dup3\n        /* \"#utility.yul\":18818:18911   */\n      tag_192\n      jump\t// in\n    tag_405:\n        /* \"#utility.yul\":18936:18938   */\n      0x20\n        /* \"#utility.yul\":18931:18934   */\n      dup3\n        /* \"#utility.yul\":18927:18939   */\n      add\n        /* \"#utility.yul\":18920:18939   */\n      swap1\n      pop\n        /* \"#utility.yul\":18579:18945   */\n      swap2\n      swap1\n      pop\n      jump\t// out\n        /* \"#utility.yul\":18951:19370   */\n    tag_100:\n        /* \"#utility.yul\":19117:19121   */\n      0x00\n        /* \"#utility.yul\":19155:19157   */\n      0x20\n        /* \"#utility.yul\":19144:19153   */\n      dup3\n        /* \"#utility.yul\":19140:19158   */\n      add\n        /* \"#utility.yul\":19132:19158   */\n      swap1\n      pop\n        /* \"#utility.yul\":19204:19213   */\n      dup2\n        /* \"#utility.yul\":19198:19202   */\n      dup2\n        /* \"#utility.yul\":19194:19214   */\n      sub\n        /* \"#utility.yul\":19190:19191   */\n      0x00\n        /* \"#utility.yul\":19179:19188   */\n      dup4\n        /* \"#utility.yul\":19175:19192   */\n      add\n        /* \"#utility.yul\":19168:19215   */\n      mstore\n        /* \"#utility.yul\":19232:19363   */\n      tag_407\n        /* \"#utility.yul\":19358:19362   */\n      dup2\n        /* \"#utility.yul\":19232:19363   */\n      tag_193\n      jump\t// in\n    tag_407:\n        /* \"#utility.yul\":19224:19363   */\n      swap1\n      pop\n        /* \"#utility.yul\":18951:19370   */\n      swap2\n      swap1\n      pop\n      jump\t// out\n        /* \"#utility.yul\":19376:19539   */\n    tag_194:\n        /* \"#utility.yul\":19516:19531   */\n      0x416c726561647920766f74656400000000000000000000000000000000000000\n        /* \"#utility.yul\":19512:19513   */\n      0x00\n        /* \"#utility.yul\":19504:19510   */\n      dup3\n        /* \"#utility.yul\":19500:19514   */\n      add\n        /* \"#utility.yul\":19493:19532   */\n      mstore\n        /* \"#utility.yul\":19376:19539   */\n      pop\n      jump\t// out\n        /* \"#utility.yul\":19545:19911   */\n    tag_195:\n        /* \"#utility.yul\":19687:19690   */\n      0x00\n        /* \"#utility.yul\":19708:19775   */\n      tag_410\n        /* \"#utility.yul\":19772:19774   */\n      0x0d\n        /* \"#utility.yul\":19767:19770   */\n      dup4\n        /* \"#utility.yul\":19708:19775   */\n      tag_143\n      jump\t// in\n    tag_410:\n        /* \"#utility.yul\":19701:19775   */\n      swap2\n      pop\n        /* \"#utility.yul\":19784:19877   */\n      tag_411\n        /* \"#utility.yul\":19873:19876   */\n      dup3\n        /* \"#utility.yul\":19784:19877   */\n      tag_194\n      jump\t// in\n    tag_411:\n        /* \"#utility.yul\":19902:19904   */\n      0x20\n        /* \"#utility.yul\":19897:19900   */\n      dup3\n        /* \"#utility.yul\":19893:19905   */\n      add\n        /* \"#utility.yul\":19886:19905   */\n      swap1\n      pop\n        /* \"#utility.yul\":19545:19911   */\n      swap2\n      swap1\n      pop\n      jump\t// out\n        /* \"#utility.yul\":19917:20336   */\n    tag_103:\n        /* \"#utility.yul\":20083:20087   */\n      0x00\n        /* \"#utility.yul\":20121:20123   */\n      0x20\n        /* \"#utility.yul\":20110:20119   */\n      dup3\n        /* \"#utility.yul\":20106:20124   */\n      add\n        /* \"#utility.yul\":20098:20124   */\n      swap1\n      pop\n        /* \"#utility.yul\":20170:20179   */\n      dup2\n        /* \"#utility.yul\":20164:20168   */\n      dup2\n        /* \"#utility.yul\":20160:20180   */\n      sub\n        /* \"#utility.yul\":20156:20157   */\n      0x00\n        /* \"#utility.yul\":20145:20154   */\n      dup4\n        /* \"#utility.yul\":20141:20158   */\n      add\n        /* \"#utility.yul\":20134:20181   */\n      mstore\n        /* \"#utility.yul\":20198:20329   */\n      tag_413\n        /* \"#utility.yul\":20324:20328   */\n      dup2\n        /* \"#utility.yul\":20198:20329   */\n      tag_195\n      jump\t// in\n    tag_413:\n        /* \"#utility.yul\":20190:20329   */\n      swap1\n      pop\n        /* \"#utility.yul\":19917:20336   */\n      swap2\n      swap1\n      pop\n      jump\t// out\n        /* \"#utility.yul\":20342:20485   */\n    tag_196:\n        /* \"#utility.yul\":20399:20404   */\n      0x00\n        /* \"#utility.yul\":20430:20436   */\n      dup2\n        /* \"#utility.yul\":20424:20437   */\n      mload\n        /* \"#utility.yul\":20415:20437   */\n      swap1\n      pop\n        /* \"#utility.yul\":20446:20479   */\n      tag_415\n        /* \"#utility.yul\":20473:20478   */\n      dup2\n        /* \"#utility.yul\":20446:20479   */\n      tag_139\n      jump\t// in\n    tag_415:\n        /* \"#utility.yul\":20342:20485   */\n      swap3\n      swap2\n      pop\n      pop\n      jump\t// out\n        /* \"#utility.yul\":20491:20842   */\n    tag_110:\n        /* \"#utility.yul\":20561:20567   */\n      0x00\n        /* \"#utility.yul\":20610:20612   */\n      0x20\n        /* \"#utility.yul\":20598:20607   */\n      dup3\n        /* \"#utility.yul\":20589:20596   */\n      dup5\n        /* \"#utility.yul\":20585:20608   */\n      sub\n        /* \"#utility.yul\":20581:20613   */\n      slt\n        /* \"#utility.yul\":20578:20697   */\n      iszero\n      tag_417\n      jumpi\n        /* \"#utility.yul\":20616:20695   */\n      tag_418\n      tag_136\n      jump\t// in\n    tag_418:\n        /* \"#utility.yul\":20578:20697   */\n    tag_417:\n        /* \"#utility.yul\":20736:20737   */\n      0x00\n        /* \"#utility.yul\":20761:20825   */\n      tag_419\n        /* \"#utility.yul\":20817:20824   */\n      dup5\n        /* \"#utility.yul\":20808:20814   */\n      dup3\n        /* \"#utility.yul\":20797:20806   */\n      dup6\n        /* \"#utility.yul\":20793:20815   */\n      add\n        /* \"#utility.yul\":20761:20825   */\n      tag_196\n      jump\t// in\n    tag_419:\n        /* \"#utility.yul\":20751:20825   */\n      swap2\n      pop\n        /* \"#utility.yul\":20707:20835   */\n      pop\n        /* \"#utility.yul\":20491:20842   */\n      swap3\n      swap2\n      pop\n      pop\n      jump\t// out\n        /* \"#utility.yul\":20848:21013   */\n    tag_197:\n        /* \"#utility.yul\":20988:21005   */\n      0x4e6f20766f74696e6720706f7765720000000000000000000000000000000000\n        /* \"#utility.yul\":20984:20985   */\n      0x00\n        /* \"#utility.yul\":20976:20982   */\n      dup3\n        /* \"#utility.yul\":20972:20986   */\n      add\n        /* \"#utility.yul\":20965:21006   */\n      mstore\n        /* \"#utility.yul\":20848:21013   */\n      pop\n      jump\t// out\n        /* \"#utility.yul\":21019:21385   */\n    tag_198:\n        /* \"#utility.yul\":21161:21164   */\n      0x00\n        /* \"#utility.yul\":21182:21249   */\n      tag_422\n        /* \"#utility.yul\":21246:21248   */\n      0x0f\n        /* \"#utility.yul\":21241:21244   */\n      dup4\n        /* \"#utility.yul\":21182:21249   */\n      tag_143\n      jump\t// in\n    tag_422:\n        /* \"#utility.yul\":21175:21249   */\n      swap2\n      pop\n        /* \"#utility.yul\":21258:21351   */\n      tag_423\n        /* \"#utility.yul\":21347:21350   */\n      dup3\n        /* \"#utility.yul\":21258:21351   */\n      tag_197\n      jump\t// in\n    tag_423:\n        /* \"#utility.yul\":21376:21378   */\n      0x20\n        /* \"#utility.yul\":21371:21374   */\n      dup3\n        /* \"#utility.yul\":21367:21379   */\n      add\n        /* \"#utility.yul\":21360:21379   */\n      swap1\n      pop\n        /* \"#utility.yul\":21019:21385   */\n      swap2\n      swap1\n      pop\n      jump\t// out\n        /* \"#utility.yul\":21391:21810   */\n    tag_113:\n        /* \"#utility.yul\":21557:21561   */\n      0x00\n        /* \"#utility.yul\":21595:21597   */\n      0x20\n        /* \"#utility.yul\":21584:21593   */\n      dup3\n        /* \"#utility.yul\":21580:21598   */\n      add\n        /* \"#utility.yul\":21572:21598   */\n      swap1\n      pop\n        /* \"#utility.yul\":21644:21653   */\n      dup2\n        /* \"#utility.yul\":21638:21642   */\n      dup2\n        /* \"#utility.yul\":21634:21654   */\n      sub\n        /* \"#utility.yul\":21630:21631   */\n      0x00\n        /* \"#utility.yul\":21619:21628   */\n      dup4\n        /* \"#utility.yul\":21615:21632   */\n      add\n        /* \"#utility.yul\":21608:21655   */\n      mstore\n        /* \"#utility.yul\":21672:21803   */\n      tag_425\n        /* \"#utility.yul\":21798:21802   */\n      dup2\n        /* \"#utility.yul\":21672:21803   */\n      tag_198\n      jump\t// in\n    tag_425:\n        /* \"#utility.yul\":21664:21803   */\n      swap1\n      pop\n        /* \"#utility.yul\":21391:21810   */\n      swap2\n      swap1\n      pop\n      jump\t// out\n        /* \"#utility.yul\":21816:22246   */\n    tag_119:\n        /* \"#utility.yul\":21959:21963   */\n      0x00\n        /* \"#utility.yul\":21997:21999   */\n      0x60\n        /* \"#utility.yul\":21986:21995   */\n      dup3\n        /* \"#utility.yul\":21982:22000   */\n      add\n        /* \"#utility.yul\":21974:22000   */\n      swap1\n      pop\n        /* \"#utility.yul\":22010:22081   */\n      tag_427\n        /* \"#utility.yul\":22078:22079   */\n      0x00\n        /* \"#utility.yul\":22067:22076   */\n      dup4\n        /* \"#utility.yul\":22063:22080   */\n      add\n        /* \"#utility.yul\":22054:22060   */\n      dup7\n        /* \"#utility.yul\":22010:22081   */\n      tag_141\n      jump\t// in\n    tag_427:\n        /* \"#utility.yul\":22091:22163   */\n      tag_428\n        /* \"#utility.yul\":22159:22161   */\n      0x20\n        /* \"#utility.yul\":22148:22157   */\n      dup4\n        /* \"#utility.yul\":22144:22162   */\n      add\n        /* \"#utility.yul\":22135:22141   */\n      dup6\n        /* \"#utility.yul\":22091:22163   */\n      tag_167\n      jump\t// in\n    tag_428:\n        /* \"#utility.yul\":22173:22239   */\n      tag_429\n        /* \"#utility.yul\":22235:22237   */\n      0x40\n        /* \"#utility.yul\":22224:22233   */\n      dup4\n        /* \"#utility.yul\":22220:22238   */\n      add\n        /* \"#utility.yul\":22211:22217   */\n      dup5\n        /* \"#utility.yul\":22173:22239   */\n      tag_148\n      jump\t// in\n    tag_429:\n        /* \"#utility.yul\":21816:22246   */\n      swap5\n      swap4\n      pop\n      pop\n      pop\n      pop\n      jump\t// out\n\n    auxdata: 0xa2646970667358221220eb985073330134897e17748c2ec2daeb05d72e7f1ab6bdccb5db12cd43effae964736f6c634300081c0033\n}\n",
				"bytecode": {
					"linkReferences": {},
					"object": "608060405234801561000f575f5ffd5b506040516119b93803806119b983398181016040528101906100319190610286565b805f73ffffffffffffffffffffffffffffffffffffffff168173ffffffffffffffffffffffffffffffffffffffff16036100a2575f6040517f1e4fbdf700000000000000000000000000000000000000000000000000000000815260040161009991906102d3565b60405180910390fd5b6100b18161016760201b60201c565b505f73ffffffffffffffffffffffffffffffffffffffff168273ffffffffffffffffffffffffffffffffffffffff1603610120576040517f08c379a000000000000000000000000000000000000000000000000000000000815260040161011790610346565b60405180910390fd5b8160015f6101000a81548173ffffffffffffffffffffffffffffffffffffffff021916908373ffffffffffffffffffffffffffffffffffffffff1602179055505050610364565b5f5f5f9054906101000a900473ffffffffffffffffffffffffffffffffffffffff169050815f5f6101000a81548173ffffffffffffffffffffffffffffffffffffffff021916908373ffffffffffffffffffffffffffffffffffffffff1602179055508173ffffffffffffffffffffffffffffffffffffffff168173ffffffffffffffffffffffffffffffffffffffff167f8be0079c531659141344cd1fd0a4f28419497f9722a3daafe3b4186f6b6457e060405160405180910390a35050565b5f5ffd5b5f73ffffffffffffffffffffffffffffffffffffffff82169050919050565b5f6102558261022c565b9050919050565b6102658161024b565b811461026f575f5ffd5b50565b5f815190506102808161025c565b92915050565b5f5f6040838503121561029c5761029b610228565b5b5f6102a985828601610272565b92505060206102ba85828601610272565b9150509250929050565b6102cd8161024b565b82525050565b5f6020820190506102e65f8301846102c4565b92915050565b5f82825260208201905092915050565b7f496e76616c696420746f6b656e000000000000000000000000000000000000005f82015250565b5f610330600d836102ec565b915061033b826102fc565b602082019050919050565b5f6020820190508181035f83015261035d81610324565b9050919050565b611648806103715f395ff3fe608060405234801561000f575f5ffd5b50600436106100a7575f3560e01c8063715018a61161006f578063715018a6146101665780638da5cb5b14610170578063a438d2081461018e578063c9d27afe146101ac578063da35c664146101c8578063f2fde38b146101e6576100a7565b8063013cf08b146100ab5780630d61b519146100e057806310d67098146100fc578063425458251461011a57806349c2a1a61461014a575b5f5ffd5b6100c560048036038101906100c09190610af2565b610202565b6040516100d796959493929190610bb6565b60405180910390f35b6100fa60048036038101906100f59190610af2565b6102cc565b005b610104610420565b6040516101119190610c96565b60405180910390f35b610134600480360381019061012f9190610cea565b610445565b6040516101419190610d28565b60405180910390f35b610164600480360381019061015f9190610e6d565b61046f565b005b61016e61058c565b005b61017861059f565b6040516101859190610ec3565b60405180910390f35b6101966105c6565b6040516101a39190610edc565b60405180910390f35b6101c660048036038101906101c19190610f1f565b6105cd565b005b6101d06108d5565b6040516101dd9190610edc565b60405180910390f35b61020060048036038101906101fb9190610f5d565b6108db565b005b6002602052805f5260405f205f91509050805f01549080600101805461022790610fb5565b80601f016020809104026020016040519081016040528092919081815260200182805461025390610fb5565b801561029e5780601f106102755761010080835404028352916020019161029e565b820191905f5260205f20905b81548152906001019060200180831161028157829003601f168201915b505050505090806002015490806003015490806004015f9054906101000a900460ff16908060050154905086565b6102d461095f565b5f60025f8381526020019081526020015f2090508060050154421161032e576040517f08c379a00000000000000000000000000000000000000000000000000000000081526004016103259061102f565b60405180910390fd5b806004015f9054906101000a900460ff161561037f576040517f08c379a000000000000000000000000000000000000000000000000000000000815260040161037690611097565b60405180910390fd5b80600301548160020154116103c9576040517f08c379a00000000000000000000000000000000000000000000000000000000081526004016103c0906110ff565b60405180910390fd5b6001816004015f6101000a81548160ff0219169083151502179055507f712ae1383f79ac853f8d882153778e0260ef8f03b504e2866e0593e04d2b291f826040516104149190610edc565b60405180910390a15050565b60015f9054906101000a900473ffffffffffffffffffffffffffffffffffffffff1681565b6003602052815f5260405f20602052805f5260405f205f915091509054906101000a900460ff1681565b61047761095f565b60045f8154809291906104899061114a565b91905055506040518060c0016040528060045481526020018281526020015f81526020015f81526020015f151581526020016203f480426104ca9190611191565b81525060025f60045481526020019081526020015f205f820151815f015560208201518160010190816104fd919061135b565b5060408201518160020155606082015181600301556080820151816004015f6101000a81548160ff02191690831515021790555060a082015181600501559050507ff5dc0da9afa6d080780a49fd8c680f03d2ddf3c067cd6d0c85360c096644d2d3600454826203f480426105729190611191565b6040516105819392919061142a565b60405180910390a150565b61059461095f565b61059d5f6109e6565b565b5f5f5f9054906101000a900473ffffffffffffffffffffffffffffffffffffffff16905090565b6203f48081565b5f60025f8481526020019081526020015f2090508060050154421115610628576040517f08c379a000000000000000000000000000000000000000000000000000000000815260040161061f906114b0565b60405180910390fd5b60035f3373ffffffffffffffffffffffffffffffffffffffff1673ffffffffffffffffffffffffffffffffffffffff1681526020019081526020015f205f8481526020019081526020015f205f9054906101000a900460ff16156106c1576040517f08c379a00000000000000000000000000000000000000000000000000000000081526004016106b890611518565b60405180910390fd5b806004015f9054906101000a900460ff1615610712576040517f08c379a000000000000000000000000000000000000000000000000000000000815260040161070990611097565b60405180910390fd5b5f60015f9054906101000a900473ffffffffffffffffffffffffffffffffffffffff1673ffffffffffffffffffffffffffffffffffffffff166370a08231336040518263ffffffff1660e01b815260040161076d9190610ec3565b602060405180830381865afa158015610788573d5f5f3e3d5ffd5b505050506040513d601f19601f820116820180604052508101906107ac919061154a565b90505f81116107f0576040517f08c379a00000000000000000000000000000000000000000000000000000000081526004016107e7906115bf565b60405180910390fd5b82156108155780826002015f8282546108099190611191565b92505081905550610830565b80826003015f8282546108289190611191565b925050819055505b600160035f3373ffffffffffffffffffffffffffffffffffffffff1673ffffffffffffffffffffffffffffffffffffffff1681526020019081526020015f205f8681526020019081526020015f205f6101000a81548160ff0219169083151502179055507ff2913dbe661ee2acc4a046d8fbcdc792373bda34c41c6086484b5345e5785e5f8433856040516108c7939291906115dd565b60405180910390a150505050565b60045481565b6108e361095f565b5f73ffffffffffffffffffffffffffffffffffffffff168173ffffffffffffffffffffffffffffffffffffffff1603610953575f6040517f1e4fbdf700000000000000000000000000000000000000000000000000000000815260040161094a9190610ec3565b60405180910390fd5b61095c816109e6565b50565b610967610aa7565b73ffffffffffffffffffffffffffffffffffffffff1661098561059f565b73ffffffffffffffffffffffffffffffffffffffff16146109e4576109a8610aa7565b6040517f118cdaa70000000000000000000000000000000000000000000000000000000081526004016109db9190610ec3565b60405180910390fd5b565b5f5f5f9054906101000a900473ffffffffffffffffffffffffffffffffffffffff169050815f5f6101000a81548173ffffffffffffffffffffffffffffffffffffffff021916908373ffffffffffffffffffffffffffffffffffffffff1602179055508173ffffffffffffffffffffffffffffffffffffffff168173ffffffffffffffffffffffffffffffffffffffff167f8be0079c531659141344cd1fd0a4f28419497f9722a3daafe3b4186f6b6457e060405160405180910390a35050565b5f33905090565b5f604051905090565b5f5ffd5b5f5ffd5b5f819050919050565b610ad181610abf565b8114610adb575f5ffd5b50565b5f81359050610aec81610ac8565b92915050565b5f60208284031215610b0757610b06610ab7565b5b5f610b1484828501610ade565b91505092915050565b610b2681610abf565b82525050565b5f81519050919050565b5f82825260208201905092915050565b8281835e5f83830152505050565b5f601f19601f8301169050919050565b5f610b6e82610b2c565b610b788185610b36565b9350610b88818560208601610b46565b610b9181610b54565b840191505092915050565b5f8115159050919050565b610bb081610b9c565b82525050565b5f60c082019050610bc95f830189610b1d565b8181036020830152610bdb8188610b64565b9050610bea6040830187610b1d565b610bf76060830186610b1d565b610c046080830185610ba7565b610c1160a0830184610b1d565b979650505050505050565b5f73ffffffffffffffffffffffffffffffffffffffff82169050919050565b5f819050919050565b5f610c5e610c59610c5484610c1c565b610c3b565b610c1c565b9050919050565b5f610c6f82610c44565b9050919050565b5f610c8082610c65565b9050919050565b610c9081610c76565b82525050565b5f602082019050610ca95f830184610c87565b92915050565b5f610cb982610c1c565b9050919050565b610cc981610caf565b8114610cd3575f5ffd5b50565b5f81359050610ce481610cc0565b92915050565b5f5f60408385031215610d0057610cff610ab7565b5b5f610d0d85828601610cd6565b9250506020610d1e85828601610ade565b9150509250929050565b5f602082019050610d3b5f830184610ba7565b92915050565b5f5ffd5b5f5ffd5b7f4e487b71000000000000000000000000000000000000000000000000000000005f52604160045260245ffd5b610d7f82610b54565b810181811067ffffffffffffffff82111715610d9e57610d9d610d49565b5b80604052505050565b5f610db0610aae565b9050610dbc8282610d76565b919050565b5f67ffffffffffffffff821115610ddb57610dda610d49565b5b610de482610b54565b9050602081019050919050565b828183375f83830152505050565b5f610e11610e0c84610dc1565b610da7565b905082815260208101848484011115610e2d57610e2c610d45565b5b610e38848285610df1565b509392505050565b5f82601f830112610e5457610e53610d41565b5b8135610e64848260208601610dff565b91505092915050565b5f60208284031215610e8257610e81610ab7565b5b5f82013567ffffffffffffffff811115610e9f57610e9e610abb565b5b610eab84828501610e40565b91505092915050565b610ebd81610caf565b82525050565b5f602082019050610ed65f830184610eb4565b92915050565b5f602082019050610eef5f830184610b1d565b92915050565b610efe81610b9c565b8114610f08575f5ffd5b50565b5f81359050610f1981610ef5565b92915050565b5f5f60408385031215610f3557610f34610ab7565b5b5f610f4285828601610ade565b9250506020610f5385828601610f0b565b9150509250929050565b5f60208284031215610f7257610f71610ab7565b5b5f610f7f84828501610cd6565b91505092915050565b7f4e487b71000000000000000000000000000000000000000000000000000000005f52602260045260245ffd5b5f6002820490506001821680610fcc57607f821691505b602082108103610fdf57610fde610f88565b5b50919050565b7f566f74696e6720706572696f64206e6f7420656e6465640000000000000000005f82015250565b5f611019601783610b36565b915061102482610fe5565b602082019050919050565b5f6020820190508181035f8301526110468161100d565b9050919050565b7f50726f706f73616c20616c7265616479206578656375746564000000000000005f82015250565b5f611081601983610b36565b915061108c8261104d565b602082019050919050565b5f6020820190508181035f8301526110ae81611075565b9050919050565b7f50726f706f73616c206e6f7420706173736564000000000000000000000000005f82015250565b5f6110e9601383610b36565b91506110f4826110b5565b602082019050919050565b5f6020820190508181035f830152611116816110dd565b9050919050565b7f4e487b71000000000000000000000000000000000000000000000000000000005f52601160045260245ffd5b5f61115482610abf565b91507fffffffffffffffffffffffffffffffffffffffffffffffffffffffffffffffff82036111865761118561111d565b5b600182019050919050565b5f61119b82610abf565b91506111a683610abf565b92508282019050808211156111be576111bd61111d565b5b92915050565b5f819050815f5260205f209050919050565b5f6020601f8301049050919050565b5f82821b905092915050565b5f600883026112207fffffffffffffffffffffffffffffffffffffffffffffffffffffffffffffffff826111e5565b61122a86836111e5565b95508019841693508086168417925050509392505050565b5f61125c61125761125284610abf565b610c3b565b610abf565b9050919050565b5f819050919050565b61127583611242565b61128961128182611263565b8484546111f1565b825550505050565b5f5f905090565b6112a0611291565b6112ab81848461126c565b505050565b5b818110156112ce576112c35f82611298565b6001810190506112b1565b5050565b601f821115611313576112e4816111c4565b6112ed846111d6565b810160208510156112fc578190505b611310611308856111d6565b8301826112b0565b50505b505050565b5f82821c905092915050565b5f6113335f1984600802611318565b1980831691505092915050565b5f61134b8383611324565b9150826002028217905092915050565b61136482610b2c565b67ffffffffffffffff81111561137d5761137c610d49565b5b6113878254610fb5565b6113928282856112d2565b5f60209050601f8311600181146113c3575f84156113b1578287015190505b6113bb8582611340565b865550611422565b601f1984166113d1866111c4565b5f5b828110156113f8578489015182556001820191506020850194506020810190506113d3565b868310156114155784890151611411601f891682611324565b8355505b6001600288020188555050505b505050505050565b5f60608201905061143d5f830186610b1d565b818103602083015261144f8185610b64565b905061145e6040830184610b1d565b949350505050565b7f566f74696e6720706572696f6420656e646564000000000000000000000000005f82015250565b5f61149a601383610b36565b91506114a582611466565b602082019050919050565b5f6020820190508181035f8301526114c78161148e565b9050919050565b7f416c726561647920766f746564000000000000000000000000000000000000005f82015250565b5f611502600d83610b36565b915061150d826114ce565b602082019050919050565b5f6020820190508181035f83015261152f816114f6565b9050919050565b5f8151905061154481610ac8565b92915050565b5f6020828403121561155f5761155e610ab7565b5b5f61156c84828501611536565b91505092915050565b7f4e6f20766f74696e6720706f77657200000000000000000000000000000000005f82015250565b5f6115a9600f83610b36565b91506115b482611575565b602082019050919050565b5f6020820190508181035f8301526115d68161159d565b9050919050565b5f6060820190506115f05f830186610b1d565b6115fd6020830185610eb4565b61160a6040830184610ba7565b94935050505056fea2646970667358221220eb985073330134897e17748c2ec2daeb05d72e7f1ab6bdccb5db12cd43effae964736f6c634300081c0033",
					"opcodes": "PUSH1 0x80 PUSH1 0x40 MSTORE CALLVALUE DUP1 ISZERO PUSH2 0xF JUMPI PUSH0 PUSH0 REVERT JUMPDEST POP PUSH1 0x40 MLOAD PUSH2 0x19B9 CODESIZE SUB DUP1 PUSH2 0x19B9 DUP4 CODECOPY DUP2 DUP2 ADD PUSH1 0x40 MSTORE DUP2 ADD SWAP1 PUSH2 0x31 SWAP2 SWAP1 PUSH2 0x286 JUMP JUMPDEST DUP1 PUSH0 PUSH20 0xFFFFFFFFFFFFFFFFFFFFFFFFFFFFFFFFFFFFFFFF AND DUP2 PUSH20 0xFFFFFFFFFFFFFFFFFFFFFFFFFFFFFFFFFFFFFFFF AND SUB PUSH2 0xA2 JUMPI PUSH0 PUSH1 0x40 MLOAD PUSH32 0x1E4FBDF700000000000000000000000000000000000000000000000000000000 DUP2 MSTORE PUSH1 0x4 ADD PUSH2 0x99 SWAP2 SWAP1 PUSH2 0x2D3 JUMP JUMPDEST PUSH1 0x40 MLOAD DUP1 SWAP2 SUB SWAP1 REVERT JUMPDEST PUSH2 0xB1 DUP2 PUSH2 0x167 PUSH1 0x20 SHL PUSH1 0x20 SHR JUMP JUMPDEST POP PUSH0 PUSH20 0xFFFFFFFFFFFFFFFFFFFFFFFFFFFFFFFFFFFFFFFF AND DUP3 PUSH20 0xFFFFFFFFFFFFFFFFFFFFFFFFFFFFFFFFFFFFFFFF AND SUB PUSH2 0x120 JUMPI PUSH1 0x40 MLOAD PUSH32 0x8C379A000000000000000000000000000000000000000000000000000000000 DUP2 MSTORE PUSH1 0x4 ADD PUSH2 0x117 SWAP1 PUSH2 0x346 JUMP JUMPDEST PUSH1 0x40 MLOAD DUP1 SWAP2 SUB SWAP1 REVERT JUMPDEST DUP2 PUSH1 0x1 PUSH0 PUSH2 0x100 EXP DUP2 SLOAD DUP2 PUSH20 0xFFFFFFFFFFFFFFFFFFFFFFFFFFFFFFFFFFFFFFFF MUL NOT AND SWAP1 DUP4 PUSH20 0xFFFFFFFFFFFFFFFFFFFFFFFFFFFFFFFFFFFFFFFF AND MUL OR SWAP1 SSTORE POP POP POP PUSH2 0x364 JUMP JUMPDEST PUSH0 PUSH0 PUSH0 SWAP1 SLOAD SWAP1 PUSH2 0x100 EXP SWAP1 DIV PUSH20 0xFFFFFFFFFFFFFFFFFFFFFFFFFFFFFFFFFFFFFFFF AND SWAP1 POP DUP2 PUSH0 PUSH0 PUSH2 0x100 EXP DUP2 SLOAD DUP2 PUSH20 0xFFFFFFFFFFFFFFFFFFFFFFFFFFFFFFFFFFFFFFFF MUL NOT AND SWAP1 DUP4 PUSH20 0xFFFFFFFFFFFFFFFFFFFFFFFFFFFFFFFFFFFFFFFF AND MUL OR SWAP1 SSTORE POP DUP2 PUSH20 0xFFFFFFFFFFFFFFFFFFFFFFFFFFFFFFFFFFFFFFFF AND DUP2 PUSH20 0xFFFFFFFFFFFFFFFFFFFFFFFFFFFFFFFFFFFFFFFF AND PUSH32 0x8BE0079C531659141344CD1FD0A4F28419497F9722A3DAAFE3B4186F6B6457E0 PUSH1 0x40 MLOAD PUSH1 0x40 MLOAD DUP1 SWAP2 SUB SWAP1 LOG3 POP POP JUMP JUMPDEST PUSH0 PUSH0 REVERT JUMPDEST PUSH0 PUSH20 0xFFFFFFFFFFFFFFFFFFFFFFFFFFFFFFFFFFFFFFFF DUP3 AND SWAP1 POP SWAP2 SWAP1 POP JUMP JUMPDEST PUSH0 PUSH2 0x255 DUP3 PUSH2 0x22C JUMP JUMPDEST SWAP1 POP SWAP2 SWAP1 POP JUMP JUMPDEST PUSH2 0x265 DUP2 PUSH2 0x24B JUMP JUMPDEST DUP2 EQ PUSH2 0x26F JUMPI PUSH0 PUSH0 REVERT JUMPDEST POP JUMP JUMPDEST PUSH0 DUP2 MLOAD SWAP1 POP PUSH2 0x280 DUP2 PUSH2 0x25C JUMP JUMPDEST SWAP3 SWAP2 POP POP JUMP JUMPDEST PUSH0 PUSH0 PUSH1 0x40 DUP4 DUP6 SUB SLT ISZERO PUSH2 0x29C JUMPI PUSH2 0x29B PUSH2 0x228 JUMP JUMPDEST JUMPDEST PUSH0 PUSH2 0x2A9 DUP6 DUP3 DUP7 ADD PUSH2 0x272 JUMP JUMPDEST SWAP3 POP POP PUSH1 0x20 PUSH2 0x2BA DUP6 DUP3 DUP7 ADD PUSH2 0x272 JUMP JUMPDEST SWAP2 POP POP SWAP3 POP SWAP3 SWAP1 POP JUMP JUMPDEST PUSH2 0x2CD DUP2 PUSH2 0x24B JUMP JUMPDEST DUP3 MSTORE POP POP JUMP JUMPDEST PUSH0 PUSH1 0x20 DUP3 ADD SWAP1 POP PUSH2 0x2E6 PUSH0 DUP4 ADD DUP5 PUSH2 0x2C4 JUMP JUMPDEST SWAP3 SWAP2 POP POP JUMP JUMPDEST PUSH0 DUP3 DUP3 MSTORE PUSH1 0x20 DUP3 ADD SWAP1 POP SWAP3 SWAP2 POP POP JUMP JUMPDEST PUSH32 0x496E76616C696420746F6B656E00000000000000000000000000000000000000 PUSH0 DUP3 ADD MSTORE POP JUMP JUMPDEST PUSH0 PUSH2 0x330 PUSH1 0xD DUP4 PUSH2 0x2EC JUMP JUMPDEST SWAP2 POP PUSH2 0x33B DUP3 PUSH2 0x2FC JUMP JUMPDEST PUSH1 0x20 DUP3 ADD SWAP1 POP SWAP2 SWAP1 POP JUMP JUMPDEST PUSH0 PUSH1 0x20 DUP3 ADD SWAP1 POP DUP2 DUP2 SUB PUSH0 DUP4 ADD MSTORE PUSH2 0x35D DUP2 PUSH2 0x324 JUMP JUMPDEST SWAP1 POP SWAP2 SWAP1 POP JUMP JUMPDEST PUSH2 0x1648 DUP1 PUSH2 0x371 PUSH0 CODECOPY PUSH0 RETURN INVALID PUSH1 0x80 PUSH1 0x40 MSTORE CALLVALUE DUP1 ISZERO PUSH2 0xF JUMPI PUSH0 PUSH0 REVERT JUMPDEST POP PUSH1 0x4 CALLDATASIZE LT PUSH2 0xA7 JUMPI PUSH0 CALLDATALOAD PUSH1 0xE0 SHR DUP1 PUSH4 0x715018A6 GT PUSH2 0x6F JUMPI DUP1 PUSH4 0x715018A6 EQ PUSH2 0x166 JUMPI DUP1 PUSH4 0x8DA5CB5B EQ PUSH2 0x170 JUMPI DUP1 PUSH4 0xA438D208 EQ PUSH2 0x18E JUMPI DUP1 PUSH4 0xC9D27AFE EQ PUSH2 0x1AC JUMPI DUP1 PUSH4 0xDA35C664 EQ PUSH2 0x1C8 JUMPI DUP1 PUSH4 0xF2FDE38B EQ PUSH2 0x1E6 JUMPI PUSH2 0xA7 JUMP JUMPDEST DUP1 PUSH4 0x13CF08B EQ PUSH2 0xAB JUMPI DUP1 PUSH4 0xD61B519 EQ PUSH2 0xE0 JUMPI DUP1 PUSH4 0x10D67098 EQ PUSH2 0xFC JUMPI DUP1 PUSH4 0x42545825 EQ PUSH2 0x11A JUMPI DUP1 PUSH4 0x49C2A1A6 EQ PUSH2 0x14A JUMPI JUMPDEST PUSH0 PUSH0 REVERT JUMPDEST PUSH2 0xC5 PUSH1 0x4 DUP1 CALLDATASIZE SUB DUP2 ADD SWAP1 PUSH2 0xC0 SWAP2 SWAP1 PUSH2 0xAF2 JUMP JUMPDEST PUSH2 0x202 JUMP JUMPDEST PUSH1 0x40 MLOAD PUSH2 0xD7 SWAP7 SWAP6 SWAP5 SWAP4 SWAP3 SWAP2 SWAP1 PUSH2 0xBB6 JUMP JUMPDEST PUSH1 0x40 MLOAD DUP1 SWAP2 SUB SWAP1 RETURN JUMPDEST PUSH2 0xFA PUSH1 0x4 DUP1 CALLDATASIZE SUB DUP2 ADD SWAP1 PUSH2 0xF5 SWAP2 SWAP1 PUSH2 0xAF2 JUMP JUMPDEST PUSH2 0x2CC JUMP JUMPDEST STOP JUMPDEST PUSH2 0x104 PUSH2 0x420 JUMP JUMPDEST PUSH1 0x40 MLOAD PUSH2 0x111 SWAP2 SWAP1 PUSH2 0xC96 JUMP JUMPDEST PUSH1 0x40 MLOAD DUP1 SWAP2 SUB SWAP1 RETURN JUMPDEST PUSH2 0x134 PUSH1 0x4 DUP1 CALLDATASIZE SUB DUP2 ADD SWAP1 PUSH2 0x12F SWAP2 SWAP1 PUSH2 0xCEA JUMP JUMPDEST PUSH2 0x445 JUMP JUMPDEST PUSH1 0x40 MLOAD PUSH2 0x141 SWAP2 SWAP1 PUSH2 0xD28 JUMP JUMPDEST PUSH1 0x40 MLOAD DUP1 SWAP2 SUB SWAP1 RETURN JUMPDEST PUSH2 0x164 PUSH1 0x4 DUP1 CALLDATASIZE SUB DUP2 ADD SWAP1 PUSH2 0x15F SWAP2 SWAP1 PUSH2 0xE6D JUMP JUMPDEST PUSH2 0x46F JUMP JUMPDEST STOP JUMPDEST PUSH2 0x16E PUSH2 0x58C JUMP JUMPDEST STOP JUMPDEST PUSH2 0x178 PUSH2 0x59F JUMP JUMPDEST PUSH1 0x40 MLOAD PUSH2 0x185 SWAP2 SWAP1 PUSH2 0xEC3 JUMP JUMPDEST PUSH1 0x40 MLOAD DUP1 SWAP2 SUB SWAP1 RETURN JUMPDEST PUSH2 0x196 PUSH2 0x5C6 JUMP JUMPDEST PUSH1 0x40 MLOAD PUSH2 0x1A3 SWAP2 SWAP1 PUSH2 0xEDC JUMP JUMPDEST PUSH1 0x40 MLOAD DUP1 SWAP2 SUB SWAP1 RETURN JUMPDEST PUSH2 0x1C6 PUSH1 0x4 DUP1 CALLDATASIZE SUB DUP2 ADD SWAP1 PUSH2 0x1C1 SWAP2 SWAP1 PUSH2 0xF1F JUMP JUMPDEST PUSH2 0x5CD JUMP JUMPDEST STOP JUMPDEST PUSH2 0x1D0 PUSH2 0x8D5 JUMP JUMPDEST PUSH1 0x40 MLOAD PUSH2 0x1DD SWAP2 SWAP1 PUSH2 0xEDC JUMP JUMPDEST PUSH1 0x40 MLOAD DUP1 SWAP2 SUB SWAP1 RETURN JUMPDEST PUSH2 0x200 PUSH1 0x4 DUP1 CALLDATASIZE SUB DUP2 ADD SWAP1 PUSH2 0x1FB SWAP2 SWAP1 PUSH2 0xF5D JUMP JUMPDEST PUSH2 0x8DB JUMP JUMPDEST STOP JUMPDEST PUSH1 0x2 PUSH1 0x20 MSTORE DUP1 PUSH0 MSTORE PUSH1 0x40 PUSH0 KECCAK256 PUSH0 SWAP2 POP SWAP1 POP DUP1 PUSH0 ADD SLOAD SWAP1 DUP1 PUSH1 0x1 ADD DUP1 SLOAD PUSH2 0x227 SWAP1 PUSH2 0xFB5 JUMP JUMPDEST DUP1 PUSH1 0x1F ADD PUSH1 0x20 DUP1 SWAP2 DIV MUL PUSH1 0x20 ADD PUSH1 0x40 MLOAD SWAP1 DUP2 ADD PUSH1 0x40 MSTORE DUP1 SWAP3 SWAP2 SWAP1 DUP2 DUP2 MSTORE PUSH1 0x20 ADD DUP3 DUP1 SLOAD PUSH2 0x253 SWAP1 PUSH2 0xFB5 JUMP JUMPDEST DUP1 ISZERO PUSH2 0x29E JUMPI DUP1 PUSH1 0x1F LT PUSH2 0x275 JUMPI PUSH2 0x100 DUP1 DUP4 SLOAD DIV MUL DUP4 MSTORE SWAP2 PUSH1 0x20 ADD SWAP2 PUSH2 0x29E JUMP JUMPDEST DUP3 ADD SWAP2 SWAP1 PUSH0 MSTORE PUSH1 0x20 PUSH0 KECCAK256 SWAP1 JUMPDEST DUP2 SLOAD DUP2 MSTORE SWAP1 PUSH1 0x1 ADD SWAP1 PUSH1 0x20 ADD DUP1 DUP4 GT PUSH2 0x281 JUMPI DUP3 SWAP1 SUB PUSH1 0x1F AND DUP3 ADD SWAP2 JUMPDEST POP POP POP POP POP SWAP1 DUP1 PUSH1 0x2 ADD SLOAD SWAP1 DUP1 PUSH1 0x3 ADD SLOAD SWAP1 DUP1 PUSH1 0x4 ADD PUSH0 SWAP1 SLOAD SWAP1 PUSH2 0x100 EXP SWAP1 DIV PUSH1 0xFF AND SWAP1 DUP1 PUSH1 0x5 ADD SLOAD SWAP1 POP DUP7 JUMP JUMPDEST PUSH2 0x2D4 PUSH2 0x95F JUMP JUMPDEST PUSH0 PUSH1 0x2 PUSH0 DUP4 DUP2 MSTORE PUSH1 0x20 ADD SWAP1 DUP2 MSTORE PUSH1 0x20 ADD PUSH0 KECCAK256 SWAP1 POP DUP1 PUSH1 0x5 ADD SLOAD TIMESTAMP GT PUSH2 0x32E JUMPI PUSH1 0x40 MLOAD PUSH32 0x8C379A000000000000000000000000000000000000000000000000000000000 DUP2 MSTORE PUSH1 0x4 ADD PUSH2 0x325 SWAP1 PUSH2 0x102F JUMP JUMPDEST PUSH1 0x40 MLOAD DUP1 SWAP2 SUB SWAP1 REVERT JUMPDEST DUP1 PUSH1 0x4 ADD PUSH0 SWAP1 SLOAD SWAP1 PUSH2 0x100 EXP SWAP1 DIV PUSH1 0xFF AND ISZERO PUSH2 0x37F JUMPI PUSH1 0x40 MLOAD PUSH32 0x8C379A000000000000000000000000000000000000000000000000000000000 DUP2 MSTORE PUSH1 0x4 ADD PUSH2 0x376 SWAP1 PUSH2 0x1097 JUMP JUMPDEST PUSH1 0x40 MLOAD DUP1 SWAP2 SUB SWAP1 REVERT JUMPDEST DUP1 PUSH1 0x3 ADD SLOAD DUP2 PUSH1 0x2 ADD SLOAD GT PUSH2 0x3C9 JUMPI PUSH1 0x40 MLOAD PUSH32 0x8C379A000000000000000000000000000000000000000000000000000000000 DUP2 MSTORE PUSH1 0x4 ADD PUSH2 0x3C0 SWAP1 PUSH2 0x10FF JUMP JUMPDEST PUSH1 0x40 MLOAD DUP1 SWAP2 SUB SWAP1 REVERT JUMPDEST PUSH1 0x1 DUP2 PUSH1 0x4 ADD PUSH0 PUSH2 0x100 EXP DUP2 SLOAD DUP2 PUSH1 0xFF MUL NOT AND SWAP1 DUP4 ISZERO ISZERO MUL OR SWAP1 SSTORE POP PUSH32 0x712AE1383F79AC853F8D882153778E0260EF8F03B504E2866E0593E04D2B291F DUP3 PUSH1 0x40 MLOAD PUSH2 0x414 SWAP2 SWAP1 PUSH2 0xEDC JUMP JUMPDEST PUSH1 0x40 MLOAD DUP1 SWAP2 SUB SWAP1 LOG1 POP POP JUMP JUMPDEST PUSH1 0x1 PUSH0 SWAP1 SLOAD SWAP1 PUSH2 0x100 EXP SWAP1 DIV PUSH20 0xFFFFFFFFFFFFFFFFFFFFFFFFFFFFFFFFFFFFFFFF AND DUP2 JUMP JUMPDEST PUSH1 0x3 PUSH1 0x20 MSTORE DUP2 PUSH0 MSTORE PUSH1 0x40 PUSH0 KECCAK256 PUSH1 0x20 MSTORE DUP1 PUSH0 MSTORE PUSH1 0x40 PUSH0 KECCAK256 PUSH0 SWAP2 POP SWAP2 POP SWAP1 SLOAD SWAP1 PUSH2 0x100 EXP SWAP1 DIV PUSH1 0xFF AND DUP2 JUMP JUMPDEST PUSH2 0x477 PUSH2 0x95F JUMP JUMPDEST PUSH1 0x4 PUSH0 DUP2 SLOAD DUP1 SWAP3 SWAP2 SWAP1 PUSH2 0x489 SWAP1 PUSH2 0x114A JUMP JUMPDEST SWAP2 SWAP1 POP SSTORE POP PUSH1 0x40 MLOAD DUP1 PUSH1 0xC0 ADD PUSH1 0x40 MSTORE DUP1 PUSH1 0x4 SLOAD DUP2 MSTORE PUSH1 0x20 ADD DUP3 DUP2 MSTORE PUSH1 0x20 ADD PUSH0 DUP2 MSTORE PUSH1 0x20 ADD PUSH0 DUP2 MSTORE PUSH1 0x20 ADD PUSH0 ISZERO ISZERO DUP2 MSTORE PUSH1 0x20 ADD PUSH3 0x3F480 TIMESTAMP PUSH2 0x4CA SWAP2 SWAP1 PUSH2 0x1191 JUMP JUMPDEST DUP2 MSTORE POP PUSH1 0x2 PUSH0 PUSH1 0x4 SLOAD DUP2 MSTORE PUSH1 0x20 ADD SWAP1 DUP2 MSTORE PUSH1 0x20 ADD PUSH0 KECCAK256 PUSH0 DUP3 ADD MLOAD DUP2 PUSH0 ADD SSTORE PUSH1 0x20 DUP3 ADD MLOAD DUP2 PUSH1 0x1 ADD SWAP1 DUP2 PUSH2 0x4FD SWAP2 SWAP1 PUSH2 0x135B JUMP JUMPDEST POP PUSH1 0x40 DUP3 ADD MLOAD DUP2 PUSH1 0x2 ADD SSTORE PUSH1 0x60 DUP3 ADD MLOAD DUP2 PUSH1 0x3 ADD SSTORE PUSH1 0x80 DUP3 ADD MLOAD DUP2 PUSH1 0x4 ADD PUSH0 PUSH2 0x100 EXP DUP2 SLOAD DUP2 PUSH1 0xFF MUL NOT AND SWAP1 DUP4 ISZERO ISZERO MUL OR SWAP1 SSTORE POP PUSH1 0xA0 DUP3 ADD MLOAD DUP2 PUSH1 0x5 ADD SSTORE SWAP1 POP POP PUSH32 0xF5DC0DA9AFA6D080780A49FD8C680F03D2DDF3C067CD6D0C85360C096644D2D3 PUSH1 0x4 SLOAD DUP3 PUSH3 0x3F480 TIMESTAMP PUSH2 0x572 SWAP2 SWAP1 PUSH2 0x1191 JUMP JUMPDEST PUSH1 0x40 MLOAD PUSH2 0x581 SWAP4 SWAP3 SWAP2 SWAP1 PUSH2 0x142A JUMP JUMPDEST PUSH1 0x40 MLOAD DUP1 SWAP2 SUB SWAP1 LOG1 POP JUMP JUMPDEST PUSH2 0x594 PUSH2 0x95F JUMP JUMPDEST PUSH2 0x59D PUSH0 PUSH2 0x9E6 JUMP JUMPDEST JUMP JUMPDEST PUSH0 PUSH0 PUSH0 SWAP1 SLOAD SWAP1 PUSH2 0x100 EXP SWAP1 DIV PUSH20 0xFFFFFFFFFFFFFFFFFFFFFFFFFFFFFFFFFFFFFFFF AND SWAP1 POP SWAP1 JUMP JUMPDEST PUSH3 0x3F480 DUP2 JUMP JUMPDEST PUSH0 PUSH1 0x2 PUSH0 DUP5 DUP2 MSTORE PUSH1 0x20 ADD SWAP1 DUP2 MSTORE PUSH1 0x20 ADD PUSH0 KECCAK256 SWAP1 POP DUP1 PUSH1 0x5 ADD SLOAD TIMESTAMP GT ISZERO PUSH2 0x628 JUMPI PUSH1 0x40 MLOAD PUSH32 0x8C379A000000000000000000000000000000000000000000000000000000000 DUP2 MSTORE PUSH1 0x4 ADD PUSH2 0x61F SWAP1 PUSH2 0x14B0 JUMP JUMPDEST PUSH1 0x40 MLOAD DUP1 SWAP2 SUB SWAP1 REVERT JUMPDEST PUSH1 0x3 PUSH0 CALLER PUSH20 0xFFFFFFFFFFFFFFFFFFFFFFFFFFFFFFFFFFFFFFFF AND PUSH20 0xFFFFFFFFFFFFFFFFFFFFFFFFFFFFFFFFFFFFFFFF AND DUP2 MSTORE PUSH1 0x20 ADD SWAP1 DUP2 MSTORE PUSH1 0x20 ADD PUSH0 KECCAK256 PUSH0 DUP5 DUP2 MSTORE PUSH1 0x20 ADD SWAP1 DUP2 MSTORE PUSH1 0x20 ADD PUSH0 KECCAK256 PUSH0 SWAP1 SLOAD SWAP1 PUSH2 0x100 EXP SWAP1 DIV PUSH1 0xFF AND ISZERO PUSH2 0x6C1 JUMPI PUSH1 0x40 MLOAD PUSH32 0x8C379A000000000000000000000000000000000000000000000000000000000 DUP2 MSTORE PUSH1 0x4 ADD PUSH2 0x6B8 SWAP1 PUSH2 0x1518 JUMP JUMPDEST PUSH1 0x40 MLOAD DUP1 SWAP2 SUB SWAP1 REVERT JUMPDEST DUP1 PUSH1 0x4 ADD PUSH0 SWAP1 SLOAD SWAP1 PUSH2 0x100 EXP SWAP1 DIV PUSH1 0xFF AND ISZERO PUSH2 0x712 JUMPI PUSH1 0x40 MLOAD PUSH32 0x8C379A000000000000000000000000000000000000000000000000000000000 DUP2 MSTORE PUSH1 0x4 ADD PUSH2 0x709 SWAP1 PUSH2 0x1097 JUMP JUMPDEST PUSH1 0x40 MLOAD DUP1 SWAP2 SUB SWAP1 REVERT JUMPDEST PUSH0 PUSH1 0x1 PUSH0 SWAP1 SLOAD SWAP1 PUSH2 0x100 EXP SWAP1 DIV PUSH20 0xFFFFFFFFFFFFFFFFFFFFFFFFFFFFFFFFFFFFFFFF AND PUSH20 0xFFFFFFFFFFFFFFFFFFFFFFFFFFFFFFFFFFFFFFFF AND PUSH4 0x70A08231 CALLER PUSH1 0x40 MLOAD DUP3 PUSH4 0xFFFFFFFF AND PUSH1 0xE0 SHL DUP2 MSTORE PUSH1 0x4 ADD PUSH2 0x76D SWAP2 SWAP1 PUSH2 0xEC3 JUMP JUMPDEST PUSH1 0x20 PUSH1 0x40 MLOAD DUP1 DUP4 SUB DUP2 DUP7 GAS STATICCALL ISZERO DUP1 ISZERO PUSH2 0x788 JUMPI RETURNDATASIZE PUSH0 PUSH0 RETURNDATACOPY RETURNDATASIZE PUSH0 REVERT JUMPDEST POP POP POP POP PUSH1 0x40 MLOAD RETURNDATASIZE PUSH1 0x1F NOT PUSH1 0x1F DUP3 ADD AND DUP3 ADD DUP1 PUSH1 0x40 MSTORE POP DUP2 ADD SWAP1 PUSH2 0x7AC SWAP2 SWAP1 PUSH2 0x154A JUMP JUMPDEST SWAP1 POP PUSH0 DUP2 GT PUSH2 0x7F0 JUMPI PUSH1 0x40 MLOAD PUSH32 0x8C379A000000000000000000000000000000000000000000000000000000000 DUP2 MSTORE PUSH1 0x4 ADD PUSH2 0x7E7 SWAP1 PUSH2 0x15BF JUMP JUMPDEST PUSH1 0x40 MLOAD DUP1 SWAP2 SUB SWAP1 REVERT JUMPDEST DUP3 ISZERO PUSH2 0x815 JUMPI DUP1 DUP3 PUSH1 0x2 ADD PUSH0 DUP3 DUP3 SLOAD PUSH2 0x809 SWAP2 SWAP1 PUSH2 0x1191 JUMP JUMPDEST SWAP3 POP POP DUP2 SWAP1 SSTORE POP PUSH2 0x830 JUMP JUMPDEST DUP1 DUP3 PUSH1 0x3 ADD PUSH0 DUP3 DUP3 SLOAD PUSH2 0x828 SWAP2 SWAP1 PUSH2 0x1191 JUMP JUMPDEST SWAP3 POP POP DUP2 SWAP1 SSTORE POP JUMPDEST PUSH1 0x1 PUSH1 0x3 PUSH0 CALLER PUSH20 0xFFFFFFFFFFFFFFFFFFFFFFFFFFFFFFFFFFFFFFFF AND PUSH20 0xFFFFFFFFFFFFFFFFFFFFFFFFFFFFFFFFFFFFFFFF AND DUP2 MSTORE PUSH1 0x20 ADD SWAP1 DUP2 MSTORE PUSH1 0x20 ADD PUSH0 KECCAK256 PUSH0 DUP7 DUP2 MSTORE PUSH1 0x20 ADD SWAP1 DUP2 MSTORE PUSH1 0x20 ADD PUSH0 KECCAK256 PUSH0 PUSH2 0x100 EXP DUP2 SLOAD DUP2 PUSH1 0xFF MUL NOT AND SWAP1 DUP4 ISZERO ISZERO MUL OR SWAP1 SSTORE POP PUSH32 0xF2913DBE661EE2ACC4A046D8FBCDC792373BDA34C41C6086484B5345E5785E5F DUP5 CALLER DUP6 PUSH1 0x40 MLOAD PUSH2 0x8C7 SWAP4 SWAP3 SWAP2 SWAP1 PUSH2 0x15DD JUMP JUMPDEST PUSH1 0x40 MLOAD DUP1 SWAP2 SUB SWAP1 LOG1 POP POP POP POP JUMP JUMPDEST PUSH1 0x4 SLOAD DUP2 JUMP JUMPDEST PUSH2 0x8E3 PUSH2 0x95F JUMP JUMPDEST PUSH0 PUSH20 0xFFFFFFFFFFFFFFFFFFFFFFFFFFFFFFFFFFFFFFFF AND DUP2 PUSH20 0xFFFFFFFFFFFFFFFFFFFFFFFFFFFFFFFFFFFFFFFF AND SUB PUSH2 0x953 JUMPI PUSH0 PUSH1 0x40 MLOAD PUSH32 0x1E4FBDF700000000000000000000000000000000000000000000000000000000 DUP2 MSTORE PUSH1 0x4 ADD PUSH2 0x94A SWAP2 SWAP1 PUSH2 0xEC3 JUMP JUMPDEST PUSH1 0x40 MLOAD DUP1 SWAP2 SUB SWAP1 REVERT JUMPDEST PUSH2 0x95C DUP2 PUSH2 0x9E6 JUMP JUMPDEST POP JUMP JUMPDEST PUSH2 0x967 PUSH2 0xAA7 JUMP JUMPDEST PUSH20 0xFFFFFFFFFFFFFFFFFFFFFFFFFFFFFFFFFFFFFFFF AND PUSH2 0x985 PUSH2 0x59F JUMP JUMPDEST PUSH20 0xFFFFFFFFFFFFFFFFFFFFFFFFFFFFFFFFFFFFFFFF AND EQ PUSH2 0x9E4 JUMPI PUSH2 0x9A8 PUSH2 0xAA7 JUMP JUMPDEST PUSH1 0x40 MLOAD PUSH32 0x118CDAA700000000000000000000000000000000000000000000000000000000 DUP2 MSTORE PUSH1 0x4 ADD PUSH2 0x9DB SWAP2 SWAP1 PUSH2 0xEC3 JUMP JUMPDEST PUSH1 0x40 MLOAD DUP1 SWAP2 SUB SWAP1 REVERT JUMPDEST JUMP JUMPDEST PUSH0 PUSH0 PUSH0 SWAP1 SLOAD SWAP1 PUSH2 0x100 EXP SWAP1 DIV PUSH20 0xFFFFFFFFFFFFFFFFFFFFFFFFFFFFFFFFFFFFFFFF AND SWAP1 POP DUP2 PUSH0 PUSH0 PUSH2 0x100 EXP DUP2 SLOAD DUP2 PUSH20 0xFFFFFFFFFFFFFFFFFFFFFFFFFFFFFFFFFFFFFFFF MUL NOT AND SWAP1 DUP4 PUSH20 0xFFFFFFFFFFFFFFFFFFFFFFFFFFFFFFFFFFFFFFFF AND MUL OR SWAP1 SSTORE POP DUP2 PUSH20 0xFFFFFFFFFFFFFFFFFFFFFFFFFFFFFFFFFFFFFFFF AND DUP2 PUSH20 0xFFFFFFFFFFFFFFFFFFFFFFFFFFFFFFFFFFFFFFFF AND PUSH32 0x8BE0079C531659141344CD1FD0A4F28419497F9722A3DAAFE3B4186F6B6457E0 PUSH1 0x40 MLOAD PUSH1 0x40 MLOAD DUP1 SWAP2 SUB SWAP1 LOG3 POP POP JUMP JUMPDEST PUSH0 CALLER SWAP1 POP SWAP1 JUMP JUMPDEST PUSH0 PUSH1 0x40 MLOAD SWAP1 POP SWAP1 JUMP JUMPDEST PUSH0 PUSH0 REVERT JUMPDEST PUSH0 PUSH0 REVERT JUMPDEST PUSH0 DUP2 SWAP1 POP SWAP2 SWAP1 POP JUMP JUMPDEST PUSH2 0xAD1 DUP2 PUSH2 0xABF JUMP JUMPDEST DUP2 EQ PUSH2 0xADB JUMPI PUSH0 PUSH0 REVERT JUMPDEST POP JUMP JUMPDEST PUSH0 DUP2 CALLDATALOAD SWAP1 POP PUSH2 0xAEC DUP2 PUSH2 0xAC8 JUMP JUMPDEST SWAP3 SWAP2 POP POP JUMP JUMPDEST PUSH0 PUSH1 0x20 DUP3 DUP5 SUB SLT ISZERO PUSH2 0xB07 JUMPI PUSH2 0xB06 PUSH2 0xAB7 JUMP JUMPDEST JUMPDEST PUSH0 PUSH2 0xB14 DUP5 DUP3 DUP6 ADD PUSH2 0xADE JUMP JUMPDEST SWAP2 POP POP SWAP3 SWAP2 POP POP JUMP JUMPDEST PUSH2 0xB26 DUP2 PUSH2 0xABF JUMP JUMPDEST DUP3 MSTORE POP POP JUMP JUMPDEST PUSH0 DUP2 MLOAD SWAP1 POP SWAP2 SWAP1 POP JUMP JUMPDEST PUSH0 DUP3 DUP3 MSTORE PUSH1 0x20 DUP3 ADD SWAP1 POP SWAP3 SWAP2 POP POP JUMP JUMPDEST DUP3 DUP2 DUP4 MCOPY PUSH0 DUP4 DUP4 ADD MSTORE POP POP POP JUMP JUMPDEST PUSH0 PUSH1 0x1F NOT PUSH1 0x1F DUP4 ADD AND SWAP1 POP SWAP2 SWAP1 POP JUMP JUMPDEST PUSH0 PUSH2 0xB6E DUP3 PUSH2 0xB2C JUMP JUMPDEST PUSH2 0xB78 DUP2 DUP6 PUSH2 0xB36 JUMP JUMPDEST SWAP4 POP PUSH2 0xB88 DUP2 DUP6 PUSH1 0x20 DUP7 ADD PUSH2 0xB46 JUMP JUMPDEST PUSH2 0xB91 DUP2 PUSH2 0xB54 JUMP JUMPDEST DUP5 ADD SWAP2 POP POP SWAP3 SWAP2 POP POP JUMP JUMPDEST PUSH0 DUP2 ISZERO ISZERO SWAP1 POP SWAP2 SWAP1 POP JUMP JUMPDEST PUSH2 0xBB0 DUP2 PUSH2 0xB9C JUMP JUMPDEST DUP3 MSTORE POP POP JUMP JUMPDEST PUSH0 PUSH1 0xC0 DUP3 ADD SWAP1 POP PUSH2 0xBC9 PUSH0 DUP4 ADD DUP10 PUSH2 0xB1D JUMP JUMPDEST DUP2 DUP2 SUB PUSH1 0x20 DUP4 ADD MSTORE PUSH2 0xBDB DUP2 DUP9 PUSH2 0xB64 JUMP JUMPDEST SWAP1 POP PUSH2 0xBEA PUSH1 0x40 DUP4 ADD DUP8 PUSH2 0xB1D JUMP JUMPDEST PUSH2 0xBF7 PUSH1 0x60 DUP4 ADD DUP7 PUSH2 0xB1D JUMP JUMPDEST PUSH2 0xC04 PUSH1 0x80 DUP4 ADD DUP6 PUSH2 0xBA7 JUMP JUMPDEST PUSH2 0xC11 PUSH1 0xA0 DUP4 ADD DUP5 PUSH2 0xB1D JUMP JUMPDEST SWAP8 SWAP7 POP POP POP POP POP POP POP JUMP JUMPDEST PUSH0 PUSH20 0xFFFFFFFFFFFFFFFFFFFFFFFFFFFFFFFFFFFFFFFF DUP3 AND SWAP1 POP SWAP2 SWAP1 POP JUMP JUMPDEST PUSH0 DUP2 SWAP1 POP SWAP2 SWAP1 POP JUMP JUMPDEST PUSH0 PUSH2 0xC5E PUSH2 0xC59 PUSH2 0xC54 DUP5 PUSH2 0xC1C JUMP JUMPDEST PUSH2 0xC3B JUMP JUMPDEST PUSH2 0xC1C JUMP JUMPDEST SWAP1 POP SWAP2 SWAP1 POP JUMP JUMPDEST PUSH0 PUSH2 0xC6F DUP3 PUSH2 0xC44 JUMP JUMPDEST SWAP1 POP SWAP2 SWAP1 POP JUMP JUMPDEST PUSH0 PUSH2 0xC80 DUP3 PUSH2 0xC65 JUMP JUMPDEST SWAP1 POP SWAP2 SWAP1 POP JUMP JUMPDEST PUSH2 0xC90 DUP2 PUSH2 0xC76 JUMP JUMPDEST DUP3 MSTORE POP POP JUMP JUMPDEST PUSH0 PUSH1 0x20 DUP3 ADD SWAP1 POP PUSH2 0xCA9 PUSH0 DUP4 ADD DUP5 PUSH2 0xC87 JUMP JUMPDEST SWAP3 SWAP2 POP POP JUMP JUMPDEST PUSH0 PUSH2 0xCB9 DUP3 PUSH2 0xC1C JUMP JUMPDEST SWAP1 POP SWAP2 SWAP1 POP JUMP JUMPDEST PUSH2 0xCC9 DUP2 PUSH2 0xCAF JUMP JUMPDEST DUP2 EQ PUSH2 0xCD3 JUMPI PUSH0 PUSH0 REVERT JUMPDEST POP JUMP JUMPDEST PUSH0 DUP2 CALLDATALOAD SWAP1 POP PUSH2 0xCE4 DUP2 PUSH2 0xCC0 JUMP JUMPDEST SWAP3 SWAP2 POP POP JUMP JUMPDEST PUSH0 PUSH0 PUSH1 0x40 DUP4 DUP6 SUB SLT ISZERO PUSH2 0xD00 JUMPI PUSH2 0xCFF PUSH2 0xAB7 JUMP JUMPDEST JUMPDEST PUSH0 PUSH2 0xD0D DUP6 DUP3 DUP7 ADD PUSH2 0xCD6 JUMP JUMPDEST SWAP3 POP POP PUSH1 0x20 PUSH2 0xD1E DUP6 DUP3 DUP7 ADD PUSH2 0xADE JUMP JUMPDEST SWAP2 POP POP SWAP3 POP SWAP3 SWAP1 POP JUMP JUMPDEST PUSH0 PUSH1 0x20 DUP3 ADD SWAP1 POP PUSH2 0xD3B PUSH0 DUP4 ADD DUP5 PUSH2 0xBA7 JUMP JUMPDEST SWAP3 SWAP2 POP POP JUMP JUMPDEST PUSH0 PUSH0 REVERT JUMPDEST PUSH0 PUSH0 REVERT JUMPDEST PUSH32 0x4E487B7100000000000000000000000000000000000000000000000000000000 PUSH0 MSTORE PUSH1 0x41 PUSH1 0x4 MSTORE PUSH1 0x24 PUSH0 REVERT JUMPDEST PUSH2 0xD7F DUP3 PUSH2 0xB54 JUMP JUMPDEST DUP2 ADD DUP2 DUP2 LT PUSH8 0xFFFFFFFFFFFFFFFF DUP3 GT OR ISZERO PUSH2 0xD9E JUMPI PUSH2 0xD9D PUSH2 0xD49 JUMP JUMPDEST JUMPDEST DUP1 PUSH1 0x40 MSTORE POP POP POP JUMP JUMPDEST PUSH0 PUSH2 0xDB0 PUSH2 0xAAE JUMP JUMPDEST SWAP1 POP PUSH2 0xDBC DUP3 DUP3 PUSH2 0xD76 JUMP JUMPDEST SWAP2 SWAP1 POP JUMP JUMPDEST PUSH0 PUSH8 0xFFFFFFFFFFFFFFFF DUP3 GT ISZERO PUSH2 0xDDB JUMPI PUSH2 0xDDA PUSH2 0xD49 JUMP JUMPDEST JUMPDEST PUSH2 0xDE4 DUP3 PUSH2 0xB54 JUMP JUMPDEST SWAP1 POP PUSH1 0x20 DUP2 ADD SWAP1 POP SWAP2 SWAP1 POP JUMP JUMPDEST DUP3 DUP2 DUP4 CALLDATACOPY PUSH0 DUP4 DUP4 ADD MSTORE POP POP POP JUMP JUMPDEST PUSH0 PUSH2 0xE11 PUSH2 0xE0C DUP5 PUSH2 0xDC1 JUMP JUMPDEST PUSH2 0xDA7 JUMP JUMPDEST SWAP1 POP DUP3 DUP2 MSTORE PUSH1 0x20 DUP2 ADD DUP5 DUP5 DUP5 ADD GT ISZERO PUSH2 0xE2D JUMPI PUSH2 0xE2C PUSH2 0xD45 JUMP JUMPDEST JUMPDEST PUSH2 0xE38 DUP5 DUP3 DUP6 PUSH2 0xDF1 JUMP JUMPDEST POP SWAP4 SWAP3 POP POP POP JUMP JUMPDEST PUSH0 DUP3 PUSH1 0x1F DUP4 ADD SLT PUSH2 0xE54 JUMPI PUSH2 0xE53 PUSH2 0xD41 JUMP JUMPDEST JUMPDEST DUP2 CALLDATALOAD PUSH2 0xE64 DUP5 DUP3 PUSH1 0x20 DUP7 ADD PUSH2 0xDFF JUMP JUMPDEST SWAP2 POP POP SWAP3 SWAP2 POP POP JUMP JUMPDEST PUSH0 PUSH1 0x20 DUP3 DUP5 SUB SLT ISZERO PUSH2 0xE82 JUMPI PUSH2 0xE81 PUSH2 0xAB7 JUMP JUMPDEST JUMPDEST PUSH0 DUP3 ADD CALLDATALOAD PUSH8 0xFFFFFFFFFFFFFFFF DUP2 GT ISZERO PUSH2 0xE9F JUMPI PUSH2 0xE9E PUSH2 0xABB JUMP JUMPDEST JUMPDEST PUSH2 0xEAB DUP5 DUP3 DUP6 ADD PUSH2 0xE40 JUMP JUMPDEST SWAP2 POP POP SWAP3 SWAP2 POP POP JUMP JUMPDEST PUSH2 0xEBD DUP2 PUSH2 0xCAF JUMP JUMPDEST DUP3 MSTORE POP POP JUMP JUMPDEST PUSH0 PUSH1 0x20 DUP3 ADD SWAP1 POP PUSH2 0xED6 PUSH0 DUP4 ADD DUP5 PUSH2 0xEB4 JUMP JUMPDEST SWAP3 SWAP2 POP POP JUMP JUMPDEST PUSH0 PUSH1 0x20 DUP3 ADD SWAP1 POP PUSH2 0xEEF PUSH0 DUP4 ADD DUP5 PUSH2 0xB1D JUMP JUMPDEST SWAP3 SWAP2 POP POP JUMP JUMPDEST PUSH2 0xEFE DUP2 PUSH2 0xB9C JUMP JUMPDEST DUP2 EQ PUSH2 0xF08 JUMPI PUSH0 PUSH0 REVERT JUMPDEST POP JUMP JUMPDEST PUSH0 DUP2 CALLDATALOAD SWAP1 POP PUSH2 0xF19 DUP2 PUSH2 0xEF5 JUMP JUMPDEST SWAP3 SWAP2 POP POP JUMP JUMPDEST PUSH0 PUSH0 PUSH1 0x40 DUP4 DUP6 SUB SLT ISZERO PUSH2 0xF35 JUMPI PUSH2 0xF34 PUSH2 0xAB7 JUMP JUMPDEST JUMPDEST PUSH0 PUSH2 0xF42 DUP6 DUP3 DUP7 ADD PUSH2 0xADE JUMP JUMPDEST SWAP3 POP POP PUSH1 0x20 PUSH2 0xF53 DUP6 DUP3 DUP7 ADD PUSH2 0xF0B JUMP JUMPDEST SWAP2 POP POP SWAP3 POP SWAP3 SWAP1 POP JUMP JUMPDEST PUSH0 PUSH1 0x20 DUP3 DUP5 SUB SLT ISZERO PUSH2 0xF72 JUMPI PUSH2 0xF71 PUSH2 0xAB7 JUMP JUMPDEST JUMPDEST PUSH0 PUSH2 0xF7F DUP5 DUP3 DUP6 ADD PUSH2 0xCD6 JUMP JUMPDEST SWAP2 POP POP SWAP3 SWAP2 POP POP JUMP JUMPDEST PUSH32 0x4E487B7100000000000000000000000000000000000000000000000000000000 PUSH0 MSTORE PUSH1 0x22 PUSH1 0x4 MSTORE PUSH1 0x24 PUSH0 REVERT JUMPDEST PUSH0 PUSH1 0x2 DUP3 DIV SWAP1 POP PUSH1 0x1 DUP3 AND DUP1 PUSH2 0xFCC JUMPI PUSH1 0x7F DUP3 AND SWAP2 POP JUMPDEST PUSH1 0x20 DUP3 LT DUP2 SUB PUSH2 0xFDF JUMPI PUSH2 0xFDE PUSH2 0xF88 JUMP JUMPDEST JUMPDEST POP SWAP2 SWAP1 POP JUMP JUMPDEST PUSH32 0x566F74696E6720706572696F64206E6F7420656E646564000000000000000000 PUSH0 DUP3 ADD MSTORE POP JUMP JUMPDEST PUSH0 PUSH2 0x1019 PUSH1 0x17 DUP4 PUSH2 0xB36 JUMP JUMPDEST SWAP2 POP PUSH2 0x1024 DUP3 PUSH2 0xFE5 JUMP JUMPDEST PUSH1 0x20 DUP3 ADD SWAP1 POP SWAP2 SWAP1 POP JUMP JUMPDEST PUSH0 PUSH1 0x20 DUP3 ADD SWAP1 POP DUP2 DUP2 SUB PUSH0 DUP4 ADD MSTORE PUSH2 0x1046 DUP2 PUSH2 0x100D JUMP JUMPDEST SWAP1 POP SWAP2 SWAP1 POP JUMP JUMPDEST PUSH32 0x50726F706F73616C20616C726561647920657865637574656400000000000000 PUSH0 DUP3 ADD MSTORE POP JUMP JUMPDEST PUSH0 PUSH2 0x1081 PUSH1 0x19 DUP4 PUSH2 0xB36 JUMP JUMPDEST SWAP2 POP PUSH2 0x108C DUP3 PUSH2 0x104D JUMP JUMPDEST PUSH1 0x20 DUP3 ADD SWAP1 POP SWAP2 SWAP1 POP JUMP JUMPDEST PUSH0 PUSH1 0x20 DUP3 ADD SWAP1 POP DUP2 DUP2 SUB PUSH0 DUP4 ADD MSTORE PUSH2 0x10AE DUP2 PUSH2 0x1075 JUMP JUMPDEST SWAP1 POP SWAP2 SWAP1 POP JUMP JUMPDEST PUSH32 0x50726F706F73616C206E6F742070617373656400000000000000000000000000 PUSH0 DUP3 ADD MSTORE POP JUMP JUMPDEST PUSH0 PUSH2 0x10E9 PUSH1 0x13 DUP4 PUSH2 0xB36 JUMP JUMPDEST SWAP2 POP PUSH2 0x10F4 DUP3 PUSH2 0x10B5 JUMP JUMPDEST PUSH1 0x20 DUP3 ADD SWAP1 POP SWAP2 SWAP1 POP JUMP JUMPDEST PUSH0 PUSH1 0x20 DUP3 ADD SWAP1 POP DUP2 DUP2 SUB PUSH0 DUP4 ADD MSTORE PUSH2 0x1116 DUP2 PUSH2 0x10DD JUMP JUMPDEST SWAP1 POP SWAP2 SWAP1 POP JUMP JUMPDEST PUSH32 0x4E487B7100000000000000000000000000000000000000000000000000000000 PUSH0 MSTORE PUSH1 0x11 PUSH1 0x4 MSTORE PUSH1 0x24 PUSH0 REVERT JUMPDEST PUSH0 PUSH2 0x1154 DUP3 PUSH2 0xABF JUMP JUMPDEST SWAP2 POP PUSH32 0xFFFFFFFFFFFFFFFFFFFFFFFFFFFFFFFFFFFFFFFFFFFFFFFFFFFFFFFFFFFFFFFF DUP3 SUB PUSH2 0x1186 JUMPI PUSH2 0x1185 PUSH2 0x111D JUMP JUMPDEST JUMPDEST PUSH1 0x1 DUP3 ADD SWAP1 POP SWAP2 SWAP1 POP JUMP JUMPDEST PUSH0 PUSH2 0x119B DUP3 PUSH2 0xABF JUMP JUMPDEST SWAP2 POP PUSH2 0x11A6 DUP4 PUSH2 0xABF JUMP JUMPDEST SWAP3 POP DUP3 DUP3 ADD SWAP1 POP DUP1 DUP3 GT ISZERO PUSH2 0x11BE JUMPI PUSH2 0x11BD PUSH2 0x111D JUMP JUMPDEST JUMPDEST SWAP3 SWAP2 POP POP JUMP JUMPDEST PUSH0 DUP2 SWAP1 POP DUP2 PUSH0 MSTORE PUSH1 0x20 PUSH0 KECCAK256 SWAP1 POP SWAP2 SWAP1 POP JUMP JUMPDEST PUSH0 PUSH1 0x20 PUSH1 0x1F DUP4 ADD DIV SWAP1 POP SWAP2 SWAP1 POP JUMP JUMPDEST PUSH0 DUP3 DUP3 SHL SWAP1 POP SWAP3 SWAP2 POP POP JUMP JUMPDEST PUSH0 PUSH1 0x8 DUP4 MUL PUSH2 0x1220 PUSH32 0xFFFFFFFFFFFFFFFFFFFFFFFFFFFFFFFFFFFFFFFFFFFFFFFFFFFFFFFFFFFFFFFF DUP3 PUSH2 0x11E5 JUMP JUMPDEST PUSH2 0x122A DUP7 DUP4 PUSH2 0x11E5 JUMP JUMPDEST SWAP6 POP DUP1 NOT DUP5 AND SWAP4 POP DUP1 DUP7 AND DUP5 OR SWAP3 POP POP POP SWAP4 SWAP3 POP POP POP JUMP JUMPDEST PUSH0 PUSH2 0x125C PUSH2 0x1257 PUSH2 0x1252 DUP5 PUSH2 0xABF JUMP JUMPDEST PUSH2 0xC3B JUMP JUMPDEST PUSH2 0xABF JUMP JUMPDEST SWAP1 POP SWAP2 SWAP1 POP JUMP JUMPDEST PUSH0 DUP2 SWAP1 POP SWAP2 SWAP1 POP JUMP JUMPDEST PUSH2 0x1275 DUP4 PUSH2 0x1242 JUMP JUMPDEST PUSH2 0x1289 PUSH2 0x1281 DUP3 PUSH2 0x1263 JUMP JUMPDEST DUP5 DUP5 SLOAD PUSH2 0x11F1 JUMP JUMPDEST DUP3 SSTORE POP POP POP POP JUMP JUMPDEST PUSH0 PUSH0 SWAP1 POP SWAP1 JUMP JUMPDEST PUSH2 0x12A0 PUSH2 0x1291 JUMP JUMPDEST PUSH2 0x12AB DUP2 DUP5 DUP5 PUSH2 0x126C JUMP JUMPDEST POP POP POP JUMP JUMPDEST JUMPDEST DUP2 DUP2 LT ISZERO PUSH2 0x12CE JUMPI PUSH2 0x12C3 PUSH0 DUP3 PUSH2 0x1298 JUMP JUMPDEST PUSH1 0x1 DUP2 ADD SWAP1 POP PUSH2 0x12B1 JUMP JUMPDEST POP POP JUMP JUMPDEST PUSH1 0x1F DUP3 GT ISZERO PUSH2 0x1313 JUMPI PUSH2 0x12E4 DUP2 PUSH2 0x11C4 JUMP JUMPDEST PUSH2 0x12ED DUP5 PUSH2 0x11D6 JUMP JUMPDEST DUP2 ADD PUSH1 0x20 DUP6 LT ISZERO PUSH2 0x12FC JUMPI DUP2 SWAP1 POP JUMPDEST PUSH2 0x1310 PUSH2 0x1308 DUP6 PUSH2 0x11D6 JUMP JUMPDEST DUP4 ADD DUP3 PUSH2 0x12B0 JUMP JUMPDEST POP POP JUMPDEST POP POP POP JUMP JUMPDEST PUSH0 DUP3 DUP3 SHR SWAP1 POP SWAP3 SWAP2 POP POP JUMP JUMPDEST PUSH0 PUSH2 0x1333 PUSH0 NOT DUP5 PUSH1 0x8 MUL PUSH2 0x1318 JUMP JUMPDEST NOT DUP1 DUP4 AND SWAP2 POP POP SWAP3 SWAP2 POP POP JUMP JUMPDEST PUSH0 PUSH2 0x134B DUP4 DUP4 PUSH2 0x1324 JUMP JUMPDEST SWAP2 POP DUP3 PUSH1 0x2 MUL DUP3 OR SWAP1 POP SWAP3 SWAP2 POP POP JUMP JUMPDEST PUSH2 0x1364 DUP3 PUSH2 0xB2C JUMP JUMPDEST PUSH8 0xFFFFFFFFFFFFFFFF DUP2 GT ISZERO PUSH2 0x137D JUMPI PUSH2 0x137C PUSH2 0xD49 JUMP JUMPDEST JUMPDEST PUSH2 0x1387 DUP3 SLOAD PUSH2 0xFB5 JUMP JUMPDEST PUSH2 0x1392 DUP3 DUP3 DUP6 PUSH2 0x12D2 JUMP JUMPDEST PUSH0 PUSH1 0x20 SWAP1 POP PUSH1 0x1F DUP4 GT PUSH1 0x1 DUP2 EQ PUSH2 0x13C3 JUMPI PUSH0 DUP5 ISZERO PUSH2 0x13B1 JUMPI DUP3 DUP8 ADD MLOAD SWAP1 POP JUMPDEST PUSH2 0x13BB DUP6 DUP3 PUSH2 0x1340 JUMP JUMPDEST DUP7 SSTORE POP PUSH2 0x1422 JUMP JUMPDEST PUSH1 0x1F NOT DUP5 AND PUSH2 0x13D1 DUP7 PUSH2 0x11C4 JUMP JUMPDEST PUSH0 JUMPDEST DUP3 DUP2 LT ISZERO PUSH2 0x13F8 JUMPI DUP5 DUP10 ADD MLOAD DUP3 SSTORE PUSH1 0x1 DUP3 ADD SWAP2 POP PUSH1 0x20 DUP6 ADD SWAP5 POP PUSH1 0x20 DUP2 ADD SWAP1 POP PUSH2 0x13D3 JUMP JUMPDEST DUP7 DUP4 LT ISZERO PUSH2 0x1415 JUMPI DUP5 DUP10 ADD MLOAD PUSH2 0x1411 PUSH1 0x1F DUP10 AND DUP3 PUSH2 0x1324 JUMP JUMPDEST DUP4 SSTORE POP JUMPDEST PUSH1 0x1 PUSH1 0x2 DUP9 MUL ADD DUP9 SSTORE POP POP POP JUMPDEST POP POP POP POP POP POP JUMP JUMPDEST PUSH0 PUSH1 0x60 DUP3 ADD SWAP1 POP PUSH2 0x143D PUSH0 DUP4 ADD DUP7 PUSH2 0xB1D JUMP JUMPDEST DUP2 DUP2 SUB PUSH1 0x20 DUP4 ADD MSTORE PUSH2 0x144F DUP2 DUP6 PUSH2 0xB64 JUMP JUMPDEST SWAP1 POP PUSH2 0x145E PUSH1 0x40 DUP4 ADD DUP5 PUSH2 0xB1D JUMP JUMPDEST SWAP5 SWAP4 POP POP POP POP JUMP JUMPDEST PUSH32 0x566F74696E6720706572696F6420656E64656400000000000000000000000000 PUSH0 DUP3 ADD MSTORE POP JUMP JUMPDEST PUSH0 PUSH2 0x149A PUSH1 0x13 DUP4 PUSH2 0xB36 JUMP JUMPDEST SWAP2 POP PUSH2 0x14A5 DUP3 PUSH2 0x1466 JUMP JUMPDEST PUSH1 0x20 DUP3 ADD SWAP1 POP SWAP2 SWAP1 POP JUMP JUMPDEST PUSH0 PUSH1 0x20 DUP3 ADD SWAP1 POP DUP2 DUP2 SUB PUSH0 DUP4 ADD MSTORE PUSH2 0x14C7 DUP2 PUSH2 0x148E JUMP JUMPDEST SWAP1 POP SWAP2 SWAP1 POP JUMP JUMPDEST PUSH32 0x416C726561647920766F74656400000000000000000000000000000000000000 PUSH0 DUP3 ADD MSTORE POP JUMP JUMPDEST PUSH0 PUSH2 0x1502 PUSH1 0xD DUP4 PUSH2 0xB36 JUMP JUMPDEST SWAP2 POP PUSH2 0x150D DUP3 PUSH2 0x14CE JUMP JUMPDEST PUSH1 0x20 DUP3 ADD SWAP1 POP SWAP2 SWAP1 POP JUMP JUMPDEST PUSH0 PUSH1 0x20 DUP3 ADD SWAP1 POP DUP2 DUP2 SUB PUSH0 DUP4 ADD MSTORE PUSH2 0x152F DUP2 PUSH2 0x14F6 JUMP JUMPDEST SWAP1 POP SWAP2 SWAP1 POP JUMP JUMPDEST PUSH0 DUP2 MLOAD SWAP1 POP PUSH2 0x1544 DUP2 PUSH2 0xAC8 JUMP JUMPDEST SWAP3 SWAP2 POP POP JUMP JUMPDEST PUSH0 PUSH1 0x20 DUP3 DUP5 SUB SLT ISZERO PUSH2 0x155F JUMPI PUSH2 0x155E PUSH2 0xAB7 JUMP JUMPDEST JUMPDEST PUSH0 PUSH2 0x156C DUP5 DUP3 DUP6 ADD PUSH2 0x1536 JUMP JUMPDEST SWAP2 POP POP SWAP3 SWAP2 POP POP JUMP JUMPDEST PUSH32 0x4E6F20766F74696E6720706F7765720000000000000000000000000000000000 PUSH0 DUP3 ADD MSTORE POP JUMP JUMPDEST PUSH0 PUSH2 0x15A9 PUSH1 0xF DUP4 PUSH2 0xB36 JUMP JUMPDEST SWAP2 POP PUSH2 0x15B4 DUP3 PUSH2 0x1575 JUMP JUMPDEST PUSH1 0x20 DUP3 ADD SWAP1 POP SWAP2 SWAP1 POP JUMP JUMPDEST PUSH0 PUSH1 0x20 DUP3 ADD SWAP1 POP DUP2 DUP2 SUB PUSH0 DUP4 ADD MSTORE PUSH2 0x15D6 DUP2 PUSH2 0x159D JUMP JUMPDEST SWAP1 POP SWAP2 SWAP1 POP JUMP JUMPDEST PUSH0 PUSH1 0x60 DUP3 ADD SWAP1 POP PUSH2 0x15F0 PUSH0 DUP4 ADD DUP7 PUSH2 0xB1D JUMP JUMPDEST PUSH2 0x15FD PUSH1 0x20 DUP4 ADD DUP6 PUSH2 0xEB4 JUMP JUMPDEST PUSH2 0x160A PUSH1 0x40 DUP4 ADD DUP5 PUSH2 0xBA7 JUMP JUMPDEST SWAP5 SWAP4 POP POP POP POP JUMP INVALID LOG2 PUSH5 0x6970667358 0x22 SLT KECCAK256 0xEB SWAP9 POP PUSH20 0x330134897E17748C2EC2DAEB05D72E7F1AB6BDCC 0xB5 0xDB SLT 0xCD NUMBER 0xEF STATICCALL 0xE9 PUSH5 0x736F6C6343 STOP ADDMOD SHR STOP CALLER "
				},
				"gasEstimates": {
					"creation": {
						"codeDepositCost": "1140800",
						"executionCost": "infinite",
						"totalCost": "infinite"
					},
					"external": {
						"VOTING_DURATION()": "369",
						"createProposal(string)": "infinite",
						"executeProposal(uint256)": "infinite",
						"hasVoted(address,uint256)": "3137",
						"owner()": "2536",
						"proposalCount()": "2513",
						"proposals(uint256)": "infinite",
						"renounceOwnership()": "infinite",
						"transferOwnership(address)": "infinite",
						"ubi4allToken()": "infinite",
						"vote(uint256,bool)": "infinite"
					}
				},
				"methodIdentifiers": {
					"VOTING_DURATION()": "a438d208",
					"createProposal(string)": "49c2a1a6",
					"executeProposal(uint256)": "0d61b519",
					"hasVoted(address,uint256)": "42545825",
					"owner()": "8da5cb5b",
					"proposalCount()": "da35c664",
					"proposals(uint256)": "013cf08b",
					"renounceOwnership()": "715018a6",
					"transferOwnership(address)": "f2fde38b",
					"ubi4allToken()": "10d67098",
					"vote(uint256,bool)": "c9d27afe"
				}
			},
			"storageLayout": {
				"storage": [
					{
						"astId": 8,
						"contract": "governance/UBI4ALLDAO.sol:UBI4ALLDAO",
						"label": "_owner",
						"offset": 0,
						"slot": "0",
						"type": "t_address"
					},
					{
						"astId": 264,
						"contract": "governance/UBI4ALLDAO.sol:UBI4ALLDAO",
						"label": "ubi4allToken",
						"offset": 0,
						"slot": "1",
						"type": "t_contract(IERC20)225"
					},
					{
						"astId": 282,
						"contract": "governance/UBI4ALLDAO.sol:UBI4ALLDAO",
						"label": "proposals",
						"offset": 0,
						"slot": "2",
						"type": "t_mapping(t_uint256,t_struct(Proposal)277_storage)"
					},
					{
						"astId": 288,
						"contract": "governance/UBI4ALLDAO.sol:UBI4ALLDAO",
						"label": "hasVoted",
						"offset": 0,
						"slot": "3",
						"type": "t_mapping(t_address,t_mapping(t_uint256,t_bool))"
					},
					{
						"astId": 290,
						"contract": "governance/UBI4ALLDAO.sol:UBI4ALLDAO",
						"label": "proposalCount",
						"offset": 0,
						"slot": "4",
						"type": "t_uint256"
					}
				],
				"types": {
					"t_address": {
						"encoding": "inplace",
						"label": "address",
						"numberOfBytes": "20"
					},
					"t_bool": {
						"encoding": "inplace",
						"label": "bool",
						"numberOfBytes": "1"
					},
					"t_contract(IERC20)225": {
						"encoding": "inplace",
						"label": "contract IERC20",
						"numberOfBytes": "20"
					},
					"t_mapping(t_address,t_mapping(t_uint256,t_bool))": {
						"encoding": "mapping",
						"key": "t_address",
						"label": "mapping(address => mapping(uint256 => bool))",
						"numberOfBytes": "32",
						"value": "t_mapping(t_uint256,t_bool)"
					},
					"t_mapping(t_uint256,t_bool)": {
						"encoding": "mapping",
						"key": "t_uint256",
						"label": "mapping(uint256 => bool)",
						"numberOfBytes": "32",
						"value": "t_bool"
					},
					"t_mapping(t_uint256,t_struct(Proposal)277_storage)": {
						"encoding": "mapping",
						"key": "t_uint256",
						"label": "mapping(uint256 => struct UBI4ALLDAO.Proposal)",
						"numberOfBytes": "32",
						"value": "t_struct(Proposal)277_storage"
					},
					"t_string_storage": {
						"encoding": "bytes",
						"label": "string",
						"numberOfBytes": "32"
					},
					"t_struct(Proposal)277_storage": {
						"encoding": "inplace",
						"label": "struct UBI4ALLDAO.Proposal",
						"members": [
							{
								"astId": 266,
								"contract": "governance/UBI4ALLDAO.sol:UBI4ALLDAO",
								"label": "id",
								"offset": 0,
								"slot": "0",
								"type": "t_uint256"
							},
							{
								"astId": 268,
								"contract": "governance/UBI4ALLDAO.sol:UBI4ALLDAO",
								"label": "description",
								"offset": 0,
								"slot": "1",
								"type": "t_string_storage"
							},
							{
								"astId": 270,
								"contract": "governance/UBI4ALLDAO.sol:UBI4ALLDAO",
								"label": "votesFor",
								"offset": 0,
								"slot": "2",
								"type": "t_uint256"
							},
							{
								"astId": 272,
								"contract": "governance/UBI4ALLDAO.sol:UBI4ALLDAO",
								"label": "votesAgainst",
								"offset": 0,
								"slot": "3",
								"type": "t_uint256"
							},
							{
								"astId": 274,
								"contract": "governance/UBI4ALLDAO.sol:UBI4ALLDAO",
								"label": "executed",
								"offset": 0,
								"slot": "4",
								"type": "t_bool"
							},
							{
								"astId": 276,
								"contract": "governance/UBI4ALLDAO.sol:UBI4ALLDAO",
								"label": "endTime",
								"offset": 0,
								"slot": "5",
								"type": "t_uint256"
							}
						],
						"numberOfBytes": "192"
					},
					"t_uint256": {
						"encoding": "inplace",
						"label": "uint256",
						"numberOfBytes": "32"
					}
				}
			},
			"userdoc": {
				"kind": "user",
				"methods": {},
				"version": 1
			}
		}
	}
}