{
	"quantum/UBI4ALLLiquidator.sol": {
		"UBI4ALLLiquidator": {
			"abi": [
				{
					"inputs": [
						{
							"internalType": "address",
							"name": "_ubi4allToken",
							"type": "address"
						},
						{
							"internalType": "address",
							"name": "_quantumToken",
							"type": "address"
						},
						{
							"internalType": "address",
							"name": "_uniswapRouter",
							"type": "address"
						},
						{
							"internalType": "address",
							"name": "_uniswapFactory",
							"type": "address"
						},
						{
							"internalType": "address",
							"name": "_liquidityWallet",
							"type": "address"
						},
						{
							"internalType": "address",
							"name": "initialOwner",
							"type": "address"
						}
					],
					"stateMutability": "nonpayable",
					"type": "constructor"
				},
				{
					"inputs": [
						{
							"internalType": "address",
							"name": "owner",
							"type": "address"
						}
					],
					"name": "OwnableInvalidOwner",
					"type": "error"
				},
				{
					"inputs": [
						{
							"internalType": "address",
							"name": "account",
							"type": "address"
						}
					],
					"name": "OwnableUnauthorizedAccount",
					"type": "error"
				},
				{
					"anonymous": false,
					"inputs": [
						{
							"indexed": true,
							"internalType": "address",
							"name": "token",
							"type": "address"
						},
						{
							"indexed": false,
							"internalType": "uint256",
							"name": "amountToken",
							"type": "uint256"
						},
						{
							"indexed": false,
							"internalType": "uint256",
							"name": "amountETH",
							"type": "uint256"
						},
						{
							"indexed": false,
							"internalType": "uint256",
							"name": "liquidity",
							"type": "uint256"
						}
					],
					"name": "LiquidityAdded",
					"type": "event"
				},
				{
					"anonymous": false,
					"inputs": [
						{
							"indexed": true,
							"internalType": "address",
							"name": "token",
							"type": "address"
						},
						{
							"indexed": false,
							"internalType": "uint256",
							"name": "amountToken",
							"type": "uint256"
						},
						{
							"indexed": false,
							"internalType": "uint256",
							"name": "amountETH",
							"type": "uint256"
						}
					],
					"name": "LiquidityRemoved",
					"type": "event"
				},
				{
					"anonymous": false,
					"inputs": [
						{
							"indexed": true,
							"internalType": "address",
							"name": "previousOwner",
							"type": "address"
						},
						{
							"indexed": true,
							"internalType": "address",
							"name": "newOwner",
							"type": "address"
						}
					],
					"name": "OwnershipTransferred",
					"type": "event"
				},
				{
					"anonymous": false,
					"inputs": [
						{
							"indexed": true,
							"internalType": "address",
							"name": "tokenIn",
							"type": "address"
						},
						{
							"indexed": true,
							"internalType": "address",
							"name": "tokenOut",
							"type": "address"
						},
						{
							"indexed": false,
							"internalType": "uint256",
							"name": "amount",
							"type": "uint256"
						}
					],
					"name": "QuantumSwap",
					"type": "event"
				},
				{
					"inputs": [],
					"name": "DEADLINE_EXTENSION",
					"outputs": [
						{
							"internalType": "uint256",
							"name": "",
							"type": "uint256"
						}
					],
					"stateMutability": "view",
					"type": "function"
				},
				{
					"inputs": [
						{
							"internalType": "uint256",
							"name": "amountTokenDesired",
							"type": "uint256"
						},
						{
							"internalType": "uint256",
							"name": "amountTokenMin",
							"type": "uint256"
						},
						{
							"internalType": "uint256",
							"name": "amountETHMin",
							"type": "uint256"
						}
					],
					"name": "addLiquidityQ4A",
					"outputs": [],
					"stateMutability": "nonpayable",
					"type": "function"
				},
				{
					"inputs": [
						{
							"internalType": "uint256",
							"name": "amountTokenDesired",
							"type": "uint256"
						},
						{
							"internalType": "uint256",
							"name": "amountTokenMin",
							"type": "uint256"
						},
						{
							"internalType": "uint256",
							"name": "amountETHMin",
							"type": "uint256"
						}
					],
					"name": "addLiquidityUB4",
					"outputs": [],
					"stateMutability": "nonpayable",
					"type": "function"
				},
				{
					"inputs": [],
					"name": "liquidityWallet",
					"outputs": [
						{
							"internalType": "address",
							"name": "",
							"type": "address"
						}
					],
					"stateMutability": "view",
					"type": "function"
				},
				{
					"inputs": [],
					"name": "owner",
					"outputs": [
						{
							"internalType": "address",
							"name": "",
							"type": "address"
						}
					],
					"stateMutability": "view",
					"type": "function"
				},
				{
					"inputs": [],
					"name": "quantumToken",
					"outputs": [
						{
							"internalType": "contract IERC20",
							"name": "",
							"type": "address"
						}
					],
					"stateMutability": "view",
					"type": "function"
				},
				{
					"inputs": [
						{
							"internalType": "uint256",
							"name": "liquidity",
							"type": "uint256"
						},
						{
							"internalType": "uint256",
							"name": "amountTokenMin",
							"type": "uint256"
						},
						{
							"internalType": "uint256",
							"name": "amountETHMin",
							"type": "uint256"
						}
					],
					"name": "removeLiquidityQ4A",
					"outputs": [],
					"stateMutability": "nonpayable",
					"type": "function"
				},
				{
					"inputs": [
						{
							"internalType": "uint256",
							"name": "liquidity",
							"type": "uint256"
						},
						{
							"internalType": "uint256",
							"name": "amountTokenMin",
							"type": "uint256"
						},
						{
							"internalType": "uint256",
							"name": "amountETHMin",
							"type": "uint256"
						}
					],
					"name": "removeLiquidityUB4",
					"outputs": [],
					"stateMutability": "nonpayable",
					"type": "function"
				},
				{
					"inputs": [],
					"name": "renounceOwnership",
					"outputs": [],
					"stateMutability": "nonpayable",
					"type": "function"
				},
				{
					"inputs": [
						{
							"internalType": "uint256",
							"name": "amountIn",
							"type": "uint256"
						},
						{
							"internalType": "uint256",
							"name": "amountOutMin",
							"type": "uint256"
						}
					],
					"name": "swapQ4AtoUB4",
					"outputs": [],
					"stateMutability": "nonpayable",
					"type": "function"
				},
				{
					"inputs": [
						{
							"internalType": "uint256",
							"name": "amountIn",
							"type": "uint256"
						},
						{
							"internalType": "uint256",
							"name": "amountOutMin",
							"type": "uint256"
						}
					],
					"name": "swapUB4toQ4A",
					"outputs": [],
					"stateMutability": "nonpayable",
					"type": "function"
				},
				{
					"inputs": [
						{
							"internalType": "address",
							"name": "newOwner",
							"type": "address"
						}
					],
					"name": "transferOwnership",
					"outputs": [],
					"stateMutability": "nonpayable",
					"type": "function"
				},
				{
					"inputs": [],
					"name": "ubi4allToken",
					"outputs": [
						{
							"internalType": "contract IERC20",
							"name": "",
							"type": "address"
						}
					],
					"stateMutability": "view",
					"type": "function"
				},
				{
					"inputs": [],
					"name": "uniswapFactory",
					"outputs": [
						{
							"internalType": "contract IUniswapV2Factory",
							"name": "",
							"type": "address"
						}
					],
					"stateMutability": "view",
					"type": "function"
				},
				{
					"inputs": [],
					"name": "uniswapRouter",
					"outputs": [
						{
							"internalType": "contract IUniswapV2Router02",
							"name": "",
							"type": "address"
						}
					],
					"stateMutability": "view",
					"type": "function"
				},
				{
					"stateMutability": "payable",
					"type": "receive"
				}
			],
			"devdoc": {
				"errors": {
					"OwnableInvalidOwner(address)": [
						{
							"details": "The owner is not a valid owner account. (eg. `address(0)`)"
						}
					],
					"OwnableUnauthorizedAccount(address)": [
						{
							"details": "The caller account is not authorized to perform an operation."
						}
					]
				},
				"kind": "dev",
				"methods": {
					"owner()": {
						"details": "Returns the address of the current owner."
					},
					"renounceOwnership()": {
						"details": "Leaves the contract without owner. It will not be possible to call `onlyOwner` functions. Can only be called by the current owner. NOTE: Renouncing ownership will leave the contract without an owner, thereby disabling any functionality that is only available to the owner."
					}
				},
				"version": 1
			},
			"evm": {
				"assembly": "    /* \"quantum/UBI4ALLLiquidator.sol\":395:6978  contract UBI4ALLLiquidator is IUBI4ALLLiquidator, Ownable {... */\n  mstore(0x40, 0x80)\n    /* \"quantum/UBI4ALLLiquidator.sol\":1002:1872  constructor(... */\n  callvalue\n  dup1\n  iszero\n  tag_1\n  jumpi\n  revert(0x00, 0x00)\ntag_1:\n  pop\n  mload(0x40)\n  sub(codesize, bytecodeSize)\n  dup1\n  bytecodeSize\n  dup4\n  codecopy\n  dup2\n  dup2\n  add\n  0x40\n  mstore\n  dup2\n  add\n  swap1\n  tag_2\n  swap2\n  swap1\n  tag_3\n  jump\t// in\ntag_2:\n    /* \"quantum/UBI4ALLLiquidator.sol\":1219:1231  initialOwner */\n  dup1\n    /* \"@openzeppelin/contracts/access/Ownable.sol\":1297:1298  0 */\n  0x00\n    /* \"@openzeppelin/contracts/access/Ownable.sol\":1273:1299  initialOwner == address(0) */\n  0xffffffffffffffffffffffffffffffffffffffff\n  and\n    /* \"@openzeppelin/contracts/access/Ownable.sol\":1273:1285  initialOwner */\n  dup2\n    /* \"@openzeppelin/contracts/access/Ownable.sol\":1273:1299  initialOwner == address(0) */\n  0xffffffffffffffffffffffffffffffffffffffff\n  and\n  sub\n    /* \"@openzeppelin/contracts/access/Ownable.sol\":1269:1364  if (initialOwner == address(0)) {... */\n  tag_7\n  jumpi\n    /* \"@openzeppelin/contracts/access/Ownable.sol\":1350:1351  0 */\n  0x00\n    /* \"@openzeppelin/contracts/access/Ownable.sol\":1322:1353  OwnableInvalidOwner(address(0)) */\n  mload(0x40)\n  0x1e4fbdf700000000000000000000000000000000000000000000000000000000\n  dup2\n  mstore\n  0x04\n  add\n  tag_8\n  swap2\n  swap1\n  tag_9\n  jump\t// in\ntag_8:\n  mload(0x40)\n  dup1\n  swap2\n  sub\n  swap1\n  revert\n    /* \"@openzeppelin/contracts/access/Ownable.sol\":1269:1364  if (initialOwner == address(0)) {... */\ntag_7:\n    /* \"@openzeppelin/contracts/access/Ownable.sol\":1373:1405  _transferOwnership(initialOwner) */\n  tag_10\n    /* \"@openzeppelin/contracts/access/Ownable.sol\":1392:1404  initialOwner */\n  dup2\n    /* \"@openzeppelin/contracts/access/Ownable.sol\":1373:1391  _transferOwnership */\n  shl(0x20, tag_11)\n    /* \"@openzeppelin/contracts/access/Ownable.sol\":1373:1405  _transferOwnership(initialOwner) */\n  0x20\n  shr\n  jump\t// in\ntag_10:\n    /* \"@openzeppelin/contracts/access/Ownable.sol\":1225:1412  constructor(address initialOwner) {... */\n  pop\n    /* \"quantum/UBI4ALLLiquidator.sol\":1276:1277  0 */\n  0x00\n    /* \"quantum/UBI4ALLLiquidator.sol\":1251:1278  _ubi4allToken != address(0) */\n  0xffffffffffffffffffffffffffffffffffffffff\n  and\n    /* \"quantum/UBI4ALLLiquidator.sol\":1251:1264  _ubi4allToken */\n  dup7\n    /* \"quantum/UBI4ALLLiquidator.sol\":1251:1278  _ubi4allToken != address(0) */\n  0xffffffffffffffffffffffffffffffffffffffff\n  and\n  sub\n    /* \"quantum/UBI4ALLLiquidator.sol\":1243:1308  require(_ubi4allToken != address(0), \"Invalid UB4 token address\") */\n  tag_13\n  jumpi\n  mload(0x40)\n  0x08c379a000000000000000000000000000000000000000000000000000000000\n  dup2\n  mstore\n  0x04\n  add\n  tag_14\n  swap1\n  tag_15\n  jump\t// in\ntag_14:\n  mload(0x40)\n  dup1\n  swap2\n  sub\n  swap1\n  revert\ntag_13:\n    /* \"quantum/UBI4ALLLiquidator.sol\":1351:1352  0 */\n  0x00\n    /* \"quantum/UBI4ALLLiquidator.sol\":1326:1353  _quantumToken != address(0) */\n  0xffffffffffffffffffffffffffffffffffffffff\n  and\n    /* \"quantum/UBI4ALLLiquidator.sol\":1326:1339  _quantumToken */\n  dup6\n    /* \"quantum/UBI4ALLLiquidator.sol\":1326:1353  _quantumToken != address(0) */\n  0xffffffffffffffffffffffffffffffffffffffff\n  and\n  sub\n    /* \"quantum/UBI4ALLLiquidator.sol\":1318:1383  require(_quantumToken != address(0), \"Invalid Q4A token address\") */\n  tag_16\n  jumpi\n  mload(0x40)\n  0x08c379a000000000000000000000000000000000000000000000000000000000\n  dup2\n  mstore\n  0x04\n  add\n  tag_17\n  swap1\n  tag_18\n  jump\t// in\ntag_17:\n  mload(0x40)\n  dup1\n  swap2\n  sub\n  swap1\n  revert\ntag_16:\n    /* \"quantum/UBI4ALLLiquidator.sol\":1427:1428  0 */\n  0x00\n    /* \"quantum/UBI4ALLLiquidator.sol\":1401:1429  _uniswapRouter != address(0) */\n  0xffffffffffffffffffffffffffffffffffffffff\n  and\n    /* \"quantum/UBI4ALLLiquidator.sol\":1401:1415  _uniswapRouter */\n  dup5\n    /* \"quantum/UBI4ALLLiquidator.sol\":1401:1429  _uniswapRouter != address(0) */\n  0xffffffffffffffffffffffffffffffffffffffff\n  and\n  sub\n    /* \"quantum/UBI4ALLLiquidator.sol\":1393:1456  require(_uniswapRouter != address(0), \"Invalid router address\") */\n  tag_19\n  jumpi\n  mload(0x40)\n  0x08c379a000000000000000000000000000000000000000000000000000000000\n  dup2\n  mstore\n  0x04\n  add\n  tag_20\n  swap1\n  tag_21\n  jump\t// in\ntag_20:\n  mload(0x40)\n  dup1\n  swap2\n  sub\n  swap1\n  revert\ntag_19:\n    /* \"quantum/UBI4ALLLiquidator.sol\":1501:1502  0 */\n  0x00\n    /* \"quantum/UBI4ALLLiquidator.sol\":1474:1503  _uniswapFactory != address(0) */\n  0xffffffffffffffffffffffffffffffffffffffff\n  and\n    /* \"quantum/UBI4ALLLiquidator.sol\":1474:1489  _uniswapFactory */\n  dup4\n    /* \"quantum/UBI4ALLLiquidator.sol\":1474:1503  _uniswapFactory != address(0) */\n  0xffffffffffffffffffffffffffffffffffffffff\n  and\n  sub\n    /* \"quantum/UBI4ALLLiquidator.sol\":1466:1531  require(_uniswapFactory != address(0), \"Invalid factory address\") */\n  tag_22\n  jumpi\n  mload(0x40)\n  0x08c379a000000000000000000000000000000000000000000000000000000000\n  dup2\n  mstore\n  0x04\n  add\n  tag_23\n  swap1\n  tag_24\n  jump\t// in\ntag_23:\n  mload(0x40)\n  dup1\n  swap2\n  sub\n  swap1\n  revert\ntag_22:\n    /* \"quantum/UBI4ALLLiquidator.sol\":1577:1578  0 */\n  0x00\n    /* \"quantum/UBI4ALLLiquidator.sol\":1549:1579  _liquidityWallet != address(0) */\n  0xffffffffffffffffffffffffffffffffffffffff\n  and\n    /* \"quantum/UBI4ALLLiquidator.sol\":1549:1565  _liquidityWallet */\n  dup3\n    /* \"quantum/UBI4ALLLiquidator.sol\":1549:1579  _liquidityWallet != address(0) */\n  0xffffffffffffffffffffffffffffffffffffffff\n  and\n  sub\n    /* \"quantum/UBI4ALLLiquidator.sol\":1541:1608  require(_liquidityWallet != address(0), \"Invalid liquidity wallet\") */\n  tag_25\n  jumpi\n  mload(0x40)\n  0x08c379a000000000000000000000000000000000000000000000000000000000\n  dup2\n  mstore\n  0x04\n  add\n  tag_26\n  swap1\n  tag_27\n  jump\t// in\ntag_26:\n  mload(0x40)\n  dup1\n  swap2\n  sub\n  swap1\n  revert\ntag_25:\n    /* \"quantum/UBI4ALLLiquidator.sol\":1640:1653  _ubi4allToken */\n  dup6\n    /* \"quantum/UBI4ALLLiquidator.sol\":1618:1630  ubi4allToken */\n  0x01\n  0x00\n    /* \"quantum/UBI4ALLLiquidator.sol\":1618:1654  ubi4allToken = IERC20(_ubi4allToken) */\n  0x0100\n  exp\n  dup2\n  sload\n  dup2\n  0xffffffffffffffffffffffffffffffffffffffff\n  mul\n  not\n  and\n  swap1\n  dup4\n  0xffffffffffffffffffffffffffffffffffffffff\n  and\n  mul\n  or\n  swap1\n  sstore\n  pop\n    /* \"quantum/UBI4ALLLiquidator.sol\":1686:1699  _quantumToken */\n  dup5\n    /* \"quantum/UBI4ALLLiquidator.sol\":1664:1676  quantumToken */\n  0x02\n  0x00\n    /* \"quantum/UBI4ALLLiquidator.sol\":1664:1700  quantumToken = IERC20(_quantumToken) */\n  0x0100\n  exp\n  dup2\n  sload\n  dup2\n  0xffffffffffffffffffffffffffffffffffffffff\n  mul\n  not\n  and\n  swap1\n  dup4\n  0xffffffffffffffffffffffffffffffffffffffff\n  and\n  mul\n  or\n  swap1\n  sstore\n  pop\n    /* \"quantum/UBI4ALLLiquidator.sol\":1745:1759  _uniswapRouter */\n  dup4\n    /* \"quantum/UBI4ALLLiquidator.sol\":1710:1723  uniswapRouter */\n  0x03\n  0x00\n    /* \"quantum/UBI4ALLLiquidator.sol\":1710:1760  uniswapRouter = IUniswapV2Router02(_uniswapRouter) */\n  0x0100\n  exp\n  dup2\n  sload\n  dup2\n  0xffffffffffffffffffffffffffffffffffffffff\n  mul\n  not\n  and\n  swap1\n  dup4\n  0xffffffffffffffffffffffffffffffffffffffff\n  and\n  mul\n  or\n  swap1\n  sstore\n  pop\n    /* \"quantum/UBI4ALLLiquidator.sol\":1805:1820  _uniswapFactory */\n  dup3\n    /* \"quantum/UBI4ALLLiquidator.sol\":1770:1784  uniswapFactory */\n  0x04\n  0x00\n    /* \"quantum/UBI4ALLLiquidator.sol\":1770:1821  uniswapFactory = IUniswapV2Factory(_uniswapFactory) */\n  0x0100\n  exp\n  dup2\n  sload\n  dup2\n  0xffffffffffffffffffffffffffffffffffffffff\n  mul\n  not\n  and\n  swap1\n  dup4\n  0xffffffffffffffffffffffffffffffffffffffff\n  and\n  mul\n  or\n  swap1\n  sstore\n  pop\n    /* \"quantum/UBI4ALLLiquidator.sol\":1849:1865  _liquidityWallet */\n  dup2\n    /* \"quantum/UBI4ALLLiquidator.sol\":1831:1846  liquidityWallet */\n  0x05\n  0x00\n    /* \"quantum/UBI4ALLLiquidator.sol\":1831:1865  liquidityWallet = _liquidityWallet */\n  0x0100\n  exp\n  dup2\n  sload\n  dup2\n  0xffffffffffffffffffffffffffffffffffffffff\n  mul\n  not\n  and\n  swap1\n  dup4\n  0xffffffffffffffffffffffffffffffffffffffff\n  and\n  mul\n  or\n  swap1\n  sstore\n  pop\n    /* \"quantum/UBI4ALLLiquidator.sol\":1002:1872  constructor(... */\n  pop\n  pop\n  pop\n  pop\n  pop\n  pop\n    /* \"quantum/UBI4ALLLiquidator.sol\":395:6978  contract UBI4ALLLiquidator is IUBI4ALLLiquidator, Ownable {... */\n  jump(tag_28)\n    /* \"@openzeppelin/contracts/access/Ownable.sol\":2912:3099  function _transferOwnership(address newOwner) internal virtual {... */\ntag_11:\n    /* \"@openzeppelin/contracts/access/Ownable.sol\":2985:3001  address oldOwner */\n  0x00\n    /* \"@openzeppelin/contracts/access/Ownable.sol\":3004:3010  _owner */\n  0x00\n  0x00\n  swap1\n  sload\n  swap1\n  0x0100\n  exp\n  swap1\n  div\n  0xffffffffffffffffffffffffffffffffffffffff\n  and\n    /* \"@openzeppelin/contracts/access/Ownable.sol\":2985:3010  address oldOwner = _owner */\n  swap1\n  pop\n    /* \"@openzeppelin/contracts/access/Ownable.sol\":3029:3037  newOwner */\n  dup2\n    /* \"@openzeppelin/contracts/access/Ownable.sol\":3020:3026  _owner */\n  0x00\n  0x00\n    /* \"@openzeppelin/contracts/access/Ownable.sol\":3020:3037  _owner = newOwner */\n  0x0100\n  exp\n  dup2\n  sload\n  dup2\n  0xffffffffffffffffffffffffffffffffffffffff\n  mul\n  not\n  and\n  swap1\n  dup4\n  0xffffffffffffffffffffffffffffffffffffffff\n  and\n  mul\n  or\n  swap1\n  sstore\n  pop\n    /* \"@openzeppelin/contracts/access/Ownable.sol\":3083:3091  newOwner */\n  dup2\n    /* \"@openzeppelin/contracts/access/Ownable.sol\":3052:3092  OwnershipTransferred(oldOwner, newOwner) */\n  0xffffffffffffffffffffffffffffffffffffffff\n  and\n    /* \"@openzeppelin/contracts/access/Ownable.sol\":3073:3081  oldOwner */\n  dup2\n    /* \"@openzeppelin/contracts/access/Ownable.sol\":3052:3092  OwnershipTransferred(oldOwner, newOwner) */\n  0xffffffffffffffffffffffffffffffffffffffff\n  and\n  0x8be0079c531659141344cd1fd0a4f28419497f9722a3daafe3b4186f6b6457e0\n  mload(0x40)\n  mload(0x40)\n  dup1\n  swap2\n  sub\n  swap1\n  log3\n    /* \"@openzeppelin/contracts/access/Ownable.sol\":2975:3099  {... */\n  pop\n    /* \"@openzeppelin/contracts/access/Ownable.sol\":2912:3099  function _transferOwnership(address newOwner) internal virtual {... */\n  pop\n  jump\t// out\n    /* \"#utility.yul\":88:205   */\ntag_31:\n    /* \"#utility.yul\":197:198   */\n  0x00\n    /* \"#utility.yul\":194:195   */\n  0x00\n    /* \"#utility.yul\":187:199   */\n  revert\n    /* \"#utility.yul\":334:460   */\ntag_33:\n    /* \"#utility.yul\":371:378   */\n  0x00\n    /* \"#utility.yul\":411:453   */\n  0xffffffffffffffffffffffffffffffffffffffff\n    /* \"#utility.yul\":404:409   */\n  dup3\n    /* \"#utility.yul\":400:454   */\n  and\n    /* \"#utility.yul\":389:454   */\n  swap1\n  pop\n    /* \"#utility.yul\":334:460   */\n  swap2\n  swap1\n  pop\n  jump\t// out\n    /* \"#utility.yul\":466:562   */\ntag_34:\n    /* \"#utility.yul\":503:510   */\n  0x00\n    /* \"#utility.yul\":532:556   */\n  tag_55\n    /* \"#utility.yul\":550:555   */\n  dup3\n    /* \"#utility.yul\":532:556   */\n  tag_33\n  jump\t// in\ntag_55:\n    /* \"#utility.yul\":521:556   */\n  swap1\n  pop\n    /* \"#utility.yul\":466:562   */\n  swap2\n  swap1\n  pop\n  jump\t// out\n    /* \"#utility.yul\":568:690   */\ntag_35:\n    /* \"#utility.yul\":641:665   */\n  tag_57\n    /* \"#utility.yul\":659:664   */\n  dup2\n    /* \"#utility.yul\":641:665   */\n  tag_34\n  jump\t// in\ntag_57:\n    /* \"#utility.yul\":634:639   */\n  dup2\n    /* \"#utility.yul\":631:666   */\n  eq\n    /* \"#utility.yul\":621:684   */\n  tag_58\n  jumpi\n    /* \"#utility.yul\":680:681   */\n  0x00\n    /* \"#utility.yul\":677:678   */\n  0x00\n    /* \"#utility.yul\":670:682   */\n  revert\n    /* \"#utility.yul\":621:684   */\ntag_58:\n    /* \"#utility.yul\":568:690   */\n  pop\n  jump\t// out\n    /* \"#utility.yul\":696:839   */\ntag_36:\n    /* \"#utility.yul\":753:758   */\n  0x00\n    /* \"#utility.yul\":784:790   */\n  dup2\n    /* \"#utility.yul\":778:791   */\n  mload\n    /* \"#utility.yul\":769:791   */\n  swap1\n  pop\n    /* \"#utility.yul\":800:833   */\n  tag_60\n    /* \"#utility.yul\":827:832   */\n  dup2\n    /* \"#utility.yul\":800:833   */\n  tag_35\n  jump\t// in\ntag_60:\n    /* \"#utility.yul\":696:839   */\n  swap3\n  swap2\n  pop\n  pop\n  jump\t// out\n    /* \"#utility.yul\":845:1979   */\ntag_3:\n    /* \"#utility.yul\":960:966   */\n  0x00\n    /* \"#utility.yul\":968:974   */\n  0x00\n    /* \"#utility.yul\":976:982   */\n  0x00\n    /* \"#utility.yul\":984:990   */\n  0x00\n    /* \"#utility.yul\":992:998   */\n  0x00\n    /* \"#utility.yul\":1000:1006   */\n  0x00\n    /* \"#utility.yul\":1049:1052   */\n  0xc0\n    /* \"#utility.yul\":1037:1046   */\n  dup8\n    /* \"#utility.yul\":1028:1035   */\n  dup10\n    /* \"#utility.yul\":1024:1047   */\n  sub\n    /* \"#utility.yul\":1020:1053   */\n  slt\n    /* \"#utility.yul\":1017:1137   */\n  iszero\n  tag_62\n  jumpi\n    /* \"#utility.yul\":1056:1135   */\n  tag_63\n  tag_31\n  jump\t// in\ntag_63:\n    /* \"#utility.yul\":1017:1137   */\ntag_62:\n    /* \"#utility.yul\":1176:1177   */\n  0x00\n    /* \"#utility.yul\":1201:1265   */\n  tag_64\n    /* \"#utility.yul\":1257:1264   */\n  dup10\n    /* \"#utility.yul\":1248:1254   */\n  dup3\n    /* \"#utility.yul\":1237:1246   */\n  dup11\n    /* \"#utility.yul\":1233:1255   */\n  add\n    /* \"#utility.yul\":1201:1265   */\n  tag_36\n  jump\t// in\ntag_64:\n    /* \"#utility.yul\":1191:1265   */\n  swap7\n  pop\n    /* \"#utility.yul\":1147:1275   */\n  pop\n    /* \"#utility.yul\":1314:1316   */\n  0x20\n    /* \"#utility.yul\":1340:1404   */\n  tag_65\n    /* \"#utility.yul\":1396:1403   */\n  dup10\n    /* \"#utility.yul\":1387:1393   */\n  dup3\n    /* \"#utility.yul\":1376:1385   */\n  dup11\n    /* \"#utility.yul\":1372:1394   */\n  add\n    /* \"#utility.yul\":1340:1404   */\n  tag_36\n  jump\t// in\ntag_65:\n    /* \"#utility.yul\":1330:1404   */\n  swap6\n  pop\n    /* \"#utility.yul\":1285:1414   */\n  pop\n    /* \"#utility.yul\":1453:1455   */\n  0x40\n    /* \"#utility.yul\":1479:1543   */\n  tag_66\n    /* \"#utility.yul\":1535:1542   */\n  dup10\n    /* \"#utility.yul\":1526:1532   */\n  dup3\n    /* \"#utility.yul\":1515:1524   */\n  dup11\n    /* \"#utility.yul\":1511:1533   */\n  add\n    /* \"#utility.yul\":1479:1543   */\n  tag_36\n  jump\t// in\ntag_66:\n    /* \"#utility.yul\":1469:1543   */\n  swap5\n  pop\n    /* \"#utility.yul\":1424:1553   */\n  pop\n    /* \"#utility.yul\":1592:1594   */\n  0x60\n    /* \"#utility.yul\":1618:1682   */\n  tag_67\n    /* \"#utility.yul\":1674:1681   */\n  dup10\n    /* \"#utility.yul\":1665:1671   */\n  dup3\n    /* \"#utility.yul\":1654:1663   */\n  dup11\n    /* \"#utility.yul\":1650:1672   */\n  add\n    /* \"#utility.yul\":1618:1682   */\n  tag_36\n  jump\t// in\ntag_67:\n    /* \"#utility.yul\":1608:1682   */\n  swap4\n  pop\n    /* \"#utility.yul\":1563:1692   */\n  pop\n    /* \"#utility.yul\":1731:1734   */\n  0x80\n    /* \"#utility.yul\":1758:1822   */\n  tag_68\n    /* \"#utility.yul\":1814:1821   */\n  dup10\n    /* \"#utility.yul\":1805:1811   */\n  dup3\n    /* \"#utility.yul\":1794:1803   */\n  dup11\n    /* \"#utility.yul\":1790:1812   */\n  add\n    /* \"#utility.yul\":1758:1822   */\n  tag_36\n  jump\t// in\ntag_68:\n    /* \"#utility.yul\":1748:1822   */\n  swap3\n  pop\n    /* \"#utility.yul\":1702:1832   */\n  pop\n    /* \"#utility.yul\":1871:1874   */\n  0xa0\n    /* \"#utility.yul\":1898:1962   */\n  tag_69\n    /* \"#utility.yul\":1954:1961   */\n  dup10\n    /* \"#utility.yul\":1945:1951   */\n  dup3\n    /* \"#utility.yul\":1934:1943   */\n  dup11\n    /* \"#utility.yul\":1930:1952   */\n  add\n    /* \"#utility.yul\":1898:1962   */\n  tag_36\n  jump\t// in\ntag_69:\n    /* \"#utility.yul\":1888:1962   */\n  swap2\n  pop\n    /* \"#utility.yul\":1842:1972   */\n  pop\n    /* \"#utility.yul\":845:1979   */\n  swap3\n  swap6\n  pop\n  swap3\n  swap6\n  pop\n  swap3\n  swap6\n  jump\t// out\n    /* \"#utility.yul\":1985:2103   */\ntag_37:\n    /* \"#utility.yul\":2072:2096   */\n  tag_71\n    /* \"#utility.yul\":2090:2095   */\n  dup2\n    /* \"#utility.yul\":2072:2096   */\n  tag_34\n  jump\t// in\ntag_71:\n    /* \"#utility.yul\":2067:2070   */\n  dup3\n    /* \"#utility.yul\":2060:2097   */\n  mstore\n    /* \"#utility.yul\":1985:2103   */\n  pop\n  pop\n  jump\t// out\n    /* \"#utility.yul\":2109:2331   */\ntag_9:\n    /* \"#utility.yul\":2202:2206   */\n  0x00\n    /* \"#utility.yul\":2240:2242   */\n  0x20\n    /* \"#utility.yul\":2229:2238   */\n  dup3\n    /* \"#utility.yul\":2225:2243   */\n  add\n    /* \"#utility.yul\":2217:2243   */\n  swap1\n  pop\n    /* \"#utility.yul\":2253:2324   */\n  tag_73\n    /* \"#utility.yul\":2321:2322   */\n  0x00\n    /* \"#utility.yul\":2310:2319   */\n  dup4\n    /* \"#utility.yul\":2306:2323   */\n  add\n    /* \"#utility.yul\":2297:2303   */\n  dup5\n    /* \"#utility.yul\":2253:2324   */\n  tag_37\n  jump\t// in\ntag_73:\n    /* \"#utility.yul\":2109:2331   */\n  swap3\n  swap2\n  pop\n  pop\n  jump\t// out\n    /* \"#utility.yul\":2337:2506   */\ntag_38:\n    /* \"#utility.yul\":2421:2432   */\n  0x00\n    /* \"#utility.yul\":2455:2461   */\n  dup3\n    /* \"#utility.yul\":2450:2453   */\n  dup3\n    /* \"#utility.yul\":2443:2462   */\n  mstore\n    /* \"#utility.yul\":2495:2499   */\n  0x20\n    /* \"#utility.yul\":2490:2493   */\n  dup3\n    /* \"#utility.yul\":2486:2500   */\n  add\n    /* \"#utility.yul\":2471:2500   */\n  swap1\n  pop\n    /* \"#utility.yul\":2337:2506   */\n  swap3\n  swap2\n  pop\n  pop\n  jump\t// out\n    /* \"#utility.yul\":2512:2687   */\ntag_39:\n    /* \"#utility.yul\":2652:2679   */\n  0x496e76616c69642055423420746f6b656e206164647265737300000000000000\n    /* \"#utility.yul\":2648:2649   */\n  0x00\n    /* \"#utility.yul\":2640:2646   */\n  dup3\n    /* \"#utility.yul\":2636:2650   */\n  add\n    /* \"#utility.yul\":2629:2680   */\n  mstore\n    /* \"#utility.yul\":2512:2687   */\n  pop\n  jump\t// out\n    /* \"#utility.yul\":2693:3059   */\ntag_40:\n    /* \"#utility.yul\":2835:2838   */\n  0x00\n    /* \"#utility.yul\":2856:2923   */\n  tag_77\n    /* \"#utility.yul\":2920:2922   */\n  0x19\n    /* \"#utility.yul\":2915:2918   */\n  dup4\n    /* \"#utility.yul\":2856:2923   */\n  tag_38\n  jump\t// in\ntag_77:\n    /* \"#utility.yul\":2849:2923   */\n  swap2\n  pop\n    /* \"#utility.yul\":2932:3025   */\n  tag_78\n    /* \"#utility.yul\":3021:3024   */\n  dup3\n    /* \"#utility.yul\":2932:3025   */\n  tag_39\n  jump\t// in\ntag_78:\n    /* \"#utility.yul\":3050:3052   */\n  0x20\n    /* \"#utility.yul\":3045:3048   */\n  dup3\n    /* \"#utility.yul\":3041:3053   */\n  add\n    /* \"#utility.yul\":3034:3053   */\n  swap1\n  pop\n    /* \"#utility.yul\":2693:3059   */\n  swap2\n  swap1\n  pop\n  jump\t// out\n    /* \"#utility.yul\":3065:3484   */\ntag_15:\n    /* \"#utility.yul\":3231:3235   */\n  0x00\n    /* \"#utility.yul\":3269:3271   */\n  0x20\n    /* \"#utility.yul\":3258:3267   */\n  dup3\n    /* \"#utility.yul\":3254:3272   */\n  add\n    /* \"#utility.yul\":3246:3272   */\n  swap1\n  pop\n    /* \"#utility.yul\":3318:3327   */\n  dup2\n    /* \"#utility.yul\":3312:3316   */\n  dup2\n    /* \"#utility.yul\":3308:3328   */\n  sub\n    /* \"#utility.yul\":3304:3305   */\n  0x00\n    /* \"#utility.yul\":3293:3302   */\n  dup4\n    /* \"#utility.yul\":3289:3306   */\n  add\n    /* \"#utility.yul\":3282:3329   */\n  mstore\n    /* \"#utility.yul\":3346:3477   */\n  tag_80\n    /* \"#utility.yul\":3472:3476   */\n  dup2\n    /* \"#utility.yul\":3346:3477   */\n  tag_40\n  jump\t// in\ntag_80:\n    /* \"#utility.yul\":3338:3477   */\n  swap1\n  pop\n    /* \"#utility.yul\":3065:3484   */\n  swap2\n  swap1\n  pop\n  jump\t// out\n    /* \"#utility.yul\":3490:3665   */\ntag_41:\n    /* \"#utility.yul\":3630:3657   */\n  0x496e76616c69642051344120746f6b656e206164647265737300000000000000\n    /* \"#utility.yul\":3626:3627   */\n  0x00\n    /* \"#utility.yul\":3618:3624   */\n  dup3\n    /* \"#utility.yul\":3614:3628   */\n  add\n    /* \"#utility.yul\":3607:3658   */\n  mstore\n    /* \"#utility.yul\":3490:3665   */\n  pop\n  jump\t// out\n    /* \"#utility.yul\":3671:4037   */\ntag_42:\n    /* \"#utility.yul\":3813:3816   */\n  0x00\n    /* \"#utility.yul\":3834:3901   */\n  tag_83\n    /* \"#utility.yul\":3898:3900   */\n  0x19\n    /* \"#utility.yul\":3893:3896   */\n  dup4\n    /* \"#utility.yul\":3834:3901   */\n  tag_38\n  jump\t// in\ntag_83:\n    /* \"#utility.yul\":3827:3901   */\n  swap2\n  pop\n    /* \"#utility.yul\":3910:4003   */\n  tag_84\n    /* \"#utility.yul\":3999:4002   */\n  dup3\n    /* \"#utility.yul\":3910:4003   */\n  tag_41\n  jump\t// in\ntag_84:\n    /* \"#utility.yul\":4028:4030   */\n  0x20\n    /* \"#utility.yul\":4023:4026   */\n  dup3\n    /* \"#utility.yul\":4019:4031   */\n  add\n    /* \"#utility.yul\":4012:4031   */\n  swap1\n  pop\n    /* \"#utility.yul\":3671:4037   */\n  swap2\n  swap1\n  pop\n  jump\t// out\n    /* \"#utility.yul\":4043:4462   */\ntag_18:\n    /* \"#utility.yul\":4209:4213   */\n  0x00\n    /* \"#utility.yul\":4247:4249   */\n  0x20\n    /* \"#utility.yul\":4236:4245   */\n  dup3\n    /* \"#utility.yul\":4232:4250   */\n  add\n    /* \"#utility.yul\":4224:4250   */\n  swap1\n  pop\n    /* \"#utility.yul\":4296:4305   */\n  dup2\n    /* \"#utility.yul\":4290:4294   */\n  dup2\n    /* \"#utility.yul\":4286:4306   */\n  sub\n    /* \"#utility.yul\":4282:4283   */\n  0x00\n    /* \"#utility.yul\":4271:4280   */\n  dup4\n    /* \"#utility.yul\":4267:4284   */\n  add\n    /* \"#utility.yul\":4260:4307   */\n  mstore\n    /* \"#utility.yul\":4324:4455   */\n  tag_86\n    /* \"#utility.yul\":4450:4454   */\n  dup2\n    /* \"#utility.yul\":4324:4455   */\n  tag_42\n  jump\t// in\ntag_86:\n    /* \"#utility.yul\":4316:4455   */\n  swap1\n  pop\n    /* \"#utility.yul\":4043:4462   */\n  swap2\n  swap1\n  pop\n  jump\t// out\n    /* \"#utility.yul\":4468:4640   */\ntag_43:\n    /* \"#utility.yul\":4608:4632   */\n  0x496e76616c696420726f75746572206164647265737300000000000000000000\n    /* \"#utility.yul\":4604:4605   */\n  0x00\n    /* \"#utility.yul\":4596:4602   */\n  dup3\n    /* \"#utility.yul\":4592:4606   */\n  add\n    /* \"#utility.yul\":4585:4633   */\n  mstore\n    /* \"#utility.yul\":4468:4640   */\n  pop\n  jump\t// out\n    /* \"#utility.yul\":4646:5012   */\ntag_44:\n    /* \"#utility.yul\":4788:4791   */\n  0x00\n    /* \"#utility.yul\":4809:4876   */\n  tag_89\n    /* \"#utility.yul\":4873:4875   */\n  0x16\n    /* \"#utility.yul\":4868:4871   */\n  dup4\n    /* \"#utility.yul\":4809:4876   */\n  tag_38\n  jump\t// in\ntag_89:\n    /* \"#utility.yul\":4802:4876   */\n  swap2\n  pop\n    /* \"#utility.yul\":4885:4978   */\n  tag_90\n    /* \"#utility.yul\":4974:4977   */\n  dup3\n    /* \"#utility.yul\":4885:4978   */\n  tag_43\n  jump\t// in\ntag_90:\n    /* \"#utility.yul\":5003:5005   */\n  0x20\n    /* \"#utility.yul\":4998:5001   */\n  dup3\n    /* \"#utility.yul\":4994:5006   */\n  add\n    /* \"#utility.yul\":4987:5006   */\n  swap1\n  pop\n    /* \"#utility.yul\":4646:5012   */\n  swap2\n  swap1\n  pop\n  jump\t// out\n    /* \"#utility.yul\":5018:5437   */\ntag_21:\n    /* \"#utility.yul\":5184:5188   */\n  0x00\n    /* \"#utility.yul\":5222:5224   */\n  0x20\n    /* \"#utility.yul\":5211:5220   */\n  dup3\n    /* \"#utility.yul\":5207:5225   */\n  add\n    /* \"#utility.yul\":5199:5225   */\n  swap1\n  pop\n    /* \"#utility.yul\":5271:5280   */\n  dup2\n    /* \"#utility.yul\":5265:5269   */\n  dup2\n    /* \"#utility.yul\":5261:5281   */\n  sub\n    /* \"#utility.yul\":5257:5258   */\n  0x00\n    /* \"#utility.yul\":5246:5255   */\n  dup4\n    /* \"#utility.yul\":5242:5259   */\n  add\n    /* \"#utility.yul\":5235:5282   */\n  mstore\n    /* \"#utility.yul\":5299:5430   */\n  tag_92\n    /* \"#utility.yul\":5425:5429   */\n  dup2\n    /* \"#utility.yul\":5299:5430   */\n  tag_44\n  jump\t// in\ntag_92:\n    /* \"#utility.yul\":5291:5430   */\n  swap1\n  pop\n    /* \"#utility.yul\":5018:5437   */\n  swap2\n  swap1\n  pop\n  jump\t// out\n    /* \"#utility.yul\":5443:5616   */\ntag_45:\n    /* \"#utility.yul\":5583:5608   */\n  0x496e76616c696420666163746f72792061646472657373000000000000000000\n    /* \"#utility.yul\":5579:5580   */\n  0x00\n    /* \"#utility.yul\":5571:5577   */\n  dup3\n    /* \"#utility.yul\":5567:5581   */\n  add\n    /* \"#utility.yul\":5560:5609   */\n  mstore\n    /* \"#utility.yul\":5443:5616   */\n  pop\n  jump\t// out\n    /* \"#utility.yul\":5622:5988   */\ntag_46:\n    /* \"#utility.yul\":5764:5767   */\n  0x00\n    /* \"#utility.yul\":5785:5852   */\n  tag_95\n    /* \"#utility.yul\":5849:5851   */\n  0x17\n    /* \"#utility.yul\":5844:5847   */\n  dup4\n    /* \"#utility.yul\":5785:5852   */\n  tag_38\n  jump\t// in\ntag_95:\n    /* \"#utility.yul\":5778:5852   */\n  swap2\n  pop\n    /* \"#utility.yul\":5861:5954   */\n  tag_96\n    /* \"#utility.yul\":5950:5953   */\n  dup3\n    /* \"#utility.yul\":5861:5954   */\n  tag_45\n  jump\t// in\ntag_96:\n    /* \"#utility.yul\":5979:5981   */\n  0x20\n    /* \"#utility.yul\":5974:5977   */\n  dup3\n    /* \"#utility.yul\":5970:5982   */\n  add\n    /* \"#utility.yul\":5963:5982   */\n  swap1\n  pop\n    /* \"#utility.yul\":5622:5988   */\n  swap2\n  swap1\n  pop\n  jump\t// out\n    /* \"#utility.yul\":5994:6413   */\ntag_24:\n    /* \"#utility.yul\":6160:6164   */\n  0x00\n    /* \"#utility.yul\":6198:6200   */\n  0x20\n    /* \"#utility.yul\":6187:6196   */\n  dup3\n    /* \"#utility.yul\":6183:6201   */\n  add\n    /* \"#utility.yul\":6175:6201   */\n  swap1\n  pop\n    /* \"#utility.yul\":6247:6256   */\n  dup2\n    /* \"#utility.yul\":6241:6245   */\n  dup2\n    /* \"#utility.yul\":6237:6257   */\n  sub\n    /* \"#utility.yul\":6233:6234   */\n  0x00\n    /* \"#utility.yul\":6222:6231   */\n  dup4\n    /* \"#utility.yul\":6218:6235   */\n  add\n    /* \"#utility.yul\":6211:6258   */\n  mstore\n    /* \"#utility.yul\":6275:6406   */\n  tag_98\n    /* \"#utility.yul\":6401:6405   */\n  dup2\n    /* \"#utility.yul\":6275:6406   */\n  tag_46\n  jump\t// in\ntag_98:\n    /* \"#utility.yul\":6267:6406   */\n  swap1\n  pop\n    /* \"#utility.yul\":5994:6413   */\n  swap2\n  swap1\n  pop\n  jump\t// out\n    /* \"#utility.yul\":6419:6593   */\ntag_47:\n    /* \"#utility.yul\":6559:6585   */\n  0x496e76616c6964206c69717569646974792077616c6c65740000000000000000\n    /* \"#utility.yul\":6555:6556   */\n  0x00\n    /* \"#utility.yul\":6547:6553   */\n  dup3\n    /* \"#utility.yul\":6543:6557   */\n  add\n    /* \"#utility.yul\":6536:6586   */\n  mstore\n    /* \"#utility.yul\":6419:6593   */\n  pop\n  jump\t// out\n    /* \"#utility.yul\":6599:6965   */\ntag_48:\n    /* \"#utility.yul\":6741:6744   */\n  0x00\n    /* \"#utility.yul\":6762:6829   */\n  tag_101\n    /* \"#utility.yul\":6826:6828   */\n  0x18\n    /* \"#utility.yul\":6821:6824   */\n  dup4\n    /* \"#utility.yul\":6762:6829   */\n  tag_38\n  jump\t// in\ntag_101:\n    /* \"#utility.yul\":6755:6829   */\n  swap2\n  pop\n    /* \"#utility.yul\":6838:6931   */\n  tag_102\n    /* \"#utility.yul\":6927:6930   */\n  dup3\n    /* \"#utility.yul\":6838:6931   */\n  tag_47\n  jump\t// in\ntag_102:\n    /* \"#utility.yul\":6956:6958   */\n  0x20\n    /* \"#utility.yul\":6951:6954   */\n  dup3\n    /* \"#utility.yul\":6947:6959   */\n  add\n    /* \"#utility.yul\":6940:6959   */\n  swap1\n  pop\n    /* \"#utility.yul\":6599:6965   */\n  swap2\n  swap1\n  pop\n  jump\t// out\n    /* \"#utility.yul\":6971:7390   */\ntag_27:\n    /* \"#utility.yul\":7137:7141   */\n  0x00\n    /* \"#utility.yul\":7175:7177   */\n  0x20\n    /* \"#utility.yul\":7164:7173   */\n  dup3\n    /* \"#utility.yul\":7160:7178   */\n  add\n    /* \"#utility.yul\":7152:7178   */\n  swap1\n  pop\n    /* \"#utility.yul\":7224:7233   */\n  dup2\n    /* \"#utility.yul\":7218:7222   */\n  dup2\n    /* \"#utility.yul\":7214:7234   */\n  sub\n    /* \"#utility.yul\":7210:7211   */\n  0x00\n    /* \"#utility.yul\":7199:7208   */\n  dup4\n    /* \"#utility.yul\":7195:7212   */\n  add\n    /* \"#utility.yul\":7188:7235   */\n  mstore\n    /* \"#utility.yul\":7252:7383   */\n  tag_104\n    /* \"#utility.yul\":7378:7382   */\n  dup2\n    /* \"#utility.yul\":7252:7383   */\n  tag_48\n  jump\t// in\ntag_104:\n    /* \"#utility.yul\":7244:7383   */\n  swap1\n  pop\n    /* \"#utility.yul\":6971:7390   */\n  swap2\n  swap1\n  pop\n  jump\t// out\n    /* \"quantum/UBI4ALLLiquidator.sol\":395:6978  contract UBI4ALLLiquidator is IUBI4ALLLiquidator, Ownable {... */\ntag_28:\n  dataSize(sub_0)\n  dup1\n  dataOffset(sub_0)\n  0x00\n  codecopy\n  0x00\n  return\nstop\n\nsub_0: assembly {\n        /* \"quantum/UBI4ALLLiquidator.sol\":395:6978  contract UBI4ALLLiquidator is IUBI4ALLLiquidator, Ownable {... */\n      mstore(0x40, 0x80)\n      jumpi(tag_1, lt(calldatasize, 0x04))\n      shr(0xe0, calldataload(0x00))\n      dup1\n      0x8da5cb5b\n      gt\n      tag_18\n      jumpi\n      dup1\n      0xd4698016\n      gt\n      tag_19\n      jumpi\n      dup1\n      0xd4698016\n      eq\n      tag_14\n      jumpi\n      dup1\n      0xf2fde38b\n      eq\n      tag_15\n      jumpi\n      dup1\n      0xfc0d6874\n      eq\n      tag_16\n      jumpi\n      dup1\n      0xffe6f79a\n      eq\n      tag_17\n      jumpi\n      jump(tag_2)\n    tag_19:\n      dup1\n      0x8da5cb5b\n      eq\n      tag_10\n      jumpi\n      dup1\n      0x93565b4c\n      eq\n      tag_11\n      jumpi\n      dup1\n      0x9d81a8aa\n      eq\n      tag_12\n      jumpi\n      dup1\n      0xa43d6c1b\n      eq\n      tag_13\n      jumpi\n      jump(tag_2)\n    tag_18:\n      dup1\n      0x6cfbbb75\n      gt\n      tag_20\n      jumpi\n      dup1\n      0x6cfbbb75\n      eq\n      tag_6\n      jumpi\n      dup1\n      0x715018a6\n      eq\n      tag_7\n      jumpi\n      dup1\n      0x735de9f7\n      eq\n      tag_8\n      jumpi\n      dup1\n      0x8bdb2afa\n      eq\n      tag_9\n      jumpi\n      jump(tag_2)\n    tag_20:\n      dup1\n      0x10d67098\n      eq\n      tag_3\n      jumpi\n      dup1\n      0x3b78439a\n      eq\n      tag_4\n      jumpi\n      dup1\n      0x58f11763\n      eq\n      tag_5\n      jumpi\n      jump(tag_2)\n    tag_1:\n      jumpi(tag_2, calldatasize)\n      stop\n    tag_2:\n      revert(0x00, 0x00)\n        /* \"quantum/UBI4ALLLiquidator.sol\":459:485  IERC20 public ubi4allToken */\n    tag_3:\n      callvalue\n      dup1\n      iszero\n      tag_23\n      jumpi\n      revert(0x00, 0x00)\n    tag_23:\n      pop\n      tag_24\n      tag_25\n      jump\t// in\n    tag_24:\n      mload(0x40)\n      tag_26\n      swap2\n      swap1\n      tag_27\n      jump\t// in\n    tag_26:\n      mload(0x40)\n      dup1\n      swap2\n      sub\n      swap1\n      return\n        /* \"quantum/UBI4ALLLiquidator.sol\":5444:6114  function swapQ4AtoUB4(uint256 amountIn, uint256 amountOutMin) external onlyOwner {... */\n    tag_4:\n      callvalue\n      dup1\n      iszero\n      tag_28\n      jumpi\n      revert(0x00, 0x00)\n    tag_28:\n      pop\n      tag_29\n      0x04\n      dup1\n      calldatasize\n      sub\n      dup2\n      add\n      swap1\n      tag_30\n      swap2\n      swap1\n      tag_31\n      jump\t// in\n    tag_30:\n      tag_32\n      jump\t// in\n    tag_29:\n      stop\n        /* \"quantum/UBI4ALLLiquidator.sol\":2634:3384  function addLiquidityQ4A(... */\n    tag_5:\n      callvalue\n      dup1\n      iszero\n      tag_33\n      jumpi\n      revert(0x00, 0x00)\n    tag_33:\n      pop\n      tag_34\n      0x04\n      dup1\n      calldatasize\n      sub\n      dup2\n      add\n      swap1\n      tag_35\n      swap2\n      swap1\n      tag_36\n      jump\t// in\n    tag_35:\n      tag_37\n      jump\t// in\n    tag_34:\n      stop\n        /* \"quantum/UBI4ALLLiquidator.sol\":3390:4411  function removeLiquidityUB4(... */\n    tag_6:\n      callvalue\n      dup1\n      iszero\n      tag_38\n      jumpi\n      revert(0x00, 0x00)\n    tag_38:\n      pop\n      tag_39\n      0x04\n      dup1\n      calldatasize\n      sub\n      dup2\n      add\n      swap1\n      tag_40\n      swap2\n      swap1\n      tag_36\n      jump\t// in\n    tag_40:\n      tag_41\n      jump\t// in\n    tag_39:\n      stop\n        /* \"@openzeppelin/contracts/access/Ownable.sol\":2293:2394  function renounceOwnership() public virtual onlyOwner {... */\n    tag_7:\n      callvalue\n      dup1\n      iszero\n      tag_42\n      jumpi\n      revert(0x00, 0x00)\n    tag_42:\n      pop\n      tag_43\n      tag_44\n      jump\t// in\n    tag_43:\n      stop\n        /* \"quantum/UBI4ALLLiquidator.sol\":523:562  IUniswapV2Router02 public uniswapRouter */\n    tag_8:\n      callvalue\n      dup1\n      iszero\n      tag_45\n      jumpi\n      revert(0x00, 0x00)\n    tag_45:\n      pop\n      tag_46\n      tag_47\n      jump\t// in\n    tag_46:\n      mload(0x40)\n      tag_48\n      swap2\n      swap1\n      tag_49\n      jump\t// in\n    tag_48:\n      mload(0x40)\n      dup1\n      swap2\n      sub\n      swap1\n      return\n        /* \"quantum/UBI4ALLLiquidator.sol\":568:607  IUniswapV2Factory public uniswapFactory */\n    tag_9:\n      callvalue\n      dup1\n      iszero\n      tag_50\n      jumpi\n      revert(0x00, 0x00)\n    tag_50:\n      pop\n      tag_51\n      tag_52\n      jump\t// in\n    tag_51:\n      mload(0x40)\n      tag_53\n      swap2\n      swap1\n      tag_54\n      jump\t// in\n    tag_53:\n      mload(0x40)\n      dup1\n      swap2\n      sub\n      swap1\n      return\n        /* \"@openzeppelin/contracts/access/Ownable.sol\":1638:1723  function owner() public view virtual returns (address) {... */\n    tag_10:\n      callvalue\n      dup1\n      iszero\n      tag_55\n      jumpi\n      revert(0x00, 0x00)\n    tag_55:\n      pop\n      tag_56\n      tag_57\n      jump\t// in\n    tag_56:\n      mload(0x40)\n      tag_58\n      swap2\n      swap1\n      tag_59\n      jump\t// in\n    tag_58:\n      mload(0x40)\n      dup1\n      swap2\n      sub\n      swap1\n      return\n        /* \"quantum/UBI4ALLLiquidator.sol\":491:517  IERC20 public quantumToken */\n    tag_11:\n      callvalue\n      dup1\n      iszero\n      tag_60\n      jumpi\n      revert(0x00, 0x00)\n    tag_60:\n      pop\n      tag_61\n      tag_62\n      jump\t// in\n    tag_61:\n      mload(0x40)\n      tag_63\n      swap2\n      swap1\n      tag_27\n      jump\t// in\n    tag_63:\n      mload(0x40)\n      dup1\n      swap2\n      sub\n      swap1\n      return\n        /* \"quantum/UBI4ALLLiquidator.sol\":4417:5438  function removeLiquidityQ4A(... */\n    tag_12:\n      callvalue\n      dup1\n      iszero\n      tag_64\n      jumpi\n      revert(0x00, 0x00)\n    tag_64:\n      pop\n      tag_65\n      0x04\n      dup1\n      calldatasize\n      sub\n      dup2\n      add\n      swap1\n      tag_66\n      swap2\n      swap1\n      tag_36\n      jump\t// in\n    tag_66:\n      tag_67\n      jump\t// in\n    tag_65:\n      stop\n        /* \"quantum/UBI4ALLLiquidator.sol\":6120:6790  function swapUB4toQ4A(uint256 amountIn, uint256 amountOutMin) external onlyOwner {... */\n    tag_13:\n      callvalue\n      dup1\n      iszero\n      tag_68\n      jumpi\n      revert(0x00, 0x00)\n    tag_68:\n      pop\n      tag_69\n      0x04\n      dup1\n      calldatasize\n      sub\n      dup2\n      add\n      swap1\n      tag_70\n      swap2\n      swap1\n      tag_31\n      jump\t// in\n    tag_70:\n      tag_71\n      jump\t// in\n    tag_69:\n      stop\n        /* \"quantum/UBI4ALLLiquidator.sol\":613:643  address public liquidityWallet */\n    tag_14:\n      callvalue\n      dup1\n      iszero\n      tag_72\n      jumpi\n      revert(0x00, 0x00)\n    tag_72:\n      pop\n      tag_73\n      tag_74\n      jump\t// in\n    tag_73:\n      mload(0x40)\n      tag_75\n      swap2\n      swap1\n      tag_59\n      jump\t// in\n    tag_75:\n      mload(0x40)\n      dup1\n      swap2\n      sub\n      swap1\n      return\n        /* \"quantum/UBI4ALLLiquidator.sol\":6796:6941  function transferOwnership(address newOwner) public override(Ownable, IUBI4ALLLiquidator) onlyOwner {... */\n    tag_15:\n      callvalue\n      dup1\n      iszero\n      tag_76\n      jumpi\n      revert(0x00, 0x00)\n    tag_76:\n      pop\n      tag_77\n      0x04\n      dup1\n      calldatasize\n      sub\n      dup2\n      add\n      swap1\n      tag_78\n      swap2\n      swap1\n      tag_79\n      jump\t// in\n    tag_78:\n      tag_80\n      jump\t// in\n    tag_77:\n      stop\n        /* \"quantum/UBI4ALLLiquidator.sol\":1878:2628  function addLiquidityUB4(... */\n    tag_16:\n      callvalue\n      dup1\n      iszero\n      tag_81\n      jumpi\n      revert(0x00, 0x00)\n    tag_81:\n      pop\n      tag_82\n      0x04\n      dup1\n      calldatasize\n      sub\n      dup2\n      add\n      swap1\n      tag_83\n      swap2\n      swap1\n      tag_36\n      jump\t// in\n    tag_83:\n      tag_84\n      jump\t// in\n    tag_82:\n      stop\n        /* \"quantum/UBI4ALLLiquidator.sol\":650:705  uint256 public constant DEADLINE_EXTENSION = 20 minutes */\n    tag_17:\n      callvalue\n      dup1\n      iszero\n      tag_85\n      jumpi\n      revert(0x00, 0x00)\n    tag_85:\n      pop\n      tag_86\n      tag_87\n      jump\t// in\n    tag_86:\n      mload(0x40)\n      tag_88\n      swap2\n      swap1\n      tag_89\n      jump\t// in\n    tag_88:\n      mload(0x40)\n      dup1\n      swap2\n      sub\n      swap1\n      return\n        /* \"quantum/UBI4ALLLiquidator.sol\":459:485  IERC20 public ubi4allToken */\n    tag_25:\n      0x01\n      0x00\n      swap1\n      sload\n      swap1\n      0x0100\n      exp\n      swap1\n      div\n      0xffffffffffffffffffffffffffffffffffffffff\n      and\n      dup2\n      jump\t// out\n        /* \"quantum/UBI4ALLLiquidator.sol\":5444:6114  function swapQ4AtoUB4(uint256 amountIn, uint256 amountOutMin) external onlyOwner {... */\n    tag_32:\n        /* \"@openzeppelin/contracts/access/Ownable.sol\":1531:1544  _checkOwner() */\n      tag_91\n        /* \"@openzeppelin/contracts/access/Ownable.sol\":1531:1542  _checkOwner */\n      tag_92\n        /* \"@openzeppelin/contracts/access/Ownable.sol\":1531:1544  _checkOwner() */\n      jump\t// in\n    tag_91:\n        /* \"quantum/UBI4ALLLiquidator.sol\":5535:5547  quantumToken */\n      0x02\n      0x00\n      swap1\n      sload\n      swap1\n      0x0100\n      exp\n      swap1\n      div\n      0xffffffffffffffffffffffffffffffffffffffff\n      and\n        /* \"quantum/UBI4ALLLiquidator.sol\":5535:5560  quantumToken.transferFrom */\n      0xffffffffffffffffffffffffffffffffffffffff\n      and\n      0x23b872dd\n        /* \"quantum/UBI4ALLLiquidator.sol\":5561:5571  msg.sender */\n      caller\n        /* \"quantum/UBI4ALLLiquidator.sol\":5581:5585  this */\n      address\n        /* \"quantum/UBI4ALLLiquidator.sol\":5588:5596  amountIn */\n      dup6\n        /* \"quantum/UBI4ALLLiquidator.sol\":5535:5597  quantumToken.transferFrom(msg.sender, address(this), amountIn) */\n      mload(0x40)\n      dup5\n      0xffffffff\n      and\n      0xe0\n      shl\n      dup2\n      mstore\n      0x04\n      add\n      tag_94\n      swap4\n      swap3\n      swap2\n      swap1\n      tag_95\n      jump\t// in\n    tag_94:\n      0x20\n      mload(0x40)\n      dup1\n      dup4\n      sub\n      dup2\n      0x00\n      dup8\n      gas\n      call\n      iszero\n      dup1\n      iszero\n      tag_97\n      jumpi\n      returndatacopy(0x00, 0x00, returndatasize)\n      revert(0x00, returndatasize)\n    tag_97:\n      pop\n      pop\n      pop\n      pop\n      mload(0x40)\n      returndatasize\n      not(0x1f)\n      0x1f\n      dup3\n      add\n      and\n      dup3\n      add\n      dup1\n      0x40\n      mstore\n      pop\n      dup2\n      add\n      swap1\n      tag_98\n      swap2\n      swap1\n      tag_99\n      jump\t// in\n    tag_98:\n      pop\n        /* \"quantum/UBI4ALLLiquidator.sol\":5607:5619  quantumToken */\n      0x02\n      0x00\n      swap1\n      sload\n      swap1\n      0x0100\n      exp\n      swap1\n      div\n      0xffffffffffffffffffffffffffffffffffffffff\n      and\n        /* \"quantum/UBI4ALLLiquidator.sol\":5607:5627  quantumToken.approve */\n      0xffffffffffffffffffffffffffffffffffffffff\n      and\n      0x095ea7b3\n        /* \"quantum/UBI4ALLLiquidator.sol\":5636:5649  uniswapRouter */\n      0x03\n      0x00\n      swap1\n      sload\n      swap1\n      0x0100\n      exp\n      swap1\n      div\n      0xffffffffffffffffffffffffffffffffffffffff\n      and\n        /* \"quantum/UBI4ALLLiquidator.sol\":5652:5660  amountIn */\n      dup5\n        /* \"quantum/UBI4ALLLiquidator.sol\":5607:5661  quantumToken.approve(address(uniswapRouter), amountIn) */\n      mload(0x40)\n      dup4\n      0xffffffff\n      and\n      0xe0\n      shl\n      dup2\n      mstore\n      0x04\n      add\n      tag_100\n      swap3\n      swap2\n      swap1\n      tag_101\n      jump\t// in\n    tag_100:\n      0x20\n      mload(0x40)\n      dup1\n      dup4\n      sub\n      dup2\n      0x00\n      dup8\n      gas\n      call\n      iszero\n      dup1\n      iszero\n      tag_103\n      jumpi\n      returndatacopy(0x00, 0x00, returndatasize)\n      revert(0x00, returndatasize)\n    tag_103:\n      pop\n      pop\n      pop\n      pop\n      mload(0x40)\n      returndatasize\n      not(0x1f)\n      0x1f\n      dup3\n      add\n      and\n      dup3\n      add\n      dup1\n      0x40\n      mstore\n      pop\n      dup2\n      add\n      swap1\n      tag_104\n      swap2\n      swap1\n      tag_99\n      jump\t// in\n    tag_104:\n      pop\n        /* \"quantum/UBI4ALLLiquidator.sol\":5671:5692  address[] memory path */\n      0x00\n        /* \"quantum/UBI4ALLLiquidator.sol\":5709:5710  2 */\n      0x02\n        /* \"quantum/UBI4ALLLiquidator.sol\":5695:5711  new address[](2) */\n      0xffffffffffffffff\n      dup2\n      gt\n      iszero\n      tag_105\n      jumpi\n      tag_106\n      tag_107\n      jump\t// in\n    tag_106:\n    tag_105:\n      mload(0x40)\n      swap1\n      dup1\n      dup3\n      mstore\n      dup1\n      0x20\n      mul\n      0x20\n      add\n      dup3\n      add\n      0x40\n      mstore\n      dup1\n      iszero\n      tag_108\n      jumpi\n      dup2\n      0x20\n      add\n      0x20\n      dup3\n      mul\n      dup1\n      calldatasize\n      dup4\n      calldatacopy\n      dup1\n      dup3\n      add\n      swap2\n      pop\n      pop\n      swap1\n      pop\n    tag_108:\n      pop\n        /* \"quantum/UBI4ALLLiquidator.sol\":5671:5711  address[] memory path = new address[](2) */\n      swap1\n      pop\n        /* \"quantum/UBI4ALLLiquidator.sol\":5739:5751  quantumToken */\n      0x02\n      0x00\n      swap1\n      sload\n      swap1\n      0x0100\n      exp\n      swap1\n      div\n      0xffffffffffffffffffffffffffffffffffffffff\n      and\n        /* \"quantum/UBI4ALLLiquidator.sol\":5721:5725  path */\n      dup2\n        /* \"quantum/UBI4ALLLiquidator.sol\":5726:5727  0 */\n      0x00\n        /* \"quantum/UBI4ALLLiquidator.sol\":5721:5728  path[0] */\n      dup2\n      mload\n      dup2\n      lt\n      tag_109\n      jumpi\n      tag_110\n      tag_111\n      jump\t// in\n    tag_110:\n    tag_109:\n      0x20\n      mul\n      0x20\n      add\n      add\n        /* \"quantum/UBI4ALLLiquidator.sol\":5721:5752  path[0] = address(quantumToken) */\n      swap1\n      0xffffffffffffffffffffffffffffffffffffffff\n      and\n      swap1\n      dup2\n      0xffffffffffffffffffffffffffffffffffffffff\n      and\n      dup2\n      mstore\n      pop\n      pop\n        /* \"quantum/UBI4ALLLiquidator.sol\":5780:5792  ubi4allToken */\n      0x01\n      0x00\n      swap1\n      sload\n      swap1\n      0x0100\n      exp\n      swap1\n      div\n      0xffffffffffffffffffffffffffffffffffffffff\n      and\n        /* \"quantum/UBI4ALLLiquidator.sol\":5762:5766  path */\n      dup2\n        /* \"quantum/UBI4ALLLiquidator.sol\":5767:5768  1 */\n      0x01\n        /* \"quantum/UBI4ALLLiquidator.sol\":5762:5769  path[1] */\n      dup2\n      mload\n      dup2\n      lt\n      tag_112\n      jumpi\n      tag_113\n      tag_111\n      jump\t// in\n    tag_113:\n    tag_112:\n      0x20\n      mul\n      0x20\n      add\n      add\n        /* \"quantum/UBI4ALLLiquidator.sol\":5762:5793  path[1] = address(ubi4allToken) */\n      swap1\n      0xffffffffffffffffffffffffffffffffffffffff\n      and\n      swap1\n      dup2\n      0xffffffffffffffffffffffffffffffffffffffff\n      and\n      dup2\n      mstore\n      pop\n      pop\n        /* \"quantum/UBI4ALLLiquidator.sol\":5803:5816  uniswapRouter */\n      0x03\n      0x00\n      swap1\n      sload\n      swap1\n      0x0100\n      exp\n      swap1\n      div\n      0xffffffffffffffffffffffffffffffffffffffff\n      and\n        /* \"quantum/UBI4ALLLiquidator.sol\":5803:5870  uniswapRouter.swapExactTokensForTokensSupportingFeeOnTransferTokens */\n      0xffffffffffffffffffffffffffffffffffffffff\n      and\n      0x5c11d795\n        /* \"quantum/UBI4ALLLiquidator.sol\":5884:5892  amountIn */\n      dup5\n        /* \"quantum/UBI4ALLLiquidator.sol\":5906:5918  amountOutMin */\n      dup5\n        /* \"quantum/UBI4ALLLiquidator.sol\":5932:5936  path */\n      dup5\n        /* \"quantum/UBI4ALLLiquidator.sol\":5950:5965  liquidityWallet */\n      0x05\n      0x00\n      swap1\n      sload\n      swap1\n      0x0100\n      exp\n      swap1\n      div\n      0xffffffffffffffffffffffffffffffffffffffff\n      and\n        /* \"quantum/UBI4ALLLiquidator.sol\":695:705  20 minutes */\n      0x04b0\n        /* \"quantum/UBI4ALLLiquidator.sol\":5979:5994  block.timestamp */\n      timestamp\n        /* \"quantum/UBI4ALLLiquidator.sol\":5979:6015  block.timestamp + DEADLINE_EXTENSION */\n      tag_114\n      swap2\n      swap1\n      tag_115\n      jump\t// in\n    tag_114:\n        /* \"quantum/UBI4ALLLiquidator.sol\":5803:6025  uniswapRouter.swapExactTokensForTokensSupportingFeeOnTransferTokens(... */\n      mload(0x40)\n      dup7\n      0xffffffff\n      and\n      0xe0\n      shl\n      dup2\n      mstore\n      0x04\n      add\n      tag_116\n      swap6\n      swap5\n      swap4\n      swap3\n      swap2\n      swap1\n      tag_117\n      jump\t// in\n    tag_116:\n      0x00\n      mload(0x40)\n      dup1\n      dup4\n      sub\n      dup2\n      0x00\n      dup8\n      dup1\n      extcodesize\n      iszero\n      dup1\n      iszero\n      tag_118\n      jumpi\n      revert(0x00, 0x00)\n    tag_118:\n      pop\n      gas\n      call\n      iszero\n      dup1\n      iszero\n      tag_120\n      jumpi\n      returndatacopy(0x00, 0x00, returndatasize)\n      revert(0x00, returndatasize)\n    tag_120:\n      pop\n      pop\n      pop\n      pop\n        /* \"quantum/UBI4ALLLiquidator.sol\":6083:6095  ubi4allToken */\n      0x01\n      0x00\n      swap1\n      sload\n      swap1\n      0x0100\n      exp\n      swap1\n      div\n      0xffffffffffffffffffffffffffffffffffffffff\n      and\n        /* \"quantum/UBI4ALLLiquidator.sol\":6040:6107  QuantumSwap(address(quantumToken), address(ubi4allToken), amountIn) */\n      0xffffffffffffffffffffffffffffffffffffffff\n      and\n        /* \"quantum/UBI4ALLLiquidator.sol\":6060:6072  quantumToken */\n      0x02\n      0x00\n      swap1\n      sload\n      swap1\n      0x0100\n      exp\n      swap1\n      div\n      0xffffffffffffffffffffffffffffffffffffffff\n      and\n        /* \"quantum/UBI4ALLLiquidator.sol\":6040:6107  QuantumSwap(address(quantumToken), address(ubi4allToken), amountIn) */\n      0xffffffffffffffffffffffffffffffffffffffff\n      and\n      0xf7ca15d85d6a1558514fff5c2f5a3f009726b7f5dfc61a3f80b7107941beaf1a\n        /* \"quantum/UBI4ALLLiquidator.sol\":6098:6106  amountIn */\n      dup6\n        /* \"quantum/UBI4ALLLiquidator.sol\":6040:6107  QuantumSwap(address(quantumToken), address(ubi4allToken), amountIn) */\n      mload(0x40)\n      tag_121\n      swap2\n      swap1\n      tag_89\n      jump\t// in\n    tag_121:\n      mload(0x40)\n      dup1\n      swap2\n      sub\n      swap1\n      log3\n        /* \"quantum/UBI4ALLLiquidator.sol\":5525:6114  {... */\n      pop\n        /* \"quantum/UBI4ALLLiquidator.sol\":5444:6114  function swapQ4AtoUB4(uint256 amountIn, uint256 amountOutMin) external onlyOwner {... */\n      pop\n      pop\n      jump\t// out\n        /* \"quantum/UBI4ALLLiquidator.sol\":2634:3384  function addLiquidityQ4A(... */\n    tag_37:\n        /* \"@openzeppelin/contracts/access/Ownable.sol\":1531:1544  _checkOwner() */\n      tag_123\n        /* \"@openzeppelin/contracts/access/Ownable.sol\":1531:1542  _checkOwner */\n      tag_92\n        /* \"@openzeppelin/contracts/access/Ownable.sol\":1531:1544  _checkOwner() */\n      jump\t// in\n    tag_123:\n        /* \"quantum/UBI4ALLLiquidator.sol\":2792:2806  uint256 amount */\n      0x00\n        /* \"quantum/UBI4ALLLiquidator.sol\":2809:2827  amountTokenDesired */\n      dup4\n        /* \"quantum/UBI4ALLLiquidator.sol\":2792:2827  uint256 amount = amountTokenDesired */\n      swap1\n      pop\n        /* \"quantum/UBI4ALLLiquidator.sol\":2837:2849  quantumToken */\n      0x02\n      0x00\n      swap1\n      sload\n      swap1\n      0x0100\n      exp\n      swap1\n      div\n      0xffffffffffffffffffffffffffffffffffffffff\n      and\n        /* \"quantum/UBI4ALLLiquidator.sol\":2837:2862  quantumToken.transferFrom */\n      0xffffffffffffffffffffffffffffffffffffffff\n      and\n      0x23b872dd\n        /* \"quantum/UBI4ALLLiquidator.sol\":2863:2873  msg.sender */\n      caller\n        /* \"quantum/UBI4ALLLiquidator.sol\":2883:2887  this */\n      address\n        /* \"quantum/UBI4ALLLiquidator.sol\":2890:2896  amount */\n      dup5\n        /* \"quantum/UBI4ALLLiquidator.sol\":2837:2897  quantumToken.transferFrom(msg.sender, address(this), amount) */\n      mload(0x40)\n      dup5\n      0xffffffff\n      and\n      0xe0\n      shl\n      dup2\n      mstore\n      0x04\n      add\n      tag_125\n      swap4\n      swap3\n      swap2\n      swap1\n      tag_95\n      jump\t// in\n    tag_125:\n      0x20\n      mload(0x40)\n      dup1\n      dup4\n      sub\n      dup2\n      0x00\n      dup8\n      gas\n      call\n      iszero\n      dup1\n      iszero\n      tag_127\n      jumpi\n      returndatacopy(0x00, 0x00, returndatasize)\n      revert(0x00, returndatasize)\n    tag_127:\n      pop\n      pop\n      pop\n      pop\n      mload(0x40)\n      returndatasize\n      not(0x1f)\n      0x1f\n      dup3\n      add\n      and\n      dup3\n      add\n      dup1\n      0x40\n      mstore\n      pop\n      dup2\n      add\n      swap1\n      tag_128\n      swap2\n      swap1\n      tag_99\n      jump\t// in\n    tag_128:\n      pop\n        /* \"quantum/UBI4ALLLiquidator.sol\":2907:2919  quantumToken */\n      0x02\n      0x00\n      swap1\n      sload\n      swap1\n      0x0100\n      exp\n      swap1\n      div\n      0xffffffffffffffffffffffffffffffffffffffff\n      and\n        /* \"quantum/UBI4ALLLiquidator.sol\":2907:2927  quantumToken.approve */\n      0xffffffffffffffffffffffffffffffffffffffff\n      and\n      0x095ea7b3\n        /* \"quantum/UBI4ALLLiquidator.sol\":2936:2949  uniswapRouter */\n      0x03\n      0x00\n      swap1\n      sload\n      swap1\n      0x0100\n      exp\n      swap1\n      div\n      0xffffffffffffffffffffffffffffffffffffffff\n      and\n        /* \"quantum/UBI4ALLLiquidator.sol\":2952:2958  amount */\n      dup4\n        /* \"quantum/UBI4ALLLiquidator.sol\":2907:2959  quantumToken.approve(address(uniswapRouter), amount) */\n      mload(0x40)\n      dup4\n      0xffffffff\n      and\n      0xe0\n      shl\n      dup2\n      mstore\n      0x04\n      add\n      tag_129\n      swap3\n      swap2\n      swap1\n      tag_101\n      jump\t// in\n    tag_129:\n      0x20\n      mload(0x40)\n      dup1\n      dup4\n      sub\n      dup2\n      0x00\n      dup8\n      gas\n      call\n      iszero\n      dup1\n      iszero\n      tag_131\n      jumpi\n      returndatacopy(0x00, 0x00, returndatasize)\n      revert(0x00, returndatasize)\n    tag_131:\n      pop\n      pop\n      pop\n      pop\n      mload(0x40)\n      returndatasize\n      not(0x1f)\n      0x1f\n      dup3\n      add\n      and\n      dup3\n      add\n      dup1\n      0x40\n      mstore\n      pop\n      dup2\n      add\n      swap1\n      tag_132\n      swap2\n      swap1\n      tag_99\n      jump\t// in\n    tag_132:\n      pop\n        /* \"quantum/UBI4ALLLiquidator.sol\":2971:2990  uint256 amountToken */\n      0x00\n        /* \"quantum/UBI4ALLLiquidator.sol\":2992:3009  uint256 amountETH */\n      0x00\n        /* \"quantum/UBI4ALLLiquidator.sol\":3011:3028  uint256 liquidity */\n      0x00\n        /* \"quantum/UBI4ALLLiquidator.sol\":3032:3045  uniswapRouter */\n      0x03\n      0x00\n      swap1\n      sload\n      swap1\n      0x0100\n      exp\n      swap1\n      div\n      0xffffffffffffffffffffffffffffffffffffffff\n      and\n        /* \"quantum/UBI4ALLLiquidator.sol\":3032:3061  uniswapRouter.addLiquidityETH */\n      0xffffffffffffffffffffffffffffffffffffffff\n      and\n      0xf305d719\n        /* \"quantum/UBI4ALLLiquidator.sol\":3069:3090  address(this).balance */\n      selfbalance\n        /* \"quantum/UBI4ALLLiquidator.sol\":3113:3125  quantumToken */\n      0x02\n      0x00\n      swap1\n      sload\n      swap1\n      0x0100\n      exp\n      swap1\n      div\n      0xffffffffffffffffffffffffffffffffffffffff\n      and\n        /* \"quantum/UBI4ALLLiquidator.sol\":3140:3146  amount */\n      dup8\n        /* \"quantum/UBI4ALLLiquidator.sol\":3160:3174  amountTokenMin */\n      dup11\n        /* \"quantum/UBI4ALLLiquidator.sol\":3188:3200  amountETHMin */\n      dup11\n        /* \"quantum/UBI4ALLLiquidator.sol\":3214:3229  liquidityWallet */\n      0x05\n      0x00\n      swap1\n      sload\n      swap1\n      0x0100\n      exp\n      swap1\n      div\n      0xffffffffffffffffffffffffffffffffffffffff\n      and\n        /* \"quantum/UBI4ALLLiquidator.sol\":695:705  20 minutes */\n      0x04b0\n        /* \"quantum/UBI4ALLLiquidator.sol\":3243:3258  block.timestamp */\n      timestamp\n        /* \"quantum/UBI4ALLLiquidator.sol\":3243:3279  block.timestamp + DEADLINE_EXTENSION */\n      tag_133\n      swap2\n      swap1\n      tag_115\n      jump\t// in\n    tag_133:\n        /* \"quantum/UBI4ALLLiquidator.sol\":3032:3289  uniswapRouter.addLiquidityETH{value: address(this).balance}(... */\n      mload(0x40)\n      dup9\n      0xffffffff\n      and\n      0xe0\n      shl\n      dup2\n      mstore\n      0x04\n      add\n      tag_134\n      swap7\n      swap6\n      swap5\n      swap4\n      swap3\n      swap2\n      swap1\n      tag_135\n      jump\t// in\n    tag_134:\n      0x60\n      mload(0x40)\n      dup1\n      dup4\n      sub\n      dup2\n      dup6\n      dup9\n      gas\n      call\n      iszero\n      dup1\n      iszero\n      tag_137\n      jumpi\n      returndatacopy(0x00, 0x00, returndatasize)\n      revert(0x00, returndatasize)\n    tag_137:\n      pop\n      pop\n      pop\n      pop\n      pop\n      mload(0x40)\n      returndatasize\n      not(0x1f)\n      0x1f\n      dup3\n      add\n      and\n      dup3\n      add\n      dup1\n      0x40\n      mstore\n      pop\n      dup2\n      add\n      swap1\n      tag_138\n      swap2\n      swap1\n      tag_139\n      jump\t// in\n    tag_138:\n        /* \"quantum/UBI4ALLLiquidator.sol\":2970:3289  (uint256 amountToken, uint256 amountETH, uint256 liquidity) = uniswapRouter.addLiquidityETH{value: address(this).balance}(... */\n      swap3\n      pop\n      swap3\n      pop\n      swap3\n      pop\n        /* \"quantum/UBI4ALLLiquidator.sol\":3328:3340  quantumToken */\n      0x02\n      0x00\n      swap1\n      sload\n      swap1\n      0x0100\n      exp\n      swap1\n      div\n      0xffffffffffffffffffffffffffffffffffffffff\n      and\n        /* \"quantum/UBI4ALLLiquidator.sol\":3305:3377  LiquidityAdded(address(quantumToken), amountToken, amountETH, liquidity) */\n      0xffffffffffffffffffffffffffffffffffffffff\n      and\n      0x64b83944e79c3ce8d4c297411de637c3e102d064677aac0c163976ebdcd6f50e\n        /* \"quantum/UBI4ALLLiquidator.sol\":3343:3354  amountToken */\n      dup5\n        /* \"quantum/UBI4ALLLiquidator.sol\":3356:3365  amountETH */\n      dup5\n        /* \"quantum/UBI4ALLLiquidator.sol\":3367:3376  liquidity */\n      dup5\n        /* \"quantum/UBI4ALLLiquidator.sol\":3305:3377  LiquidityAdded(address(quantumToken), amountToken, amountETH, liquidity) */\n      mload(0x40)\n      tag_140\n      swap4\n      swap3\n      swap2\n      swap1\n      tag_141\n      jump\t// in\n    tag_140:\n      mload(0x40)\n      dup1\n      swap2\n      sub\n      swap1\n      log2\n        /* \"quantum/UBI4ALLLiquidator.sol\":2782:3384  {... */\n      pop\n      pop\n      pop\n      pop\n        /* \"quantum/UBI4ALLLiquidator.sol\":2634:3384  function addLiquidityQ4A(... */\n      pop\n      pop\n      pop\n      jump\t// out\n        /* \"quantum/UBI4ALLLiquidator.sol\":3390:4411  function removeLiquidityUB4(... */\n    tag_41:\n        /* \"@openzeppelin/contracts/access/Ownable.sol\":1531:1544  _checkOwner() */\n      tag_143\n        /* \"@openzeppelin/contracts/access/Ownable.sol\":1531:1542  _checkOwner */\n      tag_92\n        /* \"@openzeppelin/contracts/access/Ownable.sol\":1531:1544  _checkOwner() */\n      jump\t// in\n    tag_143:\n        /* \"quantum/UBI4ALLLiquidator.sol\":3542:3554  address pair */\n      0x00\n        /* \"quantum/UBI4ALLLiquidator.sol\":3557:3571  uniswapFactory */\n      0x04\n      0x00\n      swap1\n      sload\n      swap1\n      0x0100\n      exp\n      swap1\n      div\n      0xffffffffffffffffffffffffffffffffffffffff\n      and\n        /* \"quantum/UBI4ALLLiquidator.sol\":3557:3579  uniswapFactory.getPair */\n      0xffffffffffffffffffffffffffffffffffffffff\n      and\n      0xe6a43905\n        /* \"quantum/UBI4ALLLiquidator.sol\":3588:3600  ubi4allToken */\n      0x01\n      0x00\n      swap1\n      sload\n      swap1\n      0x0100\n      exp\n      swap1\n      div\n      0xffffffffffffffffffffffffffffffffffffffff\n      and\n        /* \"quantum/UBI4ALLLiquidator.sol\":3603:3616  uniswapRouter */\n      0x03\n      0x00\n      swap1\n      sload\n      swap1\n      0x0100\n      exp\n      swap1\n      div\n      0xffffffffffffffffffffffffffffffffffffffff\n      and\n        /* \"quantum/UBI4ALLLiquidator.sol\":3603:3621  uniswapRouter.WETH */\n      0xffffffffffffffffffffffffffffffffffffffff\n      and\n      0xad5c4648\n        /* \"quantum/UBI4ALLLiquidator.sol\":3603:3623  uniswapRouter.WETH() */\n      mload(0x40)\n      dup2\n      0xffffffff\n      and\n      0xe0\n      shl\n      dup2\n      mstore\n      0x04\n      add\n      0x20\n      mload(0x40)\n      dup1\n      dup4\n      sub\n      dup2\n      dup7\n      gas\n      staticcall\n      iszero\n      dup1\n      iszero\n      tag_146\n      jumpi\n      returndatacopy(0x00, 0x00, returndatasize)\n      revert(0x00, returndatasize)\n    tag_146:\n      pop\n      pop\n      pop\n      pop\n      mload(0x40)\n      returndatasize\n      not(0x1f)\n      0x1f\n      dup3\n      add\n      and\n      dup3\n      add\n      dup1\n      0x40\n      mstore\n      pop\n      dup2\n      add\n      swap1\n      tag_147\n      swap2\n      swap1\n      tag_148\n      jump\t// in\n    tag_147:\n        /* \"quantum/UBI4ALLLiquidator.sol\":3557:3624  uniswapFactory.getPair(address(ubi4allToken), uniswapRouter.WETH()) */\n      mload(0x40)\n      dup4\n      0xffffffff\n      and\n      0xe0\n      shl\n      dup2\n      mstore\n      0x04\n      add\n      tag_149\n      swap3\n      swap2\n      swap1\n      tag_150\n      jump\t// in\n    tag_149:\n      0x20\n      mload(0x40)\n      dup1\n      dup4\n      sub\n      dup2\n      dup7\n      gas\n      staticcall\n      iszero\n      dup1\n      iszero\n      tag_152\n      jumpi\n      returndatacopy(0x00, 0x00, returndatasize)\n      revert(0x00, returndatasize)\n    tag_152:\n      pop\n      pop\n      pop\n      pop\n      mload(0x40)\n      returndatasize\n      not(0x1f)\n      0x1f\n      dup3\n      add\n      and\n      dup3\n      add\n      dup1\n      0x40\n      mstore\n      pop\n      dup2\n      add\n      swap1\n      tag_153\n      swap2\n      swap1\n      tag_148\n      jump\t// in\n    tag_153:\n        /* \"quantum/UBI4ALLLiquidator.sol\":3542:3624  address pair = uniswapFactory.getPair(address(ubi4allToken), uniswapRouter.WETH()) */\n      swap1\n      pop\n        /* \"quantum/UBI4ALLLiquidator.sol\":3641:3645  pair */\n      dup1\n        /* \"quantum/UBI4ALLLiquidator.sol\":3634:3654  IERC20(pair).approve */\n      0xffffffffffffffffffffffffffffffffffffffff\n      and\n      0x095ea7b3\n        /* \"quantum/UBI4ALLLiquidator.sol\":3663:3676  uniswapRouter */\n      0x03\n      0x00\n      swap1\n      sload\n      swap1\n      0x0100\n      exp\n      swap1\n      div\n      0xffffffffffffffffffffffffffffffffffffffff\n      and\n        /* \"quantum/UBI4ALLLiquidator.sol\":3679:3688  liquidity */\n      dup7\n        /* \"quantum/UBI4ALLLiquidator.sol\":3634:3689  IERC20(pair).approve(address(uniswapRouter), liquidity) */\n      mload(0x40)\n      dup4\n      0xffffffff\n      and\n      0xe0\n      shl\n      dup2\n      mstore\n      0x04\n      add\n      tag_154\n      swap3\n      swap2\n      swap1\n      tag_101\n      jump\t// in\n    tag_154:\n      0x20\n      mload(0x40)\n      dup1\n      dup4\n      sub\n      dup2\n      0x00\n      dup8\n      gas\n      call\n      iszero\n      dup1\n      iszero\n      tag_156\n      jumpi\n      returndatacopy(0x00, 0x00, returndatasize)\n      revert(0x00, returndatasize)\n    tag_156:\n      pop\n      pop\n      pop\n      pop\n      mload(0x40)\n      returndatasize\n      not(0x1f)\n      0x1f\n      dup3\n      add\n      and\n      dup3\n      add\n      dup1\n      0x40\n      mstore\n      pop\n      dup2\n      add\n      swap1\n      tag_157\n      swap2\n      swap1\n      tag_99\n      jump\t// in\n    tag_157:\n      pop\n        /* \"quantum/UBI4ALLLiquidator.sol\":3760:3786  uint256 tokenBalanceBefore */\n      0x00\n        /* \"quantum/UBI4ALLLiquidator.sol\":3789:3801  ubi4allToken */\n      0x01\n      0x00\n      swap1\n      sload\n      swap1\n      0x0100\n      exp\n      swap1\n      div\n      0xffffffffffffffffffffffffffffffffffffffff\n      and\n        /* \"quantum/UBI4ALLLiquidator.sol\":3789:3811  ubi4allToken.balanceOf */\n      0xffffffffffffffffffffffffffffffffffffffff\n      and\n      0x70a08231\n        /* \"quantum/UBI4ALLLiquidator.sol\":3812:3827  liquidityWallet */\n      0x05\n      0x00\n      swap1\n      sload\n      swap1\n      0x0100\n      exp\n      swap1\n      div\n      0xffffffffffffffffffffffffffffffffffffffff\n      and\n        /* \"quantum/UBI4ALLLiquidator.sol\":3789:3828  ubi4allToken.balanceOf(liquidityWallet) */\n      mload(0x40)\n      dup3\n      0xffffffff\n      and\n      0xe0\n      shl\n      dup2\n      mstore\n      0x04\n      add\n      tag_158\n      swap2\n      swap1\n      tag_59\n      jump\t// in\n    tag_158:\n      0x20\n      mload(0x40)\n      dup1\n      dup4\n      sub\n      dup2\n      dup7\n      gas\n      staticcall\n      iszero\n      dup1\n      iszero\n      tag_160\n      jumpi\n      returndatacopy(0x00, 0x00, returndatasize)\n      revert(0x00, returndatasize)\n    tag_160:\n      pop\n      pop\n      pop\n      pop\n      mload(0x40)\n      returndatasize\n      not(0x1f)\n      0x1f\n      dup3\n      add\n      and\n      dup3\n      add\n      dup1\n      0x40\n      mstore\n      pop\n      dup2\n      add\n      swap1\n      tag_161\n      swap2\n      swap1\n      tag_162\n      jump\t// in\n    tag_161:\n        /* \"quantum/UBI4ALLLiquidator.sol\":3760:3828  uint256 tokenBalanceBefore = ubi4allToken.balanceOf(liquidityWallet) */\n      swap1\n      pop\n        /* \"quantum/UBI4ALLLiquidator.sol\":3839:3856  uint256 amountETH */\n      0x00\n        /* \"quantum/UBI4ALLLiquidator.sol\":3859:3872  uniswapRouter */\n      0x03\n      0x00\n      swap1\n      sload\n      swap1\n      0x0100\n      exp\n      swap1\n      div\n      0xffffffffffffffffffffffffffffffffffffffff\n      and\n        /* \"quantum/UBI4ALLLiquidator.sol\":3859:3920  uniswapRouter.removeLiquidityETHSupportingFeeOnTransferTokens */\n      0xffffffffffffffffffffffffffffffffffffffff\n      and\n      0xaf2979eb\n        /* \"quantum/UBI4ALLLiquidator.sol\":3942:3954  ubi4allToken */\n      0x01\n      0x00\n      swap1\n      sload\n      swap1\n      0x0100\n      exp\n      swap1\n      div\n      0xffffffffffffffffffffffffffffffffffffffff\n      and\n        /* \"quantum/UBI4ALLLiquidator.sol\":3969:3978  liquidity */\n      dup9\n        /* \"quantum/UBI4ALLLiquidator.sol\":3992:4006  amountTokenMin */\n      dup9\n        /* \"quantum/UBI4ALLLiquidator.sol\":4020:4032  amountETHMin */\n      dup9\n        /* \"quantum/UBI4ALLLiquidator.sol\":4046:4061  liquidityWallet */\n      0x05\n      0x00\n      swap1\n      sload\n      swap1\n      0x0100\n      exp\n      swap1\n      div\n      0xffffffffffffffffffffffffffffffffffffffff\n      and\n        /* \"quantum/UBI4ALLLiquidator.sol\":695:705  20 minutes */\n      0x04b0\n        /* \"quantum/UBI4ALLLiquidator.sol\":4075:4090  block.timestamp */\n      timestamp\n        /* \"quantum/UBI4ALLLiquidator.sol\":4075:4111  block.timestamp + DEADLINE_EXTENSION */\n      tag_163\n      swap2\n      swap1\n      tag_115\n      jump\t// in\n    tag_163:\n        /* \"quantum/UBI4ALLLiquidator.sol\":3859:4121  uniswapRouter.removeLiquidityETHSupportingFeeOnTransferTokens(... */\n      mload(0x40)\n      dup8\n      0xffffffff\n      and\n      0xe0\n      shl\n      dup2\n      mstore\n      0x04\n      add\n      tag_164\n      swap7\n      swap6\n      swap5\n      swap4\n      swap3\n      swap2\n      swap1\n      tag_135\n      jump\t// in\n    tag_164:\n      0x20\n      mload(0x40)\n      dup1\n      dup4\n      sub\n      dup2\n      0x00\n      dup8\n      gas\n      call\n      iszero\n      dup1\n      iszero\n      tag_166\n      jumpi\n      returndatacopy(0x00, 0x00, returndatasize)\n      revert(0x00, returndatasize)\n    tag_166:\n      pop\n      pop\n      pop\n      pop\n      mload(0x40)\n      returndatasize\n      not(0x1f)\n      0x1f\n      dup3\n      add\n      and\n      dup3\n      add\n      dup1\n      0x40\n      mstore\n      pop\n      dup2\n      add\n      swap1\n      tag_167\n      swap2\n      swap1\n      tag_162\n      jump\t// in\n    tag_167:\n        /* \"quantum/UBI4ALLLiquidator.sol\":3839:4121  uint256 amountETH = uniswapRouter.removeLiquidityETHSupportingFeeOnTransferTokens(... */\n      swap1\n      pop\n        /* \"quantum/UBI4ALLLiquidator.sol\":4188:4213  uint256 tokenBalanceAfter */\n      0x00\n        /* \"quantum/UBI4ALLLiquidator.sol\":4216:4228  ubi4allToken */\n      0x01\n      0x00\n      swap1\n      sload\n      swap1\n      0x0100\n      exp\n      swap1\n      div\n      0xffffffffffffffffffffffffffffffffffffffff\n      and\n        /* \"quantum/UBI4ALLLiquidator.sol\":4216:4238  ubi4allToken.balanceOf */\n      0xffffffffffffffffffffffffffffffffffffffff\n      and\n      0x70a08231\n        /* \"quantum/UBI4ALLLiquidator.sol\":4239:4254  liquidityWallet */\n      0x05\n      0x00\n      swap1\n      sload\n      swap1\n      0x0100\n      exp\n      swap1\n      div\n      0xffffffffffffffffffffffffffffffffffffffff\n      and\n        /* \"quantum/UBI4ALLLiquidator.sol\":4216:4255  ubi4allToken.balanceOf(liquidityWallet) */\n      mload(0x40)\n      dup3\n      0xffffffff\n      and\n      0xe0\n      shl\n      dup2\n      mstore\n      0x04\n      add\n      tag_168\n      swap2\n      swap1\n      tag_59\n      jump\t// in\n    tag_168:\n      0x20\n      mload(0x40)\n      dup1\n      dup4\n      sub\n      dup2\n      dup7\n      gas\n      staticcall\n      iszero\n      dup1\n      iszero\n      tag_170\n      jumpi\n      returndatacopy(0x00, 0x00, returndatasize)\n      revert(0x00, returndatasize)\n    tag_170:\n      pop\n      pop\n      pop\n      pop\n      mload(0x40)\n      returndatasize\n      not(0x1f)\n      0x1f\n      dup3\n      add\n      and\n      dup3\n      add\n      dup1\n      0x40\n      mstore\n      pop\n      dup2\n      add\n      swap1\n      tag_171\n      swap2\n      swap1\n      tag_162\n      jump\t// in\n    tag_171:\n        /* \"quantum/UBI4ALLLiquidator.sol\":4188:4255  uint256 tokenBalanceAfter = ubi4allToken.balanceOf(liquidityWallet) */\n      swap1\n      pop\n        /* \"quantum/UBI4ALLLiquidator.sol\":4265:4284  uint256 amountToken */\n      0x00\n        /* \"quantum/UBI4ALLLiquidator.sol\":4307:4325  tokenBalanceBefore */\n      dup4\n        /* \"quantum/UBI4ALLLiquidator.sol\":4287:4304  tokenBalanceAfter */\n      dup3\n        /* \"quantum/UBI4ALLLiquidator.sol\":4287:4325  tokenBalanceAfter - tokenBalanceBefore */\n      tag_172\n      swap2\n      swap1\n      tag_173\n      jump\t// in\n    tag_172:\n        /* \"quantum/UBI4ALLLiquidator.sol\":4265:4325  uint256 amountToken = tokenBalanceAfter - tokenBalanceBefore */\n      swap1\n      pop\n        /* \"quantum/UBI4ALLLiquidator.sol\":4366:4378  ubi4allToken */\n      0x01\n      0x00\n      swap1\n      sload\n      swap1\n      0x0100\n      exp\n      swap1\n      div\n      0xffffffffffffffffffffffffffffffffffffffff\n      and\n        /* \"quantum/UBI4ALLLiquidator.sol\":4341:4404  LiquidityRemoved(address(ubi4allToken), amountToken, amountETH) */\n      0xffffffffffffffffffffffffffffffffffffffff\n      and\n      0x96cd817c6329656790ef8fba7675405193677d39619571282f5e21f3a98cd059\n        /* \"quantum/UBI4ALLLiquidator.sol\":4381:4392  amountToken */\n      dup3\n        /* \"quantum/UBI4ALLLiquidator.sol\":4394:4403  amountETH */\n      dup6\n        /* \"quantum/UBI4ALLLiquidator.sol\":4341:4404  LiquidityRemoved(address(ubi4allToken), amountToken, amountETH) */\n      mload(0x40)\n      tag_174\n      swap3\n      swap2\n      swap1\n      tag_175\n      jump\t// in\n    tag_174:\n      mload(0x40)\n      dup1\n      swap2\n      sub\n      swap1\n      log2\n        /* \"quantum/UBI4ALLLiquidator.sol\":3532:4411  {... */\n      pop\n      pop\n      pop\n      pop\n      pop\n        /* \"quantum/UBI4ALLLiquidator.sol\":3390:4411  function removeLiquidityUB4(... */\n      pop\n      pop\n      pop\n      jump\t// out\n        /* \"@openzeppelin/contracts/access/Ownable.sol\":2293:2394  function renounceOwnership() public virtual onlyOwner {... */\n    tag_44:\n        /* \"@openzeppelin/contracts/access/Ownable.sol\":1531:1544  _checkOwner() */\n      tag_177\n        /* \"@openzeppelin/contracts/access/Ownable.sol\":1531:1542  _checkOwner */\n      tag_92\n        /* \"@openzeppelin/contracts/access/Ownable.sol\":1531:1544  _checkOwner() */\n      jump\t// in\n    tag_177:\n        /* \"@openzeppelin/contracts/access/Ownable.sol\":2357:2387  _transferOwnership(address(0)) */\n      tag_179\n        /* \"@openzeppelin/contracts/access/Ownable.sol\":2384:2385  0 */\n      0x00\n        /* \"@openzeppelin/contracts/access/Ownable.sol\":2357:2375  _transferOwnership */\n      tag_180\n        /* \"@openzeppelin/contracts/access/Ownable.sol\":2357:2387  _transferOwnership(address(0)) */\n      jump\t// in\n    tag_179:\n        /* \"@openzeppelin/contracts/access/Ownable.sol\":2293:2394  function renounceOwnership() public virtual onlyOwner {... */\n      jump\t// out\n        /* \"quantum/UBI4ALLLiquidator.sol\":523:562  IUniswapV2Router02 public uniswapRouter */\n    tag_47:\n      0x03\n      0x00\n      swap1\n      sload\n      swap1\n      0x0100\n      exp\n      swap1\n      div\n      0xffffffffffffffffffffffffffffffffffffffff\n      and\n      dup2\n      jump\t// out\n        /* \"quantum/UBI4ALLLiquidator.sol\":568:607  IUniswapV2Factory public uniswapFactory */\n    tag_52:\n      0x04\n      0x00\n      swap1\n      sload\n      swap1\n      0x0100\n      exp\n      swap1\n      div\n      0xffffffffffffffffffffffffffffffffffffffff\n      and\n      dup2\n      jump\t// out\n        /* \"@openzeppelin/contracts/access/Ownable.sol\":1638:1723  function owner() public view virtual returns (address) {... */\n    tag_57:\n        /* \"@openzeppelin/contracts/access/Ownable.sol\":1684:1691  address */\n      0x00\n        /* \"@openzeppelin/contracts/access/Ownable.sol\":1710:1716  _owner */\n      0x00\n      0x00\n      swap1\n      sload\n      swap1\n      0x0100\n      exp\n      swap1\n      div\n      0xffffffffffffffffffffffffffffffffffffffff\n      and\n        /* \"@openzeppelin/contracts/access/Ownable.sol\":1703:1716  return _owner */\n      swap1\n      pop\n        /* \"@openzeppelin/contracts/access/Ownable.sol\":1638:1723  function owner() public view virtual returns (address) {... */\n      swap1\n      jump\t// out\n        /* \"quantum/UBI4ALLLiquidator.sol\":491:517  IERC20 public quantumToken */\n    tag_62:\n      0x02\n      0x00\n      swap1\n      sload\n      swap1\n      0x0100\n      exp\n      swap1\n      div\n      0xffffffffffffffffffffffffffffffffffffffff\n      and\n      dup2\n      jump\t// out\n        /* \"quantum/UBI4ALLLiquidator.sol\":4417:5438  function removeLiquidityQ4A(... */\n    tag_67:\n        /* \"@openzeppelin/contracts/access/Ownable.sol\":1531:1544  _checkOwner() */\n      tag_183\n        /* \"@openzeppelin/contracts/access/Ownable.sol\":1531:1542  _checkOwner */\n      tag_92\n        /* \"@openzeppelin/contracts/access/Ownable.sol\":1531:1544  _checkOwner() */\n      jump\t// in\n    tag_183:\n        /* \"quantum/UBI4ALLLiquidator.sol\":4569:4581  address pair */\n      0x00\n        /* \"quantum/UBI4ALLLiquidator.sol\":4584:4598  uniswapFactory */\n      0x04\n      0x00\n      swap1\n      sload\n      swap1\n      0x0100\n      exp\n      swap1\n      div\n      0xffffffffffffffffffffffffffffffffffffffff\n      and\n        /* \"quantum/UBI4ALLLiquidator.sol\":4584:4606  uniswapFactory.getPair */\n      0xffffffffffffffffffffffffffffffffffffffff\n      and\n      0xe6a43905\n        /* \"quantum/UBI4ALLLiquidator.sol\":4615:4627  quantumToken */\n      0x02\n      0x00\n      swap1\n      sload\n      swap1\n      0x0100\n      exp\n      swap1\n      div\n      0xffffffffffffffffffffffffffffffffffffffff\n      and\n        /* \"quantum/UBI4ALLLiquidator.sol\":4630:4643  uniswapRouter */\n      0x03\n      0x00\n      swap1\n      sload\n      swap1\n      0x0100\n      exp\n      swap1\n      div\n      0xffffffffffffffffffffffffffffffffffffffff\n      and\n        /* \"quantum/UBI4ALLLiquidator.sol\":4630:4648  uniswapRouter.WETH */\n      0xffffffffffffffffffffffffffffffffffffffff\n      and\n      0xad5c4648\n        /* \"quantum/UBI4ALLLiquidator.sol\":4630:4650  uniswapRouter.WETH() */\n      mload(0x40)\n      dup2\n      0xffffffff\n      and\n      0xe0\n      shl\n      dup2\n      mstore\n      0x04\n      add\n      0x20\n      mload(0x40)\n      dup1\n      dup4\n      sub\n      dup2\n      dup7\n      gas\n      staticcall\n      iszero\n      dup1\n      iszero\n      tag_186\n      jumpi\n      returndatacopy(0x00, 0x00, returndatasize)\n      revert(0x00, returndatasize)\n    tag_186:\n      pop\n      pop\n      pop\n      pop\n      mload(0x40)\n      returndatasize\n      not(0x1f)\n      0x1f\n      dup3\n      add\n      and\n      dup3\n      add\n      dup1\n      0x40\n      mstore\n      pop\n      dup2\n      add\n      swap1\n      tag_187\n      swap2\n      swap1\n      tag_148\n      jump\t// in\n    tag_187:\n        /* \"quantum/UBI4ALLLiquidator.sol\":4584:4651  uniswapFactory.getPair(address(quantumToken), uniswapRouter.WETH()) */\n      mload(0x40)\n      dup4\n      0xffffffff\n      and\n      0xe0\n      shl\n      dup2\n      mstore\n      0x04\n      add\n      tag_188\n      swap3\n      swap2\n      swap1\n      tag_150\n      jump\t// in\n    tag_188:\n      0x20\n      mload(0x40)\n      dup1\n      dup4\n      sub\n      dup2\n      dup7\n      gas\n      staticcall\n      iszero\n      dup1\n      iszero\n      tag_190\n      jumpi\n      returndatacopy(0x00, 0x00, returndatasize)\n      revert(0x00, returndatasize)\n    tag_190:\n      pop\n      pop\n      pop\n      pop\n      mload(0x40)\n      returndatasize\n      not(0x1f)\n      0x1f\n      dup3\n      add\n      and\n      dup3\n      add\n      dup1\n      0x40\n      mstore\n      pop\n      dup2\n      add\n      swap1\n      tag_191\n      swap2\n      swap1\n      tag_148\n      jump\t// in\n    tag_191:\n        /* \"quantum/UBI4ALLLiquidator.sol\":4569:4651  address pair = uniswapFactory.getPair(address(quantumToken), uniswapRouter.WETH()) */\n      swap1\n      pop\n        /* \"quantum/UBI4ALLLiquidator.sol\":4668:4672  pair */\n      dup1\n        /* \"quantum/UBI4ALLLiquidator.sol\":4661:4681  IERC20(pair).approve */\n      0xffffffffffffffffffffffffffffffffffffffff\n      and\n      0x095ea7b3\n        /* \"quantum/UBI4ALLLiquidator.sol\":4690:4703  uniswapRouter */\n      0x03\n      0x00\n      swap1\n      sload\n      swap1\n      0x0100\n      exp\n      swap1\n      div\n      0xffffffffffffffffffffffffffffffffffffffff\n      and\n        /* \"quantum/UBI4ALLLiquidator.sol\":4706:4715  liquidity */\n      dup7\n        /* \"quantum/UBI4ALLLiquidator.sol\":4661:4716  IERC20(pair).approve(address(uniswapRouter), liquidity) */\n      mload(0x40)\n      dup4\n      0xffffffff\n      and\n      0xe0\n      shl\n      dup2\n      mstore\n      0x04\n      add\n      tag_192\n      swap3\n      swap2\n      swap1\n      tag_101\n      jump\t// in\n    tag_192:\n      0x20\n      mload(0x40)\n      dup1\n      dup4\n      sub\n      dup2\n      0x00\n      dup8\n      gas\n      call\n      iszero\n      dup1\n      iszero\n      tag_194\n      jumpi\n      returndatacopy(0x00, 0x00, returndatasize)\n      revert(0x00, returndatasize)\n    tag_194:\n      pop\n      pop\n      pop\n      pop\n      mload(0x40)\n      returndatasize\n      not(0x1f)\n      0x1f\n      dup3\n      add\n      and\n      dup3\n      add\n      dup1\n      0x40\n      mstore\n      pop\n      dup2\n      add\n      swap1\n      tag_195\n      swap2\n      swap1\n      tag_99\n      jump\t// in\n    tag_195:\n      pop\n        /* \"quantum/UBI4ALLLiquidator.sol\":4787:4813  uint256 tokenBalanceBefore */\n      0x00\n        /* \"quantum/UBI4ALLLiquidator.sol\":4816:4828  quantumToken */\n      0x02\n      0x00\n      swap1\n      sload\n      swap1\n      0x0100\n      exp\n      swap1\n      div\n      0xffffffffffffffffffffffffffffffffffffffff\n      and\n        /* \"quantum/UBI4ALLLiquidator.sol\":4816:4838  quantumToken.balanceOf */\n      0xffffffffffffffffffffffffffffffffffffffff\n      and\n      0x70a08231\n        /* \"quantum/UBI4ALLLiquidator.sol\":4839:4854  liquidityWallet */\n      0x05\n      0x00\n      swap1\n      sload\n      swap1\n      0x0100\n      exp\n      swap1\n      div\n      0xffffffffffffffffffffffffffffffffffffffff\n      and\n        /* \"quantum/UBI4ALLLiquidator.sol\":4816:4855  quantumToken.balanceOf(liquidityWallet) */\n      mload(0x40)\n      dup3\n      0xffffffff\n      and\n      0xe0\n      shl\n      dup2\n      mstore\n      0x04\n      add\n      tag_196\n      swap2\n      swap1\n      tag_59\n      jump\t// in\n    tag_196:\n      0x20\n      mload(0x40)\n      dup1\n      dup4\n      sub\n      dup2\n      dup7\n      gas\n      staticcall\n      iszero\n      dup1\n      iszero\n      tag_198\n      jumpi\n      returndatacopy(0x00, 0x00, returndatasize)\n      revert(0x00, returndatasize)\n    tag_198:\n      pop\n      pop\n      pop\n      pop\n      mload(0x40)\n      returndatasize\n      not(0x1f)\n      0x1f\n      dup3\n      add\n      and\n      dup3\n      add\n      dup1\n      0x40\n      mstore\n      pop\n      dup2\n      add\n      swap1\n      tag_199\n      swap2\n      swap1\n      tag_162\n      jump\t// in\n    tag_199:\n        /* \"quantum/UBI4ALLLiquidator.sol\":4787:4855  uint256 tokenBalanceBefore = quantumToken.balanceOf(liquidityWallet) */\n      swap1\n      pop\n        /* \"quantum/UBI4ALLLiquidator.sol\":4866:4883  uint256 amountETH */\n      0x00\n        /* \"quantum/UBI4ALLLiquidator.sol\":4886:4899  uniswapRouter */\n      0x03\n      0x00\n      swap1\n      sload\n      swap1\n      0x0100\n      exp\n      swap1\n      div\n      0xffffffffffffffffffffffffffffffffffffffff\n      and\n        /* \"quantum/UBI4ALLLiquidator.sol\":4886:4947  uniswapRouter.removeLiquidityETHSupportingFeeOnTransferTokens */\n      0xffffffffffffffffffffffffffffffffffffffff\n      and\n      0xaf2979eb\n        /* \"quantum/UBI4ALLLiquidator.sol\":4969:4981  quantumToken */\n      0x02\n      0x00\n      swap1\n      sload\n      swap1\n      0x0100\n      exp\n      swap1\n      div\n      0xffffffffffffffffffffffffffffffffffffffff\n      and\n        /* \"quantum/UBI4ALLLiquidator.sol\":4996:5005  liquidity */\n      dup9\n        /* \"quantum/UBI4ALLLiquidator.sol\":5019:5033  amountTokenMin */\n      dup9\n        /* \"quantum/UBI4ALLLiquidator.sol\":5047:5059  amountETHMin */\n      dup9\n        /* \"quantum/UBI4ALLLiquidator.sol\":5073:5088  liquidityWallet */\n      0x05\n      0x00\n      swap1\n      sload\n      swap1\n      0x0100\n      exp\n      swap1\n      div\n      0xffffffffffffffffffffffffffffffffffffffff\n      and\n        /* \"quantum/UBI4ALLLiquidator.sol\":695:705  20 minutes */\n      0x04b0\n        /* \"quantum/UBI4ALLLiquidator.sol\":5102:5117  block.timestamp */\n      timestamp\n        /* \"quantum/UBI4ALLLiquidator.sol\":5102:5138  block.timestamp + DEADLINE_EXTENSION */\n      tag_200\n      swap2\n      swap1\n      tag_115\n      jump\t// in\n    tag_200:\n        /* \"quantum/UBI4ALLLiquidator.sol\":4886:5148  uniswapRouter.removeLiquidityETHSupportingFeeOnTransferTokens(... */\n      mload(0x40)\n      dup8\n      0xffffffff\n      and\n      0xe0\n      shl\n      dup2\n      mstore\n      0x04\n      add\n      tag_201\n      swap7\n      swap6\n      swap5\n      swap4\n      swap3\n      swap2\n      swap1\n      tag_135\n      jump\t// in\n    tag_201:\n      0x20\n      mload(0x40)\n      dup1\n      dup4\n      sub\n      dup2\n      0x00\n      dup8\n      gas\n      call\n      iszero\n      dup1\n      iszero\n      tag_203\n      jumpi\n      returndatacopy(0x00, 0x00, returndatasize)\n      revert(0x00, returndatasize)\n    tag_203:\n      pop\n      pop\n      pop\n      pop\n      mload(0x40)\n      returndatasize\n      not(0x1f)\n      0x1f\n      dup3\n      add\n      and\n      dup3\n      add\n      dup1\n      0x40\n      mstore\n      pop\n      dup2\n      add\n      swap1\n      tag_204\n      swap2\n      swap1\n      tag_162\n      jump\t// in\n    tag_204:\n        /* \"quantum/UBI4ALLLiquidator.sol\":4866:5148  uint256 amountETH = uniswapRouter.removeLiquidityETHSupportingFeeOnTransferTokens(... */\n      swap1\n      pop\n        /* \"quantum/UBI4ALLLiquidator.sol\":5215:5240  uint256 tokenBalanceAfter */\n      0x00\n        /* \"quantum/UBI4ALLLiquidator.sol\":5243:5255  quantumToken */\n      0x02\n      0x00\n      swap1\n      sload\n      swap1\n      0x0100\n      exp\n      swap1\n      div\n      0xffffffffffffffffffffffffffffffffffffffff\n      and\n        /* \"quantum/UBI4ALLLiquidator.sol\":5243:5265  quantumToken.balanceOf */\n      0xffffffffffffffffffffffffffffffffffffffff\n      and\n      0x70a08231\n        /* \"quantum/UBI4ALLLiquidator.sol\":5266:5281  liquidityWallet */\n      0x05\n      0x00\n      swap1\n      sload\n      swap1\n      0x0100\n      exp\n      swap1\n      div\n      0xffffffffffffffffffffffffffffffffffffffff\n      and\n        /* \"quantum/UBI4ALLLiquidator.sol\":5243:5282  quantumToken.balanceOf(liquidityWallet) */\n      mload(0x40)\n      dup3\n      0xffffffff\n      and\n      0xe0\n      shl\n      dup2\n      mstore\n      0x04\n      add\n      tag_205\n      swap2\n      swap1\n      tag_59\n      jump\t// in\n    tag_205:\n      0x20\n      mload(0x40)\n      dup1\n      dup4\n      sub\n      dup2\n      dup7\n      gas\n      staticcall\n      iszero\n      dup1\n      iszero\n      tag_207\n      jumpi\n      returndatacopy(0x00, 0x00, returndatasize)\n      revert(0x00, returndatasize)\n    tag_207:\n      pop\n      pop\n      pop\n      pop\n      mload(0x40)\n      returndatasize\n      not(0x1f)\n      0x1f\n      dup3\n      add\n      and\n      dup3\n      add\n      dup1\n      0x40\n      mstore\n      pop\n      dup2\n      add\n      swap1\n      tag_208\n      swap2\n      swap1\n      tag_162\n      jump\t// in\n    tag_208:\n        /* \"quantum/UBI4ALLLiquidator.sol\":5215:5282  uint256 tokenBalanceAfter = quantumToken.balanceOf(liquidityWallet) */\n      swap1\n      pop\n        /* \"quantum/UBI4ALLLiquidator.sol\":5292:5311  uint256 amountToken */\n      0x00\n        /* \"quantum/UBI4ALLLiquidator.sol\":5334:5352  tokenBalanceBefore */\n      dup4\n        /* \"quantum/UBI4ALLLiquidator.sol\":5314:5331  tokenBalanceAfter */\n      dup3\n        /* \"quantum/UBI4ALLLiquidator.sol\":5314:5352  tokenBalanceAfter - tokenBalanceBefore */\n      tag_209\n      swap2\n      swap1\n      tag_173\n      jump\t// in\n    tag_209:\n        /* \"quantum/UBI4ALLLiquidator.sol\":5292:5352  uint256 amountToken = tokenBalanceAfter - tokenBalanceBefore */\n      swap1\n      pop\n        /* \"quantum/UBI4ALLLiquidator.sol\":5393:5405  quantumToken */\n      0x02\n      0x00\n      swap1\n      sload\n      swap1\n      0x0100\n      exp\n      swap1\n      div\n      0xffffffffffffffffffffffffffffffffffffffff\n      and\n        /* \"quantum/UBI4ALLLiquidator.sol\":5368:5431  LiquidityRemoved(address(quantumToken), amountToken, amountETH) */\n      0xffffffffffffffffffffffffffffffffffffffff\n      and\n      0x96cd817c6329656790ef8fba7675405193677d39619571282f5e21f3a98cd059\n        /* \"quantum/UBI4ALLLiquidator.sol\":5408:5419  amountToken */\n      dup3\n        /* \"quantum/UBI4ALLLiquidator.sol\":5421:5430  amountETH */\n      dup6\n        /* \"quantum/UBI4ALLLiquidator.sol\":5368:5431  LiquidityRemoved(address(quantumToken), amountToken, amountETH) */\n      mload(0x40)\n      tag_210\n      swap3\n      swap2\n      swap1\n      tag_175\n      jump\t// in\n    tag_210:\n      mload(0x40)\n      dup1\n      swap2\n      sub\n      swap1\n      log2\n        /* \"quantum/UBI4ALLLiquidator.sol\":4559:5438  {... */\n      pop\n      pop\n      pop\n      pop\n      pop\n        /* \"quantum/UBI4ALLLiquidator.sol\":4417:5438  function removeLiquidityQ4A(... */\n      pop\n      pop\n      pop\n      jump\t// out\n        /* \"quantum/UBI4ALLLiquidator.sol\":6120:6790  function swapUB4toQ4A(uint256 amountIn, uint256 amountOutMin) external onlyOwner {... */\n    tag_71:\n        /* \"@openzeppelin/contracts/access/Ownable.sol\":1531:1544  _checkOwner() */\n      tag_212\n        /* \"@openzeppelin/contracts/access/Ownable.sol\":1531:1542  _checkOwner */\n      tag_92\n        /* \"@openzeppelin/contracts/access/Ownable.sol\":1531:1544  _checkOwner() */\n      jump\t// in\n    tag_212:\n        /* \"quantum/UBI4ALLLiquidator.sol\":6211:6223  ubi4allToken */\n      0x01\n      0x00\n      swap1\n      sload\n      swap1\n      0x0100\n      exp\n      swap1\n      div\n      0xffffffffffffffffffffffffffffffffffffffff\n      and\n        /* \"quantum/UBI4ALLLiquidator.sol\":6211:6236  ubi4allToken.transferFrom */\n      0xffffffffffffffffffffffffffffffffffffffff\n      and\n      0x23b872dd\n        /* \"quantum/UBI4ALLLiquidator.sol\":6237:6247  msg.sender */\n      caller\n        /* \"quantum/UBI4ALLLiquidator.sol\":6257:6261  this */\n      address\n        /* \"quantum/UBI4ALLLiquidator.sol\":6264:6272  amountIn */\n      dup6\n        /* \"quantum/UBI4ALLLiquidator.sol\":6211:6273  ubi4allToken.transferFrom(msg.sender, address(this), amountIn) */\n      mload(0x40)\n      dup5\n      0xffffffff\n      and\n      0xe0\n      shl\n      dup2\n      mstore\n      0x04\n      add\n      tag_214\n      swap4\n      swap3\n      swap2\n      swap1\n      tag_95\n      jump\t// in\n    tag_214:\n      0x20\n      mload(0x40)\n      dup1\n      dup4\n      sub\n      dup2\n      0x00\n      dup8\n      gas\n      call\n      iszero\n      dup1\n      iszero\n      tag_216\n      jumpi\n      returndatacopy(0x00, 0x00, returndatasize)\n      revert(0x00, returndatasize)\n    tag_216:\n      pop\n      pop\n      pop\n      pop\n      mload(0x40)\n      returndatasize\n      not(0x1f)\n      0x1f\n      dup3\n      add\n      and\n      dup3\n      add\n      dup1\n      0x40\n      mstore\n      pop\n      dup2\n      add\n      swap1\n      tag_217\n      swap2\n      swap1\n      tag_99\n      jump\t// in\n    tag_217:\n      pop\n        /* \"quantum/UBI4ALLLiquidator.sol\":6283:6295  ubi4allToken */\n      0x01\n      0x00\n      swap1\n      sload\n      swap1\n      0x0100\n      exp\n      swap1\n      div\n      0xffffffffffffffffffffffffffffffffffffffff\n      and\n        /* \"quantum/UBI4ALLLiquidator.sol\":6283:6303  ubi4allToken.approve */\n      0xffffffffffffffffffffffffffffffffffffffff\n      and\n      0x095ea7b3\n        /* \"quantum/UBI4ALLLiquidator.sol\":6312:6325  uniswapRouter */\n      0x03\n      0x00\n      swap1\n      sload\n      swap1\n      0x0100\n      exp\n      swap1\n      div\n      0xffffffffffffffffffffffffffffffffffffffff\n      and\n        /* \"quantum/UBI4ALLLiquidator.sol\":6328:6336  amountIn */\n      dup5\n        /* \"quantum/UBI4ALLLiquidator.sol\":6283:6337  ubi4allToken.approve(address(uniswapRouter), amountIn) */\n      mload(0x40)\n      dup4\n      0xffffffff\n      and\n      0xe0\n      shl\n      dup2\n      mstore\n      0x04\n      add\n      tag_218\n      swap3\n      swap2\n      swap1\n      tag_101\n      jump\t// in\n    tag_218:\n      0x20\n      mload(0x40)\n      dup1\n      dup4\n      sub\n      dup2\n      0x00\n      dup8\n      gas\n      call\n      iszero\n      dup1\n      iszero\n      tag_220\n      jumpi\n      returndatacopy(0x00, 0x00, returndatasize)\n      revert(0x00, returndatasize)\n    tag_220:\n      pop\n      pop\n      pop\n      pop\n      mload(0x40)\n      returndatasize\n      not(0x1f)\n      0x1f\n      dup3\n      add\n      and\n      dup3\n      add\n      dup1\n      0x40\n      mstore\n      pop\n      dup2\n      add\n      swap1\n      tag_221\n      swap2\n      swap1\n      tag_99\n      jump\t// in\n    tag_221:\n      pop\n        /* \"quantum/UBI4ALLLiquidator.sol\":6347:6368  address[] memory path */\n      0x00\n        /* \"quantum/UBI4ALLLiquidator.sol\":6385:6386  2 */\n      0x02\n        /* \"quantum/UBI4ALLLiquidator.sol\":6371:6387  new address[](2) */\n      0xffffffffffffffff\n      dup2\n      gt\n      iszero\n      tag_222\n      jumpi\n      tag_223\n      tag_107\n      jump\t// in\n    tag_223:\n    tag_222:\n      mload(0x40)\n      swap1\n      dup1\n      dup3\n      mstore\n      dup1\n      0x20\n      mul\n      0x20\n      add\n      dup3\n      add\n      0x40\n      mstore\n      dup1\n      iszero\n      tag_224\n      jumpi\n      dup2\n      0x20\n      add\n      0x20\n      dup3\n      mul\n      dup1\n      calldatasize\n      dup4\n      calldatacopy\n      dup1\n      dup3\n      add\n      swap2\n      pop\n      pop\n      swap1\n      pop\n    tag_224:\n      pop\n        /* \"quantum/UBI4ALLLiquidator.sol\":6347:6387  address[] memory path = new address[](2) */\n      swap1\n      pop\n        /* \"quantum/UBI4ALLLiquidator.sol\":6415:6427  ubi4allToken */\n      0x01\n      0x00\n      swap1\n      sload\n      swap1\n      0x0100\n      exp\n      swap1\n      div\n      0xffffffffffffffffffffffffffffffffffffffff\n      and\n        /* \"quantum/UBI4ALLLiquidator.sol\":6397:6401  path */\n      dup2\n        /* \"quantum/UBI4ALLLiquidator.sol\":6402:6403  0 */\n      0x00\n        /* \"quantum/UBI4ALLLiquidator.sol\":6397:6404  path[0] */\n      dup2\n      mload\n      dup2\n      lt\n      tag_225\n      jumpi\n      tag_226\n      tag_111\n      jump\t// in\n    tag_226:\n    tag_225:\n      0x20\n      mul\n      0x20\n      add\n      add\n        /* \"quantum/UBI4ALLLiquidator.sol\":6397:6428  path[0] = address(ubi4allToken) */\n      swap1\n      0xffffffffffffffffffffffffffffffffffffffff\n      and\n      swap1\n      dup2\n      0xffffffffffffffffffffffffffffffffffffffff\n      and\n      dup2\n      mstore\n      pop\n      pop\n        /* \"quantum/UBI4ALLLiquidator.sol\":6456:6468  quantumToken */\n      0x02\n      0x00\n      swap1\n      sload\n      swap1\n      0x0100\n      exp\n      swap1\n      div\n      0xffffffffffffffffffffffffffffffffffffffff\n      and\n        /* \"quantum/UBI4ALLLiquidator.sol\":6438:6442  path */\n      dup2\n        /* \"quantum/UBI4ALLLiquidator.sol\":6443:6444  1 */\n      0x01\n        /* \"quantum/UBI4ALLLiquidator.sol\":6438:6445  path[1] */\n      dup2\n      mload\n      dup2\n      lt\n      tag_227\n      jumpi\n      tag_228\n      tag_111\n      jump\t// in\n    tag_228:\n    tag_227:\n      0x20\n      mul\n      0x20\n      add\n      add\n        /* \"quantum/UBI4ALLLiquidator.sol\":6438:6469  path[1] = address(quantumToken) */\n      swap1\n      0xffffffffffffffffffffffffffffffffffffffff\n      and\n      swap1\n      dup2\n      0xffffffffffffffffffffffffffffffffffffffff\n      and\n      dup2\n      mstore\n      pop\n      pop\n        /* \"quantum/UBI4ALLLiquidator.sol\":6479:6492  uniswapRouter */\n      0x03\n      0x00\n      swap1\n      sload\n      swap1\n      0x0100\n      exp\n      swap1\n      div\n      0xffffffffffffffffffffffffffffffffffffffff\n      and\n        /* \"quantum/UBI4ALLLiquidator.sol\":6479:6546  uniswapRouter.swapExactTokensForTokensSupportingFeeOnTransferTokens */\n      0xffffffffffffffffffffffffffffffffffffffff\n      and\n      0x5c11d795\n        /* \"quantum/UBI4ALLLiquidator.sol\":6560:6568  amountIn */\n      dup5\n        /* \"quantum/UBI4ALLLiquidator.sol\":6582:6594  amountOutMin */\n      dup5\n        /* \"quantum/UBI4ALLLiquidator.sol\":6608:6612  path */\n      dup5\n        /* \"quantum/UBI4ALLLiquidator.sol\":6626:6641  liquidityWallet */\n      0x05\n      0x00\n      swap1\n      sload\n      swap1\n      0x0100\n      exp\n      swap1\n      div\n      0xffffffffffffffffffffffffffffffffffffffff\n      and\n        /* \"quantum/UBI4ALLLiquidator.sol\":695:705  20 minutes */\n      0x04b0\n        /* \"quantum/UBI4ALLLiquidator.sol\":6655:6670  block.timestamp */\n      timestamp\n        /* \"quantum/UBI4ALLLiquidator.sol\":6655:6691  block.timestamp + DEADLINE_EXTENSION */\n      tag_229\n      swap2\n      swap1\n      tag_115\n      jump\t// in\n    tag_229:\n        /* \"quantum/UBI4ALLLiquidator.sol\":6479:6701  uniswapRouter.swapExactTokensForTokensSupportingFeeOnTransferTokens(... */\n      mload(0x40)\n      dup7\n      0xffffffff\n      and\n      0xe0\n      shl\n      dup2\n      mstore\n      0x04\n      add\n      tag_230\n      swap6\n      swap5\n      swap4\n      swap3\n      swap2\n      swap1\n      tag_117\n      jump\t// in\n    tag_230:\n      0x00\n      mload(0x40)\n      dup1\n      dup4\n      sub\n      dup2\n      0x00\n      dup8\n      dup1\n      extcodesize\n      iszero\n      dup1\n      iszero\n      tag_231\n      jumpi\n      revert(0x00, 0x00)\n    tag_231:\n      pop\n      gas\n      call\n      iszero\n      dup1\n      iszero\n      tag_233\n      jumpi\n      returndatacopy(0x00, 0x00, returndatasize)\n      revert(0x00, returndatasize)\n    tag_233:\n      pop\n      pop\n      pop\n      pop\n        /* \"quantum/UBI4ALLLiquidator.sol\":6759:6771  quantumToken */\n      0x02\n      0x00\n      swap1\n      sload\n      swap1\n      0x0100\n      exp\n      swap1\n      div\n      0xffffffffffffffffffffffffffffffffffffffff\n      and\n        /* \"quantum/UBI4ALLLiquidator.sol\":6716:6783  QuantumSwap(address(ubi4allToken), address(quantumToken), amountIn) */\n      0xffffffffffffffffffffffffffffffffffffffff\n      and\n        /* \"quantum/UBI4ALLLiquidator.sol\":6736:6748  ubi4allToken */\n      0x01\n      0x00\n      swap1\n      sload\n      swap1\n      0x0100\n      exp\n      swap1\n      div\n      0xffffffffffffffffffffffffffffffffffffffff\n      and\n        /* \"quantum/UBI4ALLLiquidator.sol\":6716:6783  QuantumSwap(address(ubi4allToken), address(quantumToken), amountIn) */\n      0xffffffffffffffffffffffffffffffffffffffff\n      and\n      0xf7ca15d85d6a1558514fff5c2f5a3f009726b7f5dfc61a3f80b7107941beaf1a\n        /* \"quantum/UBI4ALLLiquidator.sol\":6774:6782  amountIn */\n      dup6\n        /* \"quantum/UBI4ALLLiquidator.sol\":6716:6783  QuantumSwap(address(ubi4allToken), address(quantumToken), amountIn) */\n      mload(0x40)\n      tag_234\n      swap2\n      swap1\n      tag_89\n      jump\t// in\n    tag_234:\n      mload(0x40)\n      dup1\n      swap2\n      sub\n      swap1\n      log3\n        /* \"quantum/UBI4ALLLiquidator.sol\":6201:6790  {... */\n      pop\n        /* \"quantum/UBI4ALLLiquidator.sol\":6120:6790  function swapUB4toQ4A(uint256 amountIn, uint256 amountOutMin) external onlyOwner {... */\n      pop\n      pop\n      jump\t// out\n        /* \"quantum/UBI4ALLLiquidator.sol\":613:643  address public liquidityWallet */\n    tag_74:\n      0x05\n      0x00\n      swap1\n      sload\n      swap1\n      0x0100\n      exp\n      swap1\n      div\n      0xffffffffffffffffffffffffffffffffffffffff\n      and\n      dup2\n      jump\t// out\n        /* \"quantum/UBI4ALLLiquidator.sol\":6796:6941  function transferOwnership(address newOwner) public override(Ownable, IUBI4ALLLiquidator) onlyOwner {... */\n    tag_80:\n        /* \"@openzeppelin/contracts/access/Ownable.sol\":1531:1544  _checkOwner() */\n      tag_236\n        /* \"@openzeppelin/contracts/access/Ownable.sol\":1531:1542  _checkOwner */\n      tag_92\n        /* \"@openzeppelin/contracts/access/Ownable.sol\":1531:1544  _checkOwner() */\n      jump\t// in\n    tag_236:\n        /* \"quantum/UBI4ALLLiquidator.sol\":6906:6934  _transferOwnership(newOwner) */\n      tag_238\n        /* \"quantum/UBI4ALLLiquidator.sol\":6925:6933  newOwner */\n      dup2\n        /* \"quantum/UBI4ALLLiquidator.sol\":6906:6924  _transferOwnership */\n      tag_180\n        /* \"quantum/UBI4ALLLiquidator.sol\":6906:6934  _transferOwnership(newOwner) */\n      jump\t// in\n    tag_238:\n        /* \"quantum/UBI4ALLLiquidator.sol\":6796:6941  function transferOwnership(address newOwner) public override(Ownable, IUBI4ALLLiquidator) onlyOwner {... */\n      pop\n      jump\t// out\n        /* \"quantum/UBI4ALLLiquidator.sol\":1878:2628  function addLiquidityUB4(... */\n    tag_84:\n        /* \"@openzeppelin/contracts/access/Ownable.sol\":1531:1544  _checkOwner() */\n      tag_240\n        /* \"@openzeppelin/contracts/access/Ownable.sol\":1531:1542  _checkOwner */\n      tag_92\n        /* \"@openzeppelin/contracts/access/Ownable.sol\":1531:1544  _checkOwner() */\n      jump\t// in\n    tag_240:\n        /* \"quantum/UBI4ALLLiquidator.sol\":2036:2050  uint256 amount */\n      0x00\n        /* \"quantum/UBI4ALLLiquidator.sol\":2053:2071  amountTokenDesired */\n      dup4\n        /* \"quantum/UBI4ALLLiquidator.sol\":2036:2071  uint256 amount = amountTokenDesired */\n      swap1\n      pop\n        /* \"quantum/UBI4ALLLiquidator.sol\":2081:2093  ubi4allToken */\n      0x01\n      0x00\n      swap1\n      sload\n      swap1\n      0x0100\n      exp\n      swap1\n      div\n      0xffffffffffffffffffffffffffffffffffffffff\n      and\n        /* \"quantum/UBI4ALLLiquidator.sol\":2081:2106  ubi4allToken.transferFrom */\n      0xffffffffffffffffffffffffffffffffffffffff\n      and\n      0x23b872dd\n        /* \"quantum/UBI4ALLLiquidator.sol\":2107:2117  msg.sender */\n      caller\n        /* \"quantum/UBI4ALLLiquidator.sol\":2127:2131  this */\n      address\n        /* \"quantum/UBI4ALLLiquidator.sol\":2134:2140  amount */\n      dup5\n        /* \"quantum/UBI4ALLLiquidator.sol\":2081:2141  ubi4allToken.transferFrom(msg.sender, address(this), amount) */\n      mload(0x40)\n      dup5\n      0xffffffff\n      and\n      0xe0\n      shl\n      dup2\n      mstore\n      0x04\n      add\n      tag_242\n      swap4\n      swap3\n      swap2\n      swap1\n      tag_95\n      jump\t// in\n    tag_242:\n      0x20\n      mload(0x40)\n      dup1\n      dup4\n      sub\n      dup2\n      0x00\n      dup8\n      gas\n      call\n      iszero\n      dup1\n      iszero\n      tag_244\n      jumpi\n      returndatacopy(0x00, 0x00, returndatasize)\n      revert(0x00, returndatasize)\n    tag_244:\n      pop\n      pop\n      pop\n      pop\n      mload(0x40)\n      returndatasize\n      not(0x1f)\n      0x1f\n      dup3\n      add\n      and\n      dup3\n      add\n      dup1\n      0x40\n      mstore\n      pop\n      dup2\n      add\n      swap1\n      tag_245\n      swap2\n      swap1\n      tag_99\n      jump\t// in\n    tag_245:\n      pop\n        /* \"quantum/UBI4ALLLiquidator.sol\":2151:2163  ubi4allToken */\n      0x01\n      0x00\n      swap1\n      sload\n      swap1\n      0x0100\n      exp\n      swap1\n      div\n      0xffffffffffffffffffffffffffffffffffffffff\n      and\n        /* \"quantum/UBI4ALLLiquidator.sol\":2151:2171  ubi4allToken.approve */\n      0xffffffffffffffffffffffffffffffffffffffff\n      and\n      0x095ea7b3\n        /* \"quantum/UBI4ALLLiquidator.sol\":2180:2193  uniswapRouter */\n      0x03\n      0x00\n      swap1\n      sload\n      swap1\n      0x0100\n      exp\n      swap1\n      div\n      0xffffffffffffffffffffffffffffffffffffffff\n      and\n        /* \"quantum/UBI4ALLLiquidator.sol\":2196:2202  amount */\n      dup4\n        /* \"quantum/UBI4ALLLiquidator.sol\":2151:2203  ubi4allToken.approve(address(uniswapRouter), amount) */\n      mload(0x40)\n      dup4\n      0xffffffff\n      and\n      0xe0\n      shl\n      dup2\n      mstore\n      0x04\n      add\n      tag_246\n      swap3\n      swap2\n      swap1\n      tag_101\n      jump\t// in\n    tag_246:\n      0x20\n      mload(0x40)\n      dup1\n      dup4\n      sub\n      dup2\n      0x00\n      dup8\n      gas\n      call\n      iszero\n      dup1\n      iszero\n      tag_248\n      jumpi\n      returndatacopy(0x00, 0x00, returndatasize)\n      revert(0x00, returndatasize)\n    tag_248:\n      pop\n      pop\n      pop\n      pop\n      mload(0x40)\n      returndatasize\n      not(0x1f)\n      0x1f\n      dup3\n      add\n      and\n      dup3\n      add\n      dup1\n      0x40\n      mstore\n      pop\n      dup2\n      add\n      swap1\n      tag_249\n      swap2\n      swap1\n      tag_99\n      jump\t// in\n    tag_249:\n      pop\n        /* \"quantum/UBI4ALLLiquidator.sol\":2215:2234  uint256 amountToken */\n      0x00\n        /* \"quantum/UBI4ALLLiquidator.sol\":2236:2253  uint256 amountETH */\n      0x00\n        /* \"quantum/UBI4ALLLiquidator.sol\":2255:2272  uint256 liquidity */\n      0x00\n        /* \"quantum/UBI4ALLLiquidator.sol\":2276:2289  uniswapRouter */\n      0x03\n      0x00\n      swap1\n      sload\n      swap1\n      0x0100\n      exp\n      swap1\n      div\n      0xffffffffffffffffffffffffffffffffffffffff\n      and\n        /* \"quantum/UBI4ALLLiquidator.sol\":2276:2305  uniswapRouter.addLiquidityETH */\n      0xffffffffffffffffffffffffffffffffffffffff\n      and\n      0xf305d719\n        /* \"quantum/UBI4ALLLiquidator.sol\":2313:2334  address(this).balance */\n      selfbalance\n        /* \"quantum/UBI4ALLLiquidator.sol\":2357:2369  ubi4allToken */\n      0x01\n      0x00\n      swap1\n      sload\n      swap1\n      0x0100\n      exp\n      swap1\n      div\n      0xffffffffffffffffffffffffffffffffffffffff\n      and\n        /* \"quantum/UBI4ALLLiquidator.sol\":2384:2390  amount */\n      dup8\n        /* \"quantum/UBI4ALLLiquidator.sol\":2404:2418  amountTokenMin */\n      dup11\n        /* \"quantum/UBI4ALLLiquidator.sol\":2432:2444  amountETHMin */\n      dup11\n        /* \"quantum/UBI4ALLLiquidator.sol\":2458:2473  liquidityWallet */\n      0x05\n      0x00\n      swap1\n      sload\n      swap1\n      0x0100\n      exp\n      swap1\n      div\n      0xffffffffffffffffffffffffffffffffffffffff\n      and\n        /* \"quantum/UBI4ALLLiquidator.sol\":695:705  20 minutes */\n      0x04b0\n        /* \"quantum/UBI4ALLLiquidator.sol\":2487:2502  block.timestamp */\n      timestamp\n        /* \"quantum/UBI4ALLLiquidator.sol\":2487:2523  block.timestamp + DEADLINE_EXTENSION */\n      tag_250\n      swap2\n      swap1\n      tag_115\n      jump\t// in\n    tag_250:\n        /* \"quantum/UBI4ALLLiquidator.sol\":2276:2533  uniswapRouter.addLiquidityETH{value: address(this).balance}(... */\n      mload(0x40)\n      dup9\n      0xffffffff\n      and\n      0xe0\n      shl\n      dup2\n      mstore\n      0x04\n      add\n      tag_251\n      swap7\n      swap6\n      swap5\n      swap4\n      swap3\n      swap2\n      swap1\n      tag_135\n      jump\t// in\n    tag_251:\n      0x60\n      mload(0x40)\n      dup1\n      dup4\n      sub\n      dup2\n      dup6\n      dup9\n      gas\n      call\n      iszero\n      dup1\n      iszero\n      tag_253\n      jumpi\n      returndatacopy(0x00, 0x00, returndatasize)\n      revert(0x00, returndatasize)\n    tag_253:\n      pop\n      pop\n      pop\n      pop\n      pop\n      mload(0x40)\n      returndatasize\n      not(0x1f)\n      0x1f\n      dup3\n      add\n      and\n      dup3\n      add\n      dup1\n      0x40\n      mstore\n      pop\n      dup2\n      add\n      swap1\n      tag_254\n      swap2\n      swap1\n      tag_139\n      jump\t// in\n    tag_254:\n        /* \"quantum/UBI4ALLLiquidator.sol\":2214:2533  (uint256 amountToken, uint256 amountETH, uint256 liquidity) = uniswapRouter.addLiquidityETH{value: address(this).balance}(... */\n      swap3\n      pop\n      swap3\n      pop\n      swap3\n      pop\n        /* \"quantum/UBI4ALLLiquidator.sol\":2572:2584  ubi4allToken */\n      0x01\n      0x00\n      swap1\n      sload\n      swap1\n      0x0100\n      exp\n      swap1\n      div\n      0xffffffffffffffffffffffffffffffffffffffff\n      and\n        /* \"quantum/UBI4ALLLiquidator.sol\":2549:2621  LiquidityAdded(address(ubi4allToken), amountToken, amountETH, liquidity) */\n      0xffffffffffffffffffffffffffffffffffffffff\n      and\n      0x64b83944e79c3ce8d4c297411de637c3e102d064677aac0c163976ebdcd6f50e\n        /* \"quantum/UBI4ALLLiquidator.sol\":2587:2598  amountToken */\n      dup5\n        /* \"quantum/UBI4ALLLiquidator.sol\":2600:2609  amountETH */\n      dup5\n        /* \"quantum/UBI4ALLLiquidator.sol\":2611:2620  liquidity */\n      dup5\n        /* \"quantum/UBI4ALLLiquidator.sol\":2549:2621  LiquidityAdded(address(ubi4allToken), amountToken, amountETH, liquidity) */\n      mload(0x40)\n      tag_255\n      swap4\n      swap3\n      swap2\n      swap1\n      tag_141\n      jump\t// in\n    tag_255:\n      mload(0x40)\n      dup1\n      swap2\n      sub\n      swap1\n      log2\n        /* \"quantum/UBI4ALLLiquidator.sol\":2026:2628  {... */\n      pop\n      pop\n      pop\n      pop\n        /* \"quantum/UBI4ALLLiquidator.sol\":1878:2628  function addLiquidityUB4(... */\n      pop\n      pop\n      pop\n      jump\t// out\n        /* \"quantum/UBI4ALLLiquidator.sol\":650:705  uint256 public constant DEADLINE_EXTENSION = 20 minutes */\n    tag_87:\n        /* \"quantum/UBI4ALLLiquidator.sol\":695:705  20 minutes */\n      0x04b0\n        /* \"quantum/UBI4ALLLiquidator.sol\":650:705  uint256 public constant DEADLINE_EXTENSION = 20 minutes */\n      dup2\n      jump\t// out\n        /* \"@openzeppelin/contracts/access/Ownable.sol\":1796:1958  function _checkOwner() internal view virtual {... */\n    tag_92:\n        /* \"@openzeppelin/contracts/access/Ownable.sol\":1866:1878  _msgSender() */\n      tag_257\n        /* \"@openzeppelin/contracts/access/Ownable.sol\":1866:1876  _msgSender */\n      tag_258\n        /* \"@openzeppelin/contracts/access/Ownable.sol\":1866:1878  _msgSender() */\n      jump\t// in\n    tag_257:\n        /* \"@openzeppelin/contracts/access/Ownable.sol\":1855:1878  owner() != _msgSender() */\n      0xffffffffffffffffffffffffffffffffffffffff\n      and\n        /* \"@openzeppelin/contracts/access/Ownable.sol\":1855:1862  owner() */\n      tag_259\n        /* \"@openzeppelin/contracts/access/Ownable.sol\":1855:1860  owner */\n      tag_57\n        /* \"@openzeppelin/contracts/access/Ownable.sol\":1855:1862  owner() */\n      jump\t// in\n    tag_259:\n        /* \"@openzeppelin/contracts/access/Ownable.sol\":1855:1878  owner() != _msgSender() */\n      0xffffffffffffffffffffffffffffffffffffffff\n      and\n      eq\n        /* \"@openzeppelin/contracts/access/Ownable.sol\":1851:1952  if (owner() != _msgSender()) {... */\n      tag_260\n      jumpi\n        /* \"@openzeppelin/contracts/access/Ownable.sol\":1928:1940  _msgSender() */\n      tag_261\n        /* \"@openzeppelin/contracts/access/Ownable.sol\":1928:1938  _msgSender */\n      tag_258\n        /* \"@openzeppelin/contracts/access/Ownable.sol\":1928:1940  _msgSender() */\n      jump\t// in\n    tag_261:\n        /* \"@openzeppelin/contracts/access/Ownable.sol\":1901:1941  OwnableUnauthorizedAccount(_msgSender()) */\n      mload(0x40)\n      0x118cdaa700000000000000000000000000000000000000000000000000000000\n      dup2\n      mstore\n      0x04\n      add\n      tag_262\n      swap2\n      swap1\n      tag_59\n      jump\t// in\n    tag_262:\n      mload(0x40)\n      dup1\n      swap2\n      sub\n      swap1\n      revert\n        /* \"@openzeppelin/contracts/access/Ownable.sol\":1851:1952  if (owner() != _msgSender()) {... */\n    tag_260:\n        /* \"@openzeppelin/contracts/access/Ownable.sol\":1796:1958  function _checkOwner() internal view virtual {... */\n      jump\t// out\n        /* \"@openzeppelin/contracts/access/Ownable.sol\":2912:3099  function _transferOwnership(address newOwner) internal virtual {... */\n    tag_180:\n        /* \"@openzeppelin/contracts/access/Ownable.sol\":2985:3001  address oldOwner */\n      0x00\n        /* \"@openzeppelin/contracts/access/Ownable.sol\":3004:3010  _owner */\n      0x00\n      0x00\n      swap1\n      sload\n      swap1\n      0x0100\n      exp\n      swap1\n      div\n      0xffffffffffffffffffffffffffffffffffffffff\n      and\n        /* \"@openzeppelin/contracts/access/Ownable.sol\":2985:3010  address oldOwner = _owner */\n      swap1\n      pop\n        /* \"@openzeppelin/contracts/access/Ownable.sol\":3029:3037  newOwner */\n      dup2\n        /* \"@openzeppelin/contracts/access/Ownable.sol\":3020:3026  _owner */\n      0x00\n      0x00\n        /* \"@openzeppelin/contracts/access/Ownable.sol\":3020:3037  _owner = newOwner */\n      0x0100\n      exp\n      dup2\n      sload\n      dup2\n      0xffffffffffffffffffffffffffffffffffffffff\n      mul\n      not\n      and\n      swap1\n      dup4\n      0xffffffffffffffffffffffffffffffffffffffff\n      and\n      mul\n      or\n      swap1\n      sstore\n      pop\n        /* \"@openzeppelin/contracts/access/Ownable.sol\":3083:3091  newOwner */\n      dup2\n        /* \"@openzeppelin/contracts/access/Ownable.sol\":3052:3092  OwnershipTransferred(oldOwner, newOwner) */\n      0xffffffffffffffffffffffffffffffffffffffff\n      and\n        /* \"@openzeppelin/contracts/access/Ownable.sol\":3073:3081  oldOwner */\n      dup2\n        /* \"@openzeppelin/contracts/access/Ownable.sol\":3052:3092  OwnershipTransferred(oldOwner, newOwner) */\n      0xffffffffffffffffffffffffffffffffffffffff\n      and\n      0x8be0079c531659141344cd1fd0a4f28419497f9722a3daafe3b4186f6b6457e0\n      mload(0x40)\n      mload(0x40)\n      dup1\n      swap2\n      sub\n      swap1\n      log3\n        /* \"@openzeppelin/contracts/access/Ownable.sol\":2975:3099  {... */\n      pop\n        /* \"@openzeppelin/contracts/access/Ownable.sol\":2912:3099  function _transferOwnership(address newOwner) internal virtual {... */\n      pop\n      jump\t// out\n        /* \"@openzeppelin/contracts/utils/Context.sol\":656:752  function _msgSender() internal view virtual returns (address) {... */\n    tag_258:\n        /* \"@openzeppelin/contracts/utils/Context.sol\":709:716  address */\n      0x00\n        /* \"@openzeppelin/contracts/utils/Context.sol\":735:745  msg.sender */\n      caller\n        /* \"@openzeppelin/contracts/utils/Context.sol\":728:745  return msg.sender */\n      swap1\n      pop\n        /* \"@openzeppelin/contracts/utils/Context.sol\":656:752  function _msgSender() internal view virtual returns (address) {... */\n      swap1\n      jump\t// out\n        /* \"#utility.yul\":7:133   */\n    tag_265:\n        /* \"#utility.yul\":44:51   */\n      0x00\n        /* \"#utility.yul\":84:126   */\n      0xffffffffffffffffffffffffffffffffffffffff\n        /* \"#utility.yul\":77:82   */\n      dup3\n        /* \"#utility.yul\":73:127   */\n      and\n        /* \"#utility.yul\":62:127   */\n      swap1\n      pop\n        /* \"#utility.yul\":7:133   */\n      swap2\n      swap1\n      pop\n      jump\t// out\n        /* \"#utility.yul\":139:199   */\n    tag_266:\n        /* \"#utility.yul\":167:170   */\n      0x00\n        /* \"#utility.yul\":188:193   */\n      dup2\n        /* \"#utility.yul\":181:193   */\n      swap1\n      pop\n        /* \"#utility.yul\":139:199   */\n      swap2\n      swap1\n      pop\n      jump\t// out\n        /* \"#utility.yul\":205:347   */\n    tag_267:\n        /* \"#utility.yul\":255:264   */\n      0x00\n        /* \"#utility.yul\":288:341   */\n      tag_303\n        /* \"#utility.yul\":306:340   */\n      tag_304\n        /* \"#utility.yul\":315:339   */\n      tag_305\n        /* \"#utility.yul\":333:338   */\n      dup5\n        /* \"#utility.yul\":315:339   */\n      tag_265\n      jump\t// in\n    tag_305:\n        /* \"#utility.yul\":306:340   */\n      tag_266\n      jump\t// in\n    tag_304:\n        /* \"#utility.yul\":288:341   */\n      tag_265\n      jump\t// in\n    tag_303:\n        /* \"#utility.yul\":275:341   */\n      swap1\n      pop\n        /* \"#utility.yul\":205:347   */\n      swap2\n      swap1\n      pop\n      jump\t// out\n        /* \"#utility.yul\":353:479   */\n    tag_268:\n        /* \"#utility.yul\":403:412   */\n      0x00\n        /* \"#utility.yul\":436:473   */\n      tag_307\n        /* \"#utility.yul\":467:472   */\n      dup3\n        /* \"#utility.yul\":436:473   */\n      tag_267\n      jump\t// in\n    tag_307:\n        /* \"#utility.yul\":423:473   */\n      swap1\n      pop\n        /* \"#utility.yul\":353:479   */\n      swap2\n      swap1\n      pop\n      jump\t// out\n        /* \"#utility.yul\":485:625   */\n    tag_269:\n        /* \"#utility.yul\":549:558   */\n      0x00\n        /* \"#utility.yul\":582:619   */\n      tag_309\n        /* \"#utility.yul\":613:618   */\n      dup3\n        /* \"#utility.yul\":582:619   */\n      tag_268\n      jump\t// in\n    tag_309:\n        /* \"#utility.yul\":569:619   */\n      swap1\n      pop\n        /* \"#utility.yul\":485:625   */\n      swap2\n      swap1\n      pop\n      jump\t// out\n        /* \"#utility.yul\":631:790   */\n    tag_270:\n        /* \"#utility.yul\":732:783   */\n      tag_311\n        /* \"#utility.yul\":777:782   */\n      dup2\n        /* \"#utility.yul\":732:783   */\n      tag_269\n      jump\t// in\n    tag_311:\n        /* \"#utility.yul\":727:730   */\n      dup3\n        /* \"#utility.yul\":720:784   */\n      mstore\n        /* \"#utility.yul\":631:790   */\n      pop\n      pop\n      jump\t// out\n        /* \"#utility.yul\":796:1046   */\n    tag_27:\n        /* \"#utility.yul\":903:907   */\n      0x00\n        /* \"#utility.yul\":941:943   */\n      0x20\n        /* \"#utility.yul\":930:939   */\n      dup3\n        /* \"#utility.yul\":926:944   */\n      add\n        /* \"#utility.yul\":918:944   */\n      swap1\n      pop\n        /* \"#utility.yul\":954:1039   */\n      tag_313\n        /* \"#utility.yul\":1036:1037   */\n      0x00\n        /* \"#utility.yul\":1025:1034   */\n      dup4\n        /* \"#utility.yul\":1021:1038   */\n      add\n        /* \"#utility.yul\":1012:1018   */\n      dup5\n        /* \"#utility.yul\":954:1039   */\n      tag_270\n      jump\t// in\n    tag_313:\n        /* \"#utility.yul\":796:1046   */\n      swap3\n      swap2\n      pop\n      pop\n      jump\t// out\n        /* \"#utility.yul\":1133:1250   */\n    tag_272:\n        /* \"#utility.yul\":1242:1243   */\n      0x00\n        /* \"#utility.yul\":1239:1240   */\n      0x00\n        /* \"#utility.yul\":1232:1244   */\n      revert\n        /* \"#utility.yul\":1379:1456   */\n    tag_274:\n        /* \"#utility.yul\":1416:1423   */\n      0x00\n        /* \"#utility.yul\":1445:1450   */\n      dup2\n        /* \"#utility.yul\":1434:1450   */\n      swap1\n      pop\n        /* \"#utility.yul\":1379:1456   */\n      swap2\n      swap1\n      pop\n      jump\t// out\n        /* \"#utility.yul\":1462:1584   */\n    tag_275:\n        /* \"#utility.yul\":1535:1559   */\n      tag_319\n        /* \"#utility.yul\":1553:1558   */\n      dup2\n        /* \"#utility.yul\":1535:1559   */\n      tag_274\n      jump\t// in\n    tag_319:\n        /* \"#utility.yul\":1528:1533   */\n      dup2\n        /* \"#utility.yul\":1525:1560   */\n      eq\n        /* \"#utility.yul\":1515:1578   */\n      tag_320\n      jumpi\n        /* \"#utility.yul\":1574:1575   */\n      0x00\n        /* \"#utility.yul\":1571:1572   */\n      0x00\n        /* \"#utility.yul\":1564:1576   */\n      revert\n        /* \"#utility.yul\":1515:1578   */\n    tag_320:\n        /* \"#utility.yul\":1462:1584   */\n      pop\n      jump\t// out\n        /* \"#utility.yul\":1590:1729   */\n    tag_276:\n        /* \"#utility.yul\":1636:1641   */\n      0x00\n        /* \"#utility.yul\":1674:1680   */\n      dup2\n        /* \"#utility.yul\":1661:1681   */\n      calldataload\n        /* \"#utility.yul\":1652:1681   */\n      swap1\n      pop\n        /* \"#utility.yul\":1690:1723   */\n      tag_322\n        /* \"#utility.yul\":1717:1722   */\n      dup2\n        /* \"#utility.yul\":1690:1723   */\n      tag_275\n      jump\t// in\n    tag_322:\n        /* \"#utility.yul\":1590:1729   */\n      swap3\n      swap2\n      pop\n      pop\n      jump\t// out\n        /* \"#utility.yul\":1735:2209   */\n    tag_31:\n        /* \"#utility.yul\":1803:1809   */\n      0x00\n        /* \"#utility.yul\":1811:1817   */\n      0x00\n        /* \"#utility.yul\":1860:1862   */\n      0x40\n        /* \"#utility.yul\":1848:1857   */\n      dup4\n        /* \"#utility.yul\":1839:1846   */\n      dup6\n        /* \"#utility.yul\":1835:1858   */\n      sub\n        /* \"#utility.yul\":1831:1863   */\n      slt\n        /* \"#utility.yul\":1828:1947   */\n      iszero\n      tag_324\n      jumpi\n        /* \"#utility.yul\":1866:1945   */\n      tag_325\n      tag_272\n      jump\t// in\n    tag_325:\n        /* \"#utility.yul\":1828:1947   */\n    tag_324:\n        /* \"#utility.yul\":1986:1987   */\n      0x00\n        /* \"#utility.yul\":2011:2064   */\n      tag_326\n        /* \"#utility.yul\":2056:2063   */\n      dup6\n        /* \"#utility.yul\":2047:2053   */\n      dup3\n        /* \"#utility.yul\":2036:2045   */\n      dup7\n        /* \"#utility.yul\":2032:2054   */\n      add\n        /* \"#utility.yul\":2011:2064   */\n      tag_276\n      jump\t// in\n    tag_326:\n        /* \"#utility.yul\":2001:2064   */\n      swap3\n      pop\n        /* \"#utility.yul\":1957:2074   */\n      pop\n        /* \"#utility.yul\":2113:2115   */\n      0x20\n        /* \"#utility.yul\":2139:2192   */\n      tag_327\n        /* \"#utility.yul\":2184:2191   */\n      dup6\n        /* \"#utility.yul\":2175:2181   */\n      dup3\n        /* \"#utility.yul\":2164:2173   */\n      dup7\n        /* \"#utility.yul\":2160:2182   */\n      add\n        /* \"#utility.yul\":2139:2192   */\n      tag_276\n      jump\t// in\n    tag_327:\n        /* \"#utility.yul\":2129:2192   */\n      swap2\n      pop\n        /* \"#utility.yul\":2084:2202   */\n      pop\n        /* \"#utility.yul\":1735:2209   */\n      swap3\n      pop\n      swap3\n      swap1\n      pop\n      jump\t// out\n        /* \"#utility.yul\":2215:2834   */\n    tag_36:\n        /* \"#utility.yul\":2292:2298   */\n      0x00\n        /* \"#utility.yul\":2300:2306   */\n      0x00\n        /* \"#utility.yul\":2308:2314   */\n      0x00\n        /* \"#utility.yul\":2357:2359   */\n      0x60\n        /* \"#utility.yul\":2345:2354   */\n      dup5\n        /* \"#utility.yul\":2336:2343   */\n      dup7\n        /* \"#utility.yul\":2332:2355   */\n      sub\n        /* \"#utility.yul\":2328:2360   */\n      slt\n        /* \"#utility.yul\":2325:2444   */\n      iszero\n      tag_329\n      jumpi\n        /* \"#utility.yul\":2363:2442   */\n      tag_330\n      tag_272\n      jump\t// in\n    tag_330:\n        /* \"#utility.yul\":2325:2444   */\n    tag_329:\n        /* \"#utility.yul\":2483:2484   */\n      0x00\n        /* \"#utility.yul\":2508:2561   */\n      tag_331\n        /* \"#utility.yul\":2553:2560   */\n      dup7\n        /* \"#utility.yul\":2544:2550   */\n      dup3\n        /* \"#utility.yul\":2533:2542   */\n      dup8\n        /* \"#utility.yul\":2529:2551   */\n      add\n        /* \"#utility.yul\":2508:2561   */\n      tag_276\n      jump\t// in\n    tag_331:\n        /* \"#utility.yul\":2498:2561   */\n      swap4\n      pop\n        /* \"#utility.yul\":2454:2571   */\n      pop\n        /* \"#utility.yul\":2610:2612   */\n      0x20\n        /* \"#utility.yul\":2636:2689   */\n      tag_332\n        /* \"#utility.yul\":2681:2688   */\n      dup7\n        /* \"#utility.yul\":2672:2678   */\n      dup3\n        /* \"#utility.yul\":2661:2670   */\n      dup8\n        /* \"#utility.yul\":2657:2679   */\n      add\n        /* \"#utility.yul\":2636:2689   */\n      tag_276\n      jump\t// in\n    tag_332:\n        /* \"#utility.yul\":2626:2689   */\n      swap3\n      pop\n        /* \"#utility.yul\":2581:2699   */\n      pop\n        /* \"#utility.yul\":2738:2740   */\n      0x40\n        /* \"#utility.yul\":2764:2817   */\n      tag_333\n        /* \"#utility.yul\":2809:2816   */\n      dup7\n        /* \"#utility.yul\":2800:2806   */\n      dup3\n        /* \"#utility.yul\":2789:2798   */\n      dup8\n        /* \"#utility.yul\":2785:2807   */\n      add\n        /* \"#utility.yul\":2764:2817   */\n      tag_276\n      jump\t// in\n    tag_333:\n        /* \"#utility.yul\":2754:2817   */\n      swap2\n      pop\n        /* \"#utility.yul\":2709:2827   */\n      pop\n        /* \"#utility.yul\":2215:2834   */\n      swap3\n      pop\n      swap3\n      pop\n      swap3\n      jump\t// out\n        /* \"#utility.yul\":2840:2992   */\n    tag_277:\n        /* \"#utility.yul\":2916:2925   */\n      0x00\n        /* \"#utility.yul\":2949:2986   */\n      tag_335\n        /* \"#utility.yul\":2980:2985   */\n      dup3\n        /* \"#utility.yul\":2949:2986   */\n      tag_268\n      jump\t// in\n    tag_335:\n        /* \"#utility.yul\":2936:2986   */\n      swap1\n      pop\n        /* \"#utility.yul\":2840:2992   */\n      swap2\n      swap1\n      pop\n      jump\t// out\n        /* \"#utility.yul\":2998:3181   */\n    tag_278:\n        /* \"#utility.yul\":3111:3174   */\n      tag_337\n        /* \"#utility.yul\":3168:3173   */\n      dup2\n        /* \"#utility.yul\":3111:3174   */\n      tag_277\n      jump\t// in\n    tag_337:\n        /* \"#utility.yul\":3106:3109   */\n      dup3\n        /* \"#utility.yul\":3099:3175   */\n      mstore\n        /* \"#utility.yul\":2998:3181   */\n      pop\n      pop\n      jump\t// out\n        /* \"#utility.yul\":3187:3461   */\n    tag_49:\n        /* \"#utility.yul\":3306:3310   */\n      0x00\n        /* \"#utility.yul\":3344:3346   */\n      0x20\n        /* \"#utility.yul\":3333:3342   */\n      dup3\n        /* \"#utility.yul\":3329:3347   */\n      add\n        /* \"#utility.yul\":3321:3347   */\n      swap1\n      pop\n        /* \"#utility.yul\":3357:3454   */\n      tag_339\n        /* \"#utility.yul\":3451:3452   */\n      0x00\n        /* \"#utility.yul\":3440:3449   */\n      dup4\n        /* \"#utility.yul\":3436:3453   */\n      add\n        /* \"#utility.yul\":3427:3433   */\n      dup5\n        /* \"#utility.yul\":3357:3454   */\n      tag_278\n      jump\t// in\n    tag_339:\n        /* \"#utility.yul\":3187:3461   */\n      swap3\n      swap2\n      pop\n      pop\n      jump\t// out\n        /* \"#utility.yul\":3467:3618   */\n    tag_279:\n        /* \"#utility.yul\":3542:3551   */\n      0x00\n        /* \"#utility.yul\":3575:3612   */\n      tag_341\n        /* \"#utility.yul\":3606:3611   */\n      dup3\n        /* \"#utility.yul\":3575:3612   */\n      tag_268\n      jump\t// in\n    tag_341:\n        /* \"#utility.yul\":3562:3612   */\n      swap1\n      pop\n        /* \"#utility.yul\":3467:3618   */\n      swap2\n      swap1\n      pop\n      jump\t// out\n        /* \"#utility.yul\":3624:3805   */\n    tag_280:\n        /* \"#utility.yul\":3736:3798   */\n      tag_343\n        /* \"#utility.yul\":3792:3797   */\n      dup2\n        /* \"#utility.yul\":3736:3798   */\n      tag_279\n      jump\t// in\n    tag_343:\n        /* \"#utility.yul\":3731:3734   */\n      dup3\n        /* \"#utility.yul\":3724:3799   */\n      mstore\n        /* \"#utility.yul\":3624:3805   */\n      pop\n      pop\n      jump\t// out\n        /* \"#utility.yul\":3811:4083   */\n    tag_54:\n        /* \"#utility.yul\":3929:3933   */\n      0x00\n        /* \"#utility.yul\":3967:3969   */\n      0x20\n        /* \"#utility.yul\":3956:3965   */\n      dup3\n        /* \"#utility.yul\":3952:3970   */\n      add\n        /* \"#utility.yul\":3944:3970   */\n      swap1\n      pop\n        /* \"#utility.yul\":3980:4076   */\n      tag_345\n        /* \"#utility.yul\":4073:4074   */\n      0x00\n        /* \"#utility.yul\":4062:4071   */\n      dup4\n        /* \"#utility.yul\":4058:4075   */\n      add\n        /* \"#utility.yul\":4049:4055   */\n      dup5\n        /* \"#utility.yul\":3980:4076   */\n      tag_280\n      jump\t// in\n    tag_345:\n        /* \"#utility.yul\":3811:4083   */\n      swap3\n      swap2\n      pop\n      pop\n      jump\t// out\n        /* \"#utility.yul\":4089:4185   */\n    tag_281:\n        /* \"#utility.yul\":4126:4133   */\n      0x00\n        /* \"#utility.yul\":4155:4179   */\n      tag_347\n        /* \"#utility.yul\":4173:4178   */\n      dup3\n        /* \"#utility.yul\":4155:4179   */\n      tag_265\n      jump\t// in\n    tag_347:\n        /* \"#utility.yul\":4144:4179   */\n      swap1\n      pop\n        /* \"#utility.yul\":4089:4185   */\n      swap2\n      swap1\n      pop\n      jump\t// out\n        /* \"#utility.yul\":4191:4309   */\n    tag_282:\n        /* \"#utility.yul\":4278:4302   */\n      tag_349\n        /* \"#utility.yul\":4296:4301   */\n      dup2\n        /* \"#utility.yul\":4278:4302   */\n      tag_281\n      jump\t// in\n    tag_349:\n        /* \"#utility.yul\":4273:4276   */\n      dup3\n        /* \"#utility.yul\":4266:4303   */\n      mstore\n        /* \"#utility.yul\":4191:4309   */\n      pop\n      pop\n      jump\t// out\n        /* \"#utility.yul\":4315:4537   */\n    tag_59:\n        /* \"#utility.yul\":4408:4412   */\n      0x00\n        /* \"#utility.yul\":4446:4448   */\n      0x20\n        /* \"#utility.yul\":4435:4444   */\n      dup3\n        /* \"#utility.yul\":4431:4449   */\n      add\n        /* \"#utility.yul\":4423:4449   */\n      swap1\n      pop\n        /* \"#utility.yul\":4459:4530   */\n      tag_351\n        /* \"#utility.yul\":4527:4528   */\n      0x00\n        /* \"#utility.yul\":4516:4525   */\n      dup4\n        /* \"#utility.yul\":4512:4529   */\n      add\n        /* \"#utility.yul\":4503:4509   */\n      dup5\n        /* \"#utility.yul\":4459:4530   */\n      tag_282\n      jump\t// in\n    tag_351:\n        /* \"#utility.yul\":4315:4537   */\n      swap3\n      swap2\n      pop\n      pop\n      jump\t// out\n        /* \"#utility.yul\":4543:4665   */\n    tag_283:\n        /* \"#utility.yul\":4616:4640   */\n      tag_353\n        /* \"#utility.yul\":4634:4639   */\n      dup2\n        /* \"#utility.yul\":4616:4640   */\n      tag_281\n      jump\t// in\n    tag_353:\n        /* \"#utility.yul\":4609:4614   */\n      dup2\n        /* \"#utility.yul\":4606:4641   */\n      eq\n        /* \"#utility.yul\":4596:4659   */\n      tag_354\n      jumpi\n        /* \"#utility.yul\":4655:4656   */\n      0x00\n        /* \"#utility.yul\":4652:4653   */\n      0x00\n        /* \"#utility.yul\":4645:4657   */\n      revert\n        /* \"#utility.yul\":4596:4659   */\n    tag_354:\n        /* \"#utility.yul\":4543:4665   */\n      pop\n      jump\t// out\n        /* \"#utility.yul\":4671:4810   */\n    tag_284:\n        /* \"#utility.yul\":4717:4722   */\n      0x00\n        /* \"#utility.yul\":4755:4761   */\n      dup2\n        /* \"#utility.yul\":4742:4762   */\n      calldataload\n        /* \"#utility.yul\":4733:4762   */\n      swap1\n      pop\n        /* \"#utility.yul\":4771:4804   */\n      tag_356\n        /* \"#utility.yul\":4798:4803   */\n      dup2\n        /* \"#utility.yul\":4771:4804   */\n      tag_283\n      jump\t// in\n    tag_356:\n        /* \"#utility.yul\":4671:4810   */\n      swap3\n      swap2\n      pop\n      pop\n      jump\t// out\n        /* \"#utility.yul\":4816:5145   */\n    tag_79:\n        /* \"#utility.yul\":4875:4881   */\n      0x00\n        /* \"#utility.yul\":4924:4926   */\n      0x20\n        /* \"#utility.yul\":4912:4921   */\n      dup3\n        /* \"#utility.yul\":4903:4910   */\n      dup5\n        /* \"#utility.yul\":4899:4922   */\n      sub\n        /* \"#utility.yul\":4895:4927   */\n      slt\n        /* \"#utility.yul\":4892:5011   */\n      iszero\n      tag_358\n      jumpi\n        /* \"#utility.yul\":4930:5009   */\n      tag_359\n      tag_272\n      jump\t// in\n    tag_359:\n        /* \"#utility.yul\":4892:5011   */\n    tag_358:\n        /* \"#utility.yul\":5050:5051   */\n      0x00\n        /* \"#utility.yul\":5075:5128   */\n      tag_360\n        /* \"#utility.yul\":5120:5127   */\n      dup5\n        /* \"#utility.yul\":5111:5117   */\n      dup3\n        /* \"#utility.yul\":5100:5109   */\n      dup6\n        /* \"#utility.yul\":5096:5118   */\n      add\n        /* \"#utility.yul\":5075:5128   */\n      tag_284\n      jump\t// in\n    tag_360:\n        /* \"#utility.yul\":5065:5128   */\n      swap2\n      pop\n        /* \"#utility.yul\":5021:5138   */\n      pop\n        /* \"#utility.yul\":4816:5145   */\n      swap3\n      swap2\n      pop\n      pop\n      jump\t// out\n        /* \"#utility.yul\":5151:5269   */\n    tag_285:\n        /* \"#utility.yul\":5238:5262   */\n      tag_362\n        /* \"#utility.yul\":5256:5261   */\n      dup2\n        /* \"#utility.yul\":5238:5262   */\n      tag_274\n      jump\t// in\n    tag_362:\n        /* \"#utility.yul\":5233:5236   */\n      dup3\n        /* \"#utility.yul\":5226:5263   */\n      mstore\n        /* \"#utility.yul\":5151:5269   */\n      pop\n      pop\n      jump\t// out\n        /* \"#utility.yul\":5275:5497   */\n    tag_89:\n        /* \"#utility.yul\":5368:5372   */\n      0x00\n        /* \"#utility.yul\":5406:5408   */\n      0x20\n        /* \"#utility.yul\":5395:5404   */\n      dup3\n        /* \"#utility.yul\":5391:5409   */\n      add\n        /* \"#utility.yul\":5383:5409   */\n      swap1\n      pop\n        /* \"#utility.yul\":5419:5490   */\n      tag_364\n        /* \"#utility.yul\":5487:5488   */\n      0x00\n        /* \"#utility.yul\":5476:5485   */\n      dup4\n        /* \"#utility.yul\":5472:5489   */\n      add\n        /* \"#utility.yul\":5463:5469   */\n      dup5\n        /* \"#utility.yul\":5419:5490   */\n      tag_285\n      jump\t// in\n    tag_364:\n        /* \"#utility.yul\":5275:5497   */\n      swap3\n      swap2\n      pop\n      pop\n      jump\t// out\n        /* \"#utility.yul\":5503:5945   */\n    tag_95:\n        /* \"#utility.yul\":5652:5656   */\n      0x00\n        /* \"#utility.yul\":5690:5692   */\n      0x60\n        /* \"#utility.yul\":5679:5688   */\n      dup3\n        /* \"#utility.yul\":5675:5693   */\n      add\n        /* \"#utility.yul\":5667:5693   */\n      swap1\n      pop\n        /* \"#utility.yul\":5703:5774   */\n      tag_366\n        /* \"#utility.yul\":5771:5772   */\n      0x00\n        /* \"#utility.yul\":5760:5769   */\n      dup4\n        /* \"#utility.yul\":5756:5773   */\n      add\n        /* \"#utility.yul\":5747:5753   */\n      dup7\n        /* \"#utility.yul\":5703:5774   */\n      tag_282\n      jump\t// in\n    tag_366:\n        /* \"#utility.yul\":5784:5856   */\n      tag_367\n        /* \"#utility.yul\":5852:5854   */\n      0x20\n        /* \"#utility.yul\":5841:5850   */\n      dup4\n        /* \"#utility.yul\":5837:5855   */\n      add\n        /* \"#utility.yul\":5828:5834   */\n      dup6\n        /* \"#utility.yul\":5784:5856   */\n      tag_282\n      jump\t// in\n    tag_367:\n        /* \"#utility.yul\":5866:5938   */\n      tag_368\n        /* \"#utility.yul\":5934:5936   */\n      0x40\n        /* \"#utility.yul\":5923:5932   */\n      dup4\n        /* \"#utility.yul\":5919:5937   */\n      add\n        /* \"#utility.yul\":5910:5916   */\n      dup5\n        /* \"#utility.yul\":5866:5938   */\n      tag_285\n      jump\t// in\n    tag_368:\n        /* \"#utility.yul\":5503:5945   */\n      swap5\n      swap4\n      pop\n      pop\n      pop\n      pop\n      jump\t// out\n        /* \"#utility.yul\":5951:6041   */\n    tag_286:\n        /* \"#utility.yul\":5985:5992   */\n      0x00\n        /* \"#utility.yul\":6028:6033   */\n      dup2\n        /* \"#utility.yul\":6021:6034   */\n      iszero\n        /* \"#utility.yul\":6014:6035   */\n      iszero\n        /* \"#utility.yul\":6003:6035   */\n      swap1\n      pop\n        /* \"#utility.yul\":5951:6041   */\n      swap2\n      swap1\n      pop\n      jump\t// out\n        /* \"#utility.yul\":6047:6163   */\n    tag_287:\n        /* \"#utility.yul\":6117:6138   */\n      tag_371\n        /* \"#utility.yul\":6132:6137   */\n      dup2\n        /* \"#utility.yul\":6117:6138   */\n      tag_286\n      jump\t// in\n    tag_371:\n        /* \"#utility.yul\":6110:6115   */\n      dup2\n        /* \"#utility.yul\":6107:6139   */\n      eq\n        /* \"#utility.yul\":6097:6157   */\n      tag_372\n      jumpi\n        /* \"#utility.yul\":6153:6154   */\n      0x00\n        /* \"#utility.yul\":6150:6151   */\n      0x00\n        /* \"#utility.yul\":6143:6155   */\n      revert\n        /* \"#utility.yul\":6097:6157   */\n    tag_372:\n        /* \"#utility.yul\":6047:6163   */\n      pop\n      jump\t// out\n        /* \"#utility.yul\":6169:6306   */\n    tag_288:\n        /* \"#utility.yul\":6223:6228   */\n      0x00\n        /* \"#utility.yul\":6254:6260   */\n      dup2\n        /* \"#utility.yul\":6248:6261   */\n      mload\n        /* \"#utility.yul\":6239:6261   */\n      swap1\n      pop\n        /* \"#utility.yul\":6270:6300   */\n      tag_374\n        /* \"#utility.yul\":6294:6299   */\n      dup2\n        /* \"#utility.yul\":6270:6300   */\n      tag_287\n      jump\t// in\n    tag_374:\n        /* \"#utility.yul\":6169:6306   */\n      swap3\n      swap2\n      pop\n      pop\n      jump\t// out\n        /* \"#utility.yul\":6312:6657   */\n    tag_99:\n        /* \"#utility.yul\":6379:6385   */\n      0x00\n        /* \"#utility.yul\":6428:6430   */\n      0x20\n        /* \"#utility.yul\":6416:6425   */\n      dup3\n        /* \"#utility.yul\":6407:6414   */\n      dup5\n        /* \"#utility.yul\":6403:6426   */\n      sub\n        /* \"#utility.yul\":6399:6431   */\n      slt\n        /* \"#utility.yul\":6396:6515   */\n      iszero\n      tag_376\n      jumpi\n        /* \"#utility.yul\":6434:6513   */\n      tag_377\n      tag_272\n      jump\t// in\n    tag_377:\n        /* \"#utility.yul\":6396:6515   */\n    tag_376:\n        /* \"#utility.yul\":6554:6555   */\n      0x00\n        /* \"#utility.yul\":6579:6640   */\n      tag_378\n        /* \"#utility.yul\":6632:6639   */\n      dup5\n        /* \"#utility.yul\":6623:6629   */\n      dup3\n        /* \"#utility.yul\":6612:6621   */\n      dup6\n        /* \"#utility.yul\":6608:6630   */\n      add\n        /* \"#utility.yul\":6579:6640   */\n      tag_288\n      jump\t// in\n    tag_378:\n        /* \"#utility.yul\":6569:6640   */\n      swap2\n      pop\n        /* \"#utility.yul\":6525:6650   */\n      pop\n        /* \"#utility.yul\":6312:6657   */\n      swap3\n      swap2\n      pop\n      pop\n      jump\t// out\n        /* \"#utility.yul\":6663:6995   */\n    tag_101:\n        /* \"#utility.yul\":6784:6788   */\n      0x00\n        /* \"#utility.yul\":6822:6824   */\n      0x40\n        /* \"#utility.yul\":6811:6820   */\n      dup3\n        /* \"#utility.yul\":6807:6825   */\n      add\n        /* \"#utility.yul\":6799:6825   */\n      swap1\n      pop\n        /* \"#utility.yul\":6835:6906   */\n      tag_380\n        /* \"#utility.yul\":6903:6904   */\n      0x00\n        /* \"#utility.yul\":6892:6901   */\n      dup4\n        /* \"#utility.yul\":6888:6905   */\n      add\n        /* \"#utility.yul\":6879:6885   */\n      dup6\n        /* \"#utility.yul\":6835:6906   */\n      tag_282\n      jump\t// in\n    tag_380:\n        /* \"#utility.yul\":6916:6988   */\n      tag_381\n        /* \"#utility.yul\":6984:6986   */\n      0x20\n        /* \"#utility.yul\":6973:6982   */\n      dup4\n        /* \"#utility.yul\":6969:6987   */\n      add\n        /* \"#utility.yul\":6960:6966   */\n      dup5\n        /* \"#utility.yul\":6916:6988   */\n      tag_285\n      jump\t// in\n    tag_381:\n        /* \"#utility.yul\":6663:6995   */\n      swap4\n      swap3\n      pop\n      pop\n      pop\n      jump\t// out\n        /* \"#utility.yul\":7001:7181   */\n    tag_107:\n        /* \"#utility.yul\":7049:7126   */\n      0x4e487b7100000000000000000000000000000000000000000000000000000000\n        /* \"#utility.yul\":7046:7047   */\n      0x00\n        /* \"#utility.yul\":7039:7127   */\n      mstore\n        /* \"#utility.yul\":7146:7150   */\n      0x41\n        /* \"#utility.yul\":7143:7144   */\n      0x04\n        /* \"#utility.yul\":7136:7151   */\n      mstore\n        /* \"#utility.yul\":7170:7174   */\n      0x24\n        /* \"#utility.yul\":7167:7168   */\n      0x00\n        /* \"#utility.yul\":7160:7175   */\n      revert\n        /* \"#utility.yul\":7187:7367   */\n    tag_111:\n        /* \"#utility.yul\":7235:7312   */\n      0x4e487b7100000000000000000000000000000000000000000000000000000000\n        /* \"#utility.yul\":7232:7233   */\n      0x00\n        /* \"#utility.yul\":7225:7313   */\n      mstore\n        /* \"#utility.yul\":7332:7336   */\n      0x32\n        /* \"#utility.yul\":7329:7330   */\n      0x04\n        /* \"#utility.yul\":7322:7337   */\n      mstore\n        /* \"#utility.yul\":7356:7360   */\n      0x24\n        /* \"#utility.yul\":7353:7354   */\n      0x00\n        /* \"#utility.yul\":7346:7361   */\n      revert\n        /* \"#utility.yul\":7373:7553   */\n    tag_289:\n        /* \"#utility.yul\":7421:7498   */\n      0x4e487b7100000000000000000000000000000000000000000000000000000000\n        /* \"#utility.yul\":7418:7419   */\n      0x00\n        /* \"#utility.yul\":7411:7499   */\n      mstore\n        /* \"#utility.yul\":7518:7522   */\n      0x11\n        /* \"#utility.yul\":7515:7516   */\n      0x04\n        /* \"#utility.yul\":7508:7523   */\n      mstore\n        /* \"#utility.yul\":7542:7546   */\n      0x24\n        /* \"#utility.yul\":7539:7540   */\n      0x00\n        /* \"#utility.yul\":7532:7547   */\n      revert\n        /* \"#utility.yul\":7559:7750   */\n    tag_115:\n        /* \"#utility.yul\":7599:7602   */\n      0x00\n        /* \"#utility.yul\":7618:7638   */\n      tag_386\n        /* \"#utility.yul\":7636:7637   */\n      dup3\n        /* \"#utility.yul\":7618:7638   */\n      tag_274\n      jump\t// in\n    tag_386:\n        /* \"#utility.yul\":7613:7638   */\n      swap2\n      pop\n        /* \"#utility.yul\":7652:7672   */\n      tag_387\n        /* \"#utility.yul\":7670:7671   */\n      dup4\n        /* \"#utility.yul\":7652:7672   */\n      tag_274\n      jump\t// in\n    tag_387:\n        /* \"#utility.yul\":7647:7672   */\n      swap3\n      pop\n        /* \"#utility.yul\":7695:7696   */\n      dup3\n        /* \"#utility.yul\":7692:7693   */\n      dup3\n        /* \"#utility.yul\":7688:7697   */\n      add\n        /* \"#utility.yul\":7681:7697   */\n      swap1\n      pop\n        /* \"#utility.yul\":7716:7719   */\n      dup1\n        /* \"#utility.yul\":7713:7714   */\n      dup3\n        /* \"#utility.yul\":7710:7720   */\n      gt\n        /* \"#utility.yul\":7707:7743   */\n      iszero\n      tag_388\n      jumpi\n        /* \"#utility.yul\":7723:7741   */\n      tag_389\n      tag_289\n      jump\t// in\n    tag_389:\n        /* \"#utility.yul\":7707:7743   */\n    tag_388:\n        /* \"#utility.yul\":7559:7750   */\n      swap3\n      swap2\n      pop\n      pop\n      jump\t// out\n        /* \"#utility.yul\":7756:7870   */\n    tag_290:\n        /* \"#utility.yul\":7823:7829   */\n      0x00\n        /* \"#utility.yul\":7857:7862   */\n      dup2\n        /* \"#utility.yul\":7851:7863   */\n      mload\n        /* \"#utility.yul\":7841:7863   */\n      swap1\n      pop\n        /* \"#utility.yul\":7756:7870   */\n      swap2\n      swap1\n      pop\n      jump\t// out\n        /* \"#utility.yul\":7876:8060   */\n    tag_291:\n        /* \"#utility.yul\":7975:7986   */\n      0x00\n        /* \"#utility.yul\":8009:8015   */\n      dup3\n        /* \"#utility.yul\":8004:8007   */\n      dup3\n        /* \"#utility.yul\":7997:8016   */\n      mstore\n        /* \"#utility.yul\":8049:8053   */\n      0x20\n        /* \"#utility.yul\":8044:8047   */\n      dup3\n        /* \"#utility.yul\":8040:8054   */\n      add\n        /* \"#utility.yul\":8025:8054   */\n      swap1\n      pop\n        /* \"#utility.yul\":7876:8060   */\n      swap3\n      swap2\n      pop\n      pop\n      jump\t// out\n        /* \"#utility.yul\":8066:8198   */\n    tag_292:\n        /* \"#utility.yul\":8133:8137   */\n      0x00\n        /* \"#utility.yul\":8156:8159   */\n      dup2\n        /* \"#utility.yul\":8148:8159   */\n      swap1\n      pop\n        /* \"#utility.yul\":8186:8190   */\n      0x20\n        /* \"#utility.yul\":8181:8184   */\n      dup3\n        /* \"#utility.yul\":8177:8191   */\n      add\n        /* \"#utility.yul\":8169:8191   */\n      swap1\n      pop\n        /* \"#utility.yul\":8066:8198   */\n      swap2\n      swap1\n      pop\n      jump\t// out\n        /* \"#utility.yul\":8204:8312   */\n    tag_293:\n        /* \"#utility.yul\":8281:8305   */\n      tag_394\n        /* \"#utility.yul\":8299:8304   */\n      dup2\n        /* \"#utility.yul\":8281:8305   */\n      tag_281\n      jump\t// in\n    tag_394:\n        /* \"#utility.yul\":8276:8279   */\n      dup3\n        /* \"#utility.yul\":8269:8306   */\n      mstore\n        /* \"#utility.yul\":8204:8312   */\n      pop\n      pop\n      jump\t// out\n        /* \"#utility.yul\":8318:8497   */\n    tag_294:\n        /* \"#utility.yul\":8387:8397   */\n      0x00\n        /* \"#utility.yul\":8408:8454   */\n      tag_396\n        /* \"#utility.yul\":8450:8453   */\n      dup4\n        /* \"#utility.yul\":8442:8448   */\n      dup4\n        /* \"#utility.yul\":8408:8454   */\n      tag_293\n      jump\t// in\n    tag_396:\n        /* \"#utility.yul\":8486:8490   */\n      0x20\n        /* \"#utility.yul\":8481:8484   */\n      dup4\n        /* \"#utility.yul\":8477:8491   */\n      add\n        /* \"#utility.yul\":8463:8491   */\n      swap1\n      pop\n        /* \"#utility.yul\":8318:8497   */\n      swap3\n      swap2\n      pop\n      pop\n      jump\t// out\n        /* \"#utility.yul\":8503:8616   */\n    tag_295:\n        /* \"#utility.yul\":8573:8577   */\n      0x00\n        /* \"#utility.yul\":8605:8609   */\n      0x20\n        /* \"#utility.yul\":8600:8603   */\n      dup3\n        /* \"#utility.yul\":8596:8610   */\n      add\n        /* \"#utility.yul\":8588:8610   */\n      swap1\n      pop\n        /* \"#utility.yul\":8503:8616   */\n      swap2\n      swap1\n      pop\n      jump\t// out\n        /* \"#utility.yul\":8652:9384   */\n    tag_296:\n        /* \"#utility.yul\":8771:8774   */\n      0x00\n        /* \"#utility.yul\":8800:8854   */\n      tag_399\n        /* \"#utility.yul\":8848:8853   */\n      dup3\n        /* \"#utility.yul\":8800:8854   */\n      tag_290\n      jump\t// in\n    tag_399:\n        /* \"#utility.yul\":8870:8956   */\n      tag_400\n        /* \"#utility.yul\":8949:8955   */\n      dup2\n        /* \"#utility.yul\":8944:8947   */\n      dup6\n        /* \"#utility.yul\":8870:8956   */\n      tag_291\n      jump\t// in\n    tag_400:\n        /* \"#utility.yul\":8863:8956   */\n      swap4\n      pop\n        /* \"#utility.yul\":8980:9036   */\n      tag_401\n        /* \"#utility.yul\":9030:9035   */\n      dup4\n        /* \"#utility.yul\":8980:9036   */\n      tag_292\n      jump\t// in\n    tag_401:\n        /* \"#utility.yul\":9059:9066   */\n      dup1\n        /* \"#utility.yul\":9090:9091   */\n      0x00\n        /* \"#utility.yul\":9075:9359   */\n    tag_402:\n        /* \"#utility.yul\":9100:9106   */\n      dup4\n        /* \"#utility.yul\":9097:9098   */\n      dup2\n        /* \"#utility.yul\":9094:9107   */\n      lt\n        /* \"#utility.yul\":9075:9359   */\n      iszero\n      tag_404\n      jumpi\n        /* \"#utility.yul\":9176:9182   */\n      dup2\n        /* \"#utility.yul\":9170:9183   */\n      mload\n        /* \"#utility.yul\":9203:9266   */\n      tag_405\n        /* \"#utility.yul\":9262:9265   */\n      dup9\n        /* \"#utility.yul\":9247:9260   */\n      dup3\n        /* \"#utility.yul\":9203:9266   */\n      tag_294\n      jump\t// in\n    tag_405:\n        /* \"#utility.yul\":9196:9266   */\n      swap8\n      pop\n        /* \"#utility.yul\":9289:9349   */\n      tag_406\n        /* \"#utility.yul\":9342:9348   */\n      dup4\n        /* \"#utility.yul\":9289:9349   */\n      tag_295\n      jump\t// in\n    tag_406:\n        /* \"#utility.yul\":9279:9349   */\n      swap3\n      pop\n        /* \"#utility.yul\":9135:9359   */\n      pop\n        /* \"#utility.yul\":9122:9123   */\n      0x01\n        /* \"#utility.yul\":9119:9120   */\n      dup2\n        /* \"#utility.yul\":9115:9124   */\n      add\n        /* \"#utility.yul\":9110:9124   */\n      swap1\n      pop\n        /* \"#utility.yul\":9075:9359   */\n      jump(tag_402)\n    tag_404:\n        /* \"#utility.yul\":9079:9093   */\n      pop\n        /* \"#utility.yul\":9375:9378   */\n      dup6\n        /* \"#utility.yul\":9368:9378   */\n      swap4\n      pop\n        /* \"#utility.yul\":8776:9384   */\n      pop\n      pop\n      pop\n        /* \"#utility.yul\":8652:9384   */\n      swap3\n      swap2\n      pop\n      pop\n      jump\t// out\n        /* \"#utility.yul\":9390:10205   */\n    tag_117:\n        /* \"#utility.yul\":9645:9649   */\n      0x00\n        /* \"#utility.yul\":9683:9686   */\n      0xa0\n        /* \"#utility.yul\":9672:9681   */\n      dup3\n        /* \"#utility.yul\":9668:9687   */\n      add\n        /* \"#utility.yul\":9660:9687   */\n      swap1\n      pop\n        /* \"#utility.yul\":9697:9768   */\n      tag_408\n        /* \"#utility.yul\":9765:9766   */\n      0x00\n        /* \"#utility.yul\":9754:9763   */\n      dup4\n        /* \"#utility.yul\":9750:9767   */\n      add\n        /* \"#utility.yul\":9741:9747   */\n      dup9\n        /* \"#utility.yul\":9697:9768   */\n      tag_285\n      jump\t// in\n    tag_408:\n        /* \"#utility.yul\":9778:9850   */\n      tag_409\n        /* \"#utility.yul\":9846:9848   */\n      0x20\n        /* \"#utility.yul\":9835:9844   */\n      dup4\n        /* \"#utility.yul\":9831:9849   */\n      add\n        /* \"#utility.yul\":9822:9828   */\n      dup8\n        /* \"#utility.yul\":9778:9850   */\n      tag_285\n      jump\t// in\n    tag_409:\n        /* \"#utility.yul\":9897:9906   */\n      dup2\n        /* \"#utility.yul\":9891:9895   */\n      dup2\n        /* \"#utility.yul\":9887:9907   */\n      sub\n        /* \"#utility.yul\":9882:9884   */\n      0x40\n        /* \"#utility.yul\":9871:9880   */\n      dup4\n        /* \"#utility.yul\":9867:9885   */\n      add\n        /* \"#utility.yul\":9860:9908   */\n      mstore\n        /* \"#utility.yul\":9925:10033   */\n      tag_410\n        /* \"#utility.yul\":10028:10032   */\n      dup2\n        /* \"#utility.yul\":10019:10025   */\n      dup7\n        /* \"#utility.yul\":9925:10033   */\n      tag_296\n      jump\t// in\n    tag_410:\n        /* \"#utility.yul\":9917:10033   */\n      swap1\n      pop\n        /* \"#utility.yul\":10043:10115   */\n      tag_411\n        /* \"#utility.yul\":10111:10113   */\n      0x60\n        /* \"#utility.yul\":10100:10109   */\n      dup4\n        /* \"#utility.yul\":10096:10114   */\n      add\n        /* \"#utility.yul\":10087:10093   */\n      dup6\n        /* \"#utility.yul\":10043:10115   */\n      tag_282\n      jump\t// in\n    tag_411:\n        /* \"#utility.yul\":10125:10198   */\n      tag_412\n        /* \"#utility.yul\":10193:10196   */\n      0x80\n        /* \"#utility.yul\":10182:10191   */\n      dup4\n        /* \"#utility.yul\":10178:10197   */\n      add\n        /* \"#utility.yul\":10169:10175   */\n      dup5\n        /* \"#utility.yul\":10125:10198   */\n      tag_285\n      jump\t// in\n    tag_412:\n        /* \"#utility.yul\":9390:10205   */\n      swap7\n      swap6\n      pop\n      pop\n      pop\n      pop\n      pop\n      pop\n      jump\t// out\n        /* \"#utility.yul\":10211:10986   */\n    tag_135:\n        /* \"#utility.yul\":10444:10448   */\n      0x00\n        /* \"#utility.yul\":10482:10485   */\n      0xc0\n        /* \"#utility.yul\":10471:10480   */\n      dup3\n        /* \"#utility.yul\":10467:10486   */\n      add\n        /* \"#utility.yul\":10459:10486   */\n      swap1\n      pop\n        /* \"#utility.yul\":10496:10567   */\n      tag_414\n        /* \"#utility.yul\":10564:10565   */\n      0x00\n        /* \"#utility.yul\":10553:10562   */\n      dup4\n        /* \"#utility.yul\":10549:10566   */\n      add\n        /* \"#utility.yul\":10540:10546   */\n      dup10\n        /* \"#utility.yul\":10496:10567   */\n      tag_282\n      jump\t// in\n    tag_414:\n        /* \"#utility.yul\":10577:10649   */\n      tag_415\n        /* \"#utility.yul\":10645:10647   */\n      0x20\n        /* \"#utility.yul\":10634:10643   */\n      dup4\n        /* \"#utility.yul\":10630:10648   */\n      add\n        /* \"#utility.yul\":10621:10627   */\n      dup9\n        /* \"#utility.yul\":10577:10649   */\n      tag_285\n      jump\t// in\n    tag_415:\n        /* \"#utility.yul\":10659:10731   */\n      tag_416\n        /* \"#utility.yul\":10727:10729   */\n      0x40\n        /* \"#utility.yul\":10716:10725   */\n      dup4\n        /* \"#utility.yul\":10712:10730   */\n      add\n        /* \"#utility.yul\":10703:10709   */\n      dup8\n        /* \"#utility.yul\":10659:10731   */\n      tag_285\n      jump\t// in\n    tag_416:\n        /* \"#utility.yul\":10741:10813   */\n      tag_417\n        /* \"#utility.yul\":10809:10811   */\n      0x60\n        /* \"#utility.yul\":10798:10807   */\n      dup4\n        /* \"#utility.yul\":10794:10812   */\n      add\n        /* \"#utility.yul\":10785:10791   */\n      dup7\n        /* \"#utility.yul\":10741:10813   */\n      tag_285\n      jump\t// in\n    tag_417:\n        /* \"#utility.yul\":10823:10896   */\n      tag_418\n        /* \"#utility.yul\":10891:10894   */\n      0x80\n        /* \"#utility.yul\":10880:10889   */\n      dup4\n        /* \"#utility.yul\":10876:10895   */\n      add\n        /* \"#utility.yul\":10867:10873   */\n      dup6\n        /* \"#utility.yul\":10823:10896   */\n      tag_282\n      jump\t// in\n    tag_418:\n        /* \"#utility.yul\":10906:10979   */\n      tag_419\n        /* \"#utility.yul\":10974:10977   */\n      0xa0\n        /* \"#utility.yul\":10963:10972   */\n      dup4\n        /* \"#utility.yul\":10959:10978   */\n      add\n        /* \"#utility.yul\":10950:10956   */\n      dup5\n        /* \"#utility.yul\":10906:10979   */\n      tag_285\n      jump\t// in\n    tag_419:\n        /* \"#utility.yul\":10211:10986   */\n      swap8\n      swap7\n      pop\n      pop\n      pop\n      pop\n      pop\n      pop\n      pop\n      jump\t// out\n        /* \"#utility.yul\":10992:11135   */\n    tag_297:\n        /* \"#utility.yul\":11049:11054   */\n      0x00\n        /* \"#utility.yul\":11080:11086   */\n      dup2\n        /* \"#utility.yul\":11074:11087   */\n      mload\n        /* \"#utility.yul\":11065:11087   */\n      swap1\n      pop\n        /* \"#utility.yul\":11096:11129   */\n      tag_421\n        /* \"#utility.yul\":11123:11128   */\n      dup2\n        /* \"#utility.yul\":11096:11129   */\n      tag_275\n      jump\t// in\n    tag_421:\n        /* \"#utility.yul\":10992:11135   */\n      swap3\n      swap2\n      pop\n      pop\n      jump\t// out\n        /* \"#utility.yul\":11141:11804   */\n    tag_139:\n        /* \"#utility.yul\":11229:11235   */\n      0x00\n        /* \"#utility.yul\":11237:11243   */\n      0x00\n        /* \"#utility.yul\":11245:11251   */\n      0x00\n        /* \"#utility.yul\":11294:11296   */\n      0x60\n        /* \"#utility.yul\":11282:11291   */\n      dup5\n        /* \"#utility.yul\":11273:11280   */\n      dup7\n        /* \"#utility.yul\":11269:11292   */\n      sub\n        /* \"#utility.yul\":11265:11297   */\n      slt\n        /* \"#utility.yul\":11262:11381   */\n      iszero\n      tag_423\n      jumpi\n        /* \"#utility.yul\":11300:11379   */\n      tag_424\n      tag_272\n      jump\t// in\n    tag_424:\n        /* \"#utility.yul\":11262:11381   */\n    tag_423:\n        /* \"#utility.yul\":11420:11421   */\n      0x00\n        /* \"#utility.yul\":11445:11509   */\n      tag_425\n        /* \"#utility.yul\":11501:11508   */\n      dup7\n        /* \"#utility.yul\":11492:11498   */\n      dup3\n        /* \"#utility.yul\":11481:11490   */\n      dup8\n        /* \"#utility.yul\":11477:11499   */\n      add\n        /* \"#utility.yul\":11445:11509   */\n      tag_297\n      jump\t// in\n    tag_425:\n        /* \"#utility.yul\":11435:11509   */\n      swap4\n      pop\n        /* \"#utility.yul\":11391:11519   */\n      pop\n        /* \"#utility.yul\":11558:11560   */\n      0x20\n        /* \"#utility.yul\":11584:11648   */\n      tag_426\n        /* \"#utility.yul\":11640:11647   */\n      dup7\n        /* \"#utility.yul\":11631:11637   */\n      dup3\n        /* \"#utility.yul\":11620:11629   */\n      dup8\n        /* \"#utility.yul\":11616:11638   */\n      add\n        /* \"#utility.yul\":11584:11648   */\n      tag_297\n      jump\t// in\n    tag_426:\n        /* \"#utility.yul\":11574:11648   */\n      swap3\n      pop\n        /* \"#utility.yul\":11529:11658   */\n      pop\n        /* \"#utility.yul\":11697:11699   */\n      0x40\n        /* \"#utility.yul\":11723:11787   */\n      tag_427\n        /* \"#utility.yul\":11779:11786   */\n      dup7\n        /* \"#utility.yul\":11770:11776   */\n      dup3\n        /* \"#utility.yul\":11759:11768   */\n      dup8\n        /* \"#utility.yul\":11755:11777   */\n      add\n        /* \"#utility.yul\":11723:11787   */\n      tag_297\n      jump\t// in\n    tag_427:\n        /* \"#utility.yul\":11713:11787   */\n      swap2\n      pop\n        /* \"#utility.yul\":11668:11797   */\n      pop\n        /* \"#utility.yul\":11141:11804   */\n      swap3\n      pop\n      swap3\n      pop\n      swap3\n      jump\t// out\n        /* \"#utility.yul\":11810:12252   */\n    tag_141:\n        /* \"#utility.yul\":11959:11963   */\n      0x00\n        /* \"#utility.yul\":11997:11999   */\n      0x60\n        /* \"#utility.yul\":11986:11995   */\n      dup3\n        /* \"#utility.yul\":11982:12000   */\n      add\n        /* \"#utility.yul\":11974:12000   */\n      swap1\n      pop\n        /* \"#utility.yul\":12010:12081   */\n      tag_429\n        /* \"#utility.yul\":12078:12079   */\n      0x00\n        /* \"#utility.yul\":12067:12076   */\n      dup4\n        /* \"#utility.yul\":12063:12080   */\n      add\n        /* \"#utility.yul\":12054:12060   */\n      dup7\n        /* \"#utility.yul\":12010:12081   */\n      tag_285\n      jump\t// in\n    tag_429:\n        /* \"#utility.yul\":12091:12163   */\n      tag_430\n        /* \"#utility.yul\":12159:12161   */\n      0x20\n        /* \"#utility.yul\":12148:12157   */\n      dup4\n        /* \"#utility.yul\":12144:12162   */\n      add\n        /* \"#utility.yul\":12135:12141   */\n      dup6\n        /* \"#utility.yul\":12091:12163   */\n      tag_285\n      jump\t// in\n    tag_430:\n        /* \"#utility.yul\":12173:12245   */\n      tag_431\n        /* \"#utility.yul\":12241:12243   */\n      0x40\n        /* \"#utility.yul\":12230:12239   */\n      dup4\n        /* \"#utility.yul\":12226:12244   */\n      add\n        /* \"#utility.yul\":12217:12223   */\n      dup5\n        /* \"#utility.yul\":12173:12245   */\n      tag_285\n      jump\t// in\n    tag_431:\n        /* \"#utility.yul\":11810:12252   */\n      swap5\n      swap4\n      pop\n      pop\n      pop\n      pop\n      jump\t// out\n        /* \"#utility.yul\":12258:12401   */\n    tag_298:\n        /* \"#utility.yul\":12315:12320   */\n      0x00\n        /* \"#utility.yul\":12346:12352   */\n      dup2\n        /* \"#utility.yul\":12340:12353   */\n      mload\n        /* \"#utility.yul\":12331:12353   */\n      swap1\n      pop\n        /* \"#utility.yul\":12362:12395   */\n      tag_433\n        /* \"#utility.yul\":12389:12394   */\n      dup2\n        /* \"#utility.yul\":12362:12395   */\n      tag_283\n      jump\t// in\n    tag_433:\n        /* \"#utility.yul\":12258:12401   */\n      swap3\n      swap2\n      pop\n      pop\n      jump\t// out\n        /* \"#utility.yul\":12407:12758   */\n    tag_148:\n        /* \"#utility.yul\":12477:12483   */\n      0x00\n        /* \"#utility.yul\":12526:12528   */\n      0x20\n        /* \"#utility.yul\":12514:12523   */\n      dup3\n        /* \"#utility.yul\":12505:12512   */\n      dup5\n        /* \"#utility.yul\":12501:12524   */\n      sub\n        /* \"#utility.yul\":12497:12529   */\n      slt\n        /* \"#utility.yul\":12494:12613   */\n      iszero\n      tag_435\n      jumpi\n        /* \"#utility.yul\":12532:12611   */\n      tag_436\n      tag_272\n      jump\t// in\n    tag_436:\n        /* \"#utility.yul\":12494:12613   */\n    tag_435:\n        /* \"#utility.yul\":12652:12653   */\n      0x00\n        /* \"#utility.yul\":12677:12741   */\n      tag_437\n        /* \"#utility.yul\":12733:12740   */\n      dup5\n        /* \"#utility.yul\":12724:12730   */\n      dup3\n        /* \"#utility.yul\":12713:12722   */\n      dup6\n        /* \"#utility.yul\":12709:12731   */\n      add\n        /* \"#utility.yul\":12677:12741   */\n      tag_298\n      jump\t// in\n    tag_437:\n        /* \"#utility.yul\":12667:12741   */\n      swap2\n      pop\n        /* \"#utility.yul\":12623:12751   */\n      pop\n        /* \"#utility.yul\":12407:12758   */\n      swap3\n      swap2\n      pop\n      pop\n      jump\t// out\n        /* \"#utility.yul\":12764:13096   */\n    tag_150:\n        /* \"#utility.yul\":12885:12889   */\n      0x00\n        /* \"#utility.yul\":12923:12925   */\n      0x40\n        /* \"#utility.yul\":12912:12921   */\n      dup3\n        /* \"#utility.yul\":12908:12926   */\n      add\n        /* \"#utility.yul\":12900:12926   */\n      swap1\n      pop\n        /* \"#utility.yul\":12936:13007   */\n      tag_439\n        /* \"#utility.yul\":13004:13005   */\n      0x00\n        /* \"#utility.yul\":12993:13002   */\n      dup4\n        /* \"#utility.yul\":12989:13006   */\n      add\n        /* \"#utility.yul\":12980:12986   */\n      dup6\n        /* \"#utility.yul\":12936:13007   */\n      tag_282\n      jump\t// in\n    tag_439:\n        /* \"#utility.yul\":13017:13089   */\n      tag_440\n        /* \"#utility.yul\":13085:13087   */\n      0x20\n        /* \"#utility.yul\":13074:13083   */\n      dup4\n        /* \"#utility.yul\":13070:13088   */\n      add\n        /* \"#utility.yul\":13061:13067   */\n      dup5\n        /* \"#utility.yul\":13017:13089   */\n      tag_282\n      jump\t// in\n    tag_440:\n        /* \"#utility.yul\":12764:13096   */\n      swap4\n      swap3\n      pop\n      pop\n      pop\n      jump\t// out\n        /* \"#utility.yul\":13102:13453   */\n    tag_162:\n        /* \"#utility.yul\":13172:13178   */\n      0x00\n        /* \"#utility.yul\":13221:13223   */\n      0x20\n        /* \"#utility.yul\":13209:13218   */\n      dup3\n        /* \"#utility.yul\":13200:13207   */\n      dup5\n        /* \"#utility.yul\":13196:13219   */\n      sub\n        /* \"#utility.yul\":13192:13224   */\n      slt\n        /* \"#utility.yul\":13189:13308   */\n      iszero\n      tag_442\n      jumpi\n        /* \"#utility.yul\":13227:13306   */\n      tag_443\n      tag_272\n      jump\t// in\n    tag_443:\n        /* \"#utility.yul\":13189:13308   */\n    tag_442:\n        /* \"#utility.yul\":13347:13348   */\n      0x00\n        /* \"#utility.yul\":13372:13436   */\n      tag_444\n        /* \"#utility.yul\":13428:13435   */\n      dup5\n        /* \"#utility.yul\":13419:13425   */\n      dup3\n        /* \"#utility.yul\":13408:13417   */\n      dup6\n        /* \"#utility.yul\":13404:13426   */\n      add\n        /* \"#utility.yul\":13372:13436   */\n      tag_297\n      jump\t// in\n    tag_444:\n        /* \"#utility.yul\":13362:13436   */\n      swap2\n      pop\n        /* \"#utility.yul\":13318:13446   */\n      pop\n        /* \"#utility.yul\":13102:13453   */\n      swap3\n      swap2\n      pop\n      pop\n      jump\t// out\n        /* \"#utility.yul\":13459:13653   */\n    tag_173:\n        /* \"#utility.yul\":13499:13503   */\n      0x00\n        /* \"#utility.yul\":13519:13539   */\n      tag_446\n        /* \"#utility.yul\":13537:13538   */\n      dup3\n        /* \"#utility.yul\":13519:13539   */\n      tag_274\n      jump\t// in\n    tag_446:\n        /* \"#utility.yul\":13514:13539   */\n      swap2\n      pop\n        /* \"#utility.yul\":13553:13573   */\n      tag_447\n        /* \"#utility.yul\":13571:13572   */\n      dup4\n        /* \"#utility.yul\":13553:13573   */\n      tag_274\n      jump\t// in\n    tag_447:\n        /* \"#utility.yul\":13548:13573   */\n      swap3\n      pop\n        /* \"#utility.yul\":13597:13598   */\n      dup3\n        /* \"#utility.yul\":13594:13595   */\n      dup3\n        /* \"#utility.yul\":13590:13599   */\n      sub\n        /* \"#utility.yul\":13582:13599   */\n      swap1\n      pop\n        /* \"#utility.yul\":13621:13622   */\n      dup2\n        /* \"#utility.yul\":13615:13619   */\n      dup2\n        /* \"#utility.yul\":13612:13623   */\n      gt\n        /* \"#utility.yul\":13609:13646   */\n      iszero\n      tag_448\n      jumpi\n        /* \"#utility.yul\":13626:13644   */\n      tag_449\n      tag_289\n      jump\t// in\n    tag_449:\n        /* \"#utility.yul\":13609:13646   */\n    tag_448:\n        /* \"#utility.yul\":13459:13653   */\n      swap3\n      swap2\n      pop\n      pop\n      jump\t// out\n        /* \"#utility.yul\":13659:13991   */\n    tag_175:\n        /* \"#utility.yul\":13780:13784   */\n      0x00\n        /* \"#utility.yul\":13818:13820   */\n      0x40\n        /* \"#utility.yul\":13807:13816   */\n      dup3\n        /* \"#utility.yul\":13803:13821   */\n      add\n        /* \"#utility.yul\":13795:13821   */\n      swap1\n      pop\n        /* \"#utility.yul\":13831:13902   */\n      tag_451\n        /* \"#utility.yul\":13899:13900   */\n      0x00\n        /* \"#utility.yul\":13888:13897   */\n      dup4\n        /* \"#utility.yul\":13884:13901   */\n      add\n        /* \"#utility.yul\":13875:13881   */\n      dup6\n        /* \"#utility.yul\":13831:13902   */\n      tag_285\n      jump\t// in\n    tag_451:\n        /* \"#utility.yul\":13912:13984   */\n      tag_452\n        /* \"#utility.yul\":13980:13982   */\n      0x20\n        /* \"#utility.yul\":13969:13978   */\n      dup4\n        /* \"#utility.yul\":13965:13983   */\n      add\n        /* \"#utility.yul\":13956:13962   */\n      dup5\n        /* \"#utility.yul\":13912:13984   */\n      tag_285\n      jump\t// in\n    tag_452:\n        /* \"#utility.yul\":13659:13991   */\n      swap4\n      swap3\n      pop\n      pop\n      pop\n      jump\t// out\n\n    auxdata: 0xa264697066735822122000d6a9840de21f245c4800334debf494978e5cd0954c54460498a56806b4774064736f6c634300081c0033\n}\n",
				"bytecode": {
					"linkReferences": {},
					"object": "608060405234801561000f575f5ffd5b50604051612c6c380380612c6c83398181016040528101906100319190610542565b805f73ffffffffffffffffffffffffffffffffffffffff168173ffffffffffffffffffffffffffffffffffffffff16036100a2575f6040517f1e4fbdf700000000000000000000000000000000000000000000000000000000815260040161009991906105da565b60405180910390fd5b6100b18161042360201b60201c565b505f73ffffffffffffffffffffffffffffffffffffffff168673ffffffffffffffffffffffffffffffffffffffff1603610120576040517f08c379a00000000000000000000000000000000000000000000000000000000081526004016101179061064d565b60405180910390fd5b5f73ffffffffffffffffffffffffffffffffffffffff168573ffffffffffffffffffffffffffffffffffffffff160361018e576040517f08c379a0000000000000000000000000000000000000000000000000000000008152600401610185906106b5565b60405180910390fd5b5f73ffffffffffffffffffffffffffffffffffffffff168473ffffffffffffffffffffffffffffffffffffffff16036101fc576040517f08c379a00000000000000000000000000000000000000000000000000000000081526004016101f39061071d565b60405180910390fd5b5f73ffffffffffffffffffffffffffffffffffffffff168373ffffffffffffffffffffffffffffffffffffffff160361026a576040517f08c379a000000000000000000000000000000000000000000000000000000000815260040161026190610785565b60405180910390fd5b5f73ffffffffffffffffffffffffffffffffffffffff168273ffffffffffffffffffffffffffffffffffffffff16036102d8576040517f08c379a00000000000000000000000000000000000000000000000000000000081526004016102cf906107ed565b60405180910390fd5b8560015f6101000a81548173ffffffffffffffffffffffffffffffffffffffff021916908373ffffffffffffffffffffffffffffffffffffffff1602179055508460025f6101000a81548173ffffffffffffffffffffffffffffffffffffffff021916908373ffffffffffffffffffffffffffffffffffffffff1602179055508360035f6101000a81548173ffffffffffffffffffffffffffffffffffffffff021916908373ffffffffffffffffffffffffffffffffffffffff1602179055508260045f6101000a81548173ffffffffffffffffffffffffffffffffffffffff021916908373ffffffffffffffffffffffffffffffffffffffff1602179055508160055f6101000a81548173ffffffffffffffffffffffffffffffffffffffff021916908373ffffffffffffffffffffffffffffffffffffffff16021790555050505050505061080b565b5f5f5f9054906101000a900473ffffffffffffffffffffffffffffffffffffffff169050815f5f6101000a81548173ffffffffffffffffffffffffffffffffffffffff021916908373ffffffffffffffffffffffffffffffffffffffff1602179055508173ffffffffffffffffffffffffffffffffffffffff168173ffffffffffffffffffffffffffffffffffffffff167f8be0079c531659141344cd1fd0a4f28419497f9722a3daafe3b4186f6b6457e060405160405180910390a35050565b5f5ffd5b5f73ffffffffffffffffffffffffffffffffffffffff82169050919050565b5f610511826104e8565b9050919050565b61052181610507565b811461052b575f5ffd5b50565b5f8151905061053c81610518565b92915050565b5f5f5f5f5f5f60c0878903121561055c5761055b6104e4565b5b5f61056989828a0161052e565b965050602061057a89828a0161052e565b955050604061058b89828a0161052e565b945050606061059c89828a0161052e565b93505060806105ad89828a0161052e565b92505060a06105be89828a0161052e565b9150509295509295509295565b6105d481610507565b82525050565b5f6020820190506105ed5f8301846105cb565b92915050565b5f82825260208201905092915050565b7f496e76616c69642055423420746f6b656e2061646472657373000000000000005f82015250565b5f6106376019836105f3565b915061064282610603565b602082019050919050565b5f6020820190508181035f8301526106648161062b565b9050919050565b7f496e76616c69642051344120746f6b656e2061646472657373000000000000005f82015250565b5f61069f6019836105f3565b91506106aa8261066b565b602082019050919050565b5f6020820190508181035f8301526106cc81610693565b9050919050565b7f496e76616c696420726f757465722061646472657373000000000000000000005f82015250565b5f6107076016836105f3565b9150610712826106d3565b602082019050919050565b5f6020820190508181035f830152610734816106fb565b9050919050565b7f496e76616c696420666163746f727920616464726573730000000000000000005f82015250565b5f61076f6017836105f3565b915061077a8261073b565b602082019050919050565b5f6020820190508181035f83015261079c81610763565b9050919050565b7f496e76616c6964206c69717569646974792077616c6c657400000000000000005f82015250565b5f6107d76018836105f3565b91506107e2826107a3565b602082019050919050565b5f6020820190508181035f830152610804816107cb565b9050919050565b612454806108185f395ff3fe6080604052600436106100eb575f3560e01c80638da5cb5b11610089578063d469801611610058578063d4698016146102a6578063f2fde38b146102d0578063fc0d6874146102f8578063ffe6f79a14610320576100f2565b80638da5cb5b1461020257806393565b4c1461022c5780639d81a8aa14610256578063a43d6c1b1461027e576100f2565b80636cfbbb75116100c55780636cfbbb7514610170578063715018a614610198578063735de9f7146101ae5780638bdb2afa146101d8576100f2565b806310d67098146100f65780633b78439a1461012057806358f1176314610148576100f2565b366100f257005b5f5ffd5b348015610101575f5ffd5b5061010a61034a565b6040516101179190611db0565b60405180910390f35b34801561012b575f5ffd5b5061014660048036038101906101419190611e00565b61036f565b005b348015610153575f5ffd5b5061016e60048036038101906101699190611e3e565b610769565b005b34801561017b575f5ffd5b5061019660048036038101906101919190611e3e565b610a4c565b005b3480156101a3575f5ffd5b506101ac610f37565b005b3480156101b9575f5ffd5b506101c2610f4a565b6040516101cf9190611eae565b60405180910390f35b3480156101e3575f5ffd5b506101ec610f6f565b6040516101f99190611ee7565b60405180910390f35b34801561020d575f5ffd5b50610216610f94565b6040516102239190611f20565b60405180910390f35b348015610237575f5ffd5b50610240610fbb565b60405161024d9190611db0565b60405180910390f35b348015610261575f5ffd5b5061027c60048036038101906102779190611e3e565b610fe0565b005b348015610289575f5ffd5b506102a4600480360381019061029f9190611e00565b6114cb565b005b3480156102b1575f5ffd5b506102ba6118c5565b6040516102c79190611f20565b60405180910390f35b3480156102db575f5ffd5b506102f660048036038101906102f19190611f63565b6118ea565b005b348015610303575f5ffd5b5061031e60048036038101906103199190611e3e565b6118fe565b005b34801561032b575f5ffd5b50610334611be1565b6040516103419190611f9d565b60405180910390f35b60015f9054906101000a900473ffffffffffffffffffffffffffffffffffffffff1681565b610377611be7565b60025f9054906101000a900473ffffffffffffffffffffffffffffffffffffffff1673ffffffffffffffffffffffffffffffffffffffff166323b872dd3330856040518463ffffffff1660e01b81526004016103d593929190611fb6565b6020604051808303815f875af11580156103f1573d5f5f3e3d5ffd5b505050506040513d601f19601f820116820180604052508101906104159190612020565b5060025f9054906101000a900473ffffffffffffffffffffffffffffffffffffffff1673ffffffffffffffffffffffffffffffffffffffff1663095ea7b360035f9054906101000a900473ffffffffffffffffffffffffffffffffffffffff16846040518363ffffffff1660e01b815260040161049392919061204b565b6020604051808303815f875af11580156104af573d5f5f3e3d5ffd5b505050506040513d601f19601f820116820180604052508101906104d39190612020565b505f600267ffffffffffffffff8111156104f0576104ef612072565b5b60405190808252806020026020018201604052801561051e5781602001602082028036833780820191505090505b50905060025f9054906101000a900473ffffffffffffffffffffffffffffffffffffffff16815f815181106105565761055561209f565b5b602002602001019073ffffffffffffffffffffffffffffffffffffffff16908173ffffffffffffffffffffffffffffffffffffffff168152505060015f9054906101000a900473ffffffffffffffffffffffffffffffffffffffff16816001815181106105c6576105c561209f565b5b602002602001019073ffffffffffffffffffffffffffffffffffffffff16908173ffffffffffffffffffffffffffffffffffffffff168152505060035f9054906101000a900473ffffffffffffffffffffffffffffffffffffffff1673ffffffffffffffffffffffffffffffffffffffff16635c11d79584848460055f9054906101000a900473ffffffffffffffffffffffffffffffffffffffff166104b04261067091906120f9565b6040518663ffffffff1660e01b81526004016106909594939291906121e3565b5f604051808303815f87803b1580156106a7575f5ffd5b505af11580156106b9573d5f5f3e3d5ffd5b5050505060015f9054906101000a900473ffffffffffffffffffffffffffffffffffffffff1673ffffffffffffffffffffffffffffffffffffffff1660025f9054906101000a900473ffffffffffffffffffffffffffffffffffffffff1673ffffffffffffffffffffffffffffffffffffffff167ff7ca15d85d6a1558514fff5c2f5a3f009726b7f5dfc61a3f80b7107941beaf1a8560405161075c9190611f9d565b60405180910390a3505050565b610771611be7565b5f83905060025f9054906101000a900473ffffffffffffffffffffffffffffffffffffffff1673ffffffffffffffffffffffffffffffffffffffff166323b872dd3330846040518463ffffffff1660e01b81526004016107d393929190611fb6565b6020604051808303815f875af11580156107ef573d5f5f3e3d5ffd5b505050506040513d601f19601f820116820180604052508101906108139190612020565b5060025f9054906101000a900473ffffffffffffffffffffffffffffffffffffffff1673ffffffffffffffffffffffffffffffffffffffff1663095ea7b360035f9054906101000a900473ffffffffffffffffffffffffffffffffffffffff16836040518363ffffffff1660e01b815260040161089192919061204b565b6020604051808303815f875af11580156108ad573d5f5f3e3d5ffd5b505050506040513d601f19601f820116820180604052508101906108d19190612020565b505f5f5f60035f9054906101000a900473ffffffffffffffffffffffffffffffffffffffff1673ffffffffffffffffffffffffffffffffffffffff1663f305d7194760025f9054906101000a900473ffffffffffffffffffffffffffffffffffffffff16878a8a60055f9054906101000a900473ffffffffffffffffffffffffffffffffffffffff166104b04261096891906120f9565b6040518863ffffffff1660e01b81526004016109899695949392919061223b565b60606040518083038185885af11580156109a5573d5f5f3e3d5ffd5b50505050506040513d601f19601f820116820180604052508101906109ca91906122ae565b92509250925060025f9054906101000a900473ffffffffffffffffffffffffffffffffffffffff1673ffffffffffffffffffffffffffffffffffffffff167f64b83944e79c3ce8d4c297411de637c3e102d064677aac0c163976ebdcd6f50e848484604051610a3b939291906122fe565b60405180910390a250505050505050565b610a54611be7565b5f60045f9054906101000a900473ffffffffffffffffffffffffffffffffffffffff1673ffffffffffffffffffffffffffffffffffffffff1663e6a4390560015f9054906101000a900473ffffffffffffffffffffffffffffffffffffffff1660035f9054906101000a900473ffffffffffffffffffffffffffffffffffffffff1673ffffffffffffffffffffffffffffffffffffffff1663ad5c46486040518163ffffffff1660e01b8152600401602060405180830381865afa158015610b1e573d5f5f3e3d5ffd5b505050506040513d601f19601f82011682018060405250810190610b429190612347565b6040518363ffffffff1660e01b8152600401610b5f929190612372565b602060405180830381865afa158015610b7a573d5f5f3e3d5ffd5b505050506040513d601f19601f82011682018060405250810190610b9e9190612347565b90508073ffffffffffffffffffffffffffffffffffffffff1663095ea7b360035f9054906101000a900473ffffffffffffffffffffffffffffffffffffffff16866040518363ffffffff1660e01b8152600401610bfc92919061204b565b6020604051808303815f875af1158015610c18573d5f5f3e3d5ffd5b505050506040513d601f19601f82011682018060405250810190610c3c9190612020565b505f60015f9054906101000a900473ffffffffffffffffffffffffffffffffffffffff1673ffffffffffffffffffffffffffffffffffffffff166370a0823160055f9054906101000a900473ffffffffffffffffffffffffffffffffffffffff166040518263ffffffff1660e01b8152600401610cb99190611f20565b602060405180830381865afa158015610cd4573d5f5f3e3d5ffd5b505050506040513d601f19601f82011682018060405250810190610cf89190612399565b90505f60035f9054906101000a900473ffffffffffffffffffffffffffffffffffffffff1673ffffffffffffffffffffffffffffffffffffffff1663af2979eb60015f9054906101000a900473ffffffffffffffffffffffffffffffffffffffff1688888860055f9054906101000a900473ffffffffffffffffffffffffffffffffffffffff166104b042610d8d91906120f9565b6040518763ffffffff1660e01b8152600401610dae9695949392919061223b565b6020604051808303815f875af1158015610dca573d5f5f3e3d5ffd5b505050506040513d601f19601f82011682018060405250810190610dee9190612399565b90505f60015f9054906101000a900473ffffffffffffffffffffffffffffffffffffffff1673ffffffffffffffffffffffffffffffffffffffff166370a0823160055f9054906101000a900473ffffffffffffffffffffffffffffffffffffffff166040518263ffffffff1660e01b8152600401610e6c9190611f20565b602060405180830381865afa158015610e87573d5f5f3e3d5ffd5b505050506040513d601f19601f82011682018060405250810190610eab9190612399565b90505f8382610eba91906123c4565b905060015f9054906101000a900473ffffffffffffffffffffffffffffffffffffffff1673ffffffffffffffffffffffffffffffffffffffff167f96cd817c6329656790ef8fba7675405193677d39619571282f5e21f3a98cd0598285604051610f259291906123f7565b60405180910390a25050505050505050565b610f3f611be7565b610f485f611c6e565b565b60035f9054906101000a900473ffffffffffffffffffffffffffffffffffffffff1681565b60045f9054906101000a900473ffffffffffffffffffffffffffffffffffffffff1681565b5f5f5f9054906101000a900473ffffffffffffffffffffffffffffffffffffffff16905090565b60025f9054906101000a900473ffffffffffffffffffffffffffffffffffffffff1681565b610fe8611be7565b5f60045f9054906101000a900473ffffffffffffffffffffffffffffffffffffffff1673ffffffffffffffffffffffffffffffffffffffff1663e6a4390560025f9054906101000a900473ffffffffffffffffffffffffffffffffffffffff1660035f9054906101000a900473ffffffffffffffffffffffffffffffffffffffff1673ffffffffffffffffffffffffffffffffffffffff1663ad5c46486040518163ffffffff1660e01b8152600401602060405180830381865afa1580156110b2573d5f5f3e3d5ffd5b505050506040513d601f19601f820116820180604052508101906110d69190612347565b6040518363ffffffff1660e01b81526004016110f3929190612372565b602060405180830381865afa15801561110e573d5f5f3e3d5ffd5b505050506040513d601f19601f820116820180604052508101906111329190612347565b90508073ffffffffffffffffffffffffffffffffffffffff1663095ea7b360035f9054906101000a900473ffffffffffffffffffffffffffffffffffffffff16866040518363ffffffff1660e01b815260040161119092919061204b565b6020604051808303815f875af11580156111ac573d5f5f3e3d5ffd5b505050506040513d601f19601f820116820180604052508101906111d09190612020565b505f60025f9054906101000a900473ffffffffffffffffffffffffffffffffffffffff1673ffffffffffffffffffffffffffffffffffffffff166370a0823160055f9054906101000a900473ffffffffffffffffffffffffffffffffffffffff166040518263ffffffff1660e01b815260040161124d9190611f20565b602060405180830381865afa158015611268573d5f5f3e3d5ffd5b505050506040513d601f19601f8201168201806040525081019061128c9190612399565b90505f60035f9054906101000a900473ffffffffffffffffffffffffffffffffffffffff1673ffffffffffffffffffffffffffffffffffffffff1663af2979eb60025f9054906101000a900473ffffffffffffffffffffffffffffffffffffffff1688888860055f9054906101000a900473ffffffffffffffffffffffffffffffffffffffff166104b04261132191906120f9565b6040518763ffffffff1660e01b81526004016113429695949392919061223b565b6020604051808303815f875af115801561135e573d5f5f3e3d5ffd5b505050506040513d601f19601f820116820180604052508101906113829190612399565b90505f60025f9054906101000a900473ffffffffffffffffffffffffffffffffffffffff1673ffffffffffffffffffffffffffffffffffffffff166370a0823160055f9054906101000a900473ffffffffffffffffffffffffffffffffffffffff166040518263ffffffff1660e01b81526004016114009190611f20565b602060405180830381865afa15801561141b573d5f5f3e3d5ffd5b505050506040513d601f19601f8201168201806040525081019061143f9190612399565b90505f838261144e91906123c4565b905060025f9054906101000a900473ffffffffffffffffffffffffffffffffffffffff1673ffffffffffffffffffffffffffffffffffffffff167f96cd817c6329656790ef8fba7675405193677d39619571282f5e21f3a98cd05982856040516114b99291906123f7565b60405180910390a25050505050505050565b6114d3611be7565b60015f9054906101000a900473ffffffffffffffffffffffffffffffffffffffff1673ffffffffffffffffffffffffffffffffffffffff166323b872dd3330856040518463ffffffff1660e01b815260040161153193929190611fb6565b6020604051808303815f875af115801561154d573d5f5f3e3d5ffd5b505050506040513d601f19601f820116820180604052508101906115719190612020565b5060015f9054906101000a900473ffffffffffffffffffffffffffffffffffffffff1673ffffffffffffffffffffffffffffffffffffffff1663095ea7b360035f9054906101000a900473ffffffffffffffffffffffffffffffffffffffff16846040518363ffffffff1660e01b81526004016115ef92919061204b565b6020604051808303815f875af115801561160b573d5f5f3e3d5ffd5b505050506040513d601f19601f8201168201806040525081019061162f9190612020565b505f600267ffffffffffffffff81111561164c5761164b612072565b5b60405190808252806020026020018201604052801561167a5781602001602082028036833780820191505090505b50905060015f9054906101000a900473ffffffffffffffffffffffffffffffffffffffff16815f815181106116b2576116b161209f565b5b602002602001019073ffffffffffffffffffffffffffffffffffffffff16908173ffffffffffffffffffffffffffffffffffffffff168152505060025f9054906101000a900473ffffffffffffffffffffffffffffffffffffffff16816001815181106117225761172161209f565b5b602002602001019073ffffffffffffffffffffffffffffffffffffffff16908173ffffffffffffffffffffffffffffffffffffffff168152505060035f9054906101000a900473ffffffffffffffffffffffffffffffffffffffff1673ffffffffffffffffffffffffffffffffffffffff16635c11d79584848460055f9054906101000a900473ffffffffffffffffffffffffffffffffffffffff166104b0426117cc91906120f9565b6040518663ffffffff1660e01b81526004016117ec9594939291906121e3565b5f604051808303815f87803b158015611803575f5ffd5b505af1158015611815573d5f5f3e3d5ffd5b5050505060025f9054906101000a900473ffffffffffffffffffffffffffffffffffffffff1673ffffffffffffffffffffffffffffffffffffffff1660015f9054906101000a900473ffffffffffffffffffffffffffffffffffffffff1673ffffffffffffffffffffffffffffffffffffffff167ff7ca15d85d6a1558514fff5c2f5a3f009726b7f5dfc61a3f80b7107941beaf1a856040516118b89190611f9d565b60405180910390a3505050565b60055f9054906101000a900473ffffffffffffffffffffffffffffffffffffffff1681565b6118f2611be7565b6118fb81611c6e565b50565b611906611be7565b5f83905060015f9054906101000a900473ffffffffffffffffffffffffffffffffffffffff1673ffffffffffffffffffffffffffffffffffffffff166323b872dd3330846040518463ffffffff1660e01b815260040161196893929190611fb6565b6020604051808303815f875af1158015611984573d5f5f3e3d5ffd5b505050506040513d601f19601f820116820180604052508101906119a89190612020565b5060015f9054906101000a900473ffffffffffffffffffffffffffffffffffffffff1673ffffffffffffffffffffffffffffffffffffffff1663095ea7b360035f9054906101000a900473ffffffffffffffffffffffffffffffffffffffff16836040518363ffffffff1660e01b8152600401611a2692919061204b565b6020604051808303815f875af1158015611a42573d5f5f3e3d5ffd5b505050506040513d601f19601f82011682018060405250810190611a669190612020565b505f5f5f60035f9054906101000a900473ffffffffffffffffffffffffffffffffffffffff1673ffffffffffffffffffffffffffffffffffffffff1663f305d7194760015f9054906101000a900473ffffffffffffffffffffffffffffffffffffffff16878a8a60055f9054906101000a900473ffffffffffffffffffffffffffffffffffffffff166104b042611afd91906120f9565b6040518863ffffffff1660e01b8152600401611b1e9695949392919061223b565b60606040518083038185885af1158015611b3a573d5f5f3e3d5ffd5b50505050506040513d601f19601f82011682018060405250810190611b5f91906122ae565b92509250925060015f9054906101000a900473ffffffffffffffffffffffffffffffffffffffff1673ffffffffffffffffffffffffffffffffffffffff167f64b83944e79c3ce8d4c297411de637c3e102d064677aac0c163976ebdcd6f50e848484604051611bd0939291906122fe565b60405180910390a250505050505050565b6104b081565b611bef611d2f565b73ffffffffffffffffffffffffffffffffffffffff16611c0d610f94565b73ffffffffffffffffffffffffffffffffffffffff1614611c6c57611c30611d2f565b6040517f118cdaa7000000000000000000000000000000000000000000000000000000008152600401611c639190611f20565b60405180910390fd5b565b5f5f5f9054906101000a900473ffffffffffffffffffffffffffffffffffffffff169050815f5f6101000a81548173ffffffffffffffffffffffffffffffffffffffff021916908373ffffffffffffffffffffffffffffffffffffffff1602179055508173ffffffffffffffffffffffffffffffffffffffff168173ffffffffffffffffffffffffffffffffffffffff167f8be0079c531659141344cd1fd0a4f28419497f9722a3daafe3b4186f6b6457e060405160405180910390a35050565b5f33905090565b5f73ffffffffffffffffffffffffffffffffffffffff82169050919050565b5f819050919050565b5f611d78611d73611d6e84611d36565b611d55565b611d36565b9050919050565b5f611d8982611d5e565b9050919050565b5f611d9a82611d7f565b9050919050565b611daa81611d90565b82525050565b5f602082019050611dc35f830184611da1565b92915050565b5f5ffd5b5f819050919050565b611ddf81611dcd565b8114611de9575f5ffd5b50565b5f81359050611dfa81611dd6565b92915050565b5f5f60408385031215611e1657611e15611dc9565b5b5f611e2385828601611dec565b9250506020611e3485828601611dec565b9150509250929050565b5f5f5f60608486031215611e5557611e54611dc9565b5b5f611e6286828701611dec565b9350506020611e7386828701611dec565b9250506040611e8486828701611dec565b9150509250925092565b5f611e9882611d7f565b9050919050565b611ea881611e8e565b82525050565b5f602082019050611ec15f830184611e9f565b92915050565b5f611ed182611d7f565b9050919050565b611ee181611ec7565b82525050565b5f602082019050611efa5f830184611ed8565b92915050565b5f611f0a82611d36565b9050919050565b611f1a81611f00565b82525050565b5f602082019050611f335f830184611f11565b92915050565b611f4281611f00565b8114611f4c575f5ffd5b50565b5f81359050611f5d81611f39565b92915050565b5f60208284031215611f7857611f77611dc9565b5b5f611f8584828501611f4f565b91505092915050565b611f9781611dcd565b82525050565b5f602082019050611fb05f830184611f8e565b92915050565b5f606082019050611fc95f830186611f11565b611fd66020830185611f11565b611fe36040830184611f8e565b949350505050565b5f8115159050919050565b611fff81611feb565b8114612009575f5ffd5b50565b5f8151905061201a81611ff6565b92915050565b5f6020828403121561203557612034611dc9565b5b5f6120428482850161200c565b91505092915050565b5f60408201905061205e5f830185611f11565b61206b6020830184611f8e565b9392505050565b7f4e487b71000000000000000000000000000000000000000000000000000000005f52604160045260245ffd5b7f4e487b71000000000000000000000000000000000000000000000000000000005f52603260045260245ffd5b7f4e487b71000000000000000000000000000000000000000000000000000000005f52601160045260245ffd5b5f61210382611dcd565b915061210e83611dcd565b9250828201905080821115612126576121256120cc565b5b92915050565b5f81519050919050565b5f82825260208201905092915050565b5f819050602082019050919050565b61215e81611f00565b82525050565b5f61216f8383612155565b60208301905092915050565b5f602082019050919050565b5f6121918261212c565b61219b8185612136565b93506121a683612146565b805f5b838110156121d65781516121bd8882612164565b97506121c88361217b565b9250506001810190506121a9565b5085935050505092915050565b5f60a0820190506121f65f830188611f8e565b6122036020830187611f8e565b81810360408301526122158186612187565b90506122246060830185611f11565b6122316080830184611f8e565b9695505050505050565b5f60c08201905061224e5f830189611f11565b61225b6020830188611f8e565b6122686040830187611f8e565b6122756060830186611f8e565b6122826080830185611f11565b61228f60a0830184611f8e565b979650505050505050565b5f815190506122a881611dd6565b92915050565b5f5f5f606084860312156122c5576122c4611dc9565b5b5f6122d28682870161229a565b93505060206122e38682870161229a565b92505060406122f48682870161229a565b9150509250925092565b5f6060820190506123115f830186611f8e565b61231e6020830185611f8e565b61232b6040830184611f8e565b949350505050565b5f8151905061234181611f39565b92915050565b5f6020828403121561235c5761235b611dc9565b5b5f61236984828501612333565b91505092915050565b5f6040820190506123855f830185611f11565b6123926020830184611f11565b9392505050565b5f602082840312156123ae576123ad611dc9565b5b5f6123bb8482850161229a565b91505092915050565b5f6123ce82611dcd565b91506123d983611dcd565b92508282039050818111156123f1576123f06120cc565b5b92915050565b5f60408201905061240a5f830185611f8e565b6124176020830184611f8e565b939250505056fea264697066735822122000d6a9840de21f245c4800334debf494978e5cd0954c54460498a56806b4774064736f6c634300081c0033",
					"opcodes": "PUSH1 0x80 PUSH1 0x40 MSTORE CALLVALUE DUP1 ISZERO PUSH2 0xF JUMPI PUSH0 PUSH0 REVERT JUMPDEST POP PUSH1 0x40 MLOAD PUSH2 0x2C6C CODESIZE SUB DUP1 PUSH2 0x2C6C DUP4 CODECOPY DUP2 DUP2 ADD PUSH1 0x40 MSTORE DUP2 ADD SWAP1 PUSH2 0x31 SWAP2 SWAP1 PUSH2 0x542 JUMP JUMPDEST DUP1 PUSH0 PUSH20 0xFFFFFFFFFFFFFFFFFFFFFFFFFFFFFFFFFFFFFFFF AND DUP2 PUSH20 0xFFFFFFFFFFFFFFFFFFFFFFFFFFFFFFFFFFFFFFFF AND SUB PUSH2 0xA2 JUMPI PUSH0 PUSH1 0x40 MLOAD PUSH32 0x1E4FBDF700000000000000000000000000000000000000000000000000000000 DUP2 MSTORE PUSH1 0x4 ADD PUSH2 0x99 SWAP2 SWAP1 PUSH2 0x5DA JUMP JUMPDEST PUSH1 0x40 MLOAD DUP1 SWAP2 SUB SWAP1 REVERT JUMPDEST PUSH2 0xB1 DUP2 PUSH2 0x423 PUSH1 0x20 SHL PUSH1 0x20 SHR JUMP JUMPDEST POP PUSH0 PUSH20 0xFFFFFFFFFFFFFFFFFFFFFFFFFFFFFFFFFFFFFFFF AND DUP7 PUSH20 0xFFFFFFFFFFFFFFFFFFFFFFFFFFFFFFFFFFFFFFFF AND SUB PUSH2 0x120 JUMPI PUSH1 0x40 MLOAD PUSH32 0x8C379A000000000000000000000000000000000000000000000000000000000 DUP2 MSTORE PUSH1 0x4 ADD PUSH2 0x117 SWAP1 PUSH2 0x64D JUMP JUMPDEST PUSH1 0x40 MLOAD DUP1 SWAP2 SUB SWAP1 REVERT JUMPDEST PUSH0 PUSH20 0xFFFFFFFFFFFFFFFFFFFFFFFFFFFFFFFFFFFFFFFF AND DUP6 PUSH20 0xFFFFFFFFFFFFFFFFFFFFFFFFFFFFFFFFFFFFFFFF AND SUB PUSH2 0x18E JUMPI PUSH1 0x40 MLOAD PUSH32 0x8C379A000000000000000000000000000000000000000000000000000000000 DUP2 MSTORE PUSH1 0x4 ADD PUSH2 0x185 SWAP1 PUSH2 0x6B5 JUMP JUMPDEST PUSH1 0x40 MLOAD DUP1 SWAP2 SUB SWAP1 REVERT JUMPDEST PUSH0 PUSH20 0xFFFFFFFFFFFFFFFFFFFFFFFFFFFFFFFFFFFFFFFF AND DUP5 PUSH20 0xFFFFFFFFFFFFFFFFFFFFFFFFFFFFFFFFFFFFFFFF AND SUB PUSH2 0x1FC JUMPI PUSH1 0x40 MLOAD PUSH32 0x8C379A000000000000000000000000000000000000000000000000000000000 DUP2 MSTORE PUSH1 0x4 ADD PUSH2 0x1F3 SWAP1 PUSH2 0x71D JUMP JUMPDEST PUSH1 0x40 MLOAD DUP1 SWAP2 SUB SWAP1 REVERT JUMPDEST PUSH0 PUSH20 0xFFFFFFFFFFFFFFFFFFFFFFFFFFFFFFFFFFFFFFFF AND DUP4 PUSH20 0xFFFFFFFFFFFFFFFFFFFFFFFFFFFFFFFFFFFFFFFF AND SUB PUSH2 0x26A JUMPI PUSH1 0x40 MLOAD PUSH32 0x8C379A000000000000000000000000000000000000000000000000000000000 DUP2 MSTORE PUSH1 0x4 ADD PUSH2 0x261 SWAP1 PUSH2 0x785 JUMP JUMPDEST PUSH1 0x40 MLOAD DUP1 SWAP2 SUB SWAP1 REVERT JUMPDEST PUSH0 PUSH20 0xFFFFFFFFFFFFFFFFFFFFFFFFFFFFFFFFFFFFFFFF AND DUP3 PUSH20 0xFFFFFFFFFFFFFFFFFFFFFFFFFFFFFFFFFFFFFFFF AND SUB PUSH2 0x2D8 JUMPI PUSH1 0x40 MLOAD PUSH32 0x8C379A000000000000000000000000000000000000000000000000000000000 DUP2 MSTORE PUSH1 0x4 ADD PUSH2 0x2CF SWAP1 PUSH2 0x7ED JUMP JUMPDEST PUSH1 0x40 MLOAD DUP1 SWAP2 SUB SWAP1 REVERT JUMPDEST DUP6 PUSH1 0x1 PUSH0 PUSH2 0x100 EXP DUP2 SLOAD DUP2 PUSH20 0xFFFFFFFFFFFFFFFFFFFFFFFFFFFFFFFFFFFFFFFF MUL NOT AND SWAP1 DUP4 PUSH20 0xFFFFFFFFFFFFFFFFFFFFFFFFFFFFFFFFFFFFFFFF AND MUL OR SWAP1 SSTORE POP DUP5 PUSH1 0x2 PUSH0 PUSH2 0x100 EXP DUP2 SLOAD DUP2 PUSH20 0xFFFFFFFFFFFFFFFFFFFFFFFFFFFFFFFFFFFFFFFF MUL NOT AND SWAP1 DUP4 PUSH20 0xFFFFFFFFFFFFFFFFFFFFFFFFFFFFFFFFFFFFFFFF AND MUL OR SWAP1 SSTORE POP DUP4 PUSH1 0x3 PUSH0 PUSH2 0x100 EXP DUP2 SLOAD DUP2 PUSH20 0xFFFFFFFFFFFFFFFFFFFFFFFFFFFFFFFFFFFFFFFF MUL NOT AND SWAP1 DUP4 PUSH20 0xFFFFFFFFFFFFFFFFFFFFFFFFFFFFFFFFFFFFFFFF AND MUL OR SWAP1 SSTORE POP DUP3 PUSH1 0x4 PUSH0 PUSH2 0x100 EXP DUP2 SLOAD DUP2 PUSH20 0xFFFFFFFFFFFFFFFFFFFFFFFFFFFFFFFFFFFFFFFF MUL NOT AND SWAP1 DUP4 PUSH20 0xFFFFFFFFFFFFFFFFFFFFFFFFFFFFFFFFFFFFFFFF AND MUL OR SWAP1 SSTORE POP DUP2 PUSH1 0x5 PUSH0 PUSH2 0x100 EXP DUP2 SLOAD DUP2 PUSH20 0xFFFFFFFFFFFFFFFFFFFFFFFFFFFFFFFFFFFFFFFF MUL NOT AND SWAP1 DUP4 PUSH20 0xFFFFFFFFFFFFFFFFFFFFFFFFFFFFFFFFFFFFFFFF AND MUL OR SWAP1 SSTORE POP POP POP POP POP POP POP PUSH2 0x80B JUMP JUMPDEST PUSH0 PUSH0 PUSH0 SWAP1 SLOAD SWAP1 PUSH2 0x100 EXP SWAP1 DIV PUSH20 0xFFFFFFFFFFFFFFFFFFFFFFFFFFFFFFFFFFFFFFFF AND SWAP1 POP DUP2 PUSH0 PUSH0 PUSH2 0x100 EXP DUP2 SLOAD DUP2 PUSH20 0xFFFFFFFFFFFFFFFFFFFFFFFFFFFFFFFFFFFFFFFF MUL NOT AND SWAP1 DUP4 PUSH20 0xFFFFFFFFFFFFFFFFFFFFFFFFFFFFFFFFFFFFFFFF AND MUL OR SWAP1 SSTORE POP DUP2 PUSH20 0xFFFFFFFFFFFFFFFFFFFFFFFFFFFFFFFFFFFFFFFF AND DUP2 PUSH20 0xFFFFFFFFFFFFFFFFFFFFFFFFFFFFFFFFFFFFFFFF AND PUSH32 0x8BE0079C531659141344CD1FD0A4F28419497F9722A3DAAFE3B4186F6B6457E0 PUSH1 0x40 MLOAD PUSH1 0x40 MLOAD DUP1 SWAP2 SUB SWAP1 LOG3 POP POP JUMP JUMPDEST PUSH0 PUSH0 REVERT JUMPDEST PUSH0 PUSH20 0xFFFFFFFFFFFFFFFFFFFFFFFFFFFFFFFFFFFFFFFF DUP3 AND SWAP1 POP SWAP2 SWAP1 POP JUMP JUMPDEST PUSH0 PUSH2 0x511 DUP3 PUSH2 0x4E8 JUMP JUMPDEST SWAP1 POP SWAP2 SWAP1 POP JUMP JUMPDEST PUSH2 0x521 DUP2 PUSH2 0x507 JUMP JUMPDEST DUP2 EQ PUSH2 0x52B JUMPI PUSH0 PUSH0 REVERT JUMPDEST POP JUMP JUMPDEST PUSH0 DUP2 MLOAD SWAP1 POP PUSH2 0x53C DUP2 PUSH2 0x518 JUMP JUMPDEST SWAP3 SWAP2 POP POP JUMP JUMPDEST PUSH0 PUSH0 PUSH0 PUSH0 PUSH0 PUSH0 PUSH1 0xC0 DUP8 DUP10 SUB SLT ISZERO PUSH2 0x55C JUMPI PUSH2 0x55B PUSH2 0x4E4 JUMP JUMPDEST JUMPDEST PUSH0 PUSH2 0x569 DUP10 DUP3 DUP11 ADD PUSH2 0x52E JUMP JUMPDEST SWAP7 POP POP PUSH1 0x20 PUSH2 0x57A DUP10 DUP3 DUP11 ADD PUSH2 0x52E JUMP JUMPDEST SWAP6 POP POP PUSH1 0x40 PUSH2 0x58B DUP10 DUP3 DUP11 ADD PUSH2 0x52E JUMP JUMPDEST SWAP5 POP POP PUSH1 0x60 PUSH2 0x59C DUP10 DUP3 DUP11 ADD PUSH2 0x52E JUMP JUMPDEST SWAP4 POP POP PUSH1 0x80 PUSH2 0x5AD DUP10 DUP3 DUP11 ADD PUSH2 0x52E JUMP JUMPDEST SWAP3 POP POP PUSH1 0xA0 PUSH2 0x5BE DUP10 DUP3 DUP11 ADD PUSH2 0x52E JUMP JUMPDEST SWAP2 POP POP SWAP3 SWAP6 POP SWAP3 SWAP6 POP SWAP3 SWAP6 JUMP JUMPDEST PUSH2 0x5D4 DUP2 PUSH2 0x507 JUMP JUMPDEST DUP3 MSTORE POP POP JUMP JUMPDEST PUSH0 PUSH1 0x20 DUP3 ADD SWAP1 POP PUSH2 0x5ED PUSH0 DUP4 ADD DUP5 PUSH2 0x5CB JUMP JUMPDEST SWAP3 SWAP2 POP POP JUMP JUMPDEST PUSH0 DUP3 DUP3 MSTORE PUSH1 0x20 DUP3 ADD SWAP1 POP SWAP3 SWAP2 POP POP JUMP JUMPDEST PUSH32 0x496E76616C69642055423420746F6B656E206164647265737300000000000000 PUSH0 DUP3 ADD MSTORE POP JUMP JUMPDEST PUSH0 PUSH2 0x637 PUSH1 0x19 DUP4 PUSH2 0x5F3 JUMP JUMPDEST SWAP2 POP PUSH2 0x642 DUP3 PUSH2 0x603 JUMP JUMPDEST PUSH1 0x20 DUP3 ADD SWAP1 POP SWAP2 SWAP1 POP JUMP JUMPDEST PUSH0 PUSH1 0x20 DUP3 ADD SWAP1 POP DUP2 DUP2 SUB PUSH0 DUP4 ADD MSTORE PUSH2 0x664 DUP2 PUSH2 0x62B JUMP JUMPDEST SWAP1 POP SWAP2 SWAP1 POP JUMP JUMPDEST PUSH32 0x496E76616C69642051344120746F6B656E206164647265737300000000000000 PUSH0 DUP3 ADD MSTORE POP JUMP JUMPDEST PUSH0 PUSH2 0x69F PUSH1 0x19 DUP4 PUSH2 0x5F3 JUMP JUMPDEST SWAP2 POP PUSH2 0x6AA DUP3 PUSH2 0x66B JUMP JUMPDEST PUSH1 0x20 DUP3 ADD SWAP1 POP SWAP2 SWAP1 POP JUMP JUMPDEST PUSH0 PUSH1 0x20 DUP3 ADD SWAP1 POP DUP2 DUP2 SUB PUSH0 DUP4 ADD MSTORE PUSH2 0x6CC DUP2 PUSH2 0x693 JUMP JUMPDEST SWAP1 POP SWAP2 SWAP1 POP JUMP JUMPDEST PUSH32 0x496E76616C696420726F75746572206164647265737300000000000000000000 PUSH0 DUP3 ADD MSTORE POP JUMP JUMPDEST PUSH0 PUSH2 0x707 PUSH1 0x16 DUP4 PUSH2 0x5F3 JUMP JUMPDEST SWAP2 POP PUSH2 0x712 DUP3 PUSH2 0x6D3 JUMP JUMPDEST PUSH1 0x20 DUP3 ADD SWAP1 POP SWAP2 SWAP1 POP JUMP JUMPDEST PUSH0 PUSH1 0x20 DUP3 ADD SWAP1 POP DUP2 DUP2 SUB PUSH0 DUP4 ADD MSTORE PUSH2 0x734 DUP2 PUSH2 0x6FB JUMP JUMPDEST SWAP1 POP SWAP2 SWAP1 POP JUMP JUMPDEST PUSH32 0x496E76616C696420666163746F72792061646472657373000000000000000000 PUSH0 DUP3 ADD MSTORE POP JUMP JUMPDEST PUSH0 PUSH2 0x76F PUSH1 0x17 DUP4 PUSH2 0x5F3 JUMP JUMPDEST SWAP2 POP PUSH2 0x77A DUP3 PUSH2 0x73B JUMP JUMPDEST PUSH1 0x20 DUP3 ADD SWAP1 POP SWAP2 SWAP1 POP JUMP JUMPDEST PUSH0 PUSH1 0x20 DUP3 ADD SWAP1 POP DUP2 DUP2 SUB PUSH0 DUP4 ADD MSTORE PUSH2 0x79C DUP2 PUSH2 0x763 JUMP JUMPDEST SWAP1 POP SWAP2 SWAP1 POP JUMP JUMPDEST PUSH32 0x496E76616C6964206C69717569646974792077616C6C65740000000000000000 PUSH0 DUP3 ADD MSTORE POP JUMP JUMPDEST PUSH0 PUSH2 0x7D7 PUSH1 0x18 DUP4 PUSH2 0x5F3 JUMP JUMPDEST SWAP2 POP PUSH2 0x7E2 DUP3 PUSH2 0x7A3 JUMP JUMPDEST PUSH1 0x20 DUP3 ADD SWAP1 POP SWAP2 SWAP1 POP JUMP JUMPDEST PUSH0 PUSH1 0x20 DUP3 ADD SWAP1 POP DUP2 DUP2 SUB PUSH0 DUP4 ADD MSTORE PUSH2 0x804 DUP2 PUSH2 0x7CB JUMP JUMPDEST SWAP1 POP SWAP2 SWAP1 POP JUMP JUMPDEST PUSH2 0x2454 DUP1 PUSH2 0x818 PUSH0 CODECOPY PUSH0 RETURN INVALID PUSH1 0x80 PUSH1 0x40 MSTORE PUSH1 0x4 CALLDATASIZE LT PUSH2 0xEB JUMPI PUSH0 CALLDATALOAD PUSH1 0xE0 SHR DUP1 PUSH4 0x8DA5CB5B GT PUSH2 0x89 JUMPI DUP1 PUSH4 0xD4698016 GT PUSH2 0x58 JUMPI DUP1 PUSH4 0xD4698016 EQ PUSH2 0x2A6 JUMPI DUP1 PUSH4 0xF2FDE38B EQ PUSH2 0x2D0 JUMPI DUP1 PUSH4 0xFC0D6874 EQ PUSH2 0x2F8 JUMPI DUP1 PUSH4 0xFFE6F79A EQ PUSH2 0x320 JUMPI PUSH2 0xF2 JUMP JUMPDEST DUP1 PUSH4 0x8DA5CB5B EQ PUSH2 0x202 JUMPI DUP1 PUSH4 0x93565B4C EQ PUSH2 0x22C JUMPI DUP1 PUSH4 0x9D81A8AA EQ PUSH2 0x256 JUMPI DUP1 PUSH4 0xA43D6C1B EQ PUSH2 0x27E JUMPI PUSH2 0xF2 JUMP JUMPDEST DUP1 PUSH4 0x6CFBBB75 GT PUSH2 0xC5 JUMPI DUP1 PUSH4 0x6CFBBB75 EQ PUSH2 0x170 JUMPI DUP1 PUSH4 0x715018A6 EQ PUSH2 0x198 JUMPI DUP1 PUSH4 0x735DE9F7 EQ PUSH2 0x1AE JUMPI DUP1 PUSH4 0x8BDB2AFA EQ PUSH2 0x1D8 JUMPI PUSH2 0xF2 JUMP JUMPDEST DUP1 PUSH4 0x10D67098 EQ PUSH2 0xF6 JUMPI DUP1 PUSH4 0x3B78439A EQ PUSH2 0x120 JUMPI DUP1 PUSH4 0x58F11763 EQ PUSH2 0x148 JUMPI PUSH2 0xF2 JUMP JUMPDEST CALLDATASIZE PUSH2 0xF2 JUMPI STOP JUMPDEST PUSH0 PUSH0 REVERT JUMPDEST CALLVALUE DUP1 ISZERO PUSH2 0x101 JUMPI PUSH0 PUSH0 REVERT JUMPDEST POP PUSH2 0x10A PUSH2 0x34A JUMP JUMPDEST PUSH1 0x40 MLOAD PUSH2 0x117 SWAP2 SWAP1 PUSH2 0x1DB0 JUMP JUMPDEST PUSH1 0x40 MLOAD DUP1 SWAP2 SUB SWAP1 RETURN JUMPDEST CALLVALUE DUP1 ISZERO PUSH2 0x12B JUMPI PUSH0 PUSH0 REVERT JUMPDEST POP PUSH2 0x146 PUSH1 0x4 DUP1 CALLDATASIZE SUB DUP2 ADD SWAP1 PUSH2 0x141 SWAP2 SWAP1 PUSH2 0x1E00 JUMP JUMPDEST PUSH2 0x36F JUMP JUMPDEST STOP JUMPDEST CALLVALUE DUP1 ISZERO PUSH2 0x153 JUMPI PUSH0 PUSH0 REVERT JUMPDEST POP PUSH2 0x16E PUSH1 0x4 DUP1 CALLDATASIZE SUB DUP2 ADD SWAP1 PUSH2 0x169 SWAP2 SWAP1 PUSH2 0x1E3E JUMP JUMPDEST PUSH2 0x769 JUMP JUMPDEST STOP JUMPDEST CALLVALUE DUP1 ISZERO PUSH2 0x17B JUMPI PUSH0 PUSH0 REVERT JUMPDEST POP PUSH2 0x196 PUSH1 0x4 DUP1 CALLDATASIZE SUB DUP2 ADD SWAP1 PUSH2 0x191 SWAP2 SWAP1 PUSH2 0x1E3E JUMP JUMPDEST PUSH2 0xA4C JUMP JUMPDEST STOP JUMPDEST CALLVALUE DUP1 ISZERO PUSH2 0x1A3 JUMPI PUSH0 PUSH0 REVERT JUMPDEST POP PUSH2 0x1AC PUSH2 0xF37 JUMP JUMPDEST STOP JUMPDEST CALLVALUE DUP1 ISZERO PUSH2 0x1B9 JUMPI PUSH0 PUSH0 REVERT JUMPDEST POP PUSH2 0x1C2 PUSH2 0xF4A JUMP JUMPDEST PUSH1 0x40 MLOAD PUSH2 0x1CF SWAP2 SWAP1 PUSH2 0x1EAE JUMP JUMPDEST PUSH1 0x40 MLOAD DUP1 SWAP2 SUB SWAP1 RETURN JUMPDEST CALLVALUE DUP1 ISZERO PUSH2 0x1E3 JUMPI PUSH0 PUSH0 REVERT JUMPDEST POP PUSH2 0x1EC PUSH2 0xF6F JUMP JUMPDEST PUSH1 0x40 MLOAD PUSH2 0x1F9 SWAP2 SWAP1 PUSH2 0x1EE7 JUMP JUMPDEST PUSH1 0x40 MLOAD DUP1 SWAP2 SUB SWAP1 RETURN JUMPDEST CALLVALUE DUP1 ISZERO PUSH2 0x20D JUMPI PUSH0 PUSH0 REVERT JUMPDEST POP PUSH2 0x216 PUSH2 0xF94 JUMP JUMPDEST PUSH1 0x40 MLOAD PUSH2 0x223 SWAP2 SWAP1 PUSH2 0x1F20 JUMP JUMPDEST PUSH1 0x40 MLOAD DUP1 SWAP2 SUB SWAP1 RETURN JUMPDEST CALLVALUE DUP1 ISZERO PUSH2 0x237 JUMPI PUSH0 PUSH0 REVERT JUMPDEST POP PUSH2 0x240 PUSH2 0xFBB JUMP JUMPDEST PUSH1 0x40 MLOAD PUSH2 0x24D SWAP2 SWAP1 PUSH2 0x1DB0 JUMP JUMPDEST PUSH1 0x40 MLOAD DUP1 SWAP2 SUB SWAP1 RETURN JUMPDEST CALLVALUE DUP1 ISZERO PUSH2 0x261 JUMPI PUSH0 PUSH0 REVERT JUMPDEST POP PUSH2 0x27C PUSH1 0x4 DUP1 CALLDATASIZE SUB DUP2 ADD SWAP1 PUSH2 0x277 SWAP2 SWAP1 PUSH2 0x1E3E JUMP JUMPDEST PUSH2 0xFE0 JUMP JUMPDEST STOP JUMPDEST CALLVALUE DUP1 ISZERO PUSH2 0x289 JUMPI PUSH0 PUSH0 REVERT JUMPDEST POP PUSH2 0x2A4 PUSH1 0x4 DUP1 CALLDATASIZE SUB DUP2 ADD SWAP1 PUSH2 0x29F SWAP2 SWAP1 PUSH2 0x1E00 JUMP JUMPDEST PUSH2 0x14CB JUMP JUMPDEST STOP JUMPDEST CALLVALUE DUP1 ISZERO PUSH2 0x2B1 JUMPI PUSH0 PUSH0 REVERT JUMPDEST POP PUSH2 0x2BA PUSH2 0x18C5 JUMP JUMPDEST PUSH1 0x40 MLOAD PUSH2 0x2C7 SWAP2 SWAP1 PUSH2 0x1F20 JUMP JUMPDEST PUSH1 0x40 MLOAD DUP1 SWAP2 SUB SWAP1 RETURN JUMPDEST CALLVALUE DUP1 ISZERO PUSH2 0x2DB JUMPI PUSH0 PUSH0 REVERT JUMPDEST POP PUSH2 0x2F6 PUSH1 0x4 DUP1 CALLDATASIZE SUB DUP2 ADD SWAP1 PUSH2 0x2F1 SWAP2 SWAP1 PUSH2 0x1F63 JUMP JUMPDEST PUSH2 0x18EA JUMP JUMPDEST STOP JUMPDEST CALLVALUE DUP1 ISZERO PUSH2 0x303 JUMPI PUSH0 PUSH0 REVERT JUMPDEST POP PUSH2 0x31E PUSH1 0x4 DUP1 CALLDATASIZE SUB DUP2 ADD SWAP1 PUSH2 0x319 SWAP2 SWAP1 PUSH2 0x1E3E JUMP JUMPDEST PUSH2 0x18FE JUMP JUMPDEST STOP JUMPDEST CALLVALUE DUP1 ISZERO PUSH2 0x32B JUMPI PUSH0 PUSH0 REVERT JUMPDEST POP PUSH2 0x334 PUSH2 0x1BE1 JUMP JUMPDEST PUSH1 0x40 MLOAD PUSH2 0x341 SWAP2 SWAP1 PUSH2 0x1F9D JUMP JUMPDEST PUSH1 0x40 MLOAD DUP1 SWAP2 SUB SWAP1 RETURN JUMPDEST PUSH1 0x1 PUSH0 SWAP1 SLOAD SWAP1 PUSH2 0x100 EXP SWAP1 DIV PUSH20 0xFFFFFFFFFFFFFFFFFFFFFFFFFFFFFFFFFFFFFFFF AND DUP2 JUMP JUMPDEST PUSH2 0x377 PUSH2 0x1BE7 JUMP JUMPDEST PUSH1 0x2 PUSH0 SWAP1 SLOAD SWAP1 PUSH2 0x100 EXP SWAP1 DIV PUSH20 0xFFFFFFFFFFFFFFFFFFFFFFFFFFFFFFFFFFFFFFFF AND PUSH20 0xFFFFFFFFFFFFFFFFFFFFFFFFFFFFFFFFFFFFFFFF AND PUSH4 0x23B872DD CALLER ADDRESS DUP6 PUSH1 0x40 MLOAD DUP5 PUSH4 0xFFFFFFFF AND PUSH1 0xE0 SHL DUP2 MSTORE PUSH1 0x4 ADD PUSH2 0x3D5 SWAP4 SWAP3 SWAP2 SWAP1 PUSH2 0x1FB6 JUMP JUMPDEST PUSH1 0x20 PUSH1 0x40 MLOAD DUP1 DUP4 SUB DUP2 PUSH0 DUP8 GAS CALL ISZERO DUP1 ISZERO PUSH2 0x3F1 JUMPI RETURNDATASIZE PUSH0 PUSH0 RETURNDATACOPY RETURNDATASIZE PUSH0 REVERT JUMPDEST POP POP POP POP PUSH1 0x40 MLOAD RETURNDATASIZE PUSH1 0x1F NOT PUSH1 0x1F DUP3 ADD AND DUP3 ADD DUP1 PUSH1 0x40 MSTORE POP DUP2 ADD SWAP1 PUSH2 0x415 SWAP2 SWAP1 PUSH2 0x2020 JUMP JUMPDEST POP PUSH1 0x2 PUSH0 SWAP1 SLOAD SWAP1 PUSH2 0x100 EXP SWAP1 DIV PUSH20 0xFFFFFFFFFFFFFFFFFFFFFFFFFFFFFFFFFFFFFFFF AND PUSH20 0xFFFFFFFFFFFFFFFFFFFFFFFFFFFFFFFFFFFFFFFF AND PUSH4 0x95EA7B3 PUSH1 0x3 PUSH0 SWAP1 SLOAD SWAP1 PUSH2 0x100 EXP SWAP1 DIV PUSH20 0xFFFFFFFFFFFFFFFFFFFFFFFFFFFFFFFFFFFFFFFF AND DUP5 PUSH1 0x40 MLOAD DUP4 PUSH4 0xFFFFFFFF AND PUSH1 0xE0 SHL DUP2 MSTORE PUSH1 0x4 ADD PUSH2 0x493 SWAP3 SWAP2 SWAP1 PUSH2 0x204B JUMP JUMPDEST PUSH1 0x20 PUSH1 0x40 MLOAD DUP1 DUP4 SUB DUP2 PUSH0 DUP8 GAS CALL ISZERO DUP1 ISZERO PUSH2 0x4AF JUMPI RETURNDATASIZE PUSH0 PUSH0 RETURNDATACOPY RETURNDATASIZE PUSH0 REVERT JUMPDEST POP POP POP POP PUSH1 0x40 MLOAD RETURNDATASIZE PUSH1 0x1F NOT PUSH1 0x1F DUP3 ADD AND DUP3 ADD DUP1 PUSH1 0x40 MSTORE POP DUP2 ADD SWAP1 PUSH2 0x4D3 SWAP2 SWAP1 PUSH2 0x2020 JUMP JUMPDEST POP PUSH0 PUSH1 0x2 PUSH8 0xFFFFFFFFFFFFFFFF DUP2 GT ISZERO PUSH2 0x4F0 JUMPI PUSH2 0x4EF PUSH2 0x2072 JUMP JUMPDEST JUMPDEST PUSH1 0x40 MLOAD SWAP1 DUP1 DUP3 MSTORE DUP1 PUSH1 0x20 MUL PUSH1 0x20 ADD DUP3 ADD PUSH1 0x40 MSTORE DUP1 ISZERO PUSH2 0x51E JUMPI DUP2 PUSH1 0x20 ADD PUSH1 0x20 DUP3 MUL DUP1 CALLDATASIZE DUP4 CALLDATACOPY DUP1 DUP3 ADD SWAP2 POP POP SWAP1 POP JUMPDEST POP SWAP1 POP PUSH1 0x2 PUSH0 SWAP1 SLOAD SWAP1 PUSH2 0x100 EXP SWAP1 DIV PUSH20 0xFFFFFFFFFFFFFFFFFFFFFFFFFFFFFFFFFFFFFFFF AND DUP2 PUSH0 DUP2 MLOAD DUP2 LT PUSH2 0x556 JUMPI PUSH2 0x555 PUSH2 0x209F JUMP JUMPDEST JUMPDEST PUSH1 0x20 MUL PUSH1 0x20 ADD ADD SWAP1 PUSH20 0xFFFFFFFFFFFFFFFFFFFFFFFFFFFFFFFFFFFFFFFF AND SWAP1 DUP2 PUSH20 0xFFFFFFFFFFFFFFFFFFFFFFFFFFFFFFFFFFFFFFFF AND DUP2 MSTORE POP POP PUSH1 0x1 PUSH0 SWAP1 SLOAD SWAP1 PUSH2 0x100 EXP SWAP1 DIV PUSH20 0xFFFFFFFFFFFFFFFFFFFFFFFFFFFFFFFFFFFFFFFF AND DUP2 PUSH1 0x1 DUP2 MLOAD DUP2 LT PUSH2 0x5C6 JUMPI PUSH2 0x5C5 PUSH2 0x209F JUMP JUMPDEST JUMPDEST PUSH1 0x20 MUL PUSH1 0x20 ADD ADD SWAP1 PUSH20 0xFFFFFFFFFFFFFFFFFFFFFFFFFFFFFFFFFFFFFFFF AND SWAP1 DUP2 PUSH20 0xFFFFFFFFFFFFFFFFFFFFFFFFFFFFFFFFFFFFFFFF AND DUP2 MSTORE POP POP PUSH1 0x3 PUSH0 SWAP1 SLOAD SWAP1 PUSH2 0x100 EXP SWAP1 DIV PUSH20 0xFFFFFFFFFFFFFFFFFFFFFFFFFFFFFFFFFFFFFFFF AND PUSH20 0xFFFFFFFFFFFFFFFFFFFFFFFFFFFFFFFFFFFFFFFF AND PUSH4 0x5C11D795 DUP5 DUP5 DUP5 PUSH1 0x5 PUSH0 SWAP1 SLOAD SWAP1 PUSH2 0x100 EXP SWAP1 DIV PUSH20 0xFFFFFFFFFFFFFFFFFFFFFFFFFFFFFFFFFFFFFFFF AND PUSH2 0x4B0 TIMESTAMP PUSH2 0x670 SWAP2 SWAP1 PUSH2 0x20F9 JUMP JUMPDEST PUSH1 0x40 MLOAD DUP7 PUSH4 0xFFFFFFFF AND PUSH1 0xE0 SHL DUP2 MSTORE PUSH1 0x4 ADD PUSH2 0x690 SWAP6 SWAP5 SWAP4 SWAP3 SWAP2 SWAP1 PUSH2 0x21E3 JUMP JUMPDEST PUSH0 PUSH1 0x40 MLOAD DUP1 DUP4 SUB DUP2 PUSH0 DUP8 DUP1 EXTCODESIZE ISZERO DUP1 ISZERO PUSH2 0x6A7 JUMPI PUSH0 PUSH0 REVERT JUMPDEST POP GAS CALL ISZERO DUP1 ISZERO PUSH2 0x6B9 JUMPI RETURNDATASIZE PUSH0 PUSH0 RETURNDATACOPY RETURNDATASIZE PUSH0 REVERT JUMPDEST POP POP POP POP PUSH1 0x1 PUSH0 SWAP1 SLOAD SWAP1 PUSH2 0x100 EXP SWAP1 DIV PUSH20 0xFFFFFFFFFFFFFFFFFFFFFFFFFFFFFFFFFFFFFFFF AND PUSH20 0xFFFFFFFFFFFFFFFFFFFFFFFFFFFFFFFFFFFFFFFF AND PUSH1 0x2 PUSH0 SWAP1 SLOAD SWAP1 PUSH2 0x100 EXP SWAP1 DIV PUSH20 0xFFFFFFFFFFFFFFFFFFFFFFFFFFFFFFFFFFFFFFFF AND PUSH20 0xFFFFFFFFFFFFFFFFFFFFFFFFFFFFFFFFFFFFFFFF AND PUSH32 0xF7CA15D85D6A1558514FFF5C2F5A3F009726B7F5DFC61A3F80B7107941BEAF1A DUP6 PUSH1 0x40 MLOAD PUSH2 0x75C SWAP2 SWAP1 PUSH2 0x1F9D JUMP JUMPDEST PUSH1 0x40 MLOAD DUP1 SWAP2 SUB SWAP1 LOG3 POP POP POP JUMP JUMPDEST PUSH2 0x771 PUSH2 0x1BE7 JUMP JUMPDEST PUSH0 DUP4 SWAP1 POP PUSH1 0x2 PUSH0 SWAP1 SLOAD SWAP1 PUSH2 0x100 EXP SWAP1 DIV PUSH20 0xFFFFFFFFFFFFFFFFFFFFFFFFFFFFFFFFFFFFFFFF AND PUSH20 0xFFFFFFFFFFFFFFFFFFFFFFFFFFFFFFFFFFFFFFFF AND PUSH4 0x23B872DD CALLER ADDRESS DUP5 PUSH1 0x40 MLOAD DUP5 PUSH4 0xFFFFFFFF AND PUSH1 0xE0 SHL DUP2 MSTORE PUSH1 0x4 ADD PUSH2 0x7D3 SWAP4 SWAP3 SWAP2 SWAP1 PUSH2 0x1FB6 JUMP JUMPDEST PUSH1 0x20 PUSH1 0x40 MLOAD DUP1 DUP4 SUB DUP2 PUSH0 DUP8 GAS CALL ISZERO DUP1 ISZERO PUSH2 0x7EF JUMPI RETURNDATASIZE PUSH0 PUSH0 RETURNDATACOPY RETURNDATASIZE PUSH0 REVERT JUMPDEST POP POP POP POP PUSH1 0x40 MLOAD RETURNDATASIZE PUSH1 0x1F NOT PUSH1 0x1F DUP3 ADD AND DUP3 ADD DUP1 PUSH1 0x40 MSTORE POP DUP2 ADD SWAP1 PUSH2 0x813 SWAP2 SWAP1 PUSH2 0x2020 JUMP JUMPDEST POP PUSH1 0x2 PUSH0 SWAP1 SLOAD SWAP1 PUSH2 0x100 EXP SWAP1 DIV PUSH20 0xFFFFFFFFFFFFFFFFFFFFFFFFFFFFFFFFFFFFFFFF AND PUSH20 0xFFFFFFFFFFFFFFFFFFFFFFFFFFFFFFFFFFFFFFFF AND PUSH4 0x95EA7B3 PUSH1 0x3 PUSH0 SWAP1 SLOAD SWAP1 PUSH2 0x100 EXP SWAP1 DIV PUSH20 0xFFFFFFFFFFFFFFFFFFFFFFFFFFFFFFFFFFFFFFFF AND DUP4 PUSH1 0x40 MLOAD DUP4 PUSH4 0xFFFFFFFF AND PUSH1 0xE0 SHL DUP2 MSTORE PUSH1 0x4 ADD PUSH2 0x891 SWAP3 SWAP2 SWAP1 PUSH2 0x204B JUMP JUMPDEST PUSH1 0x20 PUSH1 0x40 MLOAD DUP1 DUP4 SUB DUP2 PUSH0 DUP8 GAS CALL ISZERO DUP1 ISZERO PUSH2 0x8AD JUMPI RETURNDATASIZE PUSH0 PUSH0 RETURNDATACOPY RETURNDATASIZE PUSH0 REVERT JUMPDEST POP POP POP POP PUSH1 0x40 MLOAD RETURNDATASIZE PUSH1 0x1F NOT PUSH1 0x1F DUP3 ADD AND DUP3 ADD DUP1 PUSH1 0x40 MSTORE POP DUP2 ADD SWAP1 PUSH2 0x8D1 SWAP2 SWAP1 PUSH2 0x2020 JUMP JUMPDEST POP PUSH0 PUSH0 PUSH0 PUSH1 0x3 PUSH0 SWAP1 SLOAD SWAP1 PUSH2 0x100 EXP SWAP1 DIV PUSH20 0xFFFFFFFFFFFFFFFFFFFFFFFFFFFFFFFFFFFFFFFF AND PUSH20 0xFFFFFFFFFFFFFFFFFFFFFFFFFFFFFFFFFFFFFFFF AND PUSH4 0xF305D719 SELFBALANCE PUSH1 0x2 PUSH0 SWAP1 SLOAD SWAP1 PUSH2 0x100 EXP SWAP1 DIV PUSH20 0xFFFFFFFFFFFFFFFFFFFFFFFFFFFFFFFFFFFFFFFF AND DUP8 DUP11 DUP11 PUSH1 0x5 PUSH0 SWAP1 SLOAD SWAP1 PUSH2 0x100 EXP SWAP1 DIV PUSH20 0xFFFFFFFFFFFFFFFFFFFFFFFFFFFFFFFFFFFFFFFF AND PUSH2 0x4B0 TIMESTAMP PUSH2 0x968 SWAP2 SWAP1 PUSH2 0x20F9 JUMP JUMPDEST PUSH1 0x40 MLOAD DUP9 PUSH4 0xFFFFFFFF AND PUSH1 0xE0 SHL DUP2 MSTORE PUSH1 0x4 ADD PUSH2 0x989 SWAP7 SWAP6 SWAP5 SWAP4 SWAP3 SWAP2 SWAP1 PUSH2 0x223B JUMP JUMPDEST PUSH1 0x60 PUSH1 0x40 MLOAD DUP1 DUP4 SUB DUP2 DUP6 DUP9 GAS CALL ISZERO DUP1 ISZERO PUSH2 0x9A5 JUMPI RETURNDATASIZE PUSH0 PUSH0 RETURNDATACOPY RETURNDATASIZE PUSH0 REVERT JUMPDEST POP POP POP POP POP PUSH1 0x40 MLOAD RETURNDATASIZE PUSH1 0x1F NOT PUSH1 0x1F DUP3 ADD AND DUP3 ADD DUP1 PUSH1 0x40 MSTORE POP DUP2 ADD SWAP1 PUSH2 0x9CA SWAP2 SWAP1 PUSH2 0x22AE JUMP JUMPDEST SWAP3 POP SWAP3 POP SWAP3 POP PUSH1 0x2 PUSH0 SWAP1 SLOAD SWAP1 PUSH2 0x100 EXP SWAP1 DIV PUSH20 0xFFFFFFFFFFFFFFFFFFFFFFFFFFFFFFFFFFFFFFFF AND PUSH20 0xFFFFFFFFFFFFFFFFFFFFFFFFFFFFFFFFFFFFFFFF AND PUSH32 0x64B83944E79C3CE8D4C297411DE637C3E102D064677AAC0C163976EBDCD6F50E DUP5 DUP5 DUP5 PUSH1 0x40 MLOAD PUSH2 0xA3B SWAP4 SWAP3 SWAP2 SWAP1 PUSH2 0x22FE JUMP JUMPDEST PUSH1 0x40 MLOAD DUP1 SWAP2 SUB SWAP1 LOG2 POP POP POP POP POP POP POP JUMP JUMPDEST PUSH2 0xA54 PUSH2 0x1BE7 JUMP JUMPDEST PUSH0 PUSH1 0x4 PUSH0 SWAP1 SLOAD SWAP1 PUSH2 0x100 EXP SWAP1 DIV PUSH20 0xFFFFFFFFFFFFFFFFFFFFFFFFFFFFFFFFFFFFFFFF AND PUSH20 0xFFFFFFFFFFFFFFFFFFFFFFFFFFFFFFFFFFFFFFFF AND PUSH4 0xE6A43905 PUSH1 0x1 PUSH0 SWAP1 SLOAD SWAP1 PUSH2 0x100 EXP SWAP1 DIV PUSH20 0xFFFFFFFFFFFFFFFFFFFFFFFFFFFFFFFFFFFFFFFF AND PUSH1 0x3 PUSH0 SWAP1 SLOAD SWAP1 PUSH2 0x100 EXP SWAP1 DIV PUSH20 0xFFFFFFFFFFFFFFFFFFFFFFFFFFFFFFFFFFFFFFFF AND PUSH20 0xFFFFFFFFFFFFFFFFFFFFFFFFFFFFFFFFFFFFFFFF AND PUSH4 0xAD5C4648 PUSH1 0x40 MLOAD DUP2 PUSH4 0xFFFFFFFF AND PUSH1 0xE0 SHL DUP2 MSTORE PUSH1 0x4 ADD PUSH1 0x20 PUSH1 0x40 MLOAD DUP1 DUP4 SUB DUP2 DUP7 GAS STATICCALL ISZERO DUP1 ISZERO PUSH2 0xB1E JUMPI RETURNDATASIZE PUSH0 PUSH0 RETURNDATACOPY RETURNDATASIZE PUSH0 REVERT JUMPDEST POP POP POP POP PUSH1 0x40 MLOAD RETURNDATASIZE PUSH1 0x1F NOT PUSH1 0x1F DUP3 ADD AND DUP3 ADD DUP1 PUSH1 0x40 MSTORE POP DUP2 ADD SWAP1 PUSH2 0xB42 SWAP2 SWAP1 PUSH2 0x2347 JUMP JUMPDEST PUSH1 0x40 MLOAD DUP4 PUSH4 0xFFFFFFFF AND PUSH1 0xE0 SHL DUP2 MSTORE PUSH1 0x4 ADD PUSH2 0xB5F SWAP3 SWAP2 SWAP1 PUSH2 0x2372 JUMP JUMPDEST PUSH1 0x20 PUSH1 0x40 MLOAD DUP1 DUP4 SUB DUP2 DUP7 GAS STATICCALL ISZERO DUP1 ISZERO PUSH2 0xB7A JUMPI RETURNDATASIZE PUSH0 PUSH0 RETURNDATACOPY RETURNDATASIZE PUSH0 REVERT JUMPDEST POP POP POP POP PUSH1 0x40 MLOAD RETURNDATASIZE PUSH1 0x1F NOT PUSH1 0x1F DUP3 ADD AND DUP3 ADD DUP1 PUSH1 0x40 MSTORE POP DUP2 ADD SWAP1 PUSH2 0xB9E SWAP2 SWAP1 PUSH2 0x2347 JUMP JUMPDEST SWAP1 POP DUP1 PUSH20 0xFFFFFFFFFFFFFFFFFFFFFFFFFFFFFFFFFFFFFFFF AND PUSH4 0x95EA7B3 PUSH1 0x3 PUSH0 SWAP1 SLOAD SWAP1 PUSH2 0x100 EXP SWAP1 DIV PUSH20 0xFFFFFFFFFFFFFFFFFFFFFFFFFFFFFFFFFFFFFFFF AND DUP7 PUSH1 0x40 MLOAD DUP4 PUSH4 0xFFFFFFFF AND PUSH1 0xE0 SHL DUP2 MSTORE PUSH1 0x4 ADD PUSH2 0xBFC SWAP3 SWAP2 SWAP1 PUSH2 0x204B JUMP JUMPDEST PUSH1 0x20 PUSH1 0x40 MLOAD DUP1 DUP4 SUB DUP2 PUSH0 DUP8 GAS CALL ISZERO DUP1 ISZERO PUSH2 0xC18 JUMPI RETURNDATASIZE PUSH0 PUSH0 RETURNDATACOPY RETURNDATASIZE PUSH0 REVERT JUMPDEST POP POP POP POP PUSH1 0x40 MLOAD RETURNDATASIZE PUSH1 0x1F NOT PUSH1 0x1F DUP3 ADD AND DUP3 ADD DUP1 PUSH1 0x40 MSTORE POP DUP2 ADD SWAP1 PUSH2 0xC3C SWAP2 SWAP1 PUSH2 0x2020 JUMP JUMPDEST POP PUSH0 PUSH1 0x1 PUSH0 SWAP1 SLOAD SWAP1 PUSH2 0x100 EXP SWAP1 DIV PUSH20 0xFFFFFFFFFFFFFFFFFFFFFFFFFFFFFFFFFFFFFFFF AND PUSH20 0xFFFFFFFFFFFFFFFFFFFFFFFFFFFFFFFFFFFFFFFF AND PUSH4 0x70A08231 PUSH1 0x5 PUSH0 SWAP1 SLOAD SWAP1 PUSH2 0x100 EXP SWAP1 DIV PUSH20 0xFFFFFFFFFFFFFFFFFFFFFFFFFFFFFFFFFFFFFFFF AND PUSH1 0x40 MLOAD DUP3 PUSH4 0xFFFFFFFF AND PUSH1 0xE0 SHL DUP2 MSTORE PUSH1 0x4 ADD PUSH2 0xCB9 SWAP2 SWAP1 PUSH2 0x1F20 JUMP JUMPDEST PUSH1 0x20 PUSH1 0x40 MLOAD DUP1 DUP4 SUB DUP2 DUP7 GAS STATICCALL ISZERO DUP1 ISZERO PUSH2 0xCD4 JUMPI RETURNDATASIZE PUSH0 PUSH0 RETURNDATACOPY RETURNDATASIZE PUSH0 REVERT JUMPDEST POP POP POP POP PUSH1 0x40 MLOAD RETURNDATASIZE PUSH1 0x1F NOT PUSH1 0x1F DUP3 ADD AND DUP3 ADD DUP1 PUSH1 0x40 MSTORE POP DUP2 ADD SWAP1 PUSH2 0xCF8 SWAP2 SWAP1 PUSH2 0x2399 JUMP JUMPDEST SWAP1 POP PUSH0 PUSH1 0x3 PUSH0 SWAP1 SLOAD SWAP1 PUSH2 0x100 EXP SWAP1 DIV PUSH20 0xFFFFFFFFFFFFFFFFFFFFFFFFFFFFFFFFFFFFFFFF AND PUSH20 0xFFFFFFFFFFFFFFFFFFFFFFFFFFFFFFFFFFFFFFFF AND PUSH4 0xAF2979EB PUSH1 0x1 PUSH0 SWAP1 SLOAD SWAP1 PUSH2 0x100 EXP SWAP1 DIV PUSH20 0xFFFFFFFFFFFFFFFFFFFFFFFFFFFFFFFFFFFFFFFF AND DUP9 DUP9 DUP9 PUSH1 0x5 PUSH0 SWAP1 SLOAD SWAP1 PUSH2 0x100 EXP SWAP1 DIV PUSH20 0xFFFFFFFFFFFFFFFFFFFFFFFFFFFFFFFFFFFFFFFF AND PUSH2 0x4B0 TIMESTAMP PUSH2 0xD8D SWAP2 SWAP1 PUSH2 0x20F9 JUMP JUMPDEST PUSH1 0x40 MLOAD DUP8 PUSH4 0xFFFFFFFF AND PUSH1 0xE0 SHL DUP2 MSTORE PUSH1 0x4 ADD PUSH2 0xDAE SWAP7 SWAP6 SWAP5 SWAP4 SWAP3 SWAP2 SWAP1 PUSH2 0x223B JUMP JUMPDEST PUSH1 0x20 PUSH1 0x40 MLOAD DUP1 DUP4 SUB DUP2 PUSH0 DUP8 GAS CALL ISZERO DUP1 ISZERO PUSH2 0xDCA JUMPI RETURNDATASIZE PUSH0 PUSH0 RETURNDATACOPY RETURNDATASIZE PUSH0 REVERT JUMPDEST POP POP POP POP PUSH1 0x40 MLOAD RETURNDATASIZE PUSH1 0x1F NOT PUSH1 0x1F DUP3 ADD AND DUP3 ADD DUP1 PUSH1 0x40 MSTORE POP DUP2 ADD SWAP1 PUSH2 0xDEE SWAP2 SWAP1 PUSH2 0x2399 JUMP JUMPDEST SWAP1 POP PUSH0 PUSH1 0x1 PUSH0 SWAP1 SLOAD SWAP1 PUSH2 0x100 EXP SWAP1 DIV PUSH20 0xFFFFFFFFFFFFFFFFFFFFFFFFFFFFFFFFFFFFFFFF AND PUSH20 0xFFFFFFFFFFFFFFFFFFFFFFFFFFFFFFFFFFFFFFFF AND PUSH4 0x70A08231 PUSH1 0x5 PUSH0 SWAP1 SLOAD SWAP1 PUSH2 0x100 EXP SWAP1 DIV PUSH20 0xFFFFFFFFFFFFFFFFFFFFFFFFFFFFFFFFFFFFFFFF AND PUSH1 0x40 MLOAD DUP3 PUSH4 0xFFFFFFFF AND PUSH1 0xE0 SHL DUP2 MSTORE PUSH1 0x4 ADD PUSH2 0xE6C SWAP2 SWAP1 PUSH2 0x1F20 JUMP JUMPDEST PUSH1 0x20 PUSH1 0x40 MLOAD DUP1 DUP4 SUB DUP2 DUP7 GAS STATICCALL ISZERO DUP1 ISZERO PUSH2 0xE87 JUMPI RETURNDATASIZE PUSH0 PUSH0 RETURNDATACOPY RETURNDATASIZE PUSH0 REVERT JUMPDEST POP POP POP POP PUSH1 0x40 MLOAD RETURNDATASIZE PUSH1 0x1F NOT PUSH1 0x1F DUP3 ADD AND DUP3 ADD DUP1 PUSH1 0x40 MSTORE POP DUP2 ADD SWAP1 PUSH2 0xEAB SWAP2 SWAP1 PUSH2 0x2399 JUMP JUMPDEST SWAP1 POP PUSH0 DUP4 DUP3 PUSH2 0xEBA SWAP2 SWAP1 PUSH2 0x23C4 JUMP JUMPDEST SWAP1 POP PUSH1 0x1 PUSH0 SWAP1 SLOAD SWAP1 PUSH2 0x100 EXP SWAP1 DIV PUSH20 0xFFFFFFFFFFFFFFFFFFFFFFFFFFFFFFFFFFFFFFFF AND PUSH20 0xFFFFFFFFFFFFFFFFFFFFFFFFFFFFFFFFFFFFFFFF AND PUSH32 0x96CD817C6329656790EF8FBA7675405193677D39619571282F5E21F3A98CD059 DUP3 DUP6 PUSH1 0x40 MLOAD PUSH2 0xF25 SWAP3 SWAP2 SWAP1 PUSH2 0x23F7 JUMP JUMPDEST PUSH1 0x40 MLOAD DUP1 SWAP2 SUB SWAP1 LOG2 POP POP POP POP POP POP POP POP JUMP JUMPDEST PUSH2 0xF3F PUSH2 0x1BE7 JUMP JUMPDEST PUSH2 0xF48 PUSH0 PUSH2 0x1C6E JUMP JUMPDEST JUMP JUMPDEST PUSH1 0x3 PUSH0 SWAP1 SLOAD SWAP1 PUSH2 0x100 EXP SWAP1 DIV PUSH20 0xFFFFFFFFFFFFFFFFFFFFFFFFFFFFFFFFFFFFFFFF AND DUP2 JUMP JUMPDEST PUSH1 0x4 PUSH0 SWAP1 SLOAD SWAP1 PUSH2 0x100 EXP SWAP1 DIV PUSH20 0xFFFFFFFFFFFFFFFFFFFFFFFFFFFFFFFFFFFFFFFF AND DUP2 JUMP JUMPDEST PUSH0 PUSH0 PUSH0 SWAP1 SLOAD SWAP1 PUSH2 0x100 EXP SWAP1 DIV PUSH20 0xFFFFFFFFFFFFFFFFFFFFFFFFFFFFFFFFFFFFFFFF AND SWAP1 POP SWAP1 JUMP JUMPDEST PUSH1 0x2 PUSH0 SWAP1 SLOAD SWAP1 PUSH2 0x100 EXP SWAP1 DIV PUSH20 0xFFFFFFFFFFFFFFFFFFFFFFFFFFFFFFFFFFFFFFFF AND DUP2 JUMP JUMPDEST PUSH2 0xFE8 PUSH2 0x1BE7 JUMP JUMPDEST PUSH0 PUSH1 0x4 PUSH0 SWAP1 SLOAD SWAP1 PUSH2 0x100 EXP SWAP1 DIV PUSH20 0xFFFFFFFFFFFFFFFFFFFFFFFFFFFFFFFFFFFFFFFF AND PUSH20 0xFFFFFFFFFFFFFFFFFFFFFFFFFFFFFFFFFFFFFFFF AND PUSH4 0xE6A43905 PUSH1 0x2 PUSH0 SWAP1 SLOAD SWAP1 PUSH2 0x100 EXP SWAP1 DIV PUSH20 0xFFFFFFFFFFFFFFFFFFFFFFFFFFFFFFFFFFFFFFFF AND PUSH1 0x3 PUSH0 SWAP1 SLOAD SWAP1 PUSH2 0x100 EXP SWAP1 DIV PUSH20 0xFFFFFFFFFFFFFFFFFFFFFFFFFFFFFFFFFFFFFFFF AND PUSH20 0xFFFFFFFFFFFFFFFFFFFFFFFFFFFFFFFFFFFFFFFF AND PUSH4 0xAD5C4648 PUSH1 0x40 MLOAD DUP2 PUSH4 0xFFFFFFFF AND PUSH1 0xE0 SHL DUP2 MSTORE PUSH1 0x4 ADD PUSH1 0x20 PUSH1 0x40 MLOAD DUP1 DUP4 SUB DUP2 DUP7 GAS STATICCALL ISZERO DUP1 ISZERO PUSH2 0x10B2 JUMPI RETURNDATASIZE PUSH0 PUSH0 RETURNDATACOPY RETURNDATASIZE PUSH0 REVERT JUMPDEST POP POP POP POP PUSH1 0x40 MLOAD RETURNDATASIZE PUSH1 0x1F NOT PUSH1 0x1F DUP3 ADD AND DUP3 ADD DUP1 PUSH1 0x40 MSTORE POP DUP2 ADD SWAP1 PUSH2 0x10D6 SWAP2 SWAP1 PUSH2 0x2347 JUMP JUMPDEST PUSH1 0x40 MLOAD DUP4 PUSH4 0xFFFFFFFF AND PUSH1 0xE0 SHL DUP2 MSTORE PUSH1 0x4 ADD PUSH2 0x10F3 SWAP3 SWAP2 SWAP1 PUSH2 0x2372 JUMP JUMPDEST PUSH1 0x20 PUSH1 0x40 MLOAD DUP1 DUP4 SUB DUP2 DUP7 GAS STATICCALL ISZERO DUP1 ISZERO PUSH2 0x110E JUMPI RETURNDATASIZE PUSH0 PUSH0 RETURNDATACOPY RETURNDATASIZE PUSH0 REVERT JUMPDEST POP POP POP POP PUSH1 0x40 MLOAD RETURNDATASIZE PUSH1 0x1F NOT PUSH1 0x1F DUP3 ADD AND DUP3 ADD DUP1 PUSH1 0x40 MSTORE POP DUP2 ADD SWAP1 PUSH2 0x1132 SWAP2 SWAP1 PUSH2 0x2347 JUMP JUMPDEST SWAP1 POP DUP1 PUSH20 0xFFFFFFFFFFFFFFFFFFFFFFFFFFFFFFFFFFFFFFFF AND PUSH4 0x95EA7B3 PUSH1 0x3 PUSH0 SWAP1 SLOAD SWAP1 PUSH2 0x100 EXP SWAP1 DIV PUSH20 0xFFFFFFFFFFFFFFFFFFFFFFFFFFFFFFFFFFFFFFFF AND DUP7 PUSH1 0x40 MLOAD DUP4 PUSH4 0xFFFFFFFF AND PUSH1 0xE0 SHL DUP2 MSTORE PUSH1 0x4 ADD PUSH2 0x1190 SWAP3 SWAP2 SWAP1 PUSH2 0x204B JUMP JUMPDEST PUSH1 0x20 PUSH1 0x40 MLOAD DUP1 DUP4 SUB DUP2 PUSH0 DUP8 GAS CALL ISZERO DUP1 ISZERO PUSH2 0x11AC JUMPI RETURNDATASIZE PUSH0 PUSH0 RETURNDATACOPY RETURNDATASIZE PUSH0 REVERT JUMPDEST POP POP POP POP PUSH1 0x40 MLOAD RETURNDATASIZE PUSH1 0x1F NOT PUSH1 0x1F DUP3 ADD AND DUP3 ADD DUP1 PUSH1 0x40 MSTORE POP DUP2 ADD SWAP1 PUSH2 0x11D0 SWAP2 SWAP1 PUSH2 0x2020 JUMP JUMPDEST POP PUSH0 PUSH1 0x2 PUSH0 SWAP1 SLOAD SWAP1 PUSH2 0x100 EXP SWAP1 DIV PUSH20 0xFFFFFFFFFFFFFFFFFFFFFFFFFFFFFFFFFFFFFFFF AND PUSH20 0xFFFFFFFFFFFFFFFFFFFFFFFFFFFFFFFFFFFFFFFF AND PUSH4 0x70A08231 PUSH1 0x5 PUSH0 SWAP1 SLOAD SWAP1 PUSH2 0x100 EXP SWAP1 DIV PUSH20 0xFFFFFFFFFFFFFFFFFFFFFFFFFFFFFFFFFFFFFFFF AND PUSH1 0x40 MLOAD DUP3 PUSH4 0xFFFFFFFF AND PUSH1 0xE0 SHL DUP2 MSTORE PUSH1 0x4 ADD PUSH2 0x124D SWAP2 SWAP1 PUSH2 0x1F20 JUMP JUMPDEST PUSH1 0x20 PUSH1 0x40 MLOAD DUP1 DUP4 SUB DUP2 DUP7 GAS STATICCALL ISZERO DUP1 ISZERO PUSH2 0x1268 JUMPI RETURNDATASIZE PUSH0 PUSH0 RETURNDATACOPY RETURNDATASIZE PUSH0 REVERT JUMPDEST POP POP POP POP PUSH1 0x40 MLOAD RETURNDATASIZE PUSH1 0x1F NOT PUSH1 0x1F DUP3 ADD AND DUP3 ADD DUP1 PUSH1 0x40 MSTORE POP DUP2 ADD SWAP1 PUSH2 0x128C SWAP2 SWAP1 PUSH2 0x2399 JUMP JUMPDEST SWAP1 POP PUSH0 PUSH1 0x3 PUSH0 SWAP1 SLOAD SWAP1 PUSH2 0x100 EXP SWAP1 DIV PUSH20 0xFFFFFFFFFFFFFFFFFFFFFFFFFFFFFFFFFFFFFFFF AND PUSH20 0xFFFFFFFFFFFFFFFFFFFFFFFFFFFFFFFFFFFFFFFF AND PUSH4 0xAF2979EB PUSH1 0x2 PUSH0 SWAP1 SLOAD SWAP1 PUSH2 0x100 EXP SWAP1 DIV PUSH20 0xFFFFFFFFFFFFFFFFFFFFFFFFFFFFFFFFFFFFFFFF AND DUP9 DUP9 DUP9 PUSH1 0x5 PUSH0 SWAP1 SLOAD SWAP1 PUSH2 0x100 EXP SWAP1 DIV PUSH20 0xFFFFFFFFFFFFFFFFFFFFFFFFFFFFFFFFFFFFFFFF AND PUSH2 0x4B0 TIMESTAMP PUSH2 0x1321 SWAP2 SWAP1 PUSH2 0x20F9 JUMP JUMPDEST PUSH1 0x40 MLOAD DUP8 PUSH4 0xFFFFFFFF AND PUSH1 0xE0 SHL DUP2 MSTORE PUSH1 0x4 ADD PUSH2 0x1342 SWAP7 SWAP6 SWAP5 SWAP4 SWAP3 SWAP2 SWAP1 PUSH2 0x223B JUMP JUMPDEST PUSH1 0x20 PUSH1 0x40 MLOAD DUP1 DUP4 SUB DUP2 PUSH0 DUP8 GAS CALL ISZERO DUP1 ISZERO PUSH2 0x135E JUMPI RETURNDATASIZE PUSH0 PUSH0 RETURNDATACOPY RETURNDATASIZE PUSH0 REVERT JUMPDEST POP POP POP POP PUSH1 0x40 MLOAD RETURNDATASIZE PUSH1 0x1F NOT PUSH1 0x1F DUP3 ADD AND DUP3 ADD DUP1 PUSH1 0x40 MSTORE POP DUP2 ADD SWAP1 PUSH2 0x1382 SWAP2 SWAP1 PUSH2 0x2399 JUMP JUMPDEST SWAP1 POP PUSH0 PUSH1 0x2 PUSH0 SWAP1 SLOAD SWAP1 PUSH2 0x100 EXP SWAP1 DIV PUSH20 0xFFFFFFFFFFFFFFFFFFFFFFFFFFFFFFFFFFFFFFFF AND PUSH20 0xFFFFFFFFFFFFFFFFFFFFFFFFFFFFFFFFFFFFFFFF AND PUSH4 0x70A08231 PUSH1 0x5 PUSH0 SWAP1 SLOAD SWAP1 PUSH2 0x100 EXP SWAP1 DIV PUSH20 0xFFFFFFFFFFFFFFFFFFFFFFFFFFFFFFFFFFFFFFFF AND PUSH1 0x40 MLOAD DUP3 PUSH4 0xFFFFFFFF AND PUSH1 0xE0 SHL DUP2 MSTORE PUSH1 0x4 ADD PUSH2 0x1400 SWAP2 SWAP1 PUSH2 0x1F20 JUMP JUMPDEST PUSH1 0x20 PUSH1 0x40 MLOAD DUP1 DUP4 SUB DUP2 DUP7 GAS STATICCALL ISZERO DUP1 ISZERO PUSH2 0x141B JUMPI RETURNDATASIZE PUSH0 PUSH0 RETURNDATACOPY RETURNDATASIZE PUSH0 REVERT JUMPDEST POP POP POP POP PUSH1 0x40 MLOAD RETURNDATASIZE PUSH1 0x1F NOT PUSH1 0x1F DUP3 ADD AND DUP3 ADD DUP1 PUSH1 0x40 MSTORE POP DUP2 ADD SWAP1 PUSH2 0x143F SWAP2 SWAP1 PUSH2 0x2399 JUMP JUMPDEST SWAP1 POP PUSH0 DUP4 DUP3 PUSH2 0x144E SWAP2 SWAP1 PUSH2 0x23C4 JUMP JUMPDEST SWAP1 POP PUSH1 0x2 PUSH0 SWAP1 SLOAD SWAP1 PUSH2 0x100 EXP SWAP1 DIV PUSH20 0xFFFFFFFFFFFFFFFFFFFFFFFFFFFFFFFFFFFFFFFF AND PUSH20 0xFFFFFFFFFFFFFFFFFFFFFFFFFFFFFFFFFFFFFFFF AND PUSH32 0x96CD817C6329656790EF8FBA7675405193677D39619571282F5E21F3A98CD059 DUP3 DUP6 PUSH1 0x40 MLOAD PUSH2 0x14B9 SWAP3 SWAP2 SWAP1 PUSH2 0x23F7 JUMP JUMPDEST PUSH1 0x40 MLOAD DUP1 SWAP2 SUB SWAP1 LOG2 POP POP POP POP POP POP POP POP JUMP JUMPDEST PUSH2 0x14D3 PUSH2 0x1BE7 JUMP JUMPDEST PUSH1 0x1 PUSH0 SWAP1 SLOAD SWAP1 PUSH2 0x100 EXP SWAP1 DIV PUSH20 0xFFFFFFFFFFFFFFFFFFFFFFFFFFFFFFFFFFFFFFFF AND PUSH20 0xFFFFFFFFFFFFFFFFFFFFFFFFFFFFFFFFFFFFFFFF AND PUSH4 0x23B872DD CALLER ADDRESS DUP6 PUSH1 0x40 MLOAD DUP5 PUSH4 0xFFFFFFFF AND PUSH1 0xE0 SHL DUP2 MSTORE PUSH1 0x4 ADD PUSH2 0x1531 SWAP4 SWAP3 SWAP2 SWAP1 PUSH2 0x1FB6 JUMP JUMPDEST PUSH1 0x20 PUSH1 0x40 MLOAD DUP1 DUP4 SUB DUP2 PUSH0 DUP8 GAS CALL ISZERO DUP1 ISZERO PUSH2 0x154D JUMPI RETURNDATASIZE PUSH0 PUSH0 RETURNDATACOPY RETURNDATASIZE PUSH0 REVERT JUMPDEST POP POP POP POP PUSH1 0x40 MLOAD RETURNDATASIZE PUSH1 0x1F NOT PUSH1 0x1F DUP3 ADD AND DUP3 ADD DUP1 PUSH1 0x40 MSTORE POP DUP2 ADD SWAP1 PUSH2 0x1571 SWAP2 SWAP1 PUSH2 0x2020 JUMP JUMPDEST POP PUSH1 0x1 PUSH0 SWAP1 SLOAD SWAP1 PUSH2 0x100 EXP SWAP1 DIV PUSH20 0xFFFFFFFFFFFFFFFFFFFFFFFFFFFFFFFFFFFFFFFF AND PUSH20 0xFFFFFFFFFFFFFFFFFFFFFFFFFFFFFFFFFFFFFFFF AND PUSH4 0x95EA7B3 PUSH1 0x3 PUSH0 SWAP1 SLOAD SWAP1 PUSH2 0x100 EXP SWAP1 DIV PUSH20 0xFFFFFFFFFFFFFFFFFFFFFFFFFFFFFFFFFFFFFFFF AND DUP5 PUSH1 0x40 MLOAD DUP4 PUSH4 0xFFFFFFFF AND PUSH1 0xE0 SHL DUP2 MSTORE PUSH1 0x4 ADD PUSH2 0x15EF SWAP3 SWAP2 SWAP1 PUSH2 0x204B JUMP JUMPDEST PUSH1 0x20 PUSH1 0x40 MLOAD DUP1 DUP4 SUB DUP2 PUSH0 DUP8 GAS CALL ISZERO DUP1 ISZERO PUSH2 0x160B JUMPI RETURNDATASIZE PUSH0 PUSH0 RETURNDATACOPY RETURNDATASIZE PUSH0 REVERT JUMPDEST POP POP POP POP PUSH1 0x40 MLOAD RETURNDATASIZE PUSH1 0x1F NOT PUSH1 0x1F DUP3 ADD AND DUP3 ADD DUP1 PUSH1 0x40 MSTORE POP DUP2 ADD SWAP1 PUSH2 0x162F SWAP2 SWAP1 PUSH2 0x2020 JUMP JUMPDEST POP PUSH0 PUSH1 0x2 PUSH8 0xFFFFFFFFFFFFFFFF DUP2 GT ISZERO PUSH2 0x164C JUMPI PUSH2 0x164B PUSH2 0x2072 JUMP JUMPDEST JUMPDEST PUSH1 0x40 MLOAD SWAP1 DUP1 DUP3 MSTORE DUP1 PUSH1 0x20 MUL PUSH1 0x20 ADD DUP3 ADD PUSH1 0x40 MSTORE DUP1 ISZERO PUSH2 0x167A JUMPI DUP2 PUSH1 0x20 ADD PUSH1 0x20 DUP3 MUL DUP1 CALLDATASIZE DUP4 CALLDATACOPY DUP1 DUP3 ADD SWAP2 POP POP SWAP1 POP JUMPDEST POP SWAP1 POP PUSH1 0x1 PUSH0 SWAP1 SLOAD SWAP1 PUSH2 0x100 EXP SWAP1 DIV PUSH20 0xFFFFFFFFFFFFFFFFFFFFFFFFFFFFFFFFFFFFFFFF AND DUP2 PUSH0 DUP2 MLOAD DUP2 LT PUSH2 0x16B2 JUMPI PUSH2 0x16B1 PUSH2 0x209F JUMP JUMPDEST JUMPDEST PUSH1 0x20 MUL PUSH1 0x20 ADD ADD SWAP1 PUSH20 0xFFFFFFFFFFFFFFFFFFFFFFFFFFFFFFFFFFFFFFFF AND SWAP1 DUP2 PUSH20 0xFFFFFFFFFFFFFFFFFFFFFFFFFFFFFFFFFFFFFFFF AND DUP2 MSTORE POP POP PUSH1 0x2 PUSH0 SWAP1 SLOAD SWAP1 PUSH2 0x100 EXP SWAP1 DIV PUSH20 0xFFFFFFFFFFFFFFFFFFFFFFFFFFFFFFFFFFFFFFFF AND DUP2 PUSH1 0x1 DUP2 MLOAD DUP2 LT PUSH2 0x1722 JUMPI PUSH2 0x1721 PUSH2 0x209F JUMP JUMPDEST JUMPDEST PUSH1 0x20 MUL PUSH1 0x20 ADD ADD SWAP1 PUSH20 0xFFFFFFFFFFFFFFFFFFFFFFFFFFFFFFFFFFFFFFFF AND SWAP1 DUP2 PUSH20 0xFFFFFFFFFFFFFFFFFFFFFFFFFFFFFFFFFFFFFFFF AND DUP2 MSTORE POP POP PUSH1 0x3 PUSH0 SWAP1 SLOAD SWAP1 PUSH2 0x100 EXP SWAP1 DIV PUSH20 0xFFFFFFFFFFFFFFFFFFFFFFFFFFFFFFFFFFFFFFFF AND PUSH20 0xFFFFFFFFFFFFFFFFFFFFFFFFFFFFFFFFFFFFFFFF AND PUSH4 0x5C11D795 DUP5 DUP5 DUP5 PUSH1 0x5 PUSH0 SWAP1 SLOAD SWAP1 PUSH2 0x100 EXP SWAP1 DIV PUSH20 0xFFFFFFFFFFFFFFFFFFFFFFFFFFFFFFFFFFFFFFFF AND PUSH2 0x4B0 TIMESTAMP PUSH2 0x17CC SWAP2 SWAP1 PUSH2 0x20F9 JUMP JUMPDEST PUSH1 0x40 MLOAD DUP7 PUSH4 0xFFFFFFFF AND PUSH1 0xE0 SHL DUP2 MSTORE PUSH1 0x4 ADD PUSH2 0x17EC SWAP6 SWAP5 SWAP4 SWAP3 SWAP2 SWAP1 PUSH2 0x21E3 JUMP JUMPDEST PUSH0 PUSH1 0x40 MLOAD DUP1 DUP4 SUB DUP2 PUSH0 DUP8 DUP1 EXTCODESIZE ISZERO DUP1 ISZERO PUSH2 0x1803 JUMPI PUSH0 PUSH0 REVERT JUMPDEST POP GAS CALL ISZERO DUP1 ISZERO PUSH2 0x1815 JUMPI RETURNDATASIZE PUSH0 PUSH0 RETURNDATACOPY RETURNDATASIZE PUSH0 REVERT JUMPDEST POP POP POP POP PUSH1 0x2 PUSH0 SWAP1 SLOAD SWAP1 PUSH2 0x100 EXP SWAP1 DIV PUSH20 0xFFFFFFFFFFFFFFFFFFFFFFFFFFFFFFFFFFFFFFFF AND PUSH20 0xFFFFFFFFFFFFFFFFFFFFFFFFFFFFFFFFFFFFFFFF AND PUSH1 0x1 PUSH0 SWAP1 SLOAD SWAP1 PUSH2 0x100 EXP SWAP1 DIV PUSH20 0xFFFFFFFFFFFFFFFFFFFFFFFFFFFFFFFFFFFFFFFF AND PUSH20 0xFFFFFFFFFFFFFFFFFFFFFFFFFFFFFFFFFFFFFFFF AND PUSH32 0xF7CA15D85D6A1558514FFF5C2F5A3F009726B7F5DFC61A3F80B7107941BEAF1A DUP6 PUSH1 0x40 MLOAD PUSH2 0x18B8 SWAP2 SWAP1 PUSH2 0x1F9D JUMP JUMPDEST PUSH1 0x40 MLOAD DUP1 SWAP2 SUB SWAP1 LOG3 POP POP POP JUMP JUMPDEST PUSH1 0x5 PUSH0 SWAP1 SLOAD SWAP1 PUSH2 0x100 EXP SWAP1 DIV PUSH20 0xFFFFFFFFFFFFFFFFFFFFFFFFFFFFFFFFFFFFFFFF AND DUP2 JUMP JUMPDEST PUSH2 0x18F2 PUSH2 0x1BE7 JUMP JUMPDEST PUSH2 0x18FB DUP2 PUSH2 0x1C6E JUMP JUMPDEST POP JUMP JUMPDEST PUSH2 0x1906 PUSH2 0x1BE7 JUMP JUMPDEST PUSH0 DUP4 SWAP1 POP PUSH1 0x1 PUSH0 SWAP1 SLOAD SWAP1 PUSH2 0x100 EXP SWAP1 DIV PUSH20 0xFFFFFFFFFFFFFFFFFFFFFFFFFFFFFFFFFFFFFFFF AND PUSH20 0xFFFFFFFFFFFFFFFFFFFFFFFFFFFFFFFFFFFFFFFF AND PUSH4 0x23B872DD CALLER ADDRESS DUP5 PUSH1 0x40 MLOAD DUP5 PUSH4 0xFFFFFFFF AND PUSH1 0xE0 SHL DUP2 MSTORE PUSH1 0x4 ADD PUSH2 0x1968 SWAP4 SWAP3 SWAP2 SWAP1 PUSH2 0x1FB6 JUMP JUMPDEST PUSH1 0x20 PUSH1 0x40 MLOAD DUP1 DUP4 SUB DUP2 PUSH0 DUP8 GAS CALL ISZERO DUP1 ISZERO PUSH2 0x1984 JUMPI RETURNDATASIZE PUSH0 PUSH0 RETURNDATACOPY RETURNDATASIZE PUSH0 REVERT JUMPDEST POP POP POP POP PUSH1 0x40 MLOAD RETURNDATASIZE PUSH1 0x1F NOT PUSH1 0x1F DUP3 ADD AND DUP3 ADD DUP1 PUSH1 0x40 MSTORE POP DUP2 ADD SWAP1 PUSH2 0x19A8 SWAP2 SWAP1 PUSH2 0x2020 JUMP JUMPDEST POP PUSH1 0x1 PUSH0 SWAP1 SLOAD SWAP1 PUSH2 0x100 EXP SWAP1 DIV PUSH20 0xFFFFFFFFFFFFFFFFFFFFFFFFFFFFFFFFFFFFFFFF AND PUSH20 0xFFFFFFFFFFFFFFFFFFFFFFFFFFFFFFFFFFFFFFFF AND PUSH4 0x95EA7B3 PUSH1 0x3 PUSH0 SWAP1 SLOAD SWAP1 PUSH2 0x100 EXP SWAP1 DIV PUSH20 0xFFFFFFFFFFFFFFFFFFFFFFFFFFFFFFFFFFFFFFFF AND DUP4 PUSH1 0x40 MLOAD DUP4 PUSH4 0xFFFFFFFF AND PUSH1 0xE0 SHL DUP2 MSTORE PUSH1 0x4 ADD PUSH2 0x1A26 SWAP3 SWAP2 SWAP1 PUSH2 0x204B JUMP JUMPDEST PUSH1 0x20 PUSH1 0x40 MLOAD DUP1 DUP4 SUB DUP2 PUSH0 DUP8 GAS CALL ISZERO DUP1 ISZERO PUSH2 0x1A42 JUMPI RETURNDATASIZE PUSH0 PUSH0 RETURNDATACOPY RETURNDATASIZE PUSH0 REVERT JUMPDEST POP POP POP POP PUSH1 0x40 MLOAD RETURNDATASIZE PUSH1 0x1F NOT PUSH1 0x1F DUP3 ADD AND DUP3 ADD DUP1 PUSH1 0x40 MSTORE POP DUP2 ADD SWAP1 PUSH2 0x1A66 SWAP2 SWAP1 PUSH2 0x2020 JUMP JUMPDEST POP PUSH0 PUSH0 PUSH0 PUSH1 0x3 PUSH0 SWAP1 SLOAD SWAP1 PUSH2 0x100 EXP SWAP1 DIV PUSH20 0xFFFFFFFFFFFFFFFFFFFFFFFFFFFFFFFFFFFFFFFF AND PUSH20 0xFFFFFFFFFFFFFFFFFFFFFFFFFFFFFFFFFFFFFFFF AND PUSH4 0xF305D719 SELFBALANCE PUSH1 0x1 PUSH0 SWAP1 SLOAD SWAP1 PUSH2 0x100 EXP SWAP1 DIV PUSH20 0xFFFFFFFFFFFFFFFFFFFFFFFFFFFFFFFFFFFFFFFF AND DUP8 DUP11 DUP11 PUSH1 0x5 PUSH0 SWAP1 SLOAD SWAP1 PUSH2 0x100 EXP SWAP1 DIV PUSH20 0xFFFFFFFFFFFFFFFFFFFFFFFFFFFFFFFFFFFFFFFF AND PUSH2 0x4B0 TIMESTAMP PUSH2 0x1AFD SWAP2 SWAP1 PUSH2 0x20F9 JUMP JUMPDEST PUSH1 0x40 MLOAD DUP9 PUSH4 0xFFFFFFFF AND PUSH1 0xE0 SHL DUP2 MSTORE PUSH1 0x4 ADD PUSH2 0x1B1E SWAP7 SWAP6 SWAP5 SWAP4 SWAP3 SWAP2 SWAP1 PUSH2 0x223B JUMP JUMPDEST PUSH1 0x60 PUSH1 0x40 MLOAD DUP1 DUP4 SUB DUP2 DUP6 DUP9 GAS CALL ISZERO DUP1 ISZERO PUSH2 0x1B3A JUMPI RETURNDATASIZE PUSH0 PUSH0 RETURNDATACOPY RETURNDATASIZE PUSH0 REVERT JUMPDEST POP POP POP POP POP PUSH1 0x40 MLOAD RETURNDATASIZE PUSH1 0x1F NOT PUSH1 0x1F DUP3 ADD AND DUP3 ADD DUP1 PUSH1 0x40 MSTORE POP DUP2 ADD SWAP1 PUSH2 0x1B5F SWAP2 SWAP1 PUSH2 0x22AE JUMP JUMPDEST SWAP3 POP SWAP3 POP SWAP3 POP PUSH1 0x1 PUSH0 SWAP1 SLOAD SWAP1 PUSH2 0x100 EXP SWAP1 DIV PUSH20 0xFFFFFFFFFFFFFFFFFFFFFFFFFFFFFFFFFFFFFFFF AND PUSH20 0xFFFFFFFFFFFFFFFFFFFFFFFFFFFFFFFFFFFFFFFF AND PUSH32 0x64B83944E79C3CE8D4C297411DE637C3E102D064677AAC0C163976EBDCD6F50E DUP5 DUP5 DUP5 PUSH1 0x40 MLOAD PUSH2 0x1BD0 SWAP4 SWAP3 SWAP2 SWAP1 PUSH2 0x22FE JUMP JUMPDEST PUSH1 0x40 MLOAD DUP1 SWAP2 SUB SWAP1 LOG2 POP POP POP POP POP POP POP JUMP JUMPDEST PUSH2 0x4B0 DUP2 JUMP JUMPDEST PUSH2 0x1BEF PUSH2 0x1D2F JUMP JUMPDEST PUSH20 0xFFFFFFFFFFFFFFFFFFFFFFFFFFFFFFFFFFFFFFFF AND PUSH2 0x1C0D PUSH2 0xF94 JUMP JUMPDEST PUSH20 0xFFFFFFFFFFFFFFFFFFFFFFFFFFFFFFFFFFFFFFFF AND EQ PUSH2 0x1C6C JUMPI PUSH2 0x1C30 PUSH2 0x1D2F JUMP JUMPDEST PUSH1 0x40 MLOAD PUSH32 0x118CDAA700000000000000000000000000000000000000000000000000000000 DUP2 MSTORE PUSH1 0x4 ADD PUSH2 0x1C63 SWAP2 SWAP1 PUSH2 0x1F20 JUMP JUMPDEST PUSH1 0x40 MLOAD DUP1 SWAP2 SUB SWAP1 REVERT JUMPDEST JUMP JUMPDEST PUSH0 PUSH0 PUSH0 SWAP1 SLOAD SWAP1 PUSH2 0x100 EXP SWAP1 DIV PUSH20 0xFFFFFFFFFFFFFFFFFFFFFFFFFFFFFFFFFFFFFFFF AND SWAP1 POP DUP2 PUSH0 PUSH0 PUSH2 0x100 EXP DUP2 SLOAD DUP2 PUSH20 0xFFFFFFFFFFFFFFFFFFFFFFFFFFFFFFFFFFFFFFFF MUL NOT AND SWAP1 DUP4 PUSH20 0xFFFFFFFFFFFFFFFFFFFFFFFFFFFFFFFFFFFFFFFF AND MUL OR SWAP1 SSTORE POP DUP2 PUSH20 0xFFFFFFFFFFFFFFFFFFFFFFFFFFFFFFFFFFFFFFFF AND DUP2 PUSH20 0xFFFFFFFFFFFFFFFFFFFFFFFFFFFFFFFFFFFFFFFF AND PUSH32 0x8BE0079C531659141344CD1FD0A4F28419497F9722A3DAAFE3B4186F6B6457E0 PUSH1 0x40 MLOAD PUSH1 0x40 MLOAD DUP1 SWAP2 SUB SWAP1 LOG3 POP POP JUMP JUMPDEST PUSH0 CALLER SWAP1 POP SWAP1 JUMP JUMPDEST PUSH0 PUSH20 0xFFFFFFFFFFFFFFFFFFFFFFFFFFFFFFFFFFFFFFFF DUP3 AND SWAP1 POP SWAP2 SWAP1 POP JUMP JUMPDEST PUSH0 DUP2 SWAP1 POP SWAP2 SWAP1 POP JUMP JUMPDEST PUSH0 PUSH2 0x1D78 PUSH2 0x1D73 PUSH2 0x1D6E DUP5 PUSH2 0x1D36 JUMP JUMPDEST PUSH2 0x1D55 JUMP JUMPDEST PUSH2 0x1D36 JUMP JUMPDEST SWAP1 POP SWAP2 SWAP1 POP JUMP JUMPDEST PUSH0 PUSH2 0x1D89 DUP3 PUSH2 0x1D5E JUMP JUMPDEST SWAP1 POP SWAP2 SWAP1 POP JUMP JUMPDEST PUSH0 PUSH2 0x1D9A DUP3 PUSH2 0x1D7F JUMP JUMPDEST SWAP1 POP SWAP2 SWAP1 POP JUMP JUMPDEST PUSH2 0x1DAA DUP2 PUSH2 0x1D90 JUMP JUMPDEST DUP3 MSTORE POP POP JUMP JUMPDEST PUSH0 PUSH1 0x20 DUP3 ADD SWAP1 POP PUSH2 0x1DC3 PUSH0 DUP4 ADD DUP5 PUSH2 0x1DA1 JUMP JUMPDEST SWAP3 SWAP2 POP POP JUMP JUMPDEST PUSH0 PUSH0 REVERT JUMPDEST PUSH0 DUP2 SWAP1 POP SWAP2 SWAP1 POP JUMP JUMPDEST PUSH2 0x1DDF DUP2 PUSH2 0x1DCD JUMP JUMPDEST DUP2 EQ PUSH2 0x1DE9 JUMPI PUSH0 PUSH0 REVERT JUMPDEST POP JUMP JUMPDEST PUSH0 DUP2 CALLDATALOAD SWAP1 POP PUSH2 0x1DFA DUP2 PUSH2 0x1DD6 JUMP JUMPDEST SWAP3 SWAP2 POP POP JUMP JUMPDEST PUSH0 PUSH0 PUSH1 0x40 DUP4 DUP6 SUB SLT ISZERO PUSH2 0x1E16 JUMPI PUSH2 0x1E15 PUSH2 0x1DC9 JUMP JUMPDEST JUMPDEST PUSH0 PUSH2 0x1E23 DUP6 DUP3 DUP7 ADD PUSH2 0x1DEC JUMP JUMPDEST SWAP3 POP POP PUSH1 0x20 PUSH2 0x1E34 DUP6 DUP3 DUP7 ADD PUSH2 0x1DEC JUMP JUMPDEST SWAP2 POP POP SWAP3 POP SWAP3 SWAP1 POP JUMP JUMPDEST PUSH0 PUSH0 PUSH0 PUSH1 0x60 DUP5 DUP7 SUB SLT ISZERO PUSH2 0x1E55 JUMPI PUSH2 0x1E54 PUSH2 0x1DC9 JUMP JUMPDEST JUMPDEST PUSH0 PUSH2 0x1E62 DUP7 DUP3 DUP8 ADD PUSH2 0x1DEC JUMP JUMPDEST SWAP4 POP POP PUSH1 0x20 PUSH2 0x1E73 DUP7 DUP3 DUP8 ADD PUSH2 0x1DEC JUMP JUMPDEST SWAP3 POP POP PUSH1 0x40 PUSH2 0x1E84 DUP7 DUP3 DUP8 ADD PUSH2 0x1DEC JUMP JUMPDEST SWAP2 POP POP SWAP3 POP SWAP3 POP SWAP3 JUMP JUMPDEST PUSH0 PUSH2 0x1E98 DUP3 PUSH2 0x1D7F JUMP JUMPDEST SWAP1 POP SWAP2 SWAP1 POP JUMP JUMPDEST PUSH2 0x1EA8 DUP2 PUSH2 0x1E8E JUMP JUMPDEST DUP3 MSTORE POP POP JUMP JUMPDEST PUSH0 PUSH1 0x20 DUP3 ADD SWAP1 POP PUSH2 0x1EC1 PUSH0 DUP4 ADD DUP5 PUSH2 0x1E9F JUMP JUMPDEST SWAP3 SWAP2 POP POP JUMP JUMPDEST PUSH0 PUSH2 0x1ED1 DUP3 PUSH2 0x1D7F JUMP JUMPDEST SWAP1 POP SWAP2 SWAP1 POP JUMP JUMPDEST PUSH2 0x1EE1 DUP2 PUSH2 0x1EC7 JUMP JUMPDEST DUP3 MSTORE POP POP JUMP JUMPDEST PUSH0 PUSH1 0x20 DUP3 ADD SWAP1 POP PUSH2 0x1EFA PUSH0 DUP4 ADD DUP5 PUSH2 0x1ED8 JUMP JUMPDEST SWAP3 SWAP2 POP POP JUMP JUMPDEST PUSH0 PUSH2 0x1F0A DUP3 PUSH2 0x1D36 JUMP JUMPDEST SWAP1 POP SWAP2 SWAP1 POP JUMP JUMPDEST PUSH2 0x1F1A DUP2 PUSH2 0x1F00 JUMP JUMPDEST DUP3 MSTORE POP POP JUMP JUMPDEST PUSH0 PUSH1 0x20 DUP3 ADD SWAP1 POP PUSH2 0x1F33 PUSH0 DUP4 ADD DUP5 PUSH2 0x1F11 JUMP JUMPDEST SWAP3 SWAP2 POP POP JUMP JUMPDEST PUSH2 0x1F42 DUP2 PUSH2 0x1F00 JUMP JUMPDEST DUP2 EQ PUSH2 0x1F4C JUMPI PUSH0 PUSH0 REVERT JUMPDEST POP JUMP JUMPDEST PUSH0 DUP2 CALLDATALOAD SWAP1 POP PUSH2 0x1F5D DUP2 PUSH2 0x1F39 JUMP JUMPDEST SWAP3 SWAP2 POP POP JUMP JUMPDEST PUSH0 PUSH1 0x20 DUP3 DUP5 SUB SLT ISZERO PUSH2 0x1F78 JUMPI PUSH2 0x1F77 PUSH2 0x1DC9 JUMP JUMPDEST JUMPDEST PUSH0 PUSH2 0x1F85 DUP5 DUP3 DUP6 ADD PUSH2 0x1F4F JUMP JUMPDEST SWAP2 POP POP SWAP3 SWAP2 POP POP JUMP JUMPDEST PUSH2 0x1F97 DUP2 PUSH2 0x1DCD JUMP JUMPDEST DUP3 MSTORE POP POP JUMP JUMPDEST PUSH0 PUSH1 0x20 DUP3 ADD SWAP1 POP PUSH2 0x1FB0 PUSH0 DUP4 ADD DUP5 PUSH2 0x1F8E JUMP JUMPDEST SWAP3 SWAP2 POP POP JUMP JUMPDEST PUSH0 PUSH1 0x60 DUP3 ADD SWAP1 POP PUSH2 0x1FC9 PUSH0 DUP4 ADD DUP7 PUSH2 0x1F11 JUMP JUMPDEST PUSH2 0x1FD6 PUSH1 0x20 DUP4 ADD DUP6 PUSH2 0x1F11 JUMP JUMPDEST PUSH2 0x1FE3 PUSH1 0x40 DUP4 ADD DUP5 PUSH2 0x1F8E JUMP JUMPDEST SWAP5 SWAP4 POP POP POP POP JUMP JUMPDEST PUSH0 DUP2 ISZERO ISZERO SWAP1 POP SWAP2 SWAP1 POP JUMP JUMPDEST PUSH2 0x1FFF DUP2 PUSH2 0x1FEB JUMP JUMPDEST DUP2 EQ PUSH2 0x2009 JUMPI PUSH0 PUSH0 REVERT JUMPDEST POP JUMP JUMPDEST PUSH0 DUP2 MLOAD SWAP1 POP PUSH2 0x201A DUP2 PUSH2 0x1FF6 JUMP JUMPDEST SWAP3 SWAP2 POP POP JUMP JUMPDEST PUSH0 PUSH1 0x20 DUP3 DUP5 SUB SLT ISZERO PUSH2 0x2035 JUMPI PUSH2 0x2034 PUSH2 0x1DC9 JUMP JUMPDEST JUMPDEST PUSH0 PUSH2 0x2042 DUP5 DUP3 DUP6 ADD PUSH2 0x200C JUMP JUMPDEST SWAP2 POP POP SWAP3 SWAP2 POP POP JUMP JUMPDEST PUSH0 PUSH1 0x40 DUP3 ADD SWAP1 POP PUSH2 0x205E PUSH0 DUP4 ADD DUP6 PUSH2 0x1F11 JUMP JUMPDEST PUSH2 0x206B PUSH1 0x20 DUP4 ADD DUP5 PUSH2 0x1F8E JUMP JUMPDEST SWAP4 SWAP3 POP POP POP JUMP JUMPDEST PUSH32 0x4E487B7100000000000000000000000000000000000000000000000000000000 PUSH0 MSTORE PUSH1 0x41 PUSH1 0x4 MSTORE PUSH1 0x24 PUSH0 REVERT JUMPDEST PUSH32 0x4E487B7100000000000000000000000000000000000000000000000000000000 PUSH0 MSTORE PUSH1 0x32 PUSH1 0x4 MSTORE PUSH1 0x24 PUSH0 REVERT JUMPDEST PUSH32 0x4E487B7100000000000000000000000000000000000000000000000000000000 PUSH0 MSTORE PUSH1 0x11 PUSH1 0x4 MSTORE PUSH1 0x24 PUSH0 REVERT JUMPDEST PUSH0 PUSH2 0x2103 DUP3 PUSH2 0x1DCD JUMP JUMPDEST SWAP2 POP PUSH2 0x210E DUP4 PUSH2 0x1DCD JUMP JUMPDEST SWAP3 POP DUP3 DUP3 ADD SWAP1 POP DUP1 DUP3 GT ISZERO PUSH2 0x2126 JUMPI PUSH2 0x2125 PUSH2 0x20CC JUMP JUMPDEST JUMPDEST SWAP3 SWAP2 POP POP JUMP JUMPDEST PUSH0 DUP2 MLOAD SWAP1 POP SWAP2 SWAP1 POP JUMP JUMPDEST PUSH0 DUP3 DUP3 MSTORE PUSH1 0x20 DUP3 ADD SWAP1 POP SWAP3 SWAP2 POP POP JUMP JUMPDEST PUSH0 DUP2 SWAP1 POP PUSH1 0x20 DUP3 ADD SWAP1 POP SWAP2 SWAP1 POP JUMP JUMPDEST PUSH2 0x215E DUP2 PUSH2 0x1F00 JUMP JUMPDEST DUP3 MSTORE POP POP JUMP JUMPDEST PUSH0 PUSH2 0x216F DUP4 DUP4 PUSH2 0x2155 JUMP JUMPDEST PUSH1 0x20 DUP4 ADD SWAP1 POP SWAP3 SWAP2 POP POP JUMP JUMPDEST PUSH0 PUSH1 0x20 DUP3 ADD SWAP1 POP SWAP2 SWAP1 POP JUMP JUMPDEST PUSH0 PUSH2 0x2191 DUP3 PUSH2 0x212C JUMP JUMPDEST PUSH2 0x219B DUP2 DUP6 PUSH2 0x2136 JUMP JUMPDEST SWAP4 POP PUSH2 0x21A6 DUP4 PUSH2 0x2146 JUMP JUMPDEST DUP1 PUSH0 JUMPDEST DUP4 DUP2 LT ISZERO PUSH2 0x21D6 JUMPI DUP2 MLOAD PUSH2 0x21BD DUP9 DUP3 PUSH2 0x2164 JUMP JUMPDEST SWAP8 POP PUSH2 0x21C8 DUP4 PUSH2 0x217B JUMP JUMPDEST SWAP3 POP POP PUSH1 0x1 DUP2 ADD SWAP1 POP PUSH2 0x21A9 JUMP JUMPDEST POP DUP6 SWAP4 POP POP POP POP SWAP3 SWAP2 POP POP JUMP JUMPDEST PUSH0 PUSH1 0xA0 DUP3 ADD SWAP1 POP PUSH2 0x21F6 PUSH0 DUP4 ADD DUP9 PUSH2 0x1F8E JUMP JUMPDEST PUSH2 0x2203 PUSH1 0x20 DUP4 ADD DUP8 PUSH2 0x1F8E JUMP JUMPDEST DUP2 DUP2 SUB PUSH1 0x40 DUP4 ADD MSTORE PUSH2 0x2215 DUP2 DUP7 PUSH2 0x2187 JUMP JUMPDEST SWAP1 POP PUSH2 0x2224 PUSH1 0x60 DUP4 ADD DUP6 PUSH2 0x1F11 JUMP JUMPDEST PUSH2 0x2231 PUSH1 0x80 DUP4 ADD DUP5 PUSH2 0x1F8E JUMP JUMPDEST SWAP7 SWAP6 POP POP POP POP POP POP JUMP JUMPDEST PUSH0 PUSH1 0xC0 DUP3 ADD SWAP1 POP PUSH2 0x224E PUSH0 DUP4 ADD DUP10 PUSH2 0x1F11 JUMP JUMPDEST PUSH2 0x225B PUSH1 0x20 DUP4 ADD DUP9 PUSH2 0x1F8E JUMP JUMPDEST PUSH2 0x2268 PUSH1 0x40 DUP4 ADD DUP8 PUSH2 0x1F8E JUMP JUMPDEST PUSH2 0x2275 PUSH1 0x60 DUP4 ADD DUP7 PUSH2 0x1F8E JUMP JUMPDEST PUSH2 0x2282 PUSH1 0x80 DUP4 ADD DUP6 PUSH2 0x1F11 JUMP JUMPDEST PUSH2 0x228F PUSH1 0xA0 DUP4 ADD DUP5 PUSH2 0x1F8E JUMP JUMPDEST SWAP8 SWAP7 POP POP POP POP POP POP POP JUMP JUMPDEST PUSH0 DUP2 MLOAD SWAP1 POP PUSH2 0x22A8 DUP2 PUSH2 0x1DD6 JUMP JUMPDEST SWAP3 SWAP2 POP POP JUMP JUMPDEST PUSH0 PUSH0 PUSH0 PUSH1 0x60 DUP5 DUP7 SUB SLT ISZERO PUSH2 0x22C5 JUMPI PUSH2 0x22C4 PUSH2 0x1DC9 JUMP JUMPDEST JUMPDEST PUSH0 PUSH2 0x22D2 DUP7 DUP3 DUP8 ADD PUSH2 0x229A JUMP JUMPDEST SWAP4 POP POP PUSH1 0x20 PUSH2 0x22E3 DUP7 DUP3 DUP8 ADD PUSH2 0x229A JUMP JUMPDEST SWAP3 POP POP PUSH1 0x40 PUSH2 0x22F4 DUP7 DUP3 DUP8 ADD PUSH2 0x229A JUMP JUMPDEST SWAP2 POP POP SWAP3 POP SWAP3 POP SWAP3 JUMP JUMPDEST PUSH0 PUSH1 0x60 DUP3 ADD SWAP1 POP PUSH2 0x2311 PUSH0 DUP4 ADD DUP7 PUSH2 0x1F8E JUMP JUMPDEST PUSH2 0x231E PUSH1 0x20 DUP4 ADD DUP6 PUSH2 0x1F8E JUMP JUMPDEST PUSH2 0x232B PUSH1 0x40 DUP4 ADD DUP5 PUSH2 0x1F8E JUMP JUMPDEST SWAP5 SWAP4 POP POP POP POP JUMP JUMPDEST PUSH0 DUP2 MLOAD SWAP1 POP PUSH2 0x2341 DUP2 PUSH2 0x1F39 JUMP JUMPDEST SWAP3 SWAP2 POP POP JUMP JUMPDEST PUSH0 PUSH1 0x20 DUP3 DUP5 SUB SLT ISZERO PUSH2 0x235C JUMPI PUSH2 0x235B PUSH2 0x1DC9 JUMP JUMPDEST JUMPDEST PUSH0 PUSH2 0x2369 DUP5 DUP3 DUP6 ADD PUSH2 0x2333 JUMP JUMPDEST SWAP2 POP POP SWAP3 SWAP2 POP POP JUMP JUMPDEST PUSH0 PUSH1 0x40 DUP3 ADD SWAP1 POP PUSH2 0x2385 PUSH0 DUP4 ADD DUP6 PUSH2 0x1F11 JUMP JUMPDEST PUSH2 0x2392 PUSH1 0x20 DUP4 ADD DUP5 PUSH2 0x1F11 JUMP JUMPDEST SWAP4 SWAP3 POP POP POP JUMP JUMPDEST PUSH0 PUSH1 0x20 DUP3 DUP5 SUB SLT ISZERO PUSH2 0x23AE JUMPI PUSH2 0x23AD PUSH2 0x1DC9 JUMP JUMPDEST JUMPDEST PUSH0 PUSH2 0x23BB DUP5 DUP3 DUP6 ADD PUSH2 0x229A JUMP JUMPDEST SWAP2 POP POP SWAP3 SWAP2 POP POP JUMP JUMPDEST PUSH0 PUSH2 0x23CE DUP3 PUSH2 0x1DCD JUMP JUMPDEST SWAP2 POP PUSH2 0x23D9 DUP4 PUSH2 0x1DCD JUMP JUMPDEST SWAP3 POP DUP3 DUP3 SUB SWAP1 POP DUP2 DUP2 GT ISZERO PUSH2 0x23F1 JUMPI PUSH2 0x23F0 PUSH2 0x20CC JUMP JUMPDEST JUMPDEST SWAP3 SWAP2 POP POP JUMP JUMPDEST PUSH0 PUSH1 0x40 DUP3 ADD SWAP1 POP PUSH2 0x240A PUSH0 DUP4 ADD DUP6 PUSH2 0x1F8E JUMP JUMPDEST PUSH2 0x2417 PUSH1 0x20 DUP4 ADD DUP5 PUSH2 0x1F8E JUMP JUMPDEST SWAP4 SWAP3 POP POP POP JUMP INVALID LOG2 PUSH5 0x6970667358 0x22 SLT KECCAK256 STOP 0xD6 0xA9 DUP5 0xD 0xE2 0x1F 0x24 TLOAD BASEFEE STOP CALLER 0x4D 0xEB DELEGATECALL SWAP5 SWAP8 DUP15 TLOAD 0xD0 SWAP6 0x4C SLOAD CHAINID DIV SWAP9 0xA5 PUSH9 0x6B4774064736F6C63 NUMBER STOP ADDMOD SHR STOP CALLER "
				},
				"gasEstimates": {
					"creation": {
						"codeDepositCost": "1860000",
						"executionCost": "infinite",
						"totalCost": "infinite"
					},
					"external": {
						"DEADLINE_EXTENSION()": "413",
						"addLiquidityQ4A(uint256,uint256,uint256)": "infinite",
						"addLiquidityUB4(uint256,uint256,uint256)": "infinite",
						"liquidityWallet()": "2530",
						"owner()": "2537",
						"quantumToken()": "infinite",
						"removeLiquidityQ4A(uint256,uint256,uint256)": "infinite",
						"removeLiquidityUB4(uint256,uint256,uint256)": "infinite",
						"renounceOwnership()": "infinite",
						"swapQ4AtoUB4(uint256,uint256)": "infinite",
						"swapUB4toQ4A(uint256,uint256)": "infinite",
						"transferOwnership(address)": "infinite",
						"ubi4allToken()": "infinite",
						"uniswapFactory()": "infinite",
						"uniswapRouter()": "infinite"
					}
				},
				"methodIdentifiers": {
					"DEADLINE_EXTENSION()": "ffe6f79a",
					"addLiquidityQ4A(uint256,uint256,uint256)": "58f11763",
					"addLiquidityUB4(uint256,uint256,uint256)": "fc0d6874",
					"liquidityWallet()": "d4698016",
					"owner()": "8da5cb5b",
					"quantumToken()": "93565b4c",
					"removeLiquidityQ4A(uint256,uint256,uint256)": "9d81a8aa",
					"removeLiquidityUB4(uint256,uint256,uint256)": "6cfbbb75",
					"renounceOwnership()": "715018a6",
					"swapQ4AtoUB4(uint256,uint256)": "3b78439a",
					"swapUB4toQ4A(uint256,uint256)": "a43d6c1b",
					"transferOwnership(address)": "f2fde38b",
					"ubi4allToken()": "10d67098",
					"uniswapFactory()": "8bdb2afa",
					"uniswapRouter()": "735de9f7"
				}
			},
			"storageLayout": {
				"storage": [
					{
						"astId": 8,
						"contract": "quantum/UBI4ALLLiquidator.sol:UBI4ALLLiquidator",
						"label": "_owner",
						"offset": 0,
						"slot": "0",
						"type": "t_address"
					},
					{
						"astId": 883,
						"contract": "quantum/UBI4ALLLiquidator.sol:UBI4ALLLiquidator",
						"label": "ubi4allToken",
						"offset": 0,
						"slot": "1",
						"type": "t_contract(IERC20)225"
					},
					{
						"astId": 886,
						"contract": "quantum/UBI4ALLLiquidator.sol:UBI4ALLLiquidator",
						"label": "quantumToken",
						"offset": 0,
						"slot": "2",
						"type": "t_contract(IERC20)225"
					},
					{
						"astId": 889,
						"contract": "quantum/UBI4ALLLiquidator.sol:UBI4ALLLiquidator",
						"label": "uniswapRouter",
						"offset": 0,
						"slot": "3",
						"type": "t_contract(IUniswapV2Router02)867"
					},
					{
						"astId": 892,
						"contract": "quantum/UBI4ALLLiquidator.sol:UBI4ALLLiquidator",
						"label": "uniswapFactory",
						"offset": 0,
						"slot": "4",
						"type": "t_contract(IUniswapV2Factory)527"
					},
					{
						"astId": 894,
						"contract": "quantum/UBI4ALLLiquidator.sol:UBI4ALLLiquidator",
						"label": "liquidityWallet",
						"offset": 0,
						"slot": "5",
						"type": "t_address"
					}
				],
				"types": {
					"t_address": {
						"encoding": "inplace",
						"label": "address",
						"numberOfBytes": "20"
					},
					"t_contract(IERC20)225": {
						"encoding": "inplace",
						"label": "contract IERC20",
						"numberOfBytes": "20"
					},
					"t_contract(IUniswapV2Factory)527": {
						"encoding": "inplace",
						"label": "contract IUniswapV2Factory",
						"numberOfBytes": "20"
					},
					"t_contract(IUniswapV2Router02)867": {
						"encoding": "inplace",
						"label": "contract IUniswapV2Router02",
						"numberOfBytes": "20"
					}
				}
			},
			"userdoc": {
				"kind": "user",
				"methods": {},
				"version": 1
			}
		}
	}
}