{
	"finance/UBI4ALLVesting.sol": {
		"UBI4ALLVesting": {
			"abi": [
				{
					"inputs": [
						{
							"internalType": "address",
							"name": "_ubi4allToken",
							"type": "address"
						},
						{
							"internalType": "address",
							"name": "_initialOwner",
							"type": "address"
						}
					],
					"stateMutability": "nonpayable",
					"type": "constructor"
				},
				{
					"inputs": [
						{
							"internalType": "address",
							"name": "owner",
							"type": "address"
						}
					],
					"name": "OwnableInvalidOwner",
					"type": "error"
				},
				{
					"inputs": [
						{
							"internalType": "address",
							"name": "account",
							"type": "address"
						}
					],
					"name": "OwnableUnauthorizedAccount",
					"type": "error"
				},
				{
					"anonymous": false,
					"inputs": [
						{
							"indexed": true,
							"internalType": "address",
							"name": "previousOwner",
							"type": "address"
						},
						{
							"indexed": true,
							"internalType": "address",
							"name": "newOwner",
							"type": "address"
						}
					],
					"name": "OwnershipTransferred",
					"type": "event"
				},
				{
					"anonymous": false,
					"inputs": [
						{
							"indexed": false,
							"internalType": "address",
							"name": "account",
							"type": "address"
						}
					],
					"name": "Paused",
					"type": "event"
				},
				{
					"anonymous": false,
					"inputs": [
						{
							"indexed": true,
							"internalType": "address",
							"name": "beneficiary",
							"type": "address"
						},
						{
							"indexed": false,
							"internalType": "uint256",
							"name": "amount",
							"type": "uint256"
						}
					],
					"name": "TokensReleased",
					"type": "event"
				},
				{
					"anonymous": false,
					"inputs": [
						{
							"indexed": false,
							"internalType": "address",
							"name": "account",
							"type": "address"
						}
					],
					"name": "Unpaused",
					"type": "event"
				},
				{
					"anonymous": false,
					"inputs": [
						{
							"indexed": true,
							"internalType": "address",
							"name": "beneficiary",
							"type": "address"
						},
						{
							"indexed": false,
							"internalType": "uint256",
							"name": "amount",
							"type": "uint256"
						}
					],
					"name": "VestingRevoked",
					"type": "event"
				},
				{
					"anonymous": false,
					"inputs": [
						{
							"indexed": true,
							"internalType": "address",
							"name": "beneficiary",
							"type": "address"
						},
						{
							"indexed": false,
							"internalType": "uint256",
							"name": "amount",
							"type": "uint256"
						}
					],
					"name": "VestingScheduleCreated",
					"type": "event"
				},
				{
					"inputs": [],
					"name": "VESTING_DURATION",
					"outputs": [
						{
							"internalType": "uint256",
							"name": "",
							"type": "uint256"
						}
					],
					"stateMutability": "view",
					"type": "function"
				},
				{
					"inputs": [],
					"name": "VESTING_PERIODS",
					"outputs": [
						{
							"internalType": "uint256",
							"name": "",
							"type": "uint256"
						}
					],
					"stateMutability": "view",
					"type": "function"
				},
				{
					"inputs": [
						{
							"internalType": "address",
							"name": "beneficiary",
							"type": "address"
						},
						{
							"internalType": "uint256",
							"name": "amount",
							"type": "uint256"
						}
					],
					"name": "createVesting",
					"outputs": [],
					"stateMutability": "nonpayable",
					"type": "function"
				},
				{
					"inputs": [
						{
							"internalType": "address",
							"name": "beneficiary",
							"type": "address"
						}
					],
					"name": "getReleasableAmount",
					"outputs": [
						{
							"internalType": "uint256",
							"name": "",
							"type": "uint256"
						}
					],
					"stateMutability": "view",
					"type": "function"
				},
				{
					"inputs": [
						{
							"internalType": "address",
							"name": "beneficiary",
							"type": "address"
						}
					],
					"name": "getVestingSchedule",
					"outputs": [
						{
							"components": [
								{
									"internalType": "uint256",
									"name": "totalAmount",
									"type": "uint256"
								},
								{
									"internalType": "uint256",
									"name": "releasedAmount",
									"type": "uint256"
								},
								{
									"internalType": "uint256",
									"name": "startTime",
									"type": "uint256"
								},
								{
									"internalType": "uint256",
									"name": "duration",
									"type": "uint256"
								},
								{
									"internalType": "uint256",
									"name": "cliffDuration",
									"type": "uint256"
								},
								{
									"internalType": "bool",
									"name": "isRevocable",
									"type": "bool"
								},
								{
									"internalType": "bool",
									"name": "isRevoked",
									"type": "bool"
								},
								{
									"internalType": "uint256",
									"name": "lastReleaseTime",
									"type": "uint256"
								}
							],
							"internalType": "struct UBI4ALLVestingLib.VestingSchedule",
							"name": "",
							"type": "tuple"
						}
					],
					"stateMutability": "view",
					"type": "function"
				},
				{
					"inputs": [],
					"name": "owner",
					"outputs": [
						{
							"internalType": "address",
							"name": "",
							"type": "address"
						}
					],
					"stateMutability": "view",
					"type": "function"
				},
				{
					"inputs": [],
					"name": "pause",
					"outputs": [],
					"stateMutability": "nonpayable",
					"type": "function"
				},
				{
					"inputs": [],
					"name": "paused",
					"outputs": [
						{
							"internalType": "bool",
							"name": "",
							"type": "bool"
						}
					],
					"stateMutability": "view",
					"type": "function"
				},
				{
					"inputs": [
						{
							"internalType": "address",
							"name": "beneficiary",
							"type": "address"
						}
					],
					"name": "release",
					"outputs": [],
					"stateMutability": "nonpayable",
					"type": "function"
				},
				{
					"inputs": [],
					"name": "renounceOwnership",
					"outputs": [],
					"stateMutability": "nonpayable",
					"type": "function"
				},
				{
					"inputs": [
						{
							"internalType": "address",
							"name": "beneficiary",
							"type": "address"
						}
					],
					"name": "revoke",
					"outputs": [],
					"stateMutability": "nonpayable",
					"type": "function"
				},
				{
					"inputs": [],
					"name": "totalVested",
					"outputs": [
						{
							"internalType": "uint256",
							"name": "",
							"type": "uint256"
						}
					],
					"stateMutability": "view",
					"type": "function"
				},
				{
					"inputs": [
						{
							"internalType": "address",
							"name": "newOwner",
							"type": "address"
						}
					],
					"name": "transferOwnership",
					"outputs": [],
					"stateMutability": "nonpayable",
					"type": "function"
				},
				{
					"inputs": [],
					"name": "ubi4allToken",
					"outputs": [
						{
							"internalType": "contract IERC20",
							"name": "",
							"type": "address"
						}
					],
					"stateMutability": "view",
					"type": "function"
				},
				{
					"inputs": [],
					"name": "unpause",
					"outputs": [],
					"stateMutability": "nonpayable",
					"type": "function"
				},
				{
					"inputs": [
						{
							"internalType": "address",
							"name": "",
							"type": "address"
						}
					],
					"name": "vestingSchedules",
					"outputs": [
						{
							"internalType": "uint256",
							"name": "totalAmount",
							"type": "uint256"
						},
						{
							"internalType": "uint256",
							"name": "releasedAmount",
							"type": "uint256"
						},
						{
							"internalType": "uint256",
							"name": "startTime",
							"type": "uint256"
						},
						{
							"internalType": "uint256",
							"name": "duration",
							"type": "uint256"
						},
						{
							"internalType": "uint256",
							"name": "cliffDuration",
							"type": "uint256"
						},
						{
							"internalType": "bool",
							"name": "isRevocable",
							"type": "bool"
						},
						{
							"internalType": "bool",
							"name": "isRevoked",
							"type": "bool"
						},
						{
							"internalType": "uint256",
							"name": "lastReleaseTime",
							"type": "uint256"
						}
					],
					"stateMutability": "view",
					"type": "function"
				},
				{
					"inputs": [],
					"name": "vestingStartTime",
					"outputs": [
						{
							"internalType": "uint256",
							"name": "",
							"type": "uint256"
						}
					],
					"stateMutability": "view",
					"type": "function"
				}
			],
			"devdoc": {
				"errors": {
					"OwnableInvalidOwner(address)": [
						{
							"details": "The owner is not a valid owner account. (eg. `address(0)`)"
						}
					],
					"OwnableUnauthorizedAccount(address)": [
						{
							"details": "The caller account is not authorized to perform an operation."
						}
					]
				},
				"events": {
					"Paused(address)": {
						"details": "Emitted when the pause is triggered by `account`."
					},
					"Unpaused(address)": {
						"details": "Emitted when the pause is lifted by `account`."
					}
				},
				"kind": "dev",
				"methods": {
					"owner()": {
						"details": "Returns the address of the current owner."
					},
					"paused()": {
						"details": "Returns true if the contract is paused, and false otherwise."
					},
					"renounceOwnership()": {
						"details": "Leaves the contract without owner. It will not be possible to call `onlyOwner` functions. Can only be called by the current owner. NOTE: Renouncing ownership will leave the contract without an owner, thereby disabling any functionality that is only available to the owner."
					},
					"transferOwnership(address)": {
						"details": "Transfers ownership of the contract to a new account (`newOwner`). Can only be called by the current owner."
					}
				},
				"version": 1
			},
			"evm": {
				"assembly": "    /* \"finance/UBI4ALLVesting.sol\":333:4187  contract UBI4ALLVesting is ReentrancyGuard, Ownable, Pausable {... */\n  mstore(0x40, 0xc0)\n    /* \"finance/UBI4ALLVesting.sol\":1096:1337  constructor(address _ubi4allToken, address _initialOwner) Ownable(_initialOwner) {... */\n  callvalue\n  dup1\n  iszero\n  tag_1\n  jumpi\n  revert(0x00, 0x00)\ntag_1:\n  pop\n  mload(0x40)\n  sub(codesize, bytecodeSize)\n  dup1\n  bytecodeSize\n  dup4\n  codecopy\n  dup2\n  dup2\n  add\n  0x40\n  mstore\n  dup2\n  add\n  swap1\n  tag_2\n  swap2\n  swap1\n  tag_3\n  jump\t// in\ntag_2:\n    /* \"finance/UBI4ALLVesting.sol\":1162:1175  _initialOwner */\n  dup1\n    /* \"@openzeppelin/contracts/security/ReentrancyGuard.sol\":1717:1718  1 */\n  0x01\n    /* \"@openzeppelin/contracts/security/ReentrancyGuard.sol\":1822:1829  _status */\n  0x00\n    /* \"@openzeppelin/contracts/security/ReentrancyGuard.sol\":1822:1844  _status = _NOT_ENTERED */\n  dup2\n  swap1\n  sstore\n  pop\n    /* \"@openzeppelin/contracts/access/Ownable.sol\":1297:1298  0 */\n  0x00\n    /* \"@openzeppelin/contracts/access/Ownable.sol\":1273:1299  initialOwner == address(0) */\n  0xffffffffffffffffffffffffffffffffffffffff\n  and\n    /* \"@openzeppelin/contracts/access/Ownable.sol\":1273:1285  initialOwner */\n  dup2\n    /* \"@openzeppelin/contracts/access/Ownable.sol\":1273:1299  initialOwner == address(0) */\n  0xffffffffffffffffffffffffffffffffffffffff\n  and\n  sub\n    /* \"@openzeppelin/contracts/access/Ownable.sol\":1269:1364  if (initialOwner == address(0)) {... */\n  tag_10\n  jumpi\n    /* \"@openzeppelin/contracts/access/Ownable.sol\":1350:1351  0 */\n  0x00\n    /* \"@openzeppelin/contracts/access/Ownable.sol\":1322:1353  OwnableInvalidOwner(address(0)) */\n  mload(0x40)\n  0x1e4fbdf700000000000000000000000000000000000000000000000000000000\n  dup2\n  mstore\n  0x04\n  add\n  tag_11\n  swap2\n  swap1\n  tag_12\n  jump\t// in\ntag_11:\n  mload(0x40)\n  dup1\n  swap2\n  sub\n  swap1\n  revert\n    /* \"@openzeppelin/contracts/access/Ownable.sol\":1269:1364  if (initialOwner == address(0)) {... */\ntag_10:\n    /* \"@openzeppelin/contracts/access/Ownable.sol\":1373:1405  _transferOwnership(initialOwner) */\n  tag_13\n    /* \"@openzeppelin/contracts/access/Ownable.sol\":1392:1404  initialOwner */\n  dup2\n    /* \"@openzeppelin/contracts/access/Ownable.sol\":1373:1391  _transferOwnership */\n  shl(0x20, tag_14)\n    /* \"@openzeppelin/contracts/access/Ownable.sol\":1373:1405  _transferOwnership(initialOwner) */\n  0x20\n  shr\n  jump\t// in\ntag_13:\n    /* \"@openzeppelin/contracts/access/Ownable.sol\":1225:1412  constructor(address initialOwner) {... */\n  pop\n    /* \"@openzeppelin/contracts/security/Pausable.sol\":1007:1012  false */\n  0x00\n    /* \"@openzeppelin/contracts/security/Pausable.sol\":997:1004  _paused */\n  0x01\n  0x14\n    /* \"@openzeppelin/contracts/security/Pausable.sol\":997:1012  _paused = false */\n  0x0100\n  exp\n  dup2\n  sload\n  dup2\n  0xff\n  mul\n  not\n  and\n  swap1\n  dup4\n  iszero\n  iszero\n  mul\n  or\n  swap1\n  sstore\n  pop\n    /* \"finance/UBI4ALLVesting.sol\":1220:1221  0 */\n  0x00\n    /* \"finance/UBI4ALLVesting.sol\":1195:1222  _ubi4allToken != address(0) */\n  0xffffffffffffffffffffffffffffffffffffffff\n  and\n    /* \"finance/UBI4ALLVesting.sol\":1195:1208  _ubi4allToken */\n  dup3\n    /* \"finance/UBI4ALLVesting.sol\":1195:1222  _ubi4allToken != address(0) */\n  0xffffffffffffffffffffffffffffffffffffffff\n  and\n  sub\n    /* \"finance/UBI4ALLVesting.sol\":1187:1240  require(_ubi4allToken != address(0), \"Invalid token\") */\n  tag_17\n  jumpi\n  mload(0x40)\n  0x08c379a000000000000000000000000000000000000000000000000000000000\n  dup2\n  mstore\n  0x04\n  add\n  tag_18\n  swap1\n  tag_19\n  jump\t// in\ntag_18:\n  mload(0x40)\n  dup1\n  swap2\n  sub\n  swap1\n  revert\ntag_17:\n    /* \"finance/UBI4ALLVesting.sol\":1272:1285  _ubi4allToken */\n  dup2\n    /* \"finance/UBI4ALLVesting.sol\":1250:1286  ubi4allToken = IERC20(_ubi4allToken) */\n  0xffffffffffffffffffffffffffffffffffffffff\n  and\n  0x80\n  dup2\n  0xffffffffffffffffffffffffffffffffffffffff\n  and\n  dup2\n  mstore\n  pop\n  pop\n    /* \"finance/UBI4ALLVesting.sol\":1315:1330  block.timestamp */\n  timestamp\n    /* \"finance/UBI4ALLVesting.sol\":1296:1330  vestingStartTime = block.timestamp */\n  0xa0\n  dup2\n  dup2\n  mstore\n  pop\n  pop\n    /* \"finance/UBI4ALLVesting.sol\":1096:1337  constructor(address _ubi4allToken, address _initialOwner) Ownable(_initialOwner) {... */\n  pop\n  pop\n    /* \"finance/UBI4ALLVesting.sol\":333:4187  contract UBI4ALLVesting is ReentrancyGuard, Ownable, Pausable {... */\n  jump(tag_20)\n    /* \"@openzeppelin/contracts/access/Ownable.sol\":2912:3099  function _transferOwnership(address newOwner) internal virtual {... */\ntag_14:\n    /* \"@openzeppelin/contracts/access/Ownable.sol\":2985:3001  address oldOwner */\n  0x00\n    /* \"@openzeppelin/contracts/access/Ownable.sol\":3004:3010  _owner */\n  0x01\n  0x00\n  swap1\n  sload\n  swap1\n  0x0100\n  exp\n  swap1\n  div\n  0xffffffffffffffffffffffffffffffffffffffff\n  and\n    /* \"@openzeppelin/contracts/access/Ownable.sol\":2985:3010  address oldOwner = _owner */\n  swap1\n  pop\n    /* \"@openzeppelin/contracts/access/Ownable.sol\":3029:3037  newOwner */\n  dup2\n    /* \"@openzeppelin/contracts/access/Ownable.sol\":3020:3026  _owner */\n  0x01\n  0x00\n    /* \"@openzeppelin/contracts/access/Ownable.sol\":3020:3037  _owner = newOwner */\n  0x0100\n  exp\n  dup2\n  sload\n  dup2\n  0xffffffffffffffffffffffffffffffffffffffff\n  mul\n  not\n  and\n  swap1\n  dup4\n  0xffffffffffffffffffffffffffffffffffffffff\n  and\n  mul\n  or\n  swap1\n  sstore\n  pop\n    /* \"@openzeppelin/contracts/access/Ownable.sol\":3083:3091  newOwner */\n  dup2\n    /* \"@openzeppelin/contracts/access/Ownable.sol\":3052:3092  OwnershipTransferred(oldOwner, newOwner) */\n  0xffffffffffffffffffffffffffffffffffffffff\n  and\n    /* \"@openzeppelin/contracts/access/Ownable.sol\":3073:3081  oldOwner */\n  dup2\n    /* \"@openzeppelin/contracts/access/Ownable.sol\":3052:3092  OwnershipTransferred(oldOwner, newOwner) */\n  0xffffffffffffffffffffffffffffffffffffffff\n  and\n  0x8be0079c531659141344cd1fd0a4f28419497f9722a3daafe3b4186f6b6457e0\n  mload(0x40)\n  mload(0x40)\n  dup1\n  swap2\n  sub\n  swap1\n  log3\n    /* \"@openzeppelin/contracts/access/Ownable.sol\":2975:3099  {... */\n  pop\n    /* \"@openzeppelin/contracts/access/Ownable.sol\":2912:3099  function _transferOwnership(address newOwner) internal virtual {... */\n  pop\n  jump\t// out\n    /* \"#utility.yul\":88:205   */\ntag_23:\n    /* \"#utility.yul\":197:198   */\n  0x00\n    /* \"#utility.yul\":194:195   */\n  0x00\n    /* \"#utility.yul\":187:199   */\n  revert\n    /* \"#utility.yul\":334:460   */\ntag_25:\n    /* \"#utility.yul\":371:378   */\n  0x00\n    /* \"#utility.yul\":411:453   */\n  0xffffffffffffffffffffffffffffffffffffffff\n    /* \"#utility.yul\":404:409   */\n  dup3\n    /* \"#utility.yul\":400:454   */\n  and\n    /* \"#utility.yul\":389:454   */\n  swap1\n  pop\n    /* \"#utility.yul\":334:460   */\n  swap2\n  swap1\n  pop\n  jump\t// out\n    /* \"#utility.yul\":466:562   */\ntag_26:\n    /* \"#utility.yul\":503:510   */\n  0x00\n    /* \"#utility.yul\":532:556   */\n  tag_39\n    /* \"#utility.yul\":550:555   */\n  dup3\n    /* \"#utility.yul\":532:556   */\n  tag_25\n  jump\t// in\ntag_39:\n    /* \"#utility.yul\":521:556   */\n  swap1\n  pop\n    /* \"#utility.yul\":466:562   */\n  swap2\n  swap1\n  pop\n  jump\t// out\n    /* \"#utility.yul\":568:690   */\ntag_27:\n    /* \"#utility.yul\":641:665   */\n  tag_41\n    /* \"#utility.yul\":659:664   */\n  dup2\n    /* \"#utility.yul\":641:665   */\n  tag_26\n  jump\t// in\ntag_41:\n    /* \"#utility.yul\":634:639   */\n  dup2\n    /* \"#utility.yul\":631:666   */\n  eq\n    /* \"#utility.yul\":621:684   */\n  tag_42\n  jumpi\n    /* \"#utility.yul\":680:681   */\n  0x00\n    /* \"#utility.yul\":677:678   */\n  0x00\n    /* \"#utility.yul\":670:682   */\n  revert\n    /* \"#utility.yul\":621:684   */\ntag_42:\n    /* \"#utility.yul\":568:690   */\n  pop\n  jump\t// out\n    /* \"#utility.yul\":696:839   */\ntag_28:\n    /* \"#utility.yul\":753:758   */\n  0x00\n    /* \"#utility.yul\":784:790   */\n  dup2\n    /* \"#utility.yul\":778:791   */\n  mload\n    /* \"#utility.yul\":769:791   */\n  swap1\n  pop\n    /* \"#utility.yul\":800:833   */\n  tag_44\n    /* \"#utility.yul\":827:832   */\n  dup2\n    /* \"#utility.yul\":800:833   */\n  tag_27\n  jump\t// in\ntag_44:\n    /* \"#utility.yul\":696:839   */\n  swap3\n  swap2\n  pop\n  pop\n  jump\t// out\n    /* \"#utility.yul\":845:1352   */\ntag_3:\n    /* \"#utility.yul\":924:930   */\n  0x00\n    /* \"#utility.yul\":932:938   */\n  0x00\n    /* \"#utility.yul\":981:983   */\n  0x40\n    /* \"#utility.yul\":969:978   */\n  dup4\n    /* \"#utility.yul\":960:967   */\n  dup6\n    /* \"#utility.yul\":956:979   */\n  sub\n    /* \"#utility.yul\":952:984   */\n  slt\n    /* \"#utility.yul\":949:1068   */\n  iszero\n  tag_46\n  jumpi\n    /* \"#utility.yul\":987:1066   */\n  tag_47\n  tag_23\n  jump\t// in\ntag_47:\n    /* \"#utility.yul\":949:1068   */\ntag_46:\n    /* \"#utility.yul\":1107:1108   */\n  0x00\n    /* \"#utility.yul\":1132:1196   */\n  tag_48\n    /* \"#utility.yul\":1188:1195   */\n  dup6\n    /* \"#utility.yul\":1179:1185   */\n  dup3\n    /* \"#utility.yul\":1168:1177   */\n  dup7\n    /* \"#utility.yul\":1164:1186   */\n  add\n    /* \"#utility.yul\":1132:1196   */\n  tag_28\n  jump\t// in\ntag_48:\n    /* \"#utility.yul\":1122:1196   */\n  swap3\n  pop\n    /* \"#utility.yul\":1078:1206   */\n  pop\n    /* \"#utility.yul\":1245:1247   */\n  0x20\n    /* \"#utility.yul\":1271:1335   */\n  tag_49\n    /* \"#utility.yul\":1327:1334   */\n  dup6\n    /* \"#utility.yul\":1318:1324   */\n  dup3\n    /* \"#utility.yul\":1307:1316   */\n  dup7\n    /* \"#utility.yul\":1303:1325   */\n  add\n    /* \"#utility.yul\":1271:1335   */\n  tag_28\n  jump\t// in\ntag_49:\n    /* \"#utility.yul\":1261:1335   */\n  swap2\n  pop\n    /* \"#utility.yul\":1216:1345   */\n  pop\n    /* \"#utility.yul\":845:1352   */\n  swap3\n  pop\n  swap3\n  swap1\n  pop\n  jump\t// out\n    /* \"#utility.yul\":1358:1476   */\ntag_29:\n    /* \"#utility.yul\":1445:1469   */\n  tag_51\n    /* \"#utility.yul\":1463:1468   */\n  dup2\n    /* \"#utility.yul\":1445:1469   */\n  tag_26\n  jump\t// in\ntag_51:\n    /* \"#utility.yul\":1440:1443   */\n  dup3\n    /* \"#utility.yul\":1433:1470   */\n  mstore\n    /* \"#utility.yul\":1358:1476   */\n  pop\n  pop\n  jump\t// out\n    /* \"#utility.yul\":1482:1704   */\ntag_12:\n    /* \"#utility.yul\":1575:1579   */\n  0x00\n    /* \"#utility.yul\":1613:1615   */\n  0x20\n    /* \"#utility.yul\":1602:1611   */\n  dup3\n    /* \"#utility.yul\":1598:1616   */\n  add\n    /* \"#utility.yul\":1590:1616   */\n  swap1\n  pop\n    /* \"#utility.yul\":1626:1697   */\n  tag_53\n    /* \"#utility.yul\":1694:1695   */\n  0x00\n    /* \"#utility.yul\":1683:1692   */\n  dup4\n    /* \"#utility.yul\":1679:1696   */\n  add\n    /* \"#utility.yul\":1670:1676   */\n  dup5\n    /* \"#utility.yul\":1626:1697   */\n  tag_29\n  jump\t// in\ntag_53:\n    /* \"#utility.yul\":1482:1704   */\n  swap3\n  swap2\n  pop\n  pop\n  jump\t// out\n    /* \"#utility.yul\":1710:1879   */\ntag_30:\n    /* \"#utility.yul\":1794:1805   */\n  0x00\n    /* \"#utility.yul\":1828:1834   */\n  dup3\n    /* \"#utility.yul\":1823:1826   */\n  dup3\n    /* \"#utility.yul\":1816:1835   */\n  mstore\n    /* \"#utility.yul\":1868:1872   */\n  0x20\n    /* \"#utility.yul\":1863:1866   */\n  dup3\n    /* \"#utility.yul\":1859:1873   */\n  add\n    /* \"#utility.yul\":1844:1873   */\n  swap1\n  pop\n    /* \"#utility.yul\":1710:1879   */\n  swap3\n  swap2\n  pop\n  pop\n  jump\t// out\n    /* \"#utility.yul\":1885:2048   */\ntag_31:\n    /* \"#utility.yul\":2025:2040   */\n  0x496e76616c696420746f6b656e00000000000000000000000000000000000000\n    /* \"#utility.yul\":2021:2022   */\n  0x00\n    /* \"#utility.yul\":2013:2019   */\n  dup3\n    /* \"#utility.yul\":2009:2023   */\n  add\n    /* \"#utility.yul\":2002:2041   */\n  mstore\n    /* \"#utility.yul\":1885:2048   */\n  pop\n  jump\t// out\n    /* \"#utility.yul\":2054:2420   */\ntag_32:\n    /* \"#utility.yul\":2196:2199   */\n  0x00\n    /* \"#utility.yul\":2217:2284   */\n  tag_57\n    /* \"#utility.yul\":2281:2283   */\n  0x0d\n    /* \"#utility.yul\":2276:2279   */\n  dup4\n    /* \"#utility.yul\":2217:2284   */\n  tag_30\n  jump\t// in\ntag_57:\n    /* \"#utility.yul\":2210:2284   */\n  swap2\n  pop\n    /* \"#utility.yul\":2293:2386   */\n  tag_58\n    /* \"#utility.yul\":2382:2385   */\n  dup3\n    /* \"#utility.yul\":2293:2386   */\n  tag_31\n  jump\t// in\ntag_58:\n    /* \"#utility.yul\":2411:2413   */\n  0x20\n    /* \"#utility.yul\":2406:2409   */\n  dup3\n    /* \"#utility.yul\":2402:2414   */\n  add\n    /* \"#utility.yul\":2395:2414   */\n  swap1\n  pop\n    /* \"#utility.yul\":2054:2420   */\n  swap2\n  swap1\n  pop\n  jump\t// out\n    /* \"#utility.yul\":2426:2845   */\ntag_19:\n    /* \"#utility.yul\":2592:2596   */\n  0x00\n    /* \"#utility.yul\":2630:2632   */\n  0x20\n    /* \"#utility.yul\":2619:2628   */\n  dup3\n    /* \"#utility.yul\":2615:2633   */\n  add\n    /* \"#utility.yul\":2607:2633   */\n  swap1\n  pop\n    /* \"#utility.yul\":2679:2688   */\n  dup2\n    /* \"#utility.yul\":2673:2677   */\n  dup2\n    /* \"#utility.yul\":2669:2689   */\n  sub\n    /* \"#utility.yul\":2665:2666   */\n  0x00\n    /* \"#utility.yul\":2654:2663   */\n  dup4\n    /* \"#utility.yul\":2650:2667   */\n  add\n    /* \"#utility.yul\":2643:2690   */\n  mstore\n    /* \"#utility.yul\":2707:2838   */\n  tag_60\n    /* \"#utility.yul\":2833:2837   */\n  dup2\n    /* \"#utility.yul\":2707:2838   */\n  tag_32\n  jump\t// in\ntag_60:\n    /* \"#utility.yul\":2699:2838   */\n  swap1\n  pop\n    /* \"#utility.yul\":2426:2845   */\n  swap2\n  swap1\n  pop\n  jump\t// out\n    /* \"finance/UBI4ALLVesting.sol\":333:4187  contract UBI4ALLVesting is ReentrancyGuard, Ownable, Pausable {... */\ntag_20:\n  mload(0x80)\n  mload(0xa0)\n  codecopy(0x00, dataOffset(sub_0), dataSize(sub_0))\n  0x00\n  assignImmutable(\"0xe89799872416a62940a671d2617fca8be0977d1f52289bc3bc94933421343c70\")\n  0x00\n  assignImmutable(\"0xd32bbfb3b63232e0c4c36bce28401766bf865034af77b0c593be2881e077e1dc\")\n  return(0x00, dataSize(sub_0))\nstop\n\nsub_0: assembly {\n        /* \"finance/UBI4ALLVesting.sol\":333:4187  contract UBI4ALLVesting is ReentrancyGuard, Ownable, Pausable {... */\n      mstore(0x40, 0x80)\n      callvalue\n      dup1\n      iszero\n      tag_1\n      jumpi\n      revert(0x00, 0x00)\n    tag_1:\n      pop\n      jumpi(tag_2, lt(calldatasize, 0x04))\n      shr(0xe0, calldataload(0x00))\n      dup1\n      0x6c3b0c53\n      gt\n      tag_20\n      jumpi\n      dup1\n      0x8da5cb5b\n      gt\n      tag_21\n      jumpi\n      dup1\n      0x8da5cb5b\n      eq\n      tag_15\n      jumpi\n      dup1\n      0x9f829063\n      eq\n      tag_16\n      jumpi\n      dup1\n      0xa8660a78\n      eq\n      tag_17\n      jumpi\n      dup1\n      0xf2fde38b\n      eq\n      tag_18\n      jumpi\n      dup1\n      0xfdb20ccb\n      eq\n      tag_19\n      jumpi\n      jump(tag_2)\n    tag_21:\n      dup1\n      0x6c3b0c53\n      eq\n      tag_11\n      jumpi\n      dup1\n      0x715018a6\n      eq\n      tag_12\n      jumpi\n      dup1\n      0x74a8f103\n      eq\n      tag_13\n      jumpi\n      dup1\n      0x8456cb59\n      eq\n      tag_14\n      jumpi\n      jump(tag_2)\n    tag_20:\n      dup1\n      0x2afd1a7d\n      gt\n      tag_22\n      jumpi\n      dup1\n      0x2afd1a7d\n      eq\n      tag_7\n      jumpi\n      dup1\n      0x3f4ba83a\n      eq\n      tag_8\n      jumpi\n      dup1\n      0x4cfc4d30\n      eq\n      tag_9\n      jumpi\n      dup1\n      0x5c975abb\n      eq\n      tag_10\n      jumpi\n      jump(tag_2)\n    tag_22:\n      dup1\n      0x10d67098\n      eq\n      tag_3\n      jumpi\n      dup1\n      0x19165587\n      eq\n      tag_4\n      jumpi\n      dup1\n      0x199cbc54\n      eq\n      tag_5\n      jumpi\n      dup1\n      0x1e7bace0\n      eq\n      tag_6\n      jumpi\n    tag_2:\n      revert(0x00, 0x00)\n        /* \"finance/UBI4ALLVesting.sol\":655:691  IERC20 public immutable ubi4allToken */\n    tag_3:\n      tag_23\n      tag_24\n      jump\t// in\n    tag_23:\n      mload(0x40)\n      tag_25\n      swap2\n      swap1\n      tag_26\n      jump\t// in\n    tag_25:\n      mload(0x40)\n      dup1\n      swap2\n      sub\n      swap1\n      return\n        /* \"finance/UBI4ALLVesting.sol\":2311:3002  function release(address beneficiary) external nonReentrant whenNotPaused {... */\n    tag_4:\n      tag_27\n      0x04\n      dup1\n      calldatasize\n      sub\n      dup2\n      add\n      swap1\n      tag_28\n      swap2\n      swap1\n      tag_29\n      jump\t// in\n    tag_28:\n      tag_30\n      jump\t// in\n    tag_27:\n      stop\n        /* \"finance/UBI4ALLVesting.sol\":780:806  uint256 public totalVested */\n    tag_5:\n      tag_31\n      tag_32\n      jump\t// in\n    tag_31:\n      mload(0x40)\n      tag_33\n      swap2\n      swap1\n      tag_34\n      jump\t// in\n    tag_33:\n      mload(0x40)\n      dup1\n      swap2\n      sub\n      swap1\n      return\n        /* \"finance/UBI4ALLVesting.sol\":560:605  uint256 public constant VESTING_PERIODS = 120 */\n    tag_6:\n      tag_35\n      tag_36\n      jump\t// in\n    tag_35:\n      mload(0x40)\n      tag_37\n      swap2\n      swap1\n      tag_34\n      jump\t// in\n    tag_37:\n      mload(0x40)\n      dup1\n      swap2\n      sub\n      swap1\n      return\n        /* \"finance/UBI4ALLVesting.sol\":3861:4024  function getReleasableAmount(address beneficiary) external view returns (uint256) {... */\n    tag_7:\n      tag_38\n      0x04\n      dup1\n      calldatasize\n      sub\n      dup2\n      add\n      swap1\n      tag_39\n      swap2\n      swap1\n      tag_29\n      jump\t// in\n    tag_39:\n      tag_40\n      jump\t// in\n    tag_38:\n      mload(0x40)\n      tag_41\n      swap2\n      swap1\n      tag_34\n      jump\t// in\n    tag_41:\n      mload(0x40)\n      dup1\n      swap2\n      sub\n      swap1\n      return\n        /* \"finance/UBI4ALLVesting.sol\":4120:4185  function unpause() external onlyOwner {... */\n    tag_8:\n      tag_42\n      tag_43\n      jump\t// in\n    tag_42:\n      stop\n        /* \"finance/UBI4ALLVesting.sol\":486:542  uint256 public constant VESTING_DURATION = 10 * 365 days */\n    tag_9:\n      tag_44\n      tag_45\n      jump\t// in\n    tag_44:\n      mload(0x40)\n      tag_46\n      swap2\n      swap1\n      tag_34\n      jump\t// in\n    tag_46:\n      mload(0x40)\n      dup1\n      swap2\n      sub\n      swap1\n      return\n        /* \"@openzeppelin/contracts/security/Pausable.sol\":1616:1700  function paused() public view virtual returns (bool) {... */\n    tag_10:\n      tag_47\n      tag_48\n      jump\t// in\n    tag_47:\n      mload(0x40)\n      tag_49\n      swap2\n      swap1\n      tag_50\n      jump\t// in\n    tag_49:\n      mload(0x40)\n      dup1\n      swap2\n      sub\n      swap1\n      return\n        /* \"finance/UBI4ALLVesting.sol\":1343:2305  function createVesting(address beneficiary, uint256 amount) external onlyOwner whenNotPaused {... */\n    tag_11:\n      tag_51\n      0x04\n      dup1\n      calldatasize\n      sub\n      dup2\n      add\n      swap1\n      tag_52\n      swap2\n      swap1\n      tag_53\n      jump\t// in\n    tag_52:\n      tag_54\n      jump\t// in\n    tag_51:\n      stop\n        /* \"@openzeppelin/contracts/access/Ownable.sol\":2293:2394  function renounceOwnership() public virtual onlyOwner {... */\n    tag_12:\n      tag_55\n      tag_56\n      jump\t// in\n    tag_55:\n      stop\n        /* \"finance/UBI4ALLVesting.sol\":3008:3660  function revoke(address beneficiary) external onlyOwner whenNotPaused {... */\n    tag_13:\n      tag_57\n      0x04\n      dup1\n      calldatasize\n      sub\n      dup2\n      add\n      swap1\n      tag_58\n      swap2\n      swap1\n      tag_29\n      jump\t// in\n    tag_58:\n      tag_59\n      jump\t// in\n    tag_57:\n      stop\n        /* \"finance/UBI4ALLVesting.sol\":4053:4114  function pause() external onlyOwner {... */\n    tag_14:\n      tag_60\n      tag_61\n      jump\t// in\n    tag_60:\n      stop\n        /* \"@openzeppelin/contracts/access/Ownable.sol\":1638:1723  function owner() public view virtual returns (address) {... */\n    tag_15:\n      tag_62\n      tag_63\n      jump\t// in\n    tag_62:\n      mload(0x40)\n      tag_64\n      swap2\n      swap1\n      tag_65\n      jump\t// in\n    tag_64:\n      mload(0x40)\n      dup1\n      swap2\n      sub\n      swap1\n      return\n        /* \"finance/UBI4ALLVesting.sol\":3688:3855  function getVestingSchedule(address beneficiary) external view returns (UBI4ALLVestingLib.VestingSchedule memory) {... */\n    tag_16:\n      tag_66\n      0x04\n      dup1\n      calldatasize\n      sub\n      dup2\n      add\n      swap1\n      tag_67\n      swap2\n      swap1\n      tag_29\n      jump\t// in\n    tag_67:\n      tag_68\n      jump\t// in\n    tag_66:\n      mload(0x40)\n      tag_69\n      swap2\n      swap1\n      tag_70\n      jump\t// in\n    tag_69:\n      mload(0x40)\n      dup1\n      swap2\n      sub\n      swap1\n      return\n        /* \"finance/UBI4ALLVesting.sol\":812:853  uint256 public immutable vestingStartTime */\n    tag_17:\n      tag_71\n      tag_72\n      jump\t// in\n    tag_71:\n      mload(0x40)\n      tag_73\n      swap2\n      swap1\n      tag_34\n      jump\t// in\n    tag_73:\n      mload(0x40)\n      dup1\n      swap2\n      sub\n      swap1\n      return\n        /* \"@openzeppelin/contracts/access/Ownable.sol\":2543:2758  function transferOwnership(address newOwner) public virtual onlyOwner {... */\n    tag_18:\n      tag_74\n      0x04\n      dup1\n      calldatasize\n      sub\n      dup2\n      add\n      swap1\n      tag_75\n      swap2\n      swap1\n      tag_29\n      jump\t// in\n    tag_75:\n      tag_76\n      jump\t// in\n    tag_74:\n      stop\n        /* \"finance/UBI4ALLVesting.sol\":697:774  mapping(address => UBI4ALLVestingLib.VestingSchedule) public vestingSchedules */\n    tag_19:\n      tag_77\n      0x04\n      dup1\n      calldatasize\n      sub\n      dup2\n      add\n      swap1\n      tag_78\n      swap2\n      swap1\n      tag_29\n      jump\t// in\n    tag_78:\n      tag_79\n      jump\t// in\n    tag_77:\n      mload(0x40)\n      tag_80\n      swap9\n      swap8\n      swap7\n      swap6\n      swap5\n      swap4\n      swap3\n      swap2\n      swap1\n      tag_81\n      jump\t// in\n    tag_80:\n      mload(0x40)\n      dup1\n      swap2\n      sub\n      swap1\n      return\n        /* \"finance/UBI4ALLVesting.sol\":655:691  IERC20 public immutable ubi4allToken */\n    tag_24:\n      immutable(\"0xd32bbfb3b63232e0c4c36bce28401766bf865034af77b0c593be2881e077e1dc\")\n      dup2\n      jump\t// out\n        /* \"finance/UBI4ALLVesting.sol\":2311:3002  function release(address beneficiary) external nonReentrant whenNotPaused {... */\n    tag_30:\n        /* \"@openzeppelin/contracts/security/ReentrancyGuard.sol\":2262:2283  _nonReentrantBefore() */\n      tag_83\n        /* \"@openzeppelin/contracts/security/ReentrancyGuard.sol\":2262:2281  _nonReentrantBefore */\n      tag_84\n        /* \"@openzeppelin/contracts/security/ReentrancyGuard.sol\":2262:2283  _nonReentrantBefore() */\n      jump\t// in\n    tag_83:\n        /* \"@openzeppelin/contracts/security/Pausable.sol\":1240:1259  _requireNotPaused() */\n      tag_86\n        /* \"@openzeppelin/contracts/security/Pausable.sol\":1240:1257  _requireNotPaused */\n      tag_87\n        /* \"@openzeppelin/contracts/security/Pausable.sol\":1240:1259  _requireNotPaused() */\n      jump\t// in\n    tag_86:\n        /* \"finance/UBI4ALLVesting.sol\":2395:2445  UBI4ALLVestingLib.VestingSchedule storage schedule */\n      0x00\n        /* \"finance/UBI4ALLVesting.sol\":2448:2464  vestingSchedules */\n      0x02\n        /* \"finance/UBI4ALLVesting.sol\":2448:2477  vestingSchedules[beneficiary] */\n      0x00\n        /* \"finance/UBI4ALLVesting.sol\":2465:2476  beneficiary */\n      dup4\n        /* \"finance/UBI4ALLVesting.sol\":2448:2477  vestingSchedules[beneficiary] */\n      0xffffffffffffffffffffffffffffffffffffffff\n      and\n      0xffffffffffffffffffffffffffffffffffffffff\n      and\n      dup2\n      mstore\n      0x20\n      add\n      swap1\n      dup2\n      mstore\n      0x20\n      add\n      0x00\n      keccak256\n        /* \"finance/UBI4ALLVesting.sol\":2395:2477  UBI4ALLVestingLib.VestingSchedule storage schedule = vestingSchedules[beneficiary] */\n      swap1\n      pop\n        /* \"finance/UBI4ALLVesting.sol\":2518:2519  0 */\n      0x00\n        /* \"finance/UBI4ALLVesting.sol\":2495:2503  schedule */\n      dup2\n        /* \"finance/UBI4ALLVesting.sol\":2495:2515  schedule.totalAmount */\n      0x00\n      add\n      sload\n        /* \"finance/UBI4ALLVesting.sol\":2495:2519  schedule.totalAmount > 0 */\n      gt\n        /* \"finance/UBI4ALLVesting.sol\":2487:2543  require(schedule.totalAmount > 0, \"No vesting schedule\") */\n      tag_89\n      jumpi\n      mload(0x40)\n      0x08c379a000000000000000000000000000000000000000000000000000000000\n      dup2\n      mstore\n      0x04\n      add\n      tag_90\n      swap1\n      tag_91\n      jump\t// in\n    tag_90:\n      mload(0x40)\n      dup1\n      swap2\n      sub\n      swap1\n      revert\n    tag_89:\n        /* \"finance/UBI4ALLVesting.sol\":2562:2570  schedule */\n      dup1\n        /* \"finance/UBI4ALLVesting.sol\":2562:2580  schedule.isRevoked */\n      0x05\n      add\n      0x01\n      swap1\n      sload\n      swap1\n      0x0100\n      exp\n      swap1\n      div\n      0xff\n      and\n        /* \"finance/UBI4ALLVesting.sol\":2561:2580  !schedule.isRevoked */\n      iszero\n        /* \"finance/UBI4ALLVesting.sol\":2553:2601  require(!schedule.isRevoked, \"Schedule revoked\") */\n      tag_92\n      jumpi\n      mload(0x40)\n      0x08c379a000000000000000000000000000000000000000000000000000000000\n      dup2\n      mstore\n      0x04\n      add\n      tag_93\n      swap1\n      tag_94\n      jump\t// in\n    tag_93:\n      mload(0x40)\n      dup1\n      swap2\n      sub\n      swap1\n      revert\n    tag_92:\n        /* \"finance/UBI4ALLVesting.sol\":2612:2636  uint256 releasableAmount */\n      0x00\n        /* \"finance/UBI4ALLVesting.sol\":2639:2675  schedule.calculateReleasableAmount() */\n      tag_95\n        /* \"finance/UBI4ALLVesting.sol\":2639:2647  schedule */\n      dup3\n        /* \"finance/UBI4ALLVesting.sol\":2639:2673  schedule.calculateReleasableAmount */\n      tag_96\n        /* \"finance/UBI4ALLVesting.sol\":2639:2675  schedule.calculateReleasableAmount() */\n      jump\t// in\n    tag_95:\n        /* \"finance/UBI4ALLVesting.sol\":2612:2675  uint256 releasableAmount = schedule.calculateReleasableAmount() */\n      swap1\n      pop\n        /* \"finance/UBI4ALLVesting.sol\":2712:2713  0 */\n      0x00\n        /* \"finance/UBI4ALLVesting.sol\":2693:2709  releasableAmount */\n      dup2\n        /* \"finance/UBI4ALLVesting.sol\":2693:2713  releasableAmount > 0 */\n      gt\n        /* \"finance/UBI4ALLVesting.sol\":2685:2738  require(releasableAmount > 0, \"No tokens to release\") */\n      tag_97\n      jumpi\n      mload(0x40)\n      0x08c379a000000000000000000000000000000000000000000000000000000000\n      dup2\n      mstore\n      0x04\n      add\n      tag_98\n      swap1\n      tag_99\n      jump\t// in\n    tag_98:\n      mload(0x40)\n      dup1\n      swap2\n      sub\n      swap1\n      revert\n    tag_97:\n        /* \"finance/UBI4ALLVesting.sol\":2776:2792  releasableAmount */\n      dup1\n        /* \"finance/UBI4ALLVesting.sol\":2749:2757  schedule */\n      dup3\n        /* \"finance/UBI4ALLVesting.sol\":2749:2772  schedule.releasedAmount */\n      0x01\n      add\n      0x00\n        /* \"finance/UBI4ALLVesting.sol\":2749:2792  schedule.releasedAmount += releasableAmount */\n      dup3\n      dup3\n      sload\n      tag_100\n      swap2\n      swap1\n      tag_101\n      jump\t// in\n    tag_100:\n      swap3\n      pop\n      pop\n      dup2\n      swap1\n      sstore\n      pop\n        /* \"finance/UBI4ALLVesting.sol\":2829:2844  block.timestamp */\n      timestamp\n        /* \"finance/UBI4ALLVesting.sol\":2802:2810  schedule */\n      dup3\n        /* \"finance/UBI4ALLVesting.sol\":2802:2826  schedule.lastReleaseTime */\n      0x06\n      add\n        /* \"finance/UBI4ALLVesting.sol\":2802:2844  schedule.lastReleaseTime = block.timestamp */\n      dup2\n      swap1\n      sstore\n      pop\n        /* \"finance/UBI4ALLVesting.sol\":2863:2875  ubi4allToken */\n      immutable(\"0xd32bbfb3b63232e0c4c36bce28401766bf865034af77b0c593be2881e077e1dc\")\n        /* \"finance/UBI4ALLVesting.sol\":2863:2884  ubi4allToken.transfer */\n      0xffffffffffffffffffffffffffffffffffffffff\n      and\n      0xa9059cbb\n        /* \"finance/UBI4ALLVesting.sol\":2885:2896  beneficiary */\n      dup5\n        /* \"finance/UBI4ALLVesting.sol\":2898:2914  releasableAmount */\n      dup4\n        /* \"finance/UBI4ALLVesting.sol\":2863:2915  ubi4allToken.transfer(beneficiary, releasableAmount) */\n      mload(0x40)\n      dup4\n      0xffffffff\n      and\n      0xe0\n      shl\n      dup2\n      mstore\n      0x04\n      add\n      tag_102\n      swap3\n      swap2\n      swap1\n      tag_103\n      jump\t// in\n    tag_102:\n      0x20\n      mload(0x40)\n      dup1\n      dup4\n      sub\n      dup2\n      0x00\n      dup8\n      gas\n      call\n      iszero\n      dup1\n      iszero\n      tag_105\n      jumpi\n      returndatacopy(0x00, 0x00, returndatasize)\n      revert(0x00, returndatasize)\n    tag_105:\n      pop\n      pop\n      pop\n      pop\n      mload(0x40)\n      returndatasize\n      not(0x1f)\n      0x1f\n      dup3\n      add\n      and\n      dup3\n      add\n      dup1\n      0x40\n      mstore\n      pop\n      dup2\n      add\n      swap1\n      tag_106\n      swap2\n      swap1\n      tag_107\n      jump\t// in\n    tag_106:\n        /* \"finance/UBI4ALLVesting.sol\":2855:2935  require(ubi4allToken.transfer(beneficiary, releasableAmount), \"Transfer failed\") */\n      tag_108\n      jumpi\n      mload(0x40)\n      0x08c379a000000000000000000000000000000000000000000000000000000000\n      dup2\n      mstore\n      0x04\n      add\n      tag_109\n      swap1\n      tag_110\n      jump\t// in\n    tag_109:\n      mload(0x40)\n      dup1\n      swap2\n      sub\n      swap1\n      revert\n    tag_108:\n        /* \"finance/UBI4ALLVesting.sol\":2965:2976  beneficiary */\n      dup3\n        /* \"finance/UBI4ALLVesting.sol\":2950:2995  TokensReleased(beneficiary, releasableAmount) */\n      0xffffffffffffffffffffffffffffffffffffffff\n      and\n      0xc7798891864187665ac6dd119286e44ec13f014527aeeb2b8eb3fd413df93179\n        /* \"finance/UBI4ALLVesting.sol\":2978:2994  releasableAmount */\n      dup3\n        /* \"finance/UBI4ALLVesting.sol\":2950:2995  TokensReleased(beneficiary, releasableAmount) */\n      mload(0x40)\n      tag_111\n      swap2\n      swap1\n      tag_34\n      jump\t// in\n    tag_111:\n      mload(0x40)\n      dup1\n      swap2\n      sub\n      swap1\n      log2\n        /* \"finance/UBI4ALLVesting.sol\":2385:3002  {... */\n      pop\n      pop\n        /* \"@openzeppelin/contracts/security/ReentrancyGuard.sol\":2304:2324  _nonReentrantAfter() */\n      tag_112\n        /* \"@openzeppelin/contracts/security/ReentrancyGuard.sol\":2304:2322  _nonReentrantAfter */\n      tag_113\n        /* \"@openzeppelin/contracts/security/ReentrancyGuard.sol\":2304:2324  _nonReentrantAfter() */\n      jump\t// in\n    tag_112:\n        /* \"finance/UBI4ALLVesting.sol\":2311:3002  function release(address beneficiary) external nonReentrant whenNotPaused {... */\n      pop\n      jump\t// out\n        /* \"finance/UBI4ALLVesting.sol\":780:806  uint256 public totalVested */\n    tag_32:\n      sload(0x03)\n      dup2\n      jump\t// out\n        /* \"finance/UBI4ALLVesting.sol\":560:605  uint256 public constant VESTING_PERIODS = 120 */\n    tag_36:\n        /* \"finance/UBI4ALLVesting.sol\":602:605  120 */\n      0x78\n        /* \"finance/UBI4ALLVesting.sol\":560:605  uint256 public constant VESTING_PERIODS = 120 */\n      dup2\n      jump\t// out\n        /* \"finance/UBI4ALLVesting.sol\":3861:4024  function getReleasableAmount(address beneficiary) external view returns (uint256) {... */\n    tag_40:\n        /* \"finance/UBI4ALLVesting.sol\":3934:3941  uint256 */\n      0x00\n        /* \"finance/UBI4ALLVesting.sol\":3960:4017  vestingSchedules[beneficiary].calculateReleasableAmount() */\n      tag_115\n        /* \"finance/UBI4ALLVesting.sol\":3960:3976  vestingSchedules */\n      0x02\n        /* \"finance/UBI4ALLVesting.sol\":3960:3989  vestingSchedules[beneficiary] */\n      0x00\n        /* \"finance/UBI4ALLVesting.sol\":3977:3988  beneficiary */\n      dup5\n        /* \"finance/UBI4ALLVesting.sol\":3960:3989  vestingSchedules[beneficiary] */\n      0xffffffffffffffffffffffffffffffffffffffff\n      and\n      0xffffffffffffffffffffffffffffffffffffffff\n      and\n      dup2\n      mstore\n      0x20\n      add\n      swap1\n      dup2\n      mstore\n      0x20\n      add\n      0x00\n      keccak256\n        /* \"finance/UBI4ALLVesting.sol\":3960:4015  vestingSchedules[beneficiary].calculateReleasableAmount */\n      tag_96\n        /* \"finance/UBI4ALLVesting.sol\":3960:4017  vestingSchedules[beneficiary].calculateReleasableAmount() */\n      jump\t// in\n    tag_115:\n        /* \"finance/UBI4ALLVesting.sol\":3953:4017  return vestingSchedules[beneficiary].calculateReleasableAmount() */\n      swap1\n      pop\n        /* \"finance/UBI4ALLVesting.sol\":3861:4024  function getReleasableAmount(address beneficiary) external view returns (uint256) {... */\n      swap2\n      swap1\n      pop\n      jump\t// out\n        /* \"finance/UBI4ALLVesting.sol\":4120:4185  function unpause() external onlyOwner {... */\n    tag_43:\n        /* \"@openzeppelin/contracts/access/Ownable.sol\":1531:1544  _checkOwner() */\n      tag_117\n        /* \"@openzeppelin/contracts/access/Ownable.sol\":1531:1542  _checkOwner */\n      tag_118\n        /* \"@openzeppelin/contracts/access/Ownable.sol\":1531:1544  _checkOwner() */\n      jump\t// in\n    tag_117:\n        /* \"finance/UBI4ALLVesting.sol\":4168:4178  _unpause() */\n      tag_120\n        /* \"finance/UBI4ALLVesting.sol\":4168:4176  _unpause */\n      tag_121\n        /* \"finance/UBI4ALLVesting.sol\":4168:4178  _unpause() */\n      jump\t// in\n    tag_120:\n        /* \"finance/UBI4ALLVesting.sol\":4120:4185  function unpause() external onlyOwner {... */\n      jump\t// out\n        /* \"finance/UBI4ALLVesting.sol\":486:542  uint256 public constant VESTING_DURATION = 10 * 365 days */\n    tag_45:\n        /* \"finance/UBI4ALLVesting.sol\":529:542  10 * 365 days */\n      0x12cc0300\n        /* \"finance/UBI4ALLVesting.sol\":486:542  uint256 public constant VESTING_DURATION = 10 * 365 days */\n      dup2\n      jump\t// out\n        /* \"@openzeppelin/contracts/security/Pausable.sol\":1616:1700  function paused() public view virtual returns (bool) {... */\n    tag_48:\n        /* \"@openzeppelin/contracts/security/Pausable.sol\":1663:1667  bool */\n      0x00\n        /* \"@openzeppelin/contracts/security/Pausable.sol\":1686:1693  _paused */\n      0x01\n      0x14\n      swap1\n      sload\n      swap1\n      0x0100\n      exp\n      swap1\n      div\n      0xff\n      and\n        /* \"@openzeppelin/contracts/security/Pausable.sol\":1679:1693  return _paused */\n      swap1\n      pop\n        /* \"@openzeppelin/contracts/security/Pausable.sol\":1616:1700  function paused() public view virtual returns (bool) {... */\n      swap1\n      jump\t// out\n        /* \"finance/UBI4ALLVesting.sol\":1343:2305  function createVesting(address beneficiary, uint256 amount) external onlyOwner whenNotPaused {... */\n    tag_54:\n        /* \"@openzeppelin/contracts/access/Ownable.sol\":1531:1544  _checkOwner() */\n      tag_124\n        /* \"@openzeppelin/contracts/access/Ownable.sol\":1531:1542  _checkOwner */\n      tag_118\n        /* \"@openzeppelin/contracts/access/Ownable.sol\":1531:1544  _checkOwner() */\n      jump\t// in\n    tag_124:\n        /* \"@openzeppelin/contracts/security/Pausable.sol\":1240:1259  _requireNotPaused() */\n      tag_126\n        /* \"@openzeppelin/contracts/security/Pausable.sol\":1240:1257  _requireNotPaused */\n      tag_87\n        /* \"@openzeppelin/contracts/security/Pausable.sol\":1240:1259  _requireNotPaused() */\n      jump\t// in\n    tag_126:\n        /* \"finance/UBI4ALLVesting.sol\":1477:1478  0 */\n      0x00\n        /* \"finance/UBI4ALLVesting.sol\":1454:1479  beneficiary != address(0) */\n      0xffffffffffffffffffffffffffffffffffffffff\n      and\n        /* \"finance/UBI4ALLVesting.sol\":1454:1465  beneficiary */\n      dup3\n        /* \"finance/UBI4ALLVesting.sol\":1454:1479  beneficiary != address(0) */\n      0xffffffffffffffffffffffffffffffffffffffff\n      and\n      sub\n        /* \"finance/UBI4ALLVesting.sol\":1446:1503  require(beneficiary != address(0), \"Invalid beneficiary\") */\n      tag_128\n      jumpi\n      mload(0x40)\n      0x08c379a000000000000000000000000000000000000000000000000000000000\n      dup2\n      mstore\n      0x04\n      add\n      tag_129\n      swap1\n      tag_130\n      jump\t// in\n    tag_129:\n      mload(0x40)\n      dup1\n      swap2\n      sub\n      swap1\n      revert\n    tag_128:\n        /* \"finance/UBI4ALLVesting.sol\":1530:1531  0 */\n      0x00\n        /* \"finance/UBI4ALLVesting.sol\":1521:1527  amount */\n      dup2\n        /* \"finance/UBI4ALLVesting.sol\":1521:1531  amount > 0 */\n      gt\n        /* \"finance/UBI4ALLVesting.sol\":1513:1554  require(amount > 0, \"Amount must be > 0\") */\n      tag_131\n      jumpi\n      mload(0x40)\n      0x08c379a000000000000000000000000000000000000000000000000000000000\n      dup2\n      mstore\n      0x04\n      add\n      tag_132\n      swap1\n      tag_133\n      jump\t// in\n    tag_132:\n      mload(0x40)\n      dup1\n      swap2\n      sub\n      swap1\n      revert\n    tag_131:\n        /* \"finance/UBI4ALLVesting.sol\":1617:1618  0 */\n      0x00\n        /* \"finance/UBI4ALLVesting.sol\":1572:1588  vestingSchedules */\n      0x02\n        /* \"finance/UBI4ALLVesting.sol\":1572:1601  vestingSchedules[beneficiary] */\n      0x00\n        /* \"finance/UBI4ALLVesting.sol\":1589:1600  beneficiary */\n      dup5\n        /* \"finance/UBI4ALLVesting.sol\":1572:1601  vestingSchedules[beneficiary] */\n      0xffffffffffffffffffffffffffffffffffffffff\n      and\n      0xffffffffffffffffffffffffffffffffffffffff\n      and\n      dup2\n      mstore\n      0x20\n      add\n      swap1\n      dup2\n      mstore\n      0x20\n      add\n      0x00\n      keccak256\n        /* \"finance/UBI4ALLVesting.sol\":1572:1613  vestingSchedules[beneficiary].totalAmount */\n      0x00\n      add\n      sload\n        /* \"finance/UBI4ALLVesting.sol\":1572:1618  vestingSchedules[beneficiary].totalAmount == 0 */\n      eq\n        /* \"finance/UBI4ALLVesting.sol\":1564:1645  require(vestingSchedules[beneficiary].totalAmount == 0, \"Vesting already exists\") */\n      tag_134\n      jumpi\n      mload(0x40)\n      0x08c379a000000000000000000000000000000000000000000000000000000000\n      dup2\n      mstore\n      0x04\n      add\n      tag_135\n      swap1\n      tag_136\n      jump\t// in\n    tag_135:\n      mload(0x40)\n      dup1\n      swap2\n      sub\n      swap1\n      revert\n    tag_134:\n        /* \"finance/UBI4ALLVesting.sol\":1656:1705  UBI4ALLVestingLib.VestingSchedule memory schedule */\n      0x00\n        /* \"finance/UBI4ALLVesting.sol\":1708:2059  UBI4ALLVestingLib.VestingSchedule({... */\n      mload(0x40)\n      dup1\n      0x0100\n      add\n      0x40\n      mstore\n      dup1\n        /* \"finance/UBI4ALLVesting.sol\":1769:1775  amount */\n      dup4\n        /* \"finance/UBI4ALLVesting.sol\":1708:2059  UBI4ALLVestingLib.VestingSchedule({... */\n      dup2\n      mstore\n      0x20\n      add\n        /* \"finance/UBI4ALLVesting.sol\":1939:1940  0 */\n      0x00\n        /* \"finance/UBI4ALLVesting.sol\":1708:2059  UBI4ALLVestingLib.VestingSchedule({... */\n      dup2\n      mstore\n      0x20\n      add\n        /* \"finance/UBI4ALLVesting.sol\":1800:1815  block.timestamp */\n      timestamp\n        /* \"finance/UBI4ALLVesting.sol\":1708:2059  UBI4ALLVestingLib.VestingSchedule({... */\n      dup2\n      mstore\n      0x20\n      add\n        /* \"finance/UBI4ALLVesting.sol\":529:542  10 * 365 days */\n      0x12cc0300\n        /* \"finance/UBI4ALLVesting.sol\":1708:2059  UBI4ALLVestingLib.VestingSchedule({... */\n      dup2\n      mstore\n      0x20\n      add\n        /* \"finance/UBI4ALLVesting.sol\":1844:1845  0 */\n      0x00\n        /* \"finance/UBI4ALLVesting.sol\":1708:2059  UBI4ALLVestingLib.VestingSchedule({... */\n      dup2\n      mstore\n      0x20\n      add\n        /* \"finance/UBI4ALLVesting.sol\":2013:2018  false */\n      0x00\n        /* \"finance/UBI4ALLVesting.sol\":1708:2059  UBI4ALLVestingLib.VestingSchedule({... */\n      iszero\n      iszero\n      dup2\n      mstore\n      0x20\n      add\n        /* \"finance/UBI4ALLVesting.sol\":2043:2048  false */\n      0x00\n        /* \"finance/UBI4ALLVesting.sol\":1708:2059  UBI4ALLVestingLib.VestingSchedule({... */\n      iszero\n      iszero\n      dup2\n      mstore\n      0x20\n      add\n        /* \"finance/UBI4ALLVesting.sol\":1971:1986  block.timestamp */\n      timestamp\n        /* \"finance/UBI4ALLVesting.sol\":1708:2059  UBI4ALLVestingLib.VestingSchedule({... */\n      dup2\n      mstore\n      pop\n        /* \"finance/UBI4ALLVesting.sol\":1656:2059  UBI4ALLVestingLib.VestingSchedule memory schedule = UBI4ALLVestingLib.VestingSchedule({... */\n      swap1\n      pop\n        /* \"finance/UBI4ALLVesting.sol\":2102:2110  schedule */\n      dup1\n        /* \"finance/UBI4ALLVesting.sol\":2070:2086  vestingSchedules */\n      0x02\n        /* \"finance/UBI4ALLVesting.sol\":2070:2099  vestingSchedules[beneficiary] */\n      0x00\n        /* \"finance/UBI4ALLVesting.sol\":2087:2098  beneficiary */\n      dup6\n        /* \"finance/UBI4ALLVesting.sol\":2070:2099  vestingSchedules[beneficiary] */\n      0xffffffffffffffffffffffffffffffffffffffff\n      and\n      0xffffffffffffffffffffffffffffffffffffffff\n      and\n      dup2\n      mstore\n      0x20\n      add\n      swap1\n      dup2\n      mstore\n      0x20\n      add\n      0x00\n      keccak256\n        /* \"finance/UBI4ALLVesting.sol\":2070:2110  vestingSchedules[beneficiary] = schedule */\n      0x00\n      dup3\n      add\n      mload\n      dup2\n      0x00\n      add\n      sstore\n      0x20\n      dup3\n      add\n      mload\n      dup2\n      0x01\n      add\n      sstore\n      0x40\n      dup3\n      add\n      mload\n      dup2\n      0x02\n      add\n      sstore\n      0x60\n      dup3\n      add\n      mload\n      dup2\n      0x03\n      add\n      sstore\n      0x80\n      dup3\n      add\n      mload\n      dup2\n      0x04\n      add\n      sstore\n      0xa0\n      dup3\n      add\n      mload\n      dup2\n      0x05\n      add\n      exp(0x0100, 0x00)\n      dup2\n      sload\n      dup2\n      0xff\n      mul\n      not\n      and\n      swap1\n      dup4\n      iszero\n      iszero\n      mul\n      or\n      swap1\n      sstore\n      pop\n      0xc0\n      dup3\n      add\n      mload\n      dup2\n      0x05\n      add\n      exp(0x0100, 0x01)\n      dup2\n      sload\n      dup2\n      0xff\n      mul\n      not\n      and\n      swap1\n      dup4\n      iszero\n      iszero\n      mul\n      or\n      swap1\n      sstore\n      pop\n      0xe0\n      dup3\n      add\n      mload\n      dup2\n      0x06\n      add\n      sstore\n      swap1\n      pop\n      pop\n        /* \"finance/UBI4ALLVesting.sol\":2135:2141  amount */\n      dup2\n        /* \"finance/UBI4ALLVesting.sol\":2120:2131  totalVested */\n      0x03\n      0x00\n        /* \"finance/UBI4ALLVesting.sol\":2120:2141  totalVested += amount */\n      dup3\n      dup3\n      sload\n      tag_137\n      swap2\n      swap1\n      tag_101\n      jump\t// in\n    tag_137:\n      swap3\n      pop\n      pop\n      dup2\n      swap1\n      sstore\n      pop\n        /* \"finance/UBI4ALLVesting.sol\":2160:2172  ubi4allToken */\n      immutable(\"0xd32bbfb3b63232e0c4c36bce28401766bf865034af77b0c593be2881e077e1dc\")\n        /* \"finance/UBI4ALLVesting.sol\":2160:2185  ubi4allToken.transferFrom */\n      0xffffffffffffffffffffffffffffffffffffffff\n      and\n      0x23b872dd\n        /* \"finance/UBI4ALLVesting.sol\":2186:2196  msg.sender */\n      caller\n        /* \"finance/UBI4ALLVesting.sol\":2206:2210  this */\n      address\n        /* \"finance/UBI4ALLVesting.sol\":2213:2219  amount */\n      dup6\n        /* \"finance/UBI4ALLVesting.sol\":2160:2220  ubi4allToken.transferFrom(msg.sender, address(this), amount) */\n      mload(0x40)\n      dup5\n      0xffffffff\n      and\n      0xe0\n      shl\n      dup2\n      mstore\n      0x04\n      add\n      tag_138\n      swap4\n      swap3\n      swap2\n      swap1\n      tag_139\n      jump\t// in\n    tag_138:\n      0x20\n      mload(0x40)\n      dup1\n      dup4\n      sub\n      dup2\n      0x00\n      dup8\n      gas\n      call\n      iszero\n      dup1\n      iszero\n      tag_141\n      jumpi\n      returndatacopy(0x00, 0x00, returndatasize)\n      revert(0x00, returndatasize)\n    tag_141:\n      pop\n      pop\n      pop\n      pop\n      mload(0x40)\n      returndatasize\n      not(0x1f)\n      0x1f\n      dup3\n      add\n      and\n      dup3\n      add\n      dup1\n      0x40\n      mstore\n      pop\n      dup2\n      add\n      swap1\n      tag_142\n      swap2\n      swap1\n      tag_107\n      jump\t// in\n    tag_142:\n        /* \"finance/UBI4ALLVesting.sol\":2152:2240  require(ubi4allToken.transferFrom(msg.sender, address(this), amount), \"Transfer failed\") */\n      tag_143\n      jumpi\n      mload(0x40)\n      0x08c379a000000000000000000000000000000000000000000000000000000000\n      dup2\n      mstore\n      0x04\n      add\n      tag_144\n      swap1\n      tag_110\n      jump\t// in\n    tag_144:\n      mload(0x40)\n      dup1\n      swap2\n      sub\n      swap1\n      revert\n    tag_143:\n        /* \"finance/UBI4ALLVesting.sol\":2278:2289  beneficiary */\n      dup3\n        /* \"finance/UBI4ALLVesting.sol\":2255:2298  VestingScheduleCreated(beneficiary, amount) */\n      0xffffffffffffffffffffffffffffffffffffffff\n      and\n      0x969705509595726740fe60cc30769bbd53c883efff4d8e70108a82817e0392a9\n        /* \"finance/UBI4ALLVesting.sol\":2291:2297  amount */\n      dup4\n        /* \"finance/UBI4ALLVesting.sol\":2255:2298  VestingScheduleCreated(beneficiary, amount) */\n      mload(0x40)\n      tag_145\n      swap2\n      swap1\n      tag_34\n      jump\t// in\n    tag_145:\n      mload(0x40)\n      dup1\n      swap2\n      sub\n      swap1\n      log2\n        /* \"finance/UBI4ALLVesting.sol\":1436:2305  {... */\n      pop\n        /* \"finance/UBI4ALLVesting.sol\":1343:2305  function createVesting(address beneficiary, uint256 amount) external onlyOwner whenNotPaused {... */\n      pop\n      pop\n      jump\t// out\n        /* \"@openzeppelin/contracts/access/Ownable.sol\":2293:2394  function renounceOwnership() public virtual onlyOwner {... */\n    tag_56:\n        /* \"@openzeppelin/contracts/access/Ownable.sol\":1531:1544  _checkOwner() */\n      tag_147\n        /* \"@openzeppelin/contracts/access/Ownable.sol\":1531:1542  _checkOwner */\n      tag_118\n        /* \"@openzeppelin/contracts/access/Ownable.sol\":1531:1544  _checkOwner() */\n      jump\t// in\n    tag_147:\n        /* \"@openzeppelin/contracts/access/Ownable.sol\":2357:2387  _transferOwnership(address(0)) */\n      tag_149\n        /* \"@openzeppelin/contracts/access/Ownable.sol\":2384:2385  0 */\n      0x00\n        /* \"@openzeppelin/contracts/access/Ownable.sol\":2357:2375  _transferOwnership */\n      tag_150\n        /* \"@openzeppelin/contracts/access/Ownable.sol\":2357:2387  _transferOwnership(address(0)) */\n      jump\t// in\n    tag_149:\n        /* \"@openzeppelin/contracts/access/Ownable.sol\":2293:2394  function renounceOwnership() public virtual onlyOwner {... */\n      jump\t// out\n        /* \"finance/UBI4ALLVesting.sol\":3008:3660  function revoke(address beneficiary) external onlyOwner whenNotPaused {... */\n    tag_59:\n        /* \"@openzeppelin/contracts/access/Ownable.sol\":1531:1544  _checkOwner() */\n      tag_152\n        /* \"@openzeppelin/contracts/access/Ownable.sol\":1531:1542  _checkOwner */\n      tag_118\n        /* \"@openzeppelin/contracts/access/Ownable.sol\":1531:1544  _checkOwner() */\n      jump\t// in\n    tag_152:\n        /* \"@openzeppelin/contracts/security/Pausable.sol\":1240:1259  _requireNotPaused() */\n      tag_154\n        /* \"@openzeppelin/contracts/security/Pausable.sol\":1240:1257  _requireNotPaused */\n      tag_87\n        /* \"@openzeppelin/contracts/security/Pausable.sol\":1240:1259  _requireNotPaused() */\n      jump\t// in\n    tag_154:\n        /* \"finance/UBI4ALLVesting.sol\":3088:3138  UBI4ALLVestingLib.VestingSchedule storage schedule */\n      0x00\n        /* \"finance/UBI4ALLVesting.sol\":3141:3157  vestingSchedules */\n      0x02\n        /* \"finance/UBI4ALLVesting.sol\":3141:3170  vestingSchedules[beneficiary] */\n      0x00\n        /* \"finance/UBI4ALLVesting.sol\":3158:3169  beneficiary */\n      dup4\n        /* \"finance/UBI4ALLVesting.sol\":3141:3170  vestingSchedules[beneficiary] */\n      0xffffffffffffffffffffffffffffffffffffffff\n      and\n      0xffffffffffffffffffffffffffffffffffffffff\n      and\n      dup2\n      mstore\n      0x20\n      add\n      swap1\n      dup2\n      mstore\n      0x20\n      add\n      0x00\n      keccak256\n        /* \"finance/UBI4ALLVesting.sol\":3088:3170  UBI4ALLVestingLib.VestingSchedule storage schedule = vestingSchedules[beneficiary] */\n      swap1\n      pop\n        /* \"finance/UBI4ALLVesting.sol\":3211:3212  0 */\n      0x00\n        /* \"finance/UBI4ALLVesting.sol\":3188:3196  schedule */\n      dup2\n        /* \"finance/UBI4ALLVesting.sol\":3188:3208  schedule.totalAmount */\n      0x00\n      add\n      sload\n        /* \"finance/UBI4ALLVesting.sol\":3188:3212  schedule.totalAmount > 0 */\n      gt\n        /* \"finance/UBI4ALLVesting.sol\":3180:3236  require(schedule.totalAmount > 0, \"No vesting schedule\") */\n      tag_156\n      jumpi\n      mload(0x40)\n      0x08c379a000000000000000000000000000000000000000000000000000000000\n      dup2\n      mstore\n      0x04\n      add\n      tag_157\n      swap1\n      tag_91\n      jump\t// in\n    tag_157:\n      mload(0x40)\n      dup1\n      swap2\n      sub\n      swap1\n      revert\n    tag_156:\n        /* \"finance/UBI4ALLVesting.sol\":3254:3262  schedule */\n      dup1\n        /* \"finance/UBI4ALLVesting.sol\":3254:3274  schedule.isRevocable */\n      0x05\n      add\n      0x00\n      swap1\n      sload\n      swap1\n      0x0100\n      exp\n      swap1\n      div\n      0xff\n      and\n        /* \"finance/UBI4ALLVesting.sol\":3246:3301  require(schedule.isRevocable, \"Schedule not revocable\") */\n      tag_158\n      jumpi\n      mload(0x40)\n      0x08c379a000000000000000000000000000000000000000000000000000000000\n      dup2\n      mstore\n      0x04\n      add\n      tag_159\n      swap1\n      tag_160\n      jump\t// in\n    tag_159:\n      mload(0x40)\n      dup1\n      swap2\n      sub\n      swap1\n      revert\n    tag_158:\n        /* \"finance/UBI4ALLVesting.sol\":3320:3328  schedule */\n      dup1\n        /* \"finance/UBI4ALLVesting.sol\":3320:3338  schedule.isRevoked */\n      0x05\n      add\n      0x01\n      swap1\n      sload\n      swap1\n      0x0100\n      exp\n      swap1\n      div\n      0xff\n      and\n        /* \"finance/UBI4ALLVesting.sol\":3319:3338  !schedule.isRevoked */\n      iszero\n        /* \"finance/UBI4ALLVesting.sol\":3311:3367  require(!schedule.isRevoked, \"Schedule already revoked\") */\n      tag_161\n      jumpi\n      mload(0x40)\n      0x08c379a000000000000000000000000000000000000000000000000000000000\n      dup2\n      mstore\n      0x04\n      add\n      tag_162\n      swap1\n      tag_163\n      jump\t// in\n    tag_162:\n      mload(0x40)\n      dup1\n      swap2\n      sub\n      swap1\n      revert\n    tag_161:\n        /* \"finance/UBI4ALLVesting.sol\":3378:3396  uint256 unreleased */\n      0x00\n        /* \"finance/UBI4ALLVesting.sol\":3422:3430  schedule */\n      dup2\n        /* \"finance/UBI4ALLVesting.sol\":3422:3445  schedule.releasedAmount */\n      0x01\n      add\n      sload\n        /* \"finance/UBI4ALLVesting.sol\":3399:3407  schedule */\n      dup3\n        /* \"finance/UBI4ALLVesting.sol\":3399:3419  schedule.totalAmount */\n      0x00\n      add\n      sload\n        /* \"finance/UBI4ALLVesting.sol\":3399:3445  schedule.totalAmount - schedule.releasedAmount */\n      tag_164\n      swap2\n      swap1\n      tag_165\n      jump\t// in\n    tag_164:\n        /* \"finance/UBI4ALLVesting.sol\":3378:3445  uint256 unreleased = schedule.totalAmount - schedule.releasedAmount */\n      swap1\n      pop\n        /* \"finance/UBI4ALLVesting.sol\":3476:3480  true */\n      0x01\n        /* \"finance/UBI4ALLVesting.sol\":3455:3463  schedule */\n      dup3\n        /* \"finance/UBI4ALLVesting.sol\":3455:3473  schedule.isRevoked */\n      0x05\n      add\n      0x01\n        /* \"finance/UBI4ALLVesting.sol\":3455:3480  schedule.isRevoked = true */\n      0x0100\n      exp\n      dup2\n      sload\n      dup2\n      0xff\n      mul\n      not\n      and\n      swap1\n      dup4\n      iszero\n      iszero\n      mul\n      or\n      swap1\n      sstore\n      pop\n        /* \"finance/UBI4ALLVesting.sol\":3505:3515  unreleased */\n      dup1\n        /* \"finance/UBI4ALLVesting.sol\":3490:3501  totalVested */\n      0x03\n      0x00\n        /* \"finance/UBI4ALLVesting.sol\":3490:3515  totalVested -= unreleased */\n      dup3\n      dup3\n      sload\n      tag_166\n      swap2\n      swap1\n      tag_165\n      jump\t// in\n    tag_166:\n      swap3\n      pop\n      pop\n      dup2\n      swap1\n      sstore\n      pop\n        /* \"finance/UBI4ALLVesting.sol\":3534:3546  ubi4allToken */\n      immutable(\"0xd32bbfb3b63232e0c4c36bce28401766bf865034af77b0c593be2881e077e1dc\")\n        /* \"finance/UBI4ALLVesting.sol\":3534:3555  ubi4allToken.transfer */\n      0xffffffffffffffffffffffffffffffffffffffff\n      and\n      0xa9059cbb\n        /* \"finance/UBI4ALLVesting.sol\":3556:3566  msg.sender */\n      caller\n        /* \"finance/UBI4ALLVesting.sol\":3568:3578  unreleased */\n      dup4\n        /* \"finance/UBI4ALLVesting.sol\":3534:3579  ubi4allToken.transfer(msg.sender, unreleased) */\n      mload(0x40)\n      dup4\n      0xffffffff\n      and\n      0xe0\n      shl\n      dup2\n      mstore\n      0x04\n      add\n      tag_167\n      swap3\n      swap2\n      swap1\n      tag_103\n      jump\t// in\n    tag_167:\n      0x20\n      mload(0x40)\n      dup1\n      dup4\n      sub\n      dup2\n      0x00\n      dup8\n      gas\n      call\n      iszero\n      dup1\n      iszero\n      tag_169\n      jumpi\n      returndatacopy(0x00, 0x00, returndatasize)\n      revert(0x00, returndatasize)\n    tag_169:\n      pop\n      pop\n      pop\n      pop\n      mload(0x40)\n      returndatasize\n      not(0x1f)\n      0x1f\n      dup3\n      add\n      and\n      dup3\n      add\n      dup1\n      0x40\n      mstore\n      pop\n      dup2\n      add\n      swap1\n      tag_170\n      swap2\n      swap1\n      tag_107\n      jump\t// in\n    tag_170:\n        /* \"finance/UBI4ALLVesting.sol\":3526:3599  require(ubi4allToken.transfer(msg.sender, unreleased), \"Transfer failed\") */\n      tag_171\n      jumpi\n      mload(0x40)\n      0x08c379a000000000000000000000000000000000000000000000000000000000\n      dup2\n      mstore\n      0x04\n      add\n      tag_172\n      swap1\n      tag_110\n      jump\t// in\n    tag_172:\n      mload(0x40)\n      dup1\n      swap2\n      sub\n      swap1\n      revert\n    tag_171:\n        /* \"finance/UBI4ALLVesting.sol\":3629:3640  beneficiary */\n      dup3\n        /* \"finance/UBI4ALLVesting.sol\":3614:3653  VestingRevoked(beneficiary, unreleased) */\n      0xffffffffffffffffffffffffffffffffffffffff\n      and\n      0x57c76f5e278bfbd4eeb5207d287aa5a1a9e1113c65f7eefa540e379a2774d13b\n        /* \"finance/UBI4ALLVesting.sol\":3642:3652  unreleased */\n      dup3\n        /* \"finance/UBI4ALLVesting.sol\":3614:3653  VestingRevoked(beneficiary, unreleased) */\n      mload(0x40)\n      tag_173\n      swap2\n      swap1\n      tag_34\n      jump\t// in\n    tag_173:\n      mload(0x40)\n      dup1\n      swap2\n      sub\n      swap1\n      log2\n        /* \"finance/UBI4ALLVesting.sol\":3078:3660  {... */\n      pop\n      pop\n        /* \"finance/UBI4ALLVesting.sol\":3008:3660  function revoke(address beneficiary) external onlyOwner whenNotPaused {... */\n      pop\n      jump\t// out\n        /* \"finance/UBI4ALLVesting.sol\":4053:4114  function pause() external onlyOwner {... */\n    tag_61:\n        /* \"@openzeppelin/contracts/access/Ownable.sol\":1531:1544  _checkOwner() */\n      tag_175\n        /* \"@openzeppelin/contracts/access/Ownable.sol\":1531:1542  _checkOwner */\n      tag_118\n        /* \"@openzeppelin/contracts/access/Ownable.sol\":1531:1544  _checkOwner() */\n      jump\t// in\n    tag_175:\n        /* \"finance/UBI4ALLVesting.sol\":4099:4107  _pause() */\n      tag_177\n        /* \"finance/UBI4ALLVesting.sol\":4099:4105  _pause */\n      tag_178\n        /* \"finance/UBI4ALLVesting.sol\":4099:4107  _pause() */\n      jump\t// in\n    tag_177:\n        /* \"finance/UBI4ALLVesting.sol\":4053:4114  function pause() external onlyOwner {... */\n      jump\t// out\n        /* \"@openzeppelin/contracts/access/Ownable.sol\":1638:1723  function owner() public view virtual returns (address) {... */\n    tag_63:\n        /* \"@openzeppelin/contracts/access/Ownable.sol\":1684:1691  address */\n      0x00\n        /* \"@openzeppelin/contracts/access/Ownable.sol\":1710:1716  _owner */\n      0x01\n      0x00\n      swap1\n      sload\n      swap1\n      0x0100\n      exp\n      swap1\n      div\n      0xffffffffffffffffffffffffffffffffffffffff\n      and\n        /* \"@openzeppelin/contracts/access/Ownable.sol\":1703:1716  return _owner */\n      swap1\n      pop\n        /* \"@openzeppelin/contracts/access/Ownable.sol\":1638:1723  function owner() public view virtual returns (address) {... */\n      swap1\n      jump\t// out\n        /* \"finance/UBI4ALLVesting.sol\":3688:3855  function getVestingSchedule(address beneficiary) external view returns (UBI4ALLVestingLib.VestingSchedule memory) {... */\n    tag_68:\n        /* \"finance/UBI4ALLVesting.sol\":3760:3800  UBI4ALLVestingLib.VestingSchedule memory */\n      tag_180\n      tag_181\n      jump\t// in\n    tag_180:\n        /* \"finance/UBI4ALLVesting.sol\":3819:3835  vestingSchedules */\n      0x02\n        /* \"finance/UBI4ALLVesting.sol\":3819:3848  vestingSchedules[beneficiary] */\n      0x00\n        /* \"finance/UBI4ALLVesting.sol\":3836:3847  beneficiary */\n      dup4\n        /* \"finance/UBI4ALLVesting.sol\":3819:3848  vestingSchedules[beneficiary] */\n      0xffffffffffffffffffffffffffffffffffffffff\n      and\n      0xffffffffffffffffffffffffffffffffffffffff\n      and\n      dup2\n      mstore\n      0x20\n      add\n      swap1\n      dup2\n      mstore\n      0x20\n      add\n      0x00\n      keccak256\n        /* \"finance/UBI4ALLVesting.sol\":3812:3848  return vestingSchedules[beneficiary] */\n      mload(0x40)\n      dup1\n      0x0100\n      add\n      0x40\n      mstore\n      swap1\n      dup2\n      0x00\n      dup3\n      add\n      sload\n      dup2\n      mstore\n      0x20\n      add\n      0x01\n      dup3\n      add\n      sload\n      dup2\n      mstore\n      0x20\n      add\n      0x02\n      dup3\n      add\n      sload\n      dup2\n      mstore\n      0x20\n      add\n      0x03\n      dup3\n      add\n      sload\n      dup2\n      mstore\n      0x20\n      add\n      0x04\n      dup3\n      add\n      sload\n      dup2\n      mstore\n      0x20\n      add\n      0x05\n      dup3\n      add\n      0x00\n      swap1\n      sload\n      swap1\n      0x0100\n      exp\n      swap1\n      div\n      0xff\n      and\n      iszero\n      iszero\n      iszero\n      iszero\n      dup2\n      mstore\n      0x20\n      add\n      0x05\n      dup3\n      add\n      0x01\n      swap1\n      sload\n      swap1\n      0x0100\n      exp\n      swap1\n      div\n      0xff\n      and\n      iszero\n      iszero\n      iszero\n      iszero\n      dup2\n      mstore\n      0x20\n      add\n      0x06\n      dup3\n      add\n      sload\n      dup2\n      mstore\n      pop\n      pop\n      swap1\n      pop\n        /* \"finance/UBI4ALLVesting.sol\":3688:3855  function getVestingSchedule(address beneficiary) external view returns (UBI4ALLVestingLib.VestingSchedule memory) {... */\n      swap2\n      swap1\n      pop\n      jump\t// out\n        /* \"finance/UBI4ALLVesting.sol\":812:853  uint256 public immutable vestingStartTime */\n    tag_72:\n      immutable(\"0xe89799872416a62940a671d2617fca8be0977d1f52289bc3bc94933421343c70\")\n      dup2\n      jump\t// out\n        /* \"@openzeppelin/contracts/access/Ownable.sol\":2543:2758  function transferOwnership(address newOwner) public virtual onlyOwner {... */\n    tag_76:\n        /* \"@openzeppelin/contracts/access/Ownable.sol\":1531:1544  _checkOwner() */\n      tag_184\n        /* \"@openzeppelin/contracts/access/Ownable.sol\":1531:1542  _checkOwner */\n      tag_118\n        /* \"@openzeppelin/contracts/access/Ownable.sol\":1531:1544  _checkOwner() */\n      jump\t// in\n    tag_184:\n        /* \"@openzeppelin/contracts/access/Ownable.sol\":2647:2648  0 */\n      0x00\n        /* \"@openzeppelin/contracts/access/Ownable.sol\":2627:2649  newOwner == address(0) */\n      0xffffffffffffffffffffffffffffffffffffffff\n      and\n        /* \"@openzeppelin/contracts/access/Ownable.sol\":2627:2635  newOwner */\n      dup2\n        /* \"@openzeppelin/contracts/access/Ownable.sol\":2627:2649  newOwner == address(0) */\n      0xffffffffffffffffffffffffffffffffffffffff\n      and\n      sub\n        /* \"@openzeppelin/contracts/access/Ownable.sol\":2623:2714  if (newOwner == address(0)) {... */\n      tag_186\n      jumpi\n        /* \"@openzeppelin/contracts/access/Ownable.sol\":2700:2701  0 */\n      0x00\n        /* \"@openzeppelin/contracts/access/Ownable.sol\":2672:2703  OwnableInvalidOwner(address(0)) */\n      mload(0x40)\n      0x1e4fbdf700000000000000000000000000000000000000000000000000000000\n      dup2\n      mstore\n      0x04\n      add\n      tag_187\n      swap2\n      swap1\n      tag_65\n      jump\t// in\n    tag_187:\n      mload(0x40)\n      dup1\n      swap2\n      sub\n      swap1\n      revert\n        /* \"@openzeppelin/contracts/access/Ownable.sol\":2623:2714  if (newOwner == address(0)) {... */\n    tag_186:\n        /* \"@openzeppelin/contracts/access/Ownable.sol\":2723:2751  _transferOwnership(newOwner) */\n      tag_188\n        /* \"@openzeppelin/contracts/access/Ownable.sol\":2742:2750  newOwner */\n      dup2\n        /* \"@openzeppelin/contracts/access/Ownable.sol\":2723:2741  _transferOwnership */\n      tag_150\n        /* \"@openzeppelin/contracts/access/Ownable.sol\":2723:2751  _transferOwnership(newOwner) */\n      jump\t// in\n    tag_188:\n        /* \"@openzeppelin/contracts/access/Ownable.sol\":2543:2758  function transferOwnership(address newOwner) public virtual onlyOwner {... */\n      pop\n      jump\t// out\n        /* \"finance/UBI4ALLVesting.sol\":697:774  mapping(address => UBI4ALLVestingLib.VestingSchedule) public vestingSchedules */\n    tag_79:\n      mstore(0x20, 0x02)\n      dup1\n      0x00\n      mstore\n      keccak256(0x00, 0x40)\n      0x00\n      swap2\n      pop\n      swap1\n      pop\n      dup1\n      0x00\n      add\n      sload\n      swap1\n      dup1\n      0x01\n      add\n      sload\n      swap1\n      dup1\n      0x02\n      add\n      sload\n      swap1\n      dup1\n      0x03\n      add\n      sload\n      swap1\n      dup1\n      0x04\n      add\n      sload\n      swap1\n      dup1\n      0x05\n      add\n      0x00\n      swap1\n      sload\n      swap1\n      0x0100\n      exp\n      swap1\n      div\n      0xff\n      and\n      swap1\n      dup1\n      0x05\n      add\n      0x01\n      swap1\n      sload\n      swap1\n      0x0100\n      exp\n      swap1\n      div\n      0xff\n      and\n      swap1\n      dup1\n      0x06\n      add\n      sload\n      swap1\n      pop\n      dup9\n      jump\t// out\n        /* \"@openzeppelin/contracts/security/ReentrancyGuard.sol\":2337:2624  function _nonReentrantBefore() private {... */\n    tag_84:\n        /* \"@openzeppelin/contracts/security/ReentrancyGuard.sol\":1760:1761  2 */\n      0x02\n        /* \"@openzeppelin/contracts/security/ReentrancyGuard.sol\":2469:2476  _status */\n      sload(0x00)\n        /* \"@openzeppelin/contracts/security/ReentrancyGuard.sol\":2469:2488  _status != _ENTERED */\n      sub\n        /* \"@openzeppelin/contracts/security/ReentrancyGuard.sol\":2461:2524  require(_status != _ENTERED, \"ReentrancyGuard: reentrant call\") */\n      tag_190\n      jumpi\n      mload(0x40)\n      0x08c379a000000000000000000000000000000000000000000000000000000000\n      dup2\n      mstore\n      0x04\n      add\n      tag_191\n      swap1\n      tag_192\n      jump\t// in\n    tag_191:\n      mload(0x40)\n      dup1\n      swap2\n      sub\n      swap1\n      revert\n    tag_190:\n        /* \"@openzeppelin/contracts/security/ReentrancyGuard.sol\":1760:1761  2 */\n      0x02\n        /* \"@openzeppelin/contracts/security/ReentrancyGuard.sol\":2599:2606  _status */\n      0x00\n        /* \"@openzeppelin/contracts/security/ReentrancyGuard.sol\":2599:2617  _status = _ENTERED */\n      dup2\n      swap1\n      sstore\n      pop\n        /* \"@openzeppelin/contracts/security/ReentrancyGuard.sol\":2337:2624  function _nonReentrantBefore() private {... */\n      jump\t// out\n        /* \"@openzeppelin/contracts/security/Pausable.sol\":1768:1874  function _requireNotPaused() internal view virtual {... */\n    tag_87:\n        /* \"@openzeppelin/contracts/security/Pausable.sol\":1838:1846  paused() */\n      tag_194\n        /* \"@openzeppelin/contracts/security/Pausable.sol\":1838:1844  paused */\n      tag_48\n        /* \"@openzeppelin/contracts/security/Pausable.sol\":1838:1846  paused() */\n      jump\t// in\n    tag_194:\n        /* \"@openzeppelin/contracts/security/Pausable.sol\":1837:1846  !paused() */\n      iszero\n        /* \"@openzeppelin/contracts/security/Pausable.sol\":1829:1867  require(!paused(), \"Pausable: paused\") */\n      tag_195\n      jumpi\n      mload(0x40)\n      0x08c379a000000000000000000000000000000000000000000000000000000000\n      dup2\n      mstore\n      0x04\n      add\n      tag_196\n      swap1\n      tag_197\n      jump\t// in\n    tag_196:\n      mload(0x40)\n      dup1\n      swap2\n      sub\n      swap1\n      revert\n    tag_195:\n        /* \"@openzeppelin/contracts/security/Pausable.sol\":1768:1874  function _requireNotPaused() internal view virtual {... */\n      jump\t// out\n        /* \"libraries/UBI4ALLVestingLib.sol\":446:1103  function calculateReleasableAmount(... */\n    tag_96:\n        /* \"libraries/UBI4ALLVestingLib.sol\":552:559  uint256 */\n      0x00\n        /* \"libraries/UBI4ALLVestingLib.sol\":593:639  schedule.startTime.add(schedule.cliffDuration) */\n      tag_199\n        /* \"libraries/UBI4ALLVestingLib.sol\":616:624  schedule */\n      dup3\n        /* \"libraries/UBI4ALLVestingLib.sol\":616:638  schedule.cliffDuration */\n      0x04\n      add\n      sload\n        /* \"libraries/UBI4ALLVestingLib.sol\":593:601  schedule */\n      dup4\n        /* \"libraries/UBI4ALLVestingLib.sol\":593:611  schedule.startTime */\n      0x02\n      add\n      sload\n        /* \"libraries/UBI4ALLVestingLib.sol\":593:615  schedule.startTime.add */\n      tag_200\n      swap1\n        /* \"libraries/UBI4ALLVestingLib.sol\":593:639  schedule.startTime.add(schedule.cliffDuration) */\n      swap2\n      swap1\n      0xffffffff\n      and\n      jump\t// in\n    tag_199:\n        /* \"libraries/UBI4ALLVestingLib.sol\":575:590  block.timestamp */\n      timestamp\n        /* \"libraries/UBI4ALLVestingLib.sol\":575:639  block.timestamp < schedule.startTime.add(schedule.cliffDuration) */\n      lt\n        /* \"libraries/UBI4ALLVestingLib.sol\":571:674  if (block.timestamp < schedule.startTime.add(schedule.cliffDuration)) {... */\n      iszero\n      tag_201\n      jumpi\n        /* \"libraries/UBI4ALLVestingLib.sol\":662:663  0 */\n      0x00\n        /* \"libraries/UBI4ALLVestingLib.sol\":655:663  return 0 */\n      swap1\n      pop\n      jump(tag_198)\n        /* \"libraries/UBI4ALLVestingLib.sol\":571:674  if (block.timestamp < schedule.startTime.add(schedule.cliffDuration)) {... */\n    tag_201:\n        /* \"libraries/UBI4ALLVestingLib.sol\":707:748  schedule.startTime.add(schedule.duration) */\n      tag_202\n        /* \"libraries/UBI4ALLVestingLib.sol\":730:738  schedule */\n      dup3\n        /* \"libraries/UBI4ALLVestingLib.sol\":730:747  schedule.duration */\n      0x03\n      add\n      sload\n        /* \"libraries/UBI4ALLVestingLib.sol\":707:715  schedule */\n      dup4\n        /* \"libraries/UBI4ALLVestingLib.sol\":707:725  schedule.startTime */\n      0x02\n      add\n      sload\n        /* \"libraries/UBI4ALLVestingLib.sol\":707:729  schedule.startTime.add */\n      tag_200\n      swap1\n        /* \"libraries/UBI4ALLVestingLib.sol\":707:748  schedule.startTime.add(schedule.duration) */\n      swap2\n      swap1\n      0xffffffff\n      and\n      jump\t// in\n    tag_202:\n        /* \"libraries/UBI4ALLVestingLib.sol\":688:703  block.timestamp */\n      timestamp\n        /* \"libraries/UBI4ALLVestingLib.sol\":688:748  block.timestamp >= schedule.startTime.add(schedule.duration) */\n      lt\n        /* \"libraries/UBI4ALLVestingLib.sol\":684:831  if (block.timestamp >= schedule.startTime.add(schedule.duration)) {... */\n      tag_203\n      jumpi\n        /* \"libraries/UBI4ALLVestingLib.sol\":771:820  schedule.totalAmount.sub(schedule.releasedAmount) */\n      tag_204\n        /* \"libraries/UBI4ALLVestingLib.sol\":796:804  schedule */\n      dup3\n        /* \"libraries/UBI4ALLVestingLib.sol\":796:819  schedule.releasedAmount */\n      0x01\n      add\n      sload\n        /* \"libraries/UBI4ALLVestingLib.sol\":771:779  schedule */\n      dup4\n        /* \"libraries/UBI4ALLVestingLib.sol\":771:791  schedule.totalAmount */\n      0x00\n      add\n      sload\n        /* \"libraries/UBI4ALLVestingLib.sol\":771:795  schedule.totalAmount.sub */\n      tag_205\n      swap1\n        /* \"libraries/UBI4ALLVestingLib.sol\":771:820  schedule.totalAmount.sub(schedule.releasedAmount) */\n      swap2\n      swap1\n      0xffffffff\n      and\n      jump\t// in\n    tag_204:\n        /* \"libraries/UBI4ALLVestingLib.sol\":764:820  return schedule.totalAmount.sub(schedule.releasedAmount) */\n      swap1\n      pop\n      jump(tag_198)\n        /* \"libraries/UBI4ALLVestingLib.sol\":684:831  if (block.timestamp >= schedule.startTime.add(schedule.duration)) {... */\n    tag_203:\n        /* \"libraries/UBI4ALLVestingLib.sol\":841:862  uint256 timeFromStart */\n      0x00\n        /* \"libraries/UBI4ALLVestingLib.sol\":865:904  block.timestamp.sub(schedule.startTime) */\n      tag_206\n        /* \"libraries/UBI4ALLVestingLib.sol\":885:893  schedule */\n      dup4\n        /* \"libraries/UBI4ALLVestingLib.sol\":885:903  schedule.startTime */\n      0x02\n      add\n      sload\n        /* \"libraries/UBI4ALLVestingLib.sol\":865:880  block.timestamp */\n      timestamp\n        /* \"libraries/UBI4ALLVestingLib.sol\":865:884  block.timestamp.sub */\n      tag_205\n      swap1\n        /* \"libraries/UBI4ALLVestingLib.sol\":865:904  block.timestamp.sub(schedule.startTime) */\n      swap2\n      swap1\n      0xffffffff\n      and\n      jump\t// in\n    tag_206:\n        /* \"libraries/UBI4ALLVestingLib.sol\":841:904  uint256 timeFromStart = block.timestamp.sub(schedule.startTime) */\n      swap1\n      pop\n        /* \"libraries/UBI4ALLVestingLib.sol\":914:934  uint256 vestedAmount */\n      0x00\n        /* \"libraries/UBI4ALLVestingLib.sol\":937:1025  schedule.totalAmount... */\n      tag_207\n        /* \"libraries/UBI4ALLVestingLib.sol\":1007:1015  schedule */\n      dup5\n        /* \"libraries/UBI4ALLVestingLib.sol\":1007:1024  schedule.duration */\n      0x03\n      add\n      sload\n        /* \"libraries/UBI4ALLVestingLib.sol\":937:989  schedule.totalAmount... */\n      tag_208\n        /* \"libraries/UBI4ALLVestingLib.sol\":975:988  timeFromStart */\n      dup5\n        /* \"libraries/UBI4ALLVestingLib.sol\":937:945  schedule */\n      dup8\n        /* \"libraries/UBI4ALLVestingLib.sol\":937:957  schedule.totalAmount */\n      0x00\n      add\n      sload\n        /* \"libraries/UBI4ALLVestingLib.sol\":937:974  schedule.totalAmount... */\n      tag_209\n      swap1\n        /* \"libraries/UBI4ALLVestingLib.sol\":937:989  schedule.totalAmount... */\n      swap2\n      swap1\n      0xffffffff\n      and\n      jump\t// in\n    tag_208:\n        /* \"libraries/UBI4ALLVestingLib.sol\":937:1006  schedule.totalAmount... */\n      tag_210\n      swap1\n        /* \"libraries/UBI4ALLVestingLib.sol\":937:1025  schedule.totalAmount... */\n      swap2\n      swap1\n      0xffffffff\n      and\n      jump\t// in\n    tag_207:\n        /* \"libraries/UBI4ALLVestingLib.sol\":914:1025  uint256 vestedAmount = schedule.totalAmount... */\n      swap1\n      pop\n        /* \"libraries/UBI4ALLVestingLib.sol\":1055:1096  vestedAmount.sub(schedule.releasedAmount) */\n      tag_211\n        /* \"libraries/UBI4ALLVestingLib.sol\":1072:1080  schedule */\n      dup5\n        /* \"libraries/UBI4ALLVestingLib.sol\":1072:1095  schedule.releasedAmount */\n      0x01\n      add\n      sload\n        /* \"libraries/UBI4ALLVestingLib.sol\":1055:1067  vestedAmount */\n      dup3\n        /* \"libraries/UBI4ALLVestingLib.sol\":1055:1071  vestedAmount.sub */\n      tag_205\n      swap1\n        /* \"libraries/UBI4ALLVestingLib.sol\":1055:1096  vestedAmount.sub(schedule.releasedAmount) */\n      swap2\n      swap1\n      0xffffffff\n      and\n      jump\t// in\n    tag_211:\n        /* \"libraries/UBI4ALLVestingLib.sol\":1048:1096  return vestedAmount.sub(schedule.releasedAmount) */\n      swap3\n      pop\n      pop\n      pop\n        /* \"libraries/UBI4ALLVestingLib.sol\":446:1103  function calculateReleasableAmount(... */\n    tag_198:\n      swap2\n      swap1\n      pop\n      jump\t// out\n        /* \"@openzeppelin/contracts/security/ReentrancyGuard.sol\":2630:2839  function _nonReentrantAfter() private {... */\n    tag_113:\n        /* \"@openzeppelin/contracts/security/ReentrancyGuard.sol\":1717:1718  1 */\n      0x01\n        /* \"@openzeppelin/contracts/security/ReentrancyGuard.sol\":2810:2817  _status */\n      0x00\n        /* \"@openzeppelin/contracts/security/ReentrancyGuard.sol\":2810:2832  _status = _NOT_ENTERED */\n      dup2\n      swap1\n      sstore\n      pop\n        /* \"@openzeppelin/contracts/security/ReentrancyGuard.sol\":2630:2839  function _nonReentrantAfter() private {... */\n      jump\t// out\n        /* \"@openzeppelin/contracts/access/Ownable.sol\":1796:1958  function _checkOwner() internal view virtual {... */\n    tag_118:\n        /* \"@openzeppelin/contracts/access/Ownable.sol\":1866:1878  _msgSender() */\n      tag_214\n        /* \"@openzeppelin/contracts/access/Ownable.sol\":1866:1876  _msgSender */\n      tag_215\n        /* \"@openzeppelin/contracts/access/Ownable.sol\":1866:1878  _msgSender() */\n      jump\t// in\n    tag_214:\n        /* \"@openzeppelin/contracts/access/Ownable.sol\":1855:1878  owner() != _msgSender() */\n      0xffffffffffffffffffffffffffffffffffffffff\n      and\n        /* \"@openzeppelin/contracts/access/Ownable.sol\":1855:1862  owner() */\n      tag_216\n        /* \"@openzeppelin/contracts/access/Ownable.sol\":1855:1860  owner */\n      tag_63\n        /* \"@openzeppelin/contracts/access/Ownable.sol\":1855:1862  owner() */\n      jump\t// in\n    tag_216:\n        /* \"@openzeppelin/contracts/access/Ownable.sol\":1855:1878  owner() != _msgSender() */\n      0xffffffffffffffffffffffffffffffffffffffff\n      and\n      eq\n        /* \"@openzeppelin/contracts/access/Ownable.sol\":1851:1952  if (owner() != _msgSender()) {... */\n      tag_217\n      jumpi\n        /* \"@openzeppelin/contracts/access/Ownable.sol\":1928:1940  _msgSender() */\n      tag_218\n        /* \"@openzeppelin/contracts/access/Ownable.sol\":1928:1938  _msgSender */\n      tag_215\n        /* \"@openzeppelin/contracts/access/Ownable.sol\":1928:1940  _msgSender() */\n      jump\t// in\n    tag_218:\n        /* \"@openzeppelin/contracts/access/Ownable.sol\":1901:1941  OwnableUnauthorizedAccount(_msgSender()) */\n      mload(0x40)\n      0x118cdaa700000000000000000000000000000000000000000000000000000000\n      dup2\n      mstore\n      0x04\n      add\n      tag_219\n      swap2\n      swap1\n      tag_65\n      jump\t// in\n    tag_219:\n      mload(0x40)\n      dup1\n      swap2\n      sub\n      swap1\n      revert\n        /* \"@openzeppelin/contracts/access/Ownable.sol\":1851:1952  if (owner() != _msgSender()) {... */\n    tag_217:\n        /* \"@openzeppelin/contracts/access/Ownable.sol\":1796:1958  function _checkOwner() internal view virtual {... */\n      jump\t// out\n        /* \"@openzeppelin/contracts/security/Pausable.sol\":2434:2551  function _unpause() internal virtual whenPaused {... */\n    tag_121:\n        /* \"@openzeppelin/contracts/security/Pausable.sol\":1487:1503  _requirePaused() */\n      tag_221\n        /* \"@openzeppelin/contracts/security/Pausable.sol\":1487:1501  _requirePaused */\n      tag_222\n        /* \"@openzeppelin/contracts/security/Pausable.sol\":1487:1503  _requirePaused() */\n      jump\t// in\n    tag_221:\n        /* \"@openzeppelin/contracts/security/Pausable.sol\":2502:2507  false */\n      0x00\n        /* \"@openzeppelin/contracts/security/Pausable.sol\":2492:2499  _paused */\n      0x01\n      0x14\n        /* \"@openzeppelin/contracts/security/Pausable.sol\":2492:2507  _paused = false */\n      0x0100\n      exp\n      dup2\n      sload\n      dup2\n      0xff\n      mul\n      not\n      and\n      swap1\n      dup4\n      iszero\n      iszero\n      mul\n      or\n      swap1\n      sstore\n      pop\n        /* \"@openzeppelin/contracts/security/Pausable.sol\":2522:2544  Unpaused(_msgSender()) */\n      0x5db9ee0a495bf2e6ff9c91a7834c1ba4fdd244a5e8aa4e537bd38aeae4b073aa\n        /* \"@openzeppelin/contracts/security/Pausable.sol\":2531:2543  _msgSender() */\n      tag_224\n        /* \"@openzeppelin/contracts/security/Pausable.sol\":2531:2541  _msgSender */\n      tag_215\n        /* \"@openzeppelin/contracts/security/Pausable.sol\":2531:2543  _msgSender() */\n      jump\t// in\n    tag_224:\n        /* \"@openzeppelin/contracts/security/Pausable.sol\":2522:2544  Unpaused(_msgSender()) */\n      mload(0x40)\n      tag_225\n      swap2\n      swap1\n      tag_65\n      jump\t// in\n    tag_225:\n      mload(0x40)\n      dup1\n      swap2\n      sub\n      swap1\n      log1\n        /* \"@openzeppelin/contracts/security/Pausable.sol\":2434:2551  function _unpause() internal virtual whenPaused {... */\n      jump\t// out\n        /* \"@openzeppelin/contracts/access/Ownable.sol\":2912:3099  function _transferOwnership(address newOwner) internal virtual {... */\n    tag_150:\n        /* \"@openzeppelin/contracts/access/Ownable.sol\":2985:3001  address oldOwner */\n      0x00\n        /* \"@openzeppelin/contracts/access/Ownable.sol\":3004:3010  _owner */\n      0x01\n      0x00\n      swap1\n      sload\n      swap1\n      0x0100\n      exp\n      swap1\n      div\n      0xffffffffffffffffffffffffffffffffffffffff\n      and\n        /* \"@openzeppelin/contracts/access/Ownable.sol\":2985:3010  address oldOwner = _owner */\n      swap1\n      pop\n        /* \"@openzeppelin/contracts/access/Ownable.sol\":3029:3037  newOwner */\n      dup2\n        /* \"@openzeppelin/contracts/access/Ownable.sol\":3020:3026  _owner */\n      0x01\n      0x00\n        /* \"@openzeppelin/contracts/access/Ownable.sol\":3020:3037  _owner = newOwner */\n      0x0100\n      exp\n      dup2\n      sload\n      dup2\n      0xffffffffffffffffffffffffffffffffffffffff\n      mul\n      not\n      and\n      swap1\n      dup4\n      0xffffffffffffffffffffffffffffffffffffffff\n      and\n      mul\n      or\n      swap1\n      sstore\n      pop\n        /* \"@openzeppelin/contracts/access/Ownable.sol\":3083:3091  newOwner */\n      dup2\n        /* \"@openzeppelin/contracts/access/Ownable.sol\":3052:3092  OwnershipTransferred(oldOwner, newOwner) */\n      0xffffffffffffffffffffffffffffffffffffffff\n      and\n        /* \"@openzeppelin/contracts/access/Ownable.sol\":3073:3081  oldOwner */\n      dup2\n        /* \"@openzeppelin/contracts/access/Ownable.sol\":3052:3092  OwnershipTransferred(oldOwner, newOwner) */\n      0xffffffffffffffffffffffffffffffffffffffff\n      and\n      0x8be0079c531659141344cd1fd0a4f28419497f9722a3daafe3b4186f6b6457e0\n      mload(0x40)\n      mload(0x40)\n      dup1\n      swap2\n      sub\n      swap1\n      log3\n        /* \"@openzeppelin/contracts/access/Ownable.sol\":2975:3099  {... */\n      pop\n        /* \"@openzeppelin/contracts/access/Ownable.sol\":2912:3099  function _transferOwnership(address newOwner) internal virtual {... */\n      pop\n      jump\t// out\n        /* \"@openzeppelin/contracts/security/Pausable.sol\":2187:2302  function _pause() internal virtual whenNotPaused {... */\n    tag_178:\n        /* \"@openzeppelin/contracts/security/Pausable.sol\":1240:1259  _requireNotPaused() */\n      tag_228\n        /* \"@openzeppelin/contracts/security/Pausable.sol\":1240:1257  _requireNotPaused */\n      tag_87\n        /* \"@openzeppelin/contracts/security/Pausable.sol\":1240:1259  _requireNotPaused() */\n      jump\t// in\n    tag_228:\n        /* \"@openzeppelin/contracts/security/Pausable.sol\":2256:2260  true */\n      0x01\n        /* \"@openzeppelin/contracts/security/Pausable.sol\":2246:2253  _paused */\n      dup1\n      0x14\n        /* \"@openzeppelin/contracts/security/Pausable.sol\":2246:2260  _paused = true */\n      0x0100\n      exp\n      dup2\n      sload\n      dup2\n      0xff\n      mul\n      not\n      and\n      swap1\n      dup4\n      iszero\n      iszero\n      mul\n      or\n      swap1\n      sstore\n      pop\n        /* \"@openzeppelin/contracts/security/Pausable.sol\":2275:2295  Paused(_msgSender()) */\n      0x62e78cea01bee320cd4e420270b5ea74000d11b0c9f74754ebdbfc544b05a258\n        /* \"@openzeppelin/contracts/security/Pausable.sol\":2282:2294  _msgSender() */\n      tag_230\n        /* \"@openzeppelin/contracts/security/Pausable.sol\":2282:2292  _msgSender */\n      tag_215\n        /* \"@openzeppelin/contracts/security/Pausable.sol\":2282:2294  _msgSender() */\n      jump\t// in\n    tag_230:\n        /* \"@openzeppelin/contracts/security/Pausable.sol\":2275:2295  Paused(_msgSender()) */\n      mload(0x40)\n      tag_231\n      swap2\n      swap1\n      tag_65\n      jump\t// in\n    tag_231:\n      mload(0x40)\n      dup1\n      swap2\n      sub\n      swap1\n      log1\n        /* \"@openzeppelin/contracts/security/Pausable.sol\":2187:2302  function _pause() internal virtual whenNotPaused {... */\n      jump\t// out\n        /* \"@openzeppelin/contracts/utils/math/SafeMath.sol\":2756:2852  function add(uint256 a, uint256 b) internal pure returns (uint256) {... */\n    tag_200:\n        /* \"@openzeppelin/contracts/utils/math/SafeMath.sol\":2814:2821  uint256 */\n      0x00\n        /* \"@openzeppelin/contracts/utils/math/SafeMath.sol\":2844:2845  b */\n      dup2\n        /* \"@openzeppelin/contracts/utils/math/SafeMath.sol\":2840:2841  a */\n      dup4\n        /* \"@openzeppelin/contracts/utils/math/SafeMath.sol\":2840:2845  a + b */\n      tag_233\n      swap2\n      swap1\n      tag_101\n      jump\t// in\n    tag_233:\n        /* \"@openzeppelin/contracts/utils/math/SafeMath.sol\":2833:2845  return a + b */\n      swap1\n      pop\n        /* \"@openzeppelin/contracts/utils/math/SafeMath.sol\":2756:2852  function add(uint256 a, uint256 b) internal pure returns (uint256) {... */\n      swap3\n      swap2\n      pop\n      pop\n      jump\t// out\n        /* \"@openzeppelin/contracts/utils/math/SafeMath.sol\":3123:3219  function sub(uint256 a, uint256 b) internal pure returns (uint256) {... */\n    tag_205:\n        /* \"@openzeppelin/contracts/utils/math/SafeMath.sol\":3181:3188  uint256 */\n      0x00\n        /* \"@openzeppelin/contracts/utils/math/SafeMath.sol\":3211:3212  b */\n      dup2\n        /* \"@openzeppelin/contracts/utils/math/SafeMath.sol\":3207:3208  a */\n      dup4\n        /* \"@openzeppelin/contracts/utils/math/SafeMath.sol\":3207:3212  a - b */\n      tag_235\n      swap2\n      swap1\n      tag_165\n      jump\t// in\n    tag_235:\n        /* \"@openzeppelin/contracts/utils/math/SafeMath.sol\":3200:3212  return a - b */\n      swap1\n      pop\n        /* \"@openzeppelin/contracts/utils/math/SafeMath.sol\":3123:3219  function sub(uint256 a, uint256 b) internal pure returns (uint256) {... */\n      swap3\n      swap2\n      pop\n      pop\n      jump\t// out\n        /* \"@openzeppelin/contracts/utils/math/SafeMath.sol\":3466:3562  function mul(uint256 a, uint256 b) internal pure returns (uint256) {... */\n    tag_209:\n        /* \"@openzeppelin/contracts/utils/math/SafeMath.sol\":3524:3531  uint256 */\n      0x00\n        /* \"@openzeppelin/contracts/utils/math/SafeMath.sol\":3554:3555  b */\n      dup2\n        /* \"@openzeppelin/contracts/utils/math/SafeMath.sol\":3550:3551  a */\n      dup4\n        /* \"@openzeppelin/contracts/utils/math/SafeMath.sol\":3550:3555  a * b */\n      tag_237\n      swap2\n      swap1\n      tag_238\n      jump\t// in\n    tag_237:\n        /* \"@openzeppelin/contracts/utils/math/SafeMath.sol\":3543:3555  return a * b */\n      swap1\n      pop\n        /* \"@openzeppelin/contracts/utils/math/SafeMath.sol\":3466:3562  function mul(uint256 a, uint256 b) internal pure returns (uint256) {... */\n      swap3\n      swap2\n      pop\n      pop\n      jump\t// out\n        /* \"@openzeppelin/contracts/utils/math/SafeMath.sol\":3851:3947  function div(uint256 a, uint256 b) internal pure returns (uint256) {... */\n    tag_210:\n        /* \"@openzeppelin/contracts/utils/math/SafeMath.sol\":3909:3916  uint256 */\n      0x00\n        /* \"@openzeppelin/contracts/utils/math/SafeMath.sol\":3939:3940  b */\n      dup2\n        /* \"@openzeppelin/contracts/utils/math/SafeMath.sol\":3935:3936  a */\n      dup4\n        /* \"@openzeppelin/contracts/utils/math/SafeMath.sol\":3935:3940  a / b */\n      tag_240\n      swap2\n      swap1\n      tag_241\n      jump\t// in\n    tag_240:\n        /* \"@openzeppelin/contracts/utils/math/SafeMath.sol\":3928:3940  return a / b */\n      swap1\n      pop\n        /* \"@openzeppelin/contracts/utils/math/SafeMath.sol\":3851:3947  function div(uint256 a, uint256 b) internal pure returns (uint256) {... */\n      swap3\n      swap2\n      pop\n      pop\n      jump\t// out\n        /* \"@openzeppelin/contracts/utils/Context.sol\":656:752  function _msgSender() internal view virtual returns (address) {... */\n    tag_215:\n        /* \"@openzeppelin/contracts/utils/Context.sol\":709:716  address */\n      0x00\n        /* \"@openzeppelin/contracts/utils/Context.sol\":735:745  msg.sender */\n      caller\n        /* \"@openzeppelin/contracts/utils/Context.sol\":728:745  return msg.sender */\n      swap1\n      pop\n        /* \"@openzeppelin/contracts/utils/Context.sol\":656:752  function _msgSender() internal view virtual returns (address) {... */\n      swap1\n      jump\t// out\n        /* \"@openzeppelin/contracts/security/Pausable.sol\":1946:2052  function _requirePaused() internal view virtual {... */\n    tag_222:\n        /* \"@openzeppelin/contracts/security/Pausable.sol\":2012:2020  paused() */\n      tag_244\n        /* \"@openzeppelin/contracts/security/Pausable.sol\":2012:2018  paused */\n      tag_48\n        /* \"@openzeppelin/contracts/security/Pausable.sol\":2012:2020  paused() */\n      jump\t// in\n    tag_244:\n        /* \"@openzeppelin/contracts/security/Pausable.sol\":2004:2045  require(paused(), \"Pausable: not paused\") */\n      tag_245\n      jumpi\n      mload(0x40)\n      0x08c379a000000000000000000000000000000000000000000000000000000000\n      dup2\n      mstore\n      0x04\n      add\n      tag_246\n      swap1\n      tag_247\n      jump\t// in\n    tag_246:\n      mload(0x40)\n      dup1\n      swap2\n      sub\n      swap1\n      revert\n    tag_245:\n        /* \"@openzeppelin/contracts/security/Pausable.sol\":1946:2052  function _requirePaused() internal view virtual {... */\n      jump\t// out\n    tag_181:\n      mload(0x40)\n      dup1\n      0x0100\n      add\n      0x40\n      mstore\n      dup1\n      0x00\n      dup2\n      mstore\n      0x20\n      add\n      0x00\n      dup2\n      mstore\n      0x20\n      add\n      0x00\n      dup2\n      mstore\n      0x20\n      add\n      0x00\n      dup2\n      mstore\n      0x20\n      add\n      0x00\n      dup2\n      mstore\n      0x20\n      add\n      iszero(iszero(0x00))\n      dup2\n      mstore\n      0x20\n      add\n      iszero(iszero(0x00))\n      dup2\n      mstore\n      0x20\n      add\n      0x00\n      dup2\n      mstore\n      pop\n      swap1\n      jump\t// out\n        /* \"#utility.yul\":7:133   */\n    tag_248:\n        /* \"#utility.yul\":44:51   */\n      0x00\n        /* \"#utility.yul\":84:126   */\n      0xffffffffffffffffffffffffffffffffffffffff\n        /* \"#utility.yul\":77:82   */\n      dup3\n        /* \"#utility.yul\":73:127   */\n      and\n        /* \"#utility.yul\":62:127   */\n      swap1\n      pop\n        /* \"#utility.yul\":7:133   */\n      swap2\n      swap1\n      pop\n      jump\t// out\n        /* \"#utility.yul\":139:199   */\n    tag_249:\n        /* \"#utility.yul\":167:170   */\n      0x00\n        /* \"#utility.yul\":188:193   */\n      dup2\n        /* \"#utility.yul\":181:193   */\n      swap1\n      pop\n        /* \"#utility.yul\":139:199   */\n      swap2\n      swap1\n      pop\n      jump\t// out\n        /* \"#utility.yul\":205:347   */\n    tag_250:\n        /* \"#utility.yul\":255:264   */\n      0x00\n        /* \"#utility.yul\":288:341   */\n      tag_303\n        /* \"#utility.yul\":306:340   */\n      tag_304\n        /* \"#utility.yul\":315:339   */\n      tag_305\n        /* \"#utility.yul\":333:338   */\n      dup5\n        /* \"#utility.yul\":315:339   */\n      tag_248\n      jump\t// in\n    tag_305:\n        /* \"#utility.yul\":306:340   */\n      tag_249\n      jump\t// in\n    tag_304:\n        /* \"#utility.yul\":288:341   */\n      tag_248\n      jump\t// in\n    tag_303:\n        /* \"#utility.yul\":275:341   */\n      swap1\n      pop\n        /* \"#utility.yul\":205:347   */\n      swap2\n      swap1\n      pop\n      jump\t// out\n        /* \"#utility.yul\":353:479   */\n    tag_251:\n        /* \"#utility.yul\":403:412   */\n      0x00\n        /* \"#utility.yul\":436:473   */\n      tag_307\n        /* \"#utility.yul\":467:472   */\n      dup3\n        /* \"#utility.yul\":436:473   */\n      tag_250\n      jump\t// in\n    tag_307:\n        /* \"#utility.yul\":423:473   */\n      swap1\n      pop\n        /* \"#utility.yul\":353:479   */\n      swap2\n      swap1\n      pop\n      jump\t// out\n        /* \"#utility.yul\":485:625   */\n    tag_252:\n        /* \"#utility.yul\":549:558   */\n      0x00\n        /* \"#utility.yul\":582:619   */\n      tag_309\n        /* \"#utility.yul\":613:618   */\n      dup3\n        /* \"#utility.yul\":582:619   */\n      tag_251\n      jump\t// in\n    tag_309:\n        /* \"#utility.yul\":569:619   */\n      swap1\n      pop\n        /* \"#utility.yul\":485:625   */\n      swap2\n      swap1\n      pop\n      jump\t// out\n        /* \"#utility.yul\":631:790   */\n    tag_253:\n        /* \"#utility.yul\":732:783   */\n      tag_311\n        /* \"#utility.yul\":777:782   */\n      dup2\n        /* \"#utility.yul\":732:783   */\n      tag_252\n      jump\t// in\n    tag_311:\n        /* \"#utility.yul\":727:730   */\n      dup3\n        /* \"#utility.yul\":720:784   */\n      mstore\n        /* \"#utility.yul\":631:790   */\n      pop\n      pop\n      jump\t// out\n        /* \"#utility.yul\":796:1046   */\n    tag_26:\n        /* \"#utility.yul\":903:907   */\n      0x00\n        /* \"#utility.yul\":941:943   */\n      0x20\n        /* \"#utility.yul\":930:939   */\n      dup3\n        /* \"#utility.yul\":926:944   */\n      add\n        /* \"#utility.yul\":918:944   */\n      swap1\n      pop\n        /* \"#utility.yul\":954:1039   */\n      tag_313\n        /* \"#utility.yul\":1036:1037   */\n      0x00\n        /* \"#utility.yul\":1025:1034   */\n      dup4\n        /* \"#utility.yul\":1021:1038   */\n      add\n        /* \"#utility.yul\":1012:1018   */\n      dup5\n        /* \"#utility.yul\":954:1039   */\n      tag_253\n      jump\t// in\n    tag_313:\n        /* \"#utility.yul\":796:1046   */\n      swap3\n      swap2\n      pop\n      pop\n      jump\t// out\n        /* \"#utility.yul\":1133:1250   */\n    tag_255:\n        /* \"#utility.yul\":1242:1243   */\n      0x00\n        /* \"#utility.yul\":1239:1240   */\n      0x00\n        /* \"#utility.yul\":1232:1244   */\n      revert\n        /* \"#utility.yul\":1379:1475   */\n    tag_257:\n        /* \"#utility.yul\":1416:1423   */\n      0x00\n        /* \"#utility.yul\":1445:1469   */\n      tag_318\n        /* \"#utility.yul\":1463:1468   */\n      dup3\n        /* \"#utility.yul\":1445:1469   */\n      tag_248\n      jump\t// in\n    tag_318:\n        /* \"#utility.yul\":1434:1469   */\n      swap1\n      pop\n        /* \"#utility.yul\":1379:1475   */\n      swap2\n      swap1\n      pop\n      jump\t// out\n        /* \"#utility.yul\":1481:1603   */\n    tag_258:\n        /* \"#utility.yul\":1554:1578   */\n      tag_320\n        /* \"#utility.yul\":1572:1577   */\n      dup2\n        /* \"#utility.yul\":1554:1578   */\n      tag_257\n      jump\t// in\n    tag_320:\n        /* \"#utility.yul\":1547:1552   */\n      dup2\n        /* \"#utility.yul\":1544:1579   */\n      eq\n        /* \"#utility.yul\":1534:1597   */\n      tag_321\n      jumpi\n        /* \"#utility.yul\":1593:1594   */\n      0x00\n        /* \"#utility.yul\":1590:1591   */\n      0x00\n        /* \"#utility.yul\":1583:1595   */\n      revert\n        /* \"#utility.yul\":1534:1597   */\n    tag_321:\n        /* \"#utility.yul\":1481:1603   */\n      pop\n      jump\t// out\n        /* \"#utility.yul\":1609:1748   */\n    tag_259:\n        /* \"#utility.yul\":1655:1660   */\n      0x00\n        /* \"#utility.yul\":1693:1699   */\n      dup2\n        /* \"#utility.yul\":1680:1700   */\n      calldataload\n        /* \"#utility.yul\":1671:1700   */\n      swap1\n      pop\n        /* \"#utility.yul\":1709:1742   */\n      tag_323\n        /* \"#utility.yul\":1736:1741   */\n      dup2\n        /* \"#utility.yul\":1709:1742   */\n      tag_258\n      jump\t// in\n    tag_323:\n        /* \"#utility.yul\":1609:1748   */\n      swap3\n      swap2\n      pop\n      pop\n      jump\t// out\n        /* \"#utility.yul\":1754:2083   */\n    tag_29:\n        /* \"#utility.yul\":1813:1819   */\n      0x00\n        /* \"#utility.yul\":1862:1864   */\n      0x20\n        /* \"#utility.yul\":1850:1859   */\n      dup3\n        /* \"#utility.yul\":1841:1848   */\n      dup5\n        /* \"#utility.yul\":1837:1860   */\n      sub\n        /* \"#utility.yul\":1833:1865   */\n      slt\n        /* \"#utility.yul\":1830:1949   */\n      iszero\n      tag_325\n      jumpi\n        /* \"#utility.yul\":1868:1947   */\n      tag_326\n      tag_255\n      jump\t// in\n    tag_326:\n        /* \"#utility.yul\":1830:1949   */\n    tag_325:\n        /* \"#utility.yul\":1988:1989   */\n      0x00\n        /* \"#utility.yul\":2013:2066   */\n      tag_327\n        /* \"#utility.yul\":2058:2065   */\n      dup5\n        /* \"#utility.yul\":2049:2055   */\n      dup3\n        /* \"#utility.yul\":2038:2047   */\n      dup6\n        /* \"#utility.yul\":2034:2056   */\n      add\n        /* \"#utility.yul\":2013:2066   */\n      tag_259\n      jump\t// in\n    tag_327:\n        /* \"#utility.yul\":2003:2066   */\n      swap2\n      pop\n        /* \"#utility.yul\":1959:2076   */\n      pop\n        /* \"#utility.yul\":1754:2083   */\n      swap3\n      swap2\n      pop\n      pop\n      jump\t// out\n        /* \"#utility.yul\":2089:2166   */\n    tag_260:\n        /* \"#utility.yul\":2126:2133   */\n      0x00\n        /* \"#utility.yul\":2155:2160   */\n      dup2\n        /* \"#utility.yul\":2144:2160   */\n      swap1\n      pop\n        /* \"#utility.yul\":2089:2166   */\n      swap2\n      swap1\n      pop\n      jump\t// out\n        /* \"#utility.yul\":2172:2290   */\n    tag_261:\n        /* \"#utility.yul\":2259:2283   */\n      tag_330\n        /* \"#utility.yul\":2277:2282   */\n      dup2\n        /* \"#utility.yul\":2259:2283   */\n      tag_260\n      jump\t// in\n    tag_330:\n        /* \"#utility.yul\":2254:2257   */\n      dup3\n        /* \"#utility.yul\":2247:2284   */\n      mstore\n        /* \"#utility.yul\":2172:2290   */\n      pop\n      pop\n      jump\t// out\n        /* \"#utility.yul\":2296:2518   */\n    tag_34:\n        /* \"#utility.yul\":2389:2393   */\n      0x00\n        /* \"#utility.yul\":2427:2429   */\n      0x20\n        /* \"#utility.yul\":2416:2425   */\n      dup3\n        /* \"#utility.yul\":2412:2430   */\n      add\n        /* \"#utility.yul\":2404:2430   */\n      swap1\n      pop\n        /* \"#utility.yul\":2440:2511   */\n      tag_332\n        /* \"#utility.yul\":2508:2509   */\n      0x00\n        /* \"#utility.yul\":2497:2506   */\n      dup4\n        /* \"#utility.yul\":2493:2510   */\n      add\n        /* \"#utility.yul\":2484:2490   */\n      dup5\n        /* \"#utility.yul\":2440:2511   */\n      tag_261\n      jump\t// in\n    tag_332:\n        /* \"#utility.yul\":2296:2518   */\n      swap3\n      swap2\n      pop\n      pop\n      jump\t// out\n        /* \"#utility.yul\":2524:2614   */\n    tag_262:\n        /* \"#utility.yul\":2558:2565   */\n      0x00\n        /* \"#utility.yul\":2601:2606   */\n      dup2\n        /* \"#utility.yul\":2594:2607   */\n      iszero\n        /* \"#utility.yul\":2587:2608   */\n      iszero\n        /* \"#utility.yul\":2576:2608   */\n      swap1\n      pop\n        /* \"#utility.yul\":2524:2614   */\n      swap2\n      swap1\n      pop\n      jump\t// out\n        /* \"#utility.yul\":2620:2729   */\n    tag_263:\n        /* \"#utility.yul\":2701:2722   */\n      tag_335\n        /* \"#utility.yul\":2716:2721   */\n      dup2\n        /* \"#utility.yul\":2701:2722   */\n      tag_262\n      jump\t// in\n    tag_335:\n        /* \"#utility.yul\":2696:2699   */\n      dup3\n        /* \"#utility.yul\":2689:2723   */\n      mstore\n        /* \"#utility.yul\":2620:2729   */\n      pop\n      pop\n      jump\t// out\n        /* \"#utility.yul\":2735:2945   */\n    tag_50:\n        /* \"#utility.yul\":2822:2826   */\n      0x00\n        /* \"#utility.yul\":2860:2862   */\n      0x20\n        /* \"#utility.yul\":2849:2858   */\n      dup3\n        /* \"#utility.yul\":2845:2863   */\n      add\n        /* \"#utility.yul\":2837:2863   */\n      swap1\n      pop\n        /* \"#utility.yul\":2873:2938   */\n      tag_337\n        /* \"#utility.yul\":2935:2936   */\n      0x00\n        /* \"#utility.yul\":2924:2933   */\n      dup4\n        /* \"#utility.yul\":2920:2937   */\n      add\n        /* \"#utility.yul\":2911:2917   */\n      dup5\n        /* \"#utility.yul\":2873:2938   */\n      tag_263\n      jump\t// in\n    tag_337:\n        /* \"#utility.yul\":2735:2945   */\n      swap3\n      swap2\n      pop\n      pop\n      jump\t// out\n        /* \"#utility.yul\":2951:3073   */\n    tag_264:\n        /* \"#utility.yul\":3024:3048   */\n      tag_339\n        /* \"#utility.yul\":3042:3047   */\n      dup2\n        /* \"#utility.yul\":3024:3048   */\n      tag_260\n      jump\t// in\n    tag_339:\n        /* \"#utility.yul\":3017:3022   */\n      dup2\n        /* \"#utility.yul\":3014:3049   */\n      eq\n        /* \"#utility.yul\":3004:3067   */\n      tag_340\n      jumpi\n        /* \"#utility.yul\":3063:3064   */\n      0x00\n        /* \"#utility.yul\":3060:3061   */\n      0x00\n        /* \"#utility.yul\":3053:3065   */\n      revert\n        /* \"#utility.yul\":3004:3067   */\n    tag_340:\n        /* \"#utility.yul\":2951:3073   */\n      pop\n      jump\t// out\n        /* \"#utility.yul\":3079:3218   */\n    tag_265:\n        /* \"#utility.yul\":3125:3130   */\n      0x00\n        /* \"#utility.yul\":3163:3169   */\n      dup2\n        /* \"#utility.yul\":3150:3170   */\n      calldataload\n        /* \"#utility.yul\":3141:3170   */\n      swap1\n      pop\n        /* \"#utility.yul\":3179:3212   */\n      tag_342\n        /* \"#utility.yul\":3206:3211   */\n      dup2\n        /* \"#utility.yul\":3179:3212   */\n      tag_264\n      jump\t// in\n    tag_342:\n        /* \"#utility.yul\":3079:3218   */\n      swap3\n      swap2\n      pop\n      pop\n      jump\t// out\n        /* \"#utility.yul\":3224:3698   */\n    tag_53:\n        /* \"#utility.yul\":3292:3298   */\n      0x00\n        /* \"#utility.yul\":3300:3306   */\n      0x00\n        /* \"#utility.yul\":3349:3351   */\n      0x40\n        /* \"#utility.yul\":3337:3346   */\n      dup4\n        /* \"#utility.yul\":3328:3335   */\n      dup6\n        /* \"#utility.yul\":3324:3347   */\n      sub\n        /* \"#utility.yul\":3320:3352   */\n      slt\n        /* \"#utility.yul\":3317:3436   */\n      iszero\n      tag_344\n      jumpi\n        /* \"#utility.yul\":3355:3434   */\n      tag_345\n      tag_255\n      jump\t// in\n    tag_345:\n        /* \"#utility.yul\":3317:3436   */\n    tag_344:\n        /* \"#utility.yul\":3475:3476   */\n      0x00\n        /* \"#utility.yul\":3500:3553   */\n      tag_346\n        /* \"#utility.yul\":3545:3552   */\n      dup6\n        /* \"#utility.yul\":3536:3542   */\n      dup3\n        /* \"#utility.yul\":3525:3534   */\n      dup7\n        /* \"#utility.yul\":3521:3543   */\n      add\n        /* \"#utility.yul\":3500:3553   */\n      tag_259\n      jump\t// in\n    tag_346:\n        /* \"#utility.yul\":3490:3553   */\n      swap3\n      pop\n        /* \"#utility.yul\":3446:3563   */\n      pop\n        /* \"#utility.yul\":3602:3604   */\n      0x20\n        /* \"#utility.yul\":3628:3681   */\n      tag_347\n        /* \"#utility.yul\":3673:3680   */\n      dup6\n        /* \"#utility.yul\":3664:3670   */\n      dup3\n        /* \"#utility.yul\":3653:3662   */\n      dup7\n        /* \"#utility.yul\":3649:3671   */\n      add\n        /* \"#utility.yul\":3628:3681   */\n      tag_265\n      jump\t// in\n    tag_347:\n        /* \"#utility.yul\":3618:3681   */\n      swap2\n      pop\n        /* \"#utility.yul\":3573:3691   */\n      pop\n        /* \"#utility.yul\":3224:3698   */\n      swap3\n      pop\n      swap3\n      swap1\n      pop\n      jump\t// out\n        /* \"#utility.yul\":3704:3822   */\n    tag_266:\n        /* \"#utility.yul\":3791:3815   */\n      tag_349\n        /* \"#utility.yul\":3809:3814   */\n      dup2\n        /* \"#utility.yul\":3791:3815   */\n      tag_257\n      jump\t// in\n    tag_349:\n        /* \"#utility.yul\":3786:3789   */\n      dup3\n        /* \"#utility.yul\":3779:3816   */\n      mstore\n        /* \"#utility.yul\":3704:3822   */\n      pop\n      pop\n      jump\t// out\n        /* \"#utility.yul\":3828:4050   */\n    tag_65:\n        /* \"#utility.yul\":3921:3925   */\n      0x00\n        /* \"#utility.yul\":3959:3961   */\n      0x20\n        /* \"#utility.yul\":3948:3957   */\n      dup3\n        /* \"#utility.yul\":3944:3962   */\n      add\n        /* \"#utility.yul\":3936:3962   */\n      swap1\n      pop\n        /* \"#utility.yul\":3972:4043   */\n      tag_351\n        /* \"#utility.yul\":4040:4041   */\n      0x00\n        /* \"#utility.yul\":4029:4038   */\n      dup4\n        /* \"#utility.yul\":4025:4042   */\n      add\n        /* \"#utility.yul\":4016:4022   */\n      dup5\n        /* \"#utility.yul\":3972:4043   */\n      tag_266\n      jump\t// in\n    tag_351:\n        /* \"#utility.yul\":3828:4050   */\n      swap3\n      swap2\n      pop\n      pop\n      jump\t// out\n        /* \"#utility.yul\":4056:4164   */\n    tag_267:\n        /* \"#utility.yul\":4133:4157   */\n      tag_353\n        /* \"#utility.yul\":4151:4156   */\n      dup2\n        /* \"#utility.yul\":4133:4157   */\n      tag_260\n      jump\t// in\n    tag_353:\n        /* \"#utility.yul\":4128:4131   */\n      dup3\n        /* \"#utility.yul\":4121:4158   */\n      mstore\n        /* \"#utility.yul\":4056:4164   */\n      pop\n      pop\n      jump\t// out\n        /* \"#utility.yul\":4170:4269   */\n    tag_268:\n        /* \"#utility.yul\":4241:4262   */\n      tag_355\n        /* \"#utility.yul\":4256:4261   */\n      dup2\n        /* \"#utility.yul\":4241:4262   */\n      tag_262\n      jump\t// in\n    tag_355:\n        /* \"#utility.yul\":4236:4239   */\n      dup3\n        /* \"#utility.yul\":4229:4263   */\n      mstore\n        /* \"#utility.yul\":4170:4269   */\n      pop\n      pop\n      jump\t// out\n        /* \"#utility.yul\":4367:5982   */\n    tag_269:\n        /* \"#utility.yul\":4530:4536   */\n      0x0100\n        /* \"#utility.yul\":4525:4528   */\n      dup3\n        /* \"#utility.yul\":4521:4537   */\n      add\n        /* \"#utility.yul\":4626:4630   */\n      0x00\n        /* \"#utility.yul\":4619:4624   */\n      dup3\n        /* \"#utility.yul\":4615:4631   */\n      add\n        /* \"#utility.yul\":4609:4632   */\n      mload\n        /* \"#utility.yul\":4645:4708   */\n      tag_357\n        /* \"#utility.yul\":4702:4706   */\n      0x00\n        /* \"#utility.yul\":4697:4700   */\n      dup6\n        /* \"#utility.yul\":4693:4707   */\n      add\n        /* \"#utility.yul\":4679:4691   */\n      dup3\n        /* \"#utility.yul\":4645:4708   */\n      tag_267\n      jump\t// in\n    tag_357:\n        /* \"#utility.yul\":4547:4718   */\n      pop\n        /* \"#utility.yul\":4810:4814   */\n      0x20\n        /* \"#utility.yul\":4803:4808   */\n      dup3\n        /* \"#utility.yul\":4799:4815   */\n      add\n        /* \"#utility.yul\":4793:4816   */\n      mload\n        /* \"#utility.yul\":4829:4892   */\n      tag_358\n        /* \"#utility.yul\":4886:4890   */\n      0x20\n        /* \"#utility.yul\":4881:4884   */\n      dup6\n        /* \"#utility.yul\":4877:4891   */\n      add\n        /* \"#utility.yul\":4863:4875   */\n      dup3\n        /* \"#utility.yul\":4829:4892   */\n      tag_267\n      jump\t// in\n    tag_358:\n        /* \"#utility.yul\":4728:4902   */\n      pop\n        /* \"#utility.yul\":4989:4993   */\n      0x40\n        /* \"#utility.yul\":4982:4987   */\n      dup3\n        /* \"#utility.yul\":4978:4994   */\n      add\n        /* \"#utility.yul\":4972:4995   */\n      mload\n        /* \"#utility.yul\":5008:5071   */\n      tag_359\n        /* \"#utility.yul\":5065:5069   */\n      0x40\n        /* \"#utility.yul\":5060:5063   */\n      dup6\n        /* \"#utility.yul\":5056:5070   */\n      add\n        /* \"#utility.yul\":5042:5054   */\n      dup3\n        /* \"#utility.yul\":5008:5071   */\n      tag_267\n      jump\t// in\n    tag_359:\n        /* \"#utility.yul\":4912:5081   */\n      pop\n        /* \"#utility.yul\":5167:5171   */\n      0x60\n        /* \"#utility.yul\":5160:5165   */\n      dup3\n        /* \"#utility.yul\":5156:5172   */\n      add\n        /* \"#utility.yul\":5150:5173   */\n      mload\n        /* \"#utility.yul\":5186:5249   */\n      tag_360\n        /* \"#utility.yul\":5243:5247   */\n      0x60\n        /* \"#utility.yul\":5238:5241   */\n      dup6\n        /* \"#utility.yul\":5234:5248   */\n      add\n        /* \"#utility.yul\":5220:5232   */\n      dup3\n        /* \"#utility.yul\":5186:5249   */\n      tag_267\n      jump\t// in\n    tag_360:\n        /* \"#utility.yul\":5091:5259   */\n      pop\n        /* \"#utility.yul\":5350:5354   */\n      0x80\n        /* \"#utility.yul\":5343:5348   */\n      dup3\n        /* \"#utility.yul\":5339:5355   */\n      add\n        /* \"#utility.yul\":5333:5356   */\n      mload\n        /* \"#utility.yul\":5369:5432   */\n      tag_361\n        /* \"#utility.yul\":5426:5430   */\n      0x80\n        /* \"#utility.yul\":5421:5424   */\n      dup6\n        /* \"#utility.yul\":5417:5431   */\n      add\n        /* \"#utility.yul\":5403:5415   */\n      dup3\n        /* \"#utility.yul\":5369:5432   */\n      tag_267\n      jump\t// in\n    tag_361:\n        /* \"#utility.yul\":5269:5442   */\n      pop\n        /* \"#utility.yul\":5531:5535   */\n      0xa0\n        /* \"#utility.yul\":5524:5529   */\n      dup3\n        /* \"#utility.yul\":5520:5536   */\n      add\n        /* \"#utility.yul\":5514:5537   */\n      mload\n        /* \"#utility.yul\":5550:5607   */\n      tag_362\n        /* \"#utility.yul\":5601:5605   */\n      0xa0\n        /* \"#utility.yul\":5596:5599   */\n      dup6\n        /* \"#utility.yul\":5592:5606   */\n      add\n        /* \"#utility.yul\":5578:5590   */\n      dup3\n        /* \"#utility.yul\":5550:5607   */\n      tag_268\n      jump\t// in\n    tag_362:\n        /* \"#utility.yul\":5452:5617   */\n      pop\n        /* \"#utility.yul\":5704:5708   */\n      0xc0\n        /* \"#utility.yul\":5697:5702   */\n      dup3\n        /* \"#utility.yul\":5693:5709   */\n      add\n        /* \"#utility.yul\":5687:5710   */\n      mload\n        /* \"#utility.yul\":5723:5780   */\n      tag_363\n        /* \"#utility.yul\":5774:5778   */\n      0xc0\n        /* \"#utility.yul\":5769:5772   */\n      dup6\n        /* \"#utility.yul\":5765:5779   */\n      add\n        /* \"#utility.yul\":5751:5763   */\n      dup3\n        /* \"#utility.yul\":5723:5780   */\n      tag_268\n      jump\t// in\n    tag_363:\n        /* \"#utility.yul\":5627:5790   */\n      pop\n        /* \"#utility.yul\":5883:5887   */\n      0xe0\n        /* \"#utility.yul\":5876:5881   */\n      dup3\n        /* \"#utility.yul\":5872:5888   */\n      add\n        /* \"#utility.yul\":5866:5889   */\n      mload\n        /* \"#utility.yul\":5902:5965   */\n      tag_364\n        /* \"#utility.yul\":5959:5963   */\n      0xe0\n        /* \"#utility.yul\":5954:5957   */\n      dup6\n        /* \"#utility.yul\":5950:5964   */\n      add\n        /* \"#utility.yul\":5936:5948   */\n      dup3\n        /* \"#utility.yul\":5902:5965   */\n      tag_267\n      jump\t// in\n    tag_364:\n        /* \"#utility.yul\":5800:5975   */\n      pop\n        /* \"#utility.yul\":4499:5982   */\n      pop\n        /* \"#utility.yul\":4367:5982   */\n      pop\n      pop\n      jump\t// out\n        /* \"#utility.yul\":5988:6343   */\n    tag_70:\n        /* \"#utility.yul\":6147:6151   */\n      0x00\n        /* \"#utility.yul\":6185:6188   */\n      0x0100\n        /* \"#utility.yul\":6174:6183   */\n      dup3\n        /* \"#utility.yul\":6170:6189   */\n      add\n        /* \"#utility.yul\":6162:6189   */\n      swap1\n      pop\n        /* \"#utility.yul\":6199:6336   */\n      tag_366\n        /* \"#utility.yul\":6333:6334   */\n      0x00\n        /* \"#utility.yul\":6322:6331   */\n      dup4\n        /* \"#utility.yul\":6318:6335   */\n      add\n        /* \"#utility.yul\":6309:6315   */\n      dup5\n        /* \"#utility.yul\":6199:6336   */\n      tag_269\n      jump\t// in\n    tag_366:\n        /* \"#utility.yul\":5988:6343   */\n      swap3\n      swap2\n      pop\n      pop\n      jump\t// out\n        /* \"#utility.yul\":6349:7322   */\n    tag_81:\n        /* \"#utility.yul\":6626:6630   */\n      0x00\n        /* \"#utility.yul\":6664:6667   */\n      0x0100\n        /* \"#utility.yul\":6653:6662   */\n      dup3\n        /* \"#utility.yul\":6649:6668   */\n      add\n        /* \"#utility.yul\":6641:6668   */\n      swap1\n      pop\n        /* \"#utility.yul\":6678:6749   */\n      tag_368\n        /* \"#utility.yul\":6746:6747   */\n      0x00\n        /* \"#utility.yul\":6735:6744   */\n      dup4\n        /* \"#utility.yul\":6731:6748   */\n      add\n        /* \"#utility.yul\":6722:6728   */\n      dup12\n        /* \"#utility.yul\":6678:6749   */\n      tag_261\n      jump\t// in\n    tag_368:\n        /* \"#utility.yul\":6759:6831   */\n      tag_369\n        /* \"#utility.yul\":6827:6829   */\n      0x20\n        /* \"#utility.yul\":6816:6825   */\n      dup4\n        /* \"#utility.yul\":6812:6830   */\n      add\n        /* \"#utility.yul\":6803:6809   */\n      dup11\n        /* \"#utility.yul\":6759:6831   */\n      tag_261\n      jump\t// in\n    tag_369:\n        /* \"#utility.yul\":6841:6913   */\n      tag_370\n        /* \"#utility.yul\":6909:6911   */\n      0x40\n        /* \"#utility.yul\":6898:6907   */\n      dup4\n        /* \"#utility.yul\":6894:6912   */\n      add\n        /* \"#utility.yul\":6885:6891   */\n      dup10\n        /* \"#utility.yul\":6841:6913   */\n      tag_261\n      jump\t// in\n    tag_370:\n        /* \"#utility.yul\":6923:6995   */\n      tag_371\n        /* \"#utility.yul\":6991:6993   */\n      0x60\n        /* \"#utility.yul\":6980:6989   */\n      dup4\n        /* \"#utility.yul\":6976:6994   */\n      add\n        /* \"#utility.yul\":6967:6973   */\n      dup9\n        /* \"#utility.yul\":6923:6995   */\n      tag_261\n      jump\t// in\n    tag_371:\n        /* \"#utility.yul\":7005:7078   */\n      tag_372\n        /* \"#utility.yul\":7073:7076   */\n      0x80\n        /* \"#utility.yul\":7062:7071   */\n      dup4\n        /* \"#utility.yul\":7058:7077   */\n      add\n        /* \"#utility.yul\":7049:7055   */\n      dup8\n        /* \"#utility.yul\":7005:7078   */\n      tag_261\n      jump\t// in\n    tag_372:\n        /* \"#utility.yul\":7088:7155   */\n      tag_373\n        /* \"#utility.yul\":7150:7153   */\n      0xa0\n        /* \"#utility.yul\":7139:7148   */\n      dup4\n        /* \"#utility.yul\":7135:7154   */\n      add\n        /* \"#utility.yul\":7126:7132   */\n      dup7\n        /* \"#utility.yul\":7088:7155   */\n      tag_263\n      jump\t// in\n    tag_373:\n        /* \"#utility.yul\":7165:7232   */\n      tag_374\n        /* \"#utility.yul\":7227:7230   */\n      0xc0\n        /* \"#utility.yul\":7216:7225   */\n      dup4\n        /* \"#utility.yul\":7212:7231   */\n      add\n        /* \"#utility.yul\":7203:7209   */\n      dup6\n        /* \"#utility.yul\":7165:7232   */\n      tag_263\n      jump\t// in\n    tag_374:\n        /* \"#utility.yul\":7242:7315   */\n      tag_375\n        /* \"#utility.yul\":7310:7313   */\n      0xe0\n        /* \"#utility.yul\":7299:7308   */\n      dup4\n        /* \"#utility.yul\":7295:7314   */\n      add\n        /* \"#utility.yul\":7286:7292   */\n      dup5\n        /* \"#utility.yul\":7242:7315   */\n      tag_261\n      jump\t// in\n    tag_375:\n        /* \"#utility.yul\":6349:7322   */\n      swap10\n      swap9\n      pop\n      pop\n      pop\n      pop\n      pop\n      pop\n      pop\n      pop\n      pop\n      jump\t// out\n        /* \"#utility.yul\":7328:7497   */\n    tag_270:\n        /* \"#utility.yul\":7412:7423   */\n      0x00\n        /* \"#utility.yul\":7446:7452   */\n      dup3\n        /* \"#utility.yul\":7441:7444   */\n      dup3\n        /* \"#utility.yul\":7434:7453   */\n      mstore\n        /* \"#utility.yul\":7486:7490   */\n      0x20\n        /* \"#utility.yul\":7481:7484   */\n      dup3\n        /* \"#utility.yul\":7477:7491   */\n      add\n        /* \"#utility.yul\":7462:7491   */\n      swap1\n      pop\n        /* \"#utility.yul\":7328:7497   */\n      swap3\n      swap2\n      pop\n      pop\n      jump\t// out\n        /* \"#utility.yul\":7503:7672   */\n    tag_271:\n        /* \"#utility.yul\":7643:7664   */\n      0x4e6f2076657374696e67207363686564756c6500000000000000000000000000\n        /* \"#utility.yul\":7639:7640   */\n      0x00\n        /* \"#utility.yul\":7631:7637   */\n      dup3\n        /* \"#utility.yul\":7627:7641   */\n      add\n        /* \"#utility.yul\":7620:7665   */\n      mstore\n        /* \"#utility.yul\":7503:7672   */\n      pop\n      jump\t// out\n        /* \"#utility.yul\":7678:8044   */\n    tag_272:\n        /* \"#utility.yul\":7820:7823   */\n      0x00\n        /* \"#utility.yul\":7841:7908   */\n      tag_379\n        /* \"#utility.yul\":7905:7907   */\n      0x13\n        /* \"#utility.yul\":7900:7903   */\n      dup4\n        /* \"#utility.yul\":7841:7908   */\n      tag_270\n      jump\t// in\n    tag_379:\n        /* \"#utility.yul\":7834:7908   */\n      swap2\n      pop\n        /* \"#utility.yul\":7917:8010   */\n      tag_380\n        /* \"#utility.yul\":8006:8009   */\n      dup3\n        /* \"#utility.yul\":7917:8010   */\n      tag_271\n      jump\t// in\n    tag_380:\n        /* \"#utility.yul\":8035:8037   */\n      0x20\n        /* \"#utility.yul\":8030:8033   */\n      dup3\n        /* \"#utility.yul\":8026:8038   */\n      add\n        /* \"#utility.yul\":8019:8038   */\n      swap1\n      pop\n        /* \"#utility.yul\":7678:8044   */\n      swap2\n      swap1\n      pop\n      jump\t// out\n        /* \"#utility.yul\":8050:8469   */\n    tag_91:\n        /* \"#utility.yul\":8216:8220   */\n      0x00\n        /* \"#utility.yul\":8254:8256   */\n      0x20\n        /* \"#utility.yul\":8243:8252   */\n      dup3\n        /* \"#utility.yul\":8239:8257   */\n      add\n        /* \"#utility.yul\":8231:8257   */\n      swap1\n      pop\n        /* \"#utility.yul\":8303:8312   */\n      dup2\n        /* \"#utility.yul\":8297:8301   */\n      dup2\n        /* \"#utility.yul\":8293:8313   */\n      sub\n        /* \"#utility.yul\":8289:8290   */\n      0x00\n        /* \"#utility.yul\":8278:8287   */\n      dup4\n        /* \"#utility.yul\":8274:8291   */\n      add\n        /* \"#utility.yul\":8267:8314   */\n      mstore\n        /* \"#utility.yul\":8331:8462   */\n      tag_382\n        /* \"#utility.yul\":8457:8461   */\n      dup2\n        /* \"#utility.yul\":8331:8462   */\n      tag_272\n      jump\t// in\n    tag_382:\n        /* \"#utility.yul\":8323:8462   */\n      swap1\n      pop\n        /* \"#utility.yul\":8050:8469   */\n      swap2\n      swap1\n      pop\n      jump\t// out\n        /* \"#utility.yul\":8475:8641   */\n    tag_273:\n        /* \"#utility.yul\":8615:8633   */\n      0x5363686564756c65207265766f6b656400000000000000000000000000000000\n        /* \"#utility.yul\":8611:8612   */\n      0x00\n        /* \"#utility.yul\":8603:8609   */\n      dup3\n        /* \"#utility.yul\":8599:8613   */\n      add\n        /* \"#utility.yul\":8592:8634   */\n      mstore\n        /* \"#utility.yul\":8475:8641   */\n      pop\n      jump\t// out\n        /* \"#utility.yul\":8647:9013   */\n    tag_274:\n        /* \"#utility.yul\":8789:8792   */\n      0x00\n        /* \"#utility.yul\":8810:8877   */\n      tag_385\n        /* \"#utility.yul\":8874:8876   */\n      0x10\n        /* \"#utility.yul\":8869:8872   */\n      dup4\n        /* \"#utility.yul\":8810:8877   */\n      tag_270\n      jump\t// in\n    tag_385:\n        /* \"#utility.yul\":8803:8877   */\n      swap2\n      pop\n        /* \"#utility.yul\":8886:8979   */\n      tag_386\n        /* \"#utility.yul\":8975:8978   */\n      dup3\n        /* \"#utility.yul\":8886:8979   */\n      tag_273\n      jump\t// in\n    tag_386:\n        /* \"#utility.yul\":9004:9006   */\n      0x20\n        /* \"#utility.yul\":8999:9002   */\n      dup3\n        /* \"#utility.yul\":8995:9007   */\n      add\n        /* \"#utility.yul\":8988:9007   */\n      swap1\n      pop\n        /* \"#utility.yul\":8647:9013   */\n      swap2\n      swap1\n      pop\n      jump\t// out\n        /* \"#utility.yul\":9019:9438   */\n    tag_94:\n        /* \"#utility.yul\":9185:9189   */\n      0x00\n        /* \"#utility.yul\":9223:9225   */\n      0x20\n        /* \"#utility.yul\":9212:9221   */\n      dup3\n        /* \"#utility.yul\":9208:9226   */\n      add\n        /* \"#utility.yul\":9200:9226   */\n      swap1\n      pop\n        /* \"#utility.yul\":9272:9281   */\n      dup2\n        /* \"#utility.yul\":9266:9270   */\n      dup2\n        /* \"#utility.yul\":9262:9282   */\n      sub\n        /* \"#utility.yul\":9258:9259   */\n      0x00\n        /* \"#utility.yul\":9247:9256   */\n      dup4\n        /* \"#utility.yul\":9243:9260   */\n      add\n        /* \"#utility.yul\":9236:9283   */\n      mstore\n        /* \"#utility.yul\":9300:9431   */\n      tag_388\n        /* \"#utility.yul\":9426:9430   */\n      dup2\n        /* \"#utility.yul\":9300:9431   */\n      tag_274\n      jump\t// in\n    tag_388:\n        /* \"#utility.yul\":9292:9431   */\n      swap1\n      pop\n        /* \"#utility.yul\":9019:9438   */\n      swap2\n      swap1\n      pop\n      jump\t// out\n        /* \"#utility.yul\":9444:9614   */\n    tag_275:\n        /* \"#utility.yul\":9584:9606   */\n      0x4e6f20746f6b656e7320746f2072656c65617365000000000000000000000000\n        /* \"#utility.yul\":9580:9581   */\n      0x00\n        /* \"#utility.yul\":9572:9578   */\n      dup3\n        /* \"#utility.yul\":9568:9582   */\n      add\n        /* \"#utility.yul\":9561:9607   */\n      mstore\n        /* \"#utility.yul\":9444:9614   */\n      pop\n      jump\t// out\n        /* \"#utility.yul\":9620:9986   */\n    tag_276:\n        /* \"#utility.yul\":9762:9765   */\n      0x00\n        /* \"#utility.yul\":9783:9850   */\n      tag_391\n        /* \"#utility.yul\":9847:9849   */\n      0x14\n        /* \"#utility.yul\":9842:9845   */\n      dup4\n        /* \"#utility.yul\":9783:9850   */\n      tag_270\n      jump\t// in\n    tag_391:\n        /* \"#utility.yul\":9776:9850   */\n      swap2\n      pop\n        /* \"#utility.yul\":9859:9952   */\n      tag_392\n        /* \"#utility.yul\":9948:9951   */\n      dup3\n        /* \"#utility.yul\":9859:9952   */\n      tag_275\n      jump\t// in\n    tag_392:\n        /* \"#utility.yul\":9977:9979   */\n      0x20\n        /* \"#utility.yul\":9972:9975   */\n      dup3\n        /* \"#utility.yul\":9968:9980   */\n      add\n        /* \"#utility.yul\":9961:9980   */\n      swap1\n      pop\n        /* \"#utility.yul\":9620:9986   */\n      swap2\n      swap1\n      pop\n      jump\t// out\n        /* \"#utility.yul\":9992:10411   */\n    tag_99:\n        /* \"#utility.yul\":10158:10162   */\n      0x00\n        /* \"#utility.yul\":10196:10198   */\n      0x20\n        /* \"#utility.yul\":10185:10194   */\n      dup3\n        /* \"#utility.yul\":10181:10199   */\n      add\n        /* \"#utility.yul\":10173:10199   */\n      swap1\n      pop\n        /* \"#utility.yul\":10245:10254   */\n      dup2\n        /* \"#utility.yul\":10239:10243   */\n      dup2\n        /* \"#utility.yul\":10235:10255   */\n      sub\n        /* \"#utility.yul\":10231:10232   */\n      0x00\n        /* \"#utility.yul\":10220:10229   */\n      dup4\n        /* \"#utility.yul\":10216:10233   */\n      add\n        /* \"#utility.yul\":10209:10256   */\n      mstore\n        /* \"#utility.yul\":10273:10404   */\n      tag_394\n        /* \"#utility.yul\":10399:10403   */\n      dup2\n        /* \"#utility.yul\":10273:10404   */\n      tag_276\n      jump\t// in\n    tag_394:\n        /* \"#utility.yul\":10265:10404   */\n      swap1\n      pop\n        /* \"#utility.yul\":9992:10411   */\n      swap2\n      swap1\n      pop\n      jump\t// out\n        /* \"#utility.yul\":10417:10597   */\n    tag_277:\n        /* \"#utility.yul\":10465:10542   */\n      0x4e487b7100000000000000000000000000000000000000000000000000000000\n        /* \"#utility.yul\":10462:10463   */\n      0x00\n        /* \"#utility.yul\":10455:10543   */\n      mstore\n        /* \"#utility.yul\":10562:10566   */\n      0x11\n        /* \"#utility.yul\":10559:10560   */\n      0x04\n        /* \"#utility.yul\":10552:10567   */\n      mstore\n        /* \"#utility.yul\":10586:10590   */\n      0x24\n        /* \"#utility.yul\":10583:10584   */\n      0x00\n        /* \"#utility.yul\":10576:10591   */\n      revert\n        /* \"#utility.yul\":10603:10794   */\n    tag_101:\n        /* \"#utility.yul\":10643:10646   */\n      0x00\n        /* \"#utility.yul\":10662:10682   */\n      tag_397\n        /* \"#utility.yul\":10680:10681   */\n      dup3\n        /* \"#utility.yul\":10662:10682   */\n      tag_260\n      jump\t// in\n    tag_397:\n        /* \"#utility.yul\":10657:10682   */\n      swap2\n      pop\n        /* \"#utility.yul\":10696:10716   */\n      tag_398\n        /* \"#utility.yul\":10714:10715   */\n      dup4\n        /* \"#utility.yul\":10696:10716   */\n      tag_260\n      jump\t// in\n    tag_398:\n        /* \"#utility.yul\":10691:10716   */\n      swap3\n      pop\n        /* \"#utility.yul\":10739:10740   */\n      dup3\n        /* \"#utility.yul\":10736:10737   */\n      dup3\n        /* \"#utility.yul\":10732:10741   */\n      add\n        /* \"#utility.yul\":10725:10741   */\n      swap1\n      pop\n        /* \"#utility.yul\":10760:10763   */\n      dup1\n        /* \"#utility.yul\":10757:10758   */\n      dup3\n        /* \"#utility.yul\":10754:10764   */\n      gt\n        /* \"#utility.yul\":10751:10787   */\n      iszero\n      tag_399\n      jumpi\n        /* \"#utility.yul\":10767:10785   */\n      tag_400\n      tag_277\n      jump\t// in\n    tag_400:\n        /* \"#utility.yul\":10751:10787   */\n    tag_399:\n        /* \"#utility.yul\":10603:10794   */\n      swap3\n      swap2\n      pop\n      pop\n      jump\t// out\n        /* \"#utility.yul\":10800:11132   */\n    tag_103:\n        /* \"#utility.yul\":10921:10925   */\n      0x00\n        /* \"#utility.yul\":10959:10961   */\n      0x40\n        /* \"#utility.yul\":10948:10957   */\n      dup3\n        /* \"#utility.yul\":10944:10962   */\n      add\n        /* \"#utility.yul\":10936:10962   */\n      swap1\n      pop\n        /* \"#utility.yul\":10972:11043   */\n      tag_402\n        /* \"#utility.yul\":11040:11041   */\n      0x00\n        /* \"#utility.yul\":11029:11038   */\n      dup4\n        /* \"#utility.yul\":11025:11042   */\n      add\n        /* \"#utility.yul\":11016:11022   */\n      dup6\n        /* \"#utility.yul\":10972:11043   */\n      tag_266\n      jump\t// in\n    tag_402:\n        /* \"#utility.yul\":11053:11125   */\n      tag_403\n        /* \"#utility.yul\":11121:11123   */\n      0x20\n        /* \"#utility.yul\":11110:11119   */\n      dup4\n        /* \"#utility.yul\":11106:11124   */\n      add\n        /* \"#utility.yul\":11097:11103   */\n      dup5\n        /* \"#utility.yul\":11053:11125   */\n      tag_261\n      jump\t// in\n    tag_403:\n        /* \"#utility.yul\":10800:11132   */\n      swap4\n      swap3\n      pop\n      pop\n      pop\n      jump\t// out\n        /* \"#utility.yul\":11138:11254   */\n    tag_278:\n        /* \"#utility.yul\":11208:11229   */\n      tag_405\n        /* \"#utility.yul\":11223:11228   */\n      dup2\n        /* \"#utility.yul\":11208:11229   */\n      tag_262\n      jump\t// in\n    tag_405:\n        /* \"#utility.yul\":11201:11206   */\n      dup2\n        /* \"#utility.yul\":11198:11230   */\n      eq\n        /* \"#utility.yul\":11188:11248   */\n      tag_406\n      jumpi\n        /* \"#utility.yul\":11244:11245   */\n      0x00\n        /* \"#utility.yul\":11241:11242   */\n      0x00\n        /* \"#utility.yul\":11234:11246   */\n      revert\n        /* \"#utility.yul\":11188:11248   */\n    tag_406:\n        /* \"#utility.yul\":11138:11254   */\n      pop\n      jump\t// out\n        /* \"#utility.yul\":11260:11397   */\n    tag_279:\n        /* \"#utility.yul\":11314:11319   */\n      0x00\n        /* \"#utility.yul\":11345:11351   */\n      dup2\n        /* \"#utility.yul\":11339:11352   */\n      mload\n        /* \"#utility.yul\":11330:11352   */\n      swap1\n      pop\n        /* \"#utility.yul\":11361:11391   */\n      tag_408\n        /* \"#utility.yul\":11385:11390   */\n      dup2\n        /* \"#utility.yul\":11361:11391   */\n      tag_278\n      jump\t// in\n    tag_408:\n        /* \"#utility.yul\":11260:11397   */\n      swap3\n      swap2\n      pop\n      pop\n      jump\t// out\n        /* \"#utility.yul\":11403:11748   */\n    tag_107:\n        /* \"#utility.yul\":11470:11476   */\n      0x00\n        /* \"#utility.yul\":11519:11521   */\n      0x20\n        /* \"#utility.yul\":11507:11516   */\n      dup3\n        /* \"#utility.yul\":11498:11505   */\n      dup5\n        /* \"#utility.yul\":11494:11517   */\n      sub\n        /* \"#utility.yul\":11490:11522   */\n      slt\n        /* \"#utility.yul\":11487:11606   */\n      iszero\n      tag_410\n      jumpi\n        /* \"#utility.yul\":11525:11604   */\n      tag_411\n      tag_255\n      jump\t// in\n    tag_411:\n        /* \"#utility.yul\":11487:11606   */\n    tag_410:\n        /* \"#utility.yul\":11645:11646   */\n      0x00\n        /* \"#utility.yul\":11670:11731   */\n      tag_412\n        /* \"#utility.yul\":11723:11730   */\n      dup5\n        /* \"#utility.yul\":11714:11720   */\n      dup3\n        /* \"#utility.yul\":11703:11712   */\n      dup6\n        /* \"#utility.yul\":11699:11721   */\n      add\n        /* \"#utility.yul\":11670:11731   */\n      tag_279\n      jump\t// in\n    tag_412:\n        /* \"#utility.yul\":11660:11731   */\n      swap2\n      pop\n        /* \"#utility.yul\":11616:11741   */\n      pop\n        /* \"#utility.yul\":11403:11748   */\n      swap3\n      swap2\n      pop\n      pop\n      jump\t// out\n        /* \"#utility.yul\":11754:11919   */\n    tag_280:\n        /* \"#utility.yul\":11894:11911   */\n      0x5472616e73666572206661696c65640000000000000000000000000000000000\n        /* \"#utility.yul\":11890:11891   */\n      0x00\n        /* \"#utility.yul\":11882:11888   */\n      dup3\n        /* \"#utility.yul\":11878:11892   */\n      add\n        /* \"#utility.yul\":11871:11912   */\n      mstore\n        /* \"#utility.yul\":11754:11919   */\n      pop\n      jump\t// out\n        /* \"#utility.yul\":11925:12291   */\n    tag_281:\n        /* \"#utility.yul\":12067:12070   */\n      0x00\n        /* \"#utility.yul\":12088:12155   */\n      tag_415\n        /* \"#utility.yul\":12152:12154   */\n      0x0f\n        /* \"#utility.yul\":12147:12150   */\n      dup4\n        /* \"#utility.yul\":12088:12155   */\n      tag_270\n      jump\t// in\n    tag_415:\n        /* \"#utility.yul\":12081:12155   */\n      swap2\n      pop\n        /* \"#utility.yul\":12164:12257   */\n      tag_416\n        /* \"#utility.yul\":12253:12256   */\n      dup3\n        /* \"#utility.yul\":12164:12257   */\n      tag_280\n      jump\t// in\n    tag_416:\n        /* \"#utility.yul\":12282:12284   */\n      0x20\n        /* \"#utility.yul\":12277:12280   */\n      dup3\n        /* \"#utility.yul\":12273:12285   */\n      add\n        /* \"#utility.yul\":12266:12285   */\n      swap1\n      pop\n        /* \"#utility.yul\":11925:12291   */\n      swap2\n      swap1\n      pop\n      jump\t// out\n        /* \"#utility.yul\":12297:12716   */\n    tag_110:\n        /* \"#utility.yul\":12463:12467   */\n      0x00\n        /* \"#utility.yul\":12501:12503   */\n      0x20\n        /* \"#utility.yul\":12490:12499   */\n      dup3\n        /* \"#utility.yul\":12486:12504   */\n      add\n        /* \"#utility.yul\":12478:12504   */\n      swap1\n      pop\n        /* \"#utility.yul\":12550:12559   */\n      dup2\n        /* \"#utility.yul\":12544:12548   */\n      dup2\n        /* \"#utility.yul\":12540:12560   */\n      sub\n        /* \"#utility.yul\":12536:12537   */\n      0x00\n        /* \"#utility.yul\":12525:12534   */\n      dup4\n        /* \"#utility.yul\":12521:12538   */\n      add\n        /* \"#utility.yul\":12514:12561   */\n      mstore\n        /* \"#utility.yul\":12578:12709   */\n      tag_418\n        /* \"#utility.yul\":12704:12708   */\n      dup2\n        /* \"#utility.yul\":12578:12709   */\n      tag_281\n      jump\t// in\n    tag_418:\n        /* \"#utility.yul\":12570:12709   */\n      swap1\n      pop\n        /* \"#utility.yul\":12297:12716   */\n      swap2\n      swap1\n      pop\n      jump\t// out\n        /* \"#utility.yul\":12722:12891   */\n    tag_282:\n        /* \"#utility.yul\":12862:12883   */\n      0x496e76616c69642062656e656669636961727900000000000000000000000000\n        /* \"#utility.yul\":12858:12859   */\n      0x00\n        /* \"#utility.yul\":12850:12856   */\n      dup3\n        /* \"#utility.yul\":12846:12860   */\n      add\n        /* \"#utility.yul\":12839:12884   */\n      mstore\n        /* \"#utility.yul\":12722:12891   */\n      pop\n      jump\t// out\n        /* \"#utility.yul\":12897:13263   */\n    tag_283:\n        /* \"#utility.yul\":13039:13042   */\n      0x00\n        /* \"#utility.yul\":13060:13127   */\n      tag_421\n        /* \"#utility.yul\":13124:13126   */\n      0x13\n        /* \"#utility.yul\":13119:13122   */\n      dup4\n        /* \"#utility.yul\":13060:13127   */\n      tag_270\n      jump\t// in\n    tag_421:\n        /* \"#utility.yul\":13053:13127   */\n      swap2\n      pop\n        /* \"#utility.yul\":13136:13229   */\n      tag_422\n        /* \"#utility.yul\":13225:13228   */\n      dup3\n        /* \"#utility.yul\":13136:13229   */\n      tag_282\n      jump\t// in\n    tag_422:\n        /* \"#utility.yul\":13254:13256   */\n      0x20\n        /* \"#utility.yul\":13249:13252   */\n      dup3\n        /* \"#utility.yul\":13245:13257   */\n      add\n        /* \"#utility.yul\":13238:13257   */\n      swap1\n      pop\n        /* \"#utility.yul\":12897:13263   */\n      swap2\n      swap1\n      pop\n      jump\t// out\n        /* \"#utility.yul\":13269:13688   */\n    tag_130:\n        /* \"#utility.yul\":13435:13439   */\n      0x00\n        /* \"#utility.yul\":13473:13475   */\n      0x20\n        /* \"#utility.yul\":13462:13471   */\n      dup3\n        /* \"#utility.yul\":13458:13476   */\n      add\n        /* \"#utility.yul\":13450:13476   */\n      swap1\n      pop\n        /* \"#utility.yul\":13522:13531   */\n      dup2\n        /* \"#utility.yul\":13516:13520   */\n      dup2\n        /* \"#utility.yul\":13512:13532   */\n      sub\n        /* \"#utility.yul\":13508:13509   */\n      0x00\n        /* \"#utility.yul\":13497:13506   */\n      dup4\n        /* \"#utility.yul\":13493:13510   */\n      add\n        /* \"#utility.yul\":13486:13533   */\n      mstore\n        /* \"#utility.yul\":13550:13681   */\n      tag_424\n        /* \"#utility.yul\":13676:13680   */\n      dup2\n        /* \"#utility.yul\":13550:13681   */\n      tag_283\n      jump\t// in\n    tag_424:\n        /* \"#utility.yul\":13542:13681   */\n      swap1\n      pop\n        /* \"#utility.yul\":13269:13688   */\n      swap2\n      swap1\n      pop\n      jump\t// out\n        /* \"#utility.yul\":13694:13862   */\n    tag_284:\n        /* \"#utility.yul\":13834:13854   */\n      0x416d6f756e74206d757374206265203e20300000000000000000000000000000\n        /* \"#utility.yul\":13830:13831   */\n      0x00\n        /* \"#utility.yul\":13822:13828   */\n      dup3\n        /* \"#utility.yul\":13818:13832   */\n      add\n        /* \"#utility.yul\":13811:13855   */\n      mstore\n        /* \"#utility.yul\":13694:13862   */\n      pop\n      jump\t// out\n        /* \"#utility.yul\":13868:14234   */\n    tag_285:\n        /* \"#utility.yul\":14010:14013   */\n      0x00\n        /* \"#utility.yul\":14031:14098   */\n      tag_427\n        /* \"#utility.yul\":14095:14097   */\n      0x12\n        /* \"#utility.yul\":14090:14093   */\n      dup4\n        /* \"#utility.yul\":14031:14098   */\n      tag_270\n      jump\t// in\n    tag_427:\n        /* \"#utility.yul\":14024:14098   */\n      swap2\n      pop\n        /* \"#utility.yul\":14107:14200   */\n      tag_428\n        /* \"#utility.yul\":14196:14199   */\n      dup3\n        /* \"#utility.yul\":14107:14200   */\n      tag_284\n      jump\t// in\n    tag_428:\n        /* \"#utility.yul\":14225:14227   */\n      0x20\n        /* \"#utility.yul\":14220:14223   */\n      dup3\n        /* \"#utility.yul\":14216:14228   */\n      add\n        /* \"#utility.yul\":14209:14228   */\n      swap1\n      pop\n        /* \"#utility.yul\":13868:14234   */\n      swap2\n      swap1\n      pop\n      jump\t// out\n        /* \"#utility.yul\":14240:14659   */\n    tag_133:\n        /* \"#utility.yul\":14406:14410   */\n      0x00\n        /* \"#utility.yul\":14444:14446   */\n      0x20\n        /* \"#utility.yul\":14433:14442   */\n      dup3\n        /* \"#utility.yul\":14429:14447   */\n      add\n        /* \"#utility.yul\":14421:14447   */\n      swap1\n      pop\n        /* \"#utility.yul\":14493:14502   */\n      dup2\n        /* \"#utility.yul\":14487:14491   */\n      dup2\n        /* \"#utility.yul\":14483:14503   */\n      sub\n        /* \"#utility.yul\":14479:14480   */\n      0x00\n        /* \"#utility.yul\":14468:14477   */\n      dup4\n        /* \"#utility.yul\":14464:14481   */\n      add\n        /* \"#utility.yul\":14457:14504   */\n      mstore\n        /* \"#utility.yul\":14521:14652   */\n      tag_430\n        /* \"#utility.yul\":14647:14651   */\n      dup2\n        /* \"#utility.yul\":14521:14652   */\n      tag_285\n      jump\t// in\n    tag_430:\n        /* \"#utility.yul\":14513:14652   */\n      swap1\n      pop\n        /* \"#utility.yul\":14240:14659   */\n      swap2\n      swap1\n      pop\n      jump\t// out\n        /* \"#utility.yul\":14665:14837   */\n    tag_286:\n        /* \"#utility.yul\":14805:14829   */\n      0x56657374696e6720616c72656164792065786973747300000000000000000000\n        /* \"#utility.yul\":14801:14802   */\n      0x00\n        /* \"#utility.yul\":14793:14799   */\n      dup3\n        /* \"#utility.yul\":14789:14803   */\n      add\n        /* \"#utility.yul\":14782:14830   */\n      mstore\n        /* \"#utility.yul\":14665:14837   */\n      pop\n      jump\t// out\n        /* \"#utility.yul\":14843:15209   */\n    tag_287:\n        /* \"#utility.yul\":14985:14988   */\n      0x00\n        /* \"#utility.yul\":15006:15073   */\n      tag_433\n        /* \"#utility.yul\":15070:15072   */\n      0x16\n        /* \"#utility.yul\":15065:15068   */\n      dup4\n        /* \"#utility.yul\":15006:15073   */\n      tag_270\n      jump\t// in\n    tag_433:\n        /* \"#utility.yul\":14999:15073   */\n      swap2\n      pop\n        /* \"#utility.yul\":15082:15175   */\n      tag_434\n        /* \"#utility.yul\":15171:15174   */\n      dup3\n        /* \"#utility.yul\":15082:15175   */\n      tag_286\n      jump\t// in\n    tag_434:\n        /* \"#utility.yul\":15200:15202   */\n      0x20\n        /* \"#utility.yul\":15195:15198   */\n      dup3\n        /* \"#utility.yul\":15191:15203   */\n      add\n        /* \"#utility.yul\":15184:15203   */\n      swap1\n      pop\n        /* \"#utility.yul\":14843:15209   */\n      swap2\n      swap1\n      pop\n      jump\t// out\n        /* \"#utility.yul\":15215:15634   */\n    tag_136:\n        /* \"#utility.yul\":15381:15385   */\n      0x00\n        /* \"#utility.yul\":15419:15421   */\n      0x20\n        /* \"#utility.yul\":15408:15417   */\n      dup3\n        /* \"#utility.yul\":15404:15422   */\n      add\n        /* \"#utility.yul\":15396:15422   */\n      swap1\n      pop\n        /* \"#utility.yul\":15468:15477   */\n      dup2\n        /* \"#utility.yul\":15462:15466   */\n      dup2\n        /* \"#utility.yul\":15458:15478   */\n      sub\n        /* \"#utility.yul\":15454:15455   */\n      0x00\n        /* \"#utility.yul\":15443:15452   */\n      dup4\n        /* \"#utility.yul\":15439:15456   */\n      add\n        /* \"#utility.yul\":15432:15479   */\n      mstore\n        /* \"#utility.yul\":15496:15627   */\n      tag_436\n        /* \"#utility.yul\":15622:15626   */\n      dup2\n        /* \"#utility.yul\":15496:15627   */\n      tag_287\n      jump\t// in\n    tag_436:\n        /* \"#utility.yul\":15488:15627   */\n      swap1\n      pop\n        /* \"#utility.yul\":15215:15634   */\n      swap2\n      swap1\n      pop\n      jump\t// out\n        /* \"#utility.yul\":15640:16082   */\n    tag_139:\n        /* \"#utility.yul\":15789:15793   */\n      0x00\n        /* \"#utility.yul\":15827:15829   */\n      0x60\n        /* \"#utility.yul\":15816:15825   */\n      dup3\n        /* \"#utility.yul\":15812:15830   */\n      add\n        /* \"#utility.yul\":15804:15830   */\n      swap1\n      pop\n        /* \"#utility.yul\":15840:15911   */\n      tag_438\n        /* \"#utility.yul\":15908:15909   */\n      0x00\n        /* \"#utility.yul\":15897:15906   */\n      dup4\n        /* \"#utility.yul\":15893:15910   */\n      add\n        /* \"#utility.yul\":15884:15890   */\n      dup7\n        /* \"#utility.yul\":15840:15911   */\n      tag_266\n      jump\t// in\n    tag_438:\n        /* \"#utility.yul\":15921:15993   */\n      tag_439\n        /* \"#utility.yul\":15989:15991   */\n      0x20\n        /* \"#utility.yul\":15978:15987   */\n      dup4\n        /* \"#utility.yul\":15974:15992   */\n      add\n        /* \"#utility.yul\":15965:15971   */\n      dup6\n        /* \"#utility.yul\":15921:15993   */\n      tag_266\n      jump\t// in\n    tag_439:\n        /* \"#utility.yul\":16003:16075   */\n      tag_440\n        /* \"#utility.yul\":16071:16073   */\n      0x40\n        /* \"#utility.yul\":16060:16069   */\n      dup4\n        /* \"#utility.yul\":16056:16074   */\n      add\n        /* \"#utility.yul\":16047:16053   */\n      dup5\n        /* \"#utility.yul\":16003:16075   */\n      tag_261\n      jump\t// in\n    tag_440:\n        /* \"#utility.yul\":15640:16082   */\n      swap5\n      swap4\n      pop\n      pop\n      pop\n      pop\n      jump\t// out\n        /* \"#utility.yul\":16088:16260   */\n    tag_288:\n        /* \"#utility.yul\":16228:16252   */\n      0x5363686564756c65206e6f74207265766f6361626c6500000000000000000000\n        /* \"#utility.yul\":16224:16225   */\n      0x00\n        /* \"#utility.yul\":16216:16222   */\n      dup3\n        /* \"#utility.yul\":16212:16226   */\n      add\n        /* \"#utility.yul\":16205:16253   */\n      mstore\n        /* \"#utility.yul\":16088:16260   */\n      pop\n      jump\t// out\n        /* \"#utility.yul\":16266:16632   */\n    tag_289:\n        /* \"#utility.yul\":16408:16411   */\n      0x00\n        /* \"#utility.yul\":16429:16496   */\n      tag_443\n        /* \"#utility.yul\":16493:16495   */\n      0x16\n        /* \"#utility.yul\":16488:16491   */\n      dup4\n        /* \"#utility.yul\":16429:16496   */\n      tag_270\n      jump\t// in\n    tag_443:\n        /* \"#utility.yul\":16422:16496   */\n      swap2\n      pop\n        /* \"#utility.yul\":16505:16598   */\n      tag_444\n        /* \"#utility.yul\":16594:16597   */\n      dup3\n        /* \"#utility.yul\":16505:16598   */\n      tag_288\n      jump\t// in\n    tag_444:\n        /* \"#utility.yul\":16623:16625   */\n      0x20\n        /* \"#utility.yul\":16618:16621   */\n      dup3\n        /* \"#utility.yul\":16614:16626   */\n      add\n        /* \"#utility.yul\":16607:16626   */\n      swap1\n      pop\n        /* \"#utility.yul\":16266:16632   */\n      swap2\n      swap1\n      pop\n      jump\t// out\n        /* \"#utility.yul\":16638:17057   */\n    tag_160:\n        /* \"#utility.yul\":16804:16808   */\n      0x00\n        /* \"#utility.yul\":16842:16844   */\n      0x20\n        /* \"#utility.yul\":16831:16840   */\n      dup3\n        /* \"#utility.yul\":16827:16845   */\n      add\n        /* \"#utility.yul\":16819:16845   */\n      swap1\n      pop\n        /* \"#utility.yul\":16891:16900   */\n      dup2\n        /* \"#utility.yul\":16885:16889   */\n      dup2\n        /* \"#utility.yul\":16881:16901   */\n      sub\n        /* \"#utility.yul\":16877:16878   */\n      0x00\n        /* \"#utility.yul\":16866:16875   */\n      dup4\n        /* \"#utility.yul\":16862:16879   */\n      add\n        /* \"#utility.yul\":16855:16902   */\n      mstore\n        /* \"#utility.yul\":16919:17050   */\n      tag_446\n        /* \"#utility.yul\":17045:17049   */\n      dup2\n        /* \"#utility.yul\":16919:17050   */\n      tag_289\n      jump\t// in\n    tag_446:\n        /* \"#utility.yul\":16911:17050   */\n      swap1\n      pop\n        /* \"#utility.yul\":16638:17057   */\n      swap2\n      swap1\n      pop\n      jump\t// out\n        /* \"#utility.yul\":17063:17237   */\n    tag_290:\n        /* \"#utility.yul\":17203:17229   */\n      0x5363686564756c6520616c7265616479207265766f6b65640000000000000000\n        /* \"#utility.yul\":17199:17200   */\n      0x00\n        /* \"#utility.yul\":17191:17197   */\n      dup3\n        /* \"#utility.yul\":17187:17201   */\n      add\n        /* \"#utility.yul\":17180:17230   */\n      mstore\n        /* \"#utility.yul\":17063:17237   */\n      pop\n      jump\t// out\n        /* \"#utility.yul\":17243:17609   */\n    tag_291:\n        /* \"#utility.yul\":17385:17388   */\n      0x00\n        /* \"#utility.yul\":17406:17473   */\n      tag_449\n        /* \"#utility.yul\":17470:17472   */\n      0x18\n        /* \"#utility.yul\":17465:17468   */\n      dup4\n        /* \"#utility.yul\":17406:17473   */\n      tag_270\n      jump\t// in\n    tag_449:\n        /* \"#utility.yul\":17399:17473   */\n      swap2\n      pop\n        /* \"#utility.yul\":17482:17575   */\n      tag_450\n        /* \"#utility.yul\":17571:17574   */\n      dup3\n        /* \"#utility.yul\":17482:17575   */\n      tag_290\n      jump\t// in\n    tag_450:\n        /* \"#utility.yul\":17600:17602   */\n      0x20\n        /* \"#utility.yul\":17595:17598   */\n      dup3\n        /* \"#utility.yul\":17591:17603   */\n      add\n        /* \"#utility.yul\":17584:17603   */\n      swap1\n      pop\n        /* \"#utility.yul\":17243:17609   */\n      swap2\n      swap1\n      pop\n      jump\t// out\n        /* \"#utility.yul\":17615:18034   */\n    tag_163:\n        /* \"#utility.yul\":17781:17785   */\n      0x00\n        /* \"#utility.yul\":17819:17821   */\n      0x20\n        /* \"#utility.yul\":17808:17817   */\n      dup3\n        /* \"#utility.yul\":17804:17822   */\n      add\n        /* \"#utility.yul\":17796:17822   */\n      swap1\n      pop\n        /* \"#utility.yul\":17868:17877   */\n      dup2\n        /* \"#utility.yul\":17862:17866   */\n      dup2\n        /* \"#utility.yul\":17858:17878   */\n      sub\n        /* \"#utility.yul\":17854:17855   */\n      0x00\n        /* \"#utility.yul\":17843:17852   */\n      dup4\n        /* \"#utility.yul\":17839:17856   */\n      add\n        /* \"#utility.yul\":17832:17879   */\n      mstore\n        /* \"#utility.yul\":17896:18027   */\n      tag_452\n        /* \"#utility.yul\":18022:18026   */\n      dup2\n        /* \"#utility.yul\":17896:18027   */\n      tag_291\n      jump\t// in\n    tag_452:\n        /* \"#utility.yul\":17888:18027   */\n      swap1\n      pop\n        /* \"#utility.yul\":17615:18034   */\n      swap2\n      swap1\n      pop\n      jump\t// out\n        /* \"#utility.yul\":18040:18234   */\n    tag_165:\n        /* \"#utility.yul\":18080:18084   */\n      0x00\n        /* \"#utility.yul\":18100:18120   */\n      tag_454\n        /* \"#utility.yul\":18118:18119   */\n      dup3\n        /* \"#utility.yul\":18100:18120   */\n      tag_260\n      jump\t// in\n    tag_454:\n        /* \"#utility.yul\":18095:18120   */\n      swap2\n      pop\n        /* \"#utility.yul\":18134:18154   */\n      tag_455\n        /* \"#utility.yul\":18152:18153   */\n      dup4\n        /* \"#utility.yul\":18134:18154   */\n      tag_260\n      jump\t// in\n    tag_455:\n        /* \"#utility.yul\":18129:18154   */\n      swap3\n      pop\n        /* \"#utility.yul\":18178:18179   */\n      dup3\n        /* \"#utility.yul\":18175:18176   */\n      dup3\n        /* \"#utility.yul\":18171:18180   */\n      sub\n        /* \"#utility.yul\":18163:18180   */\n      swap1\n      pop\n        /* \"#utility.yul\":18202:18203   */\n      dup2\n        /* \"#utility.yul\":18196:18200   */\n      dup2\n        /* \"#utility.yul\":18193:18204   */\n      gt\n        /* \"#utility.yul\":18190:18227   */\n      iszero\n      tag_456\n      jumpi\n        /* \"#utility.yul\":18207:18225   */\n      tag_457\n      tag_277\n      jump\t// in\n    tag_457:\n        /* \"#utility.yul\":18190:18227   */\n    tag_456:\n        /* \"#utility.yul\":18040:18234   */\n      swap3\n      swap2\n      pop\n      pop\n      jump\t// out\n        /* \"#utility.yul\":18240:18421   */\n    tag_292:\n        /* \"#utility.yul\":18380:18413   */\n      0x5265656e7472616e637947756172643a207265656e7472616e742063616c6c00\n        /* \"#utility.yul\":18376:18377   */\n      0x00\n        /* \"#utility.yul\":18368:18374   */\n      dup3\n        /* \"#utility.yul\":18364:18378   */\n      add\n        /* \"#utility.yul\":18357:18414   */\n      mstore\n        /* \"#utility.yul\":18240:18421   */\n      pop\n      jump\t// out\n        /* \"#utility.yul\":18427:18793   */\n    tag_293:\n        /* \"#utility.yul\":18569:18572   */\n      0x00\n        /* \"#utility.yul\":18590:18657   */\n      tag_460\n        /* \"#utility.yul\":18654:18656   */\n      0x1f\n        /* \"#utility.yul\":18649:18652   */\n      dup4\n        /* \"#utility.yul\":18590:18657   */\n      tag_270\n      jump\t// in\n    tag_460:\n        /* \"#utility.yul\":18583:18657   */\n      swap2\n      pop\n        /* \"#utility.yul\":18666:18759   */\n      tag_461\n        /* \"#utility.yul\":18755:18758   */\n      dup3\n        /* \"#utility.yul\":18666:18759   */\n      tag_292\n      jump\t// in\n    tag_461:\n        /* \"#utility.yul\":18784:18786   */\n      0x20\n        /* \"#utility.yul\":18779:18782   */\n      dup3\n        /* \"#utility.yul\":18775:18787   */\n      add\n        /* \"#utility.yul\":18768:18787   */\n      swap1\n      pop\n        /* \"#utility.yul\":18427:18793   */\n      swap2\n      swap1\n      pop\n      jump\t// out\n        /* \"#utility.yul\":18799:19218   */\n    tag_192:\n        /* \"#utility.yul\":18965:18969   */\n      0x00\n        /* \"#utility.yul\":19003:19005   */\n      0x20\n        /* \"#utility.yul\":18992:19001   */\n      dup3\n        /* \"#utility.yul\":18988:19006   */\n      add\n        /* \"#utility.yul\":18980:19006   */\n      swap1\n      pop\n        /* \"#utility.yul\":19052:19061   */\n      dup2\n        /* \"#utility.yul\":19046:19050   */\n      dup2\n        /* \"#utility.yul\":19042:19062   */\n      sub\n        /* \"#utility.yul\":19038:19039   */\n      0x00\n        /* \"#utility.yul\":19027:19036   */\n      dup4\n        /* \"#utility.yul\":19023:19040   */\n      add\n        /* \"#utility.yul\":19016:19063   */\n      mstore\n        /* \"#utility.yul\":19080:19211   */\n      tag_463\n        /* \"#utility.yul\":19206:19210   */\n      dup2\n        /* \"#utility.yul\":19080:19211   */\n      tag_293\n      jump\t// in\n    tag_463:\n        /* \"#utility.yul\":19072:19211   */\n      swap1\n      pop\n        /* \"#utility.yul\":18799:19218   */\n      swap2\n      swap1\n      pop\n      jump\t// out\n        /* \"#utility.yul\":19224:19390   */\n    tag_294:\n        /* \"#utility.yul\":19364:19382   */\n      0x5061757361626c653a2070617573656400000000000000000000000000000000\n        /* \"#utility.yul\":19360:19361   */\n      0x00\n        /* \"#utility.yul\":19352:19358   */\n      dup3\n        /* \"#utility.yul\":19348:19362   */\n      add\n        /* \"#utility.yul\":19341:19383   */\n      mstore\n        /* \"#utility.yul\":19224:19390   */\n      pop\n      jump\t// out\n        /* \"#utility.yul\":19396:19762   */\n    tag_295:\n        /* \"#utility.yul\":19538:19541   */\n      0x00\n        /* \"#utility.yul\":19559:19626   */\n      tag_466\n        /* \"#utility.yul\":19623:19625   */\n      0x10\n        /* \"#utility.yul\":19618:19621   */\n      dup4\n        /* \"#utility.yul\":19559:19626   */\n      tag_270\n      jump\t// in\n    tag_466:\n        /* \"#utility.yul\":19552:19626   */\n      swap2\n      pop\n        /* \"#utility.yul\":19635:19728   */\n      tag_467\n        /* \"#utility.yul\":19724:19727   */\n      dup3\n        /* \"#utility.yul\":19635:19728   */\n      tag_294\n      jump\t// in\n    tag_467:\n        /* \"#utility.yul\":19753:19755   */\n      0x20\n        /* \"#utility.yul\":19748:19751   */\n      dup3\n        /* \"#utility.yul\":19744:19756   */\n      add\n        /* \"#utility.yul\":19737:19756   */\n      swap1\n      pop\n        /* \"#utility.yul\":19396:19762   */\n      swap2\n      swap1\n      pop\n      jump\t// out\n        /* \"#utility.yul\":19768:20187   */\n    tag_197:\n        /* \"#utility.yul\":19934:19938   */\n      0x00\n        /* \"#utility.yul\":19972:19974   */\n      0x20\n        /* \"#utility.yul\":19961:19970   */\n      dup3\n        /* \"#utility.yul\":19957:19975   */\n      add\n        /* \"#utility.yul\":19949:19975   */\n      swap1\n      pop\n        /* \"#utility.yul\":20021:20030   */\n      dup2\n        /* \"#utility.yul\":20015:20019   */\n      dup2\n        /* \"#utility.yul\":20011:20031   */\n      sub\n        /* \"#utility.yul\":20007:20008   */\n      0x00\n        /* \"#utility.yul\":19996:20005   */\n      dup4\n        /* \"#utility.yul\":19992:20009   */\n      add\n        /* \"#utility.yul\":19985:20032   */\n      mstore\n        /* \"#utility.yul\":20049:20180   */\n      tag_469\n        /* \"#utility.yul\":20175:20179   */\n      dup2\n        /* \"#utility.yul\":20049:20180   */\n      tag_295\n      jump\t// in\n    tag_469:\n        /* \"#utility.yul\":20041:20180   */\n      swap1\n      pop\n        /* \"#utility.yul\":19768:20187   */\n      swap2\n      swap1\n      pop\n      jump\t// out\n        /* \"#utility.yul\":20193:20603   */\n    tag_238:\n        /* \"#utility.yul\":20233:20240   */\n      0x00\n        /* \"#utility.yul\":20256:20276   */\n      tag_471\n        /* \"#utility.yul\":20274:20275   */\n      dup3\n        /* \"#utility.yul\":20256:20276   */\n      tag_260\n      jump\t// in\n    tag_471:\n        /* \"#utility.yul\":20251:20276   */\n      swap2\n      pop\n        /* \"#utility.yul\":20290:20310   */\n      tag_472\n        /* \"#utility.yul\":20308:20309   */\n      dup4\n        /* \"#utility.yul\":20290:20310   */\n      tag_260\n      jump\t// in\n    tag_472:\n        /* \"#utility.yul\":20285:20310   */\n      swap3\n      pop\n        /* \"#utility.yul\":20345:20346   */\n      dup3\n        /* \"#utility.yul\":20342:20343   */\n      dup3\n        /* \"#utility.yul\":20338:20347   */\n      mul\n        /* \"#utility.yul\":20367:20397   */\n      tag_473\n        /* \"#utility.yul\":20385:20396   */\n      dup2\n        /* \"#utility.yul\":20367:20397   */\n      tag_260\n      jump\t// in\n    tag_473:\n        /* \"#utility.yul\":20356:20397   */\n      swap2\n      pop\n        /* \"#utility.yul\":20546:20547   */\n      dup3\n        /* \"#utility.yul\":20537:20544   */\n      dup3\n        /* \"#utility.yul\":20533:20548   */\n      div\n        /* \"#utility.yul\":20530:20531   */\n      dup5\n        /* \"#utility.yul\":20527:20549   */\n      eq\n        /* \"#utility.yul\":20507:20508   */\n      dup4\n        /* \"#utility.yul\":20500:20509   */\n      iszero\n        /* \"#utility.yul\":20480:20563   */\n      or\n        /* \"#utility.yul\":20457:20596   */\n      tag_474\n      jumpi\n        /* \"#utility.yul\":20576:20594   */\n      tag_475\n      tag_277\n      jump\t// in\n    tag_475:\n        /* \"#utility.yul\":20457:20596   */\n    tag_474:\n        /* \"#utility.yul\":20241:20603   */\n      pop\n        /* \"#utility.yul\":20193:20603   */\n      swap3\n      swap2\n      pop\n      pop\n      jump\t// out\n        /* \"#utility.yul\":20609:20789   */\n    tag_296:\n        /* \"#utility.yul\":20657:20734   */\n      0x4e487b7100000000000000000000000000000000000000000000000000000000\n        /* \"#utility.yul\":20654:20655   */\n      0x00\n        /* \"#utility.yul\":20647:20735   */\n      mstore\n        /* \"#utility.yul\":20754:20758   */\n      0x12\n        /* \"#utility.yul\":20751:20752   */\n      0x04\n        /* \"#utility.yul\":20744:20759   */\n      mstore\n        /* \"#utility.yul\":20778:20782   */\n      0x24\n        /* \"#utility.yul\":20775:20776   */\n      0x00\n        /* \"#utility.yul\":20768:20783   */\n      revert\n        /* \"#utility.yul\":20795:20980   */\n    tag_241:\n        /* \"#utility.yul\":20835:20836   */\n      0x00\n        /* \"#utility.yul\":20852:20872   */\n      tag_478\n        /* \"#utility.yul\":20870:20871   */\n      dup3\n        /* \"#utility.yul\":20852:20872   */\n      tag_260\n      jump\t// in\n    tag_478:\n        /* \"#utility.yul\":20847:20872   */\n      swap2\n      pop\n        /* \"#utility.yul\":20886:20906   */\n      tag_479\n        /* \"#utility.yul\":20904:20905   */\n      dup4\n        /* \"#utility.yul\":20886:20906   */\n      tag_260\n      jump\t// in\n    tag_479:\n        /* \"#utility.yul\":20881:20906   */\n      swap3\n      pop\n        /* \"#utility.yul\":20925:20926   */\n      dup3\n        /* \"#utility.yul\":20915:20950   */\n      tag_480\n      jumpi\n        /* \"#utility.yul\":20930:20948   */\n      tag_481\n      tag_296\n      jump\t// in\n    tag_481:\n        /* \"#utility.yul\":20915:20950   */\n    tag_480:\n        /* \"#utility.yul\":20972:20973   */\n      dup3\n        /* \"#utility.yul\":20969:20970   */\n      dup3\n        /* \"#utility.yul\":20965:20974   */\n      div\n        /* \"#utility.yul\":20960:20974   */\n      swap1\n      pop\n        /* \"#utility.yul\":20795:20980   */\n      swap3\n      swap2\n      pop\n      pop\n      jump\t// out\n        /* \"#utility.yul\":20986:21156   */\n    tag_297:\n        /* \"#utility.yul\":21126:21148   */\n      0x5061757361626c653a206e6f7420706175736564000000000000000000000000\n        /* \"#utility.yul\":21122:21123   */\n      0x00\n        /* \"#utility.yul\":21114:21120   */\n      dup3\n        /* \"#utility.yul\":21110:21124   */\n      add\n        /* \"#utility.yul\":21103:21149   */\n      mstore\n        /* \"#utility.yul\":20986:21156   */\n      pop\n      jump\t// out\n        /* \"#utility.yul\":21162:21528   */\n    tag_298:\n        /* \"#utility.yul\":21304:21307   */\n      0x00\n        /* \"#utility.yul\":21325:21392   */\n      tag_484\n        /* \"#utility.yul\":21389:21391   */\n      0x14\n        /* \"#utility.yul\":21384:21387   */\n      dup4\n        /* \"#utility.yul\":21325:21392   */\n      tag_270\n      jump\t// in\n    tag_484:\n        /* \"#utility.yul\":21318:21392   */\n      swap2\n      pop\n        /* \"#utility.yul\":21401:21494   */\n      tag_485\n        /* \"#utility.yul\":21490:21493   */\n      dup3\n        /* \"#utility.yul\":21401:21494   */\n      tag_297\n      jump\t// in\n    tag_485:\n        /* \"#utility.yul\":21519:21521   */\n      0x20\n        /* \"#utility.yul\":21514:21517   */\n      dup3\n        /* \"#utility.yul\":21510:21522   */\n      add\n        /* \"#utility.yul\":21503:21522   */\n      swap1\n      pop\n        /* \"#utility.yul\":21162:21528   */\n      swap2\n      swap1\n      pop\n      jump\t// out\n        /* \"#utility.yul\":21534:21953   */\n    tag_247:\n        /* \"#utility.yul\":21700:21704   */\n      0x00\n        /* \"#utility.yul\":21738:21740   */\n      0x20\n        /* \"#utility.yul\":21727:21736   */\n      dup3\n        /* \"#utility.yul\":21723:21741   */\n      add\n        /* \"#utility.yul\":21715:21741   */\n      swap1\n      pop\n        /* \"#utility.yul\":21787:21796   */\n      dup2\n        /* \"#utility.yul\":21781:21785   */\n      dup2\n        /* \"#utility.yul\":21777:21797   */\n      sub\n        /* \"#utility.yul\":21773:21774   */\n      0x00\n        /* \"#utility.yul\":21762:21771   */\n      dup4\n        /* \"#utility.yul\":21758:21775   */\n      add\n        /* \"#utility.yul\":21751:21798   */\n      mstore\n        /* \"#utility.yul\":21815:21946   */\n      tag_487\n        /* \"#utility.yul\":21941:21945   */\n      dup2\n        /* \"#utility.yul\":21815:21946   */\n      tag_298\n      jump\t// in\n    tag_487:\n        /* \"#utility.yul\":21807:21946   */\n      swap1\n      pop\n        /* \"#utility.yul\":21534:21953   */\n      swap2\n      swap1\n      pop\n      jump\t// out\n\n    auxdata: 0xa2646970667358221220e51d040007b0f6f563790722201f2b4ac92e02580950b69f33d886ab3381088964736f6c634300081c0033\n}\n",
				"bytecode": {
					"linkReferences": {},
					"object": "60c060405234801561000f575f5ffd5b506040516120fd3803806120fd833981810160405281019061003191906102a5565b8060015f819055505f73ffffffffffffffffffffffffffffffffffffffff168173ffffffffffffffffffffffffffffffffffffffff16036100a9575f6040517f1e4fbdf70000000000000000000000000000000000000000000000000000000081526004016100a091906102f2565b60405180910390fd5b6100b88161018460201b60201c565b505f600160146101000a81548160ff0219169083151502179055505f73ffffffffffffffffffffffffffffffffffffffff168273ffffffffffffffffffffffffffffffffffffffff1603610141576040517f08c379a000000000000000000000000000000000000000000000000000000000815260040161013890610365565b60405180910390fd5b8173ffffffffffffffffffffffffffffffffffffffff1660808173ffffffffffffffffffffffffffffffffffffffff16815250504260a081815250505050610383565b5f60015f9054906101000a900473ffffffffffffffffffffffffffffffffffffffff1690508160015f6101000a81548173ffffffffffffffffffffffffffffffffffffffff021916908373ffffffffffffffffffffffffffffffffffffffff1602179055508173ffffffffffffffffffffffffffffffffffffffff168173ffffffffffffffffffffffffffffffffffffffff167f8be0079c531659141344cd1fd0a4f28419497f9722a3daafe3b4186f6b6457e060405160405180910390a35050565b5f5ffd5b5f73ffffffffffffffffffffffffffffffffffffffff82169050919050565b5f6102748261024b565b9050919050565b6102848161026a565b811461028e575f5ffd5b50565b5f8151905061029f8161027b565b92915050565b5f5f604083850312156102bb576102ba610247565b5b5f6102c885828601610291565b92505060206102d985828601610291565b9150509250929050565b6102ec8161026a565b82525050565b5f6020820190506103055f8301846102e3565b92915050565b5f82825260208201905092915050565b7f496e76616c696420746f6b656e000000000000000000000000000000000000005f82015250565b5f61034f600d8361030b565b915061035a8261031b565b602082019050919050565b5f6020820190508181035f83015261037c81610343565b9050919050565b60805160a051611d446103b95f395f610d8a01525f818161030601528181610482015281816108970152610b5b0152611d445ff3fe608060405234801561000f575f5ffd5b5060043610610109575f3560e01c80636c3b0c53116100a05780638da5cb5b1161006f5780638da5cb5b146102455780639f82906314610263578063a8660a7814610293578063f2fde38b146102b1578063fdb20ccb146102cd57610109565b80636c3b0c53146101f9578063715018a61461021557806374a8f1031461021f5780638456cb591461023b57610109565b80632afd1a7d116100dc5780632afd1a7d146101835780633f4ba83a146101b35780634cfc4d30146101bd5780635c975abb146101db57610109565b806310d670981461010d578063191655871461012b578063199cbc54146101475780631e7bace014610165575b5f5ffd5b610115610304565b6040516101229190611371565b60405180910390f35b610145600480360381019061014091906113c9565b610328565b005b61014f6105b5565b60405161015c919061140c565b60405180910390f35b61016d6105bb565b60405161017a919061140c565b60405180910390f35b61019d600480360381019061019891906113c9565b6105c0565b6040516101aa919061140c565b60405180910390f35b6101bb61060d565b005b6101c561061f565b6040516101d2919061140c565b60405180910390f35b6101e3610627565b6040516101f0919061143f565b60405180910390f35b610213600480360381019061020e9190611482565b61063d565b005b61021d6109c4565b005b610239600480360381019061023491906113c9565b6109d7565b005b610243610c86565b005b61024d610c98565b60405161025a91906114cf565b60405180910390f35b61027d600480360381019061027891906113c9565b610cc0565b60405161028a91906115a6565b60405180910390f35b61029b610d88565b6040516102a8919061140c565b60405180910390f35b6102cb60048036038101906102c691906113c9565b610dac565b005b6102e760048036038101906102e291906113c9565b610e30565b6040516102fb9897969594939291906115c0565b60405180910390f35b7f000000000000000000000000000000000000000000000000000000000000000081565b610330610e8d565b610338610eda565b5f60025f8373ffffffffffffffffffffffffffffffffffffffff1673ffffffffffffffffffffffffffffffffffffffff1681526020019081526020015f2090505f815f0154116103bd576040517f08c379a00000000000000000000000000000000000000000000000000000000081526004016103b490611696565b60405180910390fd5b8060050160019054906101000a900460ff161561040f576040517f08c379a0000000000000000000000000000000000000000000000000000000008152600401610406906116fe565b60405180910390fd5b5f61041982610f24565b90505f811161045d576040517f08c379a000000000000000000000000000000000000000000000000000000000815260040161045490611766565b60405180910390fd5b80826001015f82825461047091906117b1565b925050819055504282600601819055507f000000000000000000000000000000000000000000000000000000000000000073ffffffffffffffffffffffffffffffffffffffff1663a9059cbb84836040518363ffffffff1660e01b81526004016104db9291906117e4565b6020604051808303815f875af11580156104f7573d5f5f3e3d5ffd5b505050506040513d601f19601f8201168201806040525081019061051b9190611835565b61055a576040517f08c379a0000000000000000000000000000000000000000000000000000000008152600401610551906118aa565b60405180910390fd5b8273ffffffffffffffffffffffffffffffffffffffff167fc7798891864187665ac6dd119286e44ec13f014527aeeb2b8eb3fd413df93179826040516105a0919061140c565b60405180910390a250506105b2610ffb565b50565b60035481565b607881565b5f61060660025f8473ffffffffffffffffffffffffffffffffffffffff1673ffffffffffffffffffffffffffffffffffffffff1681526020019081526020015f20610f24565b9050919050565b610615611004565b61061d61108b565b565b6312cc030081565b5f600160149054906101000a900460ff16905090565b610645611004565b61064d610eda565b5f73ffffffffffffffffffffffffffffffffffffffff168273ffffffffffffffffffffffffffffffffffffffff16036106bb576040517f08c379a00000000000000000000000000000000000000000000000000000000081526004016106b290611912565b60405180910390fd5b5f81116106fd576040517f08c379a00000000000000000000000000000000000000000000000000000000081526004016106f49061197a565b60405180910390fd5b5f60025f8473ffffffffffffffffffffffffffffffffffffffff1673ffffffffffffffffffffffffffffffffffffffff1681526020019081526020015f205f01541461077e576040517f08c379a0000000000000000000000000000000000000000000000000000000008152600401610775906119e2565b60405180910390fd5b5f6040518061010001604052808381526020015f81526020014281526020016312cc030081526020015f81526020015f151581526020015f151581526020014281525090508060025f8573ffffffffffffffffffffffffffffffffffffffff1673ffffffffffffffffffffffffffffffffffffffff1681526020019081526020015f205f820151815f01556020820151816001015560408201518160020155606082015181600301556080820151816004015560a0820151816005015f6101000a81548160ff02191690831515021790555060c08201518160050160016101000a81548160ff02191690831515021790555060e082015181600601559050508160035f82825461088e91906117b1565b925050819055507f000000000000000000000000000000000000000000000000000000000000000073ffffffffffffffffffffffffffffffffffffffff166323b872dd3330856040518463ffffffff1660e01b81526004016108f293929190611a00565b6020604051808303815f875af115801561090e573d5f5f3e3d5ffd5b505050506040513d601f19601f820116820180604052508101906109329190611835565b610971576040517f08c379a0000000000000000000000000000000000000000000000000000000008152600401610968906118aa565b60405180910390fd5b8273ffffffffffffffffffffffffffffffffffffffff167f969705509595726740fe60cc30769bbd53c883efff4d8e70108a82817e0392a9836040516109b7919061140c565b60405180910390a2505050565b6109cc611004565b6109d55f6110ed565b565b6109df611004565b6109e7610eda565b5f60025f8373ffffffffffffffffffffffffffffffffffffffff1673ffffffffffffffffffffffffffffffffffffffff1681526020019081526020015f2090505f815f015411610a6c576040517f08c379a0000000000000000000000000000000000000000000000000000000008152600401610a6390611696565b60405180910390fd5b806005015f9054906101000a900460ff16610abc576040517f08c379a0000000000000000000000000000000000000000000000000000000008152600401610ab390611a7f565b60405180910390fd5b8060050160019054906101000a900460ff1615610b0e576040517f08c379a0000000000000000000000000000000000000000000000000000000008152600401610b0590611ae7565b60405180910390fd5b5f8160010154825f0154610b229190611b05565b905060018260050160016101000a81548160ff0219169083151502179055508060035f828254610b529190611b05565b925050819055507f000000000000000000000000000000000000000000000000000000000000000073ffffffffffffffffffffffffffffffffffffffff1663a9059cbb33836040518363ffffffff1660e01b8152600401610bb49291906117e4565b6020604051808303815f875af1158015610bd0573d5f5f3e3d5ffd5b505050506040513d601f19601f82011682018060405250810190610bf49190611835565b610c33576040517f08c379a0000000000000000000000000000000000000000000000000000000008152600401610c2a906118aa565b60405180910390fd5b8273ffffffffffffffffffffffffffffffffffffffff167f57c76f5e278bfbd4eeb5207d287aa5a1a9e1113c65f7eefa540e379a2774d13b82604051610c79919061140c565b60405180910390a2505050565b610c8e611004565b610c966111b0565b565b5f60015f9054906101000a900473ffffffffffffffffffffffffffffffffffffffff16905090565b610cc86112b6565b60025f8373ffffffffffffffffffffffffffffffffffffffff1673ffffffffffffffffffffffffffffffffffffffff1681526020019081526020015f20604051806101000160405290815f820154815260200160018201548152602001600282015481526020016003820154815260200160048201548152602001600582015f9054906101000a900460ff161515151581526020016005820160019054906101000a900460ff161515151581526020016006820154815250509050919050565b7f000000000000000000000000000000000000000000000000000000000000000081565b610db4611004565b5f73ffffffffffffffffffffffffffffffffffffffff168173ffffffffffffffffffffffffffffffffffffffff1603610e24575f6040517f1e4fbdf7000000000000000000000000000000000000000000000000000000008152600401610e1b91906114cf565b60405180910390fd5b610e2d816110ed565b50565b6002602052805f5260405f205f91509050805f015490806001015490806002015490806003015490806004015490806005015f9054906101000a900460ff16908060050160019054906101000a900460ff16908060060154905088565b60025f5403610ed1576040517f08c379a0000000000000000000000000000000000000000000000000000000008152600401610ec890611b82565b60405180910390fd5b60025f81905550565b610ee2610627565b15610f22576040517f08c379a0000000000000000000000000000000000000000000000000000000008152600401610f1990611bea565b60405180910390fd5b565b5f610f408260040154836002015461121290919063ffffffff16565b421015610f4f575f9050610ff6565b610f6a8260030154836002015461121290919063ffffffff16565b4210610f9157610f8a8260010154835f015461122790919063ffffffff16565b9050610ff6565b5f610fa983600201544261122790919063ffffffff16565b90505f610fd88460030154610fca84875f015461123c90919063ffffffff16565b61125190919063ffffffff16565b9050610ff184600101548261122790919063ffffffff16565b925050505b919050565b60015f81905550565b61100c611266565b73ffffffffffffffffffffffffffffffffffffffff1661102a610c98565b73ffffffffffffffffffffffffffffffffffffffff16146110895761104d611266565b6040517f118cdaa700000000000000000000000000000000000000000000000000000000815260040161108091906114cf565b60405180910390fd5b565b61109361126d565b5f600160146101000a81548160ff0219169083151502179055507f5db9ee0a495bf2e6ff9c91a7834c1ba4fdd244a5e8aa4e537bd38aeae4b073aa6110d6611266565b6040516110e391906114cf565b60405180910390a1565b5f60015f9054906101000a900473ffffffffffffffffffffffffffffffffffffffff1690508160015f6101000a81548173ffffffffffffffffffffffffffffffffffffffff021916908373ffffffffffffffffffffffffffffffffffffffff1602179055508173ffffffffffffffffffffffffffffffffffffffff168173ffffffffffffffffffffffffffffffffffffffff167f8be0079c531659141344cd1fd0a4f28419497f9722a3daafe3b4186f6b6457e060405160405180910390a35050565b6111b8610eda565b60018060146101000a81548160ff0219169083151502179055507f62e78cea01bee320cd4e420270b5ea74000d11b0c9f74754ebdbfc544b05a2586111fb611266565b60405161120891906114cf565b60405180910390a1565b5f818361121f91906117b1565b905092915050565b5f81836112349190611b05565b905092915050565b5f81836112499190611c08565b905092915050565b5f818361125e9190611c76565b905092915050565b5f33905090565b611275610627565b6112b4576040517f08c379a00000000000000000000000000000000000000000000000000000000081526004016112ab90611cf0565b60405180910390fd5b565b6040518061010001604052805f81526020015f81526020015f81526020015f81526020015f81526020015f151581526020015f151581526020015f81525090565b5f73ffffffffffffffffffffffffffffffffffffffff82169050919050565b5f819050919050565b5f61133961133461132f846112f7565b611316565b6112f7565b9050919050565b5f61134a8261131f565b9050919050565b5f61135b82611340565b9050919050565b61136b81611351565b82525050565b5f6020820190506113845f830184611362565b92915050565b5f5ffd5b5f611398826112f7565b9050919050565b6113a88161138e565b81146113b2575f5ffd5b50565b5f813590506113c38161139f565b92915050565b5f602082840312156113de576113dd61138a565b5b5f6113eb848285016113b5565b91505092915050565b5f819050919050565b611406816113f4565b82525050565b5f60208201905061141f5f8301846113fd565b92915050565b5f8115159050919050565b61143981611425565b82525050565b5f6020820190506114525f830184611430565b92915050565b611461816113f4565b811461146b575f5ffd5b50565b5f8135905061147c81611458565b92915050565b5f5f604083850312156114985761149761138a565b5b5f6114a5858286016113b5565b92505060206114b68582860161146e565b9150509250929050565b6114c98161138e565b82525050565b5f6020820190506114e25f8301846114c0565b92915050565b6114f1816113f4565b82525050565b61150081611425565b82525050565b61010082015f82015161151b5f8501826114e8565b50602082015161152e60208501826114e8565b50604082015161154160408501826114e8565b50606082015161155460608501826114e8565b50608082015161156760808501826114e8565b5060a082015161157a60a08501826114f7565b5060c082015161158d60c08501826114f7565b5060e08201516115a060e08501826114e8565b50505050565b5f610100820190506115ba5f830184611506565b92915050565b5f610100820190506115d45f83018b6113fd565b6115e1602083018a6113fd565b6115ee60408301896113fd565b6115fb60608301886113fd565b61160860808301876113fd565b61161560a0830186611430565b61162260c0830185611430565b61162f60e08301846113fd565b9998505050505050505050565b5f82825260208201905092915050565b7f4e6f2076657374696e67207363686564756c65000000000000000000000000005f82015250565b5f61168060138361163c565b915061168b8261164c565b602082019050919050565b5f6020820190508181035f8301526116ad81611674565b9050919050565b7f5363686564756c65207265766f6b6564000000000000000000000000000000005f82015250565b5f6116e860108361163c565b91506116f3826116b4565b602082019050919050565b5f6020820190508181035f830152611715816116dc565b9050919050565b7f4e6f20746f6b656e7320746f2072656c656173650000000000000000000000005f82015250565b5f61175060148361163c565b915061175b8261171c565b602082019050919050565b5f6020820190508181035f83015261177d81611744565b9050919050565b7f4e487b71000000000000000000000000000000000000000000000000000000005f52601160045260245ffd5b5f6117bb826113f4565b91506117c6836113f4565b92508282019050808211156117de576117dd611784565b5b92915050565b5f6040820190506117f75f8301856114c0565b61180460208301846113fd565b9392505050565b61181481611425565b811461181e575f5ffd5b50565b5f8151905061182f8161180b565b92915050565b5f6020828403121561184a5761184961138a565b5b5f61185784828501611821565b91505092915050565b7f5472616e73666572206661696c656400000000000000000000000000000000005f82015250565b5f611894600f8361163c565b915061189f82611860565b602082019050919050565b5f6020820190508181035f8301526118c181611888565b9050919050565b7f496e76616c69642062656e6566696369617279000000000000000000000000005f82015250565b5f6118fc60138361163c565b9150611907826118c8565b602082019050919050565b5f6020820190508181035f830152611929816118f0565b9050919050565b7f416d6f756e74206d757374206265203e203000000000000000000000000000005f82015250565b5f61196460128361163c565b915061196f82611930565b602082019050919050565b5f6020820190508181035f83015261199181611958565b9050919050565b7f56657374696e6720616c726561647920657869737473000000000000000000005f82015250565b5f6119cc60168361163c565b91506119d782611998565b602082019050919050565b5f6020820190508181035f8301526119f9816119c0565b9050919050565b5f606082019050611a135f8301866114c0565b611a2060208301856114c0565b611a2d60408301846113fd565b949350505050565b7f5363686564756c65206e6f74207265766f6361626c65000000000000000000005f82015250565b5f611a6960168361163c565b9150611a7482611a35565b602082019050919050565b5f6020820190508181035f830152611a9681611a5d565b9050919050565b7f5363686564756c6520616c7265616479207265766f6b656400000000000000005f82015250565b5f611ad160188361163c565b9150611adc82611a9d565b602082019050919050565b5f6020820190508181035f830152611afe81611ac5565b9050919050565b5f611b0f826113f4565b9150611b1a836113f4565b9250828203905081811115611b3257611b31611784565b5b92915050565b7f5265656e7472616e637947756172643a207265656e7472616e742063616c6c005f82015250565b5f611b6c601f8361163c565b9150611b7782611b38565b602082019050919050565b5f6020820190508181035f830152611b9981611b60565b9050919050565b7f5061757361626c653a20706175736564000000000000000000000000000000005f82015250565b5f611bd460108361163c565b9150611bdf82611ba0565b602082019050919050565b5f6020820190508181035f830152611c0181611bc8565b9050919050565b5f611c12826113f4565b9150611c1d836113f4565b9250828202611c2b816113f4565b91508282048414831517611c4257611c41611784565b5b5092915050565b7f4e487b71000000000000000000000000000000000000000000000000000000005f52601260045260245ffd5b5f611c80826113f4565b9150611c8b836113f4565b925082611c9b57611c9a611c49565b5b828204905092915050565b7f5061757361626c653a206e6f74207061757365640000000000000000000000005f82015250565b5f611cda60148361163c565b9150611ce582611ca6565b602082019050919050565b5f6020820190508181035f830152611d0781611cce565b905091905056fea2646970667358221220e51d040007b0f6f563790722201f2b4ac92e02580950b69f33d886ab3381088964736f6c634300081c0033",
					"opcodes": "PUSH1 0xC0 PUSH1 0x40 MSTORE CALLVALUE DUP1 ISZERO PUSH2 0xF JUMPI PUSH0 PUSH0 REVERT JUMPDEST POP PUSH1 0x40 MLOAD PUSH2 0x20FD CODESIZE SUB DUP1 PUSH2 0x20FD DUP4 CODECOPY DUP2 DUP2 ADD PUSH1 0x40 MSTORE DUP2 ADD SWAP1 PUSH2 0x31 SWAP2 SWAP1 PUSH2 0x2A5 JUMP JUMPDEST DUP1 PUSH1 0x1 PUSH0 DUP2 SWAP1 SSTORE POP PUSH0 PUSH20 0xFFFFFFFFFFFFFFFFFFFFFFFFFFFFFFFFFFFFFFFF AND DUP2 PUSH20 0xFFFFFFFFFFFFFFFFFFFFFFFFFFFFFFFFFFFFFFFF AND SUB PUSH2 0xA9 JUMPI PUSH0 PUSH1 0x40 MLOAD PUSH32 0x1E4FBDF700000000000000000000000000000000000000000000000000000000 DUP2 MSTORE PUSH1 0x4 ADD PUSH2 0xA0 SWAP2 SWAP1 PUSH2 0x2F2 JUMP JUMPDEST PUSH1 0x40 MLOAD DUP1 SWAP2 SUB SWAP1 REVERT JUMPDEST PUSH2 0xB8 DUP2 PUSH2 0x184 PUSH1 0x20 SHL PUSH1 0x20 SHR JUMP JUMPDEST POP PUSH0 PUSH1 0x1 PUSH1 0x14 PUSH2 0x100 EXP DUP2 SLOAD DUP2 PUSH1 0xFF MUL NOT AND SWAP1 DUP4 ISZERO ISZERO MUL OR SWAP1 SSTORE POP PUSH0 PUSH20 0xFFFFFFFFFFFFFFFFFFFFFFFFFFFFFFFFFFFFFFFF AND DUP3 PUSH20 0xFFFFFFFFFFFFFFFFFFFFFFFFFFFFFFFFFFFFFFFF AND SUB PUSH2 0x141 JUMPI PUSH1 0x40 MLOAD PUSH32 0x8C379A000000000000000000000000000000000000000000000000000000000 DUP2 MSTORE PUSH1 0x4 ADD PUSH2 0x138 SWAP1 PUSH2 0x365 JUMP JUMPDEST PUSH1 0x40 MLOAD DUP1 SWAP2 SUB SWAP1 REVERT JUMPDEST DUP2 PUSH20 0xFFFFFFFFFFFFFFFFFFFFFFFFFFFFFFFFFFFFFFFF AND PUSH1 0x80 DUP2 PUSH20 0xFFFFFFFFFFFFFFFFFFFFFFFFFFFFFFFFFFFFFFFF AND DUP2 MSTORE POP POP TIMESTAMP PUSH1 0xA0 DUP2 DUP2 MSTORE POP POP POP POP PUSH2 0x383 JUMP JUMPDEST PUSH0 PUSH1 0x1 PUSH0 SWAP1 SLOAD SWAP1 PUSH2 0x100 EXP SWAP1 DIV PUSH20 0xFFFFFFFFFFFFFFFFFFFFFFFFFFFFFFFFFFFFFFFF AND SWAP1 POP DUP2 PUSH1 0x1 PUSH0 PUSH2 0x100 EXP DUP2 SLOAD DUP2 PUSH20 0xFFFFFFFFFFFFFFFFFFFFFFFFFFFFFFFFFFFFFFFF MUL NOT AND SWAP1 DUP4 PUSH20 0xFFFFFFFFFFFFFFFFFFFFFFFFFFFFFFFFFFFFFFFF AND MUL OR SWAP1 SSTORE POP DUP2 PUSH20 0xFFFFFFFFFFFFFFFFFFFFFFFFFFFFFFFFFFFFFFFF AND DUP2 PUSH20 0xFFFFFFFFFFFFFFFFFFFFFFFFFFFFFFFFFFFFFFFF AND PUSH32 0x8BE0079C531659141344CD1FD0A4F28419497F9722A3DAAFE3B4186F6B6457E0 PUSH1 0x40 MLOAD PUSH1 0x40 MLOAD DUP1 SWAP2 SUB SWAP1 LOG3 POP POP JUMP JUMPDEST PUSH0 PUSH0 REVERT JUMPDEST PUSH0 PUSH20 0xFFFFFFFFFFFFFFFFFFFFFFFFFFFFFFFFFFFFFFFF DUP3 AND SWAP1 POP SWAP2 SWAP1 POP JUMP JUMPDEST PUSH0 PUSH2 0x274 DUP3 PUSH2 0x24B JUMP JUMPDEST SWAP1 POP SWAP2 SWAP1 POP JUMP JUMPDEST PUSH2 0x284 DUP2 PUSH2 0x26A JUMP JUMPDEST DUP2 EQ PUSH2 0x28E JUMPI PUSH0 PUSH0 REVERT JUMPDEST POP JUMP JUMPDEST PUSH0 DUP2 MLOAD SWAP1 POP PUSH2 0x29F DUP2 PUSH2 0x27B JUMP JUMPDEST SWAP3 SWAP2 POP POP JUMP JUMPDEST PUSH0 PUSH0 PUSH1 0x40 DUP4 DUP6 SUB SLT ISZERO PUSH2 0x2BB JUMPI PUSH2 0x2BA PUSH2 0x247 JUMP JUMPDEST JUMPDEST PUSH0 PUSH2 0x2C8 DUP6 DUP3 DUP7 ADD PUSH2 0x291 JUMP JUMPDEST SWAP3 POP POP PUSH1 0x20 PUSH2 0x2D9 DUP6 DUP3 DUP7 ADD PUSH2 0x291 JUMP JUMPDEST SWAP2 POP POP SWAP3 POP SWAP3 SWAP1 POP JUMP JUMPDEST PUSH2 0x2EC DUP2 PUSH2 0x26A JUMP JUMPDEST DUP3 MSTORE POP POP JUMP JUMPDEST PUSH0 PUSH1 0x20 DUP3 ADD SWAP1 POP PUSH2 0x305 PUSH0 DUP4 ADD DUP5 PUSH2 0x2E3 JUMP JUMPDEST SWAP3 SWAP2 POP POP JUMP JUMPDEST PUSH0 DUP3 DUP3 MSTORE PUSH1 0x20 DUP3 ADD SWAP1 POP SWAP3 SWAP2 POP POP JUMP JUMPDEST PUSH32 0x496E76616C696420746F6B656E00000000000000000000000000000000000000 PUSH0 DUP3 ADD MSTORE POP JUMP JUMPDEST PUSH0 PUSH2 0x34F PUSH1 0xD DUP4 PUSH2 0x30B JUMP JUMPDEST SWAP2 POP PUSH2 0x35A DUP3 PUSH2 0x31B JUMP JUMPDEST PUSH1 0x20 DUP3 ADD SWAP1 POP SWAP2 SWAP1 POP JUMP JUMPDEST PUSH0 PUSH1 0x20 DUP3 ADD SWAP1 POP DUP2 DUP2 SUB PUSH0 DUP4 ADD MSTORE PUSH2 0x37C DUP2 PUSH2 0x343 JUMP JUMPDEST SWAP1 POP SWAP2 SWAP1 POP JUMP JUMPDEST PUSH1 0x80 MLOAD PUSH1 0xA0 MLOAD PUSH2 0x1D44 PUSH2 0x3B9 PUSH0 CODECOPY PUSH0 PUSH2 0xD8A ADD MSTORE PUSH0 DUP2 DUP2 PUSH2 0x306 ADD MSTORE DUP2 DUP2 PUSH2 0x482 ADD MSTORE DUP2 DUP2 PUSH2 0x897 ADD MSTORE PUSH2 0xB5B ADD MSTORE PUSH2 0x1D44 PUSH0 RETURN INVALID PUSH1 0x80 PUSH1 0x40 MSTORE CALLVALUE DUP1 ISZERO PUSH2 0xF JUMPI PUSH0 PUSH0 REVERT JUMPDEST POP PUSH1 0x4 CALLDATASIZE LT PUSH2 0x109 JUMPI PUSH0 CALLDATALOAD PUSH1 0xE0 SHR DUP1 PUSH4 0x6C3B0C53 GT PUSH2 0xA0 JUMPI DUP1 PUSH4 0x8DA5CB5B GT PUSH2 0x6F JUMPI DUP1 PUSH4 0x8DA5CB5B EQ PUSH2 0x245 JUMPI DUP1 PUSH4 0x9F829063 EQ PUSH2 0x263 JUMPI DUP1 PUSH4 0xA8660A78 EQ PUSH2 0x293 JUMPI DUP1 PUSH4 0xF2FDE38B EQ PUSH2 0x2B1 JUMPI DUP1 PUSH4 0xFDB20CCB EQ PUSH2 0x2CD JUMPI PUSH2 0x109 JUMP JUMPDEST DUP1 PUSH4 0x6C3B0C53 EQ PUSH2 0x1F9 JUMPI DUP1 PUSH4 0x715018A6 EQ PUSH2 0x215 JUMPI DUP1 PUSH4 0x74A8F103 EQ PUSH2 0x21F JUMPI DUP1 PUSH4 0x8456CB59 EQ PUSH2 0x23B JUMPI PUSH2 0x109 JUMP JUMPDEST DUP1 PUSH4 0x2AFD1A7D GT PUSH2 0xDC JUMPI DUP1 PUSH4 0x2AFD1A7D EQ PUSH2 0x183 JUMPI DUP1 PUSH4 0x3F4BA83A EQ PUSH2 0x1B3 JUMPI DUP1 PUSH4 0x4CFC4D30 EQ PUSH2 0x1BD JUMPI DUP1 PUSH4 0x5C975ABB EQ PUSH2 0x1DB JUMPI PUSH2 0x109 JUMP JUMPDEST DUP1 PUSH4 0x10D67098 EQ PUSH2 0x10D JUMPI DUP1 PUSH4 0x19165587 EQ PUSH2 0x12B JUMPI DUP1 PUSH4 0x199CBC54 EQ PUSH2 0x147 JUMPI DUP1 PUSH4 0x1E7BACE0 EQ PUSH2 0x165 JUMPI JUMPDEST PUSH0 PUSH0 REVERT JUMPDEST PUSH2 0x115 PUSH2 0x304 JUMP JUMPDEST PUSH1 0x40 MLOAD PUSH2 0x122 SWAP2 SWAP1 PUSH2 0x1371 JUMP JUMPDEST PUSH1 0x40 MLOAD DUP1 SWAP2 SUB SWAP1 RETURN JUMPDEST PUSH2 0x145 PUSH1 0x4 DUP1 CALLDATASIZE SUB DUP2 ADD SWAP1 PUSH2 0x140 SWAP2 SWAP1 PUSH2 0x13C9 JUMP JUMPDEST PUSH2 0x328 JUMP JUMPDEST STOP JUMPDEST PUSH2 0x14F PUSH2 0x5B5 JUMP JUMPDEST PUSH1 0x40 MLOAD PUSH2 0x15C SWAP2 SWAP1 PUSH2 0x140C JUMP JUMPDEST PUSH1 0x40 MLOAD DUP1 SWAP2 SUB SWAP1 RETURN JUMPDEST PUSH2 0x16D PUSH2 0x5BB JUMP JUMPDEST PUSH1 0x40 MLOAD PUSH2 0x17A SWAP2 SWAP1 PUSH2 0x140C JUMP JUMPDEST PUSH1 0x40 MLOAD DUP1 SWAP2 SUB SWAP1 RETURN JUMPDEST PUSH2 0x19D PUSH1 0x4 DUP1 CALLDATASIZE SUB DUP2 ADD SWAP1 PUSH2 0x198 SWAP2 SWAP1 PUSH2 0x13C9 JUMP JUMPDEST PUSH2 0x5C0 JUMP JUMPDEST PUSH1 0x40 MLOAD PUSH2 0x1AA SWAP2 SWAP1 PUSH2 0x140C JUMP JUMPDEST PUSH1 0x40 MLOAD DUP1 SWAP2 SUB SWAP1 RETURN JUMPDEST PUSH2 0x1BB PUSH2 0x60D JUMP JUMPDEST STOP JUMPDEST PUSH2 0x1C5 PUSH2 0x61F JUMP JUMPDEST PUSH1 0x40 MLOAD PUSH2 0x1D2 SWAP2 SWAP1 PUSH2 0x140C JUMP JUMPDEST PUSH1 0x40 MLOAD DUP1 SWAP2 SUB SWAP1 RETURN JUMPDEST PUSH2 0x1E3 PUSH2 0x627 JUMP JUMPDEST PUSH1 0x40 MLOAD PUSH2 0x1F0 SWAP2 SWAP1 PUSH2 0x143F JUMP JUMPDEST PUSH1 0x40 MLOAD DUP1 SWAP2 SUB SWAP1 RETURN JUMPDEST PUSH2 0x213 PUSH1 0x4 DUP1 CALLDATASIZE SUB DUP2 ADD SWAP1 PUSH2 0x20E SWAP2 SWAP1 PUSH2 0x1482 JUMP JUMPDEST PUSH2 0x63D JUMP JUMPDEST STOP JUMPDEST PUSH2 0x21D PUSH2 0x9C4 JUMP JUMPDEST STOP JUMPDEST PUSH2 0x239 PUSH1 0x4 DUP1 CALLDATASIZE SUB DUP2 ADD SWAP1 PUSH2 0x234 SWAP2 SWAP1 PUSH2 0x13C9 JUMP JUMPDEST PUSH2 0x9D7 JUMP JUMPDEST STOP JUMPDEST PUSH2 0x243 PUSH2 0xC86 JUMP JUMPDEST STOP JUMPDEST PUSH2 0x24D PUSH2 0xC98 JUMP JUMPDEST PUSH1 0x40 MLOAD PUSH2 0x25A SWAP2 SWAP1 PUSH2 0x14CF JUMP JUMPDEST PUSH1 0x40 MLOAD DUP1 SWAP2 SUB SWAP1 RETURN JUMPDEST PUSH2 0x27D PUSH1 0x4 DUP1 CALLDATASIZE SUB DUP2 ADD SWAP1 PUSH2 0x278 SWAP2 SWAP1 PUSH2 0x13C9 JUMP JUMPDEST PUSH2 0xCC0 JUMP JUMPDEST PUSH1 0x40 MLOAD PUSH2 0x28A SWAP2 SWAP1 PUSH2 0x15A6 JUMP JUMPDEST PUSH1 0x40 MLOAD DUP1 SWAP2 SUB SWAP1 RETURN JUMPDEST PUSH2 0x29B PUSH2 0xD88 JUMP JUMPDEST PUSH1 0x40 MLOAD PUSH2 0x2A8 SWAP2 SWAP1 PUSH2 0x140C JUMP JUMPDEST PUSH1 0x40 MLOAD DUP1 SWAP2 SUB SWAP1 RETURN JUMPDEST PUSH2 0x2CB PUSH1 0x4 DUP1 CALLDATASIZE SUB DUP2 ADD SWAP1 PUSH2 0x2C6 SWAP2 SWAP1 PUSH2 0x13C9 JUMP JUMPDEST PUSH2 0xDAC JUMP JUMPDEST STOP JUMPDEST PUSH2 0x2E7 PUSH1 0x4 DUP1 CALLDATASIZE SUB DUP2 ADD SWAP1 PUSH2 0x2E2 SWAP2 SWAP1 PUSH2 0x13C9 JUMP JUMPDEST PUSH2 0xE30 JUMP JUMPDEST PUSH1 0x40 MLOAD PUSH2 0x2FB SWAP9 SWAP8 SWAP7 SWAP6 SWAP5 SWAP4 SWAP3 SWAP2 SWAP1 PUSH2 0x15C0 JUMP JUMPDEST PUSH1 0x40 MLOAD DUP1 SWAP2 SUB SWAP1 RETURN JUMPDEST PUSH32 0x0 DUP2 JUMP JUMPDEST PUSH2 0x330 PUSH2 0xE8D JUMP JUMPDEST PUSH2 0x338 PUSH2 0xEDA JUMP JUMPDEST PUSH0 PUSH1 0x2 PUSH0 DUP4 PUSH20 0xFFFFFFFFFFFFFFFFFFFFFFFFFFFFFFFFFFFFFFFF AND PUSH20 0xFFFFFFFFFFFFFFFFFFFFFFFFFFFFFFFFFFFFFFFF AND DUP2 MSTORE PUSH1 0x20 ADD SWAP1 DUP2 MSTORE PUSH1 0x20 ADD PUSH0 KECCAK256 SWAP1 POP PUSH0 DUP2 PUSH0 ADD SLOAD GT PUSH2 0x3BD JUMPI PUSH1 0x40 MLOAD PUSH32 0x8C379A000000000000000000000000000000000000000000000000000000000 DUP2 MSTORE PUSH1 0x4 ADD PUSH2 0x3B4 SWAP1 PUSH2 0x1696 JUMP JUMPDEST PUSH1 0x40 MLOAD DUP1 SWAP2 SUB SWAP1 REVERT JUMPDEST DUP1 PUSH1 0x5 ADD PUSH1 0x1 SWAP1 SLOAD SWAP1 PUSH2 0x100 EXP SWAP1 DIV PUSH1 0xFF AND ISZERO PUSH2 0x40F JUMPI PUSH1 0x40 MLOAD PUSH32 0x8C379A000000000000000000000000000000000000000000000000000000000 DUP2 MSTORE PUSH1 0x4 ADD PUSH2 0x406 SWAP1 PUSH2 0x16FE JUMP JUMPDEST PUSH1 0x40 MLOAD DUP1 SWAP2 SUB SWAP1 REVERT JUMPDEST PUSH0 PUSH2 0x419 DUP3 PUSH2 0xF24 JUMP JUMPDEST SWAP1 POP PUSH0 DUP2 GT PUSH2 0x45D JUMPI PUSH1 0x40 MLOAD PUSH32 0x8C379A000000000000000000000000000000000000000000000000000000000 DUP2 MSTORE PUSH1 0x4 ADD PUSH2 0x454 SWAP1 PUSH2 0x1766 JUMP JUMPDEST PUSH1 0x40 MLOAD DUP1 SWAP2 SUB SWAP1 REVERT JUMPDEST DUP1 DUP3 PUSH1 0x1 ADD PUSH0 DUP3 DUP3 SLOAD PUSH2 0x470 SWAP2 SWAP1 PUSH2 0x17B1 JUMP JUMPDEST SWAP3 POP POP DUP2 SWAP1 SSTORE POP TIMESTAMP DUP3 PUSH1 0x6 ADD DUP2 SWAP1 SSTORE POP PUSH32 0x0 PUSH20 0xFFFFFFFFFFFFFFFFFFFFFFFFFFFFFFFFFFFFFFFF AND PUSH4 0xA9059CBB DUP5 DUP4 PUSH1 0x40 MLOAD DUP4 PUSH4 0xFFFFFFFF AND PUSH1 0xE0 SHL DUP2 MSTORE PUSH1 0x4 ADD PUSH2 0x4DB SWAP3 SWAP2 SWAP1 PUSH2 0x17E4 JUMP JUMPDEST PUSH1 0x20 PUSH1 0x40 MLOAD DUP1 DUP4 SUB DUP2 PUSH0 DUP8 GAS CALL ISZERO DUP1 ISZERO PUSH2 0x4F7 JUMPI RETURNDATASIZE PUSH0 PUSH0 RETURNDATACOPY RETURNDATASIZE PUSH0 REVERT JUMPDEST POP POP POP POP PUSH1 0x40 MLOAD RETURNDATASIZE PUSH1 0x1F NOT PUSH1 0x1F DUP3 ADD AND DUP3 ADD DUP1 PUSH1 0x40 MSTORE POP DUP2 ADD SWAP1 PUSH2 0x51B SWAP2 SWAP1 PUSH2 0x1835 JUMP JUMPDEST PUSH2 0x55A JUMPI PUSH1 0x40 MLOAD PUSH32 0x8C379A000000000000000000000000000000000000000000000000000000000 DUP2 MSTORE PUSH1 0x4 ADD PUSH2 0x551 SWAP1 PUSH2 0x18AA JUMP JUMPDEST PUSH1 0x40 MLOAD DUP1 SWAP2 SUB SWAP1 REVERT JUMPDEST DUP3 PUSH20 0xFFFFFFFFFFFFFFFFFFFFFFFFFFFFFFFFFFFFFFFF AND PUSH32 0xC7798891864187665AC6DD119286E44EC13F014527AEEB2B8EB3FD413DF93179 DUP3 PUSH1 0x40 MLOAD PUSH2 0x5A0 SWAP2 SWAP1 PUSH2 0x140C JUMP JUMPDEST PUSH1 0x40 MLOAD DUP1 SWAP2 SUB SWAP1 LOG2 POP POP PUSH2 0x5B2 PUSH2 0xFFB JUMP JUMPDEST POP JUMP JUMPDEST PUSH1 0x3 SLOAD DUP2 JUMP JUMPDEST PUSH1 0x78 DUP2 JUMP JUMPDEST PUSH0 PUSH2 0x606 PUSH1 0x2 PUSH0 DUP5 PUSH20 0xFFFFFFFFFFFFFFFFFFFFFFFFFFFFFFFFFFFFFFFF AND PUSH20 0xFFFFFFFFFFFFFFFFFFFFFFFFFFFFFFFFFFFFFFFF AND DUP2 MSTORE PUSH1 0x20 ADD SWAP1 DUP2 MSTORE PUSH1 0x20 ADD PUSH0 KECCAK256 PUSH2 0xF24 JUMP JUMPDEST SWAP1 POP SWAP2 SWAP1 POP JUMP JUMPDEST PUSH2 0x615 PUSH2 0x1004 JUMP JUMPDEST PUSH2 0x61D PUSH2 0x108B JUMP JUMPDEST JUMP JUMPDEST PUSH4 0x12CC0300 DUP2 JUMP JUMPDEST PUSH0 PUSH1 0x1 PUSH1 0x14 SWAP1 SLOAD SWAP1 PUSH2 0x100 EXP SWAP1 DIV PUSH1 0xFF AND SWAP1 POP SWAP1 JUMP JUMPDEST PUSH2 0x645 PUSH2 0x1004 JUMP JUMPDEST PUSH2 0x64D PUSH2 0xEDA JUMP JUMPDEST PUSH0 PUSH20 0xFFFFFFFFFFFFFFFFFFFFFFFFFFFFFFFFFFFFFFFF AND DUP3 PUSH20 0xFFFFFFFFFFFFFFFFFFFFFFFFFFFFFFFFFFFFFFFF AND SUB PUSH2 0x6BB JUMPI PUSH1 0x40 MLOAD PUSH32 0x8C379A000000000000000000000000000000000000000000000000000000000 DUP2 MSTORE PUSH1 0x4 ADD PUSH2 0x6B2 SWAP1 PUSH2 0x1912 JUMP JUMPDEST PUSH1 0x40 MLOAD DUP1 SWAP2 SUB SWAP1 REVERT JUMPDEST PUSH0 DUP2 GT PUSH2 0x6FD JUMPI PUSH1 0x40 MLOAD PUSH32 0x8C379A000000000000000000000000000000000000000000000000000000000 DUP2 MSTORE PUSH1 0x4 ADD PUSH2 0x6F4 SWAP1 PUSH2 0x197A JUMP JUMPDEST PUSH1 0x40 MLOAD DUP1 SWAP2 SUB SWAP1 REVERT JUMPDEST PUSH0 PUSH1 0x2 PUSH0 DUP5 PUSH20 0xFFFFFFFFFFFFFFFFFFFFFFFFFFFFFFFFFFFFFFFF AND PUSH20 0xFFFFFFFFFFFFFFFFFFFFFFFFFFFFFFFFFFFFFFFF AND DUP2 MSTORE PUSH1 0x20 ADD SWAP1 DUP2 MSTORE PUSH1 0x20 ADD PUSH0 KECCAK256 PUSH0 ADD SLOAD EQ PUSH2 0x77E JUMPI PUSH1 0x40 MLOAD PUSH32 0x8C379A000000000000000000000000000000000000000000000000000000000 DUP2 MSTORE PUSH1 0x4 ADD PUSH2 0x775 SWAP1 PUSH2 0x19E2 JUMP JUMPDEST PUSH1 0x40 MLOAD DUP1 SWAP2 SUB SWAP1 REVERT JUMPDEST PUSH0 PUSH1 0x40 MLOAD DUP1 PUSH2 0x100 ADD PUSH1 0x40 MSTORE DUP1 DUP4 DUP2 MSTORE PUSH1 0x20 ADD PUSH0 DUP2 MSTORE PUSH1 0x20 ADD TIMESTAMP DUP2 MSTORE PUSH1 0x20 ADD PUSH4 0x12CC0300 DUP2 MSTORE PUSH1 0x20 ADD PUSH0 DUP2 MSTORE PUSH1 0x20 ADD PUSH0 ISZERO ISZERO DUP2 MSTORE PUSH1 0x20 ADD PUSH0 ISZERO ISZERO DUP2 MSTORE PUSH1 0x20 ADD TIMESTAMP DUP2 MSTORE POP SWAP1 POP DUP1 PUSH1 0x2 PUSH0 DUP6 PUSH20 0xFFFFFFFFFFFFFFFFFFFFFFFFFFFFFFFFFFFFFFFF AND PUSH20 0xFFFFFFFFFFFFFFFFFFFFFFFFFFFFFFFFFFFFFFFF AND DUP2 MSTORE PUSH1 0x20 ADD SWAP1 DUP2 MSTORE PUSH1 0x20 ADD PUSH0 KECCAK256 PUSH0 DUP3 ADD MLOAD DUP2 PUSH0 ADD SSTORE PUSH1 0x20 DUP3 ADD MLOAD DUP2 PUSH1 0x1 ADD SSTORE PUSH1 0x40 DUP3 ADD MLOAD DUP2 PUSH1 0x2 ADD SSTORE PUSH1 0x60 DUP3 ADD MLOAD DUP2 PUSH1 0x3 ADD SSTORE PUSH1 0x80 DUP3 ADD MLOAD DUP2 PUSH1 0x4 ADD SSTORE PUSH1 0xA0 DUP3 ADD MLOAD DUP2 PUSH1 0x5 ADD PUSH0 PUSH2 0x100 EXP DUP2 SLOAD DUP2 PUSH1 0xFF MUL NOT AND SWAP1 DUP4 ISZERO ISZERO MUL OR SWAP1 SSTORE POP PUSH1 0xC0 DUP3 ADD MLOAD DUP2 PUSH1 0x5 ADD PUSH1 0x1 PUSH2 0x100 EXP DUP2 SLOAD DUP2 PUSH1 0xFF MUL NOT AND SWAP1 DUP4 ISZERO ISZERO MUL OR SWAP1 SSTORE POP PUSH1 0xE0 DUP3 ADD MLOAD DUP2 PUSH1 0x6 ADD SSTORE SWAP1 POP POP DUP2 PUSH1 0x3 PUSH0 DUP3 DUP3 SLOAD PUSH2 0x88E SWAP2 SWAP1 PUSH2 0x17B1 JUMP JUMPDEST SWAP3 POP POP DUP2 SWAP1 SSTORE POP PUSH32 0x0 PUSH20 0xFFFFFFFFFFFFFFFFFFFFFFFFFFFFFFFFFFFFFFFF AND PUSH4 0x23B872DD CALLER ADDRESS DUP6 PUSH1 0x40 MLOAD DUP5 PUSH4 0xFFFFFFFF AND PUSH1 0xE0 SHL DUP2 MSTORE PUSH1 0x4 ADD PUSH2 0x8F2 SWAP4 SWAP3 SWAP2 SWAP1 PUSH2 0x1A00 JUMP JUMPDEST PUSH1 0x20 PUSH1 0x40 MLOAD DUP1 DUP4 SUB DUP2 PUSH0 DUP8 GAS CALL ISZERO DUP1 ISZERO PUSH2 0x90E JUMPI RETURNDATASIZE PUSH0 PUSH0 RETURNDATACOPY RETURNDATASIZE PUSH0 REVERT JUMPDEST POP POP POP POP PUSH1 0x40 MLOAD RETURNDATASIZE PUSH1 0x1F NOT PUSH1 0x1F DUP3 ADD AND DUP3 ADD DUP1 PUSH1 0x40 MSTORE POP DUP2 ADD SWAP1 PUSH2 0x932 SWAP2 SWAP1 PUSH2 0x1835 JUMP JUMPDEST PUSH2 0x971 JUMPI PUSH1 0x40 MLOAD PUSH32 0x8C379A000000000000000000000000000000000000000000000000000000000 DUP2 MSTORE PUSH1 0x4 ADD PUSH2 0x968 SWAP1 PUSH2 0x18AA JUMP JUMPDEST PUSH1 0x40 MLOAD DUP1 SWAP2 SUB SWAP1 REVERT JUMPDEST DUP3 PUSH20 0xFFFFFFFFFFFFFFFFFFFFFFFFFFFFFFFFFFFFFFFF AND PUSH32 0x969705509595726740FE60CC30769BBD53C883EFFF4D8E70108A82817E0392A9 DUP4 PUSH1 0x40 MLOAD PUSH2 0x9B7 SWAP2 SWAP1 PUSH2 0x140C JUMP JUMPDEST PUSH1 0x40 MLOAD DUP1 SWAP2 SUB SWAP1 LOG2 POP POP POP JUMP JUMPDEST PUSH2 0x9CC PUSH2 0x1004 JUMP JUMPDEST PUSH2 0x9D5 PUSH0 PUSH2 0x10ED JUMP JUMPDEST JUMP JUMPDEST PUSH2 0x9DF PUSH2 0x1004 JUMP JUMPDEST PUSH2 0x9E7 PUSH2 0xEDA JUMP JUMPDEST PUSH0 PUSH1 0x2 PUSH0 DUP4 PUSH20 0xFFFFFFFFFFFFFFFFFFFFFFFFFFFFFFFFFFFFFFFF AND PUSH20 0xFFFFFFFFFFFFFFFFFFFFFFFFFFFFFFFFFFFFFFFF AND DUP2 MSTORE PUSH1 0x20 ADD SWAP1 DUP2 MSTORE PUSH1 0x20 ADD PUSH0 KECCAK256 SWAP1 POP PUSH0 DUP2 PUSH0 ADD SLOAD GT PUSH2 0xA6C JUMPI PUSH1 0x40 MLOAD PUSH32 0x8C379A000000000000000000000000000000000000000000000000000000000 DUP2 MSTORE PUSH1 0x4 ADD PUSH2 0xA63 SWAP1 PUSH2 0x1696 JUMP JUMPDEST PUSH1 0x40 MLOAD DUP1 SWAP2 SUB SWAP1 REVERT JUMPDEST DUP1 PUSH1 0x5 ADD PUSH0 SWAP1 SLOAD SWAP1 PUSH2 0x100 EXP SWAP1 DIV PUSH1 0xFF AND PUSH2 0xABC JUMPI PUSH1 0x40 MLOAD PUSH32 0x8C379A000000000000000000000000000000000000000000000000000000000 DUP2 MSTORE PUSH1 0x4 ADD PUSH2 0xAB3 SWAP1 PUSH2 0x1A7F JUMP JUMPDEST PUSH1 0x40 MLOAD DUP1 SWAP2 SUB SWAP1 REVERT JUMPDEST DUP1 PUSH1 0x5 ADD PUSH1 0x1 SWAP1 SLOAD SWAP1 PUSH2 0x100 EXP SWAP1 DIV PUSH1 0xFF AND ISZERO PUSH2 0xB0E JUMPI PUSH1 0x40 MLOAD PUSH32 0x8C379A000000000000000000000000000000000000000000000000000000000 DUP2 MSTORE PUSH1 0x4 ADD PUSH2 0xB05 SWAP1 PUSH2 0x1AE7 JUMP JUMPDEST PUSH1 0x40 MLOAD DUP1 SWAP2 SUB SWAP1 REVERT JUMPDEST PUSH0 DUP2 PUSH1 0x1 ADD SLOAD DUP3 PUSH0 ADD SLOAD PUSH2 0xB22 SWAP2 SWAP1 PUSH2 0x1B05 JUMP JUMPDEST SWAP1 POP PUSH1 0x1 DUP3 PUSH1 0x5 ADD PUSH1 0x1 PUSH2 0x100 EXP DUP2 SLOAD DUP2 PUSH1 0xFF MUL NOT AND SWAP1 DUP4 ISZERO ISZERO MUL OR SWAP1 SSTORE POP DUP1 PUSH1 0x3 PUSH0 DUP3 DUP3 SLOAD PUSH2 0xB52 SWAP2 SWAP1 PUSH2 0x1B05 JUMP JUMPDEST SWAP3 POP POP DUP2 SWAP1 SSTORE POP PUSH32 0x0 PUSH20 0xFFFFFFFFFFFFFFFFFFFFFFFFFFFFFFFFFFFFFFFF AND PUSH4 0xA9059CBB CALLER DUP4 PUSH1 0x40 MLOAD DUP4 PUSH4 0xFFFFFFFF AND PUSH1 0xE0 SHL DUP2 MSTORE PUSH1 0x4 ADD PUSH2 0xBB4 SWAP3 SWAP2 SWAP1 PUSH2 0x17E4 JUMP JUMPDEST PUSH1 0x20 PUSH1 0x40 MLOAD DUP1 DUP4 SUB DUP2 PUSH0 DUP8 GAS CALL ISZERO DUP1 ISZERO PUSH2 0xBD0 JUMPI RETURNDATASIZE PUSH0 PUSH0 RETURNDATACOPY RETURNDATASIZE PUSH0 REVERT JUMPDEST POP POP POP POP PUSH1 0x40 MLOAD RETURNDATASIZE PUSH1 0x1F NOT PUSH1 0x1F DUP3 ADD AND DUP3 ADD DUP1 PUSH1 0x40 MSTORE POP DUP2 ADD SWAP1 PUSH2 0xBF4 SWAP2 SWAP1 PUSH2 0x1835 JUMP JUMPDEST PUSH2 0xC33 JUMPI PUSH1 0x40 MLOAD PUSH32 0x8C379A000000000000000000000000000000000000000000000000000000000 DUP2 MSTORE PUSH1 0x4 ADD PUSH2 0xC2A SWAP1 PUSH2 0x18AA JUMP JUMPDEST PUSH1 0x40 MLOAD DUP1 SWAP2 SUB SWAP1 REVERT JUMPDEST DUP3 PUSH20 0xFFFFFFFFFFFFFFFFFFFFFFFFFFFFFFFFFFFFFFFF AND PUSH32 0x57C76F5E278BFBD4EEB5207D287AA5A1A9E1113C65F7EEFA540E379A2774D13B DUP3 PUSH1 0x40 MLOAD PUSH2 0xC79 SWAP2 SWAP1 PUSH2 0x140C JUMP JUMPDEST PUSH1 0x40 MLOAD DUP1 SWAP2 SUB SWAP1 LOG2 POP POP POP JUMP JUMPDEST PUSH2 0xC8E PUSH2 0x1004 JUMP JUMPDEST PUSH2 0xC96 PUSH2 0x11B0 JUMP JUMPDEST JUMP JUMPDEST PUSH0 PUSH1 0x1 PUSH0 SWAP1 SLOAD SWAP1 PUSH2 0x100 EXP SWAP1 DIV PUSH20 0xFFFFFFFFFFFFFFFFFFFFFFFFFFFFFFFFFFFFFFFF AND SWAP1 POP SWAP1 JUMP JUMPDEST PUSH2 0xCC8 PUSH2 0x12B6 JUMP JUMPDEST PUSH1 0x2 PUSH0 DUP4 PUSH20 0xFFFFFFFFFFFFFFFFFFFFFFFFFFFFFFFFFFFFFFFF AND PUSH20 0xFFFFFFFFFFFFFFFFFFFFFFFFFFFFFFFFFFFFFFFF AND DUP2 MSTORE PUSH1 0x20 ADD SWAP1 DUP2 MSTORE PUSH1 0x20 ADD PUSH0 KECCAK256 PUSH1 0x40 MLOAD DUP1 PUSH2 0x100 ADD PUSH1 0x40 MSTORE SWAP1 DUP2 PUSH0 DUP3 ADD SLOAD DUP2 MSTORE PUSH1 0x20 ADD PUSH1 0x1 DUP3 ADD SLOAD DUP2 MSTORE PUSH1 0x20 ADD PUSH1 0x2 DUP3 ADD SLOAD DUP2 MSTORE PUSH1 0x20 ADD PUSH1 0x3 DUP3 ADD SLOAD DUP2 MSTORE PUSH1 0x20 ADD PUSH1 0x4 DUP3 ADD SLOAD DUP2 MSTORE PUSH1 0x20 ADD PUSH1 0x5 DUP3 ADD PUSH0 SWAP1 SLOAD SWAP1 PUSH2 0x100 EXP SWAP1 DIV PUSH1 0xFF AND ISZERO ISZERO ISZERO ISZERO DUP2 MSTORE PUSH1 0x20 ADD PUSH1 0x5 DUP3 ADD PUSH1 0x1 SWAP1 SLOAD SWAP1 PUSH2 0x100 EXP SWAP1 DIV PUSH1 0xFF AND ISZERO ISZERO ISZERO ISZERO DUP2 MSTORE PUSH1 0x20 ADD PUSH1 0x6 DUP3 ADD SLOAD DUP2 MSTORE POP POP SWAP1 POP SWAP2 SWAP1 POP JUMP JUMPDEST PUSH32 0x0 DUP2 JUMP JUMPDEST PUSH2 0xDB4 PUSH2 0x1004 JUMP JUMPDEST PUSH0 PUSH20 0xFFFFFFFFFFFFFFFFFFFFFFFFFFFFFFFFFFFFFFFF AND DUP2 PUSH20 0xFFFFFFFFFFFFFFFFFFFFFFFFFFFFFFFFFFFFFFFF AND SUB PUSH2 0xE24 JUMPI PUSH0 PUSH1 0x40 MLOAD PUSH32 0x1E4FBDF700000000000000000000000000000000000000000000000000000000 DUP2 MSTORE PUSH1 0x4 ADD PUSH2 0xE1B SWAP2 SWAP1 PUSH2 0x14CF JUMP JUMPDEST PUSH1 0x40 MLOAD DUP1 SWAP2 SUB SWAP1 REVERT JUMPDEST PUSH2 0xE2D DUP2 PUSH2 0x10ED JUMP JUMPDEST POP JUMP JUMPDEST PUSH1 0x2 PUSH1 0x20 MSTORE DUP1 PUSH0 MSTORE PUSH1 0x40 PUSH0 KECCAK256 PUSH0 SWAP2 POP SWAP1 POP DUP1 PUSH0 ADD SLOAD SWAP1 DUP1 PUSH1 0x1 ADD SLOAD SWAP1 DUP1 PUSH1 0x2 ADD SLOAD SWAP1 DUP1 PUSH1 0x3 ADD SLOAD SWAP1 DUP1 PUSH1 0x4 ADD SLOAD SWAP1 DUP1 PUSH1 0x5 ADD PUSH0 SWAP1 SLOAD SWAP1 PUSH2 0x100 EXP SWAP1 DIV PUSH1 0xFF AND SWAP1 DUP1 PUSH1 0x5 ADD PUSH1 0x1 SWAP1 SLOAD SWAP1 PUSH2 0x100 EXP SWAP1 DIV PUSH1 0xFF AND SWAP1 DUP1 PUSH1 0x6 ADD SLOAD SWAP1 POP DUP9 JUMP JUMPDEST PUSH1 0x2 PUSH0 SLOAD SUB PUSH2 0xED1 JUMPI PUSH1 0x40 MLOAD PUSH32 0x8C379A000000000000000000000000000000000000000000000000000000000 DUP2 MSTORE PUSH1 0x4 ADD PUSH2 0xEC8 SWAP1 PUSH2 0x1B82 JUMP JUMPDEST PUSH1 0x40 MLOAD DUP1 SWAP2 SUB SWAP1 REVERT JUMPDEST PUSH1 0x2 PUSH0 DUP2 SWAP1 SSTORE POP JUMP JUMPDEST PUSH2 0xEE2 PUSH2 0x627 JUMP JUMPDEST ISZERO PUSH2 0xF22 JUMPI PUSH1 0x40 MLOAD PUSH32 0x8C379A000000000000000000000000000000000000000000000000000000000 DUP2 MSTORE PUSH1 0x4 ADD PUSH2 0xF19 SWAP1 PUSH2 0x1BEA JUMP JUMPDEST PUSH1 0x40 MLOAD DUP1 SWAP2 SUB SWAP1 REVERT JUMPDEST JUMP JUMPDEST PUSH0 PUSH2 0xF40 DUP3 PUSH1 0x4 ADD SLOAD DUP4 PUSH1 0x2 ADD SLOAD PUSH2 0x1212 SWAP1 SWAP2 SWAP1 PUSH4 0xFFFFFFFF AND JUMP JUMPDEST TIMESTAMP LT ISZERO PUSH2 0xF4F JUMPI PUSH0 SWAP1 POP PUSH2 0xFF6 JUMP JUMPDEST PUSH2 0xF6A DUP3 PUSH1 0x3 ADD SLOAD DUP4 PUSH1 0x2 ADD SLOAD PUSH2 0x1212 SWAP1 SWAP2 SWAP1 PUSH4 0xFFFFFFFF AND JUMP JUMPDEST TIMESTAMP LT PUSH2 0xF91 JUMPI PUSH2 0xF8A DUP3 PUSH1 0x1 ADD SLOAD DUP4 PUSH0 ADD SLOAD PUSH2 0x1227 SWAP1 SWAP2 SWAP1 PUSH4 0xFFFFFFFF AND JUMP JUMPDEST SWAP1 POP PUSH2 0xFF6 JUMP JUMPDEST PUSH0 PUSH2 0xFA9 DUP4 PUSH1 0x2 ADD SLOAD TIMESTAMP PUSH2 0x1227 SWAP1 SWAP2 SWAP1 PUSH4 0xFFFFFFFF AND JUMP JUMPDEST SWAP1 POP PUSH0 PUSH2 0xFD8 DUP5 PUSH1 0x3 ADD SLOAD PUSH2 0xFCA DUP5 DUP8 PUSH0 ADD SLOAD PUSH2 0x123C SWAP1 SWAP2 SWAP1 PUSH4 0xFFFFFFFF AND JUMP JUMPDEST PUSH2 0x1251 SWAP1 SWAP2 SWAP1 PUSH4 0xFFFFFFFF AND JUMP JUMPDEST SWAP1 POP PUSH2 0xFF1 DUP5 PUSH1 0x1 ADD SLOAD DUP3 PUSH2 0x1227 SWAP1 SWAP2 SWAP1 PUSH4 0xFFFFFFFF AND JUMP JUMPDEST SWAP3 POP POP POP JUMPDEST SWAP2 SWAP1 POP JUMP JUMPDEST PUSH1 0x1 PUSH0 DUP2 SWAP1 SSTORE POP JUMP JUMPDEST PUSH2 0x100C PUSH2 0x1266 JUMP JUMPDEST PUSH20 0xFFFFFFFFFFFFFFFFFFFFFFFFFFFFFFFFFFFFFFFF AND PUSH2 0x102A PUSH2 0xC98 JUMP JUMPDEST PUSH20 0xFFFFFFFFFFFFFFFFFFFFFFFFFFFFFFFFFFFFFFFF AND EQ PUSH2 0x1089 JUMPI PUSH2 0x104D PUSH2 0x1266 JUMP JUMPDEST PUSH1 0x40 MLOAD PUSH32 0x118CDAA700000000000000000000000000000000000000000000000000000000 DUP2 MSTORE PUSH1 0x4 ADD PUSH2 0x1080 SWAP2 SWAP1 PUSH2 0x14CF JUMP JUMPDEST PUSH1 0x40 MLOAD DUP1 SWAP2 SUB SWAP1 REVERT JUMPDEST JUMP JUMPDEST PUSH2 0x1093 PUSH2 0x126D JUMP JUMPDEST PUSH0 PUSH1 0x1 PUSH1 0x14 PUSH2 0x100 EXP DUP2 SLOAD DUP2 PUSH1 0xFF MUL NOT AND SWAP1 DUP4 ISZERO ISZERO MUL OR SWAP1 SSTORE POP PUSH32 0x5DB9EE0A495BF2E6FF9C91A7834C1BA4FDD244A5E8AA4E537BD38AEAE4B073AA PUSH2 0x10D6 PUSH2 0x1266 JUMP JUMPDEST PUSH1 0x40 MLOAD PUSH2 0x10E3 SWAP2 SWAP1 PUSH2 0x14CF JUMP JUMPDEST PUSH1 0x40 MLOAD DUP1 SWAP2 SUB SWAP1 LOG1 JUMP JUMPDEST PUSH0 PUSH1 0x1 PUSH0 SWAP1 SLOAD SWAP1 PUSH2 0x100 EXP SWAP1 DIV PUSH20 0xFFFFFFFFFFFFFFFFFFFFFFFFFFFFFFFFFFFFFFFF AND SWAP1 POP DUP2 PUSH1 0x1 PUSH0 PUSH2 0x100 EXP DUP2 SLOAD DUP2 PUSH20 0xFFFFFFFFFFFFFFFFFFFFFFFFFFFFFFFFFFFFFFFF MUL NOT AND SWAP1 DUP4 PUSH20 0xFFFFFFFFFFFFFFFFFFFFFFFFFFFFFFFFFFFFFFFF AND MUL OR SWAP1 SSTORE POP DUP2 PUSH20 0xFFFFFFFFFFFFFFFFFFFFFFFFFFFFFFFFFFFFFFFF AND DUP2 PUSH20 0xFFFFFFFFFFFFFFFFFFFFFFFFFFFFFFFFFFFFFFFF AND PUSH32 0x8BE0079C531659141344CD1FD0A4F28419497F9722A3DAAFE3B4186F6B6457E0 PUSH1 0x40 MLOAD PUSH1 0x40 MLOAD DUP1 SWAP2 SUB SWAP1 LOG3 POP POP JUMP JUMPDEST PUSH2 0x11B8 PUSH2 0xEDA JUMP JUMPDEST PUSH1 0x1 DUP1 PUSH1 0x14 PUSH2 0x100 EXP DUP2 SLOAD DUP2 PUSH1 0xFF MUL NOT AND SWAP1 DUP4 ISZERO ISZERO MUL OR SWAP1 SSTORE POP PUSH32 0x62E78CEA01BEE320CD4E420270B5EA74000D11B0C9F74754EBDBFC544B05A258 PUSH2 0x11FB PUSH2 0x1266 JUMP JUMPDEST PUSH1 0x40 MLOAD PUSH2 0x1208 SWAP2 SWAP1 PUSH2 0x14CF JUMP JUMPDEST PUSH1 0x40 MLOAD DUP1 SWAP2 SUB SWAP1 LOG1 JUMP JUMPDEST PUSH0 DUP2 DUP4 PUSH2 0x121F SWAP2 SWAP1 PUSH2 0x17B1 JUMP JUMPDEST SWAP1 POP SWAP3 SWAP2 POP POP JUMP JUMPDEST PUSH0 DUP2 DUP4 PUSH2 0x1234 SWAP2 SWAP1 PUSH2 0x1B05 JUMP JUMPDEST SWAP1 POP SWAP3 SWAP2 POP POP JUMP JUMPDEST PUSH0 DUP2 DUP4 PUSH2 0x1249 SWAP2 SWAP1 PUSH2 0x1C08 JUMP JUMPDEST SWAP1 POP SWAP3 SWAP2 POP POP JUMP JUMPDEST PUSH0 DUP2 DUP4 PUSH2 0x125E SWAP2 SWAP1 PUSH2 0x1C76 JUMP JUMPDEST SWAP1 POP SWAP3 SWAP2 POP POP JUMP JUMPDEST PUSH0 CALLER SWAP1 POP SWAP1 JUMP JUMPDEST PUSH2 0x1275 PUSH2 0x627 JUMP JUMPDEST PUSH2 0x12B4 JUMPI PUSH1 0x40 MLOAD PUSH32 0x8C379A000000000000000000000000000000000000000000000000000000000 DUP2 MSTORE PUSH1 0x4 ADD PUSH2 0x12AB SWAP1 PUSH2 0x1CF0 JUMP JUMPDEST PUSH1 0x40 MLOAD DUP1 SWAP2 SUB SWAP1 REVERT JUMPDEST JUMP JUMPDEST PUSH1 0x40 MLOAD DUP1 PUSH2 0x100 ADD PUSH1 0x40 MSTORE DUP1 PUSH0 DUP2 MSTORE PUSH1 0x20 ADD PUSH0 DUP2 MSTORE PUSH1 0x20 ADD PUSH0 DUP2 MSTORE PUSH1 0x20 ADD PUSH0 DUP2 MSTORE PUSH1 0x20 ADD PUSH0 DUP2 MSTORE PUSH1 0x20 ADD PUSH0 ISZERO ISZERO DUP2 MSTORE PUSH1 0x20 ADD PUSH0 ISZERO ISZERO DUP2 MSTORE PUSH1 0x20 ADD PUSH0 DUP2 MSTORE POP SWAP1 JUMP JUMPDEST PUSH0 PUSH20 0xFFFFFFFFFFFFFFFFFFFFFFFFFFFFFFFFFFFFFFFF DUP3 AND SWAP1 POP SWAP2 SWAP1 POP JUMP JUMPDEST PUSH0 DUP2 SWAP1 POP SWAP2 SWAP1 POP JUMP JUMPDEST PUSH0 PUSH2 0x1339 PUSH2 0x1334 PUSH2 0x132F DUP5 PUSH2 0x12F7 JUMP JUMPDEST PUSH2 0x1316 JUMP JUMPDEST PUSH2 0x12F7 JUMP JUMPDEST SWAP1 POP SWAP2 SWAP1 POP JUMP JUMPDEST PUSH0 PUSH2 0x134A DUP3 PUSH2 0x131F JUMP JUMPDEST SWAP1 POP SWAP2 SWAP1 POP JUMP JUMPDEST PUSH0 PUSH2 0x135B DUP3 PUSH2 0x1340 JUMP JUMPDEST SWAP1 POP SWAP2 SWAP1 POP JUMP JUMPDEST PUSH2 0x136B DUP2 PUSH2 0x1351 JUMP JUMPDEST DUP3 MSTORE POP POP JUMP JUMPDEST PUSH0 PUSH1 0x20 DUP3 ADD SWAP1 POP PUSH2 0x1384 PUSH0 DUP4 ADD DUP5 PUSH2 0x1362 JUMP JUMPDEST SWAP3 SWAP2 POP POP JUMP JUMPDEST PUSH0 PUSH0 REVERT JUMPDEST PUSH0 PUSH2 0x1398 DUP3 PUSH2 0x12F7 JUMP JUMPDEST SWAP1 POP SWAP2 SWAP1 POP JUMP JUMPDEST PUSH2 0x13A8 DUP2 PUSH2 0x138E JUMP JUMPDEST DUP2 EQ PUSH2 0x13B2 JUMPI PUSH0 PUSH0 REVERT JUMPDEST POP JUMP JUMPDEST PUSH0 DUP2 CALLDATALOAD SWAP1 POP PUSH2 0x13C3 DUP2 PUSH2 0x139F JUMP JUMPDEST SWAP3 SWAP2 POP POP JUMP JUMPDEST PUSH0 PUSH1 0x20 DUP3 DUP5 SUB SLT ISZERO PUSH2 0x13DE JUMPI PUSH2 0x13DD PUSH2 0x138A JUMP JUMPDEST JUMPDEST PUSH0 PUSH2 0x13EB DUP5 DUP3 DUP6 ADD PUSH2 0x13B5 JUMP JUMPDEST SWAP2 POP POP SWAP3 SWAP2 POP POP JUMP JUMPDEST PUSH0 DUP2 SWAP1 POP SWAP2 SWAP1 POP JUMP JUMPDEST PUSH2 0x1406 DUP2 PUSH2 0x13F4 JUMP JUMPDEST DUP3 MSTORE POP POP JUMP JUMPDEST PUSH0 PUSH1 0x20 DUP3 ADD SWAP1 POP PUSH2 0x141F PUSH0 DUP4 ADD DUP5 PUSH2 0x13FD JUMP JUMPDEST SWAP3 SWAP2 POP POP JUMP JUMPDEST PUSH0 DUP2 ISZERO ISZERO SWAP1 POP SWAP2 SWAP1 POP JUMP JUMPDEST PUSH2 0x1439 DUP2 PUSH2 0x1425 JUMP JUMPDEST DUP3 MSTORE POP POP JUMP JUMPDEST PUSH0 PUSH1 0x20 DUP3 ADD SWAP1 POP PUSH2 0x1452 PUSH0 DUP4 ADD DUP5 PUSH2 0x1430 JUMP JUMPDEST SWAP3 SWAP2 POP POP JUMP JUMPDEST PUSH2 0x1461 DUP2 PUSH2 0x13F4 JUMP JUMPDEST DUP2 EQ PUSH2 0x146B JUMPI PUSH0 PUSH0 REVERT JUMPDEST POP JUMP JUMPDEST PUSH0 DUP2 CALLDATALOAD SWAP1 POP PUSH2 0x147C DUP2 PUSH2 0x1458 JUMP JUMPDEST SWAP3 SWAP2 POP POP JUMP JUMPDEST PUSH0 PUSH0 PUSH1 0x40 DUP4 DUP6 SUB SLT ISZERO PUSH2 0x1498 JUMPI PUSH2 0x1497 PUSH2 0x138A JUMP JUMPDEST JUMPDEST PUSH0 PUSH2 0x14A5 DUP6 DUP3 DUP7 ADD PUSH2 0x13B5 JUMP JUMPDEST SWAP3 POP POP PUSH1 0x20 PUSH2 0x14B6 DUP6 DUP3 DUP7 ADD PUSH2 0x146E JUMP JUMPDEST SWAP2 POP POP SWAP3 POP SWAP3 SWAP1 POP JUMP JUMPDEST PUSH2 0x14C9 DUP2 PUSH2 0x138E JUMP JUMPDEST DUP3 MSTORE POP POP JUMP JUMPDEST PUSH0 PUSH1 0x20 DUP3 ADD SWAP1 POP PUSH2 0x14E2 PUSH0 DUP4 ADD DUP5 PUSH2 0x14C0 JUMP JUMPDEST SWAP3 SWAP2 POP POP JUMP JUMPDEST PUSH2 0x14F1 DUP2 PUSH2 0x13F4 JUMP JUMPDEST DUP3 MSTORE POP POP JUMP JUMPDEST PUSH2 0x1500 DUP2 PUSH2 0x1425 JUMP JUMPDEST DUP3 MSTORE POP POP JUMP JUMPDEST PUSH2 0x100 DUP3 ADD PUSH0 DUP3 ADD MLOAD PUSH2 0x151B PUSH0 DUP6 ADD DUP3 PUSH2 0x14E8 JUMP JUMPDEST POP PUSH1 0x20 DUP3 ADD MLOAD PUSH2 0x152E PUSH1 0x20 DUP6 ADD DUP3 PUSH2 0x14E8 JUMP JUMPDEST POP PUSH1 0x40 DUP3 ADD MLOAD PUSH2 0x1541 PUSH1 0x40 DUP6 ADD DUP3 PUSH2 0x14E8 JUMP JUMPDEST POP PUSH1 0x60 DUP3 ADD MLOAD PUSH2 0x1554 PUSH1 0x60 DUP6 ADD DUP3 PUSH2 0x14E8 JUMP JUMPDEST POP PUSH1 0x80 DUP3 ADD MLOAD PUSH2 0x1567 PUSH1 0x80 DUP6 ADD DUP3 PUSH2 0x14E8 JUMP JUMPDEST POP PUSH1 0xA0 DUP3 ADD MLOAD PUSH2 0x157A PUSH1 0xA0 DUP6 ADD DUP3 PUSH2 0x14F7 JUMP JUMPDEST POP PUSH1 0xC0 DUP3 ADD MLOAD PUSH2 0x158D PUSH1 0xC0 DUP6 ADD DUP3 PUSH2 0x14F7 JUMP JUMPDEST POP PUSH1 0xE0 DUP3 ADD MLOAD PUSH2 0x15A0 PUSH1 0xE0 DUP6 ADD DUP3 PUSH2 0x14E8 JUMP JUMPDEST POP POP POP POP JUMP JUMPDEST PUSH0 PUSH2 0x100 DUP3 ADD SWAP1 POP PUSH2 0x15BA PUSH0 DUP4 ADD DUP5 PUSH2 0x1506 JUMP JUMPDEST SWAP3 SWAP2 POP POP JUMP JUMPDEST PUSH0 PUSH2 0x100 DUP3 ADD SWAP1 POP PUSH2 0x15D4 PUSH0 DUP4 ADD DUP12 PUSH2 0x13FD JUMP JUMPDEST PUSH2 0x15E1 PUSH1 0x20 DUP4 ADD DUP11 PUSH2 0x13FD JUMP JUMPDEST PUSH2 0x15EE PUSH1 0x40 DUP4 ADD DUP10 PUSH2 0x13FD JUMP JUMPDEST PUSH2 0x15FB PUSH1 0x60 DUP4 ADD DUP9 PUSH2 0x13FD JUMP JUMPDEST PUSH2 0x1608 PUSH1 0x80 DUP4 ADD DUP8 PUSH2 0x13FD JUMP JUMPDEST PUSH2 0x1615 PUSH1 0xA0 DUP4 ADD DUP7 PUSH2 0x1430 JUMP JUMPDEST PUSH2 0x1622 PUSH1 0xC0 DUP4 ADD DUP6 PUSH2 0x1430 JUMP JUMPDEST PUSH2 0x162F PUSH1 0xE0 DUP4 ADD DUP5 PUSH2 0x13FD JUMP JUMPDEST SWAP10 SWAP9 POP POP POP POP POP POP POP POP POP JUMP JUMPDEST PUSH0 DUP3 DUP3 MSTORE PUSH1 0x20 DUP3 ADD SWAP1 POP SWAP3 SWAP2 POP POP JUMP JUMPDEST PUSH32 0x4E6F2076657374696E67207363686564756C6500000000000000000000000000 PUSH0 DUP3 ADD MSTORE POP JUMP JUMPDEST PUSH0 PUSH2 0x1680 PUSH1 0x13 DUP4 PUSH2 0x163C JUMP JUMPDEST SWAP2 POP PUSH2 0x168B DUP3 PUSH2 0x164C JUMP JUMPDEST PUSH1 0x20 DUP3 ADD SWAP1 POP SWAP2 SWAP1 POP JUMP JUMPDEST PUSH0 PUSH1 0x20 DUP3 ADD SWAP1 POP DUP2 DUP2 SUB PUSH0 DUP4 ADD MSTORE PUSH2 0x16AD DUP2 PUSH2 0x1674 JUMP JUMPDEST SWAP1 POP SWAP2 SWAP1 POP JUMP JUMPDEST PUSH32 0x5363686564756C65207265766F6B656400000000000000000000000000000000 PUSH0 DUP3 ADD MSTORE POP JUMP JUMPDEST PUSH0 PUSH2 0x16E8 PUSH1 0x10 DUP4 PUSH2 0x163C JUMP JUMPDEST SWAP2 POP PUSH2 0x16F3 DUP3 PUSH2 0x16B4 JUMP JUMPDEST PUSH1 0x20 DUP3 ADD SWAP1 POP SWAP2 SWAP1 POP JUMP JUMPDEST PUSH0 PUSH1 0x20 DUP3 ADD SWAP1 POP DUP2 DUP2 SUB PUSH0 DUP4 ADD MSTORE PUSH2 0x1715 DUP2 PUSH2 0x16DC JUMP JUMPDEST SWAP1 POP SWAP2 SWAP1 POP JUMP JUMPDEST PUSH32 0x4E6F20746F6B656E7320746F2072656C65617365000000000000000000000000 PUSH0 DUP3 ADD MSTORE POP JUMP JUMPDEST PUSH0 PUSH2 0x1750 PUSH1 0x14 DUP4 PUSH2 0x163C JUMP JUMPDEST SWAP2 POP PUSH2 0x175B DUP3 PUSH2 0x171C JUMP JUMPDEST PUSH1 0x20 DUP3 ADD SWAP1 POP SWAP2 SWAP1 POP JUMP JUMPDEST PUSH0 PUSH1 0x20 DUP3 ADD SWAP1 POP DUP2 DUP2 SUB PUSH0 DUP4 ADD MSTORE PUSH2 0x177D DUP2 PUSH2 0x1744 JUMP JUMPDEST SWAP1 POP SWAP2 SWAP1 POP JUMP JUMPDEST PUSH32 0x4E487B7100000000000000000000000000000000000000000000000000000000 PUSH0 MSTORE PUSH1 0x11 PUSH1 0x4 MSTORE PUSH1 0x24 PUSH0 REVERT JUMPDEST PUSH0 PUSH2 0x17BB DUP3 PUSH2 0x13F4 JUMP JUMPDEST SWAP2 POP PUSH2 0x17C6 DUP4 PUSH2 0x13F4 JUMP JUMPDEST SWAP3 POP DUP3 DUP3 ADD SWAP1 POP DUP1 DUP3 GT ISZERO PUSH2 0x17DE JUMPI PUSH2 0x17DD PUSH2 0x1784 JUMP JUMPDEST JUMPDEST SWAP3 SWAP2 POP POP JUMP JUMPDEST PUSH0 PUSH1 0x40 DUP3 ADD SWAP1 POP PUSH2 0x17F7 PUSH0 DUP4 ADD DUP6 PUSH2 0x14C0 JUMP JUMPDEST PUSH2 0x1804 PUSH1 0x20 DUP4 ADD DUP5 PUSH2 0x13FD JUMP JUMPDEST SWAP4 SWAP3 POP POP POP JUMP JUMPDEST PUSH2 0x1814 DUP2 PUSH2 0x1425 JUMP JUMPDEST DUP2 EQ PUSH2 0x181E JUMPI PUSH0 PUSH0 REVERT JUMPDEST POP JUMP JUMPDEST PUSH0 DUP2 MLOAD SWAP1 POP PUSH2 0x182F DUP2 PUSH2 0x180B JUMP JUMPDEST SWAP3 SWAP2 POP POP JUMP JUMPDEST PUSH0 PUSH1 0x20 DUP3 DUP5 SUB SLT ISZERO PUSH2 0x184A JUMPI PUSH2 0x1849 PUSH2 0x138A JUMP JUMPDEST JUMPDEST PUSH0 PUSH2 0x1857 DUP5 DUP3 DUP6 ADD PUSH2 0x1821 JUMP JUMPDEST SWAP2 POP POP SWAP3 SWAP2 POP POP JUMP JUMPDEST PUSH32 0x5472616E73666572206661696C65640000000000000000000000000000000000 PUSH0 DUP3 ADD MSTORE POP JUMP JUMPDEST PUSH0 PUSH2 0x1894 PUSH1 0xF DUP4 PUSH2 0x163C JUMP JUMPDEST SWAP2 POP PUSH2 0x189F DUP3 PUSH2 0x1860 JUMP JUMPDEST PUSH1 0x20 DUP3 ADD SWAP1 POP SWAP2 SWAP1 POP JUMP JUMPDEST PUSH0 PUSH1 0x20 DUP3 ADD SWAP1 POP DUP2 DUP2 SUB PUSH0 DUP4 ADD MSTORE PUSH2 0x18C1 DUP2 PUSH2 0x1888 JUMP JUMPDEST SWAP1 POP SWAP2 SWAP1 POP JUMP JUMPDEST PUSH32 0x496E76616C69642062656E656669636961727900000000000000000000000000 PUSH0 DUP3 ADD MSTORE POP JUMP JUMPDEST PUSH0 PUSH2 0x18FC PUSH1 0x13 DUP4 PUSH2 0x163C JUMP JUMPDEST SWAP2 POP PUSH2 0x1907 DUP3 PUSH2 0x18C8 JUMP JUMPDEST PUSH1 0x20 DUP3 ADD SWAP1 POP SWAP2 SWAP1 POP JUMP JUMPDEST PUSH0 PUSH1 0x20 DUP3 ADD SWAP1 POP DUP2 DUP2 SUB PUSH0 DUP4 ADD MSTORE PUSH2 0x1929 DUP2 PUSH2 0x18F0 JUMP JUMPDEST SWAP1 POP SWAP2 SWAP1 POP JUMP JUMPDEST PUSH32 0x416D6F756E74206D757374206265203E20300000000000000000000000000000 PUSH0 DUP3 ADD MSTORE POP JUMP JUMPDEST PUSH0 PUSH2 0x1964 PUSH1 0x12 DUP4 PUSH2 0x163C JUMP JUMPDEST SWAP2 POP PUSH2 0x196F DUP3 PUSH2 0x1930 JUMP JUMPDEST PUSH1 0x20 DUP3 ADD SWAP1 POP SWAP2 SWAP1 POP JUMP JUMPDEST PUSH0 PUSH1 0x20 DUP3 ADD SWAP1 POP DUP2 DUP2 SUB PUSH0 DUP4 ADD MSTORE PUSH2 0x1991 DUP2 PUSH2 0x1958 JUMP JUMPDEST SWAP1 POP SWAP2 SWAP1 POP JUMP JUMPDEST PUSH32 0x56657374696E6720616C72656164792065786973747300000000000000000000 PUSH0 DUP3 ADD MSTORE POP JUMP JUMPDEST PUSH0 PUSH2 0x19CC PUSH1 0x16 DUP4 PUSH2 0x163C JUMP JUMPDEST SWAP2 POP PUSH2 0x19D7 DUP3 PUSH2 0x1998 JUMP JUMPDEST PUSH1 0x20 DUP3 ADD SWAP1 POP SWAP2 SWAP1 POP JUMP JUMPDEST PUSH0 PUSH1 0x20 DUP3 ADD SWAP1 POP DUP2 DUP2 SUB PUSH0 DUP4 ADD MSTORE PUSH2 0x19F9 DUP2 PUSH2 0x19C0 JUMP JUMPDEST SWAP1 POP SWAP2 SWAP1 POP JUMP JUMPDEST PUSH0 PUSH1 0x60 DUP3 ADD SWAP1 POP PUSH2 0x1A13 PUSH0 DUP4 ADD DUP7 PUSH2 0x14C0 JUMP JUMPDEST PUSH2 0x1A20 PUSH1 0x20 DUP4 ADD DUP6 PUSH2 0x14C0 JUMP JUMPDEST PUSH2 0x1A2D PUSH1 0x40 DUP4 ADD DUP5 PUSH2 0x13FD JUMP JUMPDEST SWAP5 SWAP4 POP POP POP POP JUMP JUMPDEST PUSH32 0x5363686564756C65206E6F74207265766F6361626C6500000000000000000000 PUSH0 DUP3 ADD MSTORE POP JUMP JUMPDEST PUSH0 PUSH2 0x1A69 PUSH1 0x16 DUP4 PUSH2 0x163C JUMP JUMPDEST SWAP2 POP PUSH2 0x1A74 DUP3 PUSH2 0x1A35 JUMP JUMPDEST PUSH1 0x20 DUP3 ADD SWAP1 POP SWAP2 SWAP1 POP JUMP JUMPDEST PUSH0 PUSH1 0x20 DUP3 ADD SWAP1 POP DUP2 DUP2 SUB PUSH0 DUP4 ADD MSTORE PUSH2 0x1A96 DUP2 PUSH2 0x1A5D JUMP JUMPDEST SWAP1 POP SWAP2 SWAP1 POP JUMP JUMPDEST PUSH32 0x5363686564756C6520616C7265616479207265766F6B65640000000000000000 PUSH0 DUP3 ADD MSTORE POP JUMP JUMPDEST PUSH0 PUSH2 0x1AD1 PUSH1 0x18 DUP4 PUSH2 0x163C JUMP JUMPDEST SWAP2 POP PUSH2 0x1ADC DUP3 PUSH2 0x1A9D JUMP JUMPDEST PUSH1 0x20 DUP3 ADD SWAP1 POP SWAP2 SWAP1 POP JUMP JUMPDEST PUSH0 PUSH1 0x20 DUP3 ADD SWAP1 POP DUP2 DUP2 SUB PUSH0 DUP4 ADD MSTORE PUSH2 0x1AFE DUP2 PUSH2 0x1AC5 JUMP JUMPDEST SWAP1 POP SWAP2 SWAP1 POP JUMP JUMPDEST PUSH0 PUSH2 0x1B0F DUP3 PUSH2 0x13F4 JUMP JUMPDEST SWAP2 POP PUSH2 0x1B1A DUP4 PUSH2 0x13F4 JUMP JUMPDEST SWAP3 POP DUP3 DUP3 SUB SWAP1 POP DUP2 DUP2 GT ISZERO PUSH2 0x1B32 JUMPI PUSH2 0x1B31 PUSH2 0x1784 JUMP JUMPDEST JUMPDEST SWAP3 SWAP2 POP POP JUMP JUMPDEST PUSH32 0x5265656E7472616E637947756172643A207265656E7472616E742063616C6C00 PUSH0 DUP3 ADD MSTORE POP JUMP JUMPDEST PUSH0 PUSH2 0x1B6C PUSH1 0x1F DUP4 PUSH2 0x163C JUMP JUMPDEST SWAP2 POP PUSH2 0x1B77 DUP3 PUSH2 0x1B38 JUMP JUMPDEST PUSH1 0x20 DUP3 ADD SWAP1 POP SWAP2 SWAP1 POP JUMP JUMPDEST PUSH0 PUSH1 0x20 DUP3 ADD SWAP1 POP DUP2 DUP2 SUB PUSH0 DUP4 ADD MSTORE PUSH2 0x1B99 DUP2 PUSH2 0x1B60 JUMP JUMPDEST SWAP1 POP SWAP2 SWAP1 POP JUMP JUMPDEST PUSH32 0x5061757361626C653A2070617573656400000000000000000000000000000000 PUSH0 DUP3 ADD MSTORE POP JUMP JUMPDEST PUSH0 PUSH2 0x1BD4 PUSH1 0x10 DUP4 PUSH2 0x163C JUMP JUMPDEST SWAP2 POP PUSH2 0x1BDF DUP3 PUSH2 0x1BA0 JUMP JUMPDEST PUSH1 0x20 DUP3 ADD SWAP1 POP SWAP2 SWAP1 POP JUMP JUMPDEST PUSH0 PUSH1 0x20 DUP3 ADD SWAP1 POP DUP2 DUP2 SUB PUSH0 DUP4 ADD MSTORE PUSH2 0x1C01 DUP2 PUSH2 0x1BC8 JUMP JUMPDEST SWAP1 POP SWAP2 SWAP1 POP JUMP JUMPDEST PUSH0 PUSH2 0x1C12 DUP3 PUSH2 0x13F4 JUMP JUMPDEST SWAP2 POP PUSH2 0x1C1D DUP4 PUSH2 0x13F4 JUMP JUMPDEST SWAP3 POP DUP3 DUP3 MUL PUSH2 0x1C2B DUP2 PUSH2 0x13F4 JUMP JUMPDEST SWAP2 POP DUP3 DUP3 DIV DUP5 EQ DUP4 ISZERO OR PUSH2 0x1C42 JUMPI PUSH2 0x1C41 PUSH2 0x1784 JUMP JUMPDEST JUMPDEST POP SWAP3 SWAP2 POP POP JUMP JUMPDEST PUSH32 0x4E487B7100000000000000000000000000000000000000000000000000000000 PUSH0 MSTORE PUSH1 0x12 PUSH1 0x4 MSTORE PUSH1 0x24 PUSH0 REVERT JUMPDEST PUSH0 PUSH2 0x1C80 DUP3 PUSH2 0x13F4 JUMP JUMPDEST SWAP2 POP PUSH2 0x1C8B DUP4 PUSH2 0x13F4 JUMP JUMPDEST SWAP3 POP DUP3 PUSH2 0x1C9B JUMPI PUSH2 0x1C9A PUSH2 0x1C49 JUMP JUMPDEST JUMPDEST DUP3 DUP3 DIV SWAP1 POP SWAP3 SWAP2 POP POP JUMP JUMPDEST PUSH32 0x5061757361626C653A206E6F7420706175736564000000000000000000000000 PUSH0 DUP3 ADD MSTORE POP JUMP JUMPDEST PUSH0 PUSH2 0x1CDA PUSH1 0x14 DUP4 PUSH2 0x163C JUMP JUMPDEST SWAP2 POP PUSH2 0x1CE5 DUP3 PUSH2 0x1CA6 JUMP JUMPDEST PUSH1 0x20 DUP3 ADD SWAP1 POP SWAP2 SWAP1 POP JUMP JUMPDEST PUSH0 PUSH1 0x20 DUP3 ADD SWAP1 POP DUP2 DUP2 SUB PUSH0 DUP4 ADD MSTORE PUSH2 0x1D07 DUP2 PUSH2 0x1CCE JUMP JUMPDEST SWAP1 POP SWAP2 SWAP1 POP JUMP INVALID LOG2 PUSH5 0x6970667358 0x22 SLT KECCAK256 0xE5 SAR DIV STOP SMOD 0xB0 0xF6 CREATE2 PUSH4 0x79072220 0x1F 0x2B BLOBBASEFEE 0xC9 0x2E MUL PC MULMOD POP 0xB6 SWAP16 CALLER 0xD8 DUP7 0xAB CALLER DUP2 ADDMOD DUP10 PUSH5 0x736F6C6343 STOP ADDMOD SHR STOP CALLER "
				},
				"gasEstimates": {
					"creation": {
						"codeDepositCost": "1498400",
						"executionCost": "infinite",
						"totalCost": "infinite"
					},
					"external": {
						"VESTING_DURATION()": "392",
						"VESTING_PERIODS()": "415",
						"createVesting(address,uint256)": "infinite",
						"getReleasableAmount(address)": "infinite",
						"getVestingSchedule(address)": "infinite",
						"owner()": "2537",
						"pause()": "infinite",
						"paused()": "2613",
						"release(address)": "infinite",
						"renounceOwnership()": "infinite",
						"revoke(address)": "infinite",
						"totalVested()": "2493",
						"transferOwnership(address)": "infinite",
						"ubi4allToken()": "infinite",
						"unpause()": "infinite",
						"vestingSchedules(address)": "infinite",
						"vestingStartTime()": "infinite"
					}
				},
				"methodIdentifiers": {
					"VESTING_DURATION()": "4cfc4d30",
					"VESTING_PERIODS()": "1e7bace0",
					"createVesting(address,uint256)": "6c3b0c53",
					"getReleasableAmount(address)": "2afd1a7d",
					"getVestingSchedule(address)": "9f829063",
					"owner()": "8da5cb5b",
					"pause()": "8456cb59",
					"paused()": "5c975abb",
					"release(address)": "19165587",
					"renounceOwnership()": "715018a6",
					"revoke(address)": "74a8f103",
					"totalVested()": "199cbc54",
					"transferOwnership(address)": "f2fde38b",
					"ubi4allToken()": "10d67098",
					"unpause()": "3f4ba83a",
					"vestingSchedules(address)": "fdb20ccb",
					"vestingStartTime()": "a8660a78"
				}
			},
			"storageLayout": {
				"storage": [
					{
						"astId": 266,
						"contract": "finance/UBI4ALLVesting.sol:UBI4ALLVesting",
						"label": "_status",
						"offset": 0,
						"slot": "0",
						"type": "t_uint256"
					},
					{
						"astId": 8,
						"contract": "finance/UBI4ALLVesting.sol:UBI4ALLVesting",
						"label": "_owner",
						"offset": 0,
						"slot": "1",
						"type": "t_address"
					},
					{
						"astId": 165,
						"contract": "finance/UBI4ALLVesting.sol:UBI4ALLVesting",
						"label": "_paused",
						"offset": 20,
						"slot": "1",
						"type": "t_bool"
					},
					{
						"astId": 773,
						"contract": "finance/UBI4ALLVesting.sol:UBI4ALLVesting",
						"label": "vestingSchedules",
						"offset": 0,
						"slot": "2",
						"type": "t_mapping(t_address,t_struct(VestingSchedule)1130_storage)"
					},
					{
						"astId": 775,
						"contract": "finance/UBI4ALLVesting.sol:UBI4ALLVesting",
						"label": "totalVested",
						"offset": 0,
						"slot": "3",
						"type": "t_uint256"
					}
				],
				"types": {
					"t_address": {
						"encoding": "inplace",
						"label": "address",
						"numberOfBytes": "20"
					},
					"t_bool": {
						"encoding": "inplace",
						"label": "bool",
						"numberOfBytes": "1"
					},
					"t_mapping(t_address,t_struct(VestingSchedule)1130_storage)": {
						"encoding": "mapping",
						"key": "t_address",
						"label": "mapping(address => struct UBI4ALLVestingLib.VestingSchedule)",
						"numberOfBytes": "32",
						"value": "t_struct(VestingSchedule)1130_storage"
					},
					"t_struct(VestingSchedule)1130_storage": {
						"encoding": "inplace",
						"label": "struct UBI4ALLVestingLib.VestingSchedule",
						"members": [
							{
								"astId": 1115,
								"contract": "finance/UBI4ALLVesting.sol:UBI4ALLVesting",
								"label": "totalAmount",
								"offset": 0,
								"slot": "0",
								"type": "t_uint256"
							},
							{
								"astId": 1117,
								"contract": "finance/UBI4ALLVesting.sol:UBI4ALLVesting",
								"label": "releasedAmount",
								"offset": 0,
								"slot": "1",
								"type": "t_uint256"
							},
							{
								"astId": 1119,
								"contract": "finance/UBI4ALLVesting.sol:UBI4ALLVesting",
								"label": "startTime",
								"offset": 0,
								"slot": "2",
								"type": "t_uint256"
							},
							{
								"astId": 1121,
								"contract": "finance/UBI4ALLVesting.sol:UBI4ALLVesting",
								"label": "duration",
								"offset": 0,
								"slot": "3",
								"type": "t_uint256"
							},
							{
								"astId": 1123,
								"contract": "finance/UBI4ALLVesting.sol:UBI4ALLVesting",
								"label": "cliffDuration",
								"offset": 0,
								"slot": "4",
								"type": "t_uint256"
							},
							{
								"astId": 1125,
								"contract": "finance/UBI4ALLVesting.sol:UBI4ALLVesting",
								"label": "isRevocable",
								"offset": 0,
								"slot": "5",
								"type": "t_bool"
							},
							{
								"astId": 1127,
								"contract": "finance/UBI4ALLVesting.sol:UBI4ALLVesting",
								"label": "isRevoked",
								"offset": 1,
								"slot": "5",
								"type": "t_bool"
							},
							{
								"astId": 1129,
								"contract": "finance/UBI4ALLVesting.sol:UBI4ALLVesting",
								"label": "lastReleaseTime",
								"offset": 0,
								"slot": "6",
								"type": "t_uint256"
							}
						],
						"numberOfBytes": "224"
					},
					"t_uint256": {
						"encoding": "inplace",
						"label": "uint256",
						"numberOfBytes": "32"
					}
				}
			},
			"userdoc": {
				"kind": "user",
				"methods": {},
				"version": 1
			}
		}
	}
}