{
	"oracle/UBI4ALLOracle.sol": {
		"UBI4ALLOracle": {
			"abi": [
				{
					"inputs": [
						{
							"internalType": "address",
							"name": "_priceFeed",
							"type": "address"
						},
						{
							"internalType": "address",
							"name": "initialOwner",
							"type": "address"
						}
					],
					"stateMutability": "nonpayable",
					"type": "constructor"
				},
				{
					"inputs": [
						{
							"internalType": "address",
							"name": "owner",
							"type": "address"
						}
					],
					"name": "OwnableInvalidOwner",
					"type": "error"
				},
				{
					"inputs": [
						{
							"internalType": "address",
							"name": "account",
							"type": "address"
						}
					],
					"name": "OwnableUnauthorizedAccount",
					"type": "error"
				},
				{
					"inputs": [
						{
							"internalType": "int256",
							"name": "value",
							"type": "int256"
						}
					],
					"name": "SafeCastOverflowedIntToUint",
					"type": "error"
				},
				{
					"anonymous": false,
					"inputs": [
						{
							"indexed": true,
							"internalType": "bytes32",
							"name": "pair",
							"type": "bytes32"
						}
					],
					"name": "EmergencyPause",
					"type": "event"
				},
				{
					"anonymous": false,
					"inputs": [
						{
							"indexed": true,
							"internalType": "address",
							"name": "previousOwner",
							"type": "address"
						},
						{
							"indexed": true,
							"internalType": "address",
							"name": "newOwner",
							"type": "address"
						}
					],
					"name": "OwnershipTransferred",
					"type": "event"
				},
				{
					"anonymous": false,
					"inputs": [
						{
							"indexed": false,
							"internalType": "address",
							"name": "account",
							"type": "address"
						}
					],
					"name": "Paused",
					"type": "event"
				},
				{
					"anonymous": false,
					"inputs": [
						{
							"indexed": true,
							"internalType": "address",
							"name": "oldFeed",
							"type": "address"
						},
						{
							"indexed": true,
							"internalType": "address",
							"name": "newFeed",
							"type": "address"
						}
					],
					"name": "PriceFeedUpdated",
					"type": "event"
				},
				{
					"anonymous": false,
					"inputs": [
						{
							"indexed": true,
							"internalType": "bytes32",
							"name": "pair",
							"type": "bytes32"
						},
						{
							"indexed": false,
							"internalType": "uint256",
							"name": "price",
							"type": "uint256"
						},
						{
							"indexed": false,
							"internalType": "uint256",
							"name": "timestamp",
							"type": "uint256"
						}
					],
					"name": "PriceUpdated",
					"type": "event"
				},
				{
					"anonymous": false,
					"inputs": [
						{
							"indexed": false,
							"internalType": "address",
							"name": "account",
							"type": "address"
						}
					],
					"name": "Unpaused",
					"type": "event"
				},
				{
					"inputs": [],
					"name": "CHAINLINK_STALENESS_THRESHOLD",
					"outputs": [
						{
							"internalType": "uint256",
							"name": "",
							"type": "uint256"
						}
					],
					"stateMutability": "view",
					"type": "function"
				},
				{
					"inputs": [],
					"name": "EUR_USD_PAIR",
					"outputs": [
						{
							"internalType": "bytes32",
							"name": "",
							"type": "bytes32"
						}
					],
					"stateMutability": "view",
					"type": "function"
				},
				{
					"inputs": [],
					"name": "PRICE_VALIDITY_PERIOD",
					"outputs": [
						{
							"internalType": "uint256",
							"name": "",
							"type": "uint256"
						}
					],
					"stateMutability": "view",
					"type": "function"
				},
				{
					"inputs": [
						{
							"internalType": "bytes32",
							"name": "pair",
							"type": "bytes32"
						},
						{
							"internalType": "address",
							"name": "source",
							"type": "address"
						},
						{
							"internalType": "uint256",
							"name": "weight",
							"type": "uint256"
						},
						{
							"internalType": "uint256",
							"name": "heartbeat",
							"type": "uint256"
						},
						{
							"internalType": "uint256",
							"name": "maxDeviation",
							"type": "uint256"
						},
						{
							"internalType": "uint256",
							"name": "minConfidence",
							"type": "uint256"
						}
					],
					"name": "addOracleSource",
					"outputs": [],
					"stateMutability": "nonpayable",
					"type": "function"
				},
				{
					"inputs": [
						{
							"internalType": "bytes32",
							"name": "pair",
							"type": "bytes32"
						}
					],
					"name": "getAggregatedPrice",
					"outputs": [
						{
							"internalType": "uint256",
							"name": "weightedPrice",
							"type": "uint256"
						},
						{
							"internalType": "uint256",
							"name": "timestamp",
							"type": "uint256"
						},
						{
							"internalType": "bool",
							"name": "isValid",
							"type": "bool"
						}
					],
					"stateMutability": "view",
					"type": "function"
				},
				{
					"inputs": [
						{
							"internalType": "bytes32",
							"name": "pair",
							"type": "bytes32"
						}
					],
					"name": "getPrice",
					"outputs": [
						{
							"internalType": "uint256",
							"name": "price",
							"type": "uint256"
						},
						{
							"internalType": "uint256",
							"name": "timestamp",
							"type": "uint256"
						},
						{
							"internalType": "bool",
							"name": "isValid",
							"type": "bool"
						}
					],
					"stateMutability": "view",
					"type": "function"
				},
				{
					"inputs": [
						{
							"internalType": "address",
							"name": "source",
							"type": "address"
						}
					],
					"name": "getSourcePrice",
					"outputs": [
						{
							"internalType": "uint256",
							"name": "price",
							"type": "uint256"
						},
						{
							"internalType": "uint256",
							"name": "timestamp",
							"type": "uint256"
						},
						{
							"internalType": "bool",
							"name": "isValid",
							"type": "bool"
						}
					],
					"stateMutability": "view",
					"type": "function"
				},
				{
					"inputs": [
						{
							"internalType": "bytes32",
							"name": "",
							"type": "bytes32"
						}
					],
					"name": "latestPrices",
					"outputs": [
						{
							"internalType": "uint256",
							"name": "price",
							"type": "uint256"
						},
						{
							"internalType": "uint256",
							"name": "timestamp",
							"type": "uint256"
						},
						{
							"internalType": "bool",
							"name": "isValid",
							"type": "bool"
						}
					],
					"stateMutability": "view",
					"type": "function"
				},
				{
					"inputs": [],
					"name": "owner",
					"outputs": [
						{
							"internalType": "address",
							"name": "",
							"type": "address"
						}
					],
					"stateMutability": "view",
					"type": "function"
				},
				{
					"inputs": [],
					"name": "pause",
					"outputs": [],
					"stateMutability": "nonpayable",
					"type": "function"
				},
				{
					"inputs": [],
					"name": "paused",
					"outputs": [
						{
							"internalType": "bool",
							"name": "",
							"type": "bool"
						}
					],
					"stateMutability": "view",
					"type": "function"
				},
				{
					"inputs": [],
					"name": "priceFeed",
					"outputs": [
						{
							"internalType": "contract AggregatorV3Interface",
							"name": "",
							"type": "address"
						}
					],
					"stateMutability": "view",
					"type": "function"
				},
				{
					"inputs": [
						{
							"internalType": "bytes32",
							"name": "pair",
							"type": "bytes32"
						},
						{
							"internalType": "address",
							"name": "source",
							"type": "address"
						}
					],
					"name": "removeOracleSource",
					"outputs": [],
					"stateMutability": "view",
					"type": "function"
				},
				{
					"inputs": [],
					"name": "renounceOwnership",
					"outputs": [],
					"stateMutability": "nonpayable",
					"type": "function"
				},
				{
					"inputs": [
						{
							"internalType": "address",
							"name": "newOwner",
							"type": "address"
						}
					],
					"name": "transferOwnership",
					"outputs": [],
					"stateMutability": "nonpayable",
					"type": "function"
				},
				{
					"inputs": [],
					"name": "unpause",
					"outputs": [],
					"stateMutability": "nonpayable",
					"type": "function"
				},
				{
					"inputs": [
						{
							"internalType": "bytes32",
							"name": "pair",
							"type": "bytes32"
						},
						{
							"internalType": "uint256",
							"name": "price",
							"type": "uint256"
						},
						{
							"internalType": "uint256",
							"name": "timestamp",
							"type": "uint256"
						},
						{
							"internalType": "uint256",
							"name": "confidence",
							"type": "uint256"
						}
					],
					"name": "updatePrice",
					"outputs": [],
					"stateMutability": "nonpayable",
					"type": "function"
				}
			],
			"devdoc": {
				"errors": {
					"OwnableInvalidOwner(address)": [
						{
							"details": "The owner is not a valid owner account. (eg. `address(0)`)"
						}
					],
					"OwnableUnauthorizedAccount(address)": [
						{
							"details": "The caller account is not authorized to perform an operation."
						}
					],
					"SafeCastOverflowedIntToUint(int256)": [
						{
							"details": "An int value doesn't fit in an uint of `bits` size."
						}
					]
				},
				"events": {
					"Paused(address)": {
						"details": "Emitted when the pause is triggered by `account`."
					},
					"Unpaused(address)": {
						"details": "Emitted when the pause is lifted by `account`."
					}
				},
				"kind": "dev",
				"methods": {
					"addOracleSource(bytes32,address,uint256,uint256,uint256,uint256)": {
						"params": {
							"heartbeat": "Frequenza di aggiornamento della sorgente (non utilizzato)",
							"maxDeviation": "Deviazione massima consentita (non utilizzato)",
							"minConfidence": "Confidenza minima richiesta (non utilizzato)",
							"pair": "Coppia di asset (deve essere EUR_USD_PAIR)",
							"source": "Nuovo indirizzo del feed Chainlink",
							"weight": "Peso della sorgente (non utilizzato)"
						}
					},
					"constructor": {
						"params": {
							"_priceFeed": "Indirizzo del feed Chainlink per EUR/USD",
							"initialOwner": "Indirizzo del proprietario iniziale"
						}
					},
					"getAggregatedPrice(bytes32)": {
						"params": {
							"pair": "Coppia di asset (deve essere EUR_USD_PAIR)"
						},
						"returns": {
							"isValid": "True se il prezzo è valido",
							"timestamp": "Timestamp dell'aggiornamento",
							"weightedPrice": "Prezzo aggregato"
						}
					},
					"getPrice(bytes32)": {
						"params": {
							"pair": "Coppia di asset (deve essere EUR_USD_PAIR)"
						},
						"returns": {
							"isValid": "True se il prezzo è valido",
							"price": "Prezzo della coppia",
							"timestamp": "Timestamp dell'aggiornamento"
						}
					},
					"getSourcePrice(address)": {
						"params": {
							"source": "Indirizzo del feed (deve corrispondere a priceFeed)"
						},
						"returns": {
							"isValid": "True se il prezzo è valido",
							"price": "Prezzo della coppia",
							"timestamp": "Timestamp dell'aggiornamento"
						}
					},
					"owner()": {
						"details": "Returns the address of the current owner."
					},
					"paused()": {
						"details": "Returns true if the contract is paused, and false otherwise."
					},
					"removeOracleSource(bytes32,address)": {
						"params": {
							"pair": "Coppia di asset (deve essere EUR_USD_PAIR)",
							"source": "Indirizzo del feed da rimuovere"
						}
					},
					"renounceOwnership()": {
						"details": "Leaves the contract without owner. It will not be possible to call `onlyOwner` functions. Can only be called by the current owner. NOTE: Renouncing ownership will leave the contract without an owner, thereby disabling any functionality that is only available to the owner."
					},
					"transferOwnership(address)": {
						"details": "Transfers ownership of the contract to a new account (`newOwner`). Can only be called by the current owner."
					},
					"updatePrice(bytes32,uint256,uint256,uint256)": {
						"params": {
							"confidence": "Livello di confidenza del prezzo (non utilizzato)",
							"pair": "Coppia di asset (deve essere EUR_USD_PAIR)",
							"price": "Prezzo da impostare",
							"timestamp": "Timestamp del prezzo"
						}
					}
				},
				"stateVariables": {
					"CHAINLINK_STALENESS_THRESHOLD": {
						"details": "Periodo massimo di validità per i dati di Chainlink (1 ora)"
					},
					"EUR_USD_PAIR": {
						"details": "Coppia supportata (EUR/USD)"
					},
					"PRICE_VALIDITY_PERIOD": {
						"details": "Periodo di validità del prezzo (15 minuti)"
					},
					"latestPrices": {
						"details": "Mappatura dei prezzi più recenti per coppia"
					},
					"priceFeed": {
						"details": "Feed di prezzo Chainlink"
					}
				},
				"title": "UBI4ALLOracle - Oracolo per il prezzo EUR/USD",
				"version": 1
			},
			"evm": {
				"assembly": "    /* \"oracle/UBI4ALLOracle.sol\":553:7813  contract UBI4ALLOracle is IUBI4ALLOracle, Ownable, ReentrancyGuard, Pausable {... */\n  mstore(0x40, 0x80)\n    /* \"oracle/UBI4ALLOracle.sol\":2033:2244  constructor(address _priceFeed, address initialOwner) Ownable(initialOwner) {... */\n  callvalue\n  dup1\n  iszero\n  tag_1\n  jumpi\n  0x00\n  dup1\n  revert\ntag_1:\n  pop\n  mload(0x40)\n  sub(codesize, bytecodeSize)\n  dup1\n  bytecodeSize\n  dup4\n  codecopy\n  dup2\n  add\n  0x40\n  dup2\n  swap1\n  mstore\n  tag_2\n  swap2\n  tag_3\n  jump\t// in\ntag_2:\n    /* \"oracle/UBI4ALLOracle.sol\":2095:2107  initialOwner */\n  dup1\n  sub(shl(0xa0, 0x01), 0x01)\n    /* \"@openzeppelin/contracts/access/Ownable.sol\":1273:1299  initialOwner == address(0) */\n  dup2\n  and\n    /* \"@openzeppelin/contracts/access/Ownable.sol\":1269:1364  if (initialOwner == address(0)) {... */\n  tag_9\n  jumpi\n    /* \"@openzeppelin/contracts/access/Ownable.sol\":1322:1353  OwnableInvalidOwner(address(0)) */\n  mload(0x40)\n  shl(0xe0, 0x1e4fbdf7)\n  dup2\n  mstore\n    /* \"@openzeppelin/contracts/access/Ownable.sol\":1350:1351  0 */\n  0x00\n    /* \"@openzeppelin/contracts/access/Ownable.sol\":1322:1353  OwnableInvalidOwner(address(0)) */\n  0x04\n  dup3\n  add\n    /* \"#utility.yul\":640:691   */\n  mstore\n    /* \"#utility.yul\":613:631   */\n  0x24\n  add\n    /* \"@openzeppelin/contracts/access/Ownable.sol\":1322:1353  OwnableInvalidOwner(address(0)) */\ntag_10:\n  mload(0x40)\n  dup1\n  swap2\n  sub\n  swap1\n  revert\n    /* \"@openzeppelin/contracts/access/Ownable.sol\":1269:1364  if (initialOwner == address(0)) {... */\ntag_9:\n    /* \"@openzeppelin/contracts/access/Ownable.sol\":1373:1405  _transferOwnership(initialOwner) */\n  tag_12\n    /* \"@openzeppelin/contracts/access/Ownable.sol\":1392:1404  initialOwner */\n  dup2\n    /* \"@openzeppelin/contracts/access/Ownable.sol\":1373:1391  _transferOwnership */\n  tag_13\n    /* \"@openzeppelin/contracts/access/Ownable.sol\":1373:1405  _transferOwnership(initialOwner) */\n  jump\t// in\ntag_12:\n  pop\n    /* \"@openzeppelin/contracts/security/ReentrancyGuard.sol\":1717:1718  1 */\n  0x01\n    /* \"@openzeppelin/contracts/security/ReentrancyGuard.sol\":1822:1844  _status = _NOT_ENTERED */\n  dup1\n  sstore\n    /* \"@openzeppelin/contracts/security/Pausable.sol\":997:1004  _paused */\n  0x02\n    /* \"@openzeppelin/contracts/security/Pausable.sol\":997:1012  _paused = false */\n  dup1\n  sload\n  not(0xff)\n  and\n  swap1\n  sstore\n  sub(shl(0xa0, 0x01), 0x01)\n    /* \"oracle/UBI4ALLOracle.sol\":2127:2151  _priceFeed != address(0) */\n  dup3\n  and\n    /* \"oracle/UBI4ALLOracle.sol\":2119:2182  require(_priceFeed != address(0), \"Invalid price feed address\") */\n  tag_17\n  jumpi\n  mload(0x40)\n  shl(0xe5, 0x461bcd)\n  dup2\n  mstore\n    /* \"#utility.yul\":904:906   */\n  0x20\n    /* \"oracle/UBI4ALLOracle.sol\":2119:2182  require(_priceFeed != address(0), \"Invalid price feed address\") */\n  0x04\n  dup3\n  add\n    /* \"#utility.yul\":886:907   */\n  mstore\n    /* \"#utility.yul\":943:945   */\n  0x1a\n    /* \"#utility.yul\":923:941   */\n  0x24\n  dup3\n  add\n    /* \"#utility.yul\":916:946   */\n  mstore\n    /* \"#utility.yul\":982:1010   */\n  0x496e76616c696420707269636520666565642061646472657373000000000000\n    /* \"#utility.yul\":962:980   */\n  0x44\n  dup3\n  add\n    /* \"#utility.yul\":955:1011   */\n  mstore\n    /* \"#utility.yul\":1028:1046   */\n  0x64\n  add\n    /* \"oracle/UBI4ALLOracle.sol\":2119:2182  require(_priceFeed != address(0), \"Invalid price feed address\") */\n  tag_10\n    /* \"#utility.yul\":702:1052   */\n  jump\n    /* \"oracle/UBI4ALLOracle.sol\":2119:2182  require(_priceFeed != address(0), \"Invalid price feed address\") */\ntag_17:\n  pop\n    /* \"oracle/UBI4ALLOracle.sol\":2192:2201  priceFeed */\n  0x02\n    /* \"oracle/UBI4ALLOracle.sol\":2192:2237  priceFeed = AggregatorV3Interface(_priceFeed) */\n  dup1\n  sload\n  sub(shl(0xa0, 0x01), 0x01)\n  swap1\n  swap3\n  and\n  0x0100\n  mul\n  not(sub(shl(0xa8, 0x01), 0x0100))\n  swap1\n  swap3\n  and\n  swap2\n  swap1\n  swap2\n  or\n  swap1\n  sstore\n    /* \"oracle/UBI4ALLOracle.sol\":553:7813  contract UBI4ALLOracle is IUBI4ALLOracle, Ownable, ReentrancyGuard, Pausable {... */\n  jump(tag_23)\n    /* \"@openzeppelin/contracts/access/Ownable.sol\":2912:3099  function _transferOwnership(address newOwner) internal virtual {... */\ntag_13:\n    /* \"@openzeppelin/contracts/access/Ownable.sol\":2985:3001  address oldOwner */\n  0x00\n    /* \"@openzeppelin/contracts/access/Ownable.sol\":3004:3010  _owner */\n  dup1\n  sload\n  sub(shl(0xa0, 0x01), 0x01)\n    /* \"@openzeppelin/contracts/access/Ownable.sol\":3020:3037  _owner = newOwner */\n  dup4\n  dup2\n  and\n  not(sub(shl(0xa0, 0x01), 0x01))\n  dup4\n  and\n  dup2\n  or\n  dup5\n  sstore\n    /* \"@openzeppelin/contracts/access/Ownable.sol\":3052:3092  OwnershipTransferred(oldOwner, newOwner) */\n  mload(0x40)\n    /* \"@openzeppelin/contracts/access/Ownable.sol\":3004:3010  _owner */\n  swap2\n  swap1\n  swap3\n  and\n  swap3\n  dup4\n  swap2\n    /* \"@openzeppelin/contracts/access/Ownable.sol\":3052:3092  OwnershipTransferred(oldOwner, newOwner) */\n  0x8be0079c531659141344cd1fd0a4f28419497f9722a3daafe3b4186f6b6457e0\n  swap2\n    /* \"@openzeppelin/contracts/access/Ownable.sol\":2985:3001  address oldOwner */\n  swap1\n    /* \"@openzeppelin/contracts/access/Ownable.sol\":3052:3092  OwnershipTransferred(oldOwner, newOwner) */\n  log3\n    /* \"@openzeppelin/contracts/access/Ownable.sol\":2975:3099  {... */\n  pop\n    /* \"@openzeppelin/contracts/access/Ownable.sol\":2912:3099  function _transferOwnership(address newOwner) internal virtual {... */\n  pop\n  jump\t// out\n    /* \"#utility.yul\":14:191   */\ntag_22:\n    /* \"#utility.yul\":93:106   */\n  dup1\n  mload\n  sub(shl(0xa0, 0x01), 0x01)\n    /* \"#utility.yul\":135:166   */\n  dup2\n  and\n    /* \"#utility.yul\":125:167   */\n  dup2\n  eq\n    /* \"#utility.yul\":115:185   */\n  tag_25\n  jumpi\n    /* \"#utility.yul\":181:182   */\n  0x00\n    /* \"#utility.yul\":178:179   */\n  dup1\n    /* \"#utility.yul\":171:183   */\n  revert\n    /* \"#utility.yul\":115:185   */\ntag_25:\n    /* \"#utility.yul\":14:191   */\n  swap2\n  swap1\n  pop\n  jump\t// out\n    /* \"#utility.yul\":196:489   */\ntag_3:\n    /* \"#utility.yul\":275:281   */\n  0x00\n    /* \"#utility.yul\":283:289   */\n  dup1\n    /* \"#utility.yul\":336:338   */\n  0x40\n    /* \"#utility.yul\":324:333   */\n  dup4\n    /* \"#utility.yul\":315:322   */\n  dup6\n    /* \"#utility.yul\":311:334   */\n  sub\n    /* \"#utility.yul\":307:339   */\n  slt\n    /* \"#utility.yul\":304:356   */\n  iszero\n  tag_27\n  jumpi\n    /* \"#utility.yul\":352:353   */\n  0x00\n    /* \"#utility.yul\":349:350   */\n  dup1\n    /* \"#utility.yul\":342:354   */\n  revert\n    /* \"#utility.yul\":304:356   */\ntag_27:\n    /* \"#utility.yul\":375:415   */\n  tag_28\n    /* \"#utility.yul\":405:414   */\n  dup4\n    /* \"#utility.yul\":375:415   */\n  tag_22\n  jump\t// in\ntag_28:\n    /* \"#utility.yul\":365:415   */\n  swap2\n  pop\n    /* \"#utility.yul\":434:483   */\n  tag_29\n    /* \"#utility.yul\":479:481   */\n  0x20\n    /* \"#utility.yul\":468:477   */\n  dup5\n    /* \"#utility.yul\":464:482   */\n  add\n    /* \"#utility.yul\":434:483   */\n  tag_22\n  jump\t// in\ntag_29:\n    /* \"#utility.yul\":424:483   */\n  swap1\n  pop\n    /* \"#utility.yul\":196:489   */\n  swap3\n  pop\n  swap3\n  swap1\n  pop\n  jump\t// out\n    /* \"#utility.yul\":702:1052   */\ntag_23:\n    /* \"oracle/UBI4ALLOracle.sol\":553:7813  contract UBI4ALLOracle is IUBI4ALLOracle, Ownable, ReentrancyGuard, Pausable {... */\n  dataSize(sub_0)\n  dup1\n  dataOffset(sub_0)\n  0x00\n  codecopy\n  0x00\n  return\nstop\n\nsub_0: assembly {\n        /* \"oracle/UBI4ALLOracle.sol\":553:7813  contract UBI4ALLOracle is IUBI4ALLOracle, Ownable, ReentrancyGuard, Pausable {... */\n      mstore(0x40, 0x80)\n      callvalue\n      dup1\n      iszero\n      tag_1\n      jumpi\n      0x00\n      dup1\n      revert\n    tag_1:\n      pop\n      jumpi(tag_2, lt(calldatasize, 0x04))\n      shr(0xe0, calldataload(0x00))\n      dup1\n      0x741bef1a\n      gt\n      tag_20\n      jumpi\n      dup1\n      0xa5b5fb88\n      gt\n      tag_21\n      jumpi\n      dup1\n      0xa5b5fb88\n      eq\n      tag_15\n      jumpi\n      dup1\n      0xbc269850\n      eq\n      tag_16\n      jumpi\n      dup1\n      0xdb7c1ad1\n      eq\n      tag_17\n      jumpi\n      dup1\n      0xf2fde38b\n      eq\n      tag_18\n      jumpi\n      dup1\n      0xf3f699f1\n      eq\n      tag_19\n      jumpi\n      0x00\n      dup1\n      revert\n    tag_21:\n      dup1\n      0x741bef1a\n      eq\n      tag_11\n      jumpi\n      dup1\n      0x8456cb59\n      eq\n      tag_12\n      jumpi\n      dup1\n      0x8da5cb5b\n      eq\n      tag_13\n      jumpi\n      dup1\n      0x9f97acb7\n      eq\n      tag_14\n      jumpi\n      0x00\n      dup1\n      revert\n    tag_20:\n      dup1\n      0x3f4ba83a\n      gt\n      tag_22\n      jumpi\n      dup1\n      0x3f4ba83a\n      eq\n      tag_7\n      jumpi\n      dup1\n      0x5c975abb\n      eq\n      tag_8\n      jumpi\n      dup1\n      0x6301a143\n      eq\n      tag_9\n      jumpi\n      dup1\n      0x715018a6\n      eq\n      tag_10\n      jumpi\n      0x00\n      dup1\n      revert\n    tag_22:\n      dup1\n      0x01e9492f\n      eq\n      tag_3\n      jumpi\n      dup1\n      0x1fde7f26\n      eq\n      tag_4\n      jumpi\n      dup1\n      0x2806bce2\n      eq\n      tag_5\n      jumpi\n      dup1\n      0x31d98b3f\n      eq\n      tag_6\n      jumpi\n    tag_2:\n      0x00\n      dup1\n      revert\n        /* \"oracle/UBI4ALLOracle.sol\":7240:7513  function removeOracleSource(bytes32 pair, address source) external view override onlyOwner {... */\n    tag_3:\n      tag_23\n      tag_24\n      calldatasize\n      0x04\n      tag_25\n      jump\t// in\n    tag_24:\n      tag_26\n      jump\t// in\n    tag_23:\n      stop\n        /* \"oracle/UBI4ALLOracle.sol\":4728:4942  function getAggregatedPrice(bytes32 pair) ... */\n    tag_4:\n      tag_27\n      tag_28\n      calldatasize\n      0x04\n      tag_29\n      jump\t// in\n    tag_28:\n      tag_30\n      jump\t// in\n    tag_27:\n      0x40\n      dup1\n      mload\n        /* \"#utility.yul\":924:949   */\n      swap4\n      dup5\n      mstore\n        /* \"#utility.yul\":980:982   */\n      0x20\n        /* \"#utility.yul\":965:983   */\n      dup5\n      add\n        /* \"#utility.yul\":958:992   */\n      swap3\n      swap1\n      swap3\n      mstore\n        /* \"#utility.yul\":1035:1049   */\n      iszero\n        /* \"#utility.yul\":1028:1050   */\n      iszero\n        /* \"#utility.yul\":1008:1026   */\n      swap1\n      dup3\n      add\n        /* \"#utility.yul\":1001:1051   */\n      mstore\n        /* \"#utility.yul\":912:914   */\n      0x60\n        /* \"#utility.yul\":897:915   */\n      add\n        /* \"oracle/UBI4ALLOracle.sol\":4728:4942  function getAggregatedPrice(bytes32 pair) ... */\n    tag_31:\n      mload(0x40)\n      dup1\n      swap2\n      sub\n      swap1\n      return\n        /* \"oracle/UBI4ALLOracle.sol\":5237:6059  function getSourcePrice(address source) ... */\n    tag_5:\n      tag_27\n      tag_34\n      calldatasize\n      0x04\n      tag_35\n      jump\t// in\n    tag_34:\n      tag_36\n      jump\t// in\n        /* \"oracle/UBI4ALLOracle.sol\":3380:4424  function getPrice(bytes32 pair) ... */\n    tag_6:\n      tag_27\n      tag_39\n      calldatasize\n      0x04\n      tag_29\n      jump\t// in\n    tag_39:\n      tag_40\n      jump\t// in\n        /* \"oracle/UBI4ALLOracle.sol\":7746:7811  function unpause() external onlyOwner {... */\n    tag_7:\n      tag_23\n      tag_43\n      jump\t// in\n        /* \"@openzeppelin/contracts/security/Pausable.sol\":1616:1700  function paused() public view virtual returns (bool) {... */\n    tag_8:\n        /* \"@openzeppelin/contracts/security/Pausable.sol\":1686:1693  _paused */\n      and(0xff, sload(0x02))\n        /* \"@openzeppelin/contracts/security/Pausable.sol\":1616:1700  function paused() public view virtual returns (bool) {... */\n      mload(0x40)\n        /* \"#utility.yul\":1418:1432   */\n      swap1\n      iszero\n        /* \"#utility.yul\":1411:1433   */\n      iszero\n        /* \"#utility.yul\":1393:1434   */\n      dup2\n      mstore\n        /* \"#utility.yul\":1381:1383   */\n      0x20\n        /* \"#utility.yul\":1366:1384   */\n      add\n        /* \"@openzeppelin/contracts/security/Pausable.sol\":1616:1700  function paused() public view virtual returns (bool) {... */\n      tag_31\n        /* \"#utility.yul\":1253:1440   */\n      jump\n        /* \"oracle/UBI4ALLOracle.sol\":1235:1293  uint256 public constant PRICE_VALIDITY_PERIOD = 15 minutes */\n    tag_9:\n      tag_48\n        /* \"oracle/UBI4ALLOracle.sol\":1283:1293  15 minutes */\n      0x0384\n        /* \"oracle/UBI4ALLOracle.sol\":1235:1293  uint256 public constant PRICE_VALIDITY_PERIOD = 15 minutes */\n      dup2\n      jump\n    tag_48:\n      mload(0x40)\n        /* \"#utility.yul\":1591:1616   */\n      swap1\n      dup2\n      mstore\n        /* \"#utility.yul\":1579:1581   */\n      0x20\n        /* \"#utility.yul\":1564:1582   */\n      add\n        /* \"oracle/UBI4ALLOracle.sol\":1235:1293  uint256 public constant PRICE_VALIDITY_PERIOD = 15 minutes */\n      tag_31\n        /* \"#utility.yul\":1445:1622   */\n      jump\n        /* \"@openzeppelin/contracts/access/Ownable.sol\":2293:2394  function renounceOwnership() public virtual onlyOwner {... */\n    tag_10:\n      tag_23\n      tag_53\n      jump\t// in\n        /* \"oracle/UBI4ALLOracle.sol\":914:952  AggregatorV3Interface public priceFeed */\n    tag_11:\n      sload(0x02)\n      tag_54\n      swap1\n      0x0100\n      swap1\n      div\n      sub(shl(0xa0, 0x01), 0x01)\n      and\n      dup2\n      jump\n    tag_54:\n      mload(0x40)\n      sub(shl(0xa0, 0x01), 0x01)\n        /* \"#utility.yul\":1819:1851   */\n      swap1\n      swap2\n      and\n        /* \"#utility.yul\":1801:1852   */\n      dup2\n      mstore\n        /* \"#utility.yul\":1789:1791   */\n      0x20\n        /* \"#utility.yul\":1774:1792   */\n      add\n        /* \"oracle/UBI4ALLOracle.sol\":914:952  AggregatorV3Interface public priceFeed */\n      tag_31\n        /* \"#utility.yul\":1627:1858   */\n      jump\n        /* \"oracle/UBI4ALLOracle.sol\":7584:7688  function pause() external onlyOwner {... */\n    tag_12:\n      tag_23\n      tag_59\n      jump\t// in\n        /* \"@openzeppelin/contracts/access/Ownable.sol\":1638:1723  function owner() public view virtual returns (address) {... */\n    tag_13:\n        /* \"@openzeppelin/contracts/access/Ownable.sol\":1684:1691  address */\n      0x00\n        /* \"@openzeppelin/contracts/access/Ownable.sol\":1710:1716  _owner */\n      sload\n      sub(shl(0xa0, 0x01), 0x01)\n      and\n        /* \"@openzeppelin/contracts/access/Ownable.sol\":1638:1723  function owner() public view virtual returns (address) {... */\n      jump(tag_54)\n        /* \"oracle/UBI4ALLOracle.sol\":6543:7046  function addOracleSource(... */\n    tag_14:\n      tag_23\n      tag_65\n      calldatasize\n      0x04\n      tag_66\n      jump\t// in\n    tag_65:\n      tag_67\n      jump\t// in\n        /* \"oracle/UBI4ALLOracle.sol\":1000:1057  bytes32 public constant EUR_USD_PAIR = bytes32(\"EUR/USD\") */\n    tag_15:\n      tag_48\n      shl(0xca, 0x1155548bd554d1)\n      dup2\n      jump\n        /* \"oracle/UBI4ALLOracle.sol\":1374:1437  uint256 public constant CHAINLINK_STALENESS_THRESHOLD = 1 hours */\n    tag_16:\n      tag_48\n        /* \"oracle/UBI4ALLOracle.sol\":1430:1437  1 hours */\n      0x0e10\n        /* \"oracle/UBI4ALLOracle.sol\":1374:1437  uint256 public constant CHAINLINK_STALENESS_THRESHOLD = 1 hours */\n      dup2\n      jump\n        /* \"oracle/UBI4ALLOracle.sol\":1122:1171  mapping(bytes32 => PriceData) public latestPrices */\n    tag_17:\n      tag_27\n      tag_76\n      calldatasize\n      0x04\n      tag_29\n      jump\t// in\n    tag_76:\n      mstore(0x20, 0x03)\n      0x00\n      swap1\n      dup2\n      mstore\n      0x40\n      swap1\n      keccak256\n      dup1\n      sload\n      0x01\n      dup3\n      add\n      sload\n      0x02\n      swap1\n      swap3\n      add\n      sload\n      swap1\n      swap2\n      swap1\n      0xff\n      and\n      dup4\n      jump\n        /* \"@openzeppelin/contracts/access/Ownable.sol\":2543:2758  function transferOwnership(address newOwner) public virtual onlyOwner {... */\n    tag_18:\n      tag_23\n      tag_80\n      calldatasize\n      0x04\n      tag_35\n      jump\t// in\n    tag_80:\n      tag_81\n      jump\t// in\n        /* \"oracle/UBI4ALLOracle.sol\":2545:3093  function updatePrice(... */\n    tag_19:\n      tag_23\n      tag_83\n      calldatasize\n      0x04\n      tag_84\n      jump\t// in\n    tag_83:\n      tag_85\n      jump\t// in\n        /* \"oracle/UBI4ALLOracle.sol\":7240:7513  function removeOracleSource(bytes32 pair, address source) external view override onlyOwner {... */\n    tag_26:\n        /* \"@openzeppelin/contracts/access/Ownable.sol\":1531:1544  _checkOwner() */\n      tag_87\n        /* \"@openzeppelin/contracts/access/Ownable.sol\":1531:1542  _checkOwner */\n      tag_88\n        /* \"@openzeppelin/contracts/access/Ownable.sol\":1531:1544  _checkOwner() */\n      jump\t// in\n    tag_87:\n      shl(0xca, 0x1155548bd554d1)\n        /* \"oracle/UBI4ALLOracle.sol\":7349:7353  pair */\n      dup3\n        /* \"oracle/UBI4ALLOracle.sol\":7349:7369  pair == EUR_USD_PAIR */\n      eq\n        /* \"oracle/UBI4ALLOracle.sol\":7341:7386  require(pair == EUR_USD_PAIR, \"Invalid pair\") */\n      tag_90\n      jumpi\n      mload(0x40)\n      shl(0xe5, 0x461bcd)\n      dup2\n      mstore\n      0x04\n      add\n      tag_91\n      swap1\n      tag_92\n      jump\t// in\n    tag_91:\n      mload(0x40)\n      dup1\n      swap2\n      sub\n      swap1\n      revert\n    tag_90:\n        /* \"oracle/UBI4ALLOracle.sol\":7422:7431  priceFeed */\n      sload(0x02)\n      sub(shl(0xa0, 0x01), 0x01)\n        /* \"oracle/UBI4ALLOracle.sol\":7404:7432  source == address(priceFeed) */\n      dup3\n      dup2\n      and\n        /* \"oracle/UBI4ALLOracle.sol\":7422:7431  priceFeed */\n      0x0100\n      swap1\n      swap3\n      div\n      and\n        /* \"oracle/UBI4ALLOracle.sol\":7404:7432  source == address(priceFeed) */\n      eq\n        /* \"oracle/UBI4ALLOracle.sol\":7396:7451  require(source == address(priceFeed), \"Invalid source\") */\n      tag_93\n      jumpi\n      mload(0x40)\n      shl(0xe5, 0x461bcd)\n      dup2\n      mstore\n        /* \"#utility.yul\":4176:4178   */\n      0x20\n        /* \"oracle/UBI4ALLOracle.sol\":7396:7451  require(source == address(priceFeed), \"Invalid source\") */\n      0x04\n      dup3\n      add\n        /* \"#utility.yul\":4158:4179   */\n      mstore\n        /* \"#utility.yul\":4215:4217   */\n      0x0e\n        /* \"#utility.yul\":4195:4213   */\n      0x24\n      dup3\n      add\n        /* \"#utility.yul\":4188:4218   */\n      mstore\n      shl(0x90, 0x496e76616c696420736f75726365)\n        /* \"#utility.yul\":4234:4252   */\n      0x44\n      dup3\n      add\n        /* \"#utility.yul\":4227:4271   */\n      mstore\n        /* \"#utility.yul\":4288:4306   */\n      0x64\n      add\n        /* \"oracle/UBI4ALLOracle.sol\":7396:7451  require(source == address(priceFeed), \"Invalid source\") */\n      tag_91\n        /* \"#utility.yul\":3974:4312   */\n      jump\n        /* \"oracle/UBI4ALLOracle.sol\":7396:7451  require(source == address(priceFeed), \"Invalid source\") */\n    tag_93:\n        /* \"oracle/UBI4ALLOracle.sol\":7240:7513  function removeOracleSource(bytes32 pair, address source) external view override onlyOwner {... */\n      pop\n      pop\n      jump\t// out\n        /* \"oracle/UBI4ALLOracle.sol\":4728:4942  function getAggregatedPrice(bytes32 pair) ... */\n    tag_30:\n        /* \"oracle/UBI4ALLOracle.sol\":4916:4935  this.getPrice(pair) */\n      mload(0x40)\n      shl(0xe0, 0x31d98b3f)\n      dup2\n      mstore\n      0x04\n      dup2\n      add\n        /* \"#utility.yul\":1591:1616   */\n      dup3\n      swap1\n      mstore\n        /* \"oracle/UBI4ALLOracle.sol\":4838:4859  uint256 weightedPrice */\n      0x00\n      swap1\n      dup2\n      swap1\n      dup2\n      swap1\n        /* \"oracle/UBI4ALLOracle.sol\":4916:4920  this */\n      address\n      swap1\n        /* \"oracle/UBI4ALLOracle.sol\":4916:4929  this.getPrice */\n      0x31d98b3f\n      swap1\n        /* \"#utility.yul\":1564:1582   */\n      0x24\n      add\n        /* \"oracle/UBI4ALLOracle.sol\":4916:4935  this.getPrice(pair) */\n      0x60\n      mload(0x40)\n      dup1\n      dup4\n      sub\n      dup2\n      dup7\n      gas\n      staticcall\n      iszero\n      dup1\n      iszero\n      tag_99\n      jumpi\n      returndatasize\n      0x00\n      dup1\n      returndatacopy\n      revert(0x00, returndatasize)\n    tag_99:\n      pop\n      pop\n      pop\n      pop\n      mload(0x40)\n      returndatasize\n      not(0x1f)\n      0x1f\n      dup3\n      add\n      and\n      dup3\n      add\n      dup1\n      0x40\n      mstore\n      pop\n      dup2\n      add\n      swap1\n      tag_100\n      swap2\n      swap1\n      tag_101\n      jump\t// in\n    tag_100:\n        /* \"oracle/UBI4ALLOracle.sol\":4909:4935  return this.getPrice(pair) */\n      swap3\n      pop\n      swap3\n      pop\n      swap3\n      pop\n        /* \"oracle/UBI4ALLOracle.sol\":4728:4942  function getAggregatedPrice(bytes32 pair) ... */\n    tag_96:\n      swap2\n      swap4\n      swap1\n      swap3\n      pop\n      jump\t// out\n        /* \"oracle/UBI4ALLOracle.sol\":5237:6059  function getSourcePrice(address source) ... */\n    tag_36:\n        /* \"oracle/UBI4ALLOracle.sol\":5434:5443  priceFeed */\n      sload(0x02)\n        /* \"oracle/UBI4ALLOracle.sol\":5345:5358  uint256 price */\n      0x00\n      swap1\n      dup2\n      swap1\n      dup2\n      swap1\n      sub(shl(0xa0, 0x01), 0x01)\n        /* \"oracle/UBI4ALLOracle.sol\":5416:5444  source == address(priceFeed) */\n      dup6\n      dup2\n      and\n        /* \"oracle/UBI4ALLOracle.sol\":5434:5443  priceFeed */\n      0x0100\n      swap1\n      swap3\n      div\n      and\n        /* \"oracle/UBI4ALLOracle.sol\":5416:5444  source == address(priceFeed) */\n      eq\n        /* \"oracle/UBI4ALLOracle.sol\":5408:5463  require(source == address(priceFeed), \"Invalid source\") */\n      tag_103\n      jumpi\n      mload(0x40)\n      shl(0xe5, 0x461bcd)\n      dup2\n      mstore\n        /* \"#utility.yul\":4176:4178   */\n      0x20\n        /* \"oracle/UBI4ALLOracle.sol\":5408:5463  require(source == address(priceFeed), \"Invalid source\") */\n      0x04\n      dup3\n      add\n        /* \"#utility.yul\":4158:4179   */\n      mstore\n        /* \"#utility.yul\":4215:4217   */\n      0x0e\n        /* \"#utility.yul\":4195:4213   */\n      0x24\n      dup3\n      add\n        /* \"#utility.yul\":4188:4218   */\n      mstore\n      shl(0x90, 0x496e76616c696420736f75726365)\n        /* \"#utility.yul\":4234:4252   */\n      0x44\n      dup3\n      add\n        /* \"#utility.yul\":4227:4271   */\n      mstore\n        /* \"#utility.yul\":4288:4306   */\n      0x64\n      add\n        /* \"oracle/UBI4ALLOracle.sol\":5408:5463  require(source == address(priceFeed), \"Invalid source\") */\n      tag_91\n        /* \"#utility.yul\":3974:4312   */\n      jump\n        /* \"oracle/UBI4ALLOracle.sol\":5408:5463  require(source == address(priceFeed), \"Invalid source\") */\n    tag_103:\n        /* \"oracle/UBI4ALLOracle.sol\":5477:5486  priceFeed */\n      0x02\n      0x01\n      swap1\n      sload\n      swap1\n      0x0100\n      exp\n      swap1\n      div\n      sub(shl(0xa0, 0x01), 0x01)\n      and\n      sub(shl(0xa0, 0x01), 0x01)\n        /* \"oracle/UBI4ALLOracle.sol\":5477:5502  priceFeed.latestRoundData */\n      and\n      0xfeaf968c\n        /* \"oracle/UBI4ALLOracle.sol\":5477:5504  priceFeed.latestRoundData() */\n      mload(0x40)\n      dup2\n      0xffffffff\n      and\n      0xe0\n      shl\n      dup2\n      mstore\n      0x04\n      add\n      0xa0\n      mload(0x40)\n      dup1\n      dup4\n      sub\n      dup2\n      dup7\n      gas\n      staticcall\n      swap3\n      pop\n      pop\n      pop\n      dup1\n      iszero\n      tag_105\n      jumpi\n      pop\n      0x40\n      dup1\n      mload\n      0x1f\n      returndatasize\n      swap1\n      dup2\n      add\n      not(0x1f)\n      and\n      dup3\n      add\n      swap1\n      swap3\n      mstore\n      tag_106\n      swap2\n      dup2\n      add\n      swap1\n      tag_107\n      jump\t// in\n    tag_106:\n      0x01\n    tag_105:\n        /* \"oracle/UBI4ALLOracle.sol\":5473:6053  try priceFeed.latestRoundData() returns (... */\n      tag_108\n      jumpi\n      pop\n        /* \"oracle/UBI4ALLOracle.sol\":6030:6031  0 */\n      0x00\n      swap2\n      pop\n      dup2\n      swap1\n      pop\n      dup1\n        /* \"oracle/UBI4ALLOracle.sol\":6022:6042  return (0, 0, false) */\n      jump(tag_96)\n        /* \"oracle/UBI4ALLOracle.sol\":5473:6053  try priceFeed.latestRoundData() returns (... */\n    tag_108:\n        /* \"oracle/UBI4ALLOracle.sol\":5671:5672  0 */\n      0x00\n        /* \"oracle/UBI4ALLOracle.sol\":5661:5667  answer */\n      dup5\n        /* \"oracle/UBI4ALLOracle.sol\":5661:5672  answer <= 0 */\n      sgt\n        /* \"oracle/UBI4ALLOracle.sol\":5657:5708  if (answer <= 0) revert(\"Chainlink: Invalid price\") */\n      tag_113\n      jumpi\n        /* \"oracle/UBI4ALLOracle.sol\":5674:5708  revert(\"Chainlink: Invalid price\") */\n      mload(0x40)\n      shl(0xe5, 0x461bcd)\n      dup2\n      mstore\n        /* \"#utility.yul\":5789:5791   */\n      0x20\n        /* \"oracle/UBI4ALLOracle.sol\":5674:5708  revert(\"Chainlink: Invalid price\") */\n      0x04\n      dup3\n      add\n        /* \"#utility.yul\":5771:5792   */\n      mstore\n        /* \"#utility.yul\":5828:5830   */\n      0x18\n        /* \"#utility.yul\":5808:5826   */\n      0x24\n      dup3\n      add\n        /* \"#utility.yul\":5801:5831   */\n      mstore\n      shl(0x40, 0x436861696e6c696e6b3a20496e76616c6964207072696365)\n        /* \"#utility.yul\":5847:5865   */\n      0x44\n      dup3\n      add\n        /* \"#utility.yul\":5840:5894   */\n      mstore\n        /* \"#utility.yul\":5911:5929   */\n      0x64\n      add\n        /* \"oracle/UBI4ALLOracle.sol\":5674:5708  revert(\"Chainlink: Invalid price\") */\n      tag_91\n        /* \"#utility.yul\":5587:5935   */\n      jump\n        /* \"oracle/UBI4ALLOracle.sol\":5657:5708  if (answer <= 0) revert(\"Chainlink: Invalid price\") */\n    tag_113:\n        /* \"oracle/UBI4ALLOracle.sol\":5726:5735  updatedAt */\n      dup2\n        /* \"oracle/UBI4ALLOracle.sol\":5739:5740  0 */\n      0x00\n        /* \"oracle/UBI4ALLOracle.sol\":5726:5740  updatedAt == 0 */\n      sub\n        /* \"oracle/UBI4ALLOracle.sol\":5722:5781  if (updatedAt == 0) revert(\"Chainlink: Round not complete\") */\n      tag_116\n      jumpi\n        /* \"oracle/UBI4ALLOracle.sol\":5742:5781  revert(\"Chainlink: Round not complete\") */\n      mload(0x40)\n      shl(0xe5, 0x461bcd)\n      dup2\n      mstore\n        /* \"#utility.yul\":6142:6144   */\n      0x20\n        /* \"oracle/UBI4ALLOracle.sol\":5742:5781  revert(\"Chainlink: Round not complete\") */\n      0x04\n      dup3\n      add\n        /* \"#utility.yul\":6124:6145   */\n      mstore\n        /* \"#utility.yul\":6181:6183   */\n      0x1d\n        /* \"#utility.yul\":6161:6179   */\n      0x24\n      dup3\n      add\n        /* \"#utility.yul\":6154:6184   */\n      mstore\n        /* \"#utility.yul\":6220:6251   */\n      0x436861696e6c696e6b3a20526f756e64206e6f7420636f6d706c657465000000\n        /* \"#utility.yul\":6200:6218   */\n      0x44\n      dup3\n      add\n        /* \"#utility.yul\":6193:6252   */\n      mstore\n        /* \"#utility.yul\":6269:6287   */\n      0x64\n      add\n        /* \"oracle/UBI4ALLOracle.sol\":5742:5781  revert(\"Chainlink: Round not complete\") */\n      tag_91\n        /* \"#utility.yul\":5940:6293   */\n      jump\n        /* \"oracle/UBI4ALLOracle.sol\":5722:5781  if (updatedAt == 0) revert(\"Chainlink: Round not complete\") */\n    tag_116:\n        /* \"oracle/UBI4ALLOracle.sol\":1430:1437  1 hours */\n      0x0e10\n        /* \"oracle/UBI4ALLOracle.sol\":5799:5826  block.timestamp - updatedAt */\n      tag_119\n        /* \"oracle/UBI4ALLOracle.sol\":5817:5826  updatedAt */\n      dup4\n        /* \"oracle/UBI4ALLOracle.sol\":5799:5814  block.timestamp */\n      timestamp\n        /* \"oracle/UBI4ALLOracle.sol\":5799:5826  block.timestamp - updatedAt */\n      tag_120\n      jump\t// in\n    tag_119:\n        /* \"oracle/UBI4ALLOracle.sol\":5799:5858  block.timestamp - updatedAt > CHAINLINK_STALENESS_THRESHOLD */\n      gt\n        /* \"oracle/UBI4ALLOracle.sol\":5795:5925  if (block.timestamp - updatedAt > CHAINLINK_STALENESS_THRESHOLD) {... */\n      iszero\n      tag_121\n      jumpi\n        /* \"oracle/UBI4ALLOracle.sol\":5878:5910  revert(\"Chainlink: Stale price\") */\n      mload(0x40)\n      shl(0xe5, 0x461bcd)\n      dup2\n      mstore\n        /* \"#utility.yul\":6730:6732   */\n      0x20\n        /* \"oracle/UBI4ALLOracle.sol\":5878:5910  revert(\"Chainlink: Stale price\") */\n      0x04\n      dup3\n      add\n        /* \"#utility.yul\":6712:6733   */\n      mstore\n        /* \"#utility.yul\":6769:6771   */\n      0x16\n        /* \"#utility.yul\":6749:6767   */\n      0x24\n      dup3\n      add\n        /* \"#utility.yul\":6742:6772   */\n      mstore\n      shl(0x50, 0x436861696e6c696e6b3a205374616c65207072696365)\n        /* \"#utility.yul\":6788:6806   */\n      0x44\n      dup3\n      add\n        /* \"#utility.yul\":6781:6833   */\n      mstore\n        /* \"#utility.yul\":6850:6868   */\n      0x64\n      add\n        /* \"oracle/UBI4ALLOracle.sol\":5878:5910  revert(\"Chainlink: Stale price\") */\n      tag_91\n        /* \"#utility.yul\":6528:6874   */\n      jump\n        /* \"oracle/UBI4ALLOracle.sol\":5795:5925  if (block.timestamp - updatedAt > CHAINLINK_STALENESS_THRESHOLD) {... */\n    tag_121:\n        /* \"oracle/UBI4ALLOracle.sol\":5946:5972  SafeCast.toUint256(answer) */\n      tag_124\n        /* \"oracle/UBI4ALLOracle.sol\":5965:5971  answer */\n      dup5\n        /* \"oracle/UBI4ALLOracle.sol\":5946:5964  SafeCast.toUint256 */\n      tag_125\n        /* \"oracle/UBI4ALLOracle.sol\":5946:5972  SafeCast.toUint256(answer) */\n      jump\t// in\n    tag_124:\n        /* \"oracle/UBI4ALLOracle.sol\":5974:5983  updatedAt */\n      dup3\n        /* \"oracle/UBI4ALLOracle.sol\":5985:5989  true */\n      0x01\n        /* \"oracle/UBI4ALLOracle.sol\":5938:5990  return (SafeCast.toUint256(answer), updatedAt, true) */\n      swap8\n      pop\n      swap8\n      pop\n      swap8\n      pop\n      pop\n      pop\n      pop\n      pop\n      pop\n      jump(tag_96)\n        /* \"oracle/UBI4ALLOracle.sol\":3380:4424  function getPrice(bytes32 pair) ... */\n    tag_40:\n        /* \"oracle/UBI4ALLOracle.sol\":3480:3493  uint256 price */\n      0x00\n        /* \"oracle/UBI4ALLOracle.sol\":3495:3512  uint256 timestamp */\n      dup1\n        /* \"oracle/UBI4ALLOracle.sol\":3514:3526  bool isValid */\n      0x00\n      shl(0xca, 0x1155548bd554d1)\n        /* \"oracle/UBI4ALLOracle.sol\":3551:3555  pair */\n      dup5\n        /* \"oracle/UBI4ALLOracle.sol\":3551:3571  pair == EUR_USD_PAIR */\n      eq\n        /* \"oracle/UBI4ALLOracle.sol\":3543:3588  require(pair == EUR_USD_PAIR, \"Invalid pair\") */\n      tag_127\n      jumpi\n      mload(0x40)\n      shl(0xe5, 0x461bcd)\n      dup2\n      mstore\n      0x04\n      add\n      tag_91\n      swap1\n      tag_92\n      jump\t// in\n    tag_127:\n        /* \"oracle/UBI4ALLOracle.sol\":3598:3619  PriceData memory data */\n      0x00\n        /* \"oracle/UBI4ALLOracle.sol\":3622:3640  latestPrices[pair] */\n      dup5\n      dup2\n      mstore\n        /* \"oracle/UBI4ALLOracle.sol\":3622:3634  latestPrices */\n      0x03\n        /* \"oracle/UBI4ALLOracle.sol\":3622:3640  latestPrices[pair] */\n      0x20\n      swap1\n      dup2\n      mstore\n      0x40\n      swap2\n      dup3\n      swap1\n      keccak256\n        /* \"oracle/UBI4ALLOracle.sol\":3598:3640  PriceData memory data = latestPrices[pair] */\n      dup3\n      mload\n      0x60\n      dup2\n      add\n      dup5\n      mstore\n      dup2\n      sload\n      dup2\n      mstore\n      0x01\n      dup3\n      add\n      sload\n      swap3\n      dup2\n      add\n      swap3\n      swap1\n      swap3\n      mstore\n      0x02\n      add\n      sload\n      0xff\n      and\n      iszero\n      dup1\n      iszero\n      swap3\n      dup3\n      add\n      dup4\n      swap1\n      mstore\n      swap1\n      swap2\n      swap1\n        /* \"oracle/UBI4ALLOracle.sol\":3655:3728  data.isValid && block.timestamp - data.timestamp <= PRICE_VALIDITY_PERIOD */\n      tag_129\n      jumpi\n      pop\n        /* \"oracle/UBI4ALLOracle.sol\":1283:1293  15 minutes */\n      0x0384\n        /* \"oracle/UBI4ALLOracle.sol\":3689:3693  data */\n      dup2\n        /* \"oracle/UBI4ALLOracle.sol\":3689:3703  data.timestamp */\n      0x20\n      add\n      mload\n        /* \"oracle/UBI4ALLOracle.sol\":3671:3686  block.timestamp */\n      timestamp\n        /* \"oracle/UBI4ALLOracle.sol\":3671:3703  block.timestamp - data.timestamp */\n      tag_130\n      swap2\n      swap1\n      tag_120\n      jump\t// in\n    tag_130:\n        /* \"oracle/UBI4ALLOracle.sol\":3671:3728  block.timestamp - data.timestamp <= PRICE_VALIDITY_PERIOD */\n      gt\n      iszero\n        /* \"oracle/UBI4ALLOracle.sol\":3655:3728  data.isValid && block.timestamp - data.timestamp <= PRICE_VALIDITY_PERIOD */\n    tag_129:\n        /* \"oracle/UBI4ALLOracle.sol\":3651:3796  if (data.isValid && block.timestamp - data.timestamp <= PRICE_VALIDITY_PERIOD) {... */\n      iszero\n      tag_131\n      jumpi\n        /* \"oracle/UBI4ALLOracle.sol\":3752:3762  data.price */\n      dup1\n      mload\n        /* \"oracle/UBI4ALLOracle.sol\":3764:3778  data.timestamp */\n      0x20\n      swap1\n      swap2\n      add\n      mload\n        /* \"oracle/UBI4ALLOracle.sol\":3752:3762  data.price */\n      swap1\n      swap4\n      pop\n        /* \"oracle/UBI4ALLOracle.sol\":3764:3778  data.timestamp */\n      swap2\n      pop\n        /* \"oracle/UBI4ALLOracle.sol\":3780:3784  true */\n      0x01\n      swap1\n      pop\n        /* \"oracle/UBI4ALLOracle.sol\":3744:3785  return (data.price, data.timestamp, true) */\n      jump(tag_96)\n        /* \"oracle/UBI4ALLOracle.sol\":3651:3796  if (data.isValid && block.timestamp - data.timestamp <= PRICE_VALIDITY_PERIOD) {... */\n    tag_131:\n        /* \"oracle/UBI4ALLOracle.sol\":3842:3851  priceFeed */\n      0x02\n      0x01\n      swap1\n      sload\n      swap1\n      0x0100\n      exp\n      swap1\n      div\n      sub(shl(0xa0, 0x01), 0x01)\n      and\n      sub(shl(0xa0, 0x01), 0x01)\n        /* \"oracle/UBI4ALLOracle.sol\":3842:3867  priceFeed.latestRoundData */\n      and\n      0xfeaf968c\n        /* \"oracle/UBI4ALLOracle.sol\":3842:3869  priceFeed.latestRoundData() */\n      mload(0x40)\n      dup2\n      0xffffffff\n      and\n      0xe0\n      shl\n      dup2\n      mstore\n      0x04\n      add\n      0xa0\n      mload(0x40)\n      dup1\n      dup4\n      sub\n      dup2\n      dup7\n      gas\n      staticcall\n      swap3\n      pop\n      pop\n      pop\n      dup1\n      iszero\n      tag_132\n      jumpi\n      pop\n      0x40\n      dup1\n      mload\n      0x1f\n      returndatasize\n      swap1\n      dup2\n      add\n      not(0x1f)\n      and\n      dup3\n      add\n      swap1\n      swap3\n      mstore\n      tag_133\n      swap2\n      dup2\n      add\n      swap1\n      tag_107\n      jump\t// in\n    tag_133:\n      0x01\n    tag_132:\n        /* \"oracle/UBI4ALLOracle.sol\":3838:4418  try priceFeed.latestRoundData() returns (... */\n      tag_134\n      jumpi\n        /* \"oracle/UBI4ALLOracle.sol\":4395:4396  0 */\n      0x00\n        /* \"oracle/UBI4ALLOracle.sol\":4398:4399  0 */\n      dup1\n        /* \"oracle/UBI4ALLOracle.sol\":4401:4406  false */\n      0x00\n        /* \"oracle/UBI4ALLOracle.sol\":4387:4407  return (0, 0, false) */\n      swap4\n      pop\n      swap4\n      pop\n      swap4\n      pop\n      pop\n      jump(tag_96)\n        /* \"oracle/UBI4ALLOracle.sol\":3838:4418  try priceFeed.latestRoundData() returns (... */\n    tag_134:\n        /* \"oracle/UBI4ALLOracle.sol\":4036:4037  0 */\n      0x00\n        /* \"oracle/UBI4ALLOracle.sol\":4026:4032  answer */\n      dup5\n        /* \"oracle/UBI4ALLOracle.sol\":4026:4037  answer <= 0 */\n      sgt\n        /* \"oracle/UBI4ALLOracle.sol\":4022:4073  if (answer <= 0) revert(\"Chainlink: Invalid price\") */\n      tag_139\n      jumpi\n        /* \"oracle/UBI4ALLOracle.sol\":4039:4073  revert(\"Chainlink: Invalid price\") */\n      mload(0x40)\n      shl(0xe5, 0x461bcd)\n      dup2\n      mstore\n        /* \"#utility.yul\":5789:5791   */\n      0x20\n        /* \"oracle/UBI4ALLOracle.sol\":4039:4073  revert(\"Chainlink: Invalid price\") */\n      0x04\n      dup3\n      add\n        /* \"#utility.yul\":5771:5792   */\n      mstore\n        /* \"#utility.yul\":5828:5830   */\n      0x18\n        /* \"#utility.yul\":5808:5826   */\n      0x24\n      dup3\n      add\n        /* \"#utility.yul\":5801:5831   */\n      mstore\n      shl(0x40, 0x436861696e6c696e6b3a20496e76616c6964207072696365)\n        /* \"#utility.yul\":5847:5865   */\n      0x44\n      dup3\n      add\n        /* \"#utility.yul\":5840:5894   */\n      mstore\n        /* \"#utility.yul\":5911:5929   */\n      0x64\n      add\n        /* \"oracle/UBI4ALLOracle.sol\":4039:4073  revert(\"Chainlink: Invalid price\") */\n      tag_91\n        /* \"#utility.yul\":5587:5935   */\n      jump\n        /* \"oracle/UBI4ALLOracle.sol\":4022:4073  if (answer <= 0) revert(\"Chainlink: Invalid price\") */\n    tag_139:\n        /* \"oracle/UBI4ALLOracle.sol\":4091:4100  updatedAt */\n      dup2\n        /* \"oracle/UBI4ALLOracle.sol\":4104:4105  0 */\n      0x00\n        /* \"oracle/UBI4ALLOracle.sol\":4091:4105  updatedAt == 0 */\n      sub\n        /* \"oracle/UBI4ALLOracle.sol\":4087:4146  if (updatedAt == 0) revert(\"Chainlink: Round not complete\") */\n      tag_141\n      jumpi\n        /* \"oracle/UBI4ALLOracle.sol\":4107:4146  revert(\"Chainlink: Round not complete\") */\n      mload(0x40)\n      shl(0xe5, 0x461bcd)\n      dup2\n      mstore\n        /* \"#utility.yul\":6142:6144   */\n      0x20\n        /* \"oracle/UBI4ALLOracle.sol\":4107:4146  revert(\"Chainlink: Round not complete\") */\n      0x04\n      dup3\n      add\n        /* \"#utility.yul\":6124:6145   */\n      mstore\n        /* \"#utility.yul\":6181:6183   */\n      0x1d\n        /* \"#utility.yul\":6161:6179   */\n      0x24\n      dup3\n      add\n        /* \"#utility.yul\":6154:6184   */\n      mstore\n        /* \"#utility.yul\":6220:6251   */\n      0x436861696e6c696e6b3a20526f756e64206e6f7420636f6d706c657465000000\n        /* \"#utility.yul\":6200:6218   */\n      0x44\n      dup3\n      add\n        /* \"#utility.yul\":6193:6252   */\n      mstore\n        /* \"#utility.yul\":6269:6287   */\n      0x64\n      add\n        /* \"oracle/UBI4ALLOracle.sol\":4107:4146  revert(\"Chainlink: Round not complete\") */\n      tag_91\n        /* \"#utility.yul\":5940:6293   */\n      jump\n        /* \"oracle/UBI4ALLOracle.sol\":4087:4146  if (updatedAt == 0) revert(\"Chainlink: Round not complete\") */\n    tag_141:\n        /* \"oracle/UBI4ALLOracle.sol\":1430:1437  1 hours */\n      0x0e10\n        /* \"oracle/UBI4ALLOracle.sol\":4164:4191  block.timestamp - updatedAt */\n      tag_143\n        /* \"oracle/UBI4ALLOracle.sol\":4182:4191  updatedAt */\n      dup4\n        /* \"oracle/UBI4ALLOracle.sol\":4164:4179  block.timestamp */\n      timestamp\n        /* \"oracle/UBI4ALLOracle.sol\":4164:4191  block.timestamp - updatedAt */\n      tag_120\n      jump\t// in\n    tag_143:\n        /* \"oracle/UBI4ALLOracle.sol\":4164:4223  block.timestamp - updatedAt > CHAINLINK_STALENESS_THRESHOLD */\n      gt\n        /* \"oracle/UBI4ALLOracle.sol\":4160:4290  if (block.timestamp - updatedAt > CHAINLINK_STALENESS_THRESHOLD) {... */\n      iszero\n      tag_144\n      jumpi\n        /* \"oracle/UBI4ALLOracle.sol\":4243:4275  revert(\"Chainlink: Stale price\") */\n      mload(0x40)\n      shl(0xe5, 0x461bcd)\n      dup2\n      mstore\n        /* \"#utility.yul\":6730:6732   */\n      0x20\n        /* \"oracle/UBI4ALLOracle.sol\":4243:4275  revert(\"Chainlink: Stale price\") */\n      0x04\n      dup3\n      add\n        /* \"#utility.yul\":6712:6733   */\n      mstore\n        /* \"#utility.yul\":6769:6771   */\n      0x16\n        /* \"#utility.yul\":6749:6767   */\n      0x24\n      dup3\n      add\n        /* \"#utility.yul\":6742:6772   */\n      mstore\n      shl(0x50, 0x436861696e6c696e6b3a205374616c65207072696365)\n        /* \"#utility.yul\":6788:6806   */\n      0x44\n      dup3\n      add\n        /* \"#utility.yul\":6781:6833   */\n      mstore\n        /* \"#utility.yul\":6850:6868   */\n      0x64\n      add\n        /* \"oracle/UBI4ALLOracle.sol\":4243:4275  revert(\"Chainlink: Stale price\") */\n      tag_91\n        /* \"#utility.yul\":6528:6874   */\n      jump\n        /* \"oracle/UBI4ALLOracle.sol\":4160:4290  if (block.timestamp - updatedAt > CHAINLINK_STALENESS_THRESHOLD) {... */\n    tag_144:\n        /* \"oracle/UBI4ALLOracle.sol\":4311:4337  SafeCast.toUint256(answer) */\n      tag_146\n        /* \"oracle/UBI4ALLOracle.sol\":4330:4336  answer */\n      dup5\n        /* \"oracle/UBI4ALLOracle.sol\":4311:4329  SafeCast.toUint256 */\n      tag_125\n        /* \"oracle/UBI4ALLOracle.sol\":4311:4337  SafeCast.toUint256(answer) */\n      jump\t// in\n    tag_146:\n        /* \"oracle/UBI4ALLOracle.sol\":4339:4348  updatedAt */\n      dup3\n        /* \"oracle/UBI4ALLOracle.sol\":4350:4354  true */\n      0x01\n        /* \"oracle/UBI4ALLOracle.sol\":4303:4355  return (SafeCast.toUint256(answer), updatedAt, true) */\n      swap9\n      pop\n      swap9\n      pop\n      swap9\n      pop\n      pop\n      pop\n      pop\n      pop\n      pop\n      pop\n      jump(tag_96)\n        /* \"oracle/UBI4ALLOracle.sol\":7746:7811  function unpause() external onlyOwner {... */\n    tag_43:\n        /* \"@openzeppelin/contracts/access/Ownable.sol\":1531:1544  _checkOwner() */\n      tag_148\n        /* \"@openzeppelin/contracts/access/Ownable.sol\":1531:1542  _checkOwner */\n      tag_88\n        /* \"@openzeppelin/contracts/access/Ownable.sol\":1531:1544  _checkOwner() */\n      jump\t// in\n    tag_148:\n        /* \"oracle/UBI4ALLOracle.sol\":7794:7804  _unpause() */\n      tag_150\n        /* \"oracle/UBI4ALLOracle.sol\":7794:7802  _unpause */\n      tag_151\n        /* \"oracle/UBI4ALLOracle.sol\":7794:7804  _unpause() */\n      jump\t// in\n    tag_150:\n        /* \"oracle/UBI4ALLOracle.sol\":7746:7811  function unpause() external onlyOwner {... */\n      jump\t// out\n        /* \"@openzeppelin/contracts/access/Ownable.sol\":2293:2394  function renounceOwnership() public virtual onlyOwner {... */\n    tag_53:\n        /* \"@openzeppelin/contracts/access/Ownable.sol\":1531:1544  _checkOwner() */\n      tag_154\n        /* \"@openzeppelin/contracts/access/Ownable.sol\":1531:1542  _checkOwner */\n      tag_88\n        /* \"@openzeppelin/contracts/access/Ownable.sol\":1531:1544  _checkOwner() */\n      jump\t// in\n    tag_154:\n        /* \"@openzeppelin/contracts/access/Ownable.sol\":2357:2387  _transferOwnership(address(0)) */\n      tag_150\n        /* \"@openzeppelin/contracts/access/Ownable.sol\":2384:2385  0 */\n      0x00\n        /* \"@openzeppelin/contracts/access/Ownable.sol\":2357:2375  _transferOwnership */\n      tag_157\n        /* \"@openzeppelin/contracts/access/Ownable.sol\":2357:2387  _transferOwnership(address(0)) */\n      jump\t// in\n        /* \"oracle/UBI4ALLOracle.sol\":7584:7688  function pause() external onlyOwner {... */\n    tag_59:\n        /* \"@openzeppelin/contracts/access/Ownable.sol\":1531:1544  _checkOwner() */\n      tag_159\n        /* \"@openzeppelin/contracts/access/Ownable.sol\":1531:1542  _checkOwner */\n      tag_88\n        /* \"@openzeppelin/contracts/access/Ownable.sol\":1531:1544  _checkOwner() */\n      jump\t// in\n    tag_159:\n        /* \"oracle/UBI4ALLOracle.sol\":7630:7638  _pause() */\n      tag_161\n        /* \"oracle/UBI4ALLOracle.sol\":7630:7636  _pause */\n      tag_162\n        /* \"oracle/UBI4ALLOracle.sol\":7630:7638  _pause() */\n      jump\t// in\n    tag_161:\n        /* \"oracle/UBI4ALLOracle.sol\":7653:7681  EmergencyPause(EUR_USD_PAIR) */\n      mload(0x40)\n      shl(0xca, 0x1155548bd554d1)\n        /* \"oracle/UBI4ALLOracle.sol\":1039:1057  bytes32(\"EUR/USD\") */\n      swap1\n        /* \"oracle/UBI4ALLOracle.sol\":7653:7681  EmergencyPause(EUR_USD_PAIR) */\n      0xd373a1ac37410a4da6def2d7f3f2e704aca3e95e2e251322a031eedda7eb686c\n      swap1\n      0x00\n      swap1\n      log2\n        /* \"oracle/UBI4ALLOracle.sol\":7584:7688  function pause() external onlyOwner {... */\n      jump\t// out\n        /* \"oracle/UBI4ALLOracle.sol\":6543:7046  function addOracleSource(... */\n    tag_67:\n        /* \"@openzeppelin/contracts/access/Ownable.sol\":1531:1544  _checkOwner() */\n      tag_165\n        /* \"@openzeppelin/contracts/access/Ownable.sol\":1531:1542  _checkOwner */\n      tag_88\n        /* \"@openzeppelin/contracts/access/Ownable.sol\":1531:1544  _checkOwner() */\n      jump\t// in\n    tag_165:\n        /* \"@openzeppelin/contracts/security/ReentrancyGuard.sol\":2262:2283  _nonReentrantBefore() */\n      tag_167\n        /* \"@openzeppelin/contracts/security/ReentrancyGuard.sol\":2262:2281  _nonReentrantBefore */\n      tag_168\n        /* \"@openzeppelin/contracts/security/ReentrancyGuard.sol\":2262:2283  _nonReentrantBefore() */\n      jump\t// in\n    tag_167:\n      shl(0xca, 0x1155548bd554d1)\n        /* \"oracle/UBI4ALLOracle.sol\":6791:6795  pair */\n      dup7\n        /* \"oracle/UBI4ALLOracle.sol\":6791:6811  pair == EUR_USD_PAIR */\n      eq\n        /* \"oracle/UBI4ALLOracle.sol\":6783:6828  require(pair == EUR_USD_PAIR, \"Invalid pair\") */\n      tag_170\n      jumpi\n      mload(0x40)\n      shl(0xe5, 0x461bcd)\n      dup2\n      mstore\n      0x04\n      add\n      tag_91\n      swap1\n      tag_92\n      jump\t// in\n    tag_170:\n      sub(shl(0xa0, 0x01), 0x01)\n        /* \"oracle/UBI4ALLOracle.sol\":6846:6866  source != address(0) */\n      dup6\n      and\n        /* \"oracle/UBI4ALLOracle.sol\":6838:6893  require(source != address(0), \"Invalid source address\") */\n      tag_172\n      jumpi\n      mload(0x40)\n      shl(0xe5, 0x461bcd)\n      dup2\n      mstore\n        /* \"#utility.yul\":7081:7083   */\n      0x20\n        /* \"oracle/UBI4ALLOracle.sol\":6838:6893  require(source != address(0), \"Invalid source address\") */\n      0x04\n      dup3\n      add\n        /* \"#utility.yul\":7063:7084   */\n      mstore\n        /* \"#utility.yul\":7120:7122   */\n      0x16\n        /* \"#utility.yul\":7100:7118   */\n      0x24\n      dup3\n      add\n        /* \"#utility.yul\":7093:7123   */\n      mstore\n      shl(0x50, 0x496e76616c696420736f757263652061646472657373)\n        /* \"#utility.yul\":7139:7157   */\n      0x44\n      dup3\n      add\n        /* \"#utility.yul\":7132:7184   */\n      mstore\n        /* \"#utility.yul\":7201:7219   */\n      0x64\n      add\n        /* \"oracle/UBI4ALLOracle.sol\":6838:6893  require(source != address(0), \"Invalid source address\") */\n      tag_91\n        /* \"#utility.yul\":6879:7225   */\n      jump\n        /* \"oracle/UBI4ALLOracle.sol\":6838:6893  require(source != address(0), \"Invalid source address\") */\n    tag_172:\n        /* \"oracle/UBI4ALLOracle.sol\":6930:6939  priceFeed */\n      0x02\n      dup1\n      sload\n      sub(shl(0xa0, 0x01), 0x01)\n        /* \"oracle/UBI4ALLOracle.sol\":6950:6991  priceFeed = AggregatorV3Interface(source) */\n      dup8\n      dup2\n      and\n        /* \"oracle/UBI4ALLOracle.sol\":6930:6939  priceFeed */\n      0x0100\n        /* \"oracle/UBI4ALLOracle.sol\":6950:6991  priceFeed = AggregatorV3Interface(source) */\n      dup2\n      dup2\n      mul\n      not(sub(shl(0xa8, 0x01), 0x0100))\n      dup6\n      and\n      or\n      swap1\n      swap5\n      sstore\n        /* \"oracle/UBI4ALLOracle.sol\":7006:7039  PriceFeedUpdated(oldFeed, source) */\n      mload(0x40)\n        /* \"oracle/UBI4ALLOracle.sol\":6930:6939  priceFeed */\n      swap4\n      swap1\n      swap3\n      div\n      and\n      swap2\n      dup3\n      swap1\n        /* \"oracle/UBI4ALLOracle.sol\":7006:7039  PriceFeedUpdated(oldFeed, source) */\n      0xa8abe0398416476db5b05737cd4da3b3cbde5012d978a6a6c3fd49d321753536\n      swap1\n        /* \"oracle/UBI4ALLOracle.sol\":6904:6919  address oldFeed */\n      0x00\n      swap1\n        /* \"oracle/UBI4ALLOracle.sol\":7006:7039  PriceFeedUpdated(oldFeed, source) */\n      log3\n        /* \"oracle/UBI4ALLOracle.sol\":6773:7046  {... */\n      pop\n        /* \"@openzeppelin/contracts/security/ReentrancyGuard.sol\":2304:2324  _nonReentrantAfter() */\n      tag_175\n        /* \"@openzeppelin/contracts/security/ReentrancyGuard.sol\":1717:1718  1 */\n      0x01\n        /* \"@openzeppelin/contracts/security/ReentrancyGuard.sol\":2810:2832  _status = _NOT_ENTERED */\n      dup1\n      sstore\n        /* \"@openzeppelin/contracts/security/ReentrancyGuard.sol\":2630:2839  function _nonReentrantAfter() private {... */\n      jump\n        /* \"@openzeppelin/contracts/security/ReentrancyGuard.sol\":2304:2324  _nonReentrantAfter() */\n    tag_175:\n        /* \"oracle/UBI4ALLOracle.sol\":6543:7046  function addOracleSource(... */\n      pop\n      pop\n      pop\n      pop\n      pop\n      pop\n      jump\t// out\n        /* \"@openzeppelin/contracts/access/Ownable.sol\":2543:2758  function transferOwnership(address newOwner) public virtual onlyOwner {... */\n    tag_81:\n        /* \"@openzeppelin/contracts/access/Ownable.sol\":1531:1544  _checkOwner() */\n      tag_178\n        /* \"@openzeppelin/contracts/access/Ownable.sol\":1531:1542  _checkOwner */\n      tag_88\n        /* \"@openzeppelin/contracts/access/Ownable.sol\":1531:1544  _checkOwner() */\n      jump\t// in\n    tag_178:\n      sub(shl(0xa0, 0x01), 0x01)\n        /* \"@openzeppelin/contracts/access/Ownable.sol\":2627:2649  newOwner == address(0) */\n      dup2\n      and\n        /* \"@openzeppelin/contracts/access/Ownable.sol\":2623:2714  if (newOwner == address(0)) {... */\n      tag_180\n      jumpi\n        /* \"@openzeppelin/contracts/access/Ownable.sol\":2672:2703  OwnableInvalidOwner(address(0)) */\n      mload(0x40)\n      shl(0xe0, 0x1e4fbdf7)\n      dup2\n      mstore\n        /* \"@openzeppelin/contracts/access/Ownable.sol\":2700:2701  0 */\n      0x00\n        /* \"@openzeppelin/contracts/access/Ownable.sol\":2672:2703  OwnableInvalidOwner(address(0)) */\n      0x04\n      dup3\n      add\n        /* \"#utility.yul\":1801:1852   */\n      mstore\n        /* \"#utility.yul\":1774:1792   */\n      0x24\n      add\n        /* \"@openzeppelin/contracts/access/Ownable.sol\":2672:2703  OwnableInvalidOwner(address(0)) */\n      tag_91\n        /* \"#utility.yul\":1627:1858   */\n      jump\n        /* \"@openzeppelin/contracts/access/Ownable.sol\":2623:2714  if (newOwner == address(0)) {... */\n    tag_180:\n        /* \"@openzeppelin/contracts/access/Ownable.sol\":2723:2751  _transferOwnership(newOwner) */\n      tag_182\n        /* \"@openzeppelin/contracts/access/Ownable.sol\":2742:2750  newOwner */\n      dup2\n        /* \"@openzeppelin/contracts/access/Ownable.sol\":2723:2741  _transferOwnership */\n      tag_157\n        /* \"@openzeppelin/contracts/access/Ownable.sol\":2723:2751  _transferOwnership(newOwner) */\n      jump\t// in\n    tag_182:\n        /* \"@openzeppelin/contracts/access/Ownable.sol\":2543:2758  function transferOwnership(address newOwner) public virtual onlyOwner {... */\n      pop\n      jump\t// out\n        /* \"oracle/UBI4ALLOracle.sol\":2545:3093  function updatePrice(... */\n    tag_85:\n        /* \"@openzeppelin/contracts/access/Ownable.sol\":1531:1544  _checkOwner() */\n      tag_184\n        /* \"@openzeppelin/contracts/access/Ownable.sol\":1531:1542  _checkOwner */\n      tag_88\n        /* \"@openzeppelin/contracts/access/Ownable.sol\":1531:1544  _checkOwner() */\n      jump\t// in\n    tag_184:\n        /* \"@openzeppelin/contracts/security/Pausable.sol\":1240:1259  _requireNotPaused() */\n      tag_186\n        /* \"@openzeppelin/contracts/security/Pausable.sol\":1240:1257  _requireNotPaused */\n      tag_187\n        /* \"@openzeppelin/contracts/security/Pausable.sol\":1240:1259  _requireNotPaused() */\n      jump\t// in\n    tag_186:\n        /* \"@openzeppelin/contracts/security/ReentrancyGuard.sol\":2262:2283  _nonReentrantBefore() */\n      tag_189\n        /* \"@openzeppelin/contracts/security/ReentrancyGuard.sol\":2262:2281  _nonReentrantBefore */\n      tag_168\n        /* \"@openzeppelin/contracts/security/ReentrancyGuard.sol\":2262:2283  _nonReentrantBefore() */\n      jump\t// in\n    tag_189:\n      shl(0xca, 0x1155548bd554d1)\n        /* \"oracle/UBI4ALLOracle.sol\":2745:2749  pair */\n      dup5\n        /* \"oracle/UBI4ALLOracle.sol\":2745:2765  pair == EUR_USD_PAIR */\n      eq\n        /* \"oracle/UBI4ALLOracle.sol\":2737:2782  require(pair == EUR_USD_PAIR, \"Invalid pair\") */\n      tag_191\n      jumpi\n      mload(0x40)\n      shl(0xe5, 0x461bcd)\n      dup2\n      mstore\n      0x04\n      add\n      tag_91\n      swap1\n      tag_92\n      jump\t// in\n    tag_191:\n        /* \"oracle/UBI4ALLOracle.sol\":2813:2828  block.timestamp */\n      timestamp\n        /* \"oracle/UBI4ALLOracle.sol\":2800:2809  timestamp */\n      dup3\n        /* \"oracle/UBI4ALLOracle.sol\":2800:2828  timestamp <= block.timestamp */\n      gt\n      iszero\n        /* \"oracle/UBI4ALLOracle.sol\":2792:2849  require(timestamp <= block.timestamp, \"Future timestamp\") */\n      tag_193\n      jumpi\n      mload(0x40)\n      shl(0xe5, 0x461bcd)\n      dup2\n      mstore\n        /* \"#utility.yul\":7432:7434   */\n      0x20\n        /* \"oracle/UBI4ALLOracle.sol\":2792:2849  require(timestamp <= block.timestamp, \"Future timestamp\") */\n      0x04\n      dup3\n      add\n        /* \"#utility.yul\":7414:7435   */\n      mstore\n        /* \"#utility.yul\":7471:7473   */\n      0x10\n        /* \"#utility.yul\":7451:7469   */\n      0x24\n      dup3\n      add\n        /* \"#utility.yul\":7444:7474   */\n      mstore\n      shl(0x84, 0x04675747572652074696d657374616d7)\n        /* \"#utility.yul\":7490:7508   */\n      0x44\n      dup3\n      add\n        /* \"#utility.yul\":7483:7529   */\n      mstore\n        /* \"#utility.yul\":7546:7564   */\n      0x64\n      add\n        /* \"oracle/UBI4ALLOracle.sol\":2792:2849  require(timestamp <= block.timestamp, \"Future timestamp\") */\n      tag_91\n        /* \"#utility.yul\":7230:7570   */\n      jump\n        /* \"oracle/UBI4ALLOracle.sol\":2792:2849  require(timestamp <= block.timestamp, \"Future timestamp\") */\n    tag_193:\n        /* \"oracle/UBI4ALLOracle.sol\":2875:2876  0 */\n      0x00\n        /* \"oracle/UBI4ALLOracle.sol\":2867:2872  price */\n      dup4\n        /* \"oracle/UBI4ALLOracle.sol\":2867:2876  price > 0 */\n      gt\n        /* \"oracle/UBI4ALLOracle.sol\":2859:2894  require(price > 0, \"Invalid price\") */\n      tag_196\n      jumpi\n      mload(0x40)\n      shl(0xe5, 0x461bcd)\n      dup2\n      mstore\n        /* \"#utility.yul\":7777:7779   */\n      0x20\n        /* \"oracle/UBI4ALLOracle.sol\":2859:2894  require(price > 0, \"Invalid price\") */\n      0x04\n      dup3\n      add\n        /* \"#utility.yul\":7759:7780   */\n      mstore\n        /* \"#utility.yul\":7816:7818   */\n      0x0d\n        /* \"#utility.yul\":7796:7814   */\n      0x24\n      dup3\n      add\n        /* \"#utility.yul\":7789:7819   */\n      mstore\n      shl(0x98, 0x496e76616c6964207072696365)\n        /* \"#utility.yul\":7835:7853   */\n      0x44\n      dup3\n      add\n        /* \"#utility.yul\":7828:7871   */\n      mstore\n        /* \"#utility.yul\":7888:7906   */\n      0x64\n      add\n        /* \"oracle/UBI4ALLOracle.sol\":2859:2894  require(price > 0, \"Invalid price\") */\n      tag_91\n        /* \"#utility.yul\":7575:7912   */\n      jump\n        /* \"oracle/UBI4ALLOracle.sol\":2859:2894  require(price > 0, \"Invalid price\") */\n    tag_196:\n        /* \"oracle/UBI4ALLOracle.sol\":2926:3034  PriceData({... */\n      0x40\n      dup1\n      mload\n      0x60\n      dup2\n      add\n      dup3\n      mstore\n      dup5\n      dup2\n      mstore\n      0x20\n      dup1\n      dup3\n      add\n      dup6\n      dup2\n      mstore\n        /* \"oracle/UBI4ALLOracle.sol\":3019:3023  true */\n      0x01\n        /* \"oracle/UBI4ALLOracle.sol\":2926:3034  PriceData({... */\n      dup4\n      dup6\n      add\n      dup2\n      dup2\n      mstore\n      0x00\n        /* \"oracle/UBI4ALLOracle.sol\":2905:2923  latestPrices[pair] */\n      dup11\n      dup2\n      mstore\n        /* \"oracle/UBI4ALLOracle.sol\":2905:2917  latestPrices */\n      0x03\n        /* \"oracle/UBI4ALLOracle.sol\":2905:2923  latestPrices[pair] */\n      dup6\n      mstore\n      dup7\n      swap1\n      keccak256\n        /* \"oracle/UBI4ALLOracle.sol\":2905:3034  latestPrices[pair] = PriceData({... */\n      swap5\n      mload\n      dup6\n      sstore\n      swap2\n      mload\n      swap1\n      dup5\n      add\n      sstore\n      mload\n      0x02\n      swap1\n      swap3\n      add\n      dup1\n      sload\n      not(0xff)\n      and\n      swap3\n      iszero\n      iszero\n      swap3\n      swap1\n      swap3\n      or\n      swap1\n      swap2\n      sstore\n        /* \"oracle/UBI4ALLOracle.sol\":3050:3086  PriceUpdated(pair, price, timestamp) */\n      dup2\n      mload\n        /* \"#utility.yul\":8091:8116   */\n      dup6\n      dup2\n      mstore\n        /* \"#utility.yul\":8132:8150   */\n      swap1\n      dup2\n      add\n        /* \"#utility.yul\":8125:8159   */\n      dup5\n      swap1\n      mstore\n        /* \"oracle/UBI4ALLOracle.sol\":2905:2923  latestPrices[pair] */\n      dup6\n      swap2\n        /* \"oracle/UBI4ALLOracle.sol\":3050:3086  PriceUpdated(pair, price, timestamp) */\n      0xbcd10d64fce9dcf9568572ed92e371df336d32649e8960a045c9548794a44b26\n      swap2\n        /* \"#utility.yul\":8064:8082   */\n      add\n        /* \"oracle/UBI4ALLOracle.sol\":3050:3086  PriceUpdated(pair, price, timestamp) */\n      mload(0x40)\n      dup1\n      swap2\n      sub\n      swap1\n      log2\n        /* \"@openzeppelin/contracts/security/ReentrancyGuard.sol\":2304:2324  _nonReentrantAfter() */\n      tag_201\n        /* \"@openzeppelin/contracts/security/ReentrancyGuard.sol\":1717:1718  1 */\n      0x01\n        /* \"@openzeppelin/contracts/security/ReentrancyGuard.sol\":2810:2832  _status = _NOT_ENTERED */\n      dup1\n      sstore\n        /* \"@openzeppelin/contracts/security/ReentrancyGuard.sol\":2630:2839  function _nonReentrantAfter() private {... */\n      jump\n        /* \"@openzeppelin/contracts/security/ReentrancyGuard.sol\":2304:2324  _nonReentrantAfter() */\n    tag_201:\n        /* \"oracle/UBI4ALLOracle.sol\":2545:3093  function updatePrice(... */\n      pop\n      pop\n      pop\n      pop\n      jump\t// out\n        /* \"@openzeppelin/contracts/access/Ownable.sol\":1796:1958  function _checkOwner() internal view virtual {... */\n    tag_88:\n        /* \"@openzeppelin/contracts/access/Ownable.sol\":1684:1691  address */\n      0x00\n        /* \"@openzeppelin/contracts/access/Ownable.sol\":1710:1716  _owner */\n      sload\n      sub(shl(0xa0, 0x01), 0x01)\n      and\n        /* \"@openzeppelin/contracts/utils/Context.sol\":735:745  msg.sender */\n      caller\n        /* \"@openzeppelin/contracts/access/Ownable.sol\":1855:1878  owner() != _msgSender() */\n      eq\n        /* \"@openzeppelin/contracts/access/Ownable.sol\":1851:1952  if (owner() != _msgSender()) {... */\n      tag_150\n      jumpi\n        /* \"@openzeppelin/contracts/access/Ownable.sol\":1901:1941  OwnableUnauthorizedAccount(_msgSender()) */\n      mload(0x40)\n      shl(0xe0, 0x118cdaa7)\n      dup2\n      mstore\n        /* \"@openzeppelin/contracts/utils/Context.sol\":735:745  msg.sender */\n      caller\n        /* \"@openzeppelin/contracts/access/Ownable.sol\":1901:1941  OwnableUnauthorizedAccount(_msgSender()) */\n      0x04\n      dup3\n      add\n        /* \"#utility.yul\":1801:1852   */\n      mstore\n        /* \"#utility.yul\":1774:1792   */\n      0x24\n      add\n        /* \"@openzeppelin/contracts/access/Ownable.sol\":1901:1941  OwnableUnauthorizedAccount(_msgSender()) */\n      tag_91\n        /* \"#utility.yul\":1627:1858   */\n      jump\n        /* \"@openzeppelin/contracts/utils/math/SafeCast.sol\":17171:17364  function toUint256(int256 value) internal pure returns (uint256) {... */\n    tag_125:\n        /* \"@openzeppelin/contracts/utils/math/SafeCast.sol\":17227:17234  uint256 */\n      0x00\n        /* \"@openzeppelin/contracts/utils/math/SafeCast.sol\":17258:17259  0 */\n      dup1\n        /* \"@openzeppelin/contracts/utils/math/SafeCast.sol\":17250:17255  value */\n      dup3\n        /* \"@openzeppelin/contracts/utils/math/SafeCast.sol\":17250:17259  value < 0 */\n      slt\n        /* \"@openzeppelin/contracts/utils/math/SafeCast.sol\":17246:17327  if (value < 0) {... */\n      iszero\n      tag_210\n      jumpi\n        /* \"@openzeppelin/contracts/utils/math/SafeCast.sol\":17282:17316  SafeCastOverflowedIntToUint(value) */\n      mload(0x40)\n      shl(0xe1, 0x54672219)\n      dup2\n      mstore\n      0x04\n      dup2\n      add\n        /* \"#utility.yul\":1591:1616   */\n      dup4\n      swap1\n      mstore\n        /* \"#utility.yul\":1564:1582   */\n      0x24\n      add\n        /* \"@openzeppelin/contracts/utils/math/SafeCast.sol\":17282:17316  SafeCastOverflowedIntToUint(value) */\n      tag_91\n        /* \"#utility.yul\":1445:1622   */\n      jump\n        /* \"@openzeppelin/contracts/utils/math/SafeCast.sol\":17246:17327  if (value < 0) {... */\n    tag_210:\n      pop\n        /* \"@openzeppelin/contracts/utils/math/SafeCast.sol\":17351:17356  value */\n      swap1\n        /* \"@openzeppelin/contracts/utils/math/SafeCast.sol\":17171:17364  function toUint256(int256 value) internal pure returns (uint256) {... */\n      jump\t// out\n        /* \"@openzeppelin/contracts/security/Pausable.sol\":2434:2551  function _unpause() internal virtual whenPaused {... */\n    tag_151:\n        /* \"@openzeppelin/contracts/security/Pausable.sol\":1487:1503  _requirePaused() */\n      tag_214\n        /* \"@openzeppelin/contracts/security/Pausable.sol\":1487:1501  _requirePaused */\n      tag_215\n        /* \"@openzeppelin/contracts/security/Pausable.sol\":1487:1503  _requirePaused() */\n      jump\t// in\n    tag_214:\n        /* \"@openzeppelin/contracts/security/Pausable.sol\":2492:2499  _paused */\n      0x02\n        /* \"@openzeppelin/contracts/security/Pausable.sol\":2492:2507  _paused = false */\n      dup1\n      sload\n      not(0xff)\n      and\n      swap1\n      sstore\n        /* \"@openzeppelin/contracts/security/Pausable.sol\":2522:2544  Unpaused(_msgSender()) */\n      0x5db9ee0a495bf2e6ff9c91a7834c1ba4fdd244a5e8aa4e537bd38aeae4b073aa\n        /* \"@openzeppelin/contracts/utils/Context.sol\":735:745  msg.sender */\n      caller\n        /* \"@openzeppelin/contracts/security/Pausable.sol\":2531:2543  _msgSender() */\n    tag_217:\n        /* \"@openzeppelin/contracts/security/Pausable.sol\":2522:2544  Unpaused(_msgSender()) */\n      mload(0x40)\n      sub(shl(0xa0, 0x01), 0x01)\n        /* \"#utility.yul\":1819:1851   */\n      swap1\n      swap2\n      and\n        /* \"#utility.yul\":1801:1852   */\n      dup2\n      mstore\n        /* \"#utility.yul\":1789:1791   */\n      0x20\n        /* \"#utility.yul\":1774:1792   */\n      add\n        /* \"@openzeppelin/contracts/security/Pausable.sol\":2522:2544  Unpaused(_msgSender()) */\n      mload(0x40)\n      dup1\n      swap2\n      sub\n      swap1\n      log1\n        /* \"@openzeppelin/contracts/security/Pausable.sol\":2434:2551  function _unpause() internal virtual whenPaused {... */\n      jump\t// out\n        /* \"@openzeppelin/contracts/access/Ownable.sol\":2912:3099  function _transferOwnership(address newOwner) internal virtual {... */\n    tag_157:\n        /* \"@openzeppelin/contracts/access/Ownable.sol\":2985:3001  address oldOwner */\n      0x00\n        /* \"@openzeppelin/contracts/access/Ownable.sol\":3004:3010  _owner */\n      dup1\n      sload\n      sub(shl(0xa0, 0x01), 0x01)\n        /* \"@openzeppelin/contracts/access/Ownable.sol\":3020:3037  _owner = newOwner */\n      dup4\n      dup2\n      and\n      not(sub(shl(0xa0, 0x01), 0x01))\n      dup4\n      and\n      dup2\n      or\n      dup5\n      sstore\n        /* \"@openzeppelin/contracts/access/Ownable.sol\":3052:3092  OwnershipTransferred(oldOwner, newOwner) */\n      mload(0x40)\n        /* \"@openzeppelin/contracts/access/Ownable.sol\":3004:3010  _owner */\n      swap2\n      swap1\n      swap3\n      and\n      swap3\n      dup4\n      swap2\n        /* \"@openzeppelin/contracts/access/Ownable.sol\":3052:3092  OwnershipTransferred(oldOwner, newOwner) */\n      0x8be0079c531659141344cd1fd0a4f28419497f9722a3daafe3b4186f6b6457e0\n      swap2\n        /* \"@openzeppelin/contracts/access/Ownable.sol\":2985:3001  address oldOwner */\n      swap1\n        /* \"@openzeppelin/contracts/access/Ownable.sol\":3052:3092  OwnershipTransferred(oldOwner, newOwner) */\n      log3\n        /* \"@openzeppelin/contracts/access/Ownable.sol\":2975:3099  {... */\n      pop\n        /* \"@openzeppelin/contracts/access/Ownable.sol\":2912:3099  function _transferOwnership(address newOwner) internal virtual {... */\n      pop\n      jump\t// out\n        /* \"@openzeppelin/contracts/security/Pausable.sol\":2187:2302  function _pause() internal virtual whenNotPaused {... */\n    tag_162:\n        /* \"@openzeppelin/contracts/security/Pausable.sol\":1240:1259  _requireNotPaused() */\n      tag_221\n        /* \"@openzeppelin/contracts/security/Pausable.sol\":1240:1257  _requireNotPaused */\n      tag_187\n        /* \"@openzeppelin/contracts/security/Pausable.sol\":1240:1259  _requireNotPaused() */\n      jump\t// in\n    tag_221:\n        /* \"@openzeppelin/contracts/security/Pausable.sol\":2246:2253  _paused */\n      0x02\n        /* \"@openzeppelin/contracts/security/Pausable.sol\":2246:2260  _paused = true */\n      dup1\n      sload\n      not(0xff)\n      and\n        /* \"@openzeppelin/contracts/security/Pausable.sol\":2256:2260  true */\n      0x01\n        /* \"@openzeppelin/contracts/security/Pausable.sol\":2246:2260  _paused = true */\n      or\n      swap1\n      sstore\n        /* \"@openzeppelin/contracts/security/Pausable.sol\":2275:2295  Paused(_msgSender()) */\n      0x62e78cea01bee320cd4e420270b5ea74000d11b0c9f74754ebdbfc544b05a258\n        /* \"@openzeppelin/contracts/security/Pausable.sol\":2282:2294  _msgSender() */\n      tag_217\n        /* \"@openzeppelin/contracts/utils/Context.sol\":735:745  msg.sender */\n      caller\n      swap1\n        /* \"@openzeppelin/contracts/utils/Context.sol\":656:752  function _msgSender() internal view virtual returns (address) {... */\n      jump\n        /* \"@openzeppelin/contracts/security/ReentrancyGuard.sol\":2337:2624  function _nonReentrantBefore() private {... */\n    tag_168:\n        /* \"@openzeppelin/contracts/security/ReentrancyGuard.sol\":1760:1761  2 */\n      0x02\n        /* \"@openzeppelin/contracts/security/ReentrancyGuard.sol\":2469:2476  _status */\n      sload(0x01)\n        /* \"@openzeppelin/contracts/security/ReentrancyGuard.sol\":2469:2488  _status != _ENTERED */\n      sub\n        /* \"@openzeppelin/contracts/security/ReentrancyGuard.sol\":2461:2524  require(_status != _ENTERED, \"ReentrancyGuard: reentrant call\") */\n      tag_226\n      jumpi\n      mload(0x40)\n      shl(0xe5, 0x461bcd)\n      dup2\n      mstore\n        /* \"#utility.yul\":8552:8554   */\n      0x20\n        /* \"@openzeppelin/contracts/security/ReentrancyGuard.sol\":2461:2524  require(_status != _ENTERED, \"ReentrancyGuard: reentrant call\") */\n      0x04\n      dup3\n      add\n        /* \"#utility.yul\":8534:8555   */\n      mstore\n        /* \"#utility.yul\":8591:8593   */\n      0x1f\n        /* \"#utility.yul\":8571:8589   */\n      0x24\n      dup3\n      add\n        /* \"#utility.yul\":8564:8594   */\n      mstore\n        /* \"#utility.yul\":8630:8663   */\n      0x5265656e7472616e637947756172643a207265656e7472616e742063616c6c00\n        /* \"#utility.yul\":8610:8628   */\n      0x44\n      dup3\n      add\n        /* \"#utility.yul\":8603:8664   */\n      mstore\n        /* \"#utility.yul\":8681:8699   */\n      0x64\n      add\n        /* \"@openzeppelin/contracts/security/ReentrancyGuard.sol\":2461:2524  require(_status != _ENTERED, \"ReentrancyGuard: reentrant call\") */\n      tag_91\n        /* \"#utility.yul\":8350:8705   */\n      jump\n        /* \"@openzeppelin/contracts/security/ReentrancyGuard.sol\":2461:2524  require(_status != _ENTERED, \"ReentrancyGuard: reentrant call\") */\n    tag_226:\n        /* \"@openzeppelin/contracts/security/ReentrancyGuard.sol\":1760:1761  2 */\n      0x02\n        /* \"@openzeppelin/contracts/security/ReentrancyGuard.sol\":2599:2606  _status */\n      0x01\n        /* \"@openzeppelin/contracts/security/ReentrancyGuard.sol\":2599:2617  _status = _ENTERED */\n      sstore\n        /* \"@openzeppelin/contracts/security/ReentrancyGuard.sol\":2337:2624  function _nonReentrantBefore() private {... */\n      jump\t// out\n        /* \"@openzeppelin/contracts/security/Pausable.sol\":1768:1874  function _requireNotPaused() internal view virtual {... */\n    tag_187:\n        /* \"@openzeppelin/contracts/security/Pausable.sol\":1686:1693  _paused */\n      and(0xff, sload(0x02))\n        /* \"@openzeppelin/contracts/security/Pausable.sol\":1837:1846  !paused() */\n      iszero\n        /* \"@openzeppelin/contracts/security/Pausable.sol\":1829:1867  require(!paused(), \"Pausable: paused\") */\n      tag_150\n      jumpi\n      mload(0x40)\n      shl(0xe5, 0x461bcd)\n      dup2\n      mstore\n        /* \"#utility.yul\":8912:8914   */\n      0x20\n        /* \"@openzeppelin/contracts/security/Pausable.sol\":1829:1867  require(!paused(), \"Pausable: paused\") */\n      0x04\n      dup3\n      add\n        /* \"#utility.yul\":8894:8915   */\n      mstore\n        /* \"#utility.yul\":8951:8953   */\n      0x10\n        /* \"#utility.yul\":8931:8949   */\n      0x24\n      dup3\n      add\n        /* \"#utility.yul\":8924:8954   */\n      mstore\n      shl(0x82, 0x14185d5cd8589b194e881c185d5cd959)\n        /* \"#utility.yul\":8970:8988   */\n      0x44\n      dup3\n      add\n        /* \"#utility.yul\":8963:9009   */\n      mstore\n        /* \"#utility.yul\":9026:9044   */\n      0x64\n      add\n        /* \"@openzeppelin/contracts/security/Pausable.sol\":1829:1867  require(!paused(), \"Pausable: paused\") */\n      tag_91\n        /* \"#utility.yul\":8710:9050   */\n      jump\n        /* \"@openzeppelin/contracts/security/Pausable.sol\":1946:2052  function _requirePaused() internal view virtual {... */\n    tag_215:\n        /* \"@openzeppelin/contracts/security/Pausable.sol\":1686:1693  _paused */\n      and(0xff, sload(0x02))\n        /* \"@openzeppelin/contracts/security/Pausable.sol\":2004:2045  require(paused(), \"Pausable: not paused\") */\n      tag_150\n      jumpi\n      mload(0x40)\n      shl(0xe5, 0x461bcd)\n      dup2\n      mstore\n        /* \"#utility.yul\":9257:9259   */\n      0x20\n        /* \"@openzeppelin/contracts/security/Pausable.sol\":2004:2045  require(paused(), \"Pausable: not paused\") */\n      0x04\n      dup3\n      add\n        /* \"#utility.yul\":9239:9260   */\n      mstore\n        /* \"#utility.yul\":9296:9298   */\n      0x14\n        /* \"#utility.yul\":9276:9294   */\n      0x24\n      dup3\n      add\n        /* \"#utility.yul\":9269:9299   */\n      mstore\n      shl(0x62, 0x14185d5cd8589b194e881b9bdd081c185d5cd959)\n        /* \"#utility.yul\":9315:9333   */\n      0x44\n      dup3\n      add\n        /* \"#utility.yul\":9308:9358   */\n      mstore\n        /* \"#utility.yul\":9375:9393   */\n      0x64\n      add\n        /* \"@openzeppelin/contracts/security/Pausable.sol\":2004:2045  require(paused(), \"Pausable: not paused\") */\n      tag_91\n        /* \"#utility.yul\":9055:9399   */\n      jump\n        /* \"#utility.yul\":14:187   */\n    tag_241:\n        /* \"#utility.yul\":82:102   */\n      dup1\n      calldataload\n      sub(shl(0xa0, 0x01), 0x01)\n        /* \"#utility.yul\":131:162   */\n      dup2\n      and\n        /* \"#utility.yul\":121:163   */\n      dup2\n      eq\n        /* \"#utility.yul\":111:181   */\n      tag_245\n      jumpi\n        /* \"#utility.yul\":177:178   */\n      0x00\n        /* \"#utility.yul\":174:175   */\n      dup1\n        /* \"#utility.yul\":167:179   */\n      revert\n        /* \"#utility.yul\":111:181   */\n    tag_245:\n        /* \"#utility.yul\":14:187   */\n      swap2\n      swap1\n      pop\n      jump\t// out\n        /* \"#utility.yul\":192:492   */\n    tag_25:\n        /* \"#utility.yul\":260:266   */\n      0x00\n        /* \"#utility.yul\":268:274   */\n      dup1\n        /* \"#utility.yul\":321:323   */\n      0x40\n        /* \"#utility.yul\":309:318   */\n      dup4\n        /* \"#utility.yul\":300:307   */\n      dup6\n        /* \"#utility.yul\":296:319   */\n      sub\n        /* \"#utility.yul\":292:324   */\n      slt\n        /* \"#utility.yul\":289:341   */\n      iszero\n      tag_247\n      jumpi\n        /* \"#utility.yul\":337:338   */\n      0x00\n        /* \"#utility.yul\":334:335   */\n      dup1\n        /* \"#utility.yul\":327:339   */\n      revert\n        /* \"#utility.yul\":289:341   */\n    tag_247:\n        /* \"#utility.yul\":382:405   */\n      dup3\n      calldataload\n      swap2\n      pop\n        /* \"#utility.yul\":448:486   */\n      tag_248\n        /* \"#utility.yul\":482:484   */\n      0x20\n        /* \"#utility.yul\":467:485   */\n      dup5\n      add\n        /* \"#utility.yul\":448:486   */\n      tag_241\n      jump\t// in\n    tag_248:\n        /* \"#utility.yul\":438:486   */\n      swap1\n      pop\n        /* \"#utility.yul\":192:492   */\n      swap3\n      pop\n      swap3\n      swap1\n      pop\n      jump\t// out\n        /* \"#utility.yul\":497:723   */\n    tag_29:\n        /* \"#utility.yul\":556:562   */\n      0x00\n        /* \"#utility.yul\":609:611   */\n      0x20\n        /* \"#utility.yul\":597:606   */\n      dup3\n        /* \"#utility.yul\":588:595   */\n      dup5\n        /* \"#utility.yul\":584:607   */\n      sub\n        /* \"#utility.yul\":580:612   */\n      slt\n        /* \"#utility.yul\":577:629   */\n      iszero\n      tag_250\n      jumpi\n        /* \"#utility.yul\":625:626   */\n      0x00\n        /* \"#utility.yul\":622:623   */\n      dup1\n        /* \"#utility.yul\":615:627   */\n      revert\n        /* \"#utility.yul\":577:629   */\n    tag_250:\n      pop\n        /* \"#utility.yul\":670:693   */\n      calldataload\n      swap2\n        /* \"#utility.yul\":497:723   */\n      swap1\n      pop\n      jump\t// out\n        /* \"#utility.yul\":1062:1248   */\n    tag_35:\n        /* \"#utility.yul\":1121:1127   */\n      0x00\n        /* \"#utility.yul\":1174:1176   */\n      0x20\n        /* \"#utility.yul\":1162:1171   */\n      dup3\n        /* \"#utility.yul\":1153:1160   */\n      dup5\n        /* \"#utility.yul\":1149:1172   */\n      sub\n        /* \"#utility.yul\":1145:1177   */\n      slt\n        /* \"#utility.yul\":1142:1194   */\n      iszero\n      tag_253\n      jumpi\n        /* \"#utility.yul\":1190:1191   */\n      0x00\n        /* \"#utility.yul\":1187:1188   */\n      dup1\n        /* \"#utility.yul\":1180:1192   */\n      revert\n        /* \"#utility.yul\":1142:1194   */\n    tag_253:\n        /* \"#utility.yul\":1213:1242   */\n      tag_254\n        /* \"#utility.yul\":1232:1241   */\n      dup3\n        /* \"#utility.yul\":1213:1242   */\n      tag_241\n      jump\t// in\n    tag_254:\n        /* \"#utility.yul\":1203:1242   */\n      swap4\n        /* \"#utility.yul\":1062:1248   */\n      swap3\n      pop\n      pop\n      pop\n      jump\t// out\n        /* \"#utility.yul\":2071:2854   */\n    tag_66:\n        /* \"#utility.yul\":2175:2181   */\n      0x00\n        /* \"#utility.yul\":2183:2189   */\n      dup1\n        /* \"#utility.yul\":2191:2197   */\n      0x00\n        /* \"#utility.yul\":2199:2205   */\n      dup1\n        /* \"#utility.yul\":2207:2213   */\n      0x00\n        /* \"#utility.yul\":2215:2221   */\n      dup1\n        /* \"#utility.yul\":2268:2271   */\n      0xc0\n        /* \"#utility.yul\":2256:2265   */\n      dup8\n        /* \"#utility.yul\":2247:2254   */\n      dup10\n        /* \"#utility.yul\":2243:2266   */\n      sub\n        /* \"#utility.yul\":2239:2272   */\n      slt\n        /* \"#utility.yul\":2236:2289   */\n      iszero\n      tag_260\n      jumpi\n        /* \"#utility.yul\":2285:2286   */\n      0x00\n        /* \"#utility.yul\":2282:2283   */\n      dup1\n        /* \"#utility.yul\":2275:2287   */\n      revert\n        /* \"#utility.yul\":2236:2289   */\n    tag_260:\n        /* \"#utility.yul\":2330:2353   */\n      dup7\n      calldataload\n      swap6\n      pop\n        /* \"#utility.yul\":2396:2434   */\n      tag_261\n        /* \"#utility.yul\":2430:2432   */\n      0x20\n        /* \"#utility.yul\":2415:2433   */\n      dup9\n      add\n        /* \"#utility.yul\":2396:2434   */\n      tag_241\n      jump\t// in\n    tag_261:\n        /* \"#utility.yul\":2071:2854   */\n      swap6\n      swap9\n        /* \"#utility.yul\":2386:2434   */\n      swap6\n      swap8\n      pop\n      pop\n      pop\n      pop\n        /* \"#utility.yul\":2507:2509   */\n      0x40\n        /* \"#utility.yul\":2492:2510   */\n      dup5\n      add\n        /* \"#utility.yul\":2479:2511   */\n      calldataload\n      swap4\n        /* \"#utility.yul\":2610:2612   */\n      0x60\n        /* \"#utility.yul\":2595:2613   */\n      dup2\n      add\n        /* \"#utility.yul\":2582:2614   */\n      calldataload\n      swap4\n        /* \"#utility.yul\":2713:2716   */\n      0x80\n        /* \"#utility.yul\":2698:2717   */\n      dup3\n      add\n        /* \"#utility.yul\":2685:2718   */\n      calldataload\n      swap4\n      pop\n        /* \"#utility.yul\":2817:2820   */\n      0xa0\n        /* \"#utility.yul\":2802:2821   */\n      swap1\n      swap2\n      add\n        /* \"#utility.yul\":2789:2822   */\n      calldataload\n      swap2\n      pop\n        /* \"#utility.yul\":2071:2854   */\n      jump\t// out\n        /* \"#utility.yul\":3041:3628   */\n    tag_84:\n        /* \"#utility.yul\":3127:3133   */\n      0x00\n        /* \"#utility.yul\":3135:3141   */\n      dup1\n        /* \"#utility.yul\":3143:3149   */\n      0x00\n        /* \"#utility.yul\":3151:3157   */\n      dup1\n        /* \"#utility.yul\":3204:3207   */\n      0x80\n        /* \"#utility.yul\":3192:3201   */\n      dup6\n        /* \"#utility.yul\":3183:3190   */\n      dup8\n        /* \"#utility.yul\":3179:3202   */\n      sub\n        /* \"#utility.yul\":3175:3208   */\n      slt\n        /* \"#utility.yul\":3172:3225   */\n      iszero\n      tag_264\n      jumpi\n        /* \"#utility.yul\":3221:3222   */\n      0x00\n        /* \"#utility.yul\":3218:3219   */\n      dup1\n        /* \"#utility.yul\":3211:3223   */\n      revert\n        /* \"#utility.yul\":3172:3225   */\n    tag_264:\n      pop\n      pop\n        /* \"#utility.yul\":3266:3289   */\n      dup3\n      calldataload\n      swap5\n        /* \"#utility.yul\":3386:3388   */\n      0x20\n        /* \"#utility.yul\":3371:3389   */\n      dup5\n      add\n        /* \"#utility.yul\":3358:3390   */\n      calldataload\n      swap5\n      pop\n        /* \"#utility.yul\":3489:3491   */\n      0x40\n        /* \"#utility.yul\":3474:3492   */\n      dup5\n      add\n        /* \"#utility.yul\":3461:3493   */\n      calldataload\n      swap4\n        /* \"#utility.yul\":3592:3594   */\n      0x60\n        /* \"#utility.yul\":3577:3595   */\n      add\n        /* \"#utility.yul\":3564:3596   */\n      calldataload\n      swap3\n      pop\n        /* \"#utility.yul\":3041:3628   */\n      swap1\n      pop\n      jump\t// out\n        /* \"#utility.yul\":3633:3969   */\n    tag_92:\n        /* \"#utility.yul\":3835:3837   */\n      0x20\n        /* \"#utility.yul\":3817:3838   */\n      dup1\n      dup3\n      mstore\n        /* \"#utility.yul\":3874:3876   */\n      0x0c\n        /* \"#utility.yul\":3854:3872   */\n      swap1\n      dup3\n      add\n        /* \"#utility.yul\":3847:3877   */\n      mstore\n      shl(0xa1, 0x24b73b30b634b2103830b4b9)\n        /* \"#utility.yul\":3908:3910   */\n      0x40\n        /* \"#utility.yul\":3893:3911   */\n      dup3\n      add\n        /* \"#utility.yul\":3886:3928   */\n      mstore\n        /* \"#utility.yul\":3960:3962   */\n      0x60\n        /* \"#utility.yul\":3945:3963   */\n      add\n      swap1\n        /* \"#utility.yul\":3633:3969   */\n      jump\t// out\n        /* \"#utility.yul\":4317:4822   */\n    tag_101:\n        /* \"#utility.yul\":4402:4408   */\n      0x00\n        /* \"#utility.yul\":4410:4416   */\n      dup1\n        /* \"#utility.yul\":4418:4424   */\n      0x00\n        /* \"#utility.yul\":4471:4473   */\n      0x60\n        /* \"#utility.yul\":4459:4468   */\n      dup5\n        /* \"#utility.yul\":4450:4457   */\n      dup7\n        /* \"#utility.yul\":4446:4469   */\n      sub\n        /* \"#utility.yul\":4442:4474   */\n      slt\n        /* \"#utility.yul\":4439:4491   */\n      iszero\n      tag_268\n      jumpi\n        /* \"#utility.yul\":4487:4488   */\n      0x00\n        /* \"#utility.yul\":4484:4485   */\n      dup1\n        /* \"#utility.yul\":4477:4489   */\n      revert\n        /* \"#utility.yul\":4439:4491   */\n    tag_268:\n        /* \"#utility.yul\":4532:4548   */\n      dup4\n      mload\n        /* \"#utility.yul\":4638:4640   */\n      0x20\n        /* \"#utility.yul\":4623:4641   */\n      dup6\n      add\n        /* \"#utility.yul\":4617:4642   */\n      mload\n        /* \"#utility.yul\":4713:4715   */\n      0x40\n        /* \"#utility.yul\":4698:4716   */\n      dup7\n      add\n        /* \"#utility.yul\":4692:4717   */\n      mload\n        /* \"#utility.yul\":4532:4548   */\n      swap2\n      swap5\n      pop\n        /* \"#utility.yul\":4617:4642   */\n      swap3\n      pop\n        /* \"#utility.yul\":4755:4770   */\n      dup1\n      iszero\n        /* \"#utility.yul\":4748:4771   */\n      iszero\n        /* \"#utility.yul\":4736:4772   */\n      dup2\n      eq\n        /* \"#utility.yul\":4726:4790   */\n      tag_269\n      jumpi\n        /* \"#utility.yul\":4786:4787   */\n      0x00\n        /* \"#utility.yul\":4783:4784   */\n      dup1\n        /* \"#utility.yul\":4776:4788   */\n      revert\n        /* \"#utility.yul\":4726:4790   */\n    tag_269:\n        /* \"#utility.yul\":4809:4816   */\n      dup1\n        /* \"#utility.yul\":4799:4816   */\n      swap2\n      pop\n      pop\n        /* \"#utility.yul\":4317:4822   */\n      swap3\n      pop\n      swap3\n      pop\n      swap3\n      jump\t// out\n        /* \"#utility.yul\":4827:5006   */\n    tag_242:\n        /* \"#utility.yul\":4905:4918   */\n      dup1\n      mload\n        /* \"#utility.yul\":4958:4980   */\n      0xffffffffffffffffffff\n        /* \"#utility.yul\":4947:4981   */\n      dup2\n      and\n        /* \"#utility.yul\":4937:4982   */\n      dup2\n      eq\n        /* \"#utility.yul\":4927:5000   */\n      tag_245\n      jumpi\n        /* \"#utility.yul\":4996:4997   */\n      0x00\n        /* \"#utility.yul\":4993:4994   */\n      dup1\n        /* \"#utility.yul\":4986:4998   */\n      revert\n        /* \"#utility.yul\":5011:5582   */\n    tag_107:\n        /* \"#utility.yul\":5114:5120   */\n      0x00\n        /* \"#utility.yul\":5122:5128   */\n      dup1\n        /* \"#utility.yul\":5130:5136   */\n      0x00\n        /* \"#utility.yul\":5138:5144   */\n      dup1\n        /* \"#utility.yul\":5146:5152   */\n      0x00\n        /* \"#utility.yul\":5199:5202   */\n      0xa0\n        /* \"#utility.yul\":5187:5196   */\n      dup7\n        /* \"#utility.yul\":5178:5185   */\n      dup9\n        /* \"#utility.yul\":5174:5197   */\n      sub\n        /* \"#utility.yul\":5170:5203   */\n      slt\n        /* \"#utility.yul\":5167:5220   */\n      iszero\n      tag_273\n      jumpi\n        /* \"#utility.yul\":5216:5217   */\n      0x00\n        /* \"#utility.yul\":5213:5214   */\n      dup1\n        /* \"#utility.yul\":5206:5218   */\n      revert\n        /* \"#utility.yul\":5167:5220   */\n    tag_273:\n        /* \"#utility.yul\":5239:5278   */\n      tag_274\n        /* \"#utility.yul\":5268:5277   */\n      dup7\n        /* \"#utility.yul\":5239:5278   */\n      tag_242\n      jump\t// in\n    tag_274:\n        /* \"#utility.yul\":5318:5320   */\n      0x20\n        /* \"#utility.yul\":5303:5321   */\n      dup8\n      add\n        /* \"#utility.yul\":5297:5322   */\n      mload\n        /* \"#utility.yul\":5384:5386   */\n      0x40\n        /* \"#utility.yul\":5369:5387   */\n      dup9\n      add\n        /* \"#utility.yul\":5363:5388   */\n      mload\n        /* \"#utility.yul\":5478:5480   */\n      0x60\n        /* \"#utility.yul\":5463:5481   */\n      dup10\n      add\n        /* \"#utility.yul\":5457:5482   */\n      mload\n        /* \"#utility.yul\":5229:5278   */\n      swap3\n      swap8\n      pop\n        /* \"#utility.yul\":5297:5322   */\n      swap1\n      swap6\n      pop\n        /* \"#utility.yul\":5363:5388   */\n      swap4\n      pop\n        /* \"#utility.yul\":5457:5482   */\n      swap2\n      pop\n        /* \"#utility.yul\":5527:5576   */\n      tag_275\n        /* \"#utility.yul\":5571:5574   */\n      0x80\n        /* \"#utility.yul\":5556:5575   */\n      dup8\n      add\n        /* \"#utility.yul\":5527:5576   */\n      tag_242\n      jump\t// in\n    tag_275:\n        /* \"#utility.yul\":5517:5576   */\n      swap1\n      pop\n        /* \"#utility.yul\":5011:5582   */\n      swap3\n      swap6\n      pop\n      swap3\n      swap6\n      swap1\n      swap4\n      pop\n      jump\t// out\n        /* \"#utility.yul\":6298:6523   */\n    tag_120:\n        /* \"#utility.yul\":6365:6374   */\n      dup2\n      dup2\n      sub\n        /* \"#utility.yul\":6386:6397   */\n      dup2\n      dup2\n      gt\n        /* \"#utility.yul\":6383:6517   */\n      iszero\n      tag_279\n      jumpi\n        /* \"#utility.yul\":6439:6449   */\n      0x4e487b71\n        /* \"#utility.yul\":6434:6437   */\n      0xe0\n        /* \"#utility.yul\":6430:6450   */\n      shl\n        /* \"#utility.yul\":6427:6428   */\n      0x00\n        /* \"#utility.yul\":6420:6451   */\n      mstore\n        /* \"#utility.yul\":6474:6478   */\n      0x11\n        /* \"#utility.yul\":6471:6472   */\n      0x04\n        /* \"#utility.yul\":6464:6479   */\n      mstore\n        /* \"#utility.yul\":6502:6506   */\n      0x24\n        /* \"#utility.yul\":6499:6500   */\n      0x00\n        /* \"#utility.yul\":6492:6507   */\n      revert\n        /* \"#utility.yul\":6383:6517   */\n    tag_279:\n        /* \"#utility.yul\":6298:6523   */\n      swap3\n      swap2\n      pop\n      pop\n      jump\t// out\n\n    auxdata: 0xa2646970667358221220f09044adcec01968d4d90212f613dd84e48f926c7039a2534ca70cdddd3e6ee864736f6c634300081c0033\n}\n",
				"bytecode": {
					"linkReferences": {},
					"object": "608060405234801561001057600080fd5b5060405161108b38038061108b83398101604081905261002f91610165565b806001600160a01b03811661005f57604051631e4fbdf760e01b8152600060048201526024015b60405180910390fd5b610068816100f9565b50600180556002805460ff191690556001600160a01b0382166100cd5760405162461bcd60e51b815260206004820152601a60248201527f496e76616c6964207072696365206665656420616464726573730000000000006044820152606401610056565b50600280546001600160a01b0390921661010002610100600160a81b0319909216919091179055610198565b600080546001600160a01b038381166001600160a01b0319831681178455604051919092169283917f8be0079c531659141344cd1fd0a4f28419497f9722a3daafe3b4186f6b6457e09190a35050565b80516001600160a01b038116811461016057600080fd5b919050565b6000806040838503121561017857600080fd5b61018183610149565b915061018f60208401610149565b90509250929050565b610ee4806101a76000396000f3fe608060405234801561001057600080fd5b506004361061010b5760003560e01c8063741bef1a116100a2578063a5b5fb8811610071578063a5b5fb8814610219578063bc2698501461022a578063db7c1ad114610233578063f2fde38b14610265578063f3f699f11461027857600080fd5b8063741bef1a146101bd5780638456cb59146101ed5780638da5cb5b146101f55780639f97acb71461020657600080fd5b80633f4ba83a116100de5780633f4ba83a146101805780635c975abb146101885780636301a1431461019e578063715018a6146101b557600080fd5b806301e9492f146101105780631fde7f26146101255780632806bce21461015a57806331d98b3f1461016d575b600080fd5b61012361011e366004610ccf565b61028b565b005b610138610133366004610cfb565b61031c565b6040805193845260208401929092521515908201526060015b60405180910390f35b610138610168366004610d14565b610391565b61013861017b366004610cfb565b610577565b6101236107a8565b60025460ff166040519015158152602001610151565b6101a761038481565b604051908152602001610151565b6101236107ba565b6002546101d59061010090046001600160a01b031681565b6040516001600160a01b039091168152602001610151565b6101236107cc565b6000546001600160a01b03166101d5565b610123610214366004610d36565b610813565b6101a7661155548bd554d160ca1b81565b6101a7610e1081565b610138610241366004610cfb565b60036020526000908152604090208054600182015460029092015490919060ff1683565b610123610273366004610d14565b610903565b610123610286366004610d84565b610941565b610293610a95565b661155548bd554d160ca1b82146102c55760405162461bcd60e51b81526004016102bc90610db6565b60405180910390fd5b6002546001600160a01b0382811661010090920416146103185760405162461bcd60e51b815260206004820152600e60248201526d496e76616c696420736f7572636560901b60448201526064016102bc565b5050565b6040516331d98b3f60e01b8152600481018290526000908190819030906331d98b3f90602401606060405180830381865afa15801561035f573d6000803e3d6000fd5b505050506040513d601f19601f820116820180604052508101906103839190610ddc565b9250925092505b9193909250565b600254600090819081906001600160a01b0385811661010090920416146103eb5760405162461bcd60e51b815260206004820152600e60248201526d496e76616c696420736f7572636560901b60448201526064016102bc565b600260019054906101000a90046001600160a01b03166001600160a01b031663feaf968c6040518163ffffffff1660e01b815260040160a060405180830381865afa92505050801561045a575060408051601f3d908101601f1916820190925261045791810190610e35565b60015b61046c5750600091508190508061038a565b600084136104b75760405162461bcd60e51b8152602060048201526018602482015277436861696e6c696e6b3a20496e76616c696420707269636560401b60448201526064016102bc565b816000036105075760405162461bcd60e51b815260206004820152601d60248201527f436861696e6c696e6b3a20526f756e64206e6f7420636f6d706c65746500000060448201526064016102bc565b610e106105148342610e87565b111561055b5760405162461bcd60e51b8152602060048201526016602482015275436861696e6c696e6b3a205374616c6520707269636560501b60448201526064016102bc565b61056484610ac2565b826001975097509750505050505061038a565b6000806000661155548bd554d160ca1b84146105a55760405162461bcd60e51b81526004016102bc90610db6565b6000848152600360209081526040918290208251606081018452815481526001820154928101929092526002015460ff161580159282018390529091906105fd57506103848160200151426105fa9190610e87565b11155b1561061857805160209091015190935091506001905061038a565b600260019054906101000a90046001600160a01b03166001600160a01b031663feaf968c6040518163ffffffff1660e01b815260040160a060405180830381865afa925050508015610687575060408051601f3d908101601f1916820190925261068491810190610e35565b60015b61069c5760008060009350935093505061038a565b600084136106e75760405162461bcd60e51b8152602060048201526018602482015277436861696e6c696e6b3a20496e76616c696420707269636560401b60448201526064016102bc565b816000036107375760405162461bcd60e51b815260206004820152601d60248201527f436861696e6c696e6b3a20526f756e64206e6f7420636f6d706c65746500000060448201526064016102bc565b610e106107448342610e87565b111561078b5760405162461bcd60e51b8152602060048201526016602482015275436861696e6c696e6b3a205374616c6520707269636560501b60448201526064016102bc565b61079484610ac2565b82600198509850985050505050505061038a565b6107b0610a95565b6107b8610aec565b565b6107c2610a95565b6107b86000610b3e565b6107d4610a95565b6107dc610b8e565b604051661155548bd554d160ca1b907fd373a1ac37410a4da6def2d7f3f2e704aca3e95e2e251322a031eedda7eb686c90600090a2565b61081b610a95565b610823610bcb565b661155548bd554d160ca1b861461084c5760405162461bcd60e51b81526004016102bc90610db6565b6001600160a01b03851661089b5760405162461bcd60e51b8152602060048201526016602482015275496e76616c696420736f75726365206164647265737360501b60448201526064016102bc565b600280546001600160a01b03878116610100818102610100600160a81b031985161790945560405193909204169182907fa8abe0398416476db5b05737cd4da3b3cbde5012d978a6a6c3fd49d32175353690600090a3506108fb60018055565b505050505050565b61090b610a95565b6001600160a01b03811661093557604051631e4fbdf760e01b8152600060048201526024016102bc565b61093e81610b3e565b50565b610949610a95565b610951610c24565b610959610bcb565b661155548bd554d160ca1b84146109825760405162461bcd60e51b81526004016102bc90610db6565b428211156109c55760405162461bcd60e51b815260206004820152601060248201526f04675747572652074696d657374616d760841b60448201526064016102bc565b60008311610a055760405162461bcd60e51b815260206004820152600d60248201526c496e76616c696420707269636560981b60448201526064016102bc565b604080516060810182528481526020808201858152600183850181815260008a81526003855286902094518555915190840155516002909201805460ff191692151592909217909155815185815290810184905285917fbcd10d64fce9dcf9568572ed92e371df336d32649e8960a045c9548794a44b26910160405180910390a2610a8f60018055565b50505050565b6000546001600160a01b031633146107b85760405163118cdaa760e01b81523360048201526024016102bc565b600080821215610ae857604051635467221960e11b8152600481018390526024016102bc565b5090565b610af4610c6a565b6002805460ff191690557f5db9ee0a495bf2e6ff9c91a7834c1ba4fdd244a5e8aa4e537bd38aeae4b073aa335b6040516001600160a01b03909116815260200160405180910390a1565b600080546001600160a01b038381166001600160a01b0319831681178455604051919092169283917f8be0079c531659141344cd1fd0a4f28419497f9722a3daafe3b4186f6b6457e09190a35050565b610b96610c24565b6002805460ff191660011790557f62e78cea01bee320cd4e420270b5ea74000d11b0c9f74754ebdbfc544b05a258610b213390565b600260015403610c1d5760405162461bcd60e51b815260206004820152601f60248201527f5265656e7472616e637947756172643a207265656e7472616e742063616c6c0060448201526064016102bc565b6002600155565b60025460ff16156107b85760405162461bcd60e51b815260206004820152601060248201526f14185d5cd8589b194e881c185d5cd95960821b60448201526064016102bc565b60025460ff166107b85760405162461bcd60e51b815260206004820152601460248201527314185d5cd8589b194e881b9bdd081c185d5cd95960621b60448201526064016102bc565b80356001600160a01b0381168114610cca57600080fd5b919050565b60008060408385031215610ce257600080fd5b82359150610cf260208401610cb3565b90509250929050565b600060208284031215610d0d57600080fd5b5035919050565b600060208284031215610d2657600080fd5b610d2f82610cb3565b9392505050565b60008060008060008060c08789031215610d4f57600080fd5b86359550610d5f60208801610cb3565b95989597505050506040840135936060810135936080820135935060a0909101359150565b60008060008060808587031215610d9a57600080fd5b5050823594602084013594506040840135936060013592509050565b6020808252600c908201526b24b73b30b634b2103830b4b960a11b604082015260600190565b600080600060608486031215610df157600080fd5b83516020850151604086015191945092508015158114610e1057600080fd5b809150509250925092565b805169ffffffffffffffffffff81168114610cca57600080fd5b600080600080600060a08688031215610e4d57600080fd5b610e5686610e1b565b60208701516040880151606089015192975090955093509150610e7b60808701610e1b565b90509295509295909350565b81810381811115610ea857634e487b7160e01b600052601160045260246000fd5b9291505056fea2646970667358221220f09044adcec01968d4d90212f613dd84e48f926c7039a2534ca70cdddd3e6ee864736f6c634300081c0033",
					"opcodes": "PUSH1 0x80 PUSH1 0x40 MSTORE CALLVALUE DUP1 ISZERO PUSH2 0x10 JUMPI PUSH1 0x0 DUP1 REVERT JUMPDEST POP PUSH1 0x40 MLOAD PUSH2 0x108B CODESIZE SUB DUP1 PUSH2 0x108B DUP4 CODECOPY DUP2 ADD PUSH1 0x40 DUP2 SWAP1 MSTORE PUSH2 0x2F SWAP2 PUSH2 0x165 JUMP JUMPDEST DUP1 PUSH1 0x1 PUSH1 0x1 PUSH1 0xA0 SHL SUB DUP2 AND PUSH2 0x5F JUMPI PUSH1 0x40 MLOAD PUSH4 0x1E4FBDF7 PUSH1 0xE0 SHL DUP2 MSTORE PUSH1 0x0 PUSH1 0x4 DUP3 ADD MSTORE PUSH1 0x24 ADD JUMPDEST PUSH1 0x40 MLOAD DUP1 SWAP2 SUB SWAP1 REVERT JUMPDEST PUSH2 0x68 DUP2 PUSH2 0xF9 JUMP JUMPDEST POP PUSH1 0x1 DUP1 SSTORE PUSH1 0x2 DUP1 SLOAD PUSH1 0xFF NOT AND SWAP1 SSTORE PUSH1 0x1 PUSH1 0x1 PUSH1 0xA0 SHL SUB DUP3 AND PUSH2 0xCD JUMPI PUSH1 0x40 MLOAD PUSH3 0x461BCD PUSH1 0xE5 SHL DUP2 MSTORE PUSH1 0x20 PUSH1 0x4 DUP3 ADD MSTORE PUSH1 0x1A PUSH1 0x24 DUP3 ADD MSTORE PUSH32 0x496E76616C696420707269636520666565642061646472657373000000000000 PUSH1 0x44 DUP3 ADD MSTORE PUSH1 0x64 ADD PUSH2 0x56 JUMP JUMPDEST POP PUSH1 0x2 DUP1 SLOAD PUSH1 0x1 PUSH1 0x1 PUSH1 0xA0 SHL SUB SWAP1 SWAP3 AND PUSH2 0x100 MUL PUSH2 0x100 PUSH1 0x1 PUSH1 0xA8 SHL SUB NOT SWAP1 SWAP3 AND SWAP2 SWAP1 SWAP2 OR SWAP1 SSTORE PUSH2 0x198 JUMP JUMPDEST PUSH1 0x0 DUP1 SLOAD PUSH1 0x1 PUSH1 0x1 PUSH1 0xA0 SHL SUB DUP4 DUP2 AND PUSH1 0x1 PUSH1 0x1 PUSH1 0xA0 SHL SUB NOT DUP4 AND DUP2 OR DUP5 SSTORE PUSH1 0x40 MLOAD SWAP2 SWAP1 SWAP3 AND SWAP3 DUP4 SWAP2 PUSH32 0x8BE0079C531659141344CD1FD0A4F28419497F9722A3DAAFE3B4186F6B6457E0 SWAP2 SWAP1 LOG3 POP POP JUMP JUMPDEST DUP1 MLOAD PUSH1 0x1 PUSH1 0x1 PUSH1 0xA0 SHL SUB DUP2 AND DUP2 EQ PUSH2 0x160 JUMPI PUSH1 0x0 DUP1 REVERT JUMPDEST SWAP2 SWAP1 POP JUMP JUMPDEST PUSH1 0x0 DUP1 PUSH1 0x40 DUP4 DUP6 SUB SLT ISZERO PUSH2 0x178 JUMPI PUSH1 0x0 DUP1 REVERT JUMPDEST PUSH2 0x181 DUP4 PUSH2 0x149 JUMP JUMPDEST SWAP2 POP PUSH2 0x18F PUSH1 0x20 DUP5 ADD PUSH2 0x149 JUMP JUMPDEST SWAP1 POP SWAP3 POP SWAP3 SWAP1 POP JUMP JUMPDEST PUSH2 0xEE4 DUP1 PUSH2 0x1A7 PUSH1 0x0 CODECOPY PUSH1 0x0 RETURN INVALID PUSH1 0x80 PUSH1 0x40 MSTORE CALLVALUE DUP1 ISZERO PUSH2 0x10 JUMPI PUSH1 0x0 DUP1 REVERT JUMPDEST POP PUSH1 0x4 CALLDATASIZE LT PUSH2 0x10B JUMPI PUSH1 0x0 CALLDATALOAD PUSH1 0xE0 SHR DUP1 PUSH4 0x741BEF1A GT PUSH2 0xA2 JUMPI DUP1 PUSH4 0xA5B5FB88 GT PUSH2 0x71 JUMPI DUP1 PUSH4 0xA5B5FB88 EQ PUSH2 0x219 JUMPI DUP1 PUSH4 0xBC269850 EQ PUSH2 0x22A JUMPI DUP1 PUSH4 0xDB7C1AD1 EQ PUSH2 0x233 JUMPI DUP1 PUSH4 0xF2FDE38B EQ PUSH2 0x265 JUMPI DUP1 PUSH4 0xF3F699F1 EQ PUSH2 0x278 JUMPI PUSH1 0x0 DUP1 REVERT JUMPDEST DUP1 PUSH4 0x741BEF1A EQ PUSH2 0x1BD JUMPI DUP1 PUSH4 0x8456CB59 EQ PUSH2 0x1ED JUMPI DUP1 PUSH4 0x8DA5CB5B EQ PUSH2 0x1F5 JUMPI DUP1 PUSH4 0x9F97ACB7 EQ PUSH2 0x206 JUMPI PUSH1 0x0 DUP1 REVERT JUMPDEST DUP1 PUSH4 0x3F4BA83A GT PUSH2 0xDE JUMPI DUP1 PUSH4 0x3F4BA83A EQ PUSH2 0x180 JUMPI DUP1 PUSH4 0x5C975ABB EQ PUSH2 0x188 JUMPI DUP1 PUSH4 0x6301A143 EQ PUSH2 0x19E JUMPI DUP1 PUSH4 0x715018A6 EQ PUSH2 0x1B5 JUMPI PUSH1 0x0 DUP1 REVERT JUMPDEST DUP1 PUSH4 0x1E9492F EQ PUSH2 0x110 JUMPI DUP1 PUSH4 0x1FDE7F26 EQ PUSH2 0x125 JUMPI DUP1 PUSH4 0x2806BCE2 EQ PUSH2 0x15A JUMPI DUP1 PUSH4 0x31D98B3F EQ PUSH2 0x16D JUMPI JUMPDEST PUSH1 0x0 DUP1 REVERT JUMPDEST PUSH2 0x123 PUSH2 0x11E CALLDATASIZE PUSH1 0x4 PUSH2 0xCCF JUMP JUMPDEST PUSH2 0x28B JUMP JUMPDEST STOP JUMPDEST PUSH2 0x138 PUSH2 0x133 CALLDATASIZE PUSH1 0x4 PUSH2 0xCFB JUMP JUMPDEST PUSH2 0x31C JUMP JUMPDEST PUSH1 0x40 DUP1 MLOAD SWAP4 DUP5 MSTORE PUSH1 0x20 DUP5 ADD SWAP3 SWAP1 SWAP3 MSTORE ISZERO ISZERO SWAP1 DUP3 ADD MSTORE PUSH1 0x60 ADD JUMPDEST PUSH1 0x40 MLOAD DUP1 SWAP2 SUB SWAP1 RETURN JUMPDEST PUSH2 0x138 PUSH2 0x168 CALLDATASIZE PUSH1 0x4 PUSH2 0xD14 JUMP JUMPDEST PUSH2 0x391 JUMP JUMPDEST PUSH2 0x138 PUSH2 0x17B CALLDATASIZE PUSH1 0x4 PUSH2 0xCFB JUMP JUMPDEST PUSH2 0x577 JUMP JUMPDEST PUSH2 0x123 PUSH2 0x7A8 JUMP JUMPDEST PUSH1 0x2 SLOAD PUSH1 0xFF AND PUSH1 0x40 MLOAD SWAP1 ISZERO ISZERO DUP2 MSTORE PUSH1 0x20 ADD PUSH2 0x151 JUMP JUMPDEST PUSH2 0x1A7 PUSH2 0x384 DUP2 JUMP JUMPDEST PUSH1 0x40 MLOAD SWAP1 DUP2 MSTORE PUSH1 0x20 ADD PUSH2 0x151 JUMP JUMPDEST PUSH2 0x123 PUSH2 0x7BA JUMP JUMPDEST PUSH1 0x2 SLOAD PUSH2 0x1D5 SWAP1 PUSH2 0x100 SWAP1 DIV PUSH1 0x1 PUSH1 0x1 PUSH1 0xA0 SHL SUB AND DUP2 JUMP JUMPDEST PUSH1 0x40 MLOAD PUSH1 0x1 PUSH1 0x1 PUSH1 0xA0 SHL SUB SWAP1 SWAP2 AND DUP2 MSTORE PUSH1 0x20 ADD PUSH2 0x151 JUMP JUMPDEST PUSH2 0x123 PUSH2 0x7CC JUMP JUMPDEST PUSH1 0x0 SLOAD PUSH1 0x1 PUSH1 0x1 PUSH1 0xA0 SHL SUB AND PUSH2 0x1D5 JUMP JUMPDEST PUSH2 0x123 PUSH2 0x214 CALLDATASIZE PUSH1 0x4 PUSH2 0xD36 JUMP JUMPDEST PUSH2 0x813 JUMP JUMPDEST PUSH2 0x1A7 PUSH7 0x1155548BD554D1 PUSH1 0xCA SHL DUP2 JUMP JUMPDEST PUSH2 0x1A7 PUSH2 0xE10 DUP2 JUMP JUMPDEST PUSH2 0x138 PUSH2 0x241 CALLDATASIZE PUSH1 0x4 PUSH2 0xCFB JUMP JUMPDEST PUSH1 0x3 PUSH1 0x20 MSTORE PUSH1 0x0 SWAP1 DUP2 MSTORE PUSH1 0x40 SWAP1 KECCAK256 DUP1 SLOAD PUSH1 0x1 DUP3 ADD SLOAD PUSH1 0x2 SWAP1 SWAP3 ADD SLOAD SWAP1 SWAP2 SWAP1 PUSH1 0xFF AND DUP4 JUMP JUMPDEST PUSH2 0x123 PUSH2 0x273 CALLDATASIZE PUSH1 0x4 PUSH2 0xD14 JUMP JUMPDEST PUSH2 0x903 JUMP JUMPDEST PUSH2 0x123 PUSH2 0x286 CALLDATASIZE PUSH1 0x4 PUSH2 0xD84 JUMP JUMPDEST PUSH2 0x941 JUMP JUMPDEST PUSH2 0x293 PUSH2 0xA95 JUMP JUMPDEST PUSH7 0x1155548BD554D1 PUSH1 0xCA SHL DUP3 EQ PUSH2 0x2C5 JUMPI PUSH1 0x40 MLOAD PUSH3 0x461BCD PUSH1 0xE5 SHL DUP2 MSTORE PUSH1 0x4 ADD PUSH2 0x2BC SWAP1 PUSH2 0xDB6 JUMP JUMPDEST PUSH1 0x40 MLOAD DUP1 SWAP2 SUB SWAP1 REVERT JUMPDEST PUSH1 0x2 SLOAD PUSH1 0x1 PUSH1 0x1 PUSH1 0xA0 SHL SUB DUP3 DUP2 AND PUSH2 0x100 SWAP1 SWAP3 DIV AND EQ PUSH2 0x318 JUMPI PUSH1 0x40 MLOAD PUSH3 0x461BCD PUSH1 0xE5 SHL DUP2 MSTORE PUSH1 0x20 PUSH1 0x4 DUP3 ADD MSTORE PUSH1 0xE PUSH1 0x24 DUP3 ADD MSTORE PUSH14 0x496E76616C696420736F75726365 PUSH1 0x90 SHL PUSH1 0x44 DUP3 ADD MSTORE PUSH1 0x64 ADD PUSH2 0x2BC JUMP JUMPDEST POP POP JUMP JUMPDEST PUSH1 0x40 MLOAD PUSH4 0x31D98B3F PUSH1 0xE0 SHL DUP2 MSTORE PUSH1 0x4 DUP2 ADD DUP3 SWAP1 MSTORE PUSH1 0x0 SWAP1 DUP2 SWAP1 DUP2 SWAP1 ADDRESS SWAP1 PUSH4 0x31D98B3F SWAP1 PUSH1 0x24 ADD PUSH1 0x60 PUSH1 0x40 MLOAD DUP1 DUP4 SUB DUP2 DUP7 GAS STATICCALL ISZERO DUP1 ISZERO PUSH2 0x35F JUMPI RETURNDATASIZE PUSH1 0x0 DUP1 RETURNDATACOPY RETURNDATASIZE PUSH1 0x0 REVERT JUMPDEST POP POP POP POP PUSH1 0x40 MLOAD RETURNDATASIZE PUSH1 0x1F NOT PUSH1 0x1F DUP3 ADD AND DUP3 ADD DUP1 PUSH1 0x40 MSTORE POP DUP2 ADD SWAP1 PUSH2 0x383 SWAP2 SWAP1 PUSH2 0xDDC JUMP JUMPDEST SWAP3 POP SWAP3 POP SWAP3 POP JUMPDEST SWAP2 SWAP4 SWAP1 SWAP3 POP JUMP JUMPDEST PUSH1 0x2 SLOAD PUSH1 0x0 SWAP1 DUP2 SWAP1 DUP2 SWAP1 PUSH1 0x1 PUSH1 0x1 PUSH1 0xA0 SHL SUB DUP6 DUP2 AND PUSH2 0x100 SWAP1 SWAP3 DIV AND EQ PUSH2 0x3EB JUMPI PUSH1 0x40 MLOAD PUSH3 0x461BCD PUSH1 0xE5 SHL DUP2 MSTORE PUSH1 0x20 PUSH1 0x4 DUP3 ADD MSTORE PUSH1 0xE PUSH1 0x24 DUP3 ADD MSTORE PUSH14 0x496E76616C696420736F75726365 PUSH1 0x90 SHL PUSH1 0x44 DUP3 ADD MSTORE PUSH1 0x64 ADD PUSH2 0x2BC JUMP JUMPDEST PUSH1 0x2 PUSH1 0x1 SWAP1 SLOAD SWAP1 PUSH2 0x100 EXP SWAP1 DIV PUSH1 0x1 PUSH1 0x1 PUSH1 0xA0 SHL SUB AND PUSH1 0x1 PUSH1 0x1 PUSH1 0xA0 SHL SUB AND PUSH4 0xFEAF968C PUSH1 0x40 MLOAD DUP2 PUSH4 0xFFFFFFFF AND PUSH1 0xE0 SHL DUP2 MSTORE PUSH1 0x4 ADD PUSH1 0xA0 PUSH1 0x40 MLOAD DUP1 DUP4 SUB DUP2 DUP7 GAS STATICCALL SWAP3 POP POP POP DUP1 ISZERO PUSH2 0x45A JUMPI POP PUSH1 0x40 DUP1 MLOAD PUSH1 0x1F RETURNDATASIZE SWAP1 DUP2 ADD PUSH1 0x1F NOT AND DUP3 ADD SWAP1 SWAP3 MSTORE PUSH2 0x457 SWAP2 DUP2 ADD SWAP1 PUSH2 0xE35 JUMP JUMPDEST PUSH1 0x1 JUMPDEST PUSH2 0x46C JUMPI POP PUSH1 0x0 SWAP2 POP DUP2 SWAP1 POP DUP1 PUSH2 0x38A JUMP JUMPDEST PUSH1 0x0 DUP5 SGT PUSH2 0x4B7 JUMPI PUSH1 0x40 MLOAD PUSH3 0x461BCD PUSH1 0xE5 SHL DUP2 MSTORE PUSH1 0x20 PUSH1 0x4 DUP3 ADD MSTORE PUSH1 0x18 PUSH1 0x24 DUP3 ADD MSTORE PUSH24 0x436861696E6C696E6B3A20496E76616C6964207072696365 PUSH1 0x40 SHL PUSH1 0x44 DUP3 ADD MSTORE PUSH1 0x64 ADD PUSH2 0x2BC JUMP JUMPDEST DUP2 PUSH1 0x0 SUB PUSH2 0x507 JUMPI PUSH1 0x40 MLOAD PUSH3 0x461BCD PUSH1 0xE5 SHL DUP2 MSTORE PUSH1 0x20 PUSH1 0x4 DUP3 ADD MSTORE PUSH1 0x1D PUSH1 0x24 DUP3 ADD MSTORE PUSH32 0x436861696E6C696E6B3A20526F756E64206E6F7420636F6D706C657465000000 PUSH1 0x44 DUP3 ADD MSTORE PUSH1 0x64 ADD PUSH2 0x2BC JUMP JUMPDEST PUSH2 0xE10 PUSH2 0x514 DUP4 TIMESTAMP PUSH2 0xE87 JUMP JUMPDEST GT ISZERO PUSH2 0x55B JUMPI PUSH1 0x40 MLOAD PUSH3 0x461BCD PUSH1 0xE5 SHL DUP2 MSTORE PUSH1 0x20 PUSH1 0x4 DUP3 ADD MSTORE PUSH1 0x16 PUSH1 0x24 DUP3 ADD MSTORE PUSH22 0x436861696E6C696E6B3A205374616C65207072696365 PUSH1 0x50 SHL PUSH1 0x44 DUP3 ADD MSTORE PUSH1 0x64 ADD PUSH2 0x2BC JUMP JUMPDEST PUSH2 0x564 DUP5 PUSH2 0xAC2 JUMP JUMPDEST DUP3 PUSH1 0x1 SWAP8 POP SWAP8 POP SWAP8 POP POP POP POP POP POP PUSH2 0x38A JUMP JUMPDEST PUSH1 0x0 DUP1 PUSH1 0x0 PUSH7 0x1155548BD554D1 PUSH1 0xCA SHL DUP5 EQ PUSH2 0x5A5 JUMPI PUSH1 0x40 MLOAD PUSH3 0x461BCD PUSH1 0xE5 SHL DUP2 MSTORE PUSH1 0x4 ADD PUSH2 0x2BC SWAP1 PUSH2 0xDB6 JUMP JUMPDEST PUSH1 0x0 DUP5 DUP2 MSTORE PUSH1 0x3 PUSH1 0x20 SWAP1 DUP2 MSTORE PUSH1 0x40 SWAP2 DUP3 SWAP1 KECCAK256 DUP3 MLOAD PUSH1 0x60 DUP2 ADD DUP5 MSTORE DUP2 SLOAD DUP2 MSTORE PUSH1 0x1 DUP3 ADD SLOAD SWAP3 DUP2 ADD SWAP3 SWAP1 SWAP3 MSTORE PUSH1 0x2 ADD SLOAD PUSH1 0xFF AND ISZERO DUP1 ISZERO SWAP3 DUP3 ADD DUP4 SWAP1 MSTORE SWAP1 SWAP2 SWAP1 PUSH2 0x5FD JUMPI POP PUSH2 0x384 DUP2 PUSH1 0x20 ADD MLOAD TIMESTAMP PUSH2 0x5FA SWAP2 SWAP1 PUSH2 0xE87 JUMP JUMPDEST GT ISZERO JUMPDEST ISZERO PUSH2 0x618 JUMPI DUP1 MLOAD PUSH1 0x20 SWAP1 SWAP2 ADD MLOAD SWAP1 SWAP4 POP SWAP2 POP PUSH1 0x1 SWAP1 POP PUSH2 0x38A JUMP JUMPDEST PUSH1 0x2 PUSH1 0x1 SWAP1 SLOAD SWAP1 PUSH2 0x100 EXP SWAP1 DIV PUSH1 0x1 PUSH1 0x1 PUSH1 0xA0 SHL SUB AND PUSH1 0x1 PUSH1 0x1 PUSH1 0xA0 SHL SUB AND PUSH4 0xFEAF968C PUSH1 0x40 MLOAD DUP2 PUSH4 0xFFFFFFFF AND PUSH1 0xE0 SHL DUP2 MSTORE PUSH1 0x4 ADD PUSH1 0xA0 PUSH1 0x40 MLOAD DUP1 DUP4 SUB DUP2 DUP7 GAS STATICCALL SWAP3 POP POP POP DUP1 ISZERO PUSH2 0x687 JUMPI POP PUSH1 0x40 DUP1 MLOAD PUSH1 0x1F RETURNDATASIZE SWAP1 DUP2 ADD PUSH1 0x1F NOT AND DUP3 ADD SWAP1 SWAP3 MSTORE PUSH2 0x684 SWAP2 DUP2 ADD SWAP1 PUSH2 0xE35 JUMP JUMPDEST PUSH1 0x1 JUMPDEST PUSH2 0x69C JUMPI PUSH1 0x0 DUP1 PUSH1 0x0 SWAP4 POP SWAP4 POP SWAP4 POP POP PUSH2 0x38A JUMP JUMPDEST PUSH1 0x0 DUP5 SGT PUSH2 0x6E7 JUMPI PUSH1 0x40 MLOAD PUSH3 0x461BCD PUSH1 0xE5 SHL DUP2 MSTORE PUSH1 0x20 PUSH1 0x4 DUP3 ADD MSTORE PUSH1 0x18 PUSH1 0x24 DUP3 ADD MSTORE PUSH24 0x436861696E6C696E6B3A20496E76616C6964207072696365 PUSH1 0x40 SHL PUSH1 0x44 DUP3 ADD MSTORE PUSH1 0x64 ADD PUSH2 0x2BC JUMP JUMPDEST DUP2 PUSH1 0x0 SUB PUSH2 0x737 JUMPI PUSH1 0x40 MLOAD PUSH3 0x461BCD PUSH1 0xE5 SHL DUP2 MSTORE PUSH1 0x20 PUSH1 0x4 DUP3 ADD MSTORE PUSH1 0x1D PUSH1 0x24 DUP3 ADD MSTORE PUSH32 0x436861696E6C696E6B3A20526F756E64206E6F7420636F6D706C657465000000 PUSH1 0x44 DUP3 ADD MSTORE PUSH1 0x64 ADD PUSH2 0x2BC JUMP JUMPDEST PUSH2 0xE10 PUSH2 0x744 DUP4 TIMESTAMP PUSH2 0xE87 JUMP JUMPDEST GT ISZERO PUSH2 0x78B JUMPI PUSH1 0x40 MLOAD PUSH3 0x461BCD PUSH1 0xE5 SHL DUP2 MSTORE PUSH1 0x20 PUSH1 0x4 DUP3 ADD MSTORE PUSH1 0x16 PUSH1 0x24 DUP3 ADD MSTORE PUSH22 0x436861696E6C696E6B3A205374616C65207072696365 PUSH1 0x50 SHL PUSH1 0x44 DUP3 ADD MSTORE PUSH1 0x64 ADD PUSH2 0x2BC JUMP JUMPDEST PUSH2 0x794 DUP5 PUSH2 0xAC2 JUMP JUMPDEST DUP3 PUSH1 0x1 SWAP9 POP SWAP9 POP SWAP9 POP POP POP POP POP POP POP PUSH2 0x38A JUMP JUMPDEST PUSH2 0x7B0 PUSH2 0xA95 JUMP JUMPDEST PUSH2 0x7B8 PUSH2 0xAEC JUMP JUMPDEST JUMP JUMPDEST PUSH2 0x7C2 PUSH2 0xA95 JUMP JUMPDEST PUSH2 0x7B8 PUSH1 0x0 PUSH2 0xB3E JUMP JUMPDEST PUSH2 0x7D4 PUSH2 0xA95 JUMP JUMPDEST PUSH2 0x7DC PUSH2 0xB8E JUMP JUMPDEST PUSH1 0x40 MLOAD PUSH7 0x1155548BD554D1 PUSH1 0xCA SHL SWAP1 PUSH32 0xD373A1AC37410A4DA6DEF2D7F3F2E704ACA3E95E2E251322A031EEDDA7EB686C SWAP1 PUSH1 0x0 SWAP1 LOG2 JUMP JUMPDEST PUSH2 0x81B PUSH2 0xA95 JUMP JUMPDEST PUSH2 0x823 PUSH2 0xBCB JUMP JUMPDEST PUSH7 0x1155548BD554D1 PUSH1 0xCA SHL DUP7 EQ PUSH2 0x84C JUMPI PUSH1 0x40 MLOAD PUSH3 0x461BCD PUSH1 0xE5 SHL DUP2 MSTORE PUSH1 0x4 ADD PUSH2 0x2BC SWAP1 PUSH2 0xDB6 JUMP JUMPDEST PUSH1 0x1 PUSH1 0x1 PUSH1 0xA0 SHL SUB DUP6 AND PUSH2 0x89B JUMPI PUSH1 0x40 MLOAD PUSH3 0x461BCD PUSH1 0xE5 SHL DUP2 MSTORE PUSH1 0x20 PUSH1 0x4 DUP3 ADD MSTORE PUSH1 0x16 PUSH1 0x24 DUP3 ADD MSTORE PUSH22 0x496E76616C696420736F757263652061646472657373 PUSH1 0x50 SHL PUSH1 0x44 DUP3 ADD MSTORE PUSH1 0x64 ADD PUSH2 0x2BC JUMP JUMPDEST PUSH1 0x2 DUP1 SLOAD PUSH1 0x1 PUSH1 0x1 PUSH1 0xA0 SHL SUB DUP8 DUP2 AND PUSH2 0x100 DUP2 DUP2 MUL PUSH2 0x100 PUSH1 0x1 PUSH1 0xA8 SHL SUB NOT DUP6 AND OR SWAP1 SWAP5 SSTORE PUSH1 0x40 MLOAD SWAP4 SWAP1 SWAP3 DIV AND SWAP2 DUP3 SWAP1 PUSH32 0xA8ABE0398416476DB5B05737CD4DA3B3CBDE5012D978A6A6C3FD49D321753536 SWAP1 PUSH1 0x0 SWAP1 LOG3 POP PUSH2 0x8FB PUSH1 0x1 DUP1 SSTORE JUMP JUMPDEST POP POP POP POP POP POP JUMP JUMPDEST PUSH2 0x90B PUSH2 0xA95 JUMP JUMPDEST PUSH1 0x1 PUSH1 0x1 PUSH1 0xA0 SHL SUB DUP2 AND PUSH2 0x935 JUMPI PUSH1 0x40 MLOAD PUSH4 0x1E4FBDF7 PUSH1 0xE0 SHL DUP2 MSTORE PUSH1 0x0 PUSH1 0x4 DUP3 ADD MSTORE PUSH1 0x24 ADD PUSH2 0x2BC JUMP JUMPDEST PUSH2 0x93E DUP2 PUSH2 0xB3E JUMP JUMPDEST POP JUMP JUMPDEST PUSH2 0x949 PUSH2 0xA95 JUMP JUMPDEST PUSH2 0x951 PUSH2 0xC24 JUMP JUMPDEST PUSH2 0x959 PUSH2 0xBCB JUMP JUMPDEST PUSH7 0x1155548BD554D1 PUSH1 0xCA SHL DUP5 EQ PUSH2 0x982 JUMPI PUSH1 0x40 MLOAD PUSH3 0x461BCD PUSH1 0xE5 SHL DUP2 MSTORE PUSH1 0x4 ADD PUSH2 0x2BC SWAP1 PUSH2 0xDB6 JUMP JUMPDEST TIMESTAMP DUP3 GT ISZERO PUSH2 0x9C5 JUMPI PUSH1 0x40 MLOAD PUSH3 0x461BCD PUSH1 0xE5 SHL DUP2 MSTORE PUSH1 0x20 PUSH1 0x4 DUP3 ADD MSTORE PUSH1 0x10 PUSH1 0x24 DUP3 ADD MSTORE PUSH16 0x4675747572652074696D657374616D7 PUSH1 0x84 SHL PUSH1 0x44 DUP3 ADD MSTORE PUSH1 0x64 ADD PUSH2 0x2BC JUMP JUMPDEST PUSH1 0x0 DUP4 GT PUSH2 0xA05 JUMPI PUSH1 0x40 MLOAD PUSH3 0x461BCD PUSH1 0xE5 SHL DUP2 MSTORE PUSH1 0x20 PUSH1 0x4 DUP3 ADD MSTORE PUSH1 0xD PUSH1 0x24 DUP3 ADD MSTORE PUSH13 0x496E76616C6964207072696365 PUSH1 0x98 SHL PUSH1 0x44 DUP3 ADD MSTORE PUSH1 0x64 ADD PUSH2 0x2BC JUMP JUMPDEST PUSH1 0x40 DUP1 MLOAD PUSH1 0x60 DUP2 ADD DUP3 MSTORE DUP5 DUP2 MSTORE PUSH1 0x20 DUP1 DUP3 ADD DUP6 DUP2 MSTORE PUSH1 0x1 DUP4 DUP6 ADD DUP2 DUP2 MSTORE PUSH1 0x0 DUP11 DUP2 MSTORE PUSH1 0x3 DUP6 MSTORE DUP7 SWAP1 KECCAK256 SWAP5 MLOAD DUP6 SSTORE SWAP2 MLOAD SWAP1 DUP5 ADD SSTORE MLOAD PUSH1 0x2 SWAP1 SWAP3 ADD DUP1 SLOAD PUSH1 0xFF NOT AND SWAP3 ISZERO ISZERO SWAP3 SWAP1 SWAP3 OR SWAP1 SWAP2 SSTORE DUP2 MLOAD DUP6 DUP2 MSTORE SWAP1 DUP2 ADD DUP5 SWAP1 MSTORE DUP6 SWAP2 PUSH32 0xBCD10D64FCE9DCF9568572ED92E371DF336D32649E8960A045C9548794A44B26 SWAP2 ADD PUSH1 0x40 MLOAD DUP1 SWAP2 SUB SWAP1 LOG2 PUSH2 0xA8F PUSH1 0x1 DUP1 SSTORE JUMP JUMPDEST POP POP POP POP JUMP JUMPDEST PUSH1 0x0 SLOAD PUSH1 0x1 PUSH1 0x1 PUSH1 0xA0 SHL SUB AND CALLER EQ PUSH2 0x7B8 JUMPI PUSH1 0x40 MLOAD PUSH4 0x118CDAA7 PUSH1 0xE0 SHL DUP2 MSTORE CALLER PUSH1 0x4 DUP3 ADD MSTORE PUSH1 0x24 ADD PUSH2 0x2BC JUMP JUMPDEST PUSH1 0x0 DUP1 DUP3 SLT ISZERO PUSH2 0xAE8 JUMPI PUSH1 0x40 MLOAD PUSH4 0x54672219 PUSH1 0xE1 SHL DUP2 MSTORE PUSH1 0x4 DUP2 ADD DUP4 SWAP1 MSTORE PUSH1 0x24 ADD PUSH2 0x2BC JUMP JUMPDEST POP SWAP1 JUMP JUMPDEST PUSH2 0xAF4 PUSH2 0xC6A JUMP JUMPDEST PUSH1 0x2 DUP1 SLOAD PUSH1 0xFF NOT AND SWAP1 SSTORE PUSH32 0x5DB9EE0A495BF2E6FF9C91A7834C1BA4FDD244A5E8AA4E537BD38AEAE4B073AA CALLER JUMPDEST PUSH1 0x40 MLOAD PUSH1 0x1 PUSH1 0x1 PUSH1 0xA0 SHL SUB SWAP1 SWAP2 AND DUP2 MSTORE PUSH1 0x20 ADD PUSH1 0x40 MLOAD DUP1 SWAP2 SUB SWAP1 LOG1 JUMP JUMPDEST PUSH1 0x0 DUP1 SLOAD PUSH1 0x1 PUSH1 0x1 PUSH1 0xA0 SHL SUB DUP4 DUP2 AND PUSH1 0x1 PUSH1 0x1 PUSH1 0xA0 SHL SUB NOT DUP4 AND DUP2 OR DUP5 SSTORE PUSH1 0x40 MLOAD SWAP2 SWAP1 SWAP3 AND SWAP3 DUP4 SWAP2 PUSH32 0x8BE0079C531659141344CD1FD0A4F28419497F9722A3DAAFE3B4186F6B6457E0 SWAP2 SWAP1 LOG3 POP POP JUMP JUMPDEST PUSH2 0xB96 PUSH2 0xC24 JUMP JUMPDEST PUSH1 0x2 DUP1 SLOAD PUSH1 0xFF NOT AND PUSH1 0x1 OR SWAP1 SSTORE PUSH32 0x62E78CEA01BEE320CD4E420270B5EA74000D11B0C9F74754EBDBFC544B05A258 PUSH2 0xB21 CALLER SWAP1 JUMP JUMPDEST PUSH1 0x2 PUSH1 0x1 SLOAD SUB PUSH2 0xC1D JUMPI PUSH1 0x40 MLOAD PUSH3 0x461BCD PUSH1 0xE5 SHL DUP2 MSTORE PUSH1 0x20 PUSH1 0x4 DUP3 ADD MSTORE PUSH1 0x1F PUSH1 0x24 DUP3 ADD MSTORE PUSH32 0x5265656E7472616E637947756172643A207265656E7472616E742063616C6C00 PUSH1 0x44 DUP3 ADD MSTORE PUSH1 0x64 ADD PUSH2 0x2BC JUMP JUMPDEST PUSH1 0x2 PUSH1 0x1 SSTORE JUMP JUMPDEST PUSH1 0x2 SLOAD PUSH1 0xFF AND ISZERO PUSH2 0x7B8 JUMPI PUSH1 0x40 MLOAD PUSH3 0x461BCD PUSH1 0xE5 SHL DUP2 MSTORE PUSH1 0x20 PUSH1 0x4 DUP3 ADD MSTORE PUSH1 0x10 PUSH1 0x24 DUP3 ADD MSTORE PUSH16 0x14185D5CD8589B194E881C185D5CD959 PUSH1 0x82 SHL PUSH1 0x44 DUP3 ADD MSTORE PUSH1 0x64 ADD PUSH2 0x2BC JUMP JUMPDEST PUSH1 0x2 SLOAD PUSH1 0xFF AND PUSH2 0x7B8 JUMPI PUSH1 0x40 MLOAD PUSH3 0x461BCD PUSH1 0xE5 SHL DUP2 MSTORE PUSH1 0x20 PUSH1 0x4 DUP3 ADD MSTORE PUSH1 0x14 PUSH1 0x24 DUP3 ADD MSTORE PUSH20 0x14185D5CD8589B194E881B9BDD081C185D5CD959 PUSH1 0x62 SHL PUSH1 0x44 DUP3 ADD MSTORE PUSH1 0x64 ADD PUSH2 0x2BC JUMP JUMPDEST DUP1 CALLDATALOAD PUSH1 0x1 PUSH1 0x1 PUSH1 0xA0 SHL SUB DUP2 AND DUP2 EQ PUSH2 0xCCA JUMPI PUSH1 0x0 DUP1 REVERT JUMPDEST SWAP2 SWAP1 POP JUMP JUMPDEST PUSH1 0x0 DUP1 PUSH1 0x40 DUP4 DUP6 SUB SLT ISZERO PUSH2 0xCE2 JUMPI PUSH1 0x0 DUP1 REVERT JUMPDEST DUP3 CALLDATALOAD SWAP2 POP PUSH2 0xCF2 PUSH1 0x20 DUP5 ADD PUSH2 0xCB3 JUMP JUMPDEST SWAP1 POP SWAP3 POP SWAP3 SWAP1 POP JUMP JUMPDEST PUSH1 0x0 PUSH1 0x20 DUP3 DUP5 SUB SLT ISZERO PUSH2 0xD0D JUMPI PUSH1 0x0 DUP1 REVERT JUMPDEST POP CALLDATALOAD SWAP2 SWAP1 POP JUMP JUMPDEST PUSH1 0x0 PUSH1 0x20 DUP3 DUP5 SUB SLT ISZERO PUSH2 0xD26 JUMPI PUSH1 0x0 DUP1 REVERT JUMPDEST PUSH2 0xD2F DUP3 PUSH2 0xCB3 JUMP JUMPDEST SWAP4 SWAP3 POP POP POP JUMP JUMPDEST PUSH1 0x0 DUP1 PUSH1 0x0 DUP1 PUSH1 0x0 DUP1 PUSH1 0xC0 DUP8 DUP10 SUB SLT ISZERO PUSH2 0xD4F JUMPI PUSH1 0x0 DUP1 REVERT JUMPDEST DUP7 CALLDATALOAD SWAP6 POP PUSH2 0xD5F PUSH1 0x20 DUP9 ADD PUSH2 0xCB3 JUMP JUMPDEST SWAP6 SWAP9 SWAP6 SWAP8 POP POP POP POP PUSH1 0x40 DUP5 ADD CALLDATALOAD SWAP4 PUSH1 0x60 DUP2 ADD CALLDATALOAD SWAP4 PUSH1 0x80 DUP3 ADD CALLDATALOAD SWAP4 POP PUSH1 0xA0 SWAP1 SWAP2 ADD CALLDATALOAD SWAP2 POP JUMP JUMPDEST PUSH1 0x0 DUP1 PUSH1 0x0 DUP1 PUSH1 0x80 DUP6 DUP8 SUB SLT ISZERO PUSH2 0xD9A JUMPI PUSH1 0x0 DUP1 REVERT JUMPDEST POP POP DUP3 CALLDATALOAD SWAP5 PUSH1 0x20 DUP5 ADD CALLDATALOAD SWAP5 POP PUSH1 0x40 DUP5 ADD CALLDATALOAD SWAP4 PUSH1 0x60 ADD CALLDATALOAD SWAP3 POP SWAP1 POP JUMP JUMPDEST PUSH1 0x20 DUP1 DUP3 MSTORE PUSH1 0xC SWAP1 DUP3 ADD MSTORE PUSH12 0x24B73B30B634B2103830B4B9 PUSH1 0xA1 SHL PUSH1 0x40 DUP3 ADD MSTORE PUSH1 0x60 ADD SWAP1 JUMP JUMPDEST PUSH1 0x0 DUP1 PUSH1 0x0 PUSH1 0x60 DUP5 DUP7 SUB SLT ISZERO PUSH2 0xDF1 JUMPI PUSH1 0x0 DUP1 REVERT JUMPDEST DUP4 MLOAD PUSH1 0x20 DUP6 ADD MLOAD PUSH1 0x40 DUP7 ADD MLOAD SWAP2 SWAP5 POP SWAP3 POP DUP1 ISZERO ISZERO DUP2 EQ PUSH2 0xE10 JUMPI PUSH1 0x0 DUP1 REVERT JUMPDEST DUP1 SWAP2 POP POP SWAP3 POP SWAP3 POP SWAP3 JUMP JUMPDEST DUP1 MLOAD PUSH10 0xFFFFFFFFFFFFFFFFFFFF DUP2 AND DUP2 EQ PUSH2 0xCCA JUMPI PUSH1 0x0 DUP1 REVERT JUMPDEST PUSH1 0x0 DUP1 PUSH1 0x0 DUP1 PUSH1 0x0 PUSH1 0xA0 DUP7 DUP9 SUB SLT ISZERO PUSH2 0xE4D JUMPI PUSH1 0x0 DUP1 REVERT JUMPDEST PUSH2 0xE56 DUP7 PUSH2 0xE1B JUMP JUMPDEST PUSH1 0x20 DUP8 ADD MLOAD PUSH1 0x40 DUP9 ADD MLOAD PUSH1 0x60 DUP10 ADD MLOAD SWAP3 SWAP8 POP SWAP1 SWAP6 POP SWAP4 POP SWAP2 POP PUSH2 0xE7B PUSH1 0x80 DUP8 ADD PUSH2 0xE1B JUMP JUMPDEST SWAP1 POP SWAP3 SWAP6 POP SWAP3 SWAP6 SWAP1 SWAP4 POP JUMP JUMPDEST DUP2 DUP2 SUB DUP2 DUP2 GT ISZERO PUSH2 0xEA8 JUMPI PUSH4 0x4E487B71 PUSH1 0xE0 SHL PUSH1 0x0 MSTORE PUSH1 0x11 PUSH1 0x4 MSTORE PUSH1 0x24 PUSH1 0x0 REVERT JUMPDEST SWAP3 SWAP2 POP POP JUMP INVALID LOG2 PUSH5 0x6970667358 0x22 SLT KECCAK256 CREATE SWAP1 DIFFICULTY 0xAD 0xCE 0xC0 NOT PUSH9 0xD4D90212F613DD84E4 DUP16 SWAP3 PUSH13 0x7039A2534CA70CDDDD3E6EE864 PUSH20 0x6F6C634300081C00330000000000000000000000 "
				},
				"gasEstimates": {
					"creation": {
						"codeDepositCost": "762400",
						"executionCost": "infinite",
						"totalCost": "infinite"
					},
					"external": {
						"CHAINLINK_STALENESS_THRESHOLD()": "239",
						"EUR_USD_PAIR()": "223",
						"PRICE_VALIDITY_PERIOD()": "262",
						"addOracleSource(bytes32,address,uint256,uint256,uint256,uint256)": "57832",
						"getAggregatedPrice(bytes32)": "infinite",
						"getPrice(bytes32)": "infinite",
						"getSourcePrice(address)": "infinite",
						"latestPrices(bytes32)": "6780",
						"owner()": "2398",
						"pause()": "infinite",
						"paused()": "2337",
						"priceFeed()": "2371",
						"removeOracleSource(bytes32,address)": "4819",
						"renounceOwnership()": "infinite",
						"transferOwnership(address)": "28421",
						"unpause()": "infinite",
						"updatePrice(bytes32,uint256,uint256,uint256)": "infinite"
					}
				},
				"methodIdentifiers": {
					"CHAINLINK_STALENESS_THRESHOLD()": "bc269850",
					"EUR_USD_PAIR()": "a5b5fb88",
					"PRICE_VALIDITY_PERIOD()": "6301a143",
					"addOracleSource(bytes32,address,uint256,uint256,uint256,uint256)": "9f97acb7",
					"getAggregatedPrice(bytes32)": "1fde7f26",
					"getPrice(bytes32)": "31d98b3f",
					"getSourcePrice(address)": "2806bce2",
					"latestPrices(bytes32)": "db7c1ad1",
					"owner()": "8da5cb5b",
					"pause()": "8456cb59",
					"paused()": "5c975abb",
					"priceFeed()": "741bef1a",
					"removeOracleSource(bytes32,address)": "01e9492f",
					"renounceOwnership()": "715018a6",
					"transferOwnership(address)": "f2fde38b",
					"unpause()": "3f4ba83a",
					"updatePrice(bytes32,uint256,uint256,uint256)": "f3f699f1"
				}
			},
			"storageLayout": {
				"storage": [
					{
						"astId": 54,
						"contract": "oracle/UBI4ALLOracle.sol:UBI4ALLOracle",
						"label": "_owner",
						"offset": 0,
						"slot": "0",
						"type": "t_address"
					},
					{
						"astId": 312,
						"contract": "oracle/UBI4ALLOracle.sol:UBI4ALLOracle",
						"label": "_status",
						"offset": 0,
						"slot": "1",
						"type": "t_uint256"
					},
					{
						"astId": 211,
						"contract": "oracle/UBI4ALLOracle.sol:UBI4ALLOracle",
						"label": "_paused",
						"offset": 0,
						"slot": "2",
						"type": "t_bool"
					},
					{
						"astId": 2259,
						"contract": "oracle/UBI4ALLOracle.sol:UBI4ALLOracle",
						"label": "priceFeed",
						"offset": 1,
						"slot": "2",
						"type": "t_contract(AggregatorV3Interface)45"
					},
					{
						"astId": 2272,
						"contract": "oracle/UBI4ALLOracle.sol:UBI4ALLOracle",
						"label": "latestPrices",
						"offset": 0,
						"slot": "3",
						"type": "t_mapping(t_bytes32,t_struct(PriceData)2255_storage)"
					}
				],
				"types": {
					"t_address": {
						"encoding": "inplace",
						"label": "address",
						"numberOfBytes": "20"
					},
					"t_bool": {
						"encoding": "inplace",
						"label": "bool",
						"numberOfBytes": "1"
					},
					"t_bytes32": {
						"encoding": "inplace",
						"label": "bytes32",
						"numberOfBytes": "32"
					},
					"t_contract(AggregatorV3Interface)45": {
						"encoding": "inplace",
						"label": "contract AggregatorV3Interface",
						"numberOfBytes": "20"
					},
					"t_mapping(t_bytes32,t_struct(PriceData)2255_storage)": {
						"encoding": "mapping",
						"key": "t_bytes32",
						"label": "mapping(bytes32 => struct UBI4ALLOracle.PriceData)",
						"numberOfBytes": "32",
						"value": "t_struct(PriceData)2255_storage"
					},
					"t_struct(PriceData)2255_storage": {
						"encoding": "inplace",
						"label": "struct UBI4ALLOracle.PriceData",
						"members": [
							{
								"astId": 2250,
								"contract": "oracle/UBI4ALLOracle.sol:UBI4ALLOracle",
								"label": "price",
								"offset": 0,
								"slot": "0",
								"type": "t_uint256"
							},
							{
								"astId": 2252,
								"contract": "oracle/UBI4ALLOracle.sol:UBI4ALLOracle",
								"label": "timestamp",
								"offset": 0,
								"slot": "1",
								"type": "t_uint256"
							},
							{
								"astId": 2254,
								"contract": "oracle/UBI4ALLOracle.sol:UBI4ALLOracle",
								"label": "isValid",
								"offset": 0,
								"slot": "2",
								"type": "t_bool"
							}
						],
						"numberOfBytes": "96"
					},
					"t_uint256": {
						"encoding": "inplace",
						"label": "uint256",
						"numberOfBytes": "32"
					}
				}
			},
			"userdoc": {
				"events": {
					"EmergencyPause(bytes32)": {
						"notice": "Evento emesso quando il contratto viene messo in pausa"
					},
					"PriceFeedUpdated(address,address)": {
						"notice": "Evento emesso quando il feed di prezzo viene aggiornato"
					},
					"PriceUpdated(bytes32,uint256,uint256)": {
						"notice": "Evento emesso quando il prezzo viene aggiornato"
					}
				},
				"kind": "user",
				"methods": {
					"addOracleSource(bytes32,address,uint256,uint256,uint256,uint256)": {
						"notice": "Aggiunge o aggiorna il feed Chainlink per EUR/USD"
					},
					"constructor": {
						"notice": "Costruttore del contratto"
					},
					"getAggregatedPrice(bytes32)": {
						"notice": "Ottiene il prezzo aggregato (equivalente a getPrice per EUR/USD)"
					},
					"getPrice(bytes32)": {
						"notice": "Ottiene il prezzo più recente per la coppia EUR/USD"
					},
					"getSourcePrice(address)": {
						"notice": "Ottiene il prezzo direttamente dal feed Chainlink"
					},
					"pause()": {
						"notice": "Mette in pausa il contratto (blocca updatePrice)"
					},
					"removeOracleSource(bytes32,address)": {
						"notice": "Rimuove un feed (no-op per oracolo a sorgente singola)"
					},
					"unpause()": {
						"notice": "Ripristina il contratto dalla pausa"
					},
					"updatePrice(bytes32,uint256,uint256,uint256)": {
						"notice": "Aggiorna manualmente il prezzo per la coppia EUR/USD"
					}
				},
				"notice": "Fornisce prezzi aggiornati per la coppia EUR/USD, con fallback a Chainlink",
				"version": 1
			}
		}
	}
}