{
	"oracle/UBI4ALLCustomOracle.sol": {
		"UBI4ALLCustomOracle": {
			"abi": [
				{
					"inputs": [
						{
							"internalType": "address",
							"name": "_functionsRouter",
							"type": "address"
						},
						{
							"internalType": "bytes32",
							"name": "_donID",
							"type": "bytes32"
						},
						{
							"internalType": "uint64",
							"name": "_subscriptionId",
							"type": "uint64"
						},
						{
							"internalType": "address",
							"name": "initialOwner",
							"type": "address"
						}
					],
					"stateMutability": "nonpayable",
					"type": "constructor"
				},
				{
					"inputs": [],
					"name": "EmptySource",
					"type": "error"
				},
				{
					"inputs": [],
					"name": "NoInlineSecrets",
					"type": "error"
				},
				{
					"inputs": [],
					"name": "OnlyRouterCanFulfill",
					"type": "error"
				},
				{
					"inputs": [
						{
							"internalType": "address",
							"name": "owner",
							"type": "address"
						}
					],
					"name": "OwnableInvalidOwner",
					"type": "error"
				},
				{
					"inputs": [
						{
							"internalType": "address",
							"name": "account",
							"type": "address"
						}
					],
					"name": "OwnableUnauthorizedAccount",
					"type": "error"
				},
				{
					"anonymous": false,
					"inputs": [
						{
							"indexed": true,
							"internalType": "address",
							"name": "user",
							"type": "address"
						},
						{
							"indexed": true,
							"internalType": "uint256",
							"name": "proposalId",
							"type": "uint256"
						},
						{
							"indexed": false,
							"internalType": "uint256",
							"name": "score",
							"type": "uint256"
						}
					],
					"name": "CorrelationScoreUpdated",
					"type": "event"
				},
				{
					"anonymous": false,
					"inputs": [
						{
							"indexed": true,
							"internalType": "bytes32",
							"name": "requestId",
							"type": "bytes32"
						},
						{
							"indexed": true,
							"internalType": "address",
							"name": "requester",
							"type": "address"
						},
						{
							"indexed": false,
							"internalType": "enum UBI4ALLCustomOracle.RequestType",
							"name": "requestType",
							"type": "uint8"
						}
					],
					"name": "OracleRequest",
					"type": "event"
				},
				{
					"anonymous": false,
					"inputs": [
						{
							"indexed": true,
							"internalType": "bytes32",
							"name": "requestId",
							"type": "bytes32"
						},
						{
							"indexed": false,
							"internalType": "int256",
							"name": "price",
							"type": "int256"
						},
						{
							"indexed": false,
							"internalType": "uint256",
							"name": "reputation",
							"type": "uint256"
						},
						{
							"indexed": false,
							"internalType": "uint256",
							"name": "correlation",
							"type": "uint256"
						}
					],
					"name": "OracleResponse",
					"type": "event"
				},
				{
					"anonymous": false,
					"inputs": [
						{
							"indexed": true,
							"internalType": "address",
							"name": "previousOwner",
							"type": "address"
						},
						{
							"indexed": true,
							"internalType": "address",
							"name": "newOwner",
							"type": "address"
						}
					],
					"name": "OwnershipTransferred",
					"type": "event"
				},
				{
					"anonymous": false,
					"inputs": [
						{
							"indexed": false,
							"internalType": "int256",
							"name": "price",
							"type": "int256"
						},
						{
							"indexed": false,
							"internalType": "uint256",
							"name": "timestamp",
							"type": "uint256"
						}
					],
					"name": "Q4APriceUpdated",
					"type": "event"
				},
				{
					"anonymous": false,
					"inputs": [
						{
							"indexed": true,
							"internalType": "address",
							"name": "user",
							"type": "address"
						},
						{
							"indexed": false,
							"internalType": "uint256",
							"name": "score",
							"type": "uint256"
						}
					],
					"name": "ReputationScoreUpdated",
					"type": "event"
				},
				{
					"anonymous": false,
					"inputs": [
						{
							"indexed": true,
							"internalType": "bytes32",
							"name": "id",
							"type": "bytes32"
						}
					],
					"name": "RequestFulfilled",
					"type": "event"
				},
				{
					"anonymous": false,
					"inputs": [
						{
							"indexed": true,
							"internalType": "bytes32",
							"name": "id",
							"type": "bytes32"
						}
					],
					"name": "RequestSent",
					"type": "event"
				},
				{
					"inputs": [],
					"name": "CORRELATION_SCALE",
					"outputs": [
						{
							"internalType": "uint256",
							"name": "",
							"type": "uint256"
						}
					],
					"stateMutability": "view",
					"type": "function"
				},
				{
					"inputs": [],
					"name": "DECIMALS",
					"outputs": [
						{
							"internalType": "uint8",
							"name": "",
							"type": "uint8"
						}
					],
					"stateMutability": "view",
					"type": "function"
				},
				{
					"inputs": [],
					"name": "REPUTATION_SCALE",
					"outputs": [
						{
							"internalType": "uint256",
							"name": "",
							"type": "uint256"
						}
					],
					"stateMutability": "view",
					"type": "function"
				},
				{
					"inputs": [
						{
							"internalType": "address",
							"name": "",
							"type": "address"
						},
						{
							"internalType": "uint256",
							"name": "",
							"type": "uint256"
						}
					],
					"name": "correlationScores",
					"outputs": [
						{
							"internalType": "uint256",
							"name": "",
							"type": "uint256"
						}
					],
					"stateMutability": "view",
					"type": "function"
				},
				{
					"inputs": [],
					"name": "donID",
					"outputs": [
						{
							"internalType": "bytes32",
							"name": "",
							"type": "bytes32"
						}
					],
					"stateMutability": "view",
					"type": "function"
				},
				{
					"inputs": [],
					"name": "gasLimit",
					"outputs": [
						{
							"internalType": "uint32",
							"name": "",
							"type": "uint32"
						}
					],
					"stateMutability": "view",
					"type": "function"
				},
				{
					"inputs": [
						{
							"internalType": "address",
							"name": "_user",
							"type": "address"
						},
						{
							"internalType": "uint256",
							"name": "_proposalId",
							"type": "uint256"
						}
					],
					"name": "getCorrelationScore",
					"outputs": [
						{
							"internalType": "uint256",
							"name": "",
							"type": "uint256"
						}
					],
					"stateMutability": "view",
					"type": "function"
				},
				{
					"inputs": [],
					"name": "getQ4APrice",
					"outputs": [
						{
							"internalType": "int256",
							"name": "",
							"type": "int256"
						}
					],
					"stateMutability": "view",
					"type": "function"
				},
				{
					"inputs": [
						{
							"internalType": "address",
							"name": "_user",
							"type": "address"
						}
					],
					"name": "getReputationScore",
					"outputs": [
						{
							"internalType": "uint256",
							"name": "",
							"type": "uint256"
						}
					],
					"stateMutability": "view",
					"type": "function"
				},
				{
					"inputs": [
						{
							"internalType": "bytes32",
							"name": "requestId",
							"type": "bytes32"
						},
						{
							"internalType": "bytes",
							"name": "response",
							"type": "bytes"
						},
						{
							"internalType": "bytes",
							"name": "err",
							"type": "bytes"
						}
					],
					"name": "handleOracleFulfillment",
					"outputs": [],
					"stateMutability": "nonpayable",
					"type": "function"
				},
				{
					"inputs": [],
					"name": "lastPriceUpdate",
					"outputs": [
						{
							"internalType": "uint256",
							"name": "",
							"type": "uint256"
						}
					],
					"stateMutability": "view",
					"type": "function"
				},
				{
					"inputs": [],
					"name": "owner",
					"outputs": [
						{
							"internalType": "address",
							"name": "",
							"type": "address"
						}
					],
					"stateMutability": "view",
					"type": "function"
				},
				{
					"inputs": [
						{
							"internalType": "bytes32",
							"name": "",
							"type": "bytes32"
						}
					],
					"name": "pendingRequests",
					"outputs": [
						{
							"internalType": "address",
							"name": "requester",
							"type": "address"
						},
						{
							"internalType": "enum UBI4ALLCustomOracle.RequestType",
							"name": "requestType",
							"type": "uint8"
						},
						{
							"internalType": "address",
							"name": "user",
							"type": "address"
						},
						{
							"internalType": "uint256",
							"name": "proposalId",
							"type": "uint256"
						}
					],
					"stateMutability": "view",
					"type": "function"
				},
				{
					"inputs": [],
					"name": "q4aPrice",
					"outputs": [
						{
							"internalType": "int256",
							"name": "",
							"type": "int256"
						}
					],
					"stateMutability": "view",
					"type": "function"
				},
				{
					"inputs": [],
					"name": "renounceOwnership",
					"outputs": [],
					"stateMutability": "nonpayable",
					"type": "function"
				},
				{
					"inputs": [
						{
							"internalType": "address",
							"name": "",
							"type": "address"
						}
					],
					"name": "reputationScores",
					"outputs": [
						{
							"internalType": "uint256",
							"name": "",
							"type": "uint256"
						}
					],
					"stateMutability": "view",
					"type": "function"
				},
				{
					"inputs": [
						{
							"internalType": "address",
							"name": "_user",
							"type": "address"
						},
						{
							"internalType": "uint256",
							"name": "_proposalId",
							"type": "uint256"
						}
					],
					"name": "requestCorrelationScore",
					"outputs": [
						{
							"internalType": "bytes32",
							"name": "requestId",
							"type": "bytes32"
						}
					],
					"stateMutability": "nonpayable",
					"type": "function"
				},
				{
					"inputs": [],
					"name": "requestQ4APrice",
					"outputs": [
						{
							"internalType": "bytes32",
							"name": "requestId",
							"type": "bytes32"
						}
					],
					"stateMutability": "nonpayable",
					"type": "function"
				},
				{
					"inputs": [
						{
							"internalType": "address",
							"name": "_user",
							"type": "address"
						}
					],
					"name": "requestReputationScore",
					"outputs": [
						{
							"internalType": "bytes32",
							"name": "requestId",
							"type": "bytes32"
						}
					],
					"stateMutability": "nonpayable",
					"type": "function"
				},
				{
					"inputs": [],
					"name": "subscriptionId",
					"outputs": [
						{
							"internalType": "uint64",
							"name": "",
							"type": "uint64"
						}
					],
					"stateMutability": "view",
					"type": "function"
				},
				{
					"inputs": [
						{
							"internalType": "address",
							"name": "newOwner",
							"type": "address"
						}
					],
					"name": "transferOwnership",
					"outputs": [],
					"stateMutability": "nonpayable",
					"type": "function"
				},
				{
					"inputs": [
						{
							"internalType": "address",
							"name": "_user",
							"type": "address"
						},
						{
							"internalType": "uint256",
							"name": "_proposalId",
							"type": "uint256"
						},
						{
							"internalType": "uint256",
							"name": "_score",
							"type": "uint256"
						}
					],
					"name": "updateManualCorrelationScore",
					"outputs": [],
					"stateMutability": "nonpayable",
					"type": "function"
				},
				{
					"inputs": [
						{
							"internalType": "int256",
							"name": "_price",
							"type": "int256"
						}
					],
					"name": "updateManualQ4APrice",
					"outputs": [],
					"stateMutability": "nonpayable",
					"type": "function"
				},
				{
					"inputs": [
						{
							"internalType": "address",
							"name": "_user",
							"type": "address"
						},
						{
							"internalType": "uint256",
							"name": "_score",
							"type": "uint256"
						}
					],
					"name": "updateManualReputationScore",
					"outputs": [],
					"stateMutability": "nonpayable",
					"type": "function"
				}
			],
			"devdoc": {
				"errors": {
					"OwnableInvalidOwner(address)": [
						{
							"details": "The owner is not a valid owner account. (eg. `address(0)`)"
						}
					],
					"OwnableUnauthorizedAccount(address)": [
						{
							"details": "The caller account is not authorized to perform an operation."
						}
					]
				},
				"kind": "dev",
				"methods": {
					"handleOracleFulfillment(bytes32,bytes,bytes)": {
						"details": "Either response or error parameter will be set, but never both.",
						"params": {
							"err": "Aggregated error either from the request's source code or from the execution pipeline.",
							"requestId": "The requestId returned by FunctionsClient.sendRequest().",
							"response": "Aggregated response from the request's source code."
						}
					},
					"owner()": {
						"details": "Returns the address of the current owner."
					},
					"renounceOwnership()": {
						"details": "Leaves the contract without owner. It will not be possible to call `onlyOwner` functions. Can only be called by the current owner. NOTE: Renouncing ownership will leave the contract without an owner, thereby disabling any functionality that is only available to the owner."
					},
					"transferOwnership(address)": {
						"details": "Transfers ownership of the contract to a new account (`newOwner`). Can only be called by the current owner."
					}
				},
				"version": 1
			},
			"evm": {
				"assembly": "    /* \"oracle/UBI4ALLCustomOracle.sol\":326:11164  contract UBI4ALLCustomOracle is IUBI4ALLCustomOracle, Ownable, FunctionsClient {... */\n  mstore(0x40, 0xa0)\n    /* \"oracle/UBI4ALLCustomOracle.sol\":1755:1786  uint32 public gasLimit = 300000 */\n  0x07\n  dup1\n  sload\n  not(shl(0x40, 0xffffffff))\n  and\n  0x0493e00000000000000000\n  or\n  swap1\n  sstore\n    /* \"oracle/UBI4ALLCustomOracle.sol\":2303:2759  constructor(... */\n  callvalue\n  dup1\n  iszero\n  tag_1\n  jumpi\n  0x00\n  dup1\n  revert\ntag_1:\n  pop\n  mload(0x40)\n  sub(codesize, bytecodeSize)\n  dup1\n  bytecodeSize\n  dup4\n  codecopy\n  dup2\n  add\n  0x40\n  dup2\n  swap1\n  mstore\n  tag_2\n  swap2\n  tag_3\n  jump\t// in\ntag_2:\n    /* \"oracle/UBI4ALLCustomOracle.sol\":2479:2495  _functionsRouter */\n  dup4\n    /* \"oracle/UBI4ALLCustomOracle.sol\":2449:2461  initialOwner */\n  dup2\n  sub(shl(0xa0, 0x01), 0x01)\n    /* \"@openzeppelin/contracts/access/Ownable.sol\":1273:1299  initialOwner == address(0) */\n  dup2\n  and\n    /* \"@openzeppelin/contracts/access/Ownable.sol\":1269:1364  if (initialOwner == address(0)) {... */\n  tag_8\n  jumpi\n    /* \"@openzeppelin/contracts/access/Ownable.sol\":1322:1353  OwnableInvalidOwner(address(0)) */\n  mload(0x40)\n  shl(0xe0, 0x1e4fbdf7)\n  dup2\n  mstore\n    /* \"@openzeppelin/contracts/access/Ownable.sol\":1350:1351  0 */\n  0x00\n    /* \"@openzeppelin/contracts/access/Ownable.sol\":1322:1353  OwnableInvalidOwner(address(0)) */\n  0x04\n  dup3\n  add\n    /* \"#utility.yul\":867:918   */\n  mstore\n    /* \"#utility.yul\":840:858   */\n  0x24\n  add\n    /* \"@openzeppelin/contracts/access/Ownable.sol\":1322:1353  OwnableInvalidOwner(address(0)) */\ntag_9:\n  mload(0x40)\n  dup1\n  swap2\n  sub\n  swap1\n  revert\n    /* \"@openzeppelin/contracts/access/Ownable.sol\":1269:1364  if (initialOwner == address(0)) {... */\ntag_8:\n    /* \"@openzeppelin/contracts/access/Ownable.sol\":1373:1405  _transferOwnership(initialOwner) */\n  tag_11\n    /* \"@openzeppelin/contracts/access/Ownable.sol\":1392:1404  initialOwner */\n  dup2\n    /* \"@openzeppelin/contracts/access/Ownable.sol\":1373:1391  _transferOwnership */\n  tag_12\n    /* \"@openzeppelin/contracts/access/Ownable.sol\":1373:1405  _transferOwnership(initialOwner) */\n  jump\t// in\ntag_11:\n  pop\n  sub(shl(0xa0, 0x01), 0x01)\n    /* \"@chainlink/contracts/src/v0.8/functions/v1_0_0/FunctionsClient.sol\":736:771  i_router = IFunctionsRouter(router) */\n  swap1\n  dup2\n  and\n  0x80\n  mstore\n    /* \"oracle/UBI4ALLCustomOracle.sol\":2515:2545  _functionsRouter != address(0) */\n  dup5\n  and\n    /* \"oracle/UBI4ALLCustomOracle.sol\":2507:2572  require(_functionsRouter != address(0), \"Invalid router address\") */\n  tag_15\n  jumpi\n  mload(0x40)\n  shl(0xe5, 0x461bcd)\n  dup2\n  mstore\n    /* \"#utility.yul\":1131:1133   */\n  0x20\n    /* \"oracle/UBI4ALLCustomOracle.sol\":2507:2572  require(_functionsRouter != address(0), \"Invalid router address\") */\n  0x04\n  dup3\n  add\n    /* \"#utility.yul\":1113:1134   */\n  mstore\n    /* \"#utility.yul\":1170:1172   */\n  0x16\n    /* \"#utility.yul\":1150:1168   */\n  0x24\n  dup3\n  add\n    /* \"#utility.yul\":1143:1173   */\n  mstore\n    /* \"#utility.yul\":1209:1233   */\n  0x496e76616c696420726f75746572206164647265737300000000000000000000\n    /* \"#utility.yul\":1189:1207   */\n  0x44\n  dup3\n  add\n    /* \"#utility.yul\":1182:1234   */\n  mstore\n    /* \"#utility.yul\":1251:1269   */\n  0x64\n  add\n    /* \"oracle/UBI4ALLCustomOracle.sol\":2507:2572  require(_functionsRouter != address(0), \"Invalid router address\") */\n  tag_9\n    /* \"#utility.yul\":929:1275   */\n  jump\n    /* \"oracle/UBI4ALLCustomOracle.sol\":2507:2572  require(_functionsRouter != address(0), \"Invalid router address\") */\ntag_15:\n    /* \"oracle/UBI4ALLCustomOracle.sol\":2582:2587  donID */\n  0x06\n    /* \"oracle/UBI4ALLCustomOracle.sol\":2582:2596  donID = _donID */\n  dup4\n  swap1\n  sstore\n    /* \"oracle/UBI4ALLCustomOracle.sol\":2606:2620  subscriptionId */\n  0x07\n    /* \"oracle/UBI4ALLCustomOracle.sol\":2606:2638  subscriptionId = _subscriptionId */\n  dup1\n  sload\n  not(sub(shl(0x40, 0x01), 0x01))\n  and\n  sub(shl(0x40, 0x01), 0x01)\n  dup5\n  and\n  or\n  swap1\n  sstore\n    /* \"oracle/UBI4ALLCustomOracle.sol\":2670:2682  10**DECIMALS */\n  tag_18\n    /* \"oracle/UBI4ALLCustomOracle.sol\":518:519  8 */\n  0x08\n    /* \"oracle/UBI4ALLCustomOracle.sol\":2670:2672  10 */\n  0x0a\n    /* \"oracle/UBI4ALLCustomOracle.sol\":2670:2682  10**DECIMALS */\n  tag_19\n  jump\t// in\ntag_18:\n    /* \"oracle/UBI4ALLCustomOracle.sol\":2666:2682  1 * 10**DECIMALS */\n  tag_20\n  swap1\n    /* \"oracle/UBI4ALLCustomOracle.sol\":2666:2667  1 */\n  0x01\n    /* \"oracle/UBI4ALLCustomOracle.sol\":2666:2682  1 * 10**DECIMALS */\n  tag_21\n  jump\t// in\ntag_20:\n    /* \"oracle/UBI4ALLCustomOracle.sol\":2648:2656  q4aPrice */\n  0x03\n    /* \"oracle/UBI4ALLCustomOracle.sol\":2648:2683  q4aPrice = int256(1 * 10**DECIMALS) */\n  sstore\n  pop\n  pop\n    /* \"oracle/UBI4ALLCustomOracle.sol\":2737:2752  block.timestamp */\n  timestamp\n    /* \"oracle/UBI4ALLCustomOracle.sol\":2719:2734  lastPriceUpdate */\n  0x04\n    /* \"oracle/UBI4ALLCustomOracle.sol\":2719:2752  lastPriceUpdate = block.timestamp */\n  sstore\n  pop\n    /* \"oracle/UBI4ALLCustomOracle.sol\":326:11164  contract UBI4ALLCustomOracle is IUBI4ALLCustomOracle, Ownable, FunctionsClient {... */\n  tag_28\n  swap1\n  pop\n  jump\n    /* \"@openzeppelin/contracts/access/Ownable.sol\":2912:3099  function _transferOwnership(address newOwner) internal virtual {... */\ntag_12:\n    /* \"@openzeppelin/contracts/access/Ownable.sol\":2985:3001  address oldOwner */\n  0x00\n    /* \"@openzeppelin/contracts/access/Ownable.sol\":3004:3010  _owner */\n  dup1\n  sload\n  sub(shl(0xa0, 0x01), 0x01)\n    /* \"@openzeppelin/contracts/access/Ownable.sol\":3020:3037  _owner = newOwner */\n  dup4\n  dup2\n  and\n  not(sub(shl(0xa0, 0x01), 0x01))\n  dup4\n  and\n  dup2\n  or\n  dup5\n  sstore\n    /* \"@openzeppelin/contracts/access/Ownable.sol\":3052:3092  OwnershipTransferred(oldOwner, newOwner) */\n  mload(0x40)\n    /* \"@openzeppelin/contracts/access/Ownable.sol\":3004:3010  _owner */\n  swap2\n  swap1\n  swap3\n  and\n  swap3\n  dup4\n  swap2\n    /* \"@openzeppelin/contracts/access/Ownable.sol\":3052:3092  OwnershipTransferred(oldOwner, newOwner) */\n  0x8be0079c531659141344cd1fd0a4f28419497f9722a3daafe3b4186f6b6457e0\n  swap2\n    /* \"@openzeppelin/contracts/access/Ownable.sol\":2985:3001  address oldOwner */\n  swap1\n    /* \"@openzeppelin/contracts/access/Ownable.sol\":3052:3092  OwnershipTransferred(oldOwner, newOwner) */\n  log3\n    /* \"@openzeppelin/contracts/access/Ownable.sol\":2975:3099  {... */\n  pop\n    /* \"@openzeppelin/contracts/access/Ownable.sol\":2912:3099  function _transferOwnership(address newOwner) internal virtual {... */\n  pop\n  jump\t// out\n    /* \"#utility.yul\":14:191   */\ntag_24:\n    /* \"#utility.yul\":93:106   */\n  dup1\n  mload\n  sub(shl(0xa0, 0x01), 0x01)\n    /* \"#utility.yul\":135:166   */\n  dup2\n  and\n    /* \"#utility.yul\":125:167   */\n  dup2\n  eq\n    /* \"#utility.yul\":115:185   */\n  tag_30\n  jumpi\n    /* \"#utility.yul\":181:182   */\n  0x00\n    /* \"#utility.yul\":178:179   */\n  dup1\n    /* \"#utility.yul\":171:183   */\n  revert\n    /* \"#utility.yul\":115:185   */\ntag_30:\n    /* \"#utility.yul\":14:191   */\n  swap2\n  swap1\n  pop\n  jump\t// out\n    /* \"#utility.yul\":196:716   */\ntag_3:\n    /* \"#utility.yul\":292:298   */\n  0x00\n    /* \"#utility.yul\":300:306   */\n  dup1\n    /* \"#utility.yul\":308:314   */\n  0x00\n    /* \"#utility.yul\":316:322   */\n  dup1\n    /* \"#utility.yul\":369:372   */\n  0x80\n    /* \"#utility.yul\":357:366   */\n  dup6\n    /* \"#utility.yul\":348:355   */\n  dup8\n    /* \"#utility.yul\":344:367   */\n  sub\n    /* \"#utility.yul\":340:373   */\n  slt\n    /* \"#utility.yul\":337:390   */\n  iszero\n  tag_32\n  jumpi\n    /* \"#utility.yul\":386:387   */\n  0x00\n    /* \"#utility.yul\":383:384   */\n  dup1\n    /* \"#utility.yul\":376:388   */\n  revert\n    /* \"#utility.yul\":337:390   */\ntag_32:\n    /* \"#utility.yul\":409:449   */\n  tag_33\n    /* \"#utility.yul\":439:448   */\n  dup6\n    /* \"#utility.yul\":409:449   */\n  tag_24\n  jump\t// in\ntag_33:\n    /* \"#utility.yul\":489:491   */\n  0x20\n    /* \"#utility.yul\":474:492   */\n  dup7\n  add\n    /* \"#utility.yul\":468:493   */\n  mload\n    /* \"#utility.yul\":536:538   */\n  0x40\n    /* \"#utility.yul\":521:539   */\n  dup8\n  add\n    /* \"#utility.yul\":515:540   */\n  mload\n    /* \"#utility.yul\":399:449   */\n  swap2\n  swap6\n  pop\n    /* \"#utility.yul\":468:493   */\n  swap4\n  pop\n  sub(shl(0x40, 0x01), 0x01)\n    /* \"#utility.yul\":569:599   */\n  dup2\n  and\n    /* \"#utility.yul\":559:600   */\n  dup2\n  eq\n    /* \"#utility.yul\":549:618   */\n  tag_34\n  jumpi\n    /* \"#utility.yul\":614:615   */\n  0x00\n    /* \"#utility.yul\":611:612   */\n  dup1\n    /* \"#utility.yul\":604:616   */\n  revert\n    /* \"#utility.yul\":549:618   */\ntag_34:\n    /* \"#utility.yul\":637:642   */\n  swap2\n  pop\n    /* \"#utility.yul\":661:710   */\n  tag_35\n    /* \"#utility.yul\":706:708   */\n  0x60\n    /* \"#utility.yul\":691:709   */\n  dup7\n  add\n    /* \"#utility.yul\":661:710   */\n  tag_24\n  jump\t// in\ntag_35:\n    /* \"#utility.yul\":651:710   */\n  swap1\n  pop\n    /* \"#utility.yul\":196:716   */\n  swap3\n  swap6\n  swap2\n  swap5\n  pop\n  swap3\n  pop\n  jump\t// out\n    /* \"#utility.yul\":1280:1407   */\ntag_25:\n    /* \"#utility.yul\":1341:1351   */\n  0x4e487b71\n    /* \"#utility.yul\":1336:1339   */\n  0xe0\n    /* \"#utility.yul\":1332:1352   */\n  shl\n    /* \"#utility.yul\":1329:1330   */\n  0x00\n    /* \"#utility.yul\":1322:1353   */\n  mstore\n    /* \"#utility.yul\":1372:1376   */\n  0x11\n    /* \"#utility.yul\":1369:1370   */\n  0x04\n    /* \"#utility.yul\":1362:1377   */\n  mstore\n    /* \"#utility.yul\":1396:1400   */\n  0x24\n    /* \"#utility.yul\":1393:1394   */\n  0x00\n    /* \"#utility.yul\":1386:1401   */\n  revert\n    /* \"#utility.yul\":1412:1787   */\ntag_26:\n    /* \"#utility.yul\":1500:1501   */\n  0x01\n    /* \"#utility.yul\":1518:1523   */\n  dup2\n    /* \"#utility.yul\":1532:1781   */\ntag_40:\n    /* \"#utility.yul\":1553:1554   */\n  0x01\n    /* \"#utility.yul\":1543:1551   */\n  dup5\n    /* \"#utility.yul\":1540:1555   */\n  gt\n    /* \"#utility.yul\":1532:1781   */\n  iszero\n  tag_42\n  jumpi\n    /* \"#utility.yul\":1603:1607   */\n  dup1\n    /* \"#utility.yul\":1598:1601   */\n  dup6\n    /* \"#utility.yul\":1594:1608   */\n  div\n    /* \"#utility.yul\":1588:1592   */\n  dup2\n    /* \"#utility.yul\":1585:1609   */\n  gt\n    /* \"#utility.yul\":1582:1632   */\n  iszero\n  tag_44\n  jumpi\n    /* \"#utility.yul\":1612:1630   */\n  tag_44\n  tag_25\n  jump\t// in\ntag_44:\n    /* \"#utility.yul\":1662:1663   */\n  0x01\n    /* \"#utility.yul\":1652:1660   */\n  dup5\n    /* \"#utility.yul\":1648:1664   */\n  and\n    /* \"#utility.yul\":1645:1694   */\n  iszero\n  tag_45\n  jumpi\n    /* \"#utility.yul\":1676:1692   */\n  swap1\n  dup2\n  mul\n  swap1\n    /* \"#utility.yul\":1645:1694   */\ntag_45:\n    /* \"#utility.yul\":1759:1760   */\n  0x01\n    /* \"#utility.yul\":1755:1771   */\n  swap4\n  swap1\n  swap4\n  shr\n  swap3\n    /* \"#utility.yul\":1715:1730   */\n  dup1\n  mul\n    /* \"#utility.yul\":1532:1781   */\n  jump(tag_40)\ntag_42:\n    /* \"#utility.yul\":1412:1787   */\n  swap4\n  pop\n  swap4\n  swap2\n  pop\n  pop\n  jump\t// out\n    /* \"#utility.yul\":1792:2694   */\ntag_27:\n    /* \"#utility.yul\":1841:1846   */\n  0x00\n    /* \"#utility.yul\":1871:1879   */\n  dup3\n    /* \"#utility.yul\":1861:1941   */\n  tag_47\n  jumpi\n  pop\n    /* \"#utility.yul\":1912:1913   */\n  0x01\n    /* \"#utility.yul\":1926:1931   */\n  jump(tag_46)\n    /* \"#utility.yul\":1861:1941   */\ntag_47:\n    /* \"#utility.yul\":1960:1964   */\n  dup2\n    /* \"#utility.yul\":1950:2026   */\n  tag_48\n  jumpi\n  pop\n    /* \"#utility.yul\":1997:1998   */\n  0x00\n    /* \"#utility.yul\":2011:2016   */\n  jump(tag_46)\n    /* \"#utility.yul\":1950:2026   */\ntag_48:\n    /* \"#utility.yul\":2042:2046   */\n  dup2\n    /* \"#utility.yul\":2060:2061   */\n  0x01\n    /* \"#utility.yul\":2055:2114   */\n  dup2\n  eq\n  tag_50\n  jumpi\n    /* \"#utility.yul\":2128:2129   */\n  0x02\n    /* \"#utility.yul\":2123:2297   */\n  dup2\n  eq\n  tag_51\n  jumpi\n    /* \"#utility.yul\":2035:2297   */\n  jump(tag_49)\n    /* \"#utility.yul\":2055:2114   */\ntag_50:\n    /* \"#utility.yul\":2085:2086   */\n  0x01\n    /* \"#utility.yul\":2076:2086   */\n  swap2\n  pop\n    /* \"#utility.yul\":2099:2104   */\n  pop\n  jump(tag_46)\n    /* \"#utility.yul\":2123:2297   */\ntag_51:\n    /* \"#utility.yul\":2160:2163   */\n  0xff\n    /* \"#utility.yul\":2150:2158   */\n  dup5\n    /* \"#utility.yul\":2147:2164   */\n  gt\n    /* \"#utility.yul\":2144:2187   */\n  iszero\n  tag_53\n  jumpi\n    /* \"#utility.yul\":2167:2185   */\n  tag_53\n  tag_25\n  jump\t// in\ntag_53:\n  pop\n  pop\n    /* \"#utility.yul\":2223:2224   */\n  0x01\n    /* \"#utility.yul\":2209:2225   */\n  dup3\n  shl\n    /* \"#utility.yul\":2282:2287   */\n  jump(tag_46)\n    /* \"#utility.yul\":2035:2297   */\ntag_49:\n  pop\n    /* \"#utility.yul\":2381:2383   */\n  0x20\n    /* \"#utility.yul\":2371:2379   */\n  dup4\n    /* \"#utility.yul\":2368:2384   */\n  lt\n    /* \"#utility.yul\":2362:2365   */\n  0x0133\n    /* \"#utility.yul\":2356:2360   */\n  dup4\n    /* \"#utility.yul\":2353:2366   */\n  lt\n    /* \"#utility.yul\":2349:2385   */\n  and\n    /* \"#utility.yul\":2343:2345   */\n  0x4e\n    /* \"#utility.yul\":2333:2341   */\n  dup5\n    /* \"#utility.yul\":2330:2346   */\n  lt\n    /* \"#utility.yul\":2325:2327   */\n  0x0b\n    /* \"#utility.yul\":2319:2323   */\n  dup5\n    /* \"#utility.yul\":2316:2328   */\n  lt\n    /* \"#utility.yul\":2312:2347   */\n  and\n    /* \"#utility.yul\":2309:2386   */\n  or\n    /* \"#utility.yul\":2306:2509   */\n  iszero\n  tag_54\n  jumpi\n  pop\n    /* \"#utility.yul\":2418:2437   */\n  dup2\n  dup2\n  exp\n    /* \"#utility.yul\":2494:2499   */\n  jump(tag_46)\n    /* \"#utility.yul\":2306:2509   */\ntag_54:\n    /* \"#utility.yul\":2541:2583   */\n  tag_55\n  not(0x00)\n    /* \"#utility.yul\":2566:2574   */\n  dup5\n    /* \"#utility.yul\":2560:2564   */\n  dup5\n    /* \"#utility.yul\":2541:2583   */\n  tag_26\n  jump\t// in\ntag_55:\n    /* \"#utility.yul\":2619:2625   */\n  dup1\n    /* \"#utility.yul\":2615:2616   */\n  0x00\n    /* \"#utility.yul\":2611:2617   */\n  not\n    /* \"#utility.yul\":2607:2626   */\n  div\n    /* \"#utility.yul\":2598:2605   */\n  dup3\n    /* \"#utility.yul\":2595:2627   */\n  gt\n    /* \"#utility.yul\":2592:2650   */\n  iszero\n  tag_57\n  jumpi\n    /* \"#utility.yul\":2630:2648   */\n  tag_57\n  tag_25\n  jump\t// in\ntag_57:\n    /* \"#utility.yul\":2668:2688   */\n  mul\n  swap1\n  pop\n    /* \"#utility.yul\":1792:2694   */\ntag_46:\n  swap3\n  swap2\n  pop\n  pop\n  jump\t// out\n    /* \"#utility.yul\":2699:2839   */\ntag_19:\n    /* \"#utility.yul\":2757:2762   */\n  0x00\n    /* \"#utility.yul\":2786:2833   */\n  tag_59\n    /* \"#utility.yul\":2827:2831   */\n  0xff\n    /* \"#utility.yul\":2817:2825   */\n  dup5\n    /* \"#utility.yul\":2813:2832   */\n  and\n    /* \"#utility.yul\":2807:2811   */\n  dup4\n    /* \"#utility.yul\":2786:2833   */\n  tag_27\n  jump\t// in\ntag_59:\n    /* \"#utility.yul\":2777:2833   */\n  swap4\n    /* \"#utility.yul\":2699:2839   */\n  swap3\n  pop\n  pop\n  pop\n  jump\t// out\n    /* \"#utility.yul\":2844:3012   */\ntag_21:\n    /* \"#utility.yul\":2917:2926   */\n  dup1\n  dup3\n  mul\n    /* \"#utility.yul\":2948:2957   */\n  dup2\n  iszero\n    /* \"#utility.yul\":2965:2980   */\n  dup3\n  dup3\n  div\n    /* \"#utility.yul\":2959:2981   */\n  dup5\n  eq\n    /* \"#utility.yul\":2945:2982   */\n  or\n    /* \"#utility.yul\":2935:3006   */\n  tag_46\n  jumpi\n    /* \"#utility.yul\":2986:3004   */\n  tag_46\n  tag_25\n  jump\t// in\n    /* \"#utility.yul\":2844:3012   */\ntag_28:\n    /* \"oracle/UBI4ALLCustomOracle.sol\":326:11164  contract UBI4ALLCustomOracle is IUBI4ALLCustomOracle, Ownable, FunctionsClient {... */\n  mload(0x80)\n  codecopy(0x00, dataOffset(sub_0), dataSize(sub_0))\n  0x00\n  assignImmutable(\"0x8e8fab5f003314da8d1873ea7720e8d9f47650136d916064d1edb8a11d682624\")\n  return(0x00, dataSize(sub_0))\nstop\n\nsub_0: assembly {\n        /* \"oracle/UBI4ALLCustomOracle.sol\":326:11164  contract UBI4ALLCustomOracle is IUBI4ALLCustomOracle, Ownable, FunctionsClient {... */\n      mstore(0x40, 0x80)\n      callvalue\n      dup1\n      iszero\n      tag_1\n      jumpi\n      0x00\n      dup1\n      revert\n    tag_1:\n      pop\n      jumpi(tag_2, lt(calldatasize, 0x04))\n      shr(0xe0, calldataload(0x00))\n      dup1\n      0x93db5e37\n      gt\n      tag_27\n      jumpi\n      dup1\n      0xdede852f\n      gt\n      tag_28\n      jumpi\n      dup1\n      0xdede852f\n      eq\n      tag_21\n      jumpi\n      dup1\n      0xe7ec0533\n      eq\n      tag_22\n      jumpi\n      dup1\n      0xf2fde38b\n      eq\n      tag_23\n      jumpi\n      dup1\n      0xf55494f8\n      eq\n      tag_24\n      jumpi\n      dup1\n      0xf68016b7\n      eq\n      tag_25\n      jumpi\n      dup1\n      0xfe0438b2\n      eq\n      tag_26\n      jumpi\n      0x00\n      dup1\n      revert\n    tag_28:\n      dup1\n      0x93db5e37\n      eq\n      tag_15\n      jumpi\n      dup1\n      0x964ea12a\n      eq\n      tag_16\n      jumpi\n      dup1\n      0x9af6bca5\n      eq\n      tag_17\n      jumpi\n      dup1\n      0xb331799e\n      eq\n      tag_18\n      jumpi\n      dup1\n      0xbe152b61\n      eq\n      tag_16\n      jumpi\n      dup1\n      0xd98e7821\n      eq\n      tag_20\n      jumpi\n      0x00\n      dup1\n      revert\n    tag_27:\n      dup1\n      0x6e74336b\n      gt\n      tag_29\n      jumpi\n      dup1\n      0x6e74336b\n      eq\n      tag_9\n      jumpi\n      dup1\n      0x715018a6\n      eq\n      tag_10\n      jumpi\n      dup1\n      0x751bb598\n      eq\n      tag_11\n      jumpi\n      dup1\n      0x75a67d5c\n      eq\n      tag_12\n      jumpi\n      dup1\n      0x8213b4cf\n      eq\n      tag_13\n      jumpi\n      dup1\n      0x8da5cb5b\n      eq\n      tag_14\n      jumpi\n      0x00\n      dup1\n      revert\n    tag_29:\n      dup1\n      0x09c1ba2e\n      eq\n      tag_3\n      jumpi\n      dup1\n      0x0ca76175\n      eq\n      tag_4\n      jumpi\n      dup1\n      0x2795ad20\n      eq\n      tag_5\n      jumpi\n      dup1\n      0x2e0f2625\n      eq\n      tag_6\n      jumpi\n      dup1\n      0x53d2262b\n      eq\n      tag_7\n      jumpi\n      dup1\n      0x6949faeb\n      eq\n      tag_8\n      jumpi\n    tag_2:\n      0x00\n      dup1\n      revert\n        /* \"oracle/UBI4ALLCustomOracle.sol\":1674:1702  uint64 public subscriptionId */\n    tag_3:\n      sload(0x07)\n      tag_30\n      swap1\n      sub(shl(0x40, 0x01), 0x01)\n      and\n      dup2\n      jump\n    tag_30:\n      mload(0x40)\n      sub(shl(0x40, 0x01), 0x01)\n        /* \"#utility.yul\":176:207   */\n      swap1\n      swap2\n      and\n        /* \"#utility.yul\":158:208   */\n      dup2\n      mstore\n        /* \"#utility.yul\":146:148   */\n      0x20\n        /* \"#utility.yul\":131:149   */\n      add\n        /* \"oracle/UBI4ALLCustomOracle.sol\":1674:1702  uint64 public subscriptionId */\n    tag_32:\n      mload(0x40)\n      dup1\n      swap2\n      sub\n      swap1\n      return\n        /* \"@chainlink/contracts/src/v0.8/functions/v1_0_0/FunctionsClient.sol\":2078:2364  function handleOracleFulfillment(bytes32 requestId, bytes memory response, bytes memory err) external override {... */\n    tag_4:\n      tag_34\n      tag_35\n      calldatasize\n      0x04\n      tag_36\n      jump\t// in\n    tag_35:\n      tag_37\n      jump\t// in\n    tag_34:\n      stop\n        /* \"oracle/UBI4ALLCustomOracle.sol\":1193:1247  mapping(bytes32 => RequestData) public pendingRequests */\n    tag_5:\n      tag_38\n      tag_39\n      calldatasize\n      0x04\n      tag_40\n      jump\t// in\n    tag_39:\n      mstore(0x20, 0x05)\n      0x00\n      swap1\n      dup2\n      mstore\n      0x40\n      swap1\n      keccak256\n      dup1\n      sload\n      0x01\n      dup3\n      add\n      sload\n      0x02\n      swap1\n      swap3\n      add\n      sload\n      sub(shl(0xa0, 0x01), 0x01)\n      dup1\n      dup4\n      and\n      swap4\n      shl(0xa0, 0x01)\n      swap1\n      swap4\n      div\n      0xff\n      and\n      swap3\n      and\n      swap1\n      dup5\n      jump\n    tag_38:\n      mload(0x40)\n      tag_32\n      swap5\n      swap4\n      swap3\n      swap2\n      swap1\n      tag_43\n      jump\t// in\n        /* \"oracle/UBI4ALLCustomOracle.sol\":485:519  uint8 public constant DECIMALS = 8 */\n    tag_6:\n      tag_44\n        /* \"oracle/UBI4ALLCustomOracle.sol\":518:519  8 */\n      0x08\n        /* \"oracle/UBI4ALLCustomOracle.sol\":485:519  uint8 public constant DECIMALS = 8 */\n      dup2\n      jump\n    tag_44:\n      mload(0x40)\n        /* \"#utility.yul\":2996:3000   */\n      0xff\n        /* \"#utility.yul\":2984:3001   */\n      swap1\n      swap2\n      and\n        /* \"#utility.yul\":2966:3002   */\n      dup2\n      mstore\n        /* \"#utility.yul\":2954:2956   */\n      0x20\n        /* \"#utility.yul\":2939:2957   */\n      add\n        /* \"oracle/UBI4ALLCustomOracle.sol\":485:519  uint8 public constant DECIMALS = 8 */\n      tag_32\n        /* \"#utility.yul\":2824:3008   */\n      jump\n        /* \"oracle/UBI4ALLCustomOracle.sol\":7584:7751  function getCorrelationScore(address _user, uint256 _proposalId) external view override returns (uint256) {... */\n    tag_7:\n      tag_48\n      tag_49\n      calldatasize\n      0x04\n      tag_50\n      jump\t// in\n    tag_49:\n      tag_51\n      jump\t// in\n    tag_48:\n      mload(0x40)\n        /* \"#utility.yul\":3642:3667   */\n      swap1\n      dup2\n      mstore\n        /* \"#utility.yul\":3630:3632   */\n      0x20\n        /* \"#utility.yul\":3615:3633   */\n      add\n        /* \"oracle/UBI4ALLCustomOracle.sol\":7584:7751  function getCorrelationScore(address _user, uint256 _proposalId) external view override returns (uint256) {... */\n      tag_32\n        /* \"#utility.yul\":3496:3673   */\n      jump\n        /* \"oracle/UBI4ALLCustomOracle.sol\":1107:1137  uint256 public lastPriceUpdate */\n    tag_8:\n      tag_48\n      sload(0x04)\n      dup2\n      jump\n        /* \"oracle/UBI4ALLCustomOracle.sol\":1610:1630  bytes32 public donID */\n    tag_9:\n      tag_48\n      sload(0x06)\n      dup2\n      jump\n        /* \"@openzeppelin/contracts/access/Ownable.sol\":2293:2394  function renounceOwnership() public virtual onlyOwner {... */\n    tag_10:\n      tag_34\n      tag_62\n      jump\t// in\n        /* \"oracle/UBI4ALLCustomOracle.sol\":1033:1055  int256 public q4aPrice */\n    tag_11:\n      tag_48\n      sload(0x03)\n      dup2\n      jump\n        /* \"oracle/UBI4ALLCustomOracle.sol\":7400:7531  function getReputationScore(address _user) external view override returns (uint256) {... */\n    tag_12:\n      tag_48\n      tag_68\n      calldatasize\n      0x04\n      tag_69\n      jump\t// in\n    tag_68:\n      sub(shl(0xa0, 0x01), 0x01)\n        /* \"oracle/UBI4ALLCustomOracle.sol\":7501:7524  reputationScores[_user] */\n      and\n        /* \"oracle/UBI4ALLCustomOracle.sol\":7475:7482  uint256 */\n      0x00\n        /* \"oracle/UBI4ALLCustomOracle.sol\":7501:7524  reputationScores[_user] */\n      swap1\n      dup2\n      mstore\n        /* \"oracle/UBI4ALLCustomOracle.sol\":7501:7517  reputationScores */\n      0x01\n        /* \"oracle/UBI4ALLCustomOracle.sol\":7501:7524  reputationScores[_user] */\n      0x20\n      mstore\n      0x40\n      swap1\n      keccak256\n      sload\n      swap1\n        /* \"oracle/UBI4ALLCustomOracle.sol\":7400:7531  function getReputationScore(address _user) external view override returns (uint256) {... */\n      jump\n        /* \"oracle/UBI4ALLCustomOracle.sol\":4028:4711  function requestCorrelationScore(address _user, uint256 _proposalId) external onlyOwner returns (bytes32 requestId) {... */\n    tag_13:\n      tag_48\n      tag_73\n      calldatasize\n      0x04\n      tag_50\n      jump\t// in\n    tag_73:\n      tag_74\n      jump\t// in\n        /* \"@openzeppelin/contracts/access/Ownable.sol\":1638:1723  function owner() public view virtual returns (address) {... */\n    tag_14:\n        /* \"@openzeppelin/contracts/access/Ownable.sol\":1684:1691  address */\n      0x00\n        /* \"@openzeppelin/contracts/access/Ownable.sol\":1710:1716  _owner */\n      sload\n        /* \"@openzeppelin/contracts/access/Ownable.sol\":1638:1723  function owner() public view virtual returns (address) {... */\n      mload(0x40)\n      sub(shl(0xa0, 0x01), 0x01)\n        /* \"@openzeppelin/contracts/access/Ownable.sol\":1710:1716  _owner */\n      swap1\n      swap2\n      and\n        /* \"#utility.yul\":4377:4428   */\n      dup2\n      mstore\n        /* \"#utility.yul\":4365:4367   */\n      0x20\n        /* \"#utility.yul\":4350:4368   */\n      add\n        /* \"@openzeppelin/contracts/access/Ownable.sol\":1638:1723  function owner() public view virtual returns (address) {... */\n      tag_32\n        /* \"#utility.yul\":4231:4434   */\n      jump\n        /* \"oracle/UBI4ALLCustomOracle.sol\":6373:6696  function updateManualReputationScore(address _user, uint256 _score) external onlyOwner {... */\n    tag_15:\n      tag_34\n      tag_81\n      calldatasize\n      0x04\n      tag_50\n      jump\t// in\n    tag_81:\n      tag_82\n      jump\t// in\n        /* \"oracle/UBI4ALLCustomOracle.sol\":682:729  uint256 public constant CORRELATION_SCALE = 100 */\n    tag_16:\n      tag_48\n        /* \"oracle/UBI4ALLCustomOracle.sol\":726:729  100 */\n      0x64\n        /* \"oracle/UBI4ALLCustomOracle.sol\":682:729  uint256 public constant CORRELATION_SCALE = 100 */\n      dup2\n      jump\n        /* \"oracle/UBI4ALLCustomOracle.sol\":7253:7348  function getQ4APrice() external view override returns (int256) {... */\n    tag_17:\n        /* \"oracle/UBI4ALLCustomOracle.sol\":7333:7341  q4aPrice */\n      sload(0x03)\n        /* \"oracle/UBI4ALLCustomOracle.sol\":7253:7348  function getQ4APrice() external view override returns (int256) {... */\n      jump(tag_48)\n        /* \"oracle/UBI4ALLCustomOracle.sol\":2825:3302  function requestQ4APrice() external onlyOwner returns (bytes32 requestId) {... */\n    tag_18:\n      tag_48\n      tag_90\n      jump\t// in\n        /* \"oracle/UBI4ALLCustomOracle.sol\":6783:7215  function updateManualCorrelationScore(address _user, uint256 _proposalId, uint256 _score) external onlyOwner {... */\n    tag_20:\n      tag_34\n      tag_96\n      calldatasize\n      0x04\n      tag_97\n      jump\t// in\n    tag_96:\n      tag_98\n      jump\t// in\n        /* \"oracle/UBI4ALLCustomOracle.sol\":3368:3946  function requestReputationScore(address _user) external onlyOwner returns (bytes32 requestId) {... */\n    tag_21:\n      tag_48\n      tag_100\n      calldatasize\n      0x04\n      tag_69\n      jump\t// in\n    tag_100:\n      tag_101\n      jump\t// in\n        /* \"oracle/UBI4ALLCustomOracle.sol\":905:977  mapping(address => mapping(uint256 => uint256)) public correlationScores */\n    tag_22:\n      tag_48\n      tag_104\n      calldatasize\n      0x04\n      tag_50\n      jump\t// in\n    tag_104:\n      0x02\n      0x20\n      swap1\n      dup2\n      mstore\n      0x00\n      swap3\n      dup4\n      mstore\n      0x40\n      dup1\n      dup5\n      keccak256\n      swap1\n      swap2\n      mstore\n      swap1\n      dup3\n      mstore\n      swap1\n      keccak256\n      sload\n      dup2\n      jump\n        /* \"@openzeppelin/contracts/access/Ownable.sol\":2543:2758  function transferOwnership(address newOwner) public virtual onlyOwner {... */\n    tag_23:\n      tag_34\n      tag_108\n      calldatasize\n      0x04\n      tag_69\n      jump\t// in\n    tag_108:\n      tag_109\n      jump\t// in\n        /* \"oracle/UBI4ALLCustomOracle.sol\":6045:6287  function updateManualQ4APrice(int256 _price) external onlyOwner {... */\n    tag_24:\n      tag_34\n      tag_111\n      calldatasize\n      0x04\n      tag_40\n      jump\t// in\n    tag_111:\n      tag_113\n      jump\t// in\n        /* \"oracle/UBI4ALLCustomOracle.sol\":1755:1786  uint32 public gasLimit = 300000 */\n    tag_25:\n      sload(0x07)\n      tag_114\n      swap1\n      shl(0x40, 0x01)\n      swap1\n      div\n      0xffffffff\n      and\n      dup2\n      jump\n    tag_114:\n      mload(0x40)\n        /* \"#utility.yul\":5222:5232   */\n      0xffffffff\n        /* \"#utility.yul\":5210:5233   */\n      swap1\n      swap2\n      and\n        /* \"#utility.yul\":5192:5234   */\n      dup2\n      mstore\n        /* \"#utility.yul\":5180:5182   */\n      0x20\n        /* \"#utility.yul\":5165:5183   */\n      add\n        /* \"oracle/UBI4ALLCustomOracle.sol\":1755:1786  uint32 public gasLimit = 300000 */\n      tag_32\n        /* \"#utility.yul\":5048:5240   */\n      jump\n        /* \"oracle/UBI4ALLCustomOracle.sol\":810:861  mapping(address => uint256) public reputationScores */\n    tag_26:\n      tag_48\n      tag_119\n      calldatasize\n      0x04\n      tag_69\n      jump\t// in\n    tag_119:\n      mstore(0x20, 0x01)\n      0x00\n      swap1\n      dup2\n      mstore\n      0x40\n      swap1\n      keccak256\n      sload\n      dup2\n      jump\n        /* \"@chainlink/contracts/src/v0.8/functions/v1_0_0/FunctionsClient.sol\":2078:2364  function handleOracleFulfillment(bytes32 requestId, bytes memory response, bytes memory err) external override {... */\n    tag_37:\n        /* \"@chainlink/contracts/src/v0.8/functions/v1_0_0/FunctionsClient.sol\":2199:2209  msg.sender */\n      caller\n      sub(shl(0xa0, 0x01), 0x01)\n        /* \"@chainlink/contracts/src/v0.8/functions/v1_0_0/FunctionsClient.sol\":2221:2229  i_router */\n      immutable(\"0x8e8fab5f003314da8d1873ea7720e8d9f47650136d916064d1edb8a11d682624\")\n        /* \"@chainlink/contracts/src/v0.8/functions/v1_0_0/FunctionsClient.sol\":2199:2230  msg.sender != address(i_router) */\n      and\n      eq\n        /* \"@chainlink/contracts/src/v0.8/functions/v1_0_0/FunctionsClient.sol\":2195:2276  if (msg.sender != address(i_router)) {... */\n      tag_123\n      jumpi\n        /* \"@chainlink/contracts/src/v0.8/functions/v1_0_0/FunctionsClient.sol\":2247:2269  OnlyRouterCanFulfill() */\n      mload(0x40)\n      shl(0xe0, 0xc6829f83)\n      dup2\n      mstore\n      0x04\n      add\n      mload(0x40)\n      dup1\n      swap2\n      sub\n      swap1\n      revert\n        /* \"@chainlink/contracts/src/v0.8/functions/v1_0_0/FunctionsClient.sol\":2195:2276  if (msg.sender != address(i_router)) {... */\n    tag_123:\n        /* \"@chainlink/contracts/src/v0.8/functions/v1_0_0/FunctionsClient.sol\":2281:2321  fulfillRequest(requestId, response, err) */\n      tag_124\n        /* \"@chainlink/contracts/src/v0.8/functions/v1_0_0/FunctionsClient.sol\":2296:2305  requestId */\n      dup4\n        /* \"@chainlink/contracts/src/v0.8/functions/v1_0_0/FunctionsClient.sol\":2307:2315  response */\n      dup4\n        /* \"@chainlink/contracts/src/v0.8/functions/v1_0_0/FunctionsClient.sol\":2317:2320  err */\n      dup4\n        /* \"@chainlink/contracts/src/v0.8/functions/v1_0_0/FunctionsClient.sol\":2281:2295  fulfillRequest */\n      tag_125\n        /* \"@chainlink/contracts/src/v0.8/functions/v1_0_0/FunctionsClient.sol\":2281:2321  fulfillRequest(requestId, response, err) */\n      jump\t// in\n    tag_124:\n        /* \"@chainlink/contracts/src/v0.8/functions/v1_0_0/FunctionsClient.sol\":2332:2359  RequestFulfilled(requestId) */\n      mload(0x40)\n        /* \"@chainlink/contracts/src/v0.8/functions/v1_0_0/FunctionsClient.sol\":2349:2358  requestId */\n      dup4\n      swap1\n        /* \"@chainlink/contracts/src/v0.8/functions/v1_0_0/FunctionsClient.sol\":2332:2359  RequestFulfilled(requestId) */\n      0x85e1543bf2f84fe80c6badbce3648c8539ad1df4d2b3d822938ca0538be727e6\n      swap1\n      0x00\n      swap1\n      log2\n        /* \"@chainlink/contracts/src/v0.8/functions/v1_0_0/FunctionsClient.sol\":2078:2364  function handleOracleFulfillment(bytes32 requestId, bytes memory response, bytes memory err) external override {... */\n      pop\n      pop\n      pop\n      jump\t// out\n        /* \"oracle/UBI4ALLCustomOracle.sol\":7584:7751  function getCorrelationScore(address _user, uint256 _proposalId) external view override returns (uint256) {... */\n    tag_51:\n      sub(shl(0xa0, 0x01), 0x01)\n        /* \"oracle/UBI4ALLCustomOracle.sol\":7707:7731  correlationScores[_user] */\n      dup3\n      and\n        /* \"oracle/UBI4ALLCustomOracle.sol\":7681:7688  uint256 */\n      0x00\n        /* \"oracle/UBI4ALLCustomOracle.sol\":7707:7731  correlationScores[_user] */\n      swap1\n      dup2\n      mstore\n        /* \"oracle/UBI4ALLCustomOracle.sol\":7707:7724  correlationScores */\n      0x02\n        /* \"oracle/UBI4ALLCustomOracle.sol\":7707:7731  correlationScores[_user] */\n      0x20\n      swap1\n      dup2\n      mstore\n      0x40\n      dup1\n      dup4\n      keccak256\n        /* \"oracle/UBI4ALLCustomOracle.sol\":7707:7744  correlationScores[_user][_proposalId] */\n      dup5\n      dup5\n      mstore\n      swap1\n      swap2\n      mstore\n      swap1\n      keccak256\n      sload\n        /* \"oracle/UBI4ALLCustomOracle.sol\":7584:7751  function getCorrelationScore(address _user, uint256 _proposalId) external view override returns (uint256) {... */\n    tag_126:\n      swap3\n      swap2\n      pop\n      pop\n      jump\t// out\n        /* \"@openzeppelin/contracts/access/Ownable.sol\":2293:2394  function renounceOwnership() public virtual onlyOwner {... */\n    tag_62:\n        /* \"@openzeppelin/contracts/access/Ownable.sol\":1531:1544  _checkOwner() */\n      tag_128\n        /* \"@openzeppelin/contracts/access/Ownable.sol\":1531:1542  _checkOwner */\n      tag_129\n        /* \"@openzeppelin/contracts/access/Ownable.sol\":1531:1544  _checkOwner() */\n      jump\t// in\n    tag_128:\n        /* \"@openzeppelin/contracts/access/Ownable.sol\":2357:2387  _transferOwnership(address(0)) */\n      tag_131\n        /* \"@openzeppelin/contracts/access/Ownable.sol\":2384:2385  0 */\n      0x00\n        /* \"@openzeppelin/contracts/access/Ownable.sol\":2357:2375  _transferOwnership */\n      tag_132\n        /* \"@openzeppelin/contracts/access/Ownable.sol\":2357:2387  _transferOwnership(address(0)) */\n      jump\t// in\n    tag_131:\n        /* \"@openzeppelin/contracts/access/Ownable.sol\":2293:2394  function renounceOwnership() public virtual onlyOwner {... */\n      jump\t// out\n        /* \"oracle/UBI4ALLCustomOracle.sol\":4028:4711  function requestCorrelationScore(address _user, uint256 _proposalId) external onlyOwner returns (bytes32 requestId) {... */\n    tag_74:\n        /* \"oracle/UBI4ALLCustomOracle.sol\":4125:4142  bytes32 requestId */\n      0x00\n        /* \"@openzeppelin/contracts/access/Ownable.sol\":1531:1544  _checkOwner() */\n      tag_135\n        /* \"@openzeppelin/contracts/access/Ownable.sol\":1531:1542  _checkOwner */\n      tag_129\n        /* \"@openzeppelin/contracts/access/Ownable.sol\":1531:1544  _checkOwner() */\n      jump\t// in\n    tag_135:\n      sub(shl(0xa0, 0x01), 0x01)\n        /* \"oracle/UBI4ALLCustomOracle.sol\":4162:4181  _user != address(0) */\n      dup4\n      and\n        /* \"oracle/UBI4ALLCustomOracle.sol\":4154:4206  require(_user != address(0), \"Invalid user address\") */\n      tag_137\n      jumpi\n      mload(0x40)\n      shl(0xe5, 0x461bcd)\n      dup2\n      mstore\n      0x04\n      add\n      tag_138\n      swap1\n      tag_139\n      jump\t// in\n    tag_138:\n      mload(0x40)\n      dup1\n      swap2\n      sub\n      swap1\n      revert\n    tag_137:\n        /* \"oracle/UBI4ALLCustomOracle.sol\":4238:4239  0 */\n      0x00\n        /* \"oracle/UBI4ALLCustomOracle.sol\":4224:4235  _proposalId */\n      dup3\n        /* \"oracle/UBI4ALLCustomOracle.sol\":4224:4239  _proposalId > 0 */\n      gt\n        /* \"oracle/UBI4ALLCustomOracle.sol\":4216:4263  require(_proposalId > 0, \"Invalid proposal ID\") */\n      tag_140\n      jumpi\n      mload(0x40)\n      shl(0xe5, 0x461bcd)\n      dup2\n      mstore\n        /* \"#utility.yul\":5796:5798   */\n      0x20\n        /* \"oracle/UBI4ALLCustomOracle.sol\":4216:4263  require(_proposalId > 0, \"Invalid proposal ID\") */\n      0x04\n      dup3\n      add\n        /* \"#utility.yul\":5778:5799   */\n      mstore\n        /* \"#utility.yul\":5835:5837   */\n      0x13\n        /* \"#utility.yul\":5815:5833   */\n      0x24\n      dup3\n      add\n        /* \"#utility.yul\":5808:5838   */\n      mstore\n      shl(0x6a, 0x125b9d985b1a59081c1c9bdc1bdcd85b081251)\n        /* \"#utility.yul\":5854:5872   */\n      0x44\n      dup3\n      add\n        /* \"#utility.yul\":5847:5896   */\n      mstore\n        /* \"#utility.yul\":5913:5931   */\n      0x64\n      add\n        /* \"oracle/UBI4ALLCustomOracle.sol\":4216:4263  require(_proposalId > 0, \"Invalid proposal ID\") */\n      tag_138\n        /* \"#utility.yul\":5594:5937   */\n      jump\n        /* \"oracle/UBI4ALLCustomOracle.sol\":4216:4263  require(_proposalId > 0, \"Invalid proposal ID\") */\n    tag_140:\n        /* \"oracle/UBI4ALLCustomOracle.sol\":4273:4308  FunctionsRequest.Request memory req */\n      tag_143\n      tag_144\n      jump\t// in\n    tag_143:\n        /* \"oracle/UBI4ALLCustomOracle.sol\":4318:4400  req.initializeRequestForInlineJavaScript(getCorrelationScript(_user, _proposalId)) */\n      tag_145\n        /* \"oracle/UBI4ALLCustomOracle.sol\":4359:4399  getCorrelationScript(_user, _proposalId) */\n      tag_146\n        /* \"oracle/UBI4ALLCustomOracle.sol\":4380:4385  _user */\n      dup6\n        /* \"oracle/UBI4ALLCustomOracle.sol\":4387:4398  _proposalId */\n      dup6\n        /* \"oracle/UBI4ALLCustomOracle.sol\":4359:4379  getCorrelationScript */\n      tag_147\n        /* \"oracle/UBI4ALLCustomOracle.sol\":4359:4399  getCorrelationScript(_user, _proposalId) */\n      jump\t// in\n    tag_146:\n        /* \"oracle/UBI4ALLCustomOracle.sol\":4318:4321  req */\n      dup3\n      swap1\n        /* \"oracle/UBI4ALLCustomOracle.sol\":4318:4358  req.initializeRequestForInlineJavaScript */\n      tag_148\n        /* \"oracle/UBI4ALLCustomOracle.sol\":4318:4400  req.initializeRequestForInlineJavaScript(getCorrelationScript(_user, _proposalId)) */\n      jump\t// in\n    tag_145:\n        /* \"oracle/UBI4ALLCustomOracle.sol\":4422:4485  _sendRequest(req.encodeCBOR(), subscriptionId, gasLimit, donID) */\n      tag_149\n        /* \"oracle/UBI4ALLCustomOracle.sol\":4435:4451  req.encodeCBOR() */\n      tag_150\n        /* \"oracle/UBI4ALLCustomOracle.sol\":4435:4438  req */\n      dup3\n        /* \"oracle/UBI4ALLCustomOracle.sol\":4435:4449  req.encodeCBOR */\n      tag_151\n        /* \"oracle/UBI4ALLCustomOracle.sol\":4435:4451  req.encodeCBOR() */\n      jump\t// in\n    tag_150:\n        /* \"oracle/UBI4ALLCustomOracle.sol\":4453:4467  subscriptionId */\n      sload(0x07)\n        /* \"oracle/UBI4ALLCustomOracle.sol\":4479:4484  donID */\n      sload(0x06)\n      sub(shl(0x40, 0x01), 0x01)\n        /* \"oracle/UBI4ALLCustomOracle.sol\":4453:4467  subscriptionId */\n      dup3\n      and\n      swap2\n      shl(0x40, 0x01)\n        /* \"oracle/UBI4ALLCustomOracle.sol\":4469:4477  gasLimit */\n      swap1\n      div\n      0xffffffff\n      and\n      swap1\n        /* \"oracle/UBI4ALLCustomOracle.sol\":4422:4434  _sendRequest */\n      tag_152\n        /* \"oracle/UBI4ALLCustomOracle.sol\":4422:4485  _sendRequest(req.encodeCBOR(), subscriptionId, gasLimit, donID) */\n      jump\t// in\n    tag_149:\n        /* \"oracle/UBI4ALLCustomOracle.sol\":4524:4597  RequestData(msg.sender, RequestType.CorrelationScore, _user, _proposalId) */\n      0x40\n      dup1\n      mload\n      0x80\n      dup2\n      add\n      swap1\n      swap2\n      mstore\n        /* \"oracle/UBI4ALLCustomOracle.sol\":4536:4546  msg.sender */\n      caller\n        /* \"oracle/UBI4ALLCustomOracle.sol\":4524:4597  RequestData(msg.sender, RequestType.CorrelationScore, _user, _proposalId) */\n      dup2\n      mstore\n        /* \"oracle/UBI4ALLCustomOracle.sol\":4410:4485  requestId = _sendRequest(req.encodeCBOR(), subscriptionId, gasLimit, donID) */\n      swap1\n      swap3\n      pop\n        /* \"oracle/UBI4ALLCustomOracle.sol\":4524:4597  RequestData(msg.sender, RequestType.CorrelationScore, _user, _proposalId) */\n      0x20\n      dup2\n      add\n        /* \"oracle/UBI4ALLCustomOracle.sol\":4548:4576  RequestType.CorrelationScore */\n      0x02\n        /* \"oracle/UBI4ALLCustomOracle.sol\":4524:4597  RequestData(msg.sender, RequestType.CorrelationScore, _user, _proposalId) */\n      dup2\n      mstore\n      sub(shl(0xa0, 0x01), 0x01)\n      dup1\n      dup8\n      and\n      0x20\n      dup1\n      dup5\n      add\n      swap2\n      swap1\n      swap2\n      mstore\n      0x40\n      swap3\n      dup4\n      add\n      dup8\n      swap1\n      mstore\n      0x00\n        /* \"oracle/UBI4ALLCustomOracle.sol\":4495:4521  pendingRequests[requestId] */\n      dup7\n      dup2\n      mstore\n        /* \"oracle/UBI4ALLCustomOracle.sol\":4495:4510  pendingRequests */\n      0x05\n        /* \"oracle/UBI4ALLCustomOracle.sol\":4495:4521  pendingRequests[requestId] */\n      dup3\n      mstore\n      swap3\n      swap1\n      swap3\n      keccak256\n        /* \"oracle/UBI4ALLCustomOracle.sol\":4495:4597  pendingRequests[requestId] = RequestData(msg.sender, RequestType.CorrelationScore, _user, _proposalId) */\n      dup4\n      mload\n      dup2\n      sload\n      swap3\n      and\n      not(sub(shl(0xa0, 0x01), 0x01))\n      dup4\n      and\n      dup2\n      or\n      dup3\n      sstore\n      swap3\n      dup5\n      add\n      mload\n        /* \"oracle/UBI4ALLCustomOracle.sol\":4495:4521  pendingRequests[requestId] */\n      swap1\n      swap3\n        /* \"oracle/UBI4ALLCustomOracle.sol\":4495:4597  pendingRequests[requestId] = RequestData(msg.sender, RequestType.CorrelationScore, _user, _proposalId) */\n      swap1\n      swap2\n        /* \"oracle/UBI4ALLCustomOracle.sol\":4495:4521  pendingRequests[requestId] */\n      dup4\n      swap2\n      not(sub(shl(0xa8, 0x01), 0x01))\n        /* \"oracle/UBI4ALLCustomOracle.sol\":4495:4597  pendingRequests[requestId] = RequestData(msg.sender, RequestType.CorrelationScore, _user, _proposalId) */\n      swap1\n      swap2\n      and\n      or\n      shl(0xa0, 0x01)\n      dup4\n      0x02\n      dup2\n      gt\n      iszero\n      tag_157\n      jumpi\n      tag_157\n      tag_155\n      jump\t// in\n    tag_157:\n      mul\n      or\n      swap1\n      sstore\n      pop\n      0x40\n      dup3\n      dup2\n      add\n      mload\n      0x01\n      dup4\n      add\n      dup1\n      sload\n      not(sub(shl(0xa0, 0x01), 0x01))\n      and\n      sub(shl(0xa0, 0x01), 0x01)\n      swap1\n      swap3\n      and\n      swap2\n      swap1\n      swap2\n      or\n      swap1\n      sstore\n      0x60\n      swap1\n      swap3\n      add\n      mload\n      0x02\n      swap2\n      dup3\n      add\n      sstore\n        /* \"oracle/UBI4ALLCustomOracle.sol\":4612:4678  OracleRequest(requestId, msg.sender, RequestType.CorrelationScore) */\n      swap1\n      mload\n        /* \"oracle/UBI4ALLCustomOracle.sol\":4637:4647  msg.sender */\n      caller\n      swap2\n        /* \"oracle/UBI4ALLCustomOracle.sol\":4626:4635  requestId */\n      dup5\n      swap2\n        /* \"oracle/UBI4ALLCustomOracle.sol\":4612:4678  OracleRequest(requestId, msg.sender, RequestType.CorrelationScore) */\n      0xe0cbca9c6411f8084bc50b0eedbc1c05f0a53cdcfdc0fd487cda1a66ec73e8d4\n      swap2\n      tag_158\n      swap2\n      tag_159\n      jump\t// in\n    tag_158:\n      mload(0x40)\n      dup1\n      swap2\n      sub\n      swap1\n      log3\n        /* \"oracle/UBI4ALLCustomOracle.sol\":4688:4704  return requestId */\n      pop\n        /* \"oracle/UBI4ALLCustomOracle.sol\":4028:4711  function requestCorrelationScore(address _user, uint256 _proposalId) external onlyOwner returns (bytes32 requestId) {... */\n      swap3\n      swap2\n      pop\n      pop\n      jump\t// out\n        /* \"oracle/UBI4ALLCustomOracle.sol\":6373:6696  function updateManualReputationScore(address _user, uint256 _score) external onlyOwner {... */\n    tag_82:\n        /* \"@openzeppelin/contracts/access/Ownable.sol\":1531:1544  _checkOwner() */\n      tag_162\n        /* \"@openzeppelin/contracts/access/Ownable.sol\":1531:1542  _checkOwner */\n      tag_129\n        /* \"@openzeppelin/contracts/access/Ownable.sol\":1531:1544  _checkOwner() */\n      jump\t// in\n    tag_162:\n      sub(shl(0xa0, 0x01), 0x01)\n        /* \"oracle/UBI4ALLCustomOracle.sol\":6478:6497  _user != address(0) */\n      dup3\n      and\n        /* \"oracle/UBI4ALLCustomOracle.sol\":6470:6522  require(_user != address(0), \"Invalid user address\") */\n      tag_164\n      jumpi\n      mload(0x40)\n      shl(0xe5, 0x461bcd)\n      dup2\n      mstore\n      0x04\n      add\n      tag_138\n      swap1\n      tag_139\n      jump\t// in\n    tag_164:\n        /* \"oracle/UBI4ALLCustomOracle.sol\":626:629  100 */\n      0x64\n        /* \"oracle/UBI4ALLCustomOracle.sol\":6540:6546  _score */\n      dup2\n        /* \"oracle/UBI4ALLCustomOracle.sol\":6540:6566  _score <= REPUTATION_SCALE */\n      gt\n      iszero\n        /* \"oracle/UBI4ALLCustomOracle.sol\":6532:6595  require(_score <= REPUTATION_SCALE, \"Invalid reputation score\") */\n      tag_166\n      jumpi\n      mload(0x40)\n      shl(0xe5, 0x461bcd)\n      dup2\n      mstore\n        /* \"#utility.yul\":6361:6363   */\n      0x20\n        /* \"oracle/UBI4ALLCustomOracle.sol\":6532:6595  require(_score <= REPUTATION_SCALE, \"Invalid reputation score\") */\n      0x04\n      dup3\n      add\n        /* \"#utility.yul\":6343:6364   */\n      mstore\n        /* \"#utility.yul\":6400:6402   */\n      0x18\n        /* \"#utility.yul\":6380:6398   */\n      0x24\n      dup3\n      add\n        /* \"#utility.yul\":6373:6403   */\n      mstore\n        /* \"#utility.yul\":6439:6465   */\n      0x496e76616c69642072657075746174696f6e2073636f72650000000000000000\n        /* \"#utility.yul\":6419:6437   */\n      0x44\n      dup3\n      add\n        /* \"#utility.yul\":6412:6466   */\n      mstore\n        /* \"#utility.yul\":6483:6501   */\n      0x64\n      add\n        /* \"oracle/UBI4ALLCustomOracle.sol\":6532:6595  require(_score <= REPUTATION_SCALE, \"Invalid reputation score\") */\n      tag_138\n        /* \"#utility.yul\":6159:6507   */\n      jump\n        /* \"oracle/UBI4ALLCustomOracle.sol\":6532:6595  require(_score <= REPUTATION_SCALE, \"Invalid reputation score\") */\n    tag_166:\n      sub(shl(0xa0, 0x01), 0x01)\n        /* \"oracle/UBI4ALLCustomOracle.sol\":6605:6628  reputationScores[_user] */\n      dup3\n      and\n      0x00\n      dup2\n      dup2\n      mstore\n        /* \"oracle/UBI4ALLCustomOracle.sol\":6605:6621  reputationScores */\n      0x01\n        /* \"oracle/UBI4ALLCustomOracle.sol\":6605:6628  reputationScores[_user] */\n      0x20\n      mstore\n      0x40\n      swap1\n      dup2\n      swap1\n      keccak256\n        /* \"oracle/UBI4ALLCustomOracle.sol\":6605:6637  reputationScores[_user] = _score */\n      dup4\n      swap1\n      sstore\n        /* \"oracle/UBI4ALLCustomOracle.sol\":6652:6689  ReputationScoreUpdated(_user, _score) */\n      mload\n      0xe00f1b5d37e934593fb70fcb5fd4703e66f533b6f2560437ec119178a815812d\n      swap1\n      tag_169\n      swap1\n        /* \"oracle/UBI4ALLCustomOracle.sol\":6631:6637  _score */\n      dup5\n        /* \"#utility.yul\":3642:3667   */\n      dup2\n      mstore\n        /* \"#utility.yul\":3630:3632   */\n      0x20\n        /* \"#utility.yul\":3615:3633   */\n      add\n      swap1\n        /* \"#utility.yul\":3496:3673   */\n      jump\n        /* \"oracle/UBI4ALLCustomOracle.sol\":6652:6689  ReputationScoreUpdated(_user, _score) */\n    tag_169:\n      mload(0x40)\n      dup1\n      swap2\n      sub\n      swap1\n      log2\n        /* \"oracle/UBI4ALLCustomOracle.sol\":6373:6696  function updateManualReputationScore(address _user, uint256 _score) external onlyOwner {... */\n      pop\n      pop\n      jump\t// out\n        /* \"oracle/UBI4ALLCustomOracle.sol\":2825:3302  function requestQ4APrice() external onlyOwner returns (bytes32 requestId) {... */\n    tag_90:\n        /* \"oracle/UBI4ALLCustomOracle.sol\":2880:2897  bytes32 requestId */\n      0x00\n        /* \"@openzeppelin/contracts/access/Ownable.sol\":1531:1544  _checkOwner() */\n      tag_172\n        /* \"@openzeppelin/contracts/access/Ownable.sol\":1531:1542  _checkOwner */\n      tag_129\n        /* \"@openzeppelin/contracts/access/Ownable.sol\":1531:1544  _checkOwner() */\n      jump\t// in\n    tag_172:\n        /* \"oracle/UBI4ALLCustomOracle.sol\":2909:2944  FunctionsRequest.Request memory req */\n      tag_174\n      tag_144\n      jump\t// in\n    tag_174:\n        /* \"oracle/UBI4ALLCustomOracle.sol\":2954:3012  req.initializeRequestForInlineJavaScript(getPriceScript()) */\n      tag_175\n        /* \"oracle/UBI4ALLCustomOracle.sol\":2995:3011  getPriceScript() */\n      tag_146\n        /* \"oracle/UBI4ALLCustomOracle.sol\":2995:3009  getPriceScript */\n      tag_177\n        /* \"oracle/UBI4ALLCustomOracle.sol\":2995:3011  getPriceScript() */\n      jump\t// in\n        /* \"oracle/UBI4ALLCustomOracle.sol\":2954:3012  req.initializeRequestForInlineJavaScript(getPriceScript()) */\n    tag_175:\n        /* \"oracle/UBI4ALLCustomOracle.sol\":3034:3097  _sendRequest(req.encodeCBOR(), subscriptionId, gasLimit, donID) */\n      tag_178\n        /* \"oracle/UBI4ALLCustomOracle.sol\":3047:3063  req.encodeCBOR() */\n      tag_150\n        /* \"oracle/UBI4ALLCustomOracle.sol\":3047:3050  req */\n      dup3\n        /* \"oracle/UBI4ALLCustomOracle.sol\":3047:3061  req.encodeCBOR */\n      tag_151\n        /* \"oracle/UBI4ALLCustomOracle.sol\":3047:3063  req.encodeCBOR() */\n      jump\t// in\n        /* \"oracle/UBI4ALLCustomOracle.sol\":3034:3097  _sendRequest(req.encodeCBOR(), subscriptionId, gasLimit, donID) */\n    tag_178:\n        /* \"oracle/UBI4ALLCustomOracle.sol\":3136:3196  RequestData(msg.sender, RequestType.Q4APrice, address(0), 0) */\n      0x40\n      dup1\n      mload\n      0x80\n      dup2\n      add\n      swap1\n      swap2\n      mstore\n        /* \"oracle/UBI4ALLCustomOracle.sol\":3148:3158  msg.sender */\n      caller\n        /* \"oracle/UBI4ALLCustomOracle.sol\":3136:3196  RequestData(msg.sender, RequestType.Q4APrice, address(0), 0) */\n      dup2\n      mstore\n        /* \"oracle/UBI4ALLCustomOracle.sol\":3022:3097  requestId = _sendRequest(req.encodeCBOR(), subscriptionId, gasLimit, donID) */\n      swap1\n      swap3\n      pop\n        /* \"oracle/UBI4ALLCustomOracle.sol\":3136:3196  RequestData(msg.sender, RequestType.Q4APrice, address(0), 0) */\n      0x20\n      dup2\n      add\n      0x00\n      dup2\n      mstore\n        /* \"oracle/UBI4ALLCustomOracle.sol\":3190:3191  0 */\n      0x00\n        /* \"oracle/UBI4ALLCustomOracle.sol\":3136:3196  RequestData(msg.sender, RequestType.Q4APrice, address(0), 0) */\n      0x20\n      dup1\n      dup4\n      add\n      dup3\n      swap1\n      mstore\n      0x40\n      swap3\n      dup4\n      add\n      dup3\n      swap1\n      mstore\n        /* \"oracle/UBI4ALLCustomOracle.sol\":3107:3133  pendingRequests[requestId] */\n      dup6\n      dup3\n      mstore\n        /* \"oracle/UBI4ALLCustomOracle.sol\":3107:3122  pendingRequests */\n      0x05\n        /* \"oracle/UBI4ALLCustomOracle.sol\":3107:3133  pendingRequests[requestId] */\n      dup2\n      mstore\n      swap2\n      swap1\n      keccak256\n        /* \"oracle/UBI4ALLCustomOracle.sol\":3107:3196  pendingRequests[requestId] = RequestData(msg.sender, RequestType.Q4APrice, address(0), 0) */\n      dup3\n      mload\n      dup2\n      sload\n      sub(shl(0xa0, 0x01), 0x01)\n      swap2\n      swap1\n      swap2\n      and\n      not(sub(shl(0xa0, 0x01), 0x01))\n      dup3\n      and\n      dup2\n      or\n      dup4\n      sstore\n      swap3\n      dup5\n      add\n      mload\n        /* \"oracle/UBI4ALLCustomOracle.sol\":3107:3133  pendingRequests[requestId] */\n      swap2\n      swap3\n      dup4\n      swap2\n      not(sub(shl(0xa8, 0x01), 0x01))\n        /* \"oracle/UBI4ALLCustomOracle.sol\":3107:3196  pendingRequests[requestId] = RequestData(msg.sender, RequestType.Q4APrice, address(0), 0) */\n      and\n      or\n      shl(0xa0, 0x01)\n      dup4\n      0x02\n      dup2\n      gt\n      iszero\n      tag_183\n      jumpi\n      tag_183\n      tag_155\n      jump\t// in\n    tag_183:\n      mul\n      or\n      swap1\n      sstore\n      pop\n      0x40\n      dup3\n      dup2\n      add\n      mload\n      0x01\n      dup4\n      add\n      dup1\n      sload\n      not(sub(shl(0xa0, 0x01), 0x01))\n      and\n      sub(shl(0xa0, 0x01), 0x01)\n      swap1\n      swap3\n      and\n      swap2\n      swap1\n      swap2\n      or\n      swap1\n      sstore\n      0x60\n      swap1\n      swap3\n      add\n      mload\n      0x02\n      swap1\n      swap2\n      add\n      sstore\n        /* \"oracle/UBI4ALLCustomOracle.sol\":3211:3269  OracleRequest(requestId, msg.sender, RequestType.Q4APrice) */\n      mload\n        /* \"oracle/UBI4ALLCustomOracle.sol\":3236:3246  msg.sender */\n      caller\n      swap1\n        /* \"oracle/UBI4ALLCustomOracle.sol\":3225:3234  requestId */\n      dup4\n      swap1\n        /* \"oracle/UBI4ALLCustomOracle.sol\":3211:3269  OracleRequest(requestId, msg.sender, RequestType.Q4APrice) */\n      0xe0cbca9c6411f8084bc50b0eedbc1c05f0a53cdcfdc0fd487cda1a66ec73e8d4\n      swap1\n      tag_184\n      swap1\n      0x00\n      swap1\n      tag_159\n      jump\t// in\n    tag_184:\n      mload(0x40)\n      dup1\n      swap2\n      sub\n      swap1\n      log3\n        /* \"oracle/UBI4ALLCustomOracle.sol\":3279:3295  return requestId */\n      pop\n        /* \"oracle/UBI4ALLCustomOracle.sol\":2825:3302  function requestQ4APrice() external onlyOwner returns (bytes32 requestId) {... */\n      swap1\n      jump\t// out\n        /* \"oracle/UBI4ALLCustomOracle.sol\":6783:7215  function updateManualCorrelationScore(address _user, uint256 _proposalId, uint256 _score) external onlyOwner {... */\n    tag_98:\n        /* \"@openzeppelin/contracts/access/Ownable.sol\":1531:1544  _checkOwner() */\n      tag_186\n        /* \"@openzeppelin/contracts/access/Ownable.sol\":1531:1542  _checkOwner */\n      tag_129\n        /* \"@openzeppelin/contracts/access/Ownable.sol\":1531:1544  _checkOwner() */\n      jump\t// in\n    tag_186:\n      sub(shl(0xa0, 0x01), 0x01)\n        /* \"oracle/UBI4ALLCustomOracle.sol\":6910:6929  _user != address(0) */\n      dup4\n      and\n        /* \"oracle/UBI4ALLCustomOracle.sol\":6902:6954  require(_user != address(0), \"Invalid user address\") */\n      tag_188\n      jumpi\n      mload(0x40)\n      shl(0xe5, 0x461bcd)\n      dup2\n      mstore\n      0x04\n      add\n      tag_138\n      swap1\n      tag_139\n      jump\t// in\n    tag_188:\n        /* \"oracle/UBI4ALLCustomOracle.sol\":6986:6987  0 */\n      0x00\n        /* \"oracle/UBI4ALLCustomOracle.sol\":6972:6983  _proposalId */\n      dup3\n        /* \"oracle/UBI4ALLCustomOracle.sol\":6972:6987  _proposalId > 0 */\n      gt\n        /* \"oracle/UBI4ALLCustomOracle.sol\":6964:7011  require(_proposalId > 0, \"Invalid proposal ID\") */\n      tag_190\n      jumpi\n      mload(0x40)\n      shl(0xe5, 0x461bcd)\n      dup2\n      mstore\n        /* \"#utility.yul\":5796:5798   */\n      0x20\n        /* \"oracle/UBI4ALLCustomOracle.sol\":6964:7011  require(_proposalId > 0, \"Invalid proposal ID\") */\n      0x04\n      dup3\n      add\n        /* \"#utility.yul\":5778:5799   */\n      mstore\n        /* \"#utility.yul\":5835:5837   */\n      0x13\n        /* \"#utility.yul\":5815:5833   */\n      0x24\n      dup3\n      add\n        /* \"#utility.yul\":5808:5838   */\n      mstore\n      shl(0x6a, 0x125b9d985b1a59081c1c9bdc1bdcd85b081251)\n        /* \"#utility.yul\":5854:5872   */\n      0x44\n      dup3\n      add\n        /* \"#utility.yul\":5847:5896   */\n      mstore\n        /* \"#utility.yul\":5913:5931   */\n      0x64\n      add\n        /* \"oracle/UBI4ALLCustomOracle.sol\":6964:7011  require(_proposalId > 0, \"Invalid proposal ID\") */\n      tag_138\n        /* \"#utility.yul\":5594:5937   */\n      jump\n        /* \"oracle/UBI4ALLCustomOracle.sol\":6964:7011  require(_proposalId > 0, \"Invalid proposal ID\") */\n    tag_190:\n        /* \"oracle/UBI4ALLCustomOracle.sol\":726:729  100 */\n      0x64\n        /* \"oracle/UBI4ALLCustomOracle.sol\":7029:7035  _score */\n      dup2\n        /* \"oracle/UBI4ALLCustomOracle.sol\":7029:7056  _score <= CORRELATION_SCALE */\n      gt\n      iszero\n        /* \"oracle/UBI4ALLCustomOracle.sol\":7021:7086  require(_score <= CORRELATION_SCALE, \"Invalid correlation score\") */\n      tag_192\n      jumpi\n      mload(0x40)\n      shl(0xe5, 0x461bcd)\n      dup2\n      mstore\n        /* \"#utility.yul\":6714:6716   */\n      0x20\n        /* \"oracle/UBI4ALLCustomOracle.sol\":7021:7086  require(_score <= CORRELATION_SCALE, \"Invalid correlation score\") */\n      0x04\n      dup3\n      add\n        /* \"#utility.yul\":6696:6717   */\n      mstore\n        /* \"#utility.yul\":6753:6755   */\n      0x19\n        /* \"#utility.yul\":6733:6751   */\n      0x24\n      dup3\n      add\n        /* \"#utility.yul\":6726:6756   */\n      mstore\n        /* \"#utility.yul\":6792:6819   */\n      0x496e76616c696420636f7272656c6174696f6e2073636f726500000000000000\n        /* \"#utility.yul\":6772:6790   */\n      0x44\n      dup3\n      add\n        /* \"#utility.yul\":6765:6820   */\n      mstore\n        /* \"#utility.yul\":6837:6855   */\n      0x64\n      add\n        /* \"oracle/UBI4ALLCustomOracle.sol\":7021:7086  require(_score <= CORRELATION_SCALE, \"Invalid correlation score\") */\n      tag_138\n        /* \"#utility.yul\":6512:6861   */\n      jump\n        /* \"oracle/UBI4ALLCustomOracle.sol\":7021:7086  require(_score <= CORRELATION_SCALE, \"Invalid correlation score\") */\n    tag_192:\n      sub(shl(0xa0, 0x01), 0x01)\n        /* \"oracle/UBI4ALLCustomOracle.sol\":7096:7120  correlationScores[_user] */\n      dup4\n      and\n      0x00\n      dup2\n      dup2\n      mstore\n        /* \"oracle/UBI4ALLCustomOracle.sol\":7096:7113  correlationScores */\n      0x02\n        /* \"oracle/UBI4ALLCustomOracle.sol\":7096:7120  correlationScores[_user] */\n      0x20\n      swap1\n      dup2\n      mstore\n      0x40\n      dup1\n      dup4\n      keccak256\n        /* \"oracle/UBI4ALLCustomOracle.sol\":7096:7133  correlationScores[_user][_proposalId] */\n      dup7\n      dup5\n      mstore\n      dup3\n      mstore\n      swap2\n      dup3\n      swap1\n      keccak256\n        /* \"oracle/UBI4ALLCustomOracle.sol\":7096:7142  correlationScores[_user][_proposalId] = _score */\n      dup5\n      swap1\n      sstore\n        /* \"oracle/UBI4ALLCustomOracle.sol\":7157:7208  CorrelationScoreUpdated(_user, _proposalId, _score) */\n      swap1\n      mload\n        /* \"#utility.yul\":3642:3667   */\n      dup4\n      dup2\n      mstore\n        /* \"oracle/UBI4ALLCustomOracle.sol\":7096:7133  correlationScores[_user][_proposalId] */\n      dup5\n      swap3\n        /* \"oracle/UBI4ALLCustomOracle.sol\":7096:7120  correlationScores[_user] */\n      swap2\n        /* \"oracle/UBI4ALLCustomOracle.sol\":7157:7208  CorrelationScoreUpdated(_user, _proposalId, _score) */\n      0xddf0bec76d6b8f0ec241ee38557441a708ebfe4f327f1955afc54e21a977fc71\n      swap2\n        /* \"#utility.yul\":3615:3633   */\n      add\n        /* \"oracle/UBI4ALLCustomOracle.sol\":7157:7208  CorrelationScoreUpdated(_user, _proposalId, _score) */\n      mload(0x40)\n      dup1\n      swap2\n      sub\n      swap1\n      log3\n        /* \"oracle/UBI4ALLCustomOracle.sol\":6783:7215  function updateManualCorrelationScore(address _user, uint256 _proposalId, uint256 _score) external onlyOwner {... */\n      pop\n      pop\n      pop\n      jump\t// out\n        /* \"oracle/UBI4ALLCustomOracle.sol\":3368:3946  function requestReputationScore(address _user) external onlyOwner returns (bytes32 requestId) {... */\n    tag_101:\n        /* \"oracle/UBI4ALLCustomOracle.sol\":3443:3460  bytes32 requestId */\n      0x00\n        /* \"@openzeppelin/contracts/access/Ownable.sol\":1531:1544  _checkOwner() */\n      tag_197\n        /* \"@openzeppelin/contracts/access/Ownable.sol\":1531:1542  _checkOwner */\n      tag_129\n        /* \"@openzeppelin/contracts/access/Ownable.sol\":1531:1544  _checkOwner() */\n      jump\t// in\n    tag_197:\n      sub(shl(0xa0, 0x01), 0x01)\n        /* \"oracle/UBI4ALLCustomOracle.sol\":3480:3499  _user != address(0) */\n      dup3\n      and\n        /* \"oracle/UBI4ALLCustomOracle.sol\":3472:3524  require(_user != address(0), \"Invalid user address\") */\n      tag_199\n      jumpi\n      mload(0x40)\n      shl(0xe5, 0x461bcd)\n      dup2\n      mstore\n      0x04\n      add\n      tag_138\n      swap1\n      tag_139\n      jump\t// in\n    tag_199:\n        /* \"oracle/UBI4ALLCustomOracle.sol\":3534:3569  FunctionsRequest.Request memory req */\n      tag_201\n      tag_144\n      jump\t// in\n    tag_201:\n        /* \"oracle/UBI4ALLCustomOracle.sol\":3579:3647  req.initializeRequestForInlineJavaScript(getReputationScript(_user)) */\n      tag_202\n        /* \"oracle/UBI4ALLCustomOracle.sol\":3620:3646  getReputationScript(_user) */\n      tag_146\n        /* \"oracle/UBI4ALLCustomOracle.sol\":3640:3645  _user */\n      dup5\n        /* \"oracle/UBI4ALLCustomOracle.sol\":3620:3639  getReputationScript */\n      tag_204\n        /* \"oracle/UBI4ALLCustomOracle.sol\":3620:3646  getReputationScript(_user) */\n      jump\t// in\n        /* \"oracle/UBI4ALLCustomOracle.sol\":3579:3647  req.initializeRequestForInlineJavaScript(getReputationScript(_user)) */\n    tag_202:\n        /* \"oracle/UBI4ALLCustomOracle.sol\":3669:3732  _sendRequest(req.encodeCBOR(), subscriptionId, gasLimit, donID) */\n      tag_205\n        /* \"oracle/UBI4ALLCustomOracle.sol\":3682:3698  req.encodeCBOR() */\n      tag_150\n        /* \"oracle/UBI4ALLCustomOracle.sol\":3682:3685  req */\n      dup3\n        /* \"oracle/UBI4ALLCustomOracle.sol\":3682:3696  req.encodeCBOR */\n      tag_151\n        /* \"oracle/UBI4ALLCustomOracle.sol\":3682:3698  req.encodeCBOR() */\n      jump\t// in\n        /* \"oracle/UBI4ALLCustomOracle.sol\":3669:3732  _sendRequest(req.encodeCBOR(), subscriptionId, gasLimit, donID) */\n    tag_205:\n        /* \"oracle/UBI4ALLCustomOracle.sol\":3771:3833  RequestData(msg.sender, RequestType.ReputationScore, _user, 0) */\n      0x40\n      dup1\n      mload\n      0x80\n      dup2\n      add\n      dup3\n      mstore\n        /* \"oracle/UBI4ALLCustomOracle.sol\":3783:3793  msg.sender */\n      caller\n        /* \"oracle/UBI4ALLCustomOracle.sol\":3771:3833  RequestData(msg.sender, RequestType.ReputationScore, _user, 0) */\n      dup2\n      mstore\n        /* \"oracle/UBI4ALLCustomOracle.sol\":3795:3822  RequestType.ReputationScore */\n      0x01\n        /* \"oracle/UBI4ALLCustomOracle.sol\":3771:3833  RequestData(msg.sender, RequestType.ReputationScore, _user, 0) */\n      0x20\n      dup1\n      dup4\n      add\n      swap2\n      dup3\n      mstore\n      sub(shl(0xa0, 0x01), 0x01)\n      dup9\n      dup2\n      and\n      dup5\n      dup7\n      add\n      mstore\n      0x00\n      0x60\n      dup6\n      add\n      dup2\n      swap1\n      mstore\n        /* \"oracle/UBI4ALLCustomOracle.sol\":3742:3768  pendingRequests[requestId] */\n      dup7\n      dup2\n      mstore\n        /* \"oracle/UBI4ALLCustomOracle.sol\":3742:3757  pendingRequests */\n      0x05\n        /* \"oracle/UBI4ALLCustomOracle.sol\":3742:3768  pendingRequests[requestId] */\n      swap1\n      swap3\n      mstore\n      swap4\n      swap1\n      keccak256\n        /* \"oracle/UBI4ALLCustomOracle.sol\":3742:3833  pendingRequests[requestId] = RequestData(msg.sender, RequestType.ReputationScore, _user, 0) */\n      dup3\n      mload\n      dup2\n      sload\n      swap5\n      and\n      not(sub(shl(0xa0, 0x01), 0x01))\n      dup6\n      and\n      dup2\n      or\n      dup3\n      sstore\n      swap2\n      mload\n        /* \"oracle/UBI4ALLCustomOracle.sol\":3742:3768  pendingRequests[requestId] */\n      swap5\n      swap7\n      pop\n        /* \"oracle/UBI4ALLCustomOracle.sol\":3771:3833  RequestData(msg.sender, RequestType.ReputationScore, _user, 0) */\n      swap2\n      swap4\n        /* \"oracle/UBI4ALLCustomOracle.sol\":3742:3768  pendingRequests[requestId] */\n      swap2\n      swap3\n      dup4\n      swap2\n      not(sub(shl(0xa8, 0x01), 0x01))\n        /* \"oracle/UBI4ALLCustomOracle.sol\":3742:3833  pendingRequests[requestId] = RequestData(msg.sender, RequestType.ReputationScore, _user, 0) */\n      swap1\n      swap2\n      and\n      or\n      shl(0xa0, 0x01)\n      dup4\n      0x02\n      dup2\n      gt\n      iszero\n      tag_210\n      jumpi\n      tag_210\n      tag_155\n      jump\t// in\n    tag_210:\n      mul\n      or\n      swap1\n      sstore\n      pop\n      0x40\n      dup3\n      add\n      mload\n      dup2\n      0x01\n      add\n      exp(0x0100, 0x00)\n      dup2\n      sload\n      dup2\n      sub(shl(0xa0, 0x01), 0x01)\n      mul\n      not\n      and\n      swap1\n      dup4\n      sub(shl(0xa0, 0x01), 0x01)\n      and\n      mul\n      or\n      swap1\n      sstore\n      pop\n      0x60\n      dup3\n      add\n      mload\n      dup2\n      0x02\n      add\n      sstore\n      swap1\n      pop\n      pop\n        /* \"oracle/UBI4ALLCustomOracle.sol\":3873:3883  msg.sender */\n      caller\n      sub(shl(0xa0, 0x01), 0x01)\n        /* \"oracle/UBI4ALLCustomOracle.sol\":3848:3913  OracleRequest(requestId, msg.sender, RequestType.ReputationScore) */\n      and\n        /* \"oracle/UBI4ALLCustomOracle.sol\":3862:3871  requestId */\n      dup3\n        /* \"oracle/UBI4ALLCustomOracle.sol\":3848:3913  OracleRequest(requestId, msg.sender, RequestType.ReputationScore) */\n      0xe0cbca9c6411f8084bc50b0eedbc1c05f0a53cdcfdc0fd487cda1a66ec73e8d4\n        /* \"oracle/UBI4ALLCustomOracle.sol\":3885:3912  RequestType.ReputationScore */\n      0x01\n        /* \"oracle/UBI4ALLCustomOracle.sol\":3848:3913  OracleRequest(requestId, msg.sender, RequestType.ReputationScore) */\n      mload(0x40)\n      tag_211\n      swap2\n      swap1\n      tag_159\n      jump\t// in\n    tag_211:\n      mload(0x40)\n      dup1\n      swap2\n      sub\n      swap1\n      log3\n        /* \"oracle/UBI4ALLCustomOracle.sol\":3923:3939  return requestId */\n      pop\n        /* \"@openzeppelin/contracts/access/Ownable.sol\":1554:1555  _ */\n    tag_198:\n        /* \"oracle/UBI4ALLCustomOracle.sol\":3368:3946  function requestReputationScore(address _user) external onlyOwner returns (bytes32 requestId) {... */\n      swap2\n      swap1\n      pop\n      jump\t// out\n        /* \"@openzeppelin/contracts/access/Ownable.sol\":2543:2758  function transferOwnership(address newOwner) public virtual onlyOwner {... */\n    tag_109:\n        /* \"@openzeppelin/contracts/access/Ownable.sol\":1531:1544  _checkOwner() */\n      tag_213\n        /* \"@openzeppelin/contracts/access/Ownable.sol\":1531:1542  _checkOwner */\n      tag_129\n        /* \"@openzeppelin/contracts/access/Ownable.sol\":1531:1544  _checkOwner() */\n      jump\t// in\n    tag_213:\n      sub(shl(0xa0, 0x01), 0x01)\n        /* \"@openzeppelin/contracts/access/Ownable.sol\":2627:2649  newOwner == address(0) */\n      dup2\n      and\n        /* \"@openzeppelin/contracts/access/Ownable.sol\":2623:2714  if (newOwner == address(0)) {... */\n      tag_215\n      jumpi\n        /* \"@openzeppelin/contracts/access/Ownable.sol\":2672:2703  OwnableInvalidOwner(address(0)) */\n      mload(0x40)\n      shl(0xe0, 0x1e4fbdf7)\n      dup2\n      mstore\n        /* \"@openzeppelin/contracts/access/Ownable.sol\":2700:2701  0 */\n      0x00\n        /* \"@openzeppelin/contracts/access/Ownable.sol\":2672:2703  OwnableInvalidOwner(address(0)) */\n      0x04\n      dup3\n      add\n        /* \"#utility.yul\":4377:4428   */\n      mstore\n        /* \"#utility.yul\":4350:4368   */\n      0x24\n      add\n        /* \"@openzeppelin/contracts/access/Ownable.sol\":2672:2703  OwnableInvalidOwner(address(0)) */\n      tag_138\n        /* \"#utility.yul\":4231:4434   */\n      jump\n        /* \"@openzeppelin/contracts/access/Ownable.sol\":2623:2714  if (newOwner == address(0)) {... */\n    tag_215:\n        /* \"@openzeppelin/contracts/access/Ownable.sol\":2723:2751  _transferOwnership(newOwner) */\n      tag_217\n        /* \"@openzeppelin/contracts/access/Ownable.sol\":2742:2750  newOwner */\n      dup2\n        /* \"@openzeppelin/contracts/access/Ownable.sol\":2723:2741  _transferOwnership */\n      tag_132\n        /* \"@openzeppelin/contracts/access/Ownable.sol\":2723:2751  _transferOwnership(newOwner) */\n      jump\t// in\n    tag_217:\n        /* \"@openzeppelin/contracts/access/Ownable.sol\":2543:2758  function transferOwnership(address newOwner) public virtual onlyOwner {... */\n      pop\n      jump\t// out\n        /* \"oracle/UBI4ALLCustomOracle.sol\":6045:6287  function updateManualQ4APrice(int256 _price) external onlyOwner {... */\n    tag_113:\n        /* \"@openzeppelin/contracts/access/Ownable.sol\":1531:1544  _checkOwner() */\n      tag_219\n        /* \"@openzeppelin/contracts/access/Ownable.sol\":1531:1542  _checkOwner */\n      tag_129\n        /* \"@openzeppelin/contracts/access/Ownable.sol\":1531:1544  _checkOwner() */\n      jump\t// in\n    tag_219:\n        /* \"oracle/UBI4ALLCustomOracle.sol\":6136:6137  0 */\n      0x00\n        /* \"oracle/UBI4ALLCustomOracle.sol\":6127:6133  _price */\n      dup2\n        /* \"oracle/UBI4ALLCustomOracle.sol\":6127:6137  _price > 0 */\n      sgt\n        /* \"oracle/UBI4ALLCustomOracle.sol\":6119:6155  require(_price > 0, \"Invalid price\") */\n      tag_221\n      jumpi\n      mload(0x40)\n      shl(0xe5, 0x461bcd)\n      dup2\n      mstore\n        /* \"#utility.yul\":7068:7070   */\n      0x20\n        /* \"oracle/UBI4ALLCustomOracle.sol\":6119:6155  require(_price > 0, \"Invalid price\") */\n      0x04\n      dup3\n      add\n        /* \"#utility.yul\":7050:7071   */\n      mstore\n        /* \"#utility.yul\":7107:7109   */\n      0x0d\n        /* \"#utility.yul\":7087:7105   */\n      0x24\n      dup3\n      add\n        /* \"#utility.yul\":7080:7110   */\n      mstore\n      shl(0x98, 0x496e76616c6964207072696365)\n        /* \"#utility.yul\":7126:7144   */\n      0x44\n      dup3\n      add\n        /* \"#utility.yul\":7119:7162   */\n      mstore\n        /* \"#utility.yul\":7179:7197   */\n      0x64\n      add\n        /* \"oracle/UBI4ALLCustomOracle.sol\":6119:6155  require(_price > 0, \"Invalid price\") */\n      tag_138\n        /* \"#utility.yul\":6866:7203   */\n      jump\n        /* \"oracle/UBI4ALLCustomOracle.sol\":6119:6155  require(_price > 0, \"Invalid price\") */\n    tag_221:\n        /* \"oracle/UBI4ALLCustomOracle.sol\":6165:6173  q4aPrice */\n      0x03\n        /* \"oracle/UBI4ALLCustomOracle.sol\":6165:6182  q4aPrice = _price */\n      dup2\n      swap1\n      sstore\n        /* \"oracle/UBI4ALLCustomOracle.sol\":6210:6225  block.timestamp */\n      timestamp\n        /* \"oracle/UBI4ALLCustomOracle.sol\":6192:6207  lastPriceUpdate */\n      0x04\n        /* \"oracle/UBI4ALLCustomOracle.sol\":6192:6225  lastPriceUpdate = block.timestamp */\n      dup2\n      swap1\n      sstore\n        /* \"oracle/UBI4ALLCustomOracle.sol\":6240:6280  Q4APriceUpdated(_price, block.timestamp) */\n      0x40\n      dup1\n      mload\n        /* \"#utility.yul\":7380:7405   */\n      dup4\n      dup2\n      mstore\n        /* \"#utility.yul\":7436:7438   */\n      0x20\n        /* \"#utility.yul\":7421:7439   */\n      dup2\n      add\n        /* \"#utility.yul\":7414:7448   */\n      swap3\n      swap1\n      swap3\n      mstore\n        /* \"oracle/UBI4ALLCustomOracle.sol\":6240:6280  Q4APriceUpdated(_price, block.timestamp) */\n      0xf6c5a7ca37753b0680a888953fc4f298aac5757f9639486009b92df9c9bdadfa\n      swap2\n        /* \"#utility.yul\":7353:7371   */\n      add\n        /* \"oracle/UBI4ALLCustomOracle.sol\":6240:6280  Q4APriceUpdated(_price, block.timestamp) */\n      mload(0x40)\n      dup1\n      swap2\n      sub\n      swap1\n      log1\n        /* \"oracle/UBI4ALLCustomOracle.sol\":6045:6287  function updateManualQ4APrice(int256 _price) external onlyOwner {... */\n      pop\n      jump\t// out\n        /* \"oracle/UBI4ALLCustomOracle.sol\":4771:5973  function fulfillRequest(bytes32 requestId, bytes memory response, bytes memory) internal override {... */\n    tag_125:\n        /* \"oracle/UBI4ALLCustomOracle.sol\":4879:4905  RequestData memory request */\n      0x00\n        /* \"oracle/UBI4ALLCustomOracle.sol\":4908:4934  pendingRequests[requestId] */\n      dup4\n      dup2\n      mstore\n        /* \"oracle/UBI4ALLCustomOracle.sol\":4908:4923  pendingRequests */\n      0x05\n        /* \"oracle/UBI4ALLCustomOracle.sol\":4908:4934  pendingRequests[requestId] */\n      0x20\n      swap1\n      dup2\n      mstore\n      0x40\n      dup1\n      dup4\n      keccak256\n        /* \"oracle/UBI4ALLCustomOracle.sol\":4879:4934  RequestData memory request = pendingRequests[requestId] */\n      dup2\n      mload\n      0x80\n      dup2\n      add\n      swap1\n      swap3\n      mstore\n      dup1\n      sload\n      sub(shl(0xa0, 0x01), 0x01)\n      dup2\n      and\n      dup4\n      mstore\n      swap2\n      swap3\n        /* \"oracle/UBI4ALLCustomOracle.sol\":4908:4934  pendingRequests[requestId] */\n      swap1\n      swap2\n        /* \"oracle/UBI4ALLCustomOracle.sol\":4879:4934  RequestData memory request = pendingRequests[requestId] */\n      swap1\n      dup4\n      add\n      swap1\n      shl(0xa0, 0x01)\n      swap1\n      div\n      0xff\n      and\n      0x02\n      dup2\n      gt\n      iszero\n      tag_228\n      jumpi\n      tag_228\n      tag_155\n      jump\t// in\n    tag_228:\n      0x02\n      dup2\n      gt\n      iszero\n      tag_230\n      jumpi\n      tag_230\n      tag_155\n      jump\t// in\n    tag_230:\n      dup2\n      mstore\n      0x01\n      dup3\n      add\n      sload\n      sub(shl(0xa0, 0x01), 0x01)\n      swap1\n      dup2\n      and\n      0x20\n      dup4\n      add\n      mstore\n      0x02\n      swap1\n      swap3\n      add\n      sload\n      0x40\n      swap1\n      swap2\n      add\n      mstore\n        /* \"oracle/UBI4ALLCustomOracle.sol\":4952:4969  request.requester */\n      dup2\n      mload\n        /* \"oracle/UBI4ALLCustomOracle.sol\":4879:4934  RequestData memory request = pendingRequests[requestId] */\n      swap2\n      swap3\n      pop\n        /* \"oracle/UBI4ALLCustomOracle.sol\":4952:4983  request.requester != address(0) */\n      and\n        /* \"oracle/UBI4ALLCustomOracle.sol\":4944:5006  require(request.requester != address(0), \"Invalid request ID\") */\n      tag_231\n      jumpi\n      mload(0x40)\n      shl(0xe5, 0x461bcd)\n      dup2\n      mstore\n        /* \"#utility.yul\":7661:7663   */\n      0x20\n        /* \"oracle/UBI4ALLCustomOracle.sol\":4944:5006  require(request.requester != address(0), \"Invalid request ID\") */\n      0x04\n      dup3\n      add\n        /* \"#utility.yul\":7643:7664   */\n      mstore\n        /* \"#utility.yul\":7700:7702   */\n      0x12\n        /* \"#utility.yul\":7680:7698   */\n      0x24\n      dup3\n      add\n        /* \"#utility.yul\":7673:7703   */\n      mstore\n      shl(0x72, 0x125b9d985b1a59081c995c5d595cdd081251)\n        /* \"#utility.yul\":7719:7737   */\n      0x44\n      dup3\n      add\n        /* \"#utility.yul\":7712:7760   */\n      mstore\n        /* \"#utility.yul\":7777:7795   */\n      0x64\n      add\n        /* \"oracle/UBI4ALLCustomOracle.sol\":4944:5006  require(request.requester != address(0), \"Invalid request ID\") */\n      tag_138\n        /* \"#utility.yul\":7459:7801   */\n      jump\n        /* \"oracle/UBI4ALLCustomOracle.sol\":4944:5006  require(request.requester != address(0), \"Invalid request ID\") */\n    tag_231:\n        /* \"oracle/UBI4ALLCustomOracle.sol\":5018:5030  int256 price */\n      0x00\n        /* \"oracle/UBI4ALLCustomOracle.sol\":5032:5050  uint256 reputation */\n      dup1\n        /* \"oracle/UBI4ALLCustomOracle.sol\":5052:5071  uint256 correlation */\n      0x00\n        /* \"oracle/UBI4ALLCustomOracle.sol\":5086:5094  response */\n      dup6\n        /* \"oracle/UBI4ALLCustomOracle.sol\":5075:5123  abi.decode(response, (int256, uint256, uint256)) */\n      dup1\n      0x20\n      add\n      swap1\n      mload\n      dup2\n      add\n      swap1\n      tag_234\n      swap2\n      swap1\n      tag_235\n      jump\t// in\n    tag_234:\n        /* \"oracle/UBI4ALLCustomOracle.sol\":5017:5123  (int256 price, uint256 reputation, uint256 correlation) = abi.decode(response, (int256, uint256, uint256)) */\n      swap2\n      swap5\n      pop\n      swap3\n      pop\n      swap1\n      pop\n        /* \"oracle/UBI4ALLCustomOracle.sol\":5161:5181  RequestType.Q4APrice */\n      0x00\n        /* \"oracle/UBI4ALLCustomOracle.sol\":5138:5145  request */\n      dup5\n        /* \"oracle/UBI4ALLCustomOracle.sol\":5138:5157  request.requestType */\n      0x20\n      add\n      mload\n        /* \"oracle/UBI4ALLCustomOracle.sol\":5138:5181  request.requestType == RequestType.Q4APrice */\n      0x02\n      dup2\n      gt\n      iszero\n      tag_239\n      jumpi\n      tag_239\n      tag_155\n      jump\t// in\n    tag_239:\n      eq\n        /* \"oracle/UBI4ALLCustomOracle.sol\":5138:5194  request.requestType == RequestType.Q4APrice && price > 0 */\n      dup1\n      iszero\n      tag_240\n      jumpi\n      pop\n        /* \"oracle/UBI4ALLCustomOracle.sol\":5193:5194  0 */\n      0x00\n        /* \"oracle/UBI4ALLCustomOracle.sol\":5185:5190  price */\n      dup4\n        /* \"oracle/UBI4ALLCustomOracle.sol\":5185:5194  price > 0 */\n      sgt\n        /* \"oracle/UBI4ALLCustomOracle.sol\":5138:5194  request.requestType == RequestType.Q4APrice && price > 0 */\n    tag_240:\n        /* \"oracle/UBI4ALLCustomOracle.sol\":5134:5851  if (request.requestType == RequestType.Q4APrice && price > 0) {... */\n      iszero\n      tag_241\n      jumpi\n        /* \"oracle/UBI4ALLCustomOracle.sol\":5210:5218  q4aPrice */\n      0x03\n        /* \"oracle/UBI4ALLCustomOracle.sol\":5210:5226  q4aPrice = price */\n      dup4\n      swap1\n      sstore\n        /* \"oracle/UBI4ALLCustomOracle.sol\":5258:5273  block.timestamp */\n      timestamp\n        /* \"oracle/UBI4ALLCustomOracle.sol\":5240:5255  lastPriceUpdate */\n      0x04\n        /* \"oracle/UBI4ALLCustomOracle.sol\":5240:5273  lastPriceUpdate = block.timestamp */\n      dup2\n      swap1\n      sstore\n        /* \"oracle/UBI4ALLCustomOracle.sol\":5292:5331  Q4APriceUpdated(price, block.timestamp) */\n      0x40\n      dup1\n      mload\n        /* \"#utility.yul\":7380:7405   */\n      dup6\n      dup2\n      mstore\n        /* \"#utility.yul\":7436:7438   */\n      0x20\n        /* \"#utility.yul\":7421:7439   */\n      dup2\n      add\n        /* \"#utility.yul\":7414:7448   */\n      swap3\n      swap1\n      swap3\n      mstore\n        /* \"oracle/UBI4ALLCustomOracle.sol\":5292:5331  Q4APriceUpdated(price, block.timestamp) */\n      0xf6c5a7ca37753b0680a888953fc4f298aac5757f9639486009b92df9c9bdadfa\n      swap2\n        /* \"#utility.yul\":7353:7371   */\n      add\n        /* \"oracle/UBI4ALLCustomOracle.sol\":5292:5331  Q4APriceUpdated(price, block.timestamp) */\n      mload(0x40)\n      dup1\n      swap2\n      sub\n      swap1\n      log1\n        /* \"oracle/UBI4ALLCustomOracle.sol\":5134:5851  if (request.requestType == RequestType.Q4APrice && price > 0) {... */\n      jump(tag_257)\n    tag_241:\n        /* \"oracle/UBI4ALLCustomOracle.sol\":5375:5402  RequestType.ReputationScore */\n      0x01\n        /* \"oracle/UBI4ALLCustomOracle.sol\":5352:5359  request */\n      dup5\n        /* \"oracle/UBI4ALLCustomOracle.sol\":5352:5371  request.requestType */\n      0x20\n      add\n      mload\n        /* \"oracle/UBI4ALLCustomOracle.sol\":5352:5402  request.requestType == RequestType.ReputationScore */\n      0x02\n      dup2\n      gt\n      iszero\n      tag_247\n      jumpi\n      tag_247\n      tag_155\n      jump\t// in\n    tag_247:\n      eq\n        /* \"oracle/UBI4ALLCustomOracle.sol\":5352:5436  request.requestType == RequestType.ReputationScore && reputation <= REPUTATION_SCALE */\n      dup1\n      iszero\n      tag_248\n      jumpi\n      pop\n        /* \"oracle/UBI4ALLCustomOracle.sol\":626:629  100 */\n      0x64\n        /* \"oracle/UBI4ALLCustomOracle.sol\":5406:5416  reputation */\n      dup3\n        /* \"oracle/UBI4ALLCustomOracle.sol\":5406:5436  reputation <= REPUTATION_SCALE */\n      gt\n      iszero\n        /* \"oracle/UBI4ALLCustomOracle.sol\":5352:5436  request.requestType == RequestType.ReputationScore && reputation <= REPUTATION_SCALE */\n    tag_248:\n        /* \"oracle/UBI4ALLCustomOracle.sol\":5348:5851  if (request.requestType == RequestType.ReputationScore && reputation <= REPUTATION_SCALE) {... */\n      iszero\n      tag_249\n      jumpi\n        /* \"oracle/UBI4ALLCustomOracle.sol\":5469:5481  request.user */\n      0x40\n      dup1\n      dup6\n      add\n      dup1\n      mload\n      sub(shl(0xa0, 0x01), 0x01)\n        /* \"oracle/UBI4ALLCustomOracle.sol\":5452:5482  reputationScores[request.user] */\n      swap1\n      dup2\n      and\n      0x00\n      swap1\n      dup2\n      mstore\n        /* \"oracle/UBI4ALLCustomOracle.sol\":5452:5468  reputationScores */\n      0x01\n        /* \"oracle/UBI4ALLCustomOracle.sol\":5452:5482  reputationScores[request.user] */\n      0x20\n      mstore\n      dup4\n      swap1\n      keccak256\n        /* \"oracle/UBI4ALLCustomOracle.sol\":5452:5495  reputationScores[request.user] = reputation */\n      dup6\n      swap1\n      sstore\n        /* \"oracle/UBI4ALLCustomOracle.sol\":5537:5549  request.user */\n      swap1\n      mload\n        /* \"oracle/UBI4ALLCustomOracle.sol\":5514:5562  ReputationScoreUpdated(request.user, reputation) */\n      swap2\n      mload\n      swap2\n      and\n      swap1\n      0xe00f1b5d37e934593fb70fcb5fd4703e66f533b6f2560437ec119178a815812d\n      swap1\n      tag_250\n      swap1\n        /* \"oracle/UBI4ALLCustomOracle.sol\":5485:5495  reputation */\n      dup6\n        /* \"#utility.yul\":3642:3667   */\n      dup2\n      mstore\n        /* \"#utility.yul\":3630:3632   */\n      0x20\n        /* \"#utility.yul\":3615:3633   */\n      add\n      swap1\n        /* \"#utility.yul\":3496:3673   */\n      jump\n        /* \"oracle/UBI4ALLCustomOracle.sol\":5514:5562  ReputationScoreUpdated(request.user, reputation) */\n    tag_250:\n      mload(0x40)\n      dup1\n      swap2\n      sub\n      swap1\n      log2\n        /* \"oracle/UBI4ALLCustomOracle.sol\":5348:5851  if (request.requestType == RequestType.ReputationScore && reputation <= REPUTATION_SCALE) {... */\n      jump(tag_257)\n    tag_249:\n        /* \"oracle/UBI4ALLCustomOracle.sol\":5606:5634  RequestType.CorrelationScore */\n      0x02\n        /* \"oracle/UBI4ALLCustomOracle.sol\":5583:5590  request */\n      dup5\n        /* \"oracle/UBI4ALLCustomOracle.sol\":5583:5602  request.requestType */\n      0x20\n      add\n      mload\n        /* \"oracle/UBI4ALLCustomOracle.sol\":5583:5634  request.requestType == RequestType.CorrelationScore */\n      0x02\n      dup2\n      gt\n      iszero\n      tag_255\n      jumpi\n      tag_255\n      tag_155\n      jump\t// in\n    tag_255:\n      eq\n        /* \"oracle/UBI4ALLCustomOracle.sol\":5583:5670  request.requestType == RequestType.CorrelationScore && correlation <= CORRELATION_SCALE */\n      dup1\n      iszero\n      tag_256\n      jumpi\n      pop\n        /* \"oracle/UBI4ALLCustomOracle.sol\":726:729  100 */\n      0x64\n        /* \"oracle/UBI4ALLCustomOracle.sol\":5638:5649  correlation */\n      dup2\n        /* \"oracle/UBI4ALLCustomOracle.sol\":5638:5670  correlation <= CORRELATION_SCALE */\n      gt\n      iszero\n        /* \"oracle/UBI4ALLCustomOracle.sol\":5583:5670  request.requestType == RequestType.CorrelationScore && correlation <= CORRELATION_SCALE */\n    tag_256:\n        /* \"oracle/UBI4ALLCustomOracle.sol\":5579:5851  if (request.requestType == RequestType.CorrelationScore && correlation <= CORRELATION_SCALE) {... */\n      iszero\n      tag_257\n      jumpi\n        /* \"oracle/UBI4ALLCustomOracle.sol\":5704:5716  request.user */\n      0x40\n      dup1\n      dup6\n      add\n      dup1\n      mload\n      sub(shl(0xa0, 0x01), 0x01)\n        /* \"oracle/UBI4ALLCustomOracle.sol\":5686:5717  correlationScores[request.user] */\n      swap1\n      dup2\n      and\n      0x00\n      swap1\n      dup2\n      mstore\n        /* \"oracle/UBI4ALLCustomOracle.sol\":5686:5703  correlationScores */\n      0x02\n        /* \"oracle/UBI4ALLCustomOracle.sol\":5686:5717  correlationScores[request.user] */\n      0x20\n      swap1\n      dup2\n      mstore\n      dup5\n      dup3\n      keccak256\n        /* \"oracle/UBI4ALLCustomOracle.sol\":5718:5736  request.proposalId */\n      0x60\n      dup11\n      add\n      dup1\n      mload\n        /* \"oracle/UBI4ALLCustomOracle.sol\":5686:5737  correlationScores[request.user][request.proposalId] */\n      dup5\n      mstore\n      swap2\n      mstore\n      swap1\n      dup5\n      swap1\n      keccak256\n        /* \"oracle/UBI4ALLCustomOracle.sol\":5686:5751  correlationScores[request.user][request.proposalId] = correlation */\n      dup6\n      swap1\n      sstore\n        /* \"oracle/UBI4ALLCustomOracle.sol\":5808:5826  request.proposalId */\n      mload\n        /* \"oracle/UBI4ALLCustomOracle.sol\":5794:5806  request.user */\n      swap2\n      mload\n        /* \"oracle/UBI4ALLCustomOracle.sol\":5770:5840  CorrelationScoreUpdated(request.user, request.proposalId, correlation) */\n      swap3\n      mload\n        /* \"oracle/UBI4ALLCustomOracle.sol\":5808:5826  request.proposalId */\n      swap2\n      swap3\n        /* \"oracle/UBI4ALLCustomOracle.sol\":5770:5840  CorrelationScoreUpdated(request.user, request.proposalId, correlation) */\n      and\n      swap1\n      0xddf0bec76d6b8f0ec241ee38557441a708ebfe4f327f1955afc54e21a977fc71\n      swap1\n      tag_258\n      swap1\n        /* \"oracle/UBI4ALLCustomOracle.sol\":5740:5751  correlation */\n      dup6\n        /* \"#utility.yul\":3642:3667   */\n      dup2\n      mstore\n        /* \"#utility.yul\":3630:3632   */\n      0x20\n        /* \"#utility.yul\":3615:3633   */\n      add\n      swap1\n        /* \"#utility.yul\":3496:3673   */\n      jump\n        /* \"oracle/UBI4ALLCustomOracle.sol\":5770:5840  CorrelationScoreUpdated(request.user, request.proposalId, correlation) */\n    tag_258:\n      mload(0x40)\n      dup1\n      swap2\n      sub\n      swap1\n      log3\n        /* \"oracle/UBI4ALLCustomOracle.sol\":5579:5851  if (request.requestType == RequestType.CorrelationScore && correlation <= CORRELATION_SCALE) {... */\n    tag_257:\n        /* \"oracle/UBI4ALLCustomOracle.sol\":5866:5923  OracleResponse(requestId, price, reputation, correlation) */\n      0x40\n      dup1\n      mload\n        /* \"#utility.yul\":8414:8439   */\n      dup5\n      dup2\n      mstore\n        /* \"#utility.yul\":8470:8472   */\n      0x20\n        /* \"#utility.yul\":8455:8473   */\n      dup2\n      add\n        /* \"#utility.yul\":8448:8482   */\n      dup5\n      swap1\n      mstore\n        /* \"#utility.yul\":8498:8516   */\n      swap1\n      dup2\n      add\n        /* \"#utility.yul\":8491:8525   */\n      dup3\n      swap1\n      mstore\n        /* \"oracle/UBI4ALLCustomOracle.sol\":5881:5890  requestId */\n      dup8\n      swap1\n        /* \"oracle/UBI4ALLCustomOracle.sol\":5866:5923  OracleResponse(requestId, price, reputation, correlation) */\n      0xe9f0d70093154e9443bd931bc5cf30b0c45f5e41fadaf654f5a548a6523d1009\n      swap1\n        /* \"#utility.yul\":8402:8404   */\n      0x60\n        /* \"#utility.yul\":8387:8405   */\n      add\n        /* \"oracle/UBI4ALLCustomOracle.sol\":5866:5923  OracleResponse(requestId, price, reputation, correlation) */\n      mload(0x40)\n      dup1\n      swap2\n      sub\n      swap1\n      log2\n      pop\n      pop\n      pop\n        /* \"oracle/UBI4ALLCustomOracle.sol\":5940:5966  pendingRequests[requestId] */\n      0x00\n      swap4\n      dup5\n      mstore\n      pop\n      pop\n        /* \"oracle/UBI4ALLCustomOracle.sol\":5940:5955  pendingRequests */\n      0x05\n        /* \"oracle/UBI4ALLCustomOracle.sol\":5940:5966  pendingRequests[requestId] */\n      0x20\n      mstore\n      pop\n      0x40\n      dup2\n      keccak256\n        /* \"oracle/UBI4ALLCustomOracle.sol\":5933:5966  delete pendingRequests[requestId] */\n      dup1\n      sload\n      not(sub(shl(0xa8, 0x01), 0x01))\n      and\n      dup2\n      sstore\n      0x01\n      dup2\n      add\n      dup1\n      sload\n      not(sub(shl(0xa0, 0x01), 0x01))\n      and\n      swap1\n      sstore\n      0x02\n      add\n      sstore\n        /* \"oracle/UBI4ALLCustomOracle.sol\":4771:5973  function fulfillRequest(bytes32 requestId, bytes memory response, bytes memory) internal override {... */\n      jump\t// out\n        /* \"@openzeppelin/contracts/access/Ownable.sol\":1796:1958  function _checkOwner() internal view virtual {... */\n    tag_129:\n        /* \"@openzeppelin/contracts/access/Ownable.sol\":1684:1691  address */\n      0x00\n        /* \"@openzeppelin/contracts/access/Ownable.sol\":1710:1716  _owner */\n      sload\n      sub(shl(0xa0, 0x01), 0x01)\n      and\n        /* \"@openzeppelin/contracts/utils/Context.sol\":735:745  msg.sender */\n      caller\n        /* \"@openzeppelin/contracts/access/Ownable.sol\":1855:1878  owner() != _msgSender() */\n      eq\n        /* \"@openzeppelin/contracts/access/Ownable.sol\":1851:1952  if (owner() != _msgSender()) {... */\n      tag_131\n      jumpi\n        /* \"@openzeppelin/contracts/access/Ownable.sol\":1901:1941  OwnableUnauthorizedAccount(_msgSender()) */\n      mload(0x40)\n      shl(0xe0, 0x118cdaa7)\n      dup2\n      mstore\n        /* \"@openzeppelin/contracts/utils/Context.sol\":735:745  msg.sender */\n      caller\n        /* \"@openzeppelin/contracts/access/Ownable.sol\":1901:1941  OwnableUnauthorizedAccount(_msgSender()) */\n      0x04\n      dup3\n      add\n        /* \"#utility.yul\":4377:4428   */\n      mstore\n        /* \"#utility.yul\":4350:4368   */\n      0x24\n      add\n        /* \"@openzeppelin/contracts/access/Ownable.sol\":1901:1941  OwnableUnauthorizedAccount(_msgSender()) */\n      tag_138\n        /* \"#utility.yul\":4231:4434   */\n      jump\n        /* \"@openzeppelin/contracts/access/Ownable.sol\":2912:3099  function _transferOwnership(address newOwner) internal virtual {... */\n    tag_132:\n        /* \"@openzeppelin/contracts/access/Ownable.sol\":2985:3001  address oldOwner */\n      0x00\n        /* \"@openzeppelin/contracts/access/Ownable.sol\":3004:3010  _owner */\n      dup1\n      sload\n      sub(shl(0xa0, 0x01), 0x01)\n        /* \"@openzeppelin/contracts/access/Ownable.sol\":3020:3037  _owner = newOwner */\n      dup4\n      dup2\n      and\n      not(sub(shl(0xa0, 0x01), 0x01))\n      dup4\n      and\n      dup2\n      or\n      dup5\n      sstore\n        /* \"@openzeppelin/contracts/access/Ownable.sol\":3052:3092  OwnershipTransferred(oldOwner, newOwner) */\n      mload(0x40)\n        /* \"@openzeppelin/contracts/access/Ownable.sol\":3004:3010  _owner */\n      swap2\n      swap1\n      swap3\n      and\n      swap3\n      dup4\n      swap2\n        /* \"@openzeppelin/contracts/access/Ownable.sol\":3052:3092  OwnershipTransferred(oldOwner, newOwner) */\n      0x8be0079c531659141344cd1fd0a4f28419497f9722a3daafe3b4186f6b6457e0\n      swap2\n        /* \"@openzeppelin/contracts/access/Ownable.sol\":2985:3001  address oldOwner */\n      swap1\n        /* \"@openzeppelin/contracts/access/Ownable.sol\":3052:3092  OwnershipTransferred(oldOwner, newOwner) */\n      log3\n        /* \"@openzeppelin/contracts/access/Ownable.sol\":2975:3099  {... */\n      pop\n        /* \"@openzeppelin/contracts/access/Ownable.sol\":2912:3099  function _transferOwnership(address newOwner) internal virtual {... */\n      pop\n      jump\t// out\n        /* \"oracle/UBI4ALLCustomOracle.sol\":9061:9810  function getCorrelationScript(address _user, uint256 _proposalId) internal pure returns (string memory) {... */\n    tag_147:\n        /* \"oracle/UBI4ALLCustomOracle.sol\":9150:9163  string memory */\n      0x60\n        /* \"oracle/UBI4ALLCustomOracle.sol\":9254:9272  toHexString(_user) */\n      tag_270\n        /* \"oracle/UBI4ALLCustomOracle.sol\":9266:9271  _user */\n      dup4\n        /* \"oracle/UBI4ALLCustomOracle.sol\":9254:9265  toHexString */\n      tag_271\n        /* \"oracle/UBI4ALLCustomOracle.sol\":9254:9272  toHexString(_user) */\n      jump\t// in\n    tag_270:\n        /* \"oracle/UBI4ALLCustomOracle.sol\":9320:9348  uint256ToString(_proposalId) */\n      tag_272\n        /* \"oracle/UBI4ALLCustomOracle.sol\":9336:9347  _proposalId */\n      dup4\n        /* \"oracle/UBI4ALLCustomOracle.sol\":9320:9335  uint256ToString */\n      tag_273\n        /* \"oracle/UBI4ALLCustomOracle.sol\":9320:9348  uint256ToString(_proposalId) */\n      jump\t// in\n    tag_272:\n        /* \"oracle/UBI4ALLCustomOracle.sol\":9202:9793  abi.encodePacked(... */\n      add(0x20, mload(0x40))\n      tag_274\n      swap3\n      swap2\n      swap1\n      tag_275\n      jump\t// in\n    tag_274:\n      mload(0x40)\n      0x20\n      dup2\n      dup4\n      sub\n      sub\n      dup2\n      mstore\n      swap1\n      0x40\n      mstore\n        /* \"oracle/UBI4ALLCustomOracle.sol\":9175:9803  return string(... */\n      swap1\n      pop\n        /* \"oracle/UBI4ALLCustomOracle.sol\":9061:9810  function getCorrelationScript(address _user, uint256 _proposalId) internal pure returns (string memory) {... */\n      swap3\n      swap2\n      pop\n      pop\n      jump\t// out\n        /* \"@chainlink/contracts/src/v0.8/functions/v1_0_0/libraries/FunctionsRequest.sol\":4323:4530  function initializeRequestForInlineJavaScript(Request memory self, string memory javaScriptSource) internal pure {... */\n    tag_148:\n        /* \"@chainlink/contracts/src/v0.8/functions/v1_0_0/libraries/FunctionsRequest.sol\":4442:4525  initializeRequest(self, Location.Inline, CodeLanguage.JavaScript, javaScriptSource) */\n      tag_277\n        /* \"@chainlink/contracts/src/v0.8/functions/v1_0_0/libraries/FunctionsRequest.sol\":4460:4464  self */\n      dup3\n        /* \"@chainlink/contracts/src/v0.8/functions/v1_0_0/libraries/FunctionsRequest.sol\":4466:4481  Location.Inline */\n      0x00\n        /* \"@chainlink/contracts/src/v0.8/functions/v1_0_0/libraries/FunctionsRequest.sol\":4483:4506  CodeLanguage.JavaScript */\n      dup1\n        /* \"@chainlink/contracts/src/v0.8/functions/v1_0_0/libraries/FunctionsRequest.sol\":4508:4524  javaScriptSource */\n      dup5\n        /* \"@chainlink/contracts/src/v0.8/functions/v1_0_0/libraries/FunctionsRequest.sol\":4442:4459  initializeRequest */\n      tag_278\n        /* \"@chainlink/contracts/src/v0.8/functions/v1_0_0/libraries/FunctionsRequest.sol\":4442:4525  initializeRequest(self, Location.Inline, CodeLanguage.JavaScript, javaScriptSource) */\n      jump\t// in\n    tag_277:\n        /* \"@chainlink/contracts/src/v0.8/functions/v1_0_0/libraries/FunctionsRequest.sol\":4323:4530  function initializeRequestForInlineJavaScript(Request memory self, string memory javaScriptSource) internal pure {... */\n      pop\n      pop\n      jump\t// out\n        /* \"@chainlink/contracts/src/v0.8/functions/v1_0_0/libraries/FunctionsRequest.sol\":2158:3428  function encodeCBOR(Request memory self) internal pure returns (bytes memory) {... */\n    tag_151:\n        /* \"@chainlink/contracts/src/v0.8/functions/v1_0_0/libraries/FunctionsRequest.sol\":2222:2234  bytes memory */\n      0x60\n        /* \"@chainlink/contracts/src/v0.8/functions/v1_0_0/libraries/FunctionsRequest.sol\":2242:2271  CBOR.CBORBuffer memory buffer */\n      0x00\n        /* \"@chainlink/contracts/src/v0.8/functions/v1_0_0/libraries/FunctionsRequest.sol\":2274:2306  CBOR.create(DEFAULT_BUFFER_SIZE) */\n      tag_280\n        /* \"@chainlink/contracts/src/v0.8/functions/v1_0_0/libraries/FunctionsRequest.sol\":375:378  256 */\n      0x0100\n        /* \"@chainlink/contracts/src/v0.8/functions/v1_0_0/libraries/FunctionsRequest.sol\":2274:2285  CBOR.create */\n      tag_281\n        /* \"@chainlink/contracts/src/v0.8/functions/v1_0_0/libraries/FunctionsRequest.sol\":2274:2306  CBOR.create(DEFAULT_BUFFER_SIZE) */\n      jump\t// in\n    tag_280:\n        /* \"@chainlink/contracts/src/v0.8/functions/v1_0_0/libraries/FunctionsRequest.sol\":2242:2306  CBOR.CBORBuffer memory buffer = CBOR.create(DEFAULT_BUFFER_SIZE) */\n      swap1\n      pop\n        /* \"@chainlink/contracts/src/v0.8/functions/v1_0_0/libraries/FunctionsRequest.sol\":2313:2347  buffer.writeString(\"codeLocation\") */\n      tag_282\n      mload(0x40)\n      dup1\n      0x40\n      add\n      0x40\n      mstore\n      dup1\n      0x0c\n      dup2\n      mstore\n      0x20\n      add\n      shl(0xa1, 0x31b7b232a637b1b0ba34b7b7)\n      dup2\n      mstore\n      pop\n        /* \"@chainlink/contracts/src/v0.8/functions/v1_0_0/libraries/FunctionsRequest.sol\":2313:2319  buffer */\n      dup3\n        /* \"@chainlink/contracts/src/v0.8/functions/v1_0_0/libraries/FunctionsRequest.sol\":2313:2331  buffer.writeString */\n      tag_283\n      swap1\n        /* \"@chainlink/contracts/src/v0.8/functions/v1_0_0/libraries/FunctionsRequest.sol\":2313:2347  buffer.writeString(\"codeLocation\") */\n      swap2\n      swap1\n      0xffffffff\n      and\n      jump\t// in\n    tag_282:\n        /* \"@chainlink/contracts/src/v0.8/functions/v1_0_0/libraries/FunctionsRequest.sol\":2381:2398  self.codeLocation */\n      dup3\n      mload\n        /* \"@chainlink/contracts/src/v0.8/functions/v1_0_0/libraries/FunctionsRequest.sol\":2353:2400  buffer.writeUInt256(uint256(self.codeLocation)) */\n      tag_284\n      swap1\n        /* \"@chainlink/contracts/src/v0.8/functions/v1_0_0/libraries/FunctionsRequest.sol\":2373:2399  uint256(self.codeLocation) */\n      0x02\n      dup2\n      gt\n      iszero\n      tag_286\n      jumpi\n      tag_286\n      tag_155\n      jump\t// in\n    tag_286:\n        /* \"@chainlink/contracts/src/v0.8/functions/v1_0_0/libraries/FunctionsRequest.sol\":2353:2359  buffer */\n      dup3\n      swap1\n        /* \"@chainlink/contracts/src/v0.8/functions/v1_0_0/libraries/FunctionsRequest.sol\":2353:2372  buffer.writeUInt256 */\n      tag_287\n        /* \"@chainlink/contracts/src/v0.8/functions/v1_0_0/libraries/FunctionsRequest.sol\":2353:2400  buffer.writeUInt256(uint256(self.codeLocation)) */\n      jump\t// in\n    tag_284:\n        /* \"@chainlink/contracts/src/v0.8/functions/v1_0_0/libraries/FunctionsRequest.sol\":2407:2437  buffer.writeString(\"language\") */\n      0x40\n      dup1\n      mload\n      dup1\n      dup3\n      add\n      swap1\n      swap2\n      mstore\n      0x08\n      dup2\n      mstore\n      shl(0xc0, 0x6c616e6775616765)\n      0x20\n      dup3\n      add\n      mstore\n      tag_288\n      swap1\n        /* \"@chainlink/contracts/src/v0.8/functions/v1_0_0/libraries/FunctionsRequest.sol\":2407:2413  buffer */\n      dup3\n      swap1\n        /* \"@chainlink/contracts/src/v0.8/functions/v1_0_0/libraries/FunctionsRequest.sol\":2407:2425  buffer.writeString */\n      tag_283\n        /* \"@chainlink/contracts/src/v0.8/functions/v1_0_0/libraries/FunctionsRequest.sol\":2407:2437  buffer.writeString(\"language\") */\n      jump\t// in\n    tag_288:\n        /* \"@chainlink/contracts/src/v0.8/functions/v1_0_0/libraries/FunctionsRequest.sol\":2471:2484  self.language */\n      0x40\n      dup4\n      add\n      mload\n        /* \"@chainlink/contracts/src/v0.8/functions/v1_0_0/libraries/FunctionsRequest.sol\":2443:2486  buffer.writeUInt256(uint256(self.language)) */\n      tag_289\n      swap1\n        /* \"@chainlink/contracts/src/v0.8/functions/v1_0_0/libraries/FunctionsRequest.sol\":2463:2485  uint256(self.language) */\n      dup1\n      iszero\n      tag_286\n      jumpi\n      tag_286\n      tag_155\n      jump\t// in\n        /* \"@chainlink/contracts/src/v0.8/functions/v1_0_0/libraries/FunctionsRequest.sol\":2443:2486  buffer.writeUInt256(uint256(self.language)) */\n    tag_289:\n        /* \"@chainlink/contracts/src/v0.8/functions/v1_0_0/libraries/FunctionsRequest.sol\":2493:2521  buffer.writeString(\"source\") */\n      0x40\n      dup1\n      mload\n      dup1\n      dup3\n      add\n      swap1\n      swap2\n      mstore\n      0x06\n      dup2\n      mstore\n      shl(0xd0, 0x736f75726365)\n      0x20\n      dup3\n      add\n      mstore\n      tag_292\n      swap1\n        /* \"@chainlink/contracts/src/v0.8/functions/v1_0_0/libraries/FunctionsRequest.sol\":2493:2499  buffer */\n      dup3\n      swap1\n        /* \"@chainlink/contracts/src/v0.8/functions/v1_0_0/libraries/FunctionsRequest.sol\":2493:2511  buffer.writeString */\n      tag_283\n        /* \"@chainlink/contracts/src/v0.8/functions/v1_0_0/libraries/FunctionsRequest.sol\":2493:2521  buffer.writeString(\"source\") */\n      jump\t// in\n    tag_292:\n        /* \"@chainlink/contracts/src/v0.8/functions/v1_0_0/libraries/FunctionsRequest.sol\":2546:2557  self.source */\n      0x60\n      dup4\n      add\n      mload\n        /* \"@chainlink/contracts/src/v0.8/functions/v1_0_0/libraries/FunctionsRequest.sol\":2527:2558  buffer.writeString(self.source) */\n      tag_293\n      swap1\n        /* \"@chainlink/contracts/src/v0.8/functions/v1_0_0/libraries/FunctionsRequest.sol\":2527:2533  buffer */\n      dup3\n      swap1\n        /* \"@chainlink/contracts/src/v0.8/functions/v1_0_0/libraries/FunctionsRequest.sol\":2527:2545  buffer.writeString */\n      tag_283\n        /* \"@chainlink/contracts/src/v0.8/functions/v1_0_0/libraries/FunctionsRequest.sol\":2527:2558  buffer.writeString(self.source) */\n      jump\t// in\n    tag_293:\n        /* \"@chainlink/contracts/src/v0.8/functions/v1_0_0/libraries/FunctionsRequest.sol\":2569:2578  self.args */\n      0xa0\n      dup4\n      add\n      mload\n        /* \"@chainlink/contracts/src/v0.8/functions/v1_0_0/libraries/FunctionsRequest.sol\":2569:2585  self.args.length */\n      mload\n        /* \"@chainlink/contracts/src/v0.8/functions/v1_0_0/libraries/FunctionsRequest.sol\":2569:2589  self.args.length > 0 */\n      iszero\n        /* \"@chainlink/contracts/src/v0.8/functions/v1_0_0/libraries/FunctionsRequest.sol\":2565:2792  if (self.args.length > 0) {... */\n      tag_305\n      jumpi\n        /* \"@chainlink/contracts/src/v0.8/functions/v1_0_0/libraries/FunctionsRequest.sol\":2599:2625  buffer.writeString(\"args\") */\n      0x40\n      dup1\n      mload\n      dup1\n      dup3\n      add\n      swap1\n      swap2\n      mstore\n      0x04\n      dup2\n      mstore\n      shl(0xe0, 0x61726773)\n      0x20\n      dup3\n      add\n      mstore\n      tag_295\n      swap1\n        /* \"@chainlink/contracts/src/v0.8/functions/v1_0_0/libraries/FunctionsRequest.sol\":2599:2605  buffer */\n      dup3\n      swap1\n        /* \"@chainlink/contracts/src/v0.8/functions/v1_0_0/libraries/FunctionsRequest.sol\":2599:2617  buffer.writeString */\n      tag_283\n        /* \"@chainlink/contracts/src/v0.8/functions/v1_0_0/libraries/FunctionsRequest.sol\":2599:2625  buffer.writeString(\"args\") */\n      jump\t// in\n    tag_295:\n        /* \"@chainlink/contracts/src/v0.8/functions/v1_0_0/libraries/FunctionsRequest.sol\":2633:2652  buffer.startArray() */\n      tag_296\n        /* \"@chainlink/contracts/src/v0.8/functions/v1_0_0/libraries/FunctionsRequest.sol\":2633:2639  buffer */\n      dup2\n        /* \"@chainlink/contracts/src/v0.8/functions/v1_0_0/libraries/FunctionsRequest.sol\":2633:2650  buffer.startArray */\n      tag_297\n        /* \"@chainlink/contracts/src/v0.8/functions/v1_0_0/libraries/FunctionsRequest.sol\":2633:2652  buffer.startArray() */\n      jump\t// in\n    tag_296:\n        /* \"@chainlink/contracts/src/v0.8/functions/v1_0_0/libraries/FunctionsRequest.sol\":2665:2674  uint256 i */\n      0x00\n        /* \"@chainlink/contracts/src/v0.8/functions/v1_0_0/libraries/FunctionsRequest.sol\":2660:2758  for (uint256 i = 0; i < self.args.length; ++i) {... */\n    tag_298:\n        /* \"@chainlink/contracts/src/v0.8/functions/v1_0_0/libraries/FunctionsRequest.sol\":2684:2688  self */\n      dup4\n        /* \"@chainlink/contracts/src/v0.8/functions/v1_0_0/libraries/FunctionsRequest.sol\":2684:2693  self.args */\n      0xa0\n      add\n      mload\n        /* \"@chainlink/contracts/src/v0.8/functions/v1_0_0/libraries/FunctionsRequest.sol\":2684:2700  self.args.length */\n      mload\n        /* \"@chainlink/contracts/src/v0.8/functions/v1_0_0/libraries/FunctionsRequest.sol\":2680:2681  i */\n      dup2\n        /* \"@chainlink/contracts/src/v0.8/functions/v1_0_0/libraries/FunctionsRequest.sol\":2680:2700  i < self.args.length */\n      lt\n        /* \"@chainlink/contracts/src/v0.8/functions/v1_0_0/libraries/FunctionsRequest.sol\":2660:2758  for (uint256 i = 0; i < self.args.length; ++i) {... */\n      iszero\n      tag_299\n      jumpi\n        /* \"@chainlink/contracts/src/v0.8/functions/v1_0_0/libraries/FunctionsRequest.sol\":2717:2749  buffer.writeString(self.args[i]) */\n      tag_301\n        /* \"@chainlink/contracts/src/v0.8/functions/v1_0_0/libraries/FunctionsRequest.sol\":2736:2740  self */\n      dup5\n        /* \"@chainlink/contracts/src/v0.8/functions/v1_0_0/libraries/FunctionsRequest.sol\":2736:2745  self.args */\n      0xa0\n      add\n      mload\n        /* \"@chainlink/contracts/src/v0.8/functions/v1_0_0/libraries/FunctionsRequest.sol\":2746:2747  i */\n      dup3\n        /* \"@chainlink/contracts/src/v0.8/functions/v1_0_0/libraries/FunctionsRequest.sol\":2736:2748  self.args[i] */\n      dup2\n      mload\n      dup2\n      lt\n      tag_303\n      jumpi\n      tag_303\n      tag_304\n      jump\t// in\n    tag_303:\n      0x20\n      mul\n      0x20\n      add\n      add\n      mload\n        /* \"@chainlink/contracts/src/v0.8/functions/v1_0_0/libraries/FunctionsRequest.sol\":2717:2723  buffer */\n      dup4\n        /* \"@chainlink/contracts/src/v0.8/functions/v1_0_0/libraries/FunctionsRequest.sol\":2717:2735  buffer.writeString */\n      tag_283\n      swap1\n        /* \"@chainlink/contracts/src/v0.8/functions/v1_0_0/libraries/FunctionsRequest.sol\":2717:2749  buffer.writeString(self.args[i]) */\n      swap2\n      swap1\n      0xffffffff\n      and\n      jump\t// in\n    tag_301:\n        /* \"@chainlink/contracts/src/v0.8/functions/v1_0_0/libraries/FunctionsRequest.sol\":2702:2705  ++i */\n      0x01\n      add\n        /* \"@chainlink/contracts/src/v0.8/functions/v1_0_0/libraries/FunctionsRequest.sol\":2660:2758  for (uint256 i = 0; i < self.args.length; ++i) {... */\n      jump(tag_298)\n    tag_299:\n      pop\n        /* \"@chainlink/contracts/src/v0.8/functions/v1_0_0/libraries/FunctionsRequest.sol\":2765:2785  buffer.endSequence() */\n      tag_305\n        /* \"@chainlink/contracts/src/v0.8/functions/v1_0_0/libraries/FunctionsRequest.sol\":2765:2771  buffer */\n      dup2\n        /* \"@chainlink/contracts/src/v0.8/functions/v1_0_0/libraries/FunctionsRequest.sol\":2765:2783  buffer.endSequence */\n      tag_306\n        /* \"@chainlink/contracts/src/v0.8/functions/v1_0_0/libraries/FunctionsRequest.sol\":2765:2785  buffer.endSequence() */\n      jump\t// in\n    tag_305:\n        /* \"@chainlink/contracts/src/v0.8/functions/v1_0_0/libraries/FunctionsRequest.sol\":2802:2832  self.encryptedSecretsReference */\n      0x80\n      dup4\n      add\n      mload\n        /* \"@chainlink/contracts/src/v0.8/functions/v1_0_0/libraries/FunctionsRequest.sol\":2802:2839  self.encryptedSecretsReference.length */\n      mload\n        /* \"@chainlink/contracts/src/v0.8/functions/v1_0_0/libraries/FunctionsRequest.sol\":2802:2843  self.encryptedSecretsReference.length > 0 */\n      iszero\n        /* \"@chainlink/contracts/src/v0.8/functions/v1_0_0/libraries/FunctionsRequest.sol\":2798:3144  if (self.encryptedSecretsReference.length > 0) {... */\n      tag_318\n      jumpi\n        /* \"@chainlink/contracts/src/v0.8/functions/v1_0_0/libraries/FunctionsRequest.sol\":2881:2896  Location.Inline */\n      0x00\n        /* \"@chainlink/contracts/src/v0.8/functions/v1_0_0/libraries/FunctionsRequest.sol\":2857:2861  self */\n      dup4\n        /* \"@chainlink/contracts/src/v0.8/functions/v1_0_0/libraries/FunctionsRequest.sol\":2857:2877  self.secretsLocation */\n      0x20\n      add\n      mload\n        /* \"@chainlink/contracts/src/v0.8/functions/v1_0_0/libraries/FunctionsRequest.sol\":2857:2896  self.secretsLocation == Location.Inline */\n      0x02\n      dup2\n      gt\n      iszero\n      tag_311\n      jumpi\n      tag_311\n      tag_155\n      jump\t// in\n    tag_311:\n      sub\n        /* \"@chainlink/contracts/src/v0.8/functions/v1_0_0/libraries/FunctionsRequest.sol\":2853:2941  if (self.secretsLocation == Location.Inline) {... */\n      tag_312\n      jumpi\n        /* \"@chainlink/contracts/src/v0.8/functions/v1_0_0/libraries/FunctionsRequest.sol\":2915:2932  NoInlineSecrets() */\n      mload(0x40)\n      shl(0xe0, 0xa80d31f7)\n      dup2\n      mstore\n      0x04\n      add\n      mload(0x40)\n      dup1\n      swap2\n      sub\n      swap1\n      revert\n        /* \"@chainlink/contracts/src/v0.8/functions/v1_0_0/libraries/FunctionsRequest.sol\":2853:2941  if (self.secretsLocation == Location.Inline) {... */\n    tag_312:\n        /* \"@chainlink/contracts/src/v0.8/functions/v1_0_0/libraries/FunctionsRequest.sol\":2948:2985  buffer.writeString(\"secretsLocation\") */\n      0x40\n      dup1\n      mload\n      dup1\n      dup3\n      add\n      swap1\n      swap2\n      mstore\n      0x0f\n      dup2\n      mstore\n      shl(0x89, 0x39b2b1b932ba39a637b1b0ba34b7b7)\n      0x20\n      dup3\n      add\n      mstore\n      tag_313\n      swap1\n        /* \"@chainlink/contracts/src/v0.8/functions/v1_0_0/libraries/FunctionsRequest.sol\":2948:2954  buffer */\n      dup3\n      swap1\n        /* \"@chainlink/contracts/src/v0.8/functions/v1_0_0/libraries/FunctionsRequest.sol\":2948:2966  buffer.writeString */\n      tag_283\n        /* \"@chainlink/contracts/src/v0.8/functions/v1_0_0/libraries/FunctionsRequest.sol\":2948:2985  buffer.writeString(\"secretsLocation\") */\n      jump\t// in\n    tag_313:\n        /* \"@chainlink/contracts/src/v0.8/functions/v1_0_0/libraries/FunctionsRequest.sol\":2993:3043  buffer.writeUInt256(uint256(self.secretsLocation)) */\n      tag_314\n        /* \"@chainlink/contracts/src/v0.8/functions/v1_0_0/libraries/FunctionsRequest.sol\":3021:3025  self */\n      dup4\n        /* \"@chainlink/contracts/src/v0.8/functions/v1_0_0/libraries/FunctionsRequest.sol\":3021:3041  self.secretsLocation */\n      0x20\n      add\n      mload\n        /* \"@chainlink/contracts/src/v0.8/functions/v1_0_0/libraries/FunctionsRequest.sol\":3013:3042  uint256(self.secretsLocation) */\n      0x02\n      dup2\n      gt\n      iszero\n      tag_286\n      jumpi\n      tag_286\n      tag_155\n      jump\t// in\n        /* \"@chainlink/contracts/src/v0.8/functions/v1_0_0/libraries/FunctionsRequest.sol\":2993:3043  buffer.writeUInt256(uint256(self.secretsLocation)) */\n    tag_314:\n        /* \"@chainlink/contracts/src/v0.8/functions/v1_0_0/libraries/FunctionsRequest.sol\":3051:3080  buffer.writeString(\"secrets\") */\n      0x40\n      dup1\n      mload\n      dup1\n      dup3\n      add\n      swap1\n      swap2\n      mstore\n      0x07\n      dup2\n      mstore\n      shl(0xc8, 0x73656372657473)\n      0x20\n      dup3\n      add\n      mstore\n      tag_317\n      swap1\n        /* \"@chainlink/contracts/src/v0.8/functions/v1_0_0/libraries/FunctionsRequest.sol\":3051:3057  buffer */\n      dup3\n      swap1\n        /* \"@chainlink/contracts/src/v0.8/functions/v1_0_0/libraries/FunctionsRequest.sol\":3051:3069  buffer.writeString */\n      tag_283\n        /* \"@chainlink/contracts/src/v0.8/functions/v1_0_0/libraries/FunctionsRequest.sol\":3051:3080  buffer.writeString(\"secrets\") */\n      jump\t// in\n    tag_317:\n        /* \"@chainlink/contracts/src/v0.8/functions/v1_0_0/libraries/FunctionsRequest.sol\":3106:3136  self.encryptedSecretsReference */\n      0x80\n      dup4\n      add\n      mload\n        /* \"@chainlink/contracts/src/v0.8/functions/v1_0_0/libraries/FunctionsRequest.sol\":3088:3137  buffer.writeBytes(self.encryptedSecretsReference) */\n      tag_318\n      swap1\n        /* \"@chainlink/contracts/src/v0.8/functions/v1_0_0/libraries/FunctionsRequest.sol\":3088:3094  buffer */\n      dup3\n      swap1\n        /* \"@chainlink/contracts/src/v0.8/functions/v1_0_0/libraries/FunctionsRequest.sol\":3088:3105  buffer.writeBytes */\n      tag_319\n        /* \"@chainlink/contracts/src/v0.8/functions/v1_0_0/libraries/FunctionsRequest.sol\":3088:3137  buffer.writeBytes(self.encryptedSecretsReference) */\n      jump\t// in\n    tag_318:\n        /* \"@chainlink/contracts/src/v0.8/functions/v1_0_0/libraries/FunctionsRequest.sol\":3154:3168  self.bytesArgs */\n      0xc0\n      dup4\n      add\n      mload\n        /* \"@chainlink/contracts/src/v0.8/functions/v1_0_0/libraries/FunctionsRequest.sol\":3154:3175  self.bytesArgs.length */\n      mload\n        /* \"@chainlink/contracts/src/v0.8/functions/v1_0_0/libraries/FunctionsRequest.sol\":3154:3179  self.bytesArgs.length > 0 */\n      iszero\n        /* \"@chainlink/contracts/src/v0.8/functions/v1_0_0/libraries/FunctionsRequest.sol\":3150:3396  if (self.bytesArgs.length > 0) {... */\n      tag_329\n      jumpi\n        /* \"@chainlink/contracts/src/v0.8/functions/v1_0_0/libraries/FunctionsRequest.sol\":3189:3220  buffer.writeString(\"bytesArgs\") */\n      0x40\n      dup1\n      mload\n      dup1\n      dup3\n      add\n      swap1\n      swap2\n      mstore\n      0x09\n      dup2\n      mstore\n      shl(0xb8, 0x627974657341726773)\n      0x20\n      dup3\n      add\n      mstore\n      tag_321\n      swap1\n        /* \"@chainlink/contracts/src/v0.8/functions/v1_0_0/libraries/FunctionsRequest.sol\":3189:3195  buffer */\n      dup3\n      swap1\n        /* \"@chainlink/contracts/src/v0.8/functions/v1_0_0/libraries/FunctionsRequest.sol\":3189:3207  buffer.writeString */\n      tag_283\n        /* \"@chainlink/contracts/src/v0.8/functions/v1_0_0/libraries/FunctionsRequest.sol\":3189:3220  buffer.writeString(\"bytesArgs\") */\n      jump\t// in\n    tag_321:\n        /* \"@chainlink/contracts/src/v0.8/functions/v1_0_0/libraries/FunctionsRequest.sol\":3228:3247  buffer.startArray() */\n      tag_322\n        /* \"@chainlink/contracts/src/v0.8/functions/v1_0_0/libraries/FunctionsRequest.sol\":3228:3234  buffer */\n      dup2\n        /* \"@chainlink/contracts/src/v0.8/functions/v1_0_0/libraries/FunctionsRequest.sol\":3228:3245  buffer.startArray */\n      tag_297\n        /* \"@chainlink/contracts/src/v0.8/functions/v1_0_0/libraries/FunctionsRequest.sol\":3228:3247  buffer.startArray() */\n      jump\t// in\n    tag_322:\n        /* \"@chainlink/contracts/src/v0.8/functions/v1_0_0/libraries/FunctionsRequest.sol\":3260:3269  uint256 i */\n      0x00\n        /* \"@chainlink/contracts/src/v0.8/functions/v1_0_0/libraries/FunctionsRequest.sol\":3255:3362  for (uint256 i = 0; i < self.bytesArgs.length; ++i) {... */\n    tag_323:\n        /* \"@chainlink/contracts/src/v0.8/functions/v1_0_0/libraries/FunctionsRequest.sol\":3279:3283  self */\n      dup4\n        /* \"@chainlink/contracts/src/v0.8/functions/v1_0_0/libraries/FunctionsRequest.sol\":3279:3293  self.bytesArgs */\n      0xc0\n      add\n      mload\n        /* \"@chainlink/contracts/src/v0.8/functions/v1_0_0/libraries/FunctionsRequest.sol\":3279:3300  self.bytesArgs.length */\n      mload\n        /* \"@chainlink/contracts/src/v0.8/functions/v1_0_0/libraries/FunctionsRequest.sol\":3275:3276  i */\n      dup2\n        /* \"@chainlink/contracts/src/v0.8/functions/v1_0_0/libraries/FunctionsRequest.sol\":3275:3300  i < self.bytesArgs.length */\n      lt\n        /* \"@chainlink/contracts/src/v0.8/functions/v1_0_0/libraries/FunctionsRequest.sol\":3255:3362  for (uint256 i = 0; i < self.bytesArgs.length; ++i) {... */\n      iszero\n      tag_324\n      jumpi\n        /* \"@chainlink/contracts/src/v0.8/functions/v1_0_0/libraries/FunctionsRequest.sol\":3317:3353  buffer.writeBytes(self.bytesArgs[i]) */\n      tag_326\n        /* \"@chainlink/contracts/src/v0.8/functions/v1_0_0/libraries/FunctionsRequest.sol\":3335:3339  self */\n      dup5\n        /* \"@chainlink/contracts/src/v0.8/functions/v1_0_0/libraries/FunctionsRequest.sol\":3335:3349  self.bytesArgs */\n      0xc0\n      add\n      mload\n        /* \"@chainlink/contracts/src/v0.8/functions/v1_0_0/libraries/FunctionsRequest.sol\":3350:3351  i */\n      dup3\n        /* \"@chainlink/contracts/src/v0.8/functions/v1_0_0/libraries/FunctionsRequest.sol\":3335:3352  self.bytesArgs[i] */\n      dup2\n      mload\n      dup2\n      lt\n      tag_328\n      jumpi\n      tag_328\n      tag_304\n      jump\t// in\n    tag_328:\n      0x20\n      mul\n      0x20\n      add\n      add\n      mload\n        /* \"@chainlink/contracts/src/v0.8/functions/v1_0_0/libraries/FunctionsRequest.sol\":3317:3323  buffer */\n      dup4\n        /* \"@chainlink/contracts/src/v0.8/functions/v1_0_0/libraries/FunctionsRequest.sol\":3317:3334  buffer.writeBytes */\n      tag_319\n      swap1\n        /* \"@chainlink/contracts/src/v0.8/functions/v1_0_0/libraries/FunctionsRequest.sol\":3317:3353  buffer.writeBytes(self.bytesArgs[i]) */\n      swap2\n      swap1\n      0xffffffff\n      and\n      jump\t// in\n    tag_326:\n        /* \"@chainlink/contracts/src/v0.8/functions/v1_0_0/libraries/FunctionsRequest.sol\":3302:3305  ++i */\n      0x01\n      add\n        /* \"@chainlink/contracts/src/v0.8/functions/v1_0_0/libraries/FunctionsRequest.sol\":3255:3362  for (uint256 i = 0; i < self.bytesArgs.length; ++i) {... */\n      jump(tag_323)\n    tag_324:\n      pop\n        /* \"@chainlink/contracts/src/v0.8/functions/v1_0_0/libraries/FunctionsRequest.sol\":3369:3389  buffer.endSequence() */\n      tag_329\n        /* \"@chainlink/contracts/src/v0.8/functions/v1_0_0/libraries/FunctionsRequest.sol\":3369:3375  buffer */\n      dup2\n        /* \"@chainlink/contracts/src/v0.8/functions/v1_0_0/libraries/FunctionsRequest.sol\":3369:3387  buffer.endSequence */\n      tag_306\n        /* \"@chainlink/contracts/src/v0.8/functions/v1_0_0/libraries/FunctionsRequest.sol\":3369:3389  buffer.endSequence() */\n      jump\t// in\n    tag_329:\n        /* \"@chainlink/contracts/src/v0.8/functions/v1_0_0/libraries/FunctionsRequest.sol\":3409:3419  buffer.buf */\n      mload\n        /* \"@chainlink/contracts/src/v0.8/functions/v1_0_0/libraries/FunctionsRequest.sol\":3409:3423  buffer.buf.buf */\n      mload\n      swap3\n        /* \"@chainlink/contracts/src/v0.8/functions/v1_0_0/libraries/FunctionsRequest.sol\":2158:3428  function encodeCBOR(Request memory self) internal pure returns (bytes memory) {... */\n      swap2\n      pop\n      pop\n      jump\t// out\n        /* \"@chainlink/contracts/src/v0.8/functions/v1_0_0/FunctionsClient.sol\":1158:1537  function _sendRequest(... */\n    tag_152:\n        /* \"@chainlink/contracts/src/v0.8/functions/v1_0_0/FunctionsClient.sol\":1300:1307  bytes32 */\n      0x00\n        /* \"@chainlink/contracts/src/v0.8/functions/v1_0_0/FunctionsClient.sol\":1315:1332  bytes32 requestId */\n      dup1\n        /* \"@chainlink/contracts/src/v0.8/functions/v1_0_0/FunctionsClient.sol\":1335:1343  i_router */\n      immutable(\"0x8e8fab5f003314da8d1873ea7720e8d9f47650136d916064d1edb8a11d682624\")\n      sub(shl(0xa0, 0x01), 0x01)\n        /* \"@chainlink/contracts/src/v0.8/functions/v1_0_0/FunctionsClient.sol\":1335:1355  i_router.sendRequest */\n      and\n      0x461d2762\n        /* \"@chainlink/contracts/src/v0.8/functions/v1_0_0/FunctionsClient.sol\":1363:1377  subscriptionId */\n      dup7\n        /* \"@chainlink/contracts/src/v0.8/functions/v1_0_0/FunctionsClient.sol\":1385:1389  data */\n      dup9\n        /* \"@chainlink/contracts/src/v0.8/functions/v1_0_0/libraries/FunctionsRequest.sol\":322:323  1 */\n      0x01\n        /* \"@chainlink/contracts/src/v0.8/functions/v1_0_0/FunctionsClient.sol\":1442:1458  callbackGasLimit */\n      dup9\n        /* \"@chainlink/contracts/src/v0.8/functions/v1_0_0/FunctionsClient.sol\":1466:1471  donId */\n      dup9\n        /* \"@chainlink/contracts/src/v0.8/functions/v1_0_0/FunctionsClient.sol\":1335:1477  i_router.sendRequest(... */\n      mload(0x40)\n      dup7\n      0xffffffff\n      and\n      0xe0\n      shl\n      dup2\n      mstore\n      0x04\n      add\n      tag_331\n      swap6\n      swap5\n      swap4\n      swap3\n      swap2\n      swap1\n      tag_332\n      jump\t// in\n    tag_331:\n      0x20\n      mload(0x40)\n      dup1\n      dup4\n      sub\n      dup2\n      0x00\n      dup8\n      gas\n      call\n      iszero\n      dup1\n      iszero\n      tag_334\n      jumpi\n      returndatasize\n      0x00\n      dup1\n      returndatacopy\n      revert(0x00, returndatasize)\n    tag_334:\n      pop\n      pop\n      pop\n      pop\n      mload(0x40)\n      returndatasize\n      not(0x1f)\n      0x1f\n      dup3\n      add\n      and\n      dup3\n      add\n      dup1\n      0x40\n      mstore\n      pop\n      dup2\n      add\n      swap1\n      tag_335\n      swap2\n      swap1\n      tag_336\n      jump\t// in\n    tag_335:\n        /* \"@chainlink/contracts/src/v0.8/functions/v1_0_0/FunctionsClient.sol\":1488:1510  RequestSent(requestId) */\n      mload(0x40)\n        /* \"@chainlink/contracts/src/v0.8/functions/v1_0_0/FunctionsClient.sol\":1315:1477  bytes32 requestId = i_router.sendRequest(... */\n      swap1\n      swap2\n      pop\n      dup2\n      swap1\n        /* \"@chainlink/contracts/src/v0.8/functions/v1_0_0/FunctionsClient.sol\":1488:1510  RequestSent(requestId) */\n      0x1131472297a800fee664d1d89cfa8f7676ff07189ecc53f80bbb5f4969099db8\n      swap1\n      0x00\n      swap1\n      log2\n        /* \"@chainlink/contracts/src/v0.8/functions/v1_0_0/FunctionsClient.sol\":1523:1532  requestId */\n      swap6\n        /* \"@chainlink/contracts/src/v0.8/functions/v1_0_0/FunctionsClient.sol\":1158:1537  function _sendRequest(... */\n      swap5\n      pop\n      pop\n      pop\n      pop\n      pop\n      jump\t// out\n        /* \"oracle/UBI4ALLCustomOracle.sol\":7810:8288  function getPriceScript() internal pure returns (string memory) {... */\n    tag_177:\n        /* \"oracle/UBI4ALLCustomOracle.sol\":7859:7872  string memory */\n      0x60\n        /* \"oracle/UBI4ALLCustomOracle.sol\":7884:8281  return... */\n      mload(0x40)\n      dup1\n      0x0140\n      add\n      0x40\n      mstore\n      dup1\n      0x011e\n      dup2\n      mstore\n      0x20\n      add\n      data_7228114aca61f82be22a8910f18d5617eeb90a2c42f342782532c0df0a1e8548\n      0x011e\n      swap2\n      codecopy\n      swap1\n      pop\n        /* \"oracle/UBI4ALLCustomOracle.sol\":7810:8288  function getPriceScript() internal pure returns (string memory) {... */\n      swap1\n      jump\t// out\n        /* \"oracle/UBI4ALLCustomOracle.sol\":8361:8987  function getReputationScript(address _user) internal pure returns (string memory) {... */\n    tag_204:\n        /* \"oracle/UBI4ALLCustomOracle.sol\":8428:8441  string memory */\n      0x60\n        /* \"oracle/UBI4ALLCustomOracle.sol\":8532:8550  toHexString(_user) */\n      tag_339\n        /* \"oracle/UBI4ALLCustomOracle.sol\":8544:8549  _user */\n      dup3\n        /* \"oracle/UBI4ALLCustomOracle.sol\":8532:8543  toHexString */\n      tag_271\n        /* \"oracle/UBI4ALLCustomOracle.sol\":8532:8550  toHexString(_user) */\n      jump\t// in\n    tag_339:\n        /* \"oracle/UBI4ALLCustomOracle.sol\":8480:8970  abi.encodePacked(... */\n      add(0x20, mload(0x40))\n      tag_340\n      swap2\n      swap1\n      tag_341\n      jump\t// in\n    tag_340:\n      mload(0x40)\n      0x20\n      dup2\n      dup4\n      sub\n      sub\n      dup2\n      mstore\n      swap1\n      0x40\n      mstore\n        /* \"oracle/UBI4ALLCustomOracle.sol\":8453:8980  return string(... */\n      swap1\n      pop\n        /* \"oracle/UBI4ALLCustomOracle.sol\":8361:8987  function getReputationScript(address _user) internal pure returns (string memory) {... */\n      swap2\n      swap1\n      pop\n      jump\t// out\n        /* \"oracle/UBI4ALLCustomOracle.sol\":9844:10668  function toHexString(address addr) internal pure returns (string memory) {... */\n    tag_271:\n        /* \"oracle/UBI4ALLCustomOracle.sol\":9952:9974  abi.encodePacked(addr) */\n      mload(0x40)\n        /* \"oracle/UBI4ALLCustomOracle.sol\":9902:9915  string memory */\n      0x60\n        /* \"#utility.yul\":13094:13109   */\n      dup3\n      dup2\n      shl\n      not(0xffffffffffffffffffffffff)\n        /* \"#utility.yul\":13090:13143   */\n      and\n        /* \"oracle/UBI4ALLCustomOracle.sol\":9952:9974  abi.encodePacked(addr) */\n      0x20\n      dup4\n      add\n        /* \"#utility.yul\":13078:13144   */\n      mstore\n        /* \"oracle/UBI4ALLCustomOracle.sol\":9902:9915  string memory */\n      swap1\n        /* \"oracle/UBI4ALLCustomOracle.sol\":9927:9949  bytes memory addrBytes */\n      0x00\n      swap1\n        /* \"#utility.yul\":13160:13172   */\n      0x34\n      add\n        /* \"oracle/UBI4ALLCustomOracle.sol\":9952:9974  abi.encodePacked(addr) */\n      0x40\n      dup1\n      mload\n      dup1\n      dup4\n      sub\n      not(0x1f)\n      add\n      dup2\n      mstore\n        /* \"oracle/UBI4ALLCustomOracle.sol\":10049:10344  bytes1[16] memory hexChars = [... */\n      0x0200\n      dup4\n      add\n      dup3\n      mstore\n      shl(0xfc, 0x03)\n      dup4\n      mstore\n      shl(0xf8, 0x31)\n        /* \"oracle/UBI4ALLCustomOracle.sol\":9952:9974  abi.encodePacked(addr) */\n      0x20\n        /* \"oracle/UBI4ALLCustomOracle.sol\":10049:10344  bytes1[16] memory hexChars = [... */\n      dup5\n      add\n      mstore\n      shl(0xf9, 0x19)\n      dup4\n      dup4\n      add\n      mstore\n      shl(0xf8, 0x33)\n      0x60\n      dup1\n      dup6\n      add\n      swap2\n      swap1\n      swap2\n      mstore\n      shl(0xfa, 0x0d)\n      0x80\n      dup6\n      add\n      mstore\n      shl(0xf8, 0x35)\n      0xa0\n      dup6\n      add\n      mstore\n      shl(0xf9, 0x1b)\n      0xc0\n      dup6\n      add\n      mstore\n      shl(0xf8, 0x37)\n      0xe0\n      dup6\n      add\n      mstore\n      shl(0xfb, 0x07)\n      0x0100\n      dup6\n      add\n      mstore\n      shl(0xf8, 0x39)\n      0x0120\n      dup6\n      add\n      mstore\n      shl(0xf8, 0x61)\n      0x0140\n      dup6\n      add\n      mstore\n      shl(0xf9, 0x31)\n      0x0160\n      dup6\n      add\n      mstore\n      shl(0xf8, 0x63)\n      0x0180\n      dup6\n      add\n      mstore\n      shl(0xfa, 0x19)\n      0x01a0\n      dup6\n      add\n      mstore\n      shl(0xf8, 0x65)\n      0x01c0\n      dup6\n      add\n      mstore\n      shl(0xf9, 0x33)\n      0x01e0\n      dup6\n      add\n      mstore\n        /* \"oracle/UBI4ALLCustomOracle.sol\":10376:10389  new bytes(42) */\n      dup3\n      mload\n        /* \"oracle/UBI4ALLCustomOracle.sol\":10386:10388  42 */\n      0x2a\n        /* \"oracle/UBI4ALLCustomOracle.sol\":10376:10389  new bytes(42) */\n      dup1\n      dup3\n      mstore\n      swap2\n      dup2\n      add\n      swap1\n      swap4\n      mstore\n        /* \"oracle/UBI4ALLCustomOracle.sol\":9952:9974  abi.encodePacked(addr) */\n      swap1\n      swap4\n      pop\n      0x00\n      swap2\n        /* \"oracle/UBI4ALLCustomOracle.sol\":10376:10389  new bytes(42) */\n      swap1\n      0x20\n      dup3\n      add\n      dup2\n      dup1\n      calldatasize\n      dup4\n      calldatacopy\n      add\n      swap1\n      pop\n      pop\n        /* \"oracle/UBI4ALLCustomOracle.sol\":10354:10389  bytes memory result = new bytes(42) */\n      swap1\n      pop\n      shl(0xfc, 0x03)\n        /* \"oracle/UBI4ALLCustomOracle.sol\":10399:10405  result */\n      dup2\n        /* \"oracle/UBI4ALLCustomOracle.sol\":10406:10407  0 */\n      0x00\n        /* \"oracle/UBI4ALLCustomOracle.sol\":10399:10408  result[0] */\n      dup2\n      mload\n      dup2\n      lt\n      tag_351\n      jumpi\n      tag_351\n      tag_304\n      jump\t// in\n    tag_351:\n      0x20\n      add\n      add\n        /* \"oracle/UBI4ALLCustomOracle.sol\":10399:10414  result[0] = \"0\" */\n      swap1\n      not(sub(shl(0xf8, 0x01), 0x01))\n      and\n      swap1\n      dup2\n      0x00\n      byte\n      swap1\n      mstore8\n      pop\n      shl(0xfb, 0x0f)\n        /* \"oracle/UBI4ALLCustomOracle.sol\":10424:10430  result */\n      dup2\n        /* \"oracle/UBI4ALLCustomOracle.sol\":10431:10432  1 */\n      0x01\n        /* \"oracle/UBI4ALLCustomOracle.sol\":10424:10433  result[1] */\n      dup2\n      mload\n      dup2\n      lt\n      tag_353\n      jumpi\n      tag_353\n      tag_304\n      jump\t// in\n    tag_353:\n      0x20\n      add\n      add\n        /* \"oracle/UBI4ALLCustomOracle.sol\":10424:10439  result[1] = \"x\" */\n      swap1\n      not(sub(shl(0xf8, 0x01), 0x01))\n      and\n      swap1\n      dup2\n      0x00\n      byte\n      swap1\n      mstore8\n      pop\n        /* \"oracle/UBI4ALLCustomOracle.sol\":10454:10463  uint256 i */\n      0x00\n        /* \"oracle/UBI4ALLCustomOracle.sol\":10449:10631  for (uint256 i = 0; i < 20; i++) {... */\n    tag_354:\n        /* \"oracle/UBI4ALLCustomOracle.sol\":10473:10475  20 */\n      0x14\n        /* \"oracle/UBI4ALLCustomOracle.sol\":10469:10470  i */\n      dup2\n        /* \"oracle/UBI4ALLCustomOracle.sol\":10469:10475  i < 20 */\n      lt\n        /* \"oracle/UBI4ALLCustomOracle.sol\":10449:10631  for (uint256 i = 0; i < 20; i++) {... */\n      iszero\n      tag_355\n      jumpi\n        /* \"oracle/UBI4ALLCustomOracle.sol\":10516:10524  hexChars */\n      dup3\n        /* \"oracle/UBI4ALLCustomOracle.sol\":10547:10548  4 */\n      0x04\n        /* \"oracle/UBI4ALLCustomOracle.sol\":10531:10540  addrBytes */\n      dup6\n        /* \"oracle/UBI4ALLCustomOracle.sol\":10541:10542  i */\n      dup4\n        /* \"oracle/UBI4ALLCustomOracle.sol\":10531:10543  addrBytes[i] */\n      dup2\n      mload\n      dup2\n      lt\n      tag_358\n      jumpi\n      tag_358\n      tag_304\n      jump\t// in\n    tag_358:\n      add\n      0x20\n      add\n      mload\n      not(sub(shl(0xf8, 0x01), 0x01))\n      and\n        /* \"oracle/UBI4ALLCustomOracle.sol\":10531:10548  addrBytes[i] >> 4 */\n      swap1\n      shr\n        /* \"oracle/UBI4ALLCustomOracle.sol\":10531:10543  addrBytes[i] */\n      0xf8\n        /* \"oracle/UBI4ALLCustomOracle.sol\":10525:10549  uint8(addrBytes[i] >> 4) */\n      shr\n        /* \"oracle/UBI4ALLCustomOracle.sol\":10516:10550  hexChars[uint8(addrBytes[i] >> 4)] */\n      0x10\n      dup2\n      lt\n      tag_360\n      jumpi\n      tag_360\n      tag_304\n      jump\t// in\n    tag_360:\n      0x20\n      mul\n      add\n      mload\n        /* \"oracle/UBI4ALLCustomOracle.sol\":10496:10502  result */\n      dup3\n        /* \"oracle/UBI4ALLCustomOracle.sol\":10507:10512  i * 2 */\n      tag_361\n        /* \"oracle/UBI4ALLCustomOracle.sol\":10507:10508  i */\n      dup4\n        /* \"oracle/UBI4ALLCustomOracle.sol\":10511:10512  2 */\n      0x02\n        /* \"oracle/UBI4ALLCustomOracle.sol\":10507:10512  i * 2 */\n      tag_362\n      jump\t// in\n    tag_361:\n        /* \"oracle/UBI4ALLCustomOracle.sol\":10503:10512  2 + i * 2 */\n      tag_363\n      swap1\n        /* \"oracle/UBI4ALLCustomOracle.sol\":10503:10504  2 */\n      0x02\n        /* \"oracle/UBI4ALLCustomOracle.sol\":10503:10512  2 + i * 2 */\n      tag_364\n      jump\t// in\n    tag_363:\n        /* \"oracle/UBI4ALLCustomOracle.sol\":10496:10513  result[2 + i * 2] */\n      dup2\n      mload\n      dup2\n      lt\n      tag_366\n      jumpi\n      tag_366\n      tag_304\n      jump\t// in\n    tag_366:\n      0x20\n      add\n      add\n        /* \"oracle/UBI4ALLCustomOracle.sol\":10496:10550  result[2 + i * 2] = hexChars[uint8(addrBytes[i] >> 4)] */\n      swap1\n      not(sub(shl(0xf8, 0x01), 0x01))\n      and\n      swap1\n      dup2\n      0x00\n      byte\n      swap1\n      mstore8\n      pop\n        /* \"oracle/UBI4ALLCustomOracle.sol\":10584:10592  hexChars */\n      dup3\n        /* \"oracle/UBI4ALLCustomOracle.sol\":10599:10608  addrBytes */\n      dup5\n        /* \"oracle/UBI4ALLCustomOracle.sol\":10609:10610  i */\n      dup3\n        /* \"oracle/UBI4ALLCustomOracle.sol\":10599:10611  addrBytes[i] */\n      dup2\n      mload\n      dup2\n      lt\n      tag_368\n      jumpi\n      tag_368\n      tag_304\n      jump\t// in\n    tag_368:\n      0x20\n      swap2\n      add\n      add\n      mload\n      0xf8\n      shr\n        /* \"oracle/UBI4ALLCustomOracle.sol\":10614:10618  0x0f */\n      0x0f\n        /* \"oracle/UBI4ALLCustomOracle.sol\":10593:10619  uint8(addrBytes[i] & 0x0f) */\n      and\n        /* \"oracle/UBI4ALLCustomOracle.sol\":10584:10620  hexChars[uint8(addrBytes[i] & 0x0f)] */\n      0x10\n      dup2\n      lt\n      tag_370\n      jumpi\n      tag_370\n      tag_304\n      jump\t// in\n    tag_370:\n      0x20\n      mul\n      add\n      mload\n        /* \"oracle/UBI4ALLCustomOracle.sol\":10564:10570  result */\n      dup3\n        /* \"oracle/UBI4ALLCustomOracle.sol\":10575:10580  i * 2 */\n      tag_371\n        /* \"oracle/UBI4ALLCustomOracle.sol\":10575:10576  i */\n      dup4\n        /* \"oracle/UBI4ALLCustomOracle.sol\":10579:10580  2 */\n      0x02\n        /* \"oracle/UBI4ALLCustomOracle.sol\":10575:10580  i * 2 */\n      tag_362\n      jump\t// in\n    tag_371:\n        /* \"oracle/UBI4ALLCustomOracle.sol\":10571:10580  3 + i * 2 */\n      tag_372\n      swap1\n        /* \"oracle/UBI4ALLCustomOracle.sol\":10571:10572  3 */\n      0x03\n        /* \"oracle/UBI4ALLCustomOracle.sol\":10571:10580  3 + i * 2 */\n      tag_364\n      jump\t// in\n    tag_372:\n        /* \"oracle/UBI4ALLCustomOracle.sol\":10564:10581  result[3 + i * 2] */\n      dup2\n      mload\n      dup2\n      lt\n      tag_374\n      jumpi\n      tag_374\n      tag_304\n      jump\t// in\n    tag_374:\n      0x20\n      add\n      add\n        /* \"oracle/UBI4ALLCustomOracle.sol\":10564:10620  result[3 + i * 2] = hexChars[uint8(addrBytes[i] & 0x0f)] */\n      swap1\n      not(sub(shl(0xf8, 0x01), 0x01))\n      and\n      swap1\n      dup2\n      0x00\n      byte\n      swap1\n      mstore8\n      pop\n        /* \"oracle/UBI4ALLCustomOracle.sol\":10477:10480  i++ */\n      0x01\n      add\n        /* \"oracle/UBI4ALLCustomOracle.sol\":10449:10631  for (uint256 i = 0; i < 20; i++) {... */\n      jump(tag_354)\n    tag_355:\n      pop\n        /* \"oracle/UBI4ALLCustomOracle.sol\":10654:10660  result */\n      swap5\n        /* \"oracle/UBI4ALLCustomOracle.sol\":9844:10668  function toHexString(address addr) internal pure returns (string memory) {... */\n      swap4\n      pop\n      pop\n      pop\n      pop\n      jump\t// out\n        /* \"oracle/UBI4ALLCustomOracle.sol\":10674:11162  function uint256ToString(uint256 value) internal pure returns (string memory) {... */\n    tag_273:\n        /* \"oracle/UBI4ALLCustomOracle.sol\":10737:10750  string memory */\n      0x60\n        /* \"oracle/UBI4ALLCustomOracle.sol\":10766:10771  value */\n      dup2\n        /* \"oracle/UBI4ALLCustomOracle.sol\":10775:10776  0 */\n      0x00\n        /* \"oracle/UBI4ALLCustomOracle.sol\":10766:10776  value == 0 */\n      sub\n        /* \"oracle/UBI4ALLCustomOracle.sol\":10762:10788  if (value == 0) return \"0\" */\n      tag_376\n      jumpi\n      pop\n      pop\n        /* \"oracle/UBI4ALLCustomOracle.sol\":10778:10788  return \"0\" */\n      0x40\n      dup1\n      mload\n      dup1\n      dup3\n      add\n      swap1\n      swap2\n      mstore\n      0x01\n      dup2\n      mstore\n      shl(0xfc, 0x03)\n      0x20\n      dup3\n      add\n      mstore\n      swap1\n        /* \"oracle/UBI4ALLCustomOracle.sol\":10674:11162  function uint256ToString(uint256 value) internal pure returns (string memory) {... */\n      jump\t// out\n        /* \"oracle/UBI4ALLCustomOracle.sol\":10762:10788  if (value == 0) return \"0\" */\n    tag_376:\n        /* \"oracle/UBI4ALLCustomOracle.sol\":10813:10818  value */\n      dup2\n        /* \"oracle/UBI4ALLCustomOracle.sol\":10798:10810  uint256 temp */\n      0x00\n        /* \"oracle/UBI4ALLCustomOracle.sol\":10852:10927  while (temp != 0) {... */\n    tag_377:\n        /* \"oracle/UBI4ALLCustomOracle.sol\":10859:10868  temp != 0 */\n      dup2\n      iszero\n        /* \"oracle/UBI4ALLCustomOracle.sol\":10852:10927  while (temp != 0) {... */\n      tag_378\n      jumpi\n        /* \"oracle/UBI4ALLCustomOracle.sol\":10884:10892  digits++ */\n      dup1\n      tag_379\n      dup2\n      tag_380\n      jump\t// in\n    tag_379:\n      swap2\n      pop\n        /* \"oracle/UBI4ALLCustomOracle.sol\":10906:10916  temp /= 10 */\n      tag_381\n      swap1\n      pop\n        /* \"oracle/UBI4ALLCustomOracle.sol\":10914:10916  10 */\n      0x0a\n        /* \"oracle/UBI4ALLCustomOracle.sol\":10906:10916  temp /= 10 */\n      dup4\n      tag_382\n      jump\t// in\n    tag_381:\n      swap2\n      pop\n        /* \"oracle/UBI4ALLCustomOracle.sol\":10852:10927  while (temp != 0) {... */\n      jump(tag_377)\n    tag_378:\n        /* \"oracle/UBI4ALLCustomOracle.sol\":10936:10955  bytes memory buffer */\n      0x00\n        /* \"oracle/UBI4ALLCustomOracle.sol\":10968:10974  digits */\n      dup2\n      sub(shl(0x40, 0x01), 0x01)\n        /* \"oracle/UBI4ALLCustomOracle.sol\":10958:10975  new bytes(digits) */\n      dup2\n      gt\n      iszero\n      tag_384\n      jumpi\n      tag_384\n      tag_348\n      jump\t// in\n    tag_384:\n      mload(0x40)\n      swap1\n      dup1\n      dup3\n      mstore\n      dup1\n      0x1f\n      add\n      not(0x1f)\n      and\n      0x20\n      add\n      dup3\n      add\n      0x40\n      mstore\n      dup1\n      iszero\n      tag_385\n      jumpi\n      0x20\n      dup3\n      add\n      dup2\n      dup1\n      calldatasize\n      dup4\n      calldatacopy\n      add\n      swap1\n      pop\n    tag_385:\n      pop\n        /* \"oracle/UBI4ALLCustomOracle.sol\":10936:10975  bytes memory buffer = new bytes(digits) */\n      swap1\n      pop\n        /* \"oracle/UBI4ALLCustomOracle.sol\":10985:11125  while (value != 0) {... */\n    tag_386:\n        /* \"oracle/UBI4ALLCustomOracle.sol\":10992:11002  value != 0 */\n      dup5\n      iszero\n        /* \"oracle/UBI4ALLCustomOracle.sol\":10985:11125  while (value != 0) {... */\n      tag_387\n      jumpi\n        /* \"oracle/UBI4ALLCustomOracle.sol\":11018:11026  digits-- */\n      dup2\n      tag_388\n      dup2\n      tag_389\n      jump\t// in\n    tag_388:\n      swap3\n      pop\n        /* \"oracle/UBI4ALLCustomOracle.sol\":11076:11086  value % 10 */\n      tag_390\n      swap1\n      pop\n        /* \"oracle/UBI4ALLCustomOracle.sol\":11084:11086  10 */\n      0x0a\n        /* \"oracle/UBI4ALLCustomOracle.sol\":11076:11081  value */\n      dup7\n        /* \"oracle/UBI4ALLCustomOracle.sol\":11076:11086  value % 10 */\n      tag_391\n      jump\t// in\n    tag_390:\n        /* \"oracle/UBI4ALLCustomOracle.sol\":11070:11087  48 + (value % 10) */\n      tag_392\n      swap1\n        /* \"oracle/UBI4ALLCustomOracle.sol\":11070:11072  48 */\n      0x30\n        /* \"oracle/UBI4ALLCustomOracle.sol\":11070:11087  48 + (value % 10) */\n      tag_364\n      jump\t// in\n    tag_392:\n        /* \"oracle/UBI4ALLCustomOracle.sol\":11057:11089  bytes1(uint8(48 + (value % 10))) */\n      0xf8\n      shl\n        /* \"oracle/UBI4ALLCustomOracle.sol\":11040:11046  buffer */\n      dup2\n        /* \"oracle/UBI4ALLCustomOracle.sol\":11047:11053  digits */\n      dup4\n        /* \"oracle/UBI4ALLCustomOracle.sol\":11040:11054  buffer[digits] */\n      dup2\n      mload\n      dup2\n      lt\n      tag_394\n      jumpi\n      tag_394\n      tag_304\n      jump\t// in\n    tag_394:\n      0x20\n      add\n      add\n        /* \"oracle/UBI4ALLCustomOracle.sol\":11040:11089  buffer[digits] = bytes1(uint8(48 + (value % 10))) */\n      swap1\n      not(sub(shl(0xf8, 0x01), 0x01))\n      and\n      swap1\n      dup2\n      0x00\n      byte\n      swap1\n      mstore8\n      pop\n        /* \"oracle/UBI4ALLCustomOracle.sol\":11103:11114  value /= 10 */\n      tag_395\n        /* \"oracle/UBI4ALLCustomOracle.sol\":11112:11114  10 */\n      0x0a\n        /* \"oracle/UBI4ALLCustomOracle.sol\":11103:11114  value /= 10 */\n      dup7\n      tag_382\n      jump\t// in\n    tag_395:\n      swap5\n      pop\n        /* \"oracle/UBI4ALLCustomOracle.sol\":10985:11125  while (value != 0) {... */\n      jump(tag_386)\n    tag_387:\n        /* \"oracle/UBI4ALLCustomOracle.sol\":11148:11154  buffer */\n      swap5\n        /* \"oracle/UBI4ALLCustomOracle.sol\":10674:11162  function uint256ToString(uint256 value) internal pure returns (string memory) {... */\n      swap4\n      pop\n      pop\n      pop\n      pop\n      jump\t// out\n        /* \"@chainlink/contracts/src/v0.8/functions/v1_0_0/libraries/FunctionsRequest.sol\":3777:4084  function initializeRequest(... */\n    tag_278:\n        /* \"@chainlink/contracts/src/v0.8/functions/v1_0_0/libraries/FunctionsRequest.sol\":3943:3949  source */\n      dup1\n        /* \"@chainlink/contracts/src/v0.8/functions/v1_0_0/libraries/FunctionsRequest.sol\":3937:3957  bytes(source).length */\n      mload\n        /* \"@chainlink/contracts/src/v0.8/functions/v1_0_0/libraries/FunctionsRequest.sol\":3961:3962  0 */\n      0x00\n        /* \"@chainlink/contracts/src/v0.8/functions/v1_0_0/libraries/FunctionsRequest.sol\":3937:3962  bytes(source).length == 0 */\n      sub\n        /* \"@chainlink/contracts/src/v0.8/functions/v1_0_0/libraries/FunctionsRequest.sol\":3933:3984  if (bytes(source).length == 0) revert EmptySource() */\n      tag_397\n      jumpi\n        /* \"@chainlink/contracts/src/v0.8/functions/v1_0_0/libraries/FunctionsRequest.sol\":3971:3984  EmptySource() */\n      mload(0x40)\n      shl(0xe0, 0x22ce3edd)\n      dup2\n      mstore\n      0x04\n      add\n      mload(0x40)\n      dup1\n      swap2\n      sub\n      swap1\n      revert\n        /* \"@chainlink/contracts/src/v0.8/functions/v1_0_0/libraries/FunctionsRequest.sol\":3933:3984  if (bytes(source).length == 0) revert EmptySource() */\n    tag_397:\n        /* \"@chainlink/contracts/src/v0.8/functions/v1_0_0/libraries/FunctionsRequest.sol\":3991:3995  self */\n      dup4\n        /* \"@chainlink/contracts/src/v0.8/functions/v1_0_0/libraries/FunctionsRequest.sol\":4011:4023  codeLocation */\n      dup4\n        /* \"@chainlink/contracts/src/v0.8/functions/v1_0_0/libraries/FunctionsRequest.sol\":3991:4023  self.codeLocation = codeLocation */\n      0x02\n      dup2\n      gt\n      iszero\n      tag_399\n      jumpi\n      tag_399\n      tag_155\n      jump\t// in\n    tag_399:\n      swap1\n      dup2\n      0x02\n      dup2\n      gt\n      iszero\n      tag_401\n      jumpi\n      tag_401\n      tag_155\n      jump\t// in\n    tag_401:\n      swap1\n      mstore\n      pop\n        /* \"@chainlink/contracts/src/v0.8/functions/v1_0_0/libraries/FunctionsRequest.sol\":4029:4042  self.language */\n      0x40\n      dup5\n      add\n        /* \"@chainlink/contracts/src/v0.8/functions/v1_0_0/libraries/FunctionsRequest.sol\":4045:4053  language */\n      dup3\n        /* \"@chainlink/contracts/src/v0.8/functions/v1_0_0/libraries/FunctionsRequest.sol\":4029:4053  self.language = language */\n      dup1\n      iszero\n      tag_403\n      jumpi\n      tag_403\n      tag_155\n      jump\t// in\n    tag_403:\n      swap1\n      dup2\n      dup1\n      iszero\n      tag_405\n      jumpi\n      tag_405\n      tag_155\n      jump\t// in\n    tag_405:\n      swap1\n      mstore\n      pop\n        /* \"@chainlink/contracts/src/v0.8/functions/v1_0_0/libraries/FunctionsRequest.sol\":4059:4070  self.source */\n      0x60\n      swap1\n      swap4\n      add\n        /* \"@chainlink/contracts/src/v0.8/functions/v1_0_0/libraries/FunctionsRequest.sol\":4059:4079  self.source = source */\n      swap3\n      swap1\n      swap3\n      mstore\n      pop\n      pop\n        /* \"@chainlink/contracts/src/v0.8/functions/v1_0_0/libraries/FunctionsRequest.sol\":3777:4084  function initializeRequest(... */\n      jump\t// out\n        /* \"@chainlink/contracts/src/v0.8/vendor/solidity-cborutils/v2.0.0/CBOR.sol\":1490:1663  function create(uint256 capacity) internal pure returns(CBORBuffer memory cbor) {... */\n    tag_281:\n        /* \"@chainlink/contracts/src/v0.8/vendor/solidity-cborutils/v2.0.0/CBOR.sol\":1546:1568  CBORBuffer memory cbor */\n      tag_406\n      tag_407\n      jump\t// in\n    tag_406:\n        /* \"@chainlink/contracts/src/v0.8/vendor/solidity-cborutils/v2.0.0/CBOR.sol\":1592:1600  cbor.buf */\n      dup1\n      mload\n        /* \"@chainlink/contracts/src/v0.8/vendor/solidity-cborutils/v2.0.0/CBOR.sol\":1580:1611  Buffer.init(cbor.buf, capacity) */\n      tag_409\n      swap1\n        /* \"@chainlink/contracts/src/v0.8/vendor/solidity-cborutils/v2.0.0/CBOR.sol\":1602:1610  capacity */\n      dup4\n        /* \"@chainlink/contracts/src/v0.8/vendor/solidity-cborutils/v2.0.0/CBOR.sol\":1580:1591  Buffer.init */\n      tag_410\n        /* \"@chainlink/contracts/src/v0.8/vendor/solidity-cborutils/v2.0.0/CBOR.sol\":1580:1611  Buffer.init(cbor.buf, capacity) */\n      jump\t// in\n    tag_409:\n      pop\n        /* \"@chainlink/contracts/src/v0.8/vendor/solidity-cborutils/v2.0.0/CBOR.sol\":1634:1635  0 */\n      0x00\n        /* \"@chainlink/contracts/src/v0.8/vendor/solidity-cborutils/v2.0.0/CBOR.sol\":1621:1631  cbor.depth */\n      0x20\n      dup3\n      add\n        /* \"@chainlink/contracts/src/v0.8/vendor/solidity-cborutils/v2.0.0/CBOR.sol\":1621:1635  cbor.depth = 0 */\n      mstore\n        /* \"@chainlink/contracts/src/v0.8/vendor/solidity-cborutils/v2.0.0/CBOR.sol\":1621:1625  cbor */\n      swap2\n        /* \"@chainlink/contracts/src/v0.8/vendor/solidity-cborutils/v2.0.0/CBOR.sol\":1490:1663  function create(uint256 capacity) internal pure returns(CBORBuffer memory cbor) {... */\n      swap1\n      pop\n      jump\t// out\n        /* \"@chainlink/contracts/src/v0.8/vendor/solidity-cborutils/v2.0.0/CBOR.sol\":3021:3225  function writeString(CBORBuffer memory buf, string memory value) internal pure {... */\n    tag_283:\n        /* \"@chainlink/contracts/src/v0.8/vendor/solidity-cborutils/v2.0.0/CBOR.sol\":3110:3180  writeFixedNumeric(buf, MAJOR_TYPE_STRING, uint64(bytes(value).length)) */\n      tag_412\n        /* \"@chainlink/contracts/src/v0.8/vendor/solidity-cborutils/v2.0.0/CBOR.sol\":3128:3131  buf */\n      dup3\n        /* \"@chainlink/contracts/src/v0.8/vendor/solidity-cborutils/v2.0.0/CBOR.sol\":998:999  3 */\n      0x03\n        /* \"@chainlink/contracts/src/v0.8/vendor/solidity-cborutils/v2.0.0/CBOR.sol\":3165:3170  value */\n      dup4\n        /* \"@chainlink/contracts/src/v0.8/vendor/solidity-cborutils/v2.0.0/CBOR.sol\":3159:3178  bytes(value).length */\n      mload\n        /* \"@chainlink/contracts/src/v0.8/vendor/solidity-cborutils/v2.0.0/CBOR.sol\":3110:3127  writeFixedNumeric */\n      tag_413\n        /* \"@chainlink/contracts/src/v0.8/vendor/solidity-cborutils/v2.0.0/CBOR.sol\":3110:3180  writeFixedNumeric(buf, MAJOR_TYPE_STRING, uint64(bytes(value).length)) */\n      jump\t// in\n    tag_412:\n        /* \"@chainlink/contracts/src/v0.8/vendor/solidity-cborutils/v2.0.0/CBOR.sol\":3190:3197  buf.buf */\n      dup2\n      mload\n        /* \"@chainlink/contracts/src/v0.8/vendor/solidity-cborutils/v2.0.0/CBOR.sol\":3190:3218  buf.buf.append(bytes(value)) */\n      tag_414\n      swap1\n        /* \"@chainlink/contracts/src/v0.8/vendor/solidity-cborutils/v2.0.0/CBOR.sol\":3211:3216  value */\n      dup3\n        /* \"@chainlink/contracts/src/v0.8/vendor/solidity-cborutils/v2.0.0/CBOR.sol\":3190:3204  buf.buf.append */\n      tag_415\n        /* \"@chainlink/contracts/src/v0.8/vendor/solidity-cborutils/v2.0.0/CBOR.sol\":3190:3218  buf.buf.append(bytes(value)) */\n      jump\t// in\n    tag_414:\n      pop\n        /* \"@chainlink/contracts/src/v0.8/vendor/solidity-cborutils/v2.0.0/CBOR.sol\":3021:3225  function writeString(CBORBuffer memory buf, string memory value) internal pure {... */\n      pop\n      pop\n      jump\t// out\n        /* \"@chainlink/contracts/src/v0.8/vendor/solidity-cborutils/v2.0.0/CBOR.sol\":1832:2034  function writeUInt256(CBORBuffer memory buf, uint256 value) internal pure {... */\n    tag_287:\n        /* \"@chainlink/contracts/src/v0.8/vendor/solidity-cborutils/v2.0.0/CBOR.sol\":1916:1923  buf.buf */\n      dup2\n      mload\n        /* \"@chainlink/contracts/src/v0.8/vendor/solidity-cborutils/v2.0.0/CBOR.sol\":1916:1983  buf.buf.appendUint8(uint8((MAJOR_TYPE_TAG << 5) | TAG_TYPE_BIGNUM)) */\n      tag_417\n      swap1\n        /* \"@chainlink/contracts/src/v0.8/vendor/solidity-cborutils/v2.0.0/CBOR.sol\":1942:1981  (MAJOR_TYPE_TAG << 5) | TAG_TYPE_BIGNUM */\n      0xc2\n        /* \"@chainlink/contracts/src/v0.8/vendor/solidity-cborutils/v2.0.0/CBOR.sol\":1916:1935  buf.buf.appendUint8 */\n      tag_418\n        /* \"@chainlink/contracts/src/v0.8/vendor/solidity-cborutils/v2.0.0/CBOR.sol\":1916:1983  buf.buf.appendUint8(uint8((MAJOR_TYPE_TAG << 5) | TAG_TYPE_BIGNUM)) */\n      jump\t// in\n    tag_417:\n      pop\n        /* \"@chainlink/contracts/src/v0.8/vendor/solidity-cborutils/v2.0.0/CBOR.sol\":1993:2027  writeBytes(buf, abi.encode(value)) */\n      tag_277\n        /* \"@chainlink/contracts/src/v0.8/vendor/solidity-cborutils/v2.0.0/CBOR.sol\":2004:2007  buf */\n      dup3\n        /* \"@chainlink/contracts/src/v0.8/vendor/solidity-cborutils/v2.0.0/CBOR.sol\":2020:2025  value */\n      dup3\n        /* \"@chainlink/contracts/src/v0.8/vendor/solidity-cborutils/v2.0.0/CBOR.sol\":2009:2026  abi.encode(value) */\n      add(0x20, mload(0x40))\n      tag_420\n      swap2\n        /* \"#utility.yul\":3642:3667   */\n      dup2\n      mstore\n        /* \"#utility.yul\":3630:3632   */\n      0x20\n        /* \"#utility.yul\":3615:3633   */\n      add\n      swap1\n        /* \"#utility.yul\":3496:3673   */\n      jump\n        /* \"@chainlink/contracts/src/v0.8/vendor/solidity-cborutils/v2.0.0/CBOR.sol\":2009:2026  abi.encode(value) */\n    tag_420:\n      mload(0x40)\n      0x20\n      dup2\n      dup4\n      sub\n      sub\n      dup2\n      mstore\n      swap1\n      0x40\n      mstore\n        /* \"@chainlink/contracts/src/v0.8/vendor/solidity-cborutils/v2.0.0/CBOR.sol\":1993:2003  writeBytes */\n      tag_319\n        /* \"@chainlink/contracts/src/v0.8/vendor/solidity-cborutils/v2.0.0/CBOR.sol\":1993:2027  writeBytes(buf, abi.encode(value)) */\n      jump\t// in\n        /* \"@chainlink/contracts/src/v0.8/vendor/solidity-cborutils/v2.0.0/CBOR.sol\":3607:3753  function startArray(CBORBuffer memory buf) internal pure {... */\n    tag_297:\n        /* \"@chainlink/contracts/src/v0.8/vendor/solidity-cborutils/v2.0.0/CBOR.sol\":3674:3722  writeIndefiniteLengthType(buf, MAJOR_TYPE_ARRAY) */\n      tag_422\n        /* \"@chainlink/contracts/src/v0.8/vendor/solidity-cborutils/v2.0.0/CBOR.sol\":3700:3703  buf */\n      dup2\n        /* \"@chainlink/contracts/src/v0.8/vendor/solidity-cborutils/v2.0.0/CBOR.sol\":1047:1048  4 */\n      0x04\n        /* \"@chainlink/contracts/src/v0.8/vendor/solidity-cborutils/v2.0.0/CBOR.sol\":3674:3699  writeIndefiniteLengthType */\n      tag_423\n        /* \"@chainlink/contracts/src/v0.8/vendor/solidity-cborutils/v2.0.0/CBOR.sol\":3674:3722  writeIndefiniteLengthType(buf, MAJOR_TYPE_ARRAY) */\n      jump\t// in\n    tag_422:\n        /* \"@chainlink/contracts/src/v0.8/vendor/solidity-cborutils/v2.0.0/CBOR.sol\":3745:3746  1 */\n      0x01\n        /* \"@chainlink/contracts/src/v0.8/vendor/solidity-cborutils/v2.0.0/CBOR.sol\":3732:3735  buf */\n      dup2\n        /* \"@chainlink/contracts/src/v0.8/vendor/solidity-cborutils/v2.0.0/CBOR.sol\":3732:3741  buf.depth */\n      0x20\n      add\n        /* \"@chainlink/contracts/src/v0.8/vendor/solidity-cborutils/v2.0.0/CBOR.sol\":3732:3746  buf.depth += 1 */\n      dup2\n      dup2\n      mload\n      tag_424\n      swap2\n      swap1\n      tag_364\n      jump\t// in\n    tag_424:\n      swap1\n      mstore\n      pop\n      pop\n        /* \"@chainlink/contracts/src/v0.8/vendor/solidity-cborutils/v2.0.0/CBOR.sol\":3607:3753  function startArray(CBORBuffer memory buf) internal pure {... */\n      jump\t// out\n        /* \"@chainlink/contracts/src/v0.8/vendor/solidity-cborutils/v2.0.0/CBOR.sol\":4211:4365  function endSequence(CBORBuffer memory buf) internal pure {... */\n    tag_306:\n        /* \"@chainlink/contracts/src/v0.8/vendor/solidity-cborutils/v2.0.0/CBOR.sol\":4279:4334  writeIndefiniteLengthType(buf, MAJOR_TYPE_CONTENT_FREE) */\n      tag_426\n        /* \"@chainlink/contracts/src/v0.8/vendor/solidity-cborutils/v2.0.0/CBOR.sol\":4305:4308  buf */\n      dup2\n        /* \"@chainlink/contracts/src/v0.8/vendor/solidity-cborutils/v2.0.0/CBOR.sol\":1197:1198  7 */\n      0x07\n        /* \"@chainlink/contracts/src/v0.8/vendor/solidity-cborutils/v2.0.0/CBOR.sol\":4279:4304  writeIndefiniteLengthType */\n      tag_423\n        /* \"@chainlink/contracts/src/v0.8/vendor/solidity-cborutils/v2.0.0/CBOR.sol\":4279:4334  writeIndefiniteLengthType(buf, MAJOR_TYPE_CONTENT_FREE) */\n      jump\t// in\n    tag_426:\n        /* \"@chainlink/contracts/src/v0.8/vendor/solidity-cborutils/v2.0.0/CBOR.sol\":4357:4358  1 */\n      0x01\n        /* \"@chainlink/contracts/src/v0.8/vendor/solidity-cborutils/v2.0.0/CBOR.sol\":4344:4347  buf */\n      dup2\n        /* \"@chainlink/contracts/src/v0.8/vendor/solidity-cborutils/v2.0.0/CBOR.sol\":4344:4353  buf.depth */\n      0x20\n      add\n        /* \"@chainlink/contracts/src/v0.8/vendor/solidity-cborutils/v2.0.0/CBOR.sol\":4344:4358  buf.depth -= 1 */\n      dup2\n      dup2\n      mload\n      tag_424\n      swap2\n      swap1\n      tag_428\n      jump\t// in\n        /* \"@chainlink/contracts/src/v0.8/vendor/solidity-cborutils/v2.0.0/CBOR.sol\":2828:3015  function writeBytes(CBORBuffer memory buf, bytes memory value) internal pure {... */\n    tag_319:\n        /* \"@chainlink/contracts/src/v0.8/vendor/solidity-cborutils/v2.0.0/CBOR.sol\":2915:2977  writeFixedNumeric(buf, MAJOR_TYPE_BYTES, uint64(value.length)) */\n      tag_412\n        /* \"@chainlink/contracts/src/v0.8/vendor/solidity-cborutils/v2.0.0/CBOR.sol\":2933:2936  buf */\n      dup3\n        /* \"@chainlink/contracts/src/v0.8/vendor/solidity-cborutils/v2.0.0/CBOR.sol\":948:949  2 */\n      0x02\n        /* \"@chainlink/contracts/src/v0.8/vendor/solidity-cborutils/v2.0.0/CBOR.sol\":2963:2968  value */\n      dup4\n        /* \"@chainlink/contracts/src/v0.8/vendor/solidity-cborutils/v2.0.0/CBOR.sol\":2963:2975  value.length */\n      mload\n        /* \"@chainlink/contracts/src/v0.8/vendor/solidity-cborutils/v2.0.0/CBOR.sol\":2915:2932  writeFixedNumeric */\n      tag_413\n        /* \"@chainlink/contracts/src/v0.8/vendor/solidity-cborutils/v2.0.0/CBOR.sol\":2915:2977  writeFixedNumeric(buf, MAJOR_TYPE_BYTES, uint64(value.length)) */\n      jump\t// in\n        /* \"@chainlink/contracts/src/v0.8/vendor/@ensdomains/buffer/v0.1.0/Buffer.sol\":1020:1575  function init(buffer memory buf, uint capacity) internal pure returns(buffer memory) {... */\n    tag_410:\n      0x40\n      dup1\n      mload\n      dup1\n      dup3\n      add\n      swap1\n      swap2\n      mstore\n      0x60\n      dup2\n      mstore\n      0x00\n      0x20\n      dup3\n      add\n      mstore\n        /* \"@chainlink/contracts/src/v0.8/vendor/@ensdomains/buffer/v0.1.0/Buffer.sol\":1119:1132  capacity % 32 */\n      tag_435\n        /* \"@chainlink/contracts/src/v0.8/vendor/@ensdomains/buffer/v0.1.0/Buffer.sol\":1130:1132  32 */\n      0x20\n        /* \"@chainlink/contracts/src/v0.8/vendor/@ensdomains/buffer/v0.1.0/Buffer.sol\":1119:1127  capacity */\n      dup4\n        /* \"@chainlink/contracts/src/v0.8/vendor/@ensdomains/buffer/v0.1.0/Buffer.sol\":1119:1132  capacity % 32 */\n      tag_391\n      jump\t// in\n    tag_435:\n        /* \"@chainlink/contracts/src/v0.8/vendor/@ensdomains/buffer/v0.1.0/Buffer.sol\":1119:1137  capacity % 32 != 0 */\n      iszero\n        /* \"@chainlink/contracts/src/v0.8/vendor/@ensdomains/buffer/v0.1.0/Buffer.sol\":1115:1196  if (capacity % 32 != 0) {... */\n      tag_436\n      jumpi\n        /* \"@chainlink/contracts/src/v0.8/vendor/@ensdomains/buffer/v0.1.0/Buffer.sol\":1171:1184  capacity % 32 */\n      tag_437\n        /* \"@chainlink/contracts/src/v0.8/vendor/@ensdomains/buffer/v0.1.0/Buffer.sol\":1182:1184  32 */\n      0x20\n        /* \"@chainlink/contracts/src/v0.8/vendor/@ensdomains/buffer/v0.1.0/Buffer.sol\":1171:1179  capacity */\n      dup4\n        /* \"@chainlink/contracts/src/v0.8/vendor/@ensdomains/buffer/v0.1.0/Buffer.sol\":1171:1184  capacity % 32 */\n      tag_391\n      jump\t// in\n    tag_437:\n        /* \"@chainlink/contracts/src/v0.8/vendor/@ensdomains/buffer/v0.1.0/Buffer.sol\":1165:1185  32 - (capacity % 32) */\n      tag_438\n      swap1\n        /* \"@chainlink/contracts/src/v0.8/vendor/@ensdomains/buffer/v0.1.0/Buffer.sol\":1165:1167  32 */\n      0x20\n        /* \"@chainlink/contracts/src/v0.8/vendor/@ensdomains/buffer/v0.1.0/Buffer.sol\":1165:1185  32 - (capacity % 32) */\n      tag_428\n      jump\t// in\n    tag_438:\n        /* \"@chainlink/contracts/src/v0.8/vendor/@ensdomains/buffer/v0.1.0/Buffer.sol\":1153:1185  capacity += 32 - (capacity % 32) */\n      tag_439\n      swap1\n      dup4\n      tag_364\n      jump\t// in\n    tag_439:\n      swap2\n      pop\n        /* \"@chainlink/contracts/src/v0.8/vendor/@ensdomains/buffer/v0.1.0/Buffer.sol\":1115:1196  if (capacity % 32 != 0) {... */\n    tag_436:\n        /* \"@chainlink/contracts/src/v0.8/vendor/@ensdomains/buffer/v0.1.0/Buffer.sol\":1251:1263  buf.capacity */\n      0x20\n      dup1\n      dup5\n      add\n        /* \"@chainlink/contracts/src/v0.8/vendor/@ensdomains/buffer/v0.1.0/Buffer.sol\":1251:1274  buf.capacity = capacity */\n      dup4\n      swap1\n      mstore\n        /* \"@chainlink/contracts/src/v0.8/vendor/@ensdomains/buffer/v0.1.0/Buffer.sol\":1324:1328  0x40 */\n      0x40\n        /* \"@chainlink/contracts/src/v0.8/vendor/@ensdomains/buffer/v0.1.0/Buffer.sol\":1318:1329  mload(0x40) */\n      mload\n        /* \"@chainlink/contracts/src/v0.8/vendor/@ensdomains/buffer/v0.1.0/Buffer.sol\":1342:1358  mstore(buf, ptr) */\n      dup1\n      dup6\n      mstore\n      0x00\n        /* \"@chainlink/contracts/src/v0.8/vendor/@ensdomains/buffer/v0.1.0/Buffer.sol\":1371:1385  mstore(ptr, 0) */\n      dup2\n      mstore\n        /* \"@chainlink/contracts/src/v0.8/vendor/@ensdomains/buffer/v0.1.0/Buffer.sol\":1318:1329  mload(0x40) */\n      swap1\n        /* \"@chainlink/contracts/src/v0.8/vendor/@ensdomains/buffer/v0.1.0/Buffer.sol\":1417:1435  add(ptr, capacity) */\n      dup2\n      dup5\n      add\n        /* \"@chainlink/contracts/src/v0.8/vendor/@ensdomains/buffer/v0.1.0/Buffer.sol\":1409:1436  add(32, add(ptr, capacity)) */\n      add\n        /* \"@chainlink/contracts/src/v0.8/vendor/@ensdomains/buffer/v0.1.0/Buffer.sol\":1452:1464  lt(fpm, ptr) */\n      dup2\n      dup2\n      lt\n        /* \"@chainlink/contracts/src/v0.8/vendor/@ensdomains/buffer/v0.1.0/Buffer.sol\":1449:1509  if lt(fpm, ptr) {... */\n      iszero\n      tag_440\n      jumpi\n        /* \"@chainlink/contracts/src/v0.8/vendor/@ensdomains/buffer/v0.1.0/Buffer.sol\":1493:1494  0 */\n      0x00\n        /* \"@chainlink/contracts/src/v0.8/vendor/@ensdomains/buffer/v0.1.0/Buffer.sol\":1490:1491  0 */\n      dup1\n        /* \"@chainlink/contracts/src/v0.8/vendor/@ensdomains/buffer/v0.1.0/Buffer.sol\":1483:1495  revert(0, 0) */\n      revert\n        /* \"@chainlink/contracts/src/v0.8/vendor/@ensdomains/buffer/v0.1.0/Buffer.sol\":1449:1509  if lt(fpm, ptr) {... */\n    tag_440:\n        /* \"@chainlink/contracts/src/v0.8/vendor/@ensdomains/buffer/v0.1.0/Buffer.sol\":1529:1533  0x40 */\n      0x40\n        /* \"@chainlink/contracts/src/v0.8/vendor/@ensdomains/buffer/v0.1.0/Buffer.sol\":1522:1539  mstore(0x40, fpm) */\n      mstore\n      pop\n        /* \"@chainlink/contracts/src/v0.8/vendor/@ensdomains/buffer/v0.1.0/Buffer.sol\":1565:1568  buf */\n      swap2\n      swap3\n        /* \"@chainlink/contracts/src/v0.8/vendor/@ensdomains/buffer/v0.1.0/Buffer.sol\":1020:1575  function init(buffer memory buf, uint capacity) internal pure returns(buffer memory) {... */\n      swap2\n      pop\n      pop\n      jump\t// out\n        /* \"@chainlink/contracts/src/v0.8/vendor/solidity-cborutils/v2.0.0/CBOR.sol\":6156:6915  function writeFixedNumeric(... */\n    tag_413:\n        /* \"@chainlink/contracts/src/v0.8/vendor/solidity-cborutils/v2.0.0/CBOR.sol\":6299:6301  23 */\n      0x17\n        /* \"@chainlink/contracts/src/v0.8/vendor/solidity-cborutils/v2.0.0/CBOR.sol\":6290:6295  value */\n      dup2\n      sub(shl(0x40, 0x01), 0x01)\n        /* \"@chainlink/contracts/src/v0.8/vendor/solidity-cborutils/v2.0.0/CBOR.sol\":6290:6301  value <= 23 */\n      and\n      gt\n        /* \"@chainlink/contracts/src/v0.8/vendor/solidity-cborutils/v2.0.0/CBOR.sol\":6286:6909  if (value <= 23) {... */\n      tag_442\n      jumpi\n        /* \"@chainlink/contracts/src/v0.8/vendor/solidity-cborutils/v2.0.0/CBOR.sol\":6317:6324  buf.buf */\n      dup3\n      mload\n        /* \"@chainlink/contracts/src/v0.8/vendor/solidity-cborutils/v2.0.0/CBOR.sol\":6317:6365  buf.buf.appendUint8(uint8((major << 5) | value)) */\n      tag_443\n      swap1\n        /* \"@chainlink/contracts/src/v0.8/vendor/solidity-cborutils/v2.0.0/CBOR.sol\":6343:6363  (major << 5) | value */\n      0xe0\n        /* \"@chainlink/contracts/src/v0.8/vendor/solidity-cborutils/v2.0.0/CBOR.sol\":6353:6354  5 */\n      0x05\n        /* \"@chainlink/contracts/src/v0.8/vendor/solidity-cborutils/v2.0.0/CBOR.sol\":6344:6354  major << 5 */\n      dup6\n      swap1\n      shl\n        /* \"@chainlink/contracts/src/v0.8/vendor/solidity-cborutils/v2.0.0/CBOR.sol\":6343:6363  (major << 5) | value */\n      and\n      dup4\n      or\n        /* \"@chainlink/contracts/src/v0.8/vendor/solidity-cborutils/v2.0.0/CBOR.sol\":6317:6336  buf.buf.appendUint8 */\n      tag_418\n        /* \"@chainlink/contracts/src/v0.8/vendor/solidity-cborutils/v2.0.0/CBOR.sol\":6317:6365  buf.buf.appendUint8(uint8((major << 5) | value)) */\n      jump\t// in\n    tag_443:\n      pop\n        /* \"@chainlink/contracts/src/v0.8/vendor/solidity-cborutils/v2.0.0/CBOR.sol\":3190:3218  buf.buf.append(bytes(value)) */\n      pop\n        /* \"@chainlink/contracts/src/v0.8/vendor/solidity-cborutils/v2.0.0/CBOR.sol\":3021:3225  function writeString(CBORBuffer memory buf, string memory value) internal pure {... */\n      pop\n      pop\n      jump\t// out\n        /* \"@chainlink/contracts/src/v0.8/vendor/solidity-cborutils/v2.0.0/CBOR.sol\":6286:6909  if (value <= 23) {... */\n    tag_442:\n        /* \"@chainlink/contracts/src/v0.8/vendor/solidity-cborutils/v2.0.0/CBOR.sol\":6395:6399  0xFF */\n      0xff\n        /* \"@chainlink/contracts/src/v0.8/vendor/solidity-cborutils/v2.0.0/CBOR.sol\":6386:6391  value */\n      dup2\n      sub(shl(0x40, 0x01), 0x01)\n        /* \"@chainlink/contracts/src/v0.8/vendor/solidity-cborutils/v2.0.0/CBOR.sol\":6386:6399  value <= 0xFF */\n      and\n      gt\n        /* \"@chainlink/contracts/src/v0.8/vendor/solidity-cborutils/v2.0.0/CBOR.sol\":6382:6909  if (value <= 0xFF) {... */\n      tag_445\n      jumpi\n        /* \"@chainlink/contracts/src/v0.8/vendor/solidity-cborutils/v2.0.0/CBOR.sol\":6415:6422  buf.buf */\n      dup3\n      mload\n        /* \"@chainlink/contracts/src/v0.8/vendor/solidity-cborutils/v2.0.0/CBOR.sol\":6415:6460  buf.buf.appendUint8(uint8((major << 5) | 24)) */\n      tag_446\n      swap1\n        /* \"@chainlink/contracts/src/v0.8/vendor/solidity-cborutils/v2.0.0/CBOR.sol\":6456:6458  24 */\n      0x18\n        /* \"@chainlink/contracts/src/v0.8/vendor/solidity-cborutils/v2.0.0/CBOR.sol\":6442:6452  major << 5 */\n      0x1fe0\n        /* \"@chainlink/contracts/src/v0.8/vendor/solidity-cborutils/v2.0.0/CBOR.sol\":6451:6452  5 */\n      0x05\n        /* \"@chainlink/contracts/src/v0.8/vendor/solidity-cborutils/v2.0.0/CBOR.sol\":6442:6452  major << 5 */\n      dup7\n      swap1\n      shl\n      and\n        /* \"@chainlink/contracts/src/v0.8/vendor/solidity-cborutils/v2.0.0/CBOR.sol\":6441:6458  (major << 5) | 24 */\n      or\n        /* \"@chainlink/contracts/src/v0.8/vendor/solidity-cborutils/v2.0.0/CBOR.sol\":6415:6434  buf.buf.appendUint8 */\n      tag_418\n        /* \"@chainlink/contracts/src/v0.8/vendor/solidity-cborutils/v2.0.0/CBOR.sol\":6415:6460  buf.buf.appendUint8(uint8((major << 5) | 24)) */\n      jump\t// in\n    tag_446:\n      pop\n        /* \"@chainlink/contracts/src/v0.8/vendor/solidity-cborutils/v2.0.0/CBOR.sol\":6474:6481  buf.buf */\n      dup3\n      mload\n        /* \"@chainlink/contracts/src/v0.8/vendor/solidity-cborutils/v2.0.0/CBOR.sol\":6474:6501  buf.buf.appendInt(value, 1) */\n      tag_443\n      swap1\n      sub(shl(0x40, 0x01), 0x01)\n      dup4\n      and\n        /* \"@chainlink/contracts/src/v0.8/vendor/solidity-cborutils/v2.0.0/CBOR.sol\":6499:6500  1 */\n      0x01\n        /* \"@chainlink/contracts/src/v0.8/vendor/solidity-cborutils/v2.0.0/CBOR.sol\":6474:6491  buf.buf.appendInt */\n      tag_448\n        /* \"@chainlink/contracts/src/v0.8/vendor/solidity-cborutils/v2.0.0/CBOR.sol\":6474:6501  buf.buf.appendInt(value, 1) */\n      jump\t// in\n        /* \"@chainlink/contracts/src/v0.8/vendor/solidity-cborutils/v2.0.0/CBOR.sol\":6382:6909  if (value <= 0xFF) {... */\n    tag_445:\n        /* \"@chainlink/contracts/src/v0.8/vendor/solidity-cborutils/v2.0.0/CBOR.sol\":6531:6537  0xFFFF */\n      0xffff\n        /* \"@chainlink/contracts/src/v0.8/vendor/solidity-cborutils/v2.0.0/CBOR.sol\":6522:6527  value */\n      dup2\n      sub(shl(0x40, 0x01), 0x01)\n        /* \"@chainlink/contracts/src/v0.8/vendor/solidity-cborutils/v2.0.0/CBOR.sol\":6522:6537  value <= 0xFFFF */\n      and\n      gt\n        /* \"@chainlink/contracts/src/v0.8/vendor/solidity-cborutils/v2.0.0/CBOR.sol\":6518:6909  if (value <= 0xFFFF) {... */\n      tag_450\n      jumpi\n        /* \"@chainlink/contracts/src/v0.8/vendor/solidity-cborutils/v2.0.0/CBOR.sol\":6553:6560  buf.buf */\n      dup3\n      mload\n        /* \"@chainlink/contracts/src/v0.8/vendor/solidity-cborutils/v2.0.0/CBOR.sol\":6553:6598  buf.buf.appendUint8(uint8((major << 5) | 25)) */\n      tag_451\n      swap1\n        /* \"@chainlink/contracts/src/v0.8/vendor/solidity-cborutils/v2.0.0/CBOR.sol\":6594:6596  25 */\n      0x19\n        /* \"@chainlink/contracts/src/v0.8/vendor/solidity-cborutils/v2.0.0/CBOR.sol\":6580:6590  major << 5 */\n      0x1fe0\n        /* \"@chainlink/contracts/src/v0.8/vendor/solidity-cborutils/v2.0.0/CBOR.sol\":6589:6590  5 */\n      0x05\n        /* \"@chainlink/contracts/src/v0.8/vendor/solidity-cborutils/v2.0.0/CBOR.sol\":6580:6590  major << 5 */\n      dup7\n      swap1\n      shl\n      and\n        /* \"@chainlink/contracts/src/v0.8/vendor/solidity-cborutils/v2.0.0/CBOR.sol\":6579:6596  (major << 5) | 25 */\n      or\n        /* \"@chainlink/contracts/src/v0.8/vendor/solidity-cborutils/v2.0.0/CBOR.sol\":6553:6572  buf.buf.appendUint8 */\n      tag_418\n        /* \"@chainlink/contracts/src/v0.8/vendor/solidity-cborutils/v2.0.0/CBOR.sol\":6553:6598  buf.buf.appendUint8(uint8((major << 5) | 25)) */\n      jump\t// in\n    tag_451:\n      pop\n        /* \"@chainlink/contracts/src/v0.8/vendor/solidity-cborutils/v2.0.0/CBOR.sol\":6612:6619  buf.buf */\n      dup3\n      mload\n        /* \"@chainlink/contracts/src/v0.8/vendor/solidity-cborutils/v2.0.0/CBOR.sol\":6612:6639  buf.buf.appendInt(value, 2) */\n      tag_443\n      swap1\n      sub(shl(0x40, 0x01), 0x01)\n      dup4\n      and\n        /* \"@chainlink/contracts/src/v0.8/vendor/solidity-cborutils/v2.0.0/CBOR.sol\":6637:6638  2 */\n      0x02\n        /* \"@chainlink/contracts/src/v0.8/vendor/solidity-cborutils/v2.0.0/CBOR.sol\":6612:6629  buf.buf.appendInt */\n      tag_448\n        /* \"@chainlink/contracts/src/v0.8/vendor/solidity-cborutils/v2.0.0/CBOR.sol\":6612:6639  buf.buf.appendInt(value, 2) */\n      jump\t// in\n        /* \"@chainlink/contracts/src/v0.8/vendor/solidity-cborutils/v2.0.0/CBOR.sol\":6518:6909  if (value <= 0xFFFF) {... */\n    tag_450:\n        /* \"@chainlink/contracts/src/v0.8/vendor/solidity-cborutils/v2.0.0/CBOR.sol\":6669:6679  0xFFFFFFFF */\n      0xffffffff\n        /* \"@chainlink/contracts/src/v0.8/vendor/solidity-cborutils/v2.0.0/CBOR.sol\":6660:6665  value */\n      dup2\n      sub(shl(0x40, 0x01), 0x01)\n        /* \"@chainlink/contracts/src/v0.8/vendor/solidity-cborutils/v2.0.0/CBOR.sol\":6660:6679  value <= 0xFFFFFFFF */\n      and\n      gt\n        /* \"@chainlink/contracts/src/v0.8/vendor/solidity-cborutils/v2.0.0/CBOR.sol\":6656:6909  if (value <= 0xFFFFFFFF) {... */\n      tag_454\n      jumpi\n        /* \"@chainlink/contracts/src/v0.8/vendor/solidity-cborutils/v2.0.0/CBOR.sol\":6695:6702  buf.buf */\n      dup3\n      mload\n        /* \"@chainlink/contracts/src/v0.8/vendor/solidity-cborutils/v2.0.0/CBOR.sol\":6695:6740  buf.buf.appendUint8(uint8((major << 5) | 26)) */\n      tag_455\n      swap1\n        /* \"@chainlink/contracts/src/v0.8/vendor/solidity-cborutils/v2.0.0/CBOR.sol\":6736:6738  26 */\n      0x1a\n        /* \"@chainlink/contracts/src/v0.8/vendor/solidity-cborutils/v2.0.0/CBOR.sol\":6722:6732  major << 5 */\n      0x1fe0\n        /* \"@chainlink/contracts/src/v0.8/vendor/solidity-cborutils/v2.0.0/CBOR.sol\":6731:6732  5 */\n      0x05\n        /* \"@chainlink/contracts/src/v0.8/vendor/solidity-cborutils/v2.0.0/CBOR.sol\":6722:6732  major << 5 */\n      dup7\n      swap1\n      shl\n      and\n        /* \"@chainlink/contracts/src/v0.8/vendor/solidity-cborutils/v2.0.0/CBOR.sol\":6721:6738  (major << 5) | 26 */\n      or\n        /* \"@chainlink/contracts/src/v0.8/vendor/solidity-cborutils/v2.0.0/CBOR.sol\":6695:6714  buf.buf.appendUint8 */\n      tag_418\n        /* \"@chainlink/contracts/src/v0.8/vendor/solidity-cborutils/v2.0.0/CBOR.sol\":6695:6740  buf.buf.appendUint8(uint8((major << 5) | 26)) */\n      jump\t// in\n    tag_455:\n      pop\n        /* \"@chainlink/contracts/src/v0.8/vendor/solidity-cborutils/v2.0.0/CBOR.sol\":6754:6761  buf.buf */\n      dup3\n      mload\n        /* \"@chainlink/contracts/src/v0.8/vendor/solidity-cborutils/v2.0.0/CBOR.sol\":6754:6781  buf.buf.appendInt(value, 4) */\n      tag_443\n      swap1\n      sub(shl(0x40, 0x01), 0x01)\n      dup4\n      and\n        /* \"@chainlink/contracts/src/v0.8/vendor/solidity-cborutils/v2.0.0/CBOR.sol\":6779:6780  4 */\n      0x04\n        /* \"@chainlink/contracts/src/v0.8/vendor/solidity-cborutils/v2.0.0/CBOR.sol\":6754:6771  buf.buf.appendInt */\n      tag_448\n        /* \"@chainlink/contracts/src/v0.8/vendor/solidity-cborutils/v2.0.0/CBOR.sol\":6754:6781  buf.buf.appendInt(value, 4) */\n      jump\t// in\n        /* \"@chainlink/contracts/src/v0.8/vendor/solidity-cborutils/v2.0.0/CBOR.sol\":6656:6909  if (value <= 0xFFFFFFFF) {... */\n    tag_454:\n        /* \"@chainlink/contracts/src/v0.8/vendor/solidity-cborutils/v2.0.0/CBOR.sol\":6812:6819  buf.buf */\n      dup3\n      mload\n        /* \"@chainlink/contracts/src/v0.8/vendor/solidity-cborutils/v2.0.0/CBOR.sol\":6812:6857  buf.buf.appendUint8(uint8((major << 5) | 27)) */\n      tag_458\n      swap1\n        /* \"@chainlink/contracts/src/v0.8/vendor/solidity-cborutils/v2.0.0/CBOR.sol\":6853:6855  27 */\n      0x1b\n        /* \"@chainlink/contracts/src/v0.8/vendor/solidity-cborutils/v2.0.0/CBOR.sol\":6839:6849  major << 5 */\n      0x1fe0\n        /* \"@chainlink/contracts/src/v0.8/vendor/solidity-cborutils/v2.0.0/CBOR.sol\":6848:6849  5 */\n      0x05\n        /* \"@chainlink/contracts/src/v0.8/vendor/solidity-cborutils/v2.0.0/CBOR.sol\":6839:6849  major << 5 */\n      dup7\n      swap1\n      shl\n      and\n        /* \"@chainlink/contracts/src/v0.8/vendor/solidity-cborutils/v2.0.0/CBOR.sol\":6838:6855  (major << 5) | 27 */\n      or\n        /* \"@chainlink/contracts/src/v0.8/vendor/solidity-cborutils/v2.0.0/CBOR.sol\":6812:6831  buf.buf.appendUint8 */\n      tag_418\n        /* \"@chainlink/contracts/src/v0.8/vendor/solidity-cborutils/v2.0.0/CBOR.sol\":6812:6857  buf.buf.appendUint8(uint8((major << 5) | 27)) */\n      jump\t// in\n    tag_458:\n      pop\n        /* \"@chainlink/contracts/src/v0.8/vendor/solidity-cborutils/v2.0.0/CBOR.sol\":6871:6878  buf.buf */\n      dup3\n      mload\n        /* \"@chainlink/contracts/src/v0.8/vendor/solidity-cborutils/v2.0.0/CBOR.sol\":6871:6898  buf.buf.appendInt(value, 8) */\n      tag_443\n      swap1\n      sub(shl(0x40, 0x01), 0x01)\n      dup4\n      and\n        /* \"@chainlink/contracts/src/v0.8/vendor/solidity-cborutils/v2.0.0/CBOR.sol\":6896:6897  8 */\n      0x08\n        /* \"@chainlink/contracts/src/v0.8/vendor/solidity-cborutils/v2.0.0/CBOR.sol\":6871:6888  buf.buf.appendInt */\n      tag_448\n        /* \"@chainlink/contracts/src/v0.8/vendor/solidity-cborutils/v2.0.0/CBOR.sol\":6871:6898  buf.buf.appendInt(value, 8) */\n      jump\t// in\n        /* \"@chainlink/contracts/src/v0.8/vendor/@ensdomains/buffer/v0.1.0/Buffer.sol\":4539:4685  function append(buffer memory buf, bytes memory data) internal pure returns (buffer memory) {... */\n    tag_415:\n      0x40\n      dup1\n      mload\n      dup1\n      dup3\n      add\n      swap1\n      swap2\n      mstore\n      0x60\n      dup2\n      mstore\n      0x00\n      0x20\n      dup3\n      add\n      mstore\n        /* \"@chainlink/contracts/src/v0.8/vendor/@ensdomains/buffer/v0.1.0/Buffer.sol\":4648:4678  append(buf, data, data.length) */\n      tag_462\n        /* \"@chainlink/contracts/src/v0.8/vendor/@ensdomains/buffer/v0.1.0/Buffer.sol\":4655:4658  buf */\n      dup4\n        /* \"@chainlink/contracts/src/v0.8/vendor/@ensdomains/buffer/v0.1.0/Buffer.sol\":4660:4664  data */\n      dup4\n        /* \"@chainlink/contracts/src/v0.8/vendor/@ensdomains/buffer/v0.1.0/Buffer.sol\":4666:4670  data */\n      dup5\n        /* \"@chainlink/contracts/src/v0.8/vendor/@ensdomains/buffer/v0.1.0/Buffer.sol\":4666:4677  data.length */\n      mload\n        /* \"@chainlink/contracts/src/v0.8/vendor/@ensdomains/buffer/v0.1.0/Buffer.sol\":4648:4654  append */\n      tag_463\n        /* \"@chainlink/contracts/src/v0.8/vendor/@ensdomains/buffer/v0.1.0/Buffer.sol\":4648:4678  append(buf, data, data.length) */\n      jump\t// in\n    tag_462:\n        /* \"@chainlink/contracts/src/v0.8/vendor/@ensdomains/buffer/v0.1.0/Buffer.sol\":4641:4678  return append(buf, data, data.length) */\n      swap4\n        /* \"@chainlink/contracts/src/v0.8/vendor/@ensdomains/buffer/v0.1.0/Buffer.sol\":4539:4685  function append(buffer memory buf, bytes memory data) internal pure returns (buffer memory) {... */\n      swap3\n      pop\n      pop\n      pop\n      jump\t// out\n        /* \"@chainlink/contracts/src/v0.8/vendor/@ensdomains/buffer/v0.1.0/Buffer.sol\":4948:5647  function appendUint8(buffer memory buf, uint8 data) internal pure returns(buffer memory) {... */\n    tag_418:\n      0x40\n      dup1\n      mload\n      dup1\n      dup3\n      add\n      swap1\n      swap2\n      mstore\n      0x60\n      dup2\n      mstore\n      0x00\n      0x20\n      dup3\n      add\n      mstore\n        /* \"@chainlink/contracts/src/v0.8/vendor/@ensdomains/buffer/v0.1.0/Buffer.sol\":5058:5065  buf.buf */\n      dup3\n      mload\n        /* \"@chainlink/contracts/src/v0.8/vendor/@ensdomains/buffer/v0.1.0/Buffer.sol\":5058:5072  buf.buf.length */\n      mload\n        /* \"@chainlink/contracts/src/v0.8/vendor/@ensdomains/buffer/v0.1.0/Buffer.sol\":5047:5055  uint off */\n      0x00\n        /* \"@chainlink/contracts/src/v0.8/vendor/@ensdomains/buffer/v0.1.0/Buffer.sol\":5100:5107  off + 1 */\n      tag_466\n        /* \"@chainlink/contracts/src/v0.8/vendor/@ensdomains/buffer/v0.1.0/Buffer.sol\":5058:5072  buf.buf.length */\n      dup3\n        /* \"@chainlink/contracts/src/v0.8/vendor/@ensdomains/buffer/v0.1.0/Buffer.sol\":5106:5107  1 */\n      0x01\n        /* \"@chainlink/contracts/src/v0.8/vendor/@ensdomains/buffer/v0.1.0/Buffer.sol\":5100:5107  off + 1 */\n      tag_364\n      jump\t// in\n    tag_466:\n        /* \"@chainlink/contracts/src/v0.8/vendor/@ensdomains/buffer/v0.1.0/Buffer.sol\":5082:5107  uint offPlusOne = off + 1 */\n      swap1\n      pop\n        /* \"@chainlink/contracts/src/v0.8/vendor/@ensdomains/buffer/v0.1.0/Buffer.sol\":5128:5131  buf */\n      dup5\n        /* \"@chainlink/contracts/src/v0.8/vendor/@ensdomains/buffer/v0.1.0/Buffer.sol\":5128:5140  buf.capacity */\n      0x20\n      add\n      mload\n        /* \"@chainlink/contracts/src/v0.8/vendor/@ensdomains/buffer/v0.1.0/Buffer.sol\":5121:5124  off */\n      dup3\n        /* \"@chainlink/contracts/src/v0.8/vendor/@ensdomains/buffer/v0.1.0/Buffer.sol\":5121:5140  off >= buf.capacity */\n      lt\n        /* \"@chainlink/contracts/src/v0.8/vendor/@ensdomains/buffer/v0.1.0/Buffer.sol\":5117:5194  if (off >= buf.capacity) {... */\n      tag_468\n      jumpi\n        /* \"@chainlink/contracts/src/v0.8/vendor/@ensdomains/buffer/v0.1.0/Buffer.sol\":5156:5183  resize(buf, offPlusOne * 2) */\n      tag_468\n        /* \"@chainlink/contracts/src/v0.8/vendor/@ensdomains/buffer/v0.1.0/Buffer.sol\":5163:5166  buf */\n      dup6\n        /* \"@chainlink/contracts/src/v0.8/vendor/@ensdomains/buffer/v0.1.0/Buffer.sol\":5168:5182  offPlusOne * 2 */\n      tag_469\n        /* \"@chainlink/contracts/src/v0.8/vendor/@ensdomains/buffer/v0.1.0/Buffer.sol\":5168:5178  offPlusOne */\n      dup4\n        /* \"@chainlink/contracts/src/v0.8/vendor/@ensdomains/buffer/v0.1.0/Buffer.sol\":5181:5182  2 */\n      0x02\n        /* \"@chainlink/contracts/src/v0.8/vendor/@ensdomains/buffer/v0.1.0/Buffer.sol\":5168:5182  offPlusOne * 2 */\n      tag_362\n      jump\t// in\n    tag_469:\n        /* \"@chainlink/contracts/src/v0.8/vendor/@ensdomains/buffer/v0.1.0/Buffer.sol\":5156:5162  resize */\n      tag_470\n        /* \"@chainlink/contracts/src/v0.8/vendor/@ensdomains/buffer/v0.1.0/Buffer.sol\":5156:5183  resize(buf, offPlusOne * 2) */\n      jump\t// in\n    tag_468:\n        /* \"@chainlink/contracts/src/v0.8/vendor/@ensdomains/buffer/v0.1.0/Buffer.sol\":5296:5299  buf */\n      dup5\n        /* \"@chainlink/contracts/src/v0.8/vendor/@ensdomains/buffer/v0.1.0/Buffer.sol\":5290:5300  mload(buf) */\n      mload\n        /* \"@chainlink/contracts/src/v0.8/vendor/@ensdomains/buffer/v0.1.0/Buffer.sol\":5417:5419  32 */\n      0x20\n        /* \"@chainlink/contracts/src/v0.8/vendor/@ensdomains/buffer/v0.1.0/Buffer.sol\":5411:5414  off */\n      dup4\n        /* \"@chainlink/contracts/src/v0.8/vendor/@ensdomains/buffer/v0.1.0/Buffer.sol\":5403:5409  bufptr */\n      dup3\n        /* \"@chainlink/contracts/src/v0.8/vendor/@ensdomains/buffer/v0.1.0/Buffer.sol\":5399:5415  add(bufptr, off) */\n      add\n        /* \"@chainlink/contracts/src/v0.8/vendor/@ensdomains/buffer/v0.1.0/Buffer.sol\":5395:5420  add(add(bufptr, off), 32) */\n      add\n        /* \"@chainlink/contracts/src/v0.8/vendor/@ensdomains/buffer/v0.1.0/Buffer.sol\":5447:5451  data */\n      dup6\n        /* \"@chainlink/contracts/src/v0.8/vendor/@ensdomains/buffer/v0.1.0/Buffer.sol\":5441:5445  dest */\n      dup2\n        /* \"@chainlink/contracts/src/v0.8/vendor/@ensdomains/buffer/v0.1.0/Buffer.sol\":5433:5452  mstore8(dest, data) */\n      mstore8\n      pop\n        /* \"@chainlink/contracts/src/v0.8/vendor/@ensdomains/buffer/v0.1.0/Buffer.sol\":5543:5549  bufptr */\n      dup1\n        /* \"@chainlink/contracts/src/v0.8/vendor/@ensdomains/buffer/v0.1.0/Buffer.sol\":5537:5550  mload(bufptr) */\n      mload\n        /* \"@chainlink/contracts/src/v0.8/vendor/@ensdomains/buffer/v0.1.0/Buffer.sol\":5525:5535  offPlusOne */\n      dup3\n        /* \"@chainlink/contracts/src/v0.8/vendor/@ensdomains/buffer/v0.1.0/Buffer.sol\":5522:5551  gt(offPlusOne, mload(bufptr)) */\n      gt\n        /* \"@chainlink/contracts/src/v0.8/vendor/@ensdomains/buffer/v0.1.0/Buffer.sol\":5519:5610  if gt(offPlusOne, mload(bufptr)) {... */\n      iszero\n      tag_471\n      jumpi\n        /* \"@chainlink/contracts/src/v0.8/vendor/@ensdomains/buffer/v0.1.0/Buffer.sol\":5585:5595  offPlusOne */\n      dup2\n        /* \"@chainlink/contracts/src/v0.8/vendor/@ensdomains/buffer/v0.1.0/Buffer.sol\":5577:5583  bufptr */\n      dup2\n        /* \"@chainlink/contracts/src/v0.8/vendor/@ensdomains/buffer/v0.1.0/Buffer.sol\":5570:5596  mstore(bufptr, offPlusOne) */\n      mstore\n        /* \"@chainlink/contracts/src/v0.8/vendor/@ensdomains/buffer/v0.1.0/Buffer.sol\":5519:5610  if gt(offPlusOne, mload(bufptr)) {... */\n    tag_471:\n      pop\n        /* \"@chainlink/contracts/src/v0.8/vendor/@ensdomains/buffer/v0.1.0/Buffer.sol\":5637:5640  buf */\n      swap4\n      swap5\n        /* \"@chainlink/contracts/src/v0.8/vendor/@ensdomains/buffer/v0.1.0/Buffer.sol\":4948:5647  function appendUint8(buffer memory buf, uint8 data) internal pure returns(buffer memory) {... */\n      swap4\n      pop\n      pop\n      pop\n      pop\n      jump\t// out\n        /* \"@chainlink/contracts/src/v0.8/vendor/solidity-cborutils/v2.0.0/CBOR.sol\":6921:7087  function writeIndefiniteLengthType(CBORBuffer memory buf, uint8 major)... */\n    tag_423:\n        /* \"@chainlink/contracts/src/v0.8/vendor/solidity-cborutils/v2.0.0/CBOR.sol\":7035:7042  buf.buf */\n      dup2\n      mload\n        /* \"@chainlink/contracts/src/v0.8/vendor/solidity-cborutils/v2.0.0/CBOR.sol\":7035:7080  buf.buf.appendUint8(uint8((major << 5) | 31)) */\n      tag_414\n      swap1\n        /* \"@chainlink/contracts/src/v0.8/vendor/solidity-cborutils/v2.0.0/CBOR.sol\":7076:7078  31 */\n      0x1f\n        /* \"@chainlink/contracts/src/v0.8/vendor/solidity-cborutils/v2.0.0/CBOR.sol\":7062:7072  major << 5 */\n      0x1fe0\n        /* \"@chainlink/contracts/src/v0.8/vendor/solidity-cborutils/v2.0.0/CBOR.sol\":7071:7072  5 */\n      0x05\n        /* \"@chainlink/contracts/src/v0.8/vendor/solidity-cborutils/v2.0.0/CBOR.sol\":7062:7072  major << 5 */\n      dup6\n      swap1\n      shl\n      and\n        /* \"@chainlink/contracts/src/v0.8/vendor/solidity-cborutils/v2.0.0/CBOR.sol\":7061:7078  (major << 5) | 31 */\n      or\n        /* \"@chainlink/contracts/src/v0.8/vendor/solidity-cborutils/v2.0.0/CBOR.sol\":7035:7054  buf.buf.appendUint8 */\n      tag_418\n        /* \"@chainlink/contracts/src/v0.8/vendor/solidity-cborutils/v2.0.0/CBOR.sol\":7035:7080  buf.buf.appendUint8(uint8((major << 5) | 31)) */\n      jump\t// in\n        /* \"@chainlink/contracts/src/v0.8/vendor/@ensdomains/buffer/v0.1.0/Buffer.sol\":8083:8878  function appendInt(buffer memory buf, uint data, uint len) internal pure returns(buffer memory) {... */\n    tag_448:\n      0x40\n      dup1\n      mload\n      dup1\n      dup3\n      add\n      swap1\n      swap2\n      mstore\n      0x60\n      dup2\n      mstore\n      0x00\n      0x20\n      dup3\n      add\n      mstore\n        /* \"@chainlink/contracts/src/v0.8/vendor/@ensdomains/buffer/v0.1.0/Buffer.sol\":8200:8207  buf.buf */\n      dup4\n      mload\n        /* \"@chainlink/contracts/src/v0.8/vendor/@ensdomains/buffer/v0.1.0/Buffer.sol\":8200:8214  buf.buf.length */\n      mload\n        /* \"@chainlink/contracts/src/v0.8/vendor/@ensdomains/buffer/v0.1.0/Buffer.sol\":8189:8197  uint off */\n      0x00\n        /* \"@chainlink/contracts/src/v0.8/vendor/@ensdomains/buffer/v0.1.0/Buffer.sol\":8243:8252  len + off */\n      tag_476\n        /* \"@chainlink/contracts/src/v0.8/vendor/@ensdomains/buffer/v0.1.0/Buffer.sol\":8200:8214  buf.buf.length */\n      dup3\n        /* \"@chainlink/contracts/src/v0.8/vendor/@ensdomains/buffer/v0.1.0/Buffer.sol\":8243:8246  len */\n      dup6\n        /* \"@chainlink/contracts/src/v0.8/vendor/@ensdomains/buffer/v0.1.0/Buffer.sol\":8243:8252  len + off */\n      tag_364\n      jump\t// in\n    tag_476:\n        /* \"@chainlink/contracts/src/v0.8/vendor/@ensdomains/buffer/v0.1.0/Buffer.sol\":8224:8252  uint newCapacity = len + off */\n      swap1\n      pop\n        /* \"@chainlink/contracts/src/v0.8/vendor/@ensdomains/buffer/v0.1.0/Buffer.sol\":8280:8283  buf */\n      dup6\n        /* \"@chainlink/contracts/src/v0.8/vendor/@ensdomains/buffer/v0.1.0/Buffer.sol\":8280:8292  buf.capacity */\n      0x20\n      add\n      mload\n        /* \"@chainlink/contracts/src/v0.8/vendor/@ensdomains/buffer/v0.1.0/Buffer.sol\":8266:8277  newCapacity */\n      dup2\n        /* \"@chainlink/contracts/src/v0.8/vendor/@ensdomains/buffer/v0.1.0/Buffer.sol\":8266:8292  newCapacity > buf.capacity */\n      gt\n        /* \"@chainlink/contracts/src/v0.8/vendor/@ensdomains/buffer/v0.1.0/Buffer.sol\":8262:8347  if (newCapacity > buf.capacity) {... */\n      iszero\n      tag_478\n      jumpi\n        /* \"@chainlink/contracts/src/v0.8/vendor/@ensdomains/buffer/v0.1.0/Buffer.sol\":8308:8336  resize(buf, newCapacity * 2) */\n      tag_478\n        /* \"@chainlink/contracts/src/v0.8/vendor/@ensdomains/buffer/v0.1.0/Buffer.sol\":8315:8318  buf */\n      dup7\n        /* \"@chainlink/contracts/src/v0.8/vendor/@ensdomains/buffer/v0.1.0/Buffer.sol\":8320:8335  newCapacity * 2 */\n      tag_469\n        /* \"@chainlink/contracts/src/v0.8/vendor/@ensdomains/buffer/v0.1.0/Buffer.sol\":8320:8331  newCapacity */\n      dup4\n        /* \"@chainlink/contracts/src/v0.8/vendor/@ensdomains/buffer/v0.1.0/Buffer.sol\":8334:8335  2 */\n      0x02\n        /* \"@chainlink/contracts/src/v0.8/vendor/@ensdomains/buffer/v0.1.0/Buffer.sol\":8320:8335  newCapacity * 2 */\n      tag_362\n      jump\t// in\n        /* \"@chainlink/contracts/src/v0.8/vendor/@ensdomains/buffer/v0.1.0/Buffer.sol\":8308:8336  resize(buf, newCapacity * 2) */\n    tag_478:\n        /* \"@chainlink/contracts/src/v0.8/vendor/@ensdomains/buffer/v0.1.0/Buffer.sol\":8357:8366  uint mask */\n      0x00\n        /* \"@chainlink/contracts/src/v0.8/vendor/@ensdomains/buffer/v0.1.0/Buffer.sol\":8384:8385  1 */\n      0x01\n        /* \"@chainlink/contracts/src/v0.8/vendor/@ensdomains/buffer/v0.1.0/Buffer.sol\":8370:8380  256 ** len */\n      tag_480\n        /* \"@chainlink/contracts/src/v0.8/vendor/@ensdomains/buffer/v0.1.0/Buffer.sol\":8377:8380  len */\n      dup7\n        /* \"@chainlink/contracts/src/v0.8/vendor/@ensdomains/buffer/v0.1.0/Buffer.sol\":8370:8373  256 */\n      0x0100\n        /* \"@chainlink/contracts/src/v0.8/vendor/@ensdomains/buffer/v0.1.0/Buffer.sol\":8370:8380  256 ** len */\n      tag_481\n      jump\t// in\n    tag_480:\n        /* \"@chainlink/contracts/src/v0.8/vendor/@ensdomains/buffer/v0.1.0/Buffer.sol\":8369:8385  (256 ** len) - 1 */\n      tag_482\n      swap2\n      swap1\n      tag_428\n      jump\t// in\n    tag_482:\n        /* \"@chainlink/contracts/src/v0.8/vendor/@ensdomains/buffer/v0.1.0/Buffer.sol\":8357:8385  uint mask = (256 ** len) - 1 */\n      swap1\n      pop\n        /* \"@chainlink/contracts/src/v0.8/vendor/@ensdomains/buffer/v0.1.0/Buffer.sol\":8487:8490  buf */\n      dup7\n        /* \"@chainlink/contracts/src/v0.8/vendor/@ensdomains/buffer/v0.1.0/Buffer.sol\":8481:8491  mload(buf) */\n      mload\n        /* \"@chainlink/contracts/src/v0.8/vendor/@ensdomains/buffer/v0.1.0/Buffer.sol\":8606:8617  newCapacity */\n      dup3\n        /* \"@chainlink/contracts/src/v0.8/vendor/@ensdomains/buffer/v0.1.0/Buffer.sol\":8598:8604  bufptr */\n      dup2\n        /* \"@chainlink/contracts/src/v0.8/vendor/@ensdomains/buffer/v0.1.0/Buffer.sol\":8594:8618  add(bufptr, newCapacity) */\n      add\n        /* \"@chainlink/contracts/src/v0.8/vendor/@ensdomains/buffer/v0.1.0/Buffer.sol\":8676:8680  data */\n      dup8\n        /* \"@chainlink/contracts/src/v0.8/vendor/@ensdomains/buffer/v0.1.0/Buffer.sol\":8668:8672  mask */\n      dup4\n        /* \"@chainlink/contracts/src/v0.8/vendor/@ensdomains/buffer/v0.1.0/Buffer.sol\":8664:8673  not(mask) */\n      not\n        /* \"@chainlink/contracts/src/v0.8/vendor/@ensdomains/buffer/v0.1.0/Buffer.sol\":8657:8661  dest */\n      dup3\n        /* \"@chainlink/contracts/src/v0.8/vendor/@ensdomains/buffer/v0.1.0/Buffer.sol\":8651:8662  mload(dest) */\n      mload\n        /* \"@chainlink/contracts/src/v0.8/vendor/@ensdomains/buffer/v0.1.0/Buffer.sol\":8647:8674  and(mload(dest), not(mask)) */\n      and\n        /* \"@chainlink/contracts/src/v0.8/vendor/@ensdomains/buffer/v0.1.0/Buffer.sol\":8644:8681  or(and(mload(dest), not(mask)), data) */\n      or\n        /* \"@chainlink/contracts/src/v0.8/vendor/@ensdomains/buffer/v0.1.0/Buffer.sol\":8638:8642  dest */\n      dup2\n        /* \"@chainlink/contracts/src/v0.8/vendor/@ensdomains/buffer/v0.1.0/Buffer.sol\":8631:8682  mstore(dest, or(and(mload(dest), not(mask)), data)) */\n      mstore\n      pop\n        /* \"@chainlink/contracts/src/v0.8/vendor/@ensdomains/buffer/v0.1.0/Buffer.sol\":8774:8780  bufptr */\n      dup1\n        /* \"@chainlink/contracts/src/v0.8/vendor/@ensdomains/buffer/v0.1.0/Buffer.sol\":8768:8781  mload(bufptr) */\n      mload\n        /* \"@chainlink/contracts/src/v0.8/vendor/@ensdomains/buffer/v0.1.0/Buffer.sol\":8755:8766  newCapacity */\n      dup4\n        /* \"@chainlink/contracts/src/v0.8/vendor/@ensdomains/buffer/v0.1.0/Buffer.sol\":8752:8782  gt(newCapacity, mload(bufptr)) */\n      gt\n        /* \"@chainlink/contracts/src/v0.8/vendor/@ensdomains/buffer/v0.1.0/Buffer.sol\":8749:8842  if gt(newCapacity, mload(bufptr)) {... */\n      iszero\n      tag_483\n      jumpi\n        /* \"@chainlink/contracts/src/v0.8/vendor/@ensdomains/buffer/v0.1.0/Buffer.sol\":8816:8827  newCapacity */\n      dup3\n        /* \"@chainlink/contracts/src/v0.8/vendor/@ensdomains/buffer/v0.1.0/Buffer.sol\":8808:8814  bufptr */\n      dup2\n        /* \"@chainlink/contracts/src/v0.8/vendor/@ensdomains/buffer/v0.1.0/Buffer.sol\":8801:8828  mstore(bufptr, newCapacity) */\n      mstore\n        /* \"@chainlink/contracts/src/v0.8/vendor/@ensdomains/buffer/v0.1.0/Buffer.sol\":8749:8842  if gt(newCapacity, mload(bufptr)) {... */\n    tag_483:\n      pop\n        /* \"@chainlink/contracts/src/v0.8/vendor/@ensdomains/buffer/v0.1.0/Buffer.sol\":8868:8871  buf */\n      swap6\n      swap7\n        /* \"@chainlink/contracts/src/v0.8/vendor/@ensdomains/buffer/v0.1.0/Buffer.sol\":8083:8878  function appendInt(buffer memory buf, uint data, uint len) internal pure returns(buffer memory) {... */\n      swap6\n      pop\n      pop\n      pop\n      pop\n      pop\n      pop\n      jump\t// out\n        /* \"@chainlink/contracts/src/v0.8/vendor/@ensdomains/buffer/v0.1.0/Buffer.sol\":2844:4271  function append(buffer memory buf, bytes memory data, uint len) internal pure returns(buffer memory) {... */\n    tag_463:\n      0x40\n      dup1\n      mload\n      dup1\n      dup3\n      add\n      swap1\n      swap2\n      mstore\n      0x60\n      dup2\n      mstore\n      0x00\n      0x20\n      dup3\n      add\n      mstore\n        /* \"@chainlink/contracts/src/v0.8/vendor/@ensdomains/buffer/v0.1.0/Buffer.sol\":2970:2974  data */\n      dup3\n        /* \"@chainlink/contracts/src/v0.8/vendor/@ensdomains/buffer/v0.1.0/Buffer.sol\":2970:2981  data.length */\n      mload\n        /* \"@chainlink/contracts/src/v0.8/vendor/@ensdomains/buffer/v0.1.0/Buffer.sol\":2963:2966  len */\n      dup3\n        /* \"@chainlink/contracts/src/v0.8/vendor/@ensdomains/buffer/v0.1.0/Buffer.sol\":2963:2981  len <= data.length */\n      gt\n      iszero\n        /* \"@chainlink/contracts/src/v0.8/vendor/@ensdomains/buffer/v0.1.0/Buffer.sol\":2955:2982  require(len <= data.length) */\n      tag_486\n      jumpi\n      0x00\n      dup1\n      revert\n    tag_486:\n        /* \"@chainlink/contracts/src/v0.8/vendor/@ensdomains/buffer/v0.1.0/Buffer.sol\":3004:3011  buf.buf */\n      dup4\n      mload\n        /* \"@chainlink/contracts/src/v0.8/vendor/@ensdomains/buffer/v0.1.0/Buffer.sol\":3004:3018  buf.buf.length */\n      mload\n        /* \"@chainlink/contracts/src/v0.8/vendor/@ensdomains/buffer/v0.1.0/Buffer.sol\":2993:3001  uint off */\n      0x00\n        /* \"@chainlink/contracts/src/v0.8/vendor/@ensdomains/buffer/v0.1.0/Buffer.sol\":3047:3056  off + len */\n      tag_487\n        /* \"@chainlink/contracts/src/v0.8/vendor/@ensdomains/buffer/v0.1.0/Buffer.sol\":3053:3056  len */\n      dup5\n        /* \"@chainlink/contracts/src/v0.8/vendor/@ensdomains/buffer/v0.1.0/Buffer.sol\":3004:3018  buf.buf.length */\n      dup4\n        /* \"@chainlink/contracts/src/v0.8/vendor/@ensdomains/buffer/v0.1.0/Buffer.sol\":3047:3056  off + len */\n      tag_364\n      jump\t// in\n    tag_487:\n        /* \"@chainlink/contracts/src/v0.8/vendor/@ensdomains/buffer/v0.1.0/Buffer.sol\":3028:3056  uint newCapacity = off + len */\n      swap1\n      pop\n        /* \"@chainlink/contracts/src/v0.8/vendor/@ensdomains/buffer/v0.1.0/Buffer.sol\":3084:3087  buf */\n      dup6\n        /* \"@chainlink/contracts/src/v0.8/vendor/@ensdomains/buffer/v0.1.0/Buffer.sol\":3084:3096  buf.capacity */\n      0x20\n      add\n      mload\n        /* \"@chainlink/contracts/src/v0.8/vendor/@ensdomains/buffer/v0.1.0/Buffer.sol\":3070:3081  newCapacity */\n      dup2\n        /* \"@chainlink/contracts/src/v0.8/vendor/@ensdomains/buffer/v0.1.0/Buffer.sol\":3070:3096  newCapacity > buf.capacity */\n      gt\n        /* \"@chainlink/contracts/src/v0.8/vendor/@ensdomains/buffer/v0.1.0/Buffer.sol\":3066:3151  if (newCapacity > buf.capacity) {... */\n      iszero\n      tag_489\n      jumpi\n        /* \"@chainlink/contracts/src/v0.8/vendor/@ensdomains/buffer/v0.1.0/Buffer.sol\":3112:3140  resize(buf, newCapacity * 2) */\n      tag_489\n        /* \"@chainlink/contracts/src/v0.8/vendor/@ensdomains/buffer/v0.1.0/Buffer.sol\":3119:3122  buf */\n      dup7\n        /* \"@chainlink/contracts/src/v0.8/vendor/@ensdomains/buffer/v0.1.0/Buffer.sol\":3124:3139  newCapacity * 2 */\n      tag_469\n        /* \"@chainlink/contracts/src/v0.8/vendor/@ensdomains/buffer/v0.1.0/Buffer.sol\":3124:3135  newCapacity */\n      dup4\n        /* \"@chainlink/contracts/src/v0.8/vendor/@ensdomains/buffer/v0.1.0/Buffer.sol\":3138:3139  2 */\n      0x02\n        /* \"@chainlink/contracts/src/v0.8/vendor/@ensdomains/buffer/v0.1.0/Buffer.sol\":3124:3139  newCapacity * 2 */\n      tag_362\n      jump\t// in\n        /* \"@chainlink/contracts/src/v0.8/vendor/@ensdomains/buffer/v0.1.0/Buffer.sol\":3112:3140  resize(buf, newCapacity * 2) */\n    tag_489:\n        /* \"@chainlink/contracts/src/v0.8/vendor/@ensdomains/buffer/v0.1.0/Buffer.sol\":3284:3294  mload(buf) */\n      dup6\n      mload\n        /* \"@chainlink/contracts/src/v0.8/vendor/@ensdomains/buffer/v0.1.0/Buffer.sol\":3367:3380  mload(bufptr) */\n      dup1\n      mload\n        /* \"@chainlink/contracts/src/v0.8/vendor/@ensdomains/buffer/v0.1.0/Buffer.sol\":3480:3505  add(add(bufptr, 32), off) */\n      dup4\n      dup3\n      add\n        /* \"@chainlink/contracts/src/v0.8/vendor/@ensdomains/buffer/v0.1.0/Buffer.sol\":3496:3498  32 */\n      0x20\n        /* \"@chainlink/contracts/src/v0.8/vendor/@ensdomains/buffer/v0.1.0/Buffer.sol\":3480:3505  add(add(bufptr, 32), off) */\n      add\n      swap2\n        /* \"@chainlink/contracts/src/v0.8/vendor/@ensdomains/buffer/v0.1.0/Buffer.sol\":3161:3170  uint dest */\n      0x00\n      swap2\n        /* \"@chainlink/contracts/src/v0.8/vendor/@ensdomains/buffer/v0.1.0/Buffer.sol\":3579:3602  gt(newCapacity, buflen) */\n      dup1\n      dup6\n      gt\n        /* \"@chainlink/contracts/src/v0.8/vendor/@ensdomains/buffer/v0.1.0/Buffer.sol\":3576:3662  if gt(newCapacity, buflen) {... */\n      iszero\n      tag_491\n      jumpi\n        /* \"@chainlink/contracts/src/v0.8/vendor/@ensdomains/buffer/v0.1.0/Buffer.sol\":3636:3647  newCapacity */\n      dup5\n        /* \"@chainlink/contracts/src/v0.8/vendor/@ensdomains/buffer/v0.1.0/Buffer.sol\":3628:3634  bufptr */\n      dup3\n        /* \"@chainlink/contracts/src/v0.8/vendor/@ensdomains/buffer/v0.1.0/Buffer.sol\":3621:3648  mstore(bufptr, newCapacity) */\n      mstore\n        /* \"@chainlink/contracts/src/v0.8/vendor/@ensdomains/buffer/v0.1.0/Buffer.sol\":3576:3662  if gt(newCapacity, buflen) {... */\n    tag_491:\n      pop\n      pop\n      pop\n        /* \"@chainlink/contracts/src/v0.8/vendor/@ensdomains/buffer/v0.1.0/Buffer.sol\":3692:3694  32 */\n      0x20\n        /* \"@chainlink/contracts/src/v0.8/vendor/@ensdomains/buffer/v0.1.0/Buffer.sol\":3682:3695  add(data, 32) */\n      dup7\n      add\n        /* \"@chainlink/contracts/src/v0.8/vendor/@ensdomains/buffer/v0.1.0/Buffer.sol\":3765:3930  for (; len >= 32; len -= 32) {... */\n    tag_492:\n        /* \"@chainlink/contracts/src/v0.8/vendor/@ensdomains/buffer/v0.1.0/Buffer.sol\":3779:3781  32 */\n      0x20\n        /* \"@chainlink/contracts/src/v0.8/vendor/@ensdomains/buffer/v0.1.0/Buffer.sol\":3772:3775  len */\n      dup7\n        /* \"@chainlink/contracts/src/v0.8/vendor/@ensdomains/buffer/v0.1.0/Buffer.sol\":3772:3781  len >= 32 */\n      lt\n        /* \"@chainlink/contracts/src/v0.8/vendor/@ensdomains/buffer/v0.1.0/Buffer.sol\":3765:3930  for (; len >= 32; len -= 32) {... */\n      tag_493\n      jumpi\n        /* \"@chainlink/contracts/src/v0.8/vendor/@ensdomains/buffer/v0.1.0/Buffer.sol\":3848:3858  mload(src) */\n      dup1\n      mload\n        /* \"@chainlink/contracts/src/v0.8/vendor/@ensdomains/buffer/v0.1.0/Buffer.sol\":3835:3859  mstore(dest, mload(src)) */\n      dup3\n      mstore\n        /* \"@chainlink/contracts/src/v0.8/vendor/@ensdomains/buffer/v0.1.0/Buffer.sol\":3886:3896  dest += 32 */\n      tag_495\n        /* \"@chainlink/contracts/src/v0.8/vendor/@ensdomains/buffer/v0.1.0/Buffer.sol\":3894:3896  32 */\n      0x20\n        /* \"@chainlink/contracts/src/v0.8/vendor/@ensdomains/buffer/v0.1.0/Buffer.sol\":3842:3846  dest */\n      dup4\n        /* \"@chainlink/contracts/src/v0.8/vendor/@ensdomains/buffer/v0.1.0/Buffer.sol\":3886:3896  dest += 32 */\n      tag_364\n      jump\t// in\n    tag_495:\n      swap2\n      pop\n        /* \"@chainlink/contracts/src/v0.8/vendor/@ensdomains/buffer/v0.1.0/Buffer.sol\":3910:3919  src += 32 */\n      tag_496\n        /* \"@chainlink/contracts/src/v0.8/vendor/@ensdomains/buffer/v0.1.0/Buffer.sol\":3917:3919  32 */\n      0x20\n        /* \"@chainlink/contracts/src/v0.8/vendor/@ensdomains/buffer/v0.1.0/Buffer.sol\":3910:3919  src += 32 */\n      dup3\n      tag_364\n      jump\t// in\n    tag_496:\n      swap1\n      pop\n        /* \"@chainlink/contracts/src/v0.8/vendor/@ensdomains/buffer/v0.1.0/Buffer.sol\":3783:3792  len -= 32 */\n      tag_497\n        /* \"@chainlink/contracts/src/v0.8/vendor/@ensdomains/buffer/v0.1.0/Buffer.sol\":3790:3792  32 */\n      0x20\n        /* \"@chainlink/contracts/src/v0.8/vendor/@ensdomains/buffer/v0.1.0/Buffer.sol\":3783:3792  len -= 32 */\n      dup8\n      tag_428\n      jump\t// in\n    tag_497:\n      swap6\n      pop\n        /* \"@chainlink/contracts/src/v0.8/vendor/@ensdomains/buffer/v0.1.0/Buffer.sol\":3765:3930  for (; len >= 32; len -= 32) {... */\n      jump(tag_492)\n    tag_493:\n        /* \"@chainlink/contracts/src/v0.8/vendor/@ensdomains/buffer/v0.1.0/Buffer.sol\":4091:4101  mload(src) */\n      mload\n        /* \"@chainlink/contracts/src/v0.8/vendor/@ensdomains/buffer/v0.1.0/Buffer.sol\":4150:4161  mload(dest) */\n      dup2\n      mload\n      not(0x00)\n        /* \"@chainlink/contracts/src/v0.8/vendor/@ensdomains/buffer/v0.1.0/Buffer.sol\":4017:4019  32 */\n      0x20\n        /* \"@chainlink/contracts/src/v0.8/vendor/@ensdomains/buffer/v0.1.0/Buffer.sol\":4017:4025  32 - len */\n      dup9\n      swap1\n      sub\n        /* \"@chainlink/contracts/src/v0.8/vendor/@ensdomains/buffer/v0.1.0/Buffer.sol\":4009:4012  256 */\n      0x0100\n        /* \"@chainlink/contracts/src/v0.8/vendor/@ensdomains/buffer/v0.1.0/Buffer.sol\":4009:4026  256 ** (32 - len) */\n      exp\n        /* \"@chainlink/contracts/src/v0.8/vendor/@ensdomains/buffer/v0.1.0/Buffer.sol\":4008:4031  (256 ** (32 - len)) - 1 */\n      add\n        /* \"@chainlink/contracts/src/v0.8/vendor/@ensdomains/buffer/v0.1.0/Buffer.sol\":4146:4168  and(mload(dest), mask) */\n      swap1\n      dup2\n      and\n        /* \"@chainlink/contracts/src/v0.8/vendor/@ensdomains/buffer/v0.1.0/Buffer.sol\":4103:4112  not(mask) */\n      swap1\n      not\n        /* \"@chainlink/contracts/src/v0.8/vendor/@ensdomains/buffer/v0.1.0/Buffer.sol\":4087:4113  and(mload(src), not(mask)) */\n      swap2\n      swap1\n      swap2\n      and\n        /* \"@chainlink/contracts/src/v0.8/vendor/@ensdomains/buffer/v0.1.0/Buffer.sol\":4198:4219  or(destpart, srcpart) */\n      or\n        /* \"@chainlink/contracts/src/v0.8/vendor/@ensdomains/buffer/v0.1.0/Buffer.sol\":4185:4220  mstore(dest, or(destpart, srcpart)) */\n      swap1\n      mstore\n      pop\n        /* \"@chainlink/contracts/src/v0.8/vendor/@ensdomains/buffer/v0.1.0/Buffer.sol\":4261:4264  buf */\n      dup5\n      swap2\n      pop\n      pop\n        /* \"@chainlink/contracts/src/v0.8/vendor/@ensdomains/buffer/v0.1.0/Buffer.sol\":2844:4271  function append(buffer memory buf, bytes memory data, uint len) internal pure returns(buffer memory) {... */\n      swap4\n      swap3\n      pop\n      pop\n      pop\n      jump\t// out\n        /* \"@chainlink/contracts/src/v0.8/vendor/@ensdomains/buffer/v0.1.0/Buffer.sol\":2004:2171  function resize(buffer memory buf, uint capacity) private pure {... */\n    tag_470:\n        /* \"@chainlink/contracts/src/v0.8/vendor/@ensdomains/buffer/v0.1.0/Buffer.sol\":2099:2106  buf.buf */\n      dup2\n      mload\n        /* \"@chainlink/contracts/src/v0.8/vendor/@ensdomains/buffer/v0.1.0/Buffer.sol\":2116:2135  init(buf, capacity) */\n      tag_499\n        /* \"@chainlink/contracts/src/v0.8/vendor/@ensdomains/buffer/v0.1.0/Buffer.sol\":2099:2102  buf */\n      dup4\n        /* \"@chainlink/contracts/src/v0.8/vendor/@ensdomains/buffer/v0.1.0/Buffer.sol\":2126:2134  capacity */\n      dup4\n        /* \"@chainlink/contracts/src/v0.8/vendor/@ensdomains/buffer/v0.1.0/Buffer.sol\":2116:2120  init */\n      tag_410\n        /* \"@chainlink/contracts/src/v0.8/vendor/@ensdomains/buffer/v0.1.0/Buffer.sol\":2116:2135  init(buf, capacity) */\n      jump\t// in\n    tag_499:\n      pop\n        /* \"@chainlink/contracts/src/v0.8/vendor/@ensdomains/buffer/v0.1.0/Buffer.sol\":2145:2164  append(buf, oldbuf) */\n      tag_443\n        /* \"@chainlink/contracts/src/v0.8/vendor/@ensdomains/buffer/v0.1.0/Buffer.sol\":2152:2155  buf */\n      dup4\n        /* \"@chainlink/contracts/src/v0.8/vendor/@ensdomains/buffer/v0.1.0/Buffer.sol\":2157:2163  oldbuf */\n      dup3\n        /* \"@chainlink/contracts/src/v0.8/vendor/@ensdomains/buffer/v0.1.0/Buffer.sol\":2145:2151  append */\n      tag_415\n        /* \"@chainlink/contracts/src/v0.8/vendor/@ensdomains/buffer/v0.1.0/Buffer.sol\":2145:2164  append(buf, oldbuf) */\n      jump\t// in\n    tag_144:\n      0x40\n      dup1\n      mload\n      0xe0\n      dup2\n      add\n      swap1\n      swap2\n      mstore\n      dup1\n      0x00\n      dup2\n      mstore\n      0x20\n      add\n      0x00\n      dup2\n      mstore\n      0x20\n      add\n      0x00\n      dup2\n      mstore\n      0x20\n      add\n      0x60\n      dup2\n      mstore\n      0x20\n      add\n      0x60\n      dup2\n      mstore\n      0x20\n      add\n      0x60\n      dup2\n      mstore\n      0x20\n      add\n      0x60\n      dup2\n      mstore\n      pop\n      swap1\n      jump\t// out\n    tag_407:\n      mload(0x40)\n      dup1\n      0x40\n      add\n      0x40\n      mstore\n      dup1\n      tag_507\n      mload(0x40)\n      dup1\n      0x40\n      add\n      0x40\n      mstore\n      dup1\n      0x60\n      dup2\n      mstore\n      0x20\n      add\n      0x00\n      dup2\n      mstore\n      pop\n      swap1\n      jump\n    tag_507:\n      dup2\n      mstore\n      0x20\n      add\n      0x00\n      dup2\n      mstore\n      pop\n      swap1\n      jump\t// out\n        /* \"#utility.yul\":219:346   */\n    tag_348:\n        /* \"#utility.yul\":280:290   */\n      0x4e487b71\n        /* \"#utility.yul\":275:278   */\n      0xe0\n        /* \"#utility.yul\":271:291   */\n      shl\n        /* \"#utility.yul\":268:269   */\n      0x00\n        /* \"#utility.yul\":261:292   */\n      mstore\n        /* \"#utility.yul\":311:315   */\n      0x41\n        /* \"#utility.yul\":308:309   */\n      0x04\n        /* \"#utility.yul\":301:316   */\n      mstore\n        /* \"#utility.yul\":335:339   */\n      0x24\n        /* \"#utility.yul\":332:333   */\n      0x00\n        /* \"#utility.yul\":325:340   */\n      revert\n        /* \"#utility.yul\":351:1076   */\n    tag_508:\n        /* \"#utility.yul\":393:398   */\n      0x00\n        /* \"#utility.yul\":446:449   */\n      dup3\n        /* \"#utility.yul\":439:443   */\n      0x1f\n        /* \"#utility.yul\":431:437   */\n      dup4\n        /* \"#utility.yul\":427:444   */\n      add\n        /* \"#utility.yul\":423:450   */\n      slt\n        /* \"#utility.yul\":413:468   */\n      tag_520\n      jumpi\n        /* \"#utility.yul\":464:465   */\n      0x00\n        /* \"#utility.yul\":461:462   */\n      dup1\n        /* \"#utility.yul\":454:466   */\n      revert\n        /* \"#utility.yul\":413:468   */\n    tag_520:\n        /* \"#utility.yul\":504:510   */\n      dup2\n        /* \"#utility.yul\":491:511   */\n      calldataload\n      sub(shl(0x40, 0x01), 0x01)\n        /* \"#utility.yul\":526:532   */\n      dup2\n        /* \"#utility.yul\":523:553   */\n      gt\n        /* \"#utility.yul\":520:576   */\n      iszero\n      tag_522\n      jumpi\n        /* \"#utility.yul\":556:574   */\n      tag_522\n      tag_348\n      jump\t// in\n    tag_522:\n        /* \"#utility.yul\":605:607   */\n      0x40\n        /* \"#utility.yul\":599:608   */\n      mload\n        /* \"#utility.yul\":697:699   */\n      0x1f\n        /* \"#utility.yul\":659:676   */\n      dup3\n      add\n      not(0x1f)\n        /* \"#utility.yul\":655:686   */\n      swap1\n      dup2\n      and\n        /* \"#utility.yul\":688:690   */\n      0x3f\n        /* \"#utility.yul\":651:691   */\n      add\n        /* \"#utility.yul\":647:701   */\n      and\n        /* \"#utility.yul\":635:702   */\n      dup2\n      add\n      sub(shl(0x40, 0x01), 0x01)\n        /* \"#utility.yul\":717:751   */\n      dup2\n      gt\n        /* \"#utility.yul\":753:775   */\n      dup3\n      dup3\n      lt\n        /* \"#utility.yul\":714:776   */\n      or\n        /* \"#utility.yul\":711:799   */\n      iszero\n      tag_524\n      jumpi\n        /* \"#utility.yul\":779:797   */\n      tag_524\n      tag_348\n      jump\t// in\n    tag_524:\n        /* \"#utility.yul\":815:817   */\n      0x40\n        /* \"#utility.yul\":808:830   */\n      mstore\n        /* \"#utility.yul\":839:861   */\n      dup2\n      dup2\n      mstore\n        /* \"#utility.yul\":880:899   */\n      dup4\n      dup3\n      add\n        /* \"#utility.yul\":901:905   */\n      0x20\n        /* \"#utility.yul\":876:906   */\n      add\n        /* \"#utility.yul\":873:912   */\n      dup6\n      lt\n        /* \"#utility.yul\":870:929   */\n      iszero\n      tag_525\n      jumpi\n        /* \"#utility.yul\":925:926   */\n      0x00\n        /* \"#utility.yul\":922:923   */\n      dup1\n        /* \"#utility.yul\":915:927   */\n      revert\n        /* \"#utility.yul\":870:929   */\n    tag_525:\n        /* \"#utility.yul\":989:995   */\n      dup2\n        /* \"#utility.yul\":982:986   */\n      0x20\n        /* \"#utility.yul\":974:980   */\n      dup6\n        /* \"#utility.yul\":970:987   */\n      add\n        /* \"#utility.yul\":963:967   */\n      0x20\n        /* \"#utility.yul\":955:961   */\n      dup4\n        /* \"#utility.yul\":951:968   */\n      add\n        /* \"#utility.yul\":938:996   */\n      calldatacopy\n        /* \"#utility.yul\":1044:1045   */\n      0x00\n        /* \"#utility.yul\":1016:1035   */\n      swap2\n      dup2\n      add\n        /* \"#utility.yul\":1037:1041   */\n      0x20\n        /* \"#utility.yul\":1012:1042   */\n      add\n        /* \"#utility.yul\":1005:1046   */\n      swap2\n      swap1\n      swap2\n      mstore\n        /* \"#utility.yul\":1020:1026   */\n      swap4\n        /* \"#utility.yul\":351:1076   */\n      swap3\n      pop\n      pop\n      pop\n      jump\t// out\n        /* \"#utility.yul\":1081:1729   */\n    tag_36:\n        /* \"#utility.yul\":1176:1182   */\n      0x00\n        /* \"#utility.yul\":1184:1190   */\n      dup1\n        /* \"#utility.yul\":1192:1198   */\n      0x00\n        /* \"#utility.yul\":1245:1247   */\n      0x60\n        /* \"#utility.yul\":1233:1242   */\n      dup5\n        /* \"#utility.yul\":1224:1231   */\n      dup7\n        /* \"#utility.yul\":1220:1243   */\n      sub\n        /* \"#utility.yul\":1216:1248   */\n      slt\n        /* \"#utility.yul\":1213:1265   */\n      iszero\n      tag_527\n      jumpi\n        /* \"#utility.yul\":1261:1262   */\n      0x00\n        /* \"#utility.yul\":1258:1259   */\n      dup1\n        /* \"#utility.yul\":1251:1263   */\n      revert\n        /* \"#utility.yul\":1213:1265   */\n    tag_527:\n        /* \"#utility.yul\":1306:1329   */\n      dup4\n      calldataload\n      swap3\n      pop\n        /* \"#utility.yul\":1404:1406   */\n      0x20\n        /* \"#utility.yul\":1389:1407   */\n      dup5\n      add\n        /* \"#utility.yul\":1376:1408   */\n      calldataload\n      sub(shl(0x40, 0x01), 0x01)\n        /* \"#utility.yul\":1420:1450   */\n      dup2\n      gt\n        /* \"#utility.yul\":1417:1467   */\n      iszero\n      tag_528\n      jumpi\n        /* \"#utility.yul\":1463:1464   */\n      0x00\n        /* \"#utility.yul\":1460:1461   */\n      dup1\n        /* \"#utility.yul\":1453:1465   */\n      revert\n        /* \"#utility.yul\":1417:1467   */\n    tag_528:\n        /* \"#utility.yul\":1486:1535   */\n      tag_529\n        /* \"#utility.yul\":1527:1534   */\n      dup7\n        /* \"#utility.yul\":1518:1524   */\n      dup3\n        /* \"#utility.yul\":1507:1516   */\n      dup8\n        /* \"#utility.yul\":1503:1525   */\n      add\n        /* \"#utility.yul\":1486:1535   */\n      tag_508\n      jump\t// in\n    tag_529:\n        /* \"#utility.yul\":1476:1535   */\n      swap3\n      pop\n      pop\n        /* \"#utility.yul\":1588:1590   */\n      0x40\n        /* \"#utility.yul\":1577:1586   */\n      dup5\n        /* \"#utility.yul\":1573:1591   */\n      add\n        /* \"#utility.yul\":1560:1592   */\n      calldataload\n      sub(shl(0x40, 0x01), 0x01)\n        /* \"#utility.yul\":1607:1615   */\n      dup2\n        /* \"#utility.yul\":1604:1636   */\n      gt\n        /* \"#utility.yul\":1601:1653   */\n      iszero\n      tag_530\n      jumpi\n        /* \"#utility.yul\":1649:1650   */\n      0x00\n        /* \"#utility.yul\":1646:1647   */\n      dup1\n        /* \"#utility.yul\":1639:1651   */\n      revert\n        /* \"#utility.yul\":1601:1653   */\n    tag_530:\n        /* \"#utility.yul\":1672:1723   */\n      tag_531\n        /* \"#utility.yul\":1715:1722   */\n      dup7\n        /* \"#utility.yul\":1704:1712   */\n      dup3\n        /* \"#utility.yul\":1693:1702   */\n      dup8\n        /* \"#utility.yul\":1689:1713   */\n      add\n        /* \"#utility.yul\":1672:1723   */\n      tag_508\n      jump\t// in\n    tag_531:\n        /* \"#utility.yul\":1662:1723   */\n      swap2\n      pop\n      pop\n        /* \"#utility.yul\":1081:1729   */\n      swap3\n      pop\n      swap3\n      pop\n      swap3\n      jump\t// out\n        /* \"#utility.yul\":1734:1960   */\n    tag_40:\n        /* \"#utility.yul\":1793:1799   */\n      0x00\n        /* \"#utility.yul\":1846:1848   */\n      0x20\n        /* \"#utility.yul\":1834:1843   */\n      dup3\n        /* \"#utility.yul\":1825:1832   */\n      dup5\n        /* \"#utility.yul\":1821:1844   */\n      sub\n        /* \"#utility.yul\":1817:1849   */\n      slt\n        /* \"#utility.yul\":1814:1866   */\n      iszero\n      tag_533\n      jumpi\n        /* \"#utility.yul\":1862:1863   */\n      0x00\n        /* \"#utility.yul\":1859:1860   */\n      dup1\n        /* \"#utility.yul\":1852:1864   */\n      revert\n        /* \"#utility.yul\":1814:1866   */\n    tag_533:\n      pop\n        /* \"#utility.yul\":1907:1930   */\n      calldataload\n      swap2\n        /* \"#utility.yul\":1734:1960   */\n      swap1\n      pop\n      jump\t// out\n        /* \"#utility.yul\":1965:2092   */\n    tag_155:\n        /* \"#utility.yul\":2026:2036   */\n      0x4e487b71\n        /* \"#utility.yul\":2021:2024   */\n      0xe0\n        /* \"#utility.yul\":2017:2037   */\n      shl\n        /* \"#utility.yul\":2014:2015   */\n      0x00\n        /* \"#utility.yul\":2007:2038   */\n      mstore\n        /* \"#utility.yul\":2057:2061   */\n      0x21\n        /* \"#utility.yul\":2054:2055   */\n      0x04\n        /* \"#utility.yul\":2047:2062   */\n      mstore\n        /* \"#utility.yul\":2081:2085   */\n      0x24\n        /* \"#utility.yul\":2078:2079   */\n      0x00\n        /* \"#utility.yul\":2071:2086   */\n      revert\n        /* \"#utility.yul\":2097:2336   */\n    tag_509:\n        /* \"#utility.yul\":2180:2181   */\n      0x03\n        /* \"#utility.yul\":2173:2178   */\n      dup2\n        /* \"#utility.yul\":2170:2182   */\n      lt\n        /* \"#utility.yul\":2160:2303   */\n      tag_536\n      jumpi\n        /* \"#utility.yul\":2225:2235   */\n      0x4e487b71\n        /* \"#utility.yul\":2220:2223   */\n      0xe0\n        /* \"#utility.yul\":2216:2236   */\n      shl\n        /* \"#utility.yul\":2213:2214   */\n      0x00\n        /* \"#utility.yul\":2206:2237   */\n      mstore\n        /* \"#utility.yul\":2260:2264   */\n      0x21\n        /* \"#utility.yul\":2257:2258   */\n      0x04\n        /* \"#utility.yul\":2250:2265   */\n      mstore\n        /* \"#utility.yul\":2288:2292   */\n      0x24\n        /* \"#utility.yul\":2285:2286   */\n      0x00\n        /* \"#utility.yul\":2278:2293   */\n      revert\n        /* \"#utility.yul\":2160:2303   */\n    tag_536:\n        /* \"#utility.yul\":2312:2330   */\n      swap1\n      mstore\n        /* \"#utility.yul\":2097:2336   */\n      jump\t// out\n        /* \"#utility.yul\":2341:2819   */\n    tag_43:\n      sub(shl(0xa0, 0x01), 0x01)\n        /* \"#utility.yul\":2604:2636   */\n      dup6\n      and\n        /* \"#utility.yul\":2586:2637   */\n      dup2\n      mstore\n        /* \"#utility.yul\":2573:2576   */\n      0x80\n        /* \"#utility.yul\":2558:2577   */\n      dup2\n      add\n        /* \"#utility.yul\":2646:2701   */\n      tag_538\n        /* \"#utility.yul\":2697:2699   */\n      0x20\n        /* \"#utility.yul\":2682:2700   */\n      dup4\n      add\n        /* \"#utility.yul\":2674:2680   */\n      dup7\n        /* \"#utility.yul\":2646:2701   */\n      tag_509\n      jump\t// in\n    tag_538:\n      sub(shl(0xa0, 0x01), 0x01)\n        /* \"#utility.yul\":2737:2769   */\n      swap4\n      swap1\n      swap4\n      and\n        /* \"#utility.yul\":2732:2734   */\n      0x40\n        /* \"#utility.yul\":2717:2735   */\n      dup3\n      add\n        /* \"#utility.yul\":2710:2770   */\n      mstore\n        /* \"#utility.yul\":2801:2803   */\n      0x60\n        /* \"#utility.yul\":2786:2804   */\n      add\n        /* \"#utility.yul\":2779:2813   */\n      mstore\n        /* \"#utility.yul\":2341:2819   */\n      swap3\n      swap2\n      pop\n      pop\n      jump\t// out\n        /* \"#utility.yul\":3013:3186   */\n    tag_510:\n        /* \"#utility.yul\":3081:3101   */\n      dup1\n      calldataload\n      sub(shl(0xa0, 0x01), 0x01)\n        /* \"#utility.yul\":3130:3161   */\n      dup2\n      and\n        /* \"#utility.yul\":3120:3162   */\n      dup2\n      eq\n        /* \"#utility.yul\":3110:3180   */\n      tag_198\n      jumpi\n        /* \"#utility.yul\":3176:3177   */\n      0x00\n        /* \"#utility.yul\":3173:3174   */\n      dup1\n        /* \"#utility.yul\":3166:3178   */\n      revert\n        /* \"#utility.yul\":3191:3491   */\n    tag_50:\n        /* \"#utility.yul\":3259:3265   */\n      0x00\n        /* \"#utility.yul\":3267:3273   */\n      dup1\n        /* \"#utility.yul\":3320:3322   */\n      0x40\n        /* \"#utility.yul\":3308:3317   */\n      dup4\n        /* \"#utility.yul\":3299:3306   */\n      dup6\n        /* \"#utility.yul\":3295:3318   */\n      sub\n        /* \"#utility.yul\":3291:3323   */\n      slt\n        /* \"#utility.yul\":3288:3340   */\n      iszero\n      tag_543\n      jumpi\n        /* \"#utility.yul\":3336:3337   */\n      0x00\n        /* \"#utility.yul\":3333:3334   */\n      dup1\n        /* \"#utility.yul\":3326:3338   */\n      revert\n        /* \"#utility.yul\":3288:3340   */\n    tag_543:\n        /* \"#utility.yul\":3359:3388   */\n      tag_544\n        /* \"#utility.yul\":3378:3387   */\n      dup4\n        /* \"#utility.yul\":3359:3388   */\n      tag_510\n      jump\t// in\n    tag_544:\n        /* \"#utility.yul\":3349:3388   */\n      swap5\n        /* \"#utility.yul\":3457:3459   */\n      0x20\n        /* \"#utility.yul\":3442:3460   */\n      swap4\n      swap1\n      swap4\n      add\n        /* \"#utility.yul\":3429:3461   */\n      calldataload\n      swap4\n      pop\n      pop\n      pop\n        /* \"#utility.yul\":3191:3491   */\n      jump\t// out\n        /* \"#utility.yul\":4040:4226   */\n    tag_69:\n        /* \"#utility.yul\":4099:4105   */\n      0x00\n        /* \"#utility.yul\":4152:4154   */\n      0x20\n        /* \"#utility.yul\":4140:4149   */\n      dup3\n        /* \"#utility.yul\":4131:4138   */\n      dup5\n        /* \"#utility.yul\":4127:4150   */\n      sub\n        /* \"#utility.yul\":4123:4155   */\n      slt\n        /* \"#utility.yul\":4120:4172   */\n      iszero\n      tag_549\n      jumpi\n        /* \"#utility.yul\":4168:4169   */\n      0x00\n        /* \"#utility.yul\":4165:4166   */\n      dup1\n        /* \"#utility.yul\":4158:4170   */\n      revert\n        /* \"#utility.yul\":4120:4172   */\n    tag_549:\n        /* \"#utility.yul\":4191:4220   */\n      tag_462\n        /* \"#utility.yul\":4210:4219   */\n      dup3\n        /* \"#utility.yul\":4191:4220   */\n      tag_510\n      jump\t// in\n        /* \"#utility.yul\":4439:4859   */\n    tag_97:\n        /* \"#utility.yul\":4516:4522   */\n      0x00\n        /* \"#utility.yul\":4524:4530   */\n      dup1\n        /* \"#utility.yul\":4532:4538   */\n      0x00\n        /* \"#utility.yul\":4585:4587   */\n      0x60\n        /* \"#utility.yul\":4573:4582   */\n      dup5\n        /* \"#utility.yul\":4564:4571   */\n      dup7\n        /* \"#utility.yul\":4560:4583   */\n      sub\n        /* \"#utility.yul\":4556:4588   */\n      slt\n        /* \"#utility.yul\":4553:4605   */\n      iszero\n      tag_553\n      jumpi\n        /* \"#utility.yul\":4601:4602   */\n      0x00\n        /* \"#utility.yul\":4598:4599   */\n      dup1\n        /* \"#utility.yul\":4591:4603   */\n      revert\n        /* \"#utility.yul\":4553:4605   */\n    tag_553:\n        /* \"#utility.yul\":4624:4653   */\n      tag_554\n        /* \"#utility.yul\":4643:4652   */\n      dup5\n        /* \"#utility.yul\":4624:4653   */\n      tag_510\n      jump\t// in\n    tag_554:\n        /* \"#utility.yul\":4614:4653   */\n      swap6\n        /* \"#utility.yul\":4722:4724   */\n      0x20\n        /* \"#utility.yul\":4707:4725   */\n      dup6\n      add\n        /* \"#utility.yul\":4694:4726   */\n      calldataload\n      swap6\n      pop\n        /* \"#utility.yul\":4823:4825   */\n      0x40\n        /* \"#utility.yul\":4808:4826   */\n      swap1\n      swap5\n      add\n        /* \"#utility.yul\":4795:4827   */\n      calldataload\n      swap4\n        /* \"#utility.yul\":4439:4859   */\n      swap3\n      pop\n      pop\n      pop\n      jump\t// out\n        /* \"#utility.yul\":5245:5589   */\n    tag_139:\n        /* \"#utility.yul\":5447:5449   */\n      0x20\n        /* \"#utility.yul\":5429:5450   */\n      dup1\n      dup3\n      mstore\n        /* \"#utility.yul\":5486:5488   */\n      0x14\n        /* \"#utility.yul\":5466:5484   */\n      swap1\n      dup3\n      add\n        /* \"#utility.yul\":5459:5489   */\n      mstore\n      shl(0x60, 0x496e76616c696420757365722061646472657373)\n        /* \"#utility.yul\":5520:5522   */\n      0x40\n        /* \"#utility.yul\":5505:5523   */\n      dup3\n      add\n        /* \"#utility.yul\":5498:5548   */\n      mstore\n        /* \"#utility.yul\":5580:5582   */\n      0x60\n        /* \"#utility.yul\":5565:5583   */\n      add\n      swap1\n        /* \"#utility.yul\":5245:5589   */\n      jump\t// out\n        /* \"#utility.yul\":5942:6154   */\n    tag_159:\n        /* \"#utility.yul\":6090:6092   */\n      0x20\n        /* \"#utility.yul\":6075:6093   */\n      dup2\n      add\n        /* \"#utility.yul\":6102:6148   */\n      tag_126\n        /* \"#utility.yul\":6079:6088   */\n      dup3\n        /* \"#utility.yul\":6130:6136   */\n      dup5\n        /* \"#utility.yul\":6102:6148   */\n      tag_509\n      jump\t// in\n        /* \"#utility.yul\":7806:8209   */\n    tag_235:\n        /* \"#utility.yul\":7893:7899   */\n      0x00\n        /* \"#utility.yul\":7901:7907   */\n      dup1\n        /* \"#utility.yul\":7909:7915   */\n      0x00\n        /* \"#utility.yul\":7962:7964   */\n      0x60\n        /* \"#utility.yul\":7950:7959   */\n      dup5\n        /* \"#utility.yul\":7941:7948   */\n      dup7\n        /* \"#utility.yul\":7937:7960   */\n      sub\n        /* \"#utility.yul\":7933:7965   */\n      slt\n        /* \"#utility.yul\":7930:7982   */\n      iszero\n      tag_568\n      jumpi\n        /* \"#utility.yul\":7978:7979   */\n      0x00\n        /* \"#utility.yul\":7975:7976   */\n      dup1\n        /* \"#utility.yul\":7968:7980   */\n      revert\n        /* \"#utility.yul\":7930:7982   */\n    tag_568:\n      pop\n      pop\n        /* \"#utility.yul\":8001:8017   */\n      dup2\n      mload\n        /* \"#utility.yul\":8079:8081   */\n      0x20\n        /* \"#utility.yul\":8064:8082   */\n      dup4\n      add\n        /* \"#utility.yul\":8058:8083   */\n      mload\n        /* \"#utility.yul\":8173:8175   */\n      0x40\n        /* \"#utility.yul\":8158:8176   */\n      swap1\n      swap4\n      add\n        /* \"#utility.yul\":8152:8177   */\n      mload\n        /* \"#utility.yul\":8001:8017   */\n      swap1\n      swap5\n        /* \"#utility.yul\":8058:8083   */\n      swap3\n      swap4\n      pop\n        /* \"#utility.yul\":8152:8177   */\n      swap2\n        /* \"#utility.yul\":7806:8209   */\n      swap1\n      pop\n      jump\t// out\n        /* \"#utility.yul\":8536:8786   */\n    tag_511:\n        /* \"#utility.yul\":8621:8622   */\n      0x00\n        /* \"#utility.yul\":8631:8744   */\n    tag_571:\n        /* \"#utility.yul\":8645:8651   */\n      dup4\n        /* \"#utility.yul\":8642:8643   */\n      dup2\n        /* \"#utility.yul\":8639:8652   */\n      lt\n        /* \"#utility.yul\":8631:8744   */\n      iszero\n      tag_573\n      jumpi\n        /* \"#utility.yul\":8721:8732   */\n      dup2\n      dup2\n      add\n        /* \"#utility.yul\":8715:8733   */\n      mload\n        /* \"#utility.yul\":8702:8713   */\n      dup4\n      dup3\n      add\n        /* \"#utility.yul\":8695:8734   */\n      mstore\n        /* \"#utility.yul\":8667:8669   */\n      0x20\n        /* \"#utility.yul\":8660:8670   */\n      add\n        /* \"#utility.yul\":8631:8744   */\n      jump(tag_571)\n    tag_573:\n      pop\n      pop\n        /* \"#utility.yul\":8778:8779   */\n      0x00\n        /* \"#utility.yul\":8760:8776   */\n      swap2\n      add\n        /* \"#utility.yul\":8753:8780   */\n      mstore\n        /* \"#utility.yul\":8536:8786   */\n      jump\t// out\n        /* \"#utility.yul\":8791:10617   */\n    tag_275:\n      shl(0x90, 0x636f6e73742075736572203d2027)\n        /* \"#utility.yul\":9500:9503   */\n      dup2\n        /* \"#utility.yul\":9493:9522   */\n      mstore\n        /* \"#utility.yul\":9475:9478   */\n      0x00\n        /* \"#utility.yul\":9551:9557   */\n      dup4\n        /* \"#utility.yul\":9545:9558   */\n      mload\n        /* \"#utility.yul\":9567:9642   */\n      tag_575\n        /* \"#utility.yul\":9635:9641   */\n      dup2\n        /* \"#utility.yul\":9630:9632   */\n      0x0e\n        /* \"#utility.yul\":9625:9628   */\n      dup6\n        /* \"#utility.yul\":9621:9633   */\n      add\n        /* \"#utility.yul\":9614:9618   */\n      0x20\n        /* \"#utility.yul\":9606:9612   */\n      dup9\n        /* \"#utility.yul\":9602:9619   */\n      add\n        /* \"#utility.yul\":9567:9642   */\n      tag_511\n      jump\t// in\n    tag_575:\n      shl(0xf0, 0x273b)\n        /* \"#utility.yul\":9701:9703   */\n      0x0e\n        /* \"#utility.yul\":9661:9677   */\n      swap2\n      dup5\n      add\n        /* \"#utility.yul\":9693:9704   */\n      swap2\n      dup3\n      add\n        /* \"#utility.yul\":9686:9711   */\n      mstore\n      shl(0x60, 0x636f6e73742070726f706f73616c4964203d2027)\n        /* \"#utility.yul\":9735:9737   */\n      0x10\n        /* \"#utility.yul\":9727:9738   */\n      dup3\n      add\n        /* \"#utility.yul\":9720:9763   */\n      mstore\n        /* \"#utility.yul\":9788:9801   */\n      dup4\n      mload\n        /* \"#utility.yul\":9810:9886   */\n      tag_576\n        /* \"#utility.yul\":9788:9801   */\n      dup2\n        /* \"#utility.yul\":9872:9874   */\n      0x24\n        /* \"#utility.yul\":9864:9875   */\n      dup5\n      add\n        /* \"#utility.yul\":9857:9861   */\n      0x20\n        /* \"#utility.yul\":9845:9862   */\n      dup9\n      add\n        /* \"#utility.yul\":9810:9886   */\n      tag_511\n      jump\t// in\n    tag_576:\n      shl(0xf0, 0x273b)\n        /* \"#utility.yul\":9947:9958   */\n      0x24\n        /* \"#utility.yul\":9909:9926   */\n      swap3\n      swap1\n      swap2\n      add\n        /* \"#utility.yul\":9947:9958   */\n      swap2\n      dup3\n      add\n        /* \"#utility.yul\":9940:9965   */\n      mstore\n        /* \"#utility.yul\":9994:10028   */\n      0x636f6e737420617069526573706f6e7365203d2061776169742046756e637469\n        /* \"#utility.yul\":9981:9992   */\n      0x26\n      dup3\n      add\n        /* \"#utility.yul\":9974:10029   */\n      mstore\n        /* \"#utility.yul\":10058:10092   */\n      0x6f6e732e6d616b654874747052657175657374287b75726c3a20276874747073\n        /* \"#utility.yul\":10045:10056   */\n      0x46\n      dup3\n      add\n        /* \"#utility.yul\":10038:10093   */\n      mstore\n        /* \"#utility.yul\":10122:10156   */\n      0x3a2f2f75626934616c6c2d64616f2d6170692e636f6d2f636f7272656c617469\n        /* \"#utility.yul\":10109:10120   */\n      0x66\n      dup3\n      add\n        /* \"#utility.yul\":10102:10157   */\n      mstore\n        /* \"#utility.yul\":10187:10221   */\n      0x6f6e272c706172616d733a207b20757365723a20757365722c2070726f706f73\n        /* \"#utility.yul\":10173:10185   */\n      0x86\n      dup3\n      add\n        /* \"#utility.yul\":10166:10222   */\n      mstore\n        /* \"#utility.yul\":10252:10286   */\n      0x616c49643a2070726f706f73616c4964207d7d293b6966202861706952657370\n        /* \"#utility.yul\":10238:10250   */\n      0xa6\n      dup3\n      add\n        /* \"#utility.yul\":10231:10287   */\n      mstore\n        /* \"#utility.yul\":10317:10351   */\n      0x6f6e73652e6572726f7229207b207468726f77204572726f7228274150492045\n        /* \"#utility.yul\":10303:10315   */\n      0xc6\n      dup3\n      add\n        /* \"#utility.yul\":10296:10352   */\n      mstore\n        /* \"#utility.yul\":10382:10416   */\n      0x72726f7227293b207d636f6e73742073636f7265203d204d6174682e6d696e28\n        /* \"#utility.yul\":10368:10380   */\n      0xe6\n      dup3\n      add\n        /* \"#utility.yul\":10361:10417   */\n      mstore\n        /* \"#utility.yul\":10447:10481   */\n      0x617069526573706f6e73652e646174612e73636f72652c20313030293b726574\n        /* \"#utility.yul\":10433:10445   */\n      0x0106\n      dup3\n      add\n        /* \"#utility.yul\":10426:10482   */\n      mstore\n        /* \"#utility.yul\":10512:10546   */\n      0x75726e2046756e6374696f6e732e656e636f646555696e743235362873636f72\n        /* \"#utility.yul\":10498:10510   */\n      0x0126\n      dup3\n      add\n        /* \"#utility.yul\":10491:10547   */\n      mstore\n      shl(0xe8, 0x65293b)\n        /* \"#utility.yul\":10563:10575   */\n      0x0146\n      dup3\n      add\n        /* \"#utility.yul\":10556:10583   */\n      mstore\n        /* \"#utility.yul\":10599:10611   */\n      0x0149\n      add\n      swap5\n        /* \"#utility.yul\":8791:10617   */\n      swap4\n      pop\n      pop\n      pop\n      pop\n      jump\t// out\n        /* \"#utility.yul\":10622:10749   */\n    tag_304:\n        /* \"#utility.yul\":10683:10693   */\n      0x4e487b71\n        /* \"#utility.yul\":10678:10681   */\n      0xe0\n        /* \"#utility.yul\":10674:10694   */\n      shl\n        /* \"#utility.yul\":10671:10672   */\n      0x00\n        /* \"#utility.yul\":10664:10695   */\n      mstore\n        /* \"#utility.yul\":10714:10718   */\n      0x32\n        /* \"#utility.yul\":10711:10712   */\n      0x04\n        /* \"#utility.yul\":10704:10719   */\n      mstore\n        /* \"#utility.yul\":10738:10742   */\n      0x24\n        /* \"#utility.yul\":10735:10736   */\n      0x00\n        /* \"#utility.yul\":10728:10743   */\n      revert\n        /* \"#utility.yul\":10754:11486   */\n    tag_332:\n      sub(shl(0x40, 0x01), 0x01)\n        /* \"#utility.yul\":11011:11017   */\n      dup7\n        /* \"#utility.yul\":11007:11038   */\n      and\n        /* \"#utility.yul\":10996:11005   */\n      dup2\n        /* \"#utility.yul\":10989:11039   */\n      mstore\n        /* \"#utility.yul\":11075:11078   */\n      0xa0\n        /* \"#utility.yul\":11070:11072   */\n      0x20\n        /* \"#utility.yul\":11059:11068   */\n      dup3\n        /* \"#utility.yul\":11055:11073   */\n      add\n        /* \"#utility.yul\":11048:11079   */\n      mstore\n        /* \"#utility.yul\":10970:10974   */\n      0x00\n        /* \"#utility.yul\":11108:11114   */\n      dup6\n        /* \"#utility.yul\":11102:11115   */\n      mload\n        /* \"#utility.yul\":11152:11158   */\n      dup1\n        /* \"#utility.yul\":11146:11149   */\n      0xa0\n        /* \"#utility.yul\":11135:11144   */\n      dup5\n        /* \"#utility.yul\":11131:11150   */\n      add\n        /* \"#utility.yul\":11124:11159   */\n      mstore\n        /* \"#utility.yul\":11168:11248   */\n      tag_579\n        /* \"#utility.yul\":11241:11247   */\n      dup2\n        /* \"#utility.yul\":11235:11238   */\n      0xc0\n        /* \"#utility.yul\":11224:11233   */\n      dup6\n        /* \"#utility.yul\":11220:11239   */\n      add\n        /* \"#utility.yul\":11215:11217   */\n      0x20\n        /* \"#utility.yul\":11207:11213   */\n      dup11\n        /* \"#utility.yul\":11203:11218   */\n      add\n        /* \"#utility.yul\":11168:11248   */\n      tag_511\n      jump\t// in\n    tag_579:\n        /* \"#utility.yul\":11368:11374   */\n      0xffff\n        /* \"#utility.yul\":11356:11375   */\n      swap6\n      swap1\n      swap6\n      and\n        /* \"#utility.yul\":11351:11353   */\n      0x40\n        /* \"#utility.yul\":11336:11354   */\n      dup4\n      add\n        /* \"#utility.yul\":11329:11376   */\n      mstore\n      pop\n        /* \"#utility.yul\":11424:11434   */\n      0xffffffff\n        /* \"#utility.yul\":11412:11435   */\n      swap3\n      swap1\n      swap3\n      and\n        /* \"#utility.yul\":11407:11409   */\n      0x60\n        /* \"#utility.yul\":11392:11410   */\n      dup4\n      add\n        /* \"#utility.yul\":11385:11436   */\n      mstore\n        /* \"#utility.yul\":11467:11470   */\n      0x80\n        /* \"#utility.yul\":11452:11471   */\n      dup3\n      add\n        /* \"#utility.yul\":11445:11480   */\n      mstore\n        /* \"#utility.yul\":11316:11319   */\n      0xc0\n        /* \"#utility.yul\":11309:11311   */\n      0x1f\n        /* \"#utility.yul\":11288:11303   */\n      swap1\n      swap3\n      add\n      not(0x1f)\n        /* \"#utility.yul\":11284:11313   */\n      and\n        /* \"#utility.yul\":11269:11314   */\n      add\n        /* \"#utility.yul\":11265:11320   */\n      add\n      swap3\n      swap2\n      pop\n      pop\n        /* \"#utility.yul\":10754:11486   */\n      jump\t// out\n        /* \"#utility.yul\":11491:11675   */\n    tag_336:\n        /* \"#utility.yul\":11561:11567   */\n      0x00\n        /* \"#utility.yul\":11614:11616   */\n      0x20\n        /* \"#utility.yul\":11602:11611   */\n      dup3\n        /* \"#utility.yul\":11593:11600   */\n      dup5\n        /* \"#utility.yul\":11589:11612   */\n      sub\n        /* \"#utility.yul\":11585:11617   */\n      slt\n        /* \"#utility.yul\":11582:11634   */\n      iszero\n      tag_581\n      jumpi\n        /* \"#utility.yul\":11630:11631   */\n      0x00\n        /* \"#utility.yul\":11627:11628   */\n      dup1\n        /* \"#utility.yul\":11620:11632   */\n      revert\n        /* \"#utility.yul\":11582:11634   */\n    tag_581:\n      pop\n        /* \"#utility.yul\":11653:11669   */\n      mload\n      swap2\n        /* \"#utility.yul\":11491:11675   */\n      swap1\n      pop\n      jump\t// out\n        /* \"#utility.yul\":11680:12944   */\n    tag_341:\n      shl(0x90, 0x636f6e73742075736572203d2027)\n        /* \"#utility.yul\":12139:12142   */\n      dup2\n        /* \"#utility.yul\":12132:12161   */\n      mstore\n        /* \"#utility.yul\":12114:12117   */\n      0x00\n        /* \"#utility.yul\":12190:12196   */\n      dup3\n        /* \"#utility.yul\":12184:12197   */\n      mload\n        /* \"#utility.yul\":12206:12281   */\n      tag_583\n        /* \"#utility.yul\":12274:12280   */\n      dup2\n        /* \"#utility.yul\":12269:12271   */\n      0x0e\n        /* \"#utility.yul\":12264:12267   */\n      dup6\n        /* \"#utility.yul\":12260:12272   */\n      add\n        /* \"#utility.yul\":12253:12257   */\n      0x20\n        /* \"#utility.yul\":12245:12251   */\n      dup8\n        /* \"#utility.yul\":12241:12258   */\n      add\n        /* \"#utility.yul\":12206:12281   */\n      tag_511\n      jump\t// in\n    tag_583:\n      shl(0xf0, 0x273b)\n        /* \"#utility.yul\":12340:12342   */\n      0x0e\n        /* \"#utility.yul\":12300:12316   */\n      swap4\n      swap1\n      swap2\n      add\n        /* \"#utility.yul\":12332:12343   */\n      swap3\n      dup4\n      add\n        /* \"#utility.yul\":12325:12350   */\n      mstore\n      pop\n        /* \"#utility.yul\":12379:12413   */\n      0x636f6e737420617069526573706f6e7365203d2061776169742046756e637469\n        /* \"#utility.yul\":12374:12376   */\n      0x10\n        /* \"#utility.yul\":12366:12377   */\n      dup3\n      add\n        /* \"#utility.yul\":12359:12414   */\n      mstore\n        /* \"#utility.yul\":12443:12477   */\n      0x6f6e732e6d616b654874747052657175657374287b75726c3a20276874747073\n        /* \"#utility.yul\":12438:12440   */\n      0x30\n        /* \"#utility.yul\":12430:12441   */\n      dup3\n      add\n        /* \"#utility.yul\":12423:12478   */\n      mstore\n        /* \"#utility.yul\":12507:12541   */\n      0x3a2f2f75626934616c6c2d64616f2d6170692e636f6d2f72657075746174696f\n        /* \"#utility.yul\":12502:12504   */\n      0x50\n        /* \"#utility.yul\":12494:12505   */\n      dup3\n      add\n        /* \"#utility.yul\":12487:12542   */\n      mstore\n        /* \"#utility.yul\":12572:12606   */\n      0x6e272c706172616d733a207b20757365723a2075736572207d7d293b69662028\n        /* \"#utility.yul\":12566:12569   */\n      0x70\n        /* \"#utility.yul\":12558:12570   */\n      dup3\n      add\n        /* \"#utility.yul\":12551:12607   */\n      mstore\n        /* \"#utility.yul\":12637:12671   */\n      0x617069526573706f6e73652e6572726f7229207b207468726f77204572726f72\n        /* \"#utility.yul\":12631:12634   */\n      0x90\n        /* \"#utility.yul\":12623:12635   */\n      dup3\n      add\n        /* \"#utility.yul\":12616:12672   */\n      mstore\n        /* \"#utility.yul\":12702:12736   */\n      0x2827415049204572726f7227293b207d636f6e73742073636f7265203d204d61\n        /* \"#utility.yul\":12696:12699   */\n      0xb0\n        /* \"#utility.yul\":12688:12700   */\n      dup3\n      add\n        /* \"#utility.yul\":12681:12737   */\n      mstore\n        /* \"#utility.yul\":12767:12801   */\n      0x74682e6d696e28617069526573706f6e73652e646174612e73636f72652c2031\n        /* \"#utility.yul\":12761:12764   */\n      0xd0\n        /* \"#utility.yul\":12753:12765   */\n      dup3\n      add\n        /* \"#utility.yul\":12746:12802   */\n      mstore\n        /* \"#utility.yul\":12832:12866   */\n      0x3030293b72657475726e2046756e6374696f6e732e656e636f646555696e7432\n        /* \"#utility.yul\":12826:12829   */\n      0xf0\n        /* \"#utility.yul\":12818:12830   */\n      dup3\n      add\n        /* \"#utility.yul\":12811:12867   */\n      mstore\n      shl(0xb0, 0x35362873636f7265293b)\n        /* \"#utility.yul\":12891:12894   */\n      0x0110\n        /* \"#utility.yul\":12883:12895   */\n      dup3\n      add\n        /* \"#utility.yul\":12876:12910   */\n      mstore\n        /* \"#utility.yul\":12934:12937   */\n      0x011a\n        /* \"#utility.yul\":12926:12938   */\n      add\n      swap2\n        /* \"#utility.yul\":11680:12944   */\n      swap1\n      pop\n      jump\t// out\n        /* \"#utility.yul\":13183:13310   */\n    tag_512:\n        /* \"#utility.yul\":13244:13254   */\n      0x4e487b71\n        /* \"#utility.yul\":13239:13242   */\n      0xe0\n        /* \"#utility.yul\":13235:13255   */\n      shl\n        /* \"#utility.yul\":13232:13233   */\n      0x00\n        /* \"#utility.yul\":13225:13256   */\n      mstore\n        /* \"#utility.yul\":13275:13279   */\n      0x11\n        /* \"#utility.yul\":13272:13273   */\n      0x04\n        /* \"#utility.yul\":13265:13280   */\n      mstore\n        /* \"#utility.yul\":13299:13303   */\n      0x24\n        /* \"#utility.yul\":13296:13297   */\n      0x00\n        /* \"#utility.yul\":13289:13304   */\n      revert\n        /* \"#utility.yul\":13315:13483   */\n    tag_362:\n        /* \"#utility.yul\":13388:13397   */\n      dup1\n      dup3\n      mul\n        /* \"#utility.yul\":13419:13428   */\n      dup2\n      iszero\n        /* \"#utility.yul\":13436:13451   */\n      dup3\n      dup3\n      div\n        /* \"#utility.yul\":13430:13452   */\n      dup5\n      eq\n        /* \"#utility.yul\":13416:13453   */\n      or\n        /* \"#utility.yul\":13406:13477   */\n      tag_126\n      jumpi\n        /* \"#utility.yul\":13457:13475   */\n      tag_126\n      tag_512\n      jump\t// in\n        /* \"#utility.yul\":13488:13613   */\n    tag_364:\n        /* \"#utility.yul\":13553:13562   */\n      dup1\n      dup3\n      add\n        /* \"#utility.yul\":13574:13584   */\n      dup1\n      dup3\n      gt\n        /* \"#utility.yul\":13571:13607   */\n      iszero\n      tag_126\n      jumpi\n        /* \"#utility.yul\":13587:13605   */\n      tag_126\n      tag_512\n      jump\t// in\n        /* \"#utility.yul\":13618:13753   */\n    tag_380:\n        /* \"#utility.yul\":13657:13660   */\n      0x00\n        /* \"#utility.yul\":13678:13695   */\n      0x01\n      dup3\n      add\n        /* \"#utility.yul\":13675:13718   */\n      tag_594\n      jumpi\n        /* \"#utility.yul\":13698:13716   */\n      tag_594\n      tag_512\n      jump\t// in\n    tag_594:\n      pop\n        /* \"#utility.yul\":13745:13746   */\n      0x01\n        /* \"#utility.yul\":13734:13747   */\n      add\n      swap1\n        /* \"#utility.yul\":13618:13753   */\n      jump\t// out\n        /* \"#utility.yul\":13758:13885   */\n    tag_513:\n        /* \"#utility.yul\":13819:13829   */\n      0x4e487b71\n        /* \"#utility.yul\":13814:13817   */\n      0xe0\n        /* \"#utility.yul\":13810:13830   */\n      shl\n        /* \"#utility.yul\":13807:13808   */\n      0x00\n        /* \"#utility.yul\":13800:13831   */\n      mstore\n        /* \"#utility.yul\":13850:13854   */\n      0x12\n        /* \"#utility.yul\":13847:13848   */\n      0x04\n        /* \"#utility.yul\":13840:13855   */\n      mstore\n        /* \"#utility.yul\":13874:13878   */\n      0x24\n        /* \"#utility.yul\":13871:13872   */\n      0x00\n        /* \"#utility.yul\":13864:13879   */\n      revert\n        /* \"#utility.yul\":13890:14010   */\n    tag_382:\n        /* \"#utility.yul\":13930:13931   */\n      0x00\n        /* \"#utility.yul\":13956:13957   */\n      dup3\n        /* \"#utility.yul\":13946:13981   */\n      tag_598\n      jumpi\n        /* \"#utility.yul\":13961:13979   */\n      tag_598\n      tag_513\n      jump\t// in\n    tag_598:\n      pop\n        /* \"#utility.yul\":13995:14004   */\n      div\n      swap1\n        /* \"#utility.yul\":13890:14010   */\n      jump\t// out\n        /* \"#utility.yul\":14015:14151   */\n    tag_389:\n        /* \"#utility.yul\":14054:14057   */\n      0x00\n        /* \"#utility.yul\":14082:14087   */\n      dup2\n        /* \"#utility.yul\":14072:14111   */\n      tag_601\n      jumpi\n        /* \"#utility.yul\":14091:14109   */\n      tag_601\n      tag_512\n      jump\t// in\n    tag_601:\n      pop\n      not(0x00)\n        /* \"#utility.yul\":14127:14145   */\n      add\n      swap1\n        /* \"#utility.yul\":14015:14151   */\n      jump\t// out\n        /* \"#utility.yul\":14156:14268   */\n    tag_391:\n        /* \"#utility.yul\":14188:14189   */\n      0x00\n        /* \"#utility.yul\":14214:14215   */\n      dup3\n        /* \"#utility.yul\":14204:14239   */\n      tag_604\n      jumpi\n        /* \"#utility.yul\":14219:14237   */\n      tag_604\n      tag_513\n      jump\t// in\n    tag_604:\n      pop\n        /* \"#utility.yul\":14253:14262   */\n      mod\n      swap1\n        /* \"#utility.yul\":14156:14268   */\n      jump\t// out\n        /* \"#utility.yul\":14273:14401   */\n    tag_428:\n        /* \"#utility.yul\":14340:14349   */\n      dup2\n      dup2\n      sub\n        /* \"#utility.yul\":14361:14372   */\n      dup2\n      dup2\n      gt\n        /* \"#utility.yul\":14358:14395   */\n      iszero\n      tag_126\n      jumpi\n        /* \"#utility.yul\":14375:14393   */\n      tag_126\n      tag_512\n      jump\t// in\n        /* \"#utility.yul\":14406:14781   */\n    tag_514:\n        /* \"#utility.yul\":14494:14495   */\n      0x01\n        /* \"#utility.yul\":14512:14517   */\n      dup2\n        /* \"#utility.yul\":14526:14775   */\n    tag_609:\n        /* \"#utility.yul\":14547:14548   */\n      0x01\n        /* \"#utility.yul\":14537:14545   */\n      dup5\n        /* \"#utility.yul\":14534:14549   */\n      gt\n        /* \"#utility.yul\":14526:14775   */\n      iszero\n      tag_611\n      jumpi\n        /* \"#utility.yul\":14597:14601   */\n      dup1\n        /* \"#utility.yul\":14592:14595   */\n      dup6\n        /* \"#utility.yul\":14588:14602   */\n      div\n        /* \"#utility.yul\":14582:14586   */\n      dup2\n        /* \"#utility.yul\":14579:14603   */\n      gt\n        /* \"#utility.yul\":14576:14626   */\n      iszero\n      tag_613\n      jumpi\n        /* \"#utility.yul\":14606:14624   */\n      tag_613\n      tag_512\n      jump\t// in\n    tag_613:\n        /* \"#utility.yul\":14656:14657   */\n      0x01\n        /* \"#utility.yul\":14646:14654   */\n      dup5\n        /* \"#utility.yul\":14642:14658   */\n      and\n        /* \"#utility.yul\":14639:14688   */\n      iszero\n      tag_614\n      jumpi\n        /* \"#utility.yul\":14670:14686   */\n      swap1\n      dup2\n      mul\n      swap1\n        /* \"#utility.yul\":14639:14688   */\n    tag_614:\n        /* \"#utility.yul\":14753:14754   */\n      0x01\n        /* \"#utility.yul\":14749:14765   */\n      swap4\n      swap1\n      swap4\n      shr\n      swap3\n        /* \"#utility.yul\":14709:14724   */\n      dup1\n      mul\n        /* \"#utility.yul\":14526:14775   */\n      jump(tag_609)\n    tag_611:\n        /* \"#utility.yul\":14406:14781   */\n      swap4\n      pop\n      swap4\n      swap2\n      pop\n      pop\n      jump\t// out\n        /* \"#utility.yul\":14786:15688   */\n    tag_515:\n        /* \"#utility.yul\":14835:14840   */\n      0x00\n        /* \"#utility.yul\":14865:14873   */\n      dup3\n        /* \"#utility.yul\":14855:14935   */\n      tag_616\n      jumpi\n      pop\n        /* \"#utility.yul\":14906:14907   */\n      0x01\n        /* \"#utility.yul\":14920:14925   */\n      jump(tag_126)\n        /* \"#utility.yul\":14855:14935   */\n    tag_616:\n        /* \"#utility.yul\":14954:14958   */\n      dup2\n        /* \"#utility.yul\":14944:15020   */\n      tag_617\n      jumpi\n      pop\n        /* \"#utility.yul\":14991:14992   */\n      0x00\n        /* \"#utility.yul\":15005:15010   */\n      jump(tag_126)\n        /* \"#utility.yul\":14944:15020   */\n    tag_617:\n        /* \"#utility.yul\":15036:15040   */\n      dup2\n        /* \"#utility.yul\":15054:15055   */\n      0x01\n        /* \"#utility.yul\":15049:15108   */\n      dup2\n      eq\n      tag_619\n      jumpi\n        /* \"#utility.yul\":15122:15123   */\n      0x02\n        /* \"#utility.yul\":15117:15291   */\n      dup2\n      eq\n      tag_620\n      jumpi\n        /* \"#utility.yul\":15029:15291   */\n      jump(tag_618)\n        /* \"#utility.yul\":15049:15108   */\n    tag_619:\n        /* \"#utility.yul\":15079:15080   */\n      0x01\n        /* \"#utility.yul\":15070:15080   */\n      swap2\n      pop\n        /* \"#utility.yul\":15093:15098   */\n      pop\n      jump(tag_126)\n        /* \"#utility.yul\":15117:15291   */\n    tag_620:\n        /* \"#utility.yul\":15154:15157   */\n      0xff\n        /* \"#utility.yul\":15144:15152   */\n      dup5\n        /* \"#utility.yul\":15141:15158   */\n      gt\n        /* \"#utility.yul\":15138:15181   */\n      iszero\n      tag_622\n      jumpi\n        /* \"#utility.yul\":15161:15179   */\n      tag_622\n      tag_512\n      jump\t// in\n    tag_622:\n      pop\n      pop\n        /* \"#utility.yul\":15217:15218   */\n      0x01\n        /* \"#utility.yul\":15203:15219   */\n      dup3\n      shl\n        /* \"#utility.yul\":15276:15281   */\n      jump(tag_126)\n        /* \"#utility.yul\":15029:15291   */\n    tag_618:\n      pop\n        /* \"#utility.yul\":15375:15377   */\n      0x20\n        /* \"#utility.yul\":15365:15373   */\n      dup4\n        /* \"#utility.yul\":15362:15378   */\n      lt\n        /* \"#utility.yul\":15356:15359   */\n      0x0133\n        /* \"#utility.yul\":15350:15354   */\n      dup4\n        /* \"#utility.yul\":15347:15360   */\n      lt\n        /* \"#utility.yul\":15343:15379   */\n      and\n        /* \"#utility.yul\":15337:15339   */\n      0x4e\n        /* \"#utility.yul\":15327:15335   */\n      dup5\n        /* \"#utility.yul\":15324:15340   */\n      lt\n        /* \"#utility.yul\":15319:15321   */\n      0x0b\n        /* \"#utility.yul\":15313:15317   */\n      dup5\n        /* \"#utility.yul\":15310:15322   */\n      lt\n        /* \"#utility.yul\":15306:15341   */\n      and\n        /* \"#utility.yul\":15303:15380   */\n      or\n        /* \"#utility.yul\":15300:15503   */\n      iszero\n      tag_623\n      jumpi\n      pop\n        /* \"#utility.yul\":15412:15431   */\n      dup2\n      dup2\n      exp\n        /* \"#utility.yul\":15488:15493   */\n      jump(tag_126)\n        /* \"#utility.yul\":15300:15503   */\n    tag_623:\n        /* \"#utility.yul\":15535:15577   */\n      tag_624\n      not(0x00)\n        /* \"#utility.yul\":15560:15568   */\n      dup5\n        /* \"#utility.yul\":15554:15558   */\n      dup5\n        /* \"#utility.yul\":15535:15577   */\n      tag_514\n      jump\t// in\n    tag_624:\n        /* \"#utility.yul\":15613:15619   */\n      dup1\n        /* \"#utility.yul\":15609:15610   */\n      0x00\n        /* \"#utility.yul\":15605:15611   */\n      not\n        /* \"#utility.yul\":15601:15620   */\n      div\n        /* \"#utility.yul\":15592:15599   */\n      dup3\n        /* \"#utility.yul\":15589:15621   */\n      gt\n        /* \"#utility.yul\":15586:15644   */\n      iszero\n      tag_626\n      jumpi\n        /* \"#utility.yul\":15624:15642   */\n      tag_626\n      tag_512\n      jump\t// in\n    tag_626:\n        /* \"#utility.yul\":15662:15682   */\n      mul\n      swap4\n        /* \"#utility.yul\":14786:15688   */\n      swap3\n      pop\n      pop\n      pop\n      jump\t// out\n        /* \"#utility.yul\":15693:15824   */\n    tag_481:\n        /* \"#utility.yul\":15753:15758   */\n      0x00\n        /* \"#utility.yul\":15782:15818   */\n      tag_462\n        /* \"#utility.yul\":15809:15817   */\n      dup4\n        /* \"#utility.yul\":15803:15807   */\n      dup4\n        /* \"#utility.yul\":15782:15818   */\n      tag_515\n      jump\t// in\n    stop\n    data_7228114aca61f82be22a8910f18d5617eeb90a2c42f342782532c0df0a1e8548 636f6e737420617069526573706f6e7365203d2061776169742046756e6374696f6e732e6d616b654874747052657175657374287b75726c3a202768747470733a2f2f6170692e717569636b737761702e65786368616e67652f76312f7072696365272c706172616d733a207b20746f6b656e3a2027513441272c20626173653a202755534427207d7d293b69662028617069526573706f6e73652e6572726f7229207b207468726f77204572726f722827415049204572726f7227293b207d636f6e7374207072696365203d204d6174682e726f756e6428617069526573706f6e73652e646174612e7072696365202a2031302a2a38293b72657475726e2046756e6374696f6e732e656e636f6465496e74323536287072696365293b\n\n    auxdata: 0xa2646970667358221220d3ad49c78239b2f0504ebbd707a7c120d284befe98eebc26c2ffd02a2c65d40164736f6c634300081c0033\n}\n",
				"bytecode": {
					"linkReferences": {},
					"object": "60a06040526007805463ffffffff60401b19166a0493e0000000000000000017905534801561002d57600080fd5b506040516128fb3803806128fb83398101604081905261004c91610197565b83816001600160a01b03811661007d57604051631e4fbdf760e01b8152600060048201526024015b60405180910390fd5b6100868161012b565b506001600160a01b0390811660805284166100e35760405162461bcd60e51b815260206004820152601660248201527f496e76616c696420726f757465722061646472657373000000000000000000006044820152606401610074565b6006839055600780546001600160401b0319166001600160401b03841617905561010f6008600a6102f2565b61011a906001610308565b6003555050426004555061031f9050565b600080546001600160a01b038381166001600160a01b0319831681178455604051919092169283917f8be0079c531659141344cd1fd0a4f28419497f9722a3daafe3b4186f6b6457e09190a35050565b80516001600160a01b038116811461019257600080fd5b919050565b600080600080608085870312156101ad57600080fd5b6101b68561017b565b6020860151604087015191955093506001600160401b03811681146101da57600080fd5b91506101e86060860161017b565b905092959194509250565b634e487b7160e01b600052601160045260246000fd5b6001815b600184111561024457808504811115610228576102286101f3565b600184161561023657908102905b60019390931c92800261020d565b935093915050565b60008261025b575060016102ec565b81610268575060006102ec565b816001811461027e5760028114610288576102a4565b60019150506102ec565b60ff841115610299576102996101f3565b50506001821b6102ec565b5060208310610133831016604e8410600b84101617156102c7575081810a6102ec565b6102d46000198484610209565b80600019048211156102e8576102e86101f3565b0290505b92915050565b600061030160ff84168361024c565b9392505050565b80820281158282048414176102ec576102ec6101f3565b6080516125ba610341600039600081816103a6015261120101526125ba6000f3fe608060405234801561001057600080fd5b50600436106101585760003560e01c806393db5e37116100c3578063dede852f1161007c578063dede852f146102eb578063e7ec0533146102fe578063f2fde38b14610329578063f55494f81461033c578063f68016b71461034f578063fe0438b21461037b57600080fd5b806393db5e37146102ad578063964ea12a146102c05780639af6bca5146102c8578063b331799e146102d0578063be152b61146102c0578063d98e7821146102d857600080fd5b80636e74336b116101155780636e74336b1461023c578063715018a614610245578063751bb5981461024d57806375a67d5c146102565780638213b4cf1461027f5780638da5cb5b1461029257600080fd5b806309c1ba2e1461015d5780630ca761751461018d5780632795ad20146101a25780632e0f2625146101f857806353d2262b146102125780636949faeb14610233575b600080fd5b600754610170906001600160401b031681565b6040516001600160401b0390911681526020015b60405180910390f35b6101a061019b366004611c9c565b61039b565b005b6101e86101b0366004611d0c565b6005602052600090815260409020805460018201546002909201546001600160a01b0380831693600160a01b90930460ff1692169084565b6040516101849493929190611d5d565b610200600881565b60405160ff9091168152602001610184565b610225610220366004611dac565b61041f565b604051908152602001610184565b61022560045481565b61022560065481565b6101a061044a565b61022560035481565b610225610264366004611dd6565b6001600160a01b031660009081526001602052604090205490565b61022561028d366004611dac565b61045e565b6000546040516001600160a01b039091168152602001610184565b6101a06102bb366004611dac565b610626565b610225606481565b600354610225565b6102256106fe565b6101a06102e6366004611df1565b61081c565b6102256102f9366004611dd6565b610940565b61022561030c366004611dac565b600260209081526000928352604080842090915290825290205481565b6101a0610337366004611dd6565b610a97565b6101a061034a366004611d0c565b610ad5565b60075461036690600160401b900463ffffffff1681565b60405163ffffffff9091168152602001610184565b610225610389366004611dd6565b60016020526000908152604090205481565b336001600160a01b037f000000000000000000000000000000000000000000000000000000000000000016146103e45760405163c6829f8360e01b815260040160405180910390fd5b6103ef838383610b65565b60405183907f85e1543bf2f84fe80c6badbce3648c8539ad1df4d2b3d822938ca0538be727e690600090a2505050565b6001600160a01b03821660009081526002602090815260408083208484529091529020545b92915050565b610452610e6a565b61045c6000610e97565b565b6000610468610e6a565b6001600160a01b0383166104975760405162461bcd60e51b815260040161048e90611e24565b60405180910390fd5b600082116104dd5760405162461bcd60e51b8152602060048201526013602482015272125b9d985b1a59081c1c9bdc1bdcd85b081251606a1b604482015260640161048e565b6104e5611b86565b6104f96104f28585610ee7565b8290610f23565b61052961050582610f34565b6007546006546001600160401b03821691600160401b900463ffffffff16906111fc565b604080516080810190915233815290925060208101600281526001600160a01b038087166020808401919091526040928301879052600086815260058252929092208351815492166001600160a01b0319831681178255928401519092909183916001600160a81b031990911617600160a01b8360028111156105ae576105ae611d25565b02179055506040828101516001830180546001600160a01b0319166001600160a01b039092169190911790556060909201516002918201559051339184917fe0cbca9c6411f8084bc50b0eedbc1c05f0a53cdcfdc0fd487cda1a66ec73e8d49161061791611e52565b60405180910390a35092915050565b61062e610e6a565b6001600160a01b0382166106545760405162461bcd60e51b815260040161048e90611e24565b60648111156106a55760405162461bcd60e51b815260206004820152601860248201527f496e76616c69642072657075746174696f6e2073636f72650000000000000000604482015260640161048e565b6001600160a01b03821660008181526001602052604090819020839055517fe00f1b5d37e934593fb70fcb5fd4703e66f533b6f2560437ec119178a815812d906106f29084815260200190565b60405180910390a25050565b6000610708610e6a565b610710611b86565b61071b6104f26112ce565b61072761050582610f34565b6040805160808101909152338152909250602081016000815260006020808301829052604092830182905285825260058152919020825181546001600160a01b03919091166001600160a01b031982168117835592840151919283916001600160a81b03191617600160a01b8360028111156107a5576107a5611d25565b02179055506040828101516001830180546001600160a01b0319166001600160a01b0390921691909117905560609092015160029091015551339083907fe0cbca9c6411f8084bc50b0eedbc1c05f0a53cdcfdc0fd487cda1a66ec73e8d49061081090600090611e52565b60405180910390a35090565b610824610e6a565b6001600160a01b03831661084a5760405162461bcd60e51b815260040161048e90611e24565b600082116108905760405162461bcd60e51b8152602060048201526013602482015272125b9d985b1a59081c1c9bdc1bdcd85b081251606a1b604482015260640161048e565b60648111156108e15760405162461bcd60e51b815260206004820152601960248201527f496e76616c696420636f7272656c6174696f6e2073636f726500000000000000604482015260640161048e565b6001600160a01b038316600081815260026020908152604080832086845282529182902084905590518381528492917fddf0bec76d6b8f0ec241ee38557441a708ebfe4f327f1955afc54e21a977fc71910160405180910390a3505050565b600061094a610e6a565b6001600160a01b0382166109705760405162461bcd60e51b815260040161048e90611e24565b610978611b86565b6109846104f2846112f1565b61099061050582610f34565b60408051608081018252338152600160208083019182526001600160a01b038881168486015260006060850181905286815260059092529390208251815494166001600160a01b031985168117825591519496509193919283916001600160a81b031990911617600160a01b836002811115610a0e57610a0e611d25565b021790555060408201518160010160006101000a8154816001600160a01b0302191690836001600160a01b0316021790555060608201518160020155905050336001600160a01b0316827fe0cbca9c6411f8084bc50b0eedbc1c05f0a53cdcfdc0fd487cda1a66ec73e8d46001604051610a889190611e52565b60405180910390a3505b919050565b610a9f610e6a565b6001600160a01b038116610ac957604051631e4fbdf760e01b81526000600482015260240161048e565b610ad281610e97565b50565b610add610e6a565b60008113610b1d5760405162461bcd60e51b815260206004820152600d60248201526c496e76616c696420707269636560981b604482015260640161048e565b60038190554260048190556040805183815260208101929092527ff6c5a7ca37753b0680a888953fc4f298aac5757f9639486009b92df9c9bdadfa910160405180910390a150565b600083815260056020908152604080832081516080810190925280546001600160a01b03811683529192909190830190600160a01b900460ff166002811115610bb057610bb0611d25565b6002811115610bc157610bc1611d25565b815260018201546001600160a01b039081166020830152600290920154604090910152815191925016610c2b5760405162461bcd60e51b8152602060048201526012602482015271125b9d985b1a59081c995c5d595cdd08125160721b604482015260640161048e565b600080600085806020019051810190610c449190611e60565b91945092509050600084602001516002811115610c6357610c63611d25565b148015610c705750600083135b15610cbf5760038390554260048190556040805185815260208101929092527ff6c5a7ca37753b0680a888953fc4f298aac5757f9639486009b92df9c9bdadfa910160405180910390a1610ded565b600184602001516002811115610cd757610cd7611d25565b148015610ce5575060648211155b15610d4f57604080850180516001600160a01b0390811660009081526001602052839020859055905191519116907fe00f1b5d37e934593fb70fcb5fd4703e66f533b6f2560437ec119178a815812d90610d429085815260200190565b60405180910390a2610ded565b600284602001516002811115610d6757610d67611d25565b148015610d75575060648111155b15610ded57604080850180516001600160a01b0390811660009081526002602090815284822060608a01805184529152908490208590555191519251919216907fddf0bec76d6b8f0ec241ee38557441a708ebfe4f327f1955afc54e21a977fc7190610de49085815260200190565b60405180910390a35b604080518481526020810184905290810182905287907fe9f0d70093154e9443bd931bc5cf30b0c45f5e41fadaf654f5a548a6523d10099060600160405180910390a2505050600093845250506005602052506040812080546001600160a81b03191681556001810180546001600160a01b031916905560020155565b6000546001600160a01b0316331461045c5760405163118cdaa760e01b815233600482015260240161048e565b600080546001600160a01b038381166001600160a01b0319831681178455604051919092169283917f8be0079c531659141344cd1fd0a4f28419497f9722a3daafe3b4186f6b6457e09190a35050565b6060610ef283611322565b610efb8361158d565b604051602001610f0c929190611eb2565b604051602081830303815290604052905092915050565b610f308260008084611696565b5050565b60606000610f43610100611714565b9050610f7c6040518060400160405280600c81526020016b31b7b232a637b1b0ba34b7b760a11b8152508261173590919063ffffffff16565b8251610f9a906002811115610f9357610f93611d25565b8290611753565b6040805180820190915260088152676c616e677561676560c01b6020820152610fc4908290611735565b6040830151610fdb908015610f9357610f93611d25565b604080518082019091526006815265736f7572636560d01b6020820152611003908290611735565b6060830151611013908290611735565b60a0830151511561109f576040805180820190915260048152636172677360e01b6020820152611044908290611735565b61104d8161178c565b60005b8360a00151518110156110955761108d8460a0015182815181106110765761107661209b565b60200260200101518361173590919063ffffffff16565b600101611050565b5061109f816117b0565b60808301515115611163576000836020015160028111156110c2576110c2611d25565b036110e05760405163a80d31f760e01b815260040160405180910390fd5b60408051808201909152600f81526e39b2b1b932ba39a637b1b0ba34b7b760891b6020820152611111908290611735565b61112a83602001516002811115610f9357610f93611d25565b6040805180820190915260078152667365637265747360c81b6020820152611153908290611735565b60808301516111639082906117ce565b60c083015151156111f45760408051808201909152600981526862797465734172677360b81b6020820152611199908290611735565b6111a28161178c565b60005b8360c00151518110156111ea576111e28460c0015182815181106111cb576111cb61209b565b6020026020010151836117ce90919063ffffffff16565b6001016111a5565b506111f4816117b0565b515192915050565b6000807f00000000000000000000000000000000000000000000000000000000000000006001600160a01b031663461d27628688600188886040518663ffffffff1660e01b81526004016112549594939291906120b1565b6020604051808303816000875af1158015611273573d6000803e3d6000fd5b505050506040513d601f19601f820116820180604052508101906112979190612112565b60405190915081907f1131472297a800fee664d1d89cfa8f7676ff07189ecc53f80bbb5f4969099db890600090a295945050505050565b606060405180610140016040528061011e815260200161246761011e9139905090565b60606112fc82611322565b60405160200161130c919061212b565b6040516020818303038152906040529050919050565b604051606082811b6bffffffffffffffffffffffff191660208301529060009060340160408051808303601f1901815261020083018252600360fc1b8352603160f81b6020840152601960f91b83830152603360f81b606080850191909152600d60fa1b6080850152603560f81b60a0850152601b60f91b60c0850152603760f81b60e0850152600760fb1b610100850152603960f81b610120850152606160f81b610140850152603160f91b610160850152606360f81b610180850152601960fa1b6101a0850152606560f81b6101c0850152603360f91b6101e08501528251602a80825291810190935290935060009190602082018180368337019050509050600360fc1b8160008151811061143c5761143c61209b565b60200101906001600160f81b031916908160001a905350600f60fb1b8160018151811061146b5761146b61209b565b60200101906001600160f81b031916908160001a90535060005b6014811015611584578260048583815181106114a3576114a361209b565b01602001516001600160f81b031916901c60f81c601081106114c7576114c761209b565b6020020151826114d88360026122c8565b6114e39060026122df565b815181106114f3576114f361209b565b60200101906001600160f81b031916908160001a9053508284828151811061151d5761151d61209b565b60209101015160f81c600f16601081106115395761153961209b565b60200201518261154a8360026122c8565b6115559060036122df565b815181106115655761156561209b565b60200101906001600160f81b031916908160001a905350600101611485565b50949350505050565b6060816000036115b45750506040805180820190915260018152600360fc1b602082015290565b8160005b81156115de57806115c8816122f2565b91506115d79050600a83612321565b91506115b8565b6000816001600160401b038111156115f8576115f8611bf9565b6040519080825280601f01601f191660200182016040528015611622576020820181803683370190505b5090505b841561168e578161163681612335565b92506116459050600a8661234c565b6116509060306122df565b60f81b8183815181106116655761166561209b565b60200101906001600160f81b031916908160001a905350611687600a86612321565b9450611626565b949350505050565b80516000036116b8576040516322ce3edd60e01b815260040160405180910390fd5b838360028111156116cb576116cb611d25565b908160028111156116de576116de611d25565b905250604084018280156116f4576116f4611d25565b9081801561170457611704611d25565b9052506060909301929092525050565b61171c611bc4565b805161172890836117db565b5060006020820152919050565b6117428260038351611852565b815161174e9082611971565b505050565b81516117609060c2611999565b50610f30828260405160200161177891815260200190565b6040516020818303038152906040526117ce565b611797816004611a02565b6001816020018181516117aa91906122df565b90525050565b6117bb816007611a02565b6001816020018181516117aa9190612360565b6117428260028351611852565b6040805180820190915260608152600060208201526117fb60208361234c565b156118235761180b60208361234c565b611816906020612360565b61182090836122df565b91505b60208084018390526040518085526000815290818401018181101561184757600080fd5b604052509192915050565b6017816001600160401b03161161187e5782516118789060e0600585901b168317611999565b50505050565b60ff816001600160401b0316116118be5782516118a6906018611fe0600586901b1617611999565b508251611878906001600160401b0383166001611a19565b61ffff816001600160401b0316116118ff5782516118e7906019611fe0600586901b1617611999565b508251611878906001600160401b0383166002611a19565b63ffffffff816001600160401b03161161194257825161192a90601a611fe0600586901b1617611999565b508251611878906001600160401b0383166004611a19565b825161195990601b611fe0600586901b1617611999565b508251611878906001600160401b0383166008611a19565b60408051808201909152606081526000602082015261199283838451611a9e565b9392505050565b60408051808201909152606081526000602082015282515160006119be8260016122df565b9050846020015182106119df576119df856119da8360026122c8565b611b6f565b84516020838201018581535080518211156119f8578181525b5093949350505050565b815161174e90601f611fe0600585901b1617611999565b6040805180820190915260608152600060208201528351516000611a3d82856122df565b90508560200151811115611a5a57611a5a866119da8360026122c8565b60006001611a6a8661010061245a565b611a749190612360565b90508651828101878319825116178152508051831115611a92578281525b50959695505050505050565b6040805180820190915260608152600060208201528251821115611ac157600080fd5b8351516000611ad084836122df565b90508560200151811115611aed57611aed866119da8360026122c8565b855180518382016020019160009180851115611b07578482525b505050602086015b60208610611b475780518252611b266020836122df565b9150611b336020826122df565b9050611b40602087612360565b9550611b0f565b51815160001960208890036101000a0190811690199190911617905250849150509392505050565b8151611b7b83836117db565b506118788382611971565b6040805160e0810190915280600081526020016000815260200160008152602001606081526020016060815260200160608152602001606081525090565b6040518060400160405280611bec604051806040016040528060608152602001600081525090565b8152602001600081525090565b634e487b7160e01b600052604160045260246000fd5b600082601f830112611c2057600080fd5b81356001600160401b03811115611c3957611c39611bf9565b604051601f8201601f19908116603f011681016001600160401b0381118282101715611c6757611c67611bf9565b604052818152838201602001851015611c7f57600080fd5b816020850160208301376000918101602001919091529392505050565b600080600060608486031215611cb157600080fd5b8335925060208401356001600160401b03811115611cce57600080fd5b611cda86828701611c0f565b92505060408401356001600160401b03811115611cf657600080fd5b611d0286828701611c0f565b9150509250925092565b600060208284031215611d1e57600080fd5b5035919050565b634e487b7160e01b600052602160045260246000fd5b60038110611d5957634e487b7160e01b600052602160045260246000fd5b9052565b6001600160a01b038516815260808101611d7a6020830186611d3b565b6001600160a01b039390931660408201526060015292915050565b80356001600160a01b0381168114610a9257600080fd5b60008060408385031215611dbf57600080fd5b611dc883611d95565b946020939093013593505050565b600060208284031215611de857600080fd5b61199282611d95565b600080600060608486031215611e0657600080fd5b611e0f84611d95565b95602085013595506040909401359392505050565b602080825260149082015273496e76616c69642075736572206164647265737360601b604082015260600190565b602081016104448284611d3b565b600080600060608486031215611e7557600080fd5b5050815160208301516040909301519094929350919050565b60005b83811015611ea9578181015183820152602001611e91565b50506000910152565b6d636f6e73742075736572203d202760901b815260008351611edb81600e850160208801611e8e565b61273b60f01b600e9184019182015273636f6e73742070726f706f73616c4964203d202760601b60108201528351611f1a816024840160208801611e8e565b61273b60f01b602492909101918201527f636f6e737420617069526573706f6e7365203d2061776169742046756e63746960268201527f6f6e732e6d616b654874747052657175657374287b75726c3a2027687474707360468201527f3a2f2f75626934616c6c2d64616f2d6170692e636f6d2f636f7272656c61746960668201527f6f6e272c706172616d733a207b20757365723a20757365722c2070726f706f7360868201527f616c49643a2070726f706f73616c4964207d7d293b696620286170695265737060a68201527f6f6e73652e6572726f7229207b207468726f77204572726f722827415049204560c68201527f72726f7227293b207d636f6e73742073636f7265203d204d6174682e6d696e2860e68201527f617069526573706f6e73652e646174612e73636f72652c20313030293b7265746101068201527f75726e2046756e6374696f6e732e656e636f646555696e743235362873636f726101268201526265293b60e81b61014682015261014901949350505050565b634e487b7160e01b600052603260045260246000fd5b6001600160401b038616815260a06020820152600085518060a08401526120df8160c0850160208a01611e8e565b61ffff9590951660408301525063ffffffff929092166060830152608082015260c0601f909201601f1916010192915050565b60006020828403121561212457600080fd5b5051919050565b6d636f6e73742075736572203d202760901b81526000825161215481600e850160208701611e8e565b61273b60f01b600e9390910192830152507f636f6e737420617069526573706f6e7365203d2061776169742046756e63746960108201527f6f6e732e6d616b654874747052657175657374287b75726c3a2027687474707360308201527f3a2f2f75626934616c6c2d64616f2d6170692e636f6d2f72657075746174696f60508201527f6e272c706172616d733a207b20757365723a2075736572207d7d293b6966202860708201527f617069526573706f6e73652e6572726f7229207b207468726f77204572726f7260908201527f2827415049204572726f7227293b207d636f6e73742073636f7265203d204d6160b08201527f74682e6d696e28617069526573706f6e73652e646174612e73636f72652c203160d08201527f3030293b72657475726e2046756e6374696f6e732e656e636f646555696e743260f08201526935362873636f7265293b60b01b61011082015261011a01919050565b634e487b7160e01b600052601160045260246000fd5b8082028115828204841417610444576104446122b2565b80820180821115610444576104446122b2565b600060018201612304576123046122b2565b5060010190565b634e487b7160e01b600052601260045260246000fd5b6000826123305761233061230b565b500490565b600081612344576123446122b2565b506000190190565b60008261235b5761235b61230b565b500690565b81810381811115610444576104446122b2565b6001815b60018411156123ae57808504811115612392576123926122b2565b60018416156123a057908102905b60019390931c928002612377565b935093915050565b6000826123c557506001610444565b816123d257506000610444565b81600181146123e857600281146123f25761240e565b6001915050610444565b60ff841115612403576124036122b2565b50506001821b610444565b5060208310610133831016604e8410600b8410161715612431575081810a610444565b61243e6000198484612373565b8060001904821115612452576124526122b2565b029392505050565b600061199283836123b656fe636f6e737420617069526573706f6e7365203d2061776169742046756e6374696f6e732e6d616b654874747052657175657374287b75726c3a202768747470733a2f2f6170692e717569636b737761702e65786368616e67652f76312f7072696365272c706172616d733a207b20746f6b656e3a2027513441272c20626173653a202755534427207d7d293b69662028617069526573706f6e73652e6572726f7229207b207468726f77204572726f722827415049204572726f7227293b207d636f6e7374207072696365203d204d6174682e726f756e6428617069526573706f6e73652e646174612e7072696365202a2031302a2a38293b72657475726e2046756e6374696f6e732e656e636f6465496e74323536287072696365293ba2646970667358221220d3ad49c78239b2f0504ebbd707a7c120d284befe98eebc26c2ffd02a2c65d40164736f6c634300081c0033",
					"opcodes": "PUSH1 0xA0 PUSH1 0x40 MSTORE PUSH1 0x7 DUP1 SLOAD PUSH4 0xFFFFFFFF PUSH1 0x40 SHL NOT AND PUSH11 0x493E00000000000000000 OR SWAP1 SSTORE CALLVALUE DUP1 ISZERO PUSH2 0x2D JUMPI PUSH1 0x0 DUP1 REVERT JUMPDEST POP PUSH1 0x40 MLOAD PUSH2 0x28FB CODESIZE SUB DUP1 PUSH2 0x28FB DUP4 CODECOPY DUP2 ADD PUSH1 0x40 DUP2 SWAP1 MSTORE PUSH2 0x4C SWAP2 PUSH2 0x197 JUMP JUMPDEST DUP4 DUP2 PUSH1 0x1 PUSH1 0x1 PUSH1 0xA0 SHL SUB DUP2 AND PUSH2 0x7D JUMPI PUSH1 0x40 MLOAD PUSH4 0x1E4FBDF7 PUSH1 0xE0 SHL DUP2 MSTORE PUSH1 0x0 PUSH1 0x4 DUP3 ADD MSTORE PUSH1 0x24 ADD JUMPDEST PUSH1 0x40 MLOAD DUP1 SWAP2 SUB SWAP1 REVERT JUMPDEST PUSH2 0x86 DUP2 PUSH2 0x12B JUMP JUMPDEST POP PUSH1 0x1 PUSH1 0x1 PUSH1 0xA0 SHL SUB SWAP1 DUP2 AND PUSH1 0x80 MSTORE DUP5 AND PUSH2 0xE3 JUMPI PUSH1 0x40 MLOAD PUSH3 0x461BCD PUSH1 0xE5 SHL DUP2 MSTORE PUSH1 0x20 PUSH1 0x4 DUP3 ADD MSTORE PUSH1 0x16 PUSH1 0x24 DUP3 ADD MSTORE PUSH32 0x496E76616C696420726F75746572206164647265737300000000000000000000 PUSH1 0x44 DUP3 ADD MSTORE PUSH1 0x64 ADD PUSH2 0x74 JUMP JUMPDEST PUSH1 0x6 DUP4 SWAP1 SSTORE PUSH1 0x7 DUP1 SLOAD PUSH1 0x1 PUSH1 0x1 PUSH1 0x40 SHL SUB NOT AND PUSH1 0x1 PUSH1 0x1 PUSH1 0x40 SHL SUB DUP5 AND OR SWAP1 SSTORE PUSH2 0x10F PUSH1 0x8 PUSH1 0xA PUSH2 0x2F2 JUMP JUMPDEST PUSH2 0x11A SWAP1 PUSH1 0x1 PUSH2 0x308 JUMP JUMPDEST PUSH1 0x3 SSTORE POP POP TIMESTAMP PUSH1 0x4 SSTORE POP PUSH2 0x31F SWAP1 POP JUMP JUMPDEST PUSH1 0x0 DUP1 SLOAD PUSH1 0x1 PUSH1 0x1 PUSH1 0xA0 SHL SUB DUP4 DUP2 AND PUSH1 0x1 PUSH1 0x1 PUSH1 0xA0 SHL SUB NOT DUP4 AND DUP2 OR DUP5 SSTORE PUSH1 0x40 MLOAD SWAP2 SWAP1 SWAP3 AND SWAP3 DUP4 SWAP2 PUSH32 0x8BE0079C531659141344CD1FD0A4F28419497F9722A3DAAFE3B4186F6B6457E0 SWAP2 SWAP1 LOG3 POP POP JUMP JUMPDEST DUP1 MLOAD PUSH1 0x1 PUSH1 0x1 PUSH1 0xA0 SHL SUB DUP2 AND DUP2 EQ PUSH2 0x192 JUMPI PUSH1 0x0 DUP1 REVERT JUMPDEST SWAP2 SWAP1 POP JUMP JUMPDEST PUSH1 0x0 DUP1 PUSH1 0x0 DUP1 PUSH1 0x80 DUP6 DUP8 SUB SLT ISZERO PUSH2 0x1AD JUMPI PUSH1 0x0 DUP1 REVERT JUMPDEST PUSH2 0x1B6 DUP6 PUSH2 0x17B JUMP JUMPDEST PUSH1 0x20 DUP7 ADD MLOAD PUSH1 0x40 DUP8 ADD MLOAD SWAP2 SWAP6 POP SWAP4 POP PUSH1 0x1 PUSH1 0x1 PUSH1 0x40 SHL SUB DUP2 AND DUP2 EQ PUSH2 0x1DA JUMPI PUSH1 0x0 DUP1 REVERT JUMPDEST SWAP2 POP PUSH2 0x1E8 PUSH1 0x60 DUP7 ADD PUSH2 0x17B JUMP JUMPDEST SWAP1 POP SWAP3 SWAP6 SWAP2 SWAP5 POP SWAP3 POP JUMP JUMPDEST PUSH4 0x4E487B71 PUSH1 0xE0 SHL PUSH1 0x0 MSTORE PUSH1 0x11 PUSH1 0x4 MSTORE PUSH1 0x24 PUSH1 0x0 REVERT JUMPDEST PUSH1 0x1 DUP2 JUMPDEST PUSH1 0x1 DUP5 GT ISZERO PUSH2 0x244 JUMPI DUP1 DUP6 DIV DUP2 GT ISZERO PUSH2 0x228 JUMPI PUSH2 0x228 PUSH2 0x1F3 JUMP JUMPDEST PUSH1 0x1 DUP5 AND ISZERO PUSH2 0x236 JUMPI SWAP1 DUP2 MUL SWAP1 JUMPDEST PUSH1 0x1 SWAP4 SWAP1 SWAP4 SHR SWAP3 DUP1 MUL PUSH2 0x20D JUMP JUMPDEST SWAP4 POP SWAP4 SWAP2 POP POP JUMP JUMPDEST PUSH1 0x0 DUP3 PUSH2 0x25B JUMPI POP PUSH1 0x1 PUSH2 0x2EC JUMP JUMPDEST DUP2 PUSH2 0x268 JUMPI POP PUSH1 0x0 PUSH2 0x2EC JUMP JUMPDEST DUP2 PUSH1 0x1 DUP2 EQ PUSH2 0x27E JUMPI PUSH1 0x2 DUP2 EQ PUSH2 0x288 JUMPI PUSH2 0x2A4 JUMP JUMPDEST PUSH1 0x1 SWAP2 POP POP PUSH2 0x2EC JUMP JUMPDEST PUSH1 0xFF DUP5 GT ISZERO PUSH2 0x299 JUMPI PUSH2 0x299 PUSH2 0x1F3 JUMP JUMPDEST POP POP PUSH1 0x1 DUP3 SHL PUSH2 0x2EC JUMP JUMPDEST POP PUSH1 0x20 DUP4 LT PUSH2 0x133 DUP4 LT AND PUSH1 0x4E DUP5 LT PUSH1 0xB DUP5 LT AND OR ISZERO PUSH2 0x2C7 JUMPI POP DUP2 DUP2 EXP PUSH2 0x2EC JUMP JUMPDEST PUSH2 0x2D4 PUSH1 0x0 NOT DUP5 DUP5 PUSH2 0x209 JUMP JUMPDEST DUP1 PUSH1 0x0 NOT DIV DUP3 GT ISZERO PUSH2 0x2E8 JUMPI PUSH2 0x2E8 PUSH2 0x1F3 JUMP JUMPDEST MUL SWAP1 POP JUMPDEST SWAP3 SWAP2 POP POP JUMP JUMPDEST PUSH1 0x0 PUSH2 0x301 PUSH1 0xFF DUP5 AND DUP4 PUSH2 0x24C JUMP JUMPDEST SWAP4 SWAP3 POP POP POP JUMP JUMPDEST DUP1 DUP3 MUL DUP2 ISZERO DUP3 DUP3 DIV DUP5 EQ OR PUSH2 0x2EC JUMPI PUSH2 0x2EC PUSH2 0x1F3 JUMP JUMPDEST PUSH1 0x80 MLOAD PUSH2 0x25BA PUSH2 0x341 PUSH1 0x0 CODECOPY PUSH1 0x0 DUP2 DUP2 PUSH2 0x3A6 ADD MSTORE PUSH2 0x1201 ADD MSTORE PUSH2 0x25BA PUSH1 0x0 RETURN INVALID PUSH1 0x80 PUSH1 0x40 MSTORE CALLVALUE DUP1 ISZERO PUSH2 0x10 JUMPI PUSH1 0x0 DUP1 REVERT JUMPDEST POP PUSH1 0x4 CALLDATASIZE LT PUSH2 0x158 JUMPI PUSH1 0x0 CALLDATALOAD PUSH1 0xE0 SHR DUP1 PUSH4 0x93DB5E37 GT PUSH2 0xC3 JUMPI DUP1 PUSH4 0xDEDE852F GT PUSH2 0x7C JUMPI DUP1 PUSH4 0xDEDE852F EQ PUSH2 0x2EB JUMPI DUP1 PUSH4 0xE7EC0533 EQ PUSH2 0x2FE JUMPI DUP1 PUSH4 0xF2FDE38B EQ PUSH2 0x329 JUMPI DUP1 PUSH4 0xF55494F8 EQ PUSH2 0x33C JUMPI DUP1 PUSH4 0xF68016B7 EQ PUSH2 0x34F JUMPI DUP1 PUSH4 0xFE0438B2 EQ PUSH2 0x37B JUMPI PUSH1 0x0 DUP1 REVERT JUMPDEST DUP1 PUSH4 0x93DB5E37 EQ PUSH2 0x2AD JUMPI DUP1 PUSH4 0x964EA12A EQ PUSH2 0x2C0 JUMPI DUP1 PUSH4 0x9AF6BCA5 EQ PUSH2 0x2C8 JUMPI DUP1 PUSH4 0xB331799E EQ PUSH2 0x2D0 JUMPI DUP1 PUSH4 0xBE152B61 EQ PUSH2 0x2C0 JUMPI DUP1 PUSH4 0xD98E7821 EQ PUSH2 0x2D8 JUMPI PUSH1 0x0 DUP1 REVERT JUMPDEST DUP1 PUSH4 0x6E74336B GT PUSH2 0x115 JUMPI DUP1 PUSH4 0x6E74336B EQ PUSH2 0x23C JUMPI DUP1 PUSH4 0x715018A6 EQ PUSH2 0x245 JUMPI DUP1 PUSH4 0x751BB598 EQ PUSH2 0x24D JUMPI DUP1 PUSH4 0x75A67D5C EQ PUSH2 0x256 JUMPI DUP1 PUSH4 0x8213B4CF EQ PUSH2 0x27F JUMPI DUP1 PUSH4 0x8DA5CB5B EQ PUSH2 0x292 JUMPI PUSH1 0x0 DUP1 REVERT JUMPDEST DUP1 PUSH4 0x9C1BA2E EQ PUSH2 0x15D JUMPI DUP1 PUSH4 0xCA76175 EQ PUSH2 0x18D JUMPI DUP1 PUSH4 0x2795AD20 EQ PUSH2 0x1A2 JUMPI DUP1 PUSH4 0x2E0F2625 EQ PUSH2 0x1F8 JUMPI DUP1 PUSH4 0x53D2262B EQ PUSH2 0x212 JUMPI DUP1 PUSH4 0x6949FAEB EQ PUSH2 0x233 JUMPI JUMPDEST PUSH1 0x0 DUP1 REVERT JUMPDEST PUSH1 0x7 SLOAD PUSH2 0x170 SWAP1 PUSH1 0x1 PUSH1 0x1 PUSH1 0x40 SHL SUB AND DUP2 JUMP JUMPDEST PUSH1 0x40 MLOAD PUSH1 0x1 PUSH1 0x1 PUSH1 0x40 SHL SUB SWAP1 SWAP2 AND DUP2 MSTORE PUSH1 0x20 ADD JUMPDEST PUSH1 0x40 MLOAD DUP1 SWAP2 SUB SWAP1 RETURN JUMPDEST PUSH2 0x1A0 PUSH2 0x19B CALLDATASIZE PUSH1 0x4 PUSH2 0x1C9C JUMP JUMPDEST PUSH2 0x39B JUMP JUMPDEST STOP JUMPDEST PUSH2 0x1E8 PUSH2 0x1B0 CALLDATASIZE PUSH1 0x4 PUSH2 0x1D0C JUMP JUMPDEST PUSH1 0x5 PUSH1 0x20 MSTORE PUSH1 0x0 SWAP1 DUP2 MSTORE PUSH1 0x40 SWAP1 KECCAK256 DUP1 SLOAD PUSH1 0x1 DUP3 ADD SLOAD PUSH1 0x2 SWAP1 SWAP3 ADD SLOAD PUSH1 0x1 PUSH1 0x1 PUSH1 0xA0 SHL SUB DUP1 DUP4 AND SWAP4 PUSH1 0x1 PUSH1 0xA0 SHL SWAP1 SWAP4 DIV PUSH1 0xFF AND SWAP3 AND SWAP1 DUP5 JUMP JUMPDEST PUSH1 0x40 MLOAD PUSH2 0x184 SWAP5 SWAP4 SWAP3 SWAP2 SWAP1 PUSH2 0x1D5D JUMP JUMPDEST PUSH2 0x200 PUSH1 0x8 DUP2 JUMP JUMPDEST PUSH1 0x40 MLOAD PUSH1 0xFF SWAP1 SWAP2 AND DUP2 MSTORE PUSH1 0x20 ADD PUSH2 0x184 JUMP JUMPDEST PUSH2 0x225 PUSH2 0x220 CALLDATASIZE PUSH1 0x4 PUSH2 0x1DAC JUMP JUMPDEST PUSH2 0x41F JUMP JUMPDEST PUSH1 0x40 MLOAD SWAP1 DUP2 MSTORE PUSH1 0x20 ADD PUSH2 0x184 JUMP JUMPDEST PUSH2 0x225 PUSH1 0x4 SLOAD DUP2 JUMP JUMPDEST PUSH2 0x225 PUSH1 0x6 SLOAD DUP2 JUMP JUMPDEST PUSH2 0x1A0 PUSH2 0x44A JUMP JUMPDEST PUSH2 0x225 PUSH1 0x3 SLOAD DUP2 JUMP JUMPDEST PUSH2 0x225 PUSH2 0x264 CALLDATASIZE PUSH1 0x4 PUSH2 0x1DD6 JUMP JUMPDEST PUSH1 0x1 PUSH1 0x1 PUSH1 0xA0 SHL SUB AND PUSH1 0x0 SWAP1 DUP2 MSTORE PUSH1 0x1 PUSH1 0x20 MSTORE PUSH1 0x40 SWAP1 KECCAK256 SLOAD SWAP1 JUMP JUMPDEST PUSH2 0x225 PUSH2 0x28D CALLDATASIZE PUSH1 0x4 PUSH2 0x1DAC JUMP JUMPDEST PUSH2 0x45E JUMP JUMPDEST PUSH1 0x0 SLOAD PUSH1 0x40 MLOAD PUSH1 0x1 PUSH1 0x1 PUSH1 0xA0 SHL SUB SWAP1 SWAP2 AND DUP2 MSTORE PUSH1 0x20 ADD PUSH2 0x184 JUMP JUMPDEST PUSH2 0x1A0 PUSH2 0x2BB CALLDATASIZE PUSH1 0x4 PUSH2 0x1DAC JUMP JUMPDEST PUSH2 0x626 JUMP JUMPDEST PUSH2 0x225 PUSH1 0x64 DUP2 JUMP JUMPDEST PUSH1 0x3 SLOAD PUSH2 0x225 JUMP JUMPDEST PUSH2 0x225 PUSH2 0x6FE JUMP JUMPDEST PUSH2 0x1A0 PUSH2 0x2E6 CALLDATASIZE PUSH1 0x4 PUSH2 0x1DF1 JUMP JUMPDEST PUSH2 0x81C JUMP JUMPDEST PUSH2 0x225 PUSH2 0x2F9 CALLDATASIZE PUSH1 0x4 PUSH2 0x1DD6 JUMP JUMPDEST PUSH2 0x940 JUMP JUMPDEST PUSH2 0x225 PUSH2 0x30C CALLDATASIZE PUSH1 0x4 PUSH2 0x1DAC JUMP JUMPDEST PUSH1 0x2 PUSH1 0x20 SWAP1 DUP2 MSTORE PUSH1 0x0 SWAP3 DUP4 MSTORE PUSH1 0x40 DUP1 DUP5 KECCAK256 SWAP1 SWAP2 MSTORE SWAP1 DUP3 MSTORE SWAP1 KECCAK256 SLOAD DUP2 JUMP JUMPDEST PUSH2 0x1A0 PUSH2 0x337 CALLDATASIZE PUSH1 0x4 PUSH2 0x1DD6 JUMP JUMPDEST PUSH2 0xA97 JUMP JUMPDEST PUSH2 0x1A0 PUSH2 0x34A CALLDATASIZE PUSH1 0x4 PUSH2 0x1D0C JUMP JUMPDEST PUSH2 0xAD5 JUMP JUMPDEST PUSH1 0x7 SLOAD PUSH2 0x366 SWAP1 PUSH1 0x1 PUSH1 0x40 SHL SWAP1 DIV PUSH4 0xFFFFFFFF AND DUP2 JUMP JUMPDEST PUSH1 0x40 MLOAD PUSH4 0xFFFFFFFF SWAP1 SWAP2 AND DUP2 MSTORE PUSH1 0x20 ADD PUSH2 0x184 JUMP JUMPDEST PUSH2 0x225 PUSH2 0x389 CALLDATASIZE PUSH1 0x4 PUSH2 0x1DD6 JUMP JUMPDEST PUSH1 0x1 PUSH1 0x20 MSTORE PUSH1 0x0 SWAP1 DUP2 MSTORE PUSH1 0x40 SWAP1 KECCAK256 SLOAD DUP2 JUMP JUMPDEST CALLER PUSH1 0x1 PUSH1 0x1 PUSH1 0xA0 SHL SUB PUSH32 0x0 AND EQ PUSH2 0x3E4 JUMPI PUSH1 0x40 MLOAD PUSH4 0xC6829F83 PUSH1 0xE0 SHL DUP2 MSTORE PUSH1 0x4 ADD PUSH1 0x40 MLOAD DUP1 SWAP2 SUB SWAP1 REVERT JUMPDEST PUSH2 0x3EF DUP4 DUP4 DUP4 PUSH2 0xB65 JUMP JUMPDEST PUSH1 0x40 MLOAD DUP4 SWAP1 PUSH32 0x85E1543BF2F84FE80C6BADBCE3648C8539AD1DF4D2B3D822938CA0538BE727E6 SWAP1 PUSH1 0x0 SWAP1 LOG2 POP POP POP JUMP JUMPDEST PUSH1 0x1 PUSH1 0x1 PUSH1 0xA0 SHL SUB DUP3 AND PUSH1 0x0 SWAP1 DUP2 MSTORE PUSH1 0x2 PUSH1 0x20 SWAP1 DUP2 MSTORE PUSH1 0x40 DUP1 DUP4 KECCAK256 DUP5 DUP5 MSTORE SWAP1 SWAP2 MSTORE SWAP1 KECCAK256 SLOAD JUMPDEST SWAP3 SWAP2 POP POP JUMP JUMPDEST PUSH2 0x452 PUSH2 0xE6A JUMP JUMPDEST PUSH2 0x45C PUSH1 0x0 PUSH2 0xE97 JUMP JUMPDEST JUMP JUMPDEST PUSH1 0x0 PUSH2 0x468 PUSH2 0xE6A JUMP JUMPDEST PUSH1 0x1 PUSH1 0x1 PUSH1 0xA0 SHL SUB DUP4 AND PUSH2 0x497 JUMPI PUSH1 0x40 MLOAD PUSH3 0x461BCD PUSH1 0xE5 SHL DUP2 MSTORE PUSH1 0x4 ADD PUSH2 0x48E SWAP1 PUSH2 0x1E24 JUMP JUMPDEST PUSH1 0x40 MLOAD DUP1 SWAP2 SUB SWAP1 REVERT JUMPDEST PUSH1 0x0 DUP3 GT PUSH2 0x4DD JUMPI PUSH1 0x40 MLOAD PUSH3 0x461BCD PUSH1 0xE5 SHL DUP2 MSTORE PUSH1 0x20 PUSH1 0x4 DUP3 ADD MSTORE PUSH1 0x13 PUSH1 0x24 DUP3 ADD MSTORE PUSH19 0x125B9D985B1A59081C1C9BDC1BDCD85B081251 PUSH1 0x6A SHL PUSH1 0x44 DUP3 ADD MSTORE PUSH1 0x64 ADD PUSH2 0x48E JUMP JUMPDEST PUSH2 0x4E5 PUSH2 0x1B86 JUMP JUMPDEST PUSH2 0x4F9 PUSH2 0x4F2 DUP6 DUP6 PUSH2 0xEE7 JUMP JUMPDEST DUP3 SWAP1 PUSH2 0xF23 JUMP JUMPDEST PUSH2 0x529 PUSH2 0x505 DUP3 PUSH2 0xF34 JUMP JUMPDEST PUSH1 0x7 SLOAD PUSH1 0x6 SLOAD PUSH1 0x1 PUSH1 0x1 PUSH1 0x40 SHL SUB DUP3 AND SWAP2 PUSH1 0x1 PUSH1 0x40 SHL SWAP1 DIV PUSH4 0xFFFFFFFF AND SWAP1 PUSH2 0x11FC JUMP JUMPDEST PUSH1 0x40 DUP1 MLOAD PUSH1 0x80 DUP2 ADD SWAP1 SWAP2 MSTORE CALLER DUP2 MSTORE SWAP1 SWAP3 POP PUSH1 0x20 DUP2 ADD PUSH1 0x2 DUP2 MSTORE PUSH1 0x1 PUSH1 0x1 PUSH1 0xA0 SHL SUB DUP1 DUP8 AND PUSH1 0x20 DUP1 DUP5 ADD SWAP2 SWAP1 SWAP2 MSTORE PUSH1 0x40 SWAP3 DUP4 ADD DUP8 SWAP1 MSTORE PUSH1 0x0 DUP7 DUP2 MSTORE PUSH1 0x5 DUP3 MSTORE SWAP3 SWAP1 SWAP3 KECCAK256 DUP4 MLOAD DUP2 SLOAD SWAP3 AND PUSH1 0x1 PUSH1 0x1 PUSH1 0xA0 SHL SUB NOT DUP4 AND DUP2 OR DUP3 SSTORE SWAP3 DUP5 ADD MLOAD SWAP1 SWAP3 SWAP1 SWAP2 DUP4 SWAP2 PUSH1 0x1 PUSH1 0x1 PUSH1 0xA8 SHL SUB NOT SWAP1 SWAP2 AND OR PUSH1 0x1 PUSH1 0xA0 SHL DUP4 PUSH1 0x2 DUP2 GT ISZERO PUSH2 0x5AE JUMPI PUSH2 0x5AE PUSH2 0x1D25 JUMP JUMPDEST MUL OR SWAP1 SSTORE POP PUSH1 0x40 DUP3 DUP2 ADD MLOAD PUSH1 0x1 DUP4 ADD DUP1 SLOAD PUSH1 0x1 PUSH1 0x1 PUSH1 0xA0 SHL SUB NOT AND PUSH1 0x1 PUSH1 0x1 PUSH1 0xA0 SHL SUB SWAP1 SWAP3 AND SWAP2 SWAP1 SWAP2 OR SWAP1 SSTORE PUSH1 0x60 SWAP1 SWAP3 ADD MLOAD PUSH1 0x2 SWAP2 DUP3 ADD SSTORE SWAP1 MLOAD CALLER SWAP2 DUP5 SWAP2 PUSH32 0xE0CBCA9C6411F8084BC50B0EEDBC1C05F0A53CDCFDC0FD487CDA1A66EC73E8D4 SWAP2 PUSH2 0x617 SWAP2 PUSH2 0x1E52 JUMP JUMPDEST PUSH1 0x40 MLOAD DUP1 SWAP2 SUB SWAP1 LOG3 POP SWAP3 SWAP2 POP POP JUMP JUMPDEST PUSH2 0x62E PUSH2 0xE6A JUMP JUMPDEST PUSH1 0x1 PUSH1 0x1 PUSH1 0xA0 SHL SUB DUP3 AND PUSH2 0x654 JUMPI PUSH1 0x40 MLOAD PUSH3 0x461BCD PUSH1 0xE5 SHL DUP2 MSTORE PUSH1 0x4 ADD PUSH2 0x48E SWAP1 PUSH2 0x1E24 JUMP JUMPDEST PUSH1 0x64 DUP2 GT ISZERO PUSH2 0x6A5 JUMPI PUSH1 0x40 MLOAD PUSH3 0x461BCD PUSH1 0xE5 SHL DUP2 MSTORE PUSH1 0x20 PUSH1 0x4 DUP3 ADD MSTORE PUSH1 0x18 PUSH1 0x24 DUP3 ADD MSTORE PUSH32 0x496E76616C69642072657075746174696F6E2073636F72650000000000000000 PUSH1 0x44 DUP3 ADD MSTORE PUSH1 0x64 ADD PUSH2 0x48E JUMP JUMPDEST PUSH1 0x1 PUSH1 0x1 PUSH1 0xA0 SHL SUB DUP3 AND PUSH1 0x0 DUP2 DUP2 MSTORE PUSH1 0x1 PUSH1 0x20 MSTORE PUSH1 0x40 SWAP1 DUP2 SWAP1 KECCAK256 DUP4 SWAP1 SSTORE MLOAD PUSH32 0xE00F1B5D37E934593FB70FCB5FD4703E66F533B6F2560437EC119178A815812D SWAP1 PUSH2 0x6F2 SWAP1 DUP5 DUP2 MSTORE PUSH1 0x20 ADD SWAP1 JUMP JUMPDEST PUSH1 0x40 MLOAD DUP1 SWAP2 SUB SWAP1 LOG2 POP POP JUMP JUMPDEST PUSH1 0x0 PUSH2 0x708 PUSH2 0xE6A JUMP JUMPDEST PUSH2 0x710 PUSH2 0x1B86 JUMP JUMPDEST PUSH2 0x71B PUSH2 0x4F2 PUSH2 0x12CE JUMP JUMPDEST PUSH2 0x727 PUSH2 0x505 DUP3 PUSH2 0xF34 JUMP JUMPDEST PUSH1 0x40 DUP1 MLOAD PUSH1 0x80 DUP2 ADD SWAP1 SWAP2 MSTORE CALLER DUP2 MSTORE SWAP1 SWAP3 POP PUSH1 0x20 DUP2 ADD PUSH1 0x0 DUP2 MSTORE PUSH1 0x0 PUSH1 0x20 DUP1 DUP4 ADD DUP3 SWAP1 MSTORE PUSH1 0x40 SWAP3 DUP4 ADD DUP3 SWAP1 MSTORE DUP6 DUP3 MSTORE PUSH1 0x5 DUP2 MSTORE SWAP2 SWAP1 KECCAK256 DUP3 MLOAD DUP2 SLOAD PUSH1 0x1 PUSH1 0x1 PUSH1 0xA0 SHL SUB SWAP2 SWAP1 SWAP2 AND PUSH1 0x1 PUSH1 0x1 PUSH1 0xA0 SHL SUB NOT DUP3 AND DUP2 OR DUP4 SSTORE SWAP3 DUP5 ADD MLOAD SWAP2 SWAP3 DUP4 SWAP2 PUSH1 0x1 PUSH1 0x1 PUSH1 0xA8 SHL SUB NOT AND OR PUSH1 0x1 PUSH1 0xA0 SHL DUP4 PUSH1 0x2 DUP2 GT ISZERO PUSH2 0x7A5 JUMPI PUSH2 0x7A5 PUSH2 0x1D25 JUMP JUMPDEST MUL OR SWAP1 SSTORE POP PUSH1 0x40 DUP3 DUP2 ADD MLOAD PUSH1 0x1 DUP4 ADD DUP1 SLOAD PUSH1 0x1 PUSH1 0x1 PUSH1 0xA0 SHL SUB NOT AND PUSH1 0x1 PUSH1 0x1 PUSH1 0xA0 SHL SUB SWAP1 SWAP3 AND SWAP2 SWAP1 SWAP2 OR SWAP1 SSTORE PUSH1 0x60 SWAP1 SWAP3 ADD MLOAD PUSH1 0x2 SWAP1 SWAP2 ADD SSTORE MLOAD CALLER SWAP1 DUP4 SWAP1 PUSH32 0xE0CBCA9C6411F8084BC50B0EEDBC1C05F0A53CDCFDC0FD487CDA1A66EC73E8D4 SWAP1 PUSH2 0x810 SWAP1 PUSH1 0x0 SWAP1 PUSH2 0x1E52 JUMP JUMPDEST PUSH1 0x40 MLOAD DUP1 SWAP2 SUB SWAP1 LOG3 POP SWAP1 JUMP JUMPDEST PUSH2 0x824 PUSH2 0xE6A JUMP JUMPDEST PUSH1 0x1 PUSH1 0x1 PUSH1 0xA0 SHL SUB DUP4 AND PUSH2 0x84A JUMPI PUSH1 0x40 MLOAD PUSH3 0x461BCD PUSH1 0xE5 SHL DUP2 MSTORE PUSH1 0x4 ADD PUSH2 0x48E SWAP1 PUSH2 0x1E24 JUMP JUMPDEST PUSH1 0x0 DUP3 GT PUSH2 0x890 JUMPI PUSH1 0x40 MLOAD PUSH3 0x461BCD PUSH1 0xE5 SHL DUP2 MSTORE PUSH1 0x20 PUSH1 0x4 DUP3 ADD MSTORE PUSH1 0x13 PUSH1 0x24 DUP3 ADD MSTORE PUSH19 0x125B9D985B1A59081C1C9BDC1BDCD85B081251 PUSH1 0x6A SHL PUSH1 0x44 DUP3 ADD MSTORE PUSH1 0x64 ADD PUSH2 0x48E JUMP JUMPDEST PUSH1 0x64 DUP2 GT ISZERO PUSH2 0x8E1 JUMPI PUSH1 0x40 MLOAD PUSH3 0x461BCD PUSH1 0xE5 SHL DUP2 MSTORE PUSH1 0x20 PUSH1 0x4 DUP3 ADD MSTORE PUSH1 0x19 PUSH1 0x24 DUP3 ADD MSTORE PUSH32 0x496E76616C696420636F7272656C6174696F6E2073636F726500000000000000 PUSH1 0x44 DUP3 ADD MSTORE PUSH1 0x64 ADD PUSH2 0x48E JUMP JUMPDEST PUSH1 0x1 PUSH1 0x1 PUSH1 0xA0 SHL SUB DUP4 AND PUSH1 0x0 DUP2 DUP2 MSTORE PUSH1 0x2 PUSH1 0x20 SWAP1 DUP2 MSTORE PUSH1 0x40 DUP1 DUP4 KECCAK256 DUP7 DUP5 MSTORE DUP3 MSTORE SWAP2 DUP3 SWAP1 KECCAK256 DUP5 SWAP1 SSTORE SWAP1 MLOAD DUP4 DUP2 MSTORE DUP5 SWAP3 SWAP2 PUSH32 0xDDF0BEC76D6B8F0EC241EE38557441A708EBFE4F327F1955AFC54E21A977FC71 SWAP2 ADD PUSH1 0x40 MLOAD DUP1 SWAP2 SUB SWAP1 LOG3 POP POP POP JUMP JUMPDEST PUSH1 0x0 PUSH2 0x94A PUSH2 0xE6A JUMP JUMPDEST PUSH1 0x1 PUSH1 0x1 PUSH1 0xA0 SHL SUB DUP3 AND PUSH2 0x970 JUMPI PUSH1 0x40 MLOAD PUSH3 0x461BCD PUSH1 0xE5 SHL DUP2 MSTORE PUSH1 0x4 ADD PUSH2 0x48E SWAP1 PUSH2 0x1E24 JUMP JUMPDEST PUSH2 0x978 PUSH2 0x1B86 JUMP JUMPDEST PUSH2 0x984 PUSH2 0x4F2 DUP5 PUSH2 0x12F1 JUMP JUMPDEST PUSH2 0x990 PUSH2 0x505 DUP3 PUSH2 0xF34 JUMP JUMPDEST PUSH1 0x40 DUP1 MLOAD PUSH1 0x80 DUP2 ADD DUP3 MSTORE CALLER DUP2 MSTORE PUSH1 0x1 PUSH1 0x20 DUP1 DUP4 ADD SWAP2 DUP3 MSTORE PUSH1 0x1 PUSH1 0x1 PUSH1 0xA0 SHL SUB DUP9 DUP2 AND DUP5 DUP7 ADD MSTORE PUSH1 0x0 PUSH1 0x60 DUP6 ADD DUP2 SWAP1 MSTORE DUP7 DUP2 MSTORE PUSH1 0x5 SWAP1 SWAP3 MSTORE SWAP4 SWAP1 KECCAK256 DUP3 MLOAD DUP2 SLOAD SWAP5 AND PUSH1 0x1 PUSH1 0x1 PUSH1 0xA0 SHL SUB NOT DUP6 AND DUP2 OR DUP3 SSTORE SWAP2 MLOAD SWAP5 SWAP7 POP SWAP2 SWAP4 SWAP2 SWAP3 DUP4 SWAP2 PUSH1 0x1 PUSH1 0x1 PUSH1 0xA8 SHL SUB NOT SWAP1 SWAP2 AND OR PUSH1 0x1 PUSH1 0xA0 SHL DUP4 PUSH1 0x2 DUP2 GT ISZERO PUSH2 0xA0E JUMPI PUSH2 0xA0E PUSH2 0x1D25 JUMP JUMPDEST MUL OR SWAP1 SSTORE POP PUSH1 0x40 DUP3 ADD MLOAD DUP2 PUSH1 0x1 ADD PUSH1 0x0 PUSH2 0x100 EXP DUP2 SLOAD DUP2 PUSH1 0x1 PUSH1 0x1 PUSH1 0xA0 SHL SUB MUL NOT AND SWAP1 DUP4 PUSH1 0x1 PUSH1 0x1 PUSH1 0xA0 SHL SUB AND MUL OR SWAP1 SSTORE POP PUSH1 0x60 DUP3 ADD MLOAD DUP2 PUSH1 0x2 ADD SSTORE SWAP1 POP POP CALLER PUSH1 0x1 PUSH1 0x1 PUSH1 0xA0 SHL SUB AND DUP3 PUSH32 0xE0CBCA9C6411F8084BC50B0EEDBC1C05F0A53CDCFDC0FD487CDA1A66EC73E8D4 PUSH1 0x1 PUSH1 0x40 MLOAD PUSH2 0xA88 SWAP2 SWAP1 PUSH2 0x1E52 JUMP JUMPDEST PUSH1 0x40 MLOAD DUP1 SWAP2 SUB SWAP1 LOG3 POP JUMPDEST SWAP2 SWAP1 POP JUMP JUMPDEST PUSH2 0xA9F PUSH2 0xE6A JUMP JUMPDEST PUSH1 0x1 PUSH1 0x1 PUSH1 0xA0 SHL SUB DUP2 AND PUSH2 0xAC9 JUMPI PUSH1 0x40 MLOAD PUSH4 0x1E4FBDF7 PUSH1 0xE0 SHL DUP2 MSTORE PUSH1 0x0 PUSH1 0x4 DUP3 ADD MSTORE PUSH1 0x24 ADD PUSH2 0x48E JUMP JUMPDEST PUSH2 0xAD2 DUP2 PUSH2 0xE97 JUMP JUMPDEST POP JUMP JUMPDEST PUSH2 0xADD PUSH2 0xE6A JUMP JUMPDEST PUSH1 0x0 DUP2 SGT PUSH2 0xB1D JUMPI PUSH1 0x40 MLOAD PUSH3 0x461BCD PUSH1 0xE5 SHL DUP2 MSTORE PUSH1 0x20 PUSH1 0x4 DUP3 ADD MSTORE PUSH1 0xD PUSH1 0x24 DUP3 ADD MSTORE PUSH13 0x496E76616C6964207072696365 PUSH1 0x98 SHL PUSH1 0x44 DUP3 ADD MSTORE PUSH1 0x64 ADD PUSH2 0x48E JUMP JUMPDEST PUSH1 0x3 DUP2 SWAP1 SSTORE TIMESTAMP PUSH1 0x4 DUP2 SWAP1 SSTORE PUSH1 0x40 DUP1 MLOAD DUP4 DUP2 MSTORE PUSH1 0x20 DUP2 ADD SWAP3 SWAP1 SWAP3 MSTORE PUSH32 0xF6C5A7CA37753B0680A888953FC4F298AAC5757F9639486009B92DF9C9BDADFA SWAP2 ADD PUSH1 0x40 MLOAD DUP1 SWAP2 SUB SWAP1 LOG1 POP JUMP JUMPDEST PUSH1 0x0 DUP4 DUP2 MSTORE PUSH1 0x5 PUSH1 0x20 SWAP1 DUP2 MSTORE PUSH1 0x40 DUP1 DUP4 KECCAK256 DUP2 MLOAD PUSH1 0x80 DUP2 ADD SWAP1 SWAP3 MSTORE DUP1 SLOAD PUSH1 0x1 PUSH1 0x1 PUSH1 0xA0 SHL SUB DUP2 AND DUP4 MSTORE SWAP2 SWAP3 SWAP1 SWAP2 SWAP1 DUP4 ADD SWAP1 PUSH1 0x1 PUSH1 0xA0 SHL SWAP1 DIV PUSH1 0xFF AND PUSH1 0x2 DUP2 GT ISZERO PUSH2 0xBB0 JUMPI PUSH2 0xBB0 PUSH2 0x1D25 JUMP JUMPDEST PUSH1 0x2 DUP2 GT ISZERO PUSH2 0xBC1 JUMPI PUSH2 0xBC1 PUSH2 0x1D25 JUMP JUMPDEST DUP2 MSTORE PUSH1 0x1 DUP3 ADD SLOAD PUSH1 0x1 PUSH1 0x1 PUSH1 0xA0 SHL SUB SWAP1 DUP2 AND PUSH1 0x20 DUP4 ADD MSTORE PUSH1 0x2 SWAP1 SWAP3 ADD SLOAD PUSH1 0x40 SWAP1 SWAP2 ADD MSTORE DUP2 MLOAD SWAP2 SWAP3 POP AND PUSH2 0xC2B JUMPI PUSH1 0x40 MLOAD PUSH3 0x461BCD PUSH1 0xE5 SHL DUP2 MSTORE PUSH1 0x20 PUSH1 0x4 DUP3 ADD MSTORE PUSH1 0x12 PUSH1 0x24 DUP3 ADD MSTORE PUSH18 0x125B9D985B1A59081C995C5D595CDD081251 PUSH1 0x72 SHL PUSH1 0x44 DUP3 ADD MSTORE PUSH1 0x64 ADD PUSH2 0x48E JUMP JUMPDEST PUSH1 0x0 DUP1 PUSH1 0x0 DUP6 DUP1 PUSH1 0x20 ADD SWAP1 MLOAD DUP2 ADD SWAP1 PUSH2 0xC44 SWAP2 SWAP1 PUSH2 0x1E60 JUMP JUMPDEST SWAP2 SWAP5 POP SWAP3 POP SWAP1 POP PUSH1 0x0 DUP5 PUSH1 0x20 ADD MLOAD PUSH1 0x2 DUP2 GT ISZERO PUSH2 0xC63 JUMPI PUSH2 0xC63 PUSH2 0x1D25 JUMP JUMPDEST EQ DUP1 ISZERO PUSH2 0xC70 JUMPI POP PUSH1 0x0 DUP4 SGT JUMPDEST ISZERO PUSH2 0xCBF JUMPI PUSH1 0x3 DUP4 SWAP1 SSTORE TIMESTAMP PUSH1 0x4 DUP2 SWAP1 SSTORE PUSH1 0x40 DUP1 MLOAD DUP6 DUP2 MSTORE PUSH1 0x20 DUP2 ADD SWAP3 SWAP1 SWAP3 MSTORE PUSH32 0xF6C5A7CA37753B0680A888953FC4F298AAC5757F9639486009B92DF9C9BDADFA SWAP2 ADD PUSH1 0x40 MLOAD DUP1 SWAP2 SUB SWAP1 LOG1 PUSH2 0xDED JUMP JUMPDEST PUSH1 0x1 DUP5 PUSH1 0x20 ADD MLOAD PUSH1 0x2 DUP2 GT ISZERO PUSH2 0xCD7 JUMPI PUSH2 0xCD7 PUSH2 0x1D25 JUMP JUMPDEST EQ DUP1 ISZERO PUSH2 0xCE5 JUMPI POP PUSH1 0x64 DUP3 GT ISZERO JUMPDEST ISZERO PUSH2 0xD4F JUMPI PUSH1 0x40 DUP1 DUP6 ADD DUP1 MLOAD PUSH1 0x1 PUSH1 0x1 PUSH1 0xA0 SHL SUB SWAP1 DUP2 AND PUSH1 0x0 SWAP1 DUP2 MSTORE PUSH1 0x1 PUSH1 0x20 MSTORE DUP4 SWAP1 KECCAK256 DUP6 SWAP1 SSTORE SWAP1 MLOAD SWAP2 MLOAD SWAP2 AND SWAP1 PUSH32 0xE00F1B5D37E934593FB70FCB5FD4703E66F533B6F2560437EC119178A815812D SWAP1 PUSH2 0xD42 SWAP1 DUP6 DUP2 MSTORE PUSH1 0x20 ADD SWAP1 JUMP JUMPDEST PUSH1 0x40 MLOAD DUP1 SWAP2 SUB SWAP1 LOG2 PUSH2 0xDED JUMP JUMPDEST PUSH1 0x2 DUP5 PUSH1 0x20 ADD MLOAD PUSH1 0x2 DUP2 GT ISZERO PUSH2 0xD67 JUMPI PUSH2 0xD67 PUSH2 0x1D25 JUMP JUMPDEST EQ DUP1 ISZERO PUSH2 0xD75 JUMPI POP PUSH1 0x64 DUP2 GT ISZERO JUMPDEST ISZERO PUSH2 0xDED JUMPI PUSH1 0x40 DUP1 DUP6 ADD DUP1 MLOAD PUSH1 0x1 PUSH1 0x1 PUSH1 0xA0 SHL SUB SWAP1 DUP2 AND PUSH1 0x0 SWAP1 DUP2 MSTORE PUSH1 0x2 PUSH1 0x20 SWAP1 DUP2 MSTORE DUP5 DUP3 KECCAK256 PUSH1 0x60 DUP11 ADD DUP1 MLOAD DUP5 MSTORE SWAP2 MSTORE SWAP1 DUP5 SWAP1 KECCAK256 DUP6 SWAP1 SSTORE MLOAD SWAP2 MLOAD SWAP3 MLOAD SWAP2 SWAP3 AND SWAP1 PUSH32 0xDDF0BEC76D6B8F0EC241EE38557441A708EBFE4F327F1955AFC54E21A977FC71 SWAP1 PUSH2 0xDE4 SWAP1 DUP6 DUP2 MSTORE PUSH1 0x20 ADD SWAP1 JUMP JUMPDEST PUSH1 0x40 MLOAD DUP1 SWAP2 SUB SWAP1 LOG3 JUMPDEST PUSH1 0x40 DUP1 MLOAD DUP5 DUP2 MSTORE PUSH1 0x20 DUP2 ADD DUP5 SWAP1 MSTORE SWAP1 DUP2 ADD DUP3 SWAP1 MSTORE DUP8 SWAP1 PUSH32 0xE9F0D70093154E9443BD931BC5CF30B0C45F5E41FADAF654F5A548A6523D1009 SWAP1 PUSH1 0x60 ADD PUSH1 0x40 MLOAD DUP1 SWAP2 SUB SWAP1 LOG2 POP POP POP PUSH1 0x0 SWAP4 DUP5 MSTORE POP POP PUSH1 0x5 PUSH1 0x20 MSTORE POP PUSH1 0x40 DUP2 KECCAK256 DUP1 SLOAD PUSH1 0x1 PUSH1 0x1 PUSH1 0xA8 SHL SUB NOT AND DUP2 SSTORE PUSH1 0x1 DUP2 ADD DUP1 SLOAD PUSH1 0x1 PUSH1 0x1 PUSH1 0xA0 SHL SUB NOT AND SWAP1 SSTORE PUSH1 0x2 ADD SSTORE JUMP JUMPDEST PUSH1 0x0 SLOAD PUSH1 0x1 PUSH1 0x1 PUSH1 0xA0 SHL SUB AND CALLER EQ PUSH2 0x45C JUMPI PUSH1 0x40 MLOAD PUSH4 0x118CDAA7 PUSH1 0xE0 SHL DUP2 MSTORE CALLER PUSH1 0x4 DUP3 ADD MSTORE PUSH1 0x24 ADD PUSH2 0x48E JUMP JUMPDEST PUSH1 0x0 DUP1 SLOAD PUSH1 0x1 PUSH1 0x1 PUSH1 0xA0 SHL SUB DUP4 DUP2 AND PUSH1 0x1 PUSH1 0x1 PUSH1 0xA0 SHL SUB NOT DUP4 AND DUP2 OR DUP5 SSTORE PUSH1 0x40 MLOAD SWAP2 SWAP1 SWAP3 AND SWAP3 DUP4 SWAP2 PUSH32 0x8BE0079C531659141344CD1FD0A4F28419497F9722A3DAAFE3B4186F6B6457E0 SWAP2 SWAP1 LOG3 POP POP JUMP JUMPDEST PUSH1 0x60 PUSH2 0xEF2 DUP4 PUSH2 0x1322 JUMP JUMPDEST PUSH2 0xEFB DUP4 PUSH2 0x158D JUMP JUMPDEST PUSH1 0x40 MLOAD PUSH1 0x20 ADD PUSH2 0xF0C SWAP3 SWAP2 SWAP1 PUSH2 0x1EB2 JUMP JUMPDEST PUSH1 0x40 MLOAD PUSH1 0x20 DUP2 DUP4 SUB SUB DUP2 MSTORE SWAP1 PUSH1 0x40 MSTORE SWAP1 POP SWAP3 SWAP2 POP POP JUMP JUMPDEST PUSH2 0xF30 DUP3 PUSH1 0x0 DUP1 DUP5 PUSH2 0x1696 JUMP JUMPDEST POP POP JUMP JUMPDEST PUSH1 0x60 PUSH1 0x0 PUSH2 0xF43 PUSH2 0x100 PUSH2 0x1714 JUMP JUMPDEST SWAP1 POP PUSH2 0xF7C PUSH1 0x40 MLOAD DUP1 PUSH1 0x40 ADD PUSH1 0x40 MSTORE DUP1 PUSH1 0xC DUP2 MSTORE PUSH1 0x20 ADD PUSH12 0x31B7B232A637B1B0BA34B7B7 PUSH1 0xA1 SHL DUP2 MSTORE POP DUP3 PUSH2 0x1735 SWAP1 SWAP2 SWAP1 PUSH4 0xFFFFFFFF AND JUMP JUMPDEST DUP3 MLOAD PUSH2 0xF9A SWAP1 PUSH1 0x2 DUP2 GT ISZERO PUSH2 0xF93 JUMPI PUSH2 0xF93 PUSH2 0x1D25 JUMP JUMPDEST DUP3 SWAP1 PUSH2 0x1753 JUMP JUMPDEST PUSH1 0x40 DUP1 MLOAD DUP1 DUP3 ADD SWAP1 SWAP2 MSTORE PUSH1 0x8 DUP2 MSTORE PUSH8 0x6C616E6775616765 PUSH1 0xC0 SHL PUSH1 0x20 DUP3 ADD MSTORE PUSH2 0xFC4 SWAP1 DUP3 SWAP1 PUSH2 0x1735 JUMP JUMPDEST PUSH1 0x40 DUP4 ADD MLOAD PUSH2 0xFDB SWAP1 DUP1 ISZERO PUSH2 0xF93 JUMPI PUSH2 0xF93 PUSH2 0x1D25 JUMP JUMPDEST PUSH1 0x40 DUP1 MLOAD DUP1 DUP3 ADD SWAP1 SWAP2 MSTORE PUSH1 0x6 DUP2 MSTORE PUSH6 0x736F75726365 PUSH1 0xD0 SHL PUSH1 0x20 DUP3 ADD MSTORE PUSH2 0x1003 SWAP1 DUP3 SWAP1 PUSH2 0x1735 JUMP JUMPDEST PUSH1 0x60 DUP4 ADD MLOAD PUSH2 0x1013 SWAP1 DUP3 SWAP1 PUSH2 0x1735 JUMP JUMPDEST PUSH1 0xA0 DUP4 ADD MLOAD MLOAD ISZERO PUSH2 0x109F JUMPI PUSH1 0x40 DUP1 MLOAD DUP1 DUP3 ADD SWAP1 SWAP2 MSTORE PUSH1 0x4 DUP2 MSTORE PUSH4 0x61726773 PUSH1 0xE0 SHL PUSH1 0x20 DUP3 ADD MSTORE PUSH2 0x1044 SWAP1 DUP3 SWAP1 PUSH2 0x1735 JUMP JUMPDEST PUSH2 0x104D DUP2 PUSH2 0x178C JUMP JUMPDEST PUSH1 0x0 JUMPDEST DUP4 PUSH1 0xA0 ADD MLOAD MLOAD DUP2 LT ISZERO PUSH2 0x1095 JUMPI PUSH2 0x108D DUP5 PUSH1 0xA0 ADD MLOAD DUP3 DUP2 MLOAD DUP2 LT PUSH2 0x1076 JUMPI PUSH2 0x1076 PUSH2 0x209B JUMP JUMPDEST PUSH1 0x20 MUL PUSH1 0x20 ADD ADD MLOAD DUP4 PUSH2 0x1735 SWAP1 SWAP2 SWAP1 PUSH4 0xFFFFFFFF AND JUMP JUMPDEST PUSH1 0x1 ADD PUSH2 0x1050 JUMP JUMPDEST POP PUSH2 0x109F DUP2 PUSH2 0x17B0 JUMP JUMPDEST PUSH1 0x80 DUP4 ADD MLOAD MLOAD ISZERO PUSH2 0x1163 JUMPI PUSH1 0x0 DUP4 PUSH1 0x20 ADD MLOAD PUSH1 0x2 DUP2 GT ISZERO PUSH2 0x10C2 JUMPI PUSH2 0x10C2 PUSH2 0x1D25 JUMP JUMPDEST SUB PUSH2 0x10E0 JUMPI PUSH1 0x40 MLOAD PUSH4 0xA80D31F7 PUSH1 0xE0 SHL DUP2 MSTORE PUSH1 0x4 ADD PUSH1 0x40 MLOAD DUP1 SWAP2 SUB SWAP1 REVERT JUMPDEST PUSH1 0x40 DUP1 MLOAD DUP1 DUP3 ADD SWAP1 SWAP2 MSTORE PUSH1 0xF DUP2 MSTORE PUSH15 0x39B2B1B932BA39A637B1B0BA34B7B7 PUSH1 0x89 SHL PUSH1 0x20 DUP3 ADD MSTORE PUSH2 0x1111 SWAP1 DUP3 SWAP1 PUSH2 0x1735 JUMP JUMPDEST PUSH2 0x112A DUP4 PUSH1 0x20 ADD MLOAD PUSH1 0x2 DUP2 GT ISZERO PUSH2 0xF93 JUMPI PUSH2 0xF93 PUSH2 0x1D25 JUMP JUMPDEST PUSH1 0x40 DUP1 MLOAD DUP1 DUP3 ADD SWAP1 SWAP2 MSTORE PUSH1 0x7 DUP2 MSTORE PUSH7 0x73656372657473 PUSH1 0xC8 SHL PUSH1 0x20 DUP3 ADD MSTORE PUSH2 0x1153 SWAP1 DUP3 SWAP1 PUSH2 0x1735 JUMP JUMPDEST PUSH1 0x80 DUP4 ADD MLOAD PUSH2 0x1163 SWAP1 DUP3 SWAP1 PUSH2 0x17CE JUMP JUMPDEST PUSH1 0xC0 DUP4 ADD MLOAD MLOAD ISZERO PUSH2 0x11F4 JUMPI PUSH1 0x40 DUP1 MLOAD DUP1 DUP3 ADD SWAP1 SWAP2 MSTORE PUSH1 0x9 DUP2 MSTORE PUSH9 0x627974657341726773 PUSH1 0xB8 SHL PUSH1 0x20 DUP3 ADD MSTORE PUSH2 0x1199 SWAP1 DUP3 SWAP1 PUSH2 0x1735 JUMP JUMPDEST PUSH2 0x11A2 DUP2 PUSH2 0x178C JUMP JUMPDEST PUSH1 0x0 JUMPDEST DUP4 PUSH1 0xC0 ADD MLOAD MLOAD DUP2 LT ISZERO PUSH2 0x11EA JUMPI PUSH2 0x11E2 DUP5 PUSH1 0xC0 ADD MLOAD DUP3 DUP2 MLOAD DUP2 LT PUSH2 0x11CB JUMPI PUSH2 0x11CB PUSH2 0x209B JUMP JUMPDEST PUSH1 0x20 MUL PUSH1 0x20 ADD ADD MLOAD DUP4 PUSH2 0x17CE SWAP1 SWAP2 SWAP1 PUSH4 0xFFFFFFFF AND JUMP JUMPDEST PUSH1 0x1 ADD PUSH2 0x11A5 JUMP JUMPDEST POP PUSH2 0x11F4 DUP2 PUSH2 0x17B0 JUMP JUMPDEST MLOAD MLOAD SWAP3 SWAP2 POP POP JUMP JUMPDEST PUSH1 0x0 DUP1 PUSH32 0x0 PUSH1 0x1 PUSH1 0x1 PUSH1 0xA0 SHL SUB AND PUSH4 0x461D2762 DUP7 DUP9 PUSH1 0x1 DUP9 DUP9 PUSH1 0x40 MLOAD DUP7 PUSH4 0xFFFFFFFF AND PUSH1 0xE0 SHL DUP2 MSTORE PUSH1 0x4 ADD PUSH2 0x1254 SWAP6 SWAP5 SWAP4 SWAP3 SWAP2 SWAP1 PUSH2 0x20B1 JUMP JUMPDEST PUSH1 0x20 PUSH1 0x40 MLOAD DUP1 DUP4 SUB DUP2 PUSH1 0x0 DUP8 GAS CALL ISZERO DUP1 ISZERO PUSH2 0x1273 JUMPI RETURNDATASIZE PUSH1 0x0 DUP1 RETURNDATACOPY RETURNDATASIZE PUSH1 0x0 REVERT JUMPDEST POP POP POP POP PUSH1 0x40 MLOAD RETURNDATASIZE PUSH1 0x1F NOT PUSH1 0x1F DUP3 ADD AND DUP3 ADD DUP1 PUSH1 0x40 MSTORE POP DUP2 ADD SWAP1 PUSH2 0x1297 SWAP2 SWAP1 PUSH2 0x2112 JUMP JUMPDEST PUSH1 0x40 MLOAD SWAP1 SWAP2 POP DUP2 SWAP1 PUSH32 0x1131472297A800FEE664D1D89CFA8F7676FF07189ECC53F80BBB5F4969099DB8 SWAP1 PUSH1 0x0 SWAP1 LOG2 SWAP6 SWAP5 POP POP POP POP POP JUMP JUMPDEST PUSH1 0x60 PUSH1 0x40 MLOAD DUP1 PUSH2 0x140 ADD PUSH1 0x40 MSTORE DUP1 PUSH2 0x11E DUP2 MSTORE PUSH1 0x20 ADD PUSH2 0x2467 PUSH2 0x11E SWAP2 CODECOPY SWAP1 POP SWAP1 JUMP JUMPDEST PUSH1 0x60 PUSH2 0x12FC DUP3 PUSH2 0x1322 JUMP JUMPDEST PUSH1 0x40 MLOAD PUSH1 0x20 ADD PUSH2 0x130C SWAP2 SWAP1 PUSH2 0x212B JUMP JUMPDEST PUSH1 0x40 MLOAD PUSH1 0x20 DUP2 DUP4 SUB SUB DUP2 MSTORE SWAP1 PUSH1 0x40 MSTORE SWAP1 POP SWAP2 SWAP1 POP JUMP JUMPDEST PUSH1 0x40 MLOAD PUSH1 0x60 DUP3 DUP2 SHL PUSH12 0xFFFFFFFFFFFFFFFFFFFFFFFF NOT AND PUSH1 0x20 DUP4 ADD MSTORE SWAP1 PUSH1 0x0 SWAP1 PUSH1 0x34 ADD PUSH1 0x40 DUP1 MLOAD DUP1 DUP4 SUB PUSH1 0x1F NOT ADD DUP2 MSTORE PUSH2 0x200 DUP4 ADD DUP3 MSTORE PUSH1 0x3 PUSH1 0xFC SHL DUP4 MSTORE PUSH1 0x31 PUSH1 0xF8 SHL PUSH1 0x20 DUP5 ADD MSTORE PUSH1 0x19 PUSH1 0xF9 SHL DUP4 DUP4 ADD MSTORE PUSH1 0x33 PUSH1 0xF8 SHL PUSH1 0x60 DUP1 DUP6 ADD SWAP2 SWAP1 SWAP2 MSTORE PUSH1 0xD PUSH1 0xFA SHL PUSH1 0x80 DUP6 ADD MSTORE PUSH1 0x35 PUSH1 0xF8 SHL PUSH1 0xA0 DUP6 ADD MSTORE PUSH1 0x1B PUSH1 0xF9 SHL PUSH1 0xC0 DUP6 ADD MSTORE PUSH1 0x37 PUSH1 0xF8 SHL PUSH1 0xE0 DUP6 ADD MSTORE PUSH1 0x7 PUSH1 0xFB SHL PUSH2 0x100 DUP6 ADD MSTORE PUSH1 0x39 PUSH1 0xF8 SHL PUSH2 0x120 DUP6 ADD MSTORE PUSH1 0x61 PUSH1 0xF8 SHL PUSH2 0x140 DUP6 ADD MSTORE PUSH1 0x31 PUSH1 0xF9 SHL PUSH2 0x160 DUP6 ADD MSTORE PUSH1 0x63 PUSH1 0xF8 SHL PUSH2 0x180 DUP6 ADD MSTORE PUSH1 0x19 PUSH1 0xFA SHL PUSH2 0x1A0 DUP6 ADD MSTORE PUSH1 0x65 PUSH1 0xF8 SHL PUSH2 0x1C0 DUP6 ADD MSTORE PUSH1 0x33 PUSH1 0xF9 SHL PUSH2 0x1E0 DUP6 ADD MSTORE DUP3 MLOAD PUSH1 0x2A DUP1 DUP3 MSTORE SWAP2 DUP2 ADD SWAP1 SWAP4 MSTORE SWAP1 SWAP4 POP PUSH1 0x0 SWAP2 SWAP1 PUSH1 0x20 DUP3 ADD DUP2 DUP1 CALLDATASIZE DUP4 CALLDATACOPY ADD SWAP1 POP POP SWAP1 POP PUSH1 0x3 PUSH1 0xFC SHL DUP2 PUSH1 0x0 DUP2 MLOAD DUP2 LT PUSH2 0x143C JUMPI PUSH2 0x143C PUSH2 0x209B JUMP JUMPDEST PUSH1 0x20 ADD ADD SWAP1 PUSH1 0x1 PUSH1 0x1 PUSH1 0xF8 SHL SUB NOT AND SWAP1 DUP2 PUSH1 0x0 BYTE SWAP1 MSTORE8 POP PUSH1 0xF PUSH1 0xFB SHL DUP2 PUSH1 0x1 DUP2 MLOAD DUP2 LT PUSH2 0x146B JUMPI PUSH2 0x146B PUSH2 0x209B JUMP JUMPDEST PUSH1 0x20 ADD ADD SWAP1 PUSH1 0x1 PUSH1 0x1 PUSH1 0xF8 SHL SUB NOT AND SWAP1 DUP2 PUSH1 0x0 BYTE SWAP1 MSTORE8 POP PUSH1 0x0 JUMPDEST PUSH1 0x14 DUP2 LT ISZERO PUSH2 0x1584 JUMPI DUP3 PUSH1 0x4 DUP6 DUP4 DUP2 MLOAD DUP2 LT PUSH2 0x14A3 JUMPI PUSH2 0x14A3 PUSH2 0x209B JUMP JUMPDEST ADD PUSH1 0x20 ADD MLOAD PUSH1 0x1 PUSH1 0x1 PUSH1 0xF8 SHL SUB NOT AND SWAP1 SHR PUSH1 0xF8 SHR PUSH1 0x10 DUP2 LT PUSH2 0x14C7 JUMPI PUSH2 0x14C7 PUSH2 0x209B JUMP JUMPDEST PUSH1 0x20 MUL ADD MLOAD DUP3 PUSH2 0x14D8 DUP4 PUSH1 0x2 PUSH2 0x22C8 JUMP JUMPDEST PUSH2 0x14E3 SWAP1 PUSH1 0x2 PUSH2 0x22DF JUMP JUMPDEST DUP2 MLOAD DUP2 LT PUSH2 0x14F3 JUMPI PUSH2 0x14F3 PUSH2 0x209B JUMP JUMPDEST PUSH1 0x20 ADD ADD SWAP1 PUSH1 0x1 PUSH1 0x1 PUSH1 0xF8 SHL SUB NOT AND SWAP1 DUP2 PUSH1 0x0 BYTE SWAP1 MSTORE8 POP DUP3 DUP5 DUP3 DUP2 MLOAD DUP2 LT PUSH2 0x151D JUMPI PUSH2 0x151D PUSH2 0x209B JUMP JUMPDEST PUSH1 0x20 SWAP2 ADD ADD MLOAD PUSH1 0xF8 SHR PUSH1 0xF AND PUSH1 0x10 DUP2 LT PUSH2 0x1539 JUMPI PUSH2 0x1539 PUSH2 0x209B JUMP JUMPDEST PUSH1 0x20 MUL ADD MLOAD DUP3 PUSH2 0x154A DUP4 PUSH1 0x2 PUSH2 0x22C8 JUMP JUMPDEST PUSH2 0x1555 SWAP1 PUSH1 0x3 PUSH2 0x22DF JUMP JUMPDEST DUP2 MLOAD DUP2 LT PUSH2 0x1565 JUMPI PUSH2 0x1565 PUSH2 0x209B JUMP JUMPDEST PUSH1 0x20 ADD ADD SWAP1 PUSH1 0x1 PUSH1 0x1 PUSH1 0xF8 SHL SUB NOT AND SWAP1 DUP2 PUSH1 0x0 BYTE SWAP1 MSTORE8 POP PUSH1 0x1 ADD PUSH2 0x1485 JUMP JUMPDEST POP SWAP5 SWAP4 POP POP POP POP JUMP JUMPDEST PUSH1 0x60 DUP2 PUSH1 0x0 SUB PUSH2 0x15B4 JUMPI POP POP PUSH1 0x40 DUP1 MLOAD DUP1 DUP3 ADD SWAP1 SWAP2 MSTORE PUSH1 0x1 DUP2 MSTORE PUSH1 0x3 PUSH1 0xFC SHL PUSH1 0x20 DUP3 ADD MSTORE SWAP1 JUMP JUMPDEST DUP2 PUSH1 0x0 JUMPDEST DUP2 ISZERO PUSH2 0x15DE JUMPI DUP1 PUSH2 0x15C8 DUP2 PUSH2 0x22F2 JUMP JUMPDEST SWAP2 POP PUSH2 0x15D7 SWAP1 POP PUSH1 0xA DUP4 PUSH2 0x2321 JUMP JUMPDEST SWAP2 POP PUSH2 0x15B8 JUMP JUMPDEST PUSH1 0x0 DUP2 PUSH1 0x1 PUSH1 0x1 PUSH1 0x40 SHL SUB DUP2 GT ISZERO PUSH2 0x15F8 JUMPI PUSH2 0x15F8 PUSH2 0x1BF9 JUMP JUMPDEST PUSH1 0x40 MLOAD SWAP1 DUP1 DUP3 MSTORE DUP1 PUSH1 0x1F ADD PUSH1 0x1F NOT AND PUSH1 0x20 ADD DUP3 ADD PUSH1 0x40 MSTORE DUP1 ISZERO PUSH2 0x1622 JUMPI PUSH1 0x20 DUP3 ADD DUP2 DUP1 CALLDATASIZE DUP4 CALLDATACOPY ADD SWAP1 POP JUMPDEST POP SWAP1 POP JUMPDEST DUP5 ISZERO PUSH2 0x168E JUMPI DUP2 PUSH2 0x1636 DUP2 PUSH2 0x2335 JUMP JUMPDEST SWAP3 POP PUSH2 0x1645 SWAP1 POP PUSH1 0xA DUP7 PUSH2 0x234C JUMP JUMPDEST PUSH2 0x1650 SWAP1 PUSH1 0x30 PUSH2 0x22DF JUMP JUMPDEST PUSH1 0xF8 SHL DUP2 DUP4 DUP2 MLOAD DUP2 LT PUSH2 0x1665 JUMPI PUSH2 0x1665 PUSH2 0x209B JUMP JUMPDEST PUSH1 0x20 ADD ADD SWAP1 PUSH1 0x1 PUSH1 0x1 PUSH1 0xF8 SHL SUB NOT AND SWAP1 DUP2 PUSH1 0x0 BYTE SWAP1 MSTORE8 POP PUSH2 0x1687 PUSH1 0xA DUP7 PUSH2 0x2321 JUMP JUMPDEST SWAP5 POP PUSH2 0x1626 JUMP JUMPDEST SWAP5 SWAP4 POP POP POP POP JUMP JUMPDEST DUP1 MLOAD PUSH1 0x0 SUB PUSH2 0x16B8 JUMPI PUSH1 0x40 MLOAD PUSH4 0x22CE3EDD PUSH1 0xE0 SHL DUP2 MSTORE PUSH1 0x4 ADD PUSH1 0x40 MLOAD DUP1 SWAP2 SUB SWAP1 REVERT JUMPDEST DUP4 DUP4 PUSH1 0x2 DUP2 GT ISZERO PUSH2 0x16CB JUMPI PUSH2 0x16CB PUSH2 0x1D25 JUMP JUMPDEST SWAP1 DUP2 PUSH1 0x2 DUP2 GT ISZERO PUSH2 0x16DE JUMPI PUSH2 0x16DE PUSH2 0x1D25 JUMP JUMPDEST SWAP1 MSTORE POP PUSH1 0x40 DUP5 ADD DUP3 DUP1 ISZERO PUSH2 0x16F4 JUMPI PUSH2 0x16F4 PUSH2 0x1D25 JUMP JUMPDEST SWAP1 DUP2 DUP1 ISZERO PUSH2 0x1704 JUMPI PUSH2 0x1704 PUSH2 0x1D25 JUMP JUMPDEST SWAP1 MSTORE POP PUSH1 0x60 SWAP1 SWAP4 ADD SWAP3 SWAP1 SWAP3 MSTORE POP POP JUMP JUMPDEST PUSH2 0x171C PUSH2 0x1BC4 JUMP JUMPDEST DUP1 MLOAD PUSH2 0x1728 SWAP1 DUP4 PUSH2 0x17DB JUMP JUMPDEST POP PUSH1 0x0 PUSH1 0x20 DUP3 ADD MSTORE SWAP2 SWAP1 POP JUMP JUMPDEST PUSH2 0x1742 DUP3 PUSH1 0x3 DUP4 MLOAD PUSH2 0x1852 JUMP JUMPDEST DUP2 MLOAD PUSH2 0x174E SWAP1 DUP3 PUSH2 0x1971 JUMP JUMPDEST POP POP POP JUMP JUMPDEST DUP2 MLOAD PUSH2 0x1760 SWAP1 PUSH1 0xC2 PUSH2 0x1999 JUMP JUMPDEST POP PUSH2 0xF30 DUP3 DUP3 PUSH1 0x40 MLOAD PUSH1 0x20 ADD PUSH2 0x1778 SWAP2 DUP2 MSTORE PUSH1 0x20 ADD SWAP1 JUMP JUMPDEST PUSH1 0x40 MLOAD PUSH1 0x20 DUP2 DUP4 SUB SUB DUP2 MSTORE SWAP1 PUSH1 0x40 MSTORE PUSH2 0x17CE JUMP JUMPDEST PUSH2 0x1797 DUP2 PUSH1 0x4 PUSH2 0x1A02 JUMP JUMPDEST PUSH1 0x1 DUP2 PUSH1 0x20 ADD DUP2 DUP2 MLOAD PUSH2 0x17AA SWAP2 SWAP1 PUSH2 0x22DF JUMP JUMPDEST SWAP1 MSTORE POP POP JUMP JUMPDEST PUSH2 0x17BB DUP2 PUSH1 0x7 PUSH2 0x1A02 JUMP JUMPDEST PUSH1 0x1 DUP2 PUSH1 0x20 ADD DUP2 DUP2 MLOAD PUSH2 0x17AA SWAP2 SWAP1 PUSH2 0x2360 JUMP JUMPDEST PUSH2 0x1742 DUP3 PUSH1 0x2 DUP4 MLOAD PUSH2 0x1852 JUMP JUMPDEST PUSH1 0x40 DUP1 MLOAD DUP1 DUP3 ADD SWAP1 SWAP2 MSTORE PUSH1 0x60 DUP2 MSTORE PUSH1 0x0 PUSH1 0x20 DUP3 ADD MSTORE PUSH2 0x17FB PUSH1 0x20 DUP4 PUSH2 0x234C JUMP JUMPDEST ISZERO PUSH2 0x1823 JUMPI PUSH2 0x180B PUSH1 0x20 DUP4 PUSH2 0x234C JUMP JUMPDEST PUSH2 0x1816 SWAP1 PUSH1 0x20 PUSH2 0x2360 JUMP JUMPDEST PUSH2 0x1820 SWAP1 DUP4 PUSH2 0x22DF JUMP JUMPDEST SWAP2 POP JUMPDEST PUSH1 0x20 DUP1 DUP5 ADD DUP4 SWAP1 MSTORE PUSH1 0x40 MLOAD DUP1 DUP6 MSTORE PUSH1 0x0 DUP2 MSTORE SWAP1 DUP2 DUP5 ADD ADD DUP2 DUP2 LT ISZERO PUSH2 0x1847 JUMPI PUSH1 0x0 DUP1 REVERT JUMPDEST PUSH1 0x40 MSTORE POP SWAP2 SWAP3 SWAP2 POP POP JUMP JUMPDEST PUSH1 0x17 DUP2 PUSH1 0x1 PUSH1 0x1 PUSH1 0x40 SHL SUB AND GT PUSH2 0x187E JUMPI DUP3 MLOAD PUSH2 0x1878 SWAP1 PUSH1 0xE0 PUSH1 0x5 DUP6 SWAP1 SHL AND DUP4 OR PUSH2 0x1999 JUMP JUMPDEST POP POP POP POP JUMP JUMPDEST PUSH1 0xFF DUP2 PUSH1 0x1 PUSH1 0x1 PUSH1 0x40 SHL SUB AND GT PUSH2 0x18BE JUMPI DUP3 MLOAD PUSH2 0x18A6 SWAP1 PUSH1 0x18 PUSH2 0x1FE0 PUSH1 0x5 DUP7 SWAP1 SHL AND OR PUSH2 0x1999 JUMP JUMPDEST POP DUP3 MLOAD PUSH2 0x1878 SWAP1 PUSH1 0x1 PUSH1 0x1 PUSH1 0x40 SHL SUB DUP4 AND PUSH1 0x1 PUSH2 0x1A19 JUMP JUMPDEST PUSH2 0xFFFF DUP2 PUSH1 0x1 PUSH1 0x1 PUSH1 0x40 SHL SUB AND GT PUSH2 0x18FF JUMPI DUP3 MLOAD PUSH2 0x18E7 SWAP1 PUSH1 0x19 PUSH2 0x1FE0 PUSH1 0x5 DUP7 SWAP1 SHL AND OR PUSH2 0x1999 JUMP JUMPDEST POP DUP3 MLOAD PUSH2 0x1878 SWAP1 PUSH1 0x1 PUSH1 0x1 PUSH1 0x40 SHL SUB DUP4 AND PUSH1 0x2 PUSH2 0x1A19 JUMP JUMPDEST PUSH4 0xFFFFFFFF DUP2 PUSH1 0x1 PUSH1 0x1 PUSH1 0x40 SHL SUB AND GT PUSH2 0x1942 JUMPI DUP3 MLOAD PUSH2 0x192A SWAP1 PUSH1 0x1A PUSH2 0x1FE0 PUSH1 0x5 DUP7 SWAP1 SHL AND OR PUSH2 0x1999 JUMP JUMPDEST POP DUP3 MLOAD PUSH2 0x1878 SWAP1 PUSH1 0x1 PUSH1 0x1 PUSH1 0x40 SHL SUB DUP4 AND PUSH1 0x4 PUSH2 0x1A19 JUMP JUMPDEST DUP3 MLOAD PUSH2 0x1959 SWAP1 PUSH1 0x1B PUSH2 0x1FE0 PUSH1 0x5 DUP7 SWAP1 SHL AND OR PUSH2 0x1999 JUMP JUMPDEST POP DUP3 MLOAD PUSH2 0x1878 SWAP1 PUSH1 0x1 PUSH1 0x1 PUSH1 0x40 SHL SUB DUP4 AND PUSH1 0x8 PUSH2 0x1A19 JUMP JUMPDEST PUSH1 0x40 DUP1 MLOAD DUP1 DUP3 ADD SWAP1 SWAP2 MSTORE PUSH1 0x60 DUP2 MSTORE PUSH1 0x0 PUSH1 0x20 DUP3 ADD MSTORE PUSH2 0x1992 DUP4 DUP4 DUP5 MLOAD PUSH2 0x1A9E JUMP JUMPDEST SWAP4 SWAP3 POP POP POP JUMP JUMPDEST PUSH1 0x40 DUP1 MLOAD DUP1 DUP3 ADD SWAP1 SWAP2 MSTORE PUSH1 0x60 DUP2 MSTORE PUSH1 0x0 PUSH1 0x20 DUP3 ADD MSTORE DUP3 MLOAD MLOAD PUSH1 0x0 PUSH2 0x19BE DUP3 PUSH1 0x1 PUSH2 0x22DF JUMP JUMPDEST SWAP1 POP DUP5 PUSH1 0x20 ADD MLOAD DUP3 LT PUSH2 0x19DF JUMPI PUSH2 0x19DF DUP6 PUSH2 0x19DA DUP4 PUSH1 0x2 PUSH2 0x22C8 JUMP JUMPDEST PUSH2 0x1B6F JUMP JUMPDEST DUP5 MLOAD PUSH1 0x20 DUP4 DUP3 ADD ADD DUP6 DUP2 MSTORE8 POP DUP1 MLOAD DUP3 GT ISZERO PUSH2 0x19F8 JUMPI DUP2 DUP2 MSTORE JUMPDEST POP SWAP4 SWAP5 SWAP4 POP POP POP POP JUMP JUMPDEST DUP2 MLOAD PUSH2 0x174E SWAP1 PUSH1 0x1F PUSH2 0x1FE0 PUSH1 0x5 DUP6 SWAP1 SHL AND OR PUSH2 0x1999 JUMP JUMPDEST PUSH1 0x40 DUP1 MLOAD DUP1 DUP3 ADD SWAP1 SWAP2 MSTORE PUSH1 0x60 DUP2 MSTORE PUSH1 0x0 PUSH1 0x20 DUP3 ADD MSTORE DUP4 MLOAD MLOAD PUSH1 0x0 PUSH2 0x1A3D DUP3 DUP6 PUSH2 0x22DF JUMP JUMPDEST SWAP1 POP DUP6 PUSH1 0x20 ADD MLOAD DUP2 GT ISZERO PUSH2 0x1A5A JUMPI PUSH2 0x1A5A DUP7 PUSH2 0x19DA DUP4 PUSH1 0x2 PUSH2 0x22C8 JUMP JUMPDEST PUSH1 0x0 PUSH1 0x1 PUSH2 0x1A6A DUP7 PUSH2 0x100 PUSH2 0x245A JUMP JUMPDEST PUSH2 0x1A74 SWAP2 SWAP1 PUSH2 0x2360 JUMP JUMPDEST SWAP1 POP DUP7 MLOAD DUP3 DUP2 ADD DUP8 DUP4 NOT DUP3 MLOAD AND OR DUP2 MSTORE POP DUP1 MLOAD DUP4 GT ISZERO PUSH2 0x1A92 JUMPI DUP3 DUP2 MSTORE JUMPDEST POP SWAP6 SWAP7 SWAP6 POP POP POP POP POP POP JUMP JUMPDEST PUSH1 0x40 DUP1 MLOAD DUP1 DUP3 ADD SWAP1 SWAP2 MSTORE PUSH1 0x60 DUP2 MSTORE PUSH1 0x0 PUSH1 0x20 DUP3 ADD MSTORE DUP3 MLOAD DUP3 GT ISZERO PUSH2 0x1AC1 JUMPI PUSH1 0x0 DUP1 REVERT JUMPDEST DUP4 MLOAD MLOAD PUSH1 0x0 PUSH2 0x1AD0 DUP5 DUP4 PUSH2 0x22DF JUMP JUMPDEST SWAP1 POP DUP6 PUSH1 0x20 ADD MLOAD DUP2 GT ISZERO PUSH2 0x1AED JUMPI PUSH2 0x1AED DUP7 PUSH2 0x19DA DUP4 PUSH1 0x2 PUSH2 0x22C8 JUMP JUMPDEST DUP6 MLOAD DUP1 MLOAD DUP4 DUP3 ADD PUSH1 0x20 ADD SWAP2 PUSH1 0x0 SWAP2 DUP1 DUP6 GT ISZERO PUSH2 0x1B07 JUMPI DUP5 DUP3 MSTORE JUMPDEST POP POP POP PUSH1 0x20 DUP7 ADD JUMPDEST PUSH1 0x20 DUP7 LT PUSH2 0x1B47 JUMPI DUP1 MLOAD DUP3 MSTORE PUSH2 0x1B26 PUSH1 0x20 DUP4 PUSH2 0x22DF JUMP JUMPDEST SWAP2 POP PUSH2 0x1B33 PUSH1 0x20 DUP3 PUSH2 0x22DF JUMP JUMPDEST SWAP1 POP PUSH2 0x1B40 PUSH1 0x20 DUP8 PUSH2 0x2360 JUMP JUMPDEST SWAP6 POP PUSH2 0x1B0F JUMP JUMPDEST MLOAD DUP2 MLOAD PUSH1 0x0 NOT PUSH1 0x20 DUP9 SWAP1 SUB PUSH2 0x100 EXP ADD SWAP1 DUP2 AND SWAP1 NOT SWAP2 SWAP1 SWAP2 AND OR SWAP1 MSTORE POP DUP5 SWAP2 POP POP SWAP4 SWAP3 POP POP POP JUMP JUMPDEST DUP2 MLOAD PUSH2 0x1B7B DUP4 DUP4 PUSH2 0x17DB JUMP JUMPDEST POP PUSH2 0x1878 DUP4 DUP3 PUSH2 0x1971 JUMP JUMPDEST PUSH1 0x40 DUP1 MLOAD PUSH1 0xE0 DUP2 ADD SWAP1 SWAP2 MSTORE DUP1 PUSH1 0x0 DUP2 MSTORE PUSH1 0x20 ADD PUSH1 0x0 DUP2 MSTORE PUSH1 0x20 ADD PUSH1 0x0 DUP2 MSTORE PUSH1 0x20 ADD PUSH1 0x60 DUP2 MSTORE PUSH1 0x20 ADD PUSH1 0x60 DUP2 MSTORE PUSH1 0x20 ADD PUSH1 0x60 DUP2 MSTORE PUSH1 0x20 ADD PUSH1 0x60 DUP2 MSTORE POP SWAP1 JUMP JUMPDEST PUSH1 0x40 MLOAD DUP1 PUSH1 0x40 ADD PUSH1 0x40 MSTORE DUP1 PUSH2 0x1BEC PUSH1 0x40 MLOAD DUP1 PUSH1 0x40 ADD PUSH1 0x40 MSTORE DUP1 PUSH1 0x60 DUP2 MSTORE PUSH1 0x20 ADD PUSH1 0x0 DUP2 MSTORE POP SWAP1 JUMP JUMPDEST DUP2 MSTORE PUSH1 0x20 ADD PUSH1 0x0 DUP2 MSTORE POP SWAP1 JUMP JUMPDEST PUSH4 0x4E487B71 PUSH1 0xE0 SHL PUSH1 0x0 MSTORE PUSH1 0x41 PUSH1 0x4 MSTORE PUSH1 0x24 PUSH1 0x0 REVERT JUMPDEST PUSH1 0x0 DUP3 PUSH1 0x1F DUP4 ADD SLT PUSH2 0x1C20 JUMPI PUSH1 0x0 DUP1 REVERT JUMPDEST DUP2 CALLDATALOAD PUSH1 0x1 PUSH1 0x1 PUSH1 0x40 SHL SUB DUP2 GT ISZERO PUSH2 0x1C39 JUMPI PUSH2 0x1C39 PUSH2 0x1BF9 JUMP JUMPDEST PUSH1 0x40 MLOAD PUSH1 0x1F DUP3 ADD PUSH1 0x1F NOT SWAP1 DUP2 AND PUSH1 0x3F ADD AND DUP2 ADD PUSH1 0x1 PUSH1 0x1 PUSH1 0x40 SHL SUB DUP2 GT DUP3 DUP3 LT OR ISZERO PUSH2 0x1C67 JUMPI PUSH2 0x1C67 PUSH2 0x1BF9 JUMP JUMPDEST PUSH1 0x40 MSTORE DUP2 DUP2 MSTORE DUP4 DUP3 ADD PUSH1 0x20 ADD DUP6 LT ISZERO PUSH2 0x1C7F JUMPI PUSH1 0x0 DUP1 REVERT JUMPDEST DUP2 PUSH1 0x20 DUP6 ADD PUSH1 0x20 DUP4 ADD CALLDATACOPY PUSH1 0x0 SWAP2 DUP2 ADD PUSH1 0x20 ADD SWAP2 SWAP1 SWAP2 MSTORE SWAP4 SWAP3 POP POP POP JUMP JUMPDEST PUSH1 0x0 DUP1 PUSH1 0x0 PUSH1 0x60 DUP5 DUP7 SUB SLT ISZERO PUSH2 0x1CB1 JUMPI PUSH1 0x0 DUP1 REVERT JUMPDEST DUP4 CALLDATALOAD SWAP3 POP PUSH1 0x20 DUP5 ADD CALLDATALOAD PUSH1 0x1 PUSH1 0x1 PUSH1 0x40 SHL SUB DUP2 GT ISZERO PUSH2 0x1CCE JUMPI PUSH1 0x0 DUP1 REVERT JUMPDEST PUSH2 0x1CDA DUP7 DUP3 DUP8 ADD PUSH2 0x1C0F JUMP JUMPDEST SWAP3 POP POP PUSH1 0x40 DUP5 ADD CALLDATALOAD PUSH1 0x1 PUSH1 0x1 PUSH1 0x40 SHL SUB DUP2 GT ISZERO PUSH2 0x1CF6 JUMPI PUSH1 0x0 DUP1 REVERT JUMPDEST PUSH2 0x1D02 DUP7 DUP3 DUP8 ADD PUSH2 0x1C0F JUMP JUMPDEST SWAP2 POP POP SWAP3 POP SWAP3 POP SWAP3 JUMP JUMPDEST PUSH1 0x0 PUSH1 0x20 DUP3 DUP5 SUB SLT ISZERO PUSH2 0x1D1E JUMPI PUSH1 0x0 DUP1 REVERT JUMPDEST POP CALLDATALOAD SWAP2 SWAP1 POP JUMP JUMPDEST PUSH4 0x4E487B71 PUSH1 0xE0 SHL PUSH1 0x0 MSTORE PUSH1 0x21 PUSH1 0x4 MSTORE PUSH1 0x24 PUSH1 0x0 REVERT JUMPDEST PUSH1 0x3 DUP2 LT PUSH2 0x1D59 JUMPI PUSH4 0x4E487B71 PUSH1 0xE0 SHL PUSH1 0x0 MSTORE PUSH1 0x21 PUSH1 0x4 MSTORE PUSH1 0x24 PUSH1 0x0 REVERT JUMPDEST SWAP1 MSTORE JUMP JUMPDEST PUSH1 0x1 PUSH1 0x1 PUSH1 0xA0 SHL SUB DUP6 AND DUP2 MSTORE PUSH1 0x80 DUP2 ADD PUSH2 0x1D7A PUSH1 0x20 DUP4 ADD DUP7 PUSH2 0x1D3B JUMP JUMPDEST PUSH1 0x1 PUSH1 0x1 PUSH1 0xA0 SHL SUB SWAP4 SWAP1 SWAP4 AND PUSH1 0x40 DUP3 ADD MSTORE PUSH1 0x60 ADD MSTORE SWAP3 SWAP2 POP POP JUMP JUMPDEST DUP1 CALLDATALOAD PUSH1 0x1 PUSH1 0x1 PUSH1 0xA0 SHL SUB DUP2 AND DUP2 EQ PUSH2 0xA92 JUMPI PUSH1 0x0 DUP1 REVERT JUMPDEST PUSH1 0x0 DUP1 PUSH1 0x40 DUP4 DUP6 SUB SLT ISZERO PUSH2 0x1DBF JUMPI PUSH1 0x0 DUP1 REVERT JUMPDEST PUSH2 0x1DC8 DUP4 PUSH2 0x1D95 JUMP JUMPDEST SWAP5 PUSH1 0x20 SWAP4 SWAP1 SWAP4 ADD CALLDATALOAD SWAP4 POP POP POP JUMP JUMPDEST PUSH1 0x0 PUSH1 0x20 DUP3 DUP5 SUB SLT ISZERO PUSH2 0x1DE8 JUMPI PUSH1 0x0 DUP1 REVERT JUMPDEST PUSH2 0x1992 DUP3 PUSH2 0x1D95 JUMP JUMPDEST PUSH1 0x0 DUP1 PUSH1 0x0 PUSH1 0x60 DUP5 DUP7 SUB SLT ISZERO PUSH2 0x1E06 JUMPI PUSH1 0x0 DUP1 REVERT JUMPDEST PUSH2 0x1E0F DUP5 PUSH2 0x1D95 JUMP JUMPDEST SWAP6 PUSH1 0x20 DUP6 ADD CALLDATALOAD SWAP6 POP PUSH1 0x40 SWAP1 SWAP5 ADD CALLDATALOAD SWAP4 SWAP3 POP POP POP JUMP JUMPDEST PUSH1 0x20 DUP1 DUP3 MSTORE PUSH1 0x14 SWAP1 DUP3 ADD MSTORE PUSH20 0x496E76616C696420757365722061646472657373 PUSH1 0x60 SHL PUSH1 0x40 DUP3 ADD MSTORE PUSH1 0x60 ADD SWAP1 JUMP JUMPDEST PUSH1 0x20 DUP2 ADD PUSH2 0x444 DUP3 DUP5 PUSH2 0x1D3B JUMP JUMPDEST PUSH1 0x0 DUP1 PUSH1 0x0 PUSH1 0x60 DUP5 DUP7 SUB SLT ISZERO PUSH2 0x1E75 JUMPI PUSH1 0x0 DUP1 REVERT JUMPDEST POP POP DUP2 MLOAD PUSH1 0x20 DUP4 ADD MLOAD PUSH1 0x40 SWAP1 SWAP4 ADD MLOAD SWAP1 SWAP5 SWAP3 SWAP4 POP SWAP2 SWAP1 POP JUMP JUMPDEST PUSH1 0x0 JUMPDEST DUP4 DUP2 LT ISZERO PUSH2 0x1EA9 JUMPI DUP2 DUP2 ADD MLOAD DUP4 DUP3 ADD MSTORE PUSH1 0x20 ADD PUSH2 0x1E91 JUMP JUMPDEST POP POP PUSH1 0x0 SWAP2 ADD MSTORE JUMP JUMPDEST PUSH14 0x636F6E73742075736572203D2027 PUSH1 0x90 SHL DUP2 MSTORE PUSH1 0x0 DUP4 MLOAD PUSH2 0x1EDB DUP2 PUSH1 0xE DUP6 ADD PUSH1 0x20 DUP9 ADD PUSH2 0x1E8E JUMP JUMPDEST PUSH2 0x273B PUSH1 0xF0 SHL PUSH1 0xE SWAP2 DUP5 ADD SWAP2 DUP3 ADD MSTORE PUSH20 0x636F6E73742070726F706F73616C4964203D2027 PUSH1 0x60 SHL PUSH1 0x10 DUP3 ADD MSTORE DUP4 MLOAD PUSH2 0x1F1A DUP2 PUSH1 0x24 DUP5 ADD PUSH1 0x20 DUP9 ADD PUSH2 0x1E8E JUMP JUMPDEST PUSH2 0x273B PUSH1 0xF0 SHL PUSH1 0x24 SWAP3 SWAP1 SWAP2 ADD SWAP2 DUP3 ADD MSTORE PUSH32 0x636F6E737420617069526573706F6E7365203D2061776169742046756E637469 PUSH1 0x26 DUP3 ADD MSTORE PUSH32 0x6F6E732E6D616B654874747052657175657374287B75726C3A20276874747073 PUSH1 0x46 DUP3 ADD MSTORE PUSH32 0x3A2F2F75626934616C6C2D64616F2D6170692E636F6D2F636F7272656C617469 PUSH1 0x66 DUP3 ADD MSTORE PUSH32 0x6F6E272C706172616D733A207B20757365723A20757365722C2070726F706F73 PUSH1 0x86 DUP3 ADD MSTORE PUSH32 0x616C49643A2070726F706F73616C4964207D7D293B6966202861706952657370 PUSH1 0xA6 DUP3 ADD MSTORE PUSH32 0x6F6E73652E6572726F7229207B207468726F77204572726F7228274150492045 PUSH1 0xC6 DUP3 ADD MSTORE PUSH32 0x72726F7227293B207D636F6E73742073636F7265203D204D6174682E6D696E28 PUSH1 0xE6 DUP3 ADD MSTORE PUSH32 0x617069526573706F6E73652E646174612E73636F72652C20313030293B726574 PUSH2 0x106 DUP3 ADD MSTORE PUSH32 0x75726E2046756E6374696F6E732E656E636F646555696E743235362873636F72 PUSH2 0x126 DUP3 ADD MSTORE PUSH3 0x65293B PUSH1 0xE8 SHL PUSH2 0x146 DUP3 ADD MSTORE PUSH2 0x149 ADD SWAP5 SWAP4 POP POP POP POP JUMP JUMPDEST PUSH4 0x4E487B71 PUSH1 0xE0 SHL PUSH1 0x0 MSTORE PUSH1 0x32 PUSH1 0x4 MSTORE PUSH1 0x24 PUSH1 0x0 REVERT JUMPDEST PUSH1 0x1 PUSH1 0x1 PUSH1 0x40 SHL SUB DUP7 AND DUP2 MSTORE PUSH1 0xA0 PUSH1 0x20 DUP3 ADD MSTORE PUSH1 0x0 DUP6 MLOAD DUP1 PUSH1 0xA0 DUP5 ADD MSTORE PUSH2 0x20DF DUP2 PUSH1 0xC0 DUP6 ADD PUSH1 0x20 DUP11 ADD PUSH2 0x1E8E JUMP JUMPDEST PUSH2 0xFFFF SWAP6 SWAP1 SWAP6 AND PUSH1 0x40 DUP4 ADD MSTORE POP PUSH4 0xFFFFFFFF SWAP3 SWAP1 SWAP3 AND PUSH1 0x60 DUP4 ADD MSTORE PUSH1 0x80 DUP3 ADD MSTORE PUSH1 0xC0 PUSH1 0x1F SWAP1 SWAP3 ADD PUSH1 0x1F NOT AND ADD ADD SWAP3 SWAP2 POP POP JUMP JUMPDEST PUSH1 0x0 PUSH1 0x20 DUP3 DUP5 SUB SLT ISZERO PUSH2 0x2124 JUMPI PUSH1 0x0 DUP1 REVERT JUMPDEST POP MLOAD SWAP2 SWAP1 POP JUMP JUMPDEST PUSH14 0x636F6E73742075736572203D2027 PUSH1 0x90 SHL DUP2 MSTORE PUSH1 0x0 DUP3 MLOAD PUSH2 0x2154 DUP2 PUSH1 0xE DUP6 ADD PUSH1 0x20 DUP8 ADD PUSH2 0x1E8E JUMP JUMPDEST PUSH2 0x273B PUSH1 0xF0 SHL PUSH1 0xE SWAP4 SWAP1 SWAP2 ADD SWAP3 DUP4 ADD MSTORE POP PUSH32 0x636F6E737420617069526573706F6E7365203D2061776169742046756E637469 PUSH1 0x10 DUP3 ADD MSTORE PUSH32 0x6F6E732E6D616B654874747052657175657374287B75726C3A20276874747073 PUSH1 0x30 DUP3 ADD MSTORE PUSH32 0x3A2F2F75626934616C6C2D64616F2D6170692E636F6D2F72657075746174696F PUSH1 0x50 DUP3 ADD MSTORE PUSH32 0x6E272C706172616D733A207B20757365723A2075736572207D7D293B69662028 PUSH1 0x70 DUP3 ADD MSTORE PUSH32 0x617069526573706F6E73652E6572726F7229207B207468726F77204572726F72 PUSH1 0x90 DUP3 ADD MSTORE PUSH32 0x2827415049204572726F7227293B207D636F6E73742073636F7265203D204D61 PUSH1 0xB0 DUP3 ADD MSTORE PUSH32 0x74682E6D696E28617069526573706F6E73652E646174612E73636F72652C2031 PUSH1 0xD0 DUP3 ADD MSTORE PUSH32 0x3030293B72657475726E2046756E6374696F6E732E656E636F646555696E7432 PUSH1 0xF0 DUP3 ADD MSTORE PUSH10 0x35362873636F7265293B PUSH1 0xB0 SHL PUSH2 0x110 DUP3 ADD MSTORE PUSH2 0x11A ADD SWAP2 SWAP1 POP JUMP JUMPDEST PUSH4 0x4E487B71 PUSH1 0xE0 SHL PUSH1 0x0 MSTORE PUSH1 0x11 PUSH1 0x4 MSTORE PUSH1 0x24 PUSH1 0x0 REVERT JUMPDEST DUP1 DUP3 MUL DUP2 ISZERO DUP3 DUP3 DIV DUP5 EQ OR PUSH2 0x444 JUMPI PUSH2 0x444 PUSH2 0x22B2 JUMP JUMPDEST DUP1 DUP3 ADD DUP1 DUP3 GT ISZERO PUSH2 0x444 JUMPI PUSH2 0x444 PUSH2 0x22B2 JUMP JUMPDEST PUSH1 0x0 PUSH1 0x1 DUP3 ADD PUSH2 0x2304 JUMPI PUSH2 0x2304 PUSH2 0x22B2 JUMP JUMPDEST POP PUSH1 0x1 ADD SWAP1 JUMP JUMPDEST PUSH4 0x4E487B71 PUSH1 0xE0 SHL PUSH1 0x0 MSTORE PUSH1 0x12 PUSH1 0x4 MSTORE PUSH1 0x24 PUSH1 0x0 REVERT JUMPDEST PUSH1 0x0 DUP3 PUSH2 0x2330 JUMPI PUSH2 0x2330 PUSH2 0x230B JUMP JUMPDEST POP DIV SWAP1 JUMP JUMPDEST PUSH1 0x0 DUP2 PUSH2 0x2344 JUMPI PUSH2 0x2344 PUSH2 0x22B2 JUMP JUMPDEST POP PUSH1 0x0 NOT ADD SWAP1 JUMP JUMPDEST PUSH1 0x0 DUP3 PUSH2 0x235B JUMPI PUSH2 0x235B PUSH2 0x230B JUMP JUMPDEST POP MOD SWAP1 JUMP JUMPDEST DUP2 DUP2 SUB DUP2 DUP2 GT ISZERO PUSH2 0x444 JUMPI PUSH2 0x444 PUSH2 0x22B2 JUMP JUMPDEST PUSH1 0x1 DUP2 JUMPDEST PUSH1 0x1 DUP5 GT ISZERO PUSH2 0x23AE JUMPI DUP1 DUP6 DIV DUP2 GT ISZERO PUSH2 0x2392 JUMPI PUSH2 0x2392 PUSH2 0x22B2 JUMP JUMPDEST PUSH1 0x1 DUP5 AND ISZERO PUSH2 0x23A0 JUMPI SWAP1 DUP2 MUL SWAP1 JUMPDEST PUSH1 0x1 SWAP4 SWAP1 SWAP4 SHR SWAP3 DUP1 MUL PUSH2 0x2377 JUMP JUMPDEST SWAP4 POP SWAP4 SWAP2 POP POP JUMP JUMPDEST PUSH1 0x0 DUP3 PUSH2 0x23C5 JUMPI POP PUSH1 0x1 PUSH2 0x444 JUMP JUMPDEST DUP2 PUSH2 0x23D2 JUMPI POP PUSH1 0x0 PUSH2 0x444 JUMP JUMPDEST DUP2 PUSH1 0x1 DUP2 EQ PUSH2 0x23E8 JUMPI PUSH1 0x2 DUP2 EQ PUSH2 0x23F2 JUMPI PUSH2 0x240E JUMP JUMPDEST PUSH1 0x1 SWAP2 POP POP PUSH2 0x444 JUMP JUMPDEST PUSH1 0xFF DUP5 GT ISZERO PUSH2 0x2403 JUMPI PUSH2 0x2403 PUSH2 0x22B2 JUMP JUMPDEST POP POP PUSH1 0x1 DUP3 SHL PUSH2 0x444 JUMP JUMPDEST POP PUSH1 0x20 DUP4 LT PUSH2 0x133 DUP4 LT AND PUSH1 0x4E DUP5 LT PUSH1 0xB DUP5 LT AND OR ISZERO PUSH2 0x2431 JUMPI POP DUP2 DUP2 EXP PUSH2 0x444 JUMP JUMPDEST PUSH2 0x243E PUSH1 0x0 NOT DUP5 DUP5 PUSH2 0x2373 JUMP JUMPDEST DUP1 PUSH1 0x0 NOT DIV DUP3 GT ISZERO PUSH2 0x2452 JUMPI PUSH2 0x2452 PUSH2 0x22B2 JUMP JUMPDEST MUL SWAP4 SWAP3 POP POP POP JUMP JUMPDEST PUSH1 0x0 PUSH2 0x1992 DUP4 DUP4 PUSH2 0x23B6 JUMP INVALID PUSH4 0x6F6E7374 KECCAK256 PUSH2 0x7069 MSTORE PUSH6 0x73706F6E7365 KECCAK256 RETURNDATASIZE KECCAK256 PUSH2 0x7761 PUSH10 0x742046756E6374696F6E PUSH20 0x2E6D616B654874747052657175657374287B7572 PUSH13 0x3A202768747470733A2F2F6170 PUSH10 0x2E717569636B73776170 0x2E PUSH6 0x786368616E67 PUSH6 0x2F76312F7072 PUSH10 0x6365272C706172616D73 GASPRICE KECCAK256 PUSH28 0x20746F6B656E3A2027513441272C20626173653A202755534427207D PUSH30 0x293B69662028617069526573706F6E73652E6572726F7229207B20746872 PUSH16 0x77204572726F72282741504920457272 PUSH16 0x7227293B207D636F6E73742070726963 PUSH6 0x203D204D6174 PUSH9 0x2E726F756E64286170 PUSH10 0x526573706F6E73652E64 PUSH2 0x7461 0x2E PUSH17 0x72696365202A2031302A2A38293B726574 PUSH22 0x726E2046756E6374696F6E732E656E636F6465496E74 ORIGIN CALLDATALOAD CALLDATASIZE 0x28 PUSH17 0x72696365293BA2646970667358221220D3 0xAD BLOBHASH 0xC7 DUP3 CODECOPY 0xB2 CREATE POP 0x4E 0xBB 0xD7 SMOD 0xA7 0xC1 KECCAK256 0xD2 DUP5 0xBE INVALID SWAP9 0xEE 0xBC 0x26 0xC2 SELFDESTRUCT 0xD0 0x2A 0x2C PUSH6 0xD40164736F6C PUSH4 0x4300081C STOP CALLER "
				},
				"gasEstimates": {
					"creation": {
						"codeDepositCost": "1931600",
						"executionCost": "infinite",
						"totalCost": "infinite"
					},
					"external": {
						"CORRELATION_SCALE()": "240",
						"DECIMALS()": "294",
						"REPUTATION_SCALE()": "306",
						"correlationScores(address,uint256)": "2656",
						"donID()": "2318",
						"gasLimit()": "2440",
						"getCorrelationScore(address,uint256)": "2765",
						"getQ4APrice()": "2359",
						"getReputationScore(address)": "2626",
						"handleOracleFulfillment(bytes32,bytes,bytes)": "infinite",
						"lastPriceUpdate()": "2429",
						"owner()": "2434",
						"pendingRequests(bytes32)": "6972",
						"q4aPrice()": "2362",
						"renounceOwnership()": "infinite",
						"reputationScores(address)": "2651",
						"requestCorrelationScore(address,uint256)": "infinite",
						"requestQ4APrice()": "infinite",
						"requestReputationScore(address)": "infinite",
						"subscriptionId()": "2350",
						"transferOwnership(address)": "28399",
						"updateManualCorrelationScore(address,uint256,uint256)": "26814",
						"updateManualQ4APrice(int256)": "48055",
						"updateManualReputationScore(address,uint256)": "26224"
					},
					"internal": {
						"fulfillRequest(bytes32,bytes memory,bytes memory)": "infinite",
						"getCorrelationScript(address,uint256)": "infinite",
						"getPriceScript()": "infinite",
						"getReputationScript(address)": "infinite",
						"toHexString(address)": "infinite",
						"uint256ToString(uint256)": "infinite"
					}
				},
				"methodIdentifiers": {
					"CORRELATION_SCALE()": "964ea12a",
					"DECIMALS()": "2e0f2625",
					"REPUTATION_SCALE()": "be152b61",
					"correlationScores(address,uint256)": "e7ec0533",
					"donID()": "6e74336b",
					"gasLimit()": "f68016b7",
					"getCorrelationScore(address,uint256)": "53d2262b",
					"getQ4APrice()": "9af6bca5",
					"getReputationScore(address)": "75a67d5c",
					"handleOracleFulfillment(bytes32,bytes,bytes)": "0ca76175",
					"lastPriceUpdate()": "6949faeb",
					"owner()": "8da5cb5b",
					"pendingRequests(bytes32)": "2795ad20",
					"q4aPrice()": "751bb598",
					"renounceOwnership()": "715018a6",
					"reputationScores(address)": "fe0438b2",
					"requestCorrelationScore(address,uint256)": "8213b4cf",
					"requestQ4APrice()": "b331799e",
					"requestReputationScore(address)": "dede852f",
					"subscriptionId()": "09c1ba2e",
					"transferOwnership(address)": "f2fde38b",
					"updateManualCorrelationScore(address,uint256,uint256)": "d98e7821",
					"updateManualQ4APrice(int256)": "f55494f8",
					"updateManualReputationScore(address,uint256)": "93db5e37"
				}
			},
			"storageLayout": {
				"storage": [
					{
						"astId": 2076,
						"contract": "oracle/UBI4ALLCustomOracle.sol:UBI4ALLCustomOracle",
						"label": "_owner",
						"offset": 0,
						"slot": "0",
						"type": "t_address"
					},
					{
						"astId": 2298,
						"contract": "oracle/UBI4ALLCustomOracle.sol:UBI4ALLCustomOracle",
						"label": "reputationScores",
						"offset": 0,
						"slot": "1",
						"type": "t_mapping(t_address,t_uint256)"
					},
					{
						"astId": 2304,
						"contract": "oracle/UBI4ALLCustomOracle.sol:UBI4ALLCustomOracle",
						"label": "correlationScores",
						"offset": 0,
						"slot": "2",
						"type": "t_mapping(t_address,t_mapping(t_uint256,t_uint256))"
					},
					{
						"astId": 2306,
						"contract": "oracle/UBI4ALLCustomOracle.sol:UBI4ALLCustomOracle",
						"label": "q4aPrice",
						"offset": 0,
						"slot": "3",
						"type": "t_int256"
					},
					{
						"astId": 2308,
						"contract": "oracle/UBI4ALLCustomOracle.sol:UBI4ALLCustomOracle",
						"label": "lastPriceUpdate",
						"offset": 0,
						"slot": "4",
						"type": "t_uint256"
					},
					{
						"astId": 2313,
						"contract": "oracle/UBI4ALLCustomOracle.sol:UBI4ALLCustomOracle",
						"label": "pendingRequests",
						"offset": 0,
						"slot": "5",
						"type": "t_mapping(t_bytes32,t_struct(RequestData)2323_storage)"
					},
					{
						"astId": 2329,
						"contract": "oracle/UBI4ALLCustomOracle.sol:UBI4ALLCustomOracle",
						"label": "donID",
						"offset": 0,
						"slot": "6",
						"type": "t_bytes32"
					},
					{
						"astId": 2331,
						"contract": "oracle/UBI4ALLCustomOracle.sol:UBI4ALLCustomOracle",
						"label": "subscriptionId",
						"offset": 0,
						"slot": "7",
						"type": "t_uint64"
					},
					{
						"astId": 2334,
						"contract": "oracle/UBI4ALLCustomOracle.sol:UBI4ALLCustomOracle",
						"label": "gasLimit",
						"offset": 8,
						"slot": "7",
						"type": "t_uint32"
					}
				],
				"types": {
					"t_address": {
						"encoding": "inplace",
						"label": "address",
						"numberOfBytes": "20"
					},
					"t_bytes32": {
						"encoding": "inplace",
						"label": "bytes32",
						"numberOfBytes": "32"
					},
					"t_enum(RequestType)2327": {
						"encoding": "inplace",
						"label": "enum UBI4ALLCustomOracle.RequestType",
						"numberOfBytes": "1"
					},
					"t_int256": {
						"encoding": "inplace",
						"label": "int256",
						"numberOfBytes": "32"
					},
					"t_mapping(t_address,t_mapping(t_uint256,t_uint256))": {
						"encoding": "mapping",
						"key": "t_address",
						"label": "mapping(address => mapping(uint256 => uint256))",
						"numberOfBytes": "32",
						"value": "t_mapping(t_uint256,t_uint256)"
					},
					"t_mapping(t_address,t_uint256)": {
						"encoding": "mapping",
						"key": "t_address",
						"label": "mapping(address => uint256)",
						"numberOfBytes": "32",
						"value": "t_uint256"
					},
					"t_mapping(t_bytes32,t_struct(RequestData)2323_storage)": {
						"encoding": "mapping",
						"key": "t_bytes32",
						"label": "mapping(bytes32 => struct UBI4ALLCustomOracle.RequestData)",
						"numberOfBytes": "32",
						"value": "t_struct(RequestData)2323_storage"
					},
					"t_mapping(t_uint256,t_uint256)": {
						"encoding": "mapping",
						"key": "t_uint256",
						"label": "mapping(uint256 => uint256)",
						"numberOfBytes": "32",
						"value": "t_uint256"
					},
					"t_struct(RequestData)2323_storage": {
						"encoding": "inplace",
						"label": "struct UBI4ALLCustomOracle.RequestData",
						"members": [
							{
								"astId": 2315,
								"contract": "oracle/UBI4ALLCustomOracle.sol:UBI4ALLCustomOracle",
								"label": "requester",
								"offset": 0,
								"slot": "0",
								"type": "t_address"
							},
							{
								"astId": 2318,
								"contract": "oracle/UBI4ALLCustomOracle.sol:UBI4ALLCustomOracle",
								"label": "requestType",
								"offset": 20,
								"slot": "0",
								"type": "t_enum(RequestType)2327"
							},
							{
								"astId": 2320,
								"contract": "oracle/UBI4ALLCustomOracle.sol:UBI4ALLCustomOracle",
								"label": "user",
								"offset": 0,
								"slot": "1",
								"type": "t_address"
							},
							{
								"astId": 2322,
								"contract": "oracle/UBI4ALLCustomOracle.sol:UBI4ALLCustomOracle",
								"label": "proposalId",
								"offset": 0,
								"slot": "2",
								"type": "t_uint256"
							}
						],
						"numberOfBytes": "96"
					},
					"t_uint256": {
						"encoding": "inplace",
						"label": "uint256",
						"numberOfBytes": "32"
					},
					"t_uint32": {
						"encoding": "inplace",
						"label": "uint32",
						"numberOfBytes": "4"
					},
					"t_uint64": {
						"encoding": "inplace",
						"label": "uint64",
						"numberOfBytes": "8"
					}
				}
			},
			"userdoc": {
				"kind": "user",
				"methods": {
					"handleOracleFulfillment(bytes32,bytes,bytes)": {
						"notice": "Chainlink Functions response handler called by the Functions Router during fullilment from the designated transmitter node in an OCR round."
					}
				},
				"version": 1
			}
		}
	}
}