{
	"@chainlink/contracts/src/v0.8/functions/v1_0_0/libraries/FunctionsRequest.sol": {
		"FunctionsRequest": {
			"abi": [
				{
					"inputs": [],
					"name": "EmptyArgs",
					"type": "error"
				},
				{
					"inputs": [],
					"name": "EmptySecrets",
					"type": "error"
				},
				{
					"inputs": [],
					"name": "EmptySource",
					"type": "error"
				},
				{
					"inputs": [],
					"name": "NoInlineSecrets",
					"type": "error"
				},
				{
					"inputs": [],
					"name": "REQUEST_DATA_VERSION",
					"outputs": [
						{
							"internalType": "uint16",
							"name": "",
							"type": "uint16"
						}
					],
					"stateMutability": "view",
					"type": "function"
				}
			],
			"devdoc": {
				"kind": "dev",
				"methods": {},
				"title": "Library for encoding the input data of a Functions request into CBOR",
				"version": 1
			},
			"evm": {
				"assembly": "    /* \"@chainlink/contracts/src/v0.8/functions/v1_0_0/libraries/FunctionsRequest.sol\":212:6298  library FunctionsRequest {... */\n  dataSize(sub_0)\n  dataOffset(sub_0)\n  0x0b\n  dup3\n  dup3\n  dup3\n  codecopy\n  dup1\n  mload\n  0x00\n  byte\n  0x73\n  eq\n  tag_1\n  jumpi\n  mstore(0x00, shl(0xe0, 0x4e487b71))\n  mstore(0x04, 0x00)\n  revert(0x00, 0x24)\ntag_1:\n  mstore(0x00, address)\n  0x73\n  dup2\n  mstore8\n  dup3\n  dup2\n  return\nstop\n\nsub_0: assembly {\n        /* \"@chainlink/contracts/src/v0.8/functions/v1_0_0/libraries/FunctionsRequest.sol\":212:6298  library FunctionsRequest {... */\n      eq(address, deployTimeAddress())\n      mstore(0x40, 0x80)\n      jumpi(tag_1, lt(calldatasize, 0x04))\n      shr(0xe0, calldataload(0x00))\n      dup1\n      0x5d641dfc\n      eq\n      tag_2\n      jumpi\n    tag_1:\n      0x00\n      dup1\n      revert\n        /* \"@chainlink/contracts/src/v0.8/functions/v1_0_0/libraries/FunctionsRequest.sol\":276:323  uint16 public constant REQUEST_DATA_VERSION = 1 */\n    tag_2:\n      tag_3\n        /* \"@chainlink/contracts/src/v0.8/functions/v1_0_0/libraries/FunctionsRequest.sol\":322:323  1 */\n      0x01\n        /* \"@chainlink/contracts/src/v0.8/functions/v1_0_0/libraries/FunctionsRequest.sol\":276:323  uint16 public constant REQUEST_DATA_VERSION = 1 */\n      dup2\n      jump\n    tag_3:\n      mload(0x40)\n        /* \"#utility.yul\":196:202   */\n      0xffff\n        /* \"#utility.yul\":184:203   */\n      swap1\n      swap2\n      and\n        /* \"#utility.yul\":166:204   */\n      dup2\n      mstore\n        /* \"#utility.yul\":154:156   */\n      0x20\n        /* \"#utility.yul\":139:157   */\n      add\n        /* \"@chainlink/contracts/src/v0.8/functions/v1_0_0/libraries/FunctionsRequest.sol\":276:323  uint16 public constant REQUEST_DATA_VERSION = 1 */\n      mload(0x40)\n      dup1\n      swap2\n      sub\n      swap1\n      return\n\n    auxdata: 0xa2646970667358221220ed2360d011b111bea3f96902e1364af6a921d8cc1d20f1b0cbea65a73175515564736f6c634300081c0033\n}\n",
				"bytecode": {
					"linkReferences": {},
					"object": "608c6037600b82828239805160001a607314602a57634e487b7160e01b600052600060045260246000fd5b30600052607381538281f3fe730000000000000000000000000000000000000000301460806040526004361060335760003560e01c80635d641dfc146038575b600080fd5b603f600181565b60405161ffff909116815260200160405180910390f3fea2646970667358221220ed2360d011b111bea3f96902e1364af6a921d8cc1d20f1b0cbea65a73175515564736f6c634300081c0033",
					"opcodes": "PUSH1 0x8C PUSH1 0x37 PUSH1 0xB DUP3 DUP3 DUP3 CODECOPY DUP1 MLOAD PUSH1 0x0 BYTE PUSH1 0x73 EQ PUSH1 0x2A JUMPI PUSH4 0x4E487B71 PUSH1 0xE0 SHL PUSH1 0x0 MSTORE PUSH1 0x0 PUSH1 0x4 MSTORE PUSH1 0x24 PUSH1 0x0 REVERT JUMPDEST ADDRESS PUSH1 0x0 MSTORE PUSH1 0x73 DUP2 MSTORE8 DUP3 DUP2 RETURN INVALID PUSH20 0x0 ADDRESS EQ PUSH1 0x80 PUSH1 0x40 MSTORE PUSH1 0x4 CALLDATASIZE LT PUSH1 0x33 JUMPI PUSH1 0x0 CALLDATALOAD PUSH1 0xE0 SHR DUP1 PUSH4 0x5D641DFC EQ PUSH1 0x38 JUMPI JUMPDEST PUSH1 0x0 DUP1 REVERT JUMPDEST PUSH1 0x3F PUSH1 0x1 DUP2 JUMP JUMPDEST PUSH1 0x40 MLOAD PUSH2 0xFFFF SWAP1 SWAP2 AND DUP2 MSTORE PUSH1 0x20 ADD PUSH1 0x40 MLOAD DUP1 SWAP2 SUB SWAP1 RETURN INVALID LOG2 PUSH5 0x6970667358 0x22 SLT KECCAK256 0xED 0x23 PUSH1 0xD0 GT 0xB1 GT 0xBE LOG3 0xF9 PUSH10 0x2E1364AF6A921D8CC1D KECCAK256 CALL 0xB0 0xCB 0xEA PUSH6 0xA73175515564 PUSH20 0x6F6C634300081C00330000000000000000000000 "
				},
				"gasEstimates": {
					"creation": {
						"codeDepositCost": "28000",
						"executionCost": "112",
						"totalCost": "28112"
					},
					"external": {
						"REQUEST_DATA_VERSION()": "154"
					},
					"internal": {
						"addDONHostedSecrets(struct FunctionsRequest.Request memory,uint8,uint64)": "infinite",
						"addSecretsReference(struct FunctionsRequest.Request memory,bytes memory)": "infinite",
						"encodeCBOR(struct FunctionsRequest.Request memory)": "infinite",
						"initializeRequest(struct FunctionsRequest.Request memory,enum FunctionsRequest.Location,enum FunctionsRequest.CodeLanguage,string memory)": "infinite",
						"initializeRequestForInlineJavaScript(struct FunctionsRequest.Request memory,string memory)": "infinite",
						"setArgs(struct FunctionsRequest.Request memory,string memory[] memory)": "infinite",
						"setBytesArgs(struct FunctionsRequest.Request memory,bytes memory[] memory)": "infinite"
					}
				},
				"methodIdentifiers": {
					"REQUEST_DATA_VERSION()": "5d641dfc"
				}
			},
			"storageLayout": {
				"storage": [],
				"types": null
			},
			"userdoc": {
				"kind": "user",
				"methods": {},
				"version": 1
			}
		}
	}
}