{
	"quantum/UBI4ALLLiquidator.sol": {
		"UBI4ALLLiquidator": {
			"abi": [
				{
					"inputs": [
						{
							"internalType": "address",
							"name": "_ubi4allToken",
							"type": "address"
						},
						{
							"internalType": "address",
							"name": "_quantumToken",
							"type": "address"
						},
						{
							"internalType": "address",
							"name": "_uniswapRouter",
							"type": "address"
						},
						{
							"internalType": "address",
							"name": "_uniswapFactory",
							"type": "address"
						},
						{
							"internalType": "address",
							"name": "_liquidityWallet",
							"type": "address"
						},
						{
							"internalType": "address",
							"name": "initialOwner",
							"type": "address"
						}
					],
					"stateMutability": "nonpayable",
					"type": "constructor"
				},
				{
					"inputs": [
						{
							"internalType": "address",
							"name": "owner",
							"type": "address"
						}
					],
					"name": "OwnableInvalidOwner",
					"type": "error"
				},
				{
					"inputs": [
						{
							"internalType": "address",
							"name": "account",
							"type": "address"
						}
					],
					"name": "OwnableUnauthorizedAccount",
					"type": "error"
				},
				{
					"anonymous": false,
					"inputs": [
						{
							"indexed": true,
							"internalType": "address",
							"name": "token",
							"type": "address"
						},
						{
							"indexed": false,
							"internalType": "uint256",
							"name": "amountToken",
							"type": "uint256"
						},
						{
							"indexed": false,
							"internalType": "uint256",
							"name": "amountETH",
							"type": "uint256"
						},
						{
							"indexed": false,
							"internalType": "uint256",
							"name": "liquidity",
							"type": "uint256"
						}
					],
					"name": "LiquidityAdded",
					"type": "event"
				},
				{
					"anonymous": false,
					"inputs": [
						{
							"indexed": true,
							"internalType": "address",
							"name": "token",
							"type": "address"
						},
						{
							"indexed": false,
							"internalType": "uint256",
							"name": "amountToken",
							"type": "uint256"
						},
						{
							"indexed": false,
							"internalType": "uint256",
							"name": "amountETH",
							"type": "uint256"
						}
					],
					"name": "LiquidityRemoved",
					"type": "event"
				},
				{
					"anonymous": false,
					"inputs": [
						{
							"indexed": true,
							"internalType": "address",
							"name": "previousOwner",
							"type": "address"
						},
						{
							"indexed": true,
							"internalType": "address",
							"name": "newOwner",
							"type": "address"
						}
					],
					"name": "OwnershipTransferred",
					"type": "event"
				},
				{
					"anonymous": false,
					"inputs": [
						{
							"indexed": true,
							"internalType": "address",
							"name": "tokenIn",
							"type": "address"
						},
						{
							"indexed": true,
							"internalType": "address",
							"name": "tokenOut",
							"type": "address"
						},
						{
							"indexed": false,
							"internalType": "uint256",
							"name": "amount",
							"type": "uint256"
						}
					],
					"name": "QuantumSwap",
					"type": "event"
				},
				{
					"inputs": [],
					"name": "DEADLINE_EXTENSION",
					"outputs": [
						{
							"internalType": "uint256",
							"name": "",
							"type": "uint256"
						}
					],
					"stateMutability": "view",
					"type": "function"
				},
				{
					"inputs": [
						{
							"internalType": "uint256",
							"name": "amountTokenDesired",
							"type": "uint256"
						},
						{
							"internalType": "uint256",
							"name": "amountTokenMin",
							"type": "uint256"
						},
						{
							"internalType": "uint256",
							"name": "amountETHMin",
							"type": "uint256"
						}
					],
					"name": "addLiquidityQ4A",
					"outputs": [],
					"stateMutability": "nonpayable",
					"type": "function"
				},
				{
					"inputs": [
						{
							"internalType": "uint256",
							"name": "amountTokenDesired",
							"type": "uint256"
						},
						{
							"internalType": "uint256",
							"name": "amountTokenMin",
							"type": "uint256"
						},
						{
							"internalType": "uint256",
							"name": "amountETHMin",
							"type": "uint256"
						}
					],
					"name": "addLiquidityUB4",
					"outputs": [],
					"stateMutability": "nonpayable",
					"type": "function"
				},
				{
					"inputs": [],
					"name": "liquidityWallet",
					"outputs": [
						{
							"internalType": "address",
							"name": "",
							"type": "address"
						}
					],
					"stateMutability": "view",
					"type": "function"
				},
				{
					"inputs": [],
					"name": "owner",
					"outputs": [
						{
							"internalType": "address",
							"name": "",
							"type": "address"
						}
					],
					"stateMutability": "view",
					"type": "function"
				},
				{
					"inputs": [],
					"name": "quantumToken",
					"outputs": [
						{
							"internalType": "contract IERC20",
							"name": "",
							"type": "address"
						}
					],
					"stateMutability": "view",
					"type": "function"
				},
				{
					"inputs": [
						{
							"internalType": "uint256",
							"name": "liquidity",
							"type": "uint256"
						},
						{
							"internalType": "uint256",
							"name": "amountTokenMin",
							"type": "uint256"
						},
						{
							"internalType": "uint256",
							"name": "amountETHMin",
							"type": "uint256"
						}
					],
					"name": "removeLiquidityQ4A",
					"outputs": [],
					"stateMutability": "nonpayable",
					"type": "function"
				},
				{
					"inputs": [
						{
							"internalType": "uint256",
							"name": "liquidity",
							"type": "uint256"
						},
						{
							"internalType": "uint256",
							"name": "amountTokenMin",
							"type": "uint256"
						},
						{
							"internalType": "uint256",
							"name": "amountETHMin",
							"type": "uint256"
						}
					],
					"name": "removeLiquidityUB4",
					"outputs": [],
					"stateMutability": "nonpayable",
					"type": "function"
				},
				{
					"inputs": [],
					"name": "renounceOwnership",
					"outputs": [],
					"stateMutability": "nonpayable",
					"type": "function"
				},
				{
					"inputs": [
						{
							"internalType": "uint256",
							"name": "amountIn",
							"type": "uint256"
						},
						{
							"internalType": "uint256",
							"name": "amountOutMin",
							"type": "uint256"
						}
					],
					"name": "swapQ4AtoUB4",
					"outputs": [],
					"stateMutability": "nonpayable",
					"type": "function"
				},
				{
					"inputs": [
						{
							"internalType": "uint256",
							"name": "amountIn",
							"type": "uint256"
						},
						{
							"internalType": "uint256",
							"name": "amountOutMin",
							"type": "uint256"
						}
					],
					"name": "swapUB4toQ4A",
					"outputs": [],
					"stateMutability": "nonpayable",
					"type": "function"
				},
				{
					"inputs": [
						{
							"internalType": "address",
							"name": "newOwner",
							"type": "address"
						}
					],
					"name": "transferOwnership",
					"outputs": [],
					"stateMutability": "nonpayable",
					"type": "function"
				},
				{
					"inputs": [],
					"name": "ubi4allToken",
					"outputs": [
						{
							"internalType": "contract IERC20",
							"name": "",
							"type": "address"
						}
					],
					"stateMutability": "view",
					"type": "function"
				},
				{
					"inputs": [],
					"name": "uniswapFactory",
					"outputs": [
						{
							"internalType": "contract IUniswapV2Factory",
							"name": "",
							"type": "address"
						}
					],
					"stateMutability": "view",
					"type": "function"
				},
				{
					"inputs": [],
					"name": "uniswapRouter",
					"outputs": [
						{
							"internalType": "contract IUniswapV2Router02",
							"name": "",
							"type": "address"
						}
					],
					"stateMutability": "view",
					"type": "function"
				},
				{
					"stateMutability": "payable",
					"type": "receive"
				}
			],
			"devdoc": {
				"errors": {
					"OwnableInvalidOwner(address)": [
						{
							"details": "The owner is not a valid owner account. (eg. `address(0)`)"
						}
					],
					"OwnableUnauthorizedAccount(address)": [
						{
							"details": "The caller account is not authorized to perform an operation."
						}
					]
				},
				"kind": "dev",
				"methods": {
					"owner()": {
						"details": "Returns the address of the current owner."
					},
					"renounceOwnership()": {
						"details": "Leaves the contract without owner. It will not be possible to call `onlyOwner` functions. Can only be called by the current owner. NOTE: Renouncing ownership will leave the contract without an owner, thereby disabling any functionality that is only available to the owner."
					}
				},
				"version": 1
			},
			"evm": {
				"assembly": "    /* \"quantum/UBI4ALLLiquidator.sol\":395:6978  contract UBI4ALLLiquidator is IUBI4ALLLiquidator, Ownable {... */\n  mstore(0x40, 0x80)\n    /* \"quantum/UBI4ALLLiquidator.sol\":1002:1872  constructor(... */\n  callvalue\n  dup1\n  iszero\n  tag_1\n  jumpi\n  0x00\n  dup1\n  revert\ntag_1:\n  pop\n  mload(0x40)\n  sub(codesize, bytecodeSize)\n  dup1\n  bytecodeSize\n  dup4\n  codecopy\n  dup2\n  add\n  0x40\n  dup2\n  swap1\n  mstore\n  tag_2\n  swap2\n  tag_3\n  jump\t// in\ntag_2:\n    /* \"quantum/UBI4ALLLiquidator.sol\":1219:1231  initialOwner */\n  dup1\n  sub(shl(0xa0, 0x01), 0x01)\n    /* \"@openzeppelin/contracts/access/Ownable.sol\":1273:1299  initialOwner == address(0) */\n  dup2\n  and\n    /* \"@openzeppelin/contracts/access/Ownable.sol\":1269:1364  if (initialOwner == address(0)) {... */\n  tag_7\n  jumpi\n    /* \"@openzeppelin/contracts/access/Ownable.sol\":1322:1353  OwnableInvalidOwner(address(0)) */\n  mload(0x40)\n  shl(0xe0, 0x1e4fbdf7)\n  dup2\n  mstore\n    /* \"@openzeppelin/contracts/access/Ownable.sol\":1350:1351  0 */\n  0x00\n    /* \"@openzeppelin/contracts/access/Ownable.sol\":1322:1353  OwnableInvalidOwner(address(0)) */\n  0x04\n  dup3\n  add\n    /* \"#utility.yul\":983:1034   */\n  mstore\n    /* \"#utility.yul\":956:974   */\n  0x24\n  add\n    /* \"@openzeppelin/contracts/access/Ownable.sol\":1322:1353  OwnableInvalidOwner(address(0)) */\ntag_8:\n  mload(0x40)\n  dup1\n  swap2\n  sub\n  swap1\n  revert\n    /* \"@openzeppelin/contracts/access/Ownable.sol\":1269:1364  if (initialOwner == address(0)) {... */\ntag_7:\n    /* \"@openzeppelin/contracts/access/Ownable.sol\":1373:1405  _transferOwnership(initialOwner) */\n  tag_10\n    /* \"@openzeppelin/contracts/access/Ownable.sol\":1392:1404  initialOwner */\n  dup2\n    /* \"@openzeppelin/contracts/access/Ownable.sol\":1373:1391  _transferOwnership */\n  tag_11\n    /* \"@openzeppelin/contracts/access/Ownable.sol\":1373:1405  _transferOwnership(initialOwner) */\n  jump\t// in\ntag_10:\n  pop\n  sub(shl(0xa0, 0x01), 0x01)\n    /* \"quantum/UBI4ALLLiquidator.sol\":1251:1278  _ubi4allToken != address(0) */\n  dup7\n  and\n    /* \"quantum/UBI4ALLLiquidator.sol\":1243:1308  require(_ubi4allToken != address(0), \"Invalid UB4 token address\") */\n  tag_13\n  jumpi\n  mload(0x40)\n  shl(0xe5, 0x461bcd)\n  dup2\n  mstore\n    /* \"#utility.yul\":1247:1249   */\n  0x20\n    /* \"quantum/UBI4ALLLiquidator.sol\":1243:1308  require(_ubi4allToken != address(0), \"Invalid UB4 token address\") */\n  0x04\n  dup3\n  add\n    /* \"#utility.yul\":1229:1250   */\n  mstore\n    /* \"#utility.yul\":1286:1288   */\n  0x19\n    /* \"#utility.yul\":1266:1284   */\n  0x24\n  dup3\n  add\n    /* \"#utility.yul\":1259:1289   */\n  mstore\n    /* \"#utility.yul\":1325:1352   */\n  0x496e76616c69642055423420746f6b656e206164647265737300000000000000\n    /* \"#utility.yul\":1305:1323   */\n  0x44\n  dup3\n  add\n    /* \"#utility.yul\":1298:1353   */\n  mstore\n    /* \"#utility.yul\":1370:1388   */\n  0x64\n  add\n    /* \"quantum/UBI4ALLLiquidator.sol\":1243:1308  require(_ubi4allToken != address(0), \"Invalid UB4 token address\") */\n  tag_8\n    /* \"#utility.yul\":1045:1394   */\n  jump\n    /* \"quantum/UBI4ALLLiquidator.sol\":1243:1308  require(_ubi4allToken != address(0), \"Invalid UB4 token address\") */\ntag_13:\n  sub(shl(0xa0, 0x01), 0x01)\n    /* \"quantum/UBI4ALLLiquidator.sol\":1326:1353  _quantumToken != address(0) */\n  dup6\n  and\n    /* \"quantum/UBI4ALLLiquidator.sol\":1318:1383  require(_quantumToken != address(0), \"Invalid Q4A token address\") */\n  tag_16\n  jumpi\n  mload(0x40)\n  shl(0xe5, 0x461bcd)\n  dup2\n  mstore\n    /* \"#utility.yul\":1601:1603   */\n  0x20\n    /* \"quantum/UBI4ALLLiquidator.sol\":1318:1383  require(_quantumToken != address(0), \"Invalid Q4A token address\") */\n  0x04\n  dup3\n  add\n    /* \"#utility.yul\":1583:1604   */\n  mstore\n    /* \"#utility.yul\":1640:1642   */\n  0x19\n    /* \"#utility.yul\":1620:1638   */\n  0x24\n  dup3\n  add\n    /* \"#utility.yul\":1613:1643   */\n  mstore\n    /* \"#utility.yul\":1679:1706   */\n  0x496e76616c69642051344120746f6b656e206164647265737300000000000000\n    /* \"#utility.yul\":1659:1677   */\n  0x44\n  dup3\n  add\n    /* \"#utility.yul\":1652:1707   */\n  mstore\n    /* \"#utility.yul\":1724:1742   */\n  0x64\n  add\n    /* \"quantum/UBI4ALLLiquidator.sol\":1318:1383  require(_quantumToken != address(0), \"Invalid Q4A token address\") */\n  tag_8\n    /* \"#utility.yul\":1399:1748   */\n  jump\n    /* \"quantum/UBI4ALLLiquidator.sol\":1318:1383  require(_quantumToken != address(0), \"Invalid Q4A token address\") */\ntag_16:\n  sub(shl(0xa0, 0x01), 0x01)\n    /* \"quantum/UBI4ALLLiquidator.sol\":1401:1429  _uniswapRouter != address(0) */\n  dup5\n  and\n    /* \"quantum/UBI4ALLLiquidator.sol\":1393:1456  require(_uniswapRouter != address(0), \"Invalid router address\") */\n  tag_19\n  jumpi\n  mload(0x40)\n  shl(0xe5, 0x461bcd)\n  dup2\n  mstore\n    /* \"#utility.yul\":1955:1957   */\n  0x20\n    /* \"quantum/UBI4ALLLiquidator.sol\":1393:1456  require(_uniswapRouter != address(0), \"Invalid router address\") */\n  0x04\n  dup3\n  add\n    /* \"#utility.yul\":1937:1958   */\n  mstore\n    /* \"#utility.yul\":1994:1996   */\n  0x16\n    /* \"#utility.yul\":1974:1992   */\n  0x24\n  dup3\n  add\n    /* \"#utility.yul\":1967:1997   */\n  mstore\n    /* \"#utility.yul\":2033:2057   */\n  0x496e76616c696420726f75746572206164647265737300000000000000000000\n    /* \"#utility.yul\":2013:2031   */\n  0x44\n  dup3\n  add\n    /* \"#utility.yul\":2006:2058   */\n  mstore\n    /* \"#utility.yul\":2075:2093   */\n  0x64\n  add\n    /* \"quantum/UBI4ALLLiquidator.sol\":1393:1456  require(_uniswapRouter != address(0), \"Invalid router address\") */\n  tag_8\n    /* \"#utility.yul\":1753:2099   */\n  jump\n    /* \"quantum/UBI4ALLLiquidator.sol\":1393:1456  require(_uniswapRouter != address(0), \"Invalid router address\") */\ntag_19:\n  sub(shl(0xa0, 0x01), 0x01)\n    /* \"quantum/UBI4ALLLiquidator.sol\":1474:1503  _uniswapFactory != address(0) */\n  dup4\n  and\n    /* \"quantum/UBI4ALLLiquidator.sol\":1466:1531  require(_uniswapFactory != address(0), \"Invalid factory address\") */\n  tag_22\n  jumpi\n  mload(0x40)\n  shl(0xe5, 0x461bcd)\n  dup2\n  mstore\n    /* \"#utility.yul\":2306:2308   */\n  0x20\n    /* \"quantum/UBI4ALLLiquidator.sol\":1466:1531  require(_uniswapFactory != address(0), \"Invalid factory address\") */\n  0x04\n  dup3\n  add\n    /* \"#utility.yul\":2288:2309   */\n  mstore\n    /* \"#utility.yul\":2345:2347   */\n  0x17\n    /* \"#utility.yul\":2325:2343   */\n  0x24\n  dup3\n  add\n    /* \"#utility.yul\":2318:2348   */\n  mstore\n    /* \"#utility.yul\":2384:2409   */\n  0x496e76616c696420666163746f72792061646472657373000000000000000000\n    /* \"#utility.yul\":2364:2382   */\n  0x44\n  dup3\n  add\n    /* \"#utility.yul\":2357:2410   */\n  mstore\n    /* \"#utility.yul\":2427:2445   */\n  0x64\n  add\n    /* \"quantum/UBI4ALLLiquidator.sol\":1466:1531  require(_uniswapFactory != address(0), \"Invalid factory address\") */\n  tag_8\n    /* \"#utility.yul\":2104:2451   */\n  jump\n    /* \"quantum/UBI4ALLLiquidator.sol\":1466:1531  require(_uniswapFactory != address(0), \"Invalid factory address\") */\ntag_22:\n  sub(shl(0xa0, 0x01), 0x01)\n    /* \"quantum/UBI4ALLLiquidator.sol\":1549:1579  _liquidityWallet != address(0) */\n  dup3\n  and\n    /* \"quantum/UBI4ALLLiquidator.sol\":1541:1608  require(_liquidityWallet != address(0), \"Invalid liquidity wallet\") */\n  tag_25\n  jumpi\n  mload(0x40)\n  shl(0xe5, 0x461bcd)\n  dup2\n  mstore\n    /* \"#utility.yul\":2658:2660   */\n  0x20\n    /* \"quantum/UBI4ALLLiquidator.sol\":1541:1608  require(_liquidityWallet != address(0), \"Invalid liquidity wallet\") */\n  0x04\n  dup3\n  add\n    /* \"#utility.yul\":2640:2661   */\n  mstore\n    /* \"#utility.yul\":2697:2699   */\n  0x18\n    /* \"#utility.yul\":2677:2695   */\n  0x24\n  dup3\n  add\n    /* \"#utility.yul\":2670:2700   */\n  mstore\n    /* \"#utility.yul\":2736:2762   */\n  0x496e76616c6964206c69717569646974792077616c6c65740000000000000000\n    /* \"#utility.yul\":2716:2734   */\n  0x44\n  dup3\n  add\n    /* \"#utility.yul\":2709:2763   */\n  mstore\n    /* \"#utility.yul\":2780:2798   */\n  0x64\n  add\n    /* \"quantum/UBI4ALLLiquidator.sol\":1541:1608  require(_liquidityWallet != address(0), \"Invalid liquidity wallet\") */\n  tag_8\n    /* \"#utility.yul\":2456:2804   */\n  jump\n    /* \"quantum/UBI4ALLLiquidator.sol\":1541:1608  require(_liquidityWallet != address(0), \"Invalid liquidity wallet\") */\ntag_25:\n  pop\n    /* \"quantum/UBI4ALLLiquidator.sol\":1618:1630  ubi4allToken */\n  0x01\n    /* \"quantum/UBI4ALLLiquidator.sol\":1618:1654  ubi4allToken = IERC20(_ubi4allToken) */\n  dup1\n  sload\n  not(sub(shl(0xa0, 0x01), 0x01))\n  swap1\n  dup2\n  and\n  sub(shl(0xa0, 0x01), 0x01)\n  swap8\n  dup9\n  and\n  or\n  swap1\n  swap2\n  sstore\n    /* \"quantum/UBI4ALLLiquidator.sol\":1664:1676  quantumToken */\n  0x02\n    /* \"quantum/UBI4ALLLiquidator.sol\":1664:1700  quantumToken = IERC20(_quantumToken) */\n  dup1\n  sload\n  dup3\n  and\n  swap6\n  dup8\n  and\n  swap6\n  swap1\n  swap6\n  or\n  swap1\n  swap5\n  sstore\n    /* \"quantum/UBI4ALLLiquidator.sol\":1710:1723  uniswapRouter */\n  0x03\n    /* \"quantum/UBI4ALLLiquidator.sol\":1710:1760  uniswapRouter = IUniswapV2Router02(_uniswapRouter) */\n  dup1\n  sload\n  dup6\n  and\n  swap4\n  dup7\n  and\n  swap4\n  swap1\n  swap4\n  or\n  swap1\n  swap3\n  sstore\n    /* \"quantum/UBI4ALLLiquidator.sol\":1770:1784  uniswapFactory */\n  0x04\n    /* \"quantum/UBI4ALLLiquidator.sol\":1770:1821  uniswapFactory = IUniswapV2Factory(_uniswapFactory) */\n  dup1\n  sload\n  dup5\n  and\n  swap2\n  dup6\n  and\n  swap2\n  swap1\n  swap2\n  or\n  swap1\n  sstore\n    /* \"quantum/UBI4ALLLiquidator.sol\":1831:1846  liquidityWallet */\n  0x05\n    /* \"quantum/UBI4ALLLiquidator.sol\":1831:1865  liquidityWallet = _liquidityWallet */\n  dup1\n  sload\n  swap1\n  swap3\n  and\n  swap3\n  and\n  swap2\n  swap1\n  swap2\n  or\n  swap1\n  sstore\n    /* \"quantum/UBI4ALLLiquidator.sol\":395:6978  contract UBI4ALLLiquidator is IUBI4ALLLiquidator, Ownable {... */\n  jump(tag_31)\n    /* \"@openzeppelin/contracts/access/Ownable.sol\":2912:3099  function _transferOwnership(address newOwner) internal virtual {... */\ntag_11:\n    /* \"@openzeppelin/contracts/access/Ownable.sol\":2985:3001  address oldOwner */\n  0x00\n    /* \"@openzeppelin/contracts/access/Ownable.sol\":3004:3010  _owner */\n  dup1\n  sload\n  sub(shl(0xa0, 0x01), 0x01)\n    /* \"@openzeppelin/contracts/access/Ownable.sol\":3020:3037  _owner = newOwner */\n  dup4\n  dup2\n  and\n  not(sub(shl(0xa0, 0x01), 0x01))\n  dup4\n  and\n  dup2\n  or\n  dup5\n  sstore\n    /* \"@openzeppelin/contracts/access/Ownable.sol\":3052:3092  OwnershipTransferred(oldOwner, newOwner) */\n  mload(0x40)\n    /* \"@openzeppelin/contracts/access/Ownable.sol\":3004:3010  _owner */\n  swap2\n  swap1\n  swap3\n  and\n  swap3\n  dup4\n  swap2\n    /* \"@openzeppelin/contracts/access/Ownable.sol\":3052:3092  OwnershipTransferred(oldOwner, newOwner) */\n  0x8be0079c531659141344cd1fd0a4f28419497f9722a3daafe3b4186f6b6457e0\n  swap2\n    /* \"@openzeppelin/contracts/access/Ownable.sol\":2985:3001  address oldOwner */\n  swap1\n    /* \"@openzeppelin/contracts/access/Ownable.sol\":3052:3092  OwnershipTransferred(oldOwner, newOwner) */\n  log3\n    /* \"@openzeppelin/contracts/access/Ownable.sol\":2975:3099  {... */\n  pop\n    /* \"@openzeppelin/contracts/access/Ownable.sol\":2912:3099  function _transferOwnership(address newOwner) internal virtual {... */\n  pop\n  jump\t// out\n    /* \"#utility.yul\":14:191   */\ntag_30:\n    /* \"#utility.yul\":93:106   */\n  dup1\n  mload\n  sub(shl(0xa0, 0x01), 0x01)\n    /* \"#utility.yul\":135:166   */\n  dup2\n  and\n    /* \"#utility.yul\":125:167   */\n  dup2\n  eq\n    /* \"#utility.yul\":115:185   */\n  tag_33\n  jumpi\n    /* \"#utility.yul\":181:182   */\n  0x00\n    /* \"#utility.yul\":178:179   */\n  dup1\n    /* \"#utility.yul\":171:183   */\n  revert\n    /* \"#utility.yul\":115:185   */\ntag_33:\n    /* \"#utility.yul\":14:191   */\n  swap2\n  swap1\n  pop\n  jump\t// out\n    /* \"#utility.yul\":196:832   */\ntag_3:\n    /* \"#utility.yul\":311:317   */\n  0x00\n    /* \"#utility.yul\":319:325   */\n  dup1\n    /* \"#utility.yul\":327:333   */\n  0x00\n    /* \"#utility.yul\":335:341   */\n  dup1\n    /* \"#utility.yul\":343:349   */\n  0x00\n    /* \"#utility.yul\":351:357   */\n  dup1\n    /* \"#utility.yul\":404:407   */\n  0xc0\n    /* \"#utility.yul\":392:401   */\n  dup8\n    /* \"#utility.yul\":383:390   */\n  dup10\n    /* \"#utility.yul\":379:402   */\n  sub\n    /* \"#utility.yul\":375:408   */\n  slt\n    /* \"#utility.yul\":372:425   */\n  iszero\n  tag_35\n  jumpi\n    /* \"#utility.yul\":421:422   */\n  0x00\n    /* \"#utility.yul\":418:419   */\n  dup1\n    /* \"#utility.yul\":411:423   */\n  revert\n    /* \"#utility.yul\":372:425   */\ntag_35:\n    /* \"#utility.yul\":444:484   */\n  tag_36\n    /* \"#utility.yul\":474:483   */\n  dup8\n    /* \"#utility.yul\":444:484   */\n  tag_30\n  jump\t// in\ntag_36:\n    /* \"#utility.yul\":434:484   */\n  swap6\n  pop\n    /* \"#utility.yul\":503:552   */\n  tag_37\n    /* \"#utility.yul\":548:550   */\n  0x20\n    /* \"#utility.yul\":537:546   */\n  dup9\n    /* \"#utility.yul\":533:551   */\n  add\n    /* \"#utility.yul\":503:552   */\n  tag_30\n  jump\t// in\ntag_37:\n    /* \"#utility.yul\":493:552   */\n  swap5\n  pop\n    /* \"#utility.yul\":571:620   */\n  tag_38\n    /* \"#utility.yul\":616:618   */\n  0x40\n    /* \"#utility.yul\":605:614   */\n  dup9\n    /* \"#utility.yul\":601:619   */\n  add\n    /* \"#utility.yul\":571:620   */\n  tag_30\n  jump\t// in\ntag_38:\n    /* \"#utility.yul\":561:620   */\n  swap4\n  pop\n    /* \"#utility.yul\":639:688   */\n  tag_39\n    /* \"#utility.yul\":684:686   */\n  0x60\n    /* \"#utility.yul\":673:682   */\n  dup9\n    /* \"#utility.yul\":669:687   */\n  add\n    /* \"#utility.yul\":639:688   */\n  tag_30\n  jump\t// in\ntag_39:\n    /* \"#utility.yul\":629:688   */\n  swap3\n  pop\n    /* \"#utility.yul\":707:757   */\n  tag_40\n    /* \"#utility.yul\":752:755   */\n  0x80\n    /* \"#utility.yul\":741:750   */\n  dup9\n    /* \"#utility.yul\":737:756   */\n  add\n    /* \"#utility.yul\":707:757   */\n  tag_30\n  jump\t// in\ntag_40:\n    /* \"#utility.yul\":697:757   */\n  swap2\n  pop\n    /* \"#utility.yul\":776:826   */\n  tag_41\n    /* \"#utility.yul\":821:824   */\n  0xa0\n    /* \"#utility.yul\":810:819   */\n  dup9\n    /* \"#utility.yul\":806:825   */\n  add\n    /* \"#utility.yul\":776:826   */\n  tag_30\n  jump\t// in\ntag_41:\n    /* \"#utility.yul\":766:826   */\n  swap1\n  pop\n    /* \"#utility.yul\":196:832   */\n  swap3\n  swap6\n  pop\n  swap3\n  swap6\n  pop\n  swap3\n  swap6\n  jump\t// out\n    /* \"#utility.yul\":2456:2804   */\ntag_31:\n    /* \"quantum/UBI4ALLLiquidator.sol\":395:6978  contract UBI4ALLLiquidator is IUBI4ALLLiquidator, Ownable {... */\n  dataSize(sub_0)\n  dup1\n  dataOffset(sub_0)\n  0x00\n  codecopy\n  0x00\n  return\nstop\n\nsub_0: assembly {\n        /* \"quantum/UBI4ALLLiquidator.sol\":395:6978  contract UBI4ALLLiquidator is IUBI4ALLLiquidator, Ownable {... */\n      mstore(0x40, 0x80)\n      jumpi(tag_1, lt(calldatasize, 0x04))\n      shr(0xe0, calldataload(0x00))\n      dup1\n      0x8da5cb5b\n      gt\n      tag_18\n      jumpi\n      dup1\n      0xd4698016\n      gt\n      tag_19\n      jumpi\n      dup1\n      0xd4698016\n      eq\n      tag_14\n      jumpi\n      dup1\n      0xf2fde38b\n      eq\n      tag_15\n      jumpi\n      dup1\n      0xfc0d6874\n      eq\n      tag_16\n      jumpi\n      dup1\n      0xffe6f79a\n      eq\n      tag_17\n      jumpi\n      0x00\n      dup1\n      revert\n    tag_19:\n      dup1\n      0x8da5cb5b\n      eq\n      tag_10\n      jumpi\n      dup1\n      0x93565b4c\n      eq\n      tag_11\n      jumpi\n      dup1\n      0x9d81a8aa\n      eq\n      tag_12\n      jumpi\n      dup1\n      0xa43d6c1b\n      eq\n      tag_13\n      jumpi\n      0x00\n      dup1\n      revert\n    tag_18:\n      dup1\n      0x6cfbbb75\n      gt\n      tag_20\n      jumpi\n      dup1\n      0x6cfbbb75\n      eq\n      tag_6\n      jumpi\n      dup1\n      0x715018a6\n      eq\n      tag_7\n      jumpi\n      dup1\n      0x735de9f7\n      eq\n      tag_8\n      jumpi\n      dup1\n      0x8bdb2afa\n      eq\n      tag_9\n      jumpi\n      0x00\n      dup1\n      revert\n    tag_20:\n      dup1\n      0x10d67098\n      eq\n      tag_3\n      jumpi\n      dup1\n      0x3b78439a\n      eq\n      tag_4\n      jumpi\n      dup1\n      0x58f11763\n      eq\n      tag_5\n      jumpi\n      0x00\n      dup1\n      revert\n    tag_1:\n      jumpi(tag_2, calldatasize)\n      stop\n    tag_2:\n      0x00\n      dup1\n      revert\n        /* \"quantum/UBI4ALLLiquidator.sol\":459:485  IERC20 public ubi4allToken */\n    tag_3:\n      callvalue\n      dup1\n      iszero\n      tag_23\n      jumpi\n      0x00\n      dup1\n      revert\n    tag_23:\n      pop\n      sload(0x01)\n      tag_24\n      swap1\n      sub(shl(0xa0, 0x01), 0x01)\n      and\n      dup2\n      jump\n    tag_24:\n      mload(0x40)\n      sub(shl(0xa0, 0x01), 0x01)\n        /* \"#utility.yul\":192:224   */\n      swap1\n      swap2\n      and\n        /* \"#utility.yul\":174:225   */\n      dup2\n      mstore\n        /* \"#utility.yul\":162:164   */\n      0x20\n        /* \"#utility.yul\":147:165   */\n      add\n        /* \"quantum/UBI4ALLLiquidator.sol\":459:485  IERC20 public ubi4allToken */\n    tag_26:\n      mload(0x40)\n      dup1\n      swap2\n      sub\n      swap1\n      return\n        /* \"quantum/UBI4ALLLiquidator.sol\":5444:6114  function swapQ4AtoUB4(uint256 amountIn, uint256 amountOutMin) external onlyOwner {... */\n    tag_4:\n      callvalue\n      dup1\n      iszero\n      tag_28\n      jumpi\n      0x00\n      dup1\n      revert\n    tag_28:\n      pop\n      tag_29\n      tag_30\n      calldatasize\n      0x04\n      tag_31\n      jump\t// in\n    tag_30:\n      tag_32\n      jump\t// in\n    tag_29:\n      stop\n        /* \"quantum/UBI4ALLLiquidator.sol\":2634:3384  function addLiquidityQ4A(... */\n    tag_5:\n      callvalue\n      dup1\n      iszero\n      tag_33\n      jumpi\n      0x00\n      dup1\n      revert\n    tag_33:\n      pop\n      tag_29\n      tag_35\n      calldatasize\n      0x04\n      tag_36\n      jump\t// in\n    tag_35:\n      tag_37\n      jump\t// in\n        /* \"quantum/UBI4ALLLiquidator.sol\":3390:4411  function removeLiquidityUB4(... */\n    tag_6:\n      callvalue\n      dup1\n      iszero\n      tag_38\n      jumpi\n      0x00\n      dup1\n      revert\n    tag_38:\n      pop\n      tag_29\n      tag_40\n      calldatasize\n      0x04\n      tag_36\n      jump\t// in\n    tag_40:\n      tag_41\n      jump\t// in\n        /* \"@openzeppelin/contracts/access/Ownable.sol\":2293:2394  function renounceOwnership() public virtual onlyOwner {... */\n    tag_7:\n      callvalue\n      dup1\n      iszero\n      tag_42\n      jumpi\n      0x00\n      dup1\n      revert\n    tag_42:\n      pop\n      tag_29\n      tag_44\n      jump\t// in\n        /* \"quantum/UBI4ALLLiquidator.sol\":523:562  IUniswapV2Router02 public uniswapRouter */\n    tag_8:\n      callvalue\n      dup1\n      iszero\n      tag_45\n      jumpi\n      0x00\n      dup1\n      revert\n    tag_45:\n      pop\n      sload(0x03)\n      tag_24\n      swap1\n      sub(shl(0xa0, 0x01), 0x01)\n      and\n      dup2\n      jump\n        /* \"quantum/UBI4ALLLiquidator.sol\":568:607  IUniswapV2Factory public uniswapFactory */\n    tag_9:\n      callvalue\n      dup1\n      iszero\n      tag_50\n      jumpi\n      0x00\n      dup1\n      revert\n    tag_50:\n      pop\n      sload(0x04)\n      tag_24\n      swap1\n      sub(shl(0xa0, 0x01), 0x01)\n      and\n      dup2\n      jump\n        /* \"@openzeppelin/contracts/access/Ownable.sol\":1638:1723  function owner() public view virtual returns (address) {... */\n    tag_10:\n      callvalue\n      dup1\n      iszero\n      tag_55\n      jumpi\n      0x00\n      dup1\n      revert\n    tag_55:\n      pop\n        /* \"@openzeppelin/contracts/access/Ownable.sol\":1684:1691  address */\n      0x00\n        /* \"@openzeppelin/contracts/access/Ownable.sol\":1710:1716  _owner */\n      sload\n      sub(shl(0xa0, 0x01), 0x01)\n      and\n        /* \"@openzeppelin/contracts/access/Ownable.sol\":1638:1723  function owner() public view virtual returns (address) {... */\n      jump(tag_24)\n        /* \"quantum/UBI4ALLLiquidator.sol\":491:517  IERC20 public quantumToken */\n    tag_11:\n      callvalue\n      dup1\n      iszero\n      tag_60\n      jumpi\n      0x00\n      dup1\n      revert\n    tag_60:\n      pop\n      sload(0x02)\n      tag_24\n      swap1\n      sub(shl(0xa0, 0x01), 0x01)\n      and\n      dup2\n      jump\n        /* \"quantum/UBI4ALLLiquidator.sol\":4417:5438  function removeLiquidityQ4A(... */\n    tag_12:\n      callvalue\n      dup1\n      iszero\n      tag_64\n      jumpi\n      0x00\n      dup1\n      revert\n    tag_64:\n      pop\n      tag_29\n      tag_66\n      calldatasize\n      0x04\n      tag_36\n      jump\t// in\n    tag_66:\n      tag_67\n      jump\t// in\n        /* \"quantum/UBI4ALLLiquidator.sol\":6120:6790  function swapUB4toQ4A(uint256 amountIn, uint256 amountOutMin) external onlyOwner {... */\n    tag_13:\n      callvalue\n      dup1\n      iszero\n      tag_68\n      jumpi\n      0x00\n      dup1\n      revert\n    tag_68:\n      pop\n      tag_29\n      tag_70\n      calldatasize\n      0x04\n      tag_31\n      jump\t// in\n    tag_70:\n      tag_71\n      jump\t// in\n        /* \"quantum/UBI4ALLLiquidator.sol\":613:643  address public liquidityWallet */\n    tag_14:\n      callvalue\n      dup1\n      iszero\n      tag_72\n      jumpi\n      0x00\n      dup1\n      revert\n    tag_72:\n      pop\n      sload(0x05)\n      tag_24\n      swap1\n      sub(shl(0xa0, 0x01), 0x01)\n      and\n      dup2\n      jump\n        /* \"quantum/UBI4ALLLiquidator.sol\":6796:6941  function transferOwnership(address newOwner) public override(Ownable, IUBI4ALLLiquidator) onlyOwner {... */\n    tag_15:\n      callvalue\n      dup1\n      iszero\n      tag_76\n      jumpi\n      0x00\n      dup1\n      revert\n    tag_76:\n      pop\n      tag_29\n      tag_78\n      calldatasize\n      0x04\n      tag_79\n      jump\t// in\n    tag_78:\n      tag_80\n      jump\t// in\n        /* \"quantum/UBI4ALLLiquidator.sol\":1878:2628  function addLiquidityUB4(... */\n    tag_16:\n      callvalue\n      dup1\n      iszero\n      tag_81\n      jumpi\n      0x00\n      dup1\n      revert\n    tag_81:\n      pop\n      tag_29\n      tag_83\n      calldatasize\n      0x04\n      tag_36\n      jump\t// in\n    tag_83:\n      tag_84\n      jump\t// in\n        /* \"quantum/UBI4ALLLiquidator.sol\":650:705  uint256 public constant DEADLINE_EXTENSION = 20 minutes */\n    tag_17:\n      callvalue\n      dup1\n      iszero\n      tag_85\n      jumpi\n      0x00\n      dup1\n      revert\n    tag_85:\n      pop\n      tag_86\n        /* \"quantum/UBI4ALLLiquidator.sol\":695:705  20 minutes */\n      0x04b0\n        /* \"quantum/UBI4ALLLiquidator.sol\":650:705  uint256 public constant DEADLINE_EXTENSION = 20 minutes */\n      dup2\n      jump\n    tag_86:\n      mload(0x40)\n        /* \"#utility.yul\":2267:2292   */\n      swap1\n      dup2\n      mstore\n        /* \"#utility.yul\":2255:2257   */\n      0x20\n        /* \"#utility.yul\":2240:2258   */\n      add\n        /* \"quantum/UBI4ALLLiquidator.sol\":650:705  uint256 public constant DEADLINE_EXTENSION = 20 minutes */\n      tag_26\n        /* \"#utility.yul\":2121:2298   */\n      jump\n        /* \"quantum/UBI4ALLLiquidator.sol\":5444:6114  function swapQ4AtoUB4(uint256 amountIn, uint256 amountOutMin) external onlyOwner {... */\n    tag_32:\n        /* \"@openzeppelin/contracts/access/Ownable.sol\":1531:1544  _checkOwner() */\n      tag_91\n        /* \"@openzeppelin/contracts/access/Ownable.sol\":1531:1542  _checkOwner */\n      tag_92\n        /* \"@openzeppelin/contracts/access/Ownable.sol\":1531:1544  _checkOwner() */\n      jump\t// in\n    tag_91:\n        /* \"quantum/UBI4ALLLiquidator.sol\":5535:5547  quantumToken */\n      sload(0x02)\n        /* \"quantum/UBI4ALLLiquidator.sol\":5535:5597  quantumToken.transferFrom(msg.sender, address(this), amountIn) */\n      mload(0x40)\n      shl(0xe0, 0x23b872dd)\n      dup2\n      mstore\n      sub(shl(0xa0, 0x01), 0x01)\n        /* \"quantum/UBI4ALLLiquidator.sol\":5535:5547  quantumToken */\n      swap1\n      swap2\n      and\n      swap1\n        /* \"quantum/UBI4ALLLiquidator.sol\":5535:5560  quantumToken.transferFrom */\n      0x23b872dd\n      swap1\n        /* \"quantum/UBI4ALLLiquidator.sol\":5535:5597  quantumToken.transferFrom(msg.sender, address(this), amountIn) */\n      tag_94\n      swap1\n        /* \"quantum/UBI4ALLLiquidator.sol\":5561:5571  msg.sender */\n      caller\n      swap1\n        /* \"quantum/UBI4ALLLiquidator.sol\":5581:5585  this */\n      address\n      swap1\n        /* \"quantum/UBI4ALLLiquidator.sol\":5588:5596  amountIn */\n      dup8\n      swap1\n        /* \"quantum/UBI4ALLLiquidator.sol\":5535:5597  quantumToken.transferFrom(msg.sender, address(this), amountIn) */\n      0x04\n      add\n      tag_95\n      jump\t// in\n    tag_94:\n      0x20\n      mload(0x40)\n      dup1\n      dup4\n      sub\n      dup2\n      0x00\n      dup8\n      gas\n      call\n      iszero\n      dup1\n      iszero\n      tag_97\n      jumpi\n      returndatasize\n      0x00\n      dup1\n      returndatacopy\n      revert(0x00, returndatasize)\n    tag_97:\n      pop\n      pop\n      pop\n      pop\n      mload(0x40)\n      returndatasize\n      not(0x1f)\n      0x1f\n      dup3\n      add\n      and\n      dup3\n      add\n      dup1\n      0x40\n      mstore\n      pop\n      dup2\n      add\n      swap1\n      tag_98\n      swap2\n      swap1\n      tag_99\n      jump\t// in\n    tag_98:\n      pop\n        /* \"quantum/UBI4ALLLiquidator.sol\":5607:5619  quantumToken */\n      sload(0x02)\n        /* \"quantum/UBI4ALLLiquidator.sol\":5636:5649  uniswapRouter */\n      sload(0x03)\n        /* \"quantum/UBI4ALLLiquidator.sol\":5607:5661  quantumToken.approve(address(uniswapRouter), amountIn) */\n      mload(0x40)\n      shl(0xe0, 0x095ea7b3)\n      dup2\n      mstore\n      sub(shl(0xa0, 0x01), 0x01)\n        /* \"quantum/UBI4ALLLiquidator.sol\":5636:5649  uniswapRouter */\n      swap2\n      dup3\n      and\n        /* \"quantum/UBI4ALLLiquidator.sol\":5607:5661  quantumToken.approve(address(uniswapRouter), amountIn) */\n      0x04\n      dup3\n      add\n        /* \"#utility.yul\":3135:3186   */\n      mstore\n        /* \"#utility.yul\":3202:3220   */\n      0x24\n      dup2\n      add\n        /* \"#utility.yul\":3195:3229   */\n      dup6\n      swap1\n      mstore\n        /* \"quantum/UBI4ALLLiquidator.sol\":5607:5619  quantumToken */\n      swap2\n      and\n      swap1\n        /* \"quantum/UBI4ALLLiquidator.sol\":5607:5627  quantumToken.approve */\n      0x095ea7b3\n      swap1\n        /* \"#utility.yul\":3108:3126   */\n      0x44\n      add\n        /* \"quantum/UBI4ALLLiquidator.sol\":5607:5661  quantumToken.approve(address(uniswapRouter), amountIn) */\n      0x20\n      mload(0x40)\n      dup1\n      dup4\n      sub\n      dup2\n      0x00\n      dup8\n      gas\n      call\n      iszero\n      dup1\n      iszero\n      tag_103\n      jumpi\n      returndatasize\n      0x00\n      dup1\n      returndatacopy\n      revert(0x00, returndatasize)\n    tag_103:\n      pop\n      pop\n      pop\n      pop\n      mload(0x40)\n      returndatasize\n      not(0x1f)\n      0x1f\n      dup3\n      add\n      and\n      dup3\n      add\n      dup1\n      0x40\n      mstore\n      pop\n      dup2\n      add\n      swap1\n      tag_104\n      swap2\n      swap1\n      tag_99\n      jump\t// in\n    tag_104:\n      pop\n        /* \"quantum/UBI4ALLLiquidator.sol\":5695:5711  new address[](2) */\n      0x40\n      dup1\n      mload\n        /* \"quantum/UBI4ALLLiquidator.sol\":5709:5710  2 */\n      0x02\n        /* \"quantum/UBI4ALLLiquidator.sol\":5695:5711  new address[](2) */\n      dup1\n      dup3\n      mstore\n      0x60\n      dup3\n      add\n      dup4\n      mstore\n        /* \"quantum/UBI4ALLLiquidator.sol\":5671:5692  address[] memory path */\n      0x00\n      swap3\n        /* \"quantum/UBI4ALLLiquidator.sol\":5695:5711  new address[](2) */\n      0x20\n      dup4\n      add\n      swap1\n      dup1\n      calldatasize\n      dup4\n      calldatacopy\n      pop\n      pop\n        /* \"quantum/UBI4ALLLiquidator.sol\":5739:5751  quantumToken */\n      sload(0x02)\n        /* \"quantum/UBI4ALLLiquidator.sol\":5721:5728  path[0] */\n      dup3\n      mload\n      swap3\n      swap4\n      pop\n      sub(shl(0xa0, 0x01), 0x01)\n        /* \"quantum/UBI4ALLLiquidator.sol\":5739:5751  quantumToken */\n      and\n      swap2\n        /* \"quantum/UBI4ALLLiquidator.sol\":5721:5728  path[0] */\n      dup4\n      swap2\n      pop\n        /* \"quantum/UBI4ALLLiquidator.sol\":5739:5751  quantumToken */\n      0x00\n      swap1\n        /* \"quantum/UBI4ALLLiquidator.sol\":5721:5728  path[0] */\n      tag_110\n      jumpi\n      tag_110\n      tag_111\n      jump\t// in\n    tag_110:\n      sub(shl(0xa0, 0x01), 0x01)\n        /* \"quantum/UBI4ALLLiquidator.sol\":5721:5752  path[0] = address(quantumToken) */\n      swap3\n      dup4\n      and\n        /* \"quantum/UBI4ALLLiquidator.sol\":5721:5728  path[0] */\n      0x20\n      swap2\n      dup3\n      mul\n      swap3\n      swap1\n      swap3\n      add\n      add\n        /* \"quantum/UBI4ALLLiquidator.sol\":5721:5752  path[0] = address(quantumToken) */\n      mstore\n        /* \"quantum/UBI4ALLLiquidator.sol\":5780:5792  ubi4allToken */\n      0x01\n      dup1\n      sload\n        /* \"quantum/UBI4ALLLiquidator.sol\":5762:5769  path[1] */\n      dup4\n      mload\n        /* \"quantum/UBI4ALLLiquidator.sol\":5780:5792  ubi4allToken */\n      swap3\n      and\n      swap2\n        /* \"quantum/UBI4ALLLiquidator.sol\":5762:5766  path */\n      dup4\n      swap2\n        /* \"quantum/UBI4ALLLiquidator.sol\":5780:5792  ubi4allToken */\n      swap1\n        /* \"quantum/UBI4ALLLiquidator.sol\":5762:5769  path[1] */\n      dup2\n      lt\n      tag_113\n      jumpi\n      tag_113\n      tag_111\n      jump\t// in\n    tag_113:\n      sub(shl(0xa0, 0x01), 0x01)\n        /* \"quantum/UBI4ALLLiquidator.sol\":5762:5793  path[1] = address(ubi4allToken) */\n      swap3\n      dup4\n      and\n        /* \"quantum/UBI4ALLLiquidator.sol\":5762:5769  path[1] */\n      0x20\n      swap2\n      dup3\n      mul\n      swap3\n      swap1\n      swap3\n      add\n      add\n        /* \"quantum/UBI4ALLLiquidator.sol\":5762:5793  path[1] = address(ubi4allToken) */\n      mstore\n        /* \"quantum/UBI4ALLLiquidator.sol\":5803:5816  uniswapRouter */\n      sload(0x03)\n        /* \"quantum/UBI4ALLLiquidator.sol\":5950:5965  liquidityWallet */\n      sload(0x05)\n        /* \"quantum/UBI4ALLLiquidator.sol\":5803:5816  uniswapRouter */\n      swap1\n      dup3\n      and\n      swap2\n        /* \"quantum/UBI4ALLLiquidator.sol\":5803:5870  uniswapRouter.swapExactTokensForTokensSupportingFeeOnTransferTokens */\n      0x5c11d795\n      swap2\n        /* \"quantum/UBI4ALLLiquidator.sol\":5884:5892  amountIn */\n      dup7\n      swap2\n        /* \"quantum/UBI4ALLLiquidator.sol\":5906:5918  amountOutMin */\n      dup7\n      swap2\n        /* \"quantum/UBI4ALLLiquidator.sol\":5932:5936  path */\n      dup7\n      swap2\n        /* \"quantum/UBI4ALLLiquidator.sol\":5950:5965  liquidityWallet */\n      and\n        /* \"quantum/UBI4ALLLiquidator.sol\":5979:6015  block.timestamp + DEADLINE_EXTENSION */\n      tag_114\n        /* \"quantum/UBI4ALLLiquidator.sol\":695:705  20 minutes */\n      0x04b0\n        /* \"quantum/UBI4ALLLiquidator.sol\":5979:5994  block.timestamp */\n      timestamp\n        /* \"quantum/UBI4ALLLiquidator.sol\":5979:6015  block.timestamp + DEADLINE_EXTENSION */\n      tag_115\n      jump\t// in\n    tag_114:\n        /* \"quantum/UBI4ALLLiquidator.sol\":5803:6025  uniswapRouter.swapExactTokensForTokensSupportingFeeOnTransferTokens(... */\n      mload(0x40)\n      dup7\n      0xffffffff\n      and\n      0xe0\n      shl\n      dup2\n      mstore\n      0x04\n      add\n      tag_116\n      swap6\n      swap5\n      swap4\n      swap3\n      swap2\n      swap1\n      tag_117\n      jump\t// in\n    tag_116:\n      0x00\n      mload(0x40)\n      dup1\n      dup4\n      sub\n      dup2\n      0x00\n      dup8\n      dup1\n      extcodesize\n      iszero\n      dup1\n      iszero\n      tag_118\n      jumpi\n      0x00\n      dup1\n      revert\n    tag_118:\n      pop\n      gas\n      call\n      iszero\n      dup1\n      iszero\n      tag_120\n      jumpi\n      returndatasize\n      0x00\n      dup1\n      returndatacopy\n      revert(0x00, returndatasize)\n    tag_120:\n      pop\n      pop\n        /* \"quantum/UBI4ALLLiquidator.sol\":6083:6095  ubi4allToken */\n      sload(0x01)\n        /* \"quantum/UBI4ALLLiquidator.sol\":6060:6072  quantumToken */\n      sload(0x02)\n        /* \"quantum/UBI4ALLLiquidator.sol\":6040:6107  QuantumSwap(address(quantumToken), address(ubi4allToken), amountIn) */\n      mload(0x40)\n        /* \"#utility.yul\":2267:2292   */\n      dup8\n      dup2\n      mstore\n      sub(shl(0xa0, 0x01), 0x01)\n        /* \"quantum/UBI4ALLLiquidator.sol\":6083:6095  ubi4allToken */\n      swap3\n      dup4\n      and\n      swap5\n      pop\n        /* \"quantum/UBI4ALLLiquidator.sol\":6060:6072  quantumToken */\n      swap2\n      and\n      swap2\n      pop\n        /* \"quantum/UBI4ALLLiquidator.sol\":6040:6107  QuantumSwap(address(quantumToken), address(ubi4allToken), amountIn) */\n      0xf7ca15d85d6a1558514fff5c2f5a3f009726b7f5dfc61a3f80b7107941beaf1a\n      swap1\n        /* \"#utility.yul\":2255:2257   */\n      0x20\n        /* \"#utility.yul\":2240:2258   */\n      add\n        /* \"quantum/UBI4ALLLiquidator.sol\":6040:6107  QuantumSwap(address(quantumToken), address(ubi4allToken), amountIn) */\n    tag_121:\n      mload(0x40)\n      dup1\n      swap2\n      sub\n      swap1\n      log3\n        /* \"quantum/UBI4ALLLiquidator.sol\":5525:6114  {... */\n      pop\n        /* \"quantum/UBI4ALLLiquidator.sol\":5444:6114  function swapQ4AtoUB4(uint256 amountIn, uint256 amountOutMin) external onlyOwner {... */\n      pop\n      pop\n      jump\t// out\n        /* \"quantum/UBI4ALLLiquidator.sol\":2634:3384  function addLiquidityQ4A(... */\n    tag_37:\n        /* \"@openzeppelin/contracts/access/Ownable.sol\":1531:1544  _checkOwner() */\n      tag_123\n        /* \"@openzeppelin/contracts/access/Ownable.sol\":1531:1542  _checkOwner */\n      tag_92\n        /* \"@openzeppelin/contracts/access/Ownable.sol\":1531:1544  _checkOwner() */\n      jump\t// in\n    tag_123:\n        /* \"quantum/UBI4ALLLiquidator.sol\":2837:2849  quantumToken */\n      sload(0x02)\n        /* \"quantum/UBI4ALLLiquidator.sol\":2837:2897  quantumToken.transferFrom(msg.sender, address(this), amount) */\n      mload(0x40)\n      shl(0xe0, 0x23b872dd)\n      dup2\n      mstore\n        /* \"quantum/UBI4ALLLiquidator.sol\":2809:2827  amountTokenDesired */\n      dup5\n      swap2\n      sub(shl(0xa0, 0x01), 0x01)\n        /* \"quantum/UBI4ALLLiquidator.sol\":2837:2849  quantumToken */\n      and\n      swap1\n        /* \"quantum/UBI4ALLLiquidator.sol\":2837:2862  quantumToken.transferFrom */\n      0x23b872dd\n      swap1\n        /* \"quantum/UBI4ALLLiquidator.sol\":2837:2897  quantumToken.transferFrom(msg.sender, address(this), amount) */\n      tag_125\n      swap1\n        /* \"quantum/UBI4ALLLiquidator.sol\":2863:2873  msg.sender */\n      caller\n      swap1\n        /* \"quantum/UBI4ALLLiquidator.sol\":2883:2887  this */\n      address\n      swap1\n        /* \"quantum/UBI4ALLLiquidator.sol\":2809:2827  amountTokenDesired */\n      dup7\n      swap1\n        /* \"quantum/UBI4ALLLiquidator.sol\":2837:2897  quantumToken.transferFrom(msg.sender, address(this), amount) */\n      0x04\n      add\n      tag_95\n      jump\t// in\n    tag_125:\n      0x20\n      mload(0x40)\n      dup1\n      dup4\n      sub\n      dup2\n      0x00\n      dup8\n      gas\n      call\n      iszero\n      dup1\n      iszero\n      tag_127\n      jumpi\n      returndatasize\n      0x00\n      dup1\n      returndatacopy\n      revert(0x00, returndatasize)\n    tag_127:\n      pop\n      pop\n      pop\n      pop\n      mload(0x40)\n      returndatasize\n      not(0x1f)\n      0x1f\n      dup3\n      add\n      and\n      dup3\n      add\n      dup1\n      0x40\n      mstore\n      pop\n      dup2\n      add\n      swap1\n      tag_128\n      swap2\n      swap1\n      tag_99\n      jump\t// in\n    tag_128:\n      pop\n        /* \"quantum/UBI4ALLLiquidator.sol\":2907:2919  quantumToken */\n      sload(0x02)\n        /* \"quantum/UBI4ALLLiquidator.sol\":2936:2949  uniswapRouter */\n      sload(0x03)\n        /* \"quantum/UBI4ALLLiquidator.sol\":2907:2959  quantumToken.approve(address(uniswapRouter), amount) */\n      mload(0x40)\n      shl(0xe0, 0x095ea7b3)\n      dup2\n      mstore\n      sub(shl(0xa0, 0x01), 0x01)\n        /* \"quantum/UBI4ALLLiquidator.sol\":2936:2949  uniswapRouter */\n      swap2\n      dup3\n      and\n        /* \"quantum/UBI4ALLLiquidator.sol\":2907:2959  quantumToken.approve(address(uniswapRouter), amount) */\n      0x04\n      dup3\n      add\n        /* \"#utility.yul\":3135:3186   */\n      mstore\n        /* \"#utility.yul\":3202:3220   */\n      0x24\n      dup2\n      add\n        /* \"#utility.yul\":3195:3229   */\n      dup5\n      swap1\n      mstore\n        /* \"quantum/UBI4ALLLiquidator.sol\":2907:2919  quantumToken */\n      swap2\n      and\n      swap1\n        /* \"quantum/UBI4ALLLiquidator.sol\":2907:2927  quantumToken.approve */\n      0x095ea7b3\n      swap1\n        /* \"#utility.yul\":3108:3126   */\n      0x44\n      add\n        /* \"quantum/UBI4ALLLiquidator.sol\":2907:2959  quantumToken.approve(address(uniswapRouter), amount) */\n      0x20\n      mload(0x40)\n      dup1\n      dup4\n      sub\n      dup2\n      0x00\n      dup8\n      gas\n      call\n      iszero\n      dup1\n      iszero\n      tag_131\n      jumpi\n      returndatasize\n      0x00\n      dup1\n      returndatacopy\n      revert(0x00, returndatasize)\n    tag_131:\n      pop\n      pop\n      pop\n      pop\n      mload(0x40)\n      returndatasize\n      not(0x1f)\n      0x1f\n      dup3\n      add\n      and\n      dup3\n      add\n      dup1\n      0x40\n      mstore\n      pop\n      dup2\n      add\n      swap1\n      tag_132\n      swap2\n      swap1\n      tag_99\n      jump\t// in\n    tag_132:\n      pop\n        /* \"quantum/UBI4ALLLiquidator.sol\":3032:3045  uniswapRouter */\n      sload(0x03)\n        /* \"quantum/UBI4ALLLiquidator.sol\":3113:3125  quantumToken */\n      sload(0x02)\n        /* \"quantum/UBI4ALLLiquidator.sol\":3214:3229  liquidityWallet */\n      sload(0x05)\n        /* \"quantum/UBI4ALLLiquidator.sol\":2971:2990  uint256 amountToken */\n      0x00\n      swap3\n      dup4\n      swap3\n      dup4\n      swap3\n      sub(shl(0xa0, 0x01), 0x01)\n        /* \"quantum/UBI4ALLLiquidator.sol\":3032:3045  uniswapRouter */\n      swap3\n      dup4\n      and\n      swap3\n        /* \"quantum/UBI4ALLLiquidator.sol\":3032:3061  uniswapRouter.addLiquidityETH */\n      0xf305d719\n      swap3\n        /* \"quantum/UBI4ALLLiquidator.sol\":3069:3090  address(this).balance */\n      selfbalance\n      swap3\n        /* \"quantum/UBI4ALLLiquidator.sol\":3113:3125  quantumToken */\n      swap1\n      dup3\n      and\n      swap2\n        /* \"quantum/UBI4ALLLiquidator.sol\":3140:3146  amount */\n      dup10\n      swap2\n        /* \"quantum/UBI4ALLLiquidator.sol\":3160:3174  amountTokenMin */\n      dup13\n      swap2\n        /* \"quantum/UBI4ALLLiquidator.sol\":3188:3200  amountETHMin */\n      dup13\n      swap2\n        /* \"quantum/UBI4ALLLiquidator.sol\":3214:3229  liquidityWallet */\n      and\n        /* \"quantum/UBI4ALLLiquidator.sol\":3243:3279  block.timestamp + DEADLINE_EXTENSION */\n      tag_133\n        /* \"quantum/UBI4ALLLiquidator.sol\":695:705  20 minutes */\n      0x04b0\n        /* \"quantum/UBI4ALLLiquidator.sol\":3243:3258  block.timestamp */\n      timestamp\n        /* \"quantum/UBI4ALLLiquidator.sol\":3243:3279  block.timestamp + DEADLINE_EXTENSION */\n      tag_115\n      jump\t// in\n    tag_133:\n        /* \"quantum/UBI4ALLLiquidator.sol\":3032:3289  uniswapRouter.addLiquidityETH{value: address(this).balance}(... */\n      mload(0x40)\n      dup9\n      0xffffffff\n      and\n      0xe0\n      shl\n      dup2\n      mstore\n      0x04\n      add\n      tag_134\n      swap7\n      swap6\n      swap5\n      swap4\n      swap3\n      swap2\n      swap1\n      tag_135\n      jump\t// in\n    tag_134:\n      0x60\n      mload(0x40)\n      dup1\n      dup4\n      sub\n      dup2\n      dup6\n      dup9\n      gas\n      call\n      iszero\n      dup1\n      iszero\n      tag_137\n      jumpi\n      returndatasize\n      0x00\n      dup1\n      returndatacopy\n      revert(0x00, returndatasize)\n    tag_137:\n      pop\n      pop\n      pop\n      pop\n      pop\n      mload(0x40)\n      returndatasize\n      not(0x1f)\n      0x1f\n      dup3\n      add\n      and\n      dup3\n      add\n      dup1\n      0x40\n      mstore\n      pop\n      dup2\n      add\n      swap1\n      tag_138\n      swap2\n      swap1\n      tag_139\n      jump\t// in\n    tag_138:\n        /* \"quantum/UBI4ALLLiquidator.sol\":3328:3340  quantumToken */\n      sload(0x02)\n        /* \"quantum/UBI4ALLLiquidator.sol\":3305:3377  LiquidityAdded(address(quantumToken), amountToken, amountETH, liquidity) */\n      0x40\n      dup1\n      mload\n        /* \"#utility.yul\":5977:6002   */\n      dup6\n      dup2\n      mstore\n        /* \"#utility.yul\":6033:6035   */\n      0x20\n        /* \"#utility.yul\":6018:6036   */\n      dup2\n      add\n        /* \"#utility.yul\":6011:6045   */\n      dup6\n      swap1\n      mstore\n        /* \"#utility.yul\":6061:6079   */\n      swap1\n      dup2\n      add\n        /* \"#utility.yul\":6054:6088   */\n      dup4\n      swap1\n      mstore\n        /* \"quantum/UBI4ALLLiquidator.sol\":2970:3289  (uint256 amountToken, uint256 amountETH, uint256 liquidity) = uniswapRouter.addLiquidityETH{value: address(this).balance}(... */\n      swap4\n      swap7\n      pop\n      swap2\n      swap5\n      pop\n      swap3\n      pop\n      sub(shl(0xa0, 0x01), 0x01)\n        /* \"quantum/UBI4ALLLiquidator.sol\":3328:3340  quantumToken */\n      and\n      swap1\n        /* \"quantum/UBI4ALLLiquidator.sol\":3305:3377  LiquidityAdded(address(quantumToken), amountToken, amountETH, liquidity) */\n      0x64b83944e79c3ce8d4c297411de637c3e102d064677aac0c163976ebdcd6f50e\n      swap1\n        /* \"#utility.yul\":5965:5967   */\n      0x60\n        /* \"#utility.yul\":5950:5968   */\n      add\n        /* \"quantum/UBI4ALLLiquidator.sol\":3305:3377  LiquidityAdded(address(quantumToken), amountToken, amountETH, liquidity) */\n    tag_140:\n      mload(0x40)\n      dup1\n      swap2\n      sub\n      swap1\n      log2\n        /* \"quantum/UBI4ALLLiquidator.sol\":2782:3384  {... */\n      pop\n      pop\n      pop\n      pop\n        /* \"quantum/UBI4ALLLiquidator.sol\":2634:3384  function addLiquidityQ4A(... */\n      pop\n      pop\n      pop\n      jump\t// out\n        /* \"quantum/UBI4ALLLiquidator.sol\":3390:4411  function removeLiquidityUB4(... */\n    tag_41:\n        /* \"@openzeppelin/contracts/access/Ownable.sol\":1531:1544  _checkOwner() */\n      tag_143\n        /* \"@openzeppelin/contracts/access/Ownable.sol\":1531:1542  _checkOwner */\n      tag_92\n        /* \"@openzeppelin/contracts/access/Ownable.sol\":1531:1544  _checkOwner() */\n      jump\t// in\n    tag_143:\n        /* \"quantum/UBI4ALLLiquidator.sol\":3557:3571  uniswapFactory */\n      0x04\n      dup1\n      sload\n      0x01\n        /* \"quantum/UBI4ALLLiquidator.sol\":3588:3600  ubi4allToken */\n      sload\n        /* \"quantum/UBI4ALLLiquidator.sol\":3603:3616  uniswapRouter */\n      sload(0x03)\n        /* \"quantum/UBI4ALLLiquidator.sol\":3603:3623  uniswapRouter.WETH() */\n      0x40\n      dup1\n      mload\n      shl(0xe3, 0x15ab88c9)\n      dup2\n      mstore\n      swap1\n      mload\n        /* \"quantum/UBI4ALLLiquidator.sol\":3542:3554  address pair */\n      0x00\n      swap6\n      sub(shl(0xa0, 0x01), 0x01)\n        /* \"quantum/UBI4ALLLiquidator.sol\":3557:3571  uniswapFactory */\n      swap6\n      dup7\n      and\n      swap6\n        /* \"quantum/UBI4ALLLiquidator.sol\":3557:3579  uniswapFactory.getPair */\n      0xe6a43905\n      swap6\n        /* \"quantum/UBI4ALLLiquidator.sol\":3588:3600  ubi4allToken */\n      dup2\n      and\n      swap5\n        /* \"quantum/UBI4ALLLiquidator.sol\":3603:3616  uniswapRouter */\n      and\n      swap3\n        /* \"quantum/UBI4ALLLiquidator.sol\":3603:3621  uniswapRouter.WETH */\n      0xad5c4648\n      swap3\n        /* \"quantum/UBI4ALLLiquidator.sol\":3603:3623  uniswapRouter.WETH() */\n      dup2\n      dup4\n      add\n      swap3\n      0x20\n      swap3\n      dup3\n      swap1\n      sub\n      add\n      dup2\n        /* \"quantum/UBI4ALLLiquidator.sol\":3603:3616  uniswapRouter */\n      dup7\n        /* \"quantum/UBI4ALLLiquidator.sol\":3603:3623  uniswapRouter.WETH() */\n      gas\n      staticcall\n      iszero\n      dup1\n      iszero\n      tag_146\n      jumpi\n      returndatasize\n      0x00\n      dup1\n      returndatacopy\n      revert(0x00, returndatasize)\n    tag_146:\n      pop\n      pop\n      pop\n      pop\n      mload(0x40)\n      returndatasize\n      not(0x1f)\n      0x1f\n      dup3\n      add\n      and\n      dup3\n      add\n      dup1\n      0x40\n      mstore\n      pop\n      dup2\n      add\n      swap1\n      tag_147\n      swap2\n      swap1\n      tag_148\n      jump\t// in\n    tag_147:\n        /* \"quantum/UBI4ALLLiquidator.sol\":3557:3624  uniswapFactory.getPair(address(ubi4allToken), uniswapRouter.WETH()) */\n      mload(0x40)\n      not(sub(shl(0xe0, 0x01), 0x01))\n      0xe0\n      dup6\n      swap1\n      shl\n      and\n      dup2\n      mstore\n      sub(shl(0xa0, 0x01), 0x01)\n        /* \"#utility.yul\":6547:6579   */\n      swap3\n      dup4\n      and\n        /* \"quantum/UBI4ALLLiquidator.sol\":3557:3624  uniswapFactory.getPair(address(ubi4allToken), uniswapRouter.WETH()) */\n      0x04\n      dup3\n      add\n        /* \"#utility.yul\":6529:6580   */\n      mstore\n        /* \"#utility.yul\":6616:6648   */\n      swap2\n      and\n        /* \"#utility.yul\":6596:6614   */\n      0x24\n      dup3\n      add\n        /* \"#utility.yul\":6589:6649   */\n      mstore\n        /* \"#utility.yul\":6502:6520   */\n      0x44\n      add\n        /* \"quantum/UBI4ALLLiquidator.sol\":3557:3624  uniswapFactory.getPair(address(ubi4allToken), uniswapRouter.WETH()) */\n      0x20\n      mload(0x40)\n      dup1\n      dup4\n      sub\n      dup2\n      dup7\n      gas\n      staticcall\n      iszero\n      dup1\n      iszero\n      tag_152\n      jumpi\n      returndatasize\n      0x00\n      dup1\n      returndatacopy\n      revert(0x00, returndatasize)\n    tag_152:\n      pop\n      pop\n      pop\n      pop\n      mload(0x40)\n      returndatasize\n      not(0x1f)\n      0x1f\n      dup3\n      add\n      and\n      dup3\n      add\n      dup1\n      0x40\n      mstore\n      pop\n      dup2\n      add\n      swap1\n      tag_153\n      swap2\n      swap1\n      tag_148\n      jump\t// in\n    tag_153:\n        /* \"quantum/UBI4ALLLiquidator.sol\":3663:3676  uniswapRouter */\n      sload(0x03)\n        /* \"quantum/UBI4ALLLiquidator.sol\":3634:3689  IERC20(pair).approve(address(uniswapRouter), liquidity) */\n      mload(0x40)\n      shl(0xe0, 0x095ea7b3)\n      dup2\n      mstore\n      sub(shl(0xa0, 0x01), 0x01)\n        /* \"quantum/UBI4ALLLiquidator.sol\":3663:3676  uniswapRouter */\n      swap2\n      dup3\n      and\n        /* \"quantum/UBI4ALLLiquidator.sol\":3634:3689  IERC20(pair).approve(address(uniswapRouter), liquidity) */\n      0x04\n      dup3\n      add\n        /* \"#utility.yul\":3135:3186   */\n      mstore\n        /* \"#utility.yul\":3202:3220   */\n      0x24\n      dup2\n      add\n        /* \"#utility.yul\":3195:3229   */\n      dup8\n      swap1\n      mstore\n        /* \"quantum/UBI4ALLLiquidator.sol\":3542:3624  address pair = uniswapFactory.getPair(address(ubi4allToken), uniswapRouter.WETH()) */\n      swap2\n      swap3\n      pop\n        /* \"quantum/UBI4ALLLiquidator.sol\":3634:3654  IERC20(pair).approve */\n      dup3\n      and\n      swap1\n      0x095ea7b3\n      swap1\n        /* \"#utility.yul\":3108:3126   */\n      0x44\n      add\n        /* \"quantum/UBI4ALLLiquidator.sol\":3634:3689  IERC20(pair).approve(address(uniswapRouter), liquidity) */\n      0x20\n      mload(0x40)\n      dup1\n      dup4\n      sub\n      dup2\n      0x00\n      dup8\n      gas\n      call\n      iszero\n      dup1\n      iszero\n      tag_156\n      jumpi\n      returndatasize\n      0x00\n      dup1\n      returndatacopy\n      revert(0x00, returndatasize)\n    tag_156:\n      pop\n      pop\n      pop\n      pop\n      mload(0x40)\n      returndatasize\n      not(0x1f)\n      0x1f\n      dup3\n      add\n      and\n      dup3\n      add\n      dup1\n      0x40\n      mstore\n      pop\n      dup2\n      add\n      swap1\n      tag_157\n      swap2\n      swap1\n      tag_99\n      jump\t// in\n    tag_157:\n      pop\n        /* \"quantum/UBI4ALLLiquidator.sol\":3789:3801  ubi4allToken */\n      sload(0x01)\n        /* \"quantum/UBI4ALLLiquidator.sol\":3812:3827  liquidityWallet */\n      sload(0x05)\n        /* \"quantum/UBI4ALLLiquidator.sol\":3789:3828  ubi4allToken.balanceOf(liquidityWallet) */\n      mload(0x40)\n      shl(0xe0, 0x70a08231)\n      dup2\n      mstore\n      sub(shl(0xa0, 0x01), 0x01)\n        /* \"quantum/UBI4ALLLiquidator.sol\":3812:3827  liquidityWallet */\n      swap2\n      dup3\n      and\n        /* \"quantum/UBI4ALLLiquidator.sol\":3789:3828  ubi4allToken.balanceOf(liquidityWallet) */\n      0x04\n      dup3\n      add\n        /* \"#utility.yul\":174:225   */\n      mstore\n        /* \"quantum/UBI4ALLLiquidator.sol\":3760:3786  uint256 tokenBalanceBefore */\n      0x00\n      swap3\n        /* \"quantum/UBI4ALLLiquidator.sol\":3789:3801  ubi4allToken */\n      swap2\n      swap1\n      swap2\n      and\n      swap1\n        /* \"quantum/UBI4ALLLiquidator.sol\":3789:3811  ubi4allToken.balanceOf */\n      0x70a08231\n      swap1\n        /* \"#utility.yul\":147:165   */\n      0x24\n      add\n        /* \"quantum/UBI4ALLLiquidator.sol\":3789:3828  ubi4allToken.balanceOf(liquidityWallet) */\n      0x20\n      mload(0x40)\n      dup1\n      dup4\n      sub\n      dup2\n      dup7\n      gas\n      staticcall\n      iszero\n      dup1\n      iszero\n      tag_160\n      jumpi\n      returndatasize\n      0x00\n      dup1\n      returndatacopy\n      revert(0x00, returndatasize)\n    tag_160:\n      pop\n      pop\n      pop\n      pop\n      mload(0x40)\n      returndatasize\n      not(0x1f)\n      0x1f\n      dup3\n      add\n      and\n      dup3\n      add\n      dup1\n      0x40\n      mstore\n      pop\n      dup2\n      add\n      swap1\n      tag_161\n      swap2\n      swap1\n      tag_162\n      jump\t// in\n    tag_161:\n        /* \"quantum/UBI4ALLLiquidator.sol\":3859:3872  uniswapRouter */\n      sload(0x03)\n      0x01\n        /* \"quantum/UBI4ALLLiquidator.sol\":3942:3954  ubi4allToken */\n      sload\n        /* \"quantum/UBI4ALLLiquidator.sol\":4046:4061  liquidityWallet */\n      sload(0x05)\n        /* \"quantum/UBI4ALLLiquidator.sol\":3760:3828  uint256 tokenBalanceBefore = ubi4allToken.balanceOf(liquidityWallet) */\n      swap3\n      swap4\n      pop\n        /* \"quantum/UBI4ALLLiquidator.sol\":3839:3856  uint256 amountETH */\n      0x00\n      swap3\n      sub(shl(0xa0, 0x01), 0x01)\n        /* \"quantum/UBI4ALLLiquidator.sol\":3859:3872  uniswapRouter */\n      swap3\n      dup4\n      and\n      swap3\n        /* \"quantum/UBI4ALLLiquidator.sol\":3859:3920  uniswapRouter.removeLiquidityETHSupportingFeeOnTransferTokens */\n      0xaf2979eb\n      swap3\n        /* \"quantum/UBI4ALLLiquidator.sol\":3942:3954  ubi4allToken */\n      dup2\n      and\n      swap2\n        /* \"quantum/UBI4ALLLiquidator.sol\":3969:3978  liquidity */\n      dup11\n      swap2\n        /* \"quantum/UBI4ALLLiquidator.sol\":3992:4006  amountTokenMin */\n      dup11\n      swap2\n        /* \"quantum/UBI4ALLLiquidator.sol\":4020:4032  amountETHMin */\n      dup11\n      swap2\n        /* \"quantum/UBI4ALLLiquidator.sol\":4046:4061  liquidityWallet */\n      and\n        /* \"quantum/UBI4ALLLiquidator.sol\":4075:4111  block.timestamp + DEADLINE_EXTENSION */\n      tag_163\n        /* \"quantum/UBI4ALLLiquidator.sol\":695:705  20 minutes */\n      0x04b0\n        /* \"quantum/UBI4ALLLiquidator.sol\":4075:4090  block.timestamp */\n      timestamp\n        /* \"quantum/UBI4ALLLiquidator.sol\":4075:4111  block.timestamp + DEADLINE_EXTENSION */\n      tag_115\n      jump\t// in\n    tag_163:\n        /* \"quantum/UBI4ALLLiquidator.sol\":3859:4121  uniswapRouter.removeLiquidityETHSupportingFeeOnTransferTokens(... */\n      mload(0x40)\n      dup8\n      0xffffffff\n      and\n      0xe0\n      shl\n      dup2\n      mstore\n      0x04\n      add\n      tag_164\n      swap7\n      swap6\n      swap5\n      swap4\n      swap3\n      swap2\n      swap1\n      tag_135\n      jump\t// in\n    tag_164:\n      0x20\n      mload(0x40)\n      dup1\n      dup4\n      sub\n      dup2\n      0x00\n      dup8\n      gas\n      call\n      iszero\n      dup1\n      iszero\n      tag_166\n      jumpi\n      returndatasize\n      0x00\n      dup1\n      returndatacopy\n      revert(0x00, returndatasize)\n    tag_166:\n      pop\n      pop\n      pop\n      pop\n      mload(0x40)\n      returndatasize\n      not(0x1f)\n      0x1f\n      dup3\n      add\n      and\n      dup3\n      add\n      dup1\n      0x40\n      mstore\n      pop\n      dup2\n      add\n      swap1\n      tag_167\n      swap2\n      swap1\n      tag_162\n      jump\t// in\n    tag_167:\n        /* \"quantum/UBI4ALLLiquidator.sol\":4216:4228  ubi4allToken */\n      sload(0x01)\n        /* \"quantum/UBI4ALLLiquidator.sol\":4239:4254  liquidityWallet */\n      sload(0x05)\n        /* \"quantum/UBI4ALLLiquidator.sol\":4216:4255  ubi4allToken.balanceOf(liquidityWallet) */\n      mload(0x40)\n      shl(0xe0, 0x70a08231)\n      dup2\n      mstore\n      sub(shl(0xa0, 0x01), 0x01)\n        /* \"quantum/UBI4ALLLiquidator.sol\":4239:4254  liquidityWallet */\n      swap2\n      dup3\n      and\n        /* \"quantum/UBI4ALLLiquidator.sol\":4216:4255  ubi4allToken.balanceOf(liquidityWallet) */\n      0x04\n      dup3\n      add\n        /* \"#utility.yul\":174:225   */\n      mstore\n        /* \"quantum/UBI4ALLLiquidator.sol\":3839:4121  uint256 amountETH = uniswapRouter.removeLiquidityETHSupportingFeeOnTransferTokens(... */\n      swap3\n      swap4\n      pop\n        /* \"quantum/UBI4ALLLiquidator.sol\":4188:4213  uint256 tokenBalanceAfter */\n      0x00\n      swap3\n        /* \"quantum/UBI4ALLLiquidator.sol\":4216:4228  ubi4allToken */\n      swap2\n      and\n      swap1\n        /* \"quantum/UBI4ALLLiquidator.sol\":4216:4238  ubi4allToken.balanceOf */\n      0x70a08231\n      swap1\n        /* \"#utility.yul\":147:165   */\n      0x24\n      add\n        /* \"quantum/UBI4ALLLiquidator.sol\":4216:4255  ubi4allToken.balanceOf(liquidityWallet) */\n      0x20\n      mload(0x40)\n      dup1\n      dup4\n      sub\n      dup2\n      dup7\n      gas\n      staticcall\n      iszero\n      dup1\n      iszero\n      tag_170\n      jumpi\n      returndatasize\n      0x00\n      dup1\n      returndatacopy\n      revert(0x00, returndatasize)\n    tag_170:\n      pop\n      pop\n      pop\n      pop\n      mload(0x40)\n      returndatasize\n      not(0x1f)\n      0x1f\n      dup3\n      add\n      and\n      dup3\n      add\n      dup1\n      0x40\n      mstore\n      pop\n      dup2\n      add\n      swap1\n      tag_171\n      swap2\n      swap1\n      tag_162\n      jump\t// in\n    tag_171:\n        /* \"quantum/UBI4ALLLiquidator.sol\":4188:4255  uint256 tokenBalanceAfter = ubi4allToken.balanceOf(liquidityWallet) */\n      swap1\n      pop\n        /* \"quantum/UBI4ALLLiquidator.sol\":4265:4284  uint256 amountToken */\n      0x00\n        /* \"quantum/UBI4ALLLiquidator.sol\":4287:4325  tokenBalanceAfter - tokenBalanceBefore */\n      tag_172\n        /* \"quantum/UBI4ALLLiquidator.sol\":4307:4325  tokenBalanceBefore */\n      dup5\n        /* \"quantum/UBI4ALLLiquidator.sol\":4188:4255  uint256 tokenBalanceAfter = ubi4allToken.balanceOf(liquidityWallet) */\n      dup4\n        /* \"quantum/UBI4ALLLiquidator.sol\":4287:4325  tokenBalanceAfter - tokenBalanceBefore */\n      tag_173\n      jump\t// in\n    tag_172:\n        /* \"quantum/UBI4ALLLiquidator.sol\":4366:4378  ubi4allToken */\n      sload(0x01)\n        /* \"quantum/UBI4ALLLiquidator.sol\":4341:4404  LiquidityRemoved(address(ubi4allToken), amountToken, amountETH) */\n      0x40\n      dup1\n      mload\n        /* \"#utility.yul\":7202:7227   */\n      dup4\n      dup2\n      mstore\n        /* \"#utility.yul\":7258:7260   */\n      0x20\n        /* \"#utility.yul\":7243:7261   */\n      dup2\n      add\n        /* \"#utility.yul\":7236:7270   */\n      dup8\n      swap1\n      mstore\n        /* \"quantum/UBI4ALLLiquidator.sol\":4265:4325  uint256 amountToken = tokenBalanceAfter - tokenBalanceBefore */\n      swap3\n      swap4\n      pop\n      sub(shl(0xa0, 0x01), 0x01)\n        /* \"quantum/UBI4ALLLiquidator.sol\":4366:4378  ubi4allToken */\n      swap1\n      swap2\n      and\n      swap2\n        /* \"quantum/UBI4ALLLiquidator.sol\":4341:4404  LiquidityRemoved(address(ubi4allToken), amountToken, amountETH) */\n      0x96cd817c6329656790ef8fba7675405193677d39619571282f5e21f3a98cd059\n      swap2\n        /* \"#utility.yul\":7175:7193   */\n      add\n        /* \"quantum/UBI4ALLLiquidator.sol\":4341:4404  LiquidityRemoved(address(ubi4allToken), amountToken, amountETH) */\n    tag_174:\n      mload(0x40)\n      dup1\n      swap2\n      sub\n      swap1\n      log2\n        /* \"quantum/UBI4ALLLiquidator.sol\":3532:4411  {... */\n      pop\n      pop\n      pop\n      pop\n      pop\n        /* \"quantum/UBI4ALLLiquidator.sol\":3390:4411  function removeLiquidityUB4(... */\n      pop\n      pop\n      pop\n      jump\t// out\n        /* \"@openzeppelin/contracts/access/Ownable.sol\":2293:2394  function renounceOwnership() public virtual onlyOwner {... */\n    tag_44:\n        /* \"@openzeppelin/contracts/access/Ownable.sol\":1531:1544  _checkOwner() */\n      tag_177\n        /* \"@openzeppelin/contracts/access/Ownable.sol\":1531:1542  _checkOwner */\n      tag_92\n        /* \"@openzeppelin/contracts/access/Ownable.sol\":1531:1544  _checkOwner() */\n      jump\t// in\n    tag_177:\n        /* \"@openzeppelin/contracts/access/Ownable.sol\":2357:2387  _transferOwnership(address(0)) */\n      tag_179\n        /* \"@openzeppelin/contracts/access/Ownable.sol\":2384:2385  0 */\n      0x00\n        /* \"@openzeppelin/contracts/access/Ownable.sol\":2357:2375  _transferOwnership */\n      tag_180\n        /* \"@openzeppelin/contracts/access/Ownable.sol\":2357:2387  _transferOwnership(address(0)) */\n      jump\t// in\n    tag_179:\n        /* \"@openzeppelin/contracts/access/Ownable.sol\":2293:2394  function renounceOwnership() public virtual onlyOwner {... */\n      jump\t// out\n        /* \"quantum/UBI4ALLLiquidator.sol\":4417:5438  function removeLiquidityQ4A(... */\n    tag_67:\n        /* \"@openzeppelin/contracts/access/Ownable.sol\":1531:1544  _checkOwner() */\n      tag_183\n        /* \"@openzeppelin/contracts/access/Ownable.sol\":1531:1542  _checkOwner */\n      tag_92\n        /* \"@openzeppelin/contracts/access/Ownable.sol\":1531:1544  _checkOwner() */\n      jump\t// in\n    tag_183:\n        /* \"quantum/UBI4ALLLiquidator.sol\":4584:4598  uniswapFactory */\n      0x04\n      dup1\n      sload\n        /* \"quantum/UBI4ALLLiquidator.sol\":4615:4627  quantumToken */\n      sload(0x02)\n        /* \"quantum/UBI4ALLLiquidator.sol\":4630:4643  uniswapRouter */\n      sload(0x03)\n        /* \"quantum/UBI4ALLLiquidator.sol\":4630:4650  uniswapRouter.WETH() */\n      0x40\n      dup1\n      mload\n      shl(0xe3, 0x15ab88c9)\n      dup2\n      mstore\n      swap1\n      mload\n        /* \"quantum/UBI4ALLLiquidator.sol\":4569:4581  address pair */\n      0x00\n      swap6\n      sub(shl(0xa0, 0x01), 0x01)\n        /* \"quantum/UBI4ALLLiquidator.sol\":4584:4598  uniswapFactory */\n      swap6\n      dup7\n      and\n      swap6\n        /* \"quantum/UBI4ALLLiquidator.sol\":4584:4606  uniswapFactory.getPair */\n      0xe6a43905\n      swap6\n        /* \"quantum/UBI4ALLLiquidator.sol\":4615:4627  quantumToken */\n      dup2\n      and\n      swap5\n        /* \"quantum/UBI4ALLLiquidator.sol\":4630:4643  uniswapRouter */\n      and\n      swap3\n        /* \"quantum/UBI4ALLLiquidator.sol\":4630:4648  uniswapRouter.WETH */\n      0xad5c4648\n      swap3\n        /* \"quantum/UBI4ALLLiquidator.sol\":4630:4650  uniswapRouter.WETH() */\n      dup2\n      dup4\n      add\n      swap3\n      0x20\n      swap3\n      dup3\n      swap1\n      sub\n      add\n      dup2\n        /* \"quantum/UBI4ALLLiquidator.sol\":4630:4643  uniswapRouter */\n      dup7\n        /* \"quantum/UBI4ALLLiquidator.sol\":4630:4650  uniswapRouter.WETH() */\n      gas\n      staticcall\n      iszero\n      dup1\n      iszero\n      tag_186\n      jumpi\n      returndatasize\n      0x00\n      dup1\n      returndatacopy\n      revert(0x00, returndatasize)\n    tag_186:\n      pop\n      pop\n      pop\n      pop\n      mload(0x40)\n      returndatasize\n      not(0x1f)\n      0x1f\n      dup3\n      add\n      and\n      dup3\n      add\n      dup1\n      0x40\n      mstore\n      pop\n      dup2\n      add\n      swap1\n      tag_187\n      swap2\n      swap1\n      tag_148\n      jump\t// in\n    tag_187:\n        /* \"quantum/UBI4ALLLiquidator.sol\":4584:4651  uniswapFactory.getPair(address(quantumToken), uniswapRouter.WETH()) */\n      mload(0x40)\n      not(sub(shl(0xe0, 0x01), 0x01))\n      0xe0\n      dup6\n      swap1\n      shl\n      and\n      dup2\n      mstore\n      sub(shl(0xa0, 0x01), 0x01)\n        /* \"#utility.yul\":6547:6579   */\n      swap3\n      dup4\n      and\n        /* \"quantum/UBI4ALLLiquidator.sol\":4584:4651  uniswapFactory.getPair(address(quantumToken), uniswapRouter.WETH()) */\n      0x04\n      dup3\n      add\n        /* \"#utility.yul\":6529:6580   */\n      mstore\n        /* \"#utility.yul\":6616:6648   */\n      swap2\n      and\n        /* \"#utility.yul\":6596:6614   */\n      0x24\n      dup3\n      add\n        /* \"#utility.yul\":6589:6649   */\n      mstore\n        /* \"#utility.yul\":6502:6520   */\n      0x44\n      add\n        /* \"quantum/UBI4ALLLiquidator.sol\":4584:4651  uniswapFactory.getPair(address(quantumToken), uniswapRouter.WETH()) */\n      0x20\n      mload(0x40)\n      dup1\n      dup4\n      sub\n      dup2\n      dup7\n      gas\n      staticcall\n      iszero\n      dup1\n      iszero\n      tag_190\n      jumpi\n      returndatasize\n      0x00\n      dup1\n      returndatacopy\n      revert(0x00, returndatasize)\n    tag_190:\n      pop\n      pop\n      pop\n      pop\n      mload(0x40)\n      returndatasize\n      not(0x1f)\n      0x1f\n      dup3\n      add\n      and\n      dup3\n      add\n      dup1\n      0x40\n      mstore\n      pop\n      dup2\n      add\n      swap1\n      tag_191\n      swap2\n      swap1\n      tag_148\n      jump\t// in\n    tag_191:\n        /* \"quantum/UBI4ALLLiquidator.sol\":4690:4703  uniswapRouter */\n      sload(0x03)\n        /* \"quantum/UBI4ALLLiquidator.sol\":4661:4716  IERC20(pair).approve(address(uniswapRouter), liquidity) */\n      mload(0x40)\n      shl(0xe0, 0x095ea7b3)\n      dup2\n      mstore\n      sub(shl(0xa0, 0x01), 0x01)\n        /* \"quantum/UBI4ALLLiquidator.sol\":4690:4703  uniswapRouter */\n      swap2\n      dup3\n      and\n        /* \"quantum/UBI4ALLLiquidator.sol\":4661:4716  IERC20(pair).approve(address(uniswapRouter), liquidity) */\n      0x04\n      dup3\n      add\n        /* \"#utility.yul\":3135:3186   */\n      mstore\n        /* \"#utility.yul\":3202:3220   */\n      0x24\n      dup2\n      add\n        /* \"#utility.yul\":3195:3229   */\n      dup8\n      swap1\n      mstore\n        /* \"quantum/UBI4ALLLiquidator.sol\":4569:4651  address pair = uniswapFactory.getPair(address(quantumToken), uniswapRouter.WETH()) */\n      swap2\n      swap3\n      pop\n        /* \"quantum/UBI4ALLLiquidator.sol\":4661:4681  IERC20(pair).approve */\n      dup3\n      and\n      swap1\n      0x095ea7b3\n      swap1\n        /* \"#utility.yul\":3108:3126   */\n      0x44\n      add\n        /* \"quantum/UBI4ALLLiquidator.sol\":4661:4716  IERC20(pair).approve(address(uniswapRouter), liquidity) */\n      0x20\n      mload(0x40)\n      dup1\n      dup4\n      sub\n      dup2\n      0x00\n      dup8\n      gas\n      call\n      iszero\n      dup1\n      iszero\n      tag_194\n      jumpi\n      returndatasize\n      0x00\n      dup1\n      returndatacopy\n      revert(0x00, returndatasize)\n    tag_194:\n      pop\n      pop\n      pop\n      pop\n      mload(0x40)\n      returndatasize\n      not(0x1f)\n      0x1f\n      dup3\n      add\n      and\n      dup3\n      add\n      dup1\n      0x40\n      mstore\n      pop\n      dup2\n      add\n      swap1\n      tag_195\n      swap2\n      swap1\n      tag_99\n      jump\t// in\n    tag_195:\n      pop\n        /* \"quantum/UBI4ALLLiquidator.sol\":4816:4828  quantumToken */\n      sload(0x02)\n        /* \"quantum/UBI4ALLLiquidator.sol\":4839:4854  liquidityWallet */\n      sload(0x05)\n        /* \"quantum/UBI4ALLLiquidator.sol\":4816:4855  quantumToken.balanceOf(liquidityWallet) */\n      mload(0x40)\n      shl(0xe0, 0x70a08231)\n      dup2\n      mstore\n      sub(shl(0xa0, 0x01), 0x01)\n        /* \"quantum/UBI4ALLLiquidator.sol\":4839:4854  liquidityWallet */\n      swap2\n      dup3\n      and\n        /* \"quantum/UBI4ALLLiquidator.sol\":4816:4855  quantumToken.balanceOf(liquidityWallet) */\n      0x04\n      dup3\n      add\n        /* \"#utility.yul\":174:225   */\n      mstore\n        /* \"quantum/UBI4ALLLiquidator.sol\":4787:4813  uint256 tokenBalanceBefore */\n      0x00\n      swap3\n        /* \"quantum/UBI4ALLLiquidator.sol\":4816:4828  quantumToken */\n      swap2\n      swap1\n      swap2\n      and\n      swap1\n        /* \"quantum/UBI4ALLLiquidator.sol\":4816:4838  quantumToken.balanceOf */\n      0x70a08231\n      swap1\n        /* \"#utility.yul\":147:165   */\n      0x24\n      add\n        /* \"quantum/UBI4ALLLiquidator.sol\":4816:4855  quantumToken.balanceOf(liquidityWallet) */\n      0x20\n      mload(0x40)\n      dup1\n      dup4\n      sub\n      dup2\n      dup7\n      gas\n      staticcall\n      iszero\n      dup1\n      iszero\n      tag_198\n      jumpi\n      returndatasize\n      0x00\n      dup1\n      returndatacopy\n      revert(0x00, returndatasize)\n    tag_198:\n      pop\n      pop\n      pop\n      pop\n      mload(0x40)\n      returndatasize\n      not(0x1f)\n      0x1f\n      dup3\n      add\n      and\n      dup3\n      add\n      dup1\n      0x40\n      mstore\n      pop\n      dup2\n      add\n      swap1\n      tag_199\n      swap2\n      swap1\n      tag_162\n      jump\t// in\n    tag_199:\n        /* \"quantum/UBI4ALLLiquidator.sol\":4886:4899  uniswapRouter */\n      sload(0x03)\n        /* \"quantum/UBI4ALLLiquidator.sol\":4969:4981  quantumToken */\n      sload(0x02)\n        /* \"quantum/UBI4ALLLiquidator.sol\":5073:5088  liquidityWallet */\n      sload(0x05)\n        /* \"quantum/UBI4ALLLiquidator.sol\":4787:4855  uint256 tokenBalanceBefore = quantumToken.balanceOf(liquidityWallet) */\n      swap3\n      swap4\n      pop\n        /* \"quantum/UBI4ALLLiquidator.sol\":4866:4883  uint256 amountETH */\n      0x00\n      swap3\n      sub(shl(0xa0, 0x01), 0x01)\n        /* \"quantum/UBI4ALLLiquidator.sol\":4886:4899  uniswapRouter */\n      swap3\n      dup4\n      and\n      swap3\n        /* \"quantum/UBI4ALLLiquidator.sol\":4886:4947  uniswapRouter.removeLiquidityETHSupportingFeeOnTransferTokens */\n      0xaf2979eb\n      swap3\n        /* \"quantum/UBI4ALLLiquidator.sol\":4969:4981  quantumToken */\n      dup2\n      and\n      swap2\n        /* \"quantum/UBI4ALLLiquidator.sol\":4996:5005  liquidity */\n      dup11\n      swap2\n        /* \"quantum/UBI4ALLLiquidator.sol\":5019:5033  amountTokenMin */\n      dup11\n      swap2\n        /* \"quantum/UBI4ALLLiquidator.sol\":5047:5059  amountETHMin */\n      dup11\n      swap2\n        /* \"quantum/UBI4ALLLiquidator.sol\":5073:5088  liquidityWallet */\n      and\n        /* \"quantum/UBI4ALLLiquidator.sol\":5102:5138  block.timestamp + DEADLINE_EXTENSION */\n      tag_200\n        /* \"quantum/UBI4ALLLiquidator.sol\":695:705  20 minutes */\n      0x04b0\n        /* \"quantum/UBI4ALLLiquidator.sol\":5102:5117  block.timestamp */\n      timestamp\n        /* \"quantum/UBI4ALLLiquidator.sol\":5102:5138  block.timestamp + DEADLINE_EXTENSION */\n      tag_115\n      jump\t// in\n    tag_200:\n        /* \"quantum/UBI4ALLLiquidator.sol\":4886:5148  uniswapRouter.removeLiquidityETHSupportingFeeOnTransferTokens(... */\n      mload(0x40)\n      dup8\n      0xffffffff\n      and\n      0xe0\n      shl\n      dup2\n      mstore\n      0x04\n      add\n      tag_201\n      swap7\n      swap6\n      swap5\n      swap4\n      swap3\n      swap2\n      swap1\n      tag_135\n      jump\t// in\n    tag_201:\n      0x20\n      mload(0x40)\n      dup1\n      dup4\n      sub\n      dup2\n      0x00\n      dup8\n      gas\n      call\n      iszero\n      dup1\n      iszero\n      tag_203\n      jumpi\n      returndatasize\n      0x00\n      dup1\n      returndatacopy\n      revert(0x00, returndatasize)\n    tag_203:\n      pop\n      pop\n      pop\n      pop\n      mload(0x40)\n      returndatasize\n      not(0x1f)\n      0x1f\n      dup3\n      add\n      and\n      dup3\n      add\n      dup1\n      0x40\n      mstore\n      pop\n      dup2\n      add\n      swap1\n      tag_204\n      swap2\n      swap1\n      tag_162\n      jump\t// in\n    tag_204:\n        /* \"quantum/UBI4ALLLiquidator.sol\":5243:5255  quantumToken */\n      sload(0x02)\n        /* \"quantum/UBI4ALLLiquidator.sol\":5266:5281  liquidityWallet */\n      sload(0x05)\n        /* \"quantum/UBI4ALLLiquidator.sol\":5243:5282  quantumToken.balanceOf(liquidityWallet) */\n      mload(0x40)\n      shl(0xe0, 0x70a08231)\n      dup2\n      mstore\n      sub(shl(0xa0, 0x01), 0x01)\n        /* \"quantum/UBI4ALLLiquidator.sol\":5266:5281  liquidityWallet */\n      swap2\n      dup3\n      and\n        /* \"quantum/UBI4ALLLiquidator.sol\":5243:5282  quantumToken.balanceOf(liquidityWallet) */\n      0x04\n      dup3\n      add\n        /* \"#utility.yul\":174:225   */\n      mstore\n        /* \"quantum/UBI4ALLLiquidator.sol\":4866:5148  uint256 amountETH = uniswapRouter.removeLiquidityETHSupportingFeeOnTransferTokens(... */\n      swap3\n      swap4\n      pop\n        /* \"quantum/UBI4ALLLiquidator.sol\":5215:5240  uint256 tokenBalanceAfter */\n      0x00\n      swap3\n        /* \"quantum/UBI4ALLLiquidator.sol\":5243:5255  quantumToken */\n      swap2\n      and\n      swap1\n        /* \"quantum/UBI4ALLLiquidator.sol\":5243:5265  quantumToken.balanceOf */\n      0x70a08231\n      swap1\n        /* \"#utility.yul\":147:165   */\n      0x24\n      add\n        /* \"quantum/UBI4ALLLiquidator.sol\":5243:5282  quantumToken.balanceOf(liquidityWallet) */\n      0x20\n      mload(0x40)\n      dup1\n      dup4\n      sub\n      dup2\n      dup7\n      gas\n      staticcall\n      iszero\n      dup1\n      iszero\n      tag_207\n      jumpi\n      returndatasize\n      0x00\n      dup1\n      returndatacopy\n      revert(0x00, returndatasize)\n    tag_207:\n      pop\n      pop\n      pop\n      pop\n      mload(0x40)\n      returndatasize\n      not(0x1f)\n      0x1f\n      dup3\n      add\n      and\n      dup3\n      add\n      dup1\n      0x40\n      mstore\n      pop\n      dup2\n      add\n      swap1\n      tag_208\n      swap2\n      swap1\n      tag_162\n      jump\t// in\n    tag_208:\n        /* \"quantum/UBI4ALLLiquidator.sol\":5215:5282  uint256 tokenBalanceAfter = quantumToken.balanceOf(liquidityWallet) */\n      swap1\n      pop\n        /* \"quantum/UBI4ALLLiquidator.sol\":5292:5311  uint256 amountToken */\n      0x00\n        /* \"quantum/UBI4ALLLiquidator.sol\":5314:5352  tokenBalanceAfter - tokenBalanceBefore */\n      tag_209\n        /* \"quantum/UBI4ALLLiquidator.sol\":5334:5352  tokenBalanceBefore */\n      dup5\n        /* \"quantum/UBI4ALLLiquidator.sol\":5215:5282  uint256 tokenBalanceAfter = quantumToken.balanceOf(liquidityWallet) */\n      dup4\n        /* \"quantum/UBI4ALLLiquidator.sol\":5314:5352  tokenBalanceAfter - tokenBalanceBefore */\n      tag_173\n      jump\t// in\n    tag_209:\n        /* \"quantum/UBI4ALLLiquidator.sol\":5393:5405  quantumToken */\n      sload(0x02)\n        /* \"quantum/UBI4ALLLiquidator.sol\":5368:5431  LiquidityRemoved(address(quantumToken), amountToken, amountETH) */\n      0x40\n      dup1\n      mload\n        /* \"#utility.yul\":7202:7227   */\n      dup4\n      dup2\n      mstore\n        /* \"#utility.yul\":7258:7260   */\n      0x20\n        /* \"#utility.yul\":7243:7261   */\n      dup2\n      add\n        /* \"#utility.yul\":7236:7270   */\n      dup8\n      swap1\n      mstore\n        /* \"quantum/UBI4ALLLiquidator.sol\":5292:5352  uint256 amountToken = tokenBalanceAfter - tokenBalanceBefore */\n      swap3\n      swap4\n      pop\n      sub(shl(0xa0, 0x01), 0x01)\n        /* \"quantum/UBI4ALLLiquidator.sol\":5393:5405  quantumToken */\n      swap1\n      swap2\n      and\n      swap2\n        /* \"quantum/UBI4ALLLiquidator.sol\":5368:5431  LiquidityRemoved(address(quantumToken), amountToken, amountETH) */\n      0x96cd817c6329656790ef8fba7675405193677d39619571282f5e21f3a98cd059\n      swap2\n        /* \"#utility.yul\":7175:7193   */\n      add\n        /* \"quantum/UBI4ALLLiquidator.sol\":5368:5431  LiquidityRemoved(address(quantumToken), amountToken, amountETH) */\n      tag_174\n        /* \"#utility.yul\":7028:7276   */\n      jump\n        /* \"quantum/UBI4ALLLiquidator.sol\":6120:6790  function swapUB4toQ4A(uint256 amountIn, uint256 amountOutMin) external onlyOwner {... */\n    tag_71:\n        /* \"@openzeppelin/contracts/access/Ownable.sol\":1531:1544  _checkOwner() */\n      tag_212\n        /* \"@openzeppelin/contracts/access/Ownable.sol\":1531:1542  _checkOwner */\n      tag_92\n        /* \"@openzeppelin/contracts/access/Ownable.sol\":1531:1544  _checkOwner() */\n      jump\t// in\n    tag_212:\n        /* \"quantum/UBI4ALLLiquidator.sol\":6211:6223  ubi4allToken */\n      sload(0x01)\n        /* \"quantum/UBI4ALLLiquidator.sol\":6211:6273  ubi4allToken.transferFrom(msg.sender, address(this), amountIn) */\n      mload(0x40)\n      shl(0xe0, 0x23b872dd)\n      dup2\n      mstore\n      sub(shl(0xa0, 0x01), 0x01)\n        /* \"quantum/UBI4ALLLiquidator.sol\":6211:6223  ubi4allToken */\n      swap1\n      swap2\n      and\n      swap1\n        /* \"quantum/UBI4ALLLiquidator.sol\":6211:6236  ubi4allToken.transferFrom */\n      0x23b872dd\n      swap1\n        /* \"quantum/UBI4ALLLiquidator.sol\":6211:6273  ubi4allToken.transferFrom(msg.sender, address(this), amountIn) */\n      tag_214\n      swap1\n        /* \"quantum/UBI4ALLLiquidator.sol\":6237:6247  msg.sender */\n      caller\n      swap1\n        /* \"quantum/UBI4ALLLiquidator.sol\":6257:6261  this */\n      address\n      swap1\n        /* \"quantum/UBI4ALLLiquidator.sol\":6264:6272  amountIn */\n      dup8\n      swap1\n        /* \"quantum/UBI4ALLLiquidator.sol\":6211:6273  ubi4allToken.transferFrom(msg.sender, address(this), amountIn) */\n      0x04\n      add\n      tag_95\n      jump\t// in\n    tag_214:\n      0x20\n      mload(0x40)\n      dup1\n      dup4\n      sub\n      dup2\n      0x00\n      dup8\n      gas\n      call\n      iszero\n      dup1\n      iszero\n      tag_216\n      jumpi\n      returndatasize\n      0x00\n      dup1\n      returndatacopy\n      revert(0x00, returndatasize)\n    tag_216:\n      pop\n      pop\n      pop\n      pop\n      mload(0x40)\n      returndatasize\n      not(0x1f)\n      0x1f\n      dup3\n      add\n      and\n      dup3\n      add\n      dup1\n      0x40\n      mstore\n      pop\n      dup2\n      add\n      swap1\n      tag_217\n      swap2\n      swap1\n      tag_99\n      jump\t// in\n    tag_217:\n      pop\n        /* \"quantum/UBI4ALLLiquidator.sol\":6283:6295  ubi4allToken */\n      sload(0x01)\n        /* \"quantum/UBI4ALLLiquidator.sol\":6312:6325  uniswapRouter */\n      sload(0x03)\n        /* \"quantum/UBI4ALLLiquidator.sol\":6283:6337  ubi4allToken.approve(address(uniswapRouter), amountIn) */\n      mload(0x40)\n      shl(0xe0, 0x095ea7b3)\n      dup2\n      mstore\n      sub(shl(0xa0, 0x01), 0x01)\n        /* \"quantum/UBI4ALLLiquidator.sol\":6312:6325  uniswapRouter */\n      swap2\n      dup3\n      and\n        /* \"quantum/UBI4ALLLiquidator.sol\":6283:6337  ubi4allToken.approve(address(uniswapRouter), amountIn) */\n      0x04\n      dup3\n      add\n        /* \"#utility.yul\":3135:3186   */\n      mstore\n        /* \"#utility.yul\":3202:3220   */\n      0x24\n      dup2\n      add\n        /* \"#utility.yul\":3195:3229   */\n      dup6\n      swap1\n      mstore\n        /* \"quantum/UBI4ALLLiquidator.sol\":6283:6295  ubi4allToken */\n      swap2\n      and\n      swap1\n        /* \"quantum/UBI4ALLLiquidator.sol\":6283:6303  ubi4allToken.approve */\n      0x095ea7b3\n      swap1\n        /* \"#utility.yul\":3108:3126   */\n      0x44\n      add\n        /* \"quantum/UBI4ALLLiquidator.sol\":6283:6337  ubi4allToken.approve(address(uniswapRouter), amountIn) */\n      0x20\n      mload(0x40)\n      dup1\n      dup4\n      sub\n      dup2\n      0x00\n      dup8\n      gas\n      call\n      iszero\n      dup1\n      iszero\n      tag_220\n      jumpi\n      returndatasize\n      0x00\n      dup1\n      returndatacopy\n      revert(0x00, returndatasize)\n    tag_220:\n      pop\n      pop\n      pop\n      pop\n      mload(0x40)\n      returndatasize\n      not(0x1f)\n      0x1f\n      dup3\n      add\n      and\n      dup3\n      add\n      dup1\n      0x40\n      mstore\n      pop\n      dup2\n      add\n      swap1\n      tag_221\n      swap2\n      swap1\n      tag_99\n      jump\t// in\n    tag_221:\n      pop\n        /* \"quantum/UBI4ALLLiquidator.sol\":6371:6387  new address[](2) */\n      0x40\n      dup1\n      mload\n        /* \"quantum/UBI4ALLLiquidator.sol\":6385:6386  2 */\n      0x02\n        /* \"quantum/UBI4ALLLiquidator.sol\":6371:6387  new address[](2) */\n      dup1\n      dup3\n      mstore\n      0x60\n      dup3\n      add\n      dup4\n      mstore\n        /* \"quantum/UBI4ALLLiquidator.sol\":6347:6368  address[] memory path */\n      0x00\n      swap3\n        /* \"quantum/UBI4ALLLiquidator.sol\":6371:6387  new address[](2) */\n      0x20\n      dup4\n      add\n      swap1\n      dup1\n      calldatasize\n      dup4\n      calldatacopy\n      pop\n      pop\n        /* \"quantum/UBI4ALLLiquidator.sol\":6415:6427  ubi4allToken */\n      sload(0x01)\n        /* \"quantum/UBI4ALLLiquidator.sol\":6397:6404  path[0] */\n      dup3\n      mload\n      swap3\n      swap4\n      pop\n      sub(shl(0xa0, 0x01), 0x01)\n        /* \"quantum/UBI4ALLLiquidator.sol\":6415:6427  ubi4allToken */\n      and\n      swap2\n        /* \"quantum/UBI4ALLLiquidator.sol\":6397:6404  path[0] */\n      dup4\n      swap2\n      pop\n        /* \"quantum/UBI4ALLLiquidator.sol\":6415:6427  ubi4allToken */\n      0x00\n      swap1\n        /* \"quantum/UBI4ALLLiquidator.sol\":6397:6404  path[0] */\n      tag_226\n      jumpi\n      tag_226\n      tag_111\n      jump\t// in\n    tag_226:\n      sub(shl(0xa0, 0x01), 0x01)\n        /* \"quantum/UBI4ALLLiquidator.sol\":6397:6428  path[0] = address(ubi4allToken) */\n      swap3\n      dup4\n      and\n        /* \"quantum/UBI4ALLLiquidator.sol\":6397:6404  path[0] */\n      0x20\n      swap2\n      dup3\n      mul\n      swap3\n      swap1\n      swap3\n      add\n      add\n        /* \"quantum/UBI4ALLLiquidator.sol\":6397:6428  path[0] = address(ubi4allToken) */\n      mstore\n        /* \"quantum/UBI4ALLLiquidator.sol\":6456:6468  quantumToken */\n      sload(0x02)\n        /* \"quantum/UBI4ALLLiquidator.sol\":6438:6445  path[1] */\n      dup3\n      mload\n        /* \"quantum/UBI4ALLLiquidator.sol\":6456:6468  quantumToken */\n      swap2\n      and\n      swap1\n        /* \"quantum/UBI4ALLLiquidator.sol\":6438:6442  path */\n      dup3\n      swap1\n        /* \"quantum/UBI4ALLLiquidator.sol\":6456:6468  quantumToken */\n      0x01\n      swap1\n        /* \"quantum/UBI4ALLLiquidator.sol\":6438:6445  path[1] */\n      dup2\n      lt\n      tag_228\n      jumpi\n      tag_228\n      tag_111\n      jump\t// in\n    tag_228:\n      sub(shl(0xa0, 0x01), 0x01)\n        /* \"quantum/UBI4ALLLiquidator.sol\":6438:6469  path[1] = address(quantumToken) */\n      swap3\n      dup4\n      and\n        /* \"quantum/UBI4ALLLiquidator.sol\":6438:6445  path[1] */\n      0x20\n      swap2\n      dup3\n      mul\n      swap3\n      swap1\n      swap3\n      add\n      add\n        /* \"quantum/UBI4ALLLiquidator.sol\":6438:6469  path[1] = address(quantumToken) */\n      mstore\n        /* \"quantum/UBI4ALLLiquidator.sol\":6479:6492  uniswapRouter */\n      sload(0x03)\n        /* \"quantum/UBI4ALLLiquidator.sol\":6626:6641  liquidityWallet */\n      sload(0x05)\n        /* \"quantum/UBI4ALLLiquidator.sol\":6479:6492  uniswapRouter */\n      swap1\n      dup3\n      and\n      swap2\n        /* \"quantum/UBI4ALLLiquidator.sol\":6479:6546  uniswapRouter.swapExactTokensForTokensSupportingFeeOnTransferTokens */\n      0x5c11d795\n      swap2\n        /* \"quantum/UBI4ALLLiquidator.sol\":6560:6568  amountIn */\n      dup7\n      swap2\n        /* \"quantum/UBI4ALLLiquidator.sol\":6582:6594  amountOutMin */\n      dup7\n      swap2\n        /* \"quantum/UBI4ALLLiquidator.sol\":6608:6612  path */\n      dup7\n      swap2\n        /* \"quantum/UBI4ALLLiquidator.sol\":6626:6641  liquidityWallet */\n      and\n        /* \"quantum/UBI4ALLLiquidator.sol\":6655:6691  block.timestamp + DEADLINE_EXTENSION */\n      tag_229\n        /* \"quantum/UBI4ALLLiquidator.sol\":695:705  20 minutes */\n      0x04b0\n        /* \"quantum/UBI4ALLLiquidator.sol\":6655:6670  block.timestamp */\n      timestamp\n        /* \"quantum/UBI4ALLLiquidator.sol\":6655:6691  block.timestamp + DEADLINE_EXTENSION */\n      tag_115\n      jump\t// in\n    tag_229:\n        /* \"quantum/UBI4ALLLiquidator.sol\":6479:6701  uniswapRouter.swapExactTokensForTokensSupportingFeeOnTransferTokens(... */\n      mload(0x40)\n      dup7\n      0xffffffff\n      and\n      0xe0\n      shl\n      dup2\n      mstore\n      0x04\n      add\n      tag_230\n      swap6\n      swap5\n      swap4\n      swap3\n      swap2\n      swap1\n      tag_117\n      jump\t// in\n    tag_230:\n      0x00\n      mload(0x40)\n      dup1\n      dup4\n      sub\n      dup2\n      0x00\n      dup8\n      dup1\n      extcodesize\n      iszero\n      dup1\n      iszero\n      tag_231\n      jumpi\n      0x00\n      dup1\n      revert\n    tag_231:\n      pop\n      gas\n      call\n      iszero\n      dup1\n      iszero\n      tag_233\n      jumpi\n      returndatasize\n      0x00\n      dup1\n      returndatacopy\n      revert(0x00, returndatasize)\n    tag_233:\n      pop\n      pop\n        /* \"quantum/UBI4ALLLiquidator.sol\":6759:6771  quantumToken */\n      sload(0x02)\n      0x01\n        /* \"quantum/UBI4ALLLiquidator.sol\":6736:6748  ubi4allToken */\n      sload\n        /* \"quantum/UBI4ALLLiquidator.sol\":6716:6783  QuantumSwap(address(ubi4allToken), address(quantumToken), amountIn) */\n      mload(0x40)\n        /* \"#utility.yul\":2267:2292   */\n      dup8\n      dup2\n      mstore\n      sub(shl(0xa0, 0x01), 0x01)\n        /* \"quantum/UBI4ALLLiquidator.sol\":6759:6771  quantumToken */\n      swap3\n      dup4\n      and\n      swap5\n      pop\n        /* \"quantum/UBI4ALLLiquidator.sol\":6736:6748  ubi4allToken */\n      swap2\n      and\n      swap2\n      pop\n        /* \"quantum/UBI4ALLLiquidator.sol\":6716:6783  QuantumSwap(address(ubi4allToken), address(quantumToken), amountIn) */\n      0xf7ca15d85d6a1558514fff5c2f5a3f009726b7f5dfc61a3f80b7107941beaf1a\n      swap1\n        /* \"#utility.yul\":2255:2257   */\n      0x20\n        /* \"#utility.yul\":2240:2258   */\n      add\n        /* \"quantum/UBI4ALLLiquidator.sol\":6716:6783  QuantumSwap(address(ubi4allToken), address(quantumToken), amountIn) */\n      tag_121\n        /* \"#utility.yul\":2121:2298   */\n      jump\n        /* \"quantum/UBI4ALLLiquidator.sol\":6796:6941  function transferOwnership(address newOwner) public override(Ownable, IUBI4ALLLiquidator) onlyOwner {... */\n    tag_80:\n        /* \"@openzeppelin/contracts/access/Ownable.sol\":1531:1544  _checkOwner() */\n      tag_236\n        /* \"@openzeppelin/contracts/access/Ownable.sol\":1531:1542  _checkOwner */\n      tag_92\n        /* \"@openzeppelin/contracts/access/Ownable.sol\":1531:1544  _checkOwner() */\n      jump\t// in\n    tag_236:\n        /* \"quantum/UBI4ALLLiquidator.sol\":6906:6934  _transferOwnership(newOwner) */\n      tag_238\n        /* \"quantum/UBI4ALLLiquidator.sol\":6925:6933  newOwner */\n      dup2\n        /* \"quantum/UBI4ALLLiquidator.sol\":6906:6924  _transferOwnership */\n      tag_180\n        /* \"quantum/UBI4ALLLiquidator.sol\":6906:6934  _transferOwnership(newOwner) */\n      jump\t// in\n    tag_238:\n        /* \"quantum/UBI4ALLLiquidator.sol\":6796:6941  function transferOwnership(address newOwner) public override(Ownable, IUBI4ALLLiquidator) onlyOwner {... */\n      pop\n      jump\t// out\n        /* \"quantum/UBI4ALLLiquidator.sol\":1878:2628  function addLiquidityUB4(... */\n    tag_84:\n        /* \"@openzeppelin/contracts/access/Ownable.sol\":1531:1544  _checkOwner() */\n      tag_240\n        /* \"@openzeppelin/contracts/access/Ownable.sol\":1531:1542  _checkOwner */\n      tag_92\n        /* \"@openzeppelin/contracts/access/Ownable.sol\":1531:1544  _checkOwner() */\n      jump\t// in\n    tag_240:\n        /* \"quantum/UBI4ALLLiquidator.sol\":2081:2093  ubi4allToken */\n      sload(0x01)\n        /* \"quantum/UBI4ALLLiquidator.sol\":2081:2141  ubi4allToken.transferFrom(msg.sender, address(this), amount) */\n      mload(0x40)\n      shl(0xe0, 0x23b872dd)\n      dup2\n      mstore\n        /* \"quantum/UBI4ALLLiquidator.sol\":2053:2071  amountTokenDesired */\n      dup5\n      swap2\n      sub(shl(0xa0, 0x01), 0x01)\n        /* \"quantum/UBI4ALLLiquidator.sol\":2081:2093  ubi4allToken */\n      and\n      swap1\n        /* \"quantum/UBI4ALLLiquidator.sol\":2081:2106  ubi4allToken.transferFrom */\n      0x23b872dd\n      swap1\n        /* \"quantum/UBI4ALLLiquidator.sol\":2081:2141  ubi4allToken.transferFrom(msg.sender, address(this), amount) */\n      tag_242\n      swap1\n        /* \"quantum/UBI4ALLLiquidator.sol\":2107:2117  msg.sender */\n      caller\n      swap1\n        /* \"quantum/UBI4ALLLiquidator.sol\":2127:2131  this */\n      address\n      swap1\n        /* \"quantum/UBI4ALLLiquidator.sol\":2053:2071  amountTokenDesired */\n      dup7\n      swap1\n        /* \"quantum/UBI4ALLLiquidator.sol\":2081:2141  ubi4allToken.transferFrom(msg.sender, address(this), amount) */\n      0x04\n      add\n      tag_95\n      jump\t// in\n    tag_242:\n      0x20\n      mload(0x40)\n      dup1\n      dup4\n      sub\n      dup2\n      0x00\n      dup8\n      gas\n      call\n      iszero\n      dup1\n      iszero\n      tag_244\n      jumpi\n      returndatasize\n      0x00\n      dup1\n      returndatacopy\n      revert(0x00, returndatasize)\n    tag_244:\n      pop\n      pop\n      pop\n      pop\n      mload(0x40)\n      returndatasize\n      not(0x1f)\n      0x1f\n      dup3\n      add\n      and\n      dup3\n      add\n      dup1\n      0x40\n      mstore\n      pop\n      dup2\n      add\n      swap1\n      tag_245\n      swap2\n      swap1\n      tag_99\n      jump\t// in\n    tag_245:\n      pop\n        /* \"quantum/UBI4ALLLiquidator.sol\":2151:2163  ubi4allToken */\n      sload(0x01)\n        /* \"quantum/UBI4ALLLiquidator.sol\":2180:2193  uniswapRouter */\n      sload(0x03)\n        /* \"quantum/UBI4ALLLiquidator.sol\":2151:2203  ubi4allToken.approve(address(uniswapRouter), amount) */\n      mload(0x40)\n      shl(0xe0, 0x095ea7b3)\n      dup2\n      mstore\n      sub(shl(0xa0, 0x01), 0x01)\n        /* \"quantum/UBI4ALLLiquidator.sol\":2180:2193  uniswapRouter */\n      swap2\n      dup3\n      and\n        /* \"quantum/UBI4ALLLiquidator.sol\":2151:2203  ubi4allToken.approve(address(uniswapRouter), amount) */\n      0x04\n      dup3\n      add\n        /* \"#utility.yul\":3135:3186   */\n      mstore\n        /* \"#utility.yul\":3202:3220   */\n      0x24\n      dup2\n      add\n        /* \"#utility.yul\":3195:3229   */\n      dup5\n      swap1\n      mstore\n        /* \"quantum/UBI4ALLLiquidator.sol\":2151:2163  ubi4allToken */\n      swap2\n      and\n      swap1\n        /* \"quantum/UBI4ALLLiquidator.sol\":2151:2171  ubi4allToken.approve */\n      0x095ea7b3\n      swap1\n        /* \"#utility.yul\":3108:3126   */\n      0x44\n      add\n        /* \"quantum/UBI4ALLLiquidator.sol\":2151:2203  ubi4allToken.approve(address(uniswapRouter), amount) */\n      0x20\n      mload(0x40)\n      dup1\n      dup4\n      sub\n      dup2\n      0x00\n      dup8\n      gas\n      call\n      iszero\n      dup1\n      iszero\n      tag_248\n      jumpi\n      returndatasize\n      0x00\n      dup1\n      returndatacopy\n      revert(0x00, returndatasize)\n    tag_248:\n      pop\n      pop\n      pop\n      pop\n      mload(0x40)\n      returndatasize\n      not(0x1f)\n      0x1f\n      dup3\n      add\n      and\n      dup3\n      add\n      dup1\n      0x40\n      mstore\n      pop\n      dup2\n      add\n      swap1\n      tag_249\n      swap2\n      swap1\n      tag_99\n      jump\t// in\n    tag_249:\n      pop\n        /* \"quantum/UBI4ALLLiquidator.sol\":2276:2289  uniswapRouter */\n      sload(0x03)\n      0x01\n        /* \"quantum/UBI4ALLLiquidator.sol\":2357:2369  ubi4allToken */\n      sload\n        /* \"quantum/UBI4ALLLiquidator.sol\":2458:2473  liquidityWallet */\n      sload(0x05)\n        /* \"quantum/UBI4ALLLiquidator.sol\":2215:2234  uint256 amountToken */\n      0x00\n      swap3\n      dup4\n      swap3\n      dup4\n      swap3\n      sub(shl(0xa0, 0x01), 0x01)\n        /* \"quantum/UBI4ALLLiquidator.sol\":2276:2289  uniswapRouter */\n      swap3\n      dup4\n      and\n      swap3\n        /* \"quantum/UBI4ALLLiquidator.sol\":2276:2305  uniswapRouter.addLiquidityETH */\n      0xf305d719\n      swap3\n        /* \"quantum/UBI4ALLLiquidator.sol\":2313:2334  address(this).balance */\n      selfbalance\n      swap3\n        /* \"quantum/UBI4ALLLiquidator.sol\":2357:2369  ubi4allToken */\n      swap1\n      dup3\n      and\n      swap2\n        /* \"quantum/UBI4ALLLiquidator.sol\":2384:2390  amount */\n      dup10\n      swap2\n        /* \"quantum/UBI4ALLLiquidator.sol\":2404:2418  amountTokenMin */\n      dup13\n      swap2\n        /* \"quantum/UBI4ALLLiquidator.sol\":2432:2444  amountETHMin */\n      dup13\n      swap2\n        /* \"quantum/UBI4ALLLiquidator.sol\":2458:2473  liquidityWallet */\n      and\n        /* \"quantum/UBI4ALLLiquidator.sol\":2487:2523  block.timestamp + DEADLINE_EXTENSION */\n      tag_250\n        /* \"quantum/UBI4ALLLiquidator.sol\":695:705  20 minutes */\n      0x04b0\n        /* \"quantum/UBI4ALLLiquidator.sol\":2487:2502  block.timestamp */\n      timestamp\n        /* \"quantum/UBI4ALLLiquidator.sol\":2487:2523  block.timestamp + DEADLINE_EXTENSION */\n      tag_115\n      jump\t// in\n    tag_250:\n        /* \"quantum/UBI4ALLLiquidator.sol\":2276:2533  uniswapRouter.addLiquidityETH{value: address(this).balance}(... */\n      mload(0x40)\n      dup9\n      0xffffffff\n      and\n      0xe0\n      shl\n      dup2\n      mstore\n      0x04\n      add\n      tag_251\n      swap7\n      swap6\n      swap5\n      swap4\n      swap3\n      swap2\n      swap1\n      tag_135\n      jump\t// in\n    tag_251:\n      0x60\n      mload(0x40)\n      dup1\n      dup4\n      sub\n      dup2\n      dup6\n      dup9\n      gas\n      call\n      iszero\n      dup1\n      iszero\n      tag_253\n      jumpi\n      returndatasize\n      0x00\n      dup1\n      returndatacopy\n      revert(0x00, returndatasize)\n    tag_253:\n      pop\n      pop\n      pop\n      pop\n      pop\n      mload(0x40)\n      returndatasize\n      not(0x1f)\n      0x1f\n      dup3\n      add\n      and\n      dup3\n      add\n      dup1\n      0x40\n      mstore\n      pop\n      dup2\n      add\n      swap1\n      tag_254\n      swap2\n      swap1\n      tag_139\n      jump\t// in\n    tag_254:\n        /* \"quantum/UBI4ALLLiquidator.sol\":2572:2584  ubi4allToken */\n      sload(0x01)\n        /* \"quantum/UBI4ALLLiquidator.sol\":2549:2621  LiquidityAdded(address(ubi4allToken), amountToken, amountETH, liquidity) */\n      0x40\n      dup1\n      mload\n        /* \"#utility.yul\":5977:6002   */\n      dup6\n      dup2\n      mstore\n        /* \"#utility.yul\":6033:6035   */\n      0x20\n        /* \"#utility.yul\":6018:6036   */\n      dup2\n      add\n        /* \"#utility.yul\":6011:6045   */\n      dup6\n      swap1\n      mstore\n        /* \"#utility.yul\":6061:6079   */\n      swap1\n      dup2\n      add\n        /* \"#utility.yul\":6054:6088   */\n      dup4\n      swap1\n      mstore\n        /* \"quantum/UBI4ALLLiquidator.sol\":2214:2533  (uint256 amountToken, uint256 amountETH, uint256 liquidity) = uniswapRouter.addLiquidityETH{value: address(this).balance}(... */\n      swap4\n      swap7\n      pop\n      swap2\n      swap5\n      pop\n      swap3\n      pop\n      sub(shl(0xa0, 0x01), 0x01)\n        /* \"quantum/UBI4ALLLiquidator.sol\":2572:2584  ubi4allToken */\n      and\n      swap1\n        /* \"quantum/UBI4ALLLiquidator.sol\":2549:2621  LiquidityAdded(address(ubi4allToken), amountToken, amountETH, liquidity) */\n      0x64b83944e79c3ce8d4c297411de637c3e102d064677aac0c163976ebdcd6f50e\n      swap1\n        /* \"#utility.yul\":5965:5967   */\n      0x60\n        /* \"#utility.yul\":5950:5968   */\n      add\n        /* \"quantum/UBI4ALLLiquidator.sol\":2549:2621  LiquidityAdded(address(ubi4allToken), amountToken, amountETH, liquidity) */\n      tag_140\n        /* \"#utility.yul\":5775:6094   */\n      jump\n        /* \"@openzeppelin/contracts/access/Ownable.sol\":1796:1958  function _checkOwner() internal view virtual {... */\n    tag_92:\n        /* \"@openzeppelin/contracts/access/Ownable.sol\":1684:1691  address */\n      0x00\n        /* \"@openzeppelin/contracts/access/Ownable.sol\":1710:1716  _owner */\n      sload\n      sub(shl(0xa0, 0x01), 0x01)\n      and\n        /* \"@openzeppelin/contracts/utils/Context.sol\":735:745  msg.sender */\n      caller\n        /* \"@openzeppelin/contracts/access/Ownable.sol\":1855:1878  owner() != _msgSender() */\n      eq\n        /* \"@openzeppelin/contracts/access/Ownable.sol\":1851:1952  if (owner() != _msgSender()) {... */\n      tag_179\n      jumpi\n        /* \"@openzeppelin/contracts/access/Ownable.sol\":1901:1941  OwnableUnauthorizedAccount(_msgSender()) */\n      0x40\n      dup1\n      mload\n      shl(0xe0, 0x118cdaa7)\n      dup2\n      mstore\n        /* \"@openzeppelin/contracts/utils/Context.sol\":735:745  msg.sender */\n      caller\n        /* \"@openzeppelin/contracts/access/Ownable.sol\":1901:1941  OwnableUnauthorizedAccount(_msgSender()) */\n      0x04\n      dup3\n      add\n        /* \"#utility.yul\":174:225   */\n      mstore\n        /* \"@openzeppelin/contracts/access/Ownable.sol\":1901:1941  OwnableUnauthorizedAccount(_msgSender()) */\n      swap1\n      mload\n      swap1\n      dup2\n      swap1\n      sub\n        /* \"#utility.yul\":147:165   */\n      0x24\n        /* \"@openzeppelin/contracts/access/Ownable.sol\":1901:1941  OwnableUnauthorizedAccount(_msgSender()) */\n      add\n      swap1\n      revert\n        /* \"@openzeppelin/contracts/access/Ownable.sol\":2912:3099  function _transferOwnership(address newOwner) internal virtual {... */\n    tag_180:\n        /* \"@openzeppelin/contracts/access/Ownable.sol\":2985:3001  address oldOwner */\n      0x00\n        /* \"@openzeppelin/contracts/access/Ownable.sol\":3004:3010  _owner */\n      dup1\n      sload\n      sub(shl(0xa0, 0x01), 0x01)\n        /* \"@openzeppelin/contracts/access/Ownable.sol\":3020:3037  _owner = newOwner */\n      dup4\n      dup2\n      and\n      not(sub(shl(0xa0, 0x01), 0x01))\n      dup4\n      and\n      dup2\n      or\n      dup5\n      sstore\n        /* \"@openzeppelin/contracts/access/Ownable.sol\":3052:3092  OwnershipTransferred(oldOwner, newOwner) */\n      mload(0x40)\n        /* \"@openzeppelin/contracts/access/Ownable.sol\":3004:3010  _owner */\n      swap2\n      swap1\n      swap3\n      and\n      swap3\n      dup4\n      swap2\n        /* \"@openzeppelin/contracts/access/Ownable.sol\":3052:3092  OwnershipTransferred(oldOwner, newOwner) */\n      0x8be0079c531659141344cd1fd0a4f28419497f9722a3daafe3b4186f6b6457e0\n      swap2\n        /* \"@openzeppelin/contracts/access/Ownable.sol\":2985:3001  address oldOwner */\n      swap1\n        /* \"@openzeppelin/contracts/access/Ownable.sol\":3052:3092  OwnershipTransferred(oldOwner, newOwner) */\n      log3\n        /* \"@openzeppelin/contracts/access/Ownable.sol\":2975:3099  {... */\n      pop\n        /* \"@openzeppelin/contracts/access/Ownable.sol\":2912:3099  function _transferOwnership(address newOwner) internal virtual {... */\n      pop\n      jump\t// out\n        /* \"#utility.yul\":236:582   */\n    tag_31:\n        /* \"#utility.yul\":304:310   */\n      0x00\n        /* \"#utility.yul\":312:318   */\n      dup1\n        /* \"#utility.yul\":365:367   */\n      0x40\n        /* \"#utility.yul\":353:362   */\n      dup4\n        /* \"#utility.yul\":344:351   */\n      dup6\n        /* \"#utility.yul\":340:363   */\n      sub\n        /* \"#utility.yul\":336:368   */\n      slt\n        /* \"#utility.yul\":333:385   */\n      iszero\n      tag_270\n      jumpi\n        /* \"#utility.yul\":381:382   */\n      0x00\n        /* \"#utility.yul\":378:379   */\n      dup1\n        /* \"#utility.yul\":371:383   */\n      revert\n        /* \"#utility.yul\":333:385   */\n    tag_270:\n      pop\n      pop\n        /* \"#utility.yul\":426:449   */\n      dup1\n      calldataload\n      swap3\n        /* \"#utility.yul\":546:548   */\n      0x20\n        /* \"#utility.yul\":531:549   */\n      swap1\n      swap2\n      add\n        /* \"#utility.yul\":518:550   */\n      calldataload\n      swap2\n      pop\n        /* \"#utility.yul\":236:582   */\n      jump\t// out\n        /* \"#utility.yul\":587:1053   */\n    tag_36:\n        /* \"#utility.yul\":664:670   */\n      0x00\n        /* \"#utility.yul\":672:678   */\n      dup1\n        /* \"#utility.yul\":680:686   */\n      0x00\n        /* \"#utility.yul\":733:735   */\n      0x60\n        /* \"#utility.yul\":721:730   */\n      dup5\n        /* \"#utility.yul\":712:719   */\n      dup7\n        /* \"#utility.yul\":708:731   */\n      sub\n        /* \"#utility.yul\":704:736   */\n      slt\n        /* \"#utility.yul\":701:753   */\n      iszero\n      tag_272\n      jumpi\n        /* \"#utility.yul\":749:750   */\n      0x00\n        /* \"#utility.yul\":746:747   */\n      dup1\n        /* \"#utility.yul\":739:751   */\n      revert\n        /* \"#utility.yul\":701:753   */\n    tag_272:\n      pop\n      pop\n        /* \"#utility.yul\":794:817   */\n      dup2\n      calldataload\n      swap4\n        /* \"#utility.yul\":914:916   */\n      0x20\n        /* \"#utility.yul\":899:917   */\n      dup4\n      add\n        /* \"#utility.yul\":886:918   */\n      calldataload\n      swap4\n      pop\n        /* \"#utility.yul\":1017:1019   */\n      0x40\n        /* \"#utility.yul\":1002:1020   */\n      swap1\n      swap3\n      add\n        /* \"#utility.yul\":989:1021   */\n      calldataload\n      swap2\n        /* \"#utility.yul\":587:1053   */\n      swap1\n      pop\n      jump\t// out\n        /* \"#utility.yul\":1733:1864   */\n    tag_265:\n      sub(shl(0xa0, 0x01), 0x01)\n        /* \"#utility.yul\":1808:1839   */\n      dup2\n      and\n        /* \"#utility.yul\":1798:1840   */\n      dup2\n      eq\n        /* \"#utility.yul\":1788:1858   */\n      tag_238\n      jumpi\n        /* \"#utility.yul\":1854:1855   */\n      0x00\n        /* \"#utility.yul\":1851:1852   */\n      dup1\n        /* \"#utility.yul\":1844:1856   */\n      revert\n        /* \"#utility.yul\":1869:2116   */\n    tag_79:\n        /* \"#utility.yul\":1928:1934   */\n      0x00\n        /* \"#utility.yul\":1981:1983   */\n      0x20\n        /* \"#utility.yul\":1969:1978   */\n      dup3\n        /* \"#utility.yul\":1960:1967   */\n      dup5\n        /* \"#utility.yul\":1956:1979   */\n      sub\n        /* \"#utility.yul\":1952:1984   */\n      slt\n        /* \"#utility.yul\":1949:2001   */\n      iszero\n      tag_279\n      jumpi\n        /* \"#utility.yul\":1997:1998   */\n      0x00\n        /* \"#utility.yul\":1994:1995   */\n      dup1\n        /* \"#utility.yul\":1987:1999   */\n      revert\n        /* \"#utility.yul\":1949:2001   */\n    tag_279:\n        /* \"#utility.yul\":2036:2045   */\n      dup2\n        /* \"#utility.yul\":2023:2046   */\n      calldataload\n        /* \"#utility.yul\":2055:2086   */\n      tag_280\n        /* \"#utility.yul\":2080:2085   */\n      dup2\n        /* \"#utility.yul\":2055:2086   */\n      tag_265\n      jump\t// in\n    tag_280:\n        /* \"#utility.yul\":2105:2110   */\n      swap4\n        /* \"#utility.yul\":1869:2116   */\n      swap3\n      pop\n      pop\n      pop\n      jump\t// out\n        /* \"#utility.yul\":2303:2674   */\n    tag_95:\n      sub(shl(0xa0, 0x01), 0x01)\n        /* \"#utility.yul\":2523:2555   */\n      swap4\n      dup5\n      and\n        /* \"#utility.yul\":2505:2556   */\n      dup2\n      mstore\n        /* \"#utility.yul\":2592:2624   */\n      swap2\n      swap1\n      swap3\n      and\n        /* \"#utility.yul\":2587:2589   */\n      0x20\n        /* \"#utility.yul\":2572:2590   */\n      dup3\n      add\n        /* \"#utility.yul\":2565:2625   */\n      mstore\n        /* \"#utility.yul\":2656:2658   */\n      0x40\n        /* \"#utility.yul\":2641:2659   */\n      dup2\n      add\n        /* \"#utility.yul\":2634:2668   */\n      swap2\n      swap1\n      swap2\n      mstore\n        /* \"#utility.yul\":2493:2495   */\n      0x60\n        /* \"#utility.yul\":2478:2496   */\n      add\n      swap1\n        /* \"#utility.yul\":2303:2674   */\n      jump\t// out\n        /* \"#utility.yul\":2679:2956   */\n    tag_99:\n        /* \"#utility.yul\":2746:2752   */\n      0x00\n        /* \"#utility.yul\":2799:2801   */\n      0x20\n        /* \"#utility.yul\":2787:2796   */\n      dup3\n        /* \"#utility.yul\":2778:2785   */\n      dup5\n        /* \"#utility.yul\":2774:2797   */\n      sub\n        /* \"#utility.yul\":2770:2802   */\n      slt\n        /* \"#utility.yul\":2767:2819   */\n      iszero\n      tag_284\n      jumpi\n        /* \"#utility.yul\":2815:2816   */\n      0x00\n        /* \"#utility.yul\":2812:2813   */\n      dup1\n        /* \"#utility.yul\":2805:2817   */\n      revert\n        /* \"#utility.yul\":2767:2819   */\n    tag_284:\n        /* \"#utility.yul\":2847:2856   */\n      dup2\n        /* \"#utility.yul\":2841:2857   */\n      mload\n        /* \"#utility.yul\":2900:2905   */\n      dup1\n        /* \"#utility.yul\":2893:2906   */\n      iszero\n        /* \"#utility.yul\":2886:2907   */\n      iszero\n        /* \"#utility.yul\":2879:2884   */\n      dup2\n        /* \"#utility.yul\":2876:2908   */\n      eq\n        /* \"#utility.yul\":2866:2926   */\n      tag_280\n      jumpi\n        /* \"#utility.yul\":2922:2923   */\n      0x00\n        /* \"#utility.yul\":2919:2920   */\n      dup1\n        /* \"#utility.yul\":2912:2924   */\n      revert\n        /* \"#utility.yul\":3372:3499   */\n    tag_111:\n        /* \"#utility.yul\":3433:3443   */\n      0x4e487b71\n        /* \"#utility.yul\":3428:3431   */\n      0xe0\n        /* \"#utility.yul\":3424:3444   */\n      shl\n        /* \"#utility.yul\":3421:3422   */\n      0x00\n        /* \"#utility.yul\":3414:3445   */\n      mstore\n        /* \"#utility.yul\":3464:3468   */\n      0x32\n        /* \"#utility.yul\":3461:3462   */\n      0x04\n        /* \"#utility.yul\":3454:3469   */\n      mstore\n        /* \"#utility.yul\":3488:3492   */\n      0x24\n        /* \"#utility.yul\":3485:3486   */\n      0x00\n        /* \"#utility.yul\":3478:3493   */\n      revert\n        /* \"#utility.yul\":3504:3631   */\n    tag_266:\n        /* \"#utility.yul\":3565:3575   */\n      0x4e487b71\n        /* \"#utility.yul\":3560:3563   */\n      0xe0\n        /* \"#utility.yul\":3556:3576   */\n      shl\n        /* \"#utility.yul\":3553:3554   */\n      0x00\n        /* \"#utility.yul\":3546:3577   */\n      mstore\n        /* \"#utility.yul\":3596:3600   */\n      0x11\n        /* \"#utility.yul\":3593:3594   */\n      0x04\n        /* \"#utility.yul\":3586:3601   */\n      mstore\n        /* \"#utility.yul\":3620:3624   */\n      0x24\n        /* \"#utility.yul\":3617:3618   */\n      0x00\n        /* \"#utility.yul\":3610:3625   */\n      revert\n        /* \"#utility.yul\":3636:3761   */\n    tag_115:\n        /* \"#utility.yul\":3701:3710   */\n      dup1\n      dup3\n      add\n        /* \"#utility.yul\":3722:3732   */\n      dup1\n      dup3\n      gt\n        /* \"#utility.yul\":3719:3755   */\n      iszero\n      tag_292\n      jumpi\n        /* \"#utility.yul\":3735:3753   */\n      tag_292\n      tag_266\n      jump\t// in\n    tag_292:\n        /* \"#utility.yul\":3636:3761   */\n      swap3\n      swap2\n      pop\n      pop\n      jump\t// out\n        /* \"#utility.yul\":3766:4717   */\n    tag_117:\n        /* \"#utility.yul\":4020:4024   */\n      0x00\n        /* \"#utility.yul\":4068:4071   */\n      0xa0\n        /* \"#utility.yul\":4057:4066   */\n      dup3\n        /* \"#utility.yul\":4053:4072   */\n      add\n        /* \"#utility.yul\":4099:4105   */\n      dup8\n        /* \"#utility.yul\":4088:4097   */\n      dup4\n        /* \"#utility.yul\":4081:4106   */\n      mstore\n        /* \"#utility.yul\":4142:4148   */\n      dup7\n        /* \"#utility.yul\":4137:4139   */\n      0x20\n        /* \"#utility.yul\":4126:4135   */\n      dup5\n        /* \"#utility.yul\":4122:4140   */\n      add\n        /* \"#utility.yul\":4115:4149   */\n      mstore\n        /* \"#utility.yul\":4185:4188   */\n      0xa0\n        /* \"#utility.yul\":4180:4182   */\n      0x40\n        /* \"#utility.yul\":4169:4178   */\n      dup5\n        /* \"#utility.yul\":4165:4183   */\n      add\n        /* \"#utility.yul\":4158:4189   */\n      mstore\n        /* \"#utility.yul\":4209:4215   */\n      dup1\n        /* \"#utility.yul\":4244:4250   */\n      dup7\n        /* \"#utility.yul\":4238:4251   */\n      mload\n        /* \"#utility.yul\":4275:4281   */\n      dup1\n        /* \"#utility.yul\":4267:4273   */\n      dup4\n        /* \"#utility.yul\":4260:4282   */\n      mstore\n        /* \"#utility.yul\":4313:4316   */\n      0xc0\n        /* \"#utility.yul\":4302:4311   */\n      dup6\n        /* \"#utility.yul\":4298:4317   */\n      add\n        /* \"#utility.yul\":4291:4317   */\n      swap2\n      pop\n        /* \"#utility.yul\":4352:4354   */\n      0x20\n        /* \"#utility.yul\":4344:4350   */\n      dup9\n        /* \"#utility.yul\":4340:4355   */\n      add\n        /* \"#utility.yul\":4326:4355   */\n      swap3\n      pop\n        /* \"#utility.yul\":4373:4374   */\n      0x00\n        /* \"#utility.yul\":4383:4578   */\n    tag_294:\n        /* \"#utility.yul\":4397:4403   */\n      dup2\n        /* \"#utility.yul\":4394:4395   */\n      dup2\n        /* \"#utility.yul\":4391:4404   */\n      lt\n        /* \"#utility.yul\":4383:4578   */\n      iszero\n      tag_296\n      jumpi\n        /* \"#utility.yul\":4462:4475   */\n      dup4\n      mload\n      sub(shl(0xa0, 0x01), 0x01)\n        /* \"#utility.yul\":4458:4497   */\n      and\n        /* \"#utility.yul\":4446:4498   */\n      dup4\n      mstore\n        /* \"#utility.yul\":4527:4529   */\n      0x20\n        /* \"#utility.yul\":4553:4568   */\n      swap4\n      dup5\n      add\n      swap4\n        /* \"#utility.yul\":4518:4530   */\n      swap1\n      swap3\n      add\n      swap2\n        /* \"#utility.yul\":4494:4495   */\n      0x01\n        /* \"#utility.yul\":4412:4421   */\n      add\n        /* \"#utility.yul\":4383:4578   */\n      jump(tag_294)\n    tag_296:\n      pop\n      pop\n      sub(shl(0xa0, 0x01), 0x01)\n        /* \"#utility.yul\":4634:4666   */\n      swap6\n      swap1\n      swap6\n      and\n        /* \"#utility.yul\":4629:4631   */\n      0x60\n        /* \"#utility.yul\":4614:4632   */\n      dup5\n      add\n        /* \"#utility.yul\":4607:4667   */\n      mstore\n      pop\n      pop\n        /* \"#utility.yul\":4698:4701   */\n      0x80\n        /* \"#utility.yul\":4683:4702   */\n      add\n        /* \"#utility.yul\":4676:4711   */\n      mstore\n        /* \"#utility.yul\":4595:4598   */\n      swap4\n        /* \"#utility.yul\":3766:4717   */\n      swap3\n      pop\n      pop\n      pop\n      jump\t// out\n        /* \"#utility.yul\":4722:5309   */\n    tag_135:\n      sub(shl(0xa0, 0x01), 0x01)\n        /* \"#utility.yul\":5027:5059   */\n      swap7\n      dup8\n      and\n        /* \"#utility.yul\":5009:5060   */\n      dup2\n      mstore\n        /* \"#utility.yul\":5091:5093   */\n      0x20\n        /* \"#utility.yul\":5076:5094   */\n      dup2\n      add\n        /* \"#utility.yul\":5069:5103   */\n      swap6\n      swap1\n      swap6\n      mstore\n        /* \"#utility.yul\":5134:5136   */\n      0x40\n        /* \"#utility.yul\":5119:5137   */\n      dup6\n      add\n        /* \"#utility.yul\":5112:5146   */\n      swap4\n      swap1\n      swap4\n      mstore\n        /* \"#utility.yul\":5177:5179   */\n      0x60\n        /* \"#utility.yul\":5162:5180   */\n      dup5\n      add\n        /* \"#utility.yul\":5155:5189   */\n      swap2\n      swap1\n      swap2\n      mstore\n        /* \"#utility.yul\":5226:5258   */\n      swap1\n      swap3\n      and\n        /* \"#utility.yul\":5220:5223   */\n      0x80\n        /* \"#utility.yul\":5205:5224   */\n      dup3\n      add\n        /* \"#utility.yul\":5198:5259   */\n      mstore\n        /* \"#utility.yul\":5047:5050   */\n      0xa0\n        /* \"#utility.yul\":5275:5294   */\n      dup2\n      add\n        /* \"#utility.yul\":5268:5303   */\n      swap2\n      swap1\n      swap2\n      mstore\n        /* \"#utility.yul\":4996:4999   */\n      0xc0\n        /* \"#utility.yul\":4981:5000   */\n      add\n      swap1\n        /* \"#utility.yul\":4722:5309   */\n      jump\t// out\n        /* \"#utility.yul\":5314:5770   */\n    tag_139:\n        /* \"#utility.yul\":5402:5408   */\n      0x00\n        /* \"#utility.yul\":5410:5416   */\n      dup1\n        /* \"#utility.yul\":5418:5424   */\n      0x00\n        /* \"#utility.yul\":5471:5473   */\n      0x60\n        /* \"#utility.yul\":5459:5468   */\n      dup5\n        /* \"#utility.yul\":5450:5457   */\n      dup7\n        /* \"#utility.yul\":5446:5469   */\n      sub\n        /* \"#utility.yul\":5442:5474   */\n      slt\n        /* \"#utility.yul\":5439:5491   */\n      iszero\n      tag_299\n      jumpi\n        /* \"#utility.yul\":5487:5488   */\n      0x00\n        /* \"#utility.yul\":5484:5485   */\n      dup1\n        /* \"#utility.yul\":5477:5489   */\n      revert\n        /* \"#utility.yul\":5439:5491   */\n    tag_299:\n      pop\n      pop\n        /* \"#utility.yul\":5532:5548   */\n      dup2\n      mload\n        /* \"#utility.yul\":5638:5640   */\n      0x20\n        /* \"#utility.yul\":5623:5641   */\n      dup4\n      add\n        /* \"#utility.yul\":5617:5642   */\n      mload\n        /* \"#utility.yul\":5734:5736   */\n      0x40\n        /* \"#utility.yul\":5719:5737   */\n      swap1\n      swap4\n      add\n        /* \"#utility.yul\":5713:5738   */\n      mload\n        /* \"#utility.yul\":5532:5548   */\n      swap1\n      swap5\n        /* \"#utility.yul\":5617:5642   */\n      swap3\n      swap4\n      pop\n        /* \"#utility.yul\":5713:5738   */\n      swap2\n        /* \"#utility.yul\":5314:5770   */\n      swap1\n      pop\n      jump\t// out\n        /* \"#utility.yul\":6099:6350   */\n    tag_148:\n        /* \"#utility.yul\":6169:6175   */\n      0x00\n        /* \"#utility.yul\":6222:6224   */\n      0x20\n        /* \"#utility.yul\":6210:6219   */\n      dup3\n        /* \"#utility.yul\":6201:6208   */\n      dup5\n        /* \"#utility.yul\":6197:6220   */\n      sub\n        /* \"#utility.yul\":6193:6225   */\n      slt\n        /* \"#utility.yul\":6190:6242   */\n      iszero\n      tag_302\n      jumpi\n        /* \"#utility.yul\":6238:6239   */\n      0x00\n        /* \"#utility.yul\":6235:6236   */\n      dup1\n        /* \"#utility.yul\":6228:6240   */\n      revert\n        /* \"#utility.yul\":6190:6242   */\n    tag_302:\n        /* \"#utility.yul\":6270:6279   */\n      dup2\n        /* \"#utility.yul\":6264:6280   */\n      mload\n        /* \"#utility.yul\":6289:6320   */\n      tag_280\n        /* \"#utility.yul\":6314:6319   */\n      dup2\n        /* \"#utility.yul\":6289:6320   */\n      tag_265\n      jump\t// in\n        /* \"#utility.yul\":6660:6890   */\n    tag_162:\n        /* \"#utility.yul\":6730:6736   */\n      0x00\n        /* \"#utility.yul\":6783:6785   */\n      0x20\n        /* \"#utility.yul\":6771:6780   */\n      dup3\n        /* \"#utility.yul\":6762:6769   */\n      dup5\n        /* \"#utility.yul\":6758:6781   */\n      sub\n        /* \"#utility.yul\":6754:6786   */\n      slt\n        /* \"#utility.yul\":6751:6803   */\n      iszero\n      tag_306\n      jumpi\n        /* \"#utility.yul\":6799:6800   */\n      0x00\n        /* \"#utility.yul\":6796:6797   */\n      dup1\n        /* \"#utility.yul\":6789:6801   */\n      revert\n        /* \"#utility.yul\":6751:6803   */\n    tag_306:\n      pop\n        /* \"#utility.yul\":6844:6860   */\n      mload\n      swap2\n        /* \"#utility.yul\":6660:6890   */\n      swap1\n      pop\n      jump\t// out\n        /* \"#utility.yul\":6895:7023   */\n    tag_173:\n        /* \"#utility.yul\":6962:6971   */\n      dup2\n      dup2\n      sub\n        /* \"#utility.yul\":6983:6994   */\n      dup2\n      dup2\n      gt\n        /* \"#utility.yul\":6980:7017   */\n      iszero\n      tag_292\n      jumpi\n        /* \"#utility.yul\":6997:7015   */\n      tag_292\n      tag_266\n      jump\t// in\n\n    auxdata: 0xa26469706673582212206883622cca1243c274d8240a6549e3ab27e75fadc91a81e38051c9e48c7ebea064736f6c634300081c0033\n}\n",
				"bytecode": {
					"linkReferences": {},
					"object": "608060405234801561001057600080fd5b5060405161187638038061187683398101604081905261002f916102e6565b806001600160a01b03811661005f57604051631e4fbdf760e01b8152600060048201526024015b60405180910390fd5b6100688161027a565b506001600160a01b0386166100bf5760405162461bcd60e51b815260206004820152601960248201527f496e76616c69642055423420746f6b656e2061646472657373000000000000006044820152606401610056565b6001600160a01b0385166101155760405162461bcd60e51b815260206004820152601960248201527f496e76616c69642051344120746f6b656e2061646472657373000000000000006044820152606401610056565b6001600160a01b03841661016b5760405162461bcd60e51b815260206004820152601660248201527f496e76616c696420726f757465722061646472657373000000000000000000006044820152606401610056565b6001600160a01b0383166101c15760405162461bcd60e51b815260206004820152601760248201527f496e76616c696420666163746f727920616464726573730000000000000000006044820152606401610056565b6001600160a01b0382166102175760405162461bcd60e51b815260206004820152601860248201527f496e76616c6964206c69717569646974792077616c6c657400000000000000006044820152606401610056565b50600180546001600160a01b03199081166001600160a01b0397881617909155600280548216958716959095179094556003805485169386169390931790925560048054841691851691909117905560058054909216921691909117905561035a565b600080546001600160a01b038381166001600160a01b0319831681178455604051919092169283917f8be0079c531659141344cd1fd0a4f28419497f9722a3daafe3b4186f6b6457e09190a35050565b80516001600160a01b03811681146102e157600080fd5b919050565b60008060008060008060c087890312156102ff57600080fd5b610308876102ca565b9550610316602088016102ca565b9450610324604088016102ca565b9350610332606088016102ca565b9250610340608088016102ca565b915061034e60a088016102ca565b90509295509295509295565b61150d806103696000396000f3fe6080604052600436106100ec5760003560e01c80638da5cb5b1161008a578063d469801611610059578063d46980161461026a578063f2fde38b1461028a578063fc0d6874146102aa578063ffe6f79a146102ca57600080fd5b80638da5cb5b146101ec57806393565b4c1461020a5780639d81a8aa1461022a578063a43d6c1b1461024a57600080fd5b80636cfbbb75116100c65780636cfbbb7514610177578063715018a614610197578063735de9f7146101ac5780638bdb2afa146101cc57600080fd5b806310d67098146100f85780633b78439a1461013557806358f117631461015757600080fd5b366100f357005b600080fd5b34801561010457600080fd5b50600154610118906001600160a01b031681565b6040516001600160a01b0390911681526020015b60405180910390f35b34801561014157600080fd5b506101556101503660046112a1565b6102ee565b005b34801561016357600080fd5b506101556101723660046112c3565b610532565b34801561018357600080fd5b506101556101923660046112c3565b61072b565b3480156101a357600080fd5b50610155610a84565b3480156101b857600080fd5b50600354610118906001600160a01b031681565b3480156101d857600080fd5b50600454610118906001600160a01b031681565b3480156101f857600080fd5b506000546001600160a01b0316610118565b34801561021657600080fd5b50600254610118906001600160a01b031681565b34801561023657600080fd5b506101556102453660046112c3565b610a98565b34801561025657600080fd5b506101556102653660046112a1565b610de3565b34801561027657600080fd5b50600554610118906001600160a01b031681565b34801561029657600080fd5b506101556102a5366004611304565b61101f565b3480156102b657600080fd5b506101556102c53660046112c3565b611033565b3480156102d657600080fd5b506102e06104b081565b60405190815260200161012c565b6102f661121f565b6002546040516323b872dd60e01b81526001600160a01b03909116906323b872dd9061032a90339030908790600401611328565b6020604051808303816000875af1158015610349573d6000803e3d6000fd5b505050506040513d601f19601f8201168201806040525081019061036d919061134c565b5060025460035460405163095ea7b360e01b81526001600160a01b0391821660048201526024810185905291169063095ea7b3906044016020604051808303816000875af11580156103c3573d6000803e3d6000fd5b505050506040513d601f19601f820116820180604052508101906103e7919061134c565b50604080516002808252606082018352600092602083019080368337505060025482519293506001600160a01b0316918391506000906104295761042961136e565b6001600160a01b03928316602091820292909201015260018054835192169183919081106104595761045961136e565b6001600160a01b03928316602091820292909201015260035460055490821691635c11d79591869186918691166104926104b04261139a565b6040518663ffffffff1660e01b81526004016104b29594939291906113b3565b600060405180830381600087803b1580156104cc57600080fd5b505af11580156104e0573d6000803e3d6000fd5b50506001546002546040518781526001600160a01b039283169450911691507ff7ca15d85d6a1558514fff5c2f5a3f009726b7f5dfc61a3f80b7107941beaf1a906020015b60405180910390a3505050565b61053a61121f565b6002546040516323b872dd60e01b815284916001600160a01b0316906323b872dd9061056e90339030908690600401611328565b6020604051808303816000875af115801561058d573d6000803e3d6000fd5b505050506040513d601f19601f820116820180604052508101906105b1919061134c565b5060025460035460405163095ea7b360e01b81526001600160a01b0391821660048201526024810184905291169063095ea7b3906044016020604051808303816000875af1158015610607573d6000803e3d6000fd5b505050506040513d601f19601f8201168201806040525081019061062b919061134c565b50600354600254600554600092839283926001600160a01b039283169263f305d7199247929082169189918c918c91166106676104b04261139a565b6040518863ffffffff1660e01b815260040161068896959493929190611425565b60606040518083038185885af11580156106a6573d6000803e3d6000fd5b50505050506040513d601f19601f820116820180604052508101906106cb9190611460565b600254604080518581526020810185905290810183905293965091945092506001600160a01b0316907f64b83944e79c3ce8d4c297411de637c3e102d064677aac0c163976ebdcd6f50e906060015b60405180910390a250505050505050565b61073361121f565b60048054600154600354604080516315ab88c960e31b815290516000956001600160a01b039586169563e6a4390595811694169263ad5c464892818301926020928290030181865afa15801561078d573d6000803e3d6000fd5b505050506040513d601f19601f820116820180604052508101906107b1919061148e565b6040516001600160e01b031960e085901b1681526001600160a01b03928316600482015291166024820152604401602060405180830381865afa1580156107fc573d6000803e3d6000fd5b505050506040513d601f19601f82011682018060405250810190610820919061148e565b60035460405163095ea7b360e01b81526001600160a01b0391821660048201526024810187905291925082169063095ea7b3906044016020604051808303816000875af1158015610875573d6000803e3d6000fd5b505050506040513d601f19601f82011682018060405250810190610899919061134c565b506001546005546040516370a0823160e01b81526001600160a01b03918216600482015260009291909116906370a0823190602401602060405180830381865afa1580156108eb573d6000803e3d6000fd5b505050506040513d601f19601f8201168201806040525081019061090f91906114ab565b6003546001546005549293506000926001600160a01b039283169263af2979eb928116918a918a918a91166109466104b04261139a565b6040518763ffffffff1660e01b815260040161096796959493929190611425565b6020604051808303816000875af1158015610986573d6000803e3d6000fd5b505050506040513d601f19601f820116820180604052508101906109aa91906114ab565b6001546005546040516370a0823160e01b81526001600160a01b0391821660048201529293506000929116906370a0823190602401602060405180830381865afa1580156109fc573d6000803e3d6000fd5b505050506040513d601f19601f82011682018060405250810190610a2091906114ab565b90506000610a2e84836114c4565b60015460408051838152602081018790529293506001600160a01b03909116917f96cd817c6329656790ef8fba7675405193677d39619571282f5e21f3a98cd05991015b60405180910390a25050505050505050565b610a8c61121f565b610a966000611251565b565b610aa061121f565b60048054600254600354604080516315ab88c960e31b815290516000956001600160a01b039586169563e6a4390595811694169263ad5c464892818301926020928290030181865afa158015610afa573d6000803e3d6000fd5b505050506040513d601f19601f82011682018060405250810190610b1e919061148e565b6040516001600160e01b031960e085901b1681526001600160a01b03928316600482015291166024820152604401602060405180830381865afa158015610b69573d6000803e3d6000fd5b505050506040513d601f19601f82011682018060405250810190610b8d919061148e565b60035460405163095ea7b360e01b81526001600160a01b0391821660048201526024810187905291925082169063095ea7b3906044016020604051808303816000875af1158015610be2573d6000803e3d6000fd5b505050506040513d601f19601f82011682018060405250810190610c06919061134c565b506002546005546040516370a0823160e01b81526001600160a01b03918216600482015260009291909116906370a0823190602401602060405180830381865afa158015610c58573d6000803e3d6000fd5b505050506040513d601f19601f82011682018060405250810190610c7c91906114ab565b6003546002546005549293506000926001600160a01b039283169263af2979eb928116918a918a918a9116610cb36104b04261139a565b6040518763ffffffff1660e01b8152600401610cd496959493929190611425565b6020604051808303816000875af1158015610cf3573d6000803e3d6000fd5b505050506040513d601f19601f82011682018060405250810190610d1791906114ab565b6002546005546040516370a0823160e01b81526001600160a01b0391821660048201529293506000929116906370a0823190602401602060405180830381865afa158015610d69573d6000803e3d6000fd5b505050506040513d601f19601f82011682018060405250810190610d8d91906114ab565b90506000610d9b84836114c4565b60025460408051838152602081018790529293506001600160a01b03909116917f96cd817c6329656790ef8fba7675405193677d39619571282f5e21f3a98cd0599101610a72565b610deb61121f565b6001546040516323b872dd60e01b81526001600160a01b03909116906323b872dd90610e1f90339030908790600401611328565b6020604051808303816000875af1158015610e3e573d6000803e3d6000fd5b505050506040513d601f19601f82011682018060405250810190610e62919061134c565b5060015460035460405163095ea7b360e01b81526001600160a01b0391821660048201526024810185905291169063095ea7b3906044016020604051808303816000875af1158015610eb8573d6000803e3d6000fd5b505050506040513d601f19601f82011682018060405250810190610edc919061134c565b50604080516002808252606082018352600092602083019080368337505060015482519293506001600160a01b031691839150600090610f1e57610f1e61136e565b6001600160a01b039283166020918202929092010152600254825191169082906001908110610f4f57610f4f61136e565b6001600160a01b03928316602091820292909201015260035460055490821691635c11d7959186918691869116610f886104b04261139a565b6040518663ffffffff1660e01b8152600401610fa89594939291906113b3565b600060405180830381600087803b158015610fc257600080fd5b505af1158015610fd6573d6000803e3d6000fd5b50506002546001546040518781526001600160a01b039283169450911691507ff7ca15d85d6a1558514fff5c2f5a3f009726b7f5dfc61a3f80b7107941beaf1a90602001610525565b61102761121f565b61103081611251565b50565b61103b61121f565b6001546040516323b872dd60e01b815284916001600160a01b0316906323b872dd9061106f90339030908690600401611328565b6020604051808303816000875af115801561108e573d6000803e3d6000fd5b505050506040513d601f19601f820116820180604052508101906110b2919061134c565b5060015460035460405163095ea7b360e01b81526001600160a01b0391821660048201526024810184905291169063095ea7b3906044016020604051808303816000875af1158015611108573d6000803e3d6000fd5b505050506040513d601f19601f8201168201806040525081019061112c919061134c565b50600354600154600554600092839283926001600160a01b039283169263f305d7199247929082169189918c918c91166111686104b04261139a565b6040518863ffffffff1660e01b815260040161118996959493929190611425565b60606040518083038185885af11580156111a7573d6000803e3d6000fd5b50505050506040513d601f19601f820116820180604052508101906111cc9190611460565b600154604080518581526020810185905290810183905293965091945092506001600160a01b0316907f64b83944e79c3ce8d4c297411de637c3e102d064677aac0c163976ebdcd6f50e9060600161071a565b6000546001600160a01b03163314610a96576040805163118cdaa760e01b815233600482015290519081900360240190fd5b600080546001600160a01b038381166001600160a01b0319831681178455604051919092169283917f8be0079c531659141344cd1fd0a4f28419497f9722a3daafe3b4186f6b6457e09190a35050565b600080604083850312156112b457600080fd5b50508035926020909101359150565b6000806000606084860312156112d857600080fd5b505081359360208301359350604090920135919050565b6001600160a01b038116811461103057600080fd5b60006020828403121561131657600080fd5b8135611321816112ef565b9392505050565b6001600160a01b039384168152919092166020820152604081019190915260600190565b60006020828403121561135e57600080fd5b8151801515811461132157600080fd5b634e487b7160e01b600052603260045260246000fd5b634e487b7160e01b600052601160045260246000fd5b808201808211156113ad576113ad611384565b92915050565b600060a0820187835286602084015260a0604084015280865180835260c08501915060208801925060005b818110156114055783516001600160a01b03168352602093840193909201916001016113de565b50506001600160a01b039590951660608401525050608001529392505050565b6001600160a01b039687168152602081019590955260408501939093526060840191909152909216608082015260a081019190915260c00190565b60008060006060848603121561147557600080fd5b5050815160208301516040909301519094929350919050565b6000602082840312156114a057600080fd5b8151611321816112ef565b6000602082840312156114bd57600080fd5b5051919050565b818103818111156113ad576113ad61138456fea26469706673582212206883622cca1243c274d8240a6549e3ab27e75fadc91a81e38051c9e48c7ebea064736f6c634300081c0033",
					"opcodes": "PUSH1 0x80 PUSH1 0x40 MSTORE CALLVALUE DUP1 ISZERO PUSH2 0x10 JUMPI PUSH1 0x0 DUP1 REVERT JUMPDEST POP PUSH1 0x40 MLOAD PUSH2 0x1876 CODESIZE SUB DUP1 PUSH2 0x1876 DUP4 CODECOPY DUP2 ADD PUSH1 0x40 DUP2 SWAP1 MSTORE PUSH2 0x2F SWAP2 PUSH2 0x2E6 JUMP JUMPDEST DUP1 PUSH1 0x1 PUSH1 0x1 PUSH1 0xA0 SHL SUB DUP2 AND PUSH2 0x5F JUMPI PUSH1 0x40 MLOAD PUSH4 0x1E4FBDF7 PUSH1 0xE0 SHL DUP2 MSTORE PUSH1 0x0 PUSH1 0x4 DUP3 ADD MSTORE PUSH1 0x24 ADD JUMPDEST PUSH1 0x40 MLOAD DUP1 SWAP2 SUB SWAP1 REVERT JUMPDEST PUSH2 0x68 DUP2 PUSH2 0x27A JUMP JUMPDEST POP PUSH1 0x1 PUSH1 0x1 PUSH1 0xA0 SHL SUB DUP7 AND PUSH2 0xBF JUMPI PUSH1 0x40 MLOAD PUSH3 0x461BCD PUSH1 0xE5 SHL DUP2 MSTORE PUSH1 0x20 PUSH1 0x4 DUP3 ADD MSTORE PUSH1 0x19 PUSH1 0x24 DUP3 ADD MSTORE PUSH32 0x496E76616C69642055423420746F6B656E206164647265737300000000000000 PUSH1 0x44 DUP3 ADD MSTORE PUSH1 0x64 ADD PUSH2 0x56 JUMP JUMPDEST PUSH1 0x1 PUSH1 0x1 PUSH1 0xA0 SHL SUB DUP6 AND PUSH2 0x115 JUMPI PUSH1 0x40 MLOAD PUSH3 0x461BCD PUSH1 0xE5 SHL DUP2 MSTORE PUSH1 0x20 PUSH1 0x4 DUP3 ADD MSTORE PUSH1 0x19 PUSH1 0x24 DUP3 ADD MSTORE PUSH32 0x496E76616C69642051344120746F6B656E206164647265737300000000000000 PUSH1 0x44 DUP3 ADD MSTORE PUSH1 0x64 ADD PUSH2 0x56 JUMP JUMPDEST PUSH1 0x1 PUSH1 0x1 PUSH1 0xA0 SHL SUB DUP5 AND PUSH2 0x16B JUMPI PUSH1 0x40 MLOAD PUSH3 0x461BCD PUSH1 0xE5 SHL DUP2 MSTORE PUSH1 0x20 PUSH1 0x4 DUP3 ADD MSTORE PUSH1 0x16 PUSH1 0x24 DUP3 ADD MSTORE PUSH32 0x496E76616C696420726F75746572206164647265737300000000000000000000 PUSH1 0x44 DUP3 ADD MSTORE PUSH1 0x64 ADD PUSH2 0x56 JUMP JUMPDEST PUSH1 0x1 PUSH1 0x1 PUSH1 0xA0 SHL SUB DUP4 AND PUSH2 0x1C1 JUMPI PUSH1 0x40 MLOAD PUSH3 0x461BCD PUSH1 0xE5 SHL DUP2 MSTORE PUSH1 0x20 PUSH1 0x4 DUP3 ADD MSTORE PUSH1 0x17 PUSH1 0x24 DUP3 ADD MSTORE PUSH32 0x496E76616C696420666163746F72792061646472657373000000000000000000 PUSH1 0x44 DUP3 ADD MSTORE PUSH1 0x64 ADD PUSH2 0x56 JUMP JUMPDEST PUSH1 0x1 PUSH1 0x1 PUSH1 0xA0 SHL SUB DUP3 AND PUSH2 0x217 JUMPI PUSH1 0x40 MLOAD PUSH3 0x461BCD PUSH1 0xE5 SHL DUP2 MSTORE PUSH1 0x20 PUSH1 0x4 DUP3 ADD MSTORE PUSH1 0x18 PUSH1 0x24 DUP3 ADD MSTORE PUSH32 0x496E76616C6964206C69717569646974792077616C6C65740000000000000000 PUSH1 0x44 DUP3 ADD MSTORE PUSH1 0x64 ADD PUSH2 0x56 JUMP JUMPDEST POP PUSH1 0x1 DUP1 SLOAD PUSH1 0x1 PUSH1 0x1 PUSH1 0xA0 SHL SUB NOT SWAP1 DUP2 AND PUSH1 0x1 PUSH1 0x1 PUSH1 0xA0 SHL SUB SWAP8 DUP9 AND OR SWAP1 SWAP2 SSTORE PUSH1 0x2 DUP1 SLOAD DUP3 AND SWAP6 DUP8 AND SWAP6 SWAP1 SWAP6 OR SWAP1 SWAP5 SSTORE PUSH1 0x3 DUP1 SLOAD DUP6 AND SWAP4 DUP7 AND SWAP4 SWAP1 SWAP4 OR SWAP1 SWAP3 SSTORE PUSH1 0x4 DUP1 SLOAD DUP5 AND SWAP2 DUP6 AND SWAP2 SWAP1 SWAP2 OR SWAP1 SSTORE PUSH1 0x5 DUP1 SLOAD SWAP1 SWAP3 AND SWAP3 AND SWAP2 SWAP1 SWAP2 OR SWAP1 SSTORE PUSH2 0x35A JUMP JUMPDEST PUSH1 0x0 DUP1 SLOAD PUSH1 0x1 PUSH1 0x1 PUSH1 0xA0 SHL SUB DUP4 DUP2 AND PUSH1 0x1 PUSH1 0x1 PUSH1 0xA0 SHL SUB NOT DUP4 AND DUP2 OR DUP5 SSTORE PUSH1 0x40 MLOAD SWAP2 SWAP1 SWAP3 AND SWAP3 DUP4 SWAP2 PUSH32 0x8BE0079C531659141344CD1FD0A4F28419497F9722A3DAAFE3B4186F6B6457E0 SWAP2 SWAP1 LOG3 POP POP JUMP JUMPDEST DUP1 MLOAD PUSH1 0x1 PUSH1 0x1 PUSH1 0xA0 SHL SUB DUP2 AND DUP2 EQ PUSH2 0x2E1 JUMPI PUSH1 0x0 DUP1 REVERT JUMPDEST SWAP2 SWAP1 POP JUMP JUMPDEST PUSH1 0x0 DUP1 PUSH1 0x0 DUP1 PUSH1 0x0 DUP1 PUSH1 0xC0 DUP8 DUP10 SUB SLT ISZERO PUSH2 0x2FF JUMPI PUSH1 0x0 DUP1 REVERT JUMPDEST PUSH2 0x308 DUP8 PUSH2 0x2CA JUMP JUMPDEST SWAP6 POP PUSH2 0x316 PUSH1 0x20 DUP9 ADD PUSH2 0x2CA JUMP JUMPDEST SWAP5 POP PUSH2 0x324 PUSH1 0x40 DUP9 ADD PUSH2 0x2CA JUMP JUMPDEST SWAP4 POP PUSH2 0x332 PUSH1 0x60 DUP9 ADD PUSH2 0x2CA JUMP JUMPDEST SWAP3 POP PUSH2 0x340 PUSH1 0x80 DUP9 ADD PUSH2 0x2CA JUMP JUMPDEST SWAP2 POP PUSH2 0x34E PUSH1 0xA0 DUP9 ADD PUSH2 0x2CA JUMP JUMPDEST SWAP1 POP SWAP3 SWAP6 POP SWAP3 SWAP6 POP SWAP3 SWAP6 JUMP JUMPDEST PUSH2 0x150D DUP1 PUSH2 0x369 PUSH1 0x0 CODECOPY PUSH1 0x0 RETURN INVALID PUSH1 0x80 PUSH1 0x40 MSTORE PUSH1 0x4 CALLDATASIZE LT PUSH2 0xEC JUMPI PUSH1 0x0 CALLDATALOAD PUSH1 0xE0 SHR DUP1 PUSH4 0x8DA5CB5B GT PUSH2 0x8A JUMPI DUP1 PUSH4 0xD4698016 GT PUSH2 0x59 JUMPI DUP1 PUSH4 0xD4698016 EQ PUSH2 0x26A JUMPI DUP1 PUSH4 0xF2FDE38B EQ PUSH2 0x28A JUMPI DUP1 PUSH4 0xFC0D6874 EQ PUSH2 0x2AA JUMPI DUP1 PUSH4 0xFFE6F79A EQ PUSH2 0x2CA JUMPI PUSH1 0x0 DUP1 REVERT JUMPDEST DUP1 PUSH4 0x8DA5CB5B EQ PUSH2 0x1EC JUMPI DUP1 PUSH4 0x93565B4C EQ PUSH2 0x20A JUMPI DUP1 PUSH4 0x9D81A8AA EQ PUSH2 0x22A JUMPI DUP1 PUSH4 0xA43D6C1B EQ PUSH2 0x24A JUMPI PUSH1 0x0 DUP1 REVERT JUMPDEST DUP1 PUSH4 0x6CFBBB75 GT PUSH2 0xC6 JUMPI DUP1 PUSH4 0x6CFBBB75 EQ PUSH2 0x177 JUMPI DUP1 PUSH4 0x715018A6 EQ PUSH2 0x197 JUMPI DUP1 PUSH4 0x735DE9F7 EQ PUSH2 0x1AC JUMPI DUP1 PUSH4 0x8BDB2AFA EQ PUSH2 0x1CC JUMPI PUSH1 0x0 DUP1 REVERT JUMPDEST DUP1 PUSH4 0x10D67098 EQ PUSH2 0xF8 JUMPI DUP1 PUSH4 0x3B78439A EQ PUSH2 0x135 JUMPI DUP1 PUSH4 0x58F11763 EQ PUSH2 0x157 JUMPI PUSH1 0x0 DUP1 REVERT JUMPDEST CALLDATASIZE PUSH2 0xF3 JUMPI STOP JUMPDEST PUSH1 0x0 DUP1 REVERT JUMPDEST CALLVALUE DUP1 ISZERO PUSH2 0x104 JUMPI PUSH1 0x0 DUP1 REVERT JUMPDEST POP PUSH1 0x1 SLOAD PUSH2 0x118 SWAP1 PUSH1 0x1 PUSH1 0x1 PUSH1 0xA0 SHL SUB AND DUP2 JUMP JUMPDEST PUSH1 0x40 MLOAD PUSH1 0x1 PUSH1 0x1 PUSH1 0xA0 SHL SUB SWAP1 SWAP2 AND DUP2 MSTORE PUSH1 0x20 ADD JUMPDEST PUSH1 0x40 MLOAD DUP1 SWAP2 SUB SWAP1 RETURN JUMPDEST CALLVALUE DUP1 ISZERO PUSH2 0x141 JUMPI PUSH1 0x0 DUP1 REVERT JUMPDEST POP PUSH2 0x155 PUSH2 0x150 CALLDATASIZE PUSH1 0x4 PUSH2 0x12A1 JUMP JUMPDEST PUSH2 0x2EE JUMP JUMPDEST STOP JUMPDEST CALLVALUE DUP1 ISZERO PUSH2 0x163 JUMPI PUSH1 0x0 DUP1 REVERT JUMPDEST POP PUSH2 0x155 PUSH2 0x172 CALLDATASIZE PUSH1 0x4 PUSH2 0x12C3 JUMP JUMPDEST PUSH2 0x532 JUMP JUMPDEST CALLVALUE DUP1 ISZERO PUSH2 0x183 JUMPI PUSH1 0x0 DUP1 REVERT JUMPDEST POP PUSH2 0x155 PUSH2 0x192 CALLDATASIZE PUSH1 0x4 PUSH2 0x12C3 JUMP JUMPDEST PUSH2 0x72B JUMP JUMPDEST CALLVALUE DUP1 ISZERO PUSH2 0x1A3 JUMPI PUSH1 0x0 DUP1 REVERT JUMPDEST POP PUSH2 0x155 PUSH2 0xA84 JUMP JUMPDEST CALLVALUE DUP1 ISZERO PUSH2 0x1B8 JUMPI PUSH1 0x0 DUP1 REVERT JUMPDEST POP PUSH1 0x3 SLOAD PUSH2 0x118 SWAP1 PUSH1 0x1 PUSH1 0x1 PUSH1 0xA0 SHL SUB AND DUP2 JUMP JUMPDEST CALLVALUE DUP1 ISZERO PUSH2 0x1D8 JUMPI PUSH1 0x0 DUP1 REVERT JUMPDEST POP PUSH1 0x4 SLOAD PUSH2 0x118 SWAP1 PUSH1 0x1 PUSH1 0x1 PUSH1 0xA0 SHL SUB AND DUP2 JUMP JUMPDEST CALLVALUE DUP1 ISZERO PUSH2 0x1F8 JUMPI PUSH1 0x0 DUP1 REVERT JUMPDEST POP PUSH1 0x0 SLOAD PUSH1 0x1 PUSH1 0x1 PUSH1 0xA0 SHL SUB AND PUSH2 0x118 JUMP JUMPDEST CALLVALUE DUP1 ISZERO PUSH2 0x216 JUMPI PUSH1 0x0 DUP1 REVERT JUMPDEST POP PUSH1 0x2 SLOAD PUSH2 0x118 SWAP1 PUSH1 0x1 PUSH1 0x1 PUSH1 0xA0 SHL SUB AND DUP2 JUMP JUMPDEST CALLVALUE DUP1 ISZERO PUSH2 0x236 JUMPI PUSH1 0x0 DUP1 REVERT JUMPDEST POP PUSH2 0x155 PUSH2 0x245 CALLDATASIZE PUSH1 0x4 PUSH2 0x12C3 JUMP JUMPDEST PUSH2 0xA98 JUMP JUMPDEST CALLVALUE DUP1 ISZERO PUSH2 0x256 JUMPI PUSH1 0x0 DUP1 REVERT JUMPDEST POP PUSH2 0x155 PUSH2 0x265 CALLDATASIZE PUSH1 0x4 PUSH2 0x12A1 JUMP JUMPDEST PUSH2 0xDE3 JUMP JUMPDEST CALLVALUE DUP1 ISZERO PUSH2 0x276 JUMPI PUSH1 0x0 DUP1 REVERT JUMPDEST POP PUSH1 0x5 SLOAD PUSH2 0x118 SWAP1 PUSH1 0x1 PUSH1 0x1 PUSH1 0xA0 SHL SUB AND DUP2 JUMP JUMPDEST CALLVALUE DUP1 ISZERO PUSH2 0x296 JUMPI PUSH1 0x0 DUP1 REVERT JUMPDEST POP PUSH2 0x155 PUSH2 0x2A5 CALLDATASIZE PUSH1 0x4 PUSH2 0x1304 JUMP JUMPDEST PUSH2 0x101F JUMP JUMPDEST CALLVALUE DUP1 ISZERO PUSH2 0x2B6 JUMPI PUSH1 0x0 DUP1 REVERT JUMPDEST POP PUSH2 0x155 PUSH2 0x2C5 CALLDATASIZE PUSH1 0x4 PUSH2 0x12C3 JUMP JUMPDEST PUSH2 0x1033 JUMP JUMPDEST CALLVALUE DUP1 ISZERO PUSH2 0x2D6 JUMPI PUSH1 0x0 DUP1 REVERT JUMPDEST POP PUSH2 0x2E0 PUSH2 0x4B0 DUP2 JUMP JUMPDEST PUSH1 0x40 MLOAD SWAP1 DUP2 MSTORE PUSH1 0x20 ADD PUSH2 0x12C JUMP JUMPDEST PUSH2 0x2F6 PUSH2 0x121F JUMP JUMPDEST PUSH1 0x2 SLOAD PUSH1 0x40 MLOAD PUSH4 0x23B872DD PUSH1 0xE0 SHL DUP2 MSTORE PUSH1 0x1 PUSH1 0x1 PUSH1 0xA0 SHL SUB SWAP1 SWAP2 AND SWAP1 PUSH4 0x23B872DD SWAP1 PUSH2 0x32A SWAP1 CALLER SWAP1 ADDRESS SWAP1 DUP8 SWAP1 PUSH1 0x4 ADD PUSH2 0x1328 JUMP JUMPDEST PUSH1 0x20 PUSH1 0x40 MLOAD DUP1 DUP4 SUB DUP2 PUSH1 0x0 DUP8 GAS CALL ISZERO DUP1 ISZERO PUSH2 0x349 JUMPI RETURNDATASIZE PUSH1 0x0 DUP1 RETURNDATACOPY RETURNDATASIZE PUSH1 0x0 REVERT JUMPDEST POP POP POP POP PUSH1 0x40 MLOAD RETURNDATASIZE PUSH1 0x1F NOT PUSH1 0x1F DUP3 ADD AND DUP3 ADD DUP1 PUSH1 0x40 MSTORE POP DUP2 ADD SWAP1 PUSH2 0x36D SWAP2 SWAP1 PUSH2 0x134C JUMP JUMPDEST POP PUSH1 0x2 SLOAD PUSH1 0x3 SLOAD PUSH1 0x40 MLOAD PUSH4 0x95EA7B3 PUSH1 0xE0 SHL DUP2 MSTORE PUSH1 0x1 PUSH1 0x1 PUSH1 0xA0 SHL SUB SWAP2 DUP3 AND PUSH1 0x4 DUP3 ADD MSTORE PUSH1 0x24 DUP2 ADD DUP6 SWAP1 MSTORE SWAP2 AND SWAP1 PUSH4 0x95EA7B3 SWAP1 PUSH1 0x44 ADD PUSH1 0x20 PUSH1 0x40 MLOAD DUP1 DUP4 SUB DUP2 PUSH1 0x0 DUP8 GAS CALL ISZERO DUP1 ISZERO PUSH2 0x3C3 JUMPI RETURNDATASIZE PUSH1 0x0 DUP1 RETURNDATACOPY RETURNDATASIZE PUSH1 0x0 REVERT JUMPDEST POP POP POP POP PUSH1 0x40 MLOAD RETURNDATASIZE PUSH1 0x1F NOT PUSH1 0x1F DUP3 ADD AND DUP3 ADD DUP1 PUSH1 0x40 MSTORE POP DUP2 ADD SWAP1 PUSH2 0x3E7 SWAP2 SWAP1 PUSH2 0x134C JUMP JUMPDEST POP PUSH1 0x40 DUP1 MLOAD PUSH1 0x2 DUP1 DUP3 MSTORE PUSH1 0x60 DUP3 ADD DUP4 MSTORE PUSH1 0x0 SWAP3 PUSH1 0x20 DUP4 ADD SWAP1 DUP1 CALLDATASIZE DUP4 CALLDATACOPY POP POP PUSH1 0x2 SLOAD DUP3 MLOAD SWAP3 SWAP4 POP PUSH1 0x1 PUSH1 0x1 PUSH1 0xA0 SHL SUB AND SWAP2 DUP4 SWAP2 POP PUSH1 0x0 SWAP1 PUSH2 0x429 JUMPI PUSH2 0x429 PUSH2 0x136E JUMP JUMPDEST PUSH1 0x1 PUSH1 0x1 PUSH1 0xA0 SHL SUB SWAP3 DUP4 AND PUSH1 0x20 SWAP2 DUP3 MUL SWAP3 SWAP1 SWAP3 ADD ADD MSTORE PUSH1 0x1 DUP1 SLOAD DUP4 MLOAD SWAP3 AND SWAP2 DUP4 SWAP2 SWAP1 DUP2 LT PUSH2 0x459 JUMPI PUSH2 0x459 PUSH2 0x136E JUMP JUMPDEST PUSH1 0x1 PUSH1 0x1 PUSH1 0xA0 SHL SUB SWAP3 DUP4 AND PUSH1 0x20 SWAP2 DUP3 MUL SWAP3 SWAP1 SWAP3 ADD ADD MSTORE PUSH1 0x3 SLOAD PUSH1 0x5 SLOAD SWAP1 DUP3 AND SWAP2 PUSH4 0x5C11D795 SWAP2 DUP7 SWAP2 DUP7 SWAP2 DUP7 SWAP2 AND PUSH2 0x492 PUSH2 0x4B0 TIMESTAMP PUSH2 0x139A JUMP JUMPDEST PUSH1 0x40 MLOAD DUP7 PUSH4 0xFFFFFFFF AND PUSH1 0xE0 SHL DUP2 MSTORE PUSH1 0x4 ADD PUSH2 0x4B2 SWAP6 SWAP5 SWAP4 SWAP3 SWAP2 SWAP1 PUSH2 0x13B3 JUMP JUMPDEST PUSH1 0x0 PUSH1 0x40 MLOAD DUP1 DUP4 SUB DUP2 PUSH1 0x0 DUP8 DUP1 EXTCODESIZE ISZERO DUP1 ISZERO PUSH2 0x4CC JUMPI PUSH1 0x0 DUP1 REVERT JUMPDEST POP GAS CALL ISZERO DUP1 ISZERO PUSH2 0x4E0 JUMPI RETURNDATASIZE PUSH1 0x0 DUP1 RETURNDATACOPY RETURNDATASIZE PUSH1 0x0 REVERT JUMPDEST POP POP PUSH1 0x1 SLOAD PUSH1 0x2 SLOAD PUSH1 0x40 MLOAD DUP8 DUP2 MSTORE PUSH1 0x1 PUSH1 0x1 PUSH1 0xA0 SHL SUB SWAP3 DUP4 AND SWAP5 POP SWAP2 AND SWAP2 POP PUSH32 0xF7CA15D85D6A1558514FFF5C2F5A3F009726B7F5DFC61A3F80B7107941BEAF1A SWAP1 PUSH1 0x20 ADD JUMPDEST PUSH1 0x40 MLOAD DUP1 SWAP2 SUB SWAP1 LOG3 POP POP POP JUMP JUMPDEST PUSH2 0x53A PUSH2 0x121F JUMP JUMPDEST PUSH1 0x2 SLOAD PUSH1 0x40 MLOAD PUSH4 0x23B872DD PUSH1 0xE0 SHL DUP2 MSTORE DUP5 SWAP2 PUSH1 0x1 PUSH1 0x1 PUSH1 0xA0 SHL SUB AND SWAP1 PUSH4 0x23B872DD SWAP1 PUSH2 0x56E SWAP1 CALLER SWAP1 ADDRESS SWAP1 DUP7 SWAP1 PUSH1 0x4 ADD PUSH2 0x1328 JUMP JUMPDEST PUSH1 0x20 PUSH1 0x40 MLOAD DUP1 DUP4 SUB DUP2 PUSH1 0x0 DUP8 GAS CALL ISZERO DUP1 ISZERO PUSH2 0x58D JUMPI RETURNDATASIZE PUSH1 0x0 DUP1 RETURNDATACOPY RETURNDATASIZE PUSH1 0x0 REVERT JUMPDEST POP POP POP POP PUSH1 0x40 MLOAD RETURNDATASIZE PUSH1 0x1F NOT PUSH1 0x1F DUP3 ADD AND DUP3 ADD DUP1 PUSH1 0x40 MSTORE POP DUP2 ADD SWAP1 PUSH2 0x5B1 SWAP2 SWAP1 PUSH2 0x134C JUMP JUMPDEST POP PUSH1 0x2 SLOAD PUSH1 0x3 SLOAD PUSH1 0x40 MLOAD PUSH4 0x95EA7B3 PUSH1 0xE0 SHL DUP2 MSTORE PUSH1 0x1 PUSH1 0x1 PUSH1 0xA0 SHL SUB SWAP2 DUP3 AND PUSH1 0x4 DUP3 ADD MSTORE PUSH1 0x24 DUP2 ADD DUP5 SWAP1 MSTORE SWAP2 AND SWAP1 PUSH4 0x95EA7B3 SWAP1 PUSH1 0x44 ADD PUSH1 0x20 PUSH1 0x40 MLOAD DUP1 DUP4 SUB DUP2 PUSH1 0x0 DUP8 GAS CALL ISZERO DUP1 ISZERO PUSH2 0x607 JUMPI RETURNDATASIZE PUSH1 0x0 DUP1 RETURNDATACOPY RETURNDATASIZE PUSH1 0x0 REVERT JUMPDEST POP POP POP POP PUSH1 0x40 MLOAD RETURNDATASIZE PUSH1 0x1F NOT PUSH1 0x1F DUP3 ADD AND DUP3 ADD DUP1 PUSH1 0x40 MSTORE POP DUP2 ADD SWAP1 PUSH2 0x62B SWAP2 SWAP1 PUSH2 0x134C JUMP JUMPDEST POP PUSH1 0x3 SLOAD PUSH1 0x2 SLOAD PUSH1 0x5 SLOAD PUSH1 0x0 SWAP3 DUP4 SWAP3 DUP4 SWAP3 PUSH1 0x1 PUSH1 0x1 PUSH1 0xA0 SHL SUB SWAP3 DUP4 AND SWAP3 PUSH4 0xF305D719 SWAP3 SELFBALANCE SWAP3 SWAP1 DUP3 AND SWAP2 DUP10 SWAP2 DUP13 SWAP2 DUP13 SWAP2 AND PUSH2 0x667 PUSH2 0x4B0 TIMESTAMP PUSH2 0x139A JUMP JUMPDEST PUSH1 0x40 MLOAD DUP9 PUSH4 0xFFFFFFFF AND PUSH1 0xE0 SHL DUP2 MSTORE PUSH1 0x4 ADD PUSH2 0x688 SWAP7 SWAP6 SWAP5 SWAP4 SWAP3 SWAP2 SWAP1 PUSH2 0x1425 JUMP JUMPDEST PUSH1 0x60 PUSH1 0x40 MLOAD DUP1 DUP4 SUB DUP2 DUP6 DUP9 GAS CALL ISZERO DUP1 ISZERO PUSH2 0x6A6 JUMPI RETURNDATASIZE PUSH1 0x0 DUP1 RETURNDATACOPY RETURNDATASIZE PUSH1 0x0 REVERT JUMPDEST POP POP POP POP POP PUSH1 0x40 MLOAD RETURNDATASIZE PUSH1 0x1F NOT PUSH1 0x1F DUP3 ADD AND DUP3 ADD DUP1 PUSH1 0x40 MSTORE POP DUP2 ADD SWAP1 PUSH2 0x6CB SWAP2 SWAP1 PUSH2 0x1460 JUMP JUMPDEST PUSH1 0x2 SLOAD PUSH1 0x40 DUP1 MLOAD DUP6 DUP2 MSTORE PUSH1 0x20 DUP2 ADD DUP6 SWAP1 MSTORE SWAP1 DUP2 ADD DUP4 SWAP1 MSTORE SWAP4 SWAP7 POP SWAP2 SWAP5 POP SWAP3 POP PUSH1 0x1 PUSH1 0x1 PUSH1 0xA0 SHL SUB AND SWAP1 PUSH32 0x64B83944E79C3CE8D4C297411DE637C3E102D064677AAC0C163976EBDCD6F50E SWAP1 PUSH1 0x60 ADD JUMPDEST PUSH1 0x40 MLOAD DUP1 SWAP2 SUB SWAP1 LOG2 POP POP POP POP POP POP POP JUMP JUMPDEST PUSH2 0x733 PUSH2 0x121F JUMP JUMPDEST PUSH1 0x4 DUP1 SLOAD PUSH1 0x1 SLOAD PUSH1 0x3 SLOAD PUSH1 0x40 DUP1 MLOAD PUSH4 0x15AB88C9 PUSH1 0xE3 SHL DUP2 MSTORE SWAP1 MLOAD PUSH1 0x0 SWAP6 PUSH1 0x1 PUSH1 0x1 PUSH1 0xA0 SHL SUB SWAP6 DUP7 AND SWAP6 PUSH4 0xE6A43905 SWAP6 DUP2 AND SWAP5 AND SWAP3 PUSH4 0xAD5C4648 SWAP3 DUP2 DUP4 ADD SWAP3 PUSH1 0x20 SWAP3 DUP3 SWAP1 SUB ADD DUP2 DUP7 GAS STATICCALL ISZERO DUP1 ISZERO PUSH2 0x78D JUMPI RETURNDATASIZE PUSH1 0x0 DUP1 RETURNDATACOPY RETURNDATASIZE PUSH1 0x0 REVERT JUMPDEST POP POP POP POP PUSH1 0x40 MLOAD RETURNDATASIZE PUSH1 0x1F NOT PUSH1 0x1F DUP3 ADD AND DUP3 ADD DUP1 PUSH1 0x40 MSTORE POP DUP2 ADD SWAP1 PUSH2 0x7B1 SWAP2 SWAP1 PUSH2 0x148E JUMP JUMPDEST PUSH1 0x40 MLOAD PUSH1 0x1 PUSH1 0x1 PUSH1 0xE0 SHL SUB NOT PUSH1 0xE0 DUP6 SWAP1 SHL AND DUP2 MSTORE PUSH1 0x1 PUSH1 0x1 PUSH1 0xA0 SHL SUB SWAP3 DUP4 AND PUSH1 0x4 DUP3 ADD MSTORE SWAP2 AND PUSH1 0x24 DUP3 ADD MSTORE PUSH1 0x44 ADD PUSH1 0x20 PUSH1 0x40 MLOAD DUP1 DUP4 SUB DUP2 DUP7 GAS STATICCALL ISZERO DUP1 ISZERO PUSH2 0x7FC JUMPI RETURNDATASIZE PUSH1 0x0 DUP1 RETURNDATACOPY RETURNDATASIZE PUSH1 0x0 REVERT JUMPDEST POP POP POP POP PUSH1 0x40 MLOAD RETURNDATASIZE PUSH1 0x1F NOT PUSH1 0x1F DUP3 ADD AND DUP3 ADD DUP1 PUSH1 0x40 MSTORE POP DUP2 ADD SWAP1 PUSH2 0x820 SWAP2 SWAP1 PUSH2 0x148E JUMP JUMPDEST PUSH1 0x3 SLOAD PUSH1 0x40 MLOAD PUSH4 0x95EA7B3 PUSH1 0xE0 SHL DUP2 MSTORE PUSH1 0x1 PUSH1 0x1 PUSH1 0xA0 SHL SUB SWAP2 DUP3 AND PUSH1 0x4 DUP3 ADD MSTORE PUSH1 0x24 DUP2 ADD DUP8 SWAP1 MSTORE SWAP2 SWAP3 POP DUP3 AND SWAP1 PUSH4 0x95EA7B3 SWAP1 PUSH1 0x44 ADD PUSH1 0x20 PUSH1 0x40 MLOAD DUP1 DUP4 SUB DUP2 PUSH1 0x0 DUP8 GAS CALL ISZERO DUP1 ISZERO PUSH2 0x875 JUMPI RETURNDATASIZE PUSH1 0x0 DUP1 RETURNDATACOPY RETURNDATASIZE PUSH1 0x0 REVERT JUMPDEST POP POP POP POP PUSH1 0x40 MLOAD RETURNDATASIZE PUSH1 0x1F NOT PUSH1 0x1F DUP3 ADD AND DUP3 ADD DUP1 PUSH1 0x40 MSTORE POP DUP2 ADD SWAP1 PUSH2 0x899 SWAP2 SWAP1 PUSH2 0x134C JUMP JUMPDEST POP PUSH1 0x1 SLOAD PUSH1 0x5 SLOAD PUSH1 0x40 MLOAD PUSH4 0x70A08231 PUSH1 0xE0 SHL DUP2 MSTORE PUSH1 0x1 PUSH1 0x1 PUSH1 0xA0 SHL SUB SWAP2 DUP3 AND PUSH1 0x4 DUP3 ADD MSTORE PUSH1 0x0 SWAP3 SWAP2 SWAP1 SWAP2 AND SWAP1 PUSH4 0x70A08231 SWAP1 PUSH1 0x24 ADD PUSH1 0x20 PUSH1 0x40 MLOAD DUP1 DUP4 SUB DUP2 DUP7 GAS STATICCALL ISZERO DUP1 ISZERO PUSH2 0x8EB JUMPI RETURNDATASIZE PUSH1 0x0 DUP1 RETURNDATACOPY RETURNDATASIZE PUSH1 0x0 REVERT JUMPDEST POP POP POP POP PUSH1 0x40 MLOAD RETURNDATASIZE PUSH1 0x1F NOT PUSH1 0x1F DUP3 ADD AND DUP3 ADD DUP1 PUSH1 0x40 MSTORE POP DUP2 ADD SWAP1 PUSH2 0x90F SWAP2 SWAP1 PUSH2 0x14AB JUMP JUMPDEST PUSH1 0x3 SLOAD PUSH1 0x1 SLOAD PUSH1 0x5 SLOAD SWAP3 SWAP4 POP PUSH1 0x0 SWAP3 PUSH1 0x1 PUSH1 0x1 PUSH1 0xA0 SHL SUB SWAP3 DUP4 AND SWAP3 PUSH4 0xAF2979EB SWAP3 DUP2 AND SWAP2 DUP11 SWAP2 DUP11 SWAP2 DUP11 SWAP2 AND PUSH2 0x946 PUSH2 0x4B0 TIMESTAMP PUSH2 0x139A JUMP JUMPDEST PUSH1 0x40 MLOAD DUP8 PUSH4 0xFFFFFFFF AND PUSH1 0xE0 SHL DUP2 MSTORE PUSH1 0x4 ADD PUSH2 0x967 SWAP7 SWAP6 SWAP5 SWAP4 SWAP3 SWAP2 SWAP1 PUSH2 0x1425 JUMP JUMPDEST PUSH1 0x20 PUSH1 0x40 MLOAD DUP1 DUP4 SUB DUP2 PUSH1 0x0 DUP8 GAS CALL ISZERO DUP1 ISZERO PUSH2 0x986 JUMPI RETURNDATASIZE PUSH1 0x0 DUP1 RETURNDATACOPY RETURNDATASIZE PUSH1 0x0 REVERT JUMPDEST POP POP POP POP PUSH1 0x40 MLOAD RETURNDATASIZE PUSH1 0x1F NOT PUSH1 0x1F DUP3 ADD AND DUP3 ADD DUP1 PUSH1 0x40 MSTORE POP DUP2 ADD SWAP1 PUSH2 0x9AA SWAP2 SWAP1 PUSH2 0x14AB JUMP JUMPDEST PUSH1 0x1 SLOAD PUSH1 0x5 SLOAD PUSH1 0x40 MLOAD PUSH4 0x70A08231 PUSH1 0xE0 SHL DUP2 MSTORE PUSH1 0x1 PUSH1 0x1 PUSH1 0xA0 SHL SUB SWAP2 DUP3 AND PUSH1 0x4 DUP3 ADD MSTORE SWAP3 SWAP4 POP PUSH1 0x0 SWAP3 SWAP2 AND SWAP1 PUSH4 0x70A08231 SWAP1 PUSH1 0x24 ADD PUSH1 0x20 PUSH1 0x40 MLOAD DUP1 DUP4 SUB DUP2 DUP7 GAS STATICCALL ISZERO DUP1 ISZERO PUSH2 0x9FC JUMPI RETURNDATASIZE PUSH1 0x0 DUP1 RETURNDATACOPY RETURNDATASIZE PUSH1 0x0 REVERT JUMPDEST POP POP POP POP PUSH1 0x40 MLOAD RETURNDATASIZE PUSH1 0x1F NOT PUSH1 0x1F DUP3 ADD AND DUP3 ADD DUP1 PUSH1 0x40 MSTORE POP DUP2 ADD SWAP1 PUSH2 0xA20 SWAP2 SWAP1 PUSH2 0x14AB JUMP JUMPDEST SWAP1 POP PUSH1 0x0 PUSH2 0xA2E DUP5 DUP4 PUSH2 0x14C4 JUMP JUMPDEST PUSH1 0x1 SLOAD PUSH1 0x40 DUP1 MLOAD DUP4 DUP2 MSTORE PUSH1 0x20 DUP2 ADD DUP8 SWAP1 MSTORE SWAP3 SWAP4 POP PUSH1 0x1 PUSH1 0x1 PUSH1 0xA0 SHL SUB SWAP1 SWAP2 AND SWAP2 PUSH32 0x96CD817C6329656790EF8FBA7675405193677D39619571282F5E21F3A98CD059 SWAP2 ADD JUMPDEST PUSH1 0x40 MLOAD DUP1 SWAP2 SUB SWAP1 LOG2 POP POP POP POP POP POP POP POP JUMP JUMPDEST PUSH2 0xA8C PUSH2 0x121F JUMP JUMPDEST PUSH2 0xA96 PUSH1 0x0 PUSH2 0x1251 JUMP JUMPDEST JUMP JUMPDEST PUSH2 0xAA0 PUSH2 0x121F JUMP JUMPDEST PUSH1 0x4 DUP1 SLOAD PUSH1 0x2 SLOAD PUSH1 0x3 SLOAD PUSH1 0x40 DUP1 MLOAD PUSH4 0x15AB88C9 PUSH1 0xE3 SHL DUP2 MSTORE SWAP1 MLOAD PUSH1 0x0 SWAP6 PUSH1 0x1 PUSH1 0x1 PUSH1 0xA0 SHL SUB SWAP6 DUP7 AND SWAP6 PUSH4 0xE6A43905 SWAP6 DUP2 AND SWAP5 AND SWAP3 PUSH4 0xAD5C4648 SWAP3 DUP2 DUP4 ADD SWAP3 PUSH1 0x20 SWAP3 DUP3 SWAP1 SUB ADD DUP2 DUP7 GAS STATICCALL ISZERO DUP1 ISZERO PUSH2 0xAFA JUMPI RETURNDATASIZE PUSH1 0x0 DUP1 RETURNDATACOPY RETURNDATASIZE PUSH1 0x0 REVERT JUMPDEST POP POP POP POP PUSH1 0x40 MLOAD RETURNDATASIZE PUSH1 0x1F NOT PUSH1 0x1F DUP3 ADD AND DUP3 ADD DUP1 PUSH1 0x40 MSTORE POP DUP2 ADD SWAP1 PUSH2 0xB1E SWAP2 SWAP1 PUSH2 0x148E JUMP JUMPDEST PUSH1 0x40 MLOAD PUSH1 0x1 PUSH1 0x1 PUSH1 0xE0 SHL SUB NOT PUSH1 0xE0 DUP6 SWAP1 SHL AND DUP2 MSTORE PUSH1 0x1 PUSH1 0x1 PUSH1 0xA0 SHL SUB SWAP3 DUP4 AND PUSH1 0x4 DUP3 ADD MSTORE SWAP2 AND PUSH1 0x24 DUP3 ADD MSTORE PUSH1 0x44 ADD PUSH1 0x20 PUSH1 0x40 MLOAD DUP1 DUP4 SUB DUP2 DUP7 GAS STATICCALL ISZERO DUP1 ISZERO PUSH2 0xB69 JUMPI RETURNDATASIZE PUSH1 0x0 DUP1 RETURNDATACOPY RETURNDATASIZE PUSH1 0x0 REVERT JUMPDEST POP POP POP POP PUSH1 0x40 MLOAD RETURNDATASIZE PUSH1 0x1F NOT PUSH1 0x1F DUP3 ADD AND DUP3 ADD DUP1 PUSH1 0x40 MSTORE POP DUP2 ADD SWAP1 PUSH2 0xB8D SWAP2 SWAP1 PUSH2 0x148E JUMP JUMPDEST PUSH1 0x3 SLOAD PUSH1 0x40 MLOAD PUSH4 0x95EA7B3 PUSH1 0xE0 SHL DUP2 MSTORE PUSH1 0x1 PUSH1 0x1 PUSH1 0xA0 SHL SUB SWAP2 DUP3 AND PUSH1 0x4 DUP3 ADD MSTORE PUSH1 0x24 DUP2 ADD DUP8 SWAP1 MSTORE SWAP2 SWAP3 POP DUP3 AND SWAP1 PUSH4 0x95EA7B3 SWAP1 PUSH1 0x44 ADD PUSH1 0x20 PUSH1 0x40 MLOAD DUP1 DUP4 SUB DUP2 PUSH1 0x0 DUP8 GAS CALL ISZERO DUP1 ISZERO PUSH2 0xBE2 JUMPI RETURNDATASIZE PUSH1 0x0 DUP1 RETURNDATACOPY RETURNDATASIZE PUSH1 0x0 REVERT JUMPDEST POP POP POP POP PUSH1 0x40 MLOAD RETURNDATASIZE PUSH1 0x1F NOT PUSH1 0x1F DUP3 ADD AND DUP3 ADD DUP1 PUSH1 0x40 MSTORE POP DUP2 ADD SWAP1 PUSH2 0xC06 SWAP2 SWAP1 PUSH2 0x134C JUMP JUMPDEST POP PUSH1 0x2 SLOAD PUSH1 0x5 SLOAD PUSH1 0x40 MLOAD PUSH4 0x70A08231 PUSH1 0xE0 SHL DUP2 MSTORE PUSH1 0x1 PUSH1 0x1 PUSH1 0xA0 SHL SUB SWAP2 DUP3 AND PUSH1 0x4 DUP3 ADD MSTORE PUSH1 0x0 SWAP3 SWAP2 SWAP1 SWAP2 AND SWAP1 PUSH4 0x70A08231 SWAP1 PUSH1 0x24 ADD PUSH1 0x20 PUSH1 0x40 MLOAD DUP1 DUP4 SUB DUP2 DUP7 GAS STATICCALL ISZERO DUP1 ISZERO PUSH2 0xC58 JUMPI RETURNDATASIZE PUSH1 0x0 DUP1 RETURNDATACOPY RETURNDATASIZE PUSH1 0x0 REVERT JUMPDEST POP POP POP POP PUSH1 0x40 MLOAD RETURNDATASIZE PUSH1 0x1F NOT PUSH1 0x1F DUP3 ADD AND DUP3 ADD DUP1 PUSH1 0x40 MSTORE POP DUP2 ADD SWAP1 PUSH2 0xC7C SWAP2 SWAP1 PUSH2 0x14AB JUMP JUMPDEST PUSH1 0x3 SLOAD PUSH1 0x2 SLOAD PUSH1 0x5 SLOAD SWAP3 SWAP4 POP PUSH1 0x0 SWAP3 PUSH1 0x1 PUSH1 0x1 PUSH1 0xA0 SHL SUB SWAP3 DUP4 AND SWAP3 PUSH4 0xAF2979EB SWAP3 DUP2 AND SWAP2 DUP11 SWAP2 DUP11 SWAP2 DUP11 SWAP2 AND PUSH2 0xCB3 PUSH2 0x4B0 TIMESTAMP PUSH2 0x139A JUMP JUMPDEST PUSH1 0x40 MLOAD DUP8 PUSH4 0xFFFFFFFF AND PUSH1 0xE0 SHL DUP2 MSTORE PUSH1 0x4 ADD PUSH2 0xCD4 SWAP7 SWAP6 SWAP5 SWAP4 SWAP3 SWAP2 SWAP1 PUSH2 0x1425 JUMP JUMPDEST PUSH1 0x20 PUSH1 0x40 MLOAD DUP1 DUP4 SUB DUP2 PUSH1 0x0 DUP8 GAS CALL ISZERO DUP1 ISZERO PUSH2 0xCF3 JUMPI RETURNDATASIZE PUSH1 0x0 DUP1 RETURNDATACOPY RETURNDATASIZE PUSH1 0x0 REVERT JUMPDEST POP POP POP POP PUSH1 0x40 MLOAD RETURNDATASIZE PUSH1 0x1F NOT PUSH1 0x1F DUP3 ADD AND DUP3 ADD DUP1 PUSH1 0x40 MSTORE POP DUP2 ADD SWAP1 PUSH2 0xD17 SWAP2 SWAP1 PUSH2 0x14AB JUMP JUMPDEST PUSH1 0x2 SLOAD PUSH1 0x5 SLOAD PUSH1 0x40 MLOAD PUSH4 0x70A08231 PUSH1 0xE0 SHL DUP2 MSTORE PUSH1 0x1 PUSH1 0x1 PUSH1 0xA0 SHL SUB SWAP2 DUP3 AND PUSH1 0x4 DUP3 ADD MSTORE SWAP3 SWAP4 POP PUSH1 0x0 SWAP3 SWAP2 AND SWAP1 PUSH4 0x70A08231 SWAP1 PUSH1 0x24 ADD PUSH1 0x20 PUSH1 0x40 MLOAD DUP1 DUP4 SUB DUP2 DUP7 GAS STATICCALL ISZERO DUP1 ISZERO PUSH2 0xD69 JUMPI RETURNDATASIZE PUSH1 0x0 DUP1 RETURNDATACOPY RETURNDATASIZE PUSH1 0x0 REVERT JUMPDEST POP POP POP POP PUSH1 0x40 MLOAD RETURNDATASIZE PUSH1 0x1F NOT PUSH1 0x1F DUP3 ADD AND DUP3 ADD DUP1 PUSH1 0x40 MSTORE POP DUP2 ADD SWAP1 PUSH2 0xD8D SWAP2 SWAP1 PUSH2 0x14AB JUMP JUMPDEST SWAP1 POP PUSH1 0x0 PUSH2 0xD9B DUP5 DUP4 PUSH2 0x14C4 JUMP JUMPDEST PUSH1 0x2 SLOAD PUSH1 0x40 DUP1 MLOAD DUP4 DUP2 MSTORE PUSH1 0x20 DUP2 ADD DUP8 SWAP1 MSTORE SWAP3 SWAP4 POP PUSH1 0x1 PUSH1 0x1 PUSH1 0xA0 SHL SUB SWAP1 SWAP2 AND SWAP2 PUSH32 0x96CD817C6329656790EF8FBA7675405193677D39619571282F5E21F3A98CD059 SWAP2 ADD PUSH2 0xA72 JUMP JUMPDEST PUSH2 0xDEB PUSH2 0x121F JUMP JUMPDEST PUSH1 0x1 SLOAD PUSH1 0x40 MLOAD PUSH4 0x23B872DD PUSH1 0xE0 SHL DUP2 MSTORE PUSH1 0x1 PUSH1 0x1 PUSH1 0xA0 SHL SUB SWAP1 SWAP2 AND SWAP1 PUSH4 0x23B872DD SWAP1 PUSH2 0xE1F SWAP1 CALLER SWAP1 ADDRESS SWAP1 DUP8 SWAP1 PUSH1 0x4 ADD PUSH2 0x1328 JUMP JUMPDEST PUSH1 0x20 PUSH1 0x40 MLOAD DUP1 DUP4 SUB DUP2 PUSH1 0x0 DUP8 GAS CALL ISZERO DUP1 ISZERO PUSH2 0xE3E JUMPI RETURNDATASIZE PUSH1 0x0 DUP1 RETURNDATACOPY RETURNDATASIZE PUSH1 0x0 REVERT JUMPDEST POP POP POP POP PUSH1 0x40 MLOAD RETURNDATASIZE PUSH1 0x1F NOT PUSH1 0x1F DUP3 ADD AND DUP3 ADD DUP1 PUSH1 0x40 MSTORE POP DUP2 ADD SWAP1 PUSH2 0xE62 SWAP2 SWAP1 PUSH2 0x134C JUMP JUMPDEST POP PUSH1 0x1 SLOAD PUSH1 0x3 SLOAD PUSH1 0x40 MLOAD PUSH4 0x95EA7B3 PUSH1 0xE0 SHL DUP2 MSTORE PUSH1 0x1 PUSH1 0x1 PUSH1 0xA0 SHL SUB SWAP2 DUP3 AND PUSH1 0x4 DUP3 ADD MSTORE PUSH1 0x24 DUP2 ADD DUP6 SWAP1 MSTORE SWAP2 AND SWAP1 PUSH4 0x95EA7B3 SWAP1 PUSH1 0x44 ADD PUSH1 0x20 PUSH1 0x40 MLOAD DUP1 DUP4 SUB DUP2 PUSH1 0x0 DUP8 GAS CALL ISZERO DUP1 ISZERO PUSH2 0xEB8 JUMPI RETURNDATASIZE PUSH1 0x0 DUP1 RETURNDATACOPY RETURNDATASIZE PUSH1 0x0 REVERT JUMPDEST POP POP POP POP PUSH1 0x40 MLOAD RETURNDATASIZE PUSH1 0x1F NOT PUSH1 0x1F DUP3 ADD AND DUP3 ADD DUP1 PUSH1 0x40 MSTORE POP DUP2 ADD SWAP1 PUSH2 0xEDC SWAP2 SWAP1 PUSH2 0x134C JUMP JUMPDEST POP PUSH1 0x40 DUP1 MLOAD PUSH1 0x2 DUP1 DUP3 MSTORE PUSH1 0x60 DUP3 ADD DUP4 MSTORE PUSH1 0x0 SWAP3 PUSH1 0x20 DUP4 ADD SWAP1 DUP1 CALLDATASIZE DUP4 CALLDATACOPY POP POP PUSH1 0x1 SLOAD DUP3 MLOAD SWAP3 SWAP4 POP PUSH1 0x1 PUSH1 0x1 PUSH1 0xA0 SHL SUB AND SWAP2 DUP4 SWAP2 POP PUSH1 0x0 SWAP1 PUSH2 0xF1E JUMPI PUSH2 0xF1E PUSH2 0x136E JUMP JUMPDEST PUSH1 0x1 PUSH1 0x1 PUSH1 0xA0 SHL SUB SWAP3 DUP4 AND PUSH1 0x20 SWAP2 DUP3 MUL SWAP3 SWAP1 SWAP3 ADD ADD MSTORE PUSH1 0x2 SLOAD DUP3 MLOAD SWAP2 AND SWAP1 DUP3 SWAP1 PUSH1 0x1 SWAP1 DUP2 LT PUSH2 0xF4F JUMPI PUSH2 0xF4F PUSH2 0x136E JUMP JUMPDEST PUSH1 0x1 PUSH1 0x1 PUSH1 0xA0 SHL SUB SWAP3 DUP4 AND PUSH1 0x20 SWAP2 DUP3 MUL SWAP3 SWAP1 SWAP3 ADD ADD MSTORE PUSH1 0x3 SLOAD PUSH1 0x5 SLOAD SWAP1 DUP3 AND SWAP2 PUSH4 0x5C11D795 SWAP2 DUP7 SWAP2 DUP7 SWAP2 DUP7 SWAP2 AND PUSH2 0xF88 PUSH2 0x4B0 TIMESTAMP PUSH2 0x139A JUMP JUMPDEST PUSH1 0x40 MLOAD DUP7 PUSH4 0xFFFFFFFF AND PUSH1 0xE0 SHL DUP2 MSTORE PUSH1 0x4 ADD PUSH2 0xFA8 SWAP6 SWAP5 SWAP4 SWAP3 SWAP2 SWAP1 PUSH2 0x13B3 JUMP JUMPDEST PUSH1 0x0 PUSH1 0x40 MLOAD DUP1 DUP4 SUB DUP2 PUSH1 0x0 DUP8 DUP1 EXTCODESIZE ISZERO DUP1 ISZERO PUSH2 0xFC2 JUMPI PUSH1 0x0 DUP1 REVERT JUMPDEST POP GAS CALL ISZERO DUP1 ISZERO PUSH2 0xFD6 JUMPI RETURNDATASIZE PUSH1 0x0 DUP1 RETURNDATACOPY RETURNDATASIZE PUSH1 0x0 REVERT JUMPDEST POP POP PUSH1 0x2 SLOAD PUSH1 0x1 SLOAD PUSH1 0x40 MLOAD DUP8 DUP2 MSTORE PUSH1 0x1 PUSH1 0x1 PUSH1 0xA0 SHL SUB SWAP3 DUP4 AND SWAP5 POP SWAP2 AND SWAP2 POP PUSH32 0xF7CA15D85D6A1558514FFF5C2F5A3F009726B7F5DFC61A3F80B7107941BEAF1A SWAP1 PUSH1 0x20 ADD PUSH2 0x525 JUMP JUMPDEST PUSH2 0x1027 PUSH2 0x121F JUMP JUMPDEST PUSH2 0x1030 DUP2 PUSH2 0x1251 JUMP JUMPDEST POP JUMP JUMPDEST PUSH2 0x103B PUSH2 0x121F JUMP JUMPDEST PUSH1 0x1 SLOAD PUSH1 0x40 MLOAD PUSH4 0x23B872DD PUSH1 0xE0 SHL DUP2 MSTORE DUP5 SWAP2 PUSH1 0x1 PUSH1 0x1 PUSH1 0xA0 SHL SUB AND SWAP1 PUSH4 0x23B872DD SWAP1 PUSH2 0x106F SWAP1 CALLER SWAP1 ADDRESS SWAP1 DUP7 SWAP1 PUSH1 0x4 ADD PUSH2 0x1328 JUMP JUMPDEST PUSH1 0x20 PUSH1 0x40 MLOAD DUP1 DUP4 SUB DUP2 PUSH1 0x0 DUP8 GAS CALL ISZERO DUP1 ISZERO PUSH2 0x108E JUMPI RETURNDATASIZE PUSH1 0x0 DUP1 RETURNDATACOPY RETURNDATASIZE PUSH1 0x0 REVERT JUMPDEST POP POP POP POP PUSH1 0x40 MLOAD RETURNDATASIZE PUSH1 0x1F NOT PUSH1 0x1F DUP3 ADD AND DUP3 ADD DUP1 PUSH1 0x40 MSTORE POP DUP2 ADD SWAP1 PUSH2 0x10B2 SWAP2 SWAP1 PUSH2 0x134C JUMP JUMPDEST POP PUSH1 0x1 SLOAD PUSH1 0x3 SLOAD PUSH1 0x40 MLOAD PUSH4 0x95EA7B3 PUSH1 0xE0 SHL DUP2 MSTORE PUSH1 0x1 PUSH1 0x1 PUSH1 0xA0 SHL SUB SWAP2 DUP3 AND PUSH1 0x4 DUP3 ADD MSTORE PUSH1 0x24 DUP2 ADD DUP5 SWAP1 MSTORE SWAP2 AND SWAP1 PUSH4 0x95EA7B3 SWAP1 PUSH1 0x44 ADD PUSH1 0x20 PUSH1 0x40 MLOAD DUP1 DUP4 SUB DUP2 PUSH1 0x0 DUP8 GAS CALL ISZERO DUP1 ISZERO PUSH2 0x1108 JUMPI RETURNDATASIZE PUSH1 0x0 DUP1 RETURNDATACOPY RETURNDATASIZE PUSH1 0x0 REVERT JUMPDEST POP POP POP POP PUSH1 0x40 MLOAD RETURNDATASIZE PUSH1 0x1F NOT PUSH1 0x1F DUP3 ADD AND DUP3 ADD DUP1 PUSH1 0x40 MSTORE POP DUP2 ADD SWAP1 PUSH2 0x112C SWAP2 SWAP1 PUSH2 0x134C JUMP JUMPDEST POP PUSH1 0x3 SLOAD PUSH1 0x1 SLOAD PUSH1 0x5 SLOAD PUSH1 0x0 SWAP3 DUP4 SWAP3 DUP4 SWAP3 PUSH1 0x1 PUSH1 0x1 PUSH1 0xA0 SHL SUB SWAP3 DUP4 AND SWAP3 PUSH4 0xF305D719 SWAP3 SELFBALANCE SWAP3 SWAP1 DUP3 AND SWAP2 DUP10 SWAP2 DUP13 SWAP2 DUP13 SWAP2 AND PUSH2 0x1168 PUSH2 0x4B0 TIMESTAMP PUSH2 0x139A JUMP JUMPDEST PUSH1 0x40 MLOAD DUP9 PUSH4 0xFFFFFFFF AND PUSH1 0xE0 SHL DUP2 MSTORE PUSH1 0x4 ADD PUSH2 0x1189 SWAP7 SWAP6 SWAP5 SWAP4 SWAP3 SWAP2 SWAP1 PUSH2 0x1425 JUMP JUMPDEST PUSH1 0x60 PUSH1 0x40 MLOAD DUP1 DUP4 SUB DUP2 DUP6 DUP9 GAS CALL ISZERO DUP1 ISZERO PUSH2 0x11A7 JUMPI RETURNDATASIZE PUSH1 0x0 DUP1 RETURNDATACOPY RETURNDATASIZE PUSH1 0x0 REVERT JUMPDEST POP POP POP POP POP PUSH1 0x40 MLOAD RETURNDATASIZE PUSH1 0x1F NOT PUSH1 0x1F DUP3 ADD AND DUP3 ADD DUP1 PUSH1 0x40 MSTORE POP DUP2 ADD SWAP1 PUSH2 0x11CC SWAP2 SWAP1 PUSH2 0x1460 JUMP JUMPDEST PUSH1 0x1 SLOAD PUSH1 0x40 DUP1 MLOAD DUP6 DUP2 MSTORE PUSH1 0x20 DUP2 ADD DUP6 SWAP1 MSTORE SWAP1 DUP2 ADD DUP4 SWAP1 MSTORE SWAP4 SWAP7 POP SWAP2 SWAP5 POP SWAP3 POP PUSH1 0x1 PUSH1 0x1 PUSH1 0xA0 SHL SUB AND SWAP1 PUSH32 0x64B83944E79C3CE8D4C297411DE637C3E102D064677AAC0C163976EBDCD6F50E SWAP1 PUSH1 0x60 ADD PUSH2 0x71A JUMP JUMPDEST PUSH1 0x0 SLOAD PUSH1 0x1 PUSH1 0x1 PUSH1 0xA0 SHL SUB AND CALLER EQ PUSH2 0xA96 JUMPI PUSH1 0x40 DUP1 MLOAD PUSH4 0x118CDAA7 PUSH1 0xE0 SHL DUP2 MSTORE CALLER PUSH1 0x4 DUP3 ADD MSTORE SWAP1 MLOAD SWAP1 DUP2 SWAP1 SUB PUSH1 0x24 ADD SWAP1 REVERT JUMPDEST PUSH1 0x0 DUP1 SLOAD PUSH1 0x1 PUSH1 0x1 PUSH1 0xA0 SHL SUB DUP4 DUP2 AND PUSH1 0x1 PUSH1 0x1 PUSH1 0xA0 SHL SUB NOT DUP4 AND DUP2 OR DUP5 SSTORE PUSH1 0x40 MLOAD SWAP2 SWAP1 SWAP3 AND SWAP3 DUP4 SWAP2 PUSH32 0x8BE0079C531659141344CD1FD0A4F28419497F9722A3DAAFE3B4186F6B6457E0 SWAP2 SWAP1 LOG3 POP POP JUMP JUMPDEST PUSH1 0x0 DUP1 PUSH1 0x40 DUP4 DUP6 SUB SLT ISZERO PUSH2 0x12B4 JUMPI PUSH1 0x0 DUP1 REVERT JUMPDEST POP POP DUP1 CALLDATALOAD SWAP3 PUSH1 0x20 SWAP1 SWAP2 ADD CALLDATALOAD SWAP2 POP JUMP JUMPDEST PUSH1 0x0 DUP1 PUSH1 0x0 PUSH1 0x60 DUP5 DUP7 SUB SLT ISZERO PUSH2 0x12D8 JUMPI PUSH1 0x0 DUP1 REVERT JUMPDEST POP POP DUP2 CALLDATALOAD SWAP4 PUSH1 0x20 DUP4 ADD CALLDATALOAD SWAP4 POP PUSH1 0x40 SWAP1 SWAP3 ADD CALLDATALOAD SWAP2 SWAP1 POP JUMP JUMPDEST PUSH1 0x1 PUSH1 0x1 PUSH1 0xA0 SHL SUB DUP2 AND DUP2 EQ PUSH2 0x1030 JUMPI PUSH1 0x0 DUP1 REVERT JUMPDEST PUSH1 0x0 PUSH1 0x20 DUP3 DUP5 SUB SLT ISZERO PUSH2 0x1316 JUMPI PUSH1 0x0 DUP1 REVERT JUMPDEST DUP2 CALLDATALOAD PUSH2 0x1321 DUP2 PUSH2 0x12EF JUMP JUMPDEST SWAP4 SWAP3 POP POP POP JUMP JUMPDEST PUSH1 0x1 PUSH1 0x1 PUSH1 0xA0 SHL SUB SWAP4 DUP5 AND DUP2 MSTORE SWAP2 SWAP1 SWAP3 AND PUSH1 0x20 DUP3 ADD MSTORE PUSH1 0x40 DUP2 ADD SWAP2 SWAP1 SWAP2 MSTORE PUSH1 0x60 ADD SWAP1 JUMP JUMPDEST PUSH1 0x0 PUSH1 0x20 DUP3 DUP5 SUB SLT ISZERO PUSH2 0x135E JUMPI PUSH1 0x0 DUP1 REVERT JUMPDEST DUP2 MLOAD DUP1 ISZERO ISZERO DUP2 EQ PUSH2 0x1321 JUMPI PUSH1 0x0 DUP1 REVERT JUMPDEST PUSH4 0x4E487B71 PUSH1 0xE0 SHL PUSH1 0x0 MSTORE PUSH1 0x32 PUSH1 0x4 MSTORE PUSH1 0x24 PUSH1 0x0 REVERT JUMPDEST PUSH4 0x4E487B71 PUSH1 0xE0 SHL PUSH1 0x0 MSTORE PUSH1 0x11 PUSH1 0x4 MSTORE PUSH1 0x24 PUSH1 0x0 REVERT JUMPDEST DUP1 DUP3 ADD DUP1 DUP3 GT ISZERO PUSH2 0x13AD JUMPI PUSH2 0x13AD PUSH2 0x1384 JUMP JUMPDEST SWAP3 SWAP2 POP POP JUMP JUMPDEST PUSH1 0x0 PUSH1 0xA0 DUP3 ADD DUP8 DUP4 MSTORE DUP7 PUSH1 0x20 DUP5 ADD MSTORE PUSH1 0xA0 PUSH1 0x40 DUP5 ADD MSTORE DUP1 DUP7 MLOAD DUP1 DUP4 MSTORE PUSH1 0xC0 DUP6 ADD SWAP2 POP PUSH1 0x20 DUP9 ADD SWAP3 POP PUSH1 0x0 JUMPDEST DUP2 DUP2 LT ISZERO PUSH2 0x1405 JUMPI DUP4 MLOAD PUSH1 0x1 PUSH1 0x1 PUSH1 0xA0 SHL SUB AND DUP4 MSTORE PUSH1 0x20 SWAP4 DUP5 ADD SWAP4 SWAP1 SWAP3 ADD SWAP2 PUSH1 0x1 ADD PUSH2 0x13DE JUMP JUMPDEST POP POP PUSH1 0x1 PUSH1 0x1 PUSH1 0xA0 SHL SUB SWAP6 SWAP1 SWAP6 AND PUSH1 0x60 DUP5 ADD MSTORE POP POP PUSH1 0x80 ADD MSTORE SWAP4 SWAP3 POP POP POP JUMP JUMPDEST PUSH1 0x1 PUSH1 0x1 PUSH1 0xA0 SHL SUB SWAP7 DUP8 AND DUP2 MSTORE PUSH1 0x20 DUP2 ADD SWAP6 SWAP1 SWAP6 MSTORE PUSH1 0x40 DUP6 ADD SWAP4 SWAP1 SWAP4 MSTORE PUSH1 0x60 DUP5 ADD SWAP2 SWAP1 SWAP2 MSTORE SWAP1 SWAP3 AND PUSH1 0x80 DUP3 ADD MSTORE PUSH1 0xA0 DUP2 ADD SWAP2 SWAP1 SWAP2 MSTORE PUSH1 0xC0 ADD SWAP1 JUMP JUMPDEST PUSH1 0x0 DUP1 PUSH1 0x0 PUSH1 0x60 DUP5 DUP7 SUB SLT ISZERO PUSH2 0x1475 JUMPI PUSH1 0x0 DUP1 REVERT JUMPDEST POP POP DUP2 MLOAD PUSH1 0x20 DUP4 ADD MLOAD PUSH1 0x40 SWAP1 SWAP4 ADD MLOAD SWAP1 SWAP5 SWAP3 SWAP4 POP SWAP2 SWAP1 POP JUMP JUMPDEST PUSH1 0x0 PUSH1 0x20 DUP3 DUP5 SUB SLT ISZERO PUSH2 0x14A0 JUMPI PUSH1 0x0 DUP1 REVERT JUMPDEST DUP2 MLOAD PUSH2 0x1321 DUP2 PUSH2 0x12EF JUMP JUMPDEST PUSH1 0x0 PUSH1 0x20 DUP3 DUP5 SUB SLT ISZERO PUSH2 0x14BD JUMPI PUSH1 0x0 DUP1 REVERT JUMPDEST POP MLOAD SWAP2 SWAP1 POP JUMP JUMPDEST DUP2 DUP2 SUB DUP2 DUP2 GT ISZERO PUSH2 0x13AD JUMPI PUSH2 0x13AD PUSH2 0x1384 JUMP INVALID LOG2 PUSH5 0x6970667358 0x22 SLT KECCAK256 PUSH9 0x83622CCA1243C274D8 0x24 EXP PUSH6 0x49E3AB27E75F 0xAD 0xC9 BYTE DUP2 0xE3 DUP1 MLOAD 0xC9 0xE4 DUP13 PUSH31 0xBEA064736F6C634300081C0033000000000000000000000000000000000000 "
				},
				"gasEstimates": {
					"creation": {
						"codeDepositCost": "1077800",
						"executionCost": "infinite",
						"totalCost": "infinite"
					},
					"external": {
						"DEADLINE_EXTENSION()": "283",
						"addLiquidityQ4A(uint256,uint256,uint256)": "infinite",
						"addLiquidityUB4(uint256,uint256,uint256)": "infinite",
						"liquidityWallet()": "2348",
						"owner()": "2343",
						"quantumToken()": "2371",
						"removeLiquidityQ4A(uint256,uint256,uint256)": "infinite",
						"removeLiquidityUB4(uint256,uint256,uint256)": "infinite",
						"renounceOwnership()": "infinite",
						"swapQ4AtoUB4(uint256,uint256)": "infinite",
						"swapUB4toQ4A(uint256,uint256)": "infinite",
						"transferOwnership(address)": "infinite",
						"ubi4allToken()": "2350",
						"uniswapFactory()": "2415",
						"uniswapRouter()": "2393"
					}
				},
				"methodIdentifiers": {
					"DEADLINE_EXTENSION()": "ffe6f79a",
					"addLiquidityQ4A(uint256,uint256,uint256)": "58f11763",
					"addLiquidityUB4(uint256,uint256,uint256)": "fc0d6874",
					"liquidityWallet()": "d4698016",
					"owner()": "8da5cb5b",
					"quantumToken()": "93565b4c",
					"removeLiquidityQ4A(uint256,uint256,uint256)": "9d81a8aa",
					"removeLiquidityUB4(uint256,uint256,uint256)": "6cfbbb75",
					"renounceOwnership()": "715018a6",
					"swapQ4AtoUB4(uint256,uint256)": "3b78439a",
					"swapUB4toQ4A(uint256,uint256)": "a43d6c1b",
					"transferOwnership(address)": "f2fde38b",
					"ubi4allToken()": "10d67098",
					"uniswapFactory()": "8bdb2afa",
					"uniswapRouter()": "735de9f7"
				}
			},
			"storageLayout": {
				"storage": [
					{
						"astId": 8,
						"contract": "quantum/UBI4ALLLiquidator.sol:UBI4ALLLiquidator",
						"label": "_owner",
						"offset": 0,
						"slot": "0",
						"type": "t_address"
					},
					{
						"astId": 964,
						"contract": "quantum/UBI4ALLLiquidator.sol:UBI4ALLLiquidator",
						"label": "ubi4allToken",
						"offset": 0,
						"slot": "1",
						"type": "t_contract(IERC20)225"
					},
					{
						"astId": 967,
						"contract": "quantum/UBI4ALLLiquidator.sol:UBI4ALLLiquidator",
						"label": "quantumToken",
						"offset": 0,
						"slot": "2",
						"type": "t_contract(IERC20)225"
					},
					{
						"astId": 970,
						"contract": "quantum/UBI4ALLLiquidator.sol:UBI4ALLLiquidator",
						"label": "uniswapRouter",
						"offset": 0,
						"slot": "3",
						"type": "t_contract(IUniswapV2Router02)948"
					},
					{
						"astId": 973,
						"contract": "quantum/UBI4ALLLiquidator.sol:UBI4ALLLiquidator",
						"label": "uniswapFactory",
						"offset": 0,
						"slot": "4",
						"type": "t_contract(IUniswapV2Factory)608"
					},
					{
						"astId": 975,
						"contract": "quantum/UBI4ALLLiquidator.sol:UBI4ALLLiquidator",
						"label": "liquidityWallet",
						"offset": 0,
						"slot": "5",
						"type": "t_address"
					}
				],
				"types": {
					"t_address": {
						"encoding": "inplace",
						"label": "address",
						"numberOfBytes": "20"
					},
					"t_contract(IERC20)225": {
						"encoding": "inplace",
						"label": "contract IERC20",
						"numberOfBytes": "20"
					},
					"t_contract(IUniswapV2Factory)608": {
						"encoding": "inplace",
						"label": "contract IUniswapV2Factory",
						"numberOfBytes": "20"
					},
					"t_contract(IUniswapV2Router02)948": {
						"encoding": "inplace",
						"label": "contract IUniswapV2Router02",
						"numberOfBytes": "20"
					}
				}
			},
			"userdoc": {
				"kind": "user",
				"methods": {},
				"version": 1
			}
		}
	}
}