{
	"quantum/UBI4ALLQuantum.sol": {
		"UBI4ALLQuantum": {
			"abi": [
				{
					"inputs": [
						{
							"internalType": "address",
							"name": "_treasuryWallet",
							"type": "address"
						},
						{
							"internalType": "address",
							"name": "_ecosystemWallet",
							"type": "address"
						},
						{
							"internalType": "address",
							"name": "_communityWallet",
							"type": "address"
						},
						{
							"internalType": "address",
							"name": "_liquidityWallet",
							"type": "address"
						},
						{
							"internalType": "address",
							"name": "_reserveWallet",
							"type": "address"
						},
						{
							"internalType": "address",
							"name": "initialOwner",
							"type": "address"
						}
					],
					"stateMutability": "nonpayable",
					"type": "constructor"
				},
				{
					"inputs": [
						{
							"internalType": "address",
							"name": "spender",
							"type": "address"
						},
						{
							"internalType": "uint256",
							"name": "allowance",
							"type": "uint256"
						},
						{
							"internalType": "uint256",
							"name": "needed",
							"type": "uint256"
						}
					],
					"name": "ERC20InsufficientAllowance",
					"type": "error"
				},
				{
					"inputs": [
						{
							"internalType": "address",
							"name": "sender",
							"type": "address"
						},
						{
							"internalType": "uint256",
							"name": "balance",
							"type": "uint256"
						},
						{
							"internalType": "uint256",
							"name": "needed",
							"type": "uint256"
						}
					],
					"name": "ERC20InsufficientBalance",
					"type": "error"
				},
				{
					"inputs": [
						{
							"internalType": "address",
							"name": "approver",
							"type": "address"
						}
					],
					"name": "ERC20InvalidApprover",
					"type": "error"
				},
				{
					"inputs": [
						{
							"internalType": "address",
							"name": "receiver",
							"type": "address"
						}
					],
					"name": "ERC20InvalidReceiver",
					"type": "error"
				},
				{
					"inputs": [
						{
							"internalType": "address",
							"name": "sender",
							"type": "address"
						}
					],
					"name": "ERC20InvalidSender",
					"type": "error"
				},
				{
					"inputs": [
						{
							"internalType": "address",
							"name": "spender",
							"type": "address"
						}
					],
					"name": "ERC20InvalidSpender",
					"type": "error"
				},
				{
					"inputs": [
						{
							"internalType": "address",
							"name": "owner",
							"type": "address"
						}
					],
					"name": "OwnableInvalidOwner",
					"type": "error"
				},
				{
					"inputs": [
						{
							"internalType": "address",
							"name": "account",
							"type": "address"
						}
					],
					"name": "OwnableUnauthorizedAccount",
					"type": "error"
				},
				{
					"anonymous": false,
					"inputs": [
						{
							"indexed": true,
							"internalType": "address",
							"name": "owner",
							"type": "address"
						},
						{
							"indexed": true,
							"internalType": "address",
							"name": "spender",
							"type": "address"
						},
						{
							"indexed": false,
							"internalType": "uint256",
							"name": "value",
							"type": "uint256"
						}
					],
					"name": "Approval",
					"type": "event"
				},
				{
					"anonymous": false,
					"inputs": [
						{
							"indexed": true,
							"internalType": "address",
							"name": "token",
							"type": "address"
						},
						{
							"indexed": true,
							"internalType": "address",
							"name": "to",
							"type": "address"
						},
						{
							"indexed": false,
							"internalType": "uint256",
							"name": "amount",
							"type": "uint256"
						}
					],
					"name": "EmergencyRecovery",
					"type": "event"
				},
				{
					"anonymous": false,
					"inputs": [
						{
							"indexed": true,
							"internalType": "address",
							"name": "from",
							"type": "address"
						},
						{
							"indexed": true,
							"internalType": "address",
							"name": "to",
							"type": "address"
						},
						{
							"indexed": false,
							"internalType": "uint256",
							"name": "amount",
							"type": "uint256"
						},
						{
							"indexed": false,
							"internalType": "uint256",
							"name": "leverage",
							"type": "uint256"
						}
					],
					"name": "LeveragedTransfer",
					"type": "event"
				},
				{
					"anonymous": false,
					"inputs": [
						{
							"indexed": true,
							"internalType": "address",
							"name": "previousOwner",
							"type": "address"
						},
						{
							"indexed": true,
							"internalType": "address",
							"name": "newOwner",
							"type": "address"
						}
					],
					"name": "OwnershipTransferred",
					"type": "event"
				},
				{
					"anonymous": false,
					"inputs": [
						{
							"indexed": false,
							"internalType": "address",
							"name": "account",
							"type": "address"
						}
					],
					"name": "Paused",
					"type": "event"
				},
				{
					"anonymous": false,
					"inputs": [
						{
							"indexed": true,
							"internalType": "address",
							"name": "from",
							"type": "address"
						},
						{
							"indexed": true,
							"internalType": "address",
							"name": "to",
							"type": "address"
						},
						{
							"indexed": false,
							"internalType": "uint256",
							"name": "amount",
							"type": "uint256"
						}
					],
					"name": "QuantumTransfer",
					"type": "event"
				},
				{
					"anonymous": false,
					"inputs": [
						{
							"indexed": true,
							"internalType": "address",
							"name": "account",
							"type": "address"
						},
						{
							"indexed": false,
							"internalType": "uint256",
							"name": "amount",
							"type": "uint256"
						}
					],
					"name": "TokensBurned",
					"type": "event"
				},
				{
					"anonymous": false,
					"inputs": [
						{
							"indexed": true,
							"internalType": "address",
							"name": "account",
							"type": "address"
						},
						{
							"indexed": false,
							"internalType": "uint256",
							"name": "amount",
							"type": "uint256"
						}
					],
					"name": "TokensLockedForDAO",
					"type": "event"
				},
				{
					"anonymous": false,
					"inputs": [
						{
							"indexed": true,
							"internalType": "address",
							"name": "account",
							"type": "address"
						},
						{
							"indexed": false,
							"internalType": "uint256",
							"name": "amount",
							"type": "uint256"
						}
					],
					"name": "TokensUnlockedForDAO",
					"type": "event"
				},
				{
					"anonymous": false,
					"inputs": [
						{
							"indexed": true,
							"internalType": "address",
							"name": "from",
							"type": "address"
						},
						{
							"indexed": true,
							"internalType": "address",
							"name": "to",
							"type": "address"
						},
						{
							"indexed": false,
							"internalType": "uint256",
							"name": "value",
							"type": "uint256"
						}
					],
					"name": "Transfer",
					"type": "event"
				},
				{
					"anonymous": false,
					"inputs": [
						{
							"indexed": false,
							"internalType": "address",
							"name": "account",
							"type": "address"
						}
					],
					"name": "Unpaused",
					"type": "event"
				},
				{
					"anonymous": false,
					"inputs": [
						{
							"indexed": true,
							"internalType": "address",
							"name": "wallet",
							"type": "address"
						},
						{
							"indexed": false,
							"internalType": "uint256",
							"name": "amount",
							"type": "uint256"
						}
					],
					"name": "VestingReleased",
					"type": "event"
				},
				{
					"anonymous": false,
					"inputs": [
						{
							"indexed": false,
							"internalType": "string",
							"name": "walletType",
							"type": "string"
						},
						{
							"indexed": false,
							"internalType": "address",
							"name": "newWallet",
							"type": "address"
						}
					],
					"name": "WalletUpdated",
					"type": "event"
				},
				{
					"inputs": [],
					"name": "COMMUNITY_ALLOCATION",
					"outputs": [
						{
							"internalType": "uint256",
							"name": "",
							"type": "uint256"
						}
					],
					"stateMutability": "view",
					"type": "function"
				},
				{
					"inputs": [],
					"name": "ECOSYSTEM_ALLOCATION",
					"outputs": [
						{
							"internalType": "uint256",
							"name": "",
							"type": "uint256"
						}
					],
					"stateMutability": "view",
					"type": "function"
				},
				{
					"inputs": [],
					"name": "LIQUIDITY_ALLOCATION",
					"outputs": [
						{
							"internalType": "uint256",
							"name": "",
							"type": "uint256"
						}
					],
					"stateMutability": "view",
					"type": "function"
				},
				{
					"inputs": [],
					"name": "RESERVE_ALLOCATION",
					"outputs": [
						{
							"internalType": "uint256",
							"name": "",
							"type": "uint256"
						}
					],
					"stateMutability": "view",
					"type": "function"
				},
				{
					"inputs": [],
					"name": "TOTAL_SUPPLY",
					"outputs": [
						{
							"internalType": "uint256",
							"name": "",
							"type": "uint256"
						}
					],
					"stateMutability": "view",
					"type": "function"
				},
				{
					"inputs": [],
					"name": "TREASURY_ALLOCATION",
					"outputs": [
						{
							"internalType": "uint256",
							"name": "",
							"type": "uint256"
						}
					],
					"stateMutability": "view",
					"type": "function"
				},
				{
					"inputs": [],
					"name": "VESTING_PERIOD",
					"outputs": [
						{
							"internalType": "uint256",
							"name": "",
							"type": "uint256"
						}
					],
					"stateMutability": "view",
					"type": "function"
				},
				{
					"inputs": [
						{
							"internalType": "address",
							"name": "owner",
							"type": "address"
						},
						{
							"internalType": "address",
							"name": "spender",
							"type": "address"
						}
					],
					"name": "allowance",
					"outputs": [
						{
							"internalType": "uint256",
							"name": "",
							"type": "uint256"
						}
					],
					"stateMutability": "view",
					"type": "function"
				},
				{
					"inputs": [
						{
							"internalType": "address",
							"name": "spender",
							"type": "address"
						},
						{
							"internalType": "uint256",
							"name": "value",
							"type": "uint256"
						}
					],
					"name": "approve",
					"outputs": [
						{
							"internalType": "bool",
							"name": "",
							"type": "bool"
						}
					],
					"stateMutability": "nonpayable",
					"type": "function"
				},
				{
					"inputs": [
						{
							"internalType": "address",
							"name": "account",
							"type": "address"
						}
					],
					"name": "balanceOf",
					"outputs": [
						{
							"internalType": "uint256",
							"name": "",
							"type": "uint256"
						}
					],
					"stateMutability": "view",
					"type": "function"
				},
				{
					"inputs": [
						{
							"internalType": "uint256",
							"name": "amount",
							"type": "uint256"
						}
					],
					"name": "burn",
					"outputs": [],
					"stateMutability": "nonpayable",
					"type": "function"
				},
				{
					"inputs": [],
					"name": "communityWallet",
					"outputs": [
						{
							"internalType": "address",
							"name": "",
							"type": "address"
						}
					],
					"stateMutability": "view",
					"type": "function"
				},
				{
					"inputs": [],
					"name": "decimals",
					"outputs": [
						{
							"internalType": "uint8",
							"name": "",
							"type": "uint8"
						}
					],
					"stateMutability": "view",
					"type": "function"
				},
				{
					"inputs": [],
					"name": "ecosystemWallet",
					"outputs": [
						{
							"internalType": "address",
							"name": "",
							"type": "address"
						}
					],
					"stateMutability": "view",
					"type": "function"
				},
				{
					"inputs": [
						{
							"internalType": "address",
							"name": "token",
							"type": "address"
						},
						{
							"internalType": "address",
							"name": "to",
							"type": "address"
						}
					],
					"name": "emergencyRecoverTokens",
					"outputs": [],
					"stateMutability": "nonpayable",
					"type": "function"
				},
				{
					"inputs": [],
					"name": "getAllocations",
					"outputs": [
						{
							"internalType": "uint256",
							"name": "treasury",
							"type": "uint256"
						},
						{
							"internalType": "uint256",
							"name": "ecosystem",
							"type": "uint256"
						},
						{
							"internalType": "uint256",
							"name": "community",
							"type": "uint256"
						},
						{
							"internalType": "uint256",
							"name": "liquidity",
							"type": "uint256"
						},
						{
							"internalType": "uint256",
							"name": "reserve",
							"type": "uint256"
						}
					],
					"stateMutability": "pure",
					"type": "function"
				},
				{
					"inputs": [
						{
							"internalType": "address",
							"name": "wallet",
							"type": "address"
						}
					],
					"name": "getReleasableVesting",
					"outputs": [
						{
							"internalType": "uint256",
							"name": "",
							"type": "uint256"
						}
					],
					"stateMutability": "view",
					"type": "function"
				},
				{
					"inputs": [],
					"name": "getTotalSupply",
					"outputs": [
						{
							"internalType": "uint256",
							"name": "",
							"type": "uint256"
						}
					],
					"stateMutability": "pure",
					"type": "function"
				},
				{
					"inputs": [],
					"name": "getWallets",
					"outputs": [
						{
							"internalType": "address",
							"name": "treasury",
							"type": "address"
						},
						{
							"internalType": "address",
							"name": "ecosystem",
							"type": "address"
						},
						{
							"internalType": "address",
							"name": "community",
							"type": "address"
						},
						{
							"internalType": "address",
							"name": "liquidity",
							"type": "address"
						},
						{
							"internalType": "address",
							"name": "reserve",
							"type": "address"
						}
					],
					"stateMutability": "view",
					"type": "function"
				},
				{
					"inputs": [],
					"name": "liquidityWallet",
					"outputs": [
						{
							"internalType": "address",
							"name": "",
							"type": "address"
						}
					],
					"stateMutability": "view",
					"type": "function"
				},
				{
					"inputs": [
						{
							"internalType": "uint256",
							"name": "amount",
							"type": "uint256"
						}
					],
					"name": "lockForDAO",
					"outputs": [],
					"stateMutability": "nonpayable",
					"type": "function"
				},
				{
					"inputs": [
						{
							"internalType": "address",
							"name": "",
							"type": "address"
						}
					],
					"name": "lockedForDAO",
					"outputs": [
						{
							"internalType": "uint256",
							"name": "",
							"type": "uint256"
						}
					],
					"stateMutability": "view",
					"type": "function"
				},
				{
					"inputs": [
						{
							"internalType": "address",
							"name": "to",
							"type": "address"
						},
						{
							"internalType": "uint256",
							"name": "amount",
							"type": "uint256"
						}
					],
					"name": "mint",
					"outputs": [],
					"stateMutability": "nonpayable",
					"type": "function"
				},
				{
					"inputs": [],
					"name": "name",
					"outputs": [
						{
							"internalType": "string",
							"name": "",
							"type": "string"
						}
					],
					"stateMutability": "view",
					"type": "function"
				},
				{
					"inputs": [],
					"name": "owner",
					"outputs": [
						{
							"internalType": "address",
							"name": "",
							"type": "address"
						}
					],
					"stateMutability": "view",
					"type": "function"
				},
				{
					"inputs": [],
					"name": "pause",
					"outputs": [],
					"stateMutability": "nonpayable",
					"type": "function"
				},
				{
					"inputs": [],
					"name": "paused",
					"outputs": [
						{
							"internalType": "bool",
							"name": "",
							"type": "bool"
						}
					],
					"stateMutability": "view",
					"type": "function"
				},
				{
					"inputs": [
						{
							"internalType": "address",
							"name": "wallet",
							"type": "address"
						}
					],
					"name": "releaseVesting",
					"outputs": [],
					"stateMutability": "nonpayable",
					"type": "function"
				},
				{
					"inputs": [],
					"name": "renounceOwnership",
					"outputs": [],
					"stateMutability": "nonpayable",
					"type": "function"
				},
				{
					"inputs": [],
					"name": "reserveWallet",
					"outputs": [
						{
							"internalType": "address",
							"name": "",
							"type": "address"
						}
					],
					"stateMutability": "view",
					"type": "function"
				},
				{
					"inputs": [],
					"name": "symbol",
					"outputs": [
						{
							"internalType": "string",
							"name": "",
							"type": "string"
						}
					],
					"stateMutability": "view",
					"type": "function"
				},
				{
					"inputs": [],
					"name": "totalLockedForDAO",
					"outputs": [
						{
							"internalType": "uint256",
							"name": "",
							"type": "uint256"
						}
					],
					"stateMutability": "view",
					"type": "function"
				},
				{
					"inputs": [],
					"name": "totalSupply",
					"outputs": [
						{
							"internalType": "uint256",
							"name": "",
							"type": "uint256"
						}
					],
					"stateMutability": "view",
					"type": "function"
				},
				{
					"inputs": [
						{
							"internalType": "address",
							"name": "to",
							"type": "address"
						},
						{
							"internalType": "uint256",
							"name": "amount",
							"type": "uint256"
						}
					],
					"name": "transfer",
					"outputs": [
						{
							"internalType": "bool",
							"name": "",
							"type": "bool"
						}
					],
					"stateMutability": "nonpayable",
					"type": "function"
				},
				{
					"inputs": [
						{
							"internalType": "address",
							"name": "from",
							"type": "address"
						},
						{
							"internalType": "address",
							"name": "to",
							"type": "address"
						},
						{
							"internalType": "uint256",
							"name": "value",
							"type": "uint256"
						}
					],
					"name": "transferFrom",
					"outputs": [
						{
							"internalType": "bool",
							"name": "",
							"type": "bool"
						}
					],
					"stateMutability": "nonpayable",
					"type": "function"
				},
				{
					"inputs": [
						{
							"internalType": "address",
							"name": "newOwner",
							"type": "address"
						}
					],
					"name": "transferOwnership",
					"outputs": [],
					"stateMutability": "nonpayable",
					"type": "function"
				},
				{
					"inputs": [
						{
							"internalType": "address",
							"name": "to",
							"type": "address"
						},
						{
							"internalType": "uint256",
							"name": "amount",
							"type": "uint256"
						},
						{
							"internalType": "uint256",
							"name": "leverage",
							"type": "uint256"
						}
					],
					"name": "transferWithLeverage",
					"outputs": [
						{
							"internalType": "bool",
							"name": "",
							"type": "bool"
						}
					],
					"stateMutability": "nonpayable",
					"type": "function"
				},
				{
					"inputs": [],
					"name": "treasuryWallet",
					"outputs": [
						{
							"internalType": "address",
							"name": "",
							"type": "address"
						}
					],
					"stateMutability": "view",
					"type": "function"
				},
				{
					"inputs": [
						{
							"internalType": "uint256",
							"name": "amount",
							"type": "uint256"
						}
					],
					"name": "unlockFromDAO",
					"outputs": [],
					"stateMutability": "nonpayable",
					"type": "function"
				},
				{
					"inputs": [],
					"name": "unpause",
					"outputs": [],
					"stateMutability": "nonpayable",
					"type": "function"
				},
				{
					"inputs": [
						{
							"internalType": "string",
							"name": "walletType",
							"type": "string"
						},
						{
							"internalType": "address",
							"name": "newWallet",
							"type": "address"
						}
					],
					"name": "updateWallet",
					"outputs": [],
					"stateMutability": "nonpayable",
					"type": "function"
				},
				{
					"inputs": [
						{
							"internalType": "address",
							"name": "",
							"type": "address"
						}
					],
					"name": "vestingSchedules",
					"outputs": [
						{
							"internalType": "uint256",
							"name": "totalAmount",
							"type": "uint256"
						},
						{
							"internalType": "uint256",
							"name": "releasedAmount",
							"type": "uint256"
						}
					],
					"stateMutability": "view",
					"type": "function"
				},
				{
					"inputs": [],
					"name": "vestingStart",
					"outputs": [
						{
							"internalType": "uint256",
							"name": "",
							"type": "uint256"
						}
					],
					"stateMutability": "view",
					"type": "function"
				}
			],
			"devdoc": {
				"errors": {
					"ERC20InsufficientAllowance(address,uint256,uint256)": [
						{
							"details": "Indicates a failure with the `spender`’s `allowance`. Used in transfers.",
							"params": {
								"allowance": "Amount of tokens a `spender` is allowed to operate with.",
								"needed": "Minimum amount required to perform a transfer.",
								"spender": "Address that may be allowed to operate on tokens without being their owner."
							}
						}
					],
					"ERC20InsufficientBalance(address,uint256,uint256)": [
						{
							"details": "Indicates an error related to the current `balance` of a `sender`. Used in transfers.",
							"params": {
								"balance": "Current balance for the interacting account.",
								"needed": "Minimum amount required to perform a transfer.",
								"sender": "Address whose tokens are being transferred."
							}
						}
					],
					"ERC20InvalidApprover(address)": [
						{
							"details": "Indicates a failure with the `approver` of a token to be approved. Used in approvals.",
							"params": {
								"approver": "Address initiating an approval operation."
							}
						}
					],
					"ERC20InvalidReceiver(address)": [
						{
							"details": "Indicates a failure with the token `receiver`. Used in transfers.",
							"params": {
								"receiver": "Address to which tokens are being transferred."
							}
						}
					],
					"ERC20InvalidSender(address)": [
						{
							"details": "Indicates a failure with the token `sender`. Used in transfers.",
							"params": {
								"sender": "Address whose tokens are being transferred."
							}
						}
					],
					"ERC20InvalidSpender(address)": [
						{
							"details": "Indicates a failure with the `spender` to be approved. Used in approvals.",
							"params": {
								"spender": "Address that may be allowed to operate on tokens without being their owner."
							}
						}
					],
					"OwnableInvalidOwner(address)": [
						{
							"details": "The owner is not a valid owner account. (eg. `address(0)`)"
						}
					],
					"OwnableUnauthorizedAccount(address)": [
						{
							"details": "The caller account is not authorized to perform an operation."
						}
					]
				},
				"events": {
					"Approval(address,address,uint256)": {
						"details": "Emitted when the allowance of a `spender` for an `owner` is set by a call to {approve}. `value` is the new allowance."
					},
					"Paused(address)": {
						"details": "Emitted when the pause is triggered by `account`."
					},
					"Transfer(address,address,uint256)": {
						"details": "Emitted when `value` tokens are moved from one account (`from`) to another (`to`). Note that `value` may be zero."
					},
					"Unpaused(address)": {
						"details": "Emitted when the pause is lifted by `account`."
					}
				},
				"kind": "dev",
				"methods": {
					"allowance(address,address)": {
						"details": "See {IERC20-allowance}."
					},
					"approve(address,uint256)": {
						"details": "See {IERC20-approve}. NOTE: If `value` is the maximum `uint256`, the allowance is not updated on `transferFrom`. This is semantically equivalent to an infinite approval. Requirements: - `spender` cannot be the zero address."
					},
					"balanceOf(address)": {
						"params": {
							"account": "Indirizzo dell'account"
						},
						"returns": {
							"_0": "Saldo dell'account"
						}
					},
					"burn(uint256)": {
						"params": {
							"amount": "Quantità di token da bruciare"
						}
					},
					"constructor": {
						"params": {
							"_communityWallet": "Indirizzo del wallet comunità",
							"_ecosystemWallet": "Indirizzo del wallet ecosistema",
							"_liquidityWallet": "Indirizzo del wallet liquidità",
							"_reserveWallet": "Indirizzo del wallet riserva",
							"_treasuryWallet": "Indirizzo del wallet treasury",
							"initialOwner": "Indirizzo del proprietario iniziale"
						}
					},
					"decimals()": {
						"details": "Returns the number of decimals used to get its user representation. For example, if `decimals` equals `2`, a balance of `505` tokens should be displayed to a user as `5.05` (`505 / 10 ** 2`). Tokens usually opt for a value of 18, imitating the relationship between Ether and Wei. This is the default value returned by this function, unless it's overridden. NOTE: This information is only used for _display_ purposes: it in no way affects any of the arithmetic of the contract, including {IERC20-balanceOf} and {IERC20-transfer}."
					},
					"emergencyRecoverTokens(address,address)": {
						"params": {
							"to": "Indirizzo del destinatario",
							"token": "Indirizzo del token da recuperare"
						}
					},
					"getAllocations()": {
						"returns": {
							"community": "Allocazione comunità",
							"ecosystem": "Allocazione ecosistema",
							"liquidity": "Allocazione liquidità",
							"reserve": "Allocazione riserva",
							"treasury": "Allocazione treasury"
						}
					},
					"getReleasableVesting(address)": {
						"params": {
							"wallet": "Indirizzo del wallet"
						},
						"returns": {
							"_0": "Importo rilasciabile"
						}
					},
					"getTotalSupply()": {
						"returns": {
							"_0": "Total supply (1 miliardo di Q4A)"
						}
					},
					"getWallets()": {
						"returns": {
							"community": "Indirizzo wallet comunità",
							"ecosystem": "Indirizzo wallet ecosistema",
							"liquidity": "Indirizzo wallet liquidità",
							"reserve": "Indirizzo wallet riserva",
							"treasury": "Indirizzo wallet treasury"
						}
					},
					"lockForDAO(uint256)": {
						"params": {
							"amount": "Quantità di token da bloccare"
						}
					},
					"mint(address,uint256)": {
						"params": {
							"amount": "Quantità di token da mintare",
							"to": "Indirizzo del destinatario"
						}
					},
					"name()": {
						"details": "Returns the name of the token."
					},
					"owner()": {
						"details": "Returns the address of the current owner."
					},
					"paused()": {
						"details": "Returns true if the contract is paused, and false otherwise."
					},
					"releaseVesting(address)": {
						"params": {
							"wallet": "Indirizzo del wallet in vesting"
						}
					},
					"renounceOwnership()": {
						"details": "Leaves the contract without owner. It will not be possible to call `onlyOwner` functions. Can only be called by the current owner. NOTE: Renouncing ownership will leave the contract without an owner, thereby disabling any functionality that is only available to the owner."
					},
					"symbol()": {
						"details": "Returns the symbol of the token, usually a shorter version of the name."
					},
					"totalSupply()": {
						"details": "See {IERC20-totalSupply}."
					},
					"transfer(address,uint256)": {
						"params": {
							"amount": "Quantità di token da trasferire",
							"to": "Indirizzo del destinatario"
						},
						"returns": {
							"_0": "True se il trasferimento ha successo"
						}
					},
					"transferFrom(address,address,uint256)": {
						"details": "See {IERC20-transferFrom}. Skips emitting an {Approval} event indicating an allowance update. This is not required by the ERC. See {xref-ERC20-_approve-address-address-uint256-bool-}[_approve]. NOTE: Does not update the allowance if the current allowance is the maximum `uint256`. Requirements: - `from` and `to` cannot be the zero address. - `from` must have a balance of at least `value`. - the caller must have allowance for ``from``'s tokens of at least `value`."
					},
					"transferOwnership(address)": {
						"details": "Transfers ownership of the contract to a new account (`newOwner`). Can only be called by the current owner."
					},
					"transferWithLeverage(address,uint256,uint256)": {
						"params": {
							"amount": "Quantità di token da trasferire",
							"leverage": "Fattore di leva (es. 100 = 1x, 200 = 2x)",
							"to": "Indirizzo del destinatario"
						},
						"returns": {
							"_0": "True se il trasferimento ha successo"
						}
					},
					"unlockFromDAO(uint256)": {
						"params": {
							"amount": "Quantità di token da sbloccare"
						}
					},
					"updateWallet(string,address)": {
						"params": {
							"newWallet": "Nuovo indirizzo del wallet",
							"walletType": "Tipo di wallet (\"treasury\", \"ecosystem\", \"community\", \"liquidity\", \"reserve\")"
						}
					}
				},
				"stateVariables": {
					"COMMUNITY_ALLOCATION": {
						"details": "Allocazione per la comunità (15%)"
					},
					"ECOSYSTEM_ALLOCATION": {
						"details": "Allocazione per l'ecosistema (20%)"
					},
					"LIQUIDITY_ALLOCATION": {
						"details": "Allocazione per la liquidità (10%)"
					},
					"RESERVE_ALLOCATION": {
						"details": "Allocazione per la riserva (5%)"
					},
					"TOTAL_SUPPLY": {
						"details": "Total supply del token Q4A (1 miliardo di token, 18 decimali)"
					},
					"TREASURY_ALLOCATION": {
						"details": "Allocazione per il treasury (50%)"
					},
					"VESTING_PERIOD": {
						"details": "Periodo di vesting (1 anno)"
					},
					"lockedForDAO": {
						"details": "Mappatura dei token bloccati per la DAO"
					},
					"totalLockedForDAO": {
						"details": "Totale dei token bloccati per la DAO"
					},
					"treasuryWallet": {
						"details": "Wallet per le allocazioni"
					},
					"vestingSchedules": {
						"details": "Mappatura dei vesting per wallet"
					},
					"vestingStart": {
						"details": "Timestamp di inizio del vesting"
					}
				},
				"title": "UBI4ALLQuantum - Token Q4A per trading con leva avanzata",
				"version": 1
			},
			"evm": {
				"assembly": "    /* \"quantum/UBI4ALLQuantum.sol\":562:14358  contract UBI4ALLQuantum is ERC20, Ownable, ReentrancyGuard, Pausable, IUBI4ALLQuantum {... */\n  mstore(0x40, 0xa0)\n    /* \"quantum/UBI4ALLQuantum.sol\":3469:4881  constructor(... */\n  callvalue\n  dup1\n  iszero\n  tag_1\n  jumpi\n  0x00\n  dup1\n  revert\ntag_1:\n  pop\n  mload(0x40)\n  sub(codesize, bytecodeSize)\n  dup1\n  bytecodeSize\n  dup4\n  codecopy\n  dup2\n  add\n  0x40\n  dup2\n  swap1\n  mstore\n  tag_2\n  swap2\n  tag_3\n  jump\t// in\ntag_2:\n    /* \"quantum/UBI4ALLQuantum.sol\":3724:3736  initialOwner */\n  dup1\n    /* \"@openzeppelin/contracts/token/ERC20/ERC20.sol\":1582:1695  constructor(string memory name_, string memory symbol_) {... */\n  mload(0x40)\n  dup1\n  0x40\n  add\n  0x40\n  mstore\n  dup1\n  0x0f\n  dup2\n  mstore\n  0x20\n  add\n  shl(0x8a, 0x145d585b9d1d5b481550924d105313)\n  dup2\n  mstore\n  pop\n  mload(0x40)\n  dup1\n  0x40\n  add\n  0x40\n  mstore\n  dup1\n  0x03\n  dup2\n  mstore\n  0x20\n  add\n  shl(0xe8, 0x513441)\n  dup2\n  mstore\n  pop\n    /* \"@openzeppelin/contracts/token/ERC20/ERC20.sol\":1656:1661  name_ */\n  dup2\n    /* \"@openzeppelin/contracts/token/ERC20/ERC20.sol\":1648:1653  _name */\n  0x03\n    /* \"@openzeppelin/contracts/token/ERC20/ERC20.sol\":1648:1661  _name = name_ */\n  swap1\n  dup2\n  tag_10\n  swap2\n  swap1\n  tag_11\n  jump\t// in\ntag_10:\n  pop\n    /* \"@openzeppelin/contracts/token/ERC20/ERC20.sol\":1671:1678  _symbol */\n  0x04\n    /* \"@openzeppelin/contracts/token/ERC20/ERC20.sol\":1671:1688  _symbol = symbol_ */\n  tag_12\n    /* \"@openzeppelin/contracts/token/ERC20/ERC20.sol\":1681:1688  symbol_ */\n  dup3\n    /* \"@openzeppelin/contracts/token/ERC20/ERC20.sol\":1671:1678  _symbol */\n  dup3\n    /* \"@openzeppelin/contracts/token/ERC20/ERC20.sol\":1671:1688  _symbol = symbol_ */\n  tag_11\n  jump\t// in\ntag_12:\n  pop\n  pop\n  pop\n  sub(shl(0xa0, 0x01), 0x01)\n    /* \"@openzeppelin/contracts/access/Ownable.sol\":1273:1299  initialOwner == address(0) */\n  dup2\n  and\n    /* \"@openzeppelin/contracts/access/Ownable.sol\":1269:1364  if (initialOwner == address(0)) {... */\n  tag_14\n  jumpi\n    /* \"@openzeppelin/contracts/access/Ownable.sol\":1322:1353  OwnableInvalidOwner(address(0)) */\n  mload(0x40)\n  shl(0xe0, 0x1e4fbdf7)\n  dup2\n  mstore\n    /* \"@openzeppelin/contracts/access/Ownable.sol\":1350:1351  0 */\n  0x00\n    /* \"@openzeppelin/contracts/access/Ownable.sol\":1322:1353  OwnableInvalidOwner(address(0)) */\n  0x04\n  dup3\n  add\n    /* \"#utility.yul\":3624:3675   */\n  mstore\n    /* \"#utility.yul\":3597:3615   */\n  0x24\n  add\n    /* \"@openzeppelin/contracts/access/Ownable.sol\":1322:1353  OwnableInvalidOwner(address(0)) */\ntag_15:\n  mload(0x40)\n  dup1\n  swap2\n  sub\n  swap1\n  revert\n    /* \"@openzeppelin/contracts/access/Ownable.sol\":1269:1364  if (initialOwner == address(0)) {... */\ntag_14:\n    /* \"@openzeppelin/contracts/access/Ownable.sol\":1373:1405  _transferOwnership(initialOwner) */\n  tag_17\n    /* \"@openzeppelin/contracts/access/Ownable.sol\":1392:1404  initialOwner */\n  dup2\n    /* \"@openzeppelin/contracts/access/Ownable.sol\":1373:1391  _transferOwnership */\n  tag_18\n    /* \"@openzeppelin/contracts/access/Ownable.sol\":1373:1405  _transferOwnership(initialOwner) */\n  jump\t// in\ntag_17:\n  pop\n    /* \"@openzeppelin/contracts/security/ReentrancyGuard.sol\":1717:1718  1 */\n  0x01\n    /* \"@openzeppelin/contracts/security/ReentrancyGuard.sol\":1822:1829  _status */\n  0x06\n    /* \"@openzeppelin/contracts/security/ReentrancyGuard.sol\":1822:1844  _status = _NOT_ENTERED */\n  sstore\n    /* \"@openzeppelin/contracts/security/Pausable.sol\":997:1004  _paused */\n  0x07\n    /* \"@openzeppelin/contracts/security/Pausable.sol\":997:1012  _paused = false */\n  dup1\n  sload\n  not(0xff)\n  and\n  swap1\n  sstore\n  sub(shl(0xa0, 0x01), 0x01)\n    /* \"quantum/UBI4ALLQuantum.sol\":3756:3785  _treasuryWallet != address(0) */\n  dup7\n  and\n    /* \"quantum/UBI4ALLQuantum.sol\":3748:3813  require(_treasuryWallet != address(0), \"Invalid treasury wallet\") */\n  tag_22\n  jumpi\n  mload(0x40)\n  shl(0xe5, 0x461bcd)\n  dup2\n  mstore\n    /* \"#utility.yul\":3888:3890   */\n  0x20\n    /* \"quantum/UBI4ALLQuantum.sol\":3748:3813  require(_treasuryWallet != address(0), \"Invalid treasury wallet\") */\n  0x04\n  dup3\n  add\n    /* \"#utility.yul\":3870:3891   */\n  mstore\n    /* \"#utility.yul\":3927:3929   */\n  0x17\n    /* \"#utility.yul\":3907:3925   */\n  0x24\n  dup3\n  add\n    /* \"#utility.yul\":3900:3930   */\n  mstore\n    /* \"#utility.yul\":3966:3991   */\n  0x496e76616c69642074726561737572792077616c6c6574000000000000000000\n    /* \"#utility.yul\":3946:3964   */\n  0x44\n  dup3\n  add\n    /* \"#utility.yul\":3939:3992   */\n  mstore\n    /* \"#utility.yul\":4009:4027   */\n  0x64\n  add\n    /* \"quantum/UBI4ALLQuantum.sol\":3748:3813  require(_treasuryWallet != address(0), \"Invalid treasury wallet\") */\n  tag_15\n    /* \"#utility.yul\":3686:4033   */\n  jump\n    /* \"quantum/UBI4ALLQuantum.sol\":3748:3813  require(_treasuryWallet != address(0), \"Invalid treasury wallet\") */\ntag_22:\n  sub(shl(0xa0, 0x01), 0x01)\n    /* \"quantum/UBI4ALLQuantum.sol\":3831:3861  _ecosystemWallet != address(0) */\n  dup6\n  and\n    /* \"quantum/UBI4ALLQuantum.sol\":3823:3890  require(_ecosystemWallet != address(0), \"Invalid ecosystem wallet\") */\n  tag_25\n  jumpi\n  mload(0x40)\n  shl(0xe5, 0x461bcd)\n  dup2\n  mstore\n    /* \"#utility.yul\":4240:4242   */\n  0x20\n    /* \"quantum/UBI4ALLQuantum.sol\":3823:3890  require(_ecosystemWallet != address(0), \"Invalid ecosystem wallet\") */\n  0x04\n  dup3\n  add\n    /* \"#utility.yul\":4222:4243   */\n  mstore\n    /* \"#utility.yul\":4279:4281   */\n  0x18\n    /* \"#utility.yul\":4259:4277   */\n  0x24\n  dup3\n  add\n    /* \"#utility.yul\":4252:4282   */\n  mstore\n    /* \"#utility.yul\":4318:4344   */\n  0x496e76616c69642065636f73797374656d2077616c6c65740000000000000000\n    /* \"#utility.yul\":4298:4316   */\n  0x44\n  dup3\n  add\n    /* \"#utility.yul\":4291:4345   */\n  mstore\n    /* \"#utility.yul\":4362:4380   */\n  0x64\n  add\n    /* \"quantum/UBI4ALLQuantum.sol\":3823:3890  require(_ecosystemWallet != address(0), \"Invalid ecosystem wallet\") */\n  tag_15\n    /* \"#utility.yul\":4038:4386   */\n  jump\n    /* \"quantum/UBI4ALLQuantum.sol\":3823:3890  require(_ecosystemWallet != address(0), \"Invalid ecosystem wallet\") */\ntag_25:\n  sub(shl(0xa0, 0x01), 0x01)\n    /* \"quantum/UBI4ALLQuantum.sol\":3908:3938  _communityWallet != address(0) */\n  dup5\n  and\n    /* \"quantum/UBI4ALLQuantum.sol\":3900:3967  require(_communityWallet != address(0), \"Invalid community wallet\") */\n  tag_28\n  jumpi\n  mload(0x40)\n  shl(0xe5, 0x461bcd)\n  dup2\n  mstore\n    /* \"#utility.yul\":4593:4595   */\n  0x20\n    /* \"quantum/UBI4ALLQuantum.sol\":3900:3967  require(_communityWallet != address(0), \"Invalid community wallet\") */\n  0x04\n  dup3\n  add\n    /* \"#utility.yul\":4575:4596   */\n  mstore\n    /* \"#utility.yul\":4632:4634   */\n  0x18\n    /* \"#utility.yul\":4612:4630   */\n  0x24\n  dup3\n  add\n    /* \"#utility.yul\":4605:4635   */\n  mstore\n    /* \"#utility.yul\":4671:4697   */\n  0x496e76616c696420636f6d6d756e6974792077616c6c65740000000000000000\n    /* \"#utility.yul\":4651:4669   */\n  0x44\n  dup3\n  add\n    /* \"#utility.yul\":4644:4698   */\n  mstore\n    /* \"#utility.yul\":4715:4733   */\n  0x64\n  add\n    /* \"quantum/UBI4ALLQuantum.sol\":3900:3967  require(_communityWallet != address(0), \"Invalid community wallet\") */\n  tag_15\n    /* \"#utility.yul\":4391:4739   */\n  jump\n    /* \"quantum/UBI4ALLQuantum.sol\":3900:3967  require(_communityWallet != address(0), \"Invalid community wallet\") */\ntag_28:\n  sub(shl(0xa0, 0x01), 0x01)\n    /* \"quantum/UBI4ALLQuantum.sol\":3985:4015  _liquidityWallet != address(0) */\n  dup4\n  and\n    /* \"quantum/UBI4ALLQuantum.sol\":3977:4044  require(_liquidityWallet != address(0), \"Invalid liquidity wallet\") */\n  tag_31\n  jumpi\n  mload(0x40)\n  shl(0xe5, 0x461bcd)\n  dup2\n  mstore\n    /* \"#utility.yul\":4946:4948   */\n  0x20\n    /* \"quantum/UBI4ALLQuantum.sol\":3977:4044  require(_liquidityWallet != address(0), \"Invalid liquidity wallet\") */\n  0x04\n  dup3\n  add\n    /* \"#utility.yul\":4928:4949   */\n  mstore\n    /* \"#utility.yul\":4985:4987   */\n  0x18\n    /* \"#utility.yul\":4965:4983   */\n  0x24\n  dup3\n  add\n    /* \"#utility.yul\":4958:4988   */\n  mstore\n    /* \"#utility.yul\":5024:5050   */\n  0x496e76616c6964206c69717569646974792077616c6c65740000000000000000\n    /* \"#utility.yul\":5004:5022   */\n  0x44\n  dup3\n  add\n    /* \"#utility.yul\":4997:5051   */\n  mstore\n    /* \"#utility.yul\":5068:5086   */\n  0x64\n  add\n    /* \"quantum/UBI4ALLQuantum.sol\":3977:4044  require(_liquidityWallet != address(0), \"Invalid liquidity wallet\") */\n  tag_15\n    /* \"#utility.yul\":4744:5092   */\n  jump\n    /* \"quantum/UBI4ALLQuantum.sol\":3977:4044  require(_liquidityWallet != address(0), \"Invalid liquidity wallet\") */\ntag_31:\n  sub(shl(0xa0, 0x01), 0x01)\n    /* \"quantum/UBI4ALLQuantum.sol\":4062:4090  _reserveWallet != address(0) */\n  dup3\n  and\n    /* \"quantum/UBI4ALLQuantum.sol\":4054:4117  require(_reserveWallet != address(0), \"Invalid reserve wallet\") */\n  tag_34\n  jumpi\n  mload(0x40)\n  shl(0xe5, 0x461bcd)\n  dup2\n  mstore\n    /* \"#utility.yul\":5299:5301   */\n  0x20\n    /* \"quantum/UBI4ALLQuantum.sol\":4054:4117  require(_reserveWallet != address(0), \"Invalid reserve wallet\") */\n  0x04\n  dup3\n  add\n    /* \"#utility.yul\":5281:5302   */\n  mstore\n    /* \"#utility.yul\":5338:5340   */\n  0x16\n    /* \"#utility.yul\":5318:5336   */\n  0x24\n  dup3\n  add\n    /* \"#utility.yul\":5311:5341   */\n  mstore\n    /* \"#utility.yul\":5377:5401   */\n  0x496e76616c696420726573657276652077616c6c657400000000000000000000\n    /* \"#utility.yul\":5357:5375   */\n  0x44\n  dup3\n  add\n    /* \"#utility.yul\":5350:5402   */\n  mstore\n    /* \"#utility.yul\":5419:5437   */\n  0x64\n  add\n    /* \"quantum/UBI4ALLQuantum.sol\":4054:4117  require(_reserveWallet != address(0), \"Invalid reserve wallet\") */\n  tag_15\n    /* \"#utility.yul\":5097:5443   */\n  jump\n    /* \"quantum/UBI4ALLQuantum.sol\":4054:4117  require(_reserveWallet != address(0), \"Invalid reserve wallet\") */\ntag_34:\n    /* \"quantum/UBI4ALLQuantum.sol\":4128:4142  treasuryWallet */\n  0x07\n    /* \"quantum/UBI4ALLQuantum.sol\":4128:4160  treasuryWallet = _treasuryWallet */\n  dup1\n  sload\n  not(sub(shl(0xa8, 0x01), 0x0100))\n  and\n  0x0100\n  sub(shl(0xa0, 0x01), 0x01)\n  dup10\n  dup2\n  and\n  swap2\n  swap1\n  swap2\n  mul\n  swap2\n  swap1\n  swap2\n  or\n  swap1\n  swap2\n  sstore\n    /* \"quantum/UBI4ALLQuantum.sol\":4170:4185  ecosystemWallet */\n  0x08\n    /* \"quantum/UBI4ALLQuantum.sol\":4170:4204  ecosystemWallet = _ecosystemWallet */\n  dup1\n  sload\n  not(sub(shl(0xa0, 0x01), 0x01))\n  swap1\n  dup2\n  and\n  dup9\n  dup5\n  and\n  or\n  swap1\n  swap2\n  sstore\n    /* \"quantum/UBI4ALLQuantum.sol\":4214:4229  communityWallet */\n  0x09\n    /* \"quantum/UBI4ALLQuantum.sol\":4214:4248  communityWallet = _communityWallet */\n  dup1\n  sload\n  dup3\n  and\n  dup8\n  dup5\n  and\n  or\n  swap1\n  sstore\n    /* \"quantum/UBI4ALLQuantum.sol\":4258:4273  liquidityWallet */\n  0x0a\n    /* \"quantum/UBI4ALLQuantum.sol\":4258:4292  liquidityWallet = _liquidityWallet */\n  dup1\n  sload\n  dup3\n  and\n  dup7\n  dup5\n  and\n  or\n  swap1\n  sstore\n    /* \"quantum/UBI4ALLQuantum.sol\":4302:4315  reserveWallet */\n  0x0b\n    /* \"quantum/UBI4ALLQuantum.sol\":4302:4332  reserveWallet = _reserveWallet */\n  dup1\n  sload\n  swap1\n  swap2\n  and\n  swap2\n  dup5\n  and\n  swap2\n  swap1\n  swap2\n  or\n  swap1\n  sstore\n    /* \"quantum/UBI4ALLQuantum.sol\":4358:4373  block.timestamp */\n  timestamp\n    /* \"quantum/UBI4ALLQuantum.sol\":4343:4373  vestingStart = block.timestamp */\n  0x80\n  mstore\n    /* \"quantum/UBI4ALLQuantum.sol\":4479:4518  VestingSchedule(TREASURY_ALLOCATION, 0) */\n  0x40\n  dup1\n  mload\n  dup1\n  dup3\n  add\n  swap1\n  swap2\n  mstore\n  dup1\n    /* \"quantum/UBI4ALLQuantum.sol\":944:947  100 */\n  0x64\n    /* \"quantum/UBI4ALLQuantum.sol\":923:940  TOTAL_SUPPLY * 50 */\n  tag_37\n    /* \"quantum/UBI4ALLQuantum.sol\":801:823  1_000_000_000 * 10**18 */\n  0x033b2e3c9fd0803ce8000000\n    /* \"quantum/UBI4ALLQuantum.sol\":938:940  50 */\n  0x32\n    /* \"quantum/UBI4ALLQuantum.sol\":923:940  TOTAL_SUPPLY * 50 */\n  tag_38\n  jump\t// in\ntag_37:\n    /* \"quantum/UBI4ALLQuantum.sol\":922:947  (TOTAL_SUPPLY * 50) / 100 */\n  tag_39\n  swap2\n  swap1\n  tag_40\n  jump\t// in\ntag_39:\n    /* \"quantum/UBI4ALLQuantum.sol\":4479:4518  VestingSchedule(TREASURY_ALLOCATION, 0) */\n  dup2\n  mstore\n    /* \"quantum/UBI4ALLQuantum.sol\":4516:4517  0 */\n  0x00\n    /* \"quantum/UBI4ALLQuantum.sol\":4479:4518  VestingSchedule(TREASURY_ALLOCATION, 0) */\n  0x20\n  swap2\n  dup3\n  add\n  dup2\n  swap1\n  mstore\n    /* \"quantum/UBI4ALLQuantum.sol\":4461:4475  treasuryWallet */\n  sload(0x07)\n  0x0100\n  swap1\n  div\n  sub(shl(0xa0, 0x01), 0x01)\n  and\n    /* \"quantum/UBI4ALLQuantum.sol\":4444:4476  vestingSchedules[treasuryWallet] */\n  dup2\n  mstore\n    /* \"quantum/UBI4ALLQuantum.sol\":4444:4460  vestingSchedules */\n  0x0e\n    /* \"quantum/UBI4ALLQuantum.sol\":4444:4476  vestingSchedules[treasuryWallet] */\n  dup3\n  mstore\n  0x40\n  swap1\n  dup2\n  swap1\n  keccak256\n    /* \"quantum/UBI4ALLQuantum.sol\":4444:4518  vestingSchedules[treasuryWallet] = VestingSchedule(TREASURY_ALLOCATION, 0) */\n  dup4\n  mload\n  dup2\n  sstore\n  swap3\n  swap1\n  swap2\n  add\n  mload\n    /* \"quantum/UBI4ALLQuantum.sol\":4461:4475  treasuryWallet */\n  0x01\n    /* \"quantum/UBI4ALLQuantum.sol\":4444:4518  vestingSchedules[treasuryWallet] = VestingSchedule(TREASURY_ALLOCATION, 0) */\n  swap1\n  swap3\n  add\n  swap2\n  swap1\n  swap2\n  sstore\n    /* \"quantum/UBI4ALLQuantum.sol\":4564:4604  VestingSchedule(ECOSYSTEM_ALLOCATION, 0) */\n  dup1\n  mload\n  dup1\n  dup3\n  add\n  swap1\n  swap2\n  mstore\n  dup1\n    /* \"quantum/UBI4ALLQuantum.sol\":1070:1073  100 */\n  0x64\n    /* \"quantum/UBI4ALLQuantum.sol\":1049:1066  TOTAL_SUPPLY * 20 */\n  tag_41\n    /* \"quantum/UBI4ALLQuantum.sol\":801:823  1_000_000_000 * 10**18 */\n  0x033b2e3c9fd0803ce8000000\n    /* \"quantum/UBI4ALLQuantum.sol\":1064:1066  20 */\n  0x14\n    /* \"quantum/UBI4ALLQuantum.sol\":1049:1066  TOTAL_SUPPLY * 20 */\n  tag_38\n  jump\t// in\ntag_41:\n    /* \"quantum/UBI4ALLQuantum.sol\":1048:1073  (TOTAL_SUPPLY * 20) / 100 */\n  tag_42\n  swap2\n  swap1\n  tag_40\n  jump\t// in\ntag_42:\n    /* \"quantum/UBI4ALLQuantum.sol\":4564:4604  VestingSchedule(ECOSYSTEM_ALLOCATION, 0) */\n  dup2\n  mstore\n    /* \"quantum/UBI4ALLQuantum.sol\":4602:4603  0 */\n  0x00\n    /* \"quantum/UBI4ALLQuantum.sol\":4564:4604  VestingSchedule(ECOSYSTEM_ALLOCATION, 0) */\n  0x20\n  swap2\n  dup3\n  add\n  dup2\n  swap1\n  mstore\n    /* \"quantum/UBI4ALLQuantum.sol\":4545:4560  ecosystemWallet */\n  and(sub(shl(0xa0, 0x01), 0x01), sload(0x08))\n    /* \"quantum/UBI4ALLQuantum.sol\":4528:4561  vestingSchedules[ecosystemWallet] */\n  dup2\n  mstore\n    /* \"quantum/UBI4ALLQuantum.sol\":4528:4544  vestingSchedules */\n  0x0e\n    /* \"quantum/UBI4ALLQuantum.sol\":4528:4561  vestingSchedules[ecosystemWallet] */\n  dup3\n  mstore\n  0x40\n  swap1\n  keccak256\n    /* \"quantum/UBI4ALLQuantum.sol\":4528:4604  vestingSchedules[ecosystemWallet] = VestingSchedule(ECOSYSTEM_ALLOCATION, 0) */\n  dup3\n  mload\n  dup2\n  sstore\n  swap2\n  add\n  mload\n    /* \"quantum/UBI4ALLQuantum.sol\":4545:4560  ecosystemWallet */\n  0x01\n    /* \"quantum/UBI4ALLQuantum.sol\":4528:4604  vestingSchedules[ecosystemWallet] = VestingSchedule(ECOSYSTEM_ALLOCATION, 0) */\n  swap1\n  swap2\n  add\n  sstore\n    /* \"quantum/UBI4ALLQuantum.sol\":4652:4716  _mint(address(this), TREASURY_ALLOCATION + ECOSYSTEM_ALLOCATION) */\n  tag_43\n    /* \"quantum/UBI4ALLQuantum.sol\":4666:4670  this */\n  address\n    /* \"quantum/UBI4ALLQuantum.sol\":1070:1073  100 */\n  0x64\n    /* \"quantum/UBI4ALLQuantum.sol\":1049:1066  TOTAL_SUPPLY * 20 */\n  tag_44\n    /* \"quantum/UBI4ALLQuantum.sol\":801:823  1_000_000_000 * 10**18 */\n  0x033b2e3c9fd0803ce8000000\n    /* \"quantum/UBI4ALLQuantum.sol\":1064:1066  20 */\n  0x14\n    /* \"quantum/UBI4ALLQuantum.sol\":1049:1066  TOTAL_SUPPLY * 20 */\n  tag_38\n  jump\t// in\ntag_44:\n    /* \"quantum/UBI4ALLQuantum.sol\":1048:1073  (TOTAL_SUPPLY * 20) / 100 */\n  tag_45\n  swap2\n  swap1\n  tag_40\n  jump\t// in\ntag_45:\n    /* \"quantum/UBI4ALLQuantum.sol\":944:947  100 */\n  0x64\n    /* \"quantum/UBI4ALLQuantum.sol\":923:940  TOTAL_SUPPLY * 50 */\n  tag_46\n    /* \"quantum/UBI4ALLQuantum.sol\":801:823  1_000_000_000 * 10**18 */\n  0x033b2e3c9fd0803ce8000000\n    /* \"quantum/UBI4ALLQuantum.sol\":938:940  50 */\n  0x32\n    /* \"quantum/UBI4ALLQuantum.sol\":923:940  TOTAL_SUPPLY * 50 */\n  tag_38\n  jump\t// in\ntag_46:\n    /* \"quantum/UBI4ALLQuantum.sol\":922:947  (TOTAL_SUPPLY * 50) / 100 */\n  tag_47\n  swap2\n  swap1\n  tag_40\n  jump\t// in\ntag_47:\n    /* \"quantum/UBI4ALLQuantum.sol\":4673:4715  TREASURY_ALLOCATION + ECOSYSTEM_ALLOCATION */\n  tag_48\n  swap2\n  swap1\n  tag_49\n  jump\t// in\ntag_48:\n    /* \"quantum/UBI4ALLQuantum.sol\":4652:4657  _mint */\n  tag_50\n    /* \"quantum/UBI4ALLQuantum.sol\":4652:4716  _mint(address(this), TREASURY_ALLOCATION + ECOSYSTEM_ALLOCATION) */\n  jump\t// in\ntag_43:\n    /* \"quantum/UBI4ALLQuantum.sol\":4732:4747  communityWallet */\n  sload(0x09)\n    /* \"quantum/UBI4ALLQuantum.sol\":4726:4770  _mint(communityWallet, COMMUNITY_ALLOCATION) */\n  tag_51\n  swap1\n  sub(shl(0xa0, 0x01), 0x01)\n    /* \"quantum/UBI4ALLQuantum.sol\":4732:4747  communityWallet */\n  and\n    /* \"quantum/UBI4ALLQuantum.sol\":1196:1199  100 */\n  0x64\n    /* \"quantum/UBI4ALLQuantum.sol\":1175:1192  TOTAL_SUPPLY * 15 */\n  tag_52\n    /* \"quantum/UBI4ALLQuantum.sol\":801:823  1_000_000_000 * 10**18 */\n  0x033b2e3c9fd0803ce8000000\n    /* \"quantum/UBI4ALLQuantum.sol\":1190:1192  15 */\n  0x0f\n    /* \"quantum/UBI4ALLQuantum.sol\":1175:1192  TOTAL_SUPPLY * 15 */\n  tag_38\n  jump\t// in\ntag_52:\n    /* \"quantum/UBI4ALLQuantum.sol\":1174:1199  (TOTAL_SUPPLY * 15) / 100 */\n  tag_48\n  swap2\n  swap1\n  tag_40\n  jump\t// in\n    /* \"quantum/UBI4ALLQuantum.sol\":4726:4770  _mint(communityWallet, COMMUNITY_ALLOCATION) */\ntag_51:\n    /* \"quantum/UBI4ALLQuantum.sol\":4786:4801  liquidityWallet */\n  0x0a\n  dup1\n  sload\n    /* \"quantum/UBI4ALLQuantum.sol\":4780:4824  _mint(liquidityWallet, LIQUIDITY_ALLOCATION) */\n  tag_54\n  swap2\n  sub(shl(0xa0, 0x01), 0x01)\n    /* \"quantum/UBI4ALLQuantum.sol\":4786:4801  liquidityWallet */\n  swap1\n  swap2\n  and\n  swap1\n    /* \"quantum/UBI4ALLQuantum.sol\":1323:1326  100 */\n  0x64\n  swap1\n    /* \"quantum/UBI4ALLQuantum.sol\":1302:1319  TOTAL_SUPPLY * 10 */\n  tag_52\n  swap1\n    /* \"quantum/UBI4ALLQuantum.sol\":801:823  1_000_000_000 * 10**18 */\n  0x033b2e3c9fd0803ce8000000\n  swap1\n    /* \"quantum/UBI4ALLQuantum.sol\":1302:1319  TOTAL_SUPPLY * 10 */\n  tag_38\n  jump\t// in\n    /* \"quantum/UBI4ALLQuantum.sol\":4780:4824  _mint(liquidityWallet, LIQUIDITY_ALLOCATION) */\ntag_54:\n    /* \"quantum/UBI4ALLQuantum.sol\":4840:4853  reserveWallet */\n  sload(0x0b)\n    /* \"quantum/UBI4ALLQuantum.sol\":4834:4874  _mint(reserveWallet, RESERVE_ALLOCATION) */\n  tag_57\n  swap1\n  sub(shl(0xa0, 0x01), 0x01)\n    /* \"quantum/UBI4ALLQuantum.sol\":4840:4853  reserveWallet */\n  and\n    /* \"quantum/UBI4ALLQuantum.sol\":1443:1446  100 */\n  0x64\n    /* \"quantum/UBI4ALLQuantum.sol\":1423:1439  TOTAL_SUPPLY * 5 */\n  tag_52\n    /* \"quantum/UBI4ALLQuantum.sol\":801:823  1_000_000_000 * 10**18 */\n  0x033b2e3c9fd0803ce8000000\n    /* \"quantum/UBI4ALLQuantum.sol\":1438:1439  5 */\n  0x05\n    /* \"quantum/UBI4ALLQuantum.sol\":1423:1439  TOTAL_SUPPLY * 5 */\n  tag_38\n  jump\t// in\n    /* \"quantum/UBI4ALLQuantum.sol\":4834:4874  _mint(reserveWallet, RESERVE_ALLOCATION) */\ntag_57:\n    /* \"quantum/UBI4ALLQuantum.sol\":3469:4881  constructor(... */\n  pop\n  pop\n  pop\n  pop\n  pop\n  pop\n    /* \"quantum/UBI4ALLQuantum.sol\":562:14358  contract UBI4ALLQuantum is ERC20, Ownable, ReentrancyGuard, Pausable, IUBI4ALLQuantum {... */\n  jump(tag_85)\n    /* \"@openzeppelin/contracts/access/Ownable.sol\":2912:3099  function _transferOwnership(address newOwner) internal virtual {... */\ntag_18:\n    /* \"@openzeppelin/contracts/access/Ownable.sol\":3004:3010  _owner */\n  0x05\n  dup1\n  sload\n  sub(shl(0xa0, 0x01), 0x01)\n    /* \"@openzeppelin/contracts/access/Ownable.sol\":3020:3037  _owner = newOwner */\n  dup4\n  dup2\n  and\n  not(sub(shl(0xa0, 0x01), 0x01))\n  dup4\n  and\n  dup2\n  or\n  swap1\n  swap4\n  sstore\n    /* \"@openzeppelin/contracts/access/Ownable.sol\":3052:3092  OwnershipTransferred(oldOwner, newOwner) */\n  mload(0x40)\n    /* \"@openzeppelin/contracts/access/Ownable.sol\":3004:3010  _owner */\n  swap2\n  and\n  swap2\n    /* \"@openzeppelin/contracts/access/Ownable.sol\":3020:3037  _owner = newOwner */\n  swap1\n    /* \"@openzeppelin/contracts/access/Ownable.sol\":3004:3010  _owner */\n  dup3\n  swap1\n    /* \"@openzeppelin/contracts/access/Ownable.sol\":3052:3092  OwnershipTransferred(oldOwner, newOwner) */\n  0x8be0079c531659141344cd1fd0a4f28419497f9722a3daafe3b4186f6b6457e0\n  swap1\n    /* \"@openzeppelin/contracts/access/Ownable.sol\":2985:3001  address oldOwner */\n  0x00\n  swap1\n    /* \"@openzeppelin/contracts/access/Ownable.sol\":3052:3092  OwnershipTransferred(oldOwner, newOwner) */\n  log3\n    /* \"@openzeppelin/contracts/access/Ownable.sol\":2975:3099  {... */\n  pop\n    /* \"@openzeppelin/contracts/access/Ownable.sol\":2912:3099  function _transferOwnership(address newOwner) internal virtual {... */\n  pop\n  jump\t// out\n    /* \"@openzeppelin/contracts/token/ERC20/ERC20.sol\":7439:7647  function _mint(address account, uint256 value) internal {... */\ntag_50:\n  sub(shl(0xa0, 0x01), 0x01)\n    /* \"@openzeppelin/contracts/token/ERC20/ERC20.sol\":7509:7530  account == address(0) */\n  dup3\n  and\n    /* \"@openzeppelin/contracts/token/ERC20/ERC20.sol\":7505:7596  if (account == address(0)) {... */\n  tag_63\n  jumpi\n    /* \"@openzeppelin/contracts/token/ERC20/ERC20.sol\":7553:7585  ERC20InvalidReceiver(address(0)) */\n  mload(0x40)\n  shl(0xe0, 0xec442f05)\n  dup2\n  mstore\n    /* \"@openzeppelin/contracts/token/ERC20/ERC20.sol\":7582:7583  0 */\n  0x00\n    /* \"@openzeppelin/contracts/token/ERC20/ERC20.sol\":7553:7585  ERC20InvalidReceiver(address(0)) */\n  0x04\n  dup3\n  add\n    /* \"#utility.yul\":3624:3675   */\n  mstore\n    /* \"#utility.yul\":3597:3615   */\n  0x24\n  add\n    /* \"@openzeppelin/contracts/token/ERC20/ERC20.sol\":7553:7585  ERC20InvalidReceiver(address(0)) */\n  tag_15\n    /* \"#utility.yul\":3478:3681   */\n  jump\n    /* \"@openzeppelin/contracts/token/ERC20/ERC20.sol\":7505:7596  if (account == address(0)) {... */\ntag_63:\n    /* \"@openzeppelin/contracts/token/ERC20/ERC20.sol\":7605:7640  _update(address(0), account, value) */\n  tag_65\n    /* \"@openzeppelin/contracts/token/ERC20/ERC20.sol\":7621:7622  0 */\n  0x00\n    /* \"@openzeppelin/contracts/token/ERC20/ERC20.sol\":7625:7632  account */\n  dup4\n    /* \"@openzeppelin/contracts/token/ERC20/ERC20.sol\":7634:7639  value */\n  dup4\n    /* \"@openzeppelin/contracts/token/ERC20/ERC20.sol\":7605:7612  _update */\n  tag_66\n    /* \"@openzeppelin/contracts/token/ERC20/ERC20.sol\":7605:7640  _update(address(0), account, value) */\n  jump\t// in\ntag_65:\n    /* \"@openzeppelin/contracts/token/ERC20/ERC20.sol\":7439:7647  function _mint(address account, uint256 value) internal {... */\n  pop\n  pop\n  jump\t// out\n    /* \"@openzeppelin/contracts/token/ERC20/ERC20.sol\":5989:7096  function _update(address from, address to, uint256 value) internal virtual {... */\ntag_66:\n  sub(shl(0xa0, 0x01), 0x01)\n    /* \"@openzeppelin/contracts/token/ERC20/ERC20.sol\":6078:6096  from == address(0) */\n  dup4\n  and\n    /* \"@openzeppelin/contracts/token/ERC20/ERC20.sol\":6074:6614  if (from == address(0)) {... */\n  tag_68\n  jumpi\n    /* \"@openzeppelin/contracts/token/ERC20/ERC20.sol\":6230:6235  value */\n  dup1\n    /* \"@openzeppelin/contracts/token/ERC20/ERC20.sol\":6214:6226  _totalSupply */\n  0x02\n  0x00\n    /* \"@openzeppelin/contracts/token/ERC20/ERC20.sol\":6214:6235  _totalSupply += value */\n  dup3\n  dup3\n  sload\n  tag_69\n  swap2\n  swap1\n  tag_49\n  jump\t// in\ntag_69:\n  swap1\n  swap2\n  sstore\n  pop\n    /* \"@openzeppelin/contracts/token/ERC20/ERC20.sol\":6074:6614  if (from == address(0)) {... */\n  tag_70\n  swap1\n  pop\n  jump\ntag_68:\n  sub(shl(0xa0, 0x01), 0x01)\n    /* \"@openzeppelin/contracts/token/ERC20/ERC20.sol\":6288:6303  _balances[from] */\n  dup4\n  and\n    /* \"@openzeppelin/contracts/token/ERC20/ERC20.sol\":6266:6285  uint256 fromBalance */\n  0x00\n    /* \"@openzeppelin/contracts/token/ERC20/ERC20.sol\":6288:6303  _balances[from] */\n  swap1\n  dup2\n  mstore\n  0x20\n  dup2\n  swap1\n  mstore\n  0x40\n  swap1\n  keccak256\n  sload\n    /* \"@openzeppelin/contracts/token/ERC20/ERC20.sol\":6321:6340  fromBalance < value */\n  dup2\n  dup2\n  lt\n    /* \"@openzeppelin/contracts/token/ERC20/ERC20.sol\":6317:6432  if (fromBalance < value) {... */\n  iszero\n  tag_71\n  jumpi\n    /* \"@openzeppelin/contracts/token/ERC20/ERC20.sol\":6367:6417  ERC20InsufficientBalance(from, fromBalance, value) */\n  mload(0x40)\n  shl(0xe2, 0x391434e3)\n  dup2\n  mstore\n  sub(shl(0xa0, 0x01), 0x01)\n    /* \"#utility.yul\":6325:6357   */\n  dup6\n  and\n    /* \"@openzeppelin/contracts/token/ERC20/ERC20.sol\":6367:6417  ERC20InsufficientBalance(from, fromBalance, value) */\n  0x04\n  dup3\n  add\n    /* \"#utility.yul\":6307:6358   */\n  mstore\n    /* \"#utility.yul\":6374:6392   */\n  0x24\n  dup2\n  add\n    /* \"#utility.yul\":6367:6401   */\n  dup3\n  swap1\n  mstore\n    /* \"#utility.yul\":6417:6435   */\n  0x44\n  dup2\n  add\n    /* \"#utility.yul\":6410:6444   */\n  dup4\n  swap1\n  mstore\n    /* \"#utility.yul\":6280:6298   */\n  0x64\n  add\n    /* \"@openzeppelin/contracts/token/ERC20/ERC20.sol\":6367:6417  ERC20InsufficientBalance(from, fromBalance, value) */\n  tag_15\n    /* \"#utility.yul\":6105:6450   */\n  jump\n    /* \"@openzeppelin/contracts/token/ERC20/ERC20.sol\":6317:6432  if (fromBalance < value) {... */\ntag_71:\n  sub(shl(0xa0, 0x01), 0x01)\n    /* \"@openzeppelin/contracts/token/ERC20/ERC20.sol\":6552:6567  _balances[from] */\n  dup5\n  and\n    /* \"@openzeppelin/contracts/token/ERC20/ERC20.sol\":6552:6561  _balances */\n  0x00\n    /* \"@openzeppelin/contracts/token/ERC20/ERC20.sol\":6552:6567  _balances[from] */\n  swap1\n  dup2\n  mstore\n  0x20\n  dup2\n  swap1\n  mstore\n  0x40\n  swap1\n  keccak256\n    /* \"@openzeppelin/contracts/token/ERC20/ERC20.sol\":6570:6589  fromBalance - value */\n  swap1\n  dup3\n  swap1\n  sub\n    /* \"@openzeppelin/contracts/token/ERC20/ERC20.sol\":6552:6589  _balances[from] = fromBalance - value */\n  swap1\n  sstore\n    /* \"@openzeppelin/contracts/token/ERC20/ERC20.sol\":6074:6614  if (from == address(0)) {... */\ntag_70:\n  sub(shl(0xa0, 0x01), 0x01)\n    /* \"@openzeppelin/contracts/token/ERC20/ERC20.sol\":6628:6644  to == address(0) */\n  dup3\n  and\n    /* \"@openzeppelin/contracts/token/ERC20/ERC20.sol\":6624:7049  if (to == address(0)) {... */\n  tag_74\n  jumpi\n    /* \"@openzeppelin/contracts/token/ERC20/ERC20.sol\":6791:6803  _totalSupply */\n  0x02\n    /* \"@openzeppelin/contracts/token/ERC20/ERC20.sol\":6791:6812  _totalSupply -= value */\n  dup1\n  sload\n  dup3\n  swap1\n  sub\n  swap1\n  sstore\n    /* \"@openzeppelin/contracts/token/ERC20/ERC20.sol\":6624:7049  if (to == address(0)) {... */\n  jump(tag_75)\ntag_74:\n  sub(shl(0xa0, 0x01), 0x01)\n    /* \"@openzeppelin/contracts/token/ERC20/ERC20.sol\":7002:7015  _balances[to] */\n  dup3\n  and\n    /* \"@openzeppelin/contracts/token/ERC20/ERC20.sol\":7002:7011  _balances */\n  0x00\n    /* \"@openzeppelin/contracts/token/ERC20/ERC20.sol\":7002:7015  _balances[to] */\n  swap1\n  dup2\n  mstore\n  0x20\n  dup2\n  swap1\n  mstore\n  0x40\n  swap1\n  keccak256\n    /* \"@openzeppelin/contracts/token/ERC20/ERC20.sol\":7002:7024  _balances[to] += value */\n  dup1\n  sload\n  dup3\n  add\n  swap1\n  sstore\n    /* \"@openzeppelin/contracts/token/ERC20/ERC20.sol\":6624:7049  if (to == address(0)) {... */\ntag_75:\n    /* \"@openzeppelin/contracts/token/ERC20/ERC20.sol\":7079:7081  to */\n  dup2\n  sub(shl(0xa0, 0x01), 0x01)\n    /* \"@openzeppelin/contracts/token/ERC20/ERC20.sol\":7064:7089  Transfer(from, to, value) */\n  and\n    /* \"@openzeppelin/contracts/token/ERC20/ERC20.sol\":7073:7077  from */\n  dup4\n  sub(shl(0xa0, 0x01), 0x01)\n    /* \"@openzeppelin/contracts/token/ERC20/ERC20.sol\":7064:7089  Transfer(from, to, value) */\n  and\n  0xddf252ad1be2c89b69c2b068fc378daa952ba7f163c4a11628f55a4df523b3ef\n    /* \"@openzeppelin/contracts/token/ERC20/ERC20.sol\":7083:7088  value */\n  dup4\n    /* \"@openzeppelin/contracts/token/ERC20/ERC20.sol\":7064:7089  Transfer(from, to, value) */\n  mload(0x40)\n  tag_76\n  swap2\n    /* \"#utility.yul\":6601:6626   */\n  dup2\n  mstore\n    /* \"#utility.yul\":6589:6591   */\n  0x20\n    /* \"#utility.yul\":6574:6592   */\n  add\n  swap1\n    /* \"#utility.yul\":6455:6632   */\n  jump\n    /* \"@openzeppelin/contracts/token/ERC20/ERC20.sol\":7064:7089  Transfer(from, to, value) */\ntag_76:\n  mload(0x40)\n  dup1\n  swap2\n  sub\n  swap1\n  log3\n    /* \"@openzeppelin/contracts/token/ERC20/ERC20.sol\":5989:7096  function _update(address from, address to, uint256 value) internal virtual {... */\n  pop\n  pop\n  pop\n  jump\t// out\n    /* \"#utility.yul\":14:191   */\ntag_78:\n    /* \"#utility.yul\":93:106   */\n  dup1\n  mload\n  sub(shl(0xa0, 0x01), 0x01)\n    /* \"#utility.yul\":135:166   */\n  dup2\n  and\n    /* \"#utility.yul\":125:167   */\n  dup2\n  eq\n    /* \"#utility.yul\":115:185   */\n  tag_87\n  jumpi\n    /* \"#utility.yul\":181:182   */\n  0x00\n    /* \"#utility.yul\":178:179   */\n  dup1\n    /* \"#utility.yul\":171:183   */\n  revert\n    /* \"#utility.yul\":115:185   */\ntag_87:\n    /* \"#utility.yul\":14:191   */\n  swap2\n  swap1\n  pop\n  jump\t// out\n    /* \"#utility.yul\":196:832   */\ntag_3:\n    /* \"#utility.yul\":311:317   */\n  0x00\n    /* \"#utility.yul\":319:325   */\n  dup1\n    /* \"#utility.yul\":327:333   */\n  0x00\n    /* \"#utility.yul\":335:341   */\n  dup1\n    /* \"#utility.yul\":343:349   */\n  0x00\n    /* \"#utility.yul\":351:357   */\n  dup1\n    /* \"#utility.yul\":404:407   */\n  0xc0\n    /* \"#utility.yul\":392:401   */\n  dup8\n    /* \"#utility.yul\":383:390   */\n  dup10\n    /* \"#utility.yul\":379:402   */\n  sub\n    /* \"#utility.yul\":375:408   */\n  slt\n    /* \"#utility.yul\":372:425   */\n  iszero\n  tag_89\n  jumpi\n    /* \"#utility.yul\":421:422   */\n  0x00\n    /* \"#utility.yul\":418:419   */\n  dup1\n    /* \"#utility.yul\":411:423   */\n  revert\n    /* \"#utility.yul\":372:425   */\ntag_89:\n    /* \"#utility.yul\":444:484   */\n  tag_90\n    /* \"#utility.yul\":474:483   */\n  dup8\n    /* \"#utility.yul\":444:484   */\n  tag_78\n  jump\t// in\ntag_90:\n    /* \"#utility.yul\":434:484   */\n  swap6\n  pop\n    /* \"#utility.yul\":503:552   */\n  tag_91\n    /* \"#utility.yul\":548:550   */\n  0x20\n    /* \"#utility.yul\":537:546   */\n  dup9\n    /* \"#utility.yul\":533:551   */\n  add\n    /* \"#utility.yul\":503:552   */\n  tag_78\n  jump\t// in\ntag_91:\n    /* \"#utility.yul\":493:552   */\n  swap5\n  pop\n    /* \"#utility.yul\":571:620   */\n  tag_92\n    /* \"#utility.yul\":616:618   */\n  0x40\n    /* \"#utility.yul\":605:614   */\n  dup9\n    /* \"#utility.yul\":601:619   */\n  add\n    /* \"#utility.yul\":571:620   */\n  tag_78\n  jump\t// in\ntag_92:\n    /* \"#utility.yul\":561:620   */\n  swap4\n  pop\n    /* \"#utility.yul\":639:688   */\n  tag_93\n    /* \"#utility.yul\":684:686   */\n  0x60\n    /* \"#utility.yul\":673:682   */\n  dup9\n    /* \"#utility.yul\":669:687   */\n  add\n    /* \"#utility.yul\":639:688   */\n  tag_78\n  jump\t// in\ntag_93:\n    /* \"#utility.yul\":629:688   */\n  swap3\n  pop\n    /* \"#utility.yul\":707:757   */\n  tag_94\n    /* \"#utility.yul\":752:755   */\n  0x80\n    /* \"#utility.yul\":741:750   */\n  dup9\n    /* \"#utility.yul\":737:756   */\n  add\n    /* \"#utility.yul\":707:757   */\n  tag_78\n  jump\t// in\ntag_94:\n    /* \"#utility.yul\":697:757   */\n  swap2\n  pop\n    /* \"#utility.yul\":776:826   */\n  tag_95\n    /* \"#utility.yul\":821:824   */\n  0xa0\n    /* \"#utility.yul\":810:819   */\n  dup9\n    /* \"#utility.yul\":806:825   */\n  add\n    /* \"#utility.yul\":776:826   */\n  tag_78\n  jump\t// in\ntag_95:\n    /* \"#utility.yul\":766:826   */\n  swap1\n  pop\n    /* \"#utility.yul\":196:832   */\n  swap3\n  swap6\n  pop\n  swap3\n  swap6\n  pop\n  swap3\n  swap6\n  jump\t// out\n    /* \"#utility.yul\":837:964   */\ntag_79:\n    /* \"#utility.yul\":898:908   */\n  0x4e487b71\n    /* \"#utility.yul\":893:896   */\n  0xe0\n    /* \"#utility.yul\":889:909   */\n  shl\n    /* \"#utility.yul\":886:887   */\n  0x00\n    /* \"#utility.yul\":879:910   */\n  mstore\n    /* \"#utility.yul\":929:933   */\n  0x41\n    /* \"#utility.yul\":926:927   */\n  0x04\n    /* \"#utility.yul\":919:934   */\n  mstore\n    /* \"#utility.yul\":953:957   */\n  0x24\n    /* \"#utility.yul\":950:951   */\n  0x00\n    /* \"#utility.yul\":943:958   */\n  revert\n    /* \"#utility.yul\":969:1349   */\ntag_80:\n    /* \"#utility.yul\":1048:1049   */\n  0x01\n    /* \"#utility.yul\":1044:1056   */\n  dup2\n  dup2\n  shr\n  swap1\n    /* \"#utility.yul\":1091:1103   */\n  dup3\n  and\n  dup1\n    /* \"#utility.yul\":1112:1173   */\n  tag_98\n  jumpi\n    /* \"#utility.yul\":1166:1170   */\n  0x7f\n    /* \"#utility.yul\":1158:1164   */\n  dup3\n    /* \"#utility.yul\":1154:1171   */\n  and\n    /* \"#utility.yul\":1144:1171   */\n  swap2\n  pop\n    /* \"#utility.yul\":1112:1173   */\ntag_98:\n    /* \"#utility.yul\":1219:1221   */\n  0x20\n    /* \"#utility.yul\":1211:1217   */\n  dup3\n    /* \"#utility.yul\":1208:1222   */\n  lt\n    /* \"#utility.yul\":1188:1206   */\n  dup2\n    /* \"#utility.yul\":1185:1223   */\n  sub\n    /* \"#utility.yul\":1182:1343   */\n  tag_99\n  jumpi\n    /* \"#utility.yul\":1265:1275   */\n  0x4e487b71\n    /* \"#utility.yul\":1260:1263   */\n  0xe0\n    /* \"#utility.yul\":1256:1276   */\n  shl\n    /* \"#utility.yul\":1253:1254   */\n  0x00\n    /* \"#utility.yul\":1246:1277   */\n  mstore\n    /* \"#utility.yul\":1300:1304   */\n  0x22\n    /* \"#utility.yul\":1297:1298   */\n  0x04\n    /* \"#utility.yul\":1290:1305   */\n  mstore\n    /* \"#utility.yul\":1328:1332   */\n  0x24\n    /* \"#utility.yul\":1325:1326   */\n  0x00\n    /* \"#utility.yul\":1318:1333   */\n  revert\n    /* \"#utility.yul\":1182:1343   */\ntag_99:\n  pop\n    /* \"#utility.yul\":969:1349   */\n  swap2\n  swap1\n  pop\n  jump\t// out\n    /* \"#utility.yul\":1480:1998   */\ntag_82:\n    /* \"#utility.yul\":1582:1584   */\n  0x1f\n    /* \"#utility.yul\":1577:1580   */\n  dup3\n    /* \"#utility.yul\":1574:1585   */\n  gt\n    /* \"#utility.yul\":1571:1992   */\n  iszero\n  tag_102\n  jumpi\n    /* \"#utility.yul\":1618:1623   */\n  dup1\n    /* \"#utility.yul\":1615:1616   */\n  0x00\n    /* \"#utility.yul\":1608:1624   */\n  mstore\n    /* \"#utility.yul\":1662:1666   */\n  0x20\n    /* \"#utility.yul\":1659:1660   */\n  0x00\n    /* \"#utility.yul\":1649:1667   */\n  keccak256\n    /* \"#utility.yul\":1732:1734   */\n  0x1f\n    /* \"#utility.yul\":1720:1730   */\n  dup5\n    /* \"#utility.yul\":1716:1735   */\n  add\n    /* \"#utility.yul\":1713:1714   */\n  0x05\n    /* \"#utility.yul\":1709:1736   */\n  shr\n    /* \"#utility.yul\":1703:1707   */\n  dup2\n    /* \"#utility.yul\":1699:1737   */\n  add\n    /* \"#utility.yul\":1768:1772   */\n  0x20\n    /* \"#utility.yul\":1756:1766   */\n  dup6\n    /* \"#utility.yul\":1753:1773   */\n  lt\n    /* \"#utility.yul\":1750:1797   */\n  iszero\n  tag_103\n  jumpi\n  pop\n    /* \"#utility.yul\":1791:1795   */\n  dup1\n    /* \"#utility.yul\":1750:1797   */\ntag_103:\n    /* \"#utility.yul\":1846:1848   */\n  0x1f\n    /* \"#utility.yul\":1841:1844   */\n  dup5\n    /* \"#utility.yul\":1837:1849   */\n  add\n    /* \"#utility.yul\":1834:1835   */\n  0x05\n    /* \"#utility.yul\":1830:1850   */\n  shr\n    /* \"#utility.yul\":1824:1828   */\n  dup3\n    /* \"#utility.yul\":1820:1851   */\n  add\n    /* \"#utility.yul\":1810:1851   */\n  swap2\n  pop\n    /* \"#utility.yul\":1901:1982   */\ntag_104:\n    /* \"#utility.yul\":1919:1921   */\n  dup2\n    /* \"#utility.yul\":1912:1917   */\n  dup2\n    /* \"#utility.yul\":1909:1922   */\n  lt\n    /* \"#utility.yul\":1901:1982   */\n  iszero\n  tag_106\n  jumpi\n    /* \"#utility.yul\":1978:1979   */\n  0x00\n    /* \"#utility.yul\":1964:1980   */\n  dup2\n  sstore\n    /* \"#utility.yul\":1945:1946   */\n  0x01\n    /* \"#utility.yul\":1934:1947   */\n  add\n    /* \"#utility.yul\":1901:1982   */\n  jump(tag_104)\ntag_106:\n    /* \"#utility.yul\":1905:1908   */\n  pop\n  pop\n    /* \"#utility.yul\":1571:1992   */\ntag_102:\n    /* \"#utility.yul\":1480:1998   */\n  pop\n  pop\n  pop\n  jump\t// out\n    /* \"#utility.yul\":2174:3473   */\ntag_11:\n    /* \"#utility.yul\":2294:2304   */\n  dup2\n  mload\n  sub(shl(0x40, 0x01), 0x01)\n    /* \"#utility.yul\":2316:2346   */\n  dup2\n  gt\n    /* \"#utility.yul\":2313:2369   */\n  iszero\n  tag_110\n  jumpi\n    /* \"#utility.yul\":2349:2367   */\n  tag_110\n  tag_79\n  jump\t// in\ntag_110:\n    /* \"#utility.yul\":2378:2475   */\n  tag_111\n    /* \"#utility.yul\":2468:2474   */\n  dup2\n    /* \"#utility.yul\":2428:2466   */\n  tag_112\n    /* \"#utility.yul\":2460:2464   */\n  dup5\n    /* \"#utility.yul\":2454:2465   */\n  sload\n    /* \"#utility.yul\":2428:2466   */\n  tag_80\n  jump\t// in\ntag_112:\n    /* \"#utility.yul\":2422:2426   */\n  dup5\n    /* \"#utility.yul\":2378:2475   */\n  tag_82\n  jump\t// in\ntag_111:\n    /* \"#utility.yul\":2524:2528   */\n  0x20\n    /* \"#utility.yul\":2555:2557   */\n  0x1f\n    /* \"#utility.yul\":2544:2558   */\n  dup3\n  gt\n    /* \"#utility.yul\":2572:2573   */\n  0x01\n    /* \"#utility.yul\":2567:3216   */\n  dup2\n  eq\n  tag_114\n  jumpi\n    /* \"#utility.yul\":3260:3261   */\n  0x00\n    /* \"#utility.yul\":3277:3283   */\n  dup4\n    /* \"#utility.yul\":3274:3363   */\n  iszero\n  tag_115\n  jumpi\n  pop\n    /* \"#utility.yul\":3329:3348   */\n  dup5\n  dup3\n  add\n    /* \"#utility.yul\":3323:3349   */\n  mload\n    /* \"#utility.yul\":3274:3363   */\ntag_115:\n  not(0x00)\n    /* \"#utility.yul\":2131:2132   */\n  0x03\n    /* \"#utility.yul\":2127:2138   */\n  dup6\n  swap1\n  shl\n    /* \"#utility.yul\":2123:2147   */\n  shr\n    /* \"#utility.yul\":2119:2148   */\n  not\n    /* \"#utility.yul\":2109:2149   */\n  and\n    /* \"#utility.yul\":2155:2156   */\n  0x01\n    /* \"#utility.yul\":2151:2162   */\n  dup5\n  swap1\n  shl\n    /* \"#utility.yul\":2106:2163   */\n  or\n    /* \"#utility.yul\":3376:3457   */\n  dup5\n  sstore\n    /* \"#utility.yul\":2537:3467   */\n  jump(tag_106)\n    /* \"#utility.yul\":2567:3216   */\ntag_114:\n    /* \"#utility.yul\":1427:1428   */\n  0x00\n    /* \"#utility.yul\":1420:1434   */\n  dup5\n  dup2\n  mstore\n    /* \"#utility.yul\":1464:1468   */\n  0x20\n    /* \"#utility.yul\":1451:1469   */\n  dup2\n  keccak256\n  not(0x1f)\n    /* \"#utility.yul\":2603:2623   */\n  dup6\n  and\n  swap2\n    /* \"#utility.yul\":2721:2943   */\ntag_118:\n    /* \"#utility.yul\":2735:2742   */\n  dup3\n    /* \"#utility.yul\":2732:2733   */\n  dup2\n    /* \"#utility.yul\":2729:2743   */\n  lt\n    /* \"#utility.yul\":2721:2943   */\n  iszero\n  tag_120\n  jumpi\n    /* \"#utility.yul\":2817:2836   */\n  dup8\n  dup6\n  add\n    /* \"#utility.yul\":2811:2837   */\n  mload\n    /* \"#utility.yul\":2796:2838   */\n  dup3\n  sstore\n    /* \"#utility.yul\":2924:2928   */\n  0x20\n    /* \"#utility.yul\":2909:2929   */\n  swap5\n  dup6\n  add\n  swap5\n    /* \"#utility.yul\":2877:2878   */\n  0x01\n    /* \"#utility.yul\":2865:2879   */\n  swap1\n  swap3\n  add\n  swap2\n    /* \"#utility.yul\":2751:2763   */\n  add\n    /* \"#utility.yul\":2721:2943   */\n  jump(tag_118)\ntag_120:\n    /* \"#utility.yul\":2725:2728   */\n  pop\n    /* \"#utility.yul\":2971:2977   */\n  dup5\n    /* \"#utility.yul\":2962:2969   */\n  dup3\n    /* \"#utility.yul\":2959:2978   */\n  lt\n    /* \"#utility.yul\":2956:3157   */\n  iszero\n  tag_121\n  jumpi\n    /* \"#utility.yul\":3032:3051   */\n  dup7\n  dup5\n  add\n    /* \"#utility.yul\":3026:3052   */\n  mload\n  not(0x00)\n    /* \"#utility.yul\":3115:3116   */\n  0x03\n    /* \"#utility.yul\":3111:3125   */\n  dup8\n  swap1\n  shl\n    /* \"#utility.yul\":3127:3130   */\n  0xf8\n    /* \"#utility.yul\":3107:3131   */\n  and\n    /* \"#utility.yul\":3103:3140   */\n  shr\n    /* \"#utility.yul\":3099:3141   */\n  not\n    /* \"#utility.yul\":3084:3142   */\n  and\n    /* \"#utility.yul\":3069:3143   */\n  dup2\n  sstore\n    /* \"#utility.yul\":2956:3157   */\ntag_121:\n  pop\n  pop\n  pop\n  pop\n    /* \"#utility.yul\":3203:3204   */\n  0x01\n    /* \"#utility.yul\":3187:3201   */\n  swap1\n  dup2\n  shl\n    /* \"#utility.yul\":3183:3205   */\n  add\n    /* \"#utility.yul\":3170:3206   */\n  swap1\n  sstore\n  pop\n    /* \"#utility.yul\":2174:3473   */\n  jump\t// out\n    /* \"#utility.yul\":5448:5575   */\ntag_84:\n    /* \"#utility.yul\":5509:5519   */\n  0x4e487b71\n    /* \"#utility.yul\":5504:5507   */\n  0xe0\n    /* \"#utility.yul\":5500:5520   */\n  shl\n    /* \"#utility.yul\":5497:5498   */\n  0x00\n    /* \"#utility.yul\":5490:5521   */\n  mstore\n    /* \"#utility.yul\":5540:5544   */\n  0x11\n    /* \"#utility.yul\":5537:5538   */\n  0x04\n    /* \"#utility.yul\":5530:5545   */\n  mstore\n    /* \"#utility.yul\":5564:5568   */\n  0x24\n    /* \"#utility.yul\":5561:5562   */\n  0x00\n    /* \"#utility.yul\":5554:5569   */\n  revert\n    /* \"#utility.yul\":5580:5748   */\ntag_38:\n    /* \"#utility.yul\":5653:5662   */\n  dup1\n  dup3\n  mul\n    /* \"#utility.yul\":5684:5693   */\n  dup2\n  iszero\n    /* \"#utility.yul\":5701:5716   */\n  dup3\n  dup3\n  div\n    /* \"#utility.yul\":5695:5717   */\n  dup5\n  eq\n    /* \"#utility.yul\":5681:5718   */\n  or\n    /* \"#utility.yul\":5671:5742   */\n  tag_131\n  jumpi\n    /* \"#utility.yul\":5722:5740   */\n  tag_131\n  tag_84\n  jump\t// in\ntag_131:\n    /* \"#utility.yul\":5580:5748   */\n  swap3\n  swap2\n  pop\n  pop\n  jump\t// out\n    /* \"#utility.yul\":5753:5970   */\ntag_40:\n    /* \"#utility.yul\":5793:5794   */\n  0x00\n    /* \"#utility.yul\":5819:5820   */\n  dup3\n    /* \"#utility.yul\":5809:5941   */\n  tag_133\n  jumpi\n    /* \"#utility.yul\":5863:5873   */\n  0x4e487b71\n    /* \"#utility.yul\":5858:5861   */\n  0xe0\n    /* \"#utility.yul\":5854:5874   */\n  shl\n    /* \"#utility.yul\":5851:5852   */\n  0x00\n    /* \"#utility.yul\":5844:5875   */\n  mstore\n    /* \"#utility.yul\":5898:5902   */\n  0x12\n    /* \"#utility.yul\":5895:5896   */\n  0x04\n    /* \"#utility.yul\":5888:5903   */\n  mstore\n    /* \"#utility.yul\":5926:5930   */\n  0x24\n    /* \"#utility.yul\":5923:5924   */\n  0x00\n    /* \"#utility.yul\":5916:5931   */\n  revert\n    /* \"#utility.yul\":5809:5941   */\ntag_133:\n  pop\n    /* \"#utility.yul\":5955:5964   */\n  div\n  swap1\n    /* \"#utility.yul\":5753:5970   */\n  jump\t// out\n    /* \"#utility.yul\":5975:6100   */\ntag_49:\n    /* \"#utility.yul\":6040:6049   */\n  dup1\n  dup3\n  add\n    /* \"#utility.yul\":6061:6071   */\n  dup1\n  dup3\n  gt\n    /* \"#utility.yul\":6058:6094   */\n  iszero\n  tag_131\n  jumpi\n    /* \"#utility.yul\":6074:6092   */\n  tag_131\n  tag_84\n  jump\t// in\n    /* \"#utility.yul\":6455:6632   */\ntag_85:\n    /* \"quantum/UBI4ALLQuantum.sol\":562:14358  contract UBI4ALLQuantum is ERC20, Ownable, ReentrancyGuard, Pausable, IUBI4ALLQuantum {... */\n  mload(0x80)\n  codecopy(0x00, dataOffset(sub_0), dataSize(sub_0))\n  0x00\n  assignImmutable(\"0x4d10a0db24f434e6025a5ab91426fb885a8a41f2a9a3e3f8c3bfdea4a211adc4\")\n  return(0x00, dataSize(sub_0))\nstop\n\nsub_0: assembly {\n        /* \"quantum/UBI4ALLQuantum.sol\":562:14358  contract UBI4ALLQuantum is ERC20, Ownable, ReentrancyGuard, Pausable, IUBI4ALLQuantum {... */\n      mstore(0x40, 0x80)\n      callvalue\n      dup1\n      iszero\n      tag_1\n      jumpi\n      0x00\n      dup1\n      revert\n    tag_1:\n      pop\n      jumpi(tag_2, lt(calldatasize, 0x04))\n      shr(0xe0, calldataload(0x00))\n      dup1\n      0x780b9737\n      gt\n      tag_46\n      jumpi\n      dup1\n      0xbf1ad7e0\n      gt\n      tag_47\n      jumpi\n      dup1\n      0xd72b11bd\n      gt\n      tag_48\n      jumpi\n      dup1\n      0xd72b11bd\n      eq\n      tag_40\n      jumpi\n      dup1\n      0xdb7a4605\n      eq\n      tag_41\n      jumpi\n      dup1\n      0xdd62ed3e\n      eq\n      tag_42\n      jumpi\n      dup1\n      0xf2fde38b\n      eq\n      tag_43\n      jumpi\n      dup1\n      0xf9428f38\n      eq\n      tag_44\n      jumpi\n      dup1\n      0xfdb20ccb\n      eq\n      tag_45\n      jumpi\n      0x00\n      dup1\n      revert\n    tag_48:\n      dup1\n      0xbf1ad7e0\n      eq\n      tag_35\n      jumpi\n      dup1\n      0xc4e41b22\n      eq\n      tag_36\n      jumpi\n      dup1\n      0xc7574839\n      eq\n      tag_37\n      jumpi\n      dup1\n      0xd4698016\n      eq\n      tag_38\n      jumpi\n      dup1\n      0xd486d129\n      eq\n      tag_39\n      jumpi\n      0x00\n      dup1\n      revert\n    tag_47:\n      dup1\n      0x90534f24\n      gt\n      tag_49\n      jumpi\n      dup1\n      0x90534f24\n      eq\n      tag_29\n      jumpi\n      dup1\n      0x9576a374\n      eq\n      tag_30\n      jumpi\n      dup1\n      0x95d89b41\n      eq\n      tag_31\n      jumpi\n      dup1\n      0x993eb1c5\n      eq\n      tag_32\n      jumpi\n      dup1\n      0xa9059cbb\n      eq\n      tag_33\n      jumpi\n      dup1\n      0xb7e26a2e\n      eq\n      tag_34\n      jumpi\n      0x00\n      dup1\n      revert\n    tag_49:\n      dup1\n      0x780b9737\n      eq\n      tag_24\n      jumpi\n      dup1\n      0x7b5c7f03\n      eq\n      tag_25\n      jumpi\n      dup1\n      0x8456cb59\n      eq\n      tag_26\n      jumpi\n      dup1\n      0x8da5cb5b\n      eq\n      tag_27\n      jumpi\n      dup1\n      0x902d55a5\n      eq\n      tag_28\n      jumpi\n      0x00\n      dup1\n      revert\n    tag_46:\n      dup1\n      0x3f4ba83a\n      gt\n      tag_50\n      jumpi\n      dup1\n      0x4a0ced96\n      gt\n      tag_51\n      jumpi\n      dup1\n      0x4a0ced96\n      eq\n      tag_18\n      jumpi\n      dup1\n      0x5c975abb\n      eq\n      tag_19\n      jumpi\n      dup1\n      0x65ed6e23\n      eq\n      tag_20\n      jumpi\n      dup1\n      0x70a08231\n      eq\n      tag_21\n      jumpi\n      dup1\n      0x715018a6\n      eq\n      tag_22\n      jumpi\n      dup1\n      0x74300378\n      eq\n      tag_23\n      jumpi\n      0x00\n      dup1\n      revert\n    tag_51:\n      dup1\n      0x3f4ba83a\n      eq\n      tag_13\n      jumpi\n      dup1\n      0x40c10f19\n      eq\n      tag_14\n      jumpi\n      dup1\n      0x42966c68\n      eq\n      tag_15\n      jumpi\n      dup1\n      0x435263ef\n      eq\n      tag_16\n      jumpi\n      dup1\n      0x4626402b\n      eq\n      tag_17\n      jumpi\n      0x00\n      dup1\n      revert\n    tag_50:\n      dup1\n      0x23b872dd\n      gt\n      tag_52\n      jumpi\n      dup1\n      0x23b872dd\n      eq\n      tag_8\n      jumpi\n      dup1\n      0x254800d4\n      eq\n      tag_9\n      jumpi\n      dup1\n      0x2af44592\n      eq\n      tag_10\n      jumpi\n      dup1\n      0x313ce567\n      eq\n      tag_11\n      jumpi\n      dup1\n      0x33127b0d\n      eq\n      tag_12\n      jumpi\n      0x00\n      dup1\n      revert\n    tag_52:\n      dup1\n      0x0197d972\n      eq\n      tag_3\n      jumpi\n      dup1\n      0x0553be1e\n      eq\n      tag_4\n      jumpi\n      dup1\n      0x06fdde03\n      eq\n      tag_5\n      jumpi\n      dup1\n      0x095ea7b3\n      eq\n      tag_6\n      jumpi\n      dup1\n      0x18160ddd\n      eq\n      tag_7\n      jumpi\n    tag_2:\n      0x00\n      dup1\n      revert\n        /* \"quantum/UBI4ALLQuantum.sol\":1494:1543  uint256 public constant VESTING_PERIOD = 365 days */\n    tag_3:\n      tag_53\n        /* \"quantum/UBI4ALLQuantum.sol\":1535:1543  365 days */\n      0x01e13380\n        /* \"quantum/UBI4ALLQuantum.sol\":1494:1543  uint256 public constant VESTING_PERIOD = 365 days */\n      dup2\n      jump\n    tag_53:\n      mload(0x40)\n        /* \"#utility.yul\":160:185   */\n      swap1\n      dup2\n      mstore\n        /* \"#utility.yul\":148:150   */\n      0x20\n        /* \"#utility.yul\":133:151   */\n      add\n        /* \"quantum/UBI4ALLQuantum.sol\":1494:1543  uint256 public constant VESTING_PERIOD = 365 days */\n    tag_55:\n      mload(0x40)\n      dup1\n      swap2\n      sub\n      swap1\n      return\n        /* \"quantum/UBI4ALLQuantum.sol\":11779:12307  function getReleasableVesting(address wallet) external view returns (uint256) {... */\n    tag_4:\n      tag_53\n      tag_58\n      calldatasize\n      0x04\n      tag_59\n      jump\t// in\n    tag_58:\n      tag_60\n      jump\t// in\n        /* \"@openzeppelin/contracts/token/ERC20/ERC20.sol\":1760:1849  function name() public view virtual returns (string memory) {... */\n    tag_5:\n      tag_62\n      tag_63\n      jump\t// in\n    tag_62:\n      mload(0x40)\n      tag_55\n      swap2\n      swap1\n      tag_65\n      jump\t// in\n        /* \"@openzeppelin/contracts/token/ERC20/ERC20.sol\":3979:4165  function approve(address spender, uint256 value) public virtual returns (bool) {... */\n    tag_6:\n      tag_66\n      tag_67\n      calldatasize\n      0x04\n      tag_68\n      jump\t// in\n    tag_67:\n      tag_69\n      jump\t// in\n    tag_66:\n      mload(0x40)\n        /* \"#utility.yul\":1791:1805   */\n      swap1\n      iszero\n        /* \"#utility.yul\":1784:1806   */\n      iszero\n        /* \"#utility.yul\":1766:1807   */\n      dup2\n      mstore\n        /* \"#utility.yul\":1754:1756   */\n      0x20\n        /* \"#utility.yul\":1739:1757   */\n      add\n        /* \"@openzeppelin/contracts/token/ERC20/ERC20.sol\":3979:4165  function approve(address spender, uint256 value) public virtual returns (bool) {... */\n      tag_55\n        /* \"#utility.yul\":1626:1813   */\n      jump\n        /* \"@openzeppelin/contracts/token/ERC20/ERC20.sol\":2830:2927  function totalSupply() public view virtual returns (uint256) {... */\n    tag_7:\n        /* \"@openzeppelin/contracts/token/ERC20/ERC20.sol\":2908:2920  _totalSupply */\n      sload(0x02)\n        /* \"@openzeppelin/contracts/token/ERC20/ERC20.sol\":2830:2927  function totalSupply() public view virtual returns (uint256) {... */\n      jump(tag_53)\n        /* \"@openzeppelin/contracts/token/ERC20/ERC20.sol\":4757:5001  function transferFrom(address from, address to, uint256 value) public virtual returns (bool) {... */\n    tag_8:\n      tag_66\n      tag_76\n      calldatasize\n      0x04\n      tag_77\n      jump\t// in\n    tag_76:\n      tag_78\n      jump\t// in\n        /* \"quantum/UBI4ALLQuantum.sol\":1594:1631  uint256 public immutable vestingStart */\n    tag_9:\n      tag_53\n      immutable(\"0x4d10a0db24f434e6025a5ab91426fb885a8a41f2a9a3e3f8c3bfdea4a211adc4\")\n      dup2\n      jump\n        /* \"quantum/UBI4ALLQuantum.sol\":1908:1955  mapping(address => uint256) public lockedForDAO */\n    tag_10:\n      tag_53\n      tag_84\n      calldatasize\n      0x04\n      tag_59\n      jump\t// in\n    tag_84:\n      mstore(0x20, 0x0c)\n      0x00\n      swap1\n      dup2\n      mstore\n      0x40\n      swap1\n      keccak256\n      sload\n      dup2\n      jump\n        /* \"@openzeppelin/contracts/token/ERC20/ERC20.sol\":2688:2770  function decimals() public view virtual returns (uint8) {... */\n    tag_11:\n      mload(0x40)\n        /* \"@openzeppelin/contracts/token/ERC20/ERC20.sol\":2761:2763  18 */\n      0x12\n        /* \"#utility.yul\":2339:2375   */\n      dup2\n      mstore\n        /* \"#utility.yul\":2327:2329   */\n      0x20\n        /* \"#utility.yul\":2312:2330   */\n      add\n        /* \"@openzeppelin/contracts/token/ERC20/ERC20.sol\":2688:2770  function decimals() public view virtual returns (uint8) {... */\n      tag_55\n        /* \"#utility.yul\":2197:2381   */\n      jump\n        /* \"quantum/UBI4ALLQuantum.sol\":12610:13329  function transferWithLeverage(address to, uint256 amount, uint256 leverage) external nonReentrant whenNotPaused returns (bool) {... */\n    tag_12:\n      tag_66\n      tag_92\n      calldatasize\n      0x04\n      tag_93\n      jump\t// in\n    tag_92:\n      tag_94\n      jump\t// in\n        /* \"quantum/UBI4ALLQuantum.sol\":14291:14356  function unpause() external onlyOwner {... */\n    tag_13:\n      tag_96\n      tag_97\n      jump\t// in\n    tag_96:\n      stop\n        /* \"quantum/UBI4ALLQuantum.sol\":6598:6832  function mint(address to, uint256 amount) external override onlyOwner nonReentrant whenNotPaused {... */\n    tag_14:\n      tag_96\n      tag_99\n      calldatasize\n      0x04\n      tag_68\n      jump\t// in\n    tag_99:\n      tag_100\n      jump\t// in\n        /* \"quantum/UBI4ALLQuantum.sol\":6934:7145  function burn(uint256 amount) external override nonReentrant whenNotPaused {... */\n    tag_15:\n      tag_96\n      tag_102\n      calldatasize\n      0x04\n      tag_103\n      jump\t// in\n    tag_102:\n      tag_104\n      jump\t// in\n        /* \"quantum/UBI4ALLQuantum.sol\":1712:1742  address public ecosystemWallet */\n    tag_16:\n      sload(0x08)\n      tag_105\n      swap1\n      sub(shl(0xa0, 0x01), 0x01)\n      and\n      dup2\n      jump\n    tag_105:\n      mload(0x40)\n      sub(shl(0xa0, 0x01), 0x01)\n        /* \"#utility.yul\":3206:3238   */\n      swap1\n      swap2\n      and\n        /* \"#utility.yul\":3188:3239   */\n      dup2\n      mstore\n        /* \"#utility.yul\":3176:3178   */\n      0x20\n        /* \"#utility.yul\":3161:3179   */\n      add\n        /* \"quantum/UBI4ALLQuantum.sol\":1712:1742  address public ecosystemWallet */\n      tag_55\n        /* \"#utility.yul\":3042:3245   */\n      jump\n        /* \"quantum/UBI4ALLQuantum.sol\":1677:1706  address public treasuryWallet */\n    tag_17:\n      sload(0x07)\n      tag_105\n      swap1\n      0x0100\n      swap1\n      div\n      sub(shl(0xa0, 0x01), 0x01)\n      and\n      dup2\n      jump\n        /* \"quantum/UBI4ALLQuantum.sol\":2011:2043  uint256 public totalLockedForDAO */\n    tag_18:\n      tag_53\n      sload(0x0d)\n      dup2\n      jump\n        /* \"@openzeppelin/contracts/security/Pausable.sol\":1616:1700  function paused() public view virtual returns (bool) {... */\n    tag_19:\n        /* \"@openzeppelin/contracts/security/Pausable.sol\":1686:1693  _paused */\n      and(0xff, sload(0x07))\n        /* \"@openzeppelin/contracts/security/Pausable.sol\":1616:1700  function paused() public view virtual returns (bool) {... */\n      jump(tag_66)\n        /* \"quantum/UBI4ALLQuantum.sol\":5380:5777  function getAllocations() external pure override returns (... */\n    tag_20:\n      tag_118\n      tag_119\n      jump\t// in\n    tag_118:\n      0x40\n      dup1\n      mload\n        /* \"#utility.yul\":3509:3534   */\n      swap6\n      dup7\n      mstore\n        /* \"#utility.yul\":3565:3567   */\n      0x20\n        /* \"#utility.yul\":3550:3568   */\n      dup7\n      add\n        /* \"#utility.yul\":3543:3577   */\n      swap5\n      swap1\n      swap5\n      mstore\n        /* \"#utility.yul\":3593:3611   */\n      swap3\n      dup5\n      add\n        /* \"#utility.yul\":3586:3620   */\n      swap2\n      swap1\n      swap2\n      mstore\n        /* \"#utility.yul\":3651:3653   */\n      0x60\n        /* \"#utility.yul\":3636:3654   */\n      dup4\n      add\n        /* \"#utility.yul\":3629:3663   */\n      mstore\n        /* \"#utility.yul\":3694:3697   */\n      0x80\n        /* \"#utility.yul\":3679:3698   */\n      dup3\n      add\n        /* \"#utility.yul\":3672:3707   */\n      mstore\n        /* \"#utility.yul\":3496:3499   */\n      0xa0\n        /* \"#utility.yul\":3481:3500   */\n      add\n        /* \"quantum/UBI4ALLQuantum.sol\":5380:5777  function getAllocations() external pure override returns (... */\n      tag_55\n        /* \"#utility.yul\":3250:3713   */\n      jump\n        /* \"quantum/UBI4ALLQuantum.sol\":13975:14122  function balanceOf(address account) public view override(ERC20, IUBI4ALLQuantum) returns (uint256) {... */\n    tag_21:\n      tag_53\n      tag_123\n      calldatasize\n      0x04\n      tag_59\n      jump\t// in\n    tag_123:\n      tag_124\n      jump\t// in\n        /* \"@openzeppelin/contracts/access/Ownable.sol\":2293:2394  function renounceOwnership() public virtual onlyOwner {... */\n    tag_22:\n      tag_96\n      tag_127\n      jump\t// in\n        /* \"quantum/UBI4ALLQuantum.sol\":10144:10579  function unlockFromDAO(uint256 amount) external nonReentrant whenNotPaused {... */\n    tag_23:\n      tag_96\n      tag_129\n      calldatasize\n      0x04\n      tag_103\n      jump\t// in\n    tag_129:\n      tag_130\n      jump\t// in\n        /* \"quantum/UBI4ALLQuantum.sol\":7969:9525  function updateWallet(string memory walletType, address newWallet) external onlyOwner {... */\n    tag_24:\n      tag_96\n      tag_132\n      calldatasize\n      0x04\n      tag_133\n      jump\t// in\n    tag_132:\n      tag_134\n      jump\t// in\n        /* \"quantum/UBI4ALLQuantum.sol\":1377:1446  uint256 public constant RESERVE_ALLOCATION = (TOTAL_SUPPLY * 5) / 100 */\n    tag_25:\n      tag_53\n      tag_136\n      jump\t// in\n        /* \"quantum/UBI4ALLQuantum.sol\":14172:14233  function pause() external onlyOwner {... */\n    tag_26:\n      tag_96\n      tag_139\n      jump\t// in\n        /* \"@openzeppelin/contracts/access/Ownable.sol\":1638:1723  function owner() public view virtual returns (address) {... */\n    tag_27:\n        /* \"@openzeppelin/contracts/access/Ownable.sol\":1710:1716  _owner */\n      and(sub(shl(0xa0, 0x01), 0x01), sload(0x05))\n        /* \"@openzeppelin/contracts/access/Ownable.sol\":1638:1723  function owner() public view virtual returns (address) {... */\n      jump(tag_105)\n        /* \"quantum/UBI4ALLQuantum.sol\":762:823  uint256 public constant TOTAL_SUPPLY = 1_000_000_000 * 10**18 */\n    tag_28:\n      tag_53\n      shl(0x1b, 0x6765c793fa10079d)\n      dup2\n      jump\n        /* \"quantum/UBI4ALLQuantum.sol\":1001:1073  uint256 public constant ECOSYSTEM_ALLOCATION = (TOTAL_SUPPLY * 20) / 100 */\n    tag_29:\n      tag_53\n      tag_147\n      jump\t// in\n        /* \"quantum/UBI4ALLQuantum.sol\":9624:10044  function lockForDAO(uint256 amount) external nonReentrant whenNotPaused {... */\n    tag_30:\n      tag_96\n      tag_150\n      calldatasize\n      0x04\n      tag_103\n      jump\t// in\n    tag_150:\n      tag_151\n      jump\t// in\n        /* \"@openzeppelin/contracts/token/ERC20/ERC20.sol\":1962:2055  function symbol() public view virtual returns (string memory) {... */\n    tag_31:\n      tag_62\n      tag_153\n      jump\t// in\n        /* \"quantum/UBI4ALLQuantum.sol\":1127:1199  uint256 public constant COMMUNITY_ALLOCATION = (TOTAL_SUPPLY * 15) / 100 */\n    tag_32:\n      tag_53\n      tag_156\n      jump\t// in\n        /* \"quantum/UBI4ALLQuantum.sol\":13553:13841  function transfer(address to, uint256 amount) public override(ERC20, IUBI4ALLQuantum) whenNotPaused returns (bool) {... */\n    tag_33:\n      tag_66\n      tag_159\n      calldatasize\n      0x04\n      tag_68\n      jump\t// in\n    tag_159:\n      tag_160\n      jump\t// in\n        /* \"quantum/UBI4ALLQuantum.sol\":7311:7757  function emergencyRecoverTokens(address token, address to) external override onlyOwner nonReentrant {... */\n    tag_34:\n      tag_96\n      tag_163\n      calldatasize\n      0x04\n      tag_164\n      jump\t// in\n    tag_163:\n      tag_165\n      jump\t// in\n        /* \"quantum/UBI4ALLQuantum.sol\":876:947  uint256 public constant TREASURY_ALLOCATION = (TOTAL_SUPPLY * 50) / 100 */\n    tag_35:\n      tag_53\n      tag_167\n      jump\t// in\n        /* \"quantum/UBI4ALLQuantum.sol\":4986:5089  function getTotalSupply() external pure override returns (uint256) {... */\n    tag_36:\n      shl(0x1b, 0x6765c793fa10079d)\n      jump(tag_53)\n        /* \"quantum/UBI4ALLQuantum.sol\":1748:1778  address public communityWallet */\n    tag_37:\n      sload(0x09)\n      tag_105\n      swap1\n      sub(shl(0xa0, 0x01), 0x01)\n      and\n      dup2\n      jump\n        /* \"quantum/UBI4ALLQuantum.sol\":1784:1814  address public liquidityWallet */\n    tag_38:\n      sload(0x0a)\n      tag_105\n      swap1\n      sub(shl(0xa0, 0x01), 0x01)\n      and\n      dup2\n      jump\n        /* \"quantum/UBI4ALLQuantum.sol\":10697:11612  function releaseVesting(address wallet) external nonReentrant whenNotPaused {... */\n    tag_39:\n      tag_96\n      tag_179\n      calldatasize\n      0x04\n      tag_59\n      jump\t// in\n    tag_179:\n      tag_180\n      jump\t// in\n        /* \"quantum/UBI4ALLQuantum.sol\":1820:1848  address public reserveWallet */\n    tag_40:\n      sload(0x0b)\n      tag_105\n      swap1\n      sub(shl(0xa0, 0x01), 0x01)\n      and\n      dup2\n      jump\n        /* \"quantum/UBI4ALLQuantum.sol\":6093:6461  function getWallets() external view override returns (... */\n    tag_41:\n        /* \"quantum/UBI4ALLQuantum.sol\":6316:6330  treasuryWallet */\n      sload(0x07)\n        /* \"quantum/UBI4ALLQuantum.sol\":6344:6359  ecosystemWallet */\n      sload(0x08)\n        /* \"quantum/UBI4ALLQuantum.sol\":6373:6388  communityWallet */\n      sload(0x09)\n        /* \"quantum/UBI4ALLQuantum.sol\":6402:6417  liquidityWallet */\n      sload(0x0a)\n        /* \"quantum/UBI4ALLQuantum.sol\":6431:6444  reserveWallet */\n      sload(0x0b)\n        /* \"quantum/UBI4ALLQuantum.sol\":6093:6461  function getWallets() external view override returns (... */\n      0x40\n      dup1\n      mload\n        /* \"quantum/UBI4ALLQuantum.sol\":6316:6330  treasuryWallet */\n      0x0100\n      swap1\n      swap7\n      div\n      sub(shl(0xa0, 0x01), 0x01)\n      swap1\n      dup2\n      and\n        /* \"#utility.yul\":5408:5459   */\n      dup8\n      mstore\n        /* \"quantum/UBI4ALLQuantum.sol\":6344:6359  ecosystemWallet */\n      swap5\n      dup6\n      and\n        /* \"#utility.yul\":5490:5492   */\n      0x20\n        /* \"#utility.yul\":5475:5493   */\n      dup8\n      add\n        /* \"#utility.yul\":5468:5528   */\n      mstore\n        /* \"quantum/UBI4ALLQuantum.sol\":6373:6388  communityWallet */\n      swap3\n      dup5\n      and\n        /* \"#utility.yul\":5544:5562   */\n      swap3\n      dup6\n      add\n        /* \"#utility.yul\":5537:5597   */\n      swap3\n      swap1\n      swap3\n      mstore\n        /* \"quantum/UBI4ALLQuantum.sol\":6402:6417  liquidityWallet */\n      dup3\n      and\n        /* \"#utility.yul\":5628:5630   */\n      0x60\n        /* \"#utility.yul\":5613:5631   */\n      dup5\n      add\n        /* \"#utility.yul\":5606:5666   */\n      mstore\n        /* \"quantum/UBI4ALLQuantum.sol\":6431:6444  reserveWallet */\n      and\n        /* \"#utility.yul\":5697:5700   */\n      0x80\n        /* \"#utility.yul\":5682:5701   */\n      dup3\n      add\n        /* \"#utility.yul\":5675:5736   */\n      mstore\n        /* \"#utility.yul\":5395:5398   */\n      0xa0\n        /* \"#utility.yul\":5380:5399   */\n      add\n        /* \"quantum/UBI4ALLQuantum.sol\":6093:6461  function getWallets() external view override returns (... */\n      tag_55\n        /* \"#utility.yul\":5149:5742   */\n      jump\n        /* \"@openzeppelin/contracts/token/ERC20/ERC20.sol\":3532:3672  function allowance(address owner, address spender) public view virtual returns (uint256) {... */\n    tag_42:\n      tag_53\n      tag_189\n      calldatasize\n      0x04\n      tag_164\n      jump\t// in\n    tag_189:\n      sub(shl(0xa0, 0x01), 0x01)\n        /* \"@openzeppelin/contracts/token/ERC20/ERC20.sol\":3638:3656  _allowances[owner] */\n      swap2\n      dup3\n      and\n        /* \"@openzeppelin/contracts/token/ERC20/ERC20.sol\":3612:3619  uint256 */\n      0x00\n        /* \"@openzeppelin/contracts/token/ERC20/ERC20.sol\":3638:3656  _allowances[owner] */\n      swap1\n      dup2\n      mstore\n        /* \"@openzeppelin/contracts/token/ERC20/ERC20.sol\":3638:3649  _allowances */\n      0x01\n        /* \"@openzeppelin/contracts/token/ERC20/ERC20.sol\":3638:3656  _allowances[owner] */\n      0x20\n      swap1\n      dup2\n      mstore\n      0x40\n      dup1\n      dup4\n      keccak256\n        /* \"@openzeppelin/contracts/token/ERC20/ERC20.sol\":3638:3665  _allowances[owner][spender] */\n      swap4\n      swap1\n      swap5\n      and\n      dup3\n      mstore\n      swap2\n      swap1\n      swap2\n      mstore\n      keccak256\n      sload\n      swap1\n        /* \"@openzeppelin/contracts/token/ERC20/ERC20.sol\":3532:3672  function allowance(address owner, address spender) public view virtual returns (uint256) {... */\n      jump\n        /* \"@openzeppelin/contracts/access/Ownable.sol\":2543:2758  function transferOwnership(address newOwner) public virtual onlyOwner {... */\n    tag_43:\n      tag_96\n      tag_193\n      calldatasize\n      0x04\n      tag_59\n      jump\t// in\n    tag_193:\n      tag_194\n      jump\t// in\n        /* \"quantum/UBI4ALLQuantum.sol\":1254:1326  uint256 public constant LIQUIDITY_ALLOCATION = (TOTAL_SUPPLY * 10) / 100 */\n    tag_44:\n      tag_53\n      tag_196\n      jump\t// in\n        /* \"quantum/UBI4ALLQuantum.sol\":2287:2346  mapping(address => VestingSchedule) public vestingSchedules */\n    tag_45:\n      tag_198\n      tag_199\n      calldatasize\n      0x04\n      tag_59\n      jump\t// in\n    tag_199:\n      mstore(0x20, 0x0e)\n      0x00\n      swap1\n      dup2\n      mstore\n      0x40\n      swap1\n      keccak256\n      dup1\n      sload\n      0x01\n      swap1\n      swap2\n      add\n      sload\n      dup3\n      jump\n    tag_198:\n      0x40\n      dup1\n      mload\n        /* \"#utility.yul\":5921:5946   */\n      swap3\n      dup4\n      mstore\n        /* \"#utility.yul\":5977:5979   */\n      0x20\n        /* \"#utility.yul\":5962:5980   */\n      dup4\n      add\n        /* \"#utility.yul\":5955:5989   */\n      swap2\n      swap1\n      swap2\n      mstore\n        /* \"#utility.yul\":5894:5912   */\n      add\n        /* \"quantum/UBI4ALLQuantum.sol\":2287:2346  mapping(address => VestingSchedule) public vestingSchedules */\n      tag_55\n        /* \"#utility.yul\":5747:5995   */\n      jump\n        /* \"quantum/UBI4ALLQuantum.sol\":11779:12307  function getReleasableVesting(address wallet) external view returns (uint256) {... */\n    tag_60:\n      sub(shl(0xa0, 0x01), 0x01)\n        /* \"quantum/UBI4ALLQuantum.sol\":11902:11926  vestingSchedules[wallet] */\n      dup2\n      and\n        /* \"quantum/UBI4ALLQuantum.sol\":11848:11855  uint256 */\n      0x00\n        /* \"quantum/UBI4ALLQuantum.sol\":11902:11926  vestingSchedules[wallet] */\n      swap1\n      dup2\n      mstore\n        /* \"quantum/UBI4ALLQuantum.sol\":11902:11918  vestingSchedules */\n      0x0e\n        /* \"quantum/UBI4ALLQuantum.sol\":11902:11926  vestingSchedules[wallet] */\n      0x20\n      mstore\n      0x40\n      dup2\n      keccak256\n        /* \"quantum/UBI4ALLQuantum.sol\":11940:11960  schedule.totalAmount */\n      dup1\n      sload\n        /* \"quantum/UBI4ALLQuantum.sol\":11940:11965  schedule.totalAmount == 0 */\n      dup3\n      sub\n        /* \"quantum/UBI4ALLQuantum.sol\":11936:11975  if (schedule.totalAmount == 0) return 0 */\n      tag_204\n      jumpi\n      pop\n        /* \"quantum/UBI4ALLQuantum.sol\":11974:11975  0 */\n      0x00\n      swap3\n        /* \"quantum/UBI4ALLQuantum.sol\":11779:12307  function getReleasableVesting(address wallet) external view returns (uint256) {... */\n      swap2\n      pop\n      pop\n      jump\t// out\n        /* \"quantum/UBI4ALLQuantum.sol\":11936:11975  if (schedule.totalAmount == 0) return 0 */\n    tag_204:\n        /* \"quantum/UBI4ALLQuantum.sol\":11986:12005  uint256 elapsedTime */\n      0x00\n        /* \"quantum/UBI4ALLQuantum.sol\":12008:12041  block.timestamp.sub(vestingStart) */\n      tag_205\n        /* \"quantum/UBI4ALLQuantum.sol\":12008:12023  block.timestamp */\n      timestamp\n        /* \"quantum/UBI4ALLQuantum.sol\":12028:12040  vestingStart */\n      immutable(\"0x4d10a0db24f434e6025a5ab91426fb885a8a41f2a9a3e3f8c3bfdea4a211adc4\")\n        /* \"quantum/UBI4ALLQuantum.sol\":12008:12027  block.timestamp.sub */\n      tag_206\n        /* \"quantum/UBI4ALLQuantum.sol\":12008:12041  block.timestamp.sub(vestingStart) */\n      jump\t// in\n    tag_205:\n        /* \"quantum/UBI4ALLQuantum.sol\":11986:12041  uint256 elapsedTime = block.timestamp.sub(vestingStart) */\n      swap1\n      pop\n        /* \"quantum/UBI4ALLQuantum.sol\":12051:12071  uint256 vestedAmount */\n      0x00\n        /* \"quantum/UBI4ALLQuantum.sol\":12074:12131  schedule.totalAmount.mul(elapsedTime).div(VESTING_PERIOD) */\n      tag_207\n        /* \"quantum/UBI4ALLQuantum.sol\":1535:1543  365 days */\n      0x01e13380\n        /* \"quantum/UBI4ALLQuantum.sol\":12074:12111  schedule.totalAmount.mul(elapsedTime) */\n      tag_208\n        /* \"quantum/UBI4ALLQuantum.sol\":12099:12110  elapsedTime */\n      dup5\n        /* \"quantum/UBI4ALLQuantum.sol\":12074:12082  schedule */\n      dup7\n        /* \"quantum/UBI4ALLQuantum.sol\":12074:12094  schedule.totalAmount */\n      0x00\n      add\n      sload\n        /* \"quantum/UBI4ALLQuantum.sol\":12074:12098  schedule.totalAmount.mul */\n      tag_209\n      swap1\n        /* \"quantum/UBI4ALLQuantum.sol\":12074:12111  schedule.totalAmount.mul(elapsedTime) */\n      swap2\n      swap1\n      0xffffffff\n      and\n      jump\t// in\n    tag_208:\n        /* \"quantum/UBI4ALLQuantum.sol\":12074:12115  schedule.totalAmount.mul(elapsedTime).div */\n      swap1\n      tag_210\n        /* \"quantum/UBI4ALLQuantum.sol\":12074:12131  schedule.totalAmount.mul(elapsedTime).div(VESTING_PERIOD) */\n      jump\t// in\n    tag_207:\n        /* \"quantum/UBI4ALLQuantum.sol\":12160:12180  schedule.totalAmount */\n      dup4\n      sload\n        /* \"quantum/UBI4ALLQuantum.sol\":12051:12131  uint256 vestedAmount = schedule.totalAmount.mul(elapsedTime).div(VESTING_PERIOD) */\n      swap1\n      swap2\n      pop\n        /* \"quantum/UBI4ALLQuantum.sol\":12145:12180  vestedAmount > schedule.totalAmount */\n      dup2\n      gt\n        /* \"quantum/UBI4ALLQuantum.sol\":12141:12242  if (vestedAmount > schedule.totalAmount) {... */\n      iszero\n      tag_211\n      jumpi\n      pop\n        /* \"quantum/UBI4ALLQuantum.sol\":12211:12231  schedule.totalAmount */\n      dup2\n      sload\n        /* \"quantum/UBI4ALLQuantum.sol\":12141:12242  if (vestedAmount > schedule.totalAmount) {... */\n    tag_211:\n        /* \"quantum/UBI4ALLQuantum.sol\":12276:12299  schedule.releasedAmount */\n      0x01\n      dup4\n      add\n      sload\n        /* \"quantum/UBI4ALLQuantum.sol\":12259:12300  vestedAmount.sub(schedule.releasedAmount) */\n      tag_212\n      swap1\n        /* \"quantum/UBI4ALLQuantum.sol\":12259:12271  vestedAmount */\n      dup3\n      swap1\n        /* \"quantum/UBI4ALLQuantum.sol\":12259:12275  vestedAmount.sub */\n      tag_206\n        /* \"quantum/UBI4ALLQuantum.sol\":12259:12300  vestedAmount.sub(schedule.releasedAmount) */\n      jump\t// in\n    tag_212:\n        /* \"quantum/UBI4ALLQuantum.sol\":12252:12300  return vestedAmount.sub(schedule.releasedAmount) */\n      swap6\n        /* \"quantum/UBI4ALLQuantum.sol\":11779:12307  function getReleasableVesting(address wallet) external view returns (uint256) {... */\n      swap5\n      pop\n      pop\n      pop\n      pop\n      pop\n      jump\t// out\n        /* \"@openzeppelin/contracts/token/ERC20/ERC20.sol\":1760:1849  function name() public view virtual returns (string memory) {... */\n    tag_63:\n        /* \"@openzeppelin/contracts/token/ERC20/ERC20.sol\":1805:1818  string memory */\n      0x60\n        /* \"@openzeppelin/contracts/token/ERC20/ERC20.sol\":1837:1842  _name */\n      0x03\n        /* \"@openzeppelin/contracts/token/ERC20/ERC20.sol\":1830:1842  return _name */\n      dup1\n      sload\n      tag_214\n      swap1\n      tag_215\n      jump\t// in\n    tag_214:\n      dup1\n      0x1f\n      add\n      0x20\n      dup1\n      swap2\n      div\n      mul\n      0x20\n      add\n      mload(0x40)\n      swap1\n      dup2\n      add\n      0x40\n      mstore\n      dup1\n      swap3\n      swap2\n      swap1\n      dup2\n      dup2\n      mstore\n      0x20\n      add\n      dup3\n      dup1\n      sload\n      tag_216\n      swap1\n      tag_215\n      jump\t// in\n    tag_216:\n      dup1\n      iszero\n      tag_217\n      jumpi\n      dup1\n      0x1f\n      lt\n      tag_218\n      jumpi\n      0x0100\n      dup1\n      dup4\n      sload\n      div\n      mul\n      dup4\n      mstore\n      swap2\n      0x20\n      add\n      swap2\n      jump(tag_217)\n    tag_218:\n      dup3\n      add\n      swap2\n      swap1\n      0x00\n      mstore\n      keccak256(0x00, 0x20)\n      swap1\n    tag_219:\n      dup2\n      sload\n      dup2\n      mstore\n      swap1\n      0x01\n      add\n      swap1\n      0x20\n      add\n      dup1\n      dup4\n      gt\n      tag_219\n      jumpi\n      dup3\n      swap1\n      sub\n      0x1f\n      and\n      dup3\n      add\n      swap2\n    tag_217:\n      pop\n      pop\n      pop\n      pop\n      pop\n      swap1\n      pop\n        /* \"@openzeppelin/contracts/token/ERC20/ERC20.sol\":1760:1849  function name() public view virtual returns (string memory) {... */\n      swap1\n      jump\t// out\n        /* \"@openzeppelin/contracts/token/ERC20/ERC20.sol\":3979:4165  function approve(address spender, uint256 value) public virtual returns (bool) {... */\n    tag_69:\n        /* \"@openzeppelin/contracts/token/ERC20/ERC20.sol\":4052:4056  bool */\n      0x00\n        /* \"@openzeppelin/contracts/utils/Context.sol\":735:745  msg.sender */\n      caller\n        /* \"@openzeppelin/contracts/token/ERC20/ERC20.sol\":4106:4137  _approve(owner, spender, value) */\n      tag_223\n        /* \"@openzeppelin/contracts/utils/Context.sol\":735:745  msg.sender */\n      dup2\n        /* \"@openzeppelin/contracts/token/ERC20/ERC20.sol\":4122:4129  spender */\n      dup6\n        /* \"@openzeppelin/contracts/token/ERC20/ERC20.sol\":4131:4136  value */\n      dup6\n        /* \"@openzeppelin/contracts/token/ERC20/ERC20.sol\":4106:4114  _approve */\n      tag_224\n        /* \"@openzeppelin/contracts/token/ERC20/ERC20.sol\":4106:4137  _approve(owner, spender, value) */\n      jump\t// in\n    tag_223:\n        /* \"@openzeppelin/contracts/token/ERC20/ERC20.sol\":4154:4158  true */\n      0x01\n        /* \"@openzeppelin/contracts/token/ERC20/ERC20.sol\":4147:4158  return true */\n      swap2\n      pop\n      pop\n        /* \"@openzeppelin/contracts/token/ERC20/ERC20.sol\":3979:4165  function approve(address spender, uint256 value) public virtual returns (bool) {... */\n    tag_220:\n      swap3\n      swap2\n      pop\n      pop\n      jump\t// out\n        /* \"@openzeppelin/contracts/token/ERC20/ERC20.sol\":4757:5001  function transferFrom(address from, address to, uint256 value) public virtual returns (bool) {... */\n    tag_78:\n        /* \"@openzeppelin/contracts/token/ERC20/ERC20.sol\":4844:4848  bool */\n      0x00\n        /* \"@openzeppelin/contracts/utils/Context.sol\":735:745  msg.sender */\n      caller\n        /* \"@openzeppelin/contracts/token/ERC20/ERC20.sol\":4900:4937  _spendAllowance(from, spender, value) */\n      tag_228\n        /* \"@openzeppelin/contracts/token/ERC20/ERC20.sol\":4916:4920  from */\n      dup6\n        /* \"@openzeppelin/contracts/utils/Context.sol\":735:745  msg.sender */\n      dup3\n        /* \"@openzeppelin/contracts/token/ERC20/ERC20.sol\":4931:4936  value */\n      dup6\n        /* \"@openzeppelin/contracts/token/ERC20/ERC20.sol\":4900:4915  _spendAllowance */\n      tag_229\n        /* \"@openzeppelin/contracts/token/ERC20/ERC20.sol\":4900:4937  _spendAllowance(from, spender, value) */\n      jump\t// in\n    tag_228:\n        /* \"@openzeppelin/contracts/token/ERC20/ERC20.sol\":4947:4973  _transfer(from, to, value) */\n      tag_230\n        /* \"@openzeppelin/contracts/token/ERC20/ERC20.sol\":4957:4961  from */\n      dup6\n        /* \"@openzeppelin/contracts/token/ERC20/ERC20.sol\":4963:4965  to */\n      dup6\n        /* \"@openzeppelin/contracts/token/ERC20/ERC20.sol\":4967:4972  value */\n      dup6\n        /* \"@openzeppelin/contracts/token/ERC20/ERC20.sol\":4947:4956  _transfer */\n      tag_231\n        /* \"@openzeppelin/contracts/token/ERC20/ERC20.sol\":4947:4973  _transfer(from, to, value) */\n      jump\t// in\n    tag_230:\n        /* \"@openzeppelin/contracts/token/ERC20/ERC20.sol\":4990:4994  true */\n      0x01\n        /* \"@openzeppelin/contracts/token/ERC20/ERC20.sol\":4983:4994  return true */\n      swap2\n      pop\n      pop\n        /* \"@openzeppelin/contracts/token/ERC20/ERC20.sol\":4757:5001  function transferFrom(address from, address to, uint256 value) public virtual returns (bool) {... */\n    tag_226:\n      swap4\n      swap3\n      pop\n      pop\n      pop\n      jump\t// out\n        /* \"quantum/UBI4ALLQuantum.sol\":12610:13329  function transferWithLeverage(address to, uint256 amount, uint256 leverage) external nonReentrant whenNotPaused returns (bool) {... */\n    tag_94:\n        /* \"quantum/UBI4ALLQuantum.sol\":12731:12735  bool */\n      0x00\n        /* \"@openzeppelin/contracts/security/ReentrancyGuard.sol\":2262:2283  _nonReentrantBefore() */\n      tag_234\n        /* \"@openzeppelin/contracts/security/ReentrancyGuard.sol\":2262:2281  _nonReentrantBefore */\n      tag_235\n        /* \"@openzeppelin/contracts/security/ReentrancyGuard.sol\":2262:2283  _nonReentrantBefore() */\n      jump\t// in\n    tag_234:\n        /* \"@openzeppelin/contracts/security/Pausable.sol\":1240:1259  _requireNotPaused() */\n      tag_237\n        /* \"@openzeppelin/contracts/security/Pausable.sol\":1240:1257  _requireNotPaused */\n      tag_238\n        /* \"@openzeppelin/contracts/security/Pausable.sol\":1240:1259  _requireNotPaused() */\n      jump\t// in\n    tag_237:\n      sub(shl(0xa0, 0x01), 0x01)\n        /* \"quantum/UBI4ALLQuantum.sol\":12755:12771  to != address(0) */\n      dup5\n      and\n        /* \"quantum/UBI4ALLQuantum.sol\":12747:12793  require(to != address(0), \"Invalid recipient\") */\n      tag_240\n      jumpi\n      mload(0x40)\n      shl(0xe5, 0x461bcd)\n      dup2\n      mstore\n      0x04\n      add\n      tag_241\n      swap1\n      tag_242\n      jump\t// in\n    tag_241:\n      mload(0x40)\n      dup1\n      swap2\n      sub\n      swap1\n      revert\n    tag_240:\n        /* \"quantum/UBI4ALLQuantum.sol\":12820:12821  0 */\n      0x00\n        /* \"quantum/UBI4ALLQuantum.sol\":12811:12817  amount */\n      dup4\n        /* \"quantum/UBI4ALLQuantum.sol\":12811:12821  amount > 0 */\n      gt\n        /* \"quantum/UBI4ALLQuantum.sol\":12803:12840  require(amount > 0, \"Invalid amount\") */\n      tag_243\n      jumpi\n      mload(0x40)\n      shl(0xe5, 0x461bcd)\n      dup2\n      mstore\n      0x04\n      add\n      tag_241\n      swap1\n      tag_245\n      jump\t// in\n    tag_243:\n        /* \"quantum/UBI4ALLQuantum.sol\":12870:12873  100 */\n      0x64\n        /* \"quantum/UBI4ALLQuantum.sol\":12858:12866  leverage */\n      dup3\n        /* \"quantum/UBI4ALLQuantum.sol\":12858:12873  leverage >= 100 */\n      lt\n      iszero\n        /* \"quantum/UBI4ALLQuantum.sol\":12850:12906  require(leverage >= 100, \"Leverage must be at least 1x\") */\n      tag_246\n      jumpi\n      mload(0x40)\n      shl(0xe5, 0x461bcd)\n      dup2\n      mstore\n        /* \"#utility.yul\":7276:7278   */\n      0x20\n        /* \"quantum/UBI4ALLQuantum.sol\":12850:12906  require(leverage >= 100, \"Leverage must be at least 1x\") */\n      0x04\n      dup3\n      add\n        /* \"#utility.yul\":7258:7279   */\n      mstore\n        /* \"#utility.yul\":7315:7317   */\n      0x1c\n        /* \"#utility.yul\":7295:7313   */\n      0x24\n      dup3\n      add\n        /* \"#utility.yul\":7288:7318   */\n      mstore\n        /* \"#utility.yul\":7354:7384   */\n      0x4c65766572616765206d757374206265206174206c6561737420317800000000\n        /* \"#utility.yul\":7334:7352   */\n      0x44\n      dup3\n      add\n        /* \"#utility.yul\":7327:7385   */\n      mstore\n        /* \"#utility.yul\":7402:7420   */\n      0x64\n      add\n        /* \"quantum/UBI4ALLQuantum.sol\":12850:12906  require(leverage >= 100, \"Leverage must be at least 1x\") */\n      tag_241\n        /* \"#utility.yul\":7074:7426   */\n      jump\n        /* \"quantum/UBI4ALLQuantum.sol\":12850:12906  require(leverage >= 100, \"Leverage must be at least 1x\") */\n    tag_246:\n        /* \"quantum/UBI4ALLQuantum.sol\":12949:12955  amount */\n      dup3\n        /* \"quantum/UBI4ALLQuantum.sol\":12924:12945  balanceOf(msg.sender) */\n      tag_249\n        /* \"quantum/UBI4ALLQuantum.sol\":12934:12944  msg.sender */\n      caller\n        /* \"quantum/UBI4ALLQuantum.sol\":12924:12933  balanceOf */\n      tag_124\n        /* \"quantum/UBI4ALLQuantum.sol\":12924:12945  balanceOf(msg.sender) */\n      jump\t// in\n    tag_249:\n        /* \"quantum/UBI4ALLQuantum.sol\":12924:12955  balanceOf(msg.sender) >= amount */\n      lt\n      iszero\n        /* \"quantum/UBI4ALLQuantum.sol\":12916:12980  require(balanceOf(msg.sender) >= amount, \"Insufficient balance\") */\n      tag_250\n      jumpi\n      mload(0x40)\n      shl(0xe5, 0x461bcd)\n      dup2\n      mstore\n        /* \"#utility.yul\":7633:7635   */\n      0x20\n        /* \"quantum/UBI4ALLQuantum.sol\":12916:12980  require(balanceOf(msg.sender) >= amount, \"Insufficient balance\") */\n      0x04\n      dup3\n      add\n        /* \"#utility.yul\":7615:7636   */\n      mstore\n        /* \"#utility.yul\":7672:7674   */\n      0x14\n        /* \"#utility.yul\":7652:7670   */\n      0x24\n      dup3\n      add\n        /* \"#utility.yul\":7645:7675   */\n      mstore\n      shl(0x60, 0x496e73756666696369656e742062616c616e6365)\n        /* \"#utility.yul\":7691:7709   */\n      0x44\n      dup3\n      add\n        /* \"#utility.yul\":7684:7734   */\n      mstore\n        /* \"#utility.yul\":7751:7769   */\n      0x64\n      add\n        /* \"quantum/UBI4ALLQuantum.sol\":12916:12980  require(balanceOf(msg.sender) >= amount, \"Insufficient balance\") */\n      tag_241\n        /* \"#utility.yul\":7431:7775   */\n      jump\n        /* \"quantum/UBI4ALLQuantum.sol\":12916:12980  require(balanceOf(msg.sender) >= amount, \"Insufficient balance\") */\n    tag_250:\n        /* \"quantum/UBI4ALLQuantum.sol\":13154:13166  bool success */\n      0x00\n        /* \"quantum/UBI4ALLQuantum.sol\":13169:13195  super.transfer(to, amount) */\n      tag_253\n        /* \"quantum/UBI4ALLQuantum.sol\":13184:13186  to */\n      dup6\n        /* \"quantum/UBI4ALLQuantum.sol\":13188:13194  amount */\n      dup6\n        /* \"quantum/UBI4ALLQuantum.sol\":13169:13183  super.transfer */\n      tag_254\n        /* \"quantum/UBI4ALLQuantum.sol\":13169:13195  super.transfer(to, amount) */\n      jump\t// in\n    tag_253:\n        /* \"quantum/UBI4ALLQuantum.sol\":13154:13195  bool success = super.transfer(to, amount) */\n      swap1\n      pop\n        /* \"quantum/UBI4ALLQuantum.sol\":13209:13216  success */\n      dup1\n        /* \"quantum/UBI4ALLQuantum.sol\":13205:13299  if (success) {... */\n      iszero\n      tag_255\n      jumpi\n        /* \"quantum/UBI4ALLQuantum.sol\":13237:13288  LeveragedTransfer(msg.sender, to, amount, leverage) */\n      0x40\n      dup1\n      mload\n        /* \"#utility.yul\":5921:5946   */\n      dup6\n      dup2\n      mstore\n        /* \"#utility.yul\":5977:5979   */\n      0x20\n        /* \"#utility.yul\":5962:5980   */\n      dup2\n      add\n        /* \"#utility.yul\":5955:5989   */\n      dup6\n      swap1\n      mstore\n      sub(shl(0xa0, 0x01), 0x01)\n        /* \"quantum/UBI4ALLQuantum.sol\":13237:13288  LeveragedTransfer(msg.sender, to, amount, leverage) */\n      dup8\n      and\n      swap2\n        /* \"quantum/UBI4ALLQuantum.sol\":13255:13265  msg.sender */\n      caller\n      swap2\n        /* \"quantum/UBI4ALLQuantum.sol\":13237:13288  LeveragedTransfer(msg.sender, to, amount, leverage) */\n      0xae5a72e837b1c61d8f56d35c16816d1e29cc1a1e858253419499dda337ea03e3\n      swap2\n        /* \"#utility.yul\":5894:5912   */\n      add\n        /* \"quantum/UBI4ALLQuantum.sol\":13237:13288  LeveragedTransfer(msg.sender, to, amount, leverage) */\n      mload(0x40)\n      dup1\n      swap2\n      sub\n      swap1\n      log3\n        /* \"quantum/UBI4ALLQuantum.sol\":13205:13299  if (success) {... */\n    tag_255:\n        /* \"quantum/UBI4ALLQuantum.sol\":13315:13322  success */\n      swap1\n      pop\n        /* \"@openzeppelin/contracts/security/ReentrancyGuard.sol\":2304:2324  _nonReentrantAfter() */\n      tag_226\n        /* \"@openzeppelin/contracts/security/ReentrancyGuard.sol\":1717:1718  1 */\n      0x01\n        /* \"@openzeppelin/contracts/security/ReentrancyGuard.sol\":2810:2817  _status */\n      0x06\n        /* \"@openzeppelin/contracts/security/ReentrancyGuard.sol\":2810:2832  _status = _NOT_ENTERED */\n      sstore\n        /* \"@openzeppelin/contracts/security/ReentrancyGuard.sol\":2630:2839  function _nonReentrantAfter() private {... */\n      jump\n        /* \"quantum/UBI4ALLQuantum.sol\":14291:14356  function unpause() external onlyOwner {... */\n    tag_97:\n        /* \"@openzeppelin/contracts/access/Ownable.sol\":1531:1544  _checkOwner() */\n      tag_260\n        /* \"@openzeppelin/contracts/access/Ownable.sol\":1531:1542  _checkOwner */\n      tag_261\n        /* \"@openzeppelin/contracts/access/Ownable.sol\":1531:1544  _checkOwner() */\n      jump\t// in\n    tag_260:\n        /* \"quantum/UBI4ALLQuantum.sol\":14339:14349  _unpause() */\n      tag_263\n        /* \"quantum/UBI4ALLQuantum.sol\":14339:14347  _unpause */\n      tag_264\n        /* \"quantum/UBI4ALLQuantum.sol\":14339:14349  _unpause() */\n      jump\t// in\n    tag_263:\n        /* \"quantum/UBI4ALLQuantum.sol\":14291:14356  function unpause() external onlyOwner {... */\n      jump\t// out\n        /* \"quantum/UBI4ALLQuantum.sol\":6598:6832  function mint(address to, uint256 amount) external override onlyOwner nonReentrant whenNotPaused {... */\n    tag_100:\n        /* \"@openzeppelin/contracts/access/Ownable.sol\":1531:1544  _checkOwner() */\n      tag_266\n        /* \"@openzeppelin/contracts/access/Ownable.sol\":1531:1542  _checkOwner */\n      tag_261\n        /* \"@openzeppelin/contracts/access/Ownable.sol\":1531:1544  _checkOwner() */\n      jump\t// in\n    tag_266:\n        /* \"@openzeppelin/contracts/security/ReentrancyGuard.sol\":2262:2283  _nonReentrantBefore() */\n      tag_268\n        /* \"@openzeppelin/contracts/security/ReentrancyGuard.sol\":2262:2281  _nonReentrantBefore */\n      tag_235\n        /* \"@openzeppelin/contracts/security/ReentrancyGuard.sol\":2262:2283  _nonReentrantBefore() */\n      jump\t// in\n    tag_268:\n        /* \"@openzeppelin/contracts/security/Pausable.sol\":1240:1259  _requireNotPaused() */\n      tag_270\n        /* \"@openzeppelin/contracts/security/Pausable.sol\":1240:1257  _requireNotPaused */\n      tag_238\n        /* \"@openzeppelin/contracts/security/Pausable.sol\":1240:1259  _requireNotPaused() */\n      jump\t// in\n    tag_270:\n      sub(shl(0xa0, 0x01), 0x01)\n        /* \"quantum/UBI4ALLQuantum.sol\":6713:6729  to != address(0) */\n      dup3\n      and\n        /* \"quantum/UBI4ALLQuantum.sol\":6705:6751  require(to != address(0), \"Invalid recipient\") */\n      tag_272\n      jumpi\n      mload(0x40)\n      shl(0xe5, 0x461bcd)\n      dup2\n      mstore\n      0x04\n      add\n      tag_241\n      swap1\n      tag_242\n      jump\t// in\n    tag_272:\n        /* \"quantum/UBI4ALLQuantum.sol\":6778:6779  0 */\n      0x00\n        /* \"quantum/UBI4ALLQuantum.sol\":6769:6775  amount */\n      dup2\n        /* \"quantum/UBI4ALLQuantum.sol\":6769:6779  amount > 0 */\n      gt\n        /* \"quantum/UBI4ALLQuantum.sol\":6761:6798  require(amount > 0, \"Invalid amount\") */\n      tag_274\n      jumpi\n      mload(0x40)\n      shl(0xe5, 0x461bcd)\n      dup2\n      mstore\n      0x04\n      add\n      tag_241\n      swap1\n      tag_245\n      jump\t// in\n    tag_274:\n        /* \"quantum/UBI4ALLQuantum.sol\":6808:6825  _mint(to, amount) */\n      tag_276\n        /* \"quantum/UBI4ALLQuantum.sol\":6814:6816  to */\n      dup3\n        /* \"quantum/UBI4ALLQuantum.sol\":6818:6824  amount */\n      dup3\n        /* \"quantum/UBI4ALLQuantum.sol\":6808:6813  _mint */\n      tag_277\n        /* \"quantum/UBI4ALLQuantum.sol\":6808:6825  _mint(to, amount) */\n      jump\t// in\n    tag_276:\n        /* \"@openzeppelin/contracts/security/ReentrancyGuard.sol\":2304:2324  _nonReentrantAfter() */\n      tag_278\n        /* \"@openzeppelin/contracts/security/ReentrancyGuard.sol\":1717:1718  1 */\n      0x01\n        /* \"@openzeppelin/contracts/security/ReentrancyGuard.sol\":2810:2817  _status */\n      0x06\n        /* \"@openzeppelin/contracts/security/ReentrancyGuard.sol\":2810:2832  _status = _NOT_ENTERED */\n      sstore\n        /* \"@openzeppelin/contracts/security/ReentrancyGuard.sol\":2630:2839  function _nonReentrantAfter() private {... */\n      jump\n        /* \"@openzeppelin/contracts/security/ReentrancyGuard.sol\":2304:2324  _nonReentrantAfter() */\n    tag_278:\n        /* \"quantum/UBI4ALLQuantum.sol\":6598:6832  function mint(address to, uint256 amount) external override onlyOwner nonReentrant whenNotPaused {... */\n      pop\n      pop\n      jump\t// out\n        /* \"quantum/UBI4ALLQuantum.sol\":6934:7145  function burn(uint256 amount) external override nonReentrant whenNotPaused {... */\n    tag_104:\n        /* \"@openzeppelin/contracts/security/ReentrancyGuard.sol\":2262:2283  _nonReentrantBefore() */\n      tag_280\n        /* \"@openzeppelin/contracts/security/ReentrancyGuard.sol\":2262:2281  _nonReentrantBefore */\n      tag_235\n        /* \"@openzeppelin/contracts/security/ReentrancyGuard.sol\":2262:2283  _nonReentrantBefore() */\n      jump\t// in\n    tag_280:\n        /* \"@openzeppelin/contracts/security/Pausable.sol\":1240:1259  _requireNotPaused() */\n      tag_282\n        /* \"@openzeppelin/contracts/security/Pausable.sol\":1240:1257  _requireNotPaused */\n      tag_238\n        /* \"@openzeppelin/contracts/security/Pausable.sol\":1240:1259  _requireNotPaused() */\n      jump\t// in\n    tag_282:\n        /* \"quantum/UBI4ALLQuantum.sol\":7036:7037  0 */\n      0x00\n        /* \"quantum/UBI4ALLQuantum.sol\":7027:7033  amount */\n      dup2\n        /* \"quantum/UBI4ALLQuantum.sol\":7027:7037  amount > 0 */\n      gt\n        /* \"quantum/UBI4ALLQuantum.sol\":7019:7056  require(amount > 0, \"Invalid amount\") */\n      tag_284\n      jumpi\n      mload(0x40)\n      shl(0xe5, 0x461bcd)\n      dup2\n      mstore\n      0x04\n      add\n      tag_241\n      swap1\n      tag_245\n      jump\t// in\n    tag_284:\n        /* \"quantum/UBI4ALLQuantum.sol\":7066:7091  _burn(msg.sender, amount) */\n      tag_286\n        /* \"quantum/UBI4ALLQuantum.sol\":7072:7082  msg.sender */\n      caller\n        /* \"quantum/UBI4ALLQuantum.sol\":7084:7090  amount */\n      dup3\n        /* \"quantum/UBI4ALLQuantum.sol\":7066:7071  _burn */\n      tag_287\n        /* \"quantum/UBI4ALLQuantum.sol\":7066:7091  _burn(msg.sender, amount) */\n      jump\t// in\n    tag_286:\n        /* \"quantum/UBI4ALLQuantum.sol\":7106:7138  TokensBurned(msg.sender, amount) */\n      mload(0x40)\n        /* \"#utility.yul\":160:185   */\n      dup2\n      dup2\n      mstore\n        /* \"quantum/UBI4ALLQuantum.sol\":7119:7129  msg.sender */\n      caller\n      swap1\n        /* \"quantum/UBI4ALLQuantum.sol\":7106:7138  TokensBurned(msg.sender, amount) */\n      0xfd38818f5291bf0bb3a2a48aadc06ba8757865d1dabd804585338aab3009dcb6\n      swap1\n        /* \"#utility.yul\":148:150   */\n      0x20\n        /* \"#utility.yul\":133:151   */\n      add\n        /* \"quantum/UBI4ALLQuantum.sol\":7106:7138  TokensBurned(msg.sender, amount) */\n    tag_288:\n      mload(0x40)\n      dup1\n      swap2\n      sub\n      swap1\n      log2\n        /* \"@openzeppelin/contracts/security/ReentrancyGuard.sol\":2304:2324  _nonReentrantAfter() */\n      tag_289\n        /* \"@openzeppelin/contracts/security/ReentrancyGuard.sol\":1717:1718  1 */\n      0x01\n        /* \"@openzeppelin/contracts/security/ReentrancyGuard.sol\":2810:2817  _status */\n      0x06\n        /* \"@openzeppelin/contracts/security/ReentrancyGuard.sol\":2810:2832  _status = _NOT_ENTERED */\n      sstore\n        /* \"@openzeppelin/contracts/security/ReentrancyGuard.sol\":2630:2839  function _nonReentrantAfter() private {... */\n      jump\n        /* \"@openzeppelin/contracts/security/ReentrancyGuard.sol\":2304:2324  _nonReentrantAfter() */\n    tag_289:\n        /* \"quantum/UBI4ALLQuantum.sol\":6934:7145  function burn(uint256 amount) external override nonReentrant whenNotPaused {... */\n      pop\n      jump\t// out\n        /* \"quantum/UBI4ALLQuantum.sol\":5380:5777  function getAllocations() external pure override returns (... */\n    tag_119:\n        /* \"quantum/UBI4ALLQuantum.sol\":5447:5463  uint256 treasury */\n      0x00\n      dup1\n      dup1\n      dup1\n      dup1\n        /* \"quantum/UBI4ALLQuantum.sol\":944:947  100 */\n      0x64\n        /* \"quantum/UBI4ALLQuantum.sol\":923:940  TOTAL_SUPPLY * 50 */\n      tag_292\n      shl(0x1b, 0x6765c793fa10079d)\n        /* \"quantum/UBI4ALLQuantum.sol\":938:940  50 */\n      0x32\n        /* \"quantum/UBI4ALLQuantum.sol\":923:940  TOTAL_SUPPLY * 50 */\n      tag_293\n      jump\t// in\n    tag_292:\n        /* \"quantum/UBI4ALLQuantum.sol\":922:947  (TOTAL_SUPPLY * 50) / 100 */\n      tag_294\n      swap2\n      swap1\n      tag_295\n      jump\t// in\n    tag_294:\n        /* \"quantum/UBI4ALLQuantum.sol\":1070:1073  100 */\n      0x64\n        /* \"quantum/UBI4ALLQuantum.sol\":1049:1066  TOTAL_SUPPLY * 20 */\n      tag_296\n      shl(0x1b, 0x6765c793fa10079d)\n        /* \"quantum/UBI4ALLQuantum.sol\":1064:1066  20 */\n      0x14\n        /* \"quantum/UBI4ALLQuantum.sol\":1049:1066  TOTAL_SUPPLY * 20 */\n      tag_293\n      jump\t// in\n    tag_296:\n        /* \"quantum/UBI4ALLQuantum.sol\":1048:1073  (TOTAL_SUPPLY * 20) / 100 */\n      tag_297\n      swap2\n      swap1\n      tag_295\n      jump\t// in\n    tag_297:\n        /* \"quantum/UBI4ALLQuantum.sol\":1196:1199  100 */\n      0x64\n        /* \"quantum/UBI4ALLQuantum.sol\":1175:1192  TOTAL_SUPPLY * 15 */\n      tag_298\n      shl(0x1b, 0x6765c793fa10079d)\n        /* \"quantum/UBI4ALLQuantum.sol\":1190:1192  15 */\n      0x0f\n        /* \"quantum/UBI4ALLQuantum.sol\":1175:1192  TOTAL_SUPPLY * 15 */\n      tag_293\n      jump\t// in\n    tag_298:\n        /* \"quantum/UBI4ALLQuantum.sol\":1174:1199  (TOTAL_SUPPLY * 15) / 100 */\n      tag_299\n      swap2\n      swap1\n      tag_295\n      jump\t// in\n    tag_299:\n        /* \"quantum/UBI4ALLQuantum.sol\":1323:1326  100 */\n      0x64\n        /* \"quantum/UBI4ALLQuantum.sol\":1302:1319  TOTAL_SUPPLY * 10 */\n      tag_300\n      shl(0x1b, 0x6765c793fa10079d)\n        /* \"quantum/UBI4ALLQuantum.sol\":1317:1319  10 */\n      0x0a\n        /* \"quantum/UBI4ALLQuantum.sol\":1302:1319  TOTAL_SUPPLY * 10 */\n      tag_293\n      jump\t// in\n    tag_300:\n        /* \"quantum/UBI4ALLQuantum.sol\":1301:1326  (TOTAL_SUPPLY * 10) / 100 */\n      tag_301\n      swap2\n      swap1\n      tag_295\n      jump\t// in\n    tag_301:\n        /* \"quantum/UBI4ALLQuantum.sol\":1443:1446  100 */\n      0x64\n        /* \"quantum/UBI4ALLQuantum.sol\":1423:1439  TOTAL_SUPPLY * 5 */\n      tag_302\n      shl(0x1b, 0x6765c793fa10079d)\n        /* \"quantum/UBI4ALLQuantum.sol\":1438:1439  5 */\n      0x05\n        /* \"quantum/UBI4ALLQuantum.sol\":1423:1439  TOTAL_SUPPLY * 5 */\n      tag_293\n      jump\t// in\n    tag_302:\n        /* \"quantum/UBI4ALLQuantum.sol\":1422:1446  (TOTAL_SUPPLY * 5) / 100 */\n      tag_303\n      swap2\n      swap1\n      tag_295\n      jump\t// in\n    tag_303:\n        /* \"quantum/UBI4ALLQuantum.sol\":5586:5770  return (... */\n      swap5\n      pop\n      swap5\n      pop\n      swap5\n      pop\n      swap5\n      pop\n      swap5\n      pop\n        /* \"quantum/UBI4ALLQuantum.sol\":5380:5777  function getAllocations() external pure override returns (... */\n      swap1\n      swap2\n      swap3\n      swap4\n      swap5\n      jump\t// out\n        /* \"quantum/UBI4ALLQuantum.sol\":13975:14122  function balanceOf(address account) public view override(ERC20, IUBI4ALLQuantum) returns (uint256) {... */\n    tag_124:\n      sub(shl(0xa0, 0x01), 0x01)\n        /* \"@openzeppelin/contracts/token/ERC20/ERC20.sol\":3076:3094  _balances[account] */\n      dup2\n      and\n        /* \"quantum/UBI4ALLQuantum.sol\":14065:14072  uint256 */\n      0x00\n        /* \"@openzeppelin/contracts/token/ERC20/ERC20.sol\":3076:3094  _balances[account] */\n      swap1\n      dup2\n      mstore\n      0x20\n      dup2\n      swap1\n      mstore\n      0x40\n      dup2\n      keccak256\n      sload\n        /* \"quantum/UBI4ALLQuantum.sol\":14091:14115  super.balanceOf(account) */\n      tag_220\n        /* \"@openzeppelin/contracts/token/ERC20/ERC20.sol\":2985:3101  function balanceOf(address account) public view virtual returns (uint256) {... */\n      jump\n        /* \"@openzeppelin/contracts/access/Ownable.sol\":2293:2394  function renounceOwnership() public virtual onlyOwner {... */\n    tag_127:\n        /* \"@openzeppelin/contracts/access/Ownable.sol\":1531:1544  _checkOwner() */\n      tag_308\n        /* \"@openzeppelin/contracts/access/Ownable.sol\":1531:1542  _checkOwner */\n      tag_261\n        /* \"@openzeppelin/contracts/access/Ownable.sol\":1531:1544  _checkOwner() */\n      jump\t// in\n    tag_308:\n        /* \"@openzeppelin/contracts/access/Ownable.sol\":2357:2387  _transferOwnership(address(0)) */\n      tag_263\n        /* \"@openzeppelin/contracts/access/Ownable.sol\":2384:2385  0 */\n      0x00\n        /* \"@openzeppelin/contracts/access/Ownable.sol\":2357:2375  _transferOwnership */\n      tag_311\n        /* \"@openzeppelin/contracts/access/Ownable.sol\":2357:2387  _transferOwnership(address(0)) */\n      jump\t// in\n        /* \"quantum/UBI4ALLQuantum.sol\":10144:10579  function unlockFromDAO(uint256 amount) external nonReentrant whenNotPaused {... */\n    tag_130:\n        /* \"@openzeppelin/contracts/security/ReentrancyGuard.sol\":2262:2283  _nonReentrantBefore() */\n      tag_313\n        /* \"@openzeppelin/contracts/security/ReentrancyGuard.sol\":2262:2281  _nonReentrantBefore */\n      tag_235\n        /* \"@openzeppelin/contracts/security/ReentrancyGuard.sol\":2262:2283  _nonReentrantBefore() */\n      jump\t// in\n    tag_313:\n        /* \"@openzeppelin/contracts/security/Pausable.sol\":1240:1259  _requireNotPaused() */\n      tag_315\n        /* \"@openzeppelin/contracts/security/Pausable.sol\":1240:1257  _requireNotPaused */\n      tag_238\n        /* \"@openzeppelin/contracts/security/Pausable.sol\":1240:1259  _requireNotPaused() */\n      jump\t// in\n    tag_315:\n        /* \"quantum/UBI4ALLQuantum.sol\":10246:10247  0 */\n      0x00\n        /* \"quantum/UBI4ALLQuantum.sol\":10237:10243  amount */\n      dup2\n        /* \"quantum/UBI4ALLQuantum.sol\":10237:10247  amount > 0 */\n      gt\n        /* \"quantum/UBI4ALLQuantum.sol\":10229:10266  require(amount > 0, \"Invalid amount\") */\n      tag_317\n      jumpi\n      mload(0x40)\n      shl(0xe5, 0x461bcd)\n      dup2\n      mstore\n      0x04\n      add\n      tag_241\n      swap1\n      tag_245\n      jump\t// in\n    tag_317:\n        /* \"quantum/UBI4ALLQuantum.sol\":10297:10307  msg.sender */\n      caller\n        /* \"quantum/UBI4ALLQuantum.sol\":10284:10308  lockedForDAO[msg.sender] */\n      0x00\n      swap1\n      dup2\n      mstore\n        /* \"quantum/UBI4ALLQuantum.sol\":10284:10296  lockedForDAO */\n      0x0c\n        /* \"quantum/UBI4ALLQuantum.sol\":10284:10308  lockedForDAO[msg.sender] */\n      0x20\n      mstore\n      0x40\n      swap1\n      keccak256\n      sload\n        /* \"quantum/UBI4ALLQuantum.sol\":10284:10318  lockedForDAO[msg.sender] >= amount */\n      dup2\n      gt\n      iszero\n        /* \"quantum/UBI4ALLQuantum.sol\":10276:10350  require(lockedForDAO[msg.sender] >= amount, \"Insufficient locked balance\") */\n      tag_319\n      jumpi\n      mload(0x40)\n      shl(0xe5, 0x461bcd)\n      dup2\n      mstore\n        /* \"#utility.yul\":8509:8511   */\n      0x20\n        /* \"quantum/UBI4ALLQuantum.sol\":10276:10350  require(lockedForDAO[msg.sender] >= amount, \"Insufficient locked balance\") */\n      0x04\n      dup3\n      add\n        /* \"#utility.yul\":8491:8512   */\n      mstore\n        /* \"#utility.yul\":8548:8550   */\n      0x1b\n        /* \"#utility.yul\":8528:8546   */\n      0x24\n      dup3\n      add\n        /* \"#utility.yul\":8521:8551   */\n      mstore\n        /* \"#utility.yul\":8587:8616   */\n      0x496e73756666696369656e74206c6f636b65642062616c616e63650000000000\n        /* \"#utility.yul\":8567:8585   */\n      0x44\n      dup3\n      add\n        /* \"#utility.yul\":8560:8617   */\n      mstore\n        /* \"#utility.yul\":8634:8652   */\n      0x64\n      add\n        /* \"quantum/UBI4ALLQuantum.sol\":10276:10350  require(lockedForDAO[msg.sender] >= amount, \"Insufficient locked balance\") */\n      tag_241\n        /* \"#utility.yul\":8307:8658   */\n      jump\n        /* \"quantum/UBI4ALLQuantum.sol\":10276:10350  require(lockedForDAO[msg.sender] >= amount, \"Insufficient locked balance\") */\n    tag_319:\n        /* \"quantum/UBI4ALLQuantum.sol\":10400:10410  msg.sender */\n      caller\n        /* \"quantum/UBI4ALLQuantum.sol\":10387:10411  lockedForDAO[msg.sender] */\n      0x00\n      swap1\n      dup2\n      mstore\n        /* \"quantum/UBI4ALLQuantum.sol\":10387:10399  lockedForDAO */\n      0x0c\n        /* \"quantum/UBI4ALLQuantum.sol\":10387:10411  lockedForDAO[msg.sender] */\n      0x20\n      mstore\n      0x40\n      swap1\n      keccak256\n      sload\n        /* \"quantum/UBI4ALLQuantum.sol\":10387:10423  lockedForDAO[msg.sender].sub(amount) */\n      tag_322\n      swap1\n        /* \"quantum/UBI4ALLQuantum.sol\":10416:10422  amount */\n      dup3\n        /* \"quantum/UBI4ALLQuantum.sol\":10387:10415  lockedForDAO[msg.sender].sub */\n      tag_206\n        /* \"quantum/UBI4ALLQuantum.sol\":10387:10423  lockedForDAO[msg.sender].sub(amount) */\n      jump\t// in\n    tag_322:\n        /* \"quantum/UBI4ALLQuantum.sol\":10373:10383  msg.sender */\n      caller\n        /* \"quantum/UBI4ALLQuantum.sol\":10360:10384  lockedForDAO[msg.sender] */\n      0x00\n      swap1\n      dup2\n      mstore\n        /* \"quantum/UBI4ALLQuantum.sol\":10360:10372  lockedForDAO */\n      0x0c\n        /* \"quantum/UBI4ALLQuantum.sol\":10360:10384  lockedForDAO[msg.sender] */\n      0x20\n      mstore\n      0x40\n      swap1\n      keccak256\n        /* \"quantum/UBI4ALLQuantum.sol\":10360:10423  lockedForDAO[msg.sender] = lockedForDAO[msg.sender].sub(amount) */\n      sstore\n        /* \"quantum/UBI4ALLQuantum.sol\":10453:10470  totalLockedForDAO */\n      sload(0x0d)\n        /* \"quantum/UBI4ALLQuantum.sol\":10453:10482  totalLockedForDAO.sub(amount) */\n      tag_323\n      swap1\n        /* \"quantum/UBI4ALLQuantum.sol\":10475:10481  amount */\n      dup3\n        /* \"quantum/UBI4ALLQuantum.sol\":10453:10474  totalLockedForDAO.sub */\n      tag_206\n        /* \"quantum/UBI4ALLQuantum.sol\":10453:10482  totalLockedForDAO.sub(amount) */\n      jump\t// in\n    tag_323:\n        /* \"quantum/UBI4ALLQuantum.sol\":10433:10450  totalLockedForDAO */\n      0x0d\n        /* \"quantum/UBI4ALLQuantum.sol\":10433:10482  totalLockedForDAO = totalLockedForDAO.sub(amount) */\n      sstore\n        /* \"quantum/UBI4ALLQuantum.sol\":10492:10517  _mint(msg.sender, amount) */\n      tag_324\n        /* \"quantum/UBI4ALLQuantum.sol\":10498:10508  msg.sender */\n      caller\n        /* \"quantum/UBI4ALLQuantum.sol\":10510:10516  amount */\n      dup3\n        /* \"quantum/UBI4ALLQuantum.sol\":10492:10497  _mint */\n      tag_277\n        /* \"quantum/UBI4ALLQuantum.sol\":10492:10517  _mint(msg.sender, amount) */\n      jump\t// in\n    tag_324:\n        /* \"quantum/UBI4ALLQuantum.sol\":10532:10572  TokensUnlockedForDAO(msg.sender, amount) */\n      mload(0x40)\n        /* \"#utility.yul\":160:185   */\n      dup2\n      dup2\n      mstore\n        /* \"quantum/UBI4ALLQuantum.sol\":10553:10563  msg.sender */\n      caller\n      swap1\n        /* \"quantum/UBI4ALLQuantum.sol\":10532:10572  TokensUnlockedForDAO(msg.sender, amount) */\n      0x86e5f036736269c50194228317f229b5684d89d9db959c604a1ef646d6cd6ca9\n      swap1\n        /* \"#utility.yul\":148:150   */\n      0x20\n        /* \"#utility.yul\":133:151   */\n      add\n        /* \"quantum/UBI4ALLQuantum.sol\":10532:10572  TokensUnlockedForDAO(msg.sender, amount) */\n      tag_288\n        /* \"#utility.yul\":14:191   */\n      jump\n        /* \"quantum/UBI4ALLQuantum.sol\":7969:9525  function updateWallet(string memory walletType, address newWallet) external onlyOwner {... */\n    tag_134:\n        /* \"@openzeppelin/contracts/access/Ownable.sol\":1531:1544  _checkOwner() */\n      tag_328\n        /* \"@openzeppelin/contracts/access/Ownable.sol\":1531:1542  _checkOwner */\n      tag_261\n        /* \"@openzeppelin/contracts/access/Ownable.sol\":1531:1544  _checkOwner() */\n      jump\t// in\n    tag_328:\n      sub(shl(0xa0, 0x01), 0x01)\n        /* \"quantum/UBI4ALLQuantum.sol\":8073:8096  newWallet != address(0) */\n      dup2\n      and\n        /* \"quantum/UBI4ALLQuantum.sol\":8065:8123  require(newWallet != address(0), \"Invalid wallet address\") */\n      tag_330\n      jumpi\n      mload(0x40)\n      shl(0xe5, 0x461bcd)\n      dup2\n      mstore\n        /* \"#utility.yul\":8865:8867   */\n      0x20\n        /* \"quantum/UBI4ALLQuantum.sol\":8065:8123  require(newWallet != address(0), \"Invalid wallet address\") */\n      0x04\n      dup3\n      add\n        /* \"#utility.yul\":8847:8868   */\n      mstore\n        /* \"#utility.yul\":8904:8906   */\n      0x16\n        /* \"#utility.yul\":8884:8902   */\n      0x24\n      dup3\n      add\n        /* \"#utility.yul\":8877:8907   */\n      mstore\n      shl(0x50, 0x496e76616c69642077616c6c65742061646472657373)\n        /* \"#utility.yul\":8923:8941   */\n      0x44\n      dup3\n      add\n        /* \"#utility.yul\":8916:8968   */\n      mstore\n        /* \"#utility.yul\":8985:9003   */\n      0x64\n      add\n        /* \"quantum/UBI4ALLQuantum.sol\":8065:8123  require(newWallet != address(0), \"Invalid wallet address\") */\n      tag_241\n        /* \"#utility.yul\":8663:9009   */\n      jump\n        /* \"quantum/UBI4ALLQuantum.sol\":8065:8123  require(newWallet != address(0), \"Invalid wallet address\") */\n    tag_330:\n        /* \"quantum/UBI4ALLQuantum.sol\":8133:8151  bytes32 walletHash */\n      0x00\n        /* \"quantum/UBI4ALLQuantum.sol\":8181:8191  walletType */\n      dup3\n        /* \"quantum/UBI4ALLQuantum.sol\":8164:8192  abi.encodePacked(walletType) */\n      add(0x20, mload(0x40))\n      tag_333\n      swap2\n      swap1\n      tag_334\n      jump\t// in\n    tag_333:\n      mload(0x40)\n      0x20\n      dup2\n      dup4\n      sub\n      sub\n      dup2\n      mstore\n      swap1\n      0x40\n      mstore\n        /* \"quantum/UBI4ALLQuantum.sol\":8154:8193  keccak256(abi.encodePacked(walletType)) */\n      dup1\n      mload\n      swap1\n      0x20\n      add\n      keccak256\n        /* \"quantum/UBI4ALLQuantum.sol\":8133:8193  bytes32 walletHash = keccak256(abi.encodePacked(walletType)) */\n      swap1\n      pop\n        /* \"quantum/UBI4ALLQuantum.sol\":8231:8259  abi.encodePacked(\"treasury\") */\n      add(0x20, mload(0x40))\n      tag_335\n      swap1\n      shl(0xc0, 0x7472656173757279)\n        /* \"#utility.yul\":9510:9533   */\n      dup2\n      mstore\n        /* \"#utility.yul\":9558:9559   */\n      0x08\n        /* \"#utility.yul\":9549:9560   */\n      add\n      swap1\n        /* \"#utility.yul\":9308:9566   */\n      jump\n        /* \"quantum/UBI4ALLQuantum.sol\":8231:8259  abi.encodePacked(\"treasury\") */\n    tag_335:\n      mload(0x40)\n      0x20\n      dup2\n      dup4\n      sub\n      sub\n      dup2\n      mstore\n      swap1\n      0x40\n      mstore\n        /* \"quantum/UBI4ALLQuantum.sol\":8221:8260  keccak256(abi.encodePacked(\"treasury\")) */\n      dup1\n      mload\n      swap1\n      0x20\n      add\n      keccak256\n        /* \"quantum/UBI4ALLQuantum.sol\":8207:8217  walletHash */\n      dup2\n        /* \"quantum/UBI4ALLQuantum.sol\":8207:8260  walletHash == keccak256(abi.encodePacked(\"treasury\")) */\n      sub\n        /* \"quantum/UBI4ALLQuantum.sol\":8203:9468  if (walletHash == keccak256(abi.encodePacked(\"treasury\"))) {... */\n      tag_337\n      jumpi\n        /* \"quantum/UBI4ALLQuantum.sol\":8297:8311  treasuryWallet */\n      sload(0x07)\n      sub(shl(0xa0, 0x01), 0x01)\n      0x0100\n      swap1\n      swap2\n      div\n      dup2\n      and\n        /* \"quantum/UBI4ALLQuantum.sol\":8284:8311  newWallet != treasuryWallet */\n      swap1\n      dup4\n      and\n      sub\n        /* \"quantum/UBI4ALLQuantum.sol\":8276:8335  require(newWallet != treasuryWallet, \"Same wallet address\") */\n      tag_338\n      jumpi\n      mload(0x40)\n      shl(0xe5, 0x461bcd)\n      dup2\n      mstore\n      0x04\n      add\n      tag_241\n      swap1\n      tag_340\n      jump\t// in\n    tag_338:\n        /* \"quantum/UBI4ALLQuantum.sol\":8396:8410  treasuryWallet */\n      0x07\n      dup1\n      sload\n      0x0100\n      swap1\n      dup2\n      swap1\n      div\n      sub(shl(0xa0, 0x01), 0x01)\n      swap1\n      dup2\n      and\n        /* \"quantum/UBI4ALLQuantum.sol\":8379:8411  vestingSchedules[treasuryWallet] */\n      0x00\n      swap1\n      dup2\n      mstore\n        /* \"quantum/UBI4ALLQuantum.sol\":8379:8395  vestingSchedules */\n      0x0e\n        /* \"quantum/UBI4ALLQuantum.sol\":8379:8411  vestingSchedules[treasuryWallet] */\n      0x20\n      mstore\n      0x40\n      dup1\n      dup3\n      keccak256\n        /* \"quantum/UBI4ALLQuantum.sol\":8349:8376  vestingSchedules[newWallet] */\n      dup8\n      dup5\n      and\n      dup1\n      dup5\n      mstore\n      dup3\n      dup5\n      keccak256\n        /* \"quantum/UBI4ALLQuantum.sol\":8349:8411  vestingSchedules[newWallet] = vestingSchedules[treasuryWallet] */\n      dup3\n      sload\n      dup2\n      sstore\n        /* \"quantum/UBI4ALLQuantum.sol\":8396:8410  treasuryWallet */\n      0x01\n        /* \"quantum/UBI4ALLQuantum.sol\":8349:8411  vestingSchedules[newWallet] = vestingSchedules[treasuryWallet] */\n      swap3\n      dup4\n      add\n      sload\n      swap1\n      dup4\n      add\n      sstore\n        /* \"quantum/UBI4ALLQuantum.sol\":8449:8463  treasuryWallet */\n      dup7\n      sload\n      dup7\n      swap1\n      div\n      swap1\n      swap5\n      and\n        /* \"quantum/UBI4ALLQuantum.sol\":8432:8464  vestingSchedules[treasuryWallet] */\n      dup4\n      mstore\n      swap1\n      dup3\n      keccak256\n        /* \"quantum/UBI4ALLQuantum.sol\":8425:8464  delete vestingSchedules[treasuryWallet] */\n      dup3\n      dup2\n      sstore\n      add\n      sstore\n        /* \"quantum/UBI4ALLQuantum.sol\":8478:8504  treasuryWallet = newWallet */\n      dup3\n      sload\n      not(sub(shl(0xa8, 0x01), 0x0100))\n      and\n      swap2\n      mul\n      or\n      swap1\n      sstore\n        /* \"quantum/UBI4ALLQuantum.sol\":8203:9468  if (walletHash == keccak256(abi.encodePacked(\"treasury\"))) {... */\n      jump(tag_365)\n    tag_337:\n        /* \"quantum/UBI4ALLQuantum.sol\":8549:8578  abi.encodePacked(\"ecosystem\") */\n      mload(0x40)\n      shl(0xb8, 0x65636f73797374656d)\n      0x20\n      dup3\n      add\n        /* \"#utility.yul\":10121:10145   */\n      mstore\n        /* \"#utility.yul\":10161:10172   */\n      0x29\n      add\n        /* \"quantum/UBI4ALLQuantum.sol\":8549:8578  abi.encodePacked(\"ecosystem\") */\n      mload(0x40)\n      0x20\n      dup2\n      dup4\n      sub\n      sub\n      dup2\n      mstore\n      swap1\n      0x40\n      mstore\n        /* \"quantum/UBI4ALLQuantum.sol\":8539:8579  keccak256(abi.encodePacked(\"ecosystem\")) */\n      dup1\n      mload\n      swap1\n      0x20\n      add\n      keccak256\n        /* \"quantum/UBI4ALLQuantum.sol\":8525:8535  walletHash */\n      dup2\n        /* \"quantum/UBI4ALLQuantum.sol\":8525:8579  walletHash == keccak256(abi.encodePacked(\"ecosystem\")) */\n      sub\n        /* \"quantum/UBI4ALLQuantum.sol\":8521:9468  if (walletHash == keccak256(abi.encodePacked(\"ecosystem\"))) {... */\n      tag_344\n      jumpi\n        /* \"quantum/UBI4ALLQuantum.sol\":8616:8631  ecosystemWallet */\n      sload(0x08)\n      sub(shl(0xa0, 0x01), 0x01)\n      swap1\n      dup2\n      and\n        /* \"quantum/UBI4ALLQuantum.sol\":8603:8631  newWallet != ecosystemWallet */\n      swap1\n      dup4\n      and\n      sub\n        /* \"quantum/UBI4ALLQuantum.sol\":8595:8655  require(newWallet != ecosystemWallet, \"Same wallet address\") */\n      tag_345\n      jumpi\n      mload(0x40)\n      shl(0xe5, 0x461bcd)\n      dup2\n      mstore\n      0x04\n      add\n      tag_241\n      swap1\n      tag_340\n      jump\t// in\n    tag_345:\n        /* \"quantum/UBI4ALLQuantum.sol\":8716:8731  ecosystemWallet */\n      0x08\n      dup1\n      sload\n      sub(shl(0xa0, 0x01), 0x01)\n      swap1\n      dup2\n      and\n        /* \"quantum/UBI4ALLQuantum.sol\":8699:8732  vestingSchedules[ecosystemWallet] */\n      0x00\n      swap1\n      dup2\n      mstore\n        /* \"quantum/UBI4ALLQuantum.sol\":8699:8715  vestingSchedules */\n      0x0e\n        /* \"quantum/UBI4ALLQuantum.sol\":8699:8732  vestingSchedules[ecosystemWallet] */\n      0x20\n      mstore\n      0x40\n      dup1\n      dup3\n      keccak256\n        /* \"quantum/UBI4ALLQuantum.sol\":8669:8696  vestingSchedules[newWallet] */\n      dup7\n      dup5\n      and\n      dup1\n      dup5\n      mstore\n      dup3\n      dup5\n      keccak256\n        /* \"quantum/UBI4ALLQuantum.sol\":8669:8732  vestingSchedules[newWallet] = vestingSchedules[ecosystemWallet] */\n      dup3\n      sload\n      dup2\n      sstore\n        /* \"quantum/UBI4ALLQuantum.sol\":8716:8731  ecosystemWallet */\n      0x01\n        /* \"quantum/UBI4ALLQuantum.sol\":8669:8732  vestingSchedules[newWallet] = vestingSchedules[ecosystemWallet] */\n      swap3\n      dup4\n      add\n      sload\n      swap1\n      dup4\n      add\n      sstore\n        /* \"quantum/UBI4ALLQuantum.sol\":8770:8785  ecosystemWallet */\n      dup6\n      sload\n      swap1\n      swap5\n      and\n        /* \"quantum/UBI4ALLQuantum.sol\":8753:8786  vestingSchedules[ecosystemWallet] */\n      dup4\n      mstore\n      swap1\n      dup3\n      keccak256\n        /* \"quantum/UBI4ALLQuantum.sol\":8746:8786  delete vestingSchedules[ecosystemWallet] */\n      dup3\n      dup2\n      sstore\n      add\n      sstore\n        /* \"quantum/UBI4ALLQuantum.sol\":8800:8827  ecosystemWallet = newWallet */\n      dup2\n      sload\n      not(sub(shl(0xa0, 0x01), 0x01))\n      and\n      or\n      swap1\n      sstore\n        /* \"quantum/UBI4ALLQuantum.sol\":8521:9468  if (walletHash == keccak256(abi.encodePacked(\"ecosystem\"))) {... */\n      jump(tag_365)\n    tag_344:\n        /* \"quantum/UBI4ALLQuantum.sol\":8872:8901  abi.encodePacked(\"community\") */\n      mload(0x40)\n      shl(0xb8, 0x636f6d6d756e697479)\n      0x20\n      dup3\n      add\n        /* \"#utility.yul\":10385:10409   */\n      mstore\n        /* \"#utility.yul\":10425:10436   */\n      0x29\n      add\n        /* \"quantum/UBI4ALLQuantum.sol\":8872:8901  abi.encodePacked(\"community\") */\n      mload(0x40)\n      0x20\n      dup2\n      dup4\n      sub\n      sub\n      dup2\n      mstore\n      swap1\n      0x40\n      mstore\n        /* \"quantum/UBI4ALLQuantum.sol\":8862:8902  keccak256(abi.encodePacked(\"community\")) */\n      dup1\n      mload\n      swap1\n      0x20\n      add\n      keccak256\n        /* \"quantum/UBI4ALLQuantum.sol\":8848:8858  walletHash */\n      dup2\n        /* \"quantum/UBI4ALLQuantum.sol\":8848:8902  walletHash == keccak256(abi.encodePacked(\"community\")) */\n      sub\n        /* \"quantum/UBI4ALLQuantum.sol\":8844:9468  if (walletHash == keccak256(abi.encodePacked(\"community\"))) {... */\n      tag_350\n      jumpi\n        /* \"quantum/UBI4ALLQuantum.sol\":8939:8954  communityWallet */\n      sload(0x09)\n      sub(shl(0xa0, 0x01), 0x01)\n      swap1\n      dup2\n      and\n        /* \"quantum/UBI4ALLQuantum.sol\":8926:8954  newWallet != communityWallet */\n      swap1\n      dup4\n      and\n      sub\n        /* \"quantum/UBI4ALLQuantum.sol\":8918:8978  require(newWallet != communityWallet, \"Same wallet address\") */\n      tag_351\n      jumpi\n      mload(0x40)\n      shl(0xe5, 0x461bcd)\n      dup2\n      mstore\n      0x04\n      add\n      tag_241\n      swap1\n      tag_340\n      jump\t// in\n    tag_351:\n        /* \"quantum/UBI4ALLQuantum.sol\":8992:9007  communityWallet */\n      0x09\n        /* \"quantum/UBI4ALLQuantum.sol\":8992:9019  communityWallet = newWallet */\n      dup1\n      sload\n      not(sub(shl(0xa0, 0x01), 0x01))\n      and\n      sub(shl(0xa0, 0x01), 0x01)\n      dup5\n      and\n      or\n      swap1\n      sstore\n        /* \"quantum/UBI4ALLQuantum.sol\":8844:9468  if (walletHash == keccak256(abi.encodePacked(\"community\"))) {... */\n      jump(tag_365)\n    tag_350:\n        /* \"quantum/UBI4ALLQuantum.sol\":9064:9093  abi.encodePacked(\"liquidity\") */\n      mload(0x40)\n      shl(0xb8, 0x6c6971756964697479)\n      0x20\n      dup3\n      add\n        /* \"#utility.yul\":10649:10673   */\n      mstore\n        /* \"#utility.yul\":10689:10700   */\n      0x29\n      add\n        /* \"quantum/UBI4ALLQuantum.sol\":9064:9093  abi.encodePacked(\"liquidity\") */\n      mload(0x40)\n      0x20\n      dup2\n      dup4\n      sub\n      sub\n      dup2\n      mstore\n      swap1\n      0x40\n      mstore\n        /* \"quantum/UBI4ALLQuantum.sol\":9054:9094  keccak256(abi.encodePacked(\"liquidity\")) */\n      dup1\n      mload\n      swap1\n      0x20\n      add\n      keccak256\n        /* \"quantum/UBI4ALLQuantum.sol\":9040:9050  walletHash */\n      dup2\n        /* \"quantum/UBI4ALLQuantum.sol\":9040:9094  walletHash == keccak256(abi.encodePacked(\"liquidity\")) */\n      sub\n        /* \"quantum/UBI4ALLQuantum.sol\":9036:9468  if (walletHash == keccak256(abi.encodePacked(\"liquidity\"))) {... */\n      tag_356\n      jumpi\n        /* \"quantum/UBI4ALLQuantum.sol\":9131:9146  liquidityWallet */\n      sload(0x0a)\n      sub(shl(0xa0, 0x01), 0x01)\n      swap1\n      dup2\n      and\n        /* \"quantum/UBI4ALLQuantum.sol\":9118:9146  newWallet != liquidityWallet */\n      swap1\n      dup4\n      and\n      sub\n        /* \"quantum/UBI4ALLQuantum.sol\":9110:9170  require(newWallet != liquidityWallet, \"Same wallet address\") */\n      tag_357\n      jumpi\n      mload(0x40)\n      shl(0xe5, 0x461bcd)\n      dup2\n      mstore\n      0x04\n      add\n      tag_241\n      swap1\n      tag_340\n      jump\t// in\n    tag_357:\n        /* \"quantum/UBI4ALLQuantum.sol\":9184:9199  liquidityWallet */\n      0x0a\n        /* \"quantum/UBI4ALLQuantum.sol\":9184:9211  liquidityWallet = newWallet */\n      dup1\n      sload\n      not(sub(shl(0xa0, 0x01), 0x01))\n      and\n      sub(shl(0xa0, 0x01), 0x01)\n      dup5\n      and\n      or\n      swap1\n      sstore\n        /* \"quantum/UBI4ALLQuantum.sol\":9036:9468  if (walletHash == keccak256(abi.encodePacked(\"liquidity\"))) {... */\n      jump(tag_365)\n    tag_356:\n        /* \"quantum/UBI4ALLQuantum.sol\":9256:9283  abi.encodePacked(\"reserve\") */\n      mload(0x40)\n      shl(0xc8, 0x72657365727665)\n      0x20\n      dup3\n      add\n        /* \"#utility.yul\":10913:10935   */\n      mstore\n        /* \"#utility.yul\":10951:10962   */\n      0x27\n      add\n        /* \"quantum/UBI4ALLQuantum.sol\":9256:9283  abi.encodePacked(\"reserve\") */\n      mload(0x40)\n      0x20\n      dup2\n      dup4\n      sub\n      sub\n      dup2\n      mstore\n      swap1\n      0x40\n      mstore\n        /* \"quantum/UBI4ALLQuantum.sol\":9246:9284  keccak256(abi.encodePacked(\"reserve\")) */\n      dup1\n      mload\n      swap1\n      0x20\n      add\n      keccak256\n        /* \"quantum/UBI4ALLQuantum.sol\":9232:9242  walletHash */\n      dup2\n        /* \"quantum/UBI4ALLQuantum.sol\":9232:9284  walletHash == keccak256(abi.encodePacked(\"reserve\")) */\n      sub\n        /* \"quantum/UBI4ALLQuantum.sol\":9228:9468  if (walletHash == keccak256(abi.encodePacked(\"reserve\"))) {... */\n      tag_362\n      jumpi\n        /* \"quantum/UBI4ALLQuantum.sol\":9321:9334  reserveWallet */\n      sload(0x0b)\n      sub(shl(0xa0, 0x01), 0x01)\n      swap1\n      dup2\n      and\n        /* \"quantum/UBI4ALLQuantum.sol\":9308:9334  newWallet != reserveWallet */\n      swap1\n      dup4\n      and\n      sub\n        /* \"quantum/UBI4ALLQuantum.sol\":9300:9358  require(newWallet != reserveWallet, \"Same wallet address\") */\n      tag_363\n      jumpi\n      mload(0x40)\n      shl(0xe5, 0x461bcd)\n      dup2\n      mstore\n      0x04\n      add\n      tag_241\n      swap1\n      tag_340\n      jump\t// in\n    tag_363:\n        /* \"quantum/UBI4ALLQuantum.sol\":9372:9385  reserveWallet */\n      0x0b\n        /* \"quantum/UBI4ALLQuantum.sol\":9372:9397  reserveWallet = newWallet */\n      dup1\n      sload\n      not(sub(shl(0xa0, 0x01), 0x01))\n      and\n      sub(shl(0xa0, 0x01), 0x01)\n      dup5\n      and\n      or\n      swap1\n      sstore\n        /* \"quantum/UBI4ALLQuantum.sol\":9228:9468  if (walletHash == keccak256(abi.encodePacked(\"reserve\"))) {... */\n      jump(tag_365)\n    tag_362:\n        /* \"quantum/UBI4ALLQuantum.sol\":9428:9457  revert(\"Invalid wallet type\") */\n      mload(0x40)\n      shl(0xe5, 0x461bcd)\n      dup2\n      mstore\n        /* \"#utility.yul\":11175:11177   */\n      0x20\n        /* \"quantum/UBI4ALLQuantum.sol\":9428:9457  revert(\"Invalid wallet type\") */\n      0x04\n      dup3\n      add\n        /* \"#utility.yul\":11157:11178   */\n      mstore\n        /* \"#utility.yul\":11214:11216   */\n      0x13\n        /* \"#utility.yul\":11194:11212   */\n      0x24\n      dup3\n      add\n        /* \"#utility.yul\":11187:11217   */\n      mstore\n      shl(0x68, 0x496e76616c69642077616c6c65742074797065)\n        /* \"#utility.yul\":11233:11251   */\n      0x44\n      dup3\n      add\n        /* \"#utility.yul\":11226:11275   */\n      mstore\n        /* \"#utility.yul\":11292:11310   */\n      0x64\n      add\n        /* \"quantum/UBI4ALLQuantum.sol\":9428:9457  revert(\"Invalid wallet type\") */\n      tag_241\n        /* \"#utility.yul\":10973:11316   */\n      jump\n        /* \"quantum/UBI4ALLQuantum.sol\":9228:9468  if (walletHash == keccak256(abi.encodePacked(\"reserve\"))) {... */\n    tag_365:\n        /* \"quantum/UBI4ALLQuantum.sol\":9482:9518  WalletUpdated(walletType, newWallet) */\n      0x6ff3a4003b90be84595beb5f6acb9d54f88bd3e6dd4887ca67e53dc9645465ea\n        /* \"quantum/UBI4ALLQuantum.sol\":9496:9506  walletType */\n      dup4\n        /* \"quantum/UBI4ALLQuantum.sol\":9508:9517  newWallet */\n      dup4\n        /* \"quantum/UBI4ALLQuantum.sol\":9482:9518  WalletUpdated(walletType, newWallet) */\n      mload(0x40)\n      tag_368\n      swap3\n      swap2\n      swap1\n      tag_369\n      jump\t// in\n    tag_368:\n      mload(0x40)\n      dup1\n      swap2\n      sub\n      swap1\n      log1\n        /* \"quantum/UBI4ALLQuantum.sol\":8055:9525  {... */\n      pop\n        /* \"quantum/UBI4ALLQuantum.sol\":7969:9525  function updateWallet(string memory walletType, address newWallet) external onlyOwner {... */\n      pop\n      pop\n      jump\t// out\n        /* \"quantum/UBI4ALLQuantum.sol\":1377:1446  uint256 public constant RESERVE_ALLOCATION = (TOTAL_SUPPLY * 5) / 100 */\n    tag_136:\n        /* \"quantum/UBI4ALLQuantum.sol\":1443:1446  100 */\n      0x64\n        /* \"quantum/UBI4ALLQuantum.sol\":1423:1439  TOTAL_SUPPLY * 5 */\n      tag_370\n      shl(0x1b, 0x6765c793fa10079d)\n        /* \"quantum/UBI4ALLQuantum.sol\":1438:1439  5 */\n      0x05\n        /* \"quantum/UBI4ALLQuantum.sol\":1423:1439  TOTAL_SUPPLY * 5 */\n      tag_293\n      jump\t// in\n    tag_370:\n        /* \"quantum/UBI4ALLQuantum.sol\":1422:1446  (TOTAL_SUPPLY * 5) / 100 */\n      tag_371\n      swap2\n      swap1\n      tag_295\n      jump\t// in\n    tag_371:\n        /* \"quantum/UBI4ALLQuantum.sol\":1377:1446  uint256 public constant RESERVE_ALLOCATION = (TOTAL_SUPPLY * 5) / 100 */\n      dup2\n      jump\t// out\n        /* \"quantum/UBI4ALLQuantum.sol\":14172:14233  function pause() external onlyOwner {... */\n    tag_139:\n        /* \"@openzeppelin/contracts/access/Ownable.sol\":1531:1544  _checkOwner() */\n      tag_373\n        /* \"@openzeppelin/contracts/access/Ownable.sol\":1531:1542  _checkOwner */\n      tag_261\n        /* \"@openzeppelin/contracts/access/Ownable.sol\":1531:1544  _checkOwner() */\n      jump\t// in\n    tag_373:\n        /* \"quantum/UBI4ALLQuantum.sol\":14218:14226  _pause() */\n      tag_263\n        /* \"quantum/UBI4ALLQuantum.sol\":14218:14224  _pause */\n      tag_376\n        /* \"quantum/UBI4ALLQuantum.sol\":14218:14226  _pause() */\n      jump\t// in\n        /* \"quantum/UBI4ALLQuantum.sol\":1001:1073  uint256 public constant ECOSYSTEM_ALLOCATION = (TOTAL_SUPPLY * 20) / 100 */\n    tag_147:\n        /* \"quantum/UBI4ALLQuantum.sol\":1070:1073  100 */\n      0x64\n        /* \"quantum/UBI4ALLQuantum.sol\":1049:1066  TOTAL_SUPPLY * 20 */\n      tag_370\n      shl(0x1b, 0x6765c793fa10079d)\n        /* \"quantum/UBI4ALLQuantum.sol\":1064:1066  20 */\n      0x14\n        /* \"quantum/UBI4ALLQuantum.sol\":1049:1066  TOTAL_SUPPLY * 20 */\n      tag_293\n      jump\t// in\n        /* \"quantum/UBI4ALLQuantum.sol\":9624:10044  function lockForDAO(uint256 amount) external nonReentrant whenNotPaused {... */\n    tag_151:\n        /* \"@openzeppelin/contracts/security/ReentrancyGuard.sol\":2262:2283  _nonReentrantBefore() */\n      tag_381\n        /* \"@openzeppelin/contracts/security/ReentrancyGuard.sol\":2262:2281  _nonReentrantBefore */\n      tag_235\n        /* \"@openzeppelin/contracts/security/ReentrancyGuard.sol\":2262:2283  _nonReentrantBefore() */\n      jump\t// in\n    tag_381:\n        /* \"@openzeppelin/contracts/security/Pausable.sol\":1240:1259  _requireNotPaused() */\n      tag_383\n        /* \"@openzeppelin/contracts/security/Pausable.sol\":1240:1257  _requireNotPaused */\n      tag_238\n        /* \"@openzeppelin/contracts/security/Pausable.sol\":1240:1259  _requireNotPaused() */\n      jump\t// in\n    tag_383:\n        /* \"quantum/UBI4ALLQuantum.sol\":9723:9724  0 */\n      0x00\n        /* \"quantum/UBI4ALLQuantum.sol\":9714:9720  amount */\n      dup2\n        /* \"quantum/UBI4ALLQuantum.sol\":9714:9724  amount > 0 */\n      gt\n        /* \"quantum/UBI4ALLQuantum.sol\":9706:9743  require(amount > 0, \"Invalid amount\") */\n      tag_385\n      jumpi\n      mload(0x40)\n      shl(0xe5, 0x461bcd)\n      dup2\n      mstore\n      0x04\n      add\n      tag_241\n      swap1\n      tag_245\n      jump\t// in\n    tag_385:\n        /* \"quantum/UBI4ALLQuantum.sol\":9786:9792  amount */\n      dup1\n        /* \"quantum/UBI4ALLQuantum.sol\":9761:9782  balanceOf(msg.sender) */\n      tag_387\n        /* \"quantum/UBI4ALLQuantum.sol\":9771:9781  msg.sender */\n      caller\n        /* \"quantum/UBI4ALLQuantum.sol\":9761:9770  balanceOf */\n      tag_124\n        /* \"quantum/UBI4ALLQuantum.sol\":9761:9782  balanceOf(msg.sender) */\n      jump\t// in\n    tag_387:\n        /* \"quantum/UBI4ALLQuantum.sol\":9761:9792  balanceOf(msg.sender) >= amount */\n      lt\n      iszero\n        /* \"quantum/UBI4ALLQuantum.sol\":9753:9817  require(balanceOf(msg.sender) >= amount, \"Insufficient balance\") */\n      tag_388\n      jumpi\n      mload(0x40)\n      shl(0xe5, 0x461bcd)\n      dup2\n      mstore\n        /* \"#utility.yul\":7633:7635   */\n      0x20\n        /* \"quantum/UBI4ALLQuantum.sol\":9753:9817  require(balanceOf(msg.sender) >= amount, \"Insufficient balance\") */\n      0x04\n      dup3\n      add\n        /* \"#utility.yul\":7615:7636   */\n      mstore\n        /* \"#utility.yul\":7672:7674   */\n      0x14\n        /* \"#utility.yul\":7652:7670   */\n      0x24\n      dup3\n      add\n        /* \"#utility.yul\":7645:7675   */\n      mstore\n      shl(0x60, 0x496e73756666696369656e742062616c616e6365)\n        /* \"#utility.yul\":7691:7709   */\n      0x44\n      dup3\n      add\n        /* \"#utility.yul\":7684:7734   */\n      mstore\n        /* \"#utility.yul\":7751:7769   */\n      0x64\n      add\n        /* \"quantum/UBI4ALLQuantum.sol\":9753:9817  require(balanceOf(msg.sender) >= amount, \"Insufficient balance\") */\n      tag_241\n        /* \"#utility.yul\":7431:7775   */\n      jump\n        /* \"quantum/UBI4ALLQuantum.sol\":9753:9817  require(balanceOf(msg.sender) >= amount, \"Insufficient balance\") */\n    tag_388:\n        /* \"quantum/UBI4ALLQuantum.sol\":9827:9852  _burn(msg.sender, amount) */\n      tag_390\n        /* \"quantum/UBI4ALLQuantum.sol\":9833:9843  msg.sender */\n      caller\n        /* \"quantum/UBI4ALLQuantum.sol\":9845:9851  amount */\n      dup3\n        /* \"quantum/UBI4ALLQuantum.sol\":9827:9832  _burn */\n      tag_287\n        /* \"quantum/UBI4ALLQuantum.sol\":9827:9852  _burn(msg.sender, amount) */\n      jump\t// in\n    tag_390:\n        /* \"quantum/UBI4ALLQuantum.sol\":9902:9912  msg.sender */\n      caller\n        /* \"quantum/UBI4ALLQuantum.sol\":9889:9913  lockedForDAO[msg.sender] */\n      0x00\n      swap1\n      dup2\n      mstore\n        /* \"quantum/UBI4ALLQuantum.sol\":9889:9901  lockedForDAO */\n      0x0c\n        /* \"quantum/UBI4ALLQuantum.sol\":9889:9913  lockedForDAO[msg.sender] */\n      0x20\n      mstore\n      0x40\n      swap1\n      keccak256\n      sload\n        /* \"quantum/UBI4ALLQuantum.sol\":9889:9925  lockedForDAO[msg.sender].add(amount) */\n      tag_391\n      swap1\n        /* \"quantum/UBI4ALLQuantum.sol\":9918:9924  amount */\n      dup3\n        /* \"quantum/UBI4ALLQuantum.sol\":9889:9917  lockedForDAO[msg.sender].add */\n      tag_392\n        /* \"quantum/UBI4ALLQuantum.sol\":9889:9925  lockedForDAO[msg.sender].add(amount) */\n      jump\t// in\n    tag_391:\n        /* \"quantum/UBI4ALLQuantum.sol\":9875:9885  msg.sender */\n      caller\n        /* \"quantum/UBI4ALLQuantum.sol\":9862:9886  lockedForDAO[msg.sender] */\n      0x00\n      swap1\n      dup2\n      mstore\n        /* \"quantum/UBI4ALLQuantum.sol\":9862:9874  lockedForDAO */\n      0x0c\n        /* \"quantum/UBI4ALLQuantum.sol\":9862:9886  lockedForDAO[msg.sender] */\n      0x20\n      mstore\n      0x40\n      swap1\n      keccak256\n        /* \"quantum/UBI4ALLQuantum.sol\":9862:9925  lockedForDAO[msg.sender] = lockedForDAO[msg.sender].add(amount) */\n      sstore\n        /* \"quantum/UBI4ALLQuantum.sol\":9955:9972  totalLockedForDAO */\n      sload(0x0d)\n        /* \"quantum/UBI4ALLQuantum.sol\":9955:9984  totalLockedForDAO.add(amount) */\n      tag_393\n      swap1\n        /* \"quantum/UBI4ALLQuantum.sol\":9977:9983  amount */\n      dup3\n        /* \"quantum/UBI4ALLQuantum.sol\":9955:9976  totalLockedForDAO.add */\n      tag_392\n        /* \"quantum/UBI4ALLQuantum.sol\":9955:9984  totalLockedForDAO.add(amount) */\n      jump\t// in\n    tag_393:\n        /* \"quantum/UBI4ALLQuantum.sol\":9935:9952  totalLockedForDAO */\n      0x0d\n        /* \"quantum/UBI4ALLQuantum.sol\":9935:9984  totalLockedForDAO = totalLockedForDAO.add(amount) */\n      sstore\n        /* \"quantum/UBI4ALLQuantum.sol\":9999:10037  TokensLockedForDAO(msg.sender, amount) */\n      mload(0x40)\n        /* \"#utility.yul\":160:185   */\n      dup2\n      dup2\n      mstore\n        /* \"quantum/UBI4ALLQuantum.sol\":10018:10028  msg.sender */\n      caller\n      swap1\n        /* \"quantum/UBI4ALLQuantum.sol\":9999:10037  TokensLockedForDAO(msg.sender, amount) */\n      0x6b4f55697b6ddad583b377bb7ab9d921afc2eb9ffa0b12fbcea5ae24a7a34e6a\n      swap1\n        /* \"#utility.yul\":148:150   */\n      0x20\n        /* \"#utility.yul\":133:151   */\n      add\n        /* \"quantum/UBI4ALLQuantum.sol\":9999:10037  TokensLockedForDAO(msg.sender, amount) */\n      tag_288\n        /* \"#utility.yul\":14:191   */\n      jump\n        /* \"@openzeppelin/contracts/token/ERC20/ERC20.sol\":1962:2055  function symbol() public view virtual returns (string memory) {... */\n    tag_153:\n        /* \"@openzeppelin/contracts/token/ERC20/ERC20.sol\":2009:2022  string memory */\n      0x60\n        /* \"@openzeppelin/contracts/token/ERC20/ERC20.sol\":2041:2048  _symbol */\n      0x04\n        /* \"@openzeppelin/contracts/token/ERC20/ERC20.sol\":2034:2048  return _symbol */\n      dup1\n      sload\n      tag_214\n      swap1\n      tag_215\n      jump\t// in\n        /* \"quantum/UBI4ALLQuantum.sol\":1127:1199  uint256 public constant COMMUNITY_ALLOCATION = (TOTAL_SUPPLY * 15) / 100 */\n    tag_156:\n        /* \"quantum/UBI4ALLQuantum.sol\":1196:1199  100 */\n      0x64\n        /* \"quantum/UBI4ALLQuantum.sol\":1175:1192  TOTAL_SUPPLY * 15 */\n      tag_370\n      shl(0x1b, 0x6765c793fa10079d)\n        /* \"quantum/UBI4ALLQuantum.sol\":1190:1192  15 */\n      0x0f\n        /* \"quantum/UBI4ALLQuantum.sol\":1175:1192  TOTAL_SUPPLY * 15 */\n      tag_293\n      jump\t// in\n        /* \"quantum/UBI4ALLQuantum.sol\":13553:13841  function transfer(address to, uint256 amount) public override(ERC20, IUBI4ALLQuantum) whenNotPaused returns (bool) {... */\n    tag_160:\n        /* \"quantum/UBI4ALLQuantum.sol\":13662:13666  bool */\n      0x00\n        /* \"@openzeppelin/contracts/security/Pausable.sol\":1240:1259  _requireNotPaused() */\n      tag_405\n        /* \"@openzeppelin/contracts/security/Pausable.sol\":1240:1257  _requireNotPaused */\n      tag_238\n        /* \"@openzeppelin/contracts/security/Pausable.sol\":1240:1259  _requireNotPaused() */\n      jump\t// in\n    tag_405:\n        /* \"quantum/UBI4ALLQuantum.sol\":13678:13690  bool success */\n      0x00\n        /* \"quantum/UBI4ALLQuantum.sol\":13693:13719  super.transfer(to, amount) */\n      tag_407\n        /* \"quantum/UBI4ALLQuantum.sol\":13708:13710  to */\n      dup5\n        /* \"quantum/UBI4ALLQuantum.sol\":13712:13718  amount */\n      dup5\n        /* \"quantum/UBI4ALLQuantum.sol\":13693:13707  super.transfer */\n      tag_254\n        /* \"quantum/UBI4ALLQuantum.sol\":13693:13719  super.transfer(to, amount) */\n      jump\t// in\n    tag_407:\n        /* \"quantum/UBI4ALLQuantum.sol\":13678:13719  bool success = super.transfer(to, amount) */\n      swap1\n      pop\n        /* \"quantum/UBI4ALLQuantum.sol\":13733:13740  success */\n      dup1\n        /* \"quantum/UBI4ALLQuantum.sol\":13729:13811  if (success) {... */\n      iszero\n      tag_226\n      jumpi\n        /* \"quantum/UBI4ALLQuantum.sol\":13761:13800  QuantumTransfer(msg.sender, to, amount) */\n      mload(0x40)\n        /* \"#utility.yul\":160:185   */\n      dup4\n      dup2\n      mstore\n      sub(shl(0xa0, 0x01), 0x01)\n        /* \"quantum/UBI4ALLQuantum.sol\":13761:13800  QuantumTransfer(msg.sender, to, amount) */\n      dup6\n      and\n      swap1\n        /* \"quantum/UBI4ALLQuantum.sol\":13777:13787  msg.sender */\n      caller\n      swap1\n        /* \"quantum/UBI4ALLQuantum.sol\":13761:13800  QuantumTransfer(msg.sender, to, amount) */\n      0x94e83ca767b0d965638d27b68a75ea07cd5c28c86299b5c7e02d2d5f1ee9aff2\n      swap1\n        /* \"#utility.yul\":148:150   */\n      0x20\n        /* \"#utility.yul\":133:151   */\n      add\n        /* \"quantum/UBI4ALLQuantum.sol\":13761:13800  QuantumTransfer(msg.sender, to, amount) */\n      mload(0x40)\n      dup1\n      swap2\n      sub\n      swap1\n      log3\n        /* \"quantum/UBI4ALLQuantum.sol\":13827:13834  success */\n      swap4\n        /* \"quantum/UBI4ALLQuantum.sol\":13553:13841  function transfer(address to, uint256 amount) public override(ERC20, IUBI4ALLQuantum) whenNotPaused returns (bool) {... */\n      swap3\n      pop\n      pop\n      pop\n      jump\t// out\n        /* \"quantum/UBI4ALLQuantum.sol\":7311:7757  function emergencyRecoverTokens(address token, address to) external override onlyOwner nonReentrant {... */\n    tag_165:\n        /* \"@openzeppelin/contracts/access/Ownable.sol\":1531:1544  _checkOwner() */\n      tag_411\n        /* \"@openzeppelin/contracts/access/Ownable.sol\":1531:1542  _checkOwner */\n      tag_261\n        /* \"@openzeppelin/contracts/access/Ownable.sol\":1531:1544  _checkOwner() */\n      jump\t// in\n    tag_411:\n        /* \"@openzeppelin/contracts/security/ReentrancyGuard.sol\":2262:2283  _nonReentrantBefore() */\n      tag_413\n        /* \"@openzeppelin/contracts/security/ReentrancyGuard.sol\":2262:2281  _nonReentrantBefore */\n      tag_235\n        /* \"@openzeppelin/contracts/security/ReentrancyGuard.sol\":2262:2283  _nonReentrantBefore() */\n      jump\t// in\n    tag_413:\n        /* \"quantum/UBI4ALLQuantum.sol\":7446:7450  this */\n      address\n      sub(shl(0xa0, 0x01), 0x01)\n        /* \"quantum/UBI4ALLQuantum.sol\":7429:7451  token != address(this) */\n      dup4\n      and\n      sub\n        /* \"quantum/UBI4ALLQuantum.sol\":7421:7481  require(token != address(this), \"Cannot recover Q4A tokens\") */\n      tag_415\n      jumpi\n      mload(0x40)\n      shl(0xe5, 0x461bcd)\n      dup2\n      mstore\n        /* \"#utility.yul\":11845:11847   */\n      0x20\n        /* \"quantum/UBI4ALLQuantum.sol\":7421:7481  require(token != address(this), \"Cannot recover Q4A tokens\") */\n      0x04\n      dup3\n      add\n        /* \"#utility.yul\":11827:11848   */\n      mstore\n        /* \"#utility.yul\":11884:11886   */\n      0x19\n        /* \"#utility.yul\":11864:11882   */\n      0x24\n      dup3\n      add\n        /* \"#utility.yul\":11857:11887   */\n      mstore\n        /* \"#utility.yul\":11923:11950   */\n      0x43616e6e6f74207265636f7665722051344120746f6b656e7300000000000000\n        /* \"#utility.yul\":11903:11921   */\n      0x44\n      dup3\n      add\n        /* \"#utility.yul\":11896:11951   */\n      mstore\n        /* \"#utility.yul\":11968:11986   */\n      0x64\n      add\n        /* \"quantum/UBI4ALLQuantum.sol\":7421:7481  require(token != address(this), \"Cannot recover Q4A tokens\") */\n      tag_241\n        /* \"#utility.yul\":11643:11992   */\n      jump\n        /* \"quantum/UBI4ALLQuantum.sol\":7421:7481  require(token != address(this), \"Cannot recover Q4A tokens\") */\n    tag_415:\n      sub(shl(0xa0, 0x01), 0x01)\n        /* \"quantum/UBI4ALLQuantum.sol\":7499:7515  to != address(0) */\n      dup2\n      and\n        /* \"quantum/UBI4ALLQuantum.sol\":7491:7537  require(to != address(0), \"Invalid recipient\") */\n      tag_418\n      jumpi\n      mload(0x40)\n      shl(0xe5, 0x461bcd)\n      dup2\n      mstore\n      0x04\n      add\n      tag_241\n      swap1\n      tag_242\n      jump\t// in\n    tag_418:\n        /* \"quantum/UBI4ALLQuantum.sol\":7564:7602  IERC20(token).balanceOf(address(this)) */\n      mload(0x40)\n      shl(0xe0, 0x70a08231)\n      dup2\n      mstore\n        /* \"quantum/UBI4ALLQuantum.sol\":7596:7600  this */\n      address\n        /* \"quantum/UBI4ALLQuantum.sol\":7564:7602  IERC20(token).balanceOf(address(this)) */\n      0x04\n      dup3\n      add\n        /* \"#utility.yul\":3188:3239   */\n      mstore\n        /* \"quantum/UBI4ALLQuantum.sol\":7547:7561  uint256 amount */\n      0x00\n      swap1\n      sub(shl(0xa0, 0x01), 0x01)\n        /* \"quantum/UBI4ALLQuantum.sol\":7564:7587  IERC20(token).balanceOf */\n      dup5\n      and\n      swap1\n      0x70a08231\n      swap1\n        /* \"#utility.yul\":3161:3179   */\n      0x24\n      add\n        /* \"quantum/UBI4ALLQuantum.sol\":7564:7602  IERC20(token).balanceOf(address(this)) */\n      0x20\n      mload(0x40)\n      dup1\n      dup4\n      sub\n      dup2\n      dup7\n      gas\n      staticcall\n      iszero\n      dup1\n      iszero\n      tag_422\n      jumpi\n      returndatasize\n      0x00\n      dup1\n      returndatacopy\n      revert(0x00, returndatasize)\n    tag_422:\n      pop\n      pop\n      pop\n      pop\n      mload(0x40)\n      returndatasize\n      not(0x1f)\n      0x1f\n      dup3\n      add\n      and\n      dup3\n      add\n      dup1\n      0x40\n      mstore\n      pop\n      dup2\n      add\n      swap1\n      tag_423\n      swap2\n      swap1\n      tag_424\n      jump\t// in\n    tag_423:\n        /* \"quantum/UBI4ALLQuantum.sol\":7547:7602  uint256 amount = IERC20(token).balanceOf(address(this)) */\n      swap1\n      pop\n        /* \"quantum/UBI4ALLQuantum.sol\":7629:7630  0 */\n      0x00\n        /* \"quantum/UBI4ALLQuantum.sol\":7620:7626  amount */\n      dup2\n        /* \"quantum/UBI4ALLQuantum.sol\":7620:7630  amount > 0 */\n      gt\n        /* \"quantum/UBI4ALLQuantum.sol\":7612:7655  require(amount > 0, \"No tokens to recover\") */\n      tag_425\n      jumpi\n      mload(0x40)\n      shl(0xe5, 0x461bcd)\n      dup2\n      mstore\n        /* \"#utility.yul\":12388:12390   */\n      0x20\n        /* \"quantum/UBI4ALLQuantum.sol\":7612:7655  require(amount > 0, \"No tokens to recover\") */\n      0x04\n      dup3\n      add\n        /* \"#utility.yul\":12370:12391   */\n      mstore\n        /* \"#utility.yul\":12427:12429   */\n      0x14\n        /* \"#utility.yul\":12407:12425   */\n      0x24\n      dup3\n      add\n        /* \"#utility.yul\":12400:12430   */\n      mstore\n      shl(0x61, 0x2737903a37b5b2b739903a37903932b1b7bb32b9)\n        /* \"#utility.yul\":12446:12464   */\n      0x44\n      dup3\n      add\n        /* \"#utility.yul\":12439:12489   */\n      mstore\n        /* \"#utility.yul\":12506:12524   */\n      0x64\n      add\n        /* \"quantum/UBI4ALLQuantum.sol\":7612:7655  require(amount > 0, \"No tokens to recover\") */\n      tag_241\n        /* \"#utility.yul\":12186:12530   */\n      jump\n        /* \"quantum/UBI4ALLQuantum.sol\":7612:7655  require(amount > 0, \"No tokens to recover\") */\n    tag_425:\n        /* \"quantum/UBI4ALLQuantum.sol\":7665:7699  IERC20(token).transfer(to, amount) */\n      mload(0x40)\n      shl(0xe0, 0xa9059cbb)\n      dup2\n      mstore\n      sub(shl(0xa0, 0x01), 0x01)\n        /* \"#utility.yul\":12727:12759   */\n      dup4\n      dup2\n      and\n        /* \"quantum/UBI4ALLQuantum.sol\":7665:7699  IERC20(token).transfer(to, amount) */\n      0x04\n      dup4\n      add\n        /* \"#utility.yul\":12709:12760   */\n      mstore\n        /* \"#utility.yul\":12776:12794   */\n      0x24\n      dup3\n      add\n        /* \"#utility.yul\":12769:12803   */\n      dup4\n      swap1\n      mstore\n        /* \"quantum/UBI4ALLQuantum.sol\":7665:7687  IERC20(token).transfer */\n      dup5\n      and\n      swap1\n      0xa9059cbb\n      swap1\n        /* \"#utility.yul\":12682:12700   */\n      0x44\n      add\n        /* \"quantum/UBI4ALLQuantum.sol\":7665:7699  IERC20(token).transfer(to, amount) */\n      0x20\n      mload(0x40)\n      dup1\n      dup4\n      sub\n      dup2\n      0x00\n      dup8\n      gas\n      call\n      iszero\n      dup1\n      iszero\n      tag_431\n      jumpi\n      returndatasize\n      0x00\n      dup1\n      returndatacopy\n      revert(0x00, returndatasize)\n    tag_431:\n      pop\n      pop\n      pop\n      pop\n      mload(0x40)\n      returndatasize\n      not(0x1f)\n      0x1f\n      dup3\n      add\n      and\n      dup3\n      add\n      dup1\n      0x40\n      mstore\n      pop\n      dup2\n      add\n      swap1\n      tag_432\n      swap2\n      swap1\n      tag_433\n      jump\t// in\n    tag_432:\n      pop\n        /* \"quantum/UBI4ALLQuantum.sol\":7739:7741  to */\n      dup2\n      sub(shl(0xa0, 0x01), 0x01)\n        /* \"quantum/UBI4ALLQuantum.sol\":7714:7750  EmergencyRecovery(token, to, amount) */\n      and\n        /* \"quantum/UBI4ALLQuantum.sol\":7732:7737  token */\n      dup4\n      sub(shl(0xa0, 0x01), 0x01)\n        /* \"quantum/UBI4ALLQuantum.sol\":7714:7750  EmergencyRecovery(token, to, amount) */\n      and\n      0x1ac506e936e7f02f4036dbe44708f5e8d72af9ace8745a29fd391481a8fbcb87\n        /* \"quantum/UBI4ALLQuantum.sol\":7743:7749  amount */\n      dup4\n        /* \"quantum/UBI4ALLQuantum.sol\":7714:7750  EmergencyRecovery(token, to, amount) */\n      mload(0x40)\n      tag_434\n      swap2\n        /* \"#utility.yul\":160:185   */\n      dup2\n      mstore\n        /* \"#utility.yul\":148:150   */\n      0x20\n        /* \"#utility.yul\":133:151   */\n      add\n      swap1\n        /* \"#utility.yul\":14:191   */\n      jump\n        /* \"quantum/UBI4ALLQuantum.sol\":7714:7750  EmergencyRecovery(token, to, amount) */\n    tag_434:\n      mload(0x40)\n      dup1\n      swap2\n      sub\n      swap1\n      log3\n        /* \"quantum/UBI4ALLQuantum.sol\":7411:7757  {... */\n      pop\n        /* \"@openzeppelin/contracts/security/ReentrancyGuard.sol\":2304:2324  _nonReentrantAfter() */\n      tag_278\n        /* \"@openzeppelin/contracts/security/ReentrancyGuard.sol\":1717:1718  1 */\n      0x01\n        /* \"@openzeppelin/contracts/security/ReentrancyGuard.sol\":2810:2817  _status */\n      0x06\n        /* \"@openzeppelin/contracts/security/ReentrancyGuard.sol\":2810:2832  _status = _NOT_ENTERED */\n      sstore\n        /* \"@openzeppelin/contracts/security/ReentrancyGuard.sol\":2630:2839  function _nonReentrantAfter() private {... */\n      jump\n        /* \"quantum/UBI4ALLQuantum.sol\":876:947  uint256 public constant TREASURY_ALLOCATION = (TOTAL_SUPPLY * 50) / 100 */\n    tag_167:\n        /* \"quantum/UBI4ALLQuantum.sol\":944:947  100 */\n      0x64\n        /* \"quantum/UBI4ALLQuantum.sol\":923:940  TOTAL_SUPPLY * 50 */\n      tag_370\n      shl(0x1b, 0x6765c793fa10079d)\n        /* \"quantum/UBI4ALLQuantum.sol\":938:940  50 */\n      0x32\n        /* \"quantum/UBI4ALLQuantum.sol\":923:940  TOTAL_SUPPLY * 50 */\n      tag_293\n      jump\t// in\n        /* \"quantum/UBI4ALLQuantum.sol\":10697:11612  function releaseVesting(address wallet) external nonReentrant whenNotPaused {... */\n    tag_180:\n        /* \"@openzeppelin/contracts/security/ReentrancyGuard.sol\":2262:2283  _nonReentrantBefore() */\n      tag_440\n        /* \"@openzeppelin/contracts/security/ReentrancyGuard.sol\":2262:2281  _nonReentrantBefore */\n      tag_235\n        /* \"@openzeppelin/contracts/security/ReentrancyGuard.sol\":2262:2283  _nonReentrantBefore() */\n      jump\t// in\n    tag_440:\n        /* \"@openzeppelin/contracts/security/Pausable.sol\":1240:1259  _requireNotPaused() */\n      tag_442\n        /* \"@openzeppelin/contracts/security/Pausable.sol\":1240:1257  _requireNotPaused */\n      tag_238\n        /* \"@openzeppelin/contracts/security/Pausable.sol\":1240:1259  _requireNotPaused() */\n      jump\t// in\n    tag_442:\n        /* \"quantum/UBI4ALLQuantum.sol\":10801:10815  treasuryWallet */\n      sload(0x07)\n      sub(shl(0xa0, 0x01), 0x01)\n        /* \"quantum/UBI4ALLQuantum.sol\":10791:10815  wallet == treasuryWallet */\n      dup3\n      dup2\n      and\n        /* \"quantum/UBI4ALLQuantum.sol\":10801:10815  treasuryWallet */\n      0x0100\n      swap1\n      swap3\n      div\n      and\n        /* \"quantum/UBI4ALLQuantum.sol\":10791:10815  wallet == treasuryWallet */\n      eq\n      dup1\n        /* \"quantum/UBI4ALLQuantum.sol\":10791:10844  wallet == treasuryWallet || wallet == ecosystemWallet */\n      tag_444\n      jumpi\n      pop\n        /* \"quantum/UBI4ALLQuantum.sol\":10829:10844  ecosystemWallet */\n      sload(0x08)\n      sub(shl(0xa0, 0x01), 0x01)\n        /* \"quantum/UBI4ALLQuantum.sol\":10819:10844  wallet == ecosystemWallet */\n      dup3\n      dup2\n      and\n        /* \"quantum/UBI4ALLQuantum.sol\":10829:10844  ecosystemWallet */\n      swap2\n      and\n        /* \"quantum/UBI4ALLQuantum.sol\":10819:10844  wallet == ecosystemWallet */\n      eq\n        /* \"quantum/UBI4ALLQuantum.sol\":10791:10844  wallet == treasuryWallet || wallet == ecosystemWallet */\n    tag_444:\n        /* \"quantum/UBI4ALLQuantum.sol\":10783:10871  require(wallet == treasuryWallet || wallet == ecosystemWallet, \"Invalid vesting wallet\") */\n      tag_445\n      jumpi\n      mload(0x40)\n      shl(0xe5, 0x461bcd)\n      dup2\n      mstore\n        /* \"#utility.yul\":13298:13300   */\n      0x20\n        /* \"quantum/UBI4ALLQuantum.sol\":10783:10871  require(wallet == treasuryWallet || wallet == ecosystemWallet, \"Invalid vesting wallet\") */\n      0x04\n      dup3\n      add\n        /* \"#utility.yul\":13280:13301   */\n      mstore\n        /* \"#utility.yul\":13337:13339   */\n      0x16\n        /* \"#utility.yul\":13317:13335   */\n      0x24\n      dup3\n      add\n        /* \"#utility.yul\":13310:13340   */\n      mstore\n      shl(0x52, 0x125b9d985b1a59081d995cdd1a5b99c81dd85b1b195d)\n        /* \"#utility.yul\":13356:13374   */\n      0x44\n      dup3\n      add\n        /* \"#utility.yul\":13349:13401   */\n      mstore\n        /* \"#utility.yul\":13418:13436   */\n      0x64\n      add\n        /* \"quantum/UBI4ALLQuantum.sol\":10783:10871  require(wallet == treasuryWallet || wallet == ecosystemWallet, \"Invalid vesting wallet\") */\n      tag_241\n        /* \"#utility.yul\":13096:13442   */\n      jump\n        /* \"quantum/UBI4ALLQuantum.sol\":10783:10871  require(wallet == treasuryWallet || wallet == ecosystemWallet, \"Invalid vesting wallet\") */\n    tag_445:\n      sub(shl(0xa0, 0x01), 0x01)\n        /* \"quantum/UBI4ALLQuantum.sol\":10916:10940  vestingSchedules[wallet] */\n      dup2\n      and\n        /* \"quantum/UBI4ALLQuantum.sol\":10881:10913  VestingSchedule storage schedule */\n      0x00\n        /* \"quantum/UBI4ALLQuantum.sol\":10916:10940  vestingSchedules[wallet] */\n      swap1\n      dup2\n      mstore\n        /* \"quantum/UBI4ALLQuantum.sol\":10916:10932  vestingSchedules */\n      0x0e\n        /* \"quantum/UBI4ALLQuantum.sol\":10916:10940  vestingSchedules[wallet] */\n      0x20\n      mstore\n      0x40\n      swap1\n      keccak256\n        /* \"quantum/UBI4ALLQuantum.sol\":10981:11004  schedule.releasedAmount */\n      0x01\n      dup2\n      add\n      sload\n        /* \"quantum/UBI4ALLQuantum.sol\":10958:10978  schedule.totalAmount */\n      dup2\n      sload\n        /* \"quantum/UBI4ALLQuantum.sol\":10958:11004  schedule.totalAmount > schedule.releasedAmount */\n      gt\n        /* \"quantum/UBI4ALLQuantum.sol\":10950:11029  require(schedule.totalAmount > schedule.releasedAmount, \"No tokens to release\") */\n      tag_448\n      jumpi\n      mload(0x40)\n      shl(0xe5, 0x461bcd)\n      dup2\n      mstore\n        /* \"#utility.yul\":13649:13651   */\n      0x20\n        /* \"quantum/UBI4ALLQuantum.sol\":10950:11029  require(schedule.totalAmount > schedule.releasedAmount, \"No tokens to release\") */\n      0x04\n      dup3\n      add\n        /* \"#utility.yul\":13631:13652   */\n      mstore\n        /* \"#utility.yul\":13688:13690   */\n      0x14\n        /* \"#utility.yul\":13668:13686   */\n      0x24\n      dup3\n      add\n        /* \"#utility.yul\":13661:13691   */\n      mstore\n      shl(0x60, 0x4e6f20746f6b656e7320746f2072656c65617365)\n        /* \"#utility.yul\":13707:13725   */\n      0x44\n      dup3\n      add\n        /* \"#utility.yul\":13700:13750   */\n      mstore\n        /* \"#utility.yul\":13767:13785   */\n      0x64\n      add\n        /* \"quantum/UBI4ALLQuantum.sol\":10950:11029  require(schedule.totalAmount > schedule.releasedAmount, \"No tokens to release\") */\n      tag_241\n        /* \"#utility.yul\":13447:13791   */\n      jump\n        /* \"quantum/UBI4ALLQuantum.sol\":10950:11029  require(schedule.totalAmount > schedule.releasedAmount, \"No tokens to release\") */\n    tag_448:\n        /* \"quantum/UBI4ALLQuantum.sol\":11040:11059  uint256 elapsedTime */\n      0x00\n        /* \"quantum/UBI4ALLQuantum.sol\":11062:11095  block.timestamp.sub(vestingStart) */\n      tag_451\n        /* \"quantum/UBI4ALLQuantum.sol\":11062:11077  block.timestamp */\n      timestamp\n        /* \"quantum/UBI4ALLQuantum.sol\":11082:11094  vestingStart */\n      immutable(\"0x4d10a0db24f434e6025a5ab91426fb885a8a41f2a9a3e3f8c3bfdea4a211adc4\")\n        /* \"quantum/UBI4ALLQuantum.sol\":11062:11081  block.timestamp.sub */\n      tag_206\n        /* \"quantum/UBI4ALLQuantum.sol\":11062:11095  block.timestamp.sub(vestingStart) */\n      jump\t// in\n    tag_451:\n        /* \"quantum/UBI4ALLQuantum.sol\":11040:11095  uint256 elapsedTime = block.timestamp.sub(vestingStart) */\n      swap1\n      pop\n        /* \"quantum/UBI4ALLQuantum.sol\":11105:11125  uint256 vestedAmount */\n      0x00\n        /* \"quantum/UBI4ALLQuantum.sol\":11128:11185  schedule.totalAmount.mul(elapsedTime).div(VESTING_PERIOD) */\n      tag_452\n        /* \"quantum/UBI4ALLQuantum.sol\":1535:1543  365 days */\n      0x01e13380\n        /* \"quantum/UBI4ALLQuantum.sol\":11128:11165  schedule.totalAmount.mul(elapsedTime) */\n      tag_208\n        /* \"quantum/UBI4ALLQuantum.sol\":11153:11164  elapsedTime */\n      dup5\n        /* \"quantum/UBI4ALLQuantum.sol\":11128:11136  schedule */\n      dup7\n        /* \"quantum/UBI4ALLQuantum.sol\":11128:11148  schedule.totalAmount */\n      0x00\n      add\n      sload\n        /* \"quantum/UBI4ALLQuantum.sol\":11128:11152  schedule.totalAmount.mul */\n      tag_209\n      swap1\n        /* \"quantum/UBI4ALLQuantum.sol\":11128:11165  schedule.totalAmount.mul(elapsedTime) */\n      swap2\n      swap1\n      0xffffffff\n      and\n      jump\t// in\n        /* \"quantum/UBI4ALLQuantum.sol\":11128:11185  schedule.totalAmount.mul(elapsedTime).div(VESTING_PERIOD) */\n    tag_452:\n        /* \"quantum/UBI4ALLQuantum.sol\":11214:11234  schedule.totalAmount */\n      dup4\n      sload\n        /* \"quantum/UBI4ALLQuantum.sol\":11105:11185  uint256 vestedAmount = schedule.totalAmount.mul(elapsedTime).div(VESTING_PERIOD) */\n      swap1\n      swap2\n      pop\n        /* \"quantum/UBI4ALLQuantum.sol\":11199:11234  vestedAmount > schedule.totalAmount */\n      dup2\n      gt\n        /* \"quantum/UBI4ALLQuantum.sol\":11195:11296  if (vestedAmount > schedule.totalAmount) {... */\n      iszero\n      tag_454\n      jumpi\n      pop\n        /* \"quantum/UBI4ALLQuantum.sol\":11265:11285  schedule.totalAmount */\n      dup2\n      sload\n        /* \"quantum/UBI4ALLQuantum.sol\":11195:11296  if (vestedAmount > schedule.totalAmount) {... */\n    tag_454:\n        /* \"quantum/UBI4ALLQuantum.sol\":11306:11324  uint256 releasable */\n      0x00\n        /* \"quantum/UBI4ALLQuantum.sol\":11327:11368  vestedAmount.sub(schedule.releasedAmount) */\n      tag_455\n        /* \"quantum/UBI4ALLQuantum.sol\":11344:11352  schedule */\n      dup5\n        /* \"quantum/UBI4ALLQuantum.sol\":11344:11367  schedule.releasedAmount */\n      0x01\n      add\n      sload\n        /* \"quantum/UBI4ALLQuantum.sol\":11327:11339  vestedAmount */\n      dup4\n        /* \"quantum/UBI4ALLQuantum.sol\":11327:11343  vestedAmount.sub */\n      tag_206\n      swap1\n        /* \"quantum/UBI4ALLQuantum.sol\":11327:11368  vestedAmount.sub(schedule.releasedAmount) */\n      swap2\n      swap1\n      0xffffffff\n      and\n      jump\t// in\n    tag_455:\n        /* \"quantum/UBI4ALLQuantum.sol\":11306:11368  uint256 releasable = vestedAmount.sub(schedule.releasedAmount) */\n      swap1\n      pop\n        /* \"quantum/UBI4ALLQuantum.sol\":11399:11400  0 */\n      0x00\n        /* \"quantum/UBI4ALLQuantum.sol\":11386:11396  releasable */\n      dup2\n        /* \"quantum/UBI4ALLQuantum.sol\":11386:11400  releasable > 0 */\n      gt\n        /* \"quantum/UBI4ALLQuantum.sol\":11378:11425  require(releasable > 0, \"No tokens releasable\") */\n      tag_456\n      jumpi\n      mload(0x40)\n      shl(0xe5, 0x461bcd)\n      dup2\n      mstore\n        /* \"#utility.yul\":13998:14000   */\n      0x20\n        /* \"quantum/UBI4ALLQuantum.sol\":11378:11425  require(releasable > 0, \"No tokens releasable\") */\n      0x04\n      dup3\n      add\n        /* \"#utility.yul\":13980:14001   */\n      mstore\n        /* \"#utility.yul\":14037:14039   */\n      0x14\n        /* \"#utility.yul\":14017:14035   */\n      0x24\n      dup3\n      add\n        /* \"#utility.yul\":14010:14040   */\n      mstore\n      shl(0x60, 0x4e6f20746f6b656e732072656c65617361626c65)\n        /* \"#utility.yul\":14056:14074   */\n      0x44\n      dup3\n      add\n        /* \"#utility.yul\":14049:14099   */\n      mstore\n        /* \"#utility.yul\":14116:14134   */\n      0x64\n      add\n        /* \"quantum/UBI4ALLQuantum.sol\":11378:11425  require(releasable > 0, \"No tokens releasable\") */\n      tag_241\n        /* \"#utility.yul\":13796:14140   */\n      jump\n        /* \"quantum/UBI4ALLQuantum.sol\":11378:11425  require(releasable > 0, \"No tokens releasable\") */\n    tag_456:\n        /* \"quantum/UBI4ALLQuantum.sol\":11462:11485  schedule.releasedAmount */\n      0x01\n      dup5\n      add\n      sload\n        /* \"quantum/UBI4ALLQuantum.sol\":11462:11501  schedule.releasedAmount.add(releasable) */\n      tag_459\n      swap1\n        /* \"quantum/UBI4ALLQuantum.sol\":11490:11500  releasable */\n      dup3\n        /* \"quantum/UBI4ALLQuantum.sol\":11462:11489  schedule.releasedAmount.add */\n      tag_392\n        /* \"quantum/UBI4ALLQuantum.sol\":11462:11501  schedule.releasedAmount.add(releasable) */\n      jump\t// in\n    tag_459:\n        /* \"quantum/UBI4ALLQuantum.sol\":11436:11459  schedule.releasedAmount */\n      0x01\n      dup6\n      add\n        /* \"quantum/UBI4ALLQuantum.sol\":11436:11501  schedule.releasedAmount = schedule.releasedAmount.add(releasable) */\n      sstore\n        /* \"quantum/UBI4ALLQuantum.sol\":11511:11555  _transfer(address(this), wallet, releasable) */\n      tag_460\n        /* \"quantum/UBI4ALLQuantum.sol\":11529:11533  this */\n      address\n        /* \"quantum/UBI4ALLQuantum.sol\":11536:11542  wallet */\n      dup7\n        /* \"quantum/UBI4ALLQuantum.sol\":11544:11554  releasable */\n      dup4\n        /* \"quantum/UBI4ALLQuantum.sol\":11511:11520  _transfer */\n      tag_231\n        /* \"quantum/UBI4ALLQuantum.sol\":11511:11555  _transfer(address(this), wallet, releasable) */\n      jump\t// in\n    tag_460:\n        /* \"quantum/UBI4ALLQuantum.sol\":11586:11592  wallet */\n      dup5\n      sub(shl(0xa0, 0x01), 0x01)\n        /* \"quantum/UBI4ALLQuantum.sol\":11570:11605  VestingReleased(wallet, releasable) */\n      and\n      0x4ad7799f99297062cea73c5a21d23a1fcf49f6a1957f7409712e555a0dcd1e1d\n        /* \"quantum/UBI4ALLQuantum.sol\":11594:11604  releasable */\n      dup3\n        /* \"quantum/UBI4ALLQuantum.sol\":11570:11605  VestingReleased(wallet, releasable) */\n      mload(0x40)\n      tag_461\n      swap2\n        /* \"#utility.yul\":160:185   */\n      dup2\n      mstore\n        /* \"#utility.yul\":148:150   */\n      0x20\n        /* \"#utility.yul\":133:151   */\n      add\n      swap1\n        /* \"#utility.yul\":14:191   */\n      jump\n        /* \"quantum/UBI4ALLQuantum.sol\":11570:11605  VestingReleased(wallet, releasable) */\n    tag_461:\n      mload(0x40)\n      dup1\n      swap2\n      sub\n      swap1\n      log2\n        /* \"quantum/UBI4ALLQuantum.sol\":10773:11612  {... */\n      pop\n      pop\n      pop\n      pop\n        /* \"@openzeppelin/contracts/security/ReentrancyGuard.sol\":2304:2324  _nonReentrantAfter() */\n      tag_289\n        /* \"@openzeppelin/contracts/security/ReentrancyGuard.sol\":1717:1718  1 */\n      0x01\n        /* \"@openzeppelin/contracts/security/ReentrancyGuard.sol\":2810:2817  _status */\n      0x06\n        /* \"@openzeppelin/contracts/security/ReentrancyGuard.sol\":2810:2832  _status = _NOT_ENTERED */\n      sstore\n        /* \"@openzeppelin/contracts/security/ReentrancyGuard.sol\":2630:2839  function _nonReentrantAfter() private {... */\n      jump\n        /* \"@openzeppelin/contracts/access/Ownable.sol\":2543:2758  function transferOwnership(address newOwner) public virtual onlyOwner {... */\n    tag_194:\n        /* \"@openzeppelin/contracts/access/Ownable.sol\":1531:1544  _checkOwner() */\n      tag_466\n        /* \"@openzeppelin/contracts/access/Ownable.sol\":1531:1542  _checkOwner */\n      tag_261\n        /* \"@openzeppelin/contracts/access/Ownable.sol\":1531:1544  _checkOwner() */\n      jump\t// in\n    tag_466:\n      sub(shl(0xa0, 0x01), 0x01)\n        /* \"@openzeppelin/contracts/access/Ownable.sol\":2627:2649  newOwner == address(0) */\n      dup2\n      and\n        /* \"@openzeppelin/contracts/access/Ownable.sol\":2623:2714  if (newOwner == address(0)) {... */\n      tag_468\n      jumpi\n        /* \"@openzeppelin/contracts/access/Ownable.sol\":2672:2703  OwnableInvalidOwner(address(0)) */\n      mload(0x40)\n      shl(0xe0, 0x1e4fbdf7)\n      dup2\n      mstore\n        /* \"@openzeppelin/contracts/access/Ownable.sol\":2700:2701  0 */\n      0x00\n        /* \"@openzeppelin/contracts/access/Ownable.sol\":2672:2703  OwnableInvalidOwner(address(0)) */\n      0x04\n      dup3\n      add\n        /* \"#utility.yul\":3188:3239   */\n      mstore\n        /* \"#utility.yul\":3161:3179   */\n      0x24\n      add\n        /* \"@openzeppelin/contracts/access/Ownable.sol\":2672:2703  OwnableInvalidOwner(address(0)) */\n      tag_241\n        /* \"#utility.yul\":3042:3245   */\n      jump\n        /* \"@openzeppelin/contracts/access/Ownable.sol\":2623:2714  if (newOwner == address(0)) {... */\n    tag_468:\n        /* \"@openzeppelin/contracts/access/Ownable.sol\":2723:2751  _transferOwnership(newOwner) */\n      tag_289\n        /* \"@openzeppelin/contracts/access/Ownable.sol\":2742:2750  newOwner */\n      dup2\n        /* \"@openzeppelin/contracts/access/Ownable.sol\":2723:2741  _transferOwnership */\n      tag_311\n        /* \"@openzeppelin/contracts/access/Ownable.sol\":2723:2751  _transferOwnership(newOwner) */\n      jump\t// in\n        /* \"quantum/UBI4ALLQuantum.sol\":1254:1326  uint256 public constant LIQUIDITY_ALLOCATION = (TOTAL_SUPPLY * 10) / 100 */\n    tag_196:\n        /* \"quantum/UBI4ALLQuantum.sol\":1323:1326  100 */\n      0x64\n        /* \"quantum/UBI4ALLQuantum.sol\":1302:1319  TOTAL_SUPPLY * 10 */\n      tag_370\n      shl(0x1b, 0x6765c793fa10079d)\n        /* \"quantum/UBI4ALLQuantum.sol\":1317:1319  10 */\n      0x0a\n        /* \"quantum/UBI4ALLQuantum.sol\":1302:1319  TOTAL_SUPPLY * 10 */\n      tag_293\n      jump\t// in\n        /* \"@openzeppelin/contracts/utils/math/SafeMath.sol\":3123:3219  function sub(uint256 a, uint256 b) internal pure returns (uint256) {... */\n    tag_206:\n        /* \"@openzeppelin/contracts/utils/math/SafeMath.sol\":3181:3188  uint256 */\n      0x00\n        /* \"@openzeppelin/contracts/utils/math/SafeMath.sol\":3207:3212  a - b */\n      tag_226\n        /* \"@openzeppelin/contracts/utils/math/SafeMath.sol\":3211:3212  b */\n      dup3\n        /* \"@openzeppelin/contracts/utils/math/SafeMath.sol\":3207:3208  a */\n      dup5\n        /* \"@openzeppelin/contracts/utils/math/SafeMath.sol\":3207:3212  a - b */\n      tag_475\n      jump\t// in\n        /* \"@openzeppelin/contracts/utils/math/SafeMath.sol\":3466:3562  function mul(uint256 a, uint256 b) internal pure returns (uint256) {... */\n    tag_209:\n        /* \"@openzeppelin/contracts/utils/math/SafeMath.sol\":3524:3531  uint256 */\n      0x00\n        /* \"@openzeppelin/contracts/utils/math/SafeMath.sol\":3550:3555  a * b */\n      tag_226\n        /* \"@openzeppelin/contracts/utils/math/SafeMath.sol\":3554:3555  b */\n      dup3\n        /* \"@openzeppelin/contracts/utils/math/SafeMath.sol\":3550:3551  a */\n      dup5\n        /* \"@openzeppelin/contracts/utils/math/SafeMath.sol\":3550:3555  a * b */\n      tag_293\n      jump\t// in\n        /* \"@openzeppelin/contracts/utils/math/SafeMath.sol\":3851:3947  function div(uint256 a, uint256 b) internal pure returns (uint256) {... */\n    tag_210:\n        /* \"@openzeppelin/contracts/utils/math/SafeMath.sol\":3909:3916  uint256 */\n      0x00\n        /* \"@openzeppelin/contracts/utils/math/SafeMath.sol\":3935:3940  a / b */\n      tag_226\n        /* \"@openzeppelin/contracts/utils/math/SafeMath.sol\":3939:3940  b */\n      dup3\n        /* \"@openzeppelin/contracts/utils/math/SafeMath.sol\":3935:3936  a */\n      dup5\n        /* \"@openzeppelin/contracts/utils/math/SafeMath.sol\":3935:3940  a / b */\n      tag_295\n      jump\t// in\n        /* \"@openzeppelin/contracts/token/ERC20/ERC20.sol\":8707:8835  function _approve(address owner, address spender, uint256 value) internal {... */\n    tag_224:\n        /* \"@openzeppelin/contracts/token/ERC20/ERC20.sol\":8791:8828  _approve(owner, spender, value, true) */\n      tag_482\n        /* \"@openzeppelin/contracts/token/ERC20/ERC20.sol\":8800:8805  owner */\n      dup4\n        /* \"@openzeppelin/contracts/token/ERC20/ERC20.sol\":8807:8814  spender */\n      dup4\n        /* \"@openzeppelin/contracts/token/ERC20/ERC20.sol\":8816:8821  value */\n      dup4\n        /* \"@openzeppelin/contracts/token/ERC20/ERC20.sol\":8823:8827  true */\n      0x01\n        /* \"@openzeppelin/contracts/token/ERC20/ERC20.sol\":8791:8799  _approve */\n      tag_483\n        /* \"@openzeppelin/contracts/token/ERC20/ERC20.sol\":8791:8828  _approve(owner, spender, value, true) */\n      jump\t// in\n    tag_482:\n        /* \"@openzeppelin/contracts/token/ERC20/ERC20.sol\":8707:8835  function _approve(address owner, address spender, uint256 value) internal {... */\n      pop\n      pop\n      pop\n      jump\t// out\n        /* \"@openzeppelin/contracts/token/ERC20/ERC20.sol\":10396:10872  function _spendAllowance(address owner, address spender, uint256 value) internal virtual {... */\n    tag_229:\n      sub(shl(0xa0, 0x01), 0x01)\n        /* \"@openzeppelin/contracts/token/ERC20/ERC20.sol\":3638:3656  _allowances[owner] */\n      dup4\n      dup2\n      and\n        /* \"@openzeppelin/contracts/token/ERC20/ERC20.sol\":10495:10519  uint256 currentAllowance */\n      0x00\n        /* \"@openzeppelin/contracts/token/ERC20/ERC20.sol\":3638:3656  _allowances[owner] */\n      swap1\n      dup2\n      mstore\n        /* \"@openzeppelin/contracts/token/ERC20/ERC20.sol\":3638:3649  _allowances */\n      0x01\n        /* \"@openzeppelin/contracts/token/ERC20/ERC20.sol\":3638:3656  _allowances[owner] */\n      0x20\n      swap1\n      dup2\n      mstore\n      0x40\n      dup1\n      dup4\n      keccak256\n        /* \"@openzeppelin/contracts/token/ERC20/ERC20.sol\":3638:3665  _allowances[owner][spender] */\n      swap4\n      dup7\n      and\n      dup4\n      mstore\n      swap3\n      swap1\n      mstore\n      keccak256\n      sload\n      not(0x00)\n        /* \"@openzeppelin/contracts/token/ERC20/ERC20.sol\":10561:10597  currentAllowance < type(uint256).max */\n      dup2\n      lt\n        /* \"@openzeppelin/contracts/token/ERC20/ERC20.sol\":10557:10866  if (currentAllowance < type(uint256).max) {... */\n      iszero\n      tag_490\n      jumpi\n        /* \"@openzeppelin/contracts/token/ERC20/ERC20.sol\":10636:10641  value */\n      dup2\n        /* \"@openzeppelin/contracts/token/ERC20/ERC20.sol\":10617:10633  currentAllowance */\n      dup2\n        /* \"@openzeppelin/contracts/token/ERC20/ERC20.sol\":10617:10641  currentAllowance < value */\n      lt\n        /* \"@openzeppelin/contracts/token/ERC20/ERC20.sol\":10613:10743  if (currentAllowance < value) {... */\n      iszero\n      tag_487\n      jumpi\n        /* \"@openzeppelin/contracts/token/ERC20/ERC20.sol\":10668:10728  ERC20InsufficientAllowance(spender, currentAllowance, value) */\n      mload(0x40)\n      shl(0xe1, 0x7dc7a0d9)\n      dup2\n      mstore\n      sub(shl(0xa0, 0x01), 0x01)\n        /* \"#utility.yul\":14498:14530   */\n      dup5\n      and\n        /* \"@openzeppelin/contracts/token/ERC20/ERC20.sol\":10668:10728  ERC20InsufficientAllowance(spender, currentAllowance, value) */\n      0x04\n      dup3\n      add\n        /* \"#utility.yul\":14480:14531   */\n      mstore\n        /* \"#utility.yul\":14547:14565   */\n      0x24\n      dup2\n      add\n        /* \"#utility.yul\":14540:14574   */\n      dup3\n      swap1\n      mstore\n        /* \"#utility.yul\":14590:14608   */\n      0x44\n      dup2\n      add\n        /* \"#utility.yul\":14583:14617   */\n      dup4\n      swap1\n      mstore\n        /* \"#utility.yul\":14453:14471   */\n      0x64\n      add\n        /* \"@openzeppelin/contracts/token/ERC20/ERC20.sol\":10668:10728  ERC20InsufficientAllowance(spender, currentAllowance, value) */\n      tag_241\n        /* \"#utility.yul\":14278:14623   */\n      jump\n        /* \"@openzeppelin/contracts/token/ERC20/ERC20.sol\":10613:10743  if (currentAllowance < value) {... */\n    tag_487:\n        /* \"@openzeppelin/contracts/token/ERC20/ERC20.sol\":10784:10841  _approve(owner, spender, currentAllowance - value, false) */\n      tag_490\n        /* \"@openzeppelin/contracts/token/ERC20/ERC20.sol\":10793:10798  owner */\n      dup5\n        /* \"@openzeppelin/contracts/token/ERC20/ERC20.sol\":10800:10807  spender */\n      dup5\n        /* \"@openzeppelin/contracts/token/ERC20/ERC20.sol\":10828:10833  value */\n      dup5\n        /* \"@openzeppelin/contracts/token/ERC20/ERC20.sol\":10809:10825  currentAllowance */\n      dup5\n        /* \"@openzeppelin/contracts/token/ERC20/ERC20.sol\":10809:10833  currentAllowance - value */\n      sub\n        /* \"@openzeppelin/contracts/token/ERC20/ERC20.sol\":10835:10840  false */\n      0x00\n        /* \"@openzeppelin/contracts/token/ERC20/ERC20.sol\":10784:10792  _approve */\n      tag_483\n        /* \"@openzeppelin/contracts/token/ERC20/ERC20.sol\":10784:10841  _approve(owner, spender, currentAllowance - value, false) */\n      jump\t// in\n    tag_490:\n        /* \"@openzeppelin/contracts/token/ERC20/ERC20.sol\":10485:10872  {... */\n      pop\n        /* \"@openzeppelin/contracts/token/ERC20/ERC20.sol\":10396:10872  function _spendAllowance(address owner, address spender, uint256 value) internal virtual {... */\n      pop\n      pop\n      pop\n      jump\t// out\n        /* \"@openzeppelin/contracts/token/ERC20/ERC20.sol\":5374:5674  function _transfer(address from, address to, uint256 value) internal {... */\n    tag_231:\n      sub(shl(0xa0, 0x01), 0x01)\n        /* \"@openzeppelin/contracts/token/ERC20/ERC20.sol\":5457:5475  from == address(0) */\n      dup4\n      and\n        /* \"@openzeppelin/contracts/token/ERC20/ERC20.sol\":5453:5539  if (from == address(0)) {... */\n      tag_492\n      jumpi\n        /* \"@openzeppelin/contracts/token/ERC20/ERC20.sol\":5498:5528  ERC20InvalidSender(address(0)) */\n      mload(0x40)\n      shl(0xe1, 0x4b637e8f)\n      dup2\n      mstore\n        /* \"@openzeppelin/contracts/token/ERC20/ERC20.sol\":5525:5526  0 */\n      0x00\n        /* \"@openzeppelin/contracts/token/ERC20/ERC20.sol\":5498:5528  ERC20InvalidSender(address(0)) */\n      0x04\n      dup3\n      add\n        /* \"#utility.yul\":3188:3239   */\n      mstore\n        /* \"#utility.yul\":3161:3179   */\n      0x24\n      add\n        /* \"@openzeppelin/contracts/token/ERC20/ERC20.sol\":5498:5528  ERC20InvalidSender(address(0)) */\n      tag_241\n        /* \"#utility.yul\":3042:3245   */\n      jump\n        /* \"@openzeppelin/contracts/token/ERC20/ERC20.sol\":5453:5539  if (from == address(0)) {... */\n    tag_492:\n      sub(shl(0xa0, 0x01), 0x01)\n        /* \"@openzeppelin/contracts/token/ERC20/ERC20.sol\":5552:5568  to == address(0) */\n      dup3\n      and\n        /* \"@openzeppelin/contracts/token/ERC20/ERC20.sol\":5548:5634  if (to == address(0)) {... */\n      tag_494\n      jumpi\n        /* \"@openzeppelin/contracts/token/ERC20/ERC20.sol\":5591:5623  ERC20InvalidReceiver(address(0)) */\n      mload(0x40)\n      shl(0xe0, 0xec442f05)\n      dup2\n      mstore\n        /* \"@openzeppelin/contracts/token/ERC20/ERC20.sol\":5620:5621  0 */\n      0x00\n        /* \"@openzeppelin/contracts/token/ERC20/ERC20.sol\":5591:5623  ERC20InvalidReceiver(address(0)) */\n      0x04\n      dup3\n      add\n        /* \"#utility.yul\":3188:3239   */\n      mstore\n        /* \"#utility.yul\":3161:3179   */\n      0x24\n      add\n        /* \"@openzeppelin/contracts/token/ERC20/ERC20.sol\":5591:5623  ERC20InvalidReceiver(address(0)) */\n      tag_241\n        /* \"#utility.yul\":3042:3245   */\n      jump\n        /* \"@openzeppelin/contracts/token/ERC20/ERC20.sol\":5548:5634  if (to == address(0)) {... */\n    tag_494:\n        /* \"@openzeppelin/contracts/token/ERC20/ERC20.sol\":5643:5667  _update(from, to, value) */\n      tag_482\n        /* \"@openzeppelin/contracts/token/ERC20/ERC20.sol\":5651:5655  from */\n      dup4\n        /* \"@openzeppelin/contracts/token/ERC20/ERC20.sol\":5657:5659  to */\n      dup4\n        /* \"@openzeppelin/contracts/token/ERC20/ERC20.sol\":5661:5666  value */\n      dup4\n        /* \"@openzeppelin/contracts/token/ERC20/ERC20.sol\":5643:5650  _update */\n      tag_497\n        /* \"@openzeppelin/contracts/token/ERC20/ERC20.sol\":5643:5667  _update(from, to, value) */\n      jump\t// in\n        /* \"@openzeppelin/contracts/security/ReentrancyGuard.sol\":2337:2624  function _nonReentrantBefore() private {... */\n    tag_235:\n        /* \"@openzeppelin/contracts/security/ReentrancyGuard.sol\":1760:1761  2 */\n      0x02\n        /* \"@openzeppelin/contracts/security/ReentrancyGuard.sol\":2469:2476  _status */\n      sload(0x06)\n        /* \"@openzeppelin/contracts/security/ReentrancyGuard.sol\":2469:2488  _status != _ENTERED */\n      sub\n        /* \"@openzeppelin/contracts/security/ReentrancyGuard.sol\":2461:2524  require(_status != _ENTERED, \"ReentrancyGuard: reentrant call\") */\n      tag_499\n      jumpi\n      mload(0x40)\n      shl(0xe5, 0x461bcd)\n      dup2\n      mstore\n        /* \"#utility.yul\":14830:14832   */\n      0x20\n        /* \"@openzeppelin/contracts/security/ReentrancyGuard.sol\":2461:2524  require(_status != _ENTERED, \"ReentrancyGuard: reentrant call\") */\n      0x04\n      dup3\n      add\n        /* \"#utility.yul\":14812:14833   */\n      mstore\n        /* \"#utility.yul\":14869:14871   */\n      0x1f\n        /* \"#utility.yul\":14849:14867   */\n      0x24\n      dup3\n      add\n        /* \"#utility.yul\":14842:14872   */\n      mstore\n        /* \"#utility.yul\":14908:14941   */\n      0x5265656e7472616e637947756172643a207265656e7472616e742063616c6c00\n        /* \"#utility.yul\":14888:14906   */\n      0x44\n      dup3\n      add\n        /* \"#utility.yul\":14881:14942   */\n      mstore\n        /* \"#utility.yul\":14959:14977   */\n      0x64\n      add\n        /* \"@openzeppelin/contracts/security/ReentrancyGuard.sol\":2461:2524  require(_status != _ENTERED, \"ReentrancyGuard: reentrant call\") */\n      tag_241\n        /* \"#utility.yul\":14628:14983   */\n      jump\n        /* \"@openzeppelin/contracts/security/ReentrancyGuard.sol\":2461:2524  require(_status != _ENTERED, \"ReentrancyGuard: reentrant call\") */\n    tag_499:\n        /* \"@openzeppelin/contracts/security/ReentrancyGuard.sol\":1760:1761  2 */\n      0x02\n        /* \"@openzeppelin/contracts/security/ReentrancyGuard.sol\":2599:2606  _status */\n      0x06\n        /* \"@openzeppelin/contracts/security/ReentrancyGuard.sol\":2599:2617  _status = _ENTERED */\n      sstore\n        /* \"@openzeppelin/contracts/security/ReentrancyGuard.sol\":2337:2624  function _nonReentrantBefore() private {... */\n      jump\t// out\n        /* \"@openzeppelin/contracts/security/Pausable.sol\":1768:1874  function _requireNotPaused() internal view virtual {... */\n    tag_238:\n        /* \"@openzeppelin/contracts/security/Pausable.sol\":1686:1693  _paused */\n      and(0xff, sload(0x07))\n        /* \"@openzeppelin/contracts/security/Pausable.sol\":1837:1846  !paused() */\n      iszero\n        /* \"@openzeppelin/contracts/security/Pausable.sol\":1829:1867  require(!paused(), \"Pausable: paused\") */\n      tag_263\n      jumpi\n      mload(0x40)\n      shl(0xe5, 0x461bcd)\n      dup2\n      mstore\n        /* \"#utility.yul\":15190:15192   */\n      0x20\n        /* \"@openzeppelin/contracts/security/Pausable.sol\":1829:1867  require(!paused(), \"Pausable: paused\") */\n      0x04\n      dup3\n      add\n        /* \"#utility.yul\":15172:15193   */\n      mstore\n        /* \"#utility.yul\":15229:15231   */\n      0x10\n        /* \"#utility.yul\":15209:15227   */\n      0x24\n      dup3\n      add\n        /* \"#utility.yul\":15202:15232   */\n      mstore\n      shl(0x82, 0x14185d5cd8589b194e881c185d5cd959)\n        /* \"#utility.yul\":15248:15266   */\n      0x44\n      dup3\n      add\n        /* \"#utility.yul\":15241:15287   */\n      mstore\n        /* \"#utility.yul\":15304:15322   */\n      0x64\n      add\n        /* \"@openzeppelin/contracts/security/Pausable.sol\":1829:1867  require(!paused(), \"Pausable: paused\") */\n      tag_241\n        /* \"#utility.yul\":14988:15328   */\n      jump\n        /* \"@openzeppelin/contracts/token/ERC20/ERC20.sol\":3296:3474  function transfer(address to, uint256 value) public virtual returns (bool) {... */\n    tag_254:\n        /* \"@openzeppelin/contracts/token/ERC20/ERC20.sol\":3365:3369  bool */\n      0x00\n        /* \"@openzeppelin/contracts/utils/Context.sol\":735:745  msg.sender */\n      caller\n        /* \"@openzeppelin/contracts/token/ERC20/ERC20.sol\":3419:3446  _transfer(owner, to, value) */\n      tag_223\n        /* \"@openzeppelin/contracts/utils/Context.sol\":735:745  msg.sender */\n      dup2\n        /* \"@openzeppelin/contracts/token/ERC20/ERC20.sol\":3436:3438  to */\n      dup6\n        /* \"@openzeppelin/contracts/token/ERC20/ERC20.sol\":3440:3445  value */\n      dup6\n        /* \"@openzeppelin/contracts/token/ERC20/ERC20.sol\":3419:3428  _transfer */\n      tag_231\n        /* \"@openzeppelin/contracts/token/ERC20/ERC20.sol\":3419:3446  _transfer(owner, to, value) */\n      jump\t// in\n        /* \"@openzeppelin/contracts/access/Ownable.sol\":1796:1958  function _checkOwner() internal view virtual {... */\n    tag_261:\n        /* \"@openzeppelin/contracts/access/Ownable.sol\":1710:1716  _owner */\n      and(sub(shl(0xa0, 0x01), 0x01), sload(0x05))\n        /* \"@openzeppelin/contracts/utils/Context.sol\":735:745  msg.sender */\n      caller\n        /* \"@openzeppelin/contracts/access/Ownable.sol\":1855:1878  owner() != _msgSender() */\n      eq\n        /* \"@openzeppelin/contracts/access/Ownable.sol\":1851:1952  if (owner() != _msgSender()) {... */\n      tag_263\n      jumpi\n        /* \"@openzeppelin/contracts/access/Ownable.sol\":1901:1941  OwnableUnauthorizedAccount(_msgSender()) */\n      mload(0x40)\n      shl(0xe0, 0x118cdaa7)\n      dup2\n      mstore\n        /* \"@openzeppelin/contracts/utils/Context.sol\":735:745  msg.sender */\n      caller\n        /* \"@openzeppelin/contracts/access/Ownable.sol\":1901:1941  OwnableUnauthorizedAccount(_msgSender()) */\n      0x04\n      dup3\n      add\n        /* \"#utility.yul\":3188:3239   */\n      mstore\n        /* \"#utility.yul\":3161:3179   */\n      0x24\n      add\n        /* \"@openzeppelin/contracts/access/Ownable.sol\":1901:1941  OwnableUnauthorizedAccount(_msgSender()) */\n      tag_241\n        /* \"#utility.yul\":3042:3245   */\n      jump\n        /* \"@openzeppelin/contracts/security/Pausable.sol\":2434:2551  function _unpause() internal virtual whenPaused {... */\n    tag_264:\n        /* \"@openzeppelin/contracts/security/Pausable.sol\":1487:1503  _requirePaused() */\n      tag_518\n        /* \"@openzeppelin/contracts/security/Pausable.sol\":1487:1501  _requirePaused */\n      tag_519\n        /* \"@openzeppelin/contracts/security/Pausable.sol\":1487:1503  _requirePaused() */\n      jump\t// in\n    tag_518:\n        /* \"@openzeppelin/contracts/security/Pausable.sol\":2492:2499  _paused */\n      0x07\n        /* \"@openzeppelin/contracts/security/Pausable.sol\":2492:2507  _paused = false */\n      dup1\n      sload\n      not(0xff)\n      and\n      swap1\n      sstore\n        /* \"@openzeppelin/contracts/security/Pausable.sol\":2522:2544  Unpaused(_msgSender()) */\n      0x5db9ee0a495bf2e6ff9c91a7834c1ba4fdd244a5e8aa4e537bd38aeae4b073aa\n        /* \"@openzeppelin/contracts/utils/Context.sol\":735:745  msg.sender */\n      caller\n        /* \"@openzeppelin/contracts/security/Pausable.sol\":2531:2543  _msgSender() */\n    tag_521:\n        /* \"@openzeppelin/contracts/security/Pausable.sol\":2522:2544  Unpaused(_msgSender()) */\n      mload(0x40)\n      sub(shl(0xa0, 0x01), 0x01)\n        /* \"#utility.yul\":3206:3238   */\n      swap1\n      swap2\n      and\n        /* \"#utility.yul\":3188:3239   */\n      dup2\n      mstore\n        /* \"#utility.yul\":3176:3178   */\n      0x20\n        /* \"#utility.yul\":3161:3179   */\n      add\n        /* \"@openzeppelin/contracts/security/Pausable.sol\":2522:2544  Unpaused(_msgSender()) */\n      mload(0x40)\n      dup1\n      swap2\n      sub\n      swap1\n      log1\n        /* \"@openzeppelin/contracts/security/Pausable.sol\":2434:2551  function _unpause() internal virtual whenPaused {... */\n      jump\t// out\n        /* \"@openzeppelin/contracts/token/ERC20/ERC20.sol\":7439:7647  function _mint(address account, uint256 value) internal {... */\n    tag_277:\n      sub(shl(0xa0, 0x01), 0x01)\n        /* \"@openzeppelin/contracts/token/ERC20/ERC20.sol\":7509:7530  account == address(0) */\n      dup3\n      and\n        /* \"@openzeppelin/contracts/token/ERC20/ERC20.sol\":7505:7596  if (account == address(0)) {... */\n      tag_524\n      jumpi\n        /* \"@openzeppelin/contracts/token/ERC20/ERC20.sol\":7553:7585  ERC20InvalidReceiver(address(0)) */\n      mload(0x40)\n      shl(0xe0, 0xec442f05)\n      dup2\n      mstore\n        /* \"@openzeppelin/contracts/token/ERC20/ERC20.sol\":7582:7583  0 */\n      0x00\n        /* \"@openzeppelin/contracts/token/ERC20/ERC20.sol\":7553:7585  ERC20InvalidReceiver(address(0)) */\n      0x04\n      dup3\n      add\n        /* \"#utility.yul\":3188:3239   */\n      mstore\n        /* \"#utility.yul\":3161:3179   */\n      0x24\n      add\n        /* \"@openzeppelin/contracts/token/ERC20/ERC20.sol\":7553:7585  ERC20InvalidReceiver(address(0)) */\n      tag_241\n        /* \"#utility.yul\":3042:3245   */\n      jump\n        /* \"@openzeppelin/contracts/token/ERC20/ERC20.sol\":7505:7596  if (account == address(0)) {... */\n    tag_524:\n        /* \"@openzeppelin/contracts/token/ERC20/ERC20.sol\":7605:7640  _update(address(0), account, value) */\n      tag_278\n        /* \"@openzeppelin/contracts/token/ERC20/ERC20.sol\":7621:7622  0 */\n      0x00\n        /* \"@openzeppelin/contracts/token/ERC20/ERC20.sol\":7625:7632  account */\n      dup4\n        /* \"@openzeppelin/contracts/token/ERC20/ERC20.sol\":7634:7639  value */\n      dup4\n        /* \"@openzeppelin/contracts/token/ERC20/ERC20.sol\":7605:7612  _update */\n      tag_497\n        /* \"@openzeppelin/contracts/token/ERC20/ERC20.sol\":7605:7640  _update(address(0), account, value) */\n      jump\t// in\n        /* \"@openzeppelin/contracts/token/ERC20/ERC20.sol\":7965:8171  function _burn(address account, uint256 value) internal {... */\n    tag_287:\n      sub(shl(0xa0, 0x01), 0x01)\n        /* \"@openzeppelin/contracts/token/ERC20/ERC20.sol\":8035:8056  account == address(0) */\n      dup3\n      and\n        /* \"@openzeppelin/contracts/token/ERC20/ERC20.sol\":8031:8120  if (account == address(0)) {... */\n      tag_528\n      jumpi\n        /* \"@openzeppelin/contracts/token/ERC20/ERC20.sol\":8079:8109  ERC20InvalidSender(address(0)) */\n      mload(0x40)\n      shl(0xe1, 0x4b637e8f)\n      dup2\n      mstore\n        /* \"@openzeppelin/contracts/token/ERC20/ERC20.sol\":8106:8107  0 */\n      0x00\n        /* \"@openzeppelin/contracts/token/ERC20/ERC20.sol\":8079:8109  ERC20InvalidSender(address(0)) */\n      0x04\n      dup3\n      add\n        /* \"#utility.yul\":3188:3239   */\n      mstore\n        /* \"#utility.yul\":3161:3179   */\n      0x24\n      add\n        /* \"@openzeppelin/contracts/token/ERC20/ERC20.sol\":8079:8109  ERC20InvalidSender(address(0)) */\n      tag_241\n        /* \"#utility.yul\":3042:3245   */\n      jump\n        /* \"@openzeppelin/contracts/token/ERC20/ERC20.sol\":8031:8120  if (account == address(0)) {... */\n    tag_528:\n        /* \"@openzeppelin/contracts/token/ERC20/ERC20.sol\":8129:8164  _update(account, address(0), value) */\n      tag_278\n        /* \"@openzeppelin/contracts/token/ERC20/ERC20.sol\":8137:8144  account */\n      dup3\n        /* \"@openzeppelin/contracts/token/ERC20/ERC20.sol\":8154:8155  0 */\n      0x00\n        /* \"@openzeppelin/contracts/token/ERC20/ERC20.sol\":8158:8163  value */\n      dup4\n        /* \"@openzeppelin/contracts/token/ERC20/ERC20.sol\":8129:8136  _update */\n      tag_497\n        /* \"@openzeppelin/contracts/token/ERC20/ERC20.sol\":8129:8164  _update(account, address(0), value) */\n      jump\t// in\n        /* \"@openzeppelin/contracts/access/Ownable.sol\":2912:3099  function _transferOwnership(address newOwner) internal virtual {... */\n    tag_311:\n        /* \"@openzeppelin/contracts/access/Ownable.sol\":3004:3010  _owner */\n      0x05\n      dup1\n      sload\n      sub(shl(0xa0, 0x01), 0x01)\n        /* \"@openzeppelin/contracts/access/Ownable.sol\":3020:3037  _owner = newOwner */\n      dup4\n      dup2\n      and\n      not(sub(shl(0xa0, 0x01), 0x01))\n      dup4\n      and\n      dup2\n      or\n      swap1\n      swap4\n      sstore\n        /* \"@openzeppelin/contracts/access/Ownable.sol\":3052:3092  OwnershipTransferred(oldOwner, newOwner) */\n      mload(0x40)\n        /* \"@openzeppelin/contracts/access/Ownable.sol\":3004:3010  _owner */\n      swap2\n      and\n      swap2\n        /* \"@openzeppelin/contracts/access/Ownable.sol\":3020:3037  _owner = newOwner */\n      swap1\n        /* \"@openzeppelin/contracts/access/Ownable.sol\":3004:3010  _owner */\n      dup3\n      swap1\n        /* \"@openzeppelin/contracts/access/Ownable.sol\":3052:3092  OwnershipTransferred(oldOwner, newOwner) */\n      0x8be0079c531659141344cd1fd0a4f28419497f9722a3daafe3b4186f6b6457e0\n      swap1\n        /* \"@openzeppelin/contracts/access/Ownable.sol\":2985:3001  address oldOwner */\n      0x00\n      swap1\n        /* \"@openzeppelin/contracts/access/Ownable.sol\":3052:3092  OwnershipTransferred(oldOwner, newOwner) */\n      log3\n        /* \"@openzeppelin/contracts/access/Ownable.sol\":2975:3099  {... */\n      pop\n        /* \"@openzeppelin/contracts/access/Ownable.sol\":2912:3099  function _transferOwnership(address newOwner) internal virtual {... */\n      pop\n      jump\t// out\n        /* \"@openzeppelin/contracts/security/Pausable.sol\":2187:2302  function _pause() internal virtual whenNotPaused {... */\n    tag_376:\n        /* \"@openzeppelin/contracts/security/Pausable.sol\":1240:1259  _requireNotPaused() */\n      tag_534\n        /* \"@openzeppelin/contracts/security/Pausable.sol\":1240:1257  _requireNotPaused */\n      tag_238\n        /* \"@openzeppelin/contracts/security/Pausable.sol\":1240:1259  _requireNotPaused() */\n      jump\t// in\n    tag_534:\n        /* \"@openzeppelin/contracts/security/Pausable.sol\":2246:2253  _paused */\n      0x07\n        /* \"@openzeppelin/contracts/security/Pausable.sol\":2246:2260  _paused = true */\n      dup1\n      sload\n      not(0xff)\n      and\n        /* \"@openzeppelin/contracts/security/Pausable.sol\":2256:2260  true */\n      0x01\n        /* \"@openzeppelin/contracts/security/Pausable.sol\":2246:2260  _paused = true */\n      or\n      swap1\n      sstore\n        /* \"@openzeppelin/contracts/security/Pausable.sol\":2275:2295  Paused(_msgSender()) */\n      0x62e78cea01bee320cd4e420270b5ea74000d11b0c9f74754ebdbfc544b05a258\n        /* \"@openzeppelin/contracts/security/Pausable.sol\":2282:2294  _msgSender() */\n      tag_521\n        /* \"@openzeppelin/contracts/utils/Context.sol\":735:745  msg.sender */\n      caller\n      swap1\n        /* \"@openzeppelin/contracts/utils/Context.sol\":656:752  function _msgSender() internal view virtual returns (address) {... */\n      jump\n        /* \"@openzeppelin/contracts/utils/math/SafeMath.sol\":2756:2852  function add(uint256 a, uint256 b) internal pure returns (uint256) {... */\n    tag_392:\n        /* \"@openzeppelin/contracts/utils/math/SafeMath.sol\":2814:2821  uint256 */\n      0x00\n        /* \"@openzeppelin/contracts/utils/math/SafeMath.sol\":2840:2845  a + b */\n      tag_226\n        /* \"@openzeppelin/contracts/utils/math/SafeMath.sol\":2844:2845  b */\n      dup3\n        /* \"@openzeppelin/contracts/utils/math/SafeMath.sol\":2840:2841  a */\n      dup5\n        /* \"@openzeppelin/contracts/utils/math/SafeMath.sol\":2840:2845  a + b */\n      tag_540\n      jump\t// in\n        /* \"@openzeppelin/contracts/token/ERC20/ERC20.sol\":9682:10114  function _approve(address owner, address spender, uint256 value, bool emitEvent) internal virtual {... */\n    tag_483:\n      sub(shl(0xa0, 0x01), 0x01)\n        /* \"@openzeppelin/contracts/token/ERC20/ERC20.sol\":9794:9813  owner == address(0) */\n      dup5\n      and\n        /* \"@openzeppelin/contracts/token/ERC20/ERC20.sol\":9790:9879  if (owner == address(0)) {... */\n      tag_542\n      jumpi\n        /* \"@openzeppelin/contracts/token/ERC20/ERC20.sol\":9836:9868  ERC20InvalidApprover(address(0)) */\n      mload(0x40)\n      shl(0xe0, 0xe602df05)\n      dup2\n      mstore\n        /* \"@openzeppelin/contracts/token/ERC20/ERC20.sol\":9865:9866  0 */\n      0x00\n        /* \"@openzeppelin/contracts/token/ERC20/ERC20.sol\":9836:9868  ERC20InvalidApprover(address(0)) */\n      0x04\n      dup3\n      add\n        /* \"#utility.yul\":3188:3239   */\n      mstore\n        /* \"#utility.yul\":3161:3179   */\n      0x24\n      add\n        /* \"@openzeppelin/contracts/token/ERC20/ERC20.sol\":9836:9868  ERC20InvalidApprover(address(0)) */\n      tag_241\n        /* \"#utility.yul\":3042:3245   */\n      jump\n        /* \"@openzeppelin/contracts/token/ERC20/ERC20.sol\":9790:9879  if (owner == address(0)) {... */\n    tag_542:\n      sub(shl(0xa0, 0x01), 0x01)\n        /* \"@openzeppelin/contracts/token/ERC20/ERC20.sol\":9892:9913  spender == address(0) */\n      dup4\n      and\n        /* \"@openzeppelin/contracts/token/ERC20/ERC20.sol\":9888:9978  if (spender == address(0)) {... */\n      tag_544\n      jumpi\n        /* \"@openzeppelin/contracts/token/ERC20/ERC20.sol\":9936:9967  ERC20InvalidSpender(address(0)) */\n      mload(0x40)\n      shl(0xe1, 0x4a1406b1)\n      dup2\n      mstore\n        /* \"@openzeppelin/contracts/token/ERC20/ERC20.sol\":9964:9965  0 */\n      0x00\n        /* \"@openzeppelin/contracts/token/ERC20/ERC20.sol\":9936:9967  ERC20InvalidSpender(address(0)) */\n      0x04\n      dup3\n      add\n        /* \"#utility.yul\":3188:3239   */\n      mstore\n        /* \"#utility.yul\":3161:3179   */\n      0x24\n      add\n        /* \"@openzeppelin/contracts/token/ERC20/ERC20.sol\":9936:9967  ERC20InvalidSpender(address(0)) */\n      tag_241\n        /* \"#utility.yul\":3042:3245   */\n      jump\n        /* \"@openzeppelin/contracts/token/ERC20/ERC20.sol\":9888:9978  if (spender == address(0)) {... */\n    tag_544:\n      sub(shl(0xa0, 0x01), 0x01)\n        /* \"@openzeppelin/contracts/token/ERC20/ERC20.sol\":9987:10005  _allowances[owner] */\n      dup1\n      dup6\n      and\n      0x00\n      swap1\n      dup2\n      mstore\n        /* \"@openzeppelin/contracts/token/ERC20/ERC20.sol\":9987:9998  _allowances */\n      0x01\n        /* \"@openzeppelin/contracts/token/ERC20/ERC20.sol\":9987:10005  _allowances[owner] */\n      0x20\n      swap1\n      dup2\n      mstore\n      0x40\n      dup1\n      dup4\n      keccak256\n        /* \"@openzeppelin/contracts/token/ERC20/ERC20.sol\":9987:10014  _allowances[owner][spender] */\n      swap4\n      dup8\n      and\n      dup4\n      mstore\n      swap3\n      swap1\n      mstore\n      keccak256\n        /* \"@openzeppelin/contracts/token/ERC20/ERC20.sol\":9987:10022  _allowances[owner][spender] = value */\n      dup3\n      swap1\n      sstore\n        /* \"@openzeppelin/contracts/token/ERC20/ERC20.sol\":10032:10108  if (emitEvent) {... */\n      dup1\n      iszero\n      tag_490\n      jumpi\n        /* \"@openzeppelin/contracts/token/ERC20/ERC20.sol\":10082:10089  spender */\n      dup3\n      sub(shl(0xa0, 0x01), 0x01)\n        /* \"@openzeppelin/contracts/token/ERC20/ERC20.sol\":10066:10097  Approval(owner, spender, value) */\n      and\n        /* \"@openzeppelin/contracts/token/ERC20/ERC20.sol\":10075:10080  owner */\n      dup5\n      sub(shl(0xa0, 0x01), 0x01)\n        /* \"@openzeppelin/contracts/token/ERC20/ERC20.sol\":10066:10097  Approval(owner, spender, value) */\n      and\n      0x8c5be1e5ebec7d5bd14f71427d1e84f3dd0314c0f7b2291e5b200ac8c7c3b925\n        /* \"@openzeppelin/contracts/token/ERC20/ERC20.sol\":10091:10096  value */\n      dup5\n        /* \"@openzeppelin/contracts/token/ERC20/ERC20.sol\":10066:10097  Approval(owner, spender, value) */\n      mload(0x40)\n      tag_547\n      swap2\n        /* \"#utility.yul\":160:185   */\n      dup2\n      mstore\n        /* \"#utility.yul\":148:150   */\n      0x20\n        /* \"#utility.yul\":133:151   */\n      add\n      swap1\n        /* \"#utility.yul\":14:191   */\n      jump\n        /* \"@openzeppelin/contracts/token/ERC20/ERC20.sol\":10066:10097  Approval(owner, spender, value) */\n    tag_547:\n      mload(0x40)\n      dup1\n      swap2\n      sub\n      swap1\n      log3\n        /* \"@openzeppelin/contracts/token/ERC20/ERC20.sol\":9682:10114  function _approve(address owner, address spender, uint256 value, bool emitEvent) internal virtual {... */\n      pop\n      pop\n      pop\n      pop\n      jump\t// out\n        /* \"@openzeppelin/contracts/token/ERC20/ERC20.sol\":5989:7096  function _update(address from, address to, uint256 value) internal virtual {... */\n    tag_497:\n      sub(shl(0xa0, 0x01), 0x01)\n        /* \"@openzeppelin/contracts/token/ERC20/ERC20.sol\":6078:6096  from == address(0) */\n      dup4\n      and\n        /* \"@openzeppelin/contracts/token/ERC20/ERC20.sol\":6074:6614  if (from == address(0)) {... */\n      tag_549\n      jumpi\n        /* \"@openzeppelin/contracts/token/ERC20/ERC20.sol\":6230:6235  value */\n      dup1\n        /* \"@openzeppelin/contracts/token/ERC20/ERC20.sol\":6214:6226  _totalSupply */\n      0x02\n      0x00\n        /* \"@openzeppelin/contracts/token/ERC20/ERC20.sol\":6214:6235  _totalSupply += value */\n      dup3\n      dup3\n      sload\n      tag_550\n      swap2\n      swap1\n      tag_540\n      jump\t// in\n    tag_550:\n      swap1\n      swap2\n      sstore\n      pop\n        /* \"@openzeppelin/contracts/token/ERC20/ERC20.sol\":6074:6614  if (from == address(0)) {... */\n      tag_551\n      swap1\n      pop\n      jump\n    tag_549:\n      sub(shl(0xa0, 0x01), 0x01)\n        /* \"@openzeppelin/contracts/token/ERC20/ERC20.sol\":6288:6303  _balances[from] */\n      dup4\n      and\n        /* \"@openzeppelin/contracts/token/ERC20/ERC20.sol\":6266:6285  uint256 fromBalance */\n      0x00\n        /* \"@openzeppelin/contracts/token/ERC20/ERC20.sol\":6288:6303  _balances[from] */\n      swap1\n      dup2\n      mstore\n      0x20\n      dup2\n      swap1\n      mstore\n      0x40\n      swap1\n      keccak256\n      sload\n        /* \"@openzeppelin/contracts/token/ERC20/ERC20.sol\":6321:6340  fromBalance < value */\n      dup2\n      dup2\n      lt\n        /* \"@openzeppelin/contracts/token/ERC20/ERC20.sol\":6317:6432  if (fromBalance < value) {... */\n      iszero\n      tag_552\n      jumpi\n        /* \"@openzeppelin/contracts/token/ERC20/ERC20.sol\":6367:6417  ERC20InsufficientBalance(from, fromBalance, value) */\n      mload(0x40)\n      shl(0xe2, 0x391434e3)\n      dup2\n      mstore\n      sub(shl(0xa0, 0x01), 0x01)\n        /* \"#utility.yul\":14498:14530   */\n      dup6\n      and\n        /* \"@openzeppelin/contracts/token/ERC20/ERC20.sol\":6367:6417  ERC20InsufficientBalance(from, fromBalance, value) */\n      0x04\n      dup3\n      add\n        /* \"#utility.yul\":14480:14531   */\n      mstore\n        /* \"#utility.yul\":14547:14565   */\n      0x24\n      dup2\n      add\n        /* \"#utility.yul\":14540:14574   */\n      dup3\n      swap1\n      mstore\n        /* \"#utility.yul\":14590:14608   */\n      0x44\n      dup2\n      add\n        /* \"#utility.yul\":14583:14617   */\n      dup4\n      swap1\n      mstore\n        /* \"#utility.yul\":14453:14471   */\n      0x64\n      add\n        /* \"@openzeppelin/contracts/token/ERC20/ERC20.sol\":6367:6417  ERC20InsufficientBalance(from, fromBalance, value) */\n      tag_241\n        /* \"#utility.yul\":14278:14623   */\n      jump\n        /* \"@openzeppelin/contracts/token/ERC20/ERC20.sol\":6317:6432  if (fromBalance < value) {... */\n    tag_552:\n      sub(shl(0xa0, 0x01), 0x01)\n        /* \"@openzeppelin/contracts/token/ERC20/ERC20.sol\":6552:6567  _balances[from] */\n      dup5\n      and\n        /* \"@openzeppelin/contracts/token/ERC20/ERC20.sol\":6552:6561  _balances */\n      0x00\n        /* \"@openzeppelin/contracts/token/ERC20/ERC20.sol\":6552:6567  _balances[from] */\n      swap1\n      dup2\n      mstore\n      0x20\n      dup2\n      swap1\n      mstore\n      0x40\n      swap1\n      keccak256\n        /* \"@openzeppelin/contracts/token/ERC20/ERC20.sol\":6570:6589  fromBalance - value */\n      swap1\n      dup3\n      swap1\n      sub\n        /* \"@openzeppelin/contracts/token/ERC20/ERC20.sol\":6552:6589  _balances[from] = fromBalance - value */\n      swap1\n      sstore\n        /* \"@openzeppelin/contracts/token/ERC20/ERC20.sol\":6074:6614  if (from == address(0)) {... */\n    tag_551:\n      sub(shl(0xa0, 0x01), 0x01)\n        /* \"@openzeppelin/contracts/token/ERC20/ERC20.sol\":6628:6644  to == address(0) */\n      dup3\n      and\n        /* \"@openzeppelin/contracts/token/ERC20/ERC20.sol\":6624:7049  if (to == address(0)) {... */\n      tag_554\n      jumpi\n        /* \"@openzeppelin/contracts/token/ERC20/ERC20.sol\":6791:6803  _totalSupply */\n      0x02\n        /* \"@openzeppelin/contracts/token/ERC20/ERC20.sol\":6791:6812  _totalSupply -= value */\n      dup1\n      sload\n      dup3\n      swap1\n      sub\n      swap1\n      sstore\n        /* \"@openzeppelin/contracts/token/ERC20/ERC20.sol\":6624:7049  if (to == address(0)) {... */\n      jump(tag_555)\n    tag_554:\n      sub(shl(0xa0, 0x01), 0x01)\n        /* \"@openzeppelin/contracts/token/ERC20/ERC20.sol\":7002:7015  _balances[to] */\n      dup3\n      and\n        /* \"@openzeppelin/contracts/token/ERC20/ERC20.sol\":7002:7011  _balances */\n      0x00\n        /* \"@openzeppelin/contracts/token/ERC20/ERC20.sol\":7002:7015  _balances[to] */\n      swap1\n      dup2\n      mstore\n      0x20\n      dup2\n      swap1\n      mstore\n      0x40\n      swap1\n      keccak256\n        /* \"@openzeppelin/contracts/token/ERC20/ERC20.sol\":7002:7024  _balances[to] += value */\n      dup1\n      sload\n      dup3\n      add\n      swap1\n      sstore\n        /* \"@openzeppelin/contracts/token/ERC20/ERC20.sol\":6624:7049  if (to == address(0)) {... */\n    tag_555:\n        /* \"@openzeppelin/contracts/token/ERC20/ERC20.sol\":7079:7081  to */\n      dup2\n      sub(shl(0xa0, 0x01), 0x01)\n        /* \"@openzeppelin/contracts/token/ERC20/ERC20.sol\":7064:7089  Transfer(from, to, value) */\n      and\n        /* \"@openzeppelin/contracts/token/ERC20/ERC20.sol\":7073:7077  from */\n      dup4\n      sub(shl(0xa0, 0x01), 0x01)\n        /* \"@openzeppelin/contracts/token/ERC20/ERC20.sol\":7064:7089  Transfer(from, to, value) */\n      and\n      0xddf252ad1be2c89b69c2b068fc378daa952ba7f163c4a11628f55a4df523b3ef\n        /* \"@openzeppelin/contracts/token/ERC20/ERC20.sol\":7083:7088  value */\n      dup4\n        /* \"@openzeppelin/contracts/token/ERC20/ERC20.sol\":7064:7089  Transfer(from, to, value) */\n      mload(0x40)\n      tag_556\n      swap2\n        /* \"#utility.yul\":160:185   */\n      dup2\n      mstore\n        /* \"#utility.yul\":148:150   */\n      0x20\n        /* \"#utility.yul\":133:151   */\n      add\n      swap1\n        /* \"#utility.yul\":14:191   */\n      jump\n        /* \"@openzeppelin/contracts/token/ERC20/ERC20.sol\":7064:7089  Transfer(from, to, value) */\n    tag_556:\n      mload(0x40)\n      dup1\n      swap2\n      sub\n      swap1\n      log3\n        /* \"@openzeppelin/contracts/token/ERC20/ERC20.sol\":5989:7096  function _update(address from, address to, uint256 value) internal virtual {... */\n      pop\n      pop\n      pop\n      jump\t// out\n        /* \"@openzeppelin/contracts/security/Pausable.sol\":1946:2052  function _requirePaused() internal view virtual {... */\n    tag_519:\n        /* \"@openzeppelin/contracts/security/Pausable.sol\":1686:1693  _paused */\n      and(0xff, sload(0x07))\n        /* \"@openzeppelin/contracts/security/Pausable.sol\":2004:2045  require(paused(), \"Pausable: not paused\") */\n      tag_263\n      jumpi\n      mload(0x40)\n      shl(0xe5, 0x461bcd)\n      dup2\n      mstore\n        /* \"#utility.yul\":15665:15667   */\n      0x20\n        /* \"@openzeppelin/contracts/security/Pausable.sol\":2004:2045  require(paused(), \"Pausable: not paused\") */\n      0x04\n      dup3\n      add\n        /* \"#utility.yul\":15647:15668   */\n      mstore\n        /* \"#utility.yul\":15704:15706   */\n      0x14\n        /* \"#utility.yul\":15684:15702   */\n      0x24\n      dup3\n      add\n        /* \"#utility.yul\":15677:15707   */\n      mstore\n      shl(0x62, 0x14185d5cd8589b194e881b9bdd081c185d5cd959)\n        /* \"#utility.yul\":15723:15741   */\n      0x44\n      dup3\n      add\n        /* \"#utility.yul\":15716:15766   */\n      mstore\n        /* \"#utility.yul\":15783:15801   */\n      0x64\n      add\n        /* \"@openzeppelin/contracts/security/Pausable.sol\":2004:2045  require(paused(), \"Pausable: not paused\") */\n      tag_241\n        /* \"#utility.yul\":15463:15807   */\n      jump\n        /* \"#utility.yul\":196:369   */\n    tag_562:\n        /* \"#utility.yul\":264:284   */\n      dup1\n      calldataload\n      sub(shl(0xa0, 0x01), 0x01)\n        /* \"#utility.yul\":313:344   */\n      dup2\n      and\n        /* \"#utility.yul\":303:345   */\n      dup2\n      eq\n        /* \"#utility.yul\":293:363   */\n      tag_570\n      jumpi\n        /* \"#utility.yul\":359:360   */\n      0x00\n        /* \"#utility.yul\":356:357   */\n      dup1\n        /* \"#utility.yul\":349:361   */\n      revert\n        /* \"#utility.yul\":293:363   */\n    tag_570:\n        /* \"#utility.yul\":196:369   */\n      swap2\n      swap1\n      pop\n      jump\t// out\n        /* \"#utility.yul\":374:560   */\n    tag_59:\n        /* \"#utility.yul\":433:439   */\n      0x00\n        /* \"#utility.yul\":486:488   */\n      0x20\n        /* \"#utility.yul\":474:483   */\n      dup3\n        /* \"#utility.yul\":465:472   */\n      dup5\n        /* \"#utility.yul\":461:484   */\n      sub\n        /* \"#utility.yul\":457:489   */\n      slt\n        /* \"#utility.yul\":454:506   */\n      iszero\n      tag_572\n      jumpi\n        /* \"#utility.yul\":502:503   */\n      0x00\n        /* \"#utility.yul\":499:500   */\n      dup1\n        /* \"#utility.yul\":492:504   */\n      revert\n        /* \"#utility.yul\":454:506   */\n    tag_572:\n        /* \"#utility.yul\":525:554   */\n      tag_226\n        /* \"#utility.yul\":544:553   */\n      dup3\n        /* \"#utility.yul\":525:554   */\n      tag_562\n      jump\t// in\n        /* \"#utility.yul\":565:815   */\n    tag_563:\n        /* \"#utility.yul\":650:651   */\n      0x00\n        /* \"#utility.yul\":660:773   */\n    tag_575:\n        /* \"#utility.yul\":674:680   */\n      dup4\n        /* \"#utility.yul\":671:672   */\n      dup2\n        /* \"#utility.yul\":668:681   */\n      lt\n        /* \"#utility.yul\":660:773   */\n      iszero\n      tag_577\n      jumpi\n        /* \"#utility.yul\":750:761   */\n      dup2\n      dup2\n      add\n        /* \"#utility.yul\":744:762   */\n      mload\n        /* \"#utility.yul\":731:742   */\n      dup4\n      dup3\n      add\n        /* \"#utility.yul\":724:763   */\n      mstore\n        /* \"#utility.yul\":696:698   */\n      0x20\n        /* \"#utility.yul\":689:699   */\n      add\n        /* \"#utility.yul\":660:773   */\n      jump(tag_575)\n    tag_577:\n      pop\n      pop\n        /* \"#utility.yul\":807:808   */\n      0x00\n        /* \"#utility.yul\":789:805   */\n      swap2\n      add\n        /* \"#utility.yul\":782:809   */\n      mstore\n        /* \"#utility.yul\":565:815   */\n      jump\t// out\n        /* \"#utility.yul\":820:1091   */\n    tag_564:\n        /* \"#utility.yul\":862:865   */\n      0x00\n        /* \"#utility.yul\":900:905   */\n      dup2\n        /* \"#utility.yul\":894:906   */\n      mload\n        /* \"#utility.yul\":927:933   */\n      dup1\n        /* \"#utility.yul\":922:925   */\n      dup5\n        /* \"#utility.yul\":915:934   */\n      mstore\n        /* \"#utility.yul\":943:1019   */\n      tag_579\n        /* \"#utility.yul\":1012:1018   */\n      dup2\n        /* \"#utility.yul\":1005:1009   */\n      0x20\n        /* \"#utility.yul\":1000:1003   */\n      dup7\n        /* \"#utility.yul\":996:1010   */\n      add\n        /* \"#utility.yul\":989:993   */\n      0x20\n        /* \"#utility.yul\":982:987   */\n      dup7\n        /* \"#utility.yul\":978:994   */\n      add\n        /* \"#utility.yul\":943:1019   */\n      tag_563\n      jump\t// in\n    tag_579:\n        /* \"#utility.yul\":1073:1075   */\n      0x1f\n        /* \"#utility.yul\":1052:1067   */\n      add\n      not(0x1f)\n        /* \"#utility.yul\":1048:1077   */\n      and\n        /* \"#utility.yul\":1039:1078   */\n      swap3\n      swap1\n      swap3\n      add\n        /* \"#utility.yul\":1080:1084   */\n      0x20\n        /* \"#utility.yul\":1035:1085   */\n      add\n      swap3\n        /* \"#utility.yul\":820:1091   */\n      swap2\n      pop\n      pop\n      jump\t// out\n        /* \"#utility.yul\":1096:1316   */\n    tag_65:\n        /* \"#utility.yul\":1245:1247   */\n      0x20\n        /* \"#utility.yul\":1234:1243   */\n      dup2\n        /* \"#utility.yul\":1227:1248   */\n      mstore\n        /* \"#utility.yul\":1208:1212   */\n      0x00\n        /* \"#utility.yul\":1265:1310   */\n      tag_226\n        /* \"#utility.yul\":1306:1308   */\n      0x20\n        /* \"#utility.yul\":1295:1304   */\n      dup4\n        /* \"#utility.yul\":1291:1309   */\n      add\n        /* \"#utility.yul\":1283:1289   */\n      dup5\n        /* \"#utility.yul\":1265:1310   */\n      tag_564\n      jump\t// in\n        /* \"#utility.yul\":1321:1621   */\n    tag_68:\n        /* \"#utility.yul\":1389:1395   */\n      0x00\n        /* \"#utility.yul\":1397:1403   */\n      dup1\n        /* \"#utility.yul\":1450:1452   */\n      0x40\n        /* \"#utility.yul\":1438:1447   */\n      dup4\n        /* \"#utility.yul\":1429:1436   */\n      dup6\n        /* \"#utility.yul\":1425:1448   */\n      sub\n        /* \"#utility.yul\":1421:1453   */\n      slt\n        /* \"#utility.yul\":1418:1470   */\n      iszero\n      tag_583\n      jumpi\n        /* \"#utility.yul\":1466:1467   */\n      0x00\n        /* \"#utility.yul\":1463:1464   */\n      dup1\n        /* \"#utility.yul\":1456:1468   */\n      revert\n        /* \"#utility.yul\":1418:1470   */\n    tag_583:\n        /* \"#utility.yul\":1489:1518   */\n      tag_584\n        /* \"#utility.yul\":1508:1517   */\n      dup4\n        /* \"#utility.yul\":1489:1518   */\n      tag_562\n      jump\t// in\n    tag_584:\n        /* \"#utility.yul\":1479:1518   */\n      swap5\n        /* \"#utility.yul\":1587:1589   */\n      0x20\n        /* \"#utility.yul\":1572:1590   */\n      swap4\n      swap1\n      swap4\n      add\n        /* \"#utility.yul\":1559:1591   */\n      calldataload\n      swap4\n      pop\n      pop\n      pop\n        /* \"#utility.yul\":1321:1621   */\n      jump\t// out\n        /* \"#utility.yul\":1818:2192   */\n    tag_77:\n        /* \"#utility.yul\":1895:1901   */\n      0x00\n        /* \"#utility.yul\":1903:1909   */\n      dup1\n        /* \"#utility.yul\":1911:1917   */\n      0x00\n        /* \"#utility.yul\":1964:1966   */\n      0x60\n        /* \"#utility.yul\":1952:1961   */\n      dup5\n        /* \"#utility.yul\":1943:1950   */\n      dup7\n        /* \"#utility.yul\":1939:1962   */\n      sub\n        /* \"#utility.yul\":1935:1967   */\n      slt\n        /* \"#utility.yul\":1932:1984   */\n      iszero\n      tag_587\n      jumpi\n        /* \"#utility.yul\":1980:1981   */\n      0x00\n        /* \"#utility.yul\":1977:1978   */\n      dup1\n        /* \"#utility.yul\":1970:1982   */\n      revert\n        /* \"#utility.yul\":1932:1984   */\n    tag_587:\n        /* \"#utility.yul\":2003:2032   */\n      tag_588\n        /* \"#utility.yul\":2022:2031   */\n      dup5\n        /* \"#utility.yul\":2003:2032   */\n      tag_562\n      jump\t// in\n    tag_588:\n        /* \"#utility.yul\":1993:2032   */\n      swap3\n      pop\n        /* \"#utility.yul\":2051:2089   */\n      tag_589\n        /* \"#utility.yul\":2085:2087   */\n      0x20\n        /* \"#utility.yul\":2074:2083   */\n      dup6\n        /* \"#utility.yul\":2070:2088   */\n      add\n        /* \"#utility.yul\":2051:2089   */\n      tag_562\n      jump\t// in\n    tag_589:\n        /* \"#utility.yul\":1818:2192   */\n      swap3\n      swap6\n        /* \"#utility.yul\":2041:2089   */\n      swap3\n      swap5\n      pop\n      pop\n      pop\n        /* \"#utility.yul\":2158:2160   */\n      0x40\n        /* \"#utility.yul\":2143:2161   */\n      swap2\n      swap1\n      swap2\n      add\n        /* \"#utility.yul\":2130:2162   */\n      calldataload\n      swap1\n        /* \"#utility.yul\":1818:2192   */\n      jump\t// out\n        /* \"#utility.yul\":2386:2806   */\n    tag_93:\n        /* \"#utility.yul\":2463:2469   */\n      0x00\n        /* \"#utility.yul\":2471:2477   */\n      dup1\n        /* \"#utility.yul\":2479:2485   */\n      0x00\n        /* \"#utility.yul\":2532:2534   */\n      0x60\n        /* \"#utility.yul\":2520:2529   */\n      dup5\n        /* \"#utility.yul\":2511:2518   */\n      dup7\n        /* \"#utility.yul\":2507:2530   */\n      sub\n        /* \"#utility.yul\":2503:2535   */\n      slt\n        /* \"#utility.yul\":2500:2552   */\n      iszero\n      tag_592\n      jumpi\n        /* \"#utility.yul\":2548:2549   */\n      0x00\n        /* \"#utility.yul\":2545:2546   */\n      dup1\n        /* \"#utility.yul\":2538:2550   */\n      revert\n        /* \"#utility.yul\":2500:2552   */\n    tag_592:\n        /* \"#utility.yul\":2571:2600   */\n      tag_593\n        /* \"#utility.yul\":2590:2599   */\n      dup5\n        /* \"#utility.yul\":2571:2600   */\n      tag_562\n      jump\t// in\n    tag_593:\n        /* \"#utility.yul\":2561:2600   */\n      swap6\n        /* \"#utility.yul\":2669:2671   */\n      0x20\n        /* \"#utility.yul\":2654:2672   */\n      dup6\n      add\n        /* \"#utility.yul\":2641:2673   */\n      calldataload\n      swap6\n      pop\n        /* \"#utility.yul\":2770:2772   */\n      0x40\n        /* \"#utility.yul\":2755:2773   */\n      swap1\n      swap5\n      add\n        /* \"#utility.yul\":2742:2774   */\n      calldataload\n      swap4\n        /* \"#utility.yul\":2386:2806   */\n      swap3\n      pop\n      pop\n      pop\n      jump\t// out\n        /* \"#utility.yul\":2811:3037   */\n    tag_103:\n        /* \"#utility.yul\":2870:2876   */\n      0x00\n        /* \"#utility.yul\":2923:2925   */\n      0x20\n        /* \"#utility.yul\":2911:2920   */\n      dup3\n        /* \"#utility.yul\":2902:2909   */\n      dup5\n        /* \"#utility.yul\":2898:2921   */\n      sub\n        /* \"#utility.yul\":2894:2926   */\n      slt\n        /* \"#utility.yul\":2891:2943   */\n      iszero\n      tag_595\n      jumpi\n        /* \"#utility.yul\":2939:2940   */\n      0x00\n        /* \"#utility.yul\":2936:2937   */\n      dup1\n        /* \"#utility.yul\":2929:2941   */\n      revert\n        /* \"#utility.yul\":2891:2943   */\n    tag_595:\n      pop\n        /* \"#utility.yul\":2984:3007   */\n      calldataload\n      swap2\n        /* \"#utility.yul\":2811:3037   */\n      swap1\n      pop\n      jump\t// out\n        /* \"#utility.yul\":3718:3845   */\n    tag_565:\n        /* \"#utility.yul\":3779:3789   */\n      0x4e487b71\n        /* \"#utility.yul\":3774:3777   */\n      0xe0\n        /* \"#utility.yul\":3770:3790   */\n      shl\n        /* \"#utility.yul\":3767:3768   */\n      0x00\n        /* \"#utility.yul\":3760:3791   */\n      mstore\n        /* \"#utility.yul\":3810:3814   */\n      0x41\n        /* \"#utility.yul\":3807:3808   */\n      0x04\n        /* \"#utility.yul\":3800:3815   */\n      mstore\n        /* \"#utility.yul\":3834:3838   */\n      0x24\n        /* \"#utility.yul\":3831:3832   */\n      0x00\n        /* \"#utility.yul\":3824:3839   */\n      revert\n        /* \"#utility.yul\":3850:4879   */\n    tag_133:\n        /* \"#utility.yul\":3928:3934   */\n      0x00\n        /* \"#utility.yul\":3936:3942   */\n      dup1\n        /* \"#utility.yul\":3989:3991   */\n      0x40\n        /* \"#utility.yul\":3977:3986   */\n      dup4\n        /* \"#utility.yul\":3968:3975   */\n      dup6\n        /* \"#utility.yul\":3964:3987   */\n      sub\n        /* \"#utility.yul\":3960:3992   */\n      slt\n        /* \"#utility.yul\":3957:4009   */\n      iszero\n      tag_600\n      jumpi\n        /* \"#utility.yul\":4005:4006   */\n      0x00\n        /* \"#utility.yul\":4002:4003   */\n      dup1\n        /* \"#utility.yul\":3995:4007   */\n      revert\n        /* \"#utility.yul\":3957:4009   */\n    tag_600:\n        /* \"#utility.yul\":4045:4054   */\n      dup3\n        /* \"#utility.yul\":4032:4055   */\n      calldataload\n        /* \"#utility.yul\":4078:4096   */\n      0xffffffffffffffff\n        /* \"#utility.yul\":4070:4076   */\n      dup2\n        /* \"#utility.yul\":4067:4097   */\n      gt\n        /* \"#utility.yul\":4064:4114   */\n      iszero\n      tag_601\n      jumpi\n        /* \"#utility.yul\":4110:4111   */\n      0x00\n        /* \"#utility.yul\":4107:4108   */\n      dup1\n        /* \"#utility.yul\":4100:4112   */\n      revert\n        /* \"#utility.yul\":4064:4114   */\n    tag_601:\n        /* \"#utility.yul\":4133:4155   */\n      dup4\n      add\n        /* \"#utility.yul\":4186:4190   */\n      0x1f\n        /* \"#utility.yul\":4178:4191   */\n      dup2\n      add\n        /* \"#utility.yul\":4174:4201   */\n      dup6\n      sgt\n        /* \"#utility.yul\":4164:4219   */\n      tag_602\n      jumpi\n        /* \"#utility.yul\":4215:4216   */\n      0x00\n        /* \"#utility.yul\":4212:4213   */\n      dup1\n        /* \"#utility.yul\":4205:4217   */\n      revert\n        /* \"#utility.yul\":4164:4219   */\n    tag_602:\n        /* \"#utility.yul\":4255:4257   */\n      dup1\n        /* \"#utility.yul\":4242:4258   */\n      calldataload\n        /* \"#utility.yul\":4281:4299   */\n      0xffffffffffffffff\n        /* \"#utility.yul\":4273:4279   */\n      dup2\n        /* \"#utility.yul\":4270:4300   */\n      gt\n        /* \"#utility.yul\":4267:4323   */\n      iszero\n      tag_604\n      jumpi\n        /* \"#utility.yul\":4303:4321   */\n      tag_604\n      tag_565\n      jump\t// in\n    tag_604:\n        /* \"#utility.yul\":4352:4354   */\n      0x40\n        /* \"#utility.yul\":4346:4355   */\n      mload\n        /* \"#utility.yul\":4444:4446   */\n      0x1f\n        /* \"#utility.yul\":4406:4423   */\n      dup3\n      add\n      not(0x1f)\n        /* \"#utility.yul\":4402:4433   */\n      swap1\n      dup2\n      and\n        /* \"#utility.yul\":4435:4437   */\n      0x3f\n        /* \"#utility.yul\":4398:4438   */\n      add\n        /* \"#utility.yul\":4394:4448   */\n      and\n        /* \"#utility.yul\":4382:4449   */\n      dup2\n      add\n        /* \"#utility.yul\":4479:4497   */\n      0xffffffffffffffff\n        /* \"#utility.yul\":4464:4498   */\n      dup2\n      gt\n        /* \"#utility.yul\":4500:4522   */\n      dup3\n      dup3\n      lt\n        /* \"#utility.yul\":4461:4523   */\n      or\n        /* \"#utility.yul\":4458:4546   */\n      iszero\n      tag_606\n      jumpi\n        /* \"#utility.yul\":4526:4544   */\n      tag_606\n      tag_565\n      jump\t// in\n    tag_606:\n        /* \"#utility.yul\":4562:4564   */\n      0x40\n        /* \"#utility.yul\":4555:4577   */\n      mstore\n        /* \"#utility.yul\":4586:4608   */\n      dup2\n      dup2\n      mstore\n        /* \"#utility.yul\":4627:4642   */\n      dup3\n      dup3\n      add\n        /* \"#utility.yul\":4644:4648   */\n      0x20\n        /* \"#utility.yul\":4623:4649   */\n      add\n        /* \"#utility.yul\":4620:4659   */\n      dup8\n      lt\n        /* \"#utility.yul\":4617:4676   */\n      iszero\n      tag_607\n      jumpi\n        /* \"#utility.yul\":4672:4673   */\n      0x00\n        /* \"#utility.yul\":4669:4670   */\n      dup1\n        /* \"#utility.yul\":4662:4674   */\n      revert\n        /* \"#utility.yul\":4617:4676   */\n    tag_607:\n        /* \"#utility.yul\":4732:4738   */\n      dup2\n        /* \"#utility.yul\":4725:4729   */\n      0x20\n        /* \"#utility.yul\":4721:4723   */\n      dup5\n        /* \"#utility.yul\":4717:4730   */\n      add\n        /* \"#utility.yul\":4710:4714   */\n      0x20\n        /* \"#utility.yul\":4702:4708   */\n      dup4\n        /* \"#utility.yul\":4698:4715   */\n      add\n        /* \"#utility.yul\":4685:4739   */\n      calldatacopy\n        /* \"#utility.yul\":4787:4788   */\n      0x00\n        /* \"#utility.yul\":4780:4784   */\n      0x20\n        /* \"#utility.yul\":4771:4777   */\n      dup4\n        /* \"#utility.yul\":4763:4769   */\n      dup4\n        /* \"#utility.yul\":4759:4778   */\n      add\n        /* \"#utility.yul\":4755:4785   */\n      add\n        /* \"#utility.yul\":4748:4789   */\n      mstore\n        /* \"#utility.yul\":4808:4814   */\n      dup1\n        /* \"#utility.yul\":4798:4814   */\n      swap5\n      pop\n      pop\n      pop\n      pop\n        /* \"#utility.yul\":4833:4873   */\n      tag_608\n        /* \"#utility.yul\":4867:4871   */\n      0x20\n        /* \"#utility.yul\":4856:4865   */\n      dup5\n        /* \"#utility.yul\":4852:4872   */\n      add\n        /* \"#utility.yul\":4833:4873   */\n      tag_562\n      jump\t// in\n    tag_608:\n        /* \"#utility.yul\":4823:4873   */\n      swap1\n      pop\n        /* \"#utility.yul\":3850:4879   */\n      swap3\n      pop\n      swap3\n      swap1\n      pop\n      jump\t// out\n        /* \"#utility.yul\":4884:5144   */\n    tag_164:\n        /* \"#utility.yul\":4952:4958   */\n      0x00\n        /* \"#utility.yul\":4960:4966   */\n      dup1\n        /* \"#utility.yul\":5013:5015   */\n      0x40\n        /* \"#utility.yul\":5001:5010   */\n      dup4\n        /* \"#utility.yul\":4992:4999   */\n      dup6\n        /* \"#utility.yul\":4988:5011   */\n      sub\n        /* \"#utility.yul\":4984:5016   */\n      slt\n        /* \"#utility.yul\":4981:5033   */\n      iszero\n      tag_610\n      jumpi\n        /* \"#utility.yul\":5029:5030   */\n      0x00\n        /* \"#utility.yul\":5026:5027   */\n      dup1\n        /* \"#utility.yul\":5019:5031   */\n      revert\n        /* \"#utility.yul\":4981:5033   */\n    tag_610:\n        /* \"#utility.yul\":5052:5081   */\n      tag_611\n        /* \"#utility.yul\":5071:5080   */\n      dup4\n        /* \"#utility.yul\":5052:5081   */\n      tag_562\n      jump\t// in\n    tag_611:\n        /* \"#utility.yul\":5042:5081   */\n      swap2\n      pop\n        /* \"#utility.yul\":5100:5138   */\n      tag_608\n        /* \"#utility.yul\":5134:5136   */\n      0x20\n        /* \"#utility.yul\":5123:5132   */\n      dup5\n        /* \"#utility.yul\":5119:5137   */\n      add\n        /* \"#utility.yul\":5100:5138   */\n      tag_562\n      jump\t// in\n        /* \"#utility.yul\":6000:6380   */\n    tag_215:\n        /* \"#utility.yul\":6079:6080   */\n      0x01\n        /* \"#utility.yul\":6075:6087   */\n      dup2\n      dup2\n      shr\n      swap1\n        /* \"#utility.yul\":6122:6134   */\n      dup3\n      and\n      dup1\n        /* \"#utility.yul\":6143:6204   */\n      tag_616\n      jumpi\n        /* \"#utility.yul\":6197:6201   */\n      0x7f\n        /* \"#utility.yul\":6189:6195   */\n      dup3\n        /* \"#utility.yul\":6185:6202   */\n      and\n        /* \"#utility.yul\":6175:6202   */\n      swap2\n      pop\n        /* \"#utility.yul\":6143:6204   */\n    tag_616:\n        /* \"#utility.yul\":6250:6252   */\n      0x20\n        /* \"#utility.yul\":6242:6248   */\n      dup3\n        /* \"#utility.yul\":6239:6253   */\n      lt\n        /* \"#utility.yul\":6219:6237   */\n      dup2\n        /* \"#utility.yul\":6216:6254   */\n      sub\n        /* \"#utility.yul\":6213:6374   */\n      tag_617\n      jumpi\n        /* \"#utility.yul\":6296:6306   */\n      0x4e487b71\n        /* \"#utility.yul\":6291:6294   */\n      0xe0\n        /* \"#utility.yul\":6287:6307   */\n      shl\n        /* \"#utility.yul\":6284:6285   */\n      0x00\n        /* \"#utility.yul\":6277:6308   */\n      mstore\n        /* \"#utility.yul\":6331:6335   */\n      0x22\n        /* \"#utility.yul\":6328:6329   */\n      0x04\n        /* \"#utility.yul\":6321:6336   */\n      mstore\n        /* \"#utility.yul\":6359:6363   */\n      0x24\n        /* \"#utility.yul\":6356:6357   */\n      0x00\n        /* \"#utility.yul\":6349:6364   */\n      revert\n        /* \"#utility.yul\":6213:6374   */\n    tag_617:\n      pop\n        /* \"#utility.yul\":6000:6380   */\n      swap2\n      swap1\n      pop\n      jump\t// out\n        /* \"#utility.yul\":6385:6726   */\n    tag_242:\n        /* \"#utility.yul\":6587:6589   */\n      0x20\n        /* \"#utility.yul\":6569:6590   */\n      dup1\n      dup3\n      mstore\n        /* \"#utility.yul\":6626:6628   */\n      0x11\n        /* \"#utility.yul\":6606:6624   */\n      swap1\n      dup3\n      add\n        /* \"#utility.yul\":6599:6629   */\n      mstore\n      shl(0x7a, 0x125b9d985b1a59081c9958da5c1a595b9d)\n        /* \"#utility.yul\":6660:6662   */\n      0x40\n        /* \"#utility.yul\":6645:6663   */\n      dup3\n      add\n        /* \"#utility.yul\":6638:6685   */\n      mstore\n        /* \"#utility.yul\":6717:6719   */\n      0x60\n        /* \"#utility.yul\":6702:6720   */\n      add\n      swap1\n        /* \"#utility.yul\":6385:6726   */\n      jump\t// out\n        /* \"#utility.yul\":6731:7069   */\n    tag_245:\n        /* \"#utility.yul\":6933:6935   */\n      0x20\n        /* \"#utility.yul\":6915:6936   */\n      dup1\n      dup3\n      mstore\n        /* \"#utility.yul\":6972:6974   */\n      0x0e\n        /* \"#utility.yul\":6952:6970   */\n      swap1\n      dup3\n      add\n        /* \"#utility.yul\":6945:6975   */\n      mstore\n      shl(0x92, 0x125b9d985b1a5908185b5bdd5b9d)\n        /* \"#utility.yul\":7006:7008   */\n      0x40\n        /* \"#utility.yul\":6991:7009   */\n      dup3\n      add\n        /* \"#utility.yul\":6984:7028   */\n      mstore\n        /* \"#utility.yul\":7060:7062   */\n      0x60\n        /* \"#utility.yul\":7045:7063   */\n      add\n      swap1\n        /* \"#utility.yul\":6731:7069   */\n      jump\t// out\n        /* \"#utility.yul\":7780:7907   */\n    tag_566:\n        /* \"#utility.yul\":7841:7851   */\n      0x4e487b71\n        /* \"#utility.yul\":7836:7839   */\n      0xe0\n        /* \"#utility.yul\":7832:7852   */\n      shl\n        /* \"#utility.yul\":7829:7830   */\n      0x00\n        /* \"#utility.yul\":7822:7853   */\n      mstore\n        /* \"#utility.yul\":7872:7876   */\n      0x11\n        /* \"#utility.yul\":7869:7870   */\n      0x04\n        /* \"#utility.yul\":7862:7877   */\n      mstore\n        /* \"#utility.yul\":7896:7900   */\n      0x24\n        /* \"#utility.yul\":7893:7894   */\n      0x00\n        /* \"#utility.yul\":7886:7901   */\n      revert\n        /* \"#utility.yul\":7912:8080   */\n    tag_293:\n        /* \"#utility.yul\":7985:7994   */\n      dup1\n      dup3\n      mul\n        /* \"#utility.yul\":8016:8025   */\n      dup2\n      iszero\n        /* \"#utility.yul\":8033:8048   */\n      dup3\n      dup3\n      div\n        /* \"#utility.yul\":8027:8049   */\n      dup5\n      eq\n        /* \"#utility.yul\":8013:8050   */\n      or\n        /* \"#utility.yul\":8003:8074   */\n      tag_220\n      jumpi\n        /* \"#utility.yul\":8054:8072   */\n      tag_220\n      tag_566\n      jump\t// in\n        /* \"#utility.yul\":8085:8302   */\n    tag_295:\n        /* \"#utility.yul\":8125:8126   */\n      0x00\n        /* \"#utility.yul\":8151:8152   */\n      dup3\n        /* \"#utility.yul\":8141:8273   */\n      tag_627\n      jumpi\n        /* \"#utility.yul\":8195:8205   */\n      0x4e487b71\n        /* \"#utility.yul\":8190:8193   */\n      0xe0\n        /* \"#utility.yul\":8186:8206   */\n      shl\n        /* \"#utility.yul\":8183:8184   */\n      0x00\n        /* \"#utility.yul\":8176:8207   */\n      mstore\n        /* \"#utility.yul\":8230:8234   */\n      0x12\n        /* \"#utility.yul\":8227:8228   */\n      0x04\n        /* \"#utility.yul\":8220:8235   */\n      mstore\n        /* \"#utility.yul\":8258:8262   */\n      0x24\n        /* \"#utility.yul\":8255:8256   */\n      0x00\n        /* \"#utility.yul\":8248:8263   */\n      revert\n        /* \"#utility.yul\":8141:8273   */\n    tag_627:\n      pop\n        /* \"#utility.yul\":8287:8296   */\n      div\n      swap1\n        /* \"#utility.yul\":8085:8302   */\n      jump\t// out\n        /* \"#utility.yul\":9014:9303   */\n    tag_334:\n        /* \"#utility.yul\":9145:9148   */\n      0x00\n        /* \"#utility.yul\":9183:9189   */\n      dup3\n        /* \"#utility.yul\":9177:9190   */\n      mload\n        /* \"#utility.yul\":9199:9265   */\n      tag_631\n        /* \"#utility.yul\":9258:9264   */\n      dup2\n        /* \"#utility.yul\":9253:9256   */\n      dup5\n        /* \"#utility.yul\":9246:9250   */\n      0x20\n        /* \"#utility.yul\":9238:9244   */\n      dup8\n        /* \"#utility.yul\":9234:9251   */\n      add\n        /* \"#utility.yul\":9199:9265   */\n      tag_563\n      jump\t// in\n    tag_631:\n        /* \"#utility.yul\":9281:9297   */\n      swap2\n      swap1\n      swap2\n      add\n      swap3\n        /* \"#utility.yul\":9014:9303   */\n      swap2\n      pop\n      pop\n      jump\t// out\n        /* \"#utility.yul\":9571:9914   */\n    tag_340:\n        /* \"#utility.yul\":9773:9775   */\n      0x20\n        /* \"#utility.yul\":9755:9776   */\n      dup1\n      dup3\n      mstore\n        /* \"#utility.yul\":9812:9814   */\n      0x13\n        /* \"#utility.yul\":9792:9810   */\n      swap1\n      dup3\n      add\n        /* \"#utility.yul\":9785:9815   */\n      mstore\n      shl(0x68, 0x53616d652077616c6c65742061646472657373)\n        /* \"#utility.yul\":9846:9848   */\n      0x40\n        /* \"#utility.yul\":9831:9849   */\n      dup3\n      add\n        /* \"#utility.yul\":9824:9873   */\n      mstore\n        /* \"#utility.yul\":9905:9907   */\n      0x60\n        /* \"#utility.yul\":9890:9908   */\n      add\n      swap1\n        /* \"#utility.yul\":9571:9914   */\n      jump\t// out\n        /* \"#utility.yul\":11321:11638   */\n    tag_369:\n        /* \"#utility.yul\":11498:11500   */\n      0x40\n        /* \"#utility.yul\":11487:11496   */\n      dup2\n        /* \"#utility.yul\":11480:11501   */\n      mstore\n        /* \"#utility.yul\":11461:11465   */\n      0x00\n        /* \"#utility.yul\":11518:11563   */\n      tag_640\n        /* \"#utility.yul\":11559:11561   */\n      0x40\n        /* \"#utility.yul\":11548:11557   */\n      dup4\n        /* \"#utility.yul\":11544:11562   */\n      add\n        /* \"#utility.yul\":11536:11542   */\n      dup6\n        /* \"#utility.yul\":11518:11563   */\n      tag_564\n      jump\t// in\n    tag_640:\n        /* \"#utility.yul\":11510:11563   */\n      swap1\n      pop\n        /* \"#utility.yul\":11628:11629   */\n      0x01\n        /* \"#utility.yul\":11624:11625   */\n      dup1\n        /* \"#utility.yul\":11619:11622   */\n      0xa0\n        /* \"#utility.yul\":11615:11626   */\n      shl\n        /* \"#utility.yul\":11611:11630   */\n      sub\n        /* \"#utility.yul\":11603:11609   */\n      dup4\n        /* \"#utility.yul\":11599:11631   */\n      and\n        /* \"#utility.yul\":11594:11596   */\n      0x20\n        /* \"#utility.yul\":11583:11592   */\n      dup4\n        /* \"#utility.yul\":11579:11597   */\n      add\n        /* \"#utility.yul\":11572:11632   */\n      mstore\n        /* \"#utility.yul\":11321:11638   */\n      swap4\n      swap3\n      pop\n      pop\n      pop\n      jump\t// out\n        /* \"#utility.yul\":11997:12181   */\n    tag_424:\n        /* \"#utility.yul\":12067:12073   */\n      0x00\n        /* \"#utility.yul\":12120:12122   */\n      0x20\n        /* \"#utility.yul\":12108:12117   */\n      dup3\n        /* \"#utility.yul\":12099:12106   */\n      dup5\n        /* \"#utility.yul\":12095:12118   */\n      sub\n        /* \"#utility.yul\":12091:12123   */\n      slt\n        /* \"#utility.yul\":12088:12140   */\n      iszero\n      tag_643\n      jumpi\n        /* \"#utility.yul\":12136:12137   */\n      0x00\n        /* \"#utility.yul\":12133:12134   */\n      dup1\n        /* \"#utility.yul\":12126:12138   */\n      revert\n        /* \"#utility.yul\":12088:12140   */\n    tag_643:\n      pop\n        /* \"#utility.yul\":12159:12175   */\n      mload\n      swap2\n        /* \"#utility.yul\":11997:12181   */\n      swap1\n      pop\n      jump\t// out\n        /* \"#utility.yul\":12814:13091   */\n    tag_433:\n        /* \"#utility.yul\":12881:12887   */\n      0x00\n        /* \"#utility.yul\":12934:12936   */\n      0x20\n        /* \"#utility.yul\":12922:12931   */\n      dup3\n        /* \"#utility.yul\":12913:12920   */\n      dup5\n        /* \"#utility.yul\":12909:12932   */\n      sub\n        /* \"#utility.yul\":12905:12937   */\n      slt\n        /* \"#utility.yul\":12902:12954   */\n      iszero\n      tag_647\n      jumpi\n        /* \"#utility.yul\":12950:12951   */\n      0x00\n        /* \"#utility.yul\":12947:12948   */\n      dup1\n        /* \"#utility.yul\":12940:12952   */\n      revert\n        /* \"#utility.yul\":12902:12954   */\n    tag_647:\n        /* \"#utility.yul\":12982:12991   */\n      dup2\n        /* \"#utility.yul\":12976:12992   */\n      mload\n        /* \"#utility.yul\":13035:13040   */\n      dup1\n        /* \"#utility.yul\":13028:13041   */\n      iszero\n        /* \"#utility.yul\":13021:13042   */\n      iszero\n        /* \"#utility.yul\":13014:13019   */\n      dup2\n        /* \"#utility.yul\":13011:13043   */\n      eq\n        /* \"#utility.yul\":13001:13061   */\n      tag_226\n      jumpi\n        /* \"#utility.yul\":13057:13058   */\n      0x00\n        /* \"#utility.yul\":13054:13055   */\n      dup1\n        /* \"#utility.yul\":13047:13059   */\n      revert\n        /* \"#utility.yul\":14145:14273   */\n    tag_475:\n        /* \"#utility.yul\":14212:14221   */\n      dup2\n      dup2\n      sub\n        /* \"#utility.yul\":14233:14244   */\n      dup2\n      dup2\n      gt\n        /* \"#utility.yul\":14230:14267   */\n      iszero\n      tag_220\n      jumpi\n        /* \"#utility.yul\":14247:14265   */\n      tag_220\n      tag_566\n      jump\t// in\n        /* \"#utility.yul\":15333:15458   */\n    tag_540:\n        /* \"#utility.yul\":15398:15407   */\n      dup1\n      dup3\n      add\n        /* \"#utility.yul\":15419:15429   */\n      dup1\n      dup3\n      gt\n        /* \"#utility.yul\":15416:15452   */\n      iszero\n      tag_220\n      jumpi\n        /* \"#utility.yul\":15432:15450   */\n      tag_220\n      tag_566\n      jump\t// in\n\n    auxdata: 0xa2646970667358221220f184e98d2f389374b4bad94c2d07accf52fb3a7d3f3bb13acd4d85349f93f33a64736f6c634300081c0033\n}\n",
				"bytecode": {
					"linkReferences": {},
					"object": "60a060405234801561001057600080fd5b5060405161290738038061290783398101604081905261002f91610678565b806040518060400160405280600f81526020016e145d585b9d1d5b481550924d105313608a1b8152506040518060400160405280600381526020016251344160e81b8152508160039081610083919061078b565b506004610090828261078b565b5050506001600160a01b0381166100c257604051631e4fbdf760e01b8152600060048201526024015b60405180910390fd5b6100cb816104a6565b5060016006556007805460ff191690556001600160a01b0386166101315760405162461bcd60e51b815260206004820152601760248201527f496e76616c69642074726561737572792077616c6c657400000000000000000060448201526064016100b9565b6001600160a01b0385166101875760405162461bcd60e51b815260206004820152601860248201527f496e76616c69642065636f73797374656d2077616c6c6574000000000000000060448201526064016100b9565b6001600160a01b0384166101dd5760405162461bcd60e51b815260206004820152601860248201527f496e76616c696420636f6d6d756e6974792077616c6c6574000000000000000060448201526064016100b9565b6001600160a01b0383166102335760405162461bcd60e51b815260206004820152601860248201527f496e76616c6964206c69717569646974792077616c6c6574000000000000000060448201526064016100b9565b6001600160a01b0382166102895760405162461bcd60e51b815260206004820152601660248201527f496e76616c696420726573657276652077616c6c65740000000000000000000060448201526064016100b9565b60078054610100600160a81b0319166101006001600160a01b038981169190910291909117909155600880546001600160a01b031990811688841617909155600980548216878416179055600a80548216868416179055600b805490911691841691909117905542608052604080518082019091528060646103186b033b2e3c9fd0803ce8000000603261085f565b610322919061087c565b81526000602091820181905260075461010090046001600160a01b03168152600e8252604090819020835181559290910151600190920191909155805180820190915280606461037f6b033b2e3c9fd0803ce8000000601461085f565b610389919061087c565b8152600060209182018190526008546001600160a01b03168152600e825260409020825181559101516001909101556104113060646103d56b033b2e3c9fd0803ce8000000601461085f565b6103df919061087c565b60646103f86b033b2e3c9fd0803ce8000000603261085f565b610402919061087c565b61040c919061089e565b6104f8565b600954610444906001600160a01b0316606461043a6b033b2e3c9fd0803ce8000000600f61085f565b61040c919061087c565b600a8054610472916001600160a01b039091169060649061043a906b033b2e3c9fd0803ce80000009061085f565b600b5461049b906001600160a01b0316606461043a6b033b2e3c9fd0803ce8000000600561085f565b5050505050506108b1565b600580546001600160a01b038381166001600160a01b0319831681179093556040519116919082907f8be0079c531659141344cd1fd0a4f28419497f9722a3daafe3b4186f6b6457e090600090a35050565b6001600160a01b0382166105225760405163ec442f0560e01b8152600060048201526024016100b9565b61052e60008383610532565b5050565b6001600160a01b03831661055d578060026000828254610552919061089e565b909155506105cf9050565b6001600160a01b038316600090815260208190526040902054818110156105b05760405163391434e360e21b81526001600160a01b038516600482015260248101829052604481018390526064016100b9565b6001600160a01b03841660009081526020819052604090209082900390555b6001600160a01b0382166105eb5760028054829003905561060a565b6001600160a01b03821660009081526020819052604090208054820190555b816001600160a01b0316836001600160a01b03167fddf252ad1be2c89b69c2b068fc378daa952ba7f163c4a11628f55a4df523b3ef8360405161064f91815260200190565b60405180910390a3505050565b80516001600160a01b038116811461067357600080fd5b919050565b60008060008060008060c0878903121561069157600080fd5b61069a8761065c565b95506106a86020880161065c565b94506106b66040880161065c565b93506106c46060880161065c565b92506106d26080880161065c565b91506106e060a0880161065c565b90509295509295509295565b634e487b7160e01b600052604160045260246000fd5b600181811c9082168061071657607f821691505b60208210810361073657634e487b7160e01b600052602260045260246000fd5b50919050565b601f82111561078657806000526020600020601f840160051c810160208510156107635750805b601f840160051c820191505b81811015610783576000815560010161076f565b50505b505050565b81516001600160401b038111156107a4576107a46106ec565b6107b8816107b28454610702565b8461073c565b6020601f8211600181146107ec57600083156107d45750848201515b600019600385901b1c1916600184901b178455610783565b600084815260208120601f198516915b8281101561081c57878501518255602094850194600190920191016107fc565b508482101561083a5786840151600019600387901b60f8161c191681555b50505050600190811b01905550565b634e487b7160e01b600052601160045260246000fd5b808202811582820484141761087657610876610849565b92915050565b60008261089957634e487b7160e01b600052601260045260246000fd5b500490565b8082018082111561087657610876610849565b60805161202d6108da600039600081816102f70152818161064a01526114e5015261202d6000f3fe608060405234801561001057600080fd5b50600436106102695760003560e01c8063780b973711610151578063bf1ad7e0116100c3578063d72b11bd11610087578063d72b11bd14610529578063db7a46051461053c578063dd62ed3e14610589578063f2fde38b146105c2578063f9428f38146105d5578063fdb20ccb146105dd57600080fd5b8063bf1ad7e0146104d7578063c4e41b22146104df578063c7574839146104f0578063d469801614610503578063d486d1291461051657600080fd5b806390534f241161011557806390534f24146104865780639576a3741461048e57806395d89b41146104a1578063993eb1c5146104a9578063a9059cbb146104b1578063b7e26a2e146104c457600080fd5b8063780b9737146104405780637b5c7f03146104535780638456cb591461045b5780638da5cb5b14610463578063902d55a51461047457600080fd5b80633f4ba83a116101ea5780634a0ced96116101ae5780634a0ced96146103ce5780635c975abb146103d757806365ed6e23146103e257806370a0823114610412578063715018a614610425578063743003781461042d57600080fd5b80633f4ba83a1461035b57806340c10f191461036557806342966c6814610378578063435263ef1461038b5780634626402b146103b657600080fd5b806323b872dd1161023157806323b872dd146102df578063254800d4146102f25780632af4459214610319578063313ce5671461033957806333127b0d1461034857600080fd5b80630197d9721461026e5780630553be1e1461028c57806306fdde031461029f578063095ea7b3146102b457806318160ddd146102d7575b600080fd5b6102796301e1338081565b6040519081526020015b60405180910390f35b61027961029a366004611c0c565b610619565b6102a76106c0565b6040516102839190611c77565b6102c76102c2366004611c8a565b610752565b6040519015158152602001610283565b600254610279565b6102c76102ed366004611cb4565b61076c565b6102797f000000000000000000000000000000000000000000000000000000000000000081565b610279610327366004611c0c565b600c6020526000908152604090205481565b60405160128152602001610283565b6102c7610356366004611cf1565b610792565b6103636108fa565b005b610363610373366004611c8a565b61090c565b610363610386366004611d24565b610982565b60085461039e906001600160a01b031681565b6040516001600160a01b039091168152602001610283565b60075461039e9061010090046001600160a01b031681565b610279600d5481565b60075460ff166102c7565b6103ea6109ff565b604080519586526020860194909452928401919091526060830152608082015260a001610283565b610279610420366004611c0c565b610ac0565b610363610ade565b61036361043b366004611d24565b610af0565b61036361044e366004611d53565b610bf5565b610279611003565b610363611028565b6005546001600160a01b031661039e565b610279676765c793fa10079d601b1b81565b610279611038565b61036361049c366004611d24565b611050565b6102a7611145565b610279611154565b6102c76104bf366004611c8a565b61116c565b6103636104d2366004611e1d565b6111d1565b6102796113df565b676765c793fa10079d601b1b610279565b60095461039e906001600160a01b031681565b600a5461039e906001600160a01b031681565b610363610524366004611c0c565b6113f7565b600b5461039e906001600160a01b031681565b600754600854600954600a54600b54604080516101009096046001600160a01b0390811687529485166020870152928416928501929092528216606084015216608082015260a001610283565b610279610597366004611e1d565b6001600160a01b03918216600090815260016020908152604080832093909416825291909152205490565b6103636105d0366004611c0c565b61160e565b610279611649565b6106046105eb366004611c0c565b600e602052600090815260409020805460019091015482565b60408051928352602083019190915201610283565b6001600160a01b0381166000908152600e60205260408120805482036106425750600092915050565b600061066e427f0000000000000000000000000000000000000000000000000000000000000000611661565b905060006106976301e1338061069184866000015461166d90919063ffffffff16565b90611679565b83549091508111156106a7575081545b60018301546106b7908290611661565b95945050505050565b6060600380546106cf90611e47565b80601f01602080910402602001604051908101604052809291908181526020018280546106fb90611e47565b80156107485780601f1061071d57610100808354040283529160200191610748565b820191906000526020600020905b81548152906001019060200180831161072b57829003601f168201915b5050505050905090565b600033610760818585611685565b60019150505b92915050565b60003361077a858285611697565b610785858585611716565b60019150505b9392505050565b600061079c611775565b6107a46117ce565b6001600160a01b0384166107d35760405162461bcd60e51b81526004016107ca90611e81565b60405180910390fd5b600083116107f35760405162461bcd60e51b81526004016107ca90611eac565b60648210156108445760405162461bcd60e51b815260206004820152601c60248201527f4c65766572616765206d757374206265206174206c656173742031780000000060448201526064016107ca565b8261084e33610ac0565b10156108935760405162461bcd60e51b8152602060048201526014602482015273496e73756666696369656e742062616c616e636560601b60448201526064016107ca565b600061089f8585611814565b905080156108ee5760408051858152602081018590526001600160a01b0387169133917fae5a72e837b1c61d8f56d35c16816d1e29cc1a1e858253419499dda337ea03e3910160405180910390a35b905061078b6001600655565b610902611822565b61090a61184f565b565b610914611822565b61091c611775565b6109246117ce565b6001600160a01b03821661094a5760405162461bcd60e51b81526004016107ca90611e81565b6000811161096a5760405162461bcd60e51b81526004016107ca90611eac565b61097482826118a1565b61097e6001600655565b5050565b61098a611775565b6109926117ce565b600081116109b25760405162461bcd60e51b81526004016107ca90611eac565b6109bc33826118d7565b60405181815233907ffd38818f5291bf0bb3a2a48aadc06ba8757865d1dabd804585338aab3009dcb6906020015b60405180910390a26109fc6001600655565b50565b6000808080806064610a1d676765c793fa10079d601b1b6032611eea565b610a279190611f01565b6064610a3f676765c793fa10079d601b1b6014611eea565b610a499190611f01565b6064610a61676765c793fa10079d601b1b600f611eea565b610a6b9190611f01565b6064610a83676765c793fa10079d601b1b600a611eea565b610a8d9190611f01565b6064610aa5676765c793fa10079d601b1b6005611eea565b610aaf9190611f01565b945094509450945094509091929394565b6001600160a01b038116600090815260208190526040812054610766565b610ae6611822565b61090a600061190d565b610af8611775565b610b006117ce565b60008111610b205760405162461bcd60e51b81526004016107ca90611eac565b336000908152600c6020526040902054811115610b7f5760405162461bcd60e51b815260206004820152601b60248201527f496e73756666696369656e74206c6f636b65642062616c616e6365000000000060448201526064016107ca565b336000908152600c6020526040902054610b999082611661565b336000908152600c6020526040902055600d54610bb69082611661565b600d55610bc333826118a1565b60405181815233907f86e5f036736269c50194228317f229b5684d89d9db959c604a1ef646d6cd6ca9906020016109ea565b610bfd611822565b6001600160a01b038116610c4c5760405162461bcd60e51b8152602060048201526016602482015275496e76616c69642077616c6c6574206164647265737360501b60448201526064016107ca565b600082604051602001610c5f9190611f23565b604051602081830303815290604052805190602001209050604051602001610c959067747265617375727960c01b815260080190565b604051602081830303815290604052805190602001208103610d49576007546001600160a01b03610100909104811690831603610ce45760405162461bcd60e51b81526004016107ca90611f3f565b60078054610100908190046001600160a01b039081166000908152600e602052604080822087841680845282842082548155600192830154908301558654869004909416835290822082815501558254610100600160a81b0319169102179055610fc5565b6040516865636f73797374656d60b81b6020820152602901604051602081830303815290604052805190602001208103610e03576008546001600160a01b0390811690831603610dab5760405162461bcd60e51b81526004016107ca90611f3f565b600880546001600160a01b039081166000908152600e6020526040808220868416808452828420825481556001928301549083015585549094168352908220828155015581546001600160a01b031916179055610fc5565b60405168636f6d6d756e69747960b81b6020820152602901604051602081830303815290604052805190602001208103610e85576009546001600160a01b0390811690831603610e655760405162461bcd60e51b81526004016107ca90611f3f565b600980546001600160a01b0319166001600160a01b038416179055610fc5565b604051686c697175696469747960b81b6020820152602901604051602081830303815290604052805190602001208103610f0757600a546001600160a01b0390811690831603610ee75760405162461bcd60e51b81526004016107ca90611f3f565b600a80546001600160a01b0319166001600160a01b038416179055610fc5565b604051667265736572766560c81b6020820152602701604051602081830303815290604052805190602001208103610f8757600b546001600160a01b0390811690831603610f675760405162461bcd60e51b81526004016107ca90611f3f565b600b80546001600160a01b0319166001600160a01b038416179055610fc5565b60405162461bcd60e51b8152602060048201526013602482015272496e76616c69642077616c6c6574207479706560681b60448201526064016107ca565b7f6ff3a4003b90be84595beb5f6acb9d54f88bd3e6dd4887ca67e53dc9645465ea8383604051610ff6929190611f6c565b60405180910390a1505050565b606461101b676765c793fa10079d601b1b6005611eea565b6110259190611f01565b81565b611030611822565b61090a61195f565b606461101b676765c793fa10079d601b1b6014611eea565b611058611775565b6110606117ce565b600081116110805760405162461bcd60e51b81526004016107ca90611eac565b8061108a33610ac0565b10156110cf5760405162461bcd60e51b8152602060048201526014602482015273496e73756666696369656e742062616c616e636560601b60448201526064016107ca565b6110d933826118d7565b336000908152600c60205260409020546110f3908261199c565b336000908152600c6020526040902055600d54611110908261199c565b600d5560405181815233907f6b4f55697b6ddad583b377bb7ab9d921afc2eb9ffa0b12fbcea5ae24a7a34e6a906020016109ea565b6060600480546106cf90611e47565b606461101b676765c793fa10079d601b1b600f611eea565b60006111766117ce565b60006111828484611814565b9050801561078b576040518381526001600160a01b0385169033907f94e83ca767b0d965638d27b68a75ea07cd5c28c86299b5c7e02d2d5f1ee9aff29060200160405180910390a39392505050565b6111d9611822565b6111e1611775565b306001600160a01b038316036112395760405162461bcd60e51b815260206004820152601960248201527f43616e6e6f74207265636f7665722051344120746f6b656e730000000000000060448201526064016107ca565b6001600160a01b03811661125f5760405162461bcd60e51b81526004016107ca90611e81565b6040516370a0823160e01b81523060048201526000906001600160a01b038416906370a0823190602401602060405180830381865afa1580156112a6573d6000803e3d6000fd5b505050506040513d601f19601f820116820180604052508101906112ca9190611f96565b9050600081116113135760405162461bcd60e51b81526020600482015260146024820152732737903a37b5b2b739903a37903932b1b7bb32b960611b60448201526064016107ca565b60405163a9059cbb60e01b81526001600160a01b0383811660048301526024820183905284169063a9059cbb906044016020604051808303816000875af1158015611362573d6000803e3d6000fd5b505050506040513d601f19601f820116820180604052508101906113869190611faf565b50816001600160a01b0316836001600160a01b03167f1ac506e936e7f02f4036dbe44708f5e8d72af9ace8745a29fd391481a8fbcb87836040516113cc91815260200190565b60405180910390a35061097e6001600655565b606461101b676765c793fa10079d601b1b6032611eea565b6113ff611775565b6114076117ce565b6007546001600160a01b0382811661010090920416148061143557506008546001600160a01b038281169116145b61147a5760405162461bcd60e51b8152602060048201526016602482015275125b9d985b1a59081d995cdd1a5b99c81dd85b1b195d60521b60448201526064016107ca565b6001600160a01b0381166000908152600e6020526040902060018101548154116114dd5760405162461bcd60e51b81526020600482015260146024820152734e6f20746f6b656e7320746f2072656c6561736560601b60448201526064016107ca565b6000611509427f0000000000000000000000000000000000000000000000000000000000000000611661565b9050600061152c6301e1338061069184866000015461166d90919063ffffffff16565b835490915081111561153c575081545b600061155584600101548361166190919063ffffffff16565b90506000811161159e5760405162461bcd60e51b81526020600482015260146024820152734e6f20746f6b656e732072656c65617361626c6560601b60448201526064016107ca565b60018401546115ad908261199c565b60018501556115bd308683611716565b846001600160a01b03167f4ad7799f99297062cea73c5a21d23a1fcf49f6a1957f7409712e555a0dcd1e1d826040516115f891815260200190565b60405180910390a2505050506109fc6001600655565b611616611822565b6001600160a01b03811661164057604051631e4fbdf760e01b8152600060048201526024016107ca565b6109fc8161190d565b606461101b676765c793fa10079d601b1b600a611eea565b600061078b8284611fd1565b600061078b8284611eea565b600061078b8284611f01565b61169283838360016119a8565b505050565b6001600160a01b03838116600090815260016020908152604080832093861683529290522054600019811015611710578181101561170157604051637dc7a0d960e11b81526001600160a01b038416600482015260248101829052604481018390526064016107ca565b611710848484840360006119a8565b50505050565b6001600160a01b03831661174057604051634b637e8f60e11b8152600060048201526024016107ca565b6001600160a01b03821661176a5760405163ec442f0560e01b8152600060048201526024016107ca565b611692838383611a7d565b6002600654036117c75760405162461bcd60e51b815260206004820152601f60248201527f5265656e7472616e637947756172643a207265656e7472616e742063616c6c0060448201526064016107ca565b6002600655565b60075460ff161561090a5760405162461bcd60e51b815260206004820152601060248201526f14185d5cd8589b194e881c185d5cd95960821b60448201526064016107ca565b600033610760818585611716565b6005546001600160a01b0316331461090a5760405163118cdaa760e01b81523360048201526024016107ca565b611857611ba7565b6007805460ff191690557f5db9ee0a495bf2e6ff9c91a7834c1ba4fdd244a5e8aa4e537bd38aeae4b073aa335b6040516001600160a01b03909116815260200160405180910390a1565b6001600160a01b0382166118cb5760405163ec442f0560e01b8152600060048201526024016107ca565b61097e60008383611a7d565b6001600160a01b03821661190157604051634b637e8f60e11b8152600060048201526024016107ca565b61097e82600083611a7d565b600580546001600160a01b038381166001600160a01b0319831681179093556040519116919082907f8be0079c531659141344cd1fd0a4f28419497f9722a3daafe3b4186f6b6457e090600090a35050565b6119676117ce565b6007805460ff191660011790557f62e78cea01bee320cd4e420270b5ea74000d11b0c9f74754ebdbfc544b05a2586118843390565b600061078b8284611fe4565b6001600160a01b0384166119d25760405163e602df0560e01b8152600060048201526024016107ca565b6001600160a01b0383166119fc57604051634a1406b160e11b8152600060048201526024016107ca565b6001600160a01b038085166000908152600160209081526040808320938716835292905220829055801561171057826001600160a01b0316846001600160a01b03167f8c5be1e5ebec7d5bd14f71427d1e84f3dd0314c0f7b2291e5b200ac8c7c3b92584604051611a6f91815260200190565b60405180910390a350505050565b6001600160a01b038316611aa8578060026000828254611a9d9190611fe4565b90915550611b1a9050565b6001600160a01b03831660009081526020819052604090205481811015611afb5760405163391434e360e21b81526001600160a01b038516600482015260248101829052604481018390526064016107ca565b6001600160a01b03841660009081526020819052604090209082900390555b6001600160a01b038216611b3657600280548290039055611b55565b6001600160a01b03821660009081526020819052604090208054820190555b816001600160a01b0316836001600160a01b03167fddf252ad1be2c89b69c2b068fc378daa952ba7f163c4a11628f55a4df523b3ef83604051611b9a91815260200190565b60405180910390a3505050565b60075460ff1661090a5760405162461bcd60e51b815260206004820152601460248201527314185d5cd8589b194e881b9bdd081c185d5cd95960621b60448201526064016107ca565b80356001600160a01b0381168114611c0757600080fd5b919050565b600060208284031215611c1e57600080fd5b61078b82611bf0565b60005b83811015611c42578181015183820152602001611c2a565b50506000910152565b60008151808452611c63816020860160208601611c27565b601f01601f19169290920160200192915050565b60208152600061078b6020830184611c4b565b60008060408385031215611c9d57600080fd5b611ca683611bf0565b946020939093013593505050565b600080600060608486031215611cc957600080fd5b611cd284611bf0565b9250611ce060208501611bf0565b929592945050506040919091013590565b600080600060608486031215611d0657600080fd5b611d0f84611bf0565b95602085013595506040909401359392505050565b600060208284031215611d3657600080fd5b5035919050565b634e487b7160e01b600052604160045260246000fd5b60008060408385031215611d6657600080fd5b823567ffffffffffffffff811115611d7d57600080fd5b8301601f81018513611d8e57600080fd5b803567ffffffffffffffff811115611da857611da8611d3d565b604051601f8201601f19908116603f0116810167ffffffffffffffff81118282101715611dd757611dd7611d3d565b604052818152828201602001871015611def57600080fd5b81602084016020830137600060208383010152809450505050611e1460208401611bf0565b90509250929050565b60008060408385031215611e3057600080fd5b611e3983611bf0565b9150611e1460208401611bf0565b600181811c90821680611e5b57607f821691505b602082108103611e7b57634e487b7160e01b600052602260045260246000fd5b50919050565b602080825260119082015270125b9d985b1a59081c9958da5c1a595b9d607a1b604082015260600190565b6020808252600e908201526d125b9d985b1a5908185b5bdd5b9d60921b604082015260600190565b634e487b7160e01b600052601160045260246000fd5b808202811582820484141761076657610766611ed4565b600082611f1e57634e487b7160e01b600052601260045260246000fd5b500490565b60008251611f35818460208701611c27565b9190910192915050565b60208082526013908201527253616d652077616c6c6574206164647265737360681b604082015260600190565b604081526000611f7f6040830185611c4b565b905060018060a01b03831660208301529392505050565b600060208284031215611fa857600080fd5b5051919050565b600060208284031215611fc157600080fd5b8151801515811461078b57600080fd5b8181038181111561076657610766611ed4565b8082018082111561076657610766611ed456fea2646970667358221220f184e98d2f389374b4bad94c2d07accf52fb3a7d3f3bb13acd4d85349f93f33a64736f6c634300081c0033",
					"opcodes": "PUSH1 0xA0 PUSH1 0x40 MSTORE CALLVALUE DUP1 ISZERO PUSH2 0x10 JUMPI PUSH1 0x0 DUP1 REVERT JUMPDEST POP PUSH1 0x40 MLOAD PUSH2 0x2907 CODESIZE SUB DUP1 PUSH2 0x2907 DUP4 CODECOPY DUP2 ADD PUSH1 0x40 DUP2 SWAP1 MSTORE PUSH2 0x2F SWAP2 PUSH2 0x678 JUMP JUMPDEST DUP1 PUSH1 0x40 MLOAD DUP1 PUSH1 0x40 ADD PUSH1 0x40 MSTORE DUP1 PUSH1 0xF DUP2 MSTORE PUSH1 0x20 ADD PUSH15 0x145D585B9D1D5B481550924D105313 PUSH1 0x8A SHL DUP2 MSTORE POP PUSH1 0x40 MLOAD DUP1 PUSH1 0x40 ADD PUSH1 0x40 MSTORE DUP1 PUSH1 0x3 DUP2 MSTORE PUSH1 0x20 ADD PUSH3 0x513441 PUSH1 0xE8 SHL DUP2 MSTORE POP DUP2 PUSH1 0x3 SWAP1 DUP2 PUSH2 0x83 SWAP2 SWAP1 PUSH2 0x78B JUMP JUMPDEST POP PUSH1 0x4 PUSH2 0x90 DUP3 DUP3 PUSH2 0x78B JUMP JUMPDEST POP POP POP PUSH1 0x1 PUSH1 0x1 PUSH1 0xA0 SHL SUB DUP2 AND PUSH2 0xC2 JUMPI PUSH1 0x40 MLOAD PUSH4 0x1E4FBDF7 PUSH1 0xE0 SHL DUP2 MSTORE PUSH1 0x0 PUSH1 0x4 DUP3 ADD MSTORE PUSH1 0x24 ADD JUMPDEST PUSH1 0x40 MLOAD DUP1 SWAP2 SUB SWAP1 REVERT JUMPDEST PUSH2 0xCB DUP2 PUSH2 0x4A6 JUMP JUMPDEST POP PUSH1 0x1 PUSH1 0x6 SSTORE PUSH1 0x7 DUP1 SLOAD PUSH1 0xFF NOT AND SWAP1 SSTORE PUSH1 0x1 PUSH1 0x1 PUSH1 0xA0 SHL SUB DUP7 AND PUSH2 0x131 JUMPI PUSH1 0x40 MLOAD PUSH3 0x461BCD PUSH1 0xE5 SHL DUP2 MSTORE PUSH1 0x20 PUSH1 0x4 DUP3 ADD MSTORE PUSH1 0x17 PUSH1 0x24 DUP3 ADD MSTORE PUSH32 0x496E76616C69642074726561737572792077616C6C6574000000000000000000 PUSH1 0x44 DUP3 ADD MSTORE PUSH1 0x64 ADD PUSH2 0xB9 JUMP JUMPDEST PUSH1 0x1 PUSH1 0x1 PUSH1 0xA0 SHL SUB DUP6 AND PUSH2 0x187 JUMPI PUSH1 0x40 MLOAD PUSH3 0x461BCD PUSH1 0xE5 SHL DUP2 MSTORE PUSH1 0x20 PUSH1 0x4 DUP3 ADD MSTORE PUSH1 0x18 PUSH1 0x24 DUP3 ADD MSTORE PUSH32 0x496E76616C69642065636F73797374656D2077616C6C65740000000000000000 PUSH1 0x44 DUP3 ADD MSTORE PUSH1 0x64 ADD PUSH2 0xB9 JUMP JUMPDEST PUSH1 0x1 PUSH1 0x1 PUSH1 0xA0 SHL SUB DUP5 AND PUSH2 0x1DD JUMPI PUSH1 0x40 MLOAD PUSH3 0x461BCD PUSH1 0xE5 SHL DUP2 MSTORE PUSH1 0x20 PUSH1 0x4 DUP3 ADD MSTORE PUSH1 0x18 PUSH1 0x24 DUP3 ADD MSTORE PUSH32 0x496E76616C696420636F6D6D756E6974792077616C6C65740000000000000000 PUSH1 0x44 DUP3 ADD MSTORE PUSH1 0x64 ADD PUSH2 0xB9 JUMP JUMPDEST PUSH1 0x1 PUSH1 0x1 PUSH1 0xA0 SHL SUB DUP4 AND PUSH2 0x233 JUMPI PUSH1 0x40 MLOAD PUSH3 0x461BCD PUSH1 0xE5 SHL DUP2 MSTORE PUSH1 0x20 PUSH1 0x4 DUP3 ADD MSTORE PUSH1 0x18 PUSH1 0x24 DUP3 ADD MSTORE PUSH32 0x496E76616C6964206C69717569646974792077616C6C65740000000000000000 PUSH1 0x44 DUP3 ADD MSTORE PUSH1 0x64 ADD PUSH2 0xB9 JUMP JUMPDEST PUSH1 0x1 PUSH1 0x1 PUSH1 0xA0 SHL SUB DUP3 AND PUSH2 0x289 JUMPI PUSH1 0x40 MLOAD PUSH3 0x461BCD PUSH1 0xE5 SHL DUP2 MSTORE PUSH1 0x20 PUSH1 0x4 DUP3 ADD MSTORE PUSH1 0x16 PUSH1 0x24 DUP3 ADD MSTORE PUSH32 0x496E76616C696420726573657276652077616C6C657400000000000000000000 PUSH1 0x44 DUP3 ADD MSTORE PUSH1 0x64 ADD PUSH2 0xB9 JUMP JUMPDEST PUSH1 0x7 DUP1 SLOAD PUSH2 0x100 PUSH1 0x1 PUSH1 0xA8 SHL SUB NOT AND PUSH2 0x100 PUSH1 0x1 PUSH1 0x1 PUSH1 0xA0 SHL SUB DUP10 DUP2 AND SWAP2 SWAP1 SWAP2 MUL SWAP2 SWAP1 SWAP2 OR SWAP1 SWAP2 SSTORE PUSH1 0x8 DUP1 SLOAD PUSH1 0x1 PUSH1 0x1 PUSH1 0xA0 SHL SUB NOT SWAP1 DUP2 AND DUP9 DUP5 AND OR SWAP1 SWAP2 SSTORE PUSH1 0x9 DUP1 SLOAD DUP3 AND DUP8 DUP5 AND OR SWAP1 SSTORE PUSH1 0xA DUP1 SLOAD DUP3 AND DUP7 DUP5 AND OR SWAP1 SSTORE PUSH1 0xB DUP1 SLOAD SWAP1 SWAP2 AND SWAP2 DUP5 AND SWAP2 SWAP1 SWAP2 OR SWAP1 SSTORE TIMESTAMP PUSH1 0x80 MSTORE PUSH1 0x40 DUP1 MLOAD DUP1 DUP3 ADD SWAP1 SWAP2 MSTORE DUP1 PUSH1 0x64 PUSH2 0x318 PUSH12 0x33B2E3C9FD0803CE8000000 PUSH1 0x32 PUSH2 0x85F JUMP JUMPDEST PUSH2 0x322 SWAP2 SWAP1 PUSH2 0x87C JUMP JUMPDEST DUP2 MSTORE PUSH1 0x0 PUSH1 0x20 SWAP2 DUP3 ADD DUP2 SWAP1 MSTORE PUSH1 0x7 SLOAD PUSH2 0x100 SWAP1 DIV PUSH1 0x1 PUSH1 0x1 PUSH1 0xA0 SHL SUB AND DUP2 MSTORE PUSH1 0xE DUP3 MSTORE PUSH1 0x40 SWAP1 DUP2 SWAP1 KECCAK256 DUP4 MLOAD DUP2 SSTORE SWAP3 SWAP1 SWAP2 ADD MLOAD PUSH1 0x1 SWAP1 SWAP3 ADD SWAP2 SWAP1 SWAP2 SSTORE DUP1 MLOAD DUP1 DUP3 ADD SWAP1 SWAP2 MSTORE DUP1 PUSH1 0x64 PUSH2 0x37F PUSH12 0x33B2E3C9FD0803CE8000000 PUSH1 0x14 PUSH2 0x85F JUMP JUMPDEST PUSH2 0x389 SWAP2 SWAP1 PUSH2 0x87C JUMP JUMPDEST DUP2 MSTORE PUSH1 0x0 PUSH1 0x20 SWAP2 DUP3 ADD DUP2 SWAP1 MSTORE PUSH1 0x8 SLOAD PUSH1 0x1 PUSH1 0x1 PUSH1 0xA0 SHL SUB AND DUP2 MSTORE PUSH1 0xE DUP3 MSTORE PUSH1 0x40 SWAP1 KECCAK256 DUP3 MLOAD DUP2 SSTORE SWAP2 ADD MLOAD PUSH1 0x1 SWAP1 SWAP2 ADD SSTORE PUSH2 0x411 ADDRESS PUSH1 0x64 PUSH2 0x3D5 PUSH12 0x33B2E3C9FD0803CE8000000 PUSH1 0x14 PUSH2 0x85F JUMP JUMPDEST PUSH2 0x3DF SWAP2 SWAP1 PUSH2 0x87C JUMP JUMPDEST PUSH1 0x64 PUSH2 0x3F8 PUSH12 0x33B2E3C9FD0803CE8000000 PUSH1 0x32 PUSH2 0x85F JUMP JUMPDEST PUSH2 0x402 SWAP2 SWAP1 PUSH2 0x87C JUMP JUMPDEST PUSH2 0x40C SWAP2 SWAP1 PUSH2 0x89E JUMP JUMPDEST PUSH2 0x4F8 JUMP JUMPDEST PUSH1 0x9 SLOAD PUSH2 0x444 SWAP1 PUSH1 0x1 PUSH1 0x1 PUSH1 0xA0 SHL SUB AND PUSH1 0x64 PUSH2 0x43A PUSH12 0x33B2E3C9FD0803CE8000000 PUSH1 0xF PUSH2 0x85F JUMP JUMPDEST PUSH2 0x40C SWAP2 SWAP1 PUSH2 0x87C JUMP JUMPDEST PUSH1 0xA DUP1 SLOAD PUSH2 0x472 SWAP2 PUSH1 0x1 PUSH1 0x1 PUSH1 0xA0 SHL SUB SWAP1 SWAP2 AND SWAP1 PUSH1 0x64 SWAP1 PUSH2 0x43A SWAP1 PUSH12 0x33B2E3C9FD0803CE8000000 SWAP1 PUSH2 0x85F JUMP JUMPDEST PUSH1 0xB SLOAD PUSH2 0x49B SWAP1 PUSH1 0x1 PUSH1 0x1 PUSH1 0xA0 SHL SUB AND PUSH1 0x64 PUSH2 0x43A PUSH12 0x33B2E3C9FD0803CE8000000 PUSH1 0x5 PUSH2 0x85F JUMP JUMPDEST POP POP POP POP POP POP PUSH2 0x8B1 JUMP JUMPDEST PUSH1 0x5 DUP1 SLOAD PUSH1 0x1 PUSH1 0x1 PUSH1 0xA0 SHL SUB DUP4 DUP2 AND PUSH1 0x1 PUSH1 0x1 PUSH1 0xA0 SHL SUB NOT DUP4 AND DUP2 OR SWAP1 SWAP4 SSTORE PUSH1 0x40 MLOAD SWAP2 AND SWAP2 SWAP1 DUP3 SWAP1 PUSH32 0x8BE0079C531659141344CD1FD0A4F28419497F9722A3DAAFE3B4186F6B6457E0 SWAP1 PUSH1 0x0 SWAP1 LOG3 POP POP JUMP JUMPDEST PUSH1 0x1 PUSH1 0x1 PUSH1 0xA0 SHL SUB DUP3 AND PUSH2 0x522 JUMPI PUSH1 0x40 MLOAD PUSH4 0xEC442F05 PUSH1 0xE0 SHL DUP2 MSTORE PUSH1 0x0 PUSH1 0x4 DUP3 ADD MSTORE PUSH1 0x24 ADD PUSH2 0xB9 JUMP JUMPDEST PUSH2 0x52E PUSH1 0x0 DUP4 DUP4 PUSH2 0x532 JUMP JUMPDEST POP POP JUMP JUMPDEST PUSH1 0x1 PUSH1 0x1 PUSH1 0xA0 SHL SUB DUP4 AND PUSH2 0x55D JUMPI DUP1 PUSH1 0x2 PUSH1 0x0 DUP3 DUP3 SLOAD PUSH2 0x552 SWAP2 SWAP1 PUSH2 0x89E JUMP JUMPDEST SWAP1 SWAP2 SSTORE POP PUSH2 0x5CF SWAP1 POP JUMP JUMPDEST PUSH1 0x1 PUSH1 0x1 PUSH1 0xA0 SHL SUB DUP4 AND PUSH1 0x0 SWAP1 DUP2 MSTORE PUSH1 0x20 DUP2 SWAP1 MSTORE PUSH1 0x40 SWAP1 KECCAK256 SLOAD DUP2 DUP2 LT ISZERO PUSH2 0x5B0 JUMPI PUSH1 0x40 MLOAD PUSH4 0x391434E3 PUSH1 0xE2 SHL DUP2 MSTORE PUSH1 0x1 PUSH1 0x1 PUSH1 0xA0 SHL SUB DUP6 AND PUSH1 0x4 DUP3 ADD MSTORE PUSH1 0x24 DUP2 ADD DUP3 SWAP1 MSTORE PUSH1 0x44 DUP2 ADD DUP4 SWAP1 MSTORE PUSH1 0x64 ADD PUSH2 0xB9 JUMP JUMPDEST PUSH1 0x1 PUSH1 0x1 PUSH1 0xA0 SHL SUB DUP5 AND PUSH1 0x0 SWAP1 DUP2 MSTORE PUSH1 0x20 DUP2 SWAP1 MSTORE PUSH1 0x40 SWAP1 KECCAK256 SWAP1 DUP3 SWAP1 SUB SWAP1 SSTORE JUMPDEST PUSH1 0x1 PUSH1 0x1 PUSH1 0xA0 SHL SUB DUP3 AND PUSH2 0x5EB JUMPI PUSH1 0x2 DUP1 SLOAD DUP3 SWAP1 SUB SWAP1 SSTORE PUSH2 0x60A JUMP JUMPDEST PUSH1 0x1 PUSH1 0x1 PUSH1 0xA0 SHL SUB DUP3 AND PUSH1 0x0 SWAP1 DUP2 MSTORE PUSH1 0x20 DUP2 SWAP1 MSTORE PUSH1 0x40 SWAP1 KECCAK256 DUP1 SLOAD DUP3 ADD SWAP1 SSTORE JUMPDEST DUP2 PUSH1 0x1 PUSH1 0x1 PUSH1 0xA0 SHL SUB AND DUP4 PUSH1 0x1 PUSH1 0x1 PUSH1 0xA0 SHL SUB AND PUSH32 0xDDF252AD1BE2C89B69C2B068FC378DAA952BA7F163C4A11628F55A4DF523B3EF DUP4 PUSH1 0x40 MLOAD PUSH2 0x64F SWAP2 DUP2 MSTORE PUSH1 0x20 ADD SWAP1 JUMP JUMPDEST PUSH1 0x40 MLOAD DUP1 SWAP2 SUB SWAP1 LOG3 POP POP POP JUMP JUMPDEST DUP1 MLOAD PUSH1 0x1 PUSH1 0x1 PUSH1 0xA0 SHL SUB DUP2 AND DUP2 EQ PUSH2 0x673 JUMPI PUSH1 0x0 DUP1 REVERT JUMPDEST SWAP2 SWAP1 POP JUMP JUMPDEST PUSH1 0x0 DUP1 PUSH1 0x0 DUP1 PUSH1 0x0 DUP1 PUSH1 0xC0 DUP8 DUP10 SUB SLT ISZERO PUSH2 0x691 JUMPI PUSH1 0x0 DUP1 REVERT JUMPDEST PUSH2 0x69A DUP8 PUSH2 0x65C JUMP JUMPDEST SWAP6 POP PUSH2 0x6A8 PUSH1 0x20 DUP9 ADD PUSH2 0x65C JUMP JUMPDEST SWAP5 POP PUSH2 0x6B6 PUSH1 0x40 DUP9 ADD PUSH2 0x65C JUMP JUMPDEST SWAP4 POP PUSH2 0x6C4 PUSH1 0x60 DUP9 ADD PUSH2 0x65C JUMP JUMPDEST SWAP3 POP PUSH2 0x6D2 PUSH1 0x80 DUP9 ADD PUSH2 0x65C JUMP JUMPDEST SWAP2 POP PUSH2 0x6E0 PUSH1 0xA0 DUP9 ADD PUSH2 0x65C JUMP JUMPDEST SWAP1 POP SWAP3 SWAP6 POP SWAP3 SWAP6 POP SWAP3 SWAP6 JUMP JUMPDEST PUSH4 0x4E487B71 PUSH1 0xE0 SHL PUSH1 0x0 MSTORE PUSH1 0x41 PUSH1 0x4 MSTORE PUSH1 0x24 PUSH1 0x0 REVERT JUMPDEST PUSH1 0x1 DUP2 DUP2 SHR SWAP1 DUP3 AND DUP1 PUSH2 0x716 JUMPI PUSH1 0x7F DUP3 AND SWAP2 POP JUMPDEST PUSH1 0x20 DUP3 LT DUP2 SUB PUSH2 0x736 JUMPI PUSH4 0x4E487B71 PUSH1 0xE0 SHL PUSH1 0x0 MSTORE PUSH1 0x22 PUSH1 0x4 MSTORE PUSH1 0x24 PUSH1 0x0 REVERT JUMPDEST POP SWAP2 SWAP1 POP JUMP JUMPDEST PUSH1 0x1F DUP3 GT ISZERO PUSH2 0x786 JUMPI DUP1 PUSH1 0x0 MSTORE PUSH1 0x20 PUSH1 0x0 KECCAK256 PUSH1 0x1F DUP5 ADD PUSH1 0x5 SHR DUP2 ADD PUSH1 0x20 DUP6 LT ISZERO PUSH2 0x763 JUMPI POP DUP1 JUMPDEST PUSH1 0x1F DUP5 ADD PUSH1 0x5 SHR DUP3 ADD SWAP2 POP JUMPDEST DUP2 DUP2 LT ISZERO PUSH2 0x783 JUMPI PUSH1 0x0 DUP2 SSTORE PUSH1 0x1 ADD PUSH2 0x76F JUMP JUMPDEST POP POP JUMPDEST POP POP POP JUMP JUMPDEST DUP2 MLOAD PUSH1 0x1 PUSH1 0x1 PUSH1 0x40 SHL SUB DUP2 GT ISZERO PUSH2 0x7A4 JUMPI PUSH2 0x7A4 PUSH2 0x6EC JUMP JUMPDEST PUSH2 0x7B8 DUP2 PUSH2 0x7B2 DUP5 SLOAD PUSH2 0x702 JUMP JUMPDEST DUP5 PUSH2 0x73C JUMP JUMPDEST PUSH1 0x20 PUSH1 0x1F DUP3 GT PUSH1 0x1 DUP2 EQ PUSH2 0x7EC JUMPI PUSH1 0x0 DUP4 ISZERO PUSH2 0x7D4 JUMPI POP DUP5 DUP3 ADD MLOAD JUMPDEST PUSH1 0x0 NOT PUSH1 0x3 DUP6 SWAP1 SHL SHR NOT AND PUSH1 0x1 DUP5 SWAP1 SHL OR DUP5 SSTORE PUSH2 0x783 JUMP JUMPDEST PUSH1 0x0 DUP5 DUP2 MSTORE PUSH1 0x20 DUP2 KECCAK256 PUSH1 0x1F NOT DUP6 AND SWAP2 JUMPDEST DUP3 DUP2 LT ISZERO PUSH2 0x81C JUMPI DUP8 DUP6 ADD MLOAD DUP3 SSTORE PUSH1 0x20 SWAP5 DUP6 ADD SWAP5 PUSH1 0x1 SWAP1 SWAP3 ADD SWAP2 ADD PUSH2 0x7FC JUMP JUMPDEST POP DUP5 DUP3 LT ISZERO PUSH2 0x83A JUMPI DUP7 DUP5 ADD MLOAD PUSH1 0x0 NOT PUSH1 0x3 DUP8 SWAP1 SHL PUSH1 0xF8 AND SHR NOT AND DUP2 SSTORE JUMPDEST POP POP POP POP PUSH1 0x1 SWAP1 DUP2 SHL ADD SWAP1 SSTORE POP JUMP JUMPDEST PUSH4 0x4E487B71 PUSH1 0xE0 SHL PUSH1 0x0 MSTORE PUSH1 0x11 PUSH1 0x4 MSTORE PUSH1 0x24 PUSH1 0x0 REVERT JUMPDEST DUP1 DUP3 MUL DUP2 ISZERO DUP3 DUP3 DIV DUP5 EQ OR PUSH2 0x876 JUMPI PUSH2 0x876 PUSH2 0x849 JUMP JUMPDEST SWAP3 SWAP2 POP POP JUMP JUMPDEST PUSH1 0x0 DUP3 PUSH2 0x899 JUMPI PUSH4 0x4E487B71 PUSH1 0xE0 SHL PUSH1 0x0 MSTORE PUSH1 0x12 PUSH1 0x4 MSTORE PUSH1 0x24 PUSH1 0x0 REVERT JUMPDEST POP DIV SWAP1 JUMP JUMPDEST DUP1 DUP3 ADD DUP1 DUP3 GT ISZERO PUSH2 0x876 JUMPI PUSH2 0x876 PUSH2 0x849 JUMP JUMPDEST PUSH1 0x80 MLOAD PUSH2 0x202D PUSH2 0x8DA PUSH1 0x0 CODECOPY PUSH1 0x0 DUP2 DUP2 PUSH2 0x2F7 ADD MSTORE DUP2 DUP2 PUSH2 0x64A ADD MSTORE PUSH2 0x14E5 ADD MSTORE PUSH2 0x202D PUSH1 0x0 RETURN INVALID PUSH1 0x80 PUSH1 0x40 MSTORE CALLVALUE DUP1 ISZERO PUSH2 0x10 JUMPI PUSH1 0x0 DUP1 REVERT JUMPDEST POP PUSH1 0x4 CALLDATASIZE LT PUSH2 0x269 JUMPI PUSH1 0x0 CALLDATALOAD PUSH1 0xE0 SHR DUP1 PUSH4 0x780B9737 GT PUSH2 0x151 JUMPI DUP1 PUSH4 0xBF1AD7E0 GT PUSH2 0xC3 JUMPI DUP1 PUSH4 0xD72B11BD GT PUSH2 0x87 JUMPI DUP1 PUSH4 0xD72B11BD EQ PUSH2 0x529 JUMPI DUP1 PUSH4 0xDB7A4605 EQ PUSH2 0x53C JUMPI DUP1 PUSH4 0xDD62ED3E EQ PUSH2 0x589 JUMPI DUP1 PUSH4 0xF2FDE38B EQ PUSH2 0x5C2 JUMPI DUP1 PUSH4 0xF9428F38 EQ PUSH2 0x5D5 JUMPI DUP1 PUSH4 0xFDB20CCB EQ PUSH2 0x5DD JUMPI PUSH1 0x0 DUP1 REVERT JUMPDEST DUP1 PUSH4 0xBF1AD7E0 EQ PUSH2 0x4D7 JUMPI DUP1 PUSH4 0xC4E41B22 EQ PUSH2 0x4DF JUMPI DUP1 PUSH4 0xC7574839 EQ PUSH2 0x4F0 JUMPI DUP1 PUSH4 0xD4698016 EQ PUSH2 0x503 JUMPI DUP1 PUSH4 0xD486D129 EQ PUSH2 0x516 JUMPI PUSH1 0x0 DUP1 REVERT JUMPDEST DUP1 PUSH4 0x90534F24 GT PUSH2 0x115 JUMPI DUP1 PUSH4 0x90534F24 EQ PUSH2 0x486 JUMPI DUP1 PUSH4 0x9576A374 EQ PUSH2 0x48E JUMPI DUP1 PUSH4 0x95D89B41 EQ PUSH2 0x4A1 JUMPI DUP1 PUSH4 0x993EB1C5 EQ PUSH2 0x4A9 JUMPI DUP1 PUSH4 0xA9059CBB EQ PUSH2 0x4B1 JUMPI DUP1 PUSH4 0xB7E26A2E EQ PUSH2 0x4C4 JUMPI PUSH1 0x0 DUP1 REVERT JUMPDEST DUP1 PUSH4 0x780B9737 EQ PUSH2 0x440 JUMPI DUP1 PUSH4 0x7B5C7F03 EQ PUSH2 0x453 JUMPI DUP1 PUSH4 0x8456CB59 EQ PUSH2 0x45B JUMPI DUP1 PUSH4 0x8DA5CB5B EQ PUSH2 0x463 JUMPI DUP1 PUSH4 0x902D55A5 EQ PUSH2 0x474 JUMPI PUSH1 0x0 DUP1 REVERT JUMPDEST DUP1 PUSH4 0x3F4BA83A GT PUSH2 0x1EA JUMPI DUP1 PUSH4 0x4A0CED96 GT PUSH2 0x1AE JUMPI DUP1 PUSH4 0x4A0CED96 EQ PUSH2 0x3CE JUMPI DUP1 PUSH4 0x5C975ABB EQ PUSH2 0x3D7 JUMPI DUP1 PUSH4 0x65ED6E23 EQ PUSH2 0x3E2 JUMPI DUP1 PUSH4 0x70A08231 EQ PUSH2 0x412 JUMPI DUP1 PUSH4 0x715018A6 EQ PUSH2 0x425 JUMPI DUP1 PUSH4 0x74300378 EQ PUSH2 0x42D JUMPI PUSH1 0x0 DUP1 REVERT JUMPDEST DUP1 PUSH4 0x3F4BA83A EQ PUSH2 0x35B JUMPI DUP1 PUSH4 0x40C10F19 EQ PUSH2 0x365 JUMPI DUP1 PUSH4 0x42966C68 EQ PUSH2 0x378 JUMPI DUP1 PUSH4 0x435263EF EQ PUSH2 0x38B JUMPI DUP1 PUSH4 0x4626402B EQ PUSH2 0x3B6 JUMPI PUSH1 0x0 DUP1 REVERT JUMPDEST DUP1 PUSH4 0x23B872DD GT PUSH2 0x231 JUMPI DUP1 PUSH4 0x23B872DD EQ PUSH2 0x2DF JUMPI DUP1 PUSH4 0x254800D4 EQ PUSH2 0x2F2 JUMPI DUP1 PUSH4 0x2AF44592 EQ PUSH2 0x319 JUMPI DUP1 PUSH4 0x313CE567 EQ PUSH2 0x339 JUMPI DUP1 PUSH4 0x33127B0D EQ PUSH2 0x348 JUMPI PUSH1 0x0 DUP1 REVERT JUMPDEST DUP1 PUSH4 0x197D972 EQ PUSH2 0x26E JUMPI DUP1 PUSH4 0x553BE1E EQ PUSH2 0x28C JUMPI DUP1 PUSH4 0x6FDDE03 EQ PUSH2 0x29F JUMPI DUP1 PUSH4 0x95EA7B3 EQ PUSH2 0x2B4 JUMPI DUP1 PUSH4 0x18160DDD EQ PUSH2 0x2D7 JUMPI JUMPDEST PUSH1 0x0 DUP1 REVERT JUMPDEST PUSH2 0x279 PUSH4 0x1E13380 DUP2 JUMP JUMPDEST PUSH1 0x40 MLOAD SWAP1 DUP2 MSTORE PUSH1 0x20 ADD JUMPDEST PUSH1 0x40 MLOAD DUP1 SWAP2 SUB SWAP1 RETURN JUMPDEST PUSH2 0x279 PUSH2 0x29A CALLDATASIZE PUSH1 0x4 PUSH2 0x1C0C JUMP JUMPDEST PUSH2 0x619 JUMP JUMPDEST PUSH2 0x2A7 PUSH2 0x6C0 JUMP JUMPDEST PUSH1 0x40 MLOAD PUSH2 0x283 SWAP2 SWAP1 PUSH2 0x1C77 JUMP JUMPDEST PUSH2 0x2C7 PUSH2 0x2C2 CALLDATASIZE PUSH1 0x4 PUSH2 0x1C8A JUMP JUMPDEST PUSH2 0x752 JUMP JUMPDEST PUSH1 0x40 MLOAD SWAP1 ISZERO ISZERO DUP2 MSTORE PUSH1 0x20 ADD PUSH2 0x283 JUMP JUMPDEST PUSH1 0x2 SLOAD PUSH2 0x279 JUMP JUMPDEST PUSH2 0x2C7 PUSH2 0x2ED CALLDATASIZE PUSH1 0x4 PUSH2 0x1CB4 JUMP JUMPDEST PUSH2 0x76C JUMP JUMPDEST PUSH2 0x279 PUSH32 0x0 DUP2 JUMP JUMPDEST PUSH2 0x279 PUSH2 0x327 CALLDATASIZE PUSH1 0x4 PUSH2 0x1C0C JUMP JUMPDEST PUSH1 0xC PUSH1 0x20 MSTORE PUSH1 0x0 SWAP1 DUP2 MSTORE PUSH1 0x40 SWAP1 KECCAK256 SLOAD DUP2 JUMP JUMPDEST PUSH1 0x40 MLOAD PUSH1 0x12 DUP2 MSTORE PUSH1 0x20 ADD PUSH2 0x283 JUMP JUMPDEST PUSH2 0x2C7 PUSH2 0x356 CALLDATASIZE PUSH1 0x4 PUSH2 0x1CF1 JUMP JUMPDEST PUSH2 0x792 JUMP JUMPDEST PUSH2 0x363 PUSH2 0x8FA JUMP JUMPDEST STOP JUMPDEST PUSH2 0x363 PUSH2 0x373 CALLDATASIZE PUSH1 0x4 PUSH2 0x1C8A JUMP JUMPDEST PUSH2 0x90C JUMP JUMPDEST PUSH2 0x363 PUSH2 0x386 CALLDATASIZE PUSH1 0x4 PUSH2 0x1D24 JUMP JUMPDEST PUSH2 0x982 JUMP JUMPDEST PUSH1 0x8 SLOAD PUSH2 0x39E SWAP1 PUSH1 0x1 PUSH1 0x1 PUSH1 0xA0 SHL SUB AND DUP2 JUMP JUMPDEST PUSH1 0x40 MLOAD PUSH1 0x1 PUSH1 0x1 PUSH1 0xA0 SHL SUB SWAP1 SWAP2 AND DUP2 MSTORE PUSH1 0x20 ADD PUSH2 0x283 JUMP JUMPDEST PUSH1 0x7 SLOAD PUSH2 0x39E SWAP1 PUSH2 0x100 SWAP1 DIV PUSH1 0x1 PUSH1 0x1 PUSH1 0xA0 SHL SUB AND DUP2 JUMP JUMPDEST PUSH2 0x279 PUSH1 0xD SLOAD DUP2 JUMP JUMPDEST PUSH1 0x7 SLOAD PUSH1 0xFF AND PUSH2 0x2C7 JUMP JUMPDEST PUSH2 0x3EA PUSH2 0x9FF JUMP JUMPDEST PUSH1 0x40 DUP1 MLOAD SWAP6 DUP7 MSTORE PUSH1 0x20 DUP7 ADD SWAP5 SWAP1 SWAP5 MSTORE SWAP3 DUP5 ADD SWAP2 SWAP1 SWAP2 MSTORE PUSH1 0x60 DUP4 ADD MSTORE PUSH1 0x80 DUP3 ADD MSTORE PUSH1 0xA0 ADD PUSH2 0x283 JUMP JUMPDEST PUSH2 0x279 PUSH2 0x420 CALLDATASIZE PUSH1 0x4 PUSH2 0x1C0C JUMP JUMPDEST PUSH2 0xAC0 JUMP JUMPDEST PUSH2 0x363 PUSH2 0xADE JUMP JUMPDEST PUSH2 0x363 PUSH2 0x43B CALLDATASIZE PUSH1 0x4 PUSH2 0x1D24 JUMP JUMPDEST PUSH2 0xAF0 JUMP JUMPDEST PUSH2 0x363 PUSH2 0x44E CALLDATASIZE PUSH1 0x4 PUSH2 0x1D53 JUMP JUMPDEST PUSH2 0xBF5 JUMP JUMPDEST PUSH2 0x279 PUSH2 0x1003 JUMP JUMPDEST PUSH2 0x363 PUSH2 0x1028 JUMP JUMPDEST PUSH1 0x5 SLOAD PUSH1 0x1 PUSH1 0x1 PUSH1 0xA0 SHL SUB AND PUSH2 0x39E JUMP JUMPDEST PUSH2 0x279 PUSH8 0x6765C793FA10079D PUSH1 0x1B SHL DUP2 JUMP JUMPDEST PUSH2 0x279 PUSH2 0x1038 JUMP JUMPDEST PUSH2 0x363 PUSH2 0x49C CALLDATASIZE PUSH1 0x4 PUSH2 0x1D24 JUMP JUMPDEST PUSH2 0x1050 JUMP JUMPDEST PUSH2 0x2A7 PUSH2 0x1145 JUMP JUMPDEST PUSH2 0x279 PUSH2 0x1154 JUMP JUMPDEST PUSH2 0x2C7 PUSH2 0x4BF CALLDATASIZE PUSH1 0x4 PUSH2 0x1C8A JUMP JUMPDEST PUSH2 0x116C JUMP JUMPDEST PUSH2 0x363 PUSH2 0x4D2 CALLDATASIZE PUSH1 0x4 PUSH2 0x1E1D JUMP JUMPDEST PUSH2 0x11D1 JUMP JUMPDEST PUSH2 0x279 PUSH2 0x13DF JUMP JUMPDEST PUSH8 0x6765C793FA10079D PUSH1 0x1B SHL PUSH2 0x279 JUMP JUMPDEST PUSH1 0x9 SLOAD PUSH2 0x39E SWAP1 PUSH1 0x1 PUSH1 0x1 PUSH1 0xA0 SHL SUB AND DUP2 JUMP JUMPDEST PUSH1 0xA SLOAD PUSH2 0x39E SWAP1 PUSH1 0x1 PUSH1 0x1 PUSH1 0xA0 SHL SUB AND DUP2 JUMP JUMPDEST PUSH2 0x363 PUSH2 0x524 CALLDATASIZE PUSH1 0x4 PUSH2 0x1C0C JUMP JUMPDEST PUSH2 0x13F7 JUMP JUMPDEST PUSH1 0xB SLOAD PUSH2 0x39E SWAP1 PUSH1 0x1 PUSH1 0x1 PUSH1 0xA0 SHL SUB AND DUP2 JUMP JUMPDEST PUSH1 0x7 SLOAD PUSH1 0x8 SLOAD PUSH1 0x9 SLOAD PUSH1 0xA SLOAD PUSH1 0xB SLOAD PUSH1 0x40 DUP1 MLOAD PUSH2 0x100 SWAP1 SWAP7 DIV PUSH1 0x1 PUSH1 0x1 PUSH1 0xA0 SHL SUB SWAP1 DUP2 AND DUP8 MSTORE SWAP5 DUP6 AND PUSH1 0x20 DUP8 ADD MSTORE SWAP3 DUP5 AND SWAP3 DUP6 ADD SWAP3 SWAP1 SWAP3 MSTORE DUP3 AND PUSH1 0x60 DUP5 ADD MSTORE AND PUSH1 0x80 DUP3 ADD MSTORE PUSH1 0xA0 ADD PUSH2 0x283 JUMP JUMPDEST PUSH2 0x279 PUSH2 0x597 CALLDATASIZE PUSH1 0x4 PUSH2 0x1E1D JUMP JUMPDEST PUSH1 0x1 PUSH1 0x1 PUSH1 0xA0 SHL SUB SWAP2 DUP3 AND PUSH1 0x0 SWAP1 DUP2 MSTORE PUSH1 0x1 PUSH1 0x20 SWAP1 DUP2 MSTORE PUSH1 0x40 DUP1 DUP4 KECCAK256 SWAP4 SWAP1 SWAP5 AND DUP3 MSTORE SWAP2 SWAP1 SWAP2 MSTORE KECCAK256 SLOAD SWAP1 JUMP JUMPDEST PUSH2 0x363 PUSH2 0x5D0 CALLDATASIZE PUSH1 0x4 PUSH2 0x1C0C JUMP JUMPDEST PUSH2 0x160E JUMP JUMPDEST PUSH2 0x279 PUSH2 0x1649 JUMP JUMPDEST PUSH2 0x604 PUSH2 0x5EB CALLDATASIZE PUSH1 0x4 PUSH2 0x1C0C JUMP JUMPDEST PUSH1 0xE PUSH1 0x20 MSTORE PUSH1 0x0 SWAP1 DUP2 MSTORE PUSH1 0x40 SWAP1 KECCAK256 DUP1 SLOAD PUSH1 0x1 SWAP1 SWAP2 ADD SLOAD DUP3 JUMP JUMPDEST PUSH1 0x40 DUP1 MLOAD SWAP3 DUP4 MSTORE PUSH1 0x20 DUP4 ADD SWAP2 SWAP1 SWAP2 MSTORE ADD PUSH2 0x283 JUMP JUMPDEST PUSH1 0x1 PUSH1 0x1 PUSH1 0xA0 SHL SUB DUP2 AND PUSH1 0x0 SWAP1 DUP2 MSTORE PUSH1 0xE PUSH1 0x20 MSTORE PUSH1 0x40 DUP2 KECCAK256 DUP1 SLOAD DUP3 SUB PUSH2 0x642 JUMPI POP PUSH1 0x0 SWAP3 SWAP2 POP POP JUMP JUMPDEST PUSH1 0x0 PUSH2 0x66E TIMESTAMP PUSH32 0x0 PUSH2 0x1661 JUMP JUMPDEST SWAP1 POP PUSH1 0x0 PUSH2 0x697 PUSH4 0x1E13380 PUSH2 0x691 DUP5 DUP7 PUSH1 0x0 ADD SLOAD PUSH2 0x166D SWAP1 SWAP2 SWAP1 PUSH4 0xFFFFFFFF AND JUMP JUMPDEST SWAP1 PUSH2 0x1679 JUMP JUMPDEST DUP4 SLOAD SWAP1 SWAP2 POP DUP2 GT ISZERO PUSH2 0x6A7 JUMPI POP DUP2 SLOAD JUMPDEST PUSH1 0x1 DUP4 ADD SLOAD PUSH2 0x6B7 SWAP1 DUP3 SWAP1 PUSH2 0x1661 JUMP JUMPDEST SWAP6 SWAP5 POP POP POP POP POP JUMP JUMPDEST PUSH1 0x60 PUSH1 0x3 DUP1 SLOAD PUSH2 0x6CF SWAP1 PUSH2 0x1E47 JUMP JUMPDEST DUP1 PUSH1 0x1F ADD PUSH1 0x20 DUP1 SWAP2 DIV MUL PUSH1 0x20 ADD PUSH1 0x40 MLOAD SWAP1 DUP2 ADD PUSH1 0x40 MSTORE DUP1 SWAP3 SWAP2 SWAP1 DUP2 DUP2 MSTORE PUSH1 0x20 ADD DUP3 DUP1 SLOAD PUSH2 0x6FB SWAP1 PUSH2 0x1E47 JUMP JUMPDEST DUP1 ISZERO PUSH2 0x748 JUMPI DUP1 PUSH1 0x1F LT PUSH2 0x71D JUMPI PUSH2 0x100 DUP1 DUP4 SLOAD DIV MUL DUP4 MSTORE SWAP2 PUSH1 0x20 ADD SWAP2 PUSH2 0x748 JUMP JUMPDEST DUP3 ADD SWAP2 SWAP1 PUSH1 0x0 MSTORE PUSH1 0x20 PUSH1 0x0 KECCAK256 SWAP1 JUMPDEST DUP2 SLOAD DUP2 MSTORE SWAP1 PUSH1 0x1 ADD SWAP1 PUSH1 0x20 ADD DUP1 DUP4 GT PUSH2 0x72B JUMPI DUP3 SWAP1 SUB PUSH1 0x1F AND DUP3 ADD SWAP2 JUMPDEST POP POP POP POP POP SWAP1 POP SWAP1 JUMP JUMPDEST PUSH1 0x0 CALLER PUSH2 0x760 DUP2 DUP6 DUP6 PUSH2 0x1685 JUMP JUMPDEST PUSH1 0x1 SWAP2 POP POP JUMPDEST SWAP3 SWAP2 POP POP JUMP JUMPDEST PUSH1 0x0 CALLER PUSH2 0x77A DUP6 DUP3 DUP6 PUSH2 0x1697 JUMP JUMPDEST PUSH2 0x785 DUP6 DUP6 DUP6 PUSH2 0x1716 JUMP JUMPDEST PUSH1 0x1 SWAP2 POP POP JUMPDEST SWAP4 SWAP3 POP POP POP JUMP JUMPDEST PUSH1 0x0 PUSH2 0x79C PUSH2 0x1775 JUMP JUMPDEST PUSH2 0x7A4 PUSH2 0x17CE JUMP JUMPDEST PUSH1 0x1 PUSH1 0x1 PUSH1 0xA0 SHL SUB DUP5 AND PUSH2 0x7D3 JUMPI PUSH1 0x40 MLOAD PUSH3 0x461BCD PUSH1 0xE5 SHL DUP2 MSTORE PUSH1 0x4 ADD PUSH2 0x7CA SWAP1 PUSH2 0x1E81 JUMP JUMPDEST PUSH1 0x40 MLOAD DUP1 SWAP2 SUB SWAP1 REVERT JUMPDEST PUSH1 0x0 DUP4 GT PUSH2 0x7F3 JUMPI PUSH1 0x40 MLOAD PUSH3 0x461BCD PUSH1 0xE5 SHL DUP2 MSTORE PUSH1 0x4 ADD PUSH2 0x7CA SWAP1 PUSH2 0x1EAC JUMP JUMPDEST PUSH1 0x64 DUP3 LT ISZERO PUSH2 0x844 JUMPI PUSH1 0x40 MLOAD PUSH3 0x461BCD PUSH1 0xE5 SHL DUP2 MSTORE PUSH1 0x20 PUSH1 0x4 DUP3 ADD MSTORE PUSH1 0x1C PUSH1 0x24 DUP3 ADD MSTORE PUSH32 0x4C65766572616765206D757374206265206174206C6561737420317800000000 PUSH1 0x44 DUP3 ADD MSTORE PUSH1 0x64 ADD PUSH2 0x7CA JUMP JUMPDEST DUP3 PUSH2 0x84E CALLER PUSH2 0xAC0 JUMP JUMPDEST LT ISZERO PUSH2 0x893 JUMPI PUSH1 0x40 MLOAD PUSH3 0x461BCD PUSH1 0xE5 SHL DUP2 MSTORE PUSH1 0x20 PUSH1 0x4 DUP3 ADD MSTORE PUSH1 0x14 PUSH1 0x24 DUP3 ADD MSTORE PUSH20 0x496E73756666696369656E742062616C616E6365 PUSH1 0x60 SHL PUSH1 0x44 DUP3 ADD MSTORE PUSH1 0x64 ADD PUSH2 0x7CA JUMP JUMPDEST PUSH1 0x0 PUSH2 0x89F DUP6 DUP6 PUSH2 0x1814 JUMP JUMPDEST SWAP1 POP DUP1 ISZERO PUSH2 0x8EE JUMPI PUSH1 0x40 DUP1 MLOAD DUP6 DUP2 MSTORE PUSH1 0x20 DUP2 ADD DUP6 SWAP1 MSTORE PUSH1 0x1 PUSH1 0x1 PUSH1 0xA0 SHL SUB DUP8 AND SWAP2 CALLER SWAP2 PUSH32 0xAE5A72E837B1C61D8F56D35C16816D1E29CC1A1E858253419499DDA337EA03E3 SWAP2 ADD PUSH1 0x40 MLOAD DUP1 SWAP2 SUB SWAP1 LOG3 JUMPDEST SWAP1 POP PUSH2 0x78B PUSH1 0x1 PUSH1 0x6 SSTORE JUMP JUMPDEST PUSH2 0x902 PUSH2 0x1822 JUMP JUMPDEST PUSH2 0x90A PUSH2 0x184F JUMP JUMPDEST JUMP JUMPDEST PUSH2 0x914 PUSH2 0x1822 JUMP JUMPDEST PUSH2 0x91C PUSH2 0x1775 JUMP JUMPDEST PUSH2 0x924 PUSH2 0x17CE JUMP JUMPDEST PUSH1 0x1 PUSH1 0x1 PUSH1 0xA0 SHL SUB DUP3 AND PUSH2 0x94A JUMPI PUSH1 0x40 MLOAD PUSH3 0x461BCD PUSH1 0xE5 SHL DUP2 MSTORE PUSH1 0x4 ADD PUSH2 0x7CA SWAP1 PUSH2 0x1E81 JUMP JUMPDEST PUSH1 0x0 DUP2 GT PUSH2 0x96A JUMPI PUSH1 0x40 MLOAD PUSH3 0x461BCD PUSH1 0xE5 SHL DUP2 MSTORE PUSH1 0x4 ADD PUSH2 0x7CA SWAP1 PUSH2 0x1EAC JUMP JUMPDEST PUSH2 0x974 DUP3 DUP3 PUSH2 0x18A1 JUMP JUMPDEST PUSH2 0x97E PUSH1 0x1 PUSH1 0x6 SSTORE JUMP JUMPDEST POP POP JUMP JUMPDEST PUSH2 0x98A PUSH2 0x1775 JUMP JUMPDEST PUSH2 0x992 PUSH2 0x17CE JUMP JUMPDEST PUSH1 0x0 DUP2 GT PUSH2 0x9B2 JUMPI PUSH1 0x40 MLOAD PUSH3 0x461BCD PUSH1 0xE5 SHL DUP2 MSTORE PUSH1 0x4 ADD PUSH2 0x7CA SWAP1 PUSH2 0x1EAC JUMP JUMPDEST PUSH2 0x9BC CALLER DUP3 PUSH2 0x18D7 JUMP JUMPDEST PUSH1 0x40 MLOAD DUP2 DUP2 MSTORE CALLER SWAP1 PUSH32 0xFD38818F5291BF0BB3A2A48AADC06BA8757865D1DABD804585338AAB3009DCB6 SWAP1 PUSH1 0x20 ADD JUMPDEST PUSH1 0x40 MLOAD DUP1 SWAP2 SUB SWAP1 LOG2 PUSH2 0x9FC PUSH1 0x1 PUSH1 0x6 SSTORE JUMP JUMPDEST POP JUMP JUMPDEST PUSH1 0x0 DUP1 DUP1 DUP1 DUP1 PUSH1 0x64 PUSH2 0xA1D PUSH8 0x6765C793FA10079D PUSH1 0x1B SHL PUSH1 0x32 PUSH2 0x1EEA JUMP JUMPDEST PUSH2 0xA27 SWAP2 SWAP1 PUSH2 0x1F01 JUMP JUMPDEST PUSH1 0x64 PUSH2 0xA3F PUSH8 0x6765C793FA10079D PUSH1 0x1B SHL PUSH1 0x14 PUSH2 0x1EEA JUMP JUMPDEST PUSH2 0xA49 SWAP2 SWAP1 PUSH2 0x1F01 JUMP JUMPDEST PUSH1 0x64 PUSH2 0xA61 PUSH8 0x6765C793FA10079D PUSH1 0x1B SHL PUSH1 0xF PUSH2 0x1EEA JUMP JUMPDEST PUSH2 0xA6B SWAP2 SWAP1 PUSH2 0x1F01 JUMP JUMPDEST PUSH1 0x64 PUSH2 0xA83 PUSH8 0x6765C793FA10079D PUSH1 0x1B SHL PUSH1 0xA PUSH2 0x1EEA JUMP JUMPDEST PUSH2 0xA8D SWAP2 SWAP1 PUSH2 0x1F01 JUMP JUMPDEST PUSH1 0x64 PUSH2 0xAA5 PUSH8 0x6765C793FA10079D PUSH1 0x1B SHL PUSH1 0x5 PUSH2 0x1EEA JUMP JUMPDEST PUSH2 0xAAF SWAP2 SWAP1 PUSH2 0x1F01 JUMP JUMPDEST SWAP5 POP SWAP5 POP SWAP5 POP SWAP5 POP SWAP5 POP SWAP1 SWAP2 SWAP3 SWAP4 SWAP5 JUMP JUMPDEST PUSH1 0x1 PUSH1 0x1 PUSH1 0xA0 SHL SUB DUP2 AND PUSH1 0x0 SWAP1 DUP2 MSTORE PUSH1 0x20 DUP2 SWAP1 MSTORE PUSH1 0x40 DUP2 KECCAK256 SLOAD PUSH2 0x766 JUMP JUMPDEST PUSH2 0xAE6 PUSH2 0x1822 JUMP JUMPDEST PUSH2 0x90A PUSH1 0x0 PUSH2 0x190D JUMP JUMPDEST PUSH2 0xAF8 PUSH2 0x1775 JUMP JUMPDEST PUSH2 0xB00 PUSH2 0x17CE JUMP JUMPDEST PUSH1 0x0 DUP2 GT PUSH2 0xB20 JUMPI PUSH1 0x40 MLOAD PUSH3 0x461BCD PUSH1 0xE5 SHL DUP2 MSTORE PUSH1 0x4 ADD PUSH2 0x7CA SWAP1 PUSH2 0x1EAC JUMP JUMPDEST CALLER PUSH1 0x0 SWAP1 DUP2 MSTORE PUSH1 0xC PUSH1 0x20 MSTORE PUSH1 0x40 SWAP1 KECCAK256 SLOAD DUP2 GT ISZERO PUSH2 0xB7F JUMPI PUSH1 0x40 MLOAD PUSH3 0x461BCD PUSH1 0xE5 SHL DUP2 MSTORE PUSH1 0x20 PUSH1 0x4 DUP3 ADD MSTORE PUSH1 0x1B PUSH1 0x24 DUP3 ADD MSTORE PUSH32 0x496E73756666696369656E74206C6F636B65642062616C616E63650000000000 PUSH1 0x44 DUP3 ADD MSTORE PUSH1 0x64 ADD PUSH2 0x7CA JUMP JUMPDEST CALLER PUSH1 0x0 SWAP1 DUP2 MSTORE PUSH1 0xC PUSH1 0x20 MSTORE PUSH1 0x40 SWAP1 KECCAK256 SLOAD PUSH2 0xB99 SWAP1 DUP3 PUSH2 0x1661 JUMP JUMPDEST CALLER PUSH1 0x0 SWAP1 DUP2 MSTORE PUSH1 0xC PUSH1 0x20 MSTORE PUSH1 0x40 SWAP1 KECCAK256 SSTORE PUSH1 0xD SLOAD PUSH2 0xBB6 SWAP1 DUP3 PUSH2 0x1661 JUMP JUMPDEST PUSH1 0xD SSTORE PUSH2 0xBC3 CALLER DUP3 PUSH2 0x18A1 JUMP JUMPDEST PUSH1 0x40 MLOAD DUP2 DUP2 MSTORE CALLER SWAP1 PUSH32 0x86E5F036736269C50194228317F229B5684D89D9DB959C604A1EF646D6CD6CA9 SWAP1 PUSH1 0x20 ADD PUSH2 0x9EA JUMP JUMPDEST PUSH2 0xBFD PUSH2 0x1822 JUMP JUMPDEST PUSH1 0x1 PUSH1 0x1 PUSH1 0xA0 SHL SUB DUP2 AND PUSH2 0xC4C JUMPI PUSH1 0x40 MLOAD PUSH3 0x461BCD PUSH1 0xE5 SHL DUP2 MSTORE PUSH1 0x20 PUSH1 0x4 DUP3 ADD MSTORE PUSH1 0x16 PUSH1 0x24 DUP3 ADD MSTORE PUSH22 0x496E76616C69642077616C6C65742061646472657373 PUSH1 0x50 SHL PUSH1 0x44 DUP3 ADD MSTORE PUSH1 0x64 ADD PUSH2 0x7CA JUMP JUMPDEST PUSH1 0x0 DUP3 PUSH1 0x40 MLOAD PUSH1 0x20 ADD PUSH2 0xC5F SWAP2 SWAP1 PUSH2 0x1F23 JUMP JUMPDEST PUSH1 0x40 MLOAD PUSH1 0x20 DUP2 DUP4 SUB SUB DUP2 MSTORE SWAP1 PUSH1 0x40 MSTORE DUP1 MLOAD SWAP1 PUSH1 0x20 ADD KECCAK256 SWAP1 POP PUSH1 0x40 MLOAD PUSH1 0x20 ADD PUSH2 0xC95 SWAP1 PUSH8 0x7472656173757279 PUSH1 0xC0 SHL DUP2 MSTORE PUSH1 0x8 ADD SWAP1 JUMP JUMPDEST PUSH1 0x40 MLOAD PUSH1 0x20 DUP2 DUP4 SUB SUB DUP2 MSTORE SWAP1 PUSH1 0x40 MSTORE DUP1 MLOAD SWAP1 PUSH1 0x20 ADD KECCAK256 DUP2 SUB PUSH2 0xD49 JUMPI PUSH1 0x7 SLOAD PUSH1 0x1 PUSH1 0x1 PUSH1 0xA0 SHL SUB PUSH2 0x100 SWAP1 SWAP2 DIV DUP2 AND SWAP1 DUP4 AND SUB PUSH2 0xCE4 JUMPI PUSH1 0x40 MLOAD PUSH3 0x461BCD PUSH1 0xE5 SHL DUP2 MSTORE PUSH1 0x4 ADD PUSH2 0x7CA SWAP1 PUSH2 0x1F3F JUMP JUMPDEST PUSH1 0x7 DUP1 SLOAD PUSH2 0x100 SWAP1 DUP2 SWAP1 DIV PUSH1 0x1 PUSH1 0x1 PUSH1 0xA0 SHL SUB SWAP1 DUP2 AND PUSH1 0x0 SWAP1 DUP2 MSTORE PUSH1 0xE PUSH1 0x20 MSTORE PUSH1 0x40 DUP1 DUP3 KECCAK256 DUP8 DUP5 AND DUP1 DUP5 MSTORE DUP3 DUP5 KECCAK256 DUP3 SLOAD DUP2 SSTORE PUSH1 0x1 SWAP3 DUP4 ADD SLOAD SWAP1 DUP4 ADD SSTORE DUP7 SLOAD DUP7 SWAP1 DIV SWAP1 SWAP5 AND DUP4 MSTORE SWAP1 DUP3 KECCAK256 DUP3 DUP2 SSTORE ADD SSTORE DUP3 SLOAD PUSH2 0x100 PUSH1 0x1 PUSH1 0xA8 SHL SUB NOT AND SWAP2 MUL OR SWAP1 SSTORE PUSH2 0xFC5 JUMP JUMPDEST PUSH1 0x40 MLOAD PUSH9 0x65636F73797374656D PUSH1 0xB8 SHL PUSH1 0x20 DUP3 ADD MSTORE PUSH1 0x29 ADD PUSH1 0x40 MLOAD PUSH1 0x20 DUP2 DUP4 SUB SUB DUP2 MSTORE SWAP1 PUSH1 0x40 MSTORE DUP1 MLOAD SWAP1 PUSH1 0x20 ADD KECCAK256 DUP2 SUB PUSH2 0xE03 JUMPI PUSH1 0x8 SLOAD PUSH1 0x1 PUSH1 0x1 PUSH1 0xA0 SHL SUB SWAP1 DUP2 AND SWAP1 DUP4 AND SUB PUSH2 0xDAB JUMPI PUSH1 0x40 MLOAD PUSH3 0x461BCD PUSH1 0xE5 SHL DUP2 MSTORE PUSH1 0x4 ADD PUSH2 0x7CA SWAP1 PUSH2 0x1F3F JUMP JUMPDEST PUSH1 0x8 DUP1 SLOAD PUSH1 0x1 PUSH1 0x1 PUSH1 0xA0 SHL SUB SWAP1 DUP2 AND PUSH1 0x0 SWAP1 DUP2 MSTORE PUSH1 0xE PUSH1 0x20 MSTORE PUSH1 0x40 DUP1 DUP3 KECCAK256 DUP7 DUP5 AND DUP1 DUP5 MSTORE DUP3 DUP5 KECCAK256 DUP3 SLOAD DUP2 SSTORE PUSH1 0x1 SWAP3 DUP4 ADD SLOAD SWAP1 DUP4 ADD SSTORE DUP6 SLOAD SWAP1 SWAP5 AND DUP4 MSTORE SWAP1 DUP3 KECCAK256 DUP3 DUP2 SSTORE ADD SSTORE DUP2 SLOAD PUSH1 0x1 PUSH1 0x1 PUSH1 0xA0 SHL SUB NOT AND OR SWAP1 SSTORE PUSH2 0xFC5 JUMP JUMPDEST PUSH1 0x40 MLOAD PUSH9 0x636F6D6D756E697479 PUSH1 0xB8 SHL PUSH1 0x20 DUP3 ADD MSTORE PUSH1 0x29 ADD PUSH1 0x40 MLOAD PUSH1 0x20 DUP2 DUP4 SUB SUB DUP2 MSTORE SWAP1 PUSH1 0x40 MSTORE DUP1 MLOAD SWAP1 PUSH1 0x20 ADD KECCAK256 DUP2 SUB PUSH2 0xE85 JUMPI PUSH1 0x9 SLOAD PUSH1 0x1 PUSH1 0x1 PUSH1 0xA0 SHL SUB SWAP1 DUP2 AND SWAP1 DUP4 AND SUB PUSH2 0xE65 JUMPI PUSH1 0x40 MLOAD PUSH3 0x461BCD PUSH1 0xE5 SHL DUP2 MSTORE PUSH1 0x4 ADD PUSH2 0x7CA SWAP1 PUSH2 0x1F3F JUMP JUMPDEST PUSH1 0x9 DUP1 SLOAD PUSH1 0x1 PUSH1 0x1 PUSH1 0xA0 SHL SUB NOT AND PUSH1 0x1 PUSH1 0x1 PUSH1 0xA0 SHL SUB DUP5 AND OR SWAP1 SSTORE PUSH2 0xFC5 JUMP JUMPDEST PUSH1 0x40 MLOAD PUSH9 0x6C6971756964697479 PUSH1 0xB8 SHL PUSH1 0x20 DUP3 ADD MSTORE PUSH1 0x29 ADD PUSH1 0x40 MLOAD PUSH1 0x20 DUP2 DUP4 SUB SUB DUP2 MSTORE SWAP1 PUSH1 0x40 MSTORE DUP1 MLOAD SWAP1 PUSH1 0x20 ADD KECCAK256 DUP2 SUB PUSH2 0xF07 JUMPI PUSH1 0xA SLOAD PUSH1 0x1 PUSH1 0x1 PUSH1 0xA0 SHL SUB SWAP1 DUP2 AND SWAP1 DUP4 AND SUB PUSH2 0xEE7 JUMPI PUSH1 0x40 MLOAD PUSH3 0x461BCD PUSH1 0xE5 SHL DUP2 MSTORE PUSH1 0x4 ADD PUSH2 0x7CA SWAP1 PUSH2 0x1F3F JUMP JUMPDEST PUSH1 0xA DUP1 SLOAD PUSH1 0x1 PUSH1 0x1 PUSH1 0xA0 SHL SUB NOT AND PUSH1 0x1 PUSH1 0x1 PUSH1 0xA0 SHL SUB DUP5 AND OR SWAP1 SSTORE PUSH2 0xFC5 JUMP JUMPDEST PUSH1 0x40 MLOAD PUSH7 0x72657365727665 PUSH1 0xC8 SHL PUSH1 0x20 DUP3 ADD MSTORE PUSH1 0x27 ADD PUSH1 0x40 MLOAD PUSH1 0x20 DUP2 DUP4 SUB SUB DUP2 MSTORE SWAP1 PUSH1 0x40 MSTORE DUP1 MLOAD SWAP1 PUSH1 0x20 ADD KECCAK256 DUP2 SUB PUSH2 0xF87 JUMPI PUSH1 0xB SLOAD PUSH1 0x1 PUSH1 0x1 PUSH1 0xA0 SHL SUB SWAP1 DUP2 AND SWAP1 DUP4 AND SUB PUSH2 0xF67 JUMPI PUSH1 0x40 MLOAD PUSH3 0x461BCD PUSH1 0xE5 SHL DUP2 MSTORE PUSH1 0x4 ADD PUSH2 0x7CA SWAP1 PUSH2 0x1F3F JUMP JUMPDEST PUSH1 0xB DUP1 SLOAD PUSH1 0x1 PUSH1 0x1 PUSH1 0xA0 SHL SUB NOT AND PUSH1 0x1 PUSH1 0x1 PUSH1 0xA0 SHL SUB DUP5 AND OR SWAP1 SSTORE PUSH2 0xFC5 JUMP JUMPDEST PUSH1 0x40 MLOAD PUSH3 0x461BCD PUSH1 0xE5 SHL DUP2 MSTORE PUSH1 0x20 PUSH1 0x4 DUP3 ADD MSTORE PUSH1 0x13 PUSH1 0x24 DUP3 ADD MSTORE PUSH19 0x496E76616C69642077616C6C65742074797065 PUSH1 0x68 SHL PUSH1 0x44 DUP3 ADD MSTORE PUSH1 0x64 ADD PUSH2 0x7CA JUMP JUMPDEST PUSH32 0x6FF3A4003B90BE84595BEB5F6ACB9D54F88BD3E6DD4887CA67E53DC9645465EA DUP4 DUP4 PUSH1 0x40 MLOAD PUSH2 0xFF6 SWAP3 SWAP2 SWAP1 PUSH2 0x1F6C JUMP JUMPDEST PUSH1 0x40 MLOAD DUP1 SWAP2 SUB SWAP1 LOG1 POP POP POP JUMP JUMPDEST PUSH1 0x64 PUSH2 0x101B PUSH8 0x6765C793FA10079D PUSH1 0x1B SHL PUSH1 0x5 PUSH2 0x1EEA JUMP JUMPDEST PUSH2 0x1025 SWAP2 SWAP1 PUSH2 0x1F01 JUMP JUMPDEST DUP2 JUMP JUMPDEST PUSH2 0x1030 PUSH2 0x1822 JUMP JUMPDEST PUSH2 0x90A PUSH2 0x195F JUMP JUMPDEST PUSH1 0x64 PUSH2 0x101B PUSH8 0x6765C793FA10079D PUSH1 0x1B SHL PUSH1 0x14 PUSH2 0x1EEA JUMP JUMPDEST PUSH2 0x1058 PUSH2 0x1775 JUMP JUMPDEST PUSH2 0x1060 PUSH2 0x17CE JUMP JUMPDEST PUSH1 0x0 DUP2 GT PUSH2 0x1080 JUMPI PUSH1 0x40 MLOAD PUSH3 0x461BCD PUSH1 0xE5 SHL DUP2 MSTORE PUSH1 0x4 ADD PUSH2 0x7CA SWAP1 PUSH2 0x1EAC JUMP JUMPDEST DUP1 PUSH2 0x108A CALLER PUSH2 0xAC0 JUMP JUMPDEST LT ISZERO PUSH2 0x10CF JUMPI PUSH1 0x40 MLOAD PUSH3 0x461BCD PUSH1 0xE5 SHL DUP2 MSTORE PUSH1 0x20 PUSH1 0x4 DUP3 ADD MSTORE PUSH1 0x14 PUSH1 0x24 DUP3 ADD MSTORE PUSH20 0x496E73756666696369656E742062616C616E6365 PUSH1 0x60 SHL PUSH1 0x44 DUP3 ADD MSTORE PUSH1 0x64 ADD PUSH2 0x7CA JUMP JUMPDEST PUSH2 0x10D9 CALLER DUP3 PUSH2 0x18D7 JUMP JUMPDEST CALLER PUSH1 0x0 SWAP1 DUP2 MSTORE PUSH1 0xC PUSH1 0x20 MSTORE PUSH1 0x40 SWAP1 KECCAK256 SLOAD PUSH2 0x10F3 SWAP1 DUP3 PUSH2 0x199C JUMP JUMPDEST CALLER PUSH1 0x0 SWAP1 DUP2 MSTORE PUSH1 0xC PUSH1 0x20 MSTORE PUSH1 0x40 SWAP1 KECCAK256 SSTORE PUSH1 0xD SLOAD PUSH2 0x1110 SWAP1 DUP3 PUSH2 0x199C JUMP JUMPDEST PUSH1 0xD SSTORE PUSH1 0x40 MLOAD DUP2 DUP2 MSTORE CALLER SWAP1 PUSH32 0x6B4F55697B6DDAD583B377BB7AB9D921AFC2EB9FFA0B12FBCEA5AE24A7A34E6A SWAP1 PUSH1 0x20 ADD PUSH2 0x9EA JUMP JUMPDEST PUSH1 0x60 PUSH1 0x4 DUP1 SLOAD PUSH2 0x6CF SWAP1 PUSH2 0x1E47 JUMP JUMPDEST PUSH1 0x64 PUSH2 0x101B PUSH8 0x6765C793FA10079D PUSH1 0x1B SHL PUSH1 0xF PUSH2 0x1EEA JUMP JUMPDEST PUSH1 0x0 PUSH2 0x1176 PUSH2 0x17CE JUMP JUMPDEST PUSH1 0x0 PUSH2 0x1182 DUP5 DUP5 PUSH2 0x1814 JUMP JUMPDEST SWAP1 POP DUP1 ISZERO PUSH2 0x78B JUMPI PUSH1 0x40 MLOAD DUP4 DUP2 MSTORE PUSH1 0x1 PUSH1 0x1 PUSH1 0xA0 SHL SUB DUP6 AND SWAP1 CALLER SWAP1 PUSH32 0x94E83CA767B0D965638D27B68A75EA07CD5C28C86299B5C7E02D2D5F1EE9AFF2 SWAP1 PUSH1 0x20 ADD PUSH1 0x40 MLOAD DUP1 SWAP2 SUB SWAP1 LOG3 SWAP4 SWAP3 POP POP POP JUMP JUMPDEST PUSH2 0x11D9 PUSH2 0x1822 JUMP JUMPDEST PUSH2 0x11E1 PUSH2 0x1775 JUMP JUMPDEST ADDRESS PUSH1 0x1 PUSH1 0x1 PUSH1 0xA0 SHL SUB DUP4 AND SUB PUSH2 0x1239 JUMPI PUSH1 0x40 MLOAD PUSH3 0x461BCD PUSH1 0xE5 SHL DUP2 MSTORE PUSH1 0x20 PUSH1 0x4 DUP3 ADD MSTORE PUSH1 0x19 PUSH1 0x24 DUP3 ADD MSTORE PUSH32 0x43616E6E6F74207265636F7665722051344120746F6B656E7300000000000000 PUSH1 0x44 DUP3 ADD MSTORE PUSH1 0x64 ADD PUSH2 0x7CA JUMP JUMPDEST PUSH1 0x1 PUSH1 0x1 PUSH1 0xA0 SHL SUB DUP2 AND PUSH2 0x125F JUMPI PUSH1 0x40 MLOAD PUSH3 0x461BCD PUSH1 0xE5 SHL DUP2 MSTORE PUSH1 0x4 ADD PUSH2 0x7CA SWAP1 PUSH2 0x1E81 JUMP JUMPDEST PUSH1 0x40 MLOAD PUSH4 0x70A08231 PUSH1 0xE0 SHL DUP2 MSTORE ADDRESS PUSH1 0x4 DUP3 ADD MSTORE PUSH1 0x0 SWAP1 PUSH1 0x1 PUSH1 0x1 PUSH1 0xA0 SHL SUB DUP5 AND SWAP1 PUSH4 0x70A08231 SWAP1 PUSH1 0x24 ADD PUSH1 0x20 PUSH1 0x40 MLOAD DUP1 DUP4 SUB DUP2 DUP7 GAS STATICCALL ISZERO DUP1 ISZERO PUSH2 0x12A6 JUMPI RETURNDATASIZE PUSH1 0x0 DUP1 RETURNDATACOPY RETURNDATASIZE PUSH1 0x0 REVERT JUMPDEST POP POP POP POP PUSH1 0x40 MLOAD RETURNDATASIZE PUSH1 0x1F NOT PUSH1 0x1F DUP3 ADD AND DUP3 ADD DUP1 PUSH1 0x40 MSTORE POP DUP2 ADD SWAP1 PUSH2 0x12CA SWAP2 SWAP1 PUSH2 0x1F96 JUMP JUMPDEST SWAP1 POP PUSH1 0x0 DUP2 GT PUSH2 0x1313 JUMPI PUSH1 0x40 MLOAD PUSH3 0x461BCD PUSH1 0xE5 SHL DUP2 MSTORE PUSH1 0x20 PUSH1 0x4 DUP3 ADD MSTORE PUSH1 0x14 PUSH1 0x24 DUP3 ADD MSTORE PUSH20 0x2737903A37B5B2B739903A37903932B1B7BB32B9 PUSH1 0x61 SHL PUSH1 0x44 DUP3 ADD MSTORE PUSH1 0x64 ADD PUSH2 0x7CA JUMP JUMPDEST PUSH1 0x40 MLOAD PUSH4 0xA9059CBB PUSH1 0xE0 SHL DUP2 MSTORE PUSH1 0x1 PUSH1 0x1 PUSH1 0xA0 SHL SUB DUP4 DUP2 AND PUSH1 0x4 DUP4 ADD MSTORE PUSH1 0x24 DUP3 ADD DUP4 SWAP1 MSTORE DUP5 AND SWAP1 PUSH4 0xA9059CBB SWAP1 PUSH1 0x44 ADD PUSH1 0x20 PUSH1 0x40 MLOAD DUP1 DUP4 SUB DUP2 PUSH1 0x0 DUP8 GAS CALL ISZERO DUP1 ISZERO PUSH2 0x1362 JUMPI RETURNDATASIZE PUSH1 0x0 DUP1 RETURNDATACOPY RETURNDATASIZE PUSH1 0x0 REVERT JUMPDEST POP POP POP POP PUSH1 0x40 MLOAD RETURNDATASIZE PUSH1 0x1F NOT PUSH1 0x1F DUP3 ADD AND DUP3 ADD DUP1 PUSH1 0x40 MSTORE POP DUP2 ADD SWAP1 PUSH2 0x1386 SWAP2 SWAP1 PUSH2 0x1FAF JUMP JUMPDEST POP DUP2 PUSH1 0x1 PUSH1 0x1 PUSH1 0xA0 SHL SUB AND DUP4 PUSH1 0x1 PUSH1 0x1 PUSH1 0xA0 SHL SUB AND PUSH32 0x1AC506E936E7F02F4036DBE44708F5E8D72AF9ACE8745A29FD391481A8FBCB87 DUP4 PUSH1 0x40 MLOAD PUSH2 0x13CC SWAP2 DUP2 MSTORE PUSH1 0x20 ADD SWAP1 JUMP JUMPDEST PUSH1 0x40 MLOAD DUP1 SWAP2 SUB SWAP1 LOG3 POP PUSH2 0x97E PUSH1 0x1 PUSH1 0x6 SSTORE JUMP JUMPDEST PUSH1 0x64 PUSH2 0x101B PUSH8 0x6765C793FA10079D PUSH1 0x1B SHL PUSH1 0x32 PUSH2 0x1EEA JUMP JUMPDEST PUSH2 0x13FF PUSH2 0x1775 JUMP JUMPDEST PUSH2 0x1407 PUSH2 0x17CE JUMP JUMPDEST PUSH1 0x7 SLOAD PUSH1 0x1 PUSH1 0x1 PUSH1 0xA0 SHL SUB DUP3 DUP2 AND PUSH2 0x100 SWAP1 SWAP3 DIV AND EQ DUP1 PUSH2 0x1435 JUMPI POP PUSH1 0x8 SLOAD PUSH1 0x1 PUSH1 0x1 PUSH1 0xA0 SHL SUB DUP3 DUP2 AND SWAP2 AND EQ JUMPDEST PUSH2 0x147A JUMPI PUSH1 0x40 MLOAD PUSH3 0x461BCD PUSH1 0xE5 SHL DUP2 MSTORE PUSH1 0x20 PUSH1 0x4 DUP3 ADD MSTORE PUSH1 0x16 PUSH1 0x24 DUP3 ADD MSTORE PUSH22 0x125B9D985B1A59081D995CDD1A5B99C81DD85B1B195D PUSH1 0x52 SHL PUSH1 0x44 DUP3 ADD MSTORE PUSH1 0x64 ADD PUSH2 0x7CA JUMP JUMPDEST PUSH1 0x1 PUSH1 0x1 PUSH1 0xA0 SHL SUB DUP2 AND PUSH1 0x0 SWAP1 DUP2 MSTORE PUSH1 0xE PUSH1 0x20 MSTORE PUSH1 0x40 SWAP1 KECCAK256 PUSH1 0x1 DUP2 ADD SLOAD DUP2 SLOAD GT PUSH2 0x14DD JUMPI PUSH1 0x40 MLOAD PUSH3 0x461BCD PUSH1 0xE5 SHL DUP2 MSTORE PUSH1 0x20 PUSH1 0x4 DUP3 ADD MSTORE PUSH1 0x14 PUSH1 0x24 DUP3 ADD MSTORE PUSH20 0x4E6F20746F6B656E7320746F2072656C65617365 PUSH1 0x60 SHL PUSH1 0x44 DUP3 ADD MSTORE PUSH1 0x64 ADD PUSH2 0x7CA JUMP JUMPDEST PUSH1 0x0 PUSH2 0x1509 TIMESTAMP PUSH32 0x0 PUSH2 0x1661 JUMP JUMPDEST SWAP1 POP PUSH1 0x0 PUSH2 0x152C PUSH4 0x1E13380 PUSH2 0x691 DUP5 DUP7 PUSH1 0x0 ADD SLOAD PUSH2 0x166D SWAP1 SWAP2 SWAP1 PUSH4 0xFFFFFFFF AND JUMP JUMPDEST DUP4 SLOAD SWAP1 SWAP2 POP DUP2 GT ISZERO PUSH2 0x153C JUMPI POP DUP2 SLOAD JUMPDEST PUSH1 0x0 PUSH2 0x1555 DUP5 PUSH1 0x1 ADD SLOAD DUP4 PUSH2 0x1661 SWAP1 SWAP2 SWAP1 PUSH4 0xFFFFFFFF AND JUMP JUMPDEST SWAP1 POP PUSH1 0x0 DUP2 GT PUSH2 0x159E JUMPI PUSH1 0x40 MLOAD PUSH3 0x461BCD PUSH1 0xE5 SHL DUP2 MSTORE PUSH1 0x20 PUSH1 0x4 DUP3 ADD MSTORE PUSH1 0x14 PUSH1 0x24 DUP3 ADD MSTORE PUSH20 0x4E6F20746F6B656E732072656C65617361626C65 PUSH1 0x60 SHL PUSH1 0x44 DUP3 ADD MSTORE PUSH1 0x64 ADD PUSH2 0x7CA JUMP JUMPDEST PUSH1 0x1 DUP5 ADD SLOAD PUSH2 0x15AD SWAP1 DUP3 PUSH2 0x199C JUMP JUMPDEST PUSH1 0x1 DUP6 ADD SSTORE PUSH2 0x15BD ADDRESS DUP7 DUP4 PUSH2 0x1716 JUMP JUMPDEST DUP5 PUSH1 0x1 PUSH1 0x1 PUSH1 0xA0 SHL SUB AND PUSH32 0x4AD7799F99297062CEA73C5A21D23A1FCF49F6A1957F7409712E555A0DCD1E1D DUP3 PUSH1 0x40 MLOAD PUSH2 0x15F8 SWAP2 DUP2 MSTORE PUSH1 0x20 ADD SWAP1 JUMP JUMPDEST PUSH1 0x40 MLOAD DUP1 SWAP2 SUB SWAP1 LOG2 POP POP POP POP PUSH2 0x9FC PUSH1 0x1 PUSH1 0x6 SSTORE JUMP JUMPDEST PUSH2 0x1616 PUSH2 0x1822 JUMP JUMPDEST PUSH1 0x1 PUSH1 0x1 PUSH1 0xA0 SHL SUB DUP2 AND PUSH2 0x1640 JUMPI PUSH1 0x40 MLOAD PUSH4 0x1E4FBDF7 PUSH1 0xE0 SHL DUP2 MSTORE PUSH1 0x0 PUSH1 0x4 DUP3 ADD MSTORE PUSH1 0x24 ADD PUSH2 0x7CA JUMP JUMPDEST PUSH2 0x9FC DUP2 PUSH2 0x190D JUMP JUMPDEST PUSH1 0x64 PUSH2 0x101B PUSH8 0x6765C793FA10079D PUSH1 0x1B SHL PUSH1 0xA PUSH2 0x1EEA JUMP JUMPDEST PUSH1 0x0 PUSH2 0x78B DUP3 DUP5 PUSH2 0x1FD1 JUMP JUMPDEST PUSH1 0x0 PUSH2 0x78B DUP3 DUP5 PUSH2 0x1EEA JUMP JUMPDEST PUSH1 0x0 PUSH2 0x78B DUP3 DUP5 PUSH2 0x1F01 JUMP JUMPDEST PUSH2 0x1692 DUP4 DUP4 DUP4 PUSH1 0x1 PUSH2 0x19A8 JUMP JUMPDEST POP POP POP JUMP JUMPDEST PUSH1 0x1 PUSH1 0x1 PUSH1 0xA0 SHL SUB DUP4 DUP2 AND PUSH1 0x0 SWAP1 DUP2 MSTORE PUSH1 0x1 PUSH1 0x20 SWAP1 DUP2 MSTORE PUSH1 0x40 DUP1 DUP4 KECCAK256 SWAP4 DUP7 AND DUP4 MSTORE SWAP3 SWAP1 MSTORE KECCAK256 SLOAD PUSH1 0x0 NOT DUP2 LT ISZERO PUSH2 0x1710 JUMPI DUP2 DUP2 LT ISZERO PUSH2 0x1701 JUMPI PUSH1 0x40 MLOAD PUSH4 0x7DC7A0D9 PUSH1 0xE1 SHL DUP2 MSTORE PUSH1 0x1 PUSH1 0x1 PUSH1 0xA0 SHL SUB DUP5 AND PUSH1 0x4 DUP3 ADD MSTORE PUSH1 0x24 DUP2 ADD DUP3 SWAP1 MSTORE PUSH1 0x44 DUP2 ADD DUP4 SWAP1 MSTORE PUSH1 0x64 ADD PUSH2 0x7CA JUMP JUMPDEST PUSH2 0x1710 DUP5 DUP5 DUP5 DUP5 SUB PUSH1 0x0 PUSH2 0x19A8 JUMP JUMPDEST POP POP POP POP JUMP JUMPDEST PUSH1 0x1 PUSH1 0x1 PUSH1 0xA0 SHL SUB DUP4 AND PUSH2 0x1740 JUMPI PUSH1 0x40 MLOAD PUSH4 0x4B637E8F PUSH1 0xE1 SHL DUP2 MSTORE PUSH1 0x0 PUSH1 0x4 DUP3 ADD MSTORE PUSH1 0x24 ADD PUSH2 0x7CA JUMP JUMPDEST PUSH1 0x1 PUSH1 0x1 PUSH1 0xA0 SHL SUB DUP3 AND PUSH2 0x176A JUMPI PUSH1 0x40 MLOAD PUSH4 0xEC442F05 PUSH1 0xE0 SHL DUP2 MSTORE PUSH1 0x0 PUSH1 0x4 DUP3 ADD MSTORE PUSH1 0x24 ADD PUSH2 0x7CA JUMP JUMPDEST PUSH2 0x1692 DUP4 DUP4 DUP4 PUSH2 0x1A7D JUMP JUMPDEST PUSH1 0x2 PUSH1 0x6 SLOAD SUB PUSH2 0x17C7 JUMPI PUSH1 0x40 MLOAD PUSH3 0x461BCD PUSH1 0xE5 SHL DUP2 MSTORE PUSH1 0x20 PUSH1 0x4 DUP3 ADD MSTORE PUSH1 0x1F PUSH1 0x24 DUP3 ADD MSTORE PUSH32 0x5265656E7472616E637947756172643A207265656E7472616E742063616C6C00 PUSH1 0x44 DUP3 ADD MSTORE PUSH1 0x64 ADD PUSH2 0x7CA JUMP JUMPDEST PUSH1 0x2 PUSH1 0x6 SSTORE JUMP JUMPDEST PUSH1 0x7 SLOAD PUSH1 0xFF AND ISZERO PUSH2 0x90A JUMPI PUSH1 0x40 MLOAD PUSH3 0x461BCD PUSH1 0xE5 SHL DUP2 MSTORE PUSH1 0x20 PUSH1 0x4 DUP3 ADD MSTORE PUSH1 0x10 PUSH1 0x24 DUP3 ADD MSTORE PUSH16 0x14185D5CD8589B194E881C185D5CD959 PUSH1 0x82 SHL PUSH1 0x44 DUP3 ADD MSTORE PUSH1 0x64 ADD PUSH2 0x7CA JUMP JUMPDEST PUSH1 0x0 CALLER PUSH2 0x760 DUP2 DUP6 DUP6 PUSH2 0x1716 JUMP JUMPDEST PUSH1 0x5 SLOAD PUSH1 0x1 PUSH1 0x1 PUSH1 0xA0 SHL SUB AND CALLER EQ PUSH2 0x90A JUMPI PUSH1 0x40 MLOAD PUSH4 0x118CDAA7 PUSH1 0xE0 SHL DUP2 MSTORE CALLER PUSH1 0x4 DUP3 ADD MSTORE PUSH1 0x24 ADD PUSH2 0x7CA JUMP JUMPDEST PUSH2 0x1857 PUSH2 0x1BA7 JUMP JUMPDEST PUSH1 0x7 DUP1 SLOAD PUSH1 0xFF NOT AND SWAP1 SSTORE PUSH32 0x5DB9EE0A495BF2E6FF9C91A7834C1BA4FDD244A5E8AA4E537BD38AEAE4B073AA CALLER JUMPDEST PUSH1 0x40 MLOAD PUSH1 0x1 PUSH1 0x1 PUSH1 0xA0 SHL SUB SWAP1 SWAP2 AND DUP2 MSTORE PUSH1 0x20 ADD PUSH1 0x40 MLOAD DUP1 SWAP2 SUB SWAP1 LOG1 JUMP JUMPDEST PUSH1 0x1 PUSH1 0x1 PUSH1 0xA0 SHL SUB DUP3 AND PUSH2 0x18CB JUMPI PUSH1 0x40 MLOAD PUSH4 0xEC442F05 PUSH1 0xE0 SHL DUP2 MSTORE PUSH1 0x0 PUSH1 0x4 DUP3 ADD MSTORE PUSH1 0x24 ADD PUSH2 0x7CA JUMP JUMPDEST PUSH2 0x97E PUSH1 0x0 DUP4 DUP4 PUSH2 0x1A7D JUMP JUMPDEST PUSH1 0x1 PUSH1 0x1 PUSH1 0xA0 SHL SUB DUP3 AND PUSH2 0x1901 JUMPI PUSH1 0x40 MLOAD PUSH4 0x4B637E8F PUSH1 0xE1 SHL DUP2 MSTORE PUSH1 0x0 PUSH1 0x4 DUP3 ADD MSTORE PUSH1 0x24 ADD PUSH2 0x7CA JUMP JUMPDEST PUSH2 0x97E DUP3 PUSH1 0x0 DUP4 PUSH2 0x1A7D JUMP JUMPDEST PUSH1 0x5 DUP1 SLOAD PUSH1 0x1 PUSH1 0x1 PUSH1 0xA0 SHL SUB DUP4 DUP2 AND PUSH1 0x1 PUSH1 0x1 PUSH1 0xA0 SHL SUB NOT DUP4 AND DUP2 OR SWAP1 SWAP4 SSTORE PUSH1 0x40 MLOAD SWAP2 AND SWAP2 SWAP1 DUP3 SWAP1 PUSH32 0x8BE0079C531659141344CD1FD0A4F28419497F9722A3DAAFE3B4186F6B6457E0 SWAP1 PUSH1 0x0 SWAP1 LOG3 POP POP JUMP JUMPDEST PUSH2 0x1967 PUSH2 0x17CE JUMP JUMPDEST PUSH1 0x7 DUP1 SLOAD PUSH1 0xFF NOT AND PUSH1 0x1 OR SWAP1 SSTORE PUSH32 0x62E78CEA01BEE320CD4E420270B5EA74000D11B0C9F74754EBDBFC544B05A258 PUSH2 0x1884 CALLER SWAP1 JUMP JUMPDEST PUSH1 0x0 PUSH2 0x78B DUP3 DUP5 PUSH2 0x1FE4 JUMP JUMPDEST PUSH1 0x1 PUSH1 0x1 PUSH1 0xA0 SHL SUB DUP5 AND PUSH2 0x19D2 JUMPI PUSH1 0x40 MLOAD PUSH4 0xE602DF05 PUSH1 0xE0 SHL DUP2 MSTORE PUSH1 0x0 PUSH1 0x4 DUP3 ADD MSTORE PUSH1 0x24 ADD PUSH2 0x7CA JUMP JUMPDEST PUSH1 0x1 PUSH1 0x1 PUSH1 0xA0 SHL SUB DUP4 AND PUSH2 0x19FC JUMPI PUSH1 0x40 MLOAD PUSH4 0x4A1406B1 PUSH1 0xE1 SHL DUP2 MSTORE PUSH1 0x0 PUSH1 0x4 DUP3 ADD MSTORE PUSH1 0x24 ADD PUSH2 0x7CA JUMP JUMPDEST PUSH1 0x1 PUSH1 0x1 PUSH1 0xA0 SHL SUB DUP1 DUP6 AND PUSH1 0x0 SWAP1 DUP2 MSTORE PUSH1 0x1 PUSH1 0x20 SWAP1 DUP2 MSTORE PUSH1 0x40 DUP1 DUP4 KECCAK256 SWAP4 DUP8 AND DUP4 MSTORE SWAP3 SWAP1 MSTORE KECCAK256 DUP3 SWAP1 SSTORE DUP1 ISZERO PUSH2 0x1710 JUMPI DUP3 PUSH1 0x1 PUSH1 0x1 PUSH1 0xA0 SHL SUB AND DUP5 PUSH1 0x1 PUSH1 0x1 PUSH1 0xA0 SHL SUB AND PUSH32 0x8C5BE1E5EBEC7D5BD14F71427D1E84F3DD0314C0F7B2291E5B200AC8C7C3B925 DUP5 PUSH1 0x40 MLOAD PUSH2 0x1A6F SWAP2 DUP2 MSTORE PUSH1 0x20 ADD SWAP1 JUMP JUMPDEST PUSH1 0x40 MLOAD DUP1 SWAP2 SUB SWAP1 LOG3 POP POP POP POP JUMP JUMPDEST PUSH1 0x1 PUSH1 0x1 PUSH1 0xA0 SHL SUB DUP4 AND PUSH2 0x1AA8 JUMPI DUP1 PUSH1 0x2 PUSH1 0x0 DUP3 DUP3 SLOAD PUSH2 0x1A9D SWAP2 SWAP1 PUSH2 0x1FE4 JUMP JUMPDEST SWAP1 SWAP2 SSTORE POP PUSH2 0x1B1A SWAP1 POP JUMP JUMPDEST PUSH1 0x1 PUSH1 0x1 PUSH1 0xA0 SHL SUB DUP4 AND PUSH1 0x0 SWAP1 DUP2 MSTORE PUSH1 0x20 DUP2 SWAP1 MSTORE PUSH1 0x40 SWAP1 KECCAK256 SLOAD DUP2 DUP2 LT ISZERO PUSH2 0x1AFB JUMPI PUSH1 0x40 MLOAD PUSH4 0x391434E3 PUSH1 0xE2 SHL DUP2 MSTORE PUSH1 0x1 PUSH1 0x1 PUSH1 0xA0 SHL SUB DUP6 AND PUSH1 0x4 DUP3 ADD MSTORE PUSH1 0x24 DUP2 ADD DUP3 SWAP1 MSTORE PUSH1 0x44 DUP2 ADD DUP4 SWAP1 MSTORE PUSH1 0x64 ADD PUSH2 0x7CA JUMP JUMPDEST PUSH1 0x1 PUSH1 0x1 PUSH1 0xA0 SHL SUB DUP5 AND PUSH1 0x0 SWAP1 DUP2 MSTORE PUSH1 0x20 DUP2 SWAP1 MSTORE PUSH1 0x40 SWAP1 KECCAK256 SWAP1 DUP3 SWAP1 SUB SWAP1 SSTORE JUMPDEST PUSH1 0x1 PUSH1 0x1 PUSH1 0xA0 SHL SUB DUP3 AND PUSH2 0x1B36 JUMPI PUSH1 0x2 DUP1 SLOAD DUP3 SWAP1 SUB SWAP1 SSTORE PUSH2 0x1B55 JUMP JUMPDEST PUSH1 0x1 PUSH1 0x1 PUSH1 0xA0 SHL SUB DUP3 AND PUSH1 0x0 SWAP1 DUP2 MSTORE PUSH1 0x20 DUP2 SWAP1 MSTORE PUSH1 0x40 SWAP1 KECCAK256 DUP1 SLOAD DUP3 ADD SWAP1 SSTORE JUMPDEST DUP2 PUSH1 0x1 PUSH1 0x1 PUSH1 0xA0 SHL SUB AND DUP4 PUSH1 0x1 PUSH1 0x1 PUSH1 0xA0 SHL SUB AND PUSH32 0xDDF252AD1BE2C89B69C2B068FC378DAA952BA7F163C4A11628F55A4DF523B3EF DUP4 PUSH1 0x40 MLOAD PUSH2 0x1B9A SWAP2 DUP2 MSTORE PUSH1 0x20 ADD SWAP1 JUMP JUMPDEST PUSH1 0x40 MLOAD DUP1 SWAP2 SUB SWAP1 LOG3 POP POP POP JUMP JUMPDEST PUSH1 0x7 SLOAD PUSH1 0xFF AND PUSH2 0x90A JUMPI PUSH1 0x40 MLOAD PUSH3 0x461BCD PUSH1 0xE5 SHL DUP2 MSTORE PUSH1 0x20 PUSH1 0x4 DUP3 ADD MSTORE PUSH1 0x14 PUSH1 0x24 DUP3 ADD MSTORE PUSH20 0x14185D5CD8589B194E881B9BDD081C185D5CD959 PUSH1 0x62 SHL PUSH1 0x44 DUP3 ADD MSTORE PUSH1 0x64 ADD PUSH2 0x7CA JUMP JUMPDEST DUP1 CALLDATALOAD PUSH1 0x1 PUSH1 0x1 PUSH1 0xA0 SHL SUB DUP2 AND DUP2 EQ PUSH2 0x1C07 JUMPI PUSH1 0x0 DUP1 REVERT JUMPDEST SWAP2 SWAP1 POP JUMP JUMPDEST PUSH1 0x0 PUSH1 0x20 DUP3 DUP5 SUB SLT ISZERO PUSH2 0x1C1E JUMPI PUSH1 0x0 DUP1 REVERT JUMPDEST PUSH2 0x78B DUP3 PUSH2 0x1BF0 JUMP JUMPDEST PUSH1 0x0 JUMPDEST DUP4 DUP2 LT ISZERO PUSH2 0x1C42 JUMPI DUP2 DUP2 ADD MLOAD DUP4 DUP3 ADD MSTORE PUSH1 0x20 ADD PUSH2 0x1C2A JUMP JUMPDEST POP POP PUSH1 0x0 SWAP2 ADD MSTORE JUMP JUMPDEST PUSH1 0x0 DUP2 MLOAD DUP1 DUP5 MSTORE PUSH2 0x1C63 DUP2 PUSH1 0x20 DUP7 ADD PUSH1 0x20 DUP7 ADD PUSH2 0x1C27 JUMP JUMPDEST PUSH1 0x1F ADD PUSH1 0x1F NOT AND SWAP3 SWAP1 SWAP3 ADD PUSH1 0x20 ADD SWAP3 SWAP2 POP POP JUMP JUMPDEST PUSH1 0x20 DUP2 MSTORE PUSH1 0x0 PUSH2 0x78B PUSH1 0x20 DUP4 ADD DUP5 PUSH2 0x1C4B JUMP JUMPDEST PUSH1 0x0 DUP1 PUSH1 0x40 DUP4 DUP6 SUB SLT ISZERO PUSH2 0x1C9D JUMPI PUSH1 0x0 DUP1 REVERT JUMPDEST PUSH2 0x1CA6 DUP4 PUSH2 0x1BF0 JUMP JUMPDEST SWAP5 PUSH1 0x20 SWAP4 SWAP1 SWAP4 ADD CALLDATALOAD SWAP4 POP POP POP JUMP JUMPDEST PUSH1 0x0 DUP1 PUSH1 0x0 PUSH1 0x60 DUP5 DUP7 SUB SLT ISZERO PUSH2 0x1CC9 JUMPI PUSH1 0x0 DUP1 REVERT JUMPDEST PUSH2 0x1CD2 DUP5 PUSH2 0x1BF0 JUMP JUMPDEST SWAP3 POP PUSH2 0x1CE0 PUSH1 0x20 DUP6 ADD PUSH2 0x1BF0 JUMP JUMPDEST SWAP3 SWAP6 SWAP3 SWAP5 POP POP POP PUSH1 0x40 SWAP2 SWAP1 SWAP2 ADD CALLDATALOAD SWAP1 JUMP JUMPDEST PUSH1 0x0 DUP1 PUSH1 0x0 PUSH1 0x60 DUP5 DUP7 SUB SLT ISZERO PUSH2 0x1D06 JUMPI PUSH1 0x0 DUP1 REVERT JUMPDEST PUSH2 0x1D0F DUP5 PUSH2 0x1BF0 JUMP JUMPDEST SWAP6 PUSH1 0x20 DUP6 ADD CALLDATALOAD SWAP6 POP PUSH1 0x40 SWAP1 SWAP5 ADD CALLDATALOAD SWAP4 SWAP3 POP POP POP JUMP JUMPDEST PUSH1 0x0 PUSH1 0x20 DUP3 DUP5 SUB SLT ISZERO PUSH2 0x1D36 JUMPI PUSH1 0x0 DUP1 REVERT JUMPDEST POP CALLDATALOAD SWAP2 SWAP1 POP JUMP JUMPDEST PUSH4 0x4E487B71 PUSH1 0xE0 SHL PUSH1 0x0 MSTORE PUSH1 0x41 PUSH1 0x4 MSTORE PUSH1 0x24 PUSH1 0x0 REVERT JUMPDEST PUSH1 0x0 DUP1 PUSH1 0x40 DUP4 DUP6 SUB SLT ISZERO PUSH2 0x1D66 JUMPI PUSH1 0x0 DUP1 REVERT JUMPDEST DUP3 CALLDATALOAD PUSH8 0xFFFFFFFFFFFFFFFF DUP2 GT ISZERO PUSH2 0x1D7D JUMPI PUSH1 0x0 DUP1 REVERT JUMPDEST DUP4 ADD PUSH1 0x1F DUP2 ADD DUP6 SGT PUSH2 0x1D8E JUMPI PUSH1 0x0 DUP1 REVERT JUMPDEST DUP1 CALLDATALOAD PUSH8 0xFFFFFFFFFFFFFFFF DUP2 GT ISZERO PUSH2 0x1DA8 JUMPI PUSH2 0x1DA8 PUSH2 0x1D3D JUMP JUMPDEST PUSH1 0x40 MLOAD PUSH1 0x1F DUP3 ADD PUSH1 0x1F NOT SWAP1 DUP2 AND PUSH1 0x3F ADD AND DUP2 ADD PUSH8 0xFFFFFFFFFFFFFFFF DUP2 GT DUP3 DUP3 LT OR ISZERO PUSH2 0x1DD7 JUMPI PUSH2 0x1DD7 PUSH2 0x1D3D JUMP JUMPDEST PUSH1 0x40 MSTORE DUP2 DUP2 MSTORE DUP3 DUP3 ADD PUSH1 0x20 ADD DUP8 LT ISZERO PUSH2 0x1DEF JUMPI PUSH1 0x0 DUP1 REVERT JUMPDEST DUP2 PUSH1 0x20 DUP5 ADD PUSH1 0x20 DUP4 ADD CALLDATACOPY PUSH1 0x0 PUSH1 0x20 DUP4 DUP4 ADD ADD MSTORE DUP1 SWAP5 POP POP POP POP PUSH2 0x1E14 PUSH1 0x20 DUP5 ADD PUSH2 0x1BF0 JUMP JUMPDEST SWAP1 POP SWAP3 POP SWAP3 SWAP1 POP JUMP JUMPDEST PUSH1 0x0 DUP1 PUSH1 0x40 DUP4 DUP6 SUB SLT ISZERO PUSH2 0x1E30 JUMPI PUSH1 0x0 DUP1 REVERT JUMPDEST PUSH2 0x1E39 DUP4 PUSH2 0x1BF0 JUMP JUMPDEST SWAP2 POP PUSH2 0x1E14 PUSH1 0x20 DUP5 ADD PUSH2 0x1BF0 JUMP JUMPDEST PUSH1 0x1 DUP2 DUP2 SHR SWAP1 DUP3 AND DUP1 PUSH2 0x1E5B JUMPI PUSH1 0x7F DUP3 AND SWAP2 POP JUMPDEST PUSH1 0x20 DUP3 LT DUP2 SUB PUSH2 0x1E7B JUMPI PUSH4 0x4E487B71 PUSH1 0xE0 SHL PUSH1 0x0 MSTORE PUSH1 0x22 PUSH1 0x4 MSTORE PUSH1 0x24 PUSH1 0x0 REVERT JUMPDEST POP SWAP2 SWAP1 POP JUMP JUMPDEST PUSH1 0x20 DUP1 DUP3 MSTORE PUSH1 0x11 SWAP1 DUP3 ADD MSTORE PUSH17 0x125B9D985B1A59081C9958DA5C1A595B9D PUSH1 0x7A SHL PUSH1 0x40 DUP3 ADD MSTORE PUSH1 0x60 ADD SWAP1 JUMP JUMPDEST PUSH1 0x20 DUP1 DUP3 MSTORE PUSH1 0xE SWAP1 DUP3 ADD MSTORE PUSH14 0x125B9D985B1A5908185B5BDD5B9D PUSH1 0x92 SHL PUSH1 0x40 DUP3 ADD MSTORE PUSH1 0x60 ADD SWAP1 JUMP JUMPDEST PUSH4 0x4E487B71 PUSH1 0xE0 SHL PUSH1 0x0 MSTORE PUSH1 0x11 PUSH1 0x4 MSTORE PUSH1 0x24 PUSH1 0x0 REVERT JUMPDEST DUP1 DUP3 MUL DUP2 ISZERO DUP3 DUP3 DIV DUP5 EQ OR PUSH2 0x766 JUMPI PUSH2 0x766 PUSH2 0x1ED4 JUMP JUMPDEST PUSH1 0x0 DUP3 PUSH2 0x1F1E JUMPI PUSH4 0x4E487B71 PUSH1 0xE0 SHL PUSH1 0x0 MSTORE PUSH1 0x12 PUSH1 0x4 MSTORE PUSH1 0x24 PUSH1 0x0 REVERT JUMPDEST POP DIV SWAP1 JUMP JUMPDEST PUSH1 0x0 DUP3 MLOAD PUSH2 0x1F35 DUP2 DUP5 PUSH1 0x20 DUP8 ADD PUSH2 0x1C27 JUMP JUMPDEST SWAP2 SWAP1 SWAP2 ADD SWAP3 SWAP2 POP POP JUMP JUMPDEST PUSH1 0x20 DUP1 DUP3 MSTORE PUSH1 0x13 SWAP1 DUP3 ADD MSTORE PUSH19 0x53616D652077616C6C65742061646472657373 PUSH1 0x68 SHL PUSH1 0x40 DUP3 ADD MSTORE PUSH1 0x60 ADD SWAP1 JUMP JUMPDEST PUSH1 0x40 DUP2 MSTORE PUSH1 0x0 PUSH2 0x1F7F PUSH1 0x40 DUP4 ADD DUP6 PUSH2 0x1C4B JUMP JUMPDEST SWAP1 POP PUSH1 0x1 DUP1 PUSH1 0xA0 SHL SUB DUP4 AND PUSH1 0x20 DUP4 ADD MSTORE SWAP4 SWAP3 POP POP POP JUMP JUMPDEST PUSH1 0x0 PUSH1 0x20 DUP3 DUP5 SUB SLT ISZERO PUSH2 0x1FA8 JUMPI PUSH1 0x0 DUP1 REVERT JUMPDEST POP MLOAD SWAP2 SWAP1 POP JUMP JUMPDEST PUSH1 0x0 PUSH1 0x20 DUP3 DUP5 SUB SLT ISZERO PUSH2 0x1FC1 JUMPI PUSH1 0x0 DUP1 REVERT JUMPDEST DUP2 MLOAD DUP1 ISZERO ISZERO DUP2 EQ PUSH2 0x78B JUMPI PUSH1 0x0 DUP1 REVERT JUMPDEST DUP2 DUP2 SUB DUP2 DUP2 GT ISZERO PUSH2 0x766 JUMPI PUSH2 0x766 PUSH2 0x1ED4 JUMP JUMPDEST DUP1 DUP3 ADD DUP1 DUP3 GT ISZERO PUSH2 0x766 JUMPI PUSH2 0x766 PUSH2 0x1ED4 JUMP INVALID LOG2 PUSH5 0x6970667358 0x22 SLT KECCAK256 CALL DUP5 0xE9 DUP14 0x2F CODESIZE SWAP4 PUSH21 0xB4BAD94C2D07ACCF52FB3A7D3F3BB13ACD4D85349F SWAP4 RETURN GASPRICE PUSH5 0x736F6C6343 STOP ADDMOD SHR STOP CALLER "
				},
				"gasEstimates": {
					"creation": {
						"codeDepositCost": "1647400",
						"executionCost": "infinite",
						"totalCost": "infinite"
					},
					"external": {
						"COMMUNITY_ALLOCATION()": "464",
						"ECOSYSTEM_ALLOCATION()": "398",
						"LIQUIDITY_ALLOCATION()": "485",
						"RESERVE_ALLOCATION()": "421",
						"TOTAL_SUPPLY()": "324",
						"TREASURY_ALLOCATION()": "398",
						"VESTING_PERIOD()": "231",
						"allowance(address,address)": "infinite",
						"approve(address,uint256)": "24829",
						"balanceOf(address)": "2674",
						"burn(uint256)": "100987",
						"communityWallet()": "2426",
						"decimals()": "289",
						"ecosystemWallet()": "2449",
						"emergencyRecoverTokens(address,address)": "infinite",
						"getAllocations()": "infinite",
						"getReleasableVesting(address)": "infinite",
						"getTotalSupply()": "254",
						"getWallets()": "10892",
						"liquidityWallet()": "2448",
						"lockForDAO(uint256)": "infinite",
						"lockedForDAO(address)": "2598",
						"mint(address,uint256)": "infinite",
						"name()": "infinite",
						"owner()": "2443",
						"pause()": "infinite",
						"paused()": "2371",
						"releaseVesting(address)": "infinite",
						"renounceOwnership()": "infinite",
						"reserveWallet()": "2381",
						"symbol()": "infinite",
						"totalLockedForDAO()": "2329",
						"totalSupply()": "2416",
						"transfer(address,uint256)": "55407",
						"transferFrom(address,address,uint256)": "infinite",
						"transferOwnership(address)": "28446",
						"transferWithLeverage(address,uint256,uint256)": "infinite",
						"treasuryWallet()": "2482",
						"unlockFromDAO(uint256)": "infinite",
						"unpause()": "infinite",
						"updateWallet(string,address)": "infinite",
						"vestingSchedules(address)": "4812",
						"vestingStart()": "infinite"
					}
				},
				"methodIdentifiers": {
					"COMMUNITY_ALLOCATION()": "993eb1c5",
					"ECOSYSTEM_ALLOCATION()": "90534f24",
					"LIQUIDITY_ALLOCATION()": "f9428f38",
					"RESERVE_ALLOCATION()": "7b5c7f03",
					"TOTAL_SUPPLY()": "902d55a5",
					"TREASURY_ALLOCATION()": "bf1ad7e0",
					"VESTING_PERIOD()": "0197d972",
					"allowance(address,address)": "dd62ed3e",
					"approve(address,uint256)": "095ea7b3",
					"balanceOf(address)": "70a08231",
					"burn(uint256)": "42966c68",
					"communityWallet()": "c7574839",
					"decimals()": "313ce567",
					"ecosystemWallet()": "435263ef",
					"emergencyRecoverTokens(address,address)": "b7e26a2e",
					"getAllocations()": "65ed6e23",
					"getReleasableVesting(address)": "0553be1e",
					"getTotalSupply()": "c4e41b22",
					"getWallets()": "db7a4605",
					"liquidityWallet()": "d4698016",
					"lockForDAO(uint256)": "9576a374",
					"lockedForDAO(address)": "2af44592",
					"mint(address,uint256)": "40c10f19",
					"name()": "06fdde03",
					"owner()": "8da5cb5b",
					"pause()": "8456cb59",
					"paused()": "5c975abb",
					"releaseVesting(address)": "d486d129",
					"renounceOwnership()": "715018a6",
					"reserveWallet()": "d72b11bd",
					"symbol()": "95d89b41",
					"totalLockedForDAO()": "4a0ced96",
					"totalSupply()": "18160ddd",
					"transfer(address,uint256)": "a9059cbb",
					"transferFrom(address,address,uint256)": "23b872dd",
					"transferOwnership(address)": "f2fde38b",
					"transferWithLeverage(address,uint256,uint256)": "33127b0d",
					"treasuryWallet()": "4626402b",
					"unlockFromDAO(uint256)": "74300378",
					"unpause()": "3f4ba83a",
					"updateWallet(string,address)": "780b9737",
					"vestingSchedules(address)": "fdb20ccb",
					"vestingStart()": "254800d4"
				}
			},
			"storageLayout": {
				"storage": [
					{
						"astId": 480,
						"contract": "quantum/UBI4ALLQuantum.sol:UBI4ALLQuantum",
						"label": "_balances",
						"offset": 0,
						"slot": "0",
						"type": "t_mapping(t_address,t_uint256)"
					},
					{
						"astId": 486,
						"contract": "quantum/UBI4ALLQuantum.sol:UBI4ALLQuantum",
						"label": "_allowances",
						"offset": 0,
						"slot": "1",
						"type": "t_mapping(t_address,t_mapping(t_address,t_uint256))"
					},
					{
						"astId": 488,
						"contract": "quantum/UBI4ALLQuantum.sol:UBI4ALLQuantum",
						"label": "_totalSupply",
						"offset": 0,
						"slot": "2",
						"type": "t_uint256"
					},
					{
						"astId": 490,
						"contract": "quantum/UBI4ALLQuantum.sol:UBI4ALLQuantum",
						"label": "_name",
						"offset": 0,
						"slot": "3",
						"type": "t_string_storage"
					},
					{
						"astId": 492,
						"contract": "quantum/UBI4ALLQuantum.sol:UBI4ALLQuantum",
						"label": "_symbol",
						"offset": 0,
						"slot": "4",
						"type": "t_string_storage"
					},
					{
						"astId": 8,
						"contract": "quantum/UBI4ALLQuantum.sol:UBI4ALLQuantum",
						"label": "_owner",
						"offset": 0,
						"slot": "5",
						"type": "t_address"
					},
					{
						"astId": 403,
						"contract": "quantum/UBI4ALLQuantum.sol:UBI4ALLQuantum",
						"label": "_status",
						"offset": 0,
						"slot": "6",
						"type": "t_uint256"
					},
					{
						"astId": 302,
						"contract": "quantum/UBI4ALLQuantum.sol:UBI4ALLQuantum",
						"label": "_paused",
						"offset": 0,
						"slot": "7",
						"type": "t_bool"
					},
					{
						"astId": 1604,
						"contract": "quantum/UBI4ALLQuantum.sol:UBI4ALLQuantum",
						"label": "treasuryWallet",
						"offset": 1,
						"slot": "7",
						"type": "t_address"
					},
					{
						"astId": 1606,
						"contract": "quantum/UBI4ALLQuantum.sol:UBI4ALLQuantum",
						"label": "ecosystemWallet",
						"offset": 0,
						"slot": "8",
						"type": "t_address"
					},
					{
						"astId": 1608,
						"contract": "quantum/UBI4ALLQuantum.sol:UBI4ALLQuantum",
						"label": "communityWallet",
						"offset": 0,
						"slot": "9",
						"type": "t_address"
					},
					{
						"astId": 1610,
						"contract": "quantum/UBI4ALLQuantum.sol:UBI4ALLQuantum",
						"label": "liquidityWallet",
						"offset": 0,
						"slot": "10",
						"type": "t_address"
					},
					{
						"astId": 1612,
						"contract": "quantum/UBI4ALLQuantum.sol:UBI4ALLQuantum",
						"label": "reserveWallet",
						"offset": 0,
						"slot": "11",
						"type": "t_address"
					},
					{
						"astId": 1617,
						"contract": "quantum/UBI4ALLQuantum.sol:UBI4ALLQuantum",
						"label": "lockedForDAO",
						"offset": 0,
						"slot": "12",
						"type": "t_mapping(t_address,t_uint256)"
					},
					{
						"astId": 1620,
						"contract": "quantum/UBI4ALLQuantum.sol:UBI4ALLQuantum",
						"label": "totalLockedForDAO",
						"offset": 0,
						"slot": "13",
						"type": "t_uint256"
					},
					{
						"astId": 1632,
						"contract": "quantum/UBI4ALLQuantum.sol:UBI4ALLQuantum",
						"label": "vestingSchedules",
						"offset": 0,
						"slot": "14",
						"type": "t_mapping(t_address,t_struct(VestingSchedule)1626_storage)"
					}
				],
				"types": {
					"t_address": {
						"encoding": "inplace",
						"label": "address",
						"numberOfBytes": "20"
					},
					"t_bool": {
						"encoding": "inplace",
						"label": "bool",
						"numberOfBytes": "1"
					},
					"t_mapping(t_address,t_mapping(t_address,t_uint256))": {
						"encoding": "mapping",
						"key": "t_address",
						"label": "mapping(address => mapping(address => uint256))",
						"numberOfBytes": "32",
						"value": "t_mapping(t_address,t_uint256)"
					},
					"t_mapping(t_address,t_struct(VestingSchedule)1626_storage)": {
						"encoding": "mapping",
						"key": "t_address",
						"label": "mapping(address => struct UBI4ALLQuantum.VestingSchedule)",
						"numberOfBytes": "32",
						"value": "t_struct(VestingSchedule)1626_storage"
					},
					"t_mapping(t_address,t_uint256)": {
						"encoding": "mapping",
						"key": "t_address",
						"label": "mapping(address => uint256)",
						"numberOfBytes": "32",
						"value": "t_uint256"
					},
					"t_string_storage": {
						"encoding": "bytes",
						"label": "string",
						"numberOfBytes": "32"
					},
					"t_struct(VestingSchedule)1626_storage": {
						"encoding": "inplace",
						"label": "struct UBI4ALLQuantum.VestingSchedule",
						"members": [
							{
								"astId": 1623,
								"contract": "quantum/UBI4ALLQuantum.sol:UBI4ALLQuantum",
								"label": "totalAmount",
								"offset": 0,
								"slot": "0",
								"type": "t_uint256"
							},
							{
								"astId": 1625,
								"contract": "quantum/UBI4ALLQuantum.sol:UBI4ALLQuantum",
								"label": "releasedAmount",
								"offset": 0,
								"slot": "1",
								"type": "t_uint256"
							}
						],
						"numberOfBytes": "64"
					},
					"t_uint256": {
						"encoding": "inplace",
						"label": "uint256",
						"numberOfBytes": "32"
					}
				}
			},
			"userdoc": {
				"events": {
					"LeveragedTransfer(address,address,uint256,uint256)": {
						"notice": "Evento emesso per trasferimenti con leva"
					},
					"QuantumTransfer(address,address,uint256)": {
						"notice": "Evento emesso per trasferimenti di token"
					},
					"TokensLockedForDAO(address,uint256)": {
						"notice": "Evento emesso per token bloccati per la DAO"
					},
					"TokensUnlockedForDAO(address,uint256)": {
						"notice": "Evento emesso per token sbloccati dalla DAO"
					},
					"VestingReleased(address,uint256)": {
						"notice": "Evento emesso per rilascio di token in vesting"
					}
				},
				"kind": "user",
				"methods": {
					"balanceOf(address)": {
						"notice": "Ottiene il saldo di un account"
					},
					"burn(uint256)": {
						"notice": "Brucia token dal chiamante"
					},
					"constructor": {
						"notice": "Costruttore del contratto"
					},
					"emergencyRecoverTokens(address,address)": {
						"notice": "Recupera token ERC20 bloccati nel contratto"
					},
					"getAllocations()": {
						"notice": "Ottiene le allocazioni dei token"
					},
					"getReleasableVesting(address)": {
						"notice": "Ottiene l'importo di token in vesting rilasciabile per un wallet"
					},
					"getTotalSupply()": {
						"notice": "Ottiene il total supply del token"
					},
					"getWallets()": {
						"notice": "Ottiene gli indirizzi dei wallet"
					},
					"lockForDAO(uint256)": {
						"notice": "Blocca token per la DAO"
					},
					"mint(address,uint256)": {
						"notice": "Minta nuovi token"
					},
					"pause()": {
						"notice": "Mette in pausa il contratto"
					},
					"releaseVesting(address)": {
						"notice": "Rilascia i token in vesting per un wallet"
					},
					"transfer(address,uint256)": {
						"notice": "Trasferisce token (con supporto per leva futura)"
					},
					"transferWithLeverage(address,uint256,uint256)": {
						"notice": "Trasferisce token con supporto per leva (per trading avanzato)"
					},
					"unlockFromDAO(uint256)": {
						"notice": "Sblocca token dalla DAO"
					},
					"unpause()": {
						"notice": "Ripristina il contratto dalla pausa"
					},
					"updateWallet(string,address)": {
						"notice": "Aggiorna l'indirizzo di un wallet"
					}
				},
				"notice": "Gestisce il token Q4A con allocazioni, lock per DAO, vesting e supporto per trading con leva",
				"version": 1
			}
		}
	}
}