{
	"quantum/UBI4ALLQuantumFinance.sol": {
		"UBI4ALLQuantumFinance": {
			"abi": [
				{
					"inputs": [
						{
							"internalType": "address",
							"name": "_quantumToken",
							"type": "address"
						},
						{
							"internalType": "address",
							"name": "_oracle",
							"type": "address"
						},
						{
							"internalType": "address",
							"name": "_vrfCoordinator",
							"type": "address"
						},
						{
							"internalType": "bytes32",
							"name": "_keyHash",
							"type": "bytes32"
						},
						{
							"internalType": "uint64",
							"name": "_subscriptionId",
							"type": "uint64"
						},
						{
							"internalType": "address",
							"name": "initialOwner",
							"type": "address"
						}
					],
					"stateMutability": "nonpayable",
					"type": "constructor"
				},
				{
					"inputs": [
						{
							"internalType": "address",
							"name": "have",
							"type": "address"
						},
						{
							"internalType": "address",
							"name": "want",
							"type": "address"
						}
					],
					"name": "OnlyCoordinatorCanFulfill",
					"type": "error"
				},
				{
					"inputs": [
						{
							"internalType": "address",
							"name": "owner",
							"type": "address"
						}
					],
					"name": "OwnableInvalidOwner",
					"type": "error"
				},
				{
					"inputs": [
						{
							"internalType": "address",
							"name": "account",
							"type": "address"
						}
					],
					"name": "OwnableUnauthorizedAccount",
					"type": "error"
				},
				{
					"anonymous": false,
					"inputs": [
						{
							"indexed": true,
							"internalType": "address",
							"name": "user",
							"type": "address"
						},
						{
							"indexed": false,
							"internalType": "uint256",
							"name": "newAPY",
							"type": "uint256"
						}
					],
					"name": "APYUpdated",
					"type": "event"
				},
				{
					"anonymous": false,
					"inputs": [
						{
							"indexed": true,
							"internalType": "address",
							"name": "previousOwner",
							"type": "address"
						},
						{
							"indexed": true,
							"internalType": "address",
							"name": "newOwner",
							"type": "address"
						}
					],
					"name": "OwnershipTransferred",
					"type": "event"
				},
				{
					"anonymous": false,
					"inputs": [
						{
							"indexed": true,
							"internalType": "address",
							"name": "user",
							"type": "address"
						},
						{
							"indexed": false,
							"internalType": "uint256",
							"name": "requestId",
							"type": "uint256"
						}
					],
					"name": "RandomAPYRequested",
					"type": "event"
				},
				{
					"anonymous": false,
					"inputs": [
						{
							"indexed": true,
							"internalType": "address",
							"name": "user",
							"type": "address"
						},
						{
							"indexed": false,
							"internalType": "uint256",
							"name": "amount",
							"type": "uint256"
						}
					],
					"name": "RewardClaimed",
					"type": "event"
				},
				{
					"anonymous": false,
					"inputs": [
						{
							"indexed": true,
							"internalType": "address",
							"name": "user",
							"type": "address"
						},
						{
							"indexed": false,
							"internalType": "uint256",
							"name": "amount",
							"type": "uint256"
						},
						{
							"indexed": false,
							"internalType": "bool",
							"name": "isDAO",
							"type": "bool"
						}
					],
					"name": "Staked",
					"type": "event"
				},
				{
					"anonymous": false,
					"inputs": [
						{
							"indexed": true,
							"internalType": "address",
							"name": "user",
							"type": "address"
						},
						{
							"indexed": false,
							"internalType": "uint256",
							"name": "amount",
							"type": "uint256"
						}
					],
					"name": "Withdrawn",
					"type": "event"
				},
				{
					"inputs": [],
					"name": "BASE_APY",
					"outputs": [
						{
							"internalType": "uint256",
							"name": "",
							"type": "uint256"
						}
					],
					"stateMutability": "view",
					"type": "function"
				},
				{
					"inputs": [],
					"name": "COORDINATOR",
					"outputs": [
						{
							"internalType": "contract VRFCoordinatorV2Interface",
							"name": "",
							"type": "address"
						}
					],
					"stateMutability": "view",
					"type": "function"
				},
				{
					"inputs": [],
					"name": "DAO_APY",
					"outputs": [
						{
							"internalType": "uint256",
							"name": "",
							"type": "uint256"
						}
					],
					"stateMutability": "view",
					"type": "function"
				},
				{
					"inputs": [],
					"name": "DAO_SUPERPOSITION_MAX",
					"outputs": [
						{
							"internalType": "uint256",
							"name": "",
							"type": "uint256"
						}
					],
					"stateMutability": "view",
					"type": "function"
				},
				{
					"inputs": [],
					"name": "DAO_SUPERPOSITION_MIN",
					"outputs": [
						{
							"internalType": "uint256",
							"name": "",
							"type": "uint256"
						}
					],
					"stateMutability": "view",
					"type": "function"
				},
				{
					"inputs": [],
					"name": "SUPERPOSITION_MAX",
					"outputs": [
						{
							"internalType": "uint256",
							"name": "",
							"type": "uint256"
						}
					],
					"stateMutability": "view",
					"type": "function"
				},
				{
					"inputs": [],
					"name": "SUPERPOSITION_MIN",
					"outputs": [
						{
							"internalType": "uint256",
							"name": "",
							"type": "uint256"
						}
					],
					"stateMutability": "view",
					"type": "function"
				},
				{
					"inputs": [],
					"name": "UPDATE_INTERVAL",
					"outputs": [
						{
							"internalType": "uint256",
							"name": "",
							"type": "uint256"
						}
					],
					"stateMutability": "view",
					"type": "function"
				},
				{
					"inputs": [],
					"name": "VOLATILITY_BONUS",
					"outputs": [
						{
							"internalType": "uint256",
							"name": "",
							"type": "uint256"
						}
					],
					"stateMutability": "view",
					"type": "function"
				},
				{
					"inputs": [
						{
							"internalType": "address",
							"name": "user",
							"type": "address"
						}
					],
					"name": "calculateReward",
					"outputs": [
						{
							"internalType": "uint256",
							"name": "",
							"type": "uint256"
						}
					],
					"stateMutability": "view",
					"type": "function"
				},
				{
					"inputs": [],
					"name": "callbackGasLimit",
					"outputs": [
						{
							"internalType": "uint32",
							"name": "",
							"type": "uint32"
						}
					],
					"stateMutability": "view",
					"type": "function"
				},
				{
					"inputs": [],
					"name": "claimReward",
					"outputs": [],
					"stateMutability": "nonpayable",
					"type": "function"
				},
				{
					"inputs": [
						{
							"internalType": "address",
							"name": "user",
							"type": "address"
						}
					],
					"name": "getStakedBalance",
					"outputs": [
						{
							"internalType": "uint256",
							"name": "",
							"type": "uint256"
						}
					],
					"stateMutability": "view",
					"type": "function"
				},
				{
					"inputs": [],
					"name": "getTotalValueLocked",
					"outputs": [
						{
							"internalType": "uint256",
							"name": "",
							"type": "uint256"
						}
					],
					"stateMutability": "view",
					"type": "function"
				},
				{
					"inputs": [],
					"name": "keyHash",
					"outputs": [
						{
							"internalType": "bytes32",
							"name": "",
							"type": "bytes32"
						}
					],
					"stateMutability": "view",
					"type": "function"
				},
				{
					"inputs": [],
					"name": "numWords",
					"outputs": [
						{
							"internalType": "uint32",
							"name": "",
							"type": "uint32"
						}
					],
					"stateMutability": "view",
					"type": "function"
				},
				{
					"inputs": [],
					"name": "oracle",
					"outputs": [
						{
							"internalType": "contract IUBI4ALLOracle",
							"name": "",
							"type": "address"
						}
					],
					"stateMutability": "view",
					"type": "function"
				},
				{
					"inputs": [],
					"name": "owner",
					"outputs": [
						{
							"internalType": "address",
							"name": "",
							"type": "address"
						}
					],
					"stateMutability": "view",
					"type": "function"
				},
				{
					"inputs": [],
					"name": "quantumToken",
					"outputs": [
						{
							"internalType": "contract IUBI4ALLQuantum",
							"name": "",
							"type": "address"
						}
					],
					"stateMutability": "view",
					"type": "function"
				},
				{
					"inputs": [
						{
							"internalType": "uint256",
							"name": "requestId",
							"type": "uint256"
						},
						{
							"internalType": "uint256[]",
							"name": "randomWords",
							"type": "uint256[]"
						}
					],
					"name": "rawFulfillRandomWords",
					"outputs": [],
					"stateMutability": "nonpayable",
					"type": "function"
				},
				{
					"inputs": [],
					"name": "renounceOwnership",
					"outputs": [],
					"stateMutability": "nonpayable",
					"type": "function"
				},
				{
					"inputs": [],
					"name": "requestConfirmations",
					"outputs": [
						{
							"internalType": "uint16",
							"name": "",
							"type": "uint16"
						}
					],
					"stateMutability": "view",
					"type": "function"
				},
				{
					"inputs": [
						{
							"internalType": "uint256",
							"name": "",
							"type": "uint256"
						}
					],
					"name": "requestToUser",
					"outputs": [
						{
							"internalType": "address",
							"name": "",
							"type": "address"
						}
					],
					"stateMutability": "view",
					"type": "function"
				},
				{
					"inputs": [
						{
							"internalType": "uint256",
							"name": "amount",
							"type": "uint256"
						}
					],
					"name": "stake",
					"outputs": [],
					"stateMutability": "nonpayable",
					"type": "function"
				},
				{
					"inputs": [
						{
							"internalType": "uint256",
							"name": "amount",
							"type": "uint256"
						}
					],
					"name": "stakeForDAO",
					"outputs": [],
					"stateMutability": "nonpayable",
					"type": "function"
				},
				{
					"inputs": [
						{
							"internalType": "address",
							"name": "",
							"type": "address"
						}
					],
					"name": "stakes",
					"outputs": [
						{
							"internalType": "uint256",
							"name": "amount",
							"type": "uint256"
						},
						{
							"internalType": "uint256",
							"name": "daoAmount",
							"type": "uint256"
						},
						{
							"internalType": "uint256",
							"name": "lastUpdate",
							"type": "uint256"
						},
						{
							"internalType": "uint256",
							"name": "accumulatedReward",
							"type": "uint256"
						},
						{
							"internalType": "uint256",
							"name": "currentAPY",
							"type": "uint256"
						}
					],
					"stateMutability": "view",
					"type": "function"
				},
				{
					"inputs": [],
					"name": "subscriptionId",
					"outputs": [
						{
							"internalType": "uint64",
							"name": "",
							"type": "uint64"
						}
					],
					"stateMutability": "view",
					"type": "function"
				},
				{
					"inputs": [],
					"name": "totalValueLocked",
					"outputs": [
						{
							"internalType": "uint256",
							"name": "",
							"type": "uint256"
						}
					],
					"stateMutability": "view",
					"type": "function"
				},
				{
					"inputs": [
						{
							"internalType": "address",
							"name": "newOwner",
							"type": "address"
						}
					],
					"name": "transferOwnership",
					"outputs": [],
					"stateMutability": "nonpayable",
					"type": "function"
				},
				{
					"inputs": [
						{
							"internalType": "uint32",
							"name": "_callbackGasLimit",
							"type": "uint32"
						},
						{
							"internalType": "uint16",
							"name": "_requestConfirmations",
							"type": "uint16"
						}
					],
					"name": "updateVRFParams",
					"outputs": [],
					"stateMutability": "nonpayable",
					"type": "function"
				},
				{
					"inputs": [
						{
							"internalType": "uint256",
							"name": "amount",
							"type": "uint256"
						}
					],
					"name": "withdraw",
					"outputs": [],
					"stateMutability": "nonpayable",
					"type": "function"
				}
			],
			"devdoc": {
				"errors": {
					"OwnableInvalidOwner(address)": [
						{
							"details": "The owner is not a valid owner account. (eg. `address(0)`)"
						}
					],
					"OwnableUnauthorizedAccount(address)": [
						{
							"details": "The caller account is not authorized to perform an operation."
						}
					]
				},
				"kind": "dev",
				"methods": {
					"calculateReward(address)": {
						"params": {
							"user": "Indirizzo dell'utente"
						},
						"returns": {
							"_0": "Ricompense totali (accumulate + in attesa)"
						}
					},
					"constructor": {
						"params": {
							"_keyHash": "Gas key per VRF",
							"_oracle": "Indirizzo dell'oracolo",
							"_quantumToken": "Indirizzo del contratto Q4A",
							"_subscriptionId": "ID della sottoscrizione VRF",
							"_vrfCoordinator": "Indirizzo del coordinatore VRF Chainlink",
							"initialOwner": "Indirizzo del proprietario iniziale"
						}
					},
					"getStakedBalance(address)": {
						"params": {
							"user": "Indirizzo dell'utente"
						},
						"returns": {
							"_0": "Saldo staked totale (standard + DAO)"
						}
					},
					"getTotalValueLocked()": {
						"returns": {
							"_0": "Totale dei token staked"
						}
					},
					"owner()": {
						"details": "Returns the address of the current owner."
					},
					"renounceOwnership()": {
						"details": "Leaves the contract without owner. It will not be possible to call `onlyOwner` functions. Can only be called by the current owner. NOTE: Renouncing ownership will leave the contract without an owner, thereby disabling any functionality that is only available to the owner."
					},
					"stake(uint256)": {
						"params": {
							"amount": "Quantità di token da stakare"
						}
					},
					"stakeForDAO(uint256)": {
						"params": {
							"amount": "Quantità di token da stakare"
						}
					},
					"transferOwnership(address)": {
						"params": {
							"newOwner": "Indirizzo del nuovo proprietario"
						}
					},
					"updateVRFParams(uint32,uint16)": {
						"params": {
							"_callbackGasLimit": "Nuovo limite di gas per il callback",
							"_requestConfirmations": "Nuovo numero di conferme"
						}
					},
					"withdraw(uint256)": {
						"params": {
							"amount": "Quantità di token da prelevare"
						}
					}
				},
				"stateVariables": {
					"BASE_APY": {
						"details": "APY base (10%, in base 10000)"
					},
					"DAO_APY": {
						"details": "APY per DAO (12%, in base 10000)"
					},
					"DAO_SUPERPOSITION_MAX": {
						"details": "APY massimo per staking DAO (16%, in base 10000)"
					},
					"DAO_SUPERPOSITION_MIN": {
						"details": "APY minimo per staking DAO (10%, in base 10000)"
					},
					"SUPERPOSITION_MAX": {
						"details": "APY massimo per staking standard (14%, in base 10000)"
					},
					"SUPERPOSITION_MIN": {
						"details": "APY minimo per staking standard (8%, in base 10000)"
					},
					"UPDATE_INTERVAL": {
						"details": "Intervallo di aggiornamento APY (30 giorni)"
					},
					"VOLATILITY_BONUS": {
						"details": "Bonus massimo per volatilità (2%, in base 10000)"
					},
					"callbackGasLimit": {
						"details": "Limite di gas per il callback VRF"
					},
					"keyHash": {
						"details": "Gas key per VRF"
					},
					"numWords": {
						"details": "Numero di parole casuali richieste"
					},
					"requestConfirmations": {
						"details": "Numero di conferme richieste per VRF"
					},
					"requestToUser": {
						"details": "Mappatura delle richieste VRF per utente"
					},
					"stakes": {
						"details": "Mappatura degli stake per utente"
					},
					"subscriptionId": {
						"details": "ID della sottoscrizione VRF"
					},
					"totalValueLocked": {
						"details": "Totale dei token staked"
					}
				},
				"title": "UBI4ALLQuantumFinance - Contratto di staking e finanza per il token Q4A",
				"version": 1
			},
			"evm": {
				"assembly": "    /* \"quantum/UBI4ALLQuantumFinance.sol\":585:11196  contract UBI4ALLQuantumFinance is Ownable, VRFConsumerBaseV2, IUBI4ALLQuantumFinance {... */\n  mstore(0x40, 0x0140)\n    /* \"quantum/UBI4ALLQuantumFinance.sol\":2545:2585  uint32 public callbackGasLimit = 100_000 */\n  0x04\n  dup1\n  sload\n  not(sub(shl(0x50, 0x01), 0x01))\n    /* \"quantum/UBI4ALLQuantumFinance.sol\":2733:2759  uint32 public numWords = 1 */\n  and\n  0x010003000186a0\n  or\n  swap1\n  sstore\n    /* \"quantum/UBI4ALLQuantumFinance.sol\":3802:4514  constructor(... */\n  callvalue\n  dup1\n  iszero\n  tag_1\n  jumpi\n  0x00\n  dup1\n  revert\ntag_1:\n  pop\n  mload(0x40)\n  sub(codesize, bytecodeSize)\n  dup1\n  bytecodeSize\n  dup4\n  codecopy\n  dup2\n  add\n  0x40\n  dup2\n  swap1\n  mstore\n  tag_2\n  swap2\n  tag_3\n  jump\t// in\ntag_2:\n    /* \"quantum/UBI4ALLQuantumFinance.sol\":4037:4052  _vrfCoordinator */\n  dup4\n    /* \"quantum/UBI4ALLQuantumFinance.sol\":4005:4017  initialOwner */\n  dup2\n  sub(shl(0xa0, 0x01), 0x01)\n    /* \"@openzeppelin/contracts/access/Ownable.sol\":1273:1299  initialOwner == address(0) */\n  dup2\n  and\n    /* \"@openzeppelin/contracts/access/Ownable.sol\":1269:1364  if (initialOwner == address(0)) {... */\n  tag_8\n  jumpi\n    /* \"@openzeppelin/contracts/access/Ownable.sol\":1322:1353  OwnableInvalidOwner(address(0)) */\n  mload(0x40)\n  shl(0xe0, 0x1e4fbdf7)\n  dup2\n  mstore\n    /* \"@openzeppelin/contracts/access/Ownable.sol\":1350:1351  0 */\n  0x00\n    /* \"@openzeppelin/contracts/access/Ownable.sol\":1322:1353  OwnableInvalidOwner(address(0)) */\n  0x04\n  dup3\n  add\n    /* \"#utility.yul\":1039:1090   */\n  mstore\n    /* \"#utility.yul\":1012:1030   */\n  0x24\n  add\n    /* \"@openzeppelin/contracts/access/Ownable.sol\":1322:1353  OwnableInvalidOwner(address(0)) */\ntag_9:\n  mload(0x40)\n  dup1\n  swap2\n  sub\n  swap1\n  revert\n    /* \"@openzeppelin/contracts/access/Ownable.sol\":1269:1364  if (initialOwner == address(0)) {... */\ntag_8:\n    /* \"@openzeppelin/contracts/access/Ownable.sol\":1373:1405  _transferOwnership(initialOwner) */\n  tag_11\n    /* \"@openzeppelin/contracts/access/Ownable.sol\":1392:1404  initialOwner */\n  dup2\n    /* \"@openzeppelin/contracts/access/Ownable.sol\":1373:1391  _transferOwnership */\n  tag_12\n    /* \"@openzeppelin/contracts/access/Ownable.sol\":1373:1405  _transferOwnership(initialOwner) */\n  jump\t// in\ntag_11:\n  pop\n  sub(shl(0xa0, 0x01), 0x01)\n    /* \"@chainlink/contracts/src/v0.8/VRFConsumerBaseV2.sol\":5599:5631  vrfCoordinator = _vrfCoordinator */\n  swap1\n  dup2\n  and\n  0x80\n  mstore\n    /* \"quantum/UBI4ALLQuantumFinance.sol\":4072:4099  _quantumToken != address(0) */\n  dup7\n  and\n    /* \"quantum/UBI4ALLQuantumFinance.sol\":4064:4125  require(_quantumToken != address(0), \"Invalid token address\") */\n  tag_15\n  jumpi\n  mload(0x40)\n  shl(0xe5, 0x461bcd)\n  dup2\n  mstore\n    /* \"#utility.yul\":1303:1305   */\n  0x20\n    /* \"quantum/UBI4ALLQuantumFinance.sol\":4064:4125  require(_quantumToken != address(0), \"Invalid token address\") */\n  0x04\n  dup3\n  add\n    /* \"#utility.yul\":1285:1306   */\n  mstore\n    /* \"#utility.yul\":1342:1344   */\n  0x15\n    /* \"#utility.yul\":1322:1340   */\n  0x24\n  dup3\n  add\n    /* \"#utility.yul\":1315:1345   */\n  mstore\n    /* \"#utility.yul\":1381:1404   */\n  0x496e76616c696420746f6b656e20616464726573730000000000000000000000\n    /* \"#utility.yul\":1361:1379   */\n  0x44\n  dup3\n  add\n    /* \"#utility.yul\":1354:1405   */\n  mstore\n    /* \"#utility.yul\":1422:1440   */\n  0x64\n  add\n    /* \"quantum/UBI4ALLQuantumFinance.sol\":4064:4125  require(_quantumToken != address(0), \"Invalid token address\") */\n  tag_9\n    /* \"#utility.yul\":1101:1446   */\n  jump\n    /* \"quantum/UBI4ALLQuantumFinance.sol\":4064:4125  require(_quantumToken != address(0), \"Invalid token address\") */\ntag_15:\n  sub(shl(0xa0, 0x01), 0x01)\n    /* \"quantum/UBI4ALLQuantumFinance.sol\":4143:4164  _oracle != address(0) */\n  dup6\n  and\n    /* \"quantum/UBI4ALLQuantumFinance.sol\":4135:4191  require(_oracle != address(0), \"Invalid oracle address\") */\n  tag_18\n  jumpi\n  mload(0x40)\n  shl(0xe5, 0x461bcd)\n  dup2\n  mstore\n    /* \"#utility.yul\":1653:1655   */\n  0x20\n    /* \"quantum/UBI4ALLQuantumFinance.sol\":4135:4191  require(_oracle != address(0), \"Invalid oracle address\") */\n  0x04\n  dup3\n  add\n    /* \"#utility.yul\":1635:1656   */\n  mstore\n    /* \"#utility.yul\":1692:1694   */\n  0x16\n    /* \"#utility.yul\":1672:1690   */\n  0x24\n  dup3\n  add\n    /* \"#utility.yul\":1665:1695   */\n  mstore\n    /* \"#utility.yul\":1731:1755   */\n  0x496e76616c6964206f7261636c65206164647265737300000000000000000000\n    /* \"#utility.yul\":1711:1729   */\n  0x44\n  dup3\n  add\n    /* \"#utility.yul\":1704:1756   */\n  mstore\n    /* \"#utility.yul\":1773:1791   */\n  0x64\n  add\n    /* \"quantum/UBI4ALLQuantumFinance.sol\":4135:4191  require(_oracle != address(0), \"Invalid oracle address\") */\n  tag_9\n    /* \"#utility.yul\":1451:1797   */\n  jump\n    /* \"quantum/UBI4ALLQuantumFinance.sol\":4135:4191  require(_oracle != address(0), \"Invalid oracle address\") */\ntag_18:\n  sub(shl(0xa0, 0x01), 0x01)\n    /* \"quantum/UBI4ALLQuantumFinance.sol\":4209:4238  _vrfCoordinator != address(0) */\n  dup5\n  and\n    /* \"quantum/UBI4ALLQuantumFinance.sol\":4201:4274  require(_vrfCoordinator != address(0), \"Invalid VRF coordinator address\") */\n  tag_21\n  jumpi\n  mload(0x40)\n  shl(0xe5, 0x461bcd)\n  dup2\n  mstore\n    /* \"#utility.yul\":2004:2006   */\n  0x20\n    /* \"quantum/UBI4ALLQuantumFinance.sol\":4201:4274  require(_vrfCoordinator != address(0), \"Invalid VRF coordinator address\") */\n  0x04\n  dup3\n  add\n    /* \"#utility.yul\":1986:2007   */\n  mstore\n    /* \"#utility.yul\":2043:2045   */\n  0x1f\n    /* \"#utility.yul\":2023:2041   */\n  0x24\n  dup3\n  add\n    /* \"#utility.yul\":2016:2046   */\n  mstore\n    /* \"#utility.yul\":2082:2115   */\n  0x496e76616c69642056524620636f6f7264696e61746f72206164647265737300\n    /* \"#utility.yul\":2062:2080   */\n  0x44\n  dup3\n  add\n    /* \"#utility.yul\":2055:2116   */\n  mstore\n    /* \"#utility.yul\":2133:2151   */\n  0x64\n  add\n    /* \"quantum/UBI4ALLQuantumFinance.sol\":4201:4274  require(_vrfCoordinator != address(0), \"Invalid VRF coordinator address\") */\n  tag_9\n    /* \"#utility.yul\":1802:2157   */\n  jump\n    /* \"quantum/UBI4ALLQuantumFinance.sol\":4201:4274  require(_vrfCoordinator != address(0), \"Invalid VRF coordinator address\") */\ntag_21:\n  pop\n  sub(shl(0xa0, 0x01), 0x01)\n    /* \"quantum/UBI4ALLQuantumFinance.sol\":4284:4329  quantumToken = IUBI4ALLQuantum(_quantumToken) */\n  swap5\n  dup6\n  and\n  0xa0\n  mstore\n    /* \"quantum/UBI4ALLQuantumFinance.sol\":4339:4371  oracle = IUBI4ALLOracle(_oracle) */\n  swap3\n  dup5\n  and\n  0xc0\n  mstore\n    /* \"quantum/UBI4ALLQuantumFinance.sol\":4381:4437  COORDINATOR = VRFCoordinatorV2Interface(_vrfCoordinator) */\n  swap3\n  and\n  0xe0\n  mstore\n    /* \"quantum/UBI4ALLQuantumFinance.sol\":4447:4465  keyHash = _keyHash */\n  0x0100\n  swap2\n  swap1\n  swap2\n  mstore\n  sub(shl(0x40, 0x01), 0x01)\n    /* \"quantum/UBI4ALLQuantumFinance.sol\":4475:4507  subscriptionId = _subscriptionId */\n  and\n  0x0120\n  mstore\n    /* \"quantum/UBI4ALLQuantumFinance.sol\":585:11196  contract UBI4ALLQuantumFinance is Ownable, VRFConsumerBaseV2, IUBI4ALLQuantumFinance {... */\n  jump(tag_27)\n    /* \"@openzeppelin/contracts/access/Ownable.sol\":2912:3099  function _transferOwnership(address newOwner) internal virtual {... */\ntag_12:\n    /* \"@openzeppelin/contracts/access/Ownable.sol\":2985:3001  address oldOwner */\n  0x00\n    /* \"@openzeppelin/contracts/access/Ownable.sol\":3004:3010  _owner */\n  dup1\n  sload\n  sub(shl(0xa0, 0x01), 0x01)\n    /* \"@openzeppelin/contracts/access/Ownable.sol\":3020:3037  _owner = newOwner */\n  dup4\n  dup2\n  and\n  not(sub(shl(0xa0, 0x01), 0x01))\n  dup4\n  and\n  dup2\n  or\n  dup5\n  sstore\n    /* \"@openzeppelin/contracts/access/Ownable.sol\":3052:3092  OwnershipTransferred(oldOwner, newOwner) */\n  mload(0x40)\n    /* \"@openzeppelin/contracts/access/Ownable.sol\":3004:3010  _owner */\n  swap2\n  swap1\n  swap3\n  and\n  swap3\n  dup4\n  swap2\n    /* \"@openzeppelin/contracts/access/Ownable.sol\":3052:3092  OwnershipTransferred(oldOwner, newOwner) */\n  0x8be0079c531659141344cd1fd0a4f28419497f9722a3daafe3b4186f6b6457e0\n  swap2\n    /* \"@openzeppelin/contracts/access/Ownable.sol\":2985:3001  address oldOwner */\n  swap1\n    /* \"@openzeppelin/contracts/access/Ownable.sol\":3052:3092  OwnershipTransferred(oldOwner, newOwner) */\n  log3\n    /* \"@openzeppelin/contracts/access/Ownable.sol\":2975:3099  {... */\n  pop\n    /* \"@openzeppelin/contracts/access/Ownable.sol\":2912:3099  function _transferOwnership(address newOwner) internal virtual {... */\n  pop\n  jump\t// out\n    /* \"#utility.yul\":14:191   */\ntag_26:\n    /* \"#utility.yul\":93:106   */\n  dup1\n  mload\n  sub(shl(0xa0, 0x01), 0x01)\n    /* \"#utility.yul\":135:166   */\n  dup2\n  and\n    /* \"#utility.yul\":125:167   */\n  dup2\n  eq\n    /* \"#utility.yul\":115:185   */\n  tag_29\n  jumpi\n    /* \"#utility.yul\":181:182   */\n  0x00\n    /* \"#utility.yul\":178:179   */\n  dup1\n    /* \"#utility.yul\":171:183   */\n  revert\n    /* \"#utility.yul\":115:185   */\ntag_29:\n    /* \"#utility.yul\":14:191   */\n  swap2\n  swap1\n  pop\n  jump\t// out\n    /* \"#utility.yul\":196:888   */\ntag_3:\n    /* \"#utility.yul\":310:316   */\n  0x00\n    /* \"#utility.yul\":318:324   */\n  dup1\n    /* \"#utility.yul\":326:332   */\n  0x00\n    /* \"#utility.yul\":334:340   */\n  dup1\n    /* \"#utility.yul\":342:348   */\n  0x00\n    /* \"#utility.yul\":350:356   */\n  dup1\n    /* \"#utility.yul\":403:406   */\n  0xc0\n    /* \"#utility.yul\":391:400   */\n  dup8\n    /* \"#utility.yul\":382:389   */\n  dup10\n    /* \"#utility.yul\":378:401   */\n  sub\n    /* \"#utility.yul\":374:407   */\n  slt\n    /* \"#utility.yul\":371:424   */\n  iszero\n  tag_31\n  jumpi\n    /* \"#utility.yul\":420:421   */\n  0x00\n    /* \"#utility.yul\":417:418   */\n  dup1\n    /* \"#utility.yul\":410:422   */\n  revert\n    /* \"#utility.yul\":371:424   */\ntag_31:\n    /* \"#utility.yul\":443:483   */\n  tag_32\n    /* \"#utility.yul\":473:482   */\n  dup8\n    /* \"#utility.yul\":443:483   */\n  tag_26\n  jump\t// in\ntag_32:\n    /* \"#utility.yul\":433:483   */\n  swap6\n  pop\n    /* \"#utility.yul\":502:551   */\n  tag_33\n    /* \"#utility.yul\":547:549   */\n  0x20\n    /* \"#utility.yul\":536:545   */\n  dup9\n    /* \"#utility.yul\":532:550   */\n  add\n    /* \"#utility.yul\":502:551   */\n  tag_26\n  jump\t// in\ntag_33:\n    /* \"#utility.yul\":492:551   */\n  swap5\n  pop\n    /* \"#utility.yul\":570:619   */\n  tag_34\n    /* \"#utility.yul\":615:617   */\n  0x40\n    /* \"#utility.yul\":604:613   */\n  dup9\n    /* \"#utility.yul\":600:618   */\n  add\n    /* \"#utility.yul\":570:619   */\n  tag_26\n  jump\t// in\ntag_34:\n    /* \"#utility.yul\":659:661   */\n  0x60\n    /* \"#utility.yul\":644:662   */\n  dup9\n  add\n    /* \"#utility.yul\":638:663   */\n  mload\n    /* \"#utility.yul\":706:709   */\n  0x80\n    /* \"#utility.yul\":691:710   */\n  dup10\n  add\n    /* \"#utility.yul\":685:711   */\n  mload\n    /* \"#utility.yul\":560:619   */\n  swap2\n  swap6\n  pop\n    /* \"#utility.yul\":638:663   */\n  swap4\n  pop\n  sub(shl(0x40, 0x01), 0x01)\n    /* \"#utility.yul\":740:770   */\n  dup2\n  and\n    /* \"#utility.yul\":730:771   */\n  dup2\n  eq\n    /* \"#utility.yul\":720:789   */\n  tag_35\n  jumpi\n    /* \"#utility.yul\":785:786   */\n  0x00\n    /* \"#utility.yul\":782:783   */\n  dup1\n    /* \"#utility.yul\":775:787   */\n  revert\n    /* \"#utility.yul\":720:789   */\ntag_35:\n    /* \"#utility.yul\":808:813   */\n  swap2\n  pop\n    /* \"#utility.yul\":832:882   */\n  tag_36\n    /* \"#utility.yul\":877:880   */\n  0xa0\n    /* \"#utility.yul\":862:881   */\n  dup9\n  add\n    /* \"#utility.yul\":832:882   */\n  tag_26\n  jump\t// in\ntag_36:\n    /* \"#utility.yul\":822:882   */\n  swap1\n  pop\n    /* \"#utility.yul\":196:888   */\n  swap3\n  swap6\n  pop\n  swap3\n  swap6\n  pop\n  swap3\n  swap6\n  jump\t// out\n    /* \"#utility.yul\":1802:2157   */\ntag_27:\n    /* \"quantum/UBI4ALLQuantumFinance.sol\":585:11196  contract UBI4ALLQuantumFinance is Ownable, VRFConsumerBaseV2, IUBI4ALLQuantumFinance {... */\n  mload(0x80)\n  mload(0xa0)\n  mload(0xc0)\n  mload(0xe0)\n  mload(0x0100)\n  mload(0x0120)\n  codecopy(0x00, dataOffset(sub_0), dataSize(sub_0))\n  0x00\n  assignImmutable(\"0xe699a24dbc75eeaed81a8bf4b3cb0a2b31e2feaa7617ebf93abe15d5ab1d7460\")\n  0x00\n  assignImmutable(\"0xefc69ac575b4738c457b8bcdbf19fb94007e003bdfa78d9f9824d63343ccc553\")\n  0x00\n  assignImmutable(\"0xddeb3ab6e0a1dec15b1c925386318c221afb363e5386443df7661a3a78489ef6\")\n  0x00\n  assignImmutable(\"0x6e132956be3a55a486a3eb165331ac44a364c462bf19ae9edaeaaf7ce14a28d1\")\n  0x00\n  assignImmutable(\"0x936ebad3ce9ca07ea90ed2bfd725a57f30b80673b4865042f86c1416b8cd32d2\")\n  0x00\n  assignImmutable(\"0x1a192fabce13988b84994d4296e6cdc418d55e2f1d7f942188d4040b94fc57ac\")\n  return(0x00, dataSize(sub_0))\nstop\n\nsub_0: assembly {\n        /* \"quantum/UBI4ALLQuantumFinance.sol\":585:11196  contract UBI4ALLQuantumFinance is Ownable, VRFConsumerBaseV2, IUBI4ALLQuantumFinance {... */\n      mstore(0x40, 0x80)\n      callvalue\n      dup1\n      iszero\n      tag_1\n      jumpi\n      0x00\n      dup1\n      revert\n    tag_1:\n      pop\n      jumpi(tag_2, lt(calldatasize, 0x04))\n      shr(0xe0, calldataload(0x00))\n      dup1\n      0x89ac4147\n      gt\n      tag_34\n      jumpi\n      dup1\n      0xb8ed3aad\n      gt\n      tag_35\n      jumpi\n      dup1\n      0xcb8b97f5\n      gt\n      tag_36\n      jumpi\n      dup1\n      0xcb8b97f5\n      eq\n      tag_30\n      jumpi\n      dup1\n      0xd82e3962\n      eq\n      tag_31\n      jumpi\n      dup1\n      0xec18154e\n      eq\n      tag_32\n      jumpi\n      dup1\n      0xf2fde38b\n      eq\n      tag_33\n      jumpi\n      0x00\n      dup1\n      revert\n    tag_36:\n      dup1\n      0xb8ed3aad\n      eq\n      tag_26\n      jumpi\n      dup1\n      0xb94790a4\n      eq\n      tag_27\n      jumpi\n      dup1\n      0xbae4e530\n      eq\n      tag_28\n      jumpi\n      dup1\n      0xc75a0715\n      eq\n      tag_29\n      jumpi\n      0x00\n      dup1\n      revert\n    tag_35:\n      dup1\n      0xa694fc3a\n      gt\n      tag_37\n      jumpi\n      dup1\n      0xa694fc3a\n      eq\n      tag_22\n      jumpi\n      dup1\n      0xb0fb162f\n      eq\n      tag_23\n      jumpi\n      dup1\n      0xb26025aa\n      eq\n      tag_24\n      jumpi\n      dup1\n      0xb88a802f\n      eq\n      tag_25\n      jumpi\n      0x00\n      dup1\n      revert\n    tag_37:\n      dup1\n      0x89ac4147\n      eq\n      tag_18\n      jumpi\n      dup1\n      0x8da5cb5b\n      eq\n      tag_19\n      jumpi\n      dup1\n      0x93565b4c\n      eq\n      tag_20\n      jumpi\n      dup1\n      0x9da378ab\n      eq\n      tag_13\n      jumpi\n      0x00\n      dup1\n      revert\n    tag_34:\n      dup1\n      0x3a02a42d\n      gt\n      tag_38\n      jumpi\n      dup1\n      0x61728f39\n      gt\n      tag_39\n      jumpi\n      dup1\n      0x61728f39\n      eq\n      tag_14\n      jumpi\n      dup1\n      0x715018a6\n      eq\n      tag_15\n      jumpi\n      dup1\n      0x7ccfd7fc\n      eq\n      tag_16\n      jumpi\n      dup1\n      0x7dc0d1d0\n      eq\n      tag_17\n      jumpi\n      0x00\n      dup1\n      revert\n    tag_39:\n      dup1\n      0x3a02a42d\n      eq\n      tag_10\n      jumpi\n      dup1\n      0x3b2bcbf1\n      eq\n      tag_11\n      jumpi\n      dup1\n      0x3e2f7eb5\n      eq\n      tag_12\n      jumpi\n      dup1\n      0x4ca19fd6\n      eq\n      tag_13\n      jumpi\n      0x00\n      dup1\n      revert\n    tag_38:\n      dup1\n      0x1fe543e3\n      gt\n      tag_40\n      jumpi\n      dup1\n      0x1fe543e3\n      eq\n      tag_6\n      jumpi\n      dup1\n      0x24f74697\n      eq\n      tag_7\n      jumpi\n      dup1\n      0x27779748\n      eq\n      tag_8\n      jumpi\n      dup1\n      0x2e1a7d4d\n      eq\n      tag_9\n      jumpi\n      0x00\n      dup1\n      revert\n    tag_40:\n      dup1\n      0x07b2d32f\n      eq\n      tag_3\n      jumpi\n      dup1\n      0x09c1ba2e\n      eq\n      tag_4\n      jumpi\n      dup1\n      0x16934fc4\n      eq\n      tag_5\n      jumpi\n    tag_2:\n      0x00\n      dup1\n      revert\n        /* \"quantum/UBI4ALLQuantumFinance.sol\":1193:1241  uint256 public constant SUPERPOSITION_MIN = 8_00 */\n    tag_3:\n      tag_41\n        /* \"quantum/UBI4ALLQuantumFinance.sol\":1237:1241  8_00 */\n      0x0320\n        /* \"quantum/UBI4ALLQuantumFinance.sol\":1193:1241  uint256 public constant SUPERPOSITION_MIN = 8_00 */\n      dup2\n      jump\n    tag_41:\n      mload(0x40)\n        /* \"#utility.yul\":160:185   */\n      swap1\n      dup2\n      mstore\n        /* \"#utility.yul\":148:150   */\n      0x20\n        /* \"#utility.yul\":133:151   */\n      add\n        /* \"quantum/UBI4ALLQuantumFinance.sol\":1193:1241  uint256 public constant SUPERPOSITION_MIN = 8_00 */\n    tag_43:\n      mload(0x40)\n      dup1\n      swap2\n      sub\n      swap1\n      return\n        /* \"quantum/UBI4ALLQuantumFinance.sol\":2454:2492  uint64 public immutable subscriptionId */\n    tag_4:\n      tag_45\n      immutable(\"0xe699a24dbc75eeaed81a8bf4b3cb0a2b31e2feaa7617ebf93abe15d5ab1d7460\")\n      dup2\n      jump\n    tag_45:\n      mload(0x40)\n        /* \"#utility.yul\":370:388   */\n      0xffffffffffffffff\n        /* \"#utility.yul\":358:389   */\n      swap1\n      swap2\n      and\n        /* \"#utility.yul\":340:390   */\n      dup2\n      mstore\n        /* \"#utility.yul\":328:330   */\n      0x20\n        /* \"#utility.yul\":313:331   */\n      add\n        /* \"quantum/UBI4ALLQuantumFinance.sol\":2454:2492  uint64 public immutable subscriptionId */\n      tag_43\n        /* \"#utility.yul\":196:396   */\n      jump\n        /* \"quantum/UBI4ALLQuantumFinance.sol\":2119:2158  mapping(address => Stake) public stakes */\n    tag_5:\n      tag_49\n      tag_50\n      calldatasize\n      0x04\n      tag_51\n      jump\t// in\n    tag_50:\n      0x01\n      0x20\n      dup2\n      swap1\n      mstore\n      0x00\n      swap2\n      dup3\n      mstore\n      0x40\n      swap1\n      swap2\n      keccak256\n      dup1\n      sload\n      swap2\n      dup2\n      add\n      sload\n      0x02\n      dup3\n      add\n      sload\n      0x03\n      dup4\n      add\n      sload\n      0x04\n      swap1\n      swap4\n      add\n      sload\n      swap2\n      swap3\n      swap1\n      swap2\n      dup6\n      jump\n    tag_49:\n      0x40\n      dup1\n      mload\n        /* \"#utility.yul\":951:976   */\n      swap6\n      dup7\n      mstore\n        /* \"#utility.yul\":1007:1009   */\n      0x20\n        /* \"#utility.yul\":992:1010   */\n      dup7\n      add\n        /* \"#utility.yul\":985:1019   */\n      swap5\n      swap1\n      swap5\n      mstore\n        /* \"#utility.yul\":1035:1053   */\n      swap3\n      dup5\n      add\n        /* \"#utility.yul\":1028:1062   */\n      swap2\n      swap1\n      swap2\n      mstore\n        /* \"#utility.yul\":1093:1095   */\n      0x60\n        /* \"#utility.yul\":1078:1096   */\n      dup4\n      add\n        /* \"#utility.yul\":1071:1105   */\n      mstore\n        /* \"#utility.yul\":1136:1139   */\n      0x80\n        /* \"#utility.yul\":1121:1140   */\n      dup3\n      add\n        /* \"#utility.yul\":1114:1149   */\n      mstore\n        /* \"#utility.yul\":938:941   */\n      0xa0\n        /* \"#utility.yul\":923:942   */\n      add\n        /* \"quantum/UBI4ALLQuantumFinance.sol\":2119:2158  mapping(address => Stake) public stakes */\n      tag_43\n        /* \"#utility.yul\":692:1155   */\n      jump\n        /* \"@chainlink/contracts/src/v0.8/VRFConsumerBaseV2.sol\":6618:6874  function rawFulfillRandomWords(uint256 requestId, uint256[] memory randomWords) external {... */\n    tag_6:\n      tag_55\n      tag_56\n      calldatasize\n      0x04\n      tag_57\n      jump\t// in\n    tag_56:\n      tag_58\n      jump\t// in\n    tag_55:\n      stop\n        /* \"quantum/UBI4ALLQuantumFinance.sol\":2545:2585  uint32 public callbackGasLimit = 100_000 */\n    tag_7:\n      sload(0x04)\n      tag_59\n      swap1\n      0xffffffff\n      and\n      dup2\n      jump\n    tag_59:\n      mload(0x40)\n        /* \"#utility.yul\":2766:2776   */\n      0xffffffff\n        /* \"#utility.yul\":2754:2777   */\n      swap1\n      swap2\n      and\n        /* \"#utility.yul\":2736:2778   */\n      dup2\n      mstore\n        /* \"#utility.yul\":2724:2726   */\n      0x20\n        /* \"#utility.yul\":2709:2727   */\n      add\n        /* \"quantum/UBI4ALLQuantumFinance.sol\":2545:2585  uint32 public callbackGasLimit = 100_000 */\n      tag_43\n        /* \"#utility.yul\":2592:2784   */\n      jump\n        /* \"quantum/UBI4ALLQuantumFinance.sol\":967:1006  uint256 public constant DAO_APY = 12_00 */\n    tag_8:\n      tag_41\n        /* \"quantum/UBI4ALLQuantumFinance.sol\":1001:1006  12_00 */\n      0x04b0\n        /* \"quantum/UBI4ALLQuantumFinance.sol\":967:1006  uint256 public constant DAO_APY = 12_00 */\n      dup2\n      jump\n        /* \"quantum/UBI4ALLQuantumFinance.sol\":5683:6054  function withdraw(uint256 amount) external {... */\n    tag_9:\n      tag_55\n      tag_67\n      calldatasize\n      0x04\n      tag_68\n      jump\t// in\n    tag_67:\n      tag_69\n      jump\t// in\n        /* \"quantum/UBI4ALLQuantumFinance.sol\":9625:9765  function getStakedBalance(address user) external view returns (uint256) {... */\n    tag_10:\n      tag_41\n      tag_71\n      calldatasize\n      0x04\n      tag_51\n      jump\t// in\n    tag_71:\n      tag_72\n      jump\t// in\n        /* \"quantum/UBI4ALLQuantumFinance.sol\":771:825  VRFCoordinatorV2Interface public immutable COORDINATOR */\n    tag_11:\n      tag_74\n      immutable(\"0xddeb3ab6e0a1dec15b1c925386318c221afb363e5386443df7661a3a78489ef6\")\n      dup2\n      jump\n    tag_74:\n      mload(0x40)\n      sub(shl(0xa0, 0x01), 0x01)\n        /* \"#utility.yul\":3217:3249   */\n      swap1\n      swap2\n      and\n        /* \"#utility.yul\":3199:3250   */\n      dup2\n      mstore\n        /* \"#utility.yul\":3187:3189   */\n      0x20\n        /* \"#utility.yul\":3172:3190   */\n      add\n        /* \"quantum/UBI4ALLQuantumFinance.sol\":771:825  VRFCoordinatorV2Interface public immutable COORDINATOR */\n      tag_43\n        /* \"#utility.yul\":3020:3256   */\n      jump\n        /* \"quantum/UBI4ALLQuantumFinance.sol\":2292:2340  mapping(uint256 => address) public requestToUser */\n    tag_12:\n      tag_74\n      tag_79\n      calldatasize\n      0x04\n      tag_68\n      jump\t// in\n    tag_79:\n      mstore(0x20, 0x03)\n      0x00\n      swap1\n      dup2\n      mstore\n      0x40\n      swap1\n      keccak256\n      sload\n      sub(shl(0xa0, 0x01), 0x01)\n      and\n      dup2\n      jump\n        /* \"quantum/UBI4ALLQuantumFinance.sol\":875:915  uint256 public constant BASE_APY = 10_00 */\n    tag_13:\n      tag_41\n        /* \"quantum/UBI4ALLQuantumFinance.sol\":910:915  10_00 */\n      0x03e8\n        /* \"quantum/UBI4ALLQuantumFinance.sol\":875:915  uint256 public constant BASE_APY = 10_00 */\n      dup2\n      jump\n        /* \"quantum/UBI4ALLQuantumFinance.sol\":2375:2407  bytes32 public immutable keyHash */\n    tag_14:\n      tag_41\n      immutable(\"0xefc69ac575b4738c457b8bcdbf19fb94007e003bdfa78d9f9824d63343ccc553\")\n      dup2\n      jump\n        /* \"@openzeppelin/contracts/access/Ownable.sol\":2293:2394  function renounceOwnership() public virtual onlyOwner {... */\n    tag_15:\n      tag_55\n      tag_91\n      jump\t// in\n        /* \"quantum/UBI4ALLQuantumFinance.sol\":2733:2759  uint32 public numWords = 1 */\n    tag_16:\n      sload(0x04)\n      tag_59\n      swap1\n      0x01000000000000\n      swap1\n      div\n      0xffffffff\n      and\n      dup2\n      jump\n        /* \"quantum/UBI4ALLQuantumFinance.sol\":727:765  IUBI4ALLOracle public immutable oracle */\n    tag_17:\n      tag_74\n      immutable(\"0x6e132956be3a55a486a3eb165331ac44a364c462bf19ae9edaeaaf7ce14a28d1\")\n      dup2\n      jump\n        /* \"quantum/UBI4ALLQuantumFinance.sol\":1667:1716  uint256 public constant UPDATE_INTERVAL = 30 days */\n    tag_18:\n      tag_41\n        /* \"quantum/UBI4ALLQuantumFinance.sol\":1709:1716  30 days */\n      0x278d00\n        /* \"quantum/UBI4ALLQuantumFinance.sol\":1667:1716  uint256 public constant UPDATE_INTERVAL = 30 days */\n      dup2\n      jump\n        /* \"@openzeppelin/contracts/access/Ownable.sol\":1638:1723  function owner() public view virtual returns (address) {... */\n    tag_19:\n        /* \"@openzeppelin/contracts/access/Ownable.sol\":1684:1691  address */\n      0x00\n        /* \"@openzeppelin/contracts/access/Ownable.sol\":1710:1716  _owner */\n      sload\n      sub(shl(0xa0, 0x01), 0x01)\n      and\n        /* \"@openzeppelin/contracts/access/Ownable.sol\":1638:1723  function owner() public view virtual returns (address) {... */\n      jump(tag_74)\n        /* \"quantum/UBI4ALLQuantumFinance.sol\":676:721  IUBI4ALLQuantum public immutable quantumToken */\n    tag_20:\n      tag_74\n      immutable(\"0x936ebad3ce9ca07ea90ed2bfd725a57f30b80673b4865042f86c1416b8cd32d2\")\n      dup2\n      jump\n        /* \"quantum/UBI4ALLQuantumFinance.sol\":4621:5020  function stake(uint256 amount) external {... */\n    tag_22:\n      tag_55\n      tag_113\n      calldatasize\n      0x04\n      tag_68\n      jump\t// in\n    tag_113:\n      tag_114\n      jump\t// in\n        /* \"quantum/UBI4ALLQuantumFinance.sol\":2641:2679  uint16 public requestConfirmations = 3 */\n    tag_23:\n      sload(0x04)\n      tag_115\n      swap1\n      0x0100000000\n      swap1\n      div\n      0xffff\n      and\n      dup2\n      jump\n    tag_115:\n      mload(0x40)\n        /* \"#utility.yul\":4288:4294   */\n      0xffff\n        /* \"#utility.yul\":4276:4295   */\n      swap1\n      swap2\n      and\n        /* \"#utility.yul\":4258:4296   */\n      dup2\n      mstore\n        /* \"#utility.yul\":4246:4248   */\n      0x20\n        /* \"#utility.yul\":4231:4249   */\n      add\n        /* \"quantum/UBI4ALLQuantumFinance.sol\":2641:2679  uint16 public requestConfirmations = 3 */\n      tag_43\n        /* \"#utility.yul\":4114:4302   */\n      jump\n        /* \"quantum/UBI4ALLQuantumFinance.sol\":9862:9965  function getTotalValueLocked() external view returns (uint256) {... */\n    tag_24:\n        /* \"quantum/UBI4ALLQuantumFinance.sol\":9942:9958  totalValueLocked */\n      sload(0x02)\n        /* \"quantum/UBI4ALLQuantumFinance.sol\":9862:9965  function getTotalValueLocked() external view returns (uint256) {... */\n      jump(tag_41)\n        /* \"quantum/UBI4ALLQuantumFinance.sol\":6109:6473  function claimReward() external {... */\n    tag_25:\n      tag_55\n      tag_123\n      jump\t// in\n        /* \"quantum/UBI4ALLQuantumFinance.sol\":1075:1122  uint256 public constant VOLATILITY_BONUS = 2_00 */\n    tag_26:\n      tag_41\n        /* \"quantum/UBI4ALLQuantumFinance.sol\":1118:1122  2_00 */\n      0xc8\n        /* \"quantum/UBI4ALLQuantumFinance.sol\":1075:1122  uint256 public constant VOLATILITY_BONUS = 2_00 */\n      dup2\n      jump\n        /* \"quantum/UBI4ALLQuantumFinance.sol\":5138:5586  function stakeForDAO(uint256 amount) external {... */\n    tag_27:\n      tag_55\n      tag_128\n      calldatasize\n      0x04\n      tag_68\n      jump\t// in\n    tag_128:\n      tag_129\n      jump\t// in\n        /* \"quantum/UBI4ALLQuantumFinance.sol\":10690:10897  function updateVRFParams(uint32 _callbackGasLimit, uint16 _requestConfirmations) external onlyOwner {... */\n    tag_28:\n      tag_55\n      tag_131\n      calldatasize\n      0x04\n      tag_132\n      jump\t// in\n    tag_131:\n      tag_133\n      jump\t// in\n        /* \"quantum/UBI4ALLQuantumFinance.sol\":1551:1604  uint256 public constant DAO_SUPERPOSITION_MAX = 16_00 */\n    tag_29:\n      tag_41\n        /* \"quantum/UBI4ALLQuantumFinance.sol\":1599:1604  16_00 */\n      0x0640\n        /* \"quantum/UBI4ALLQuantumFinance.sol\":1551:1604  uint256 public constant DAO_SUPERPOSITION_MAX = 16_00 */\n      dup2\n      jump\n        /* \"quantum/UBI4ALLQuantumFinance.sol\":1314:1363  uint256 public constant SUPERPOSITION_MAX = 14_00 */\n    tag_30:\n      tag_41\n        /* \"quantum/UBI4ALLQuantumFinance.sol\":1358:1363  14_00 */\n      0x0578\n        /* \"quantum/UBI4ALLQuantumFinance.sol\":1314:1363  uint256 public constant SUPERPOSITION_MAX = 14_00 */\n      dup2\n      jump\n        /* \"quantum/UBI4ALLQuantumFinance.sol\":10131:10512  function calculateReward(address user) external view returns (uint256) {... */\n    tag_31:\n      tag_41\n      tag_141\n      calldatasize\n      0x04\n      tag_51\n      jump\t// in\n    tag_141:\n      tag_142\n      jump\t// in\n        /* \"quantum/UBI4ALLQuantumFinance.sol\":2201:2232  uint256 public totalValueLocked */\n    tag_32:\n      tag_41\n      sload(0x02)\n      dup2\n      jump\n        /* \"quantum/UBI4ALLQuantumFinance.sol\":11040:11194  function transferOwnership(address newOwner) public override(Ownable, IUBI4ALLQuantumFinance) onlyOwner {... */\n    tag_33:\n      tag_55\n      tag_148\n      calldatasize\n      0x04\n      tag_51\n      jump\t// in\n    tag_148:\n      tag_149\n      jump\t// in\n        /* \"@chainlink/contracts/src/v0.8/VRFConsumerBaseV2.sol\":6618:6874  function rawFulfillRandomWords(uint256 requestId, uint256[] memory randomWords) external {... */\n    tag_58:\n        /* \"@chainlink/contracts/src/v0.8/VRFConsumerBaseV2.sol\":6717:6727  msg.sender */\n      caller\n      sub(shl(0xa0, 0x01), 0x01)\n        /* \"@chainlink/contracts/src/v0.8/VRFConsumerBaseV2.sol\":6731:6745  vrfCoordinator */\n      immutable(\"0x1a192fabce13988b84994d4296e6cdc418d55e2f1d7f942188d4040b94fc57ac\")\n        /* \"@chainlink/contracts/src/v0.8/VRFConsumerBaseV2.sol\":6717:6745  msg.sender != vrfCoordinator */\n      and\n      eq\n        /* \"@chainlink/contracts/src/v0.8/VRFConsumerBaseV2.sol\":6713:6822  if (msg.sender != vrfCoordinator) {... */\n      tag_151\n      jumpi\n        /* \"@chainlink/contracts/src/v0.8/VRFConsumerBaseV2.sol\":6762:6815  OnlyCoordinatorCanFulfill(msg.sender, vrfCoordinator) */\n      mload(0x40)\n      shl(0xe2, 0x073e64fd)\n      dup2\n      mstore\n        /* \"@chainlink/contracts/src/v0.8/VRFConsumerBaseV2.sol\":6788:6798  msg.sender */\n      caller\n        /* \"@chainlink/contracts/src/v0.8/VRFConsumerBaseV2.sol\":6762:6815  OnlyCoordinatorCanFulfill(msg.sender, vrfCoordinator) */\n      0x04\n      dup3\n      add\n        /* \"#utility.yul\":4930:4981   */\n      mstore\n      sub(shl(0xa0, 0x01), 0x01)\n        /* \"@chainlink/contracts/src/v0.8/VRFConsumerBaseV2.sol\":6800:6814  vrfCoordinator */\n      immutable(\"0x1a192fabce13988b84994d4296e6cdc418d55e2f1d7f942188d4040b94fc57ac\")\n        /* \"#utility.yul\":5017:5049   */\n      and\n        /* \"#utility.yul\":4997:5015   */\n      0x24\n      dup3\n      add\n        /* \"#utility.yul\":4990:5050   */\n      mstore\n        /* \"#utility.yul\":4903:4921   */\n      0x44\n      add\n        /* \"@chainlink/contracts/src/v0.8/VRFConsumerBaseV2.sol\":6762:6815  OnlyCoordinatorCanFulfill(msg.sender, vrfCoordinator) */\n    tag_152:\n      mload(0x40)\n      dup1\n      swap2\n      sub\n      swap1\n      revert\n        /* \"@chainlink/contracts/src/v0.8/VRFConsumerBaseV2.sol\":6713:6822  if (msg.sender != vrfCoordinator) {... */\n    tag_151:\n        /* \"@chainlink/contracts/src/v0.8/VRFConsumerBaseV2.sol\":6827:6869  fulfillRandomWords(requestId, randomWords) */\n      tag_154\n        /* \"@chainlink/contracts/src/v0.8/VRFConsumerBaseV2.sol\":6846:6855  requestId */\n      dup3\n        /* \"@chainlink/contracts/src/v0.8/VRFConsumerBaseV2.sol\":6857:6868  randomWords */\n      dup3\n        /* \"@chainlink/contracts/src/v0.8/VRFConsumerBaseV2.sol\":6827:6845  fulfillRandomWords */\n      tag_155\n        /* \"@chainlink/contracts/src/v0.8/VRFConsumerBaseV2.sol\":6827:6869  fulfillRandomWords(requestId, randomWords) */\n      jump\t// in\n    tag_154:\n        /* \"@chainlink/contracts/src/v0.8/VRFConsumerBaseV2.sol\":6618:6874  function rawFulfillRandomWords(uint256 requestId, uint256[] memory randomWords) external {... */\n      pop\n      pop\n      jump\t// out\n        /* \"quantum/UBI4ALLQuantumFinance.sol\":5683:6054  function withdraw(uint256 amount) external {... */\n    tag_69:\n        /* \"quantum/UBI4ALLQuantumFinance.sol\":5736:5759  updateStake(msg.sender) */\n      tag_157\n        /* \"quantum/UBI4ALLQuantumFinance.sol\":5748:5758  msg.sender */\n      caller\n        /* \"quantum/UBI4ALLQuantumFinance.sol\":5736:5747  updateStake */\n      tag_158\n        /* \"quantum/UBI4ALLQuantumFinance.sol\":5736:5759  updateStake(msg.sender) */\n      jump\t// in\n    tag_157:\n        /* \"quantum/UBI4ALLQuantumFinance.sol\":5784:5794  msg.sender */\n      caller\n        /* \"quantum/UBI4ALLQuantumFinance.sol\":5777:5795  stakes[msg.sender] */\n      0x00\n      swap1\n      dup2\n      mstore\n        /* \"quantum/UBI4ALLQuantumFinance.sol\":5777:5783  stakes */\n      0x01\n        /* \"quantum/UBI4ALLQuantumFinance.sol\":5777:5795  stakes[msg.sender] */\n      0x20\n      mstore\n      0x40\n      swap1\n      keccak256\n        /* \"quantum/UBI4ALLQuantumFinance.sol\":5777:5802  stakes[msg.sender].amount */\n      sload\n        /* \"quantum/UBI4ALLQuantumFinance.sol\":5777:5812  stakes[msg.sender].amount >= amount */\n      dup2\n      gt\n      iszero\n        /* \"quantum/UBI4ALLQuantumFinance.sol\":5769:5843  require(stakes[msg.sender].amount >= amount, \"Insufficient staked amount\") */\n      tag_159\n      jumpi\n      mload(0x40)\n      shl(0xe5, 0x461bcd)\n      dup2\n      mstore\n        /* \"#utility.yul\":5263:5265   */\n      0x20\n        /* \"quantum/UBI4ALLQuantumFinance.sol\":5769:5843  require(stakes[msg.sender].amount >= amount, \"Insufficient staked amount\") */\n      0x04\n      dup3\n      add\n        /* \"#utility.yul\":5245:5266   */\n      mstore\n        /* \"#utility.yul\":5302:5304   */\n      0x1a\n        /* \"#utility.yul\":5282:5300   */\n      0x24\n      dup3\n      add\n        /* \"#utility.yul\":5275:5305   */\n      mstore\n        /* \"#utility.yul\":5341:5369   */\n      0x496e73756666696369656e74207374616b656420616d6f756e74000000000000\n        /* \"#utility.yul\":5321:5339   */\n      0x44\n      dup3\n      add\n        /* \"#utility.yul\":5314:5370   */\n      mstore\n        /* \"#utility.yul\":5387:5405   */\n      0x64\n      add\n        /* \"quantum/UBI4ALLQuantumFinance.sol\":5769:5843  require(stakes[msg.sender].amount >= amount, \"Insufficient staked amount\") */\n      tag_152\n        /* \"#utility.yul\":5061:5411   */\n      jump\n        /* \"quantum/UBI4ALLQuantumFinance.sol\":5769:5843  require(stakes[msg.sender].amount >= amount, \"Insufficient staked amount\") */\n    tag_159:\n        /* \"quantum/UBI4ALLQuantumFinance.sol\":5860:5870  msg.sender */\n      caller\n        /* \"quantum/UBI4ALLQuantumFinance.sol\":5853:5871  stakes[msg.sender] */\n      0x00\n      swap1\n      dup2\n      mstore\n        /* \"quantum/UBI4ALLQuantumFinance.sol\":5853:5859  stakes */\n      0x01\n        /* \"quantum/UBI4ALLQuantumFinance.sol\":5853:5871  stakes[msg.sender] */\n      0x20\n      mstore\n      0x40\n      dup2\n      keccak256\n        /* \"quantum/UBI4ALLQuantumFinance.sol\":5853:5888  stakes[msg.sender].amount -= amount */\n      dup1\n      sload\n        /* \"quantum/UBI4ALLQuantumFinance.sol\":5882:5888  amount */\n      dup4\n      swap3\n        /* \"quantum/UBI4ALLQuantumFinance.sol\":5853:5871  stakes[msg.sender] */\n      swap1\n        /* \"quantum/UBI4ALLQuantumFinance.sol\":5853:5888  stakes[msg.sender].amount -= amount */\n      tag_162\n      swap1\n        /* \"quantum/UBI4ALLQuantumFinance.sol\":5882:5888  amount */\n      dup5\n      swap1\n        /* \"quantum/UBI4ALLQuantumFinance.sol\":5853:5888  stakes[msg.sender].amount -= amount */\n      tag_163\n      jump\t// in\n    tag_162:\n      swap3\n      pop\n      pop\n      dup2\n      swap1\n      sstore\n      pop\n        /* \"quantum/UBI4ALLQuantumFinance.sol\":5918:5924  amount */\n      dup1\n        /* \"quantum/UBI4ALLQuantumFinance.sol\":5898:5914  totalValueLocked */\n      0x02\n      0x00\n        /* \"quantum/UBI4ALLQuantumFinance.sol\":5898:5924  totalValueLocked -= amount */\n      dup3\n      dup3\n      sload\n      tag_164\n      swap2\n      swap1\n      tag_163\n      jump\t// in\n    tag_164:\n      swap1\n      swap2\n      sstore\n      pop\n      pop\n        /* \"quantum/UBI4ALLQuantumFinance.sol\":5942:5983  quantumToken.transfer(msg.sender, amount) */\n      mload(0x40)\n      shl(0xe0, 0xa9059cbb)\n      dup2\n      mstore\n        /* \"quantum/UBI4ALLQuantumFinance.sol\":5964:5974  msg.sender */\n      caller\n        /* \"quantum/UBI4ALLQuantumFinance.sol\":5942:5983  quantumToken.transfer(msg.sender, amount) */\n      0x04\n      dup3\n      add\n        /* \"#utility.yul\":5855:5906   */\n      mstore\n        /* \"#utility.yul\":5922:5940   */\n      0x24\n      dup2\n      add\n        /* \"#utility.yul\":5915:5949   */\n      dup3\n      swap1\n      mstore\n        /* \"quantum/UBI4ALLQuantumFinance.sol\":5942:5954  quantumToken */\n      immutable(\"0x936ebad3ce9ca07ea90ed2bfd725a57f30b80673b4865042f86c1416b8cd32d2\")\n      sub(shl(0xa0, 0x01), 0x01)\n        /* \"quantum/UBI4ALLQuantumFinance.sol\":5942:5963  quantumToken.transfer */\n      and\n      swap1\n      0xa9059cbb\n      swap1\n        /* \"#utility.yul\":5828:5846   */\n      0x44\n      add\n        /* \"quantum/UBI4ALLQuantumFinance.sol\":5942:5983  quantumToken.transfer(msg.sender, amount) */\n      0x20\n      mload(0x40)\n      dup1\n      dup4\n      sub\n      dup2\n      0x00\n      dup8\n      gas\n      call\n      iszero\n      dup1\n      iszero\n      tag_168\n      jumpi\n      returndatasize\n      0x00\n      dup1\n      returndatacopy\n      revert(0x00, returndatasize)\n    tag_168:\n      pop\n      pop\n      pop\n      pop\n      mload(0x40)\n      returndatasize\n      not(0x1f)\n      0x1f\n      dup3\n      add\n      and\n      dup3\n      add\n      dup1\n      0x40\n      mstore\n      pop\n      dup2\n      add\n      swap1\n      tag_169\n      swap2\n      swap1\n      tag_170\n      jump\t// in\n    tag_169:\n        /* \"quantum/UBI4ALLQuantumFinance.sol\":5934:6003  require(quantumToken.transfer(msg.sender, amount), \"Transfer failed\") */\n      tag_171\n      jumpi\n      mload(0x40)\n      shl(0xe5, 0x461bcd)\n      dup2\n      mstore\n      0x04\n      add\n      tag_152\n      swap1\n      tag_173\n      jump\t// in\n    tag_171:\n        /* \"quantum/UBI4ALLQuantumFinance.sol\":6018:6047  Withdrawn(msg.sender, amount) */\n      mload(0x40)\n        /* \"#utility.yul\":160:185   */\n      dup2\n      dup2\n      mstore\n        /* \"quantum/UBI4ALLQuantumFinance.sol\":6028:6038  msg.sender */\n      caller\n      swap1\n        /* \"quantum/UBI4ALLQuantumFinance.sol\":6018:6047  Withdrawn(msg.sender, amount) */\n      0x7084f5476618d8e60b11ef0d7d3f06914655adb8793e28ff7f018d4c76d505d5\n      swap1\n        /* \"#utility.yul\":148:150   */\n      0x20\n        /* \"#utility.yul\":133:151   */\n      add\n        /* \"quantum/UBI4ALLQuantumFinance.sol\":6018:6047  Withdrawn(msg.sender, amount) */\n    tag_174:\n      mload(0x40)\n      dup1\n      swap2\n      sub\n      swap1\n      log2\n        /* \"quantum/UBI4ALLQuantumFinance.sol\":5683:6054  function withdraw(uint256 amount) external {... */\n      pop\n      jump\t// out\n        /* \"quantum/UBI4ALLQuantumFinance.sol\":9625:9765  function getStakedBalance(address user) external view returns (uint256) {... */\n    tag_72:\n      sub(shl(0xa0, 0x01), 0x01)\n        /* \"quantum/UBI4ALLQuantumFinance.sol\":9736:9748  stakes[user] */\n      dup2\n      and\n        /* \"quantum/UBI4ALLQuantumFinance.sol\":9688:9695  uint256 */\n      0x00\n        /* \"quantum/UBI4ALLQuantumFinance.sol\":9736:9748  stakes[user] */\n      swap1\n      dup2\n      mstore\n        /* \"quantum/UBI4ALLQuantumFinance.sol\":9736:9742  stakes */\n      0x01\n        /* \"quantum/UBI4ALLQuantumFinance.sol\":9736:9748  stakes[user] */\n      0x20\n      dup2\n      swap1\n      mstore\n      0x40\n      dup3\n      keccak256\n        /* \"quantum/UBI4ALLQuantumFinance.sol\":9736:9758  stakes[user].daoAmount */\n      swap1\n      dup2\n      add\n      sload\n        /* \"quantum/UBI4ALLQuantumFinance.sol\":9714:9733  stakes[user].amount */\n      swap1\n      sload\n        /* \"quantum/UBI4ALLQuantumFinance.sol\":9714:9758  stakes[user].amount + stakes[user].daoAmount */\n      tag_176\n      swap2\n        /* \"quantum/UBI4ALLQuantumFinance.sol\":9736:9758  stakes[user].daoAmount */\n      swap1\n        /* \"quantum/UBI4ALLQuantumFinance.sol\":9714:9758  stakes[user].amount + stakes[user].daoAmount */\n      tag_177\n      jump\t// in\n    tag_176:\n        /* \"quantum/UBI4ALLQuantumFinance.sol\":9707:9758  return stakes[user].amount + stakes[user].daoAmount */\n      swap3\n        /* \"quantum/UBI4ALLQuantumFinance.sol\":9625:9765  function getStakedBalance(address user) external view returns (uint256) {... */\n      swap2\n      pop\n      pop\n      jump\t// out\n        /* \"@openzeppelin/contracts/access/Ownable.sol\":2293:2394  function renounceOwnership() public virtual onlyOwner {... */\n    tag_91:\n        /* \"@openzeppelin/contracts/access/Ownable.sol\":1531:1544  _checkOwner() */\n      tag_179\n        /* \"@openzeppelin/contracts/access/Ownable.sol\":1531:1542  _checkOwner */\n      tag_180\n        /* \"@openzeppelin/contracts/access/Ownable.sol\":1531:1544  _checkOwner() */\n      jump\t// in\n    tag_179:\n        /* \"@openzeppelin/contracts/access/Ownable.sol\":2357:2387  _transferOwnership(address(0)) */\n      tag_182\n        /* \"@openzeppelin/contracts/access/Ownable.sol\":2384:2385  0 */\n      0x00\n        /* \"@openzeppelin/contracts/access/Ownable.sol\":2357:2375  _transferOwnership */\n      tag_183\n        /* \"@openzeppelin/contracts/access/Ownable.sol\":2357:2387  _transferOwnership(address(0)) */\n      jump\t// in\n    tag_182:\n        /* \"@openzeppelin/contracts/access/Ownable.sol\":2293:2394  function renounceOwnership() public virtual onlyOwner {... */\n      jump\t// out\n        /* \"quantum/UBI4ALLQuantumFinance.sol\":4621:5020  function stake(uint256 amount) external {... */\n    tag_114:\n        /* \"quantum/UBI4ALLQuantumFinance.sol\":4688:4689  0 */\n      0x00\n        /* \"quantum/UBI4ALLQuantumFinance.sol\":4679:4685  amount */\n      dup2\n        /* \"quantum/UBI4ALLQuantumFinance.sol\":4679:4689  amount > 0 */\n      gt\n        /* \"quantum/UBI4ALLQuantumFinance.sol\":4671:4708  require(amount > 0, \"Invalid amount\") */\n      tag_186\n      jumpi\n      mload(0x40)\n      shl(0xe5, 0x461bcd)\n      dup2\n      mstore\n        /* \"#utility.yul\":6918:6920   */\n      0x20\n        /* \"quantum/UBI4ALLQuantumFinance.sol\":4671:4708  require(amount > 0, \"Invalid amount\") */\n      0x04\n      dup3\n      add\n        /* \"#utility.yul\":6900:6921   */\n      mstore\n        /* \"#utility.yul\":6957:6959   */\n      0x0e\n        /* \"#utility.yul\":6937:6955   */\n      0x24\n      dup3\n      add\n        /* \"#utility.yul\":6930:6960   */\n      mstore\n      shl(0x92, 0x125b9d985b1a5908185b5bdd5b9d)\n        /* \"#utility.yul\":6976:6994   */\n      0x44\n      dup3\n      add\n        /* \"#utility.yul\":6969:7013   */\n      mstore\n        /* \"#utility.yul\":7030:7048   */\n      0x64\n      add\n        /* \"quantum/UBI4ALLQuantumFinance.sol\":4671:4708  require(amount > 0, \"Invalid amount\") */\n      tag_152\n        /* \"#utility.yul\":6716:7054   */\n      jump\n        /* \"quantum/UBI4ALLQuantumFinance.sol\":4671:4708  require(amount > 0, \"Invalid amount\") */\n    tag_186:\n        /* \"quantum/UBI4ALLQuantumFinance.sol\":4718:4741  updateStake(msg.sender) */\n      tag_189\n        /* \"quantum/UBI4ALLQuantumFinance.sol\":4730:4740  msg.sender */\n      caller\n        /* \"quantum/UBI4ALLQuantumFinance.sol\":4718:4729  updateStake */\n      tag_158\n        /* \"quantum/UBI4ALLQuantumFinance.sol\":4718:4741  updateStake(msg.sender) */\n      jump\t// in\n    tag_189:\n        /* \"quantum/UBI4ALLQuantumFinance.sol\":4758:4768  msg.sender */\n      caller\n        /* \"quantum/UBI4ALLQuantumFinance.sol\":4751:4769  stakes[msg.sender] */\n      0x00\n      swap1\n      dup2\n      mstore\n        /* \"quantum/UBI4ALLQuantumFinance.sol\":4751:4757  stakes */\n      0x01\n        /* \"quantum/UBI4ALLQuantumFinance.sol\":4751:4769  stakes[msg.sender] */\n      0x20\n      mstore\n      0x40\n      dup2\n      keccak256\n        /* \"quantum/UBI4ALLQuantumFinance.sol\":4751:4786  stakes[msg.sender].amount += amount */\n      dup1\n      sload\n        /* \"quantum/UBI4ALLQuantumFinance.sol\":4780:4786  amount */\n      dup4\n      swap3\n        /* \"quantum/UBI4ALLQuantumFinance.sol\":4751:4769  stakes[msg.sender] */\n      swap1\n        /* \"quantum/UBI4ALLQuantumFinance.sol\":4751:4786  stakes[msg.sender].amount += amount */\n      tag_190\n      swap1\n        /* \"quantum/UBI4ALLQuantumFinance.sol\":4780:4786  amount */\n      dup5\n      swap1\n        /* \"quantum/UBI4ALLQuantumFinance.sol\":4751:4786  stakes[msg.sender].amount += amount */\n      tag_177\n      jump\t// in\n    tag_190:\n      swap3\n      pop\n      pop\n      dup2\n      swap1\n      sstore\n      pop\n        /* \"quantum/UBI4ALLQuantumFinance.sol\":4816:4822  amount */\n      dup1\n        /* \"quantum/UBI4ALLQuantumFinance.sol\":4796:4812  totalValueLocked */\n      0x02\n      0x00\n        /* \"quantum/UBI4ALLQuantumFinance.sol\":4796:4822  totalValueLocked += amount */\n      dup3\n      dup3\n      sload\n      tag_191\n      swap2\n      swap1\n      tag_177\n      jump\t// in\n    tag_191:\n      swap1\n      swap2\n      sstore\n      pop\n      pop\n        /* \"quantum/UBI4ALLQuantumFinance.sol\":4840:4900  quantumToken.transferFrom(msg.sender, address(this), amount) */\n      mload(0x40)\n      shl(0xe0, 0x23b872dd)\n      dup2\n      mstore\n        /* \"quantum/UBI4ALLQuantumFinance.sol\":4866:4876  msg.sender */\n      caller\n        /* \"quantum/UBI4ALLQuantumFinance.sol\":4840:4900  quantumToken.transferFrom(msg.sender, address(this), amount) */\n      0x04\n      dup3\n      add\n        /* \"#utility.yul\":7261:7312   */\n      mstore\n        /* \"quantum/UBI4ALLQuantumFinance.sol\":4886:4890  this */\n      address\n        /* \"#utility.yul\":7328:7346   */\n      0x24\n      dup3\n      add\n        /* \"#utility.yul\":7321:7381   */\n      mstore\n        /* \"#utility.yul\":7397:7415   */\n      0x44\n      dup2\n      add\n        /* \"#utility.yul\":7390:7424   */\n      dup3\n      swap1\n      mstore\n        /* \"quantum/UBI4ALLQuantumFinance.sol\":4840:4852  quantumToken */\n      immutable(\"0x936ebad3ce9ca07ea90ed2bfd725a57f30b80673b4865042f86c1416b8cd32d2\")\n      sub(shl(0xa0, 0x01), 0x01)\n        /* \"quantum/UBI4ALLQuantumFinance.sol\":4840:4865  quantumToken.transferFrom */\n      and\n      swap1\n      0x23b872dd\n      swap1\n        /* \"#utility.yul\":7234:7252   */\n      0x64\n      add\n        /* \"quantum/UBI4ALLQuantumFinance.sol\":4840:4900  quantumToken.transferFrom(msg.sender, address(this), amount) */\n      0x20\n      mload(0x40)\n      dup1\n      dup4\n      sub\n      dup2\n      0x00\n      dup8\n      gas\n      call\n      iszero\n      dup1\n      iszero\n      tag_195\n      jumpi\n      returndatasize\n      0x00\n      dup1\n      returndatacopy\n      revert(0x00, returndatasize)\n    tag_195:\n      pop\n      pop\n      pop\n      pop\n      mload(0x40)\n      returndatasize\n      not(0x1f)\n      0x1f\n      dup3\n      add\n      and\n      dup3\n      add\n      dup1\n      0x40\n      mstore\n      pop\n      dup2\n      add\n      swap1\n      tag_196\n      swap2\n      swap1\n      tag_170\n      jump\t// in\n    tag_196:\n        /* \"quantum/UBI4ALLQuantumFinance.sol\":4832:4920  require(quantumToken.transferFrom(msg.sender, address(this), amount), \"Transfer failed\") */\n      tag_197\n      jumpi\n      mload(0x40)\n      shl(0xe5, 0x461bcd)\n      dup2\n      mstore\n      0x04\n      add\n      tag_152\n      swap1\n      tag_173\n      jump\t// in\n    tag_197:\n        /* \"quantum/UBI4ALLQuantumFinance.sol\":4930:4965  requestSuperpositionAPY(msg.sender) */\n      tag_199\n        /* \"quantum/UBI4ALLQuantumFinance.sol\":4954:4964  msg.sender */\n      caller\n        /* \"quantum/UBI4ALLQuantumFinance.sol\":4930:4953  requestSuperpositionAPY */\n      tag_200\n        /* \"quantum/UBI4ALLQuantumFinance.sol\":4930:4965  requestSuperpositionAPY(msg.sender) */\n      jump\t// in\n    tag_199:\n        /* \"quantum/UBI4ALLQuantumFinance.sol\":4980:5013  Staked(msg.sender, amount, false) */\n      0x40\n      dup1\n      mload\n        /* \"#utility.yul\":7603:7628   */\n      dup3\n      dup2\n      mstore\n        /* \"quantum/UBI4ALLQuantumFinance.sol\":5007:5012  false */\n      0x00\n        /* \"#utility.yul\":7659:7661   */\n      0x20\n        /* \"#utility.yul\":7644:7662   */\n      dup3\n      add\n        /* \"#utility.yul\":7637:7687   */\n      mstore\n        /* \"quantum/UBI4ALLQuantumFinance.sol\":4987:4997  msg.sender */\n      caller\n      swap2\n        /* \"quantum/UBI4ALLQuantumFinance.sol\":4980:5013  Staked(msg.sender, amount, false) */\n      0x37d4053e34fde482e96f6bcd424dfa31342cbd5fe184d497fb3c8bb4b4b97580\n      swap2\n        /* \"#utility.yul\":7576:7594   */\n      add\n        /* \"quantum/UBI4ALLQuantumFinance.sol\":4980:5013  Staked(msg.sender, amount, false) */\n      tag_174\n        /* \"#utility.yul\":7435:7693   */\n      jump\n        /* \"quantum/UBI4ALLQuantumFinance.sol\":6109:6473  function claimReward() external {... */\n    tag_123:\n        /* \"quantum/UBI4ALLQuantumFinance.sol\":6151:6174  updateStake(msg.sender) */\n      tag_205\n        /* \"quantum/UBI4ALLQuantumFinance.sol\":6163:6173  msg.sender */\n      caller\n        /* \"quantum/UBI4ALLQuantumFinance.sol\":6151:6162  updateStake */\n      tag_158\n        /* \"quantum/UBI4ALLQuantumFinance.sol\":6151:6174  updateStake(msg.sender) */\n      jump\t// in\n    tag_205:\n        /* \"quantum/UBI4ALLQuantumFinance.sol\":6208:6218  msg.sender */\n      caller\n        /* \"quantum/UBI4ALLQuantumFinance.sol\":6184:6198  uint256 reward */\n      0x00\n        /* \"quantum/UBI4ALLQuantumFinance.sol\":6201:6219  stakes[msg.sender] */\n      swap1\n      dup2\n      mstore\n        /* \"quantum/UBI4ALLQuantumFinance.sol\":6201:6207  stakes */\n      0x01\n        /* \"quantum/UBI4ALLQuantumFinance.sol\":6201:6219  stakes[msg.sender] */\n      0x20\n      mstore\n      0x40\n      swap1\n      keccak256\n        /* \"quantum/UBI4ALLQuantumFinance.sol\":6201:6237  stakes[msg.sender].accumulatedReward */\n      0x03\n      add\n      sload\n        /* \"quantum/UBI4ALLQuantumFinance.sol\":6255:6265  reward > 0 */\n      dup1\n        /* \"quantum/UBI4ALLQuantumFinance.sol\":6247:6289  require(reward > 0, \"No rewards to claim\") */\n      tag_206\n      jumpi\n      mload(0x40)\n      shl(0xe5, 0x461bcd)\n      dup2\n      mstore\n        /* \"#utility.yul\":7900:7902   */\n      0x20\n        /* \"quantum/UBI4ALLQuantumFinance.sol\":6247:6289  require(reward > 0, \"No rewards to claim\") */\n      0x04\n      dup3\n      add\n        /* \"#utility.yul\":7882:7903   */\n      mstore\n        /* \"#utility.yul\":7939:7941   */\n      0x13\n        /* \"#utility.yul\":7919:7937   */\n      0x24\n      dup3\n      add\n        /* \"#utility.yul\":7912:7942   */\n      mstore\n      shl(0x68, 0x4e6f207265776172647320746f20636c61696d)\n        /* \"#utility.yul\":7958:7976   */\n      0x44\n      dup3\n      add\n        /* \"#utility.yul\":7951:8000   */\n      mstore\n        /* \"#utility.yul\":8017:8035   */\n      0x64\n      add\n        /* \"quantum/UBI4ALLQuantumFinance.sol\":6247:6289  require(reward > 0, \"No rewards to claim\") */\n      tag_152\n        /* \"#utility.yul\":7698:8041   */\n      jump\n        /* \"quantum/UBI4ALLQuantumFinance.sol\":6247:6289  require(reward > 0, \"No rewards to claim\") */\n    tag_206:\n        /* \"quantum/UBI4ALLQuantumFinance.sol\":6306:6316  msg.sender */\n      caller\n        /* \"quantum/UBI4ALLQuantumFinance.sol\":6338:6339  0 */\n      0x00\n        /* \"quantum/UBI4ALLQuantumFinance.sol\":6299:6317  stakes[msg.sender] */\n      dup2\n      dup2\n      mstore\n        /* \"quantum/UBI4ALLQuantumFinance.sol\":6299:6305  stakes */\n      0x01\n        /* \"quantum/UBI4ALLQuantumFinance.sol\":6299:6317  stakes[msg.sender] */\n      0x20\n      mstore\n      0x40\n      dup1\n      dup3\n      keccak256\n        /* \"quantum/UBI4ALLQuantumFinance.sol\":6299:6335  stakes[msg.sender].accumulatedReward */\n      0x03\n      add\n        /* \"quantum/UBI4ALLQuantumFinance.sol\":6299:6339  stakes[msg.sender].accumulatedReward = 0 */\n      swap2\n      swap1\n      swap2\n      sstore\n        /* \"quantum/UBI4ALLQuantumFinance.sol\":6357:6398  quantumToken.transfer(msg.sender, reward) */\n      mload\n      shl(0xe0, 0xa9059cbb)\n      dup2\n      mstore\n      0x04\n      dup2\n      add\n        /* \"#utility.yul\":5855:5906   */\n      swap2\n      swap1\n      swap2\n      mstore\n        /* \"#utility.yul\":5922:5940   */\n      0x24\n      dup2\n      add\n        /* \"#utility.yul\":5915:5949   */\n      dup3\n      swap1\n      mstore\n      sub(shl(0xa0, 0x01), 0x01)\n        /* \"quantum/UBI4ALLQuantumFinance.sol\":6357:6369  quantumToken */\n      immutable(\"0x936ebad3ce9ca07ea90ed2bfd725a57f30b80673b4865042f86c1416b8cd32d2\")\n        /* \"quantum/UBI4ALLQuantumFinance.sol\":6357:6378  quantumToken.transfer */\n      and\n      swap1\n      0xa9059cbb\n      swap1\n        /* \"#utility.yul\":5828:5846   */\n      0x44\n      add\n        /* \"quantum/UBI4ALLQuantumFinance.sol\":6357:6398  quantumToken.transfer(msg.sender, reward) */\n      0x20\n      mload(0x40)\n      dup1\n      dup4\n      sub\n      dup2\n      0x00\n      dup8\n      gas\n      call\n      iszero\n      dup1\n      iszero\n      tag_211\n      jumpi\n      returndatasize\n      0x00\n      dup1\n      returndatacopy\n      revert(0x00, returndatasize)\n    tag_211:\n      pop\n      pop\n      pop\n      pop\n      mload(0x40)\n      returndatasize\n      not(0x1f)\n      0x1f\n      dup3\n      add\n      and\n      dup3\n      add\n      dup1\n      0x40\n      mstore\n      pop\n      dup2\n      add\n      swap1\n      tag_212\n      swap2\n      swap1\n      tag_170\n      jump\t// in\n    tag_212:\n        /* \"quantum/UBI4ALLQuantumFinance.sol\":6349:6418  require(quantumToken.transfer(msg.sender, reward), \"Transfer failed\") */\n      tag_213\n      jumpi\n      mload(0x40)\n      shl(0xe5, 0x461bcd)\n      dup2\n      mstore\n      0x04\n      add\n      tag_152\n      swap1\n      tag_173\n      jump\t// in\n    tag_213:\n        /* \"quantum/UBI4ALLQuantumFinance.sol\":6433:6466  RewardClaimed(msg.sender, reward) */\n      mload(0x40)\n        /* \"#utility.yul\":160:185   */\n      dup2\n      dup2\n      mstore\n        /* \"quantum/UBI4ALLQuantumFinance.sol\":6447:6457  msg.sender */\n      caller\n      swap1\n        /* \"quantum/UBI4ALLQuantumFinance.sol\":6433:6466  RewardClaimed(msg.sender, reward) */\n      0x106f923f993c2149d49b4255ff723acafa1f2d94393f561d3eda32ae348f7241\n      swap1\n        /* \"#utility.yul\":148:150   */\n      0x20\n        /* \"#utility.yul\":133:151   */\n      add\n        /* \"quantum/UBI4ALLQuantumFinance.sol\":6433:6466  RewardClaimed(msg.sender, reward) */\n      tag_174\n        /* \"#utility.yul\":14:191   */\n      jump\n        /* \"quantum/UBI4ALLQuantumFinance.sol\":5138:5586  function stakeForDAO(uint256 amount) external {... */\n    tag_129:\n        /* \"quantum/UBI4ALLQuantumFinance.sol\":5211:5212  0 */\n      0x00\n        /* \"quantum/UBI4ALLQuantumFinance.sol\":5202:5208  amount */\n      dup2\n        /* \"quantum/UBI4ALLQuantumFinance.sol\":5202:5212  amount > 0 */\n      gt\n        /* \"quantum/UBI4ALLQuantumFinance.sol\":5194:5231  require(amount > 0, \"Invalid amount\") */\n      tag_217\n      jumpi\n      mload(0x40)\n      shl(0xe5, 0x461bcd)\n      dup2\n      mstore\n        /* \"#utility.yul\":6918:6920   */\n      0x20\n        /* \"quantum/UBI4ALLQuantumFinance.sol\":5194:5231  require(amount > 0, \"Invalid amount\") */\n      0x04\n      dup3\n      add\n        /* \"#utility.yul\":6900:6921   */\n      mstore\n        /* \"#utility.yul\":6957:6959   */\n      0x0e\n        /* \"#utility.yul\":6937:6955   */\n      0x24\n      dup3\n      add\n        /* \"#utility.yul\":6930:6960   */\n      mstore\n      shl(0x92, 0x125b9d985b1a5908185b5bdd5b9d)\n        /* \"#utility.yul\":6976:6994   */\n      0x44\n      dup3\n      add\n        /* \"#utility.yul\":6969:7013   */\n      mstore\n        /* \"#utility.yul\":7030:7048   */\n      0x64\n      add\n        /* \"quantum/UBI4ALLQuantumFinance.sol\":5194:5231  require(amount > 0, \"Invalid amount\") */\n      tag_152\n        /* \"#utility.yul\":6716:7054   */\n      jump\n        /* \"quantum/UBI4ALLQuantumFinance.sol\":5194:5231  require(amount > 0, \"Invalid amount\") */\n    tag_217:\n        /* \"quantum/UBI4ALLQuantumFinance.sol\":5241:5264  updateStake(msg.sender) */\n      tag_219\n        /* \"quantum/UBI4ALLQuantumFinance.sol\":5253:5263  msg.sender */\n      caller\n        /* \"quantum/UBI4ALLQuantumFinance.sol\":5241:5252  updateStake */\n      tag_158\n        /* \"quantum/UBI4ALLQuantumFinance.sol\":5241:5264  updateStake(msg.sender) */\n      jump\t// in\n    tag_219:\n        /* \"quantum/UBI4ALLQuantumFinance.sol\":5281:5291  msg.sender */\n      caller\n        /* \"quantum/UBI4ALLQuantumFinance.sol\":5274:5292  stakes[msg.sender] */\n      0x00\n      swap1\n      dup2\n      mstore\n        /* \"quantum/UBI4ALLQuantumFinance.sol\":5274:5280  stakes */\n      0x01\n        /* \"quantum/UBI4ALLQuantumFinance.sol\":5274:5292  stakes[msg.sender] */\n      0x20\n      dup2\n      swap1\n      mstore\n      0x40\n      dup3\n      keccak256\n        /* \"quantum/UBI4ALLQuantumFinance.sol\":5274:5302  stakes[msg.sender].daoAmount */\n      add\n        /* \"quantum/UBI4ALLQuantumFinance.sol\":5274:5312  stakes[msg.sender].daoAmount += amount */\n      dup1\n      sload\n        /* \"quantum/UBI4ALLQuantumFinance.sol\":5306:5312  amount */\n      dup4\n      swap3\n        /* \"quantum/UBI4ALLQuantumFinance.sol\":5274:5292  stakes[msg.sender] */\n      swap1\n        /* \"quantum/UBI4ALLQuantumFinance.sol\":5274:5312  stakes[msg.sender].daoAmount += amount */\n      tag_220\n      swap1\n        /* \"quantum/UBI4ALLQuantumFinance.sol\":5306:5312  amount */\n      dup5\n      swap1\n        /* \"quantum/UBI4ALLQuantumFinance.sol\":5274:5312  stakes[msg.sender].daoAmount += amount */\n      tag_177\n      jump\t// in\n    tag_220:\n      swap3\n      pop\n      pop\n      dup2\n      swap1\n      sstore\n      pop\n        /* \"quantum/UBI4ALLQuantumFinance.sol\":5342:5348  amount */\n      dup1\n        /* \"quantum/UBI4ALLQuantumFinance.sol\":5322:5338  totalValueLocked */\n      0x02\n      0x00\n        /* \"quantum/UBI4ALLQuantumFinance.sol\":5322:5348  totalValueLocked += amount */\n      dup3\n      dup3\n      sload\n      tag_221\n      swap2\n      swap1\n      tag_177\n      jump\t// in\n    tag_221:\n      swap1\n      swap2\n      sstore\n      pop\n      pop\n        /* \"quantum/UBI4ALLQuantumFinance.sol\":5366:5426  quantumToken.transferFrom(msg.sender, address(this), amount) */\n      mload(0x40)\n      shl(0xe0, 0x23b872dd)\n      dup2\n      mstore\n        /* \"quantum/UBI4ALLQuantumFinance.sol\":5392:5402  msg.sender */\n      caller\n        /* \"quantum/UBI4ALLQuantumFinance.sol\":5366:5426  quantumToken.transferFrom(msg.sender, address(this), amount) */\n      0x04\n      dup3\n      add\n        /* \"#utility.yul\":7261:7312   */\n      mstore\n        /* \"quantum/UBI4ALLQuantumFinance.sol\":5412:5416  this */\n      address\n        /* \"#utility.yul\":7328:7346   */\n      0x24\n      dup3\n      add\n        /* \"#utility.yul\":7321:7381   */\n      mstore\n        /* \"#utility.yul\":7397:7415   */\n      0x44\n      dup2\n      add\n        /* \"#utility.yul\":7390:7424   */\n      dup3\n      swap1\n      mstore\n        /* \"quantum/UBI4ALLQuantumFinance.sol\":5366:5378  quantumToken */\n      immutable(\"0x936ebad3ce9ca07ea90ed2bfd725a57f30b80673b4865042f86c1416b8cd32d2\")\n      sub(shl(0xa0, 0x01), 0x01)\n        /* \"quantum/UBI4ALLQuantumFinance.sol\":5366:5391  quantumToken.transferFrom */\n      and\n      swap1\n      0x23b872dd\n      swap1\n        /* \"#utility.yul\":7234:7252   */\n      0x64\n      add\n        /* \"quantum/UBI4ALLQuantumFinance.sol\":5366:5426  quantumToken.transferFrom(msg.sender, address(this), amount) */\n      0x20\n      mload(0x40)\n      dup1\n      dup4\n      sub\n      dup2\n      0x00\n      dup8\n      gas\n      call\n      iszero\n      dup1\n      iszero\n      tag_224\n      jumpi\n      returndatasize\n      0x00\n      dup1\n      returndatacopy\n      revert(0x00, returndatasize)\n    tag_224:\n      pop\n      pop\n      pop\n      pop\n      mload(0x40)\n      returndatasize\n      not(0x1f)\n      0x1f\n      dup3\n      add\n      and\n      dup3\n      add\n      dup1\n      0x40\n      mstore\n      pop\n      dup2\n      add\n      swap1\n      tag_225\n      swap2\n      swap1\n      tag_170\n      jump\t// in\n    tag_225:\n        /* \"quantum/UBI4ALLQuantumFinance.sol\":5358:5446  require(quantumToken.transferFrom(msg.sender, address(this), amount), \"Transfer failed\") */\n      tag_226\n      jumpi\n      mload(0x40)\n      shl(0xe5, 0x461bcd)\n      dup2\n      mstore\n      0x04\n      add\n      tag_152\n      swap1\n      tag_173\n      jump\t// in\n    tag_226:\n        /* \"quantum/UBI4ALLQuantumFinance.sol\":5456:5487  quantumToken.lockForDAO(amount) */\n      mload(0x40)\n      shl(0xe2, 0x255da8dd)\n      dup2\n      mstore\n      0x04\n      dup2\n      add\n        /* \"#utility.yul\":160:185   */\n      dup3\n      swap1\n      mstore\n        /* \"quantum/UBI4ALLQuantumFinance.sol\":5456:5468  quantumToken */\n      immutable(\"0x936ebad3ce9ca07ea90ed2bfd725a57f30b80673b4865042f86c1416b8cd32d2\")\n      sub(shl(0xa0, 0x01), 0x01)\n        /* \"quantum/UBI4ALLQuantumFinance.sol\":5456:5479  quantumToken.lockForDAO */\n      and\n      swap1\n      0x9576a374\n      swap1\n        /* \"#utility.yul\":133:151   */\n      0x24\n      add\n        /* \"quantum/UBI4ALLQuantumFinance.sol\":5456:5487  quantumToken.lockForDAO(amount) */\n      0x00\n      mload(0x40)\n      dup1\n      dup4\n      sub\n      dup2\n      0x00\n      dup8\n      dup1\n      extcodesize\n      iszero\n      dup1\n      iszero\n      tag_229\n      jumpi\n      0x00\n      dup1\n      revert\n    tag_229:\n      pop\n      gas\n      call\n      iszero\n      dup1\n      iszero\n      tag_231\n      jumpi\n      returndatasize\n      0x00\n      dup1\n      returndatacopy\n      revert(0x00, returndatasize)\n    tag_231:\n      pop\n      pop\n      pop\n      pop\n        /* \"quantum/UBI4ALLQuantumFinance.sol\":5497:5532  requestSuperpositionAPY(msg.sender) */\n      tag_232\n        /* \"quantum/UBI4ALLQuantumFinance.sol\":5521:5531  msg.sender */\n      caller\n        /* \"quantum/UBI4ALLQuantumFinance.sol\":5497:5520  requestSuperpositionAPY */\n      tag_200\n        /* \"quantum/UBI4ALLQuantumFinance.sol\":5497:5532  requestSuperpositionAPY(msg.sender) */\n      jump\t// in\n    tag_232:\n        /* \"quantum/UBI4ALLQuantumFinance.sol\":5547:5579  Staked(msg.sender, amount, true) */\n      0x40\n      dup1\n      mload\n        /* \"#utility.yul\":7603:7628   */\n      dup3\n      dup2\n      mstore\n        /* \"quantum/UBI4ALLQuantumFinance.sol\":5574:5578  true */\n      0x01\n        /* \"#utility.yul\":7659:7661   */\n      0x20\n        /* \"#utility.yul\":7644:7662   */\n      dup3\n      add\n        /* \"#utility.yul\":7637:7687   */\n      mstore\n        /* \"quantum/UBI4ALLQuantumFinance.sol\":5554:5564  msg.sender */\n      caller\n      swap2\n        /* \"quantum/UBI4ALLQuantumFinance.sol\":5547:5579  Staked(msg.sender, amount, true) */\n      0x37d4053e34fde482e96f6bcd424dfa31342cbd5fe184d497fb3c8bb4b4b97580\n      swap2\n        /* \"#utility.yul\":7576:7594   */\n      add\n        /* \"quantum/UBI4ALLQuantumFinance.sol\":5547:5579  Staked(msg.sender, amount, true) */\n      tag_174\n        /* \"#utility.yul\":7435:7693   */\n      jump\n        /* \"quantum/UBI4ALLQuantumFinance.sol\":10690:10897  function updateVRFParams(uint32 _callbackGasLimit, uint16 _requestConfirmations) external onlyOwner {... */\n    tag_133:\n        /* \"@openzeppelin/contracts/access/Ownable.sol\":1531:1544  _checkOwner() */\n      tag_235\n        /* \"@openzeppelin/contracts/access/Ownable.sol\":1531:1542  _checkOwner */\n      tag_180\n        /* \"@openzeppelin/contracts/access/Ownable.sol\":1531:1544  _checkOwner() */\n      jump\t// in\n    tag_235:\n        /* \"quantum/UBI4ALLQuantumFinance.sol\":10800:10816  callbackGasLimit */\n      0x04\n        /* \"quantum/UBI4ALLQuantumFinance.sol\":10800:10836  callbackGasLimit = _callbackGasLimit */\n      dup1\n      sload\n        /* \"quantum/UBI4ALLQuantumFinance.sol\":10846:10890  requestConfirmations = _requestConfirmations */\n      0xffff\n      swap1\n      swap3\n      and\n      0x0100000000\n      mul\n      not(0xffffffffffff)\n      swap1\n      swap3\n      and\n        /* \"quantum/UBI4ALLQuantumFinance.sol\":10800:10836  callbackGasLimit = _callbackGasLimit */\n      0xffffffff\n      swap1\n      swap4\n      and\n        /* \"quantum/UBI4ALLQuantumFinance.sol\":10846:10890  requestConfirmations = _requestConfirmations */\n      swap3\n      swap1\n      swap3\n      or\n      or\n      swap1\n      sstore\n        /* \"quantum/UBI4ALLQuantumFinance.sol\":10690:10897  function updateVRFParams(uint32 _callbackGasLimit, uint16 _requestConfirmations) external onlyOwner {... */\n      jump\t// out\n        /* \"quantum/UBI4ALLQuantumFinance.sol\":10131:10512  function calculateReward(address user) external view returns (uint256) {... */\n    tag_142:\n      sub(shl(0xa0, 0x01), 0x01)\n        /* \"quantum/UBI4ALLQuantumFinance.sol\":10238:10250  stakes[user] */\n      dup2\n      and\n        /* \"quantum/UBI4ALLQuantumFinance.sol\":10193:10200  uint256 */\n      0x00\n        /* \"quantum/UBI4ALLQuantumFinance.sol\":10238:10250  stakes[user] */\n      swap1\n      dup2\n      mstore\n        /* \"quantum/UBI4ALLQuantumFinance.sol\":10238:10244  stakes */\n      0x01\n        /* \"quantum/UBI4ALLQuantumFinance.sol\":10238:10250  stakes[user] */\n      0x20\n      mstore\n      0x40\n      dup2\n      keccak256\n        /* \"quantum/UBI4ALLQuantumFinance.sol\":10303:10319  userStake.amount */\n      dup1\n      sload\n        /* \"quantum/UBI4ALLQuantumFinance.sol\":10321:10341  userStake.currentAPY */\n      0x04\n      dup3\n      add\n      sload\n        /* \"quantum/UBI4ALLQuantumFinance.sol\":10193:10200  uint256 */\n      dup4\n      swap2\n        /* \"quantum/UBI4ALLQuantumFinance.sol\":10281:10342  calculateReward(user, userStake.amount, userStake.currentAPY) */\n      tag_238\n      swap2\n        /* \"quantum/UBI4ALLQuantumFinance.sol\":10245:10249  user */\n      dup7\n      swap2\n        /* \"quantum/UBI4ALLQuantumFinance.sol\":10303:10319  userStake.amount */\n      swap1\n        /* \"quantum/UBI4ALLQuantumFinance.sol\":10281:10296  calculateReward */\n      tag_239\n        /* \"quantum/UBI4ALLQuantumFinance.sol\":10281:10342  calculateReward(user, userStake.amount, userStake.currentAPY) */\n      jump\t// in\n    tag_238:\n        /* \"quantum/UBI4ALLQuantumFinance.sol\":10260:10342  uint256 baseReward = calculateReward(user, userStake.amount, userStake.currentAPY) */\n      swap1\n      pop\n        /* \"quantum/UBI4ALLQuantumFinance.sol\":10352:10369  uint256 daoReward */\n      0x00\n        /* \"quantum/UBI4ALLQuantumFinance.sol\":10372:10436  calculateReward(user, userStake.daoAmount, userStake.currentAPY) */\n      tag_240\n        /* \"quantum/UBI4ALLQuantumFinance.sol\":10388:10392  user */\n      dup6\n        /* \"quantum/UBI4ALLQuantumFinance.sol\":10394:10403  userStake */\n      dup5\n        /* \"quantum/UBI4ALLQuantumFinance.sol\":10394:10413  userStake.daoAmount */\n      0x01\n      add\n      sload\n        /* \"quantum/UBI4ALLQuantumFinance.sol\":10415:10424  userStake */\n      dup6\n        /* \"quantum/UBI4ALLQuantumFinance.sol\":10415:10435  userStake.currentAPY */\n      0x04\n      add\n      sload\n        /* \"quantum/UBI4ALLQuantumFinance.sol\":10372:10387  calculateReward */\n      tag_239\n        /* \"quantum/UBI4ALLQuantumFinance.sol\":10372:10436  calculateReward(user, userStake.daoAmount, userStake.currentAPY) */\n      jump\t// in\n    tag_240:\n        /* \"quantum/UBI4ALLQuantumFinance.sol\":10352:10436  uint256 daoReward = calculateReward(user, userStake.daoAmount, userStake.currentAPY) */\n      swap1\n      pop\n        /* \"quantum/UBI4ALLQuantumFinance.sol\":10496:10505  daoReward */\n      dup1\n        /* \"quantum/UBI4ALLQuantumFinance.sol\":10483:10493  baseReward */\n      dup3\n        /* \"quantum/UBI4ALLQuantumFinance.sol\":10453:10462  userStake */\n      dup5\n        /* \"quantum/UBI4ALLQuantumFinance.sol\":10453:10480  userStake.accumulatedReward */\n      0x03\n      add\n      sload\n        /* \"quantum/UBI4ALLQuantumFinance.sol\":10453:10493  userStake.accumulatedReward + baseReward */\n      tag_241\n      swap2\n      swap1\n      tag_177\n      jump\t// in\n    tag_241:\n        /* \"quantum/UBI4ALLQuantumFinance.sol\":10453:10505  userStake.accumulatedReward + baseReward + daoReward */\n      tag_242\n      swap2\n      swap1\n      tag_177\n      jump\t// in\n    tag_242:\n        /* \"quantum/UBI4ALLQuantumFinance.sol\":10446:10505  return userStake.accumulatedReward + baseReward + daoReward */\n      swap6\n        /* \"quantum/UBI4ALLQuantumFinance.sol\":10131:10512  function calculateReward(address user) external view returns (uint256) {... */\n      swap5\n      pop\n      pop\n      pop\n      pop\n      pop\n      jump\t// out\n        /* \"quantum/UBI4ALLQuantumFinance.sol\":11040:11194  function transferOwnership(address newOwner) public override(Ownable, IUBI4ALLQuantumFinance) onlyOwner {... */\n    tag_149:\n        /* \"@openzeppelin/contracts/access/Ownable.sol\":1531:1544  _checkOwner() */\n      tag_244\n        /* \"@openzeppelin/contracts/access/Ownable.sol\":1531:1542  _checkOwner */\n      tag_180\n        /* \"@openzeppelin/contracts/access/Ownable.sol\":1531:1544  _checkOwner() */\n      jump\t// in\n    tag_244:\n        /* \"quantum/UBI4ALLQuantumFinance.sol\":11154:11187  super.transferOwnership(newOwner) */\n      tag_246\n        /* \"quantum/UBI4ALLQuantumFinance.sol\":11178:11186  newOwner */\n      dup2\n        /* \"quantum/UBI4ALLQuantumFinance.sol\":11154:11177  super.transferOwnership */\n      tag_247\n        /* \"quantum/UBI4ALLQuantumFinance.sol\":11154:11187  super.transferOwnership(newOwner) */\n      jump\t// in\n    tag_246:\n        /* \"quantum/UBI4ALLQuantumFinance.sol\":11040:11194  function transferOwnership(address newOwner) public override(Ownable, IUBI4ALLQuantumFinance) onlyOwner {... */\n      pop\n      jump\t// out\n        /* \"quantum/UBI4ALLQuantumFinance.sol\":7225:7935  function fulfillRandomWords(uint256 requestId, uint256[] memory randomWords) internal override {... */\n    tag_155:\n        /* \"quantum/UBI4ALLQuantumFinance.sol\":7330:7342  address user */\n      0x00\n        /* \"quantum/UBI4ALLQuantumFinance.sol\":7345:7369  requestToUser[requestId] */\n      dup3\n      dup2\n      mstore\n        /* \"quantum/UBI4ALLQuantumFinance.sol\":7345:7358  requestToUser */\n      0x03\n        /* \"quantum/UBI4ALLQuantumFinance.sol\":7345:7369  requestToUser[requestId] */\n      0x20\n      mstore\n      0x40\n      swap1\n      keccak256\n      sload\n      sub(shl(0xa0, 0x01), 0x01)\n      and\n      dup1\n        /* \"quantum/UBI4ALLQuantumFinance.sol\":7379:7428  require(user != address(0), \"Invalid request ID\") */\n      tag_249\n      jumpi\n      mload(0x40)\n      shl(0xe5, 0x461bcd)\n      dup2\n      mstore\n        /* \"#utility.yul\":8248:8250   */\n      0x20\n        /* \"quantum/UBI4ALLQuantumFinance.sol\":7379:7428  require(user != address(0), \"Invalid request ID\") */\n      0x04\n      dup3\n      add\n        /* \"#utility.yul\":8230:8251   */\n      mstore\n        /* \"#utility.yul\":8287:8289   */\n      0x12\n        /* \"#utility.yul\":8267:8285   */\n      0x24\n      dup3\n      add\n        /* \"#utility.yul\":8260:8290   */\n      mstore\n      shl(0x72, 0x125b9d985b1a59081c995c5d595cdd081251)\n        /* \"#utility.yul\":8306:8324   */\n      0x44\n      dup3\n      add\n        /* \"#utility.yul\":8299:8347   */\n      mstore\n        /* \"#utility.yul\":8364:8382   */\n      0x64\n      add\n        /* \"quantum/UBI4ALLQuantumFinance.sol\":7379:7428  require(user != address(0), \"Invalid request ID\") */\n      tag_152\n        /* \"#utility.yul\":8046:8388   */\n      jump\n        /* \"quantum/UBI4ALLQuantumFinance.sol\":7379:7428  require(user != address(0), \"Invalid request ID\") */\n    tag_249:\n        /* \"quantum/UBI4ALLQuantumFinance.sol\":7438:7457  uint256 randomValue */\n      0x00\n        /* \"quantum/UBI4ALLQuantumFinance.sol\":7477:7480  100 */\n      0x64\n        /* \"quantum/UBI4ALLQuantumFinance.sol\":7460:7471  randomWords */\n      dup4\n        /* \"quantum/UBI4ALLQuantumFinance.sol\":7472:7473  0 */\n      0x00\n        /* \"quantum/UBI4ALLQuantumFinance.sol\":7460:7474  randomWords[0] */\n      dup2\n      mload\n      dup2\n      lt\n      tag_253\n      jumpi\n      tag_253\n      tag_254\n      jump\t// in\n    tag_253:\n      0x20\n      mul\n      0x20\n      add\n      add\n      mload\n        /* \"quantum/UBI4ALLQuantumFinance.sol\":7460:7480  randomWords[0] % 100 */\n      tag_255\n      swap2\n      swap1\n      tag_256\n      jump\t// in\n    tag_255:\n      sub(shl(0xa0, 0x01), 0x01)\n        /* \"quantum/UBI4ALLQuantumFinance.sol\":7509:7521  stakes[user] */\n      dup4\n      and\n        /* \"quantum/UBI4ALLQuantumFinance.sol\":7490:7506  uint256 apyRange */\n      0x00\n        /* \"quantum/UBI4ALLQuantumFinance.sol\":7509:7521  stakes[user] */\n      swap1\n      dup2\n      mstore\n        /* \"quantum/UBI4ALLQuantumFinance.sol\":7509:7515  stakes */\n      0x01\n        /* \"quantum/UBI4ALLQuantumFinance.sol\":7509:7521  stakes[user] */\n      0x20\n      dup2\n      swap1\n      mstore\n      0x40\n      dup3\n      keccak256\n        /* \"quantum/UBI4ALLQuantumFinance.sol\":7509:7531  stakes[user].daoAmount */\n      add\n      sload\n        /* \"quantum/UBI4ALLQuantumFinance.sol\":7438:7480  uint256 randomValue = randomWords[0] % 100 */\n      swap2\n      swap3\n      pop\n        /* \"quantum/UBI4ALLQuantumFinance.sol\":7490:7506  uint256 apyRange */\n      swap1\n        /* \"quantum/UBI4ALLQuantumFinance.sol\":7509:7623  stakes[user].daoAmount > 0 ? DAO_SUPERPOSITION_MAX - DAO_SUPERPOSITION_MIN : SUPERPOSITION_MAX - SUPERPOSITION_MIN */\n      tag_257\n      jumpi\n        /* \"quantum/UBI4ALLQuantumFinance.sol\":7586:7623  SUPERPOSITION_MAX - SUPERPOSITION_MIN */\n      tag_258\n        /* \"quantum/UBI4ALLQuantumFinance.sol\":1237:1241  8_00 */\n      0x0320\n        /* \"quantum/UBI4ALLQuantumFinance.sol\":1358:1363  14_00 */\n      0x0578\n        /* \"quantum/UBI4ALLQuantumFinance.sol\":7586:7623  SUPERPOSITION_MAX - SUPERPOSITION_MIN */\n      tag_163\n      jump\t// in\n    tag_258:\n        /* \"quantum/UBI4ALLQuantumFinance.sol\":7509:7623  stakes[user].daoAmount > 0 ? DAO_SUPERPOSITION_MAX - DAO_SUPERPOSITION_MIN : SUPERPOSITION_MAX - SUPERPOSITION_MIN */\n      jump(tag_260)\n    tag_257:\n        /* \"quantum/UBI4ALLQuantumFinance.sol\":7538:7583  DAO_SUPERPOSITION_MAX - DAO_SUPERPOSITION_MIN */\n      tag_260\n        /* \"quantum/UBI4ALLQuantumFinance.sol\":1478:1483  10_00 */\n      0x03e8\n        /* \"quantum/UBI4ALLQuantumFinance.sol\":1599:1604  16_00 */\n      0x0640\n        /* \"quantum/UBI4ALLQuantumFinance.sol\":7538:7583  DAO_SUPERPOSITION_MAX - DAO_SUPERPOSITION_MIN */\n      tag_163\n      jump\t// in\n    tag_260:\n      sub(shl(0xa0, 0x01), 0x01)\n        /* \"quantum/UBI4ALLQuantumFinance.sol\":7684:7696  stakes[user] */\n      dup5\n      and\n        /* \"quantum/UBI4ALLQuantumFinance.sol\":7633:7647  uint256 newAPY */\n      0x00\n        /* \"quantum/UBI4ALLQuantumFinance.sol\":7684:7696  stakes[user] */\n      swap1\n      dup2\n      mstore\n        /* \"quantum/UBI4ALLQuantumFinance.sol\":7684:7690  stakes */\n      0x01\n        /* \"quantum/UBI4ALLQuantumFinance.sol\":7684:7696  stakes[user] */\n      0x20\n      dup2\n      swap1\n      mstore\n      0x40\n      dup3\n      keccak256\n        /* \"quantum/UBI4ALLQuantumFinance.sol\":7684:7706  stakes[user].daoAmount */\n      add\n      sload\n        /* \"quantum/UBI4ALLQuantumFinance.sol\":7490:7623  uint256 apyRange = stakes[user].daoAmount > 0 ? DAO_SUPERPOSITION_MAX - DAO_SUPERPOSITION_MIN : SUPERPOSITION_MAX - SUPERPOSITION_MIN */\n      swap2\n      swap3\n      pop\n        /* \"quantum/UBI4ALLQuantumFinance.sol\":7633:7647  uint256 newAPY */\n      swap1\n        /* \"quantum/UBI4ALLQuantumFinance.sol\":7684:7754  stakes[user].daoAmount > 0 ? DAO_SUPERPOSITION_MIN : SUPERPOSITION_MIN */\n      tag_261\n      jumpi\n        /* \"quantum/UBI4ALLQuantumFinance.sol\":1237:1241  8_00 */\n      0x0320\n        /* \"quantum/UBI4ALLQuantumFinance.sol\":7684:7754  stakes[user].daoAmount > 0 ? DAO_SUPERPOSITION_MIN : SUPERPOSITION_MIN */\n      jump(tag_262)\n    tag_261:\n        /* \"quantum/UBI4ALLQuantumFinance.sol\":1478:1483  10_00 */\n      0x03e8\n        /* \"quantum/UBI4ALLQuantumFinance.sol\":7684:7754  stakes[user].daoAmount > 0 ? DAO_SUPERPOSITION_MIN : SUPERPOSITION_MIN */\n    tag_262:\n        /* \"quantum/UBI4ALLQuantumFinance.sol\":7676:7679  100 */\n      0x64\n        /* \"quantum/UBI4ALLQuantumFinance.sol\":7651:7673  randomValue * apyRange */\n      tag_263\n        /* \"quantum/UBI4ALLQuantumFinance.sol\":7665:7673  apyRange */\n      dup5\n        /* \"quantum/UBI4ALLQuantumFinance.sol\":7651:7662  randomValue */\n      dup7\n        /* \"quantum/UBI4ALLQuantumFinance.sol\":7651:7673  randomValue * apyRange */\n      tag_264\n      jump\t// in\n    tag_263:\n        /* \"quantum/UBI4ALLQuantumFinance.sol\":7651:7679  randomValue * apyRange / 100 */\n      tag_265\n      swap2\n      swap1\n      tag_266\n      jump\t// in\n    tag_265:\n        /* \"quantum/UBI4ALLQuantumFinance.sol\":7650:7755  (randomValue * apyRange / 100) + (stakes[user].daoAmount > 0 ? DAO_SUPERPOSITION_MIN : SUPERPOSITION_MIN) */\n      tag_267\n      swap2\n      swap1\n      tag_177\n      jump\t// in\n    tag_267:\n      sub(shl(0xa0, 0x01), 0x01)\n        /* \"quantum/UBI4ALLQuantumFinance.sol\":7765:7777  stakes[user] */\n      dup6\n      and\n      0x00\n      dup2\n      dup2\n      mstore\n        /* \"quantum/UBI4ALLQuantumFinance.sol\":7765:7771  stakes */\n      0x01\n        /* \"quantum/UBI4ALLQuantumFinance.sol\":7765:7777  stakes[user] */\n      0x20\n      swap1\n      dup2\n      mstore\n      0x40\n      dup1\n      dup4\n      keccak256\n        /* \"quantum/UBI4ALLQuantumFinance.sol\":7765:7788  stakes[user].currentAPY */\n      0x04\n      dup2\n      add\n        /* \"quantum/UBI4ALLQuantumFinance.sol\":7765:7797  stakes[user].currentAPY = newAPY */\n      dup7\n      swap1\n      sstore\n        /* \"quantum/UBI4ALLQuantumFinance.sol\":7833:7848  block.timestamp */\n      timestamp\n        /* \"quantum/UBI4ALLQuantumFinance.sol\":7807:7830  stakes[user].lastUpdate */\n      0x02\n      swap1\n      swap2\n      add\n        /* \"quantum/UBI4ALLQuantumFinance.sol\":7807:7848  stakes[user].lastUpdate = block.timestamp */\n      sstore\n        /* \"quantum/UBI4ALLQuantumFinance.sol\":7865:7889  requestToUser[requestId] */\n      dup11\n      dup4\n      mstore\n        /* \"quantum/UBI4ALLQuantumFinance.sol\":7865:7878  requestToUser */\n      0x03\n        /* \"quantum/UBI4ALLQuantumFinance.sol\":7865:7889  requestToUser[requestId] */\n      dup3\n      mstore\n      swap2\n      dup3\n      swap1\n      keccak256\n        /* \"quantum/UBI4ALLQuantumFinance.sol\":7858:7889  delete requestToUser[requestId] */\n      dup1\n      sload\n      not(sub(shl(0xa0, 0x01), 0x01))\n      and\n      swap1\n      sstore\n        /* \"quantum/UBI4ALLQuantumFinance.sol\":7904:7928  APYUpdated(user, newAPY) */\n      swap1\n      mload\n        /* \"#utility.yul\":160:185   */\n      dup4\n      dup2\n      mstore\n        /* \"quantum/UBI4ALLQuantumFinance.sol\":7765:7797  stakes[user].currentAPY = newAPY */\n      swap3\n      swap4\n      pop\n        /* \"quantum/UBI4ALLQuantumFinance.sol\":7765:7777  stakes[user] */\n      swap1\n      swap2\n        /* \"quantum/UBI4ALLQuantumFinance.sol\":7904:7928  APYUpdated(user, newAPY) */\n      0x95046b7fdb9bcf09cdb8b5e270934d955f51f771912290ff9a0020045195eee5\n      swap2\n        /* \"#utility.yul\":133:151   */\n      add\n        /* \"quantum/UBI4ALLQuantumFinance.sol\":7904:7928  APYUpdated(user, newAPY) */\n      mload(0x40)\n      dup1\n      swap2\n      sub\n      swap1\n      log2\n        /* \"quantum/UBI4ALLQuantumFinance.sol\":7320:7935  {... */\n      pop\n      pop\n      pop\n      pop\n        /* \"quantum/UBI4ALLQuantumFinance.sol\":7225:7935  function fulfillRandomWords(uint256 requestId, uint256[] memory randomWords) internal override {... */\n      pop\n      pop\n      jump\t// out\n        /* \"quantum/UBI4ALLQuantumFinance.sol\":8026:8483  function updateStake(address user) internal {... */\n    tag_158:\n      sub(shl(0xa0, 0x01), 0x01)\n        /* \"quantum/UBI4ALLQuantumFinance.sol\":8102:8114  stakes[user] */\n      dup2\n      and\n        /* \"quantum/UBI4ALLQuantumFinance.sol\":8076:8099  Stake storage userStake */\n      0x00\n        /* \"quantum/UBI4ALLQuantumFinance.sol\":8102:8114  stakes[user] */\n      swap1\n      dup2\n      mstore\n        /* \"quantum/UBI4ALLQuantumFinance.sol\":8102:8108  stakes */\n      0x01\n        /* \"quantum/UBI4ALLQuantumFinance.sol\":8102:8114  stakes[user] */\n      0x20\n      mstore\n      0x40\n      swap1\n      keccak256\n        /* \"quantum/UBI4ALLQuantumFinance.sol\":8124:8140  userStake.amount */\n      dup1\n      sload\n        /* \"quantum/UBI4ALLQuantumFinance.sol\":8124:8144  userStake.amount > 0 */\n      iszero\n      iszero\n      dup1\n        /* \"quantum/UBI4ALLQuantumFinance.sol\":8124:8171  userStake.amount > 0 || userStake.daoAmount > 0 */\n      tag_270\n      jumpi\n      pop\n        /* \"quantum/UBI4ALLQuantumFinance.sol\":8170:8171  0 */\n      0x00\n        /* \"quantum/UBI4ALLQuantumFinance.sol\":8148:8157  userStake */\n      dup2\n        /* \"quantum/UBI4ALLQuantumFinance.sol\":8148:8167  userStake.daoAmount */\n      0x01\n      add\n      sload\n        /* \"quantum/UBI4ALLQuantumFinance.sol\":8148:8171  userStake.daoAmount > 0 */\n      gt\n        /* \"quantum/UBI4ALLQuantumFinance.sol\":8124:8171  userStake.amount > 0 || userStake.daoAmount > 0 */\n    tag_270:\n        /* \"quantum/UBI4ALLQuantumFinance.sol\":8120:8481  if (userStake.amount > 0 || userStake.daoAmount > 0) {    ... */\n      iszero\n      tag_154\n      jumpi\n        /* \"quantum/UBI4ALLQuantumFinance.sol\":8187:8205  uint256 baseReward */\n      0x00\n        /* \"quantum/UBI4ALLQuantumFinance.sol\":8208:8269  calculateReward(user, userStake.amount, userStake.currentAPY) */\n      tag_272\n        /* \"quantum/UBI4ALLQuantumFinance.sol\":8224:8228  user */\n      dup4\n        /* \"quantum/UBI4ALLQuantumFinance.sol\":8230:8239  userStake */\n      dup4\n        /* \"quantum/UBI4ALLQuantumFinance.sol\":8230:8246  userStake.amount */\n      0x00\n      add\n      sload\n        /* \"quantum/UBI4ALLQuantumFinance.sol\":8248:8257  userStake */\n      dup5\n        /* \"quantum/UBI4ALLQuantumFinance.sol\":8248:8268  userStake.currentAPY */\n      0x04\n      add\n      sload\n        /* \"quantum/UBI4ALLQuantumFinance.sol\":8208:8223  calculateReward */\n      tag_239\n        /* \"quantum/UBI4ALLQuantumFinance.sol\":8208:8269  calculateReward(user, userStake.amount, userStake.currentAPY) */\n      jump\t// in\n    tag_272:\n        /* \"quantum/UBI4ALLQuantumFinance.sol\":8187:8269  uint256 baseReward = calculateReward(user, userStake.amount, userStake.currentAPY) */\n      swap1\n      pop\n        /* \"quantum/UBI4ALLQuantumFinance.sol\":8279:8296  uint256 daoReward */\n      0x00\n        /* \"quantum/UBI4ALLQuantumFinance.sol\":8299:8363  calculateReward(user, userStake.daoAmount, userStake.currentAPY) */\n      tag_273\n        /* \"quantum/UBI4ALLQuantumFinance.sol\":8315:8319  user */\n      dup5\n        /* \"quantum/UBI4ALLQuantumFinance.sol\":8321:8330  userStake */\n      dup5\n        /* \"quantum/UBI4ALLQuantumFinance.sol\":8321:8340  userStake.daoAmount */\n      0x01\n      add\n      sload\n        /* \"quantum/UBI4ALLQuantumFinance.sol\":8342:8351  userStake */\n      dup6\n        /* \"quantum/UBI4ALLQuantumFinance.sol\":8342:8362  userStake.currentAPY */\n      0x04\n      add\n      sload\n        /* \"quantum/UBI4ALLQuantumFinance.sol\":8299:8314  calculateReward */\n      tag_239\n        /* \"quantum/UBI4ALLQuantumFinance.sol\":8299:8363  calculateReward(user, userStake.daoAmount, userStake.currentAPY) */\n      jump\t// in\n    tag_273:\n        /* \"quantum/UBI4ALLQuantumFinance.sol\":8279:8363  uint256 daoReward = calculateReward(user, userStake.daoAmount, userStake.currentAPY) */\n      swap1\n      pop\n        /* \"quantum/UBI4ALLQuantumFinance.sol\":8404:8426  baseReward + daoReward */\n      tag_274\n        /* \"quantum/UBI4ALLQuantumFinance.sol\":8279:8363  uint256 daoReward = calculateReward(user, userStake.daoAmount, userStake.currentAPY) */\n      dup2\n        /* \"quantum/UBI4ALLQuantumFinance.sol\":8404:8414  baseReward */\n      dup4\n        /* \"quantum/UBI4ALLQuantumFinance.sol\":8404:8426  baseReward + daoReward */\n      tag_177\n      jump\t// in\n    tag_274:\n        /* \"quantum/UBI4ALLQuantumFinance.sol\":8373:8382  userStake */\n      dup4\n        /* \"quantum/UBI4ALLQuantumFinance.sol\":8373:8400  userStake.accumulatedReward */\n      0x03\n      add\n      0x00\n        /* \"quantum/UBI4ALLQuantumFinance.sol\":8373:8426  userStake.accumulatedReward += baseReward + daoReward */\n      dup3\n      dup3\n      sload\n      tag_275\n      swap2\n      swap1\n      tag_177\n      jump\t// in\n    tag_275:\n      swap1\n      swap2\n      sstore\n      pop\n      pop\n        /* \"quantum/UBI4ALLQuantumFinance.sol\":8459:8474  block.timestamp */\n      timestamp\n        /* \"quantum/UBI4ALLQuantumFinance.sol\":8436:8456  userStake.lastUpdate */\n      0x02\n      dup5\n      add\n        /* \"quantum/UBI4ALLQuantumFinance.sol\":8436:8474  userStake.lastUpdate = block.timestamp */\n      sstore\n      pop\n      pop\n        /* \"quantum/UBI4ALLQuantumFinance.sol\":8070:8483  {... */\n      pop\n        /* \"quantum/UBI4ALLQuantumFinance.sol\":8026:8483  function updateStake(address user) internal {... */\n      pop\n      jump\t// out\n        /* \"@openzeppelin/contracts/access/Ownable.sol\":1796:1958  function _checkOwner() internal view virtual {... */\n    tag_180:\n        /* \"@openzeppelin/contracts/access/Ownable.sol\":1684:1691  address */\n      0x00\n        /* \"@openzeppelin/contracts/access/Ownable.sol\":1710:1716  _owner */\n      sload\n      sub(shl(0xa0, 0x01), 0x01)\n      and\n        /* \"@openzeppelin/contracts/utils/Context.sol\":735:745  msg.sender */\n      caller\n        /* \"@openzeppelin/contracts/access/Ownable.sol\":1855:1878  owner() != _msgSender() */\n      eq\n        /* \"@openzeppelin/contracts/access/Ownable.sol\":1851:1952  if (owner() != _msgSender()) {... */\n      tag_182\n      jumpi\n        /* \"@openzeppelin/contracts/access/Ownable.sol\":1901:1941  OwnableUnauthorizedAccount(_msgSender()) */\n      mload(0x40)\n      shl(0xe0, 0x118cdaa7)\n      dup2\n      mstore\n        /* \"@openzeppelin/contracts/utils/Context.sol\":735:745  msg.sender */\n      caller\n        /* \"@openzeppelin/contracts/access/Ownable.sol\":1901:1941  OwnableUnauthorizedAccount(_msgSender()) */\n      0x04\n      dup3\n      add\n        /* \"#utility.yul\":3199:3250   */\n      mstore\n        /* \"#utility.yul\":3172:3190   */\n      0x24\n      add\n        /* \"@openzeppelin/contracts/access/Ownable.sol\":1901:1941  OwnableUnauthorizedAccount(_msgSender()) */\n      tag_152\n        /* \"#utility.yul\":3020:3256   */\n      jump\n        /* \"@openzeppelin/contracts/access/Ownable.sol\":2912:3099  function _transferOwnership(address newOwner) internal virtual {... */\n    tag_183:\n        /* \"@openzeppelin/contracts/access/Ownable.sol\":2985:3001  address oldOwner */\n      0x00\n        /* \"@openzeppelin/contracts/access/Ownable.sol\":3004:3010  _owner */\n      dup1\n      sload\n      sub(shl(0xa0, 0x01), 0x01)\n        /* \"@openzeppelin/contracts/access/Ownable.sol\":3020:3037  _owner = newOwner */\n      dup4\n      dup2\n      and\n      not(sub(shl(0xa0, 0x01), 0x01))\n      dup4\n      and\n      dup2\n      or\n      dup5\n      sstore\n        /* \"@openzeppelin/contracts/access/Ownable.sol\":3052:3092  OwnershipTransferred(oldOwner, newOwner) */\n      mload(0x40)\n        /* \"@openzeppelin/contracts/access/Ownable.sol\":3004:3010  _owner */\n      swap2\n      swap1\n      swap3\n      and\n      swap3\n      dup4\n      swap2\n        /* \"@openzeppelin/contracts/access/Ownable.sol\":3052:3092  OwnershipTransferred(oldOwner, newOwner) */\n      0x8be0079c531659141344cd1fd0a4f28419497f9722a3daafe3b4186f6b6457e0\n      swap2\n        /* \"@openzeppelin/contracts/access/Ownable.sol\":2985:3001  address oldOwner */\n      swap1\n        /* \"@openzeppelin/contracts/access/Ownable.sol\":3052:3092  OwnershipTransferred(oldOwner, newOwner) */\n      log3\n        /* \"@openzeppelin/contracts/access/Ownable.sol\":2975:3099  {... */\n      pop\n        /* \"@openzeppelin/contracts/access/Ownable.sol\":2912:3099  function _transferOwnership(address newOwner) internal virtual {... */\n      pop\n      jump\t// out\n        /* \"quantum/UBI4ALLQuantumFinance.sol\":6589:7070  function requestSuperpositionAPY(address user) internal {... */\n    tag_200:\n      sub(shl(0xa0, 0x01), 0x01)\n        /* \"quantum/UBI4ALLQuantumFinance.sol\":6678:6690  stakes[user] */\n      dup2\n      and\n      0x00\n      swap1\n      dup2\n      mstore\n        /* \"quantum/UBI4ALLQuantumFinance.sol\":6678:6684  stakes */\n      0x01\n        /* \"quantum/UBI4ALLQuantumFinance.sol\":6678:6690  stakes[user] */\n      0x20\n      mstore\n      0x40\n      swap1\n      keccak256\n        /* \"quantum/UBI4ALLQuantumFinance.sol\":6678:6701  stakes[user].lastUpdate */\n      0x02\n      add\n      sload\n        /* \"quantum/UBI4ALLQuantumFinance.sol\":6678:6719  stakes[user].lastUpdate + UPDATE_INTERVAL */\n      tag_285\n      swap1\n        /* \"quantum/UBI4ALLQuantumFinance.sol\":1709:1716  30 days */\n      0x278d00\n      swap1\n        /* \"quantum/UBI4ALLQuantumFinance.sol\":6678:6719  stakes[user].lastUpdate + UPDATE_INTERVAL */\n      tag_177\n      jump\t// in\n    tag_285:\n        /* \"quantum/UBI4ALLQuantumFinance.sol\":6659:6674  block.timestamp */\n      timestamp\n        /* \"quantum/UBI4ALLQuantumFinance.sol\":6659:6719  block.timestamp >= stakes[user].lastUpdate + UPDATE_INTERVAL */\n      lt\n        /* \"quantum/UBI4ALLQuantumFinance.sol\":6655:7064  if (block.timestamp >= stakes[user].lastUpdate + UPDATE_INTERVAL) {... */\n      tag_246\n      jumpi\n        /* \"quantum/UBI4ALLQuantumFinance.sol\":6860:6880  requestConfirmations */\n      0x04\n      dup1\n      sload\n        /* \"quantum/UBI4ALLQuantumFinance.sol\":6755:6954  COORDINATOR.requestRandomWords(... */\n      mload(0x40)\n      shl(0xe4, 0x05d3b1d3)\n      dup2\n      mstore\n        /* \"quantum/UBI4ALLQuantumFinance.sol\":6803:6810  keyHash */\n      immutable(\"0xefc69ac575b4738c457b8bcdbf19fb94007e003bdfa78d9f9824d63343ccc553\")\n        /* \"quantum/UBI4ALLQuantumFinance.sol\":6755:6954  COORDINATOR.requestRandomWords(... */\n      swap3\n      dup2\n      add\n        /* \"#utility.yul\":9323:9348   */\n      swap3\n      swap1\n      swap3\n      mstore\n        /* \"#utility.yul\":9396:9414   */\n      0xffffffffffffffff\n        /* \"quantum/UBI4ALLQuantumFinance.sol\":6828:6842  subscriptionId */\n      immutable(\"0xe699a24dbc75eeaed81a8bf4b3cb0a2b31e2feaa7617ebf93abe15d5ab1d7460\")\n        /* \"#utility.yul\":9384:9415   */\n      and\n        /* \"#utility.yul\":9364:9382   */\n      0x24\n      dup4\n      add\n        /* \"#utility.yul\":9357:9416   */\n      mstore\n        /* \"quantum/UBI4ALLQuantumFinance.sol\":6860:6880  requestConfirmations */\n      0x0100000000\n      dup2\n      div\n      0xffff\n      and\n        /* \"#utility.yul\":9432:9450   */\n      0x44\n      dup4\n      add\n        /* \"#utility.yul\":9425:9472   */\n      mstore\n        /* \"quantum/UBI4ALLQuantumFinance.sol\":6898:6914  callbackGasLimit */\n      0xffffffff\n      dup1\n      dup3\n      and\n        /* \"#utility.yul\":9488:9506   */\n      0x64\n      dup5\n      add\n        /* \"#utility.yul\":9481:9532   */\n      mstore\n        /* \"quantum/UBI4ALLQuantumFinance.sol\":6932:6940  numWords */\n      0x01000000000000\n      swap1\n      swap2\n      div\n      and\n        /* \"#utility.yul\":9548:9567   */\n      0x84\n      dup3\n      add\n        /* \"#utility.yul\":9541:9593   */\n      mstore\n        /* \"quantum/UBI4ALLQuantumFinance.sol\":6735:6752  uint256 requestId */\n      0x00\n      swap1\n        /* \"quantum/UBI4ALLQuantumFinance.sol\":6755:6766  COORDINATOR */\n      immutable(\"0xddeb3ab6e0a1dec15b1c925386318c221afb363e5386443df7661a3a78489ef6\")\n      sub(shl(0xa0, 0x01), 0x01)\n        /* \"quantum/UBI4ALLQuantumFinance.sol\":6755:6785  COORDINATOR.requestRandomWords */\n      and\n      swap1\n      0x5d3b1d30\n      swap1\n        /* \"#utility.yul\":9295:9314   */\n      0xa4\n      add\n        /* \"quantum/UBI4ALLQuantumFinance.sol\":6755:6954  COORDINATOR.requestRandomWords(... */\n      0x20\n      mload(0x40)\n      dup1\n      dup4\n      sub\n      dup2\n      0x00\n      dup8\n      gas\n      call\n      iszero\n      dup1\n      iszero\n      tag_290\n      jumpi\n      returndatasize\n      0x00\n      dup1\n      returndatacopy\n      revert(0x00, returndatasize)\n    tag_290:\n      pop\n      pop\n      pop\n      pop\n      mload(0x40)\n      returndatasize\n      not(0x1f)\n      0x1f\n      dup3\n      add\n      and\n      dup3\n      add\n      dup1\n      0x40\n      mstore\n      pop\n      dup2\n      add\n      swap1\n      tag_291\n      swap2\n      swap1\n      tag_292\n      jump\t// in\n    tag_291:\n        /* \"quantum/UBI4ALLQuantumFinance.sol\":6968:6992  requestToUser[requestId] */\n      0x00\n      dup2\n      dup2\n      mstore\n        /* \"quantum/UBI4ALLQuantumFinance.sol\":6968:6981  requestToUser */\n      0x03\n        /* \"quantum/UBI4ALLQuantumFinance.sol\":6968:6992  requestToUser[requestId] */\n      0x20\n      swap1\n      dup2\n      mstore\n      0x40\n      swap2\n      dup3\n      swap1\n      keccak256\n        /* \"quantum/UBI4ALLQuantumFinance.sol\":6968:6999  requestToUser[requestId] = user */\n      dup1\n      sload\n      not(sub(shl(0xa0, 0x01), 0x01))\n      and\n      sub(shl(0xa0, 0x01), 0x01)\n      dup8\n      and\n      swap1\n      dup2\n      or\n      swap1\n      swap2\n      sstore\n        /* \"quantum/UBI4ALLQuantumFinance.sol\":7018:7053  RandomAPYRequested(user, requestId) */\n      swap2\n      mload\n        /* \"#utility.yul\":160:185   */\n      dup4\n      dup2\n      mstore\n        /* \"quantum/UBI4ALLQuantumFinance.sol\":6968:6992  requestToUser[requestId] */\n      swap3\n      swap4\n      pop\n        /* \"quantum/UBI4ALLQuantumFinance.sol\":6968:6999  requestToUser[requestId] = user */\n      swap1\n      swap2\n        /* \"quantum/UBI4ALLQuantumFinance.sol\":7018:7053  RandomAPYRequested(user, requestId) */\n      0x05acec44d329e4dfea8e1a6dae4b0c46d76b2a92d3a747907a60dee7ad6809fd\n      swap2\n        /* \"#utility.yul\":133:151   */\n      add\n        /* \"quantum/UBI4ALLQuantumFinance.sol\":7018:7053  RandomAPYRequested(user, requestId) */\n      mload(0x40)\n      dup1\n      swap2\n      sub\n      swap1\n      log2\n        /* \"quantum/UBI4ALLQuantumFinance.sol\":6721:7064  {... */\n      pop\n        /* \"quantum/UBI4ALLQuantumFinance.sol\":6589:7070  function requestSuperpositionAPY(address user) internal {... */\n      pop\n      jump\t// out\n        /* \"quantum/UBI4ALLQuantumFinance.sol\":8697:9132  function calculateReward(address user, uint256 amount, uint256 apy) internal view returns (uint256) {... */\n    tag_239:\n        /* \"quantum/UBI4ALLQuantumFinance.sol\":8788:8795  uint256 */\n      0x00\n        /* \"quantum/UBI4ALLQuantumFinance.sol\":8811:8817  amount */\n      dup3\n        /* \"quantum/UBI4ALLQuantumFinance.sol\":8821:8822  0 */\n      0x00\n        /* \"quantum/UBI4ALLQuantumFinance.sol\":8811:8822  amount == 0 */\n      sub\n        /* \"quantum/UBI4ALLQuantumFinance.sol\":8807:8832  if (amount == 0) return 0 */\n      tag_295\n      jumpi\n      pop\n        /* \"quantum/UBI4ALLQuantumFinance.sol\":8831:8832  0 */\n      0x00\n        /* \"quantum/UBI4ALLQuantumFinance.sol\":8824:8832  return 0 */\n      jump(tag_294)\n        /* \"quantum/UBI4ALLQuantumFinance.sol\":8807:8832  if (amount == 0) return 0 */\n    tag_295:\n        /* \"quantum/UBI4ALLQuantumFinance.sol\":8842:8865  uint256 volatilityBonus */\n      0x00\n        /* \"quantum/UBI4ALLQuantumFinance.sol\":8868:8887  predictVolatility() */\n      tag_296\n        /* \"quantum/UBI4ALLQuantumFinance.sol\":8868:8885  predictVolatility */\n      tag_297\n        /* \"quantum/UBI4ALLQuantumFinance.sol\":8868:8887  predictVolatility() */\n      jump\t// in\n    tag_296:\n        /* \"quantum/UBI4ALLQuantumFinance.sol\":8842:8887  uint256 volatilityBonus = predictVolatility() */\n      swap1\n      pop\n        /* \"quantum/UBI4ALLQuantumFinance.sol\":8897:8913  uint256 totalAPY */\n      0x00\n        /* \"quantum/UBI4ALLQuantumFinance.sol\":8916:8937  apy + volatilityBonus */\n      tag_298\n        /* \"quantum/UBI4ALLQuantumFinance.sol\":8842:8887  uint256 volatilityBonus = predictVolatility() */\n      dup3\n        /* \"quantum/UBI4ALLQuantumFinance.sol\":8916:8919  apy */\n      dup6\n        /* \"quantum/UBI4ALLQuantumFinance.sol\":8916:8937  apy + volatilityBonus */\n      tag_177\n      jump\t// in\n    tag_298:\n      sub(shl(0xa0, 0x01), 0x01)\n        /* \"quantum/UBI4ALLQuantumFinance.sol\":8973:8985  stakes[user] */\n      dup8\n      and\n        /* \"quantum/UBI4ALLQuantumFinance.sol\":8947:8970  Stake storage userStake */\n      0x00\n        /* \"quantum/UBI4ALLQuantumFinance.sol\":8973:8985  stakes[user] */\n      swap1\n      dup2\n      mstore\n        /* \"quantum/UBI4ALLQuantumFinance.sol\":8973:8979  stakes */\n      0x01\n        /* \"quantum/UBI4ALLQuantumFinance.sol\":8973:8985  stakes[user] */\n      0x20\n      mstore\n      0x40\n      dup2\n      keccak256\n        /* \"quantum/UBI4ALLQuantumFinance.sol\":9035:9055  userStake.lastUpdate */\n      0x02\n      dup2\n      add\n      sload\n        /* \"quantum/UBI4ALLQuantumFinance.sol\":8897:8937  uint256 totalAPY = apy + volatilityBonus */\n      swap3\n      swap4\n      pop\n        /* \"quantum/UBI4ALLQuantumFinance.sol\":8973:8985  stakes[user] */\n      swap2\n        /* \"quantum/UBI4ALLQuantumFinance.sol\":9017:9055  block.timestamp - userStake.lastUpdate */\n      tag_299\n      swap1\n        /* \"quantum/UBI4ALLQuantumFinance.sol\":9017:9032  block.timestamp */\n      timestamp\n        /* \"quantum/UBI4ALLQuantumFinance.sol\":9017:9055  block.timestamp - userStake.lastUpdate */\n      tag_163\n      jump\t// in\n    tag_299:\n        /* \"quantum/UBI4ALLQuantumFinance.sol\":8995:9055  uint256 timeElapsed = block.timestamp - userStake.lastUpdate */\n      swap1\n      pop\n        /* \"quantum/UBI4ALLQuantumFinance.sol\":9119:9125  10_000 */\n      0x2710\n        /* \"quantum/UBI4ALLQuantumFinance.sol\":9107:9115  365 days */\n      0x01e13380\n        /* \"quantum/UBI4ALLQuantumFinance.sol\":8995:9055  uint256 timeElapsed = block.timestamp - userStake.lastUpdate */\n      dup3\n        /* \"quantum/UBI4ALLQuantumFinance.sol\":9073:9090  amount * totalAPY */\n      tag_300\n        /* \"quantum/UBI4ALLQuantumFinance.sol\":9082:9090  totalAPY */\n      dup7\n        /* \"quantum/UBI4ALLQuantumFinance.sol\":9073:9079  amount */\n      dup12\n        /* \"quantum/UBI4ALLQuantumFinance.sol\":9073:9090  amount * totalAPY */\n      tag_264\n      jump\t// in\n    tag_300:\n        /* \"quantum/UBI4ALLQuantumFinance.sol\":9073:9104  amount * totalAPY * timeElapsed */\n      tag_301\n      swap2\n      swap1\n      tag_264\n      jump\t// in\n    tag_301:\n        /* \"quantum/UBI4ALLQuantumFinance.sol\":9073:9115  amount * totalAPY * timeElapsed / 365 days */\n      tag_302\n      swap2\n      swap1\n      tag_266\n      jump\t// in\n    tag_302:\n        /* \"quantum/UBI4ALLQuantumFinance.sol\":9072:9125  (amount * totalAPY * timeElapsed / 365 days) / 10_000 */\n      tag_303\n      swap2\n      swap1\n      tag_266\n      jump\t// in\n    tag_303:\n        /* \"quantum/UBI4ALLQuantumFinance.sol\":9065:9125  return (amount * totalAPY * timeElapsed / 365 days) / 10_000 */\n      swap5\n      pop\n      pop\n      pop\n      pop\n      pop\n        /* \"quantum/UBI4ALLQuantumFinance.sol\":8697:9132  function calculateReward(address user, uint256 amount, uint256 apy) internal view returns (uint256) {... */\n    tag_294:\n      swap4\n      swap3\n      pop\n      pop\n      pop\n      jump\t// out\n        /* \"@openzeppelin/contracts/access/Ownable.sol\":2543:2758  function transferOwnership(address newOwner) public virtual onlyOwner {... */\n    tag_247:\n        /* \"@openzeppelin/contracts/access/Ownable.sol\":1531:1544  _checkOwner() */\n      tag_305\n        /* \"@openzeppelin/contracts/access/Ownable.sol\":1531:1542  _checkOwner */\n      tag_180\n        /* \"@openzeppelin/contracts/access/Ownable.sol\":1531:1544  _checkOwner() */\n      jump\t// in\n    tag_305:\n      sub(shl(0xa0, 0x01), 0x01)\n        /* \"@openzeppelin/contracts/access/Ownable.sol\":2627:2649  newOwner == address(0) */\n      dup2\n      and\n        /* \"@openzeppelin/contracts/access/Ownable.sol\":2623:2714  if (newOwner == address(0)) {... */\n      tag_307\n      jumpi\n        /* \"@openzeppelin/contracts/access/Ownable.sol\":2672:2703  OwnableInvalidOwner(address(0)) */\n      mload(0x40)\n      shl(0xe0, 0x1e4fbdf7)\n      dup2\n      mstore\n        /* \"@openzeppelin/contracts/access/Ownable.sol\":2700:2701  0 */\n      0x00\n        /* \"@openzeppelin/contracts/access/Ownable.sol\":2672:2703  OwnableInvalidOwner(address(0)) */\n      0x04\n      dup3\n      add\n        /* \"#utility.yul\":3199:3250   */\n      mstore\n        /* \"#utility.yul\":3172:3190   */\n      0x24\n      add\n        /* \"@openzeppelin/contracts/access/Ownable.sol\":2672:2703  OwnableInvalidOwner(address(0)) */\n      tag_152\n        /* \"#utility.yul\":3020:3256   */\n      jump\n        /* \"@openzeppelin/contracts/access/Ownable.sol\":2623:2714  if (newOwner == address(0)) {... */\n    tag_307:\n        /* \"@openzeppelin/contracts/access/Ownable.sol\":2723:2751  _transferOwnership(newOwner) */\n      tag_246\n        /* \"@openzeppelin/contracts/access/Ownable.sol\":2742:2750  newOwner */\n      dup2\n        /* \"@openzeppelin/contracts/access/Ownable.sol\":2723:2741  _transferOwnership */\n      tag_183\n        /* \"@openzeppelin/contracts/access/Ownable.sol\":2723:2751  _transferOwnership(newOwner) */\n      jump\t// in\n        /* \"quantum/UBI4ALLQuantumFinance.sol\":9234:9471  function predictVolatility() internal view returns (uint256) {... */\n    tag_297:\n        /* \"quantum/UBI4ALLQuantumFinance.sol\":9286:9293  uint256 */\n      0x00\n        /* \"quantum/UBI4ALLQuantumFinance.sol\":9305:9317  int256 price */\n      dup1\n        /* \"quantum/UBI4ALLQuantumFinance.sol\":9320:9326  oracle */\n      immutable(\"0x6e132956be3a55a486a3eb165331ac44a364c462bf19ae9edaeaaf7ce14a28d1\")\n      sub(shl(0xa0, 0x01), 0x01)\n        /* \"quantum/UBI4ALLQuantumFinance.sol\":9320:9341  oracle.getLatestPrice */\n      and\n      0x8e15f473\n        /* \"quantum/UBI4ALLQuantumFinance.sol\":9320:9343  oracle.getLatestPrice() */\n      mload(0x40)\n      dup2\n      0xffffffff\n      and\n      0xe0\n      shl\n      dup2\n      mstore\n      0x04\n      add\n      0x20\n      mload(0x40)\n      dup1\n      dup4\n      sub\n      dup2\n      dup7\n      gas\n      staticcall\n      iszero\n      dup1\n      iszero\n      tag_313\n      jumpi\n      returndatasize\n      0x00\n      dup1\n      returndatacopy\n      revert(0x00, returndatasize)\n    tag_313:\n      pop\n      pop\n      pop\n      pop\n      mload(0x40)\n      returndatasize\n      not(0x1f)\n      0x1f\n      dup3\n      add\n      and\n      dup3\n      add\n      dup1\n      0x40\n      mstore\n      pop\n      dup2\n      add\n      swap1\n      tag_314\n      swap2\n      swap1\n      tag_292\n      jump\t// in\n    tag_314:\n        /* \"quantum/UBI4ALLQuantumFinance.sol\":9305:9343  int256 price = oracle.getLatestPrice() */\n      swap1\n      pop\n        /* \"quantum/UBI4ALLQuantumFinance.sol\":9366:9367  0 */\n      0x00\n        /* \"quantum/UBI4ALLQuantumFinance.sol\":9357:9362  price */\n      dup2\n        /* \"quantum/UBI4ALLQuantumFinance.sol\":9357:9367  price <= 0 */\n      sgt\n        /* \"quantum/UBI4ALLQuantumFinance.sol\":9353:9377  if (price <= 0) return 0 */\n      tag_316\n      jumpi\n        /* \"quantum/UBI4ALLQuantumFinance.sol\":9376:9377  0 */\n      0x00\n        /* \"quantum/UBI4ALLQuantumFinance.sol\":9369:9377  return 0 */\n      swap2\n      pop\n      pop\n        /* \"quantum/UBI4ALLQuantumFinance.sol\":9234:9471  function predictVolatility() internal view returns (uint256) {... */\n      swap1\n      jump\t// out\n        /* \"quantum/UBI4ALLQuantumFinance.sol\":9353:9377  if (price <= 0) return 0 */\n    tag_316:\n        /* \"quantum/UBI4ALLQuantumFinance.sol\":9444:9464  VOLATILITY_BONUS / 2 */\n      tag_317\n        /* \"quantum/UBI4ALLQuantumFinance.sol\":9463:9464  2 */\n      0x02\n        /* \"quantum/UBI4ALLQuantumFinance.sol\":1118:1122  2_00 */\n      0xc8\n        /* \"quantum/UBI4ALLQuantumFinance.sol\":9444:9464  VOLATILITY_BONUS / 2 */\n      tag_266\n      jump\t// in\n    tag_317:\n        /* \"quantum/UBI4ALLQuantumFinance.sol\":9437:9464  return VOLATILITY_BONUS / 2 */\n      swap2\n      pop\n      pop\n        /* \"quantum/UBI4ALLQuantumFinance.sol\":9234:9471  function predictVolatility() internal view returns (uint256) {... */\n      swap1\n      jump\t// out\n        /* \"#utility.yul\":401:687   */\n    tag_51:\n        /* \"#utility.yul\":460:466   */\n      0x00\n        /* \"#utility.yul\":513:515   */\n      0x20\n        /* \"#utility.yul\":501:510   */\n      dup3\n        /* \"#utility.yul\":492:499   */\n      dup5\n        /* \"#utility.yul\":488:511   */\n      sub\n        /* \"#utility.yul\":484:516   */\n      slt\n        /* \"#utility.yul\":481:533   */\n      iszero\n      tag_325\n      jumpi\n        /* \"#utility.yul\":529:530   */\n      0x00\n        /* \"#utility.yul\":526:527   */\n      dup1\n        /* \"#utility.yul\":519:531   */\n      revert\n        /* \"#utility.yul\":481:533   */\n    tag_325:\n        /* \"#utility.yul\":555:578   */\n      dup2\n      calldataload\n      sub(shl(0xa0, 0x01), 0x01)\n        /* \"#utility.yul\":607:638   */\n      dup2\n      and\n        /* \"#utility.yul\":597:639   */\n      dup2\n      eq\n        /* \"#utility.yul\":587:657   */\n      tag_294\n      jumpi\n        /* \"#utility.yul\":653:654   */\n      0x00\n        /* \"#utility.yul\":650:651   */\n      dup1\n        /* \"#utility.yul\":643:655   */\n      revert\n        /* \"#utility.yul\":1160:1287   */\n    tag_318:\n        /* \"#utility.yul\":1221:1231   */\n      0x4e487b71\n        /* \"#utility.yul\":1216:1219   */\n      0xe0\n        /* \"#utility.yul\":1212:1232   */\n      shl\n        /* \"#utility.yul\":1209:1210   */\n      0x00\n        /* \"#utility.yul\":1202:1233   */\n      mstore\n        /* \"#utility.yul\":1252:1256   */\n      0x41\n        /* \"#utility.yul\":1249:1250   */\n      0x04\n        /* \"#utility.yul\":1242:1257   */\n      mstore\n        /* \"#utility.yul\":1276:1280   */\n      0x24\n        /* \"#utility.yul\":1273:1274   */\n      0x00\n        /* \"#utility.yul\":1266:1281   */\n      revert\n        /* \"#utility.yul\":1292:2587   */\n    tag_57:\n        /* \"#utility.yul\":1385:1391   */\n      0x00\n        /* \"#utility.yul\":1393:1399   */\n      dup1\n        /* \"#utility.yul\":1446:1448   */\n      0x40\n        /* \"#utility.yul\":1434:1443   */\n      dup4\n        /* \"#utility.yul\":1425:1432   */\n      dup6\n        /* \"#utility.yul\":1421:1444   */\n      sub\n        /* \"#utility.yul\":1417:1449   */\n      slt\n        /* \"#utility.yul\":1414:1466   */\n      iszero\n      tag_330\n      jumpi\n        /* \"#utility.yul\":1462:1463   */\n      0x00\n        /* \"#utility.yul\":1459:1460   */\n      dup1\n        /* \"#utility.yul\":1452:1464   */\n      revert\n        /* \"#utility.yul\":1414:1466   */\n    tag_330:\n        /* \"#utility.yul\":1507:1530   */\n      dup3\n      calldataload\n      swap2\n      pop\n        /* \"#utility.yul\":1605:1607   */\n      0x20\n        /* \"#utility.yul\":1590:1608   */\n      dup4\n      add\n        /* \"#utility.yul\":1577:1609   */\n      calldataload\n        /* \"#utility.yul\":1632:1650   */\n      0xffffffffffffffff\n        /* \"#utility.yul\":1621:1651   */\n      dup2\n      gt\n        /* \"#utility.yul\":1618:1668   */\n      iszero\n      tag_331\n      jumpi\n        /* \"#utility.yul\":1664:1665   */\n      0x00\n        /* \"#utility.yul\":1661:1662   */\n      dup1\n        /* \"#utility.yul\":1654:1666   */\n      revert\n        /* \"#utility.yul\":1618:1668   */\n    tag_331:\n        /* \"#utility.yul\":1687:1709   */\n      dup4\n      add\n        /* \"#utility.yul\":1740:1744   */\n      0x1f\n        /* \"#utility.yul\":1732:1745   */\n      dup2\n      add\n        /* \"#utility.yul\":1728:1755   */\n      dup6\n      sgt\n        /* \"#utility.yul\":1718:1773   */\n      tag_332\n      jumpi\n        /* \"#utility.yul\":1769:1770   */\n      0x00\n        /* \"#utility.yul\":1766:1767   */\n      dup1\n        /* \"#utility.yul\":1759:1771   */\n      revert\n        /* \"#utility.yul\":1718:1773   */\n    tag_332:\n        /* \"#utility.yul\":1809:1811   */\n      dup1\n        /* \"#utility.yul\":1796:1812   */\n      calldataload\n        /* \"#utility.yul\":1835:1853   */\n      0xffffffffffffffff\n        /* \"#utility.yul\":1827:1833   */\n      dup2\n        /* \"#utility.yul\":1824:1854   */\n      gt\n        /* \"#utility.yul\":1821:1877   */\n      iszero\n      tag_334\n      jumpi\n        /* \"#utility.yul\":1857:1875   */\n      tag_334\n      tag_318\n      jump\t// in\n    tag_334:\n        /* \"#utility.yul\":1903:1909   */\n      dup1\n        /* \"#utility.yul\":1900:1901   */\n      0x05\n        /* \"#utility.yul\":1896:1910   */\n      shl\n        /* \"#utility.yul\":1939:1941   */\n      0x40\n        /* \"#utility.yul\":1933:1942   */\n      mload\n        /* \"#utility.yul\":2002:2004   */\n      0x1f\n        /* \"#utility.yul\":1998:2005   */\n      not\n        /* \"#utility.yul\":1993:1995   */\n      0x3f\n        /* \"#utility.yul\":1989:1991   */\n      dup4\n        /* \"#utility.yul\":1985:1996   */\n      add\n        /* \"#utility.yul\":1981:2006   */\n      and\n        /* \"#utility.yul\":1973:1979   */\n      dup2\n        /* \"#utility.yul\":1969:2007   */\n      add\n        /* \"#utility.yul\":2073:2079   */\n      dup2\n        /* \"#utility.yul\":2061:2071   */\n      dup2\n        /* \"#utility.yul\":2058:2080   */\n      lt\n        /* \"#utility.yul\":2037:2055   */\n      0xffffffffffffffff\n        /* \"#utility.yul\":2025:2035   */\n      dup3\n        /* \"#utility.yul\":2022:2056   */\n      gt\n        /* \"#utility.yul\":2019:2081   */\n      or\n        /* \"#utility.yul\":2016:2104   */\n      iszero\n      tag_336\n      jumpi\n        /* \"#utility.yul\":2084:2102   */\n      tag_336\n      tag_318\n      jump\t// in\n    tag_336:\n        /* \"#utility.yul\":2120:2122   */\n      0x40\n        /* \"#utility.yul\":2113:2135   */\n      mstore\n        /* \"#utility.yul\":2170:2192   */\n      swap2\n      dup3\n      mstore\n        /* \"#utility.yul\":2220:2222   */\n      0x20\n        /* \"#utility.yul\":2250:2261   */\n      dup2\n      dup5\n      add\n        /* \"#utility.yul\":2246:2266   */\n      dup2\n      add\n      swap3\n        /* \"#utility.yul\":2170:2192   */\n      swap1\n        /* \"#utility.yul\":2208:2223   */\n      dup2\n      add\n        /* \"#utility.yul\":2278:2297   */\n      dup9\n      dup5\n      gt\n        /* \"#utility.yul\":2275:2314   */\n      iszero\n      tag_337\n      jumpi\n        /* \"#utility.yul\":2310:2311   */\n      0x00\n        /* \"#utility.yul\":2307:2308   */\n      dup1\n        /* \"#utility.yul\":2300:2312   */\n      revert\n        /* \"#utility.yul\":2275:2314   */\n    tag_337:\n        /* \"#utility.yul\":2342:2344   */\n      0x20\n        /* \"#utility.yul\":2338:2340   */\n      dup6\n        /* \"#utility.yul\":2334:2345   */\n      add\n        /* \"#utility.yul\":2323:2345   */\n      swap5\n      pop\n        /* \"#utility.yul\":2354:2556   */\n    tag_338:\n        /* \"#utility.yul\":2370:2376   */\n      dup4\n        /* \"#utility.yul\":2365:2368   */\n      dup6\n        /* \"#utility.yul\":2362:2377   */\n      lt\n        /* \"#utility.yul\":2354:2556   */\n      iszero\n      tag_340\n      jumpi\n        /* \"#utility.yul\":2464:2481   */\n      dup5\n      calldataload\n        /* \"#utility.yul\":2494:2514   */\n      dup1\n      dup3\n      mstore\n        /* \"#utility.yul\":2543:2545   */\n      0x20\n        /* \"#utility.yul\":2387:2399   */\n      swap6\n      dup7\n      add\n      swap6\n        /* \"#utility.yul\":2464:2481   */\n      swap1\n      swap4\n      pop\n        /* \"#utility.yul\":2534:2546   */\n      add\n        /* \"#utility.yul\":2354:2556   */\n      jump(tag_338)\n    tag_340:\n        /* \"#utility.yul\":2358:2361   */\n      pop\n        /* \"#utility.yul\":2575:2581   */\n      dup1\n        /* \"#utility.yul\":2565:2581   */\n      swap5\n      pop\n      pop\n      pop\n      pop\n      pop\n        /* \"#utility.yul\":1292:2587   */\n      swap3\n      pop\n      swap3\n      swap1\n      pop\n      jump\t// out\n        /* \"#utility.yul\":2789:3015   */\n    tag_68:\n        /* \"#utility.yul\":2848:2854   */\n      0x00\n        /* \"#utility.yul\":2901:2903   */\n      0x20\n        /* \"#utility.yul\":2889:2898   */\n      dup3\n        /* \"#utility.yul\":2880:2887   */\n      dup5\n        /* \"#utility.yul\":2876:2899   */\n      sub\n        /* \"#utility.yul\":2872:2904   */\n      slt\n        /* \"#utility.yul\":2869:2921   */\n      iszero\n      tag_343\n      jumpi\n        /* \"#utility.yul\":2917:2918   */\n      0x00\n        /* \"#utility.yul\":2914:2915   */\n      dup1\n        /* \"#utility.yul\":2907:2919   */\n      revert\n        /* \"#utility.yul\":2869:2921   */\n    tag_343:\n      pop\n        /* \"#utility.yul\":2962:2985   */\n      calldataload\n      swap2\n        /* \"#utility.yul\":2789:3015   */\n      swap1\n      pop\n      jump\t// out\n        /* \"#utility.yul\":4307:4751   */\n    tag_132:\n        /* \"#utility.yul\":4373:4379   */\n      0x00\n        /* \"#utility.yul\":4381:4387   */\n      dup1\n        /* \"#utility.yul\":4434:4436   */\n      0x40\n        /* \"#utility.yul\":4422:4431   */\n      dup4\n        /* \"#utility.yul\":4413:4420   */\n      dup6\n        /* \"#utility.yul\":4409:4432   */\n      sub\n        /* \"#utility.yul\":4405:4437   */\n      slt\n        /* \"#utility.yul\":4402:4454   */\n      iszero\n      tag_351\n      jumpi\n        /* \"#utility.yul\":4450:4451   */\n      0x00\n        /* \"#utility.yul\":4447:4448   */\n      dup1\n        /* \"#utility.yul\":4440:4452   */\n      revert\n        /* \"#utility.yul\":4402:4454   */\n    tag_351:\n        /* \"#utility.yul\":4489:4498   */\n      dup3\n        /* \"#utility.yul\":4476:4499   */\n      calldataload\n        /* \"#utility.yul\":4539:4549   */\n      0xffffffff\n        /* \"#utility.yul\":4532:4537   */\n      dup2\n        /* \"#utility.yul\":4528:4550   */\n      and\n        /* \"#utility.yul\":4521:4526   */\n      dup2\n        /* \"#utility.yul\":4518:4551   */\n      eq\n        /* \"#utility.yul\":4508:4569   */\n      tag_352\n      jumpi\n        /* \"#utility.yul\":4565:4566   */\n      0x00\n        /* \"#utility.yul\":4562:4563   */\n      dup1\n        /* \"#utility.yul\":4555:4567   */\n      revert\n        /* \"#utility.yul\":4508:4569   */\n    tag_352:\n        /* \"#utility.yul\":4588:4593   */\n      swap2\n      pop\n        /* \"#utility.yul\":4645:4647   */\n      0x20\n        /* \"#utility.yul\":4630:4648   */\n      dup4\n      add\n        /* \"#utility.yul\":4617:4649   */\n      calldataload\n        /* \"#utility.yul\":4693:4699   */\n      0xffff\n        /* \"#utility.yul\":4680:4700   */\n      dup2\n      and\n        /* \"#utility.yul\":4668:4701   */\n      dup2\n      eq\n        /* \"#utility.yul\":4658:4719   */\n      tag_353\n      jumpi\n        /* \"#utility.yul\":4715:4716   */\n      0x00\n        /* \"#utility.yul\":4712:4713   */\n      dup1\n        /* \"#utility.yul\":4705:4717   */\n      revert\n        /* \"#utility.yul\":4658:4719   */\n    tag_353:\n        /* \"#utility.yul\":4738:4745   */\n      dup1\n        /* \"#utility.yul\":4728:4745   */\n      swap2\n      pop\n      pop\n        /* \"#utility.yul\":4307:4751   */\n      swap3\n      pop\n      swap3\n      swap1\n      pop\n      jump\t// out\n        /* \"#utility.yul\":5416:5543   */\n    tag_319:\n        /* \"#utility.yul\":5477:5487   */\n      0x4e487b71\n        /* \"#utility.yul\":5472:5475   */\n      0xe0\n        /* \"#utility.yul\":5468:5488   */\n      shl\n        /* \"#utility.yul\":5465:5466   */\n      0x00\n        /* \"#utility.yul\":5458:5489   */\n      mstore\n        /* \"#utility.yul\":5508:5512   */\n      0x11\n        /* \"#utility.yul\":5505:5506   */\n      0x04\n        /* \"#utility.yul\":5498:5513   */\n      mstore\n        /* \"#utility.yul\":5532:5536   */\n      0x24\n        /* \"#utility.yul\":5529:5530   */\n      0x00\n        /* \"#utility.yul\":5522:5537   */\n      revert\n        /* \"#utility.yul\":5548:5676   */\n    tag_163:\n        /* \"#utility.yul\":5615:5624   */\n      dup2\n      dup2\n      sub\n        /* \"#utility.yul\":5636:5647   */\n      dup2\n      dup2\n      gt\n        /* \"#utility.yul\":5633:5670   */\n      iszero\n      tag_176\n      jumpi\n        /* \"#utility.yul\":5650:5668   */\n      tag_176\n      tag_319\n      jump\t// in\n        /* \"#utility.yul\":5960:6237   */\n    tag_170:\n        /* \"#utility.yul\":6027:6033   */\n      0x00\n        /* \"#utility.yul\":6080:6082   */\n      0x20\n        /* \"#utility.yul\":6068:6077   */\n      dup3\n        /* \"#utility.yul\":6059:6066   */\n      dup5\n        /* \"#utility.yul\":6055:6078   */\n      sub\n        /* \"#utility.yul\":6051:6083   */\n      slt\n        /* \"#utility.yul\":6048:6100   */\n      iszero\n      tag_362\n      jumpi\n        /* \"#utility.yul\":6096:6097   */\n      0x00\n        /* \"#utility.yul\":6093:6094   */\n      dup1\n        /* \"#utility.yul\":6086:6098   */\n      revert\n        /* \"#utility.yul\":6048:6100   */\n    tag_362:\n        /* \"#utility.yul\":6128:6137   */\n      dup2\n        /* \"#utility.yul\":6122:6138   */\n      mload\n        /* \"#utility.yul\":6181:6186   */\n      dup1\n        /* \"#utility.yul\":6174:6187   */\n      iszero\n        /* \"#utility.yul\":6167:6188   */\n      iszero\n        /* \"#utility.yul\":6160:6165   */\n      dup2\n        /* \"#utility.yul\":6157:6189   */\n      eq\n        /* \"#utility.yul\":6147:6207   */\n      tag_294\n      jumpi\n        /* \"#utility.yul\":6203:6204   */\n      0x00\n        /* \"#utility.yul\":6200:6201   */\n      dup1\n        /* \"#utility.yul\":6193:6205   */\n      revert\n        /* \"#utility.yul\":6242:6581   */\n    tag_173:\n        /* \"#utility.yul\":6444:6446   */\n      0x20\n        /* \"#utility.yul\":6426:6447   */\n      dup1\n      dup3\n      mstore\n        /* \"#utility.yul\":6483:6485   */\n      0x0f\n        /* \"#utility.yul\":6463:6481   */\n      swap1\n      dup3\n      add\n        /* \"#utility.yul\":6456:6486   */\n      mstore\n      shl(0x8a, 0x151c985b9cd9995c8819985a5b1959)\n        /* \"#utility.yul\":6517:6519   */\n      0x40\n        /* \"#utility.yul\":6502:6520   */\n      dup3\n      add\n        /* \"#utility.yul\":6495:6540   */\n      mstore\n        /* \"#utility.yul\":6572:6574   */\n      0x60\n        /* \"#utility.yul\":6557:6575   */\n      add\n      swap1\n        /* \"#utility.yul\":6242:6581   */\n      jump\t// out\n        /* \"#utility.yul\":6586:6711   */\n    tag_177:\n        /* \"#utility.yul\":6651:6660   */\n      dup1\n      dup3\n      add\n        /* \"#utility.yul\":6672:6682   */\n      dup1\n      dup3\n      gt\n        /* \"#utility.yul\":6669:6705   */\n      iszero\n      tag_176\n      jumpi\n        /* \"#utility.yul\":6685:6703   */\n      tag_176\n      tag_319\n      jump\t// in\n        /* \"#utility.yul\":8393:8520   */\n    tag_254:\n        /* \"#utility.yul\":8454:8464   */\n      0x4e487b71\n        /* \"#utility.yul\":8449:8452   */\n      0xe0\n        /* \"#utility.yul\":8445:8465   */\n      shl\n        /* \"#utility.yul\":8442:8443   */\n      0x00\n        /* \"#utility.yul\":8435:8466   */\n      mstore\n        /* \"#utility.yul\":8485:8489   */\n      0x32\n        /* \"#utility.yul\":8482:8483   */\n      0x04\n        /* \"#utility.yul\":8475:8490   */\n      mstore\n        /* \"#utility.yul\":8509:8513   */\n      0x24\n        /* \"#utility.yul\":8506:8507   */\n      0x00\n        /* \"#utility.yul\":8499:8514   */\n      revert\n        /* \"#utility.yul\":8525:8652   */\n    tag_320:\n        /* \"#utility.yul\":8586:8596   */\n      0x4e487b71\n        /* \"#utility.yul\":8581:8584   */\n      0xe0\n        /* \"#utility.yul\":8577:8597   */\n      shl\n        /* \"#utility.yul\":8574:8575   */\n      0x00\n        /* \"#utility.yul\":8567:8598   */\n      mstore\n        /* \"#utility.yul\":8617:8621   */\n      0x12\n        /* \"#utility.yul\":8614:8615   */\n      0x04\n        /* \"#utility.yul\":8607:8622   */\n      mstore\n        /* \"#utility.yul\":8641:8645   */\n      0x24\n        /* \"#utility.yul\":8638:8639   */\n      0x00\n        /* \"#utility.yul\":8631:8646   */\n      revert\n        /* \"#utility.yul\":8657:8769   */\n    tag_256:\n        /* \"#utility.yul\":8689:8690   */\n      0x00\n        /* \"#utility.yul\":8715:8716   */\n      dup3\n        /* \"#utility.yul\":8705:8740   */\n      tag_377\n      jumpi\n        /* \"#utility.yul\":8720:8738   */\n      tag_377\n      tag_320\n      jump\t// in\n    tag_377:\n      pop\n        /* \"#utility.yul\":8754:8763   */\n      mod\n      swap1\n        /* \"#utility.yul\":8657:8769   */\n      jump\t// out\n        /* \"#utility.yul\":8774:8942   */\n    tag_264:\n        /* \"#utility.yul\":8847:8856   */\n      dup1\n      dup3\n      mul\n        /* \"#utility.yul\":8878:8887   */\n      dup2\n      iszero\n        /* \"#utility.yul\":8895:8910   */\n      dup3\n      dup3\n      div\n        /* \"#utility.yul\":8889:8911   */\n      dup5\n      eq\n        /* \"#utility.yul\":8875:8912   */\n      or\n        /* \"#utility.yul\":8865:8936   */\n      tag_176\n      jumpi\n        /* \"#utility.yul\":8916:8934   */\n      tag_176\n      tag_319\n      jump\t// in\n        /* \"#utility.yul\":8947:9067   */\n    tag_266:\n        /* \"#utility.yul\":8987:8988   */\n      0x00\n        /* \"#utility.yul\":9013:9014   */\n      dup3\n        /* \"#utility.yul\":9003:9038   */\n      tag_383\n      jumpi\n        /* \"#utility.yul\":9018:9036   */\n      tag_383\n      tag_320\n      jump\t// in\n    tag_383:\n      pop\n        /* \"#utility.yul\":9052:9061   */\n      div\n      swap1\n        /* \"#utility.yul\":8947:9067   */\n      jump\t// out\n        /* \"#utility.yul\":9604:9788   */\n    tag_292:\n        /* \"#utility.yul\":9674:9680   */\n      0x00\n        /* \"#utility.yul\":9727:9729   */\n      0x20\n        /* \"#utility.yul\":9715:9724   */\n      dup3\n        /* \"#utility.yul\":9706:9713   */\n      dup5\n        /* \"#utility.yul\":9702:9725   */\n      sub\n        /* \"#utility.yul\":9698:9730   */\n      slt\n        /* \"#utility.yul\":9695:9747   */\n      iszero\n      tag_386\n      jumpi\n        /* \"#utility.yul\":9743:9744   */\n      0x00\n        /* \"#utility.yul\":9740:9741   */\n      dup1\n        /* \"#utility.yul\":9733:9745   */\n      revert\n        /* \"#utility.yul\":9695:9747   */\n    tag_386:\n      pop\n        /* \"#utility.yul\":9766:9782   */\n      mload\n      swap2\n        /* \"#utility.yul\":9604:9788   */\n      swap1\n      pop\n      jump\t// out\n\n    auxdata: 0xa26469706673582212208cf170318d413ce7f08fb2d1cca545f8d8b408a9fe4941209ae2c1efccd5494764736f6c634300081c0033\n}\n",
				"bytecode": {
					"linkReferences": {},
					"object": "610140604052600480546001600160501b03191666010003000186a017905534801561002a57600080fd5b506040516118823803806118828339810160408190526100499161022b565b83816001600160a01b03811661007a57604051631e4fbdf760e01b8152600060048201526024015b60405180910390fd5b610083816101bf565b506001600160a01b0390811660805286166100e05760405162461bcd60e51b815260206004820152601560248201527f496e76616c696420746f6b656e206164647265737300000000000000000000006044820152606401610071565b6001600160a01b0385166101365760405162461bcd60e51b815260206004820152601660248201527f496e76616c6964206f7261636c652061646472657373000000000000000000006044820152606401610071565b6001600160a01b03841661018c5760405162461bcd60e51b815260206004820152601f60248201527f496e76616c69642056524620636f6f7264696e61746f722061646472657373006044820152606401610071565b506001600160a01b0394851660a05292841660c052921660e052610100919091526001600160401b0316610120526102a7565b600080546001600160a01b038381166001600160a01b0319831681178455604051919092169283917f8be0079c531659141344cd1fd0a4f28419497f9722a3daafe3b4186f6b6457e09190a35050565b80516001600160a01b038116811461022657600080fd5b919050565b60008060008060008060c0878903121561024457600080fd5b61024d8761020f565b955061025b6020880161020f565b94506102696040880161020f565b6060880151608089015191955093506001600160401b038116811461028d57600080fd5b915061029b60a0880161020f565b90509295509295509295565b60805160a05160c05160e051610100516101205161154661033c6000396000818161020b0152610fdc0152600081816103890152610fab01526000818161031801526110350152600081816103d201526111e70152600081816104140152818161063f015281816107f60152818161096201528181610ac90152610b700152600081816104fc015261053e01526115466000f3fe608060405234801561001057600080fd5b50600436106101e55760003560e01c806389ac41471161010f578063b8ed3aad116100a2578063cb8b97f511610071578063cb8b97f5146104b9578063d82e3962146104c2578063ec18154e146104d5578063f2fde38b146104de57600080fd5b8063b8ed3aad14610482578063b94790a41461048a578063bae4e5301461049d578063c75a0715146104b057600080fd5b8063a694fc3a116100de578063a694fc3a14610436578063b0fb162f14610449578063b26025aa14610472578063b88a802f1461047a57600080fd5b806389ac4147146103f45780638da5cb5b146103fe57806393565b4c1461040f5780639da378ab1461037b57600080fd5b80633a02a42d1161018757806361728f391161015657806361728f3914610384578063715018a6146103ab5780637ccfd7fc146103b35780637dc0d1d0146103cd57600080fd5b80633a02a42d146103005780633b2bcbf1146103135780633e2f7eb5146103525780634ca19fd61461037b57600080fd5b80631fe543e3116101c35780631fe543e3146102aa57806324f74697146102bf57806327779748146102e45780632e1a7d4d146102ed57600080fd5b806307b2d32f146101ea57806309c1ba2e1461020657806316934fc414610246575b600080fd5b6101f361032081565b6040519081526020015b60405180910390f35b61022d7f000000000000000000000000000000000000000000000000000000000000000081565b60405167ffffffffffffffff90911681526020016101fd565b61028261025436600461128b565b6001602081905260009182526040909120805491810154600282015460038301546004909301549192909185565b604080519586526020860194909452928401919091526060830152608082015260a0016101fd565b6102bd6102b83660046112ca565b6104f1565b005b6004546102cf9063ffffffff1681565b60405163ffffffff90911681526020016101fd565b6101f36104b081565b6102bd6102fb3660046113a3565b61057e565b6101f361030e36600461128b565b610709565b61033a7f000000000000000000000000000000000000000000000000000000000000000081565b6040516001600160a01b0390911681526020016101fd565b61033a6103603660046113a3565b6003602052600090815260409020546001600160a01b031681565b6101f36103e881565b6101f37f000000000000000000000000000000000000000000000000000000000000000081565b6102bd610739565b6004546102cf906601000000000000900463ffffffff1681565b61033a7f000000000000000000000000000000000000000000000000000000000000000081565b6101f362278d0081565b6000546001600160a01b031661033a565b61033a7f000000000000000000000000000000000000000000000000000000000000000081565b6102bd6104443660046113a3565b61074d565b60045461045f90640100000000900461ffff1681565b60405161ffff90911681526020016101fd565b6002546101f3565b6102bd6108c8565b6101f360c881565b6102bd6104983660046113a3565b610a1d565b6102bd6104ab3660046113bc565b610c15565b6101f361064081565b6101f361057881565b6101f36104d036600461128b565b610c4a565b6101f360025481565b6102bd6104ec36600461128b565b610cb4565b336001600160a01b037f000000000000000000000000000000000000000000000000000000000000000016146105705760405163073e64fd60e21b81523360048201526001600160a01b037f00000000000000000000000000000000000000000000000000000000000000001660248201526044015b60405180910390fd5b61057a8282610cc8565b5050565b61058733610e5f565b336000908152600160205260409020548111156105e65760405162461bcd60e51b815260206004820152601a60248201527f496e73756666696369656e74207374616b656420616d6f756e740000000000006044820152606401610567565b336000908152600160205260408120805483929061060590849061141b565b92505081905550806002600082825461061e919061141b565b909155505060405163a9059cbb60e01b8152336004820152602481018290527f00000000000000000000000000000000000000000000000000000000000000006001600160a01b03169063a9059cbb906044016020604051808303816000875af1158015610690573d6000803e3d6000fd5b505050506040513d601f19601f820116820180604052508101906106b4919061142e565b6106d05760405162461bcd60e51b815260040161056790611450565b60405181815233907f7084f5476618d8e60b11ef0d7d3f06914655adb8793e28ff7f018d4c76d505d5906020015b60405180910390a250565b6001600160a01b038116600090815260016020819052604082209081015490546107339190611479565b92915050565b610741610eeb565b61074b6000610f18565b565b6000811161078e5760405162461bcd60e51b815260206004820152600e60248201526d125b9d985b1a5908185b5bdd5b9d60921b6044820152606401610567565b61079733610e5f565b33600090815260016020526040812080548392906107b6908490611479565b9250508190555080600260008282546107cf9190611479565b90915550506040516323b872dd60e01b8152336004820152306024820152604481018290527f00000000000000000000000000000000000000000000000000000000000000006001600160a01b0316906323b872dd906064016020604051808303816000875af1158015610847573d6000803e3d6000fd5b505050506040513d601f19601f8201168201806040525081019061086b919061142e565b6108875760405162461bcd60e51b815260040161056790611450565b61089033610f68565b604080518281526000602082015233917f37d4053e34fde482e96f6bcd424dfa31342cbd5fe184d497fb3c8bb4b4b9758091016106fe565b6108d133610e5f565b33600090815260016020526040902060030154806109275760405162461bcd60e51b81526020600482015260136024820152724e6f207265776172647320746f20636c61696d60681b6044820152606401610567565b33600081815260016020526040808220600301919091555163a9059cbb60e01b81526004810191909152602481018290526001600160a01b037f0000000000000000000000000000000000000000000000000000000000000000169063a9059cbb906044016020604051808303816000875af11580156109ab573d6000803e3d6000fd5b505050506040513d601f19601f820116820180604052508101906109cf919061142e565b6109eb5760405162461bcd60e51b815260040161056790611450565b60405181815233907f106f923f993c2149d49b4255ff723acafa1f2d94393f561d3eda32ae348f7241906020016106fe565b60008111610a5e5760405162461bcd60e51b815260206004820152600e60248201526d125b9d985b1a5908185b5bdd5b9d60921b6044820152606401610567565b610a6733610e5f565b3360009081526001602081905260408220018054839290610a89908490611479565b925050819055508060026000828254610aa29190611479565b90915550506040516323b872dd60e01b8152336004820152306024820152604481018290527f00000000000000000000000000000000000000000000000000000000000000006001600160a01b0316906323b872dd906064016020604051808303816000875af1158015610b1a573d6000803e3d6000fd5b505050506040513d601f19601f82011682018060405250810190610b3e919061142e565b610b5a5760405162461bcd60e51b815260040161056790611450565b60405163255da8dd60e21b8152600481018290527f00000000000000000000000000000000000000000000000000000000000000006001600160a01b031690639576a37490602401600060405180830381600087803b158015610bbc57600080fd5b505af1158015610bd0573d6000803e3d6000fd5b50505050610bdd33610f68565b604080518281526001602082015233917f37d4053e34fde482e96f6bcd424dfa31342cbd5fe184d497fb3c8bb4b4b9758091016106fe565b610c1d610eeb565b6004805461ffff9092166401000000000265ffffffffffff1990921663ffffffff90931692909217179055565b6001600160a01b0381166000908152600160205260408120805460048201548391610c7791869190611111565b90506000610c8e8584600101548560040154611111565b905080828460030154610ca19190611479565b610cab9190611479565b95945050505050565b610cbc610eeb565b610cc5816111a7565b50565b6000828152600360205260409020546001600160a01b031680610d225760405162461bcd60e51b8152602060048201526012602482015271125b9d985b1a59081c995c5d595cdd08125160721b6044820152606401610567565b6000606483600081518110610d3957610d3961148c565b6020026020010151610d4b91906114b8565b6001600160a01b03831660009081526001602081905260408220015491925090610d8257610d7d61032061057861141b565b610d90565b610d906103e861064061141b565b6001600160a01b03841660009081526001602081905260408220015491925090610dbc57610320610dc0565b6103e85b6064610dcc84866114cc565b610dd691906114e3565b610de09190611479565b6001600160a01b038516600081815260016020908152604080832060048101869055426002909101558a8352600382529182902080546001600160a01b0319169055905183815292935090917f95046b7fdb9bcf09cdb8b5e270934d955f51f771912290ff9a0020045195eee5910160405180910390a2505050505050565b6001600160a01b03811660009081526001602052604090208054151580610e8a575060008160010154115b1561057a576000610ea48383600001548460040154611111565b90506000610ebb8484600101548560040154611111565b9050610ec78183611479565b836003016000828254610eda9190611479565b909155505042600284015550505050565b6000546001600160a01b0316331461074b5760405163118cdaa760e01b8152336004820152602401610567565b600080546001600160a01b038381166001600160a01b0319831681178455604051919092169283917f8be0079c531659141344cd1fd0a4f28419497f9722a3daafe3b4186f6b6457e09190a35050565b6001600160a01b038116600090815260016020526040902060020154610f929062278d0090611479565b4210610cc557600480546040516305d3b1d360e41b81527f00000000000000000000000000000000000000000000000000000000000000009281019290925267ffffffffffffffff7f0000000000000000000000000000000000000000000000000000000000000000166024830152640100000000810461ffff16604483015263ffffffff808216606484015266010000000000009091041660848201526000907f00000000000000000000000000000000000000000000000000000000000000006001600160a01b031690635d3b1d309060a4016020604051808303816000875af1158015611086573d6000803e3d6000fd5b505050506040513d601f19601f820116820180604052508101906110aa91906114f7565b60008181526003602090815260409182902080546001600160a01b0319166001600160a01b038716908117909155915183815292935090917f05acec44d329e4dfea8e1a6dae4b0c46d76b2a92d3a747907a60dee7ad6809fd910160405180910390a25050565b600082600003611123575060006111a0565b600061112d6111e2565b9050600061113b8285611479565b6001600160a01b0387166000908152600160205260408120600281015492935091611166904261141b565b90506127106301e133808261117b868b6114cc565b61118591906114cc565b61118f91906114e3565b61119991906114e3565b9450505050505b9392505050565b6111af610eeb565b6001600160a01b0381166111d957604051631e4fbdf760e01b815260006004820152602401610567565b610cc581610f18565b6000807f00000000000000000000000000000000000000000000000000000000000000006001600160a01b0316638e15f4736040518163ffffffff1660e01b8152600401602060405180830381865afa158015611243573d6000803e3d6000fd5b505050506040513d601f19601f8201168201806040525081019061126791906114f7565b90506000811361127957600091505090565b611285600260c86114e3565b91505090565b60006020828403121561129d57600080fd5b81356001600160a01b03811681146111a057600080fd5b634e487b7160e01b600052604160045260246000fd5b600080604083850312156112dd57600080fd5b82359150602083013567ffffffffffffffff8111156112fb57600080fd5b8301601f8101851361130c57600080fd5b803567ffffffffffffffff811115611326576113266112b4565b8060051b604051601f19603f830116810181811067ffffffffffffffff82111715611353576113536112b4565b60405291825260208184018101929081018884111561137157600080fd5b6020850194505b8385101561139457843580825260209586019590935001611378565b50809450505050509250929050565b6000602082840312156113b557600080fd5b5035919050565b600080604083850312156113cf57600080fd5b823563ffffffff811681146113e357600080fd5b9150602083013561ffff811681146113fa57600080fd5b809150509250929050565b634e487b7160e01b600052601160045260246000fd5b8181038181111561073357610733611405565b60006020828403121561144057600080fd5b815180151581146111a057600080fd5b6020808252600f908201526e151c985b9cd9995c8819985a5b1959608a1b604082015260600190565b8082018082111561073357610733611405565b634e487b7160e01b600052603260045260246000fd5b634e487b7160e01b600052601260045260246000fd5b6000826114c7576114c76114a2565b500690565b808202811582820484141761073357610733611405565b6000826114f2576114f26114a2565b500490565b60006020828403121561150957600080fd5b505191905056fea26469706673582212208cf170318d413ce7f08fb2d1cca545f8d8b408a9fe4941209ae2c1efccd5494764736f6c634300081c0033",
					"opcodes": "PUSH2 0x140 PUSH1 0x40 MSTORE PUSH1 0x4 DUP1 SLOAD PUSH1 0x1 PUSH1 0x1 PUSH1 0x50 SHL SUB NOT AND PUSH7 0x10003000186A0 OR SWAP1 SSTORE CALLVALUE DUP1 ISZERO PUSH2 0x2A JUMPI PUSH1 0x0 DUP1 REVERT JUMPDEST POP PUSH1 0x40 MLOAD PUSH2 0x1882 CODESIZE SUB DUP1 PUSH2 0x1882 DUP4 CODECOPY DUP2 ADD PUSH1 0x40 DUP2 SWAP1 MSTORE PUSH2 0x49 SWAP2 PUSH2 0x22B JUMP JUMPDEST DUP4 DUP2 PUSH1 0x1 PUSH1 0x1 PUSH1 0xA0 SHL SUB DUP2 AND PUSH2 0x7A JUMPI PUSH1 0x40 MLOAD PUSH4 0x1E4FBDF7 PUSH1 0xE0 SHL DUP2 MSTORE PUSH1 0x0 PUSH1 0x4 DUP3 ADD MSTORE PUSH1 0x24 ADD JUMPDEST PUSH1 0x40 MLOAD DUP1 SWAP2 SUB SWAP1 REVERT JUMPDEST PUSH2 0x83 DUP2 PUSH2 0x1BF JUMP JUMPDEST POP PUSH1 0x1 PUSH1 0x1 PUSH1 0xA0 SHL SUB SWAP1 DUP2 AND PUSH1 0x80 MSTORE DUP7 AND PUSH2 0xE0 JUMPI PUSH1 0x40 MLOAD PUSH3 0x461BCD PUSH1 0xE5 SHL DUP2 MSTORE PUSH1 0x20 PUSH1 0x4 DUP3 ADD MSTORE PUSH1 0x15 PUSH1 0x24 DUP3 ADD MSTORE PUSH32 0x496E76616C696420746F6B656E20616464726573730000000000000000000000 PUSH1 0x44 DUP3 ADD MSTORE PUSH1 0x64 ADD PUSH2 0x71 JUMP JUMPDEST PUSH1 0x1 PUSH1 0x1 PUSH1 0xA0 SHL SUB DUP6 AND PUSH2 0x136 JUMPI PUSH1 0x40 MLOAD PUSH3 0x461BCD PUSH1 0xE5 SHL DUP2 MSTORE PUSH1 0x20 PUSH1 0x4 DUP3 ADD MSTORE PUSH1 0x16 PUSH1 0x24 DUP3 ADD MSTORE PUSH32 0x496E76616C6964206F7261636C65206164647265737300000000000000000000 PUSH1 0x44 DUP3 ADD MSTORE PUSH1 0x64 ADD PUSH2 0x71 JUMP JUMPDEST PUSH1 0x1 PUSH1 0x1 PUSH1 0xA0 SHL SUB DUP5 AND PUSH2 0x18C JUMPI PUSH1 0x40 MLOAD PUSH3 0x461BCD PUSH1 0xE5 SHL DUP2 MSTORE PUSH1 0x20 PUSH1 0x4 DUP3 ADD MSTORE PUSH1 0x1F PUSH1 0x24 DUP3 ADD MSTORE PUSH32 0x496E76616C69642056524620636F6F7264696E61746F72206164647265737300 PUSH1 0x44 DUP3 ADD MSTORE PUSH1 0x64 ADD PUSH2 0x71 JUMP JUMPDEST POP PUSH1 0x1 PUSH1 0x1 PUSH1 0xA0 SHL SUB SWAP5 DUP6 AND PUSH1 0xA0 MSTORE SWAP3 DUP5 AND PUSH1 0xC0 MSTORE SWAP3 AND PUSH1 0xE0 MSTORE PUSH2 0x100 SWAP2 SWAP1 SWAP2 MSTORE PUSH1 0x1 PUSH1 0x1 PUSH1 0x40 SHL SUB AND PUSH2 0x120 MSTORE PUSH2 0x2A7 JUMP JUMPDEST PUSH1 0x0 DUP1 SLOAD PUSH1 0x1 PUSH1 0x1 PUSH1 0xA0 SHL SUB DUP4 DUP2 AND PUSH1 0x1 PUSH1 0x1 PUSH1 0xA0 SHL SUB NOT DUP4 AND DUP2 OR DUP5 SSTORE PUSH1 0x40 MLOAD SWAP2 SWAP1 SWAP3 AND SWAP3 DUP4 SWAP2 PUSH32 0x8BE0079C531659141344CD1FD0A4F28419497F9722A3DAAFE3B4186F6B6457E0 SWAP2 SWAP1 LOG3 POP POP JUMP JUMPDEST DUP1 MLOAD PUSH1 0x1 PUSH1 0x1 PUSH1 0xA0 SHL SUB DUP2 AND DUP2 EQ PUSH2 0x226 JUMPI PUSH1 0x0 DUP1 REVERT JUMPDEST SWAP2 SWAP1 POP JUMP JUMPDEST PUSH1 0x0 DUP1 PUSH1 0x0 DUP1 PUSH1 0x0 DUP1 PUSH1 0xC0 DUP8 DUP10 SUB SLT ISZERO PUSH2 0x244 JUMPI PUSH1 0x0 DUP1 REVERT JUMPDEST PUSH2 0x24D DUP8 PUSH2 0x20F JUMP JUMPDEST SWAP6 POP PUSH2 0x25B PUSH1 0x20 DUP9 ADD PUSH2 0x20F JUMP JUMPDEST SWAP5 POP PUSH2 0x269 PUSH1 0x40 DUP9 ADD PUSH2 0x20F JUMP JUMPDEST PUSH1 0x60 DUP9 ADD MLOAD PUSH1 0x80 DUP10 ADD MLOAD SWAP2 SWAP6 POP SWAP4 POP PUSH1 0x1 PUSH1 0x1 PUSH1 0x40 SHL SUB DUP2 AND DUP2 EQ PUSH2 0x28D JUMPI PUSH1 0x0 DUP1 REVERT JUMPDEST SWAP2 POP PUSH2 0x29B PUSH1 0xA0 DUP9 ADD PUSH2 0x20F JUMP JUMPDEST SWAP1 POP SWAP3 SWAP6 POP SWAP3 SWAP6 POP SWAP3 SWAP6 JUMP JUMPDEST PUSH1 0x80 MLOAD PUSH1 0xA0 MLOAD PUSH1 0xC0 MLOAD PUSH1 0xE0 MLOAD PUSH2 0x100 MLOAD PUSH2 0x120 MLOAD PUSH2 0x1546 PUSH2 0x33C PUSH1 0x0 CODECOPY PUSH1 0x0 DUP2 DUP2 PUSH2 0x20B ADD MSTORE PUSH2 0xFDC ADD MSTORE PUSH1 0x0 DUP2 DUP2 PUSH2 0x389 ADD MSTORE PUSH2 0xFAB ADD MSTORE PUSH1 0x0 DUP2 DUP2 PUSH2 0x318 ADD MSTORE PUSH2 0x1035 ADD MSTORE PUSH1 0x0 DUP2 DUP2 PUSH2 0x3D2 ADD MSTORE PUSH2 0x11E7 ADD MSTORE PUSH1 0x0 DUP2 DUP2 PUSH2 0x414 ADD MSTORE DUP2 DUP2 PUSH2 0x63F ADD MSTORE DUP2 DUP2 PUSH2 0x7F6 ADD MSTORE DUP2 DUP2 PUSH2 0x962 ADD MSTORE DUP2 DUP2 PUSH2 0xAC9 ADD MSTORE PUSH2 0xB70 ADD MSTORE PUSH1 0x0 DUP2 DUP2 PUSH2 0x4FC ADD MSTORE PUSH2 0x53E ADD MSTORE PUSH2 0x1546 PUSH1 0x0 RETURN INVALID PUSH1 0x80 PUSH1 0x40 MSTORE CALLVALUE DUP1 ISZERO PUSH2 0x10 JUMPI PUSH1 0x0 DUP1 REVERT JUMPDEST POP PUSH1 0x4 CALLDATASIZE LT PUSH2 0x1E5 JUMPI PUSH1 0x0 CALLDATALOAD PUSH1 0xE0 SHR DUP1 PUSH4 0x89AC4147 GT PUSH2 0x10F JUMPI DUP1 PUSH4 0xB8ED3AAD GT PUSH2 0xA2 JUMPI DUP1 PUSH4 0xCB8B97F5 GT PUSH2 0x71 JUMPI DUP1 PUSH4 0xCB8B97F5 EQ PUSH2 0x4B9 JUMPI DUP1 PUSH4 0xD82E3962 EQ PUSH2 0x4C2 JUMPI DUP1 PUSH4 0xEC18154E EQ PUSH2 0x4D5 JUMPI DUP1 PUSH4 0xF2FDE38B EQ PUSH2 0x4DE JUMPI PUSH1 0x0 DUP1 REVERT JUMPDEST DUP1 PUSH4 0xB8ED3AAD EQ PUSH2 0x482 JUMPI DUP1 PUSH4 0xB94790A4 EQ PUSH2 0x48A JUMPI DUP1 PUSH4 0xBAE4E530 EQ PUSH2 0x49D JUMPI DUP1 PUSH4 0xC75A0715 EQ PUSH2 0x4B0 JUMPI PUSH1 0x0 DUP1 REVERT JUMPDEST DUP1 PUSH4 0xA694FC3A GT PUSH2 0xDE JUMPI DUP1 PUSH4 0xA694FC3A EQ PUSH2 0x436 JUMPI DUP1 PUSH4 0xB0FB162F EQ PUSH2 0x449 JUMPI DUP1 PUSH4 0xB26025AA EQ PUSH2 0x472 JUMPI DUP1 PUSH4 0xB88A802F EQ PUSH2 0x47A JUMPI PUSH1 0x0 DUP1 REVERT JUMPDEST DUP1 PUSH4 0x89AC4147 EQ PUSH2 0x3F4 JUMPI DUP1 PUSH4 0x8DA5CB5B EQ PUSH2 0x3FE JUMPI DUP1 PUSH4 0x93565B4C EQ PUSH2 0x40F JUMPI DUP1 PUSH4 0x9DA378AB EQ PUSH2 0x37B JUMPI PUSH1 0x0 DUP1 REVERT JUMPDEST DUP1 PUSH4 0x3A02A42D GT PUSH2 0x187 JUMPI DUP1 PUSH4 0x61728F39 GT PUSH2 0x156 JUMPI DUP1 PUSH4 0x61728F39 EQ PUSH2 0x384 JUMPI DUP1 PUSH4 0x715018A6 EQ PUSH2 0x3AB JUMPI DUP1 PUSH4 0x7CCFD7FC EQ PUSH2 0x3B3 JUMPI DUP1 PUSH4 0x7DC0D1D0 EQ PUSH2 0x3CD JUMPI PUSH1 0x0 DUP1 REVERT JUMPDEST DUP1 PUSH4 0x3A02A42D EQ PUSH2 0x300 JUMPI DUP1 PUSH4 0x3B2BCBF1 EQ PUSH2 0x313 JUMPI DUP1 PUSH4 0x3E2F7EB5 EQ PUSH2 0x352 JUMPI DUP1 PUSH4 0x4CA19FD6 EQ PUSH2 0x37B JUMPI PUSH1 0x0 DUP1 REVERT JUMPDEST DUP1 PUSH4 0x1FE543E3 GT PUSH2 0x1C3 JUMPI DUP1 PUSH4 0x1FE543E3 EQ PUSH2 0x2AA JUMPI DUP1 PUSH4 0x24F74697 EQ PUSH2 0x2BF JUMPI DUP1 PUSH4 0x27779748 EQ PUSH2 0x2E4 JUMPI DUP1 PUSH4 0x2E1A7D4D EQ PUSH2 0x2ED JUMPI PUSH1 0x0 DUP1 REVERT JUMPDEST DUP1 PUSH4 0x7B2D32F EQ PUSH2 0x1EA JUMPI DUP1 PUSH4 0x9C1BA2E EQ PUSH2 0x206 JUMPI DUP1 PUSH4 0x16934FC4 EQ PUSH2 0x246 JUMPI JUMPDEST PUSH1 0x0 DUP1 REVERT JUMPDEST PUSH2 0x1F3 PUSH2 0x320 DUP2 JUMP JUMPDEST PUSH1 0x40 MLOAD SWAP1 DUP2 MSTORE PUSH1 0x20 ADD JUMPDEST PUSH1 0x40 MLOAD DUP1 SWAP2 SUB SWAP1 RETURN JUMPDEST PUSH2 0x22D PUSH32 0x0 DUP2 JUMP JUMPDEST PUSH1 0x40 MLOAD PUSH8 0xFFFFFFFFFFFFFFFF SWAP1 SWAP2 AND DUP2 MSTORE PUSH1 0x20 ADD PUSH2 0x1FD JUMP JUMPDEST PUSH2 0x282 PUSH2 0x254 CALLDATASIZE PUSH1 0x4 PUSH2 0x128B JUMP JUMPDEST PUSH1 0x1 PUSH1 0x20 DUP2 SWAP1 MSTORE PUSH1 0x0 SWAP2 DUP3 MSTORE PUSH1 0x40 SWAP1 SWAP2 KECCAK256 DUP1 SLOAD SWAP2 DUP2 ADD SLOAD PUSH1 0x2 DUP3 ADD SLOAD PUSH1 0x3 DUP4 ADD SLOAD PUSH1 0x4 SWAP1 SWAP4 ADD SLOAD SWAP2 SWAP3 SWAP1 SWAP2 DUP6 JUMP JUMPDEST PUSH1 0x40 DUP1 MLOAD SWAP6 DUP7 MSTORE PUSH1 0x20 DUP7 ADD SWAP5 SWAP1 SWAP5 MSTORE SWAP3 DUP5 ADD SWAP2 SWAP1 SWAP2 MSTORE PUSH1 0x60 DUP4 ADD MSTORE PUSH1 0x80 DUP3 ADD MSTORE PUSH1 0xA0 ADD PUSH2 0x1FD JUMP JUMPDEST PUSH2 0x2BD PUSH2 0x2B8 CALLDATASIZE PUSH1 0x4 PUSH2 0x12CA JUMP JUMPDEST PUSH2 0x4F1 JUMP JUMPDEST STOP JUMPDEST PUSH1 0x4 SLOAD PUSH2 0x2CF SWAP1 PUSH4 0xFFFFFFFF AND DUP2 JUMP JUMPDEST PUSH1 0x40 MLOAD PUSH4 0xFFFFFFFF SWAP1 SWAP2 AND DUP2 MSTORE PUSH1 0x20 ADD PUSH2 0x1FD JUMP JUMPDEST PUSH2 0x1F3 PUSH2 0x4B0 DUP2 JUMP JUMPDEST PUSH2 0x2BD PUSH2 0x2FB CALLDATASIZE PUSH1 0x4 PUSH2 0x13A3 JUMP JUMPDEST PUSH2 0x57E JUMP JUMPDEST PUSH2 0x1F3 PUSH2 0x30E CALLDATASIZE PUSH1 0x4 PUSH2 0x128B JUMP JUMPDEST PUSH2 0x709 JUMP JUMPDEST PUSH2 0x33A PUSH32 0x0 DUP2 JUMP JUMPDEST PUSH1 0x40 MLOAD PUSH1 0x1 PUSH1 0x1 PUSH1 0xA0 SHL SUB SWAP1 SWAP2 AND DUP2 MSTORE PUSH1 0x20 ADD PUSH2 0x1FD JUMP JUMPDEST PUSH2 0x33A PUSH2 0x360 CALLDATASIZE PUSH1 0x4 PUSH2 0x13A3 JUMP JUMPDEST PUSH1 0x3 PUSH1 0x20 MSTORE PUSH1 0x0 SWAP1 DUP2 MSTORE PUSH1 0x40 SWAP1 KECCAK256 SLOAD PUSH1 0x1 PUSH1 0x1 PUSH1 0xA0 SHL SUB AND DUP2 JUMP JUMPDEST PUSH2 0x1F3 PUSH2 0x3E8 DUP2 JUMP JUMPDEST PUSH2 0x1F3 PUSH32 0x0 DUP2 JUMP JUMPDEST PUSH2 0x2BD PUSH2 0x739 JUMP JUMPDEST PUSH1 0x4 SLOAD PUSH2 0x2CF SWAP1 PUSH7 0x1000000000000 SWAP1 DIV PUSH4 0xFFFFFFFF AND DUP2 JUMP JUMPDEST PUSH2 0x33A PUSH32 0x0 DUP2 JUMP JUMPDEST PUSH2 0x1F3 PUSH3 0x278D00 DUP2 JUMP JUMPDEST PUSH1 0x0 SLOAD PUSH1 0x1 PUSH1 0x1 PUSH1 0xA0 SHL SUB AND PUSH2 0x33A JUMP JUMPDEST PUSH2 0x33A PUSH32 0x0 DUP2 JUMP JUMPDEST PUSH2 0x2BD PUSH2 0x444 CALLDATASIZE PUSH1 0x4 PUSH2 0x13A3 JUMP JUMPDEST PUSH2 0x74D JUMP JUMPDEST PUSH1 0x4 SLOAD PUSH2 0x45F SWAP1 PUSH5 0x100000000 SWAP1 DIV PUSH2 0xFFFF AND DUP2 JUMP JUMPDEST PUSH1 0x40 MLOAD PUSH2 0xFFFF SWAP1 SWAP2 AND DUP2 MSTORE PUSH1 0x20 ADD PUSH2 0x1FD JUMP JUMPDEST PUSH1 0x2 SLOAD PUSH2 0x1F3 JUMP JUMPDEST PUSH2 0x2BD PUSH2 0x8C8 JUMP JUMPDEST PUSH2 0x1F3 PUSH1 0xC8 DUP2 JUMP JUMPDEST PUSH2 0x2BD PUSH2 0x498 CALLDATASIZE PUSH1 0x4 PUSH2 0x13A3 JUMP JUMPDEST PUSH2 0xA1D JUMP JUMPDEST PUSH2 0x2BD PUSH2 0x4AB CALLDATASIZE PUSH1 0x4 PUSH2 0x13BC JUMP JUMPDEST PUSH2 0xC15 JUMP JUMPDEST PUSH2 0x1F3 PUSH2 0x640 DUP2 JUMP JUMPDEST PUSH2 0x1F3 PUSH2 0x578 DUP2 JUMP JUMPDEST PUSH2 0x1F3 PUSH2 0x4D0 CALLDATASIZE PUSH1 0x4 PUSH2 0x128B JUMP JUMPDEST PUSH2 0xC4A JUMP JUMPDEST PUSH2 0x1F3 PUSH1 0x2 SLOAD DUP2 JUMP JUMPDEST PUSH2 0x2BD PUSH2 0x4EC CALLDATASIZE PUSH1 0x4 PUSH2 0x128B JUMP JUMPDEST PUSH2 0xCB4 JUMP JUMPDEST CALLER PUSH1 0x1 PUSH1 0x1 PUSH1 0xA0 SHL SUB PUSH32 0x0 AND EQ PUSH2 0x570 JUMPI PUSH1 0x40 MLOAD PUSH4 0x73E64FD PUSH1 0xE2 SHL DUP2 MSTORE CALLER PUSH1 0x4 DUP3 ADD MSTORE PUSH1 0x1 PUSH1 0x1 PUSH1 0xA0 SHL SUB PUSH32 0x0 AND PUSH1 0x24 DUP3 ADD MSTORE PUSH1 0x44 ADD JUMPDEST PUSH1 0x40 MLOAD DUP1 SWAP2 SUB SWAP1 REVERT JUMPDEST PUSH2 0x57A DUP3 DUP3 PUSH2 0xCC8 JUMP JUMPDEST POP POP JUMP JUMPDEST PUSH2 0x587 CALLER PUSH2 0xE5F JUMP JUMPDEST CALLER PUSH1 0x0 SWAP1 DUP2 MSTORE PUSH1 0x1 PUSH1 0x20 MSTORE PUSH1 0x40 SWAP1 KECCAK256 SLOAD DUP2 GT ISZERO PUSH2 0x5E6 JUMPI PUSH1 0x40 MLOAD PUSH3 0x461BCD PUSH1 0xE5 SHL DUP2 MSTORE PUSH1 0x20 PUSH1 0x4 DUP3 ADD MSTORE PUSH1 0x1A PUSH1 0x24 DUP3 ADD MSTORE PUSH32 0x496E73756666696369656E74207374616B656420616D6F756E74000000000000 PUSH1 0x44 DUP3 ADD MSTORE PUSH1 0x64 ADD PUSH2 0x567 JUMP JUMPDEST CALLER PUSH1 0x0 SWAP1 DUP2 MSTORE PUSH1 0x1 PUSH1 0x20 MSTORE PUSH1 0x40 DUP2 KECCAK256 DUP1 SLOAD DUP4 SWAP3 SWAP1 PUSH2 0x605 SWAP1 DUP5 SWAP1 PUSH2 0x141B JUMP JUMPDEST SWAP3 POP POP DUP2 SWAP1 SSTORE POP DUP1 PUSH1 0x2 PUSH1 0x0 DUP3 DUP3 SLOAD PUSH2 0x61E SWAP2 SWAP1 PUSH2 0x141B JUMP JUMPDEST SWAP1 SWAP2 SSTORE POP POP PUSH1 0x40 MLOAD PUSH4 0xA9059CBB PUSH1 0xE0 SHL DUP2 MSTORE CALLER PUSH1 0x4 DUP3 ADD MSTORE PUSH1 0x24 DUP2 ADD DUP3 SWAP1 MSTORE PUSH32 0x0 PUSH1 0x1 PUSH1 0x1 PUSH1 0xA0 SHL SUB AND SWAP1 PUSH4 0xA9059CBB SWAP1 PUSH1 0x44 ADD PUSH1 0x20 PUSH1 0x40 MLOAD DUP1 DUP4 SUB DUP2 PUSH1 0x0 DUP8 GAS CALL ISZERO DUP1 ISZERO PUSH2 0x690 JUMPI RETURNDATASIZE PUSH1 0x0 DUP1 RETURNDATACOPY RETURNDATASIZE PUSH1 0x0 REVERT JUMPDEST POP POP POP POP PUSH1 0x40 MLOAD RETURNDATASIZE PUSH1 0x1F NOT PUSH1 0x1F DUP3 ADD AND DUP3 ADD DUP1 PUSH1 0x40 MSTORE POP DUP2 ADD SWAP1 PUSH2 0x6B4 SWAP2 SWAP1 PUSH2 0x142E JUMP JUMPDEST PUSH2 0x6D0 JUMPI PUSH1 0x40 MLOAD PUSH3 0x461BCD PUSH1 0xE5 SHL DUP2 MSTORE PUSH1 0x4 ADD PUSH2 0x567 SWAP1 PUSH2 0x1450 JUMP JUMPDEST PUSH1 0x40 MLOAD DUP2 DUP2 MSTORE CALLER SWAP1 PUSH32 0x7084F5476618D8E60B11EF0D7D3F06914655ADB8793E28FF7F018D4C76D505D5 SWAP1 PUSH1 0x20 ADD JUMPDEST PUSH1 0x40 MLOAD DUP1 SWAP2 SUB SWAP1 LOG2 POP JUMP JUMPDEST PUSH1 0x1 PUSH1 0x1 PUSH1 0xA0 SHL SUB DUP2 AND PUSH1 0x0 SWAP1 DUP2 MSTORE PUSH1 0x1 PUSH1 0x20 DUP2 SWAP1 MSTORE PUSH1 0x40 DUP3 KECCAK256 SWAP1 DUP2 ADD SLOAD SWAP1 SLOAD PUSH2 0x733 SWAP2 SWAP1 PUSH2 0x1479 JUMP JUMPDEST SWAP3 SWAP2 POP POP JUMP JUMPDEST PUSH2 0x741 PUSH2 0xEEB JUMP JUMPDEST PUSH2 0x74B PUSH1 0x0 PUSH2 0xF18 JUMP JUMPDEST JUMP JUMPDEST PUSH1 0x0 DUP2 GT PUSH2 0x78E JUMPI PUSH1 0x40 MLOAD PUSH3 0x461BCD PUSH1 0xE5 SHL DUP2 MSTORE PUSH1 0x20 PUSH1 0x4 DUP3 ADD MSTORE PUSH1 0xE PUSH1 0x24 DUP3 ADD MSTORE PUSH14 0x125B9D985B1A5908185B5BDD5B9D PUSH1 0x92 SHL PUSH1 0x44 DUP3 ADD MSTORE PUSH1 0x64 ADD PUSH2 0x567 JUMP JUMPDEST PUSH2 0x797 CALLER PUSH2 0xE5F JUMP JUMPDEST CALLER PUSH1 0x0 SWAP1 DUP2 MSTORE PUSH1 0x1 PUSH1 0x20 MSTORE PUSH1 0x40 DUP2 KECCAK256 DUP1 SLOAD DUP4 SWAP3 SWAP1 PUSH2 0x7B6 SWAP1 DUP5 SWAP1 PUSH2 0x1479 JUMP JUMPDEST SWAP3 POP POP DUP2 SWAP1 SSTORE POP DUP1 PUSH1 0x2 PUSH1 0x0 DUP3 DUP3 SLOAD PUSH2 0x7CF SWAP2 SWAP1 PUSH2 0x1479 JUMP JUMPDEST SWAP1 SWAP2 SSTORE POP POP PUSH1 0x40 MLOAD PUSH4 0x23B872DD PUSH1 0xE0 SHL DUP2 MSTORE CALLER PUSH1 0x4 DUP3 ADD MSTORE ADDRESS PUSH1 0x24 DUP3 ADD MSTORE PUSH1 0x44 DUP2 ADD DUP3 SWAP1 MSTORE PUSH32 0x0 PUSH1 0x1 PUSH1 0x1 PUSH1 0xA0 SHL SUB AND SWAP1 PUSH4 0x23B872DD SWAP1 PUSH1 0x64 ADD PUSH1 0x20 PUSH1 0x40 MLOAD DUP1 DUP4 SUB DUP2 PUSH1 0x0 DUP8 GAS CALL ISZERO DUP1 ISZERO PUSH2 0x847 JUMPI RETURNDATASIZE PUSH1 0x0 DUP1 RETURNDATACOPY RETURNDATASIZE PUSH1 0x0 REVERT JUMPDEST POP POP POP POP PUSH1 0x40 MLOAD RETURNDATASIZE PUSH1 0x1F NOT PUSH1 0x1F DUP3 ADD AND DUP3 ADD DUP1 PUSH1 0x40 MSTORE POP DUP2 ADD SWAP1 PUSH2 0x86B SWAP2 SWAP1 PUSH2 0x142E JUMP JUMPDEST PUSH2 0x887 JUMPI PUSH1 0x40 MLOAD PUSH3 0x461BCD PUSH1 0xE5 SHL DUP2 MSTORE PUSH1 0x4 ADD PUSH2 0x567 SWAP1 PUSH2 0x1450 JUMP JUMPDEST PUSH2 0x890 CALLER PUSH2 0xF68 JUMP JUMPDEST PUSH1 0x40 DUP1 MLOAD DUP3 DUP2 MSTORE PUSH1 0x0 PUSH1 0x20 DUP3 ADD MSTORE CALLER SWAP2 PUSH32 0x37D4053E34FDE482E96F6BCD424DFA31342CBD5FE184D497FB3C8BB4B4B97580 SWAP2 ADD PUSH2 0x6FE JUMP JUMPDEST PUSH2 0x8D1 CALLER PUSH2 0xE5F JUMP JUMPDEST CALLER PUSH1 0x0 SWAP1 DUP2 MSTORE PUSH1 0x1 PUSH1 0x20 MSTORE PUSH1 0x40 SWAP1 KECCAK256 PUSH1 0x3 ADD SLOAD DUP1 PUSH2 0x927 JUMPI PUSH1 0x40 MLOAD PUSH3 0x461BCD PUSH1 0xE5 SHL DUP2 MSTORE PUSH1 0x20 PUSH1 0x4 DUP3 ADD MSTORE PUSH1 0x13 PUSH1 0x24 DUP3 ADD MSTORE PUSH19 0x4E6F207265776172647320746F20636C61696D PUSH1 0x68 SHL PUSH1 0x44 DUP3 ADD MSTORE PUSH1 0x64 ADD PUSH2 0x567 JUMP JUMPDEST CALLER PUSH1 0x0 DUP2 DUP2 MSTORE PUSH1 0x1 PUSH1 0x20 MSTORE PUSH1 0x40 DUP1 DUP3 KECCAK256 PUSH1 0x3 ADD SWAP2 SWAP1 SWAP2 SSTORE MLOAD PUSH4 0xA9059CBB PUSH1 0xE0 SHL DUP2 MSTORE PUSH1 0x4 DUP2 ADD SWAP2 SWAP1 SWAP2 MSTORE PUSH1 0x24 DUP2 ADD DUP3 SWAP1 MSTORE PUSH1 0x1 PUSH1 0x1 PUSH1 0xA0 SHL SUB PUSH32 0x0 AND SWAP1 PUSH4 0xA9059CBB SWAP1 PUSH1 0x44 ADD PUSH1 0x20 PUSH1 0x40 MLOAD DUP1 DUP4 SUB DUP2 PUSH1 0x0 DUP8 GAS CALL ISZERO DUP1 ISZERO PUSH2 0x9AB JUMPI RETURNDATASIZE PUSH1 0x0 DUP1 RETURNDATACOPY RETURNDATASIZE PUSH1 0x0 REVERT JUMPDEST POP POP POP POP PUSH1 0x40 MLOAD RETURNDATASIZE PUSH1 0x1F NOT PUSH1 0x1F DUP3 ADD AND DUP3 ADD DUP1 PUSH1 0x40 MSTORE POP DUP2 ADD SWAP1 PUSH2 0x9CF SWAP2 SWAP1 PUSH2 0x142E JUMP JUMPDEST PUSH2 0x9EB JUMPI PUSH1 0x40 MLOAD PUSH3 0x461BCD PUSH1 0xE5 SHL DUP2 MSTORE PUSH1 0x4 ADD PUSH2 0x567 SWAP1 PUSH2 0x1450 JUMP JUMPDEST PUSH1 0x40 MLOAD DUP2 DUP2 MSTORE CALLER SWAP1 PUSH32 0x106F923F993C2149D49B4255FF723ACAFA1F2D94393F561D3EDA32AE348F7241 SWAP1 PUSH1 0x20 ADD PUSH2 0x6FE JUMP JUMPDEST PUSH1 0x0 DUP2 GT PUSH2 0xA5E JUMPI PUSH1 0x40 MLOAD PUSH3 0x461BCD PUSH1 0xE5 SHL DUP2 MSTORE PUSH1 0x20 PUSH1 0x4 DUP3 ADD MSTORE PUSH1 0xE PUSH1 0x24 DUP3 ADD MSTORE PUSH14 0x125B9D985B1A5908185B5BDD5B9D PUSH1 0x92 SHL PUSH1 0x44 DUP3 ADD MSTORE PUSH1 0x64 ADD PUSH2 0x567 JUMP JUMPDEST PUSH2 0xA67 CALLER PUSH2 0xE5F JUMP JUMPDEST CALLER PUSH1 0x0 SWAP1 DUP2 MSTORE PUSH1 0x1 PUSH1 0x20 DUP2 SWAP1 MSTORE PUSH1 0x40 DUP3 KECCAK256 ADD DUP1 SLOAD DUP4 SWAP3 SWAP1 PUSH2 0xA89 SWAP1 DUP5 SWAP1 PUSH2 0x1479 JUMP JUMPDEST SWAP3 POP POP DUP2 SWAP1 SSTORE POP DUP1 PUSH1 0x2 PUSH1 0x0 DUP3 DUP3 SLOAD PUSH2 0xAA2 SWAP2 SWAP1 PUSH2 0x1479 JUMP JUMPDEST SWAP1 SWAP2 SSTORE POP POP PUSH1 0x40 MLOAD PUSH4 0x23B872DD PUSH1 0xE0 SHL DUP2 MSTORE CALLER PUSH1 0x4 DUP3 ADD MSTORE ADDRESS PUSH1 0x24 DUP3 ADD MSTORE PUSH1 0x44 DUP2 ADD DUP3 SWAP1 MSTORE PUSH32 0x0 PUSH1 0x1 PUSH1 0x1 PUSH1 0xA0 SHL SUB AND SWAP1 PUSH4 0x23B872DD SWAP1 PUSH1 0x64 ADD PUSH1 0x20 PUSH1 0x40 MLOAD DUP1 DUP4 SUB DUP2 PUSH1 0x0 DUP8 GAS CALL ISZERO DUP1 ISZERO PUSH2 0xB1A JUMPI RETURNDATASIZE PUSH1 0x0 DUP1 RETURNDATACOPY RETURNDATASIZE PUSH1 0x0 REVERT JUMPDEST POP POP POP POP PUSH1 0x40 MLOAD RETURNDATASIZE PUSH1 0x1F NOT PUSH1 0x1F DUP3 ADD AND DUP3 ADD DUP1 PUSH1 0x40 MSTORE POP DUP2 ADD SWAP1 PUSH2 0xB3E SWAP2 SWAP1 PUSH2 0x142E JUMP JUMPDEST PUSH2 0xB5A JUMPI PUSH1 0x40 MLOAD PUSH3 0x461BCD PUSH1 0xE5 SHL DUP2 MSTORE PUSH1 0x4 ADD PUSH2 0x567 SWAP1 PUSH2 0x1450 JUMP JUMPDEST PUSH1 0x40 MLOAD PUSH4 0x255DA8DD PUSH1 0xE2 SHL DUP2 MSTORE PUSH1 0x4 DUP2 ADD DUP3 SWAP1 MSTORE PUSH32 0x0 PUSH1 0x1 PUSH1 0x1 PUSH1 0xA0 SHL SUB AND SWAP1 PUSH4 0x9576A374 SWAP1 PUSH1 0x24 ADD PUSH1 0x0 PUSH1 0x40 MLOAD DUP1 DUP4 SUB DUP2 PUSH1 0x0 DUP8 DUP1 EXTCODESIZE ISZERO DUP1 ISZERO PUSH2 0xBBC JUMPI PUSH1 0x0 DUP1 REVERT JUMPDEST POP GAS CALL ISZERO DUP1 ISZERO PUSH2 0xBD0 JUMPI RETURNDATASIZE PUSH1 0x0 DUP1 RETURNDATACOPY RETURNDATASIZE PUSH1 0x0 REVERT JUMPDEST POP POP POP POP PUSH2 0xBDD CALLER PUSH2 0xF68 JUMP JUMPDEST PUSH1 0x40 DUP1 MLOAD DUP3 DUP2 MSTORE PUSH1 0x1 PUSH1 0x20 DUP3 ADD MSTORE CALLER SWAP2 PUSH32 0x37D4053E34FDE482E96F6BCD424DFA31342CBD5FE184D497FB3C8BB4B4B97580 SWAP2 ADD PUSH2 0x6FE JUMP JUMPDEST PUSH2 0xC1D PUSH2 0xEEB JUMP JUMPDEST PUSH1 0x4 DUP1 SLOAD PUSH2 0xFFFF SWAP1 SWAP3 AND PUSH5 0x100000000 MUL PUSH6 0xFFFFFFFFFFFF NOT SWAP1 SWAP3 AND PUSH4 0xFFFFFFFF SWAP1 SWAP4 AND SWAP3 SWAP1 SWAP3 OR OR SWAP1 SSTORE JUMP JUMPDEST PUSH1 0x1 PUSH1 0x1 PUSH1 0xA0 SHL SUB DUP2 AND PUSH1 0x0 SWAP1 DUP2 MSTORE PUSH1 0x1 PUSH1 0x20 MSTORE PUSH1 0x40 DUP2 KECCAK256 DUP1 SLOAD PUSH1 0x4 DUP3 ADD SLOAD DUP4 SWAP2 PUSH2 0xC77 SWAP2 DUP7 SWAP2 SWAP1 PUSH2 0x1111 JUMP JUMPDEST SWAP1 POP PUSH1 0x0 PUSH2 0xC8E DUP6 DUP5 PUSH1 0x1 ADD SLOAD DUP6 PUSH1 0x4 ADD SLOAD PUSH2 0x1111 JUMP JUMPDEST SWAP1 POP DUP1 DUP3 DUP5 PUSH1 0x3 ADD SLOAD PUSH2 0xCA1 SWAP2 SWAP1 PUSH2 0x1479 JUMP JUMPDEST PUSH2 0xCAB SWAP2 SWAP1 PUSH2 0x1479 JUMP JUMPDEST SWAP6 SWAP5 POP POP POP POP POP JUMP JUMPDEST PUSH2 0xCBC PUSH2 0xEEB JUMP JUMPDEST PUSH2 0xCC5 DUP2 PUSH2 0x11A7 JUMP JUMPDEST POP JUMP JUMPDEST PUSH1 0x0 DUP3 DUP2 MSTORE PUSH1 0x3 PUSH1 0x20 MSTORE PUSH1 0x40 SWAP1 KECCAK256 SLOAD PUSH1 0x1 PUSH1 0x1 PUSH1 0xA0 SHL SUB AND DUP1 PUSH2 0xD22 JUMPI PUSH1 0x40 MLOAD PUSH3 0x461BCD PUSH1 0xE5 SHL DUP2 MSTORE PUSH1 0x20 PUSH1 0x4 DUP3 ADD MSTORE PUSH1 0x12 PUSH1 0x24 DUP3 ADD MSTORE PUSH18 0x125B9D985B1A59081C995C5D595CDD081251 PUSH1 0x72 SHL PUSH1 0x44 DUP3 ADD MSTORE PUSH1 0x64 ADD PUSH2 0x567 JUMP JUMPDEST PUSH1 0x0 PUSH1 0x64 DUP4 PUSH1 0x0 DUP2 MLOAD DUP2 LT PUSH2 0xD39 JUMPI PUSH2 0xD39 PUSH2 0x148C JUMP JUMPDEST PUSH1 0x20 MUL PUSH1 0x20 ADD ADD MLOAD PUSH2 0xD4B SWAP2 SWAP1 PUSH2 0x14B8 JUMP JUMPDEST PUSH1 0x1 PUSH1 0x1 PUSH1 0xA0 SHL SUB DUP4 AND PUSH1 0x0 SWAP1 DUP2 MSTORE PUSH1 0x1 PUSH1 0x20 DUP2 SWAP1 MSTORE PUSH1 0x40 DUP3 KECCAK256 ADD SLOAD SWAP2 SWAP3 POP SWAP1 PUSH2 0xD82 JUMPI PUSH2 0xD7D PUSH2 0x320 PUSH2 0x578 PUSH2 0x141B JUMP JUMPDEST PUSH2 0xD90 JUMP JUMPDEST PUSH2 0xD90 PUSH2 0x3E8 PUSH2 0x640 PUSH2 0x141B JUMP JUMPDEST PUSH1 0x1 PUSH1 0x1 PUSH1 0xA0 SHL SUB DUP5 AND PUSH1 0x0 SWAP1 DUP2 MSTORE PUSH1 0x1 PUSH1 0x20 DUP2 SWAP1 MSTORE PUSH1 0x40 DUP3 KECCAK256 ADD SLOAD SWAP2 SWAP3 POP SWAP1 PUSH2 0xDBC JUMPI PUSH2 0x320 PUSH2 0xDC0 JUMP JUMPDEST PUSH2 0x3E8 JUMPDEST PUSH1 0x64 PUSH2 0xDCC DUP5 DUP7 PUSH2 0x14CC JUMP JUMPDEST PUSH2 0xDD6 SWAP2 SWAP1 PUSH2 0x14E3 JUMP JUMPDEST PUSH2 0xDE0 SWAP2 SWAP1 PUSH2 0x1479 JUMP JUMPDEST PUSH1 0x1 PUSH1 0x1 PUSH1 0xA0 SHL SUB DUP6 AND PUSH1 0x0 DUP2 DUP2 MSTORE PUSH1 0x1 PUSH1 0x20 SWAP1 DUP2 MSTORE PUSH1 0x40 DUP1 DUP4 KECCAK256 PUSH1 0x4 DUP2 ADD DUP7 SWAP1 SSTORE TIMESTAMP PUSH1 0x2 SWAP1 SWAP2 ADD SSTORE DUP11 DUP4 MSTORE PUSH1 0x3 DUP3 MSTORE SWAP2 DUP3 SWAP1 KECCAK256 DUP1 SLOAD PUSH1 0x1 PUSH1 0x1 PUSH1 0xA0 SHL SUB NOT AND SWAP1 SSTORE SWAP1 MLOAD DUP4 DUP2 MSTORE SWAP3 SWAP4 POP SWAP1 SWAP2 PUSH32 0x95046B7FDB9BCF09CDB8B5E270934D955F51F771912290FF9A0020045195EEE5 SWAP2 ADD PUSH1 0x40 MLOAD DUP1 SWAP2 SUB SWAP1 LOG2 POP POP POP POP POP POP JUMP JUMPDEST PUSH1 0x1 PUSH1 0x1 PUSH1 0xA0 SHL SUB DUP2 AND PUSH1 0x0 SWAP1 DUP2 MSTORE PUSH1 0x1 PUSH1 0x20 MSTORE PUSH1 0x40 SWAP1 KECCAK256 DUP1 SLOAD ISZERO ISZERO DUP1 PUSH2 0xE8A JUMPI POP PUSH1 0x0 DUP2 PUSH1 0x1 ADD SLOAD GT JUMPDEST ISZERO PUSH2 0x57A JUMPI PUSH1 0x0 PUSH2 0xEA4 DUP4 DUP4 PUSH1 0x0 ADD SLOAD DUP5 PUSH1 0x4 ADD SLOAD PUSH2 0x1111 JUMP JUMPDEST SWAP1 POP PUSH1 0x0 PUSH2 0xEBB DUP5 DUP5 PUSH1 0x1 ADD SLOAD DUP6 PUSH1 0x4 ADD SLOAD PUSH2 0x1111 JUMP JUMPDEST SWAP1 POP PUSH2 0xEC7 DUP2 DUP4 PUSH2 0x1479 JUMP JUMPDEST DUP4 PUSH1 0x3 ADD PUSH1 0x0 DUP3 DUP3 SLOAD PUSH2 0xEDA SWAP2 SWAP1 PUSH2 0x1479 JUMP JUMPDEST SWAP1 SWAP2 SSTORE POP POP TIMESTAMP PUSH1 0x2 DUP5 ADD SSTORE POP POP POP POP JUMP JUMPDEST PUSH1 0x0 SLOAD PUSH1 0x1 PUSH1 0x1 PUSH1 0xA0 SHL SUB AND CALLER EQ PUSH2 0x74B JUMPI PUSH1 0x40 MLOAD PUSH4 0x118CDAA7 PUSH1 0xE0 SHL DUP2 MSTORE CALLER PUSH1 0x4 DUP3 ADD MSTORE PUSH1 0x24 ADD PUSH2 0x567 JUMP JUMPDEST PUSH1 0x0 DUP1 SLOAD PUSH1 0x1 PUSH1 0x1 PUSH1 0xA0 SHL SUB DUP4 DUP2 AND PUSH1 0x1 PUSH1 0x1 PUSH1 0xA0 SHL SUB NOT DUP4 AND DUP2 OR DUP5 SSTORE PUSH1 0x40 MLOAD SWAP2 SWAP1 SWAP3 AND SWAP3 DUP4 SWAP2 PUSH32 0x8BE0079C531659141344CD1FD0A4F28419497F9722A3DAAFE3B4186F6B6457E0 SWAP2 SWAP1 LOG3 POP POP JUMP JUMPDEST PUSH1 0x1 PUSH1 0x1 PUSH1 0xA0 SHL SUB DUP2 AND PUSH1 0x0 SWAP1 DUP2 MSTORE PUSH1 0x1 PUSH1 0x20 MSTORE PUSH1 0x40 SWAP1 KECCAK256 PUSH1 0x2 ADD SLOAD PUSH2 0xF92 SWAP1 PUSH3 0x278D00 SWAP1 PUSH2 0x1479 JUMP JUMPDEST TIMESTAMP LT PUSH2 0xCC5 JUMPI PUSH1 0x4 DUP1 SLOAD PUSH1 0x40 MLOAD PUSH4 0x5D3B1D3 PUSH1 0xE4 SHL DUP2 MSTORE PUSH32 0x0 SWAP3 DUP2 ADD SWAP3 SWAP1 SWAP3 MSTORE PUSH8 0xFFFFFFFFFFFFFFFF PUSH32 0x0 AND PUSH1 0x24 DUP4 ADD MSTORE PUSH5 0x100000000 DUP2 DIV PUSH2 0xFFFF AND PUSH1 0x44 DUP4 ADD MSTORE PUSH4 0xFFFFFFFF DUP1 DUP3 AND PUSH1 0x64 DUP5 ADD MSTORE PUSH7 0x1000000000000 SWAP1 SWAP2 DIV AND PUSH1 0x84 DUP3 ADD MSTORE PUSH1 0x0 SWAP1 PUSH32 0x0 PUSH1 0x1 PUSH1 0x1 PUSH1 0xA0 SHL SUB AND SWAP1 PUSH4 0x5D3B1D30 SWAP1 PUSH1 0xA4 ADD PUSH1 0x20 PUSH1 0x40 MLOAD DUP1 DUP4 SUB DUP2 PUSH1 0x0 DUP8 GAS CALL ISZERO DUP1 ISZERO PUSH2 0x1086 JUMPI RETURNDATASIZE PUSH1 0x0 DUP1 RETURNDATACOPY RETURNDATASIZE PUSH1 0x0 REVERT JUMPDEST POP POP POP POP PUSH1 0x40 MLOAD RETURNDATASIZE PUSH1 0x1F NOT PUSH1 0x1F DUP3 ADD AND DUP3 ADD DUP1 PUSH1 0x40 MSTORE POP DUP2 ADD SWAP1 PUSH2 0x10AA SWAP2 SWAP1 PUSH2 0x14F7 JUMP JUMPDEST PUSH1 0x0 DUP2 DUP2 MSTORE PUSH1 0x3 PUSH1 0x20 SWAP1 DUP2 MSTORE PUSH1 0x40 SWAP2 DUP3 SWAP1 KECCAK256 DUP1 SLOAD PUSH1 0x1 PUSH1 0x1 PUSH1 0xA0 SHL SUB NOT AND PUSH1 0x1 PUSH1 0x1 PUSH1 0xA0 SHL SUB DUP8 AND SWAP1 DUP2 OR SWAP1 SWAP2 SSTORE SWAP2 MLOAD DUP4 DUP2 MSTORE SWAP3 SWAP4 POP SWAP1 SWAP2 PUSH32 0x5ACEC44D329E4DFEA8E1A6DAE4B0C46D76B2A92D3A747907A60DEE7AD6809FD SWAP2 ADD PUSH1 0x40 MLOAD DUP1 SWAP2 SUB SWAP1 LOG2 POP POP JUMP JUMPDEST PUSH1 0x0 DUP3 PUSH1 0x0 SUB PUSH2 0x1123 JUMPI POP PUSH1 0x0 PUSH2 0x11A0 JUMP JUMPDEST PUSH1 0x0 PUSH2 0x112D PUSH2 0x11E2 JUMP JUMPDEST SWAP1 POP PUSH1 0x0 PUSH2 0x113B DUP3 DUP6 PUSH2 0x1479 JUMP JUMPDEST PUSH1 0x1 PUSH1 0x1 PUSH1 0xA0 SHL SUB DUP8 AND PUSH1 0x0 SWAP1 DUP2 MSTORE PUSH1 0x1 PUSH1 0x20 MSTORE PUSH1 0x40 DUP2 KECCAK256 PUSH1 0x2 DUP2 ADD SLOAD SWAP3 SWAP4 POP SWAP2 PUSH2 0x1166 SWAP1 TIMESTAMP PUSH2 0x141B JUMP JUMPDEST SWAP1 POP PUSH2 0x2710 PUSH4 0x1E13380 DUP3 PUSH2 0x117B DUP7 DUP12 PUSH2 0x14CC JUMP JUMPDEST PUSH2 0x1185 SWAP2 SWAP1 PUSH2 0x14CC JUMP JUMPDEST PUSH2 0x118F SWAP2 SWAP1 PUSH2 0x14E3 JUMP JUMPDEST PUSH2 0x1199 SWAP2 SWAP1 PUSH2 0x14E3 JUMP JUMPDEST SWAP5 POP POP POP POP POP JUMPDEST SWAP4 SWAP3 POP POP POP JUMP JUMPDEST PUSH2 0x11AF PUSH2 0xEEB JUMP JUMPDEST PUSH1 0x1 PUSH1 0x1 PUSH1 0xA0 SHL SUB DUP2 AND PUSH2 0x11D9 JUMPI PUSH1 0x40 MLOAD PUSH4 0x1E4FBDF7 PUSH1 0xE0 SHL DUP2 MSTORE PUSH1 0x0 PUSH1 0x4 DUP3 ADD MSTORE PUSH1 0x24 ADD PUSH2 0x567 JUMP JUMPDEST PUSH2 0xCC5 DUP2 PUSH2 0xF18 JUMP JUMPDEST PUSH1 0x0 DUP1 PUSH32 0x0 PUSH1 0x1 PUSH1 0x1 PUSH1 0xA0 SHL SUB AND PUSH4 0x8E15F473 PUSH1 0x40 MLOAD DUP2 PUSH4 0xFFFFFFFF AND PUSH1 0xE0 SHL DUP2 MSTORE PUSH1 0x4 ADD PUSH1 0x20 PUSH1 0x40 MLOAD DUP1 DUP4 SUB DUP2 DUP7 GAS STATICCALL ISZERO DUP1 ISZERO PUSH2 0x1243 JUMPI RETURNDATASIZE PUSH1 0x0 DUP1 RETURNDATACOPY RETURNDATASIZE PUSH1 0x0 REVERT JUMPDEST POP POP POP POP PUSH1 0x40 MLOAD RETURNDATASIZE PUSH1 0x1F NOT PUSH1 0x1F DUP3 ADD AND DUP3 ADD DUP1 PUSH1 0x40 MSTORE POP DUP2 ADD SWAP1 PUSH2 0x1267 SWAP2 SWAP1 PUSH2 0x14F7 JUMP JUMPDEST SWAP1 POP PUSH1 0x0 DUP2 SGT PUSH2 0x1279 JUMPI PUSH1 0x0 SWAP2 POP POP SWAP1 JUMP JUMPDEST PUSH2 0x1285 PUSH1 0x2 PUSH1 0xC8 PUSH2 0x14E3 JUMP JUMPDEST SWAP2 POP POP SWAP1 JUMP JUMPDEST PUSH1 0x0 PUSH1 0x20 DUP3 DUP5 SUB SLT ISZERO PUSH2 0x129D JUMPI PUSH1 0x0 DUP1 REVERT JUMPDEST DUP2 CALLDATALOAD PUSH1 0x1 PUSH1 0x1 PUSH1 0xA0 SHL SUB DUP2 AND DUP2 EQ PUSH2 0x11A0 JUMPI PUSH1 0x0 DUP1 REVERT JUMPDEST PUSH4 0x4E487B71 PUSH1 0xE0 SHL PUSH1 0x0 MSTORE PUSH1 0x41 PUSH1 0x4 MSTORE PUSH1 0x24 PUSH1 0x0 REVERT JUMPDEST PUSH1 0x0 DUP1 PUSH1 0x40 DUP4 DUP6 SUB SLT ISZERO PUSH2 0x12DD JUMPI PUSH1 0x0 DUP1 REVERT JUMPDEST DUP3 CALLDATALOAD SWAP2 POP PUSH1 0x20 DUP4 ADD CALLDATALOAD PUSH8 0xFFFFFFFFFFFFFFFF DUP2 GT ISZERO PUSH2 0x12FB JUMPI PUSH1 0x0 DUP1 REVERT JUMPDEST DUP4 ADD PUSH1 0x1F DUP2 ADD DUP6 SGT PUSH2 0x130C JUMPI PUSH1 0x0 DUP1 REVERT JUMPDEST DUP1 CALLDATALOAD PUSH8 0xFFFFFFFFFFFFFFFF DUP2 GT ISZERO PUSH2 0x1326 JUMPI PUSH2 0x1326 PUSH2 0x12B4 JUMP JUMPDEST DUP1 PUSH1 0x5 SHL PUSH1 0x40 MLOAD PUSH1 0x1F NOT PUSH1 0x3F DUP4 ADD AND DUP2 ADD DUP2 DUP2 LT PUSH8 0xFFFFFFFFFFFFFFFF DUP3 GT OR ISZERO PUSH2 0x1353 JUMPI PUSH2 0x1353 PUSH2 0x12B4 JUMP JUMPDEST PUSH1 0x40 MSTORE SWAP2 DUP3 MSTORE PUSH1 0x20 DUP2 DUP5 ADD DUP2 ADD SWAP3 SWAP1 DUP2 ADD DUP9 DUP5 GT ISZERO PUSH2 0x1371 JUMPI PUSH1 0x0 DUP1 REVERT JUMPDEST PUSH1 0x20 DUP6 ADD SWAP5 POP JUMPDEST DUP4 DUP6 LT ISZERO PUSH2 0x1394 JUMPI DUP5 CALLDATALOAD DUP1 DUP3 MSTORE PUSH1 0x20 SWAP6 DUP7 ADD SWAP6 SWAP1 SWAP4 POP ADD PUSH2 0x1378 JUMP JUMPDEST POP DUP1 SWAP5 POP POP POP POP POP SWAP3 POP SWAP3 SWAP1 POP JUMP JUMPDEST PUSH1 0x0 PUSH1 0x20 DUP3 DUP5 SUB SLT ISZERO PUSH2 0x13B5 JUMPI PUSH1 0x0 DUP1 REVERT JUMPDEST POP CALLDATALOAD SWAP2 SWAP1 POP JUMP JUMPDEST PUSH1 0x0 DUP1 PUSH1 0x40 DUP4 DUP6 SUB SLT ISZERO PUSH2 0x13CF JUMPI PUSH1 0x0 DUP1 REVERT JUMPDEST DUP3 CALLDATALOAD PUSH4 0xFFFFFFFF DUP2 AND DUP2 EQ PUSH2 0x13E3 JUMPI PUSH1 0x0 DUP1 REVERT JUMPDEST SWAP2 POP PUSH1 0x20 DUP4 ADD CALLDATALOAD PUSH2 0xFFFF DUP2 AND DUP2 EQ PUSH2 0x13FA JUMPI PUSH1 0x0 DUP1 REVERT JUMPDEST DUP1 SWAP2 POP POP SWAP3 POP SWAP3 SWAP1 POP JUMP JUMPDEST PUSH4 0x4E487B71 PUSH1 0xE0 SHL PUSH1 0x0 MSTORE PUSH1 0x11 PUSH1 0x4 MSTORE PUSH1 0x24 PUSH1 0x0 REVERT JUMPDEST DUP2 DUP2 SUB DUP2 DUP2 GT ISZERO PUSH2 0x733 JUMPI PUSH2 0x733 PUSH2 0x1405 JUMP JUMPDEST PUSH1 0x0 PUSH1 0x20 DUP3 DUP5 SUB SLT ISZERO PUSH2 0x1440 JUMPI PUSH1 0x0 DUP1 REVERT JUMPDEST DUP2 MLOAD DUP1 ISZERO ISZERO DUP2 EQ PUSH2 0x11A0 JUMPI PUSH1 0x0 DUP1 REVERT JUMPDEST PUSH1 0x20 DUP1 DUP3 MSTORE PUSH1 0xF SWAP1 DUP3 ADD MSTORE PUSH15 0x151C985B9CD9995C8819985A5B1959 PUSH1 0x8A SHL PUSH1 0x40 DUP3 ADD MSTORE PUSH1 0x60 ADD SWAP1 JUMP JUMPDEST DUP1 DUP3 ADD DUP1 DUP3 GT ISZERO PUSH2 0x733 JUMPI PUSH2 0x733 PUSH2 0x1405 JUMP JUMPDEST PUSH4 0x4E487B71 PUSH1 0xE0 SHL PUSH1 0x0 MSTORE PUSH1 0x32 PUSH1 0x4 MSTORE PUSH1 0x24 PUSH1 0x0 REVERT JUMPDEST PUSH4 0x4E487B71 PUSH1 0xE0 SHL PUSH1 0x0 MSTORE PUSH1 0x12 PUSH1 0x4 MSTORE PUSH1 0x24 PUSH1 0x0 REVERT JUMPDEST PUSH1 0x0 DUP3 PUSH2 0x14C7 JUMPI PUSH2 0x14C7 PUSH2 0x14A2 JUMP JUMPDEST POP MOD SWAP1 JUMP JUMPDEST DUP1 DUP3 MUL DUP2 ISZERO DUP3 DUP3 DIV DUP5 EQ OR PUSH2 0x733 JUMPI PUSH2 0x733 PUSH2 0x1405 JUMP JUMPDEST PUSH1 0x0 DUP3 PUSH2 0x14F2 JUMPI PUSH2 0x14F2 PUSH2 0x14A2 JUMP JUMPDEST POP DIV SWAP1 JUMP JUMPDEST PUSH1 0x0 PUSH1 0x20 DUP3 DUP5 SUB SLT ISZERO PUSH2 0x1509 JUMPI PUSH1 0x0 DUP1 REVERT JUMPDEST POP MLOAD SWAP2 SWAP1 POP JUMP INVALID LOG2 PUSH5 0x6970667358 0x22 SLT KECCAK256 DUP13 CALL PUSH17 0x318D413CE7F08FB2D1CCA545F8D8B408A9 INVALID BLOBHASH COINBASE KECCAK256 SWAP11 0xE2 0xC1 0xEF 0xCC 0xD5 BLOBHASH SELFBALANCE PUSH5 0x736F6C6343 STOP ADDMOD SHR STOP CALLER "
				},
				"gasEstimates": {
					"creation": {
						"codeDepositCost": "1089200",
						"executionCost": "infinite",
						"totalCost": "infinite"
					},
					"external": {
						"BASE_APY()": "296",
						"COORDINATOR()": "infinite",
						"DAO_APY()": "274",
						"DAO_SUPERPOSITION_MAX()": "295",
						"DAO_SUPERPOSITION_MIN()": "296",
						"SUPERPOSITION_MAX()": "228",
						"SUPERPOSITION_MIN()": "231",
						"UPDATE_INTERVAL()": "230",
						"VOLATILITY_BONUS()": "229",
						"calculateReward(address)": "infinite",
						"callbackGasLimit()": "2381",
						"claimReward()": "infinite",
						"getStakedBalance(address)": "infinite",
						"getTotalValueLocked()": "2370",
						"keyHash()": "infinite",
						"numWords()": "2413",
						"oracle()": "infinite",
						"owner()": "2399",
						"quantumToken()": "infinite",
						"rawFulfillRandomWords(uint256,uint256[])": "infinite",
						"renounceOwnership()": "infinite",
						"requestConfirmations()": "2391",
						"requestToUser(uint256)": "2567",
						"stake(uint256)": "infinite",
						"stakeForDAO(uint256)": "infinite",
						"stakes(address)": "11119",
						"subscriptionId()": "infinite",
						"totalValueLocked()": "2372",
						"transferOwnership(address)": "infinite",
						"updateVRFParams(uint32,uint16)": "26839",
						"withdraw(uint256)": "infinite"
					},
					"internal": {
						"calculateReward(address,uint256,uint256)": "infinite",
						"fulfillRandomWords(uint256,uint256[] memory)": "infinite",
						"predictVolatility()": "infinite",
						"requestSuperpositionAPY(address)": "infinite",
						"updateStake(address)": "infinite"
					}
				},
				"methodIdentifiers": {
					"BASE_APY()": "4ca19fd6",
					"COORDINATOR()": "3b2bcbf1",
					"DAO_APY()": "27779748",
					"DAO_SUPERPOSITION_MAX()": "c75a0715",
					"DAO_SUPERPOSITION_MIN()": "9da378ab",
					"SUPERPOSITION_MAX()": "cb8b97f5",
					"SUPERPOSITION_MIN()": "07b2d32f",
					"UPDATE_INTERVAL()": "89ac4147",
					"VOLATILITY_BONUS()": "b8ed3aad",
					"calculateReward(address)": "d82e3962",
					"callbackGasLimit()": "24f74697",
					"claimReward()": "b88a802f",
					"getStakedBalance(address)": "3a02a42d",
					"getTotalValueLocked()": "b26025aa",
					"keyHash()": "61728f39",
					"numWords()": "7ccfd7fc",
					"oracle()": "7dc0d1d0",
					"owner()": "8da5cb5b",
					"quantumToken()": "93565b4c",
					"rawFulfillRandomWords(uint256,uint256[])": "1fe543e3",
					"renounceOwnership()": "715018a6",
					"requestConfirmations()": "b0fb162f",
					"requestToUser(uint256)": "3e2f7eb5",
					"stake(uint256)": "a694fc3a",
					"stakeForDAO(uint256)": "b94790a4",
					"stakes(address)": "16934fc4",
					"subscriptionId()": "09c1ba2e",
					"totalValueLocked()": "ec18154e",
					"transferOwnership(address)": "f2fde38b",
					"updateVRFParams(uint32,uint16)": "bae4e530",
					"withdraw(uint256)": "2e1a7d4d"
				}
			},
			"storageLayout": {
				"storage": [
					{
						"astId": 208,
						"contract": "quantum/UBI4ALLQuantumFinance.sol:UBI4ALLQuantumFinance",
						"label": "_owner",
						"offset": 0,
						"slot": "0",
						"type": "t_address"
					},
					{
						"astId": 3115,
						"contract": "quantum/UBI4ALLQuantumFinance.sol:UBI4ALLQuantumFinance",
						"label": "stakes",
						"offset": 0,
						"slot": "1",
						"type": "t_mapping(t_address,t_struct(Stake)3109_storage)"
					},
					{
						"astId": 3118,
						"contract": "quantum/UBI4ALLQuantumFinance.sol:UBI4ALLQuantumFinance",
						"label": "totalValueLocked",
						"offset": 0,
						"slot": "2",
						"type": "t_uint256"
					},
					{
						"astId": 3123,
						"contract": "quantum/UBI4ALLQuantumFinance.sol:UBI4ALLQuantumFinance",
						"label": "requestToUser",
						"offset": 0,
						"slot": "3",
						"type": "t_mapping(t_uint256,t_address)"
					},
					{
						"astId": 3133,
						"contract": "quantum/UBI4ALLQuantumFinance.sol:UBI4ALLQuantumFinance",
						"label": "callbackGasLimit",
						"offset": 0,
						"slot": "4",
						"type": "t_uint32"
					},
					{
						"astId": 3137,
						"contract": "quantum/UBI4ALLQuantumFinance.sol:UBI4ALLQuantumFinance",
						"label": "requestConfirmations",
						"offset": 4,
						"slot": "4",
						"type": "t_uint16"
					},
					{
						"astId": 3141,
						"contract": "quantum/UBI4ALLQuantumFinance.sol:UBI4ALLQuantumFinance",
						"label": "numWords",
						"offset": 6,
						"slot": "4",
						"type": "t_uint32"
					}
				],
				"types": {
					"t_address": {
						"encoding": "inplace",
						"label": "address",
						"numberOfBytes": "20"
					},
					"t_mapping(t_address,t_struct(Stake)3109_storage)": {
						"encoding": "mapping",
						"key": "t_address",
						"label": "mapping(address => struct UBI4ALLQuantumFinance.Stake)",
						"numberOfBytes": "32",
						"value": "t_struct(Stake)3109_storage"
					},
					"t_mapping(t_uint256,t_address)": {
						"encoding": "mapping",
						"key": "t_uint256",
						"label": "mapping(uint256 => address)",
						"numberOfBytes": "32",
						"value": "t_address"
					},
					"t_struct(Stake)3109_storage": {
						"encoding": "inplace",
						"label": "struct UBI4ALLQuantumFinance.Stake",
						"members": [
							{
								"astId": 3100,
								"contract": "quantum/UBI4ALLQuantumFinance.sol:UBI4ALLQuantumFinance",
								"label": "amount",
								"offset": 0,
								"slot": "0",
								"type": "t_uint256"
							},
							{
								"astId": 3102,
								"contract": "quantum/UBI4ALLQuantumFinance.sol:UBI4ALLQuantumFinance",
								"label": "daoAmount",
								"offset": 0,
								"slot": "1",
								"type": "t_uint256"
							},
							{
								"astId": 3104,
								"contract": "quantum/UBI4ALLQuantumFinance.sol:UBI4ALLQuantumFinance",
								"label": "lastUpdate",
								"offset": 0,
								"slot": "2",
								"type": "t_uint256"
							},
							{
								"astId": 3106,
								"contract": "quantum/UBI4ALLQuantumFinance.sol:UBI4ALLQuantumFinance",
								"label": "accumulatedReward",
								"offset": 0,
								"slot": "3",
								"type": "t_uint256"
							},
							{
								"astId": 3108,
								"contract": "quantum/UBI4ALLQuantumFinance.sol:UBI4ALLQuantumFinance",
								"label": "currentAPY",
								"offset": 0,
								"slot": "4",
								"type": "t_uint256"
							}
						],
						"numberOfBytes": "160"
					},
					"t_uint16": {
						"encoding": "inplace",
						"label": "uint16",
						"numberOfBytes": "2"
					},
					"t_uint256": {
						"encoding": "inplace",
						"label": "uint256",
						"numberOfBytes": "32"
					},
					"t_uint32": {
						"encoding": "inplace",
						"label": "uint32",
						"numberOfBytes": "4"
					}
				}
			},
			"userdoc": {
				"events": {
					"APYUpdated(address,uint256)": {
						"notice": "Evento emesso quando l'APY di un utente viene aggiornato"
					},
					"RandomAPYRequested(address,uint256)": {
						"notice": "Evento emesso quando viene richiesta una nuova APY casuale"
					},
					"RewardClaimed(address,uint256)": {
						"notice": "Evento emesso quando un utente reclama ricompense"
					},
					"Staked(address,uint256,bool)": {
						"notice": "Evento emesso quando un utente stake token"
					},
					"Withdrawn(address,uint256)": {
						"notice": "Evento emesso quando un utente preleva token"
					}
				},
				"kind": "user",
				"methods": {
					"calculateReward(address)": {
						"notice": "Calcola le ricompense totali per un utente"
					},
					"claimReward()": {
						"notice": "Reclama le ricompense accumulate"
					},
					"constructor": {
						"notice": "Costruttore del contratto"
					},
					"getStakedBalance(address)": {
						"notice": "Ottiene il saldo staked di un utente"
					},
					"getTotalValueLocked()": {
						"notice": "Ottiene il totale dei token staked"
					},
					"stake(uint256)": {
						"notice": "Effettua lo staking di token Q4A"
					},
					"stakeForDAO(uint256)": {
						"notice": "Effettua lo staking di token Q4A per la DAO"
					},
					"transferOwnership(address)": {
						"notice": "Trasferisce la proprietà del contratto a un nuovo proprietario"
					},
					"updateVRFParams(uint32,uint16)": {
						"notice": "Aggiorna i parametri VRF"
					},
					"withdraw(uint256)": {
						"notice": "Preleva token staked"
					}
				},
				"notice": "Gestisce lo staking di token Q4A con APY variabile basato su VRF Chainlink e volatilità dell'oracolo",
				"version": 1
			}
		}
	}
}