{
	"oracle/UBI4ALLOracle.sol": {
		"UBI4ALLOracle": {
			"abi": [
				{
					"inputs": [
						{
							"internalType": "address",
							"name": "_priceFeed",
							"type": "address"
						},
						{
							"internalType": "address",
							"name": "initialOwner",
							"type": "address"
						}
					],
					"stateMutability": "nonpayable",
					"type": "constructor"
				},
				{
					"inputs": [
						{
							"internalType": "address",
							"name": "owner",
							"type": "address"
						}
					],
					"name": "OwnableInvalidOwner",
					"type": "error"
				},
				{
					"inputs": [
						{
							"internalType": "address",
							"name": "account",
							"type": "address"
						}
					],
					"name": "OwnableUnauthorizedAccount",
					"type": "error"
				},
				{
					"inputs": [
						{
							"internalType": "int256",
							"name": "value",
							"type": "int256"
						}
					],
					"name": "SafeCastOverflowedIntToUint",
					"type": "error"
				},
				{
					"inputs": [
						{
							"internalType": "uint256",
							"name": "value",
							"type": "uint256"
						}
					],
					"name": "SafeCastOverflowedUintToInt",
					"type": "error"
				},
				{
					"anonymous": false,
					"inputs": [
						{
							"indexed": true,
							"internalType": "bytes32",
							"name": "pair",
							"type": "bytes32"
						}
					],
					"name": "EmergencyPause",
					"type": "event"
				},
				{
					"anonymous": false,
					"inputs": [
						{
							"indexed": true,
							"internalType": "address",
							"name": "previousOwner",
							"type": "address"
						},
						{
							"indexed": true,
							"internalType": "address",
							"name": "newOwner",
							"type": "address"
						}
					],
					"name": "OwnershipTransferred",
					"type": "event"
				},
				{
					"anonymous": false,
					"inputs": [
						{
							"indexed": false,
							"internalType": "address",
							"name": "account",
							"type": "address"
						}
					],
					"name": "Paused",
					"type": "event"
				},
				{
					"anonymous": false,
					"inputs": [
						{
							"indexed": true,
							"internalType": "address",
							"name": "oldFeed",
							"type": "address"
						},
						{
							"indexed": true,
							"internalType": "address",
							"name": "newFeed",
							"type": "address"
						}
					],
					"name": "PriceFeedUpdated",
					"type": "event"
				},
				{
					"anonymous": false,
					"inputs": [
						{
							"indexed": true,
							"internalType": "bytes32",
							"name": "pair",
							"type": "bytes32"
						},
						{
							"indexed": false,
							"internalType": "uint256",
							"name": "price",
							"type": "uint256"
						},
						{
							"indexed": false,
							"internalType": "uint256",
							"name": "timestamp",
							"type": "uint256"
						}
					],
					"name": "PriceUpdated",
					"type": "event"
				},
				{
					"anonymous": false,
					"inputs": [
						{
							"indexed": false,
							"internalType": "address",
							"name": "account",
							"type": "address"
						}
					],
					"name": "Unpaused",
					"type": "event"
				},
				{
					"inputs": [],
					"name": "CHAINLINK_STALENESS_THRESHOLD",
					"outputs": [
						{
							"internalType": "uint256",
							"name": "",
							"type": "uint256"
						}
					],
					"stateMutability": "view",
					"type": "function"
				},
				{
					"inputs": [],
					"name": "EUR_USD_PAIR",
					"outputs": [
						{
							"internalType": "bytes32",
							"name": "",
							"type": "bytes32"
						}
					],
					"stateMutability": "view",
					"type": "function"
				},
				{
					"inputs": [],
					"name": "PRICE_VALIDITY_PERIOD",
					"outputs": [
						{
							"internalType": "uint256",
							"name": "",
							"type": "uint256"
						}
					],
					"stateMutability": "view",
					"type": "function"
				},
				{
					"inputs": [
						{
							"internalType": "bytes32",
							"name": "pair",
							"type": "bytes32"
						},
						{
							"internalType": "address",
							"name": "source",
							"type": "address"
						},
						{
							"internalType": "uint256",
							"name": "",
							"type": "uint256"
						},
						{
							"internalType": "uint256",
							"name": "",
							"type": "uint256"
						},
						{
							"internalType": "uint256",
							"name": "",
							"type": "uint256"
						},
						{
							"internalType": "uint256",
							"name": "",
							"type": "uint256"
						}
					],
					"name": "addOracleSource",
					"outputs": [],
					"stateMutability": "nonpayable",
					"type": "function"
				},
				{
					"inputs": [
						{
							"internalType": "bytes32",
							"name": "pair",
							"type": "bytes32"
						}
					],
					"name": "getAggregatedPrice",
					"outputs": [
						{
							"internalType": "uint256",
							"name": "weightedPrice",
							"type": "uint256"
						},
						{
							"internalType": "uint256",
							"name": "timestamp",
							"type": "uint256"
						},
						{
							"internalType": "bool",
							"name": "isValid",
							"type": "bool"
						}
					],
					"stateMutability": "view",
					"type": "function"
				},
				{
					"inputs": [],
					"name": "getLatestPrice",
					"outputs": [
						{
							"internalType": "int256",
							"name": "",
							"type": "int256"
						}
					],
					"stateMutability": "view",
					"type": "function"
				},
				{
					"inputs": [
						{
							"internalType": "bytes32",
							"name": "pair",
							"type": "bytes32"
						}
					],
					"name": "getPrice",
					"outputs": [
						{
							"internalType": "uint256",
							"name": "price",
							"type": "uint256"
						},
						{
							"internalType": "uint256",
							"name": "timestamp",
							"type": "uint256"
						},
						{
							"internalType": "bool",
							"name": "isValid",
							"type": "bool"
						}
					],
					"stateMutability": "view",
					"type": "function"
				},
				{
					"inputs": [
						{
							"internalType": "address",
							"name": "source",
							"type": "address"
						}
					],
					"name": "getSourcePrice",
					"outputs": [
						{
							"internalType": "uint256",
							"name": "price",
							"type": "uint256"
						},
						{
							"internalType": "uint256",
							"name": "timestamp",
							"type": "uint256"
						},
						{
							"internalType": "bool",
							"name": "isValid",
							"type": "bool"
						}
					],
					"stateMutability": "view",
					"type": "function"
				},
				{
					"inputs": [
						{
							"internalType": "bytes32",
							"name": "",
							"type": "bytes32"
						}
					],
					"name": "latestPrices",
					"outputs": [
						{
							"internalType": "uint256",
							"name": "price",
							"type": "uint256"
						},
						{
							"internalType": "uint256",
							"name": "timestamp",
							"type": "uint256"
						},
						{
							"internalType": "bool",
							"name": "isValid",
							"type": "bool"
						}
					],
					"stateMutability": "view",
					"type": "function"
				},
				{
					"inputs": [],
					"name": "owner",
					"outputs": [
						{
							"internalType": "address",
							"name": "",
							"type": "address"
						}
					],
					"stateMutability": "view",
					"type": "function"
				},
				{
					"inputs": [],
					"name": "pause",
					"outputs": [],
					"stateMutability": "nonpayable",
					"type": "function"
				},
				{
					"inputs": [],
					"name": "paused",
					"outputs": [
						{
							"internalType": "bool",
							"name": "",
							"type": "bool"
						}
					],
					"stateMutability": "view",
					"type": "function"
				},
				{
					"inputs": [],
					"name": "priceFeed",
					"outputs": [
						{
							"internalType": "contract AggregatorV3Interface",
							"name": "",
							"type": "address"
						}
					],
					"stateMutability": "view",
					"type": "function"
				},
				{
					"inputs": [
						{
							"internalType": "bytes32",
							"name": "pair",
							"type": "bytes32"
						},
						{
							"internalType": "address",
							"name": "source",
							"type": "address"
						}
					],
					"name": "removeOracleSource",
					"outputs": [],
					"stateMutability": "view",
					"type": "function"
				},
				{
					"inputs": [],
					"name": "renounceOwnership",
					"outputs": [],
					"stateMutability": "nonpayable",
					"type": "function"
				},
				{
					"inputs": [
						{
							"internalType": "address",
							"name": "newOwner",
							"type": "address"
						}
					],
					"name": "transferOwnership",
					"outputs": [],
					"stateMutability": "nonpayable",
					"type": "function"
				},
				{
					"inputs": [],
					"name": "unpause",
					"outputs": [],
					"stateMutability": "nonpayable",
					"type": "function"
				},
				{
					"inputs": [
						{
							"internalType": "bytes32",
							"name": "pair",
							"type": "bytes32"
						},
						{
							"internalType": "uint256",
							"name": "price",
							"type": "uint256"
						},
						{
							"internalType": "uint256",
							"name": "timestamp",
							"type": "uint256"
						},
						{
							"internalType": "uint256",
							"name": "",
							"type": "uint256"
						}
					],
					"name": "updatePrice",
					"outputs": [],
					"stateMutability": "nonpayable",
					"type": "function"
				}
			],
			"devdoc": {
				"errors": {
					"OwnableInvalidOwner(address)": [
						{
							"details": "The owner is not a valid owner account. (eg. `address(0)`)"
						}
					],
					"OwnableUnauthorizedAccount(address)": [
						{
							"details": "The caller account is not authorized to perform an operation."
						}
					],
					"SafeCastOverflowedIntToUint(int256)": [
						{
							"details": "An int value doesn't fit in an uint of `bits` size."
						}
					],
					"SafeCastOverflowedUintToInt(uint256)": [
						{
							"details": "An uint value doesn't fit in an int of `bits` size."
						}
					]
				},
				"events": {
					"Paused(address)": {
						"details": "Emitted when the pause is triggered by `account`."
					},
					"Unpaused(address)": {
						"details": "Emitted when the pause is lifted by `account`."
					}
				},
				"kind": "dev",
				"methods": {
					"getLatestPrice()": {
						"returns": {
							"_0": "Prezzo più recente come int256"
						}
					},
					"owner()": {
						"details": "Returns the address of the current owner."
					},
					"paused()": {
						"details": "Returns true if the contract is paused, and false otherwise."
					},
					"renounceOwnership()": {
						"details": "Leaves the contract without owner. It will not be possible to call `onlyOwner` functions. Can only be called by the current owner. NOTE: Renouncing ownership will leave the contract without an owner, thereby disabling any functionality that is only available to the owner."
					},
					"transferOwnership(address)": {
						"details": "Transfers ownership of the contract to a new account (`newOwner`). Can only be called by the current owner."
					}
				},
				"title": "UBI4ALLOracle - Oracolo per il prezzo EUR/USD",
				"version": 1
			},
			"evm": {
				"assembly": "    /* \"oracle/UBI4ALLOracle.sol\":2047:6753  contract UBI4ALLOracle is IUBI4ALLOracle, Ownable, ReentrancyGuard, Pausable {... */\n  mstore(0x40, 0x80)\n    /* \"oracle/UBI4ALLOracle.sol\":2700:2911  constructor(address _priceFeed, address initialOwner) Ownable(initialOwner) {... */\n  callvalue\n  dup1\n  iszero\n  tag_1\n  jumpi\n  0x00\n  dup1\n  revert\ntag_1:\n  pop\n  mload(0x40)\n  sub(codesize, bytecodeSize)\n  dup1\n  bytecodeSize\n  dup4\n  codecopy\n  dup2\n  add\n  0x40\n  dup2\n  swap1\n  mstore\n  tag_2\n  swap2\n  tag_3\n  jump\t// in\ntag_2:\n    /* \"oracle/UBI4ALLOracle.sol\":2762:2774  initialOwner */\n  dup1\n  sub(shl(0xa0, 0x01), 0x01)\n    /* \"@openzeppelin/contracts/access/Ownable.sol\":1273:1299  initialOwner == address(0) */\n  dup2\n  and\n    /* \"@openzeppelin/contracts/access/Ownable.sol\":1269:1364  if (initialOwner == address(0)) {... */\n  tag_9\n  jumpi\n    /* \"@openzeppelin/contracts/access/Ownable.sol\":1322:1353  OwnableInvalidOwner(address(0)) */\n  mload(0x40)\n  shl(0xe0, 0x1e4fbdf7)\n  dup2\n  mstore\n    /* \"@openzeppelin/contracts/access/Ownable.sol\":1350:1351  0 */\n  0x00\n    /* \"@openzeppelin/contracts/access/Ownable.sol\":1322:1353  OwnableInvalidOwner(address(0)) */\n  0x04\n  dup3\n  add\n    /* \"#utility.yul\":640:691   */\n  mstore\n    /* \"#utility.yul\":613:631   */\n  0x24\n  add\n    /* \"@openzeppelin/contracts/access/Ownable.sol\":1322:1353  OwnableInvalidOwner(address(0)) */\ntag_10:\n  mload(0x40)\n  dup1\n  swap2\n  sub\n  swap1\n  revert\n    /* \"@openzeppelin/contracts/access/Ownable.sol\":1269:1364  if (initialOwner == address(0)) {... */\ntag_9:\n    /* \"@openzeppelin/contracts/access/Ownable.sol\":1373:1405  _transferOwnership(initialOwner) */\n  tag_12\n    /* \"@openzeppelin/contracts/access/Ownable.sol\":1392:1404  initialOwner */\n  dup2\n    /* \"@openzeppelin/contracts/access/Ownable.sol\":1373:1391  _transferOwnership */\n  tag_13\n    /* \"@openzeppelin/contracts/access/Ownable.sol\":1373:1405  _transferOwnership(initialOwner) */\n  jump\t// in\ntag_12:\n  pop\n    /* \"@openzeppelin/contracts/security/ReentrancyGuard.sol\":1717:1718  1 */\n  0x01\n    /* \"@openzeppelin/contracts/security/ReentrancyGuard.sol\":1822:1844  _status = _NOT_ENTERED */\n  dup1\n  sstore\n    /* \"@openzeppelin/contracts/security/Pausable.sol\":997:1004  _paused */\n  0x02\n    /* \"@openzeppelin/contracts/security/Pausable.sol\":997:1012  _paused = false */\n  dup1\n  sload\n  not(0xff)\n  and\n  swap1\n  sstore\n  sub(shl(0xa0, 0x01), 0x01)\n    /* \"oracle/UBI4ALLOracle.sol\":2794:2818  _priceFeed != address(0) */\n  dup3\n  and\n    /* \"oracle/UBI4ALLOracle.sol\":2786:2849  require(_priceFeed != address(0), \"Invalid price feed address\") */\n  tag_17\n  jumpi\n  mload(0x40)\n  shl(0xe5, 0x461bcd)\n  dup2\n  mstore\n    /* \"#utility.yul\":904:906   */\n  0x20\n    /* \"oracle/UBI4ALLOracle.sol\":2786:2849  require(_priceFeed != address(0), \"Invalid price feed address\") */\n  0x04\n  dup3\n  add\n    /* \"#utility.yul\":886:907   */\n  mstore\n    /* \"#utility.yul\":943:945   */\n  0x1a\n    /* \"#utility.yul\":923:941   */\n  0x24\n  dup3\n  add\n    /* \"#utility.yul\":916:946   */\n  mstore\n    /* \"#utility.yul\":982:1010   */\n  0x496e76616c696420707269636520666565642061646472657373000000000000\n    /* \"#utility.yul\":962:980   */\n  0x44\n  dup3\n  add\n    /* \"#utility.yul\":955:1011   */\n  mstore\n    /* \"#utility.yul\":1028:1046   */\n  0x64\n  add\n    /* \"oracle/UBI4ALLOracle.sol\":2786:2849  require(_priceFeed != address(0), \"Invalid price feed address\") */\n  tag_10\n    /* \"#utility.yul\":702:1052   */\n  jump\n    /* \"oracle/UBI4ALLOracle.sol\":2786:2849  require(_priceFeed != address(0), \"Invalid price feed address\") */\ntag_17:\n  pop\n    /* \"oracle/UBI4ALLOracle.sol\":2859:2868  priceFeed */\n  0x02\n    /* \"oracle/UBI4ALLOracle.sol\":2859:2904  priceFeed = AggregatorV3Interface(_priceFeed) */\n  dup1\n  sload\n  sub(shl(0xa0, 0x01), 0x01)\n  swap1\n  swap3\n  and\n  0x0100\n  mul\n  not(sub(shl(0xa8, 0x01), 0x0100))\n  swap1\n  swap3\n  and\n  swap2\n  swap1\n  swap2\n  or\n  swap1\n  sstore\n    /* \"oracle/UBI4ALLOracle.sol\":2047:6753  contract UBI4ALLOracle is IUBI4ALLOracle, Ownable, ReentrancyGuard, Pausable {... */\n  jump(tag_23)\n    /* \"@openzeppelin/contracts/access/Ownable.sol\":2912:3099  function _transferOwnership(address newOwner) internal virtual {... */\ntag_13:\n    /* \"@openzeppelin/contracts/access/Ownable.sol\":2985:3001  address oldOwner */\n  0x00\n    /* \"@openzeppelin/contracts/access/Ownable.sol\":3004:3010  _owner */\n  dup1\n  sload\n  sub(shl(0xa0, 0x01), 0x01)\n    /* \"@openzeppelin/contracts/access/Ownable.sol\":3020:3037  _owner = newOwner */\n  dup4\n  dup2\n  and\n  not(sub(shl(0xa0, 0x01), 0x01))\n  dup4\n  and\n  dup2\n  or\n  dup5\n  sstore\n    /* \"@openzeppelin/contracts/access/Ownable.sol\":3052:3092  OwnershipTransferred(oldOwner, newOwner) */\n  mload(0x40)\n    /* \"@openzeppelin/contracts/access/Ownable.sol\":3004:3010  _owner */\n  swap2\n  swap1\n  swap3\n  and\n  swap3\n  dup4\n  swap2\n    /* \"@openzeppelin/contracts/access/Ownable.sol\":3052:3092  OwnershipTransferred(oldOwner, newOwner) */\n  0x8be0079c531659141344cd1fd0a4f28419497f9722a3daafe3b4186f6b6457e0\n  swap2\n    /* \"@openzeppelin/contracts/access/Ownable.sol\":2985:3001  address oldOwner */\n  swap1\n    /* \"@openzeppelin/contracts/access/Ownable.sol\":3052:3092  OwnershipTransferred(oldOwner, newOwner) */\n  log3\n    /* \"@openzeppelin/contracts/access/Ownable.sol\":2975:3099  {... */\n  pop\n    /* \"@openzeppelin/contracts/access/Ownable.sol\":2912:3099  function _transferOwnership(address newOwner) internal virtual {... */\n  pop\n  jump\t// out\n    /* \"#utility.yul\":14:191   */\ntag_22:\n    /* \"#utility.yul\":93:106   */\n  dup1\n  mload\n  sub(shl(0xa0, 0x01), 0x01)\n    /* \"#utility.yul\":135:166   */\n  dup2\n  and\n    /* \"#utility.yul\":125:167   */\n  dup2\n  eq\n    /* \"#utility.yul\":115:185   */\n  tag_25\n  jumpi\n    /* \"#utility.yul\":181:182   */\n  0x00\n    /* \"#utility.yul\":178:179   */\n  dup1\n    /* \"#utility.yul\":171:183   */\n  revert\n    /* \"#utility.yul\":115:185   */\ntag_25:\n    /* \"#utility.yul\":14:191   */\n  swap2\n  swap1\n  pop\n  jump\t// out\n    /* \"#utility.yul\":196:489   */\ntag_3:\n    /* \"#utility.yul\":275:281   */\n  0x00\n    /* \"#utility.yul\":283:289   */\n  dup1\n    /* \"#utility.yul\":336:338   */\n  0x40\n    /* \"#utility.yul\":324:333   */\n  dup4\n    /* \"#utility.yul\":315:322   */\n  dup6\n    /* \"#utility.yul\":311:334   */\n  sub\n    /* \"#utility.yul\":307:339   */\n  slt\n    /* \"#utility.yul\":304:356   */\n  iszero\n  tag_27\n  jumpi\n    /* \"#utility.yul\":352:353   */\n  0x00\n    /* \"#utility.yul\":349:350   */\n  dup1\n    /* \"#utility.yul\":342:354   */\n  revert\n    /* \"#utility.yul\":304:356   */\ntag_27:\n    /* \"#utility.yul\":375:415   */\n  tag_28\n    /* \"#utility.yul\":405:414   */\n  dup4\n    /* \"#utility.yul\":375:415   */\n  tag_22\n  jump\t// in\ntag_28:\n    /* \"#utility.yul\":365:415   */\n  swap2\n  pop\n    /* \"#utility.yul\":434:483   */\n  tag_29\n    /* \"#utility.yul\":479:481   */\n  0x20\n    /* \"#utility.yul\":468:477   */\n  dup5\n    /* \"#utility.yul\":464:482   */\n  add\n    /* \"#utility.yul\":434:483   */\n  tag_22\n  jump\t// in\ntag_29:\n    /* \"#utility.yul\":424:483   */\n  swap1\n  pop\n    /* \"#utility.yul\":196:489   */\n  swap3\n  pop\n  swap3\n  swap1\n  pop\n  jump\t// out\n    /* \"#utility.yul\":702:1052   */\ntag_23:\n    /* \"oracle/UBI4ALLOracle.sol\":2047:6753  contract UBI4ALLOracle is IUBI4ALLOracle, Ownable, ReentrancyGuard, Pausable {... */\n  dataSize(sub_0)\n  dup1\n  dataOffset(sub_0)\n  0x00\n  codecopy\n  0x00\n  return\nstop\n\nsub_0: assembly {\n        /* \"oracle/UBI4ALLOracle.sol\":2047:6753  contract UBI4ALLOracle is IUBI4ALLOracle, Ownable, ReentrancyGuard, Pausable {... */\n      mstore(0x40, 0x80)\n      callvalue\n      dup1\n      iszero\n      tag_1\n      jumpi\n      0x00\n      dup1\n      revert\n    tag_1:\n      pop\n      jumpi(tag_2, lt(calldatasize, 0x04))\n      shr(0xe0, calldataload(0x00))\n      dup1\n      0x8456cb59\n      gt\n      tag_21\n      jumpi\n      dup1\n      0xa5b5fb88\n      gt\n      tag_22\n      jumpi\n      dup1\n      0xa5b5fb88\n      eq\n      tag_16\n      jumpi\n      dup1\n      0xbc269850\n      eq\n      tag_17\n      jumpi\n      dup1\n      0xdb7c1ad1\n      eq\n      tag_18\n      jumpi\n      dup1\n      0xf2fde38b\n      eq\n      tag_19\n      jumpi\n      dup1\n      0xf3f699f1\n      eq\n      tag_20\n      jumpi\n      0x00\n      dup1\n      revert\n    tag_22:\n      dup1\n      0x8456cb59\n      eq\n      tag_12\n      jumpi\n      dup1\n      0x8da5cb5b\n      eq\n      tag_13\n      jumpi\n      dup1\n      0x8e15f473\n      eq\n      tag_14\n      jumpi\n      dup1\n      0x9f97acb7\n      eq\n      tag_15\n      jumpi\n      0x00\n      dup1\n      revert\n    tag_21:\n      dup1\n      0x3f4ba83a\n      gt\n      tag_23\n      jumpi\n      dup1\n      0x3f4ba83a\n      eq\n      tag_7\n      jumpi\n      dup1\n      0x5c975abb\n      eq\n      tag_8\n      jumpi\n      dup1\n      0x6301a143\n      eq\n      tag_9\n      jumpi\n      dup1\n      0x715018a6\n      eq\n      tag_10\n      jumpi\n      dup1\n      0x741bef1a\n      eq\n      tag_11\n      jumpi\n      0x00\n      dup1\n      revert\n    tag_23:\n      dup1\n      0x01e9492f\n      eq\n      tag_3\n      jumpi\n      dup1\n      0x1fde7f26\n      eq\n      tag_4\n      jumpi\n      dup1\n      0x2806bce2\n      eq\n      tag_5\n      jumpi\n      dup1\n      0x31d98b3f\n      eq\n      tag_6\n      jumpi\n    tag_2:\n      0x00\n      dup1\n      revert\n        /* \"oracle/UBI4ALLOracle.sol\":6297:6570  function removeOracleSource(bytes32 pair, address source) external view override onlyOwner {... */\n    tag_3:\n      tag_24\n      tag_25\n      calldatasize\n      0x04\n      tag_26\n      jump\t// in\n    tag_25:\n      tag_27\n      jump\t// in\n    tag_24:\n      stop\n        /* \"oracle/UBI4ALLOracle.sol\":4729:4938  function getAggregatedPrice(bytes32 pair) ... */\n    tag_4:\n      tag_28\n      tag_29\n      calldatasize\n      0x04\n      tag_30\n      jump\t// in\n    tag_29:\n      tag_31\n      jump\t// in\n    tag_28:\n      0x40\n      dup1\n      mload\n        /* \"#utility.yul\":924:949   */\n      swap4\n      dup5\n      mstore\n        /* \"#utility.yul\":980:982   */\n      0x20\n        /* \"#utility.yul\":965:983   */\n      dup5\n      add\n        /* \"#utility.yul\":958:992   */\n      swap3\n      swap1\n      swap3\n      mstore\n        /* \"#utility.yul\":1035:1049   */\n      iszero\n        /* \"#utility.yul\":1028:1050   */\n      iszero\n        /* \"#utility.yul\":1008:1026   */\n      swap1\n      dup3\n      add\n        /* \"#utility.yul\":1001:1051   */\n      mstore\n        /* \"#utility.yul\":912:914   */\n      0x60\n        /* \"#utility.yul\":897:915   */\n      add\n        /* \"oracle/UBI4ALLOracle.sol\":4729:4938  function getAggregatedPrice(bytes32 pair) ... */\n    tag_32:\n      mload(0x40)\n      dup1\n      swap2\n      sub\n      swap1\n      return\n        /* \"oracle/UBI4ALLOracle.sol\":4944:5766  function getSourcePrice(address source) ... */\n    tag_5:\n      tag_28\n      tag_35\n      calldatasize\n      0x04\n      tag_36\n      jump\t// in\n    tag_35:\n      tag_37\n      jump\t// in\n        /* \"oracle/UBI4ALLOracle.sol\":2917:3927  function getPrice(bytes32 pair) ... */\n    tag_6:\n      tag_28\n      tag_40\n      calldatasize\n      0x04\n      tag_30\n      jump\t// in\n    tag_40:\n      tag_41\n      jump\t// in\n        /* \"oracle/UBI4ALLOracle.sol\":6686:6751  function unpause() external onlyOwner {... */\n    tag_7:\n      tag_24\n      tag_44\n      jump\t// in\n        /* \"@openzeppelin/contracts/security/Pausable.sol\":1616:1700  function paused() public view virtual returns (bool) {... */\n    tag_8:\n        /* \"@openzeppelin/contracts/security/Pausable.sol\":1686:1693  _paused */\n      and(0xff, sload(0x02))\n        /* \"@openzeppelin/contracts/security/Pausable.sol\":1616:1700  function paused() public view virtual returns (bool) {... */\n      mload(0x40)\n        /* \"#utility.yul\":1418:1432   */\n      swap1\n      iszero\n        /* \"#utility.yul\":1411:1433   */\n      iszero\n        /* \"#utility.yul\":1393:1434   */\n      dup2\n      mstore\n        /* \"#utility.yul\":1381:1383   */\n      0x20\n        /* \"#utility.yul\":1366:1384   */\n      add\n        /* \"@openzeppelin/contracts/security/Pausable.sol\":1616:1700  function paused() public view virtual returns (bool) {... */\n      tag_32\n        /* \"#utility.yul\":1253:1440   */\n      jump\n        /* \"oracle/UBI4ALLOracle.sol\":2439:2497  uint256 public constant PRICE_VALIDITY_PERIOD = 15 minutes */\n    tag_9:\n      tag_49\n        /* \"oracle/UBI4ALLOracle.sol\":2487:2497  15 minutes */\n      0x0384\n        /* \"oracle/UBI4ALLOracle.sol\":2439:2497  uint256 public constant PRICE_VALIDITY_PERIOD = 15 minutes */\n      dup2\n      jump\n    tag_49:\n      mload(0x40)\n        /* \"#utility.yul\":1591:1616   */\n      swap1\n      dup2\n      mstore\n        /* \"#utility.yul\":1579:1581   */\n      0x20\n        /* \"#utility.yul\":1564:1582   */\n      add\n        /* \"oracle/UBI4ALLOracle.sol\":2439:2497  uint256 public constant PRICE_VALIDITY_PERIOD = 15 minutes */\n      tag_32\n        /* \"#utility.yul\":1445:1622   */\n      jump\n        /* \"@openzeppelin/contracts/access/Ownable.sol\":2293:2394  function renounceOwnership() public virtual onlyOwner {... */\n    tag_10:\n      tag_24\n      tag_54\n      jump\t// in\n        /* \"oracle/UBI4ALLOracle.sol\":2277:2315  AggregatorV3Interface public priceFeed */\n    tag_11:\n      sload(0x02)\n      tag_55\n      swap1\n      0x0100\n      swap1\n      div\n      sub(shl(0xa0, 0x01), 0x01)\n      and\n      dup2\n      jump\n    tag_55:\n      mload(0x40)\n      sub(shl(0xa0, 0x01), 0x01)\n        /* \"#utility.yul\":1820:1852   */\n      swap1\n      swap2\n      and\n        /* \"#utility.yul\":1802:1853   */\n      dup2\n      mstore\n        /* \"#utility.yul\":1790:1792   */\n      0x20\n        /* \"#utility.yul\":1775:1793   */\n      add\n        /* \"oracle/UBI4ALLOracle.sol\":2277:2315  AggregatorV3Interface public priceFeed */\n      tag_32\n        /* \"#utility.yul\":1627:1859   */\n      jump\n        /* \"oracle/UBI4ALLOracle.sol\":6576:6680  function pause() external onlyOwner {... */\n    tag_12:\n      tag_24\n      tag_60\n      jump\t// in\n        /* \"@openzeppelin/contracts/access/Ownable.sol\":1638:1723  function owner() public view virtual returns (address) {... */\n    tag_13:\n        /* \"@openzeppelin/contracts/access/Ownable.sol\":1684:1691  address */\n      0x00\n        /* \"@openzeppelin/contracts/access/Ownable.sol\":1710:1716  _owner */\n      sload\n      sub(shl(0xa0, 0x01), 0x01)\n      and\n        /* \"@openzeppelin/contracts/access/Ownable.sol\":1638:1723  function owner() public view virtual returns (address) {... */\n      jump(tag_55)\n        /* \"oracle/UBI4ALLOracle.sol\":4491:4723  function getLatestPrice() external view override returns (int256) {... */\n    tag_14:\n      tag_49\n      tag_66\n      jump\t// in\n        /* \"oracle/UBI4ALLOracle.sol\":5772:6291  function addOracleSource(... */\n    tag_15:\n      tag_24\n      tag_70\n      calldatasize\n      0x04\n      tag_71\n      jump\t// in\n    tag_70:\n      tag_72\n      jump\t// in\n        /* \"oracle/UBI4ALLOracle.sol\":2321:2378  bytes32 public constant EUR_USD_PAIR = bytes32(\"EUR/USD\") */\n    tag_16:\n      tag_49\n      shl(0xca, 0x1155548bd554d1)\n      dup2\n      jump\n        /* \"oracle/UBI4ALLOracle.sol\":2503:2566  uint256 public constant CHAINLINK_STALENESS_THRESHOLD = 1 hours */\n    tag_17:\n      tag_49\n        /* \"oracle/UBI4ALLOracle.sol\":2559:2566  1 hours */\n      0x0e10\n        /* \"oracle/UBI4ALLOracle.sol\":2503:2566  uint256 public constant CHAINLINK_STALENESS_THRESHOLD = 1 hours */\n      dup2\n      jump\n        /* \"oracle/UBI4ALLOracle.sol\":2384:2433  mapping(bytes32 => PriceData) public latestPrices */\n    tag_18:\n      tag_28\n      tag_81\n      calldatasize\n      0x04\n      tag_30\n      jump\t// in\n    tag_81:\n      mstore(0x20, 0x03)\n      0x00\n      swap1\n      dup2\n      mstore\n      0x40\n      swap1\n      keccak256\n      dup1\n      sload\n      0x01\n      dup3\n      add\n      sload\n      0x02\n      swap1\n      swap3\n      add\n      sload\n      swap1\n      swap2\n      swap1\n      0xff\n      and\n      dup4\n      jump\n        /* \"@openzeppelin/contracts/access/Ownable.sol\":2543:2758  function transferOwnership(address newOwner) public virtual onlyOwner {... */\n    tag_19:\n      tag_24\n      tag_85\n      calldatasize\n      0x04\n      tag_36\n      jump\t// in\n    tag_85:\n      tag_86\n      jump\t// in\n        /* \"oracle/UBI4ALLOracle.sol\":3933:4485  function updatePrice(... */\n    tag_20:\n      tag_24\n      tag_88\n      calldatasize\n      0x04\n      tag_89\n      jump\t// in\n    tag_88:\n      tag_90\n      jump\t// in\n        /* \"oracle/UBI4ALLOracle.sol\":6297:6570  function removeOracleSource(bytes32 pair, address source) external view override onlyOwner {... */\n    tag_27:\n        /* \"@openzeppelin/contracts/access/Ownable.sol\":1531:1544  _checkOwner() */\n      tag_92\n        /* \"@openzeppelin/contracts/access/Ownable.sol\":1531:1542  _checkOwner */\n      tag_93\n        /* \"@openzeppelin/contracts/access/Ownable.sol\":1531:1544  _checkOwner() */\n      jump\t// in\n    tag_92:\n      shl(0xca, 0x1155548bd554d1)\n        /* \"oracle/UBI4ALLOracle.sol\":6406:6410  pair */\n      dup3\n        /* \"oracle/UBI4ALLOracle.sol\":6406:6426  pair == EUR_USD_PAIR */\n      eq\n        /* \"oracle/UBI4ALLOracle.sol\":6398:6443  require(pair == EUR_USD_PAIR, \"Invalid pair\") */\n      tag_95\n      jumpi\n      mload(0x40)\n      shl(0xe5, 0x461bcd)\n      dup2\n      mstore\n      0x04\n      add\n      tag_96\n      swap1\n      tag_97\n      jump\t// in\n    tag_96:\n      mload(0x40)\n      dup1\n      swap2\n      sub\n      swap1\n      revert\n    tag_95:\n        /* \"oracle/UBI4ALLOracle.sol\":6479:6488  priceFeed */\n      sload(0x02)\n      sub(shl(0xa0, 0x01), 0x01)\n        /* \"oracle/UBI4ALLOracle.sol\":6461:6489  source == address(priceFeed) */\n      dup3\n      dup2\n      and\n        /* \"oracle/UBI4ALLOracle.sol\":6479:6488  priceFeed */\n      0x0100\n      swap1\n      swap3\n      div\n      and\n        /* \"oracle/UBI4ALLOracle.sol\":6461:6489  source == address(priceFeed) */\n      eq\n        /* \"oracle/UBI4ALLOracle.sol\":6453:6508  require(source == address(priceFeed), \"Invalid source\") */\n      tag_98\n      jumpi\n      mload(0x40)\n      shl(0xe5, 0x461bcd)\n      dup2\n      mstore\n        /* \"#utility.yul\":4357:4359   */\n      0x20\n        /* \"oracle/UBI4ALLOracle.sol\":6453:6508  require(source == address(priceFeed), \"Invalid source\") */\n      0x04\n      dup3\n      add\n        /* \"#utility.yul\":4339:4360   */\n      mstore\n        /* \"#utility.yul\":4396:4398   */\n      0x0e\n        /* \"#utility.yul\":4376:4394   */\n      0x24\n      dup3\n      add\n        /* \"#utility.yul\":4369:4399   */\n      mstore\n      shl(0x90, 0x496e76616c696420736f75726365)\n        /* \"#utility.yul\":4415:4433   */\n      0x44\n      dup3\n      add\n        /* \"#utility.yul\":4408:4452   */\n      mstore\n        /* \"#utility.yul\":4469:4487   */\n      0x64\n      add\n        /* \"oracle/UBI4ALLOracle.sol\":6453:6508  require(source == address(priceFeed), \"Invalid source\") */\n      tag_96\n        /* \"#utility.yul\":4155:4493   */\n      jump\n        /* \"oracle/UBI4ALLOracle.sol\":6453:6508  require(source == address(priceFeed), \"Invalid source\") */\n    tag_98:\n        /* \"oracle/UBI4ALLOracle.sol\":6297:6570  function removeOracleSource(bytes32 pair, address source) external view override onlyOwner {... */\n      pop\n      pop\n      jump\t// out\n        /* \"oracle/UBI4ALLOracle.sol\":4729:4938  function getAggregatedPrice(bytes32 pair) ... */\n    tag_31:\n        /* \"oracle/UBI4ALLOracle.sol\":4839:4860  uint256 weightedPrice */\n      0x00\n        /* \"oracle/UBI4ALLOracle.sol\":4862:4879  uint256 timestamp */\n      dup1\n        /* \"oracle/UBI4ALLOracle.sol\":4881:4893  bool isValid */\n      0x00\n        /* \"oracle/UBI4ALLOracle.sol\":4917:4931  getPrice(pair) */\n      tag_102\n        /* \"oracle/UBI4ALLOracle.sol\":4926:4930  pair */\n      dup5\n        /* \"oracle/UBI4ALLOracle.sol\":4917:4925  getPrice */\n      tag_41\n        /* \"oracle/UBI4ALLOracle.sol\":4917:4931  getPrice(pair) */\n      jump\t// in\n    tag_102:\n        /* \"oracle/UBI4ALLOracle.sol\":4910:4931  return getPrice(pair) */\n      swap3\n      pop\n      swap3\n      pop\n      swap3\n      pop\n        /* \"oracle/UBI4ALLOracle.sol\":4729:4938  function getAggregatedPrice(bytes32 pair) ... */\n    tag_101:\n      swap2\n      swap4\n      swap1\n      swap3\n      pop\n      jump\t// out\n        /* \"oracle/UBI4ALLOracle.sol\":4944:5766  function getSourcePrice(address source) ... */\n    tag_37:\n        /* \"oracle/UBI4ALLOracle.sol\":5141:5150  priceFeed */\n      sload(0x02)\n        /* \"oracle/UBI4ALLOracle.sol\":5052:5065  uint256 price */\n      0x00\n      swap1\n      dup2\n      swap1\n      dup2\n      swap1\n      sub(shl(0xa0, 0x01), 0x01)\n        /* \"oracle/UBI4ALLOracle.sol\":5123:5151  source == address(priceFeed) */\n      dup6\n      dup2\n      and\n        /* \"oracle/UBI4ALLOracle.sol\":5141:5150  priceFeed */\n      0x0100\n      swap1\n      swap3\n      div\n      and\n        /* \"oracle/UBI4ALLOracle.sol\":5123:5151  source == address(priceFeed) */\n      eq\n        /* \"oracle/UBI4ALLOracle.sol\":5115:5170  require(source == address(priceFeed), \"Invalid source\") */\n      tag_104\n      jumpi\n      mload(0x40)\n      shl(0xe5, 0x461bcd)\n      dup2\n      mstore\n        /* \"#utility.yul\":4357:4359   */\n      0x20\n        /* \"oracle/UBI4ALLOracle.sol\":5115:5170  require(source == address(priceFeed), \"Invalid source\") */\n      0x04\n      dup3\n      add\n        /* \"#utility.yul\":4339:4360   */\n      mstore\n        /* \"#utility.yul\":4396:4398   */\n      0x0e\n        /* \"#utility.yul\":4376:4394   */\n      0x24\n      dup3\n      add\n        /* \"#utility.yul\":4369:4399   */\n      mstore\n      shl(0x90, 0x496e76616c696420736f75726365)\n        /* \"#utility.yul\":4415:4433   */\n      0x44\n      dup3\n      add\n        /* \"#utility.yul\":4408:4452   */\n      mstore\n        /* \"#utility.yul\":4469:4487   */\n      0x64\n      add\n        /* \"oracle/UBI4ALLOracle.sol\":5115:5170  require(source == address(priceFeed), \"Invalid source\") */\n      tag_96\n        /* \"#utility.yul\":4155:4493   */\n      jump\n        /* \"oracle/UBI4ALLOracle.sol\":5115:5170  require(source == address(priceFeed), \"Invalid source\") */\n    tag_104:\n        /* \"oracle/UBI4ALLOracle.sol\":5184:5193  priceFeed */\n      0x02\n      0x01\n      swap1\n      sload\n      swap1\n      0x0100\n      exp\n      swap1\n      div\n      sub(shl(0xa0, 0x01), 0x01)\n      and\n      sub(shl(0xa0, 0x01), 0x01)\n        /* \"oracle/UBI4ALLOracle.sol\":5184:5209  priceFeed.latestRoundData */\n      and\n      0xfeaf968c\n        /* \"oracle/UBI4ALLOracle.sol\":5184:5211  priceFeed.latestRoundData() */\n      mload(0x40)\n      dup2\n      0xffffffff\n      and\n      0xe0\n      shl\n      dup2\n      mstore\n      0x04\n      add\n      0xa0\n      mload(0x40)\n      dup1\n      dup4\n      sub\n      dup2\n      dup7\n      gas\n      staticcall\n      swap3\n      pop\n      pop\n      pop\n      dup1\n      iszero\n      tag_106\n      jumpi\n      pop\n      0x40\n      dup1\n      mload\n      0x1f\n      returndatasize\n      swap1\n      dup2\n      add\n      not(0x1f)\n      and\n      dup3\n      add\n      swap1\n      swap3\n      mstore\n      tag_107\n      swap2\n      dup2\n      add\n      swap1\n      tag_108\n      jump\t// in\n    tag_107:\n      0x01\n    tag_106:\n        /* \"oracle/UBI4ALLOracle.sol\":5180:5760  try priceFeed.latestRoundData() returns (... */\n      tag_109\n      jumpi\n      pop\n        /* \"oracle/UBI4ALLOracle.sol\":5737:5738  0 */\n      0x00\n      swap2\n      pop\n      dup2\n      swap1\n      pop\n      dup1\n        /* \"oracle/UBI4ALLOracle.sol\":5729:5749  return (0, 0, false) */\n      jump(tag_101)\n        /* \"oracle/UBI4ALLOracle.sol\":5180:5760  try priceFeed.latestRoundData() returns (... */\n    tag_109:\n        /* \"oracle/UBI4ALLOracle.sol\":5378:5379  0 */\n      0x00\n        /* \"oracle/UBI4ALLOracle.sol\":5368:5374  answer */\n      dup5\n        /* \"oracle/UBI4ALLOracle.sol\":5368:5379  answer <= 0 */\n      sgt\n        /* \"oracle/UBI4ALLOracle.sol\":5364:5415  if (answer <= 0) revert(\"Chainlink: Invalid price\") */\n      tag_114\n      jumpi\n        /* \"oracle/UBI4ALLOracle.sol\":5381:5415  revert(\"Chainlink: Invalid price\") */\n      mload(0x40)\n      shl(0xe5, 0x461bcd)\n      dup2\n      mstore\n        /* \"#utility.yul\":5460:5462   */\n      0x20\n        /* \"oracle/UBI4ALLOracle.sol\":5381:5415  revert(\"Chainlink: Invalid price\") */\n      0x04\n      dup3\n      add\n        /* \"#utility.yul\":5442:5463   */\n      mstore\n        /* \"#utility.yul\":5499:5501   */\n      0x18\n        /* \"#utility.yul\":5479:5497   */\n      0x24\n      dup3\n      add\n        /* \"#utility.yul\":5472:5502   */\n      mstore\n      shl(0x40, 0x436861696e6c696e6b3a20496e76616c6964207072696365)\n        /* \"#utility.yul\":5518:5536   */\n      0x44\n      dup3\n      add\n        /* \"#utility.yul\":5511:5565   */\n      mstore\n        /* \"#utility.yul\":5582:5600   */\n      0x64\n      add\n        /* \"oracle/UBI4ALLOracle.sol\":5381:5415  revert(\"Chainlink: Invalid price\") */\n      tag_96\n        /* \"#utility.yul\":5258:5606   */\n      jump\n        /* \"oracle/UBI4ALLOracle.sol\":5364:5415  if (answer <= 0) revert(\"Chainlink: Invalid price\") */\n    tag_114:\n        /* \"oracle/UBI4ALLOracle.sol\":5433:5442  updatedAt */\n      dup2\n        /* \"oracle/UBI4ALLOracle.sol\":5446:5447  0 */\n      0x00\n        /* \"oracle/UBI4ALLOracle.sol\":5433:5447  updatedAt == 0 */\n      sub\n        /* \"oracle/UBI4ALLOracle.sol\":5429:5488  if (updatedAt == 0) revert(\"Chainlink: Round not complete\") */\n      tag_117\n      jumpi\n        /* \"oracle/UBI4ALLOracle.sol\":5449:5488  revert(\"Chainlink: Round not complete\") */\n      mload(0x40)\n      shl(0xe5, 0x461bcd)\n      dup2\n      mstore\n        /* \"#utility.yul\":5813:5815   */\n      0x20\n        /* \"oracle/UBI4ALLOracle.sol\":5449:5488  revert(\"Chainlink: Round not complete\") */\n      0x04\n      dup3\n      add\n        /* \"#utility.yul\":5795:5816   */\n      mstore\n        /* \"#utility.yul\":5852:5854   */\n      0x1d\n        /* \"#utility.yul\":5832:5850   */\n      0x24\n      dup3\n      add\n        /* \"#utility.yul\":5825:5855   */\n      mstore\n        /* \"#utility.yul\":5891:5922   */\n      0x436861696e6c696e6b3a20526f756e64206e6f7420636f6d706c657465000000\n        /* \"#utility.yul\":5871:5889   */\n      0x44\n      dup3\n      add\n        /* \"#utility.yul\":5864:5923   */\n      mstore\n        /* \"#utility.yul\":5940:5958   */\n      0x64\n      add\n        /* \"oracle/UBI4ALLOracle.sol\":5449:5488  revert(\"Chainlink: Round not complete\") */\n      tag_96\n        /* \"#utility.yul\":5611:5964   */\n      jump\n        /* \"oracle/UBI4ALLOracle.sol\":5429:5488  if (updatedAt == 0) revert(\"Chainlink: Round not complete\") */\n    tag_117:\n        /* \"oracle/UBI4ALLOracle.sol\":2559:2566  1 hours */\n      0x0e10\n        /* \"oracle/UBI4ALLOracle.sol\":5506:5533  block.timestamp - updatedAt */\n      tag_120\n        /* \"oracle/UBI4ALLOracle.sol\":5524:5533  updatedAt */\n      dup4\n        /* \"oracle/UBI4ALLOracle.sol\":5506:5521  block.timestamp */\n      timestamp\n        /* \"oracle/UBI4ALLOracle.sol\":5506:5533  block.timestamp - updatedAt */\n      tag_121\n      jump\t// in\n    tag_120:\n        /* \"oracle/UBI4ALLOracle.sol\":5506:5565  block.timestamp - updatedAt > CHAINLINK_STALENESS_THRESHOLD */\n      gt\n        /* \"oracle/UBI4ALLOracle.sol\":5502:5632  if (block.timestamp - updatedAt > CHAINLINK_STALENESS_THRESHOLD) {... */\n      iszero\n      tag_122\n      jumpi\n        /* \"oracle/UBI4ALLOracle.sol\":5585:5617  revert(\"Chainlink: Stale price\") */\n      mload(0x40)\n      shl(0xe5, 0x461bcd)\n      dup2\n      mstore\n        /* \"#utility.yul\":6401:6403   */\n      0x20\n        /* \"oracle/UBI4ALLOracle.sol\":5585:5617  revert(\"Chainlink: Stale price\") */\n      0x04\n      dup3\n      add\n        /* \"#utility.yul\":6383:6404   */\n      mstore\n        /* \"#utility.yul\":6440:6442   */\n      0x16\n        /* \"#utility.yul\":6420:6438   */\n      0x24\n      dup3\n      add\n        /* \"#utility.yul\":6413:6443   */\n      mstore\n      shl(0x50, 0x436861696e6c696e6b3a205374616c65207072696365)\n        /* \"#utility.yul\":6459:6477   */\n      0x44\n      dup3\n      add\n        /* \"#utility.yul\":6452:6504   */\n      mstore\n        /* \"#utility.yul\":6521:6539   */\n      0x64\n      add\n        /* \"oracle/UBI4ALLOracle.sol\":5585:5617  revert(\"Chainlink: Stale price\") */\n      tag_96\n        /* \"#utility.yul\":6199:6545   */\n      jump\n        /* \"oracle/UBI4ALLOracle.sol\":5502:5632  if (block.timestamp - updatedAt > CHAINLINK_STALENESS_THRESHOLD) {... */\n    tag_122:\n        /* \"oracle/UBI4ALLOracle.sol\":5653:5679  SafeCast.toUint256(answer) */\n      tag_125\n        /* \"oracle/UBI4ALLOracle.sol\":5672:5678  answer */\n      dup5\n        /* \"oracle/UBI4ALLOracle.sol\":5653:5671  SafeCast.toUint256 */\n      tag_126\n        /* \"oracle/UBI4ALLOracle.sol\":5653:5679  SafeCast.toUint256(answer) */\n      jump\t// in\n    tag_125:\n        /* \"oracle/UBI4ALLOracle.sol\":5681:5690  updatedAt */\n      dup3\n        /* \"oracle/UBI4ALLOracle.sol\":5692:5696  true */\n      0x01\n        /* \"oracle/UBI4ALLOracle.sol\":5645:5697  return (SafeCast.toUint256(answer), updatedAt, true) */\n      swap8\n      pop\n      swap8\n      pop\n      swap8\n      pop\n      pop\n      pop\n      pop\n      pop\n      pop\n      jump(tag_101)\n        /* \"oracle/UBI4ALLOracle.sol\":2917:3927  function getPrice(bytes32 pair) ... */\n    tag_41:\n        /* \"oracle/UBI4ALLOracle.sol\":3015:3028  uint256 price */\n      0x00\n        /* \"oracle/UBI4ALLOracle.sol\":3030:3047  uint256 timestamp */\n      dup1\n        /* \"oracle/UBI4ALLOracle.sol\":3049:3061  bool isValid */\n      0x00\n      shl(0xca, 0x1155548bd554d1)\n        /* \"oracle/UBI4ALLOracle.sol\":3086:3090  pair */\n      dup5\n        /* \"oracle/UBI4ALLOracle.sol\":3086:3106  pair == EUR_USD_PAIR */\n      eq\n        /* \"oracle/UBI4ALLOracle.sol\":3078:3123  require(pair == EUR_USD_PAIR, \"Invalid pair\") */\n      tag_128\n      jumpi\n      mload(0x40)\n      shl(0xe5, 0x461bcd)\n      dup2\n      mstore\n      0x04\n      add\n      tag_96\n      swap1\n      tag_97\n      jump\t// in\n    tag_128:\n        /* \"oracle/UBI4ALLOracle.sol\":3133:3154  PriceData memory data */\n      0x00\n        /* \"oracle/UBI4ALLOracle.sol\":3157:3175  latestPrices[pair] */\n      dup5\n      dup2\n      mstore\n        /* \"oracle/UBI4ALLOracle.sol\":3157:3169  latestPrices */\n      0x03\n        /* \"oracle/UBI4ALLOracle.sol\":3157:3175  latestPrices[pair] */\n      0x20\n      swap1\n      dup2\n      mstore\n      0x40\n      swap2\n      dup3\n      swap1\n      keccak256\n        /* \"oracle/UBI4ALLOracle.sol\":3133:3175  PriceData memory data = latestPrices[pair] */\n      dup3\n      mload\n      0x60\n      dup2\n      add\n      dup5\n      mstore\n      dup2\n      sload\n      dup2\n      mstore\n      0x01\n      dup3\n      add\n      sload\n      swap3\n      dup2\n      add\n      swap3\n      swap1\n      swap3\n      mstore\n      0x02\n      add\n      sload\n      0xff\n      and\n      iszero\n      dup1\n      iszero\n      swap3\n      dup3\n      add\n      dup4\n      swap1\n      mstore\n      swap1\n      swap2\n      swap1\n        /* \"oracle/UBI4ALLOracle.sol\":3190:3263  data.isValid && block.timestamp - data.timestamp <= PRICE_VALIDITY_PERIOD */\n      tag_130\n      jumpi\n      pop\n        /* \"oracle/UBI4ALLOracle.sol\":2487:2497  15 minutes */\n      0x0384\n        /* \"oracle/UBI4ALLOracle.sol\":3224:3228  data */\n      dup2\n        /* \"oracle/UBI4ALLOracle.sol\":3224:3238  data.timestamp */\n      0x20\n      add\n      mload\n        /* \"oracle/UBI4ALLOracle.sol\":3206:3221  block.timestamp */\n      timestamp\n        /* \"oracle/UBI4ALLOracle.sol\":3206:3238  block.timestamp - data.timestamp */\n      tag_131\n      swap2\n      swap1\n      tag_121\n      jump\t// in\n    tag_131:\n        /* \"oracle/UBI4ALLOracle.sol\":3206:3263  block.timestamp - data.timestamp <= PRICE_VALIDITY_PERIOD */\n      gt\n      iszero\n        /* \"oracle/UBI4ALLOracle.sol\":3190:3263  data.isValid && block.timestamp - data.timestamp <= PRICE_VALIDITY_PERIOD */\n    tag_130:\n        /* \"oracle/UBI4ALLOracle.sol\":3186:3331  if (data.isValid && block.timestamp - data.timestamp <= PRICE_VALIDITY_PERIOD) {... */\n      iszero\n      tag_132\n      jumpi\n        /* \"oracle/UBI4ALLOracle.sol\":3287:3297  data.price */\n      dup1\n      mload\n        /* \"oracle/UBI4ALLOracle.sol\":3299:3313  data.timestamp */\n      0x20\n      swap1\n      swap2\n      add\n      mload\n        /* \"oracle/UBI4ALLOracle.sol\":3287:3297  data.price */\n      swap1\n      swap4\n      pop\n        /* \"oracle/UBI4ALLOracle.sol\":3299:3313  data.timestamp */\n      swap2\n      pop\n        /* \"oracle/UBI4ALLOracle.sol\":3315:3319  true */\n      0x01\n      swap1\n      pop\n        /* \"oracle/UBI4ALLOracle.sol\":3279:3320  return (data.price, data.timestamp, true) */\n      jump(tag_101)\n        /* \"oracle/UBI4ALLOracle.sol\":3186:3331  if (data.isValid && block.timestamp - data.timestamp <= PRICE_VALIDITY_PERIOD) {... */\n    tag_132:\n        /* \"oracle/UBI4ALLOracle.sol\":3345:3354  priceFeed */\n      0x02\n      0x01\n      swap1\n      sload\n      swap1\n      0x0100\n      exp\n      swap1\n      div\n      sub(shl(0xa0, 0x01), 0x01)\n      and\n      sub(shl(0xa0, 0x01), 0x01)\n        /* \"oracle/UBI4ALLOracle.sol\":3345:3370  priceFeed.latestRoundData */\n      and\n      0xfeaf968c\n        /* \"oracle/UBI4ALLOracle.sol\":3345:3372  priceFeed.latestRoundData() */\n      mload(0x40)\n      dup2\n      0xffffffff\n      and\n      0xe0\n      shl\n      dup2\n      mstore\n      0x04\n      add\n      0xa0\n      mload(0x40)\n      dup1\n      dup4\n      sub\n      dup2\n      dup7\n      gas\n      staticcall\n      swap3\n      pop\n      pop\n      pop\n      dup1\n      iszero\n      tag_133\n      jumpi\n      pop\n      0x40\n      dup1\n      mload\n      0x1f\n      returndatasize\n      swap1\n      dup2\n      add\n      not(0x1f)\n      and\n      dup3\n      add\n      swap1\n      swap3\n      mstore\n      tag_134\n      swap2\n      dup2\n      add\n      swap1\n      tag_108\n      jump\t// in\n    tag_134:\n      0x01\n    tag_133:\n        /* \"oracle/UBI4ALLOracle.sol\":3341:3921  try priceFeed.latestRoundData() returns (... */\n      tag_135\n      jumpi\n        /* \"oracle/UBI4ALLOracle.sol\":3898:3899  0 */\n      0x00\n        /* \"oracle/UBI4ALLOracle.sol\":3901:3902  0 */\n      dup1\n        /* \"oracle/UBI4ALLOracle.sol\":3904:3909  false */\n      0x00\n        /* \"oracle/UBI4ALLOracle.sol\":3890:3910  return (0, 0, false) */\n      swap4\n      pop\n      swap4\n      pop\n      swap4\n      pop\n      pop\n      jump(tag_101)\n        /* \"oracle/UBI4ALLOracle.sol\":3341:3921  try priceFeed.latestRoundData() returns (... */\n    tag_135:\n        /* \"oracle/UBI4ALLOracle.sol\":3539:3540  0 */\n      0x00\n        /* \"oracle/UBI4ALLOracle.sol\":3529:3535  answer */\n      dup5\n        /* \"oracle/UBI4ALLOracle.sol\":3529:3540  answer <= 0 */\n      sgt\n        /* \"oracle/UBI4ALLOracle.sol\":3525:3576  if (answer <= 0) revert(\"Chainlink: Invalid price\") */\n      tag_140\n      jumpi\n        /* \"oracle/UBI4ALLOracle.sol\":3542:3576  revert(\"Chainlink: Invalid price\") */\n      mload(0x40)\n      shl(0xe5, 0x461bcd)\n      dup2\n      mstore\n        /* \"#utility.yul\":5460:5462   */\n      0x20\n        /* \"oracle/UBI4ALLOracle.sol\":3542:3576  revert(\"Chainlink: Invalid price\") */\n      0x04\n      dup3\n      add\n        /* \"#utility.yul\":5442:5463   */\n      mstore\n        /* \"#utility.yul\":5499:5501   */\n      0x18\n        /* \"#utility.yul\":5479:5497   */\n      0x24\n      dup3\n      add\n        /* \"#utility.yul\":5472:5502   */\n      mstore\n      shl(0x40, 0x436861696e6c696e6b3a20496e76616c6964207072696365)\n        /* \"#utility.yul\":5518:5536   */\n      0x44\n      dup3\n      add\n        /* \"#utility.yul\":5511:5565   */\n      mstore\n        /* \"#utility.yul\":5582:5600   */\n      0x64\n      add\n        /* \"oracle/UBI4ALLOracle.sol\":3542:3576  revert(\"Chainlink: Invalid price\") */\n      tag_96\n        /* \"#utility.yul\":5258:5606   */\n      jump\n        /* \"oracle/UBI4ALLOracle.sol\":3525:3576  if (answer <= 0) revert(\"Chainlink: Invalid price\") */\n    tag_140:\n        /* \"oracle/UBI4ALLOracle.sol\":3594:3603  updatedAt */\n      dup2\n        /* \"oracle/UBI4ALLOracle.sol\":3607:3608  0 */\n      0x00\n        /* \"oracle/UBI4ALLOracle.sol\":3594:3608  updatedAt == 0 */\n      sub\n        /* \"oracle/UBI4ALLOracle.sol\":3590:3649  if (updatedAt == 0) revert(\"Chainlink: Round not complete\") */\n      tag_142\n      jumpi\n        /* \"oracle/UBI4ALLOracle.sol\":3610:3649  revert(\"Chainlink: Round not complete\") */\n      mload(0x40)\n      shl(0xe5, 0x461bcd)\n      dup2\n      mstore\n        /* \"#utility.yul\":5813:5815   */\n      0x20\n        /* \"oracle/UBI4ALLOracle.sol\":3610:3649  revert(\"Chainlink: Round not complete\") */\n      0x04\n      dup3\n      add\n        /* \"#utility.yul\":5795:5816   */\n      mstore\n        /* \"#utility.yul\":5852:5854   */\n      0x1d\n        /* \"#utility.yul\":5832:5850   */\n      0x24\n      dup3\n      add\n        /* \"#utility.yul\":5825:5855   */\n      mstore\n        /* \"#utility.yul\":5891:5922   */\n      0x436861696e6c696e6b3a20526f756e64206e6f7420636f6d706c657465000000\n        /* \"#utility.yul\":5871:5889   */\n      0x44\n      dup3\n      add\n        /* \"#utility.yul\":5864:5923   */\n      mstore\n        /* \"#utility.yul\":5940:5958   */\n      0x64\n      add\n        /* \"oracle/UBI4ALLOracle.sol\":3610:3649  revert(\"Chainlink: Round not complete\") */\n      tag_96\n        /* \"#utility.yul\":5611:5964   */\n      jump\n        /* \"oracle/UBI4ALLOracle.sol\":3590:3649  if (updatedAt == 0) revert(\"Chainlink: Round not complete\") */\n    tag_142:\n        /* \"oracle/UBI4ALLOracle.sol\":2559:2566  1 hours */\n      0x0e10\n        /* \"oracle/UBI4ALLOracle.sol\":3667:3694  block.timestamp - updatedAt */\n      tag_144\n        /* \"oracle/UBI4ALLOracle.sol\":3685:3694  updatedAt */\n      dup4\n        /* \"oracle/UBI4ALLOracle.sol\":3667:3682  block.timestamp */\n      timestamp\n        /* \"oracle/UBI4ALLOracle.sol\":3667:3694  block.timestamp - updatedAt */\n      tag_121\n      jump\t// in\n    tag_144:\n        /* \"oracle/UBI4ALLOracle.sol\":3667:3726  block.timestamp - updatedAt > CHAINLINK_STALENESS_THRESHOLD */\n      gt\n        /* \"oracle/UBI4ALLOracle.sol\":3663:3793  if (block.timestamp - updatedAt > CHAINLINK_STALENESS_THRESHOLD) {... */\n      iszero\n      tag_145\n      jumpi\n        /* \"oracle/UBI4ALLOracle.sol\":3746:3778  revert(\"Chainlink: Stale price\") */\n      mload(0x40)\n      shl(0xe5, 0x461bcd)\n      dup2\n      mstore\n        /* \"#utility.yul\":6401:6403   */\n      0x20\n        /* \"oracle/UBI4ALLOracle.sol\":3746:3778  revert(\"Chainlink: Stale price\") */\n      0x04\n      dup3\n      add\n        /* \"#utility.yul\":6383:6404   */\n      mstore\n        /* \"#utility.yul\":6440:6442   */\n      0x16\n        /* \"#utility.yul\":6420:6438   */\n      0x24\n      dup3\n      add\n        /* \"#utility.yul\":6413:6443   */\n      mstore\n      shl(0x50, 0x436861696e6c696e6b3a205374616c65207072696365)\n        /* \"#utility.yul\":6459:6477   */\n      0x44\n      dup3\n      add\n        /* \"#utility.yul\":6452:6504   */\n      mstore\n        /* \"#utility.yul\":6521:6539   */\n      0x64\n      add\n        /* \"oracle/UBI4ALLOracle.sol\":3746:3778  revert(\"Chainlink: Stale price\") */\n      tag_96\n        /* \"#utility.yul\":6199:6545   */\n      jump\n        /* \"oracle/UBI4ALLOracle.sol\":3663:3793  if (block.timestamp - updatedAt > CHAINLINK_STALENESS_THRESHOLD) {... */\n    tag_145:\n        /* \"oracle/UBI4ALLOracle.sol\":3814:3840  SafeCast.toUint256(answer) */\n      tag_147\n        /* \"oracle/UBI4ALLOracle.sol\":3833:3839  answer */\n      dup5\n        /* \"oracle/UBI4ALLOracle.sol\":3814:3832  SafeCast.toUint256 */\n      tag_126\n        /* \"oracle/UBI4ALLOracle.sol\":3814:3840  SafeCast.toUint256(answer) */\n      jump\t// in\n    tag_147:\n        /* \"oracle/UBI4ALLOracle.sol\":3842:3851  updatedAt */\n      dup3\n        /* \"oracle/UBI4ALLOracle.sol\":3853:3857  true */\n      0x01\n        /* \"oracle/UBI4ALLOracle.sol\":3806:3858  return (SafeCast.toUint256(answer), updatedAt, true) */\n      swap9\n      pop\n      swap9\n      pop\n      swap9\n      pop\n      pop\n      pop\n      pop\n      pop\n      pop\n      pop\n      jump(tag_101)\n        /* \"oracle/UBI4ALLOracle.sol\":6686:6751  function unpause() external onlyOwner {... */\n    tag_44:\n        /* \"@openzeppelin/contracts/access/Ownable.sol\":1531:1544  _checkOwner() */\n      tag_149\n        /* \"@openzeppelin/contracts/access/Ownable.sol\":1531:1542  _checkOwner */\n      tag_93\n        /* \"@openzeppelin/contracts/access/Ownable.sol\":1531:1544  _checkOwner() */\n      jump\t// in\n    tag_149:\n        /* \"oracle/UBI4ALLOracle.sol\":6734:6744  _unpause() */\n      tag_151\n        /* \"oracle/UBI4ALLOracle.sol\":6734:6742  _unpause */\n      tag_152\n        /* \"oracle/UBI4ALLOracle.sol\":6734:6744  _unpause() */\n      jump\t// in\n    tag_151:\n        /* \"oracle/UBI4ALLOracle.sol\":6686:6751  function unpause() external onlyOwner {... */\n      jump\t// out\n        /* \"@openzeppelin/contracts/access/Ownable.sol\":2293:2394  function renounceOwnership() public virtual onlyOwner {... */\n    tag_54:\n        /* \"@openzeppelin/contracts/access/Ownable.sol\":1531:1544  _checkOwner() */\n      tag_155\n        /* \"@openzeppelin/contracts/access/Ownable.sol\":1531:1542  _checkOwner */\n      tag_93\n        /* \"@openzeppelin/contracts/access/Ownable.sol\":1531:1544  _checkOwner() */\n      jump\t// in\n    tag_155:\n        /* \"@openzeppelin/contracts/access/Ownable.sol\":2357:2387  _transferOwnership(address(0)) */\n      tag_151\n        /* \"@openzeppelin/contracts/access/Ownable.sol\":2384:2385  0 */\n      0x00\n        /* \"@openzeppelin/contracts/access/Ownable.sol\":2357:2375  _transferOwnership */\n      tag_158\n        /* \"@openzeppelin/contracts/access/Ownable.sol\":2357:2387  _transferOwnership(address(0)) */\n      jump\t// in\n        /* \"oracle/UBI4ALLOracle.sol\":6576:6680  function pause() external onlyOwner {... */\n    tag_60:\n        /* \"@openzeppelin/contracts/access/Ownable.sol\":1531:1544  _checkOwner() */\n      tag_160\n        /* \"@openzeppelin/contracts/access/Ownable.sol\":1531:1542  _checkOwner */\n      tag_93\n        /* \"@openzeppelin/contracts/access/Ownable.sol\":1531:1544  _checkOwner() */\n      jump\t// in\n    tag_160:\n        /* \"oracle/UBI4ALLOracle.sol\":6622:6630  _pause() */\n      tag_162\n        /* \"oracle/UBI4ALLOracle.sol\":6622:6628  _pause */\n      tag_163\n        /* \"oracle/UBI4ALLOracle.sol\":6622:6630  _pause() */\n      jump\t// in\n    tag_162:\n        /* \"oracle/UBI4ALLOracle.sol\":6645:6673  EmergencyPause(EUR_USD_PAIR) */\n      mload(0x40)\n      shl(0xca, 0x1155548bd554d1)\n        /* \"oracle/UBI4ALLOracle.sol\":2360:2378  bytes32(\"EUR/USD\") */\n      swap1\n        /* \"oracle/UBI4ALLOracle.sol\":6645:6673  EmergencyPause(EUR_USD_PAIR) */\n      0xd373a1ac37410a4da6def2d7f3f2e704aca3e95e2e251322a031eedda7eb686c\n      swap1\n      0x00\n      swap1\n      log2\n        /* \"oracle/UBI4ALLOracle.sol\":6576:6680  function pause() external onlyOwner {... */\n      jump\t// out\n        /* \"oracle/UBI4ALLOracle.sol\":4491:4723  function getLatestPrice() external view override returns (int256) {... */\n    tag_66:\n        /* \"oracle/UBI4ALLOracle.sol\":4549:4555  int256 */\n      0x00\n        /* \"oracle/UBI4ALLOracle.sol\":4568:4581  uint256 price */\n      dup1\n        /* \"oracle/UBI4ALLOracle.sol\":4585:4597  bool isValid */\n      0x00\n        /* \"oracle/UBI4ALLOracle.sol\":4601:4623  getPrice(EUR_USD_PAIR) */\n      tag_166\n      shl(0xca, 0x1155548bd554d1)\n        /* \"oracle/UBI4ALLOracle.sol\":4601:4609  getPrice */\n      tag_41\n        /* \"oracle/UBI4ALLOracle.sol\":4601:4623  getPrice(EUR_USD_PAIR) */\n      jump\t// in\n    tag_166:\n        /* \"oracle/UBI4ALLOracle.sol\":4567:4623  (uint256 price, , bool isValid) = getPrice(EUR_USD_PAIR) */\n      swap3\n      pop\n      pop\n      swap2\n      pop\n        /* \"oracle/UBI4ALLOracle.sol\":4641:4648  isValid */\n      dup1\n        /* \"oracle/UBI4ALLOracle.sol\":4633:4675  require(isValid, \"Invalid or stale price\") */\n      tag_167\n      jumpi\n      mload(0x40)\n      shl(0xe5, 0x461bcd)\n      dup2\n      mstore\n        /* \"#utility.yul\":6752:6754   */\n      0x20\n        /* \"oracle/UBI4ALLOracle.sol\":4633:4675  require(isValid, \"Invalid or stale price\") */\n      0x04\n      dup3\n      add\n        /* \"#utility.yul\":6734:6755   */\n      mstore\n        /* \"#utility.yul\":6791:6793   */\n      0x16\n        /* \"#utility.yul\":6771:6789   */\n      0x24\n      dup3\n      add\n        /* \"#utility.yul\":6764:6794   */\n      mstore\n      shl(0x50, 0x496e76616c6964206f72207374616c65207072696365)\n        /* \"#utility.yul\":6810:6828   */\n      0x44\n      dup3\n      add\n        /* \"#utility.yul\":6803:6855   */\n      mstore\n        /* \"#utility.yul\":6872:6890   */\n      0x64\n      add\n        /* \"oracle/UBI4ALLOracle.sol\":4633:4675  require(isValid, \"Invalid or stale price\") */\n      tag_96\n        /* \"#utility.yul\":6550:6896   */\n      jump\n        /* \"oracle/UBI4ALLOracle.sol\":4633:4675  require(isValid, \"Invalid or stale price\") */\n    tag_167:\n        /* \"oracle/UBI4ALLOracle.sol\":4692:4716  SafeCast.toInt256(price) */\n      tag_170\n        /* \"oracle/UBI4ALLOracle.sol\":4710:4715  price */\n      dup3\n        /* \"oracle/UBI4ALLOracle.sol\":4692:4709  SafeCast.toInt256 */\n      tag_171\n        /* \"oracle/UBI4ALLOracle.sol\":4692:4716  SafeCast.toInt256(price) */\n      jump\t// in\n    tag_170:\n        /* \"oracle/UBI4ALLOracle.sol\":4685:4716  return SafeCast.toInt256(price) */\n      swap3\n      pop\n      pop\n      pop\n        /* \"oracle/UBI4ALLOracle.sol\":4491:4723  function getLatestPrice() external view override returns (int256) {... */\n      swap1\n      jump\t// out\n        /* \"oracle/UBI4ALLOracle.sol\":5772:6291  function addOracleSource(... */\n    tag_72:\n        /* \"@openzeppelin/contracts/access/Ownable.sol\":1531:1544  _checkOwner() */\n      tag_173\n        /* \"@openzeppelin/contracts/access/Ownable.sol\":1531:1542  _checkOwner */\n      tag_93\n        /* \"@openzeppelin/contracts/access/Ownable.sol\":1531:1544  _checkOwner() */\n      jump\t// in\n    tag_173:\n        /* \"@openzeppelin/contracts/security/ReentrancyGuard.sol\":2262:2283  _nonReentrantBefore() */\n      tag_175\n        /* \"@openzeppelin/contracts/security/ReentrancyGuard.sol\":2262:2281  _nonReentrantBefore */\n      tag_176\n        /* \"@openzeppelin/contracts/security/ReentrancyGuard.sol\":2262:2283  _nonReentrantBefore() */\n      jump\t// in\n    tag_175:\n      shl(0xca, 0x1155548bd554d1)\n        /* \"oracle/UBI4ALLOracle.sol\":6036:6040  pair */\n      dup7\n        /* \"oracle/UBI4ALLOracle.sol\":6036:6056  pair == EUR_USD_PAIR */\n      eq\n        /* \"oracle/UBI4ALLOracle.sol\":6028:6073  require(pair == EUR_USD_PAIR, \"Invalid pair\") */\n      tag_178\n      jumpi\n      mload(0x40)\n      shl(0xe5, 0x461bcd)\n      dup2\n      mstore\n      0x04\n      add\n      tag_96\n      swap1\n      tag_97\n      jump\t// in\n    tag_178:\n      sub(shl(0xa0, 0x01), 0x01)\n        /* \"oracle/UBI4ALLOracle.sol\":6091:6111  source != address(0) */\n      dup6\n      and\n        /* \"oracle/UBI4ALLOracle.sol\":6083:6138  require(source != address(0), \"Invalid source address\") */\n      tag_180\n      jumpi\n      mload(0x40)\n      shl(0xe5, 0x461bcd)\n      dup2\n      mstore\n        /* \"#utility.yul\":7103:7105   */\n      0x20\n        /* \"oracle/UBI4ALLOracle.sol\":6083:6138  require(source != address(0), \"Invalid source address\") */\n      0x04\n      dup3\n      add\n        /* \"#utility.yul\":7085:7106   */\n      mstore\n        /* \"#utility.yul\":7142:7144   */\n      0x16\n        /* \"#utility.yul\":7122:7140   */\n      0x24\n      dup3\n      add\n        /* \"#utility.yul\":7115:7145   */\n      mstore\n      shl(0x50, 0x496e76616c696420736f757263652061646472657373)\n        /* \"#utility.yul\":7161:7179   */\n      0x44\n      dup3\n      add\n        /* \"#utility.yul\":7154:7206   */\n      mstore\n        /* \"#utility.yul\":7223:7241   */\n      0x64\n      add\n        /* \"oracle/UBI4ALLOracle.sol\":6083:6138  require(source != address(0), \"Invalid source address\") */\n      tag_96\n        /* \"#utility.yul\":6901:7247   */\n      jump\n        /* \"oracle/UBI4ALLOracle.sol\":6083:6138  require(source != address(0), \"Invalid source address\") */\n    tag_180:\n        /* \"oracle/UBI4ALLOracle.sol\":6175:6184  priceFeed */\n      0x02\n      dup1\n      sload\n      sub(shl(0xa0, 0x01), 0x01)\n        /* \"oracle/UBI4ALLOracle.sol\":6195:6236  priceFeed = AggregatorV3Interface(source) */\n      dup8\n      dup2\n      and\n        /* \"oracle/UBI4ALLOracle.sol\":6175:6184  priceFeed */\n      0x0100\n        /* \"oracle/UBI4ALLOracle.sol\":6195:6236  priceFeed = AggregatorV3Interface(source) */\n      dup2\n      dup2\n      mul\n      not(sub(shl(0xa8, 0x01), 0x0100))\n      dup6\n      and\n      or\n      swap1\n      swap5\n      sstore\n        /* \"oracle/UBI4ALLOracle.sol\":6251:6284  PriceFeedUpdated(oldFeed, source) */\n      mload(0x40)\n        /* \"oracle/UBI4ALLOracle.sol\":6175:6184  priceFeed */\n      swap4\n      swap1\n      swap3\n      div\n      and\n      swap2\n      dup3\n      swap1\n        /* \"oracle/UBI4ALLOracle.sol\":6251:6284  PriceFeedUpdated(oldFeed, source) */\n      0xa8abe0398416476db5b05737cd4da3b3cbde5012d978a6a6c3fd49d321753536\n      swap1\n        /* \"oracle/UBI4ALLOracle.sol\":6149:6164  address oldFeed */\n      0x00\n      swap1\n        /* \"oracle/UBI4ALLOracle.sol\":6251:6284  PriceFeedUpdated(oldFeed, source) */\n      log3\n        /* \"oracle/UBI4ALLOracle.sol\":6018:6291  {... */\n      pop\n        /* \"@openzeppelin/contracts/security/ReentrancyGuard.sol\":2304:2324  _nonReentrantAfter() */\n      tag_183\n        /* \"@openzeppelin/contracts/security/ReentrancyGuard.sol\":1717:1718  1 */\n      0x01\n        /* \"@openzeppelin/contracts/security/ReentrancyGuard.sol\":2810:2832  _status = _NOT_ENTERED */\n      dup1\n      sstore\n        /* \"@openzeppelin/contracts/security/ReentrancyGuard.sol\":2630:2839  function _nonReentrantAfter() private {... */\n      jump\n        /* \"@openzeppelin/contracts/security/ReentrancyGuard.sol\":2304:2324  _nonReentrantAfter() */\n    tag_183:\n        /* \"oracle/UBI4ALLOracle.sol\":5772:6291  function addOracleSource(... */\n      pop\n      pop\n      pop\n      pop\n      pop\n      pop\n      jump\t// out\n        /* \"@openzeppelin/contracts/access/Ownable.sol\":2543:2758  function transferOwnership(address newOwner) public virtual onlyOwner {... */\n    tag_86:\n        /* \"@openzeppelin/contracts/access/Ownable.sol\":1531:1544  _checkOwner() */\n      tag_186\n        /* \"@openzeppelin/contracts/access/Ownable.sol\":1531:1542  _checkOwner */\n      tag_93\n        /* \"@openzeppelin/contracts/access/Ownable.sol\":1531:1544  _checkOwner() */\n      jump\t// in\n    tag_186:\n      sub(shl(0xa0, 0x01), 0x01)\n        /* \"@openzeppelin/contracts/access/Ownable.sol\":2627:2649  newOwner == address(0) */\n      dup2\n      and\n        /* \"@openzeppelin/contracts/access/Ownable.sol\":2623:2714  if (newOwner == address(0)) {... */\n      tag_188\n      jumpi\n        /* \"@openzeppelin/contracts/access/Ownable.sol\":2672:2703  OwnableInvalidOwner(address(0)) */\n      mload(0x40)\n      shl(0xe0, 0x1e4fbdf7)\n      dup2\n      mstore\n        /* \"@openzeppelin/contracts/access/Ownable.sol\":2700:2701  0 */\n      0x00\n        /* \"@openzeppelin/contracts/access/Ownable.sol\":2672:2703  OwnableInvalidOwner(address(0)) */\n      0x04\n      dup3\n      add\n        /* \"#utility.yul\":1802:1853   */\n      mstore\n        /* \"#utility.yul\":1775:1793   */\n      0x24\n      add\n        /* \"@openzeppelin/contracts/access/Ownable.sol\":2672:2703  OwnableInvalidOwner(address(0)) */\n      tag_96\n        /* \"#utility.yul\":1627:1859   */\n      jump\n        /* \"@openzeppelin/contracts/access/Ownable.sol\":2623:2714  if (newOwner == address(0)) {... */\n    tag_188:\n        /* \"@openzeppelin/contracts/access/Ownable.sol\":2723:2751  _transferOwnership(newOwner) */\n      tag_190\n        /* \"@openzeppelin/contracts/access/Ownable.sol\":2742:2750  newOwner */\n      dup2\n        /* \"@openzeppelin/contracts/access/Ownable.sol\":2723:2741  _transferOwnership */\n      tag_158\n        /* \"@openzeppelin/contracts/access/Ownable.sol\":2723:2751  _transferOwnership(newOwner) */\n      jump\t// in\n    tag_190:\n        /* \"@openzeppelin/contracts/access/Ownable.sol\":2543:2758  function transferOwnership(address newOwner) public virtual onlyOwner {... */\n      pop\n      jump\t// out\n        /* \"oracle/UBI4ALLOracle.sol\":3933:4485  function updatePrice(... */\n    tag_90:\n        /* \"@openzeppelin/contracts/access/Ownable.sol\":1531:1544  _checkOwner() */\n      tag_192\n        /* \"@openzeppelin/contracts/access/Ownable.sol\":1531:1542  _checkOwner */\n      tag_93\n        /* \"@openzeppelin/contracts/access/Ownable.sol\":1531:1544  _checkOwner() */\n      jump\t// in\n    tag_192:\n        /* \"@openzeppelin/contracts/security/Pausable.sol\":1240:1259  _requireNotPaused() */\n      tag_194\n        /* \"@openzeppelin/contracts/security/Pausable.sol\":1240:1257  _requireNotPaused */\n      tag_195\n        /* \"@openzeppelin/contracts/security/Pausable.sol\":1240:1259  _requireNotPaused() */\n      jump\t// in\n    tag_194:\n        /* \"@openzeppelin/contracts/security/ReentrancyGuard.sol\":2262:2283  _nonReentrantBefore() */\n      tag_197\n        /* \"@openzeppelin/contracts/security/ReentrancyGuard.sol\":2262:2281  _nonReentrantBefore */\n      tag_176\n        /* \"@openzeppelin/contracts/security/ReentrancyGuard.sol\":2262:2283  _nonReentrantBefore() */\n      jump\t// in\n    tag_197:\n      shl(0xca, 0x1155548bd554d1)\n        /* \"oracle/UBI4ALLOracle.sol\":4137:4141  pair */\n      dup5\n        /* \"oracle/UBI4ALLOracle.sol\":4137:4157  pair == EUR_USD_PAIR */\n      eq\n        /* \"oracle/UBI4ALLOracle.sol\":4129:4174  require(pair == EUR_USD_PAIR, \"Invalid pair\") */\n      tag_199\n      jumpi\n      mload(0x40)\n      shl(0xe5, 0x461bcd)\n      dup2\n      mstore\n      0x04\n      add\n      tag_96\n      swap1\n      tag_97\n      jump\t// in\n    tag_199:\n        /* \"oracle/UBI4ALLOracle.sol\":4205:4220  block.timestamp */\n      timestamp\n        /* \"oracle/UBI4ALLOracle.sol\":4192:4201  timestamp */\n      dup3\n        /* \"oracle/UBI4ALLOracle.sol\":4192:4220  timestamp <= block.timestamp */\n      gt\n      iszero\n        /* \"oracle/UBI4ALLOracle.sol\":4184:4241  require(timestamp <= block.timestamp, \"Future timestamp\") */\n      tag_201\n      jumpi\n      mload(0x40)\n      shl(0xe5, 0x461bcd)\n      dup2\n      mstore\n        /* \"#utility.yul\":7454:7456   */\n      0x20\n        /* \"oracle/UBI4ALLOracle.sol\":4184:4241  require(timestamp <= block.timestamp, \"Future timestamp\") */\n      0x04\n      dup3\n      add\n        /* \"#utility.yul\":7436:7457   */\n      mstore\n        /* \"#utility.yul\":7493:7495   */\n      0x10\n        /* \"#utility.yul\":7473:7491   */\n      0x24\n      dup3\n      add\n        /* \"#utility.yul\":7466:7496   */\n      mstore\n      shl(0x84, 0x04675747572652074696d657374616d7)\n        /* \"#utility.yul\":7512:7530   */\n      0x44\n      dup3\n      add\n        /* \"#utility.yul\":7505:7551   */\n      mstore\n        /* \"#utility.yul\":7568:7586   */\n      0x64\n      add\n        /* \"oracle/UBI4ALLOracle.sol\":4184:4241  require(timestamp <= block.timestamp, \"Future timestamp\") */\n      tag_96\n        /* \"#utility.yul\":7252:7592   */\n      jump\n        /* \"oracle/UBI4ALLOracle.sol\":4184:4241  require(timestamp <= block.timestamp, \"Future timestamp\") */\n    tag_201:\n        /* \"oracle/UBI4ALLOracle.sol\":4267:4268  0 */\n      0x00\n        /* \"oracle/UBI4ALLOracle.sol\":4259:4264  price */\n      dup4\n        /* \"oracle/UBI4ALLOracle.sol\":4259:4268  price > 0 */\n      gt\n        /* \"oracle/UBI4ALLOracle.sol\":4251:4286  require(price > 0, \"Invalid price\") */\n      tag_204\n      jumpi\n      mload(0x40)\n      shl(0xe5, 0x461bcd)\n      dup2\n      mstore\n        /* \"#utility.yul\":7799:7801   */\n      0x20\n        /* \"oracle/UBI4ALLOracle.sol\":4251:4286  require(price > 0, \"Invalid price\") */\n      0x04\n      dup3\n      add\n        /* \"#utility.yul\":7781:7802   */\n      mstore\n        /* \"#utility.yul\":7838:7840   */\n      0x0d\n        /* \"#utility.yul\":7818:7836   */\n      0x24\n      dup3\n      add\n        /* \"#utility.yul\":7811:7841   */\n      mstore\n      shl(0x98, 0x496e76616c6964207072696365)\n        /* \"#utility.yul\":7857:7875   */\n      0x44\n      dup3\n      add\n        /* \"#utility.yul\":7850:7893   */\n      mstore\n        /* \"#utility.yul\":7910:7928   */\n      0x64\n      add\n        /* \"oracle/UBI4ALLOracle.sol\":4251:4286  require(price > 0, \"Invalid price\") */\n      tag_96\n        /* \"#utility.yul\":7597:7934   */\n      jump\n        /* \"oracle/UBI4ALLOracle.sol\":4251:4286  require(price > 0, \"Invalid price\") */\n    tag_204:\n        /* \"oracle/UBI4ALLOracle.sol\":4318:4426  PriceData({... */\n      0x40\n      dup1\n      mload\n      0x60\n      dup2\n      add\n      dup3\n      mstore\n      dup5\n      dup2\n      mstore\n      0x20\n      dup1\n      dup3\n      add\n      dup6\n      dup2\n      mstore\n        /* \"oracle/UBI4ALLOracle.sol\":4411:4415  true */\n      0x01\n        /* \"oracle/UBI4ALLOracle.sol\":4318:4426  PriceData({... */\n      dup4\n      dup6\n      add\n      dup2\n      dup2\n      mstore\n      0x00\n        /* \"oracle/UBI4ALLOracle.sol\":4297:4315  latestPrices[pair] */\n      dup11\n      dup2\n      mstore\n        /* \"oracle/UBI4ALLOracle.sol\":4297:4309  latestPrices */\n      0x03\n        /* \"oracle/UBI4ALLOracle.sol\":4297:4315  latestPrices[pair] */\n      dup6\n      mstore\n      dup7\n      swap1\n      keccak256\n        /* \"oracle/UBI4ALLOracle.sol\":4297:4426  latestPrices[pair] = PriceData({... */\n      swap5\n      mload\n      dup6\n      sstore\n      swap2\n      mload\n      swap1\n      dup5\n      add\n      sstore\n      mload\n      0x02\n      swap1\n      swap3\n      add\n      dup1\n      sload\n      not(0xff)\n      and\n      swap3\n      iszero\n      iszero\n      swap3\n      swap1\n      swap3\n      or\n      swap1\n      swap2\n      sstore\n        /* \"oracle/UBI4ALLOracle.sol\":4442:4478  PriceUpdated(pair, price, timestamp) */\n      dup2\n      mload\n        /* \"#utility.yul\":8113:8138   */\n      dup6\n      dup2\n      mstore\n        /* \"#utility.yul\":8154:8172   */\n      swap1\n      dup2\n      add\n        /* \"#utility.yul\":8147:8181   */\n      dup5\n      swap1\n      mstore\n        /* \"oracle/UBI4ALLOracle.sol\":4297:4315  latestPrices[pair] */\n      dup6\n      swap2\n        /* \"oracle/UBI4ALLOracle.sol\":4442:4478  PriceUpdated(pair, price, timestamp) */\n      0xbcd10d64fce9dcf9568572ed92e371df336d32649e8960a045c9548794a44b26\n      swap2\n        /* \"#utility.yul\":8086:8104   */\n      add\n        /* \"oracle/UBI4ALLOracle.sol\":4442:4478  PriceUpdated(pair, price, timestamp) */\n      mload(0x40)\n      dup1\n      swap2\n      sub\n      swap1\n      log2\n        /* \"@openzeppelin/contracts/security/ReentrancyGuard.sol\":2304:2324  _nonReentrantAfter() */\n      tag_209\n        /* \"@openzeppelin/contracts/security/ReentrancyGuard.sol\":1717:1718  1 */\n      0x01\n        /* \"@openzeppelin/contracts/security/ReentrancyGuard.sol\":2810:2832  _status = _NOT_ENTERED */\n      dup1\n      sstore\n        /* \"@openzeppelin/contracts/security/ReentrancyGuard.sol\":2630:2839  function _nonReentrantAfter() private {... */\n      jump\n        /* \"@openzeppelin/contracts/security/ReentrancyGuard.sol\":2304:2324  _nonReentrantAfter() */\n    tag_209:\n        /* \"oracle/UBI4ALLOracle.sol\":3933:4485  function updatePrice(... */\n      pop\n      pop\n      pop\n      pop\n      jump\t// out\n        /* \"@openzeppelin/contracts/access/Ownable.sol\":1796:1958  function _checkOwner() internal view virtual {... */\n    tag_93:\n        /* \"@openzeppelin/contracts/access/Ownable.sol\":1684:1691  address */\n      0x00\n        /* \"@openzeppelin/contracts/access/Ownable.sol\":1710:1716  _owner */\n      sload\n      sub(shl(0xa0, 0x01), 0x01)\n      and\n        /* \"@openzeppelin/contracts/utils/Context.sol\":735:745  msg.sender */\n      caller\n        /* \"@openzeppelin/contracts/access/Ownable.sol\":1855:1878  owner() != _msgSender() */\n      eq\n        /* \"@openzeppelin/contracts/access/Ownable.sol\":1851:1952  if (owner() != _msgSender()) {... */\n      tag_151\n      jumpi\n        /* \"@openzeppelin/contracts/access/Ownable.sol\":1901:1941  OwnableUnauthorizedAccount(_msgSender()) */\n      mload(0x40)\n      shl(0xe0, 0x118cdaa7)\n      dup2\n      mstore\n        /* \"@openzeppelin/contracts/utils/Context.sol\":735:745  msg.sender */\n      caller\n        /* \"@openzeppelin/contracts/access/Ownable.sol\":1901:1941  OwnableUnauthorizedAccount(_msgSender()) */\n      0x04\n      dup3\n      add\n        /* \"#utility.yul\":1802:1853   */\n      mstore\n        /* \"#utility.yul\":1775:1793   */\n      0x24\n      add\n        /* \"@openzeppelin/contracts/access/Ownable.sol\":1901:1941  OwnableUnauthorizedAccount(_msgSender()) */\n      tag_96\n        /* \"#utility.yul\":1627:1859   */\n      jump\n        /* \"@openzeppelin/contracts/utils/math/SafeCast.sol\":17171:17364  function toUint256(int256 value) internal pure returns (uint256) {... */\n    tag_126:\n        /* \"@openzeppelin/contracts/utils/math/SafeCast.sol\":17227:17234  uint256 */\n      0x00\n        /* \"@openzeppelin/contracts/utils/math/SafeCast.sol\":17258:17259  0 */\n      dup1\n        /* \"@openzeppelin/contracts/utils/math/SafeCast.sol\":17250:17255  value */\n      dup3\n        /* \"@openzeppelin/contracts/utils/math/SafeCast.sol\":17250:17259  value < 0 */\n      slt\n        /* \"@openzeppelin/contracts/utils/math/SafeCast.sol\":17246:17327  if (value < 0) {... */\n      iszero\n      tag_218\n      jumpi\n        /* \"@openzeppelin/contracts/utils/math/SafeCast.sol\":17282:17316  SafeCastOverflowedIntToUint(value) */\n      mload(0x40)\n      shl(0xe1, 0x54672219)\n      dup2\n      mstore\n      0x04\n      dup2\n      add\n        /* \"#utility.yul\":1591:1616   */\n      dup4\n      swap1\n      mstore\n        /* \"#utility.yul\":1564:1582   */\n      0x24\n      add\n        /* \"@openzeppelin/contracts/utils/math/SafeCast.sol\":17282:17316  SafeCastOverflowedIntToUint(value) */\n      tag_96\n        /* \"#utility.yul\":1445:1622   */\n      jump\n        /* \"@openzeppelin/contracts/utils/math/SafeCast.sol\":17246:17327  if (value < 0) {... */\n    tag_218:\n      pop\n        /* \"@openzeppelin/contracts/utils/math/SafeCast.sol\":17351:17356  value */\n      swap1\n        /* \"@openzeppelin/contracts/utils/math/SafeCast.sol\":17171:17364  function toUint256(int256 value) internal pure returns (uint256) {... */\n      jump\t// out\n        /* \"@openzeppelin/contracts/security/Pausable.sol\":2434:2551  function _unpause() internal virtual whenPaused {... */\n    tag_152:\n        /* \"@openzeppelin/contracts/security/Pausable.sol\":1487:1503  _requirePaused() */\n      tag_221\n        /* \"@openzeppelin/contracts/security/Pausable.sol\":1487:1501  _requirePaused */\n      tag_222\n        /* \"@openzeppelin/contracts/security/Pausable.sol\":1487:1503  _requirePaused() */\n      jump\t// in\n    tag_221:\n        /* \"@openzeppelin/contracts/security/Pausable.sol\":2492:2499  _paused */\n      0x02\n        /* \"@openzeppelin/contracts/security/Pausable.sol\":2492:2507  _paused = false */\n      dup1\n      sload\n      not(0xff)\n      and\n      swap1\n      sstore\n        /* \"@openzeppelin/contracts/security/Pausable.sol\":2522:2544  Unpaused(_msgSender()) */\n      0x5db9ee0a495bf2e6ff9c91a7834c1ba4fdd244a5e8aa4e537bd38aeae4b073aa\n        /* \"@openzeppelin/contracts/utils/Context.sol\":735:745  msg.sender */\n      caller\n        /* \"@openzeppelin/contracts/security/Pausable.sol\":2531:2543  _msgSender() */\n    tag_224:\n        /* \"@openzeppelin/contracts/security/Pausable.sol\":2522:2544  Unpaused(_msgSender()) */\n      mload(0x40)\n      sub(shl(0xa0, 0x01), 0x01)\n        /* \"#utility.yul\":1820:1852   */\n      swap1\n      swap2\n      and\n        /* \"#utility.yul\":1802:1853   */\n      dup2\n      mstore\n        /* \"#utility.yul\":1790:1792   */\n      0x20\n        /* \"#utility.yul\":1775:1793   */\n      add\n        /* \"@openzeppelin/contracts/security/Pausable.sol\":2522:2544  Unpaused(_msgSender()) */\n      mload(0x40)\n      dup1\n      swap2\n      sub\n      swap1\n      log1\n        /* \"@openzeppelin/contracts/security/Pausable.sol\":2434:2551  function _unpause() internal virtual whenPaused {... */\n      jump\t// out\n        /* \"@openzeppelin/contracts/access/Ownable.sol\":2912:3099  function _transferOwnership(address newOwner) internal virtual {... */\n    tag_158:\n        /* \"@openzeppelin/contracts/access/Ownable.sol\":2985:3001  address oldOwner */\n      0x00\n        /* \"@openzeppelin/contracts/access/Ownable.sol\":3004:3010  _owner */\n      dup1\n      sload\n      sub(shl(0xa0, 0x01), 0x01)\n        /* \"@openzeppelin/contracts/access/Ownable.sol\":3020:3037  _owner = newOwner */\n      dup4\n      dup2\n      and\n      not(sub(shl(0xa0, 0x01), 0x01))\n      dup4\n      and\n      dup2\n      or\n      dup5\n      sstore\n        /* \"@openzeppelin/contracts/access/Ownable.sol\":3052:3092  OwnershipTransferred(oldOwner, newOwner) */\n      mload(0x40)\n        /* \"@openzeppelin/contracts/access/Ownable.sol\":3004:3010  _owner */\n      swap2\n      swap1\n      swap3\n      and\n      swap3\n      dup4\n      swap2\n        /* \"@openzeppelin/contracts/access/Ownable.sol\":3052:3092  OwnershipTransferred(oldOwner, newOwner) */\n      0x8be0079c531659141344cd1fd0a4f28419497f9722a3daafe3b4186f6b6457e0\n      swap2\n        /* \"@openzeppelin/contracts/access/Ownable.sol\":2985:3001  address oldOwner */\n      swap1\n        /* \"@openzeppelin/contracts/access/Ownable.sol\":3052:3092  OwnershipTransferred(oldOwner, newOwner) */\n      log3\n        /* \"@openzeppelin/contracts/access/Ownable.sol\":2975:3099  {... */\n      pop\n        /* \"@openzeppelin/contracts/access/Ownable.sol\":2912:3099  function _transferOwnership(address newOwner) internal virtual {... */\n      pop\n      jump\t// out\n        /* \"@openzeppelin/contracts/security/Pausable.sol\":2187:2302  function _pause() internal virtual whenNotPaused {... */\n    tag_163:\n        /* \"@openzeppelin/contracts/security/Pausable.sol\":1240:1259  _requireNotPaused() */\n      tag_228\n        /* \"@openzeppelin/contracts/security/Pausable.sol\":1240:1257  _requireNotPaused */\n      tag_195\n        /* \"@openzeppelin/contracts/security/Pausable.sol\":1240:1259  _requireNotPaused() */\n      jump\t// in\n    tag_228:\n        /* \"@openzeppelin/contracts/security/Pausable.sol\":2246:2253  _paused */\n      0x02\n        /* \"@openzeppelin/contracts/security/Pausable.sol\":2246:2260  _paused = true */\n      dup1\n      sload\n      not(0xff)\n      and\n        /* \"@openzeppelin/contracts/security/Pausable.sol\":2256:2260  true */\n      0x01\n        /* \"@openzeppelin/contracts/security/Pausable.sol\":2246:2260  _paused = true */\n      or\n      swap1\n      sstore\n        /* \"@openzeppelin/contracts/security/Pausable.sol\":2275:2295  Paused(_msgSender()) */\n      0x62e78cea01bee320cd4e420270b5ea74000d11b0c9f74754ebdbfc544b05a258\n        /* \"@openzeppelin/contracts/security/Pausable.sol\":2282:2294  _msgSender() */\n      tag_224\n        /* \"@openzeppelin/contracts/utils/Context.sol\":735:745  msg.sender */\n      caller\n      swap1\n        /* \"@openzeppelin/contracts/utils/Context.sol\":656:752  function _msgSender() internal view virtual returns (address) {... */\n      jump\n        /* \"@openzeppelin/contracts/utils/math/SafeCast.sol\":34380:34694  function toInt256(uint256 value) internal pure returns (int256) {... */\n    tag_171:\n        /* \"@openzeppelin/contracts/utils/math/SafeCast.sol\":34436:34442  int256 */\n      0x00\n      sub(shl(0xff, 0x01), 0x01)\n        /* \"@openzeppelin/contracts/utils/math/SafeCast.sol\":34557:34562  value */\n      dup3\n        /* \"@openzeppelin/contracts/utils/math/SafeCast.sol\":34557:34590  value > uint256(type(int256).max) */\n      gt\n        /* \"@openzeppelin/contracts/utils/math/SafeCast.sol\":34553:34658  if (value > uint256(type(int256).max)) {... */\n      iszero\n      tag_218\n      jumpi\n        /* \"@openzeppelin/contracts/utils/math/SafeCast.sol\":34613:34647  SafeCastOverflowedUintToInt(value) */\n      mload(0x40)\n      shl(0xe1, 0x123baf03)\n      dup2\n      mstore\n      0x04\n      dup2\n      add\n        /* \"#utility.yul\":1591:1616   */\n      dup4\n      swap1\n      mstore\n        /* \"#utility.yul\":1564:1582   */\n      0x24\n      add\n        /* \"@openzeppelin/contracts/utils/math/SafeCast.sol\":34613:34647  SafeCastOverflowedUintToInt(value) */\n      tag_96\n        /* \"#utility.yul\":1445:1622   */\n      jump\n        /* \"@openzeppelin/contracts/security/ReentrancyGuard.sol\":2337:2624  function _nonReentrantBefore() private {... */\n    tag_176:\n        /* \"@openzeppelin/contracts/security/ReentrancyGuard.sol\":1760:1761  2 */\n      0x02\n        /* \"@openzeppelin/contracts/security/ReentrancyGuard.sol\":2469:2476  _status */\n      sload(0x01)\n        /* \"@openzeppelin/contracts/security/ReentrancyGuard.sol\":2469:2488  _status != _ENTERED */\n      sub\n        /* \"@openzeppelin/contracts/security/ReentrancyGuard.sol\":2461:2524  require(_status != _ENTERED, \"ReentrancyGuard: reentrant call\") */\n      tag_236\n      jumpi\n      mload(0x40)\n      shl(0xe5, 0x461bcd)\n      dup2\n      mstore\n        /* \"#utility.yul\":8394:8396   */\n      0x20\n        /* \"@openzeppelin/contracts/security/ReentrancyGuard.sol\":2461:2524  require(_status != _ENTERED, \"ReentrancyGuard: reentrant call\") */\n      0x04\n      dup3\n      add\n        /* \"#utility.yul\":8376:8397   */\n      mstore\n        /* \"#utility.yul\":8433:8435   */\n      0x1f\n        /* \"#utility.yul\":8413:8431   */\n      0x24\n      dup3\n      add\n        /* \"#utility.yul\":8406:8436   */\n      mstore\n        /* \"#utility.yul\":8472:8505   */\n      0x5265656e7472616e637947756172643a207265656e7472616e742063616c6c00\n        /* \"#utility.yul\":8452:8470   */\n      0x44\n      dup3\n      add\n        /* \"#utility.yul\":8445:8506   */\n      mstore\n        /* \"#utility.yul\":8523:8541   */\n      0x64\n      add\n        /* \"@openzeppelin/contracts/security/ReentrancyGuard.sol\":2461:2524  require(_status != _ENTERED, \"ReentrancyGuard: reentrant call\") */\n      tag_96\n        /* \"#utility.yul\":8192:8547   */\n      jump\n        /* \"@openzeppelin/contracts/security/ReentrancyGuard.sol\":2461:2524  require(_status != _ENTERED, \"ReentrancyGuard: reentrant call\") */\n    tag_236:\n        /* \"@openzeppelin/contracts/security/ReentrancyGuard.sol\":1760:1761  2 */\n      0x02\n        /* \"@openzeppelin/contracts/security/ReentrancyGuard.sol\":2599:2606  _status */\n      0x01\n        /* \"@openzeppelin/contracts/security/ReentrancyGuard.sol\":2599:2617  _status = _ENTERED */\n      sstore\n        /* \"@openzeppelin/contracts/security/ReentrancyGuard.sol\":2337:2624  function _nonReentrantBefore() private {... */\n      jump\t// out\n        /* \"@openzeppelin/contracts/security/Pausable.sol\":1768:1874  function _requireNotPaused() internal view virtual {... */\n    tag_195:\n        /* \"@openzeppelin/contracts/security/Pausable.sol\":1686:1693  _paused */\n      and(0xff, sload(0x02))\n        /* \"@openzeppelin/contracts/security/Pausable.sol\":1837:1846  !paused() */\n      iszero\n        /* \"@openzeppelin/contracts/security/Pausable.sol\":1829:1867  require(!paused(), \"Pausable: paused\") */\n      tag_151\n      jumpi\n      mload(0x40)\n      shl(0xe5, 0x461bcd)\n      dup2\n      mstore\n        /* \"#utility.yul\":8754:8756   */\n      0x20\n        /* \"@openzeppelin/contracts/security/Pausable.sol\":1829:1867  require(!paused(), \"Pausable: paused\") */\n      0x04\n      dup3\n      add\n        /* \"#utility.yul\":8736:8757   */\n      mstore\n        /* \"#utility.yul\":8793:8795   */\n      0x10\n        /* \"#utility.yul\":8773:8791   */\n      0x24\n      dup3\n      add\n        /* \"#utility.yul\":8766:8796   */\n      mstore\n      shl(0x82, 0x14185d5cd8589b194e881c185d5cd959)\n        /* \"#utility.yul\":8812:8830   */\n      0x44\n      dup3\n      add\n        /* \"#utility.yul\":8805:8851   */\n      mstore\n        /* \"#utility.yul\":8868:8886   */\n      0x64\n      add\n        /* \"@openzeppelin/contracts/security/Pausable.sol\":1829:1867  require(!paused(), \"Pausable: paused\") */\n      tag_96\n        /* \"#utility.yul\":8552:8892   */\n      jump\n        /* \"@openzeppelin/contracts/security/Pausable.sol\":1946:2052  function _requirePaused() internal view virtual {... */\n    tag_222:\n        /* \"@openzeppelin/contracts/security/Pausable.sol\":1686:1693  _paused */\n      and(0xff, sload(0x02))\n        /* \"@openzeppelin/contracts/security/Pausable.sol\":2004:2045  require(paused(), \"Pausable: not paused\") */\n      tag_151\n      jumpi\n      mload(0x40)\n      shl(0xe5, 0x461bcd)\n      dup2\n      mstore\n        /* \"#utility.yul\":9099:9101   */\n      0x20\n        /* \"@openzeppelin/contracts/security/Pausable.sol\":2004:2045  require(paused(), \"Pausable: not paused\") */\n      0x04\n      dup3\n      add\n        /* \"#utility.yul\":9081:9102   */\n      mstore\n        /* \"#utility.yul\":9138:9140   */\n      0x14\n        /* \"#utility.yul\":9118:9136   */\n      0x24\n      dup3\n      add\n        /* \"#utility.yul\":9111:9141   */\n      mstore\n      shl(0x62, 0x14185d5cd8589b194e881b9bdd081c185d5cd959)\n        /* \"#utility.yul\":9157:9175   */\n      0x44\n      dup3\n      add\n        /* \"#utility.yul\":9150:9200   */\n      mstore\n        /* \"#utility.yul\":9217:9235   */\n      0x64\n      add\n        /* \"@openzeppelin/contracts/security/Pausable.sol\":2004:2045  require(paused(), \"Pausable: not paused\") */\n      tag_96\n        /* \"#utility.yul\":8897:9241   */\n      jump\n        /* \"#utility.yul\":14:187   */\n    tag_251:\n        /* \"#utility.yul\":82:102   */\n      dup1\n      calldataload\n      sub(shl(0xa0, 0x01), 0x01)\n        /* \"#utility.yul\":131:162   */\n      dup2\n      and\n        /* \"#utility.yul\":121:163   */\n      dup2\n      eq\n        /* \"#utility.yul\":111:181   */\n      tag_255\n      jumpi\n        /* \"#utility.yul\":177:178   */\n      0x00\n        /* \"#utility.yul\":174:175   */\n      dup1\n        /* \"#utility.yul\":167:179   */\n      revert\n        /* \"#utility.yul\":111:181   */\n    tag_255:\n        /* \"#utility.yul\":14:187   */\n      swap2\n      swap1\n      pop\n      jump\t// out\n        /* \"#utility.yul\":192:492   */\n    tag_26:\n        /* \"#utility.yul\":260:266   */\n      0x00\n        /* \"#utility.yul\":268:274   */\n      dup1\n        /* \"#utility.yul\":321:323   */\n      0x40\n        /* \"#utility.yul\":309:318   */\n      dup4\n        /* \"#utility.yul\":300:307   */\n      dup6\n        /* \"#utility.yul\":296:319   */\n      sub\n        /* \"#utility.yul\":292:324   */\n      slt\n        /* \"#utility.yul\":289:341   */\n      iszero\n      tag_257\n      jumpi\n        /* \"#utility.yul\":337:338   */\n      0x00\n        /* \"#utility.yul\":334:335   */\n      dup1\n        /* \"#utility.yul\":327:339   */\n      revert\n        /* \"#utility.yul\":289:341   */\n    tag_257:\n        /* \"#utility.yul\":382:405   */\n      dup3\n      calldataload\n      swap2\n      pop\n        /* \"#utility.yul\":448:486   */\n      tag_258\n        /* \"#utility.yul\":482:484   */\n      0x20\n        /* \"#utility.yul\":467:485   */\n      dup5\n      add\n        /* \"#utility.yul\":448:486   */\n      tag_251\n      jump\t// in\n    tag_258:\n        /* \"#utility.yul\":438:486   */\n      swap1\n      pop\n        /* \"#utility.yul\":192:492   */\n      swap3\n      pop\n      swap3\n      swap1\n      pop\n      jump\t// out\n        /* \"#utility.yul\":497:723   */\n    tag_30:\n        /* \"#utility.yul\":556:562   */\n      0x00\n        /* \"#utility.yul\":609:611   */\n      0x20\n        /* \"#utility.yul\":597:606   */\n      dup3\n        /* \"#utility.yul\":588:595   */\n      dup5\n        /* \"#utility.yul\":584:607   */\n      sub\n        /* \"#utility.yul\":580:612   */\n      slt\n        /* \"#utility.yul\":577:629   */\n      iszero\n      tag_260\n      jumpi\n        /* \"#utility.yul\":625:626   */\n      0x00\n        /* \"#utility.yul\":622:623   */\n      dup1\n        /* \"#utility.yul\":615:627   */\n      revert\n        /* \"#utility.yul\":577:629   */\n    tag_260:\n      pop\n        /* \"#utility.yul\":670:693   */\n      calldataload\n      swap2\n        /* \"#utility.yul\":497:723   */\n      swap1\n      pop\n      jump\t// out\n        /* \"#utility.yul\":1062:1248   */\n    tag_36:\n        /* \"#utility.yul\":1121:1127   */\n      0x00\n        /* \"#utility.yul\":1174:1176   */\n      0x20\n        /* \"#utility.yul\":1162:1171   */\n      dup3\n        /* \"#utility.yul\":1153:1160   */\n      dup5\n        /* \"#utility.yul\":1149:1172   */\n      sub\n        /* \"#utility.yul\":1145:1177   */\n      slt\n        /* \"#utility.yul\":1142:1194   */\n      iszero\n      tag_263\n      jumpi\n        /* \"#utility.yul\":1190:1191   */\n      0x00\n        /* \"#utility.yul\":1187:1188   */\n      dup1\n        /* \"#utility.yul\":1180:1192   */\n      revert\n        /* \"#utility.yul\":1142:1194   */\n    tag_263:\n        /* \"#utility.yul\":1213:1242   */\n      tag_264\n        /* \"#utility.yul\":1232:1241   */\n      dup3\n        /* \"#utility.yul\":1213:1242   */\n      tag_251\n      jump\t// in\n    tag_264:\n        /* \"#utility.yul\":1203:1242   */\n      swap4\n        /* \"#utility.yul\":1062:1248   */\n      swap3\n      pop\n      pop\n      pop\n      jump\t// out\n        /* \"#utility.yul\":2252:3035   */\n    tag_71:\n        /* \"#utility.yul\":2356:2362   */\n      0x00\n        /* \"#utility.yul\":2364:2370   */\n      dup1\n        /* \"#utility.yul\":2372:2378   */\n      0x00\n        /* \"#utility.yul\":2380:2386   */\n      dup1\n        /* \"#utility.yul\":2388:2394   */\n      0x00\n        /* \"#utility.yul\":2396:2402   */\n      dup1\n        /* \"#utility.yul\":2449:2452   */\n      0xc0\n        /* \"#utility.yul\":2437:2446   */\n      dup8\n        /* \"#utility.yul\":2428:2435   */\n      dup10\n        /* \"#utility.yul\":2424:2447   */\n      sub\n        /* \"#utility.yul\":2420:2453   */\n      slt\n        /* \"#utility.yul\":2417:2470   */\n      iszero\n      tag_271\n      jumpi\n        /* \"#utility.yul\":2466:2467   */\n      0x00\n        /* \"#utility.yul\":2463:2464   */\n      dup1\n        /* \"#utility.yul\":2456:2468   */\n      revert\n        /* \"#utility.yul\":2417:2470   */\n    tag_271:\n        /* \"#utility.yul\":2511:2534   */\n      dup7\n      calldataload\n      swap6\n      pop\n        /* \"#utility.yul\":2577:2615   */\n      tag_272\n        /* \"#utility.yul\":2611:2613   */\n      0x20\n        /* \"#utility.yul\":2596:2614   */\n      dup9\n      add\n        /* \"#utility.yul\":2577:2615   */\n      tag_251\n      jump\t// in\n    tag_272:\n        /* \"#utility.yul\":2252:3035   */\n      swap6\n      swap9\n        /* \"#utility.yul\":2567:2615   */\n      swap6\n      swap8\n      pop\n      pop\n      pop\n      pop\n        /* \"#utility.yul\":2688:2690   */\n      0x40\n        /* \"#utility.yul\":2673:2691   */\n      dup5\n      add\n        /* \"#utility.yul\":2660:2692   */\n      calldataload\n      swap4\n        /* \"#utility.yul\":2791:2793   */\n      0x60\n        /* \"#utility.yul\":2776:2794   */\n      dup2\n      add\n        /* \"#utility.yul\":2763:2795   */\n      calldataload\n      swap4\n        /* \"#utility.yul\":2894:2897   */\n      0x80\n        /* \"#utility.yul\":2879:2898   */\n      dup3\n      add\n        /* \"#utility.yul\":2866:2899   */\n      calldataload\n      swap4\n      pop\n        /* \"#utility.yul\":2998:3001   */\n      0xa0\n        /* \"#utility.yul\":2983:3002   */\n      swap1\n      swap2\n      add\n        /* \"#utility.yul\":2970:3003   */\n      calldataload\n      swap2\n      pop\n        /* \"#utility.yul\":2252:3035   */\n      jump\t// out\n        /* \"#utility.yul\":3222:3809   */\n    tag_89:\n        /* \"#utility.yul\":3308:3314   */\n      0x00\n        /* \"#utility.yul\":3316:3322   */\n      dup1\n        /* \"#utility.yul\":3324:3330   */\n      0x00\n        /* \"#utility.yul\":3332:3338   */\n      dup1\n        /* \"#utility.yul\":3385:3388   */\n      0x80\n        /* \"#utility.yul\":3373:3382   */\n      dup6\n        /* \"#utility.yul\":3364:3371   */\n      dup8\n        /* \"#utility.yul\":3360:3383   */\n      sub\n        /* \"#utility.yul\":3356:3389   */\n      slt\n        /* \"#utility.yul\":3353:3406   */\n      iszero\n      tag_275\n      jumpi\n        /* \"#utility.yul\":3402:3403   */\n      0x00\n        /* \"#utility.yul\":3399:3400   */\n      dup1\n        /* \"#utility.yul\":3392:3404   */\n      revert\n        /* \"#utility.yul\":3353:3406   */\n    tag_275:\n      pop\n      pop\n        /* \"#utility.yul\":3447:3470   */\n      dup3\n      calldataload\n      swap5\n        /* \"#utility.yul\":3567:3569   */\n      0x20\n        /* \"#utility.yul\":3552:3570   */\n      dup5\n      add\n        /* \"#utility.yul\":3539:3571   */\n      calldataload\n      swap5\n      pop\n        /* \"#utility.yul\":3670:3672   */\n      0x40\n        /* \"#utility.yul\":3655:3673   */\n      dup5\n      add\n        /* \"#utility.yul\":3642:3674   */\n      calldataload\n      swap4\n        /* \"#utility.yul\":3773:3775   */\n      0x60\n        /* \"#utility.yul\":3758:3776   */\n      add\n        /* \"#utility.yul\":3745:3777   */\n      calldataload\n      swap3\n      pop\n        /* \"#utility.yul\":3222:3809   */\n      swap1\n      pop\n      jump\t// out\n        /* \"#utility.yul\":3814:4150   */\n    tag_97:\n        /* \"#utility.yul\":4016:4018   */\n      0x20\n        /* \"#utility.yul\":3998:4019   */\n      dup1\n      dup3\n      mstore\n        /* \"#utility.yul\":4055:4057   */\n      0x0c\n        /* \"#utility.yul\":4035:4053   */\n      swap1\n      dup3\n      add\n        /* \"#utility.yul\":4028:4058   */\n      mstore\n      shl(0xa1, 0x24b73b30b634b2103830b4b9)\n        /* \"#utility.yul\":4089:4091   */\n      0x40\n        /* \"#utility.yul\":4074:4092   */\n      dup3\n      add\n        /* \"#utility.yul\":4067:4109   */\n      mstore\n        /* \"#utility.yul\":4141:4143   */\n      0x60\n        /* \"#utility.yul\":4126:4144   */\n      add\n      swap1\n        /* \"#utility.yul\":3814:4150   */\n      jump\t// out\n        /* \"#utility.yul\":4498:4677   */\n    tag_252:\n        /* \"#utility.yul\":4576:4589   */\n      dup1\n      mload\n        /* \"#utility.yul\":4629:4651   */\n      0xffffffffffffffffffff\n        /* \"#utility.yul\":4618:4652   */\n      dup2\n      and\n        /* \"#utility.yul\":4608:4653   */\n      dup2\n      eq\n        /* \"#utility.yul\":4598:4671   */\n      tag_255\n      jumpi\n        /* \"#utility.yul\":4667:4668   */\n      0x00\n        /* \"#utility.yul\":4664:4665   */\n      dup1\n        /* \"#utility.yul\":4657:4669   */\n      revert\n        /* \"#utility.yul\":4682:5253   */\n    tag_108:\n        /* \"#utility.yul\":4785:4791   */\n      0x00\n        /* \"#utility.yul\":4793:4799   */\n      dup1\n        /* \"#utility.yul\":4801:4807   */\n      0x00\n        /* \"#utility.yul\":4809:4815   */\n      dup1\n        /* \"#utility.yul\":4817:4823   */\n      0x00\n        /* \"#utility.yul\":4870:4873   */\n      0xa0\n        /* \"#utility.yul\":4858:4867   */\n      dup7\n        /* \"#utility.yul\":4849:4856   */\n      dup9\n        /* \"#utility.yul\":4845:4868   */\n      sub\n        /* \"#utility.yul\":4841:4874   */\n      slt\n        /* \"#utility.yul\":4838:4891   */\n      iszero\n      tag_281\n      jumpi\n        /* \"#utility.yul\":4887:4888   */\n      0x00\n        /* \"#utility.yul\":4884:4885   */\n      dup1\n        /* \"#utility.yul\":4877:4889   */\n      revert\n        /* \"#utility.yul\":4838:4891   */\n    tag_281:\n        /* \"#utility.yul\":4910:4949   */\n      tag_282\n        /* \"#utility.yul\":4939:4948   */\n      dup7\n        /* \"#utility.yul\":4910:4949   */\n      tag_252\n      jump\t// in\n    tag_282:\n        /* \"#utility.yul\":4989:4991   */\n      0x20\n        /* \"#utility.yul\":4974:4992   */\n      dup8\n      add\n        /* \"#utility.yul\":4968:4993   */\n      mload\n        /* \"#utility.yul\":5055:5057   */\n      0x40\n        /* \"#utility.yul\":5040:5058   */\n      dup9\n      add\n        /* \"#utility.yul\":5034:5059   */\n      mload\n        /* \"#utility.yul\":5149:5151   */\n      0x60\n        /* \"#utility.yul\":5134:5152   */\n      dup10\n      add\n        /* \"#utility.yul\":5128:5153   */\n      mload\n        /* \"#utility.yul\":4900:4949   */\n      swap3\n      swap8\n      pop\n        /* \"#utility.yul\":4968:4993   */\n      swap1\n      swap6\n      pop\n        /* \"#utility.yul\":5034:5059   */\n      swap4\n      pop\n        /* \"#utility.yul\":5128:5153   */\n      swap2\n      pop\n        /* \"#utility.yul\":5198:5247   */\n      tag_283\n        /* \"#utility.yul\":5242:5245   */\n      0x80\n        /* \"#utility.yul\":5227:5246   */\n      dup8\n      add\n        /* \"#utility.yul\":5198:5247   */\n      tag_252\n      jump\t// in\n    tag_283:\n        /* \"#utility.yul\":5188:5247   */\n      swap1\n      pop\n        /* \"#utility.yul\":4682:5253   */\n      swap3\n      swap6\n      pop\n      swap3\n      swap6\n      swap1\n      swap4\n      pop\n      jump\t// out\n        /* \"#utility.yul\":5969:6194   */\n    tag_121:\n        /* \"#utility.yul\":6036:6045   */\n      dup2\n      dup2\n      sub\n        /* \"#utility.yul\":6057:6068   */\n      dup2\n      dup2\n      gt\n        /* \"#utility.yul\":6054:6188   */\n      iszero\n      tag_287\n      jumpi\n        /* \"#utility.yul\":6110:6120   */\n      0x4e487b71\n        /* \"#utility.yul\":6105:6108   */\n      0xe0\n        /* \"#utility.yul\":6101:6121   */\n      shl\n        /* \"#utility.yul\":6098:6099   */\n      0x00\n        /* \"#utility.yul\":6091:6122   */\n      mstore\n        /* \"#utility.yul\":6145:6149   */\n      0x11\n        /* \"#utility.yul\":6142:6143   */\n      0x04\n        /* \"#utility.yul\":6135:6150   */\n      mstore\n        /* \"#utility.yul\":6173:6177   */\n      0x24\n        /* \"#utility.yul\":6170:6171   */\n      0x00\n        /* \"#utility.yul\":6163:6178   */\n      revert\n        /* \"#utility.yul\":6054:6188   */\n    tag_287:\n        /* \"#utility.yul\":5969:6194   */\n      swap3\n      swap2\n      pop\n      pop\n      jump\t// out\n\n    auxdata: 0xa26469706673582212207291fd4fe34ff81e0314001620c823d0c3e4eb32da25a4fb0628886433539f4f64736f6c634300081c0033\n}\n",
				"bytecode": {
					"linkReferences": {},
					"object": "608060405234801561001057600080fd5b506040516110a63803806110a683398101604081905261002f91610165565b806001600160a01b03811661005f57604051631e4fbdf760e01b8152600060048201526024015b60405180910390fd5b610068816100f9565b50600180556002805460ff191690556001600160a01b0382166100cd5760405162461bcd60e51b815260206004820152601a60248201527f496e76616c6964207072696365206665656420616464726573730000000000006044820152606401610056565b50600280546001600160a01b0390921661010002610100600160a81b0319909216919091179055610198565b600080546001600160a01b038381166001600160a01b0319831681178455604051919092169283917f8be0079c531659141344cd1fd0a4f28419497f9722a3daafe3b4186f6b6457e09190a35050565b80516001600160a01b038116811461016057600080fd5b919050565b6000806040838503121561017857600080fd5b61018183610149565b915061018f60208401610149565b90509250929050565b610eff806101a76000396000f3fe608060405234801561001057600080fd5b50600436106101165760003560e01c80638456cb59116100a2578063a5b5fb8811610071578063a5b5fb881461022c578063bc2698501461023d578063db7c1ad114610246578063f2fde38b14610278578063f3f699f11461028b57600080fd5b80638456cb59146101f85780638da5cb5b146102005780638e15f473146102115780639f97acb71461021957600080fd5b80633f4ba83a116100e95780633f4ba83a1461018b5780635c975abb146101935780636301a143146101a9578063715018a6146101c0578063741bef1a146101c857600080fd5b806301e9492f1461011b5780631fde7f26146101305780632806bce21461016557806331d98b3f14610178575b600080fd5b61012e610129366004610d29565b61029e565b005b61014361013e366004610d55565b61032f565b6040805193845260208401929092521515908201526060015b60405180910390f35b610143610173366004610d6e565b61034b565b610143610186366004610d55565b610531565b61012e610762565b60025460ff16604051901515815260200161015c565b6101b261038481565b60405190815260200161015c565b61012e610774565b6002546101e09061010090046001600160a01b031681565b6040516001600160a01b03909116815260200161015c565b61012e610786565b6000546001600160a01b03166101e0565b6101b26107cd565b61012e610227366004610d90565b610840565b6101b2661155548bd554d160ca1b81565b6101b2610e1081565b610143610254366004610d55565b60036020526000908152604090208054600182015460029092015490919060ff1683565b61012e610286366004610d6e565b610930565b61012e610299366004610dde565b61096e565b6102a6610ac2565b661155548bd554d160ca1b82146102d85760405162461bcd60e51b81526004016102cf90610e10565b60405180910390fd5b6002546001600160a01b03828116610100909204161461032b5760405162461bcd60e51b815260206004820152600e60248201526d496e76616c696420736f7572636560901b60448201526064016102cf565b5050565b600080600061033d84610531565b9250925092505b9193909250565b600254600090819081906001600160a01b0385811661010090920416146103a55760405162461bcd60e51b815260206004820152600e60248201526d496e76616c696420736f7572636560901b60448201526064016102cf565b600260019054906101000a90046001600160a01b03166001600160a01b031663feaf968c6040518163ffffffff1660e01b815260040160a060405180830381865afa925050508015610414575060408051601f3d908101601f1916820190925261041191810190610e50565b60015b61042657506000915081905080610344565b600084136104715760405162461bcd60e51b8152602060048201526018602482015277436861696e6c696e6b3a20496e76616c696420707269636560401b60448201526064016102cf565b816000036104c15760405162461bcd60e51b815260206004820152601d60248201527f436861696e6c696e6b3a20526f756e64206e6f7420636f6d706c65746500000060448201526064016102cf565b610e106104ce8342610ea2565b11156105155760405162461bcd60e51b8152602060048201526016602482015275436861696e6c696e6b3a205374616c6520707269636560501b60448201526064016102cf565b61051e84610aef565b8260019750975097505050505050610344565b6000806000661155548bd554d160ca1b841461055f5760405162461bcd60e51b81526004016102cf90610e10565b6000848152600360209081526040918290208251606081018452815481526001820154928101929092526002015460ff161580159282018390529091906105b757506103848160200151426105b49190610ea2565b11155b156105d2578051602090910151909350915060019050610344565b600260019054906101000a90046001600160a01b03166001600160a01b031663feaf968c6040518163ffffffff1660e01b815260040160a060405180830381865afa925050508015610641575060408051601f3d908101601f1916820190925261063e91810190610e50565b60015b61065657600080600093509350935050610344565b600084136106a15760405162461bcd60e51b8152602060048201526018602482015277436861696e6c696e6b3a20496e76616c696420707269636560401b60448201526064016102cf565b816000036106f15760405162461bcd60e51b815260206004820152601d60248201527f436861696e6c696e6b3a20526f756e64206e6f7420636f6d706c65746500000060448201526064016102cf565b610e106106fe8342610ea2565b11156107455760405162461bcd60e51b8152602060048201526016602482015275436861696e6c696e6b3a205374616c6520707269636560501b60448201526064016102cf565b61074e84610aef565b826001985098509850505050505050610344565b61076a610ac2565b610772610b19565b565b61077c610ac2565b6107726000610b6b565b61078e610ac2565b610796610bbb565b604051661155548bd554d160ca1b907fd373a1ac37410a4da6def2d7f3f2e704aca3e95e2e251322a031eedda7eb686c90600090a2565b60008060006107e5661155548bd554d160ca1b610531565b9250509150806108305760405162461bcd60e51b8152602060048201526016602482015275496e76616c6964206f72207374616c6520707269636560501b60448201526064016102cf565b61083982610bf8565b9250505090565b610848610ac2565b610850610c25565b661155548bd554d160ca1b86146108795760405162461bcd60e51b81526004016102cf90610e10565b6001600160a01b0385166108c85760405162461bcd60e51b8152602060048201526016602482015275496e76616c696420736f75726365206164647265737360501b60448201526064016102cf565b600280546001600160a01b03878116610100818102610100600160a81b031985161790945560405193909204169182907fa8abe0398416476db5b05737cd4da3b3cbde5012d978a6a6c3fd49d32175353690600090a35061092860018055565b505050505050565b610938610ac2565b6001600160a01b03811661096257604051631e4fbdf760e01b8152600060048201526024016102cf565b61096b81610b6b565b50565b610976610ac2565b61097e610c7e565b610986610c25565b661155548bd554d160ca1b84146109af5760405162461bcd60e51b81526004016102cf90610e10565b428211156109f25760405162461bcd60e51b815260206004820152601060248201526f04675747572652074696d657374616d760841b60448201526064016102cf565b60008311610a325760405162461bcd60e51b815260206004820152600d60248201526c496e76616c696420707269636560981b60448201526064016102cf565b604080516060810182528481526020808201858152600183850181815260008a81526003855286902094518555915190840155516002909201805460ff191692151592909217909155815185815290810184905285917fbcd10d64fce9dcf9568572ed92e371df336d32649e8960a045c9548794a44b26910160405180910390a2610abc60018055565b50505050565b6000546001600160a01b031633146107725760405163118cdaa760e01b81523360048201526024016102cf565b600080821215610b1557604051635467221960e11b8152600481018390526024016102cf565b5090565b610b21610cc4565b6002805460ff191690557f5db9ee0a495bf2e6ff9c91a7834c1ba4fdd244a5e8aa4e537bd38aeae4b073aa335b6040516001600160a01b03909116815260200160405180910390a1565b600080546001600160a01b038381166001600160a01b0319831681178455604051919092169283917f8be0079c531659141344cd1fd0a4f28419497f9722a3daafe3b4186f6b6457e09190a35050565b610bc3610c7e565b6002805460ff191660011790557f62e78cea01bee320cd4e420270b5ea74000d11b0c9f74754ebdbfc544b05a258610b4e3390565b60006001600160ff1b03821115610b155760405163123baf0360e11b8152600481018390526024016102cf565b600260015403610c775760405162461bcd60e51b815260206004820152601f60248201527f5265656e7472616e637947756172643a207265656e7472616e742063616c6c0060448201526064016102cf565b6002600155565b60025460ff16156107725760405162461bcd60e51b815260206004820152601060248201526f14185d5cd8589b194e881c185d5cd95960821b60448201526064016102cf565b60025460ff166107725760405162461bcd60e51b815260206004820152601460248201527314185d5cd8589b194e881b9bdd081c185d5cd95960621b60448201526064016102cf565b80356001600160a01b0381168114610d2457600080fd5b919050565b60008060408385031215610d3c57600080fd5b82359150610d4c60208401610d0d565b90509250929050565b600060208284031215610d6757600080fd5b5035919050565b600060208284031215610d8057600080fd5b610d8982610d0d565b9392505050565b60008060008060008060c08789031215610da957600080fd5b86359550610db960208801610d0d565b95989597505050506040840135936060810135936080820135935060a0909101359150565b60008060008060808587031215610df457600080fd5b5050823594602084013594506040840135936060013592509050565b6020808252600c908201526b24b73b30b634b2103830b4b960a11b604082015260600190565b805169ffffffffffffffffffff81168114610d2457600080fd5b600080600080600060a08688031215610e6857600080fd5b610e7186610e36565b60208701516040880151606089015192975090955093509150610e9660808701610e36565b90509295509295909350565b81810381811115610ec357634e487b7160e01b600052601160045260246000fd5b9291505056fea26469706673582212207291fd4fe34ff81e0314001620c823d0c3e4eb32da25a4fb0628886433539f4f64736f6c634300081c0033",
					"opcodes": "PUSH1 0x80 PUSH1 0x40 MSTORE CALLVALUE DUP1 ISZERO PUSH2 0x10 JUMPI PUSH1 0x0 DUP1 REVERT JUMPDEST POP PUSH1 0x40 MLOAD PUSH2 0x10A6 CODESIZE SUB DUP1 PUSH2 0x10A6 DUP4 CODECOPY DUP2 ADD PUSH1 0x40 DUP2 SWAP1 MSTORE PUSH2 0x2F SWAP2 PUSH2 0x165 JUMP JUMPDEST DUP1 PUSH1 0x1 PUSH1 0x1 PUSH1 0xA0 SHL SUB DUP2 AND PUSH2 0x5F JUMPI PUSH1 0x40 MLOAD PUSH4 0x1E4FBDF7 PUSH1 0xE0 SHL DUP2 MSTORE PUSH1 0x0 PUSH1 0x4 DUP3 ADD MSTORE PUSH1 0x24 ADD JUMPDEST PUSH1 0x40 MLOAD DUP1 SWAP2 SUB SWAP1 REVERT JUMPDEST PUSH2 0x68 DUP2 PUSH2 0xF9 JUMP JUMPDEST POP PUSH1 0x1 DUP1 SSTORE PUSH1 0x2 DUP1 SLOAD PUSH1 0xFF NOT AND SWAP1 SSTORE PUSH1 0x1 PUSH1 0x1 PUSH1 0xA0 SHL SUB DUP3 AND PUSH2 0xCD JUMPI PUSH1 0x40 MLOAD PUSH3 0x461BCD PUSH1 0xE5 SHL DUP2 MSTORE PUSH1 0x20 PUSH1 0x4 DUP3 ADD MSTORE PUSH1 0x1A PUSH1 0x24 DUP3 ADD MSTORE PUSH32 0x496E76616C696420707269636520666565642061646472657373000000000000 PUSH1 0x44 DUP3 ADD MSTORE PUSH1 0x64 ADD PUSH2 0x56 JUMP JUMPDEST POP PUSH1 0x2 DUP1 SLOAD PUSH1 0x1 PUSH1 0x1 PUSH1 0xA0 SHL SUB SWAP1 SWAP3 AND PUSH2 0x100 MUL PUSH2 0x100 PUSH1 0x1 PUSH1 0xA8 SHL SUB NOT SWAP1 SWAP3 AND SWAP2 SWAP1 SWAP2 OR SWAP1 SSTORE PUSH2 0x198 JUMP JUMPDEST PUSH1 0x0 DUP1 SLOAD PUSH1 0x1 PUSH1 0x1 PUSH1 0xA0 SHL SUB DUP4 DUP2 AND PUSH1 0x1 PUSH1 0x1 PUSH1 0xA0 SHL SUB NOT DUP4 AND DUP2 OR DUP5 SSTORE PUSH1 0x40 MLOAD SWAP2 SWAP1 SWAP3 AND SWAP3 DUP4 SWAP2 PUSH32 0x8BE0079C531659141344CD1FD0A4F28419497F9722A3DAAFE3B4186F6B6457E0 SWAP2 SWAP1 LOG3 POP POP JUMP JUMPDEST DUP1 MLOAD PUSH1 0x1 PUSH1 0x1 PUSH1 0xA0 SHL SUB DUP2 AND DUP2 EQ PUSH2 0x160 JUMPI PUSH1 0x0 DUP1 REVERT JUMPDEST SWAP2 SWAP1 POP JUMP JUMPDEST PUSH1 0x0 DUP1 PUSH1 0x40 DUP4 DUP6 SUB SLT ISZERO PUSH2 0x178 JUMPI PUSH1 0x0 DUP1 REVERT JUMPDEST PUSH2 0x181 DUP4 PUSH2 0x149 JUMP JUMPDEST SWAP2 POP PUSH2 0x18F PUSH1 0x20 DUP5 ADD PUSH2 0x149 JUMP JUMPDEST SWAP1 POP SWAP3 POP SWAP3 SWAP1 POP JUMP JUMPDEST PUSH2 0xEFF DUP1 PUSH2 0x1A7 PUSH1 0x0 CODECOPY PUSH1 0x0 RETURN INVALID PUSH1 0x80 PUSH1 0x40 MSTORE CALLVALUE DUP1 ISZERO PUSH2 0x10 JUMPI PUSH1 0x0 DUP1 REVERT JUMPDEST POP PUSH1 0x4 CALLDATASIZE LT PUSH2 0x116 JUMPI PUSH1 0x0 CALLDATALOAD PUSH1 0xE0 SHR DUP1 PUSH4 0x8456CB59 GT PUSH2 0xA2 JUMPI DUP1 PUSH4 0xA5B5FB88 GT PUSH2 0x71 JUMPI DUP1 PUSH4 0xA5B5FB88 EQ PUSH2 0x22C JUMPI DUP1 PUSH4 0xBC269850 EQ PUSH2 0x23D JUMPI DUP1 PUSH4 0xDB7C1AD1 EQ PUSH2 0x246 JUMPI DUP1 PUSH4 0xF2FDE38B EQ PUSH2 0x278 JUMPI DUP1 PUSH4 0xF3F699F1 EQ PUSH2 0x28B JUMPI PUSH1 0x0 DUP1 REVERT JUMPDEST DUP1 PUSH4 0x8456CB59 EQ PUSH2 0x1F8 JUMPI DUP1 PUSH4 0x8DA5CB5B EQ PUSH2 0x200 JUMPI DUP1 PUSH4 0x8E15F473 EQ PUSH2 0x211 JUMPI DUP1 PUSH4 0x9F97ACB7 EQ PUSH2 0x219 JUMPI PUSH1 0x0 DUP1 REVERT JUMPDEST DUP1 PUSH4 0x3F4BA83A GT PUSH2 0xE9 JUMPI DUP1 PUSH4 0x3F4BA83A EQ PUSH2 0x18B JUMPI DUP1 PUSH4 0x5C975ABB EQ PUSH2 0x193 JUMPI DUP1 PUSH4 0x6301A143 EQ PUSH2 0x1A9 JUMPI DUP1 PUSH4 0x715018A6 EQ PUSH2 0x1C0 JUMPI DUP1 PUSH4 0x741BEF1A EQ PUSH2 0x1C8 JUMPI PUSH1 0x0 DUP1 REVERT JUMPDEST DUP1 PUSH4 0x1E9492F EQ PUSH2 0x11B JUMPI DUP1 PUSH4 0x1FDE7F26 EQ PUSH2 0x130 JUMPI DUP1 PUSH4 0x2806BCE2 EQ PUSH2 0x165 JUMPI DUP1 PUSH4 0x31D98B3F EQ PUSH2 0x178 JUMPI JUMPDEST PUSH1 0x0 DUP1 REVERT JUMPDEST PUSH2 0x12E PUSH2 0x129 CALLDATASIZE PUSH1 0x4 PUSH2 0xD29 JUMP JUMPDEST PUSH2 0x29E JUMP JUMPDEST STOP JUMPDEST PUSH2 0x143 PUSH2 0x13E CALLDATASIZE PUSH1 0x4 PUSH2 0xD55 JUMP JUMPDEST PUSH2 0x32F JUMP JUMPDEST PUSH1 0x40 DUP1 MLOAD SWAP4 DUP5 MSTORE PUSH1 0x20 DUP5 ADD SWAP3 SWAP1 SWAP3 MSTORE ISZERO ISZERO SWAP1 DUP3 ADD MSTORE PUSH1 0x60 ADD JUMPDEST PUSH1 0x40 MLOAD DUP1 SWAP2 SUB SWAP1 RETURN JUMPDEST PUSH2 0x143 PUSH2 0x173 CALLDATASIZE PUSH1 0x4 PUSH2 0xD6E JUMP JUMPDEST PUSH2 0x34B JUMP JUMPDEST PUSH2 0x143 PUSH2 0x186 CALLDATASIZE PUSH1 0x4 PUSH2 0xD55 JUMP JUMPDEST PUSH2 0x531 JUMP JUMPDEST PUSH2 0x12E PUSH2 0x762 JUMP JUMPDEST PUSH1 0x2 SLOAD PUSH1 0xFF AND PUSH1 0x40 MLOAD SWAP1 ISZERO ISZERO DUP2 MSTORE PUSH1 0x20 ADD PUSH2 0x15C JUMP JUMPDEST PUSH2 0x1B2 PUSH2 0x384 DUP2 JUMP JUMPDEST PUSH1 0x40 MLOAD SWAP1 DUP2 MSTORE PUSH1 0x20 ADD PUSH2 0x15C JUMP JUMPDEST PUSH2 0x12E PUSH2 0x774 JUMP JUMPDEST PUSH1 0x2 SLOAD PUSH2 0x1E0 SWAP1 PUSH2 0x100 SWAP1 DIV PUSH1 0x1 PUSH1 0x1 PUSH1 0xA0 SHL SUB AND DUP2 JUMP JUMPDEST PUSH1 0x40 MLOAD PUSH1 0x1 PUSH1 0x1 PUSH1 0xA0 SHL SUB SWAP1 SWAP2 AND DUP2 MSTORE PUSH1 0x20 ADD PUSH2 0x15C JUMP JUMPDEST PUSH2 0x12E PUSH2 0x786 JUMP JUMPDEST PUSH1 0x0 SLOAD PUSH1 0x1 PUSH1 0x1 PUSH1 0xA0 SHL SUB AND PUSH2 0x1E0 JUMP JUMPDEST PUSH2 0x1B2 PUSH2 0x7CD JUMP JUMPDEST PUSH2 0x12E PUSH2 0x227 CALLDATASIZE PUSH1 0x4 PUSH2 0xD90 JUMP JUMPDEST PUSH2 0x840 JUMP JUMPDEST PUSH2 0x1B2 PUSH7 0x1155548BD554D1 PUSH1 0xCA SHL DUP2 JUMP JUMPDEST PUSH2 0x1B2 PUSH2 0xE10 DUP2 JUMP JUMPDEST PUSH2 0x143 PUSH2 0x254 CALLDATASIZE PUSH1 0x4 PUSH2 0xD55 JUMP JUMPDEST PUSH1 0x3 PUSH1 0x20 MSTORE PUSH1 0x0 SWAP1 DUP2 MSTORE PUSH1 0x40 SWAP1 KECCAK256 DUP1 SLOAD PUSH1 0x1 DUP3 ADD SLOAD PUSH1 0x2 SWAP1 SWAP3 ADD SLOAD SWAP1 SWAP2 SWAP1 PUSH1 0xFF AND DUP4 JUMP JUMPDEST PUSH2 0x12E PUSH2 0x286 CALLDATASIZE PUSH1 0x4 PUSH2 0xD6E JUMP JUMPDEST PUSH2 0x930 JUMP JUMPDEST PUSH2 0x12E PUSH2 0x299 CALLDATASIZE PUSH1 0x4 PUSH2 0xDDE JUMP JUMPDEST PUSH2 0x96E JUMP JUMPDEST PUSH2 0x2A6 PUSH2 0xAC2 JUMP JUMPDEST PUSH7 0x1155548BD554D1 PUSH1 0xCA SHL DUP3 EQ PUSH2 0x2D8 JUMPI PUSH1 0x40 MLOAD PUSH3 0x461BCD PUSH1 0xE5 SHL DUP2 MSTORE PUSH1 0x4 ADD PUSH2 0x2CF SWAP1 PUSH2 0xE10 JUMP JUMPDEST PUSH1 0x40 MLOAD DUP1 SWAP2 SUB SWAP1 REVERT JUMPDEST PUSH1 0x2 SLOAD PUSH1 0x1 PUSH1 0x1 PUSH1 0xA0 SHL SUB DUP3 DUP2 AND PUSH2 0x100 SWAP1 SWAP3 DIV AND EQ PUSH2 0x32B JUMPI PUSH1 0x40 MLOAD PUSH3 0x461BCD PUSH1 0xE5 SHL DUP2 MSTORE PUSH1 0x20 PUSH1 0x4 DUP3 ADD MSTORE PUSH1 0xE PUSH1 0x24 DUP3 ADD MSTORE PUSH14 0x496E76616C696420736F75726365 PUSH1 0x90 SHL PUSH1 0x44 DUP3 ADD MSTORE PUSH1 0x64 ADD PUSH2 0x2CF JUMP JUMPDEST POP POP JUMP JUMPDEST PUSH1 0x0 DUP1 PUSH1 0x0 PUSH2 0x33D DUP5 PUSH2 0x531 JUMP JUMPDEST SWAP3 POP SWAP3 POP SWAP3 POP JUMPDEST SWAP2 SWAP4 SWAP1 SWAP3 POP JUMP JUMPDEST PUSH1 0x2 SLOAD PUSH1 0x0 SWAP1 DUP2 SWAP1 DUP2 SWAP1 PUSH1 0x1 PUSH1 0x1 PUSH1 0xA0 SHL SUB DUP6 DUP2 AND PUSH2 0x100 SWAP1 SWAP3 DIV AND EQ PUSH2 0x3A5 JUMPI PUSH1 0x40 MLOAD PUSH3 0x461BCD PUSH1 0xE5 SHL DUP2 MSTORE PUSH1 0x20 PUSH1 0x4 DUP3 ADD MSTORE PUSH1 0xE PUSH1 0x24 DUP3 ADD MSTORE PUSH14 0x496E76616C696420736F75726365 PUSH1 0x90 SHL PUSH1 0x44 DUP3 ADD MSTORE PUSH1 0x64 ADD PUSH2 0x2CF JUMP JUMPDEST PUSH1 0x2 PUSH1 0x1 SWAP1 SLOAD SWAP1 PUSH2 0x100 EXP SWAP1 DIV PUSH1 0x1 PUSH1 0x1 PUSH1 0xA0 SHL SUB AND PUSH1 0x1 PUSH1 0x1 PUSH1 0xA0 SHL SUB AND PUSH4 0xFEAF968C PUSH1 0x40 MLOAD DUP2 PUSH4 0xFFFFFFFF AND PUSH1 0xE0 SHL DUP2 MSTORE PUSH1 0x4 ADD PUSH1 0xA0 PUSH1 0x40 MLOAD DUP1 DUP4 SUB DUP2 DUP7 GAS STATICCALL SWAP3 POP POP POP DUP1 ISZERO PUSH2 0x414 JUMPI POP PUSH1 0x40 DUP1 MLOAD PUSH1 0x1F RETURNDATASIZE SWAP1 DUP2 ADD PUSH1 0x1F NOT AND DUP3 ADD SWAP1 SWAP3 MSTORE PUSH2 0x411 SWAP2 DUP2 ADD SWAP1 PUSH2 0xE50 JUMP JUMPDEST PUSH1 0x1 JUMPDEST PUSH2 0x426 JUMPI POP PUSH1 0x0 SWAP2 POP DUP2 SWAP1 POP DUP1 PUSH2 0x344 JUMP JUMPDEST PUSH1 0x0 DUP5 SGT PUSH2 0x471 JUMPI PUSH1 0x40 MLOAD PUSH3 0x461BCD PUSH1 0xE5 SHL DUP2 MSTORE PUSH1 0x20 PUSH1 0x4 DUP3 ADD MSTORE PUSH1 0x18 PUSH1 0x24 DUP3 ADD MSTORE PUSH24 0x436861696E6C696E6B3A20496E76616C6964207072696365 PUSH1 0x40 SHL PUSH1 0x44 DUP3 ADD MSTORE PUSH1 0x64 ADD PUSH2 0x2CF JUMP JUMPDEST DUP2 PUSH1 0x0 SUB PUSH2 0x4C1 JUMPI PUSH1 0x40 MLOAD PUSH3 0x461BCD PUSH1 0xE5 SHL DUP2 MSTORE PUSH1 0x20 PUSH1 0x4 DUP3 ADD MSTORE PUSH1 0x1D PUSH1 0x24 DUP3 ADD MSTORE PUSH32 0x436861696E6C696E6B3A20526F756E64206E6F7420636F6D706C657465000000 PUSH1 0x44 DUP3 ADD MSTORE PUSH1 0x64 ADD PUSH2 0x2CF JUMP JUMPDEST PUSH2 0xE10 PUSH2 0x4CE DUP4 TIMESTAMP PUSH2 0xEA2 JUMP JUMPDEST GT ISZERO PUSH2 0x515 JUMPI PUSH1 0x40 MLOAD PUSH3 0x461BCD PUSH1 0xE5 SHL DUP2 MSTORE PUSH1 0x20 PUSH1 0x4 DUP3 ADD MSTORE PUSH1 0x16 PUSH1 0x24 DUP3 ADD MSTORE PUSH22 0x436861696E6C696E6B3A205374616C65207072696365 PUSH1 0x50 SHL PUSH1 0x44 DUP3 ADD MSTORE PUSH1 0x64 ADD PUSH2 0x2CF JUMP JUMPDEST PUSH2 0x51E DUP5 PUSH2 0xAEF JUMP JUMPDEST DUP3 PUSH1 0x1 SWAP8 POP SWAP8 POP SWAP8 POP POP POP POP POP POP PUSH2 0x344 JUMP JUMPDEST PUSH1 0x0 DUP1 PUSH1 0x0 PUSH7 0x1155548BD554D1 PUSH1 0xCA SHL DUP5 EQ PUSH2 0x55F JUMPI PUSH1 0x40 MLOAD PUSH3 0x461BCD PUSH1 0xE5 SHL DUP2 MSTORE PUSH1 0x4 ADD PUSH2 0x2CF SWAP1 PUSH2 0xE10 JUMP JUMPDEST PUSH1 0x0 DUP5 DUP2 MSTORE PUSH1 0x3 PUSH1 0x20 SWAP1 DUP2 MSTORE PUSH1 0x40 SWAP2 DUP3 SWAP1 KECCAK256 DUP3 MLOAD PUSH1 0x60 DUP2 ADD DUP5 MSTORE DUP2 SLOAD DUP2 MSTORE PUSH1 0x1 DUP3 ADD SLOAD SWAP3 DUP2 ADD SWAP3 SWAP1 SWAP3 MSTORE PUSH1 0x2 ADD SLOAD PUSH1 0xFF AND ISZERO DUP1 ISZERO SWAP3 DUP3 ADD DUP4 SWAP1 MSTORE SWAP1 SWAP2 SWAP1 PUSH2 0x5B7 JUMPI POP PUSH2 0x384 DUP2 PUSH1 0x20 ADD MLOAD TIMESTAMP PUSH2 0x5B4 SWAP2 SWAP1 PUSH2 0xEA2 JUMP JUMPDEST GT ISZERO JUMPDEST ISZERO PUSH2 0x5D2 JUMPI DUP1 MLOAD PUSH1 0x20 SWAP1 SWAP2 ADD MLOAD SWAP1 SWAP4 POP SWAP2 POP PUSH1 0x1 SWAP1 POP PUSH2 0x344 JUMP JUMPDEST PUSH1 0x2 PUSH1 0x1 SWAP1 SLOAD SWAP1 PUSH2 0x100 EXP SWAP1 DIV PUSH1 0x1 PUSH1 0x1 PUSH1 0xA0 SHL SUB AND PUSH1 0x1 PUSH1 0x1 PUSH1 0xA0 SHL SUB AND PUSH4 0xFEAF968C PUSH1 0x40 MLOAD DUP2 PUSH4 0xFFFFFFFF AND PUSH1 0xE0 SHL DUP2 MSTORE PUSH1 0x4 ADD PUSH1 0xA0 PUSH1 0x40 MLOAD DUP1 DUP4 SUB DUP2 DUP7 GAS STATICCALL SWAP3 POP POP POP DUP1 ISZERO PUSH2 0x641 JUMPI POP PUSH1 0x40 DUP1 MLOAD PUSH1 0x1F RETURNDATASIZE SWAP1 DUP2 ADD PUSH1 0x1F NOT AND DUP3 ADD SWAP1 SWAP3 MSTORE PUSH2 0x63E SWAP2 DUP2 ADD SWAP1 PUSH2 0xE50 JUMP JUMPDEST PUSH1 0x1 JUMPDEST PUSH2 0x656 JUMPI PUSH1 0x0 DUP1 PUSH1 0x0 SWAP4 POP SWAP4 POP SWAP4 POP POP PUSH2 0x344 JUMP JUMPDEST PUSH1 0x0 DUP5 SGT PUSH2 0x6A1 JUMPI PUSH1 0x40 MLOAD PUSH3 0x461BCD PUSH1 0xE5 SHL DUP2 MSTORE PUSH1 0x20 PUSH1 0x4 DUP3 ADD MSTORE PUSH1 0x18 PUSH1 0x24 DUP3 ADD MSTORE PUSH24 0x436861696E6C696E6B3A20496E76616C6964207072696365 PUSH1 0x40 SHL PUSH1 0x44 DUP3 ADD MSTORE PUSH1 0x64 ADD PUSH2 0x2CF JUMP JUMPDEST DUP2 PUSH1 0x0 SUB PUSH2 0x6F1 JUMPI PUSH1 0x40 MLOAD PUSH3 0x461BCD PUSH1 0xE5 SHL DUP2 MSTORE PUSH1 0x20 PUSH1 0x4 DUP3 ADD MSTORE PUSH1 0x1D PUSH1 0x24 DUP3 ADD MSTORE PUSH32 0x436861696E6C696E6B3A20526F756E64206E6F7420636F6D706C657465000000 PUSH1 0x44 DUP3 ADD MSTORE PUSH1 0x64 ADD PUSH2 0x2CF JUMP JUMPDEST PUSH2 0xE10 PUSH2 0x6FE DUP4 TIMESTAMP PUSH2 0xEA2 JUMP JUMPDEST GT ISZERO PUSH2 0x745 JUMPI PUSH1 0x40 MLOAD PUSH3 0x461BCD PUSH1 0xE5 SHL DUP2 MSTORE PUSH1 0x20 PUSH1 0x4 DUP3 ADD MSTORE PUSH1 0x16 PUSH1 0x24 DUP3 ADD MSTORE PUSH22 0x436861696E6C696E6B3A205374616C65207072696365 PUSH1 0x50 SHL PUSH1 0x44 DUP3 ADD MSTORE PUSH1 0x64 ADD PUSH2 0x2CF JUMP JUMPDEST PUSH2 0x74E DUP5 PUSH2 0xAEF JUMP JUMPDEST DUP3 PUSH1 0x1 SWAP9 POP SWAP9 POP SWAP9 POP POP POP POP POP POP POP PUSH2 0x344 JUMP JUMPDEST PUSH2 0x76A PUSH2 0xAC2 JUMP JUMPDEST PUSH2 0x772 PUSH2 0xB19 JUMP JUMPDEST JUMP JUMPDEST PUSH2 0x77C PUSH2 0xAC2 JUMP JUMPDEST PUSH2 0x772 PUSH1 0x0 PUSH2 0xB6B JUMP JUMPDEST PUSH2 0x78E PUSH2 0xAC2 JUMP JUMPDEST PUSH2 0x796 PUSH2 0xBBB JUMP JUMPDEST PUSH1 0x40 MLOAD PUSH7 0x1155548BD554D1 PUSH1 0xCA SHL SWAP1 PUSH32 0xD373A1AC37410A4DA6DEF2D7F3F2E704ACA3E95E2E251322A031EEDDA7EB686C SWAP1 PUSH1 0x0 SWAP1 LOG2 JUMP JUMPDEST PUSH1 0x0 DUP1 PUSH1 0x0 PUSH2 0x7E5 PUSH7 0x1155548BD554D1 PUSH1 0xCA SHL PUSH2 0x531 JUMP JUMPDEST SWAP3 POP POP SWAP2 POP DUP1 PUSH2 0x830 JUMPI PUSH1 0x40 MLOAD PUSH3 0x461BCD PUSH1 0xE5 SHL DUP2 MSTORE PUSH1 0x20 PUSH1 0x4 DUP3 ADD MSTORE PUSH1 0x16 PUSH1 0x24 DUP3 ADD MSTORE PUSH22 0x496E76616C6964206F72207374616C65207072696365 PUSH1 0x50 SHL PUSH1 0x44 DUP3 ADD MSTORE PUSH1 0x64 ADD PUSH2 0x2CF JUMP JUMPDEST PUSH2 0x839 DUP3 PUSH2 0xBF8 JUMP JUMPDEST SWAP3 POP POP POP SWAP1 JUMP JUMPDEST PUSH2 0x848 PUSH2 0xAC2 JUMP JUMPDEST PUSH2 0x850 PUSH2 0xC25 JUMP JUMPDEST PUSH7 0x1155548BD554D1 PUSH1 0xCA SHL DUP7 EQ PUSH2 0x879 JUMPI PUSH1 0x40 MLOAD PUSH3 0x461BCD PUSH1 0xE5 SHL DUP2 MSTORE PUSH1 0x4 ADD PUSH2 0x2CF SWAP1 PUSH2 0xE10 JUMP JUMPDEST PUSH1 0x1 PUSH1 0x1 PUSH1 0xA0 SHL SUB DUP6 AND PUSH2 0x8C8 JUMPI PUSH1 0x40 MLOAD PUSH3 0x461BCD PUSH1 0xE5 SHL DUP2 MSTORE PUSH1 0x20 PUSH1 0x4 DUP3 ADD MSTORE PUSH1 0x16 PUSH1 0x24 DUP3 ADD MSTORE PUSH22 0x496E76616C696420736F757263652061646472657373 PUSH1 0x50 SHL PUSH1 0x44 DUP3 ADD MSTORE PUSH1 0x64 ADD PUSH2 0x2CF JUMP JUMPDEST PUSH1 0x2 DUP1 SLOAD PUSH1 0x1 PUSH1 0x1 PUSH1 0xA0 SHL SUB DUP8 DUP2 AND PUSH2 0x100 DUP2 DUP2 MUL PUSH2 0x100 PUSH1 0x1 PUSH1 0xA8 SHL SUB NOT DUP6 AND OR SWAP1 SWAP5 SSTORE PUSH1 0x40 MLOAD SWAP4 SWAP1 SWAP3 DIV AND SWAP2 DUP3 SWAP1 PUSH32 0xA8ABE0398416476DB5B05737CD4DA3B3CBDE5012D978A6A6C3FD49D321753536 SWAP1 PUSH1 0x0 SWAP1 LOG3 POP PUSH2 0x928 PUSH1 0x1 DUP1 SSTORE JUMP JUMPDEST POP POP POP POP POP POP JUMP JUMPDEST PUSH2 0x938 PUSH2 0xAC2 JUMP JUMPDEST PUSH1 0x1 PUSH1 0x1 PUSH1 0xA0 SHL SUB DUP2 AND PUSH2 0x962 JUMPI PUSH1 0x40 MLOAD PUSH4 0x1E4FBDF7 PUSH1 0xE0 SHL DUP2 MSTORE PUSH1 0x0 PUSH1 0x4 DUP3 ADD MSTORE PUSH1 0x24 ADD PUSH2 0x2CF JUMP JUMPDEST PUSH2 0x96B DUP2 PUSH2 0xB6B JUMP JUMPDEST POP JUMP JUMPDEST PUSH2 0x976 PUSH2 0xAC2 JUMP JUMPDEST PUSH2 0x97E PUSH2 0xC7E JUMP JUMPDEST PUSH2 0x986 PUSH2 0xC25 JUMP JUMPDEST PUSH7 0x1155548BD554D1 PUSH1 0xCA SHL DUP5 EQ PUSH2 0x9AF JUMPI PUSH1 0x40 MLOAD PUSH3 0x461BCD PUSH1 0xE5 SHL DUP2 MSTORE PUSH1 0x4 ADD PUSH2 0x2CF SWAP1 PUSH2 0xE10 JUMP JUMPDEST TIMESTAMP DUP3 GT ISZERO PUSH2 0x9F2 JUMPI PUSH1 0x40 MLOAD PUSH3 0x461BCD PUSH1 0xE5 SHL DUP2 MSTORE PUSH1 0x20 PUSH1 0x4 DUP3 ADD MSTORE PUSH1 0x10 PUSH1 0x24 DUP3 ADD MSTORE PUSH16 0x4675747572652074696D657374616D7 PUSH1 0x84 SHL PUSH1 0x44 DUP3 ADD MSTORE PUSH1 0x64 ADD PUSH2 0x2CF JUMP JUMPDEST PUSH1 0x0 DUP4 GT PUSH2 0xA32 JUMPI PUSH1 0x40 MLOAD PUSH3 0x461BCD PUSH1 0xE5 SHL DUP2 MSTORE PUSH1 0x20 PUSH1 0x4 DUP3 ADD MSTORE PUSH1 0xD PUSH1 0x24 DUP3 ADD MSTORE PUSH13 0x496E76616C6964207072696365 PUSH1 0x98 SHL PUSH1 0x44 DUP3 ADD MSTORE PUSH1 0x64 ADD PUSH2 0x2CF JUMP JUMPDEST PUSH1 0x40 DUP1 MLOAD PUSH1 0x60 DUP2 ADD DUP3 MSTORE DUP5 DUP2 MSTORE PUSH1 0x20 DUP1 DUP3 ADD DUP6 DUP2 MSTORE PUSH1 0x1 DUP4 DUP6 ADD DUP2 DUP2 MSTORE PUSH1 0x0 DUP11 DUP2 MSTORE PUSH1 0x3 DUP6 MSTORE DUP7 SWAP1 KECCAK256 SWAP5 MLOAD DUP6 SSTORE SWAP2 MLOAD SWAP1 DUP5 ADD SSTORE MLOAD PUSH1 0x2 SWAP1 SWAP3 ADD DUP1 SLOAD PUSH1 0xFF NOT AND SWAP3 ISZERO ISZERO SWAP3 SWAP1 SWAP3 OR SWAP1 SWAP2 SSTORE DUP2 MLOAD DUP6 DUP2 MSTORE SWAP1 DUP2 ADD DUP5 SWAP1 MSTORE DUP6 SWAP2 PUSH32 0xBCD10D64FCE9DCF9568572ED92E371DF336D32649E8960A045C9548794A44B26 SWAP2 ADD PUSH1 0x40 MLOAD DUP1 SWAP2 SUB SWAP1 LOG2 PUSH2 0xABC PUSH1 0x1 DUP1 SSTORE JUMP JUMPDEST POP POP POP POP JUMP JUMPDEST PUSH1 0x0 SLOAD PUSH1 0x1 PUSH1 0x1 PUSH1 0xA0 SHL SUB AND CALLER EQ PUSH2 0x772 JUMPI PUSH1 0x40 MLOAD PUSH4 0x118CDAA7 PUSH1 0xE0 SHL DUP2 MSTORE CALLER PUSH1 0x4 DUP3 ADD MSTORE PUSH1 0x24 ADD PUSH2 0x2CF JUMP JUMPDEST PUSH1 0x0 DUP1 DUP3 SLT ISZERO PUSH2 0xB15 JUMPI PUSH1 0x40 MLOAD PUSH4 0x54672219 PUSH1 0xE1 SHL DUP2 MSTORE PUSH1 0x4 DUP2 ADD DUP4 SWAP1 MSTORE PUSH1 0x24 ADD PUSH2 0x2CF JUMP JUMPDEST POP SWAP1 JUMP JUMPDEST PUSH2 0xB21 PUSH2 0xCC4 JUMP JUMPDEST PUSH1 0x2 DUP1 SLOAD PUSH1 0xFF NOT AND SWAP1 SSTORE PUSH32 0x5DB9EE0A495BF2E6FF9C91A7834C1BA4FDD244A5E8AA4E537BD38AEAE4B073AA CALLER JUMPDEST PUSH1 0x40 MLOAD PUSH1 0x1 PUSH1 0x1 PUSH1 0xA0 SHL SUB SWAP1 SWAP2 AND DUP2 MSTORE PUSH1 0x20 ADD PUSH1 0x40 MLOAD DUP1 SWAP2 SUB SWAP1 LOG1 JUMP JUMPDEST PUSH1 0x0 DUP1 SLOAD PUSH1 0x1 PUSH1 0x1 PUSH1 0xA0 SHL SUB DUP4 DUP2 AND PUSH1 0x1 PUSH1 0x1 PUSH1 0xA0 SHL SUB NOT DUP4 AND DUP2 OR DUP5 SSTORE PUSH1 0x40 MLOAD SWAP2 SWAP1 SWAP3 AND SWAP3 DUP4 SWAP2 PUSH32 0x8BE0079C531659141344CD1FD0A4F28419497F9722A3DAAFE3B4186F6B6457E0 SWAP2 SWAP1 LOG3 POP POP JUMP JUMPDEST PUSH2 0xBC3 PUSH2 0xC7E JUMP JUMPDEST PUSH1 0x2 DUP1 SLOAD PUSH1 0xFF NOT AND PUSH1 0x1 OR SWAP1 SSTORE PUSH32 0x62E78CEA01BEE320CD4E420270B5EA74000D11B0C9F74754EBDBFC544B05A258 PUSH2 0xB4E CALLER SWAP1 JUMP JUMPDEST PUSH1 0x0 PUSH1 0x1 PUSH1 0x1 PUSH1 0xFF SHL SUB DUP3 GT ISZERO PUSH2 0xB15 JUMPI PUSH1 0x40 MLOAD PUSH4 0x123BAF03 PUSH1 0xE1 SHL DUP2 MSTORE PUSH1 0x4 DUP2 ADD DUP4 SWAP1 MSTORE PUSH1 0x24 ADD PUSH2 0x2CF JUMP JUMPDEST PUSH1 0x2 PUSH1 0x1 SLOAD SUB PUSH2 0xC77 JUMPI PUSH1 0x40 MLOAD PUSH3 0x461BCD PUSH1 0xE5 SHL DUP2 MSTORE PUSH1 0x20 PUSH1 0x4 DUP3 ADD MSTORE PUSH1 0x1F PUSH1 0x24 DUP3 ADD MSTORE PUSH32 0x5265656E7472616E637947756172643A207265656E7472616E742063616C6C00 PUSH1 0x44 DUP3 ADD MSTORE PUSH1 0x64 ADD PUSH2 0x2CF JUMP JUMPDEST PUSH1 0x2 PUSH1 0x1 SSTORE JUMP JUMPDEST PUSH1 0x2 SLOAD PUSH1 0xFF AND ISZERO PUSH2 0x772 JUMPI PUSH1 0x40 MLOAD PUSH3 0x461BCD PUSH1 0xE5 SHL DUP2 MSTORE PUSH1 0x20 PUSH1 0x4 DUP3 ADD MSTORE PUSH1 0x10 PUSH1 0x24 DUP3 ADD MSTORE PUSH16 0x14185D5CD8589B194E881C185D5CD959 PUSH1 0x82 SHL PUSH1 0x44 DUP3 ADD MSTORE PUSH1 0x64 ADD PUSH2 0x2CF JUMP JUMPDEST PUSH1 0x2 SLOAD PUSH1 0xFF AND PUSH2 0x772 JUMPI PUSH1 0x40 MLOAD PUSH3 0x461BCD PUSH1 0xE5 SHL DUP2 MSTORE PUSH1 0x20 PUSH1 0x4 DUP3 ADD MSTORE PUSH1 0x14 PUSH1 0x24 DUP3 ADD MSTORE PUSH20 0x14185D5CD8589B194E881B9BDD081C185D5CD959 PUSH1 0x62 SHL PUSH1 0x44 DUP3 ADD MSTORE PUSH1 0x64 ADD PUSH2 0x2CF JUMP JUMPDEST DUP1 CALLDATALOAD PUSH1 0x1 PUSH1 0x1 PUSH1 0xA0 SHL SUB DUP2 AND DUP2 EQ PUSH2 0xD24 JUMPI PUSH1 0x0 DUP1 REVERT JUMPDEST SWAP2 SWAP1 POP JUMP JUMPDEST PUSH1 0x0 DUP1 PUSH1 0x40 DUP4 DUP6 SUB SLT ISZERO PUSH2 0xD3C JUMPI PUSH1 0x0 DUP1 REVERT JUMPDEST DUP3 CALLDATALOAD SWAP2 POP PUSH2 0xD4C PUSH1 0x20 DUP5 ADD PUSH2 0xD0D JUMP JUMPDEST SWAP1 POP SWAP3 POP SWAP3 SWAP1 POP JUMP JUMPDEST PUSH1 0x0 PUSH1 0x20 DUP3 DUP5 SUB SLT ISZERO PUSH2 0xD67 JUMPI PUSH1 0x0 DUP1 REVERT JUMPDEST POP CALLDATALOAD SWAP2 SWAP1 POP JUMP JUMPDEST PUSH1 0x0 PUSH1 0x20 DUP3 DUP5 SUB SLT ISZERO PUSH2 0xD80 JUMPI PUSH1 0x0 DUP1 REVERT JUMPDEST PUSH2 0xD89 DUP3 PUSH2 0xD0D JUMP JUMPDEST SWAP4 SWAP3 POP POP POP JUMP JUMPDEST PUSH1 0x0 DUP1 PUSH1 0x0 DUP1 PUSH1 0x0 DUP1 PUSH1 0xC0 DUP8 DUP10 SUB SLT ISZERO PUSH2 0xDA9 JUMPI PUSH1 0x0 DUP1 REVERT JUMPDEST DUP7 CALLDATALOAD SWAP6 POP PUSH2 0xDB9 PUSH1 0x20 DUP9 ADD PUSH2 0xD0D JUMP JUMPDEST SWAP6 SWAP9 SWAP6 SWAP8 POP POP POP POP PUSH1 0x40 DUP5 ADD CALLDATALOAD SWAP4 PUSH1 0x60 DUP2 ADD CALLDATALOAD SWAP4 PUSH1 0x80 DUP3 ADD CALLDATALOAD SWAP4 POP PUSH1 0xA0 SWAP1 SWAP2 ADD CALLDATALOAD SWAP2 POP JUMP JUMPDEST PUSH1 0x0 DUP1 PUSH1 0x0 DUP1 PUSH1 0x80 DUP6 DUP8 SUB SLT ISZERO PUSH2 0xDF4 JUMPI PUSH1 0x0 DUP1 REVERT JUMPDEST POP POP DUP3 CALLDATALOAD SWAP5 PUSH1 0x20 DUP5 ADD CALLDATALOAD SWAP5 POP PUSH1 0x40 DUP5 ADD CALLDATALOAD SWAP4 PUSH1 0x60 ADD CALLDATALOAD SWAP3 POP SWAP1 POP JUMP JUMPDEST PUSH1 0x20 DUP1 DUP3 MSTORE PUSH1 0xC SWAP1 DUP3 ADD MSTORE PUSH12 0x24B73B30B634B2103830B4B9 PUSH1 0xA1 SHL PUSH1 0x40 DUP3 ADD MSTORE PUSH1 0x60 ADD SWAP1 JUMP JUMPDEST DUP1 MLOAD PUSH10 0xFFFFFFFFFFFFFFFFFFFF DUP2 AND DUP2 EQ PUSH2 0xD24 JUMPI PUSH1 0x0 DUP1 REVERT JUMPDEST PUSH1 0x0 DUP1 PUSH1 0x0 DUP1 PUSH1 0x0 PUSH1 0xA0 DUP7 DUP9 SUB SLT ISZERO PUSH2 0xE68 JUMPI PUSH1 0x0 DUP1 REVERT JUMPDEST PUSH2 0xE71 DUP7 PUSH2 0xE36 JUMP JUMPDEST PUSH1 0x20 DUP8 ADD MLOAD PUSH1 0x40 DUP9 ADD MLOAD PUSH1 0x60 DUP10 ADD MLOAD SWAP3 SWAP8 POP SWAP1 SWAP6 POP SWAP4 POP SWAP2 POP PUSH2 0xE96 PUSH1 0x80 DUP8 ADD PUSH2 0xE36 JUMP JUMPDEST SWAP1 POP SWAP3 SWAP6 POP SWAP3 SWAP6 SWAP1 SWAP4 POP JUMP JUMPDEST DUP2 DUP2 SUB DUP2 DUP2 GT ISZERO PUSH2 0xEC3 JUMPI PUSH4 0x4E487B71 PUSH1 0xE0 SHL PUSH1 0x0 MSTORE PUSH1 0x11 PUSH1 0x4 MSTORE PUSH1 0x24 PUSH1 0x0 REVERT JUMPDEST SWAP3 SWAP2 POP POP JUMP INVALID LOG2 PUSH5 0x6970667358 0x22 SLT KECCAK256 PUSH19 0x91FD4FE34FF81E0314001620C823D0C3E4EB32 0xDA 0x25 LOG4 0xFB MOD 0x28 DUP9 PUSH5 0x33539F4F64 PUSH20 0x6F6C634300081C00330000000000000000000000 "
				},
				"gasEstimates": {
					"creation": {
						"codeDepositCost": "767800",
						"executionCost": "infinite",
						"totalCost": "infinite"
					},
					"external": {
						"CHAINLINK_STALENESS_THRESHOLD()": "239",
						"EUR_USD_PAIR()": "223",
						"PRICE_VALIDITY_PERIOD()": "262",
						"addOracleSource(bytes32,address,uint256,uint256,uint256,uint256)": "57832",
						"getAggregatedPrice(bytes32)": "infinite",
						"getLatestPrice()": "infinite",
						"getPrice(bytes32)": "infinite",
						"getSourcePrice(address)": "infinite",
						"latestPrices(bytes32)": "6780",
						"owner()": "2376",
						"pause()": "infinite",
						"paused()": "2337",
						"priceFeed()": "2459",
						"removeOracleSource(bytes32,address)": "4819",
						"renounceOwnership()": "infinite",
						"transferOwnership(address)": "28421",
						"unpause()": "infinite",
						"updatePrice(bytes32,uint256,uint256,uint256)": "infinite"
					}
				},
				"methodIdentifiers": {
					"CHAINLINK_STALENESS_THRESHOLD()": "bc269850",
					"EUR_USD_PAIR()": "a5b5fb88",
					"PRICE_VALIDITY_PERIOD()": "6301a143",
					"addOracleSource(bytes32,address,uint256,uint256,uint256,uint256)": "9f97acb7",
					"getAggregatedPrice(bytes32)": "1fde7f26",
					"getLatestPrice()": "8e15f473",
					"getPrice(bytes32)": "31d98b3f",
					"getSourcePrice(address)": "2806bce2",
					"latestPrices(bytes32)": "db7c1ad1",
					"owner()": "8da5cb5b",
					"pause()": "8456cb59",
					"paused()": "5c975abb",
					"priceFeed()": "741bef1a",
					"removeOracleSource(bytes32,address)": "01e9492f",
					"renounceOwnership()": "715018a6",
					"transferOwnership(address)": "f2fde38b",
					"unpause()": "3f4ba83a",
					"updatePrice(bytes32,uint256,uint256,uint256)": "f3f699f1"
				}
			},
			"storageLayout": {
				"storage": [
					{
						"astId": 208,
						"contract": "oracle/UBI4ALLOracle.sol:UBI4ALLOracle",
						"label": "_owner",
						"offset": 0,
						"slot": "0",
						"type": "t_address"
					},
					{
						"astId": 466,
						"contract": "oracle/UBI4ALLOracle.sol:UBI4ALLOracle",
						"label": "_status",
						"offset": 0,
						"slot": "1",
						"type": "t_uint256"
					},
					{
						"astId": 365,
						"contract": "oracle/UBI4ALLOracle.sol:UBI4ALLOracle",
						"label": "_paused",
						"offset": 0,
						"slot": "2",
						"type": "t_bool"
					},
					{
						"astId": 2592,
						"contract": "oracle/UBI4ALLOracle.sol:UBI4ALLOracle",
						"label": "priceFeed",
						"offset": 1,
						"slot": "2",
						"type": "t_contract(AggregatorV3Interface)103"
					},
					{
						"astId": 2603,
						"contract": "oracle/UBI4ALLOracle.sol:UBI4ALLOracle",
						"label": "latestPrices",
						"offset": 0,
						"slot": "3",
						"type": "t_mapping(t_bytes32,t_struct(PriceData)2589_storage)"
					}
				],
				"types": {
					"t_address": {
						"encoding": "inplace",
						"label": "address",
						"numberOfBytes": "20"
					},
					"t_bool": {
						"encoding": "inplace",
						"label": "bool",
						"numberOfBytes": "1"
					},
					"t_bytes32": {
						"encoding": "inplace",
						"label": "bytes32",
						"numberOfBytes": "32"
					},
					"t_contract(AggregatorV3Interface)103": {
						"encoding": "inplace",
						"label": "contract AggregatorV3Interface",
						"numberOfBytes": "20"
					},
					"t_mapping(t_bytes32,t_struct(PriceData)2589_storage)": {
						"encoding": "mapping",
						"key": "t_bytes32",
						"label": "mapping(bytes32 => struct UBI4ALLOracle.PriceData)",
						"numberOfBytes": "32",
						"value": "t_struct(PriceData)2589_storage"
					},
					"t_struct(PriceData)2589_storage": {
						"encoding": "inplace",
						"label": "struct UBI4ALLOracle.PriceData",
						"members": [
							{
								"astId": 2584,
								"contract": "oracle/UBI4ALLOracle.sol:UBI4ALLOracle",
								"label": "price",
								"offset": 0,
								"slot": "0",
								"type": "t_uint256"
							},
							{
								"astId": 2586,
								"contract": "oracle/UBI4ALLOracle.sol:UBI4ALLOracle",
								"label": "timestamp",
								"offset": 0,
								"slot": "1",
								"type": "t_uint256"
							},
							{
								"astId": 2588,
								"contract": "oracle/UBI4ALLOracle.sol:UBI4ALLOracle",
								"label": "isValid",
								"offset": 0,
								"slot": "2",
								"type": "t_bool"
							}
						],
						"numberOfBytes": "96"
					},
					"t_uint256": {
						"encoding": "inplace",
						"label": "uint256",
						"numberOfBytes": "32"
					}
				}
			},
			"userdoc": {
				"events": {
					"PriceUpdated(bytes32,uint256,uint256)": {
						"notice": "Emesso quando il prezzo viene aggiornato"
					}
				},
				"kind": "user",
				"methods": {
					"getAggregatedPrice(bytes32)": {
						"notice": "Ottiene il prezzo aggregato per una coppia"
					},
					"getLatestPrice()": {
						"notice": "Ottiene il prezzo più recente per la coppia EUR/USD"
					},
					"getPrice(bytes32)": {
						"notice": "Ottiene il prezzo più recente per una coppia"
					},
					"getSourcePrice(address)": {
						"notice": "Ottiene il prezzo direttamente dal feed Chainlink"
					},
					"removeOracleSource(bytes32,address)": {
						"notice": "Rimuove un feed Chainlink"
					}
				},
				"notice": "Fornisce prezzi aggiornati per la coppia EUR/USD, con fallback a Chainlink",
				"version": 1
			}
		}
	}
}