{
	"quantum/UBI4ALLQuantumGovernance.sol": {
		"UBI4ALLQuantumGovernance": {
			"abi": [
				{
					"inputs": [
						{
							"internalType": "address",
							"name": "_quantumToken",
							"type": "address"
						},
						{
							"internalType": "address",
							"name": "_customOracle",
							"type": "address"
						},
						{
							"internalType": "address",
							"name": "initialOwner",
							"type": "address"
						}
					],
					"stateMutability": "nonpayable",
					"type": "constructor"
				},
				{
					"inputs": [
						{
							"internalType": "address",
							"name": "owner",
							"type": "address"
						}
					],
					"name": "OwnableInvalidOwner",
					"type": "error"
				},
				{
					"inputs": [
						{
							"internalType": "address",
							"name": "account",
							"type": "address"
						}
					],
					"name": "OwnableUnauthorizedAccount",
					"type": "error"
				},
				{
					"anonymous": false,
					"inputs": [
						{
							"indexed": true,
							"internalType": "uint256",
							"name": "proposalId",
							"type": "uint256"
						},
						{
							"indexed": true,
							"internalType": "address",
							"name": "voter",
							"type": "address"
						},
						{
							"indexed": false,
							"internalType": "uint256",
							"name": "bonusWeight",
							"type": "uint256"
						}
					],
					"name": "EntanglementBonusApplied",
					"type": "event"
				},
				{
					"anonymous": false,
					"inputs": [
						{
							"indexed": true,
							"internalType": "address",
							"name": "previousOwner",
							"type": "address"
						},
						{
							"indexed": true,
							"internalType": "address",
							"name": "newOwner",
							"type": "address"
						}
					],
					"name": "OwnershipTransferred",
					"type": "event"
				},
				{
					"anonymous": false,
					"inputs": [
						{
							"indexed": true,
							"internalType": "uint256",
							"name": "proposalId",
							"type": "uint256"
						},
						{
							"indexed": false,
							"internalType": "string",
							"name": "description",
							"type": "string"
						}
					],
					"name": "ProposalCreated",
					"type": "event"
				},
				{
					"anonymous": false,
					"inputs": [
						{
							"indexed": true,
							"internalType": "uint256",
							"name": "proposalId",
							"type": "uint256"
						}
					],
					"name": "ProposalExecuted",
					"type": "event"
				},
				{
					"anonymous": false,
					"inputs": [
						{
							"indexed": true,
							"internalType": "address",
							"name": "voter",
							"type": "address"
						},
						{
							"indexed": false,
							"internalType": "uint256",
							"name": "influenceBonus",
							"type": "uint256"
						}
					],
					"name": "ReputationUpdated",
					"type": "event"
				},
				{
					"anonymous": false,
					"inputs": [
						{
							"indexed": true,
							"internalType": "address",
							"name": "voter",
							"type": "address"
						},
						{
							"indexed": true,
							"internalType": "uint256",
							"name": "proposalId",
							"type": "uint256"
						},
						{
							"indexed": false,
							"internalType": "uint8",
							"name": "support",
							"type": "uint8"
						},
						{
							"indexed": false,
							"internalType": "uint256",
							"name": "weight",
							"type": "uint256"
						}
					],
					"name": "VoteCast",
					"type": "event"
				},
				{
					"inputs": [],
					"name": "ACTIVE_VOTER_THRESHOLD",
					"outputs": [
						{
							"internalType": "uint256",
							"name": "",
							"type": "uint256"
						}
					],
					"stateMutability": "view",
					"type": "function"
				},
				{
					"inputs": [],
					"name": "MAX_ENTANGLEMENT_BONUS",
					"outputs": [
						{
							"internalType": "uint256",
							"name": "",
							"type": "uint256"
						}
					],
					"stateMutability": "view",
					"type": "function"
				},
				{
					"inputs": [],
					"name": "MAX_INFLUENCE_BONUS",
					"outputs": [
						{
							"internalType": "uint256",
							"name": "",
							"type": "uint256"
						}
					],
					"stateMutability": "view",
					"type": "function"
				},
				{
					"inputs": [],
					"name": "MINIMUM_TOKENS_FOR_PROPOSAL",
					"outputs": [
						{
							"internalType": "uint256",
							"name": "",
							"type": "uint256"
						}
					],
					"stateMutability": "view",
					"type": "function"
				},
				{
					"inputs": [],
					"name": "QUORUM_PERCENTAGE",
					"outputs": [
						{
							"internalType": "uint256",
							"name": "",
							"type": "uint256"
						}
					],
					"stateMutability": "view",
					"type": "function"
				},
				{
					"inputs": [],
					"name": "VOTING_PERIOD",
					"outputs": [
						{
							"internalType": "uint256",
							"name": "",
							"type": "uint256"
						}
					],
					"stateMutability": "view",
					"type": "function"
				},
				{
					"inputs": [
						{
							"internalType": "uint256",
							"name": "",
							"type": "uint256"
						}
					],
					"name": "_proposals",
					"outputs": [
						{
							"internalType": "uint256",
							"name": "id",
							"type": "uint256"
						},
						{
							"internalType": "string",
							"name": "description",
							"type": "string"
						},
						{
							"internalType": "bool",
							"name": "isExecuted",
							"type": "bool"
						},
						{
							"internalType": "uint256",
							"name": "startTime",
							"type": "uint256"
						},
						{
							"internalType": "uint256",
							"name": "endTime",
							"type": "uint256"
						},
						{
							"internalType": "uint256",
							"name": "forVotes",
							"type": "uint256"
						},
						{
							"internalType": "uint256",
							"name": "againstVotes",
							"type": "uint256"
						}
					],
					"stateMutability": "view",
					"type": "function"
				},
				{
					"inputs": [
						{
							"internalType": "string",
							"name": "description",
							"type": "string"
						}
					],
					"name": "createProposal",
					"outputs": [],
					"stateMutability": "nonpayable",
					"type": "function"
				},
				{
					"inputs": [],
					"name": "customOracle",
					"outputs": [
						{
							"internalType": "contract IUBI4ALLCustomOracle",
							"name": "",
							"type": "address"
						}
					],
					"stateMutability": "view",
					"type": "function"
				},
				{
					"inputs": [
						{
							"internalType": "uint256",
							"name": "proposalId",
							"type": "uint256"
						}
					],
					"name": "executeProposal",
					"outputs": [],
					"stateMutability": "nonpayable",
					"type": "function"
				},
				{
					"inputs": [],
					"name": "owner",
					"outputs": [
						{
							"internalType": "address",
							"name": "",
							"type": "address"
						}
					],
					"stateMutability": "view",
					"type": "function"
				},
				{
					"inputs": [],
					"name": "proposalCount",
					"outputs": [
						{
							"internalType": "uint256",
							"name": "",
							"type": "uint256"
						}
					],
					"stateMutability": "view",
					"type": "function"
				},
				{
					"inputs": [
						{
							"internalType": "uint256",
							"name": "proposalId",
							"type": "uint256"
						}
					],
					"name": "proposals",
					"outputs": [
						{
							"internalType": "uint256",
							"name": "id",
							"type": "uint256"
						},
						{
							"internalType": "string",
							"name": "description",
							"type": "string"
						},
						{
							"internalType": "bool",
							"name": "isExecuted",
							"type": "bool"
						}
					],
					"stateMutability": "view",
					"type": "function"
				},
				{
					"inputs": [],
					"name": "quantumToken",
					"outputs": [
						{
							"internalType": "contract IUBI4ALLQuantum",
							"name": "",
							"type": "address"
						}
					],
					"stateMutability": "view",
					"type": "function"
				},
				{
					"inputs": [],
					"name": "renounceOwnership",
					"outputs": [],
					"stateMutability": "nonpayable",
					"type": "function"
				},
				{
					"inputs": [
						{
							"internalType": "address",
							"name": "newOwner",
							"type": "address"
						}
					],
					"name": "transferOwnership",
					"outputs": [],
					"stateMutability": "nonpayable",
					"type": "function"
				},
				{
					"inputs": [
						{
							"internalType": "address",
							"name": "_newOracle",
							"type": "address"
						}
					],
					"name": "updateOracle",
					"outputs": [],
					"stateMutability": "nonpayable",
					"type": "function"
				},
				{
					"inputs": [
						{
							"internalType": "uint256",
							"name": "proposalId",
							"type": "uint256"
						},
						{
							"internalType": "bool",
							"name": "support",
							"type": "bool"
						}
					],
					"name": "voteOnProposal",
					"outputs": [],
					"stateMutability": "nonpayable",
					"type": "function"
				},
				{
					"inputs": [
						{
							"internalType": "address",
							"name": "",
							"type": "address"
						}
					],
					"name": "voterProfiles",
					"outputs": [
						{
							"internalType": "uint256",
							"name": "totalLocked",
							"type": "uint256"
						},
						{
							"internalType": "uint256",
							"name": "proposalCount",
							"type": "uint256"
						},
						{
							"internalType": "uint256",
							"name": "lastParticipation",
							"type": "uint256"
						},
						{
							"internalType": "uint256",
							"name": "influenceBonus",
							"type": "uint256"
						}
					],
					"stateMutability": "view",
					"type": "function"
				}
			],
			"devdoc": {
				"errors": {
					"OwnableInvalidOwner(address)": [
						{
							"details": "The owner is not a valid owner account. (eg. `address(0)`)"
						}
					],
					"OwnableUnauthorizedAccount(address)": [
						{
							"details": "The caller account is not authorized to perform an operation."
						}
					]
				},
				"kind": "dev",
				"methods": {
					"owner()": {
						"details": "Returns the address of the current owner."
					},
					"renounceOwnership()": {
						"details": "Leaves the contract without owner. It will not be possible to call `onlyOwner` functions. Can only be called by the current owner. NOTE: Renouncing ownership will leave the contract without an owner, thereby disabling any functionality that is only available to the owner."
					},
					"transferOwnership(address)": {
						"details": "Transfers ownership of the contract to a new account (`newOwner`). Can only be called by the current owner."
					}
				},
				"version": 1
			},
			"evm": {
				"assembly": "    /* \"quantum/UBI4ALLQuantumGovernance.sol\":267:6892  contract UBI4ALLQuantumGovernance is IUBI4ALLQuantumGovernance, Ownable {... */\n  mstore(0x40, 0x80)\n    /* \"quantum/UBI4ALLQuantumGovernance.sol\":1916:2313  constructor(... */\n  callvalue\n  dup1\n  iszero\n  tag_1\n  jumpi\n  0x00\n  dup1\n  revert\ntag_1:\n  pop\n  mload(0x40)\n  sub(codesize, bytecodeSize)\n  dup1\n  bytecodeSize\n  dup4\n  codecopy\n  dup2\n  add\n  0x40\n  dup2\n  swap1\n  mstore\n  tag_2\n  swap2\n  tag_3\n  jump\t// in\ntag_2:\n    /* \"quantum/UBI4ALLQuantumGovernance.sol\":2034:2046  initialOwner */\n  dup1\n  sub(shl(0xa0, 0x01), 0x01)\n    /* \"@openzeppelin/contracts/access/Ownable.sol\":1273:1299  initialOwner == address(0) */\n  dup2\n  and\n    /* \"@openzeppelin/contracts/access/Ownable.sol\":1269:1364  if (initialOwner == address(0)) {... */\n  tag_7\n  jumpi\n    /* \"@openzeppelin/contracts/access/Ownable.sol\":1322:1353  OwnableInvalidOwner(address(0)) */\n  mload(0x40)\n  shl(0xe0, 0x1e4fbdf7)\n  dup2\n  mstore\n    /* \"@openzeppelin/contracts/access/Ownable.sol\":1350:1351  0 */\n  0x00\n    /* \"@openzeppelin/contracts/access/Ownable.sol\":1322:1353  OwnableInvalidOwner(address(0)) */\n  0x04\n  dup3\n  add\n    /* \"#utility.yul\":725:776   */\n  mstore\n    /* \"#utility.yul\":698:716   */\n  0x24\n  add\n    /* \"@openzeppelin/contracts/access/Ownable.sol\":1322:1353  OwnableInvalidOwner(address(0)) */\ntag_8:\n  mload(0x40)\n  dup1\n  swap2\n  sub\n  swap1\n  revert\n    /* \"@openzeppelin/contracts/access/Ownable.sol\":1269:1364  if (initialOwner == address(0)) {... */\ntag_7:\n    /* \"@openzeppelin/contracts/access/Ownable.sol\":1373:1405  _transferOwnership(initialOwner) */\n  tag_10\n    /* \"@openzeppelin/contracts/access/Ownable.sol\":1392:1404  initialOwner */\n  dup2\n    /* \"@openzeppelin/contracts/access/Ownable.sol\":1373:1391  _transferOwnership */\n  tag_11\n    /* \"@openzeppelin/contracts/access/Ownable.sol\":1373:1405  _transferOwnership(initialOwner) */\n  jump\t// in\ntag_10:\n  pop\n  sub(shl(0xa0, 0x01), 0x01)\n    /* \"quantum/UBI4ALLQuantumGovernance.sol\":2066:2093  _quantumToken != address(0) */\n  dup4\n  and\n    /* \"quantum/UBI4ALLQuantumGovernance.sol\":2058:2119  require(_quantumToken != address(0), \"Invalid token address\") */\n  tag_13\n  jumpi\n  mload(0x40)\n  shl(0xe5, 0x461bcd)\n  dup2\n  mstore\n    /* \"#utility.yul\":989:991   */\n  0x20\n    /* \"quantum/UBI4ALLQuantumGovernance.sol\":2058:2119  require(_quantumToken != address(0), \"Invalid token address\") */\n  0x04\n  dup3\n  add\n    /* \"#utility.yul\":971:992   */\n  mstore\n    /* \"#utility.yul\":1028:1030   */\n  0x15\n    /* \"#utility.yul\":1008:1026   */\n  0x24\n  dup3\n  add\n    /* \"#utility.yul\":1001:1031   */\n  mstore\n    /* \"#utility.yul\":1067:1090   */\n  0x496e76616c696420746f6b656e20616464726573730000000000000000000000\n    /* \"#utility.yul\":1047:1065   */\n  0x44\n  dup3\n  add\n    /* \"#utility.yul\":1040:1091   */\n  mstore\n    /* \"#utility.yul\":1108:1126   */\n  0x64\n  add\n    /* \"quantum/UBI4ALLQuantumGovernance.sol\":2058:2119  require(_quantumToken != address(0), \"Invalid token address\") */\n  tag_8\n    /* \"#utility.yul\":787:1132   */\n  jump\n    /* \"quantum/UBI4ALLQuantumGovernance.sol\":2058:2119  require(_quantumToken != address(0), \"Invalid token address\") */\ntag_13:\n  sub(shl(0xa0, 0x01), 0x01)\n    /* \"quantum/UBI4ALLQuantumGovernance.sol\":2137:2164  _customOracle != address(0) */\n  dup3\n  and\n    /* \"quantum/UBI4ALLQuantumGovernance.sol\":2129:2191  require(_customOracle != address(0), \"Invalid oracle address\") */\n  tag_16\n  jumpi\n  mload(0x40)\n  shl(0xe5, 0x461bcd)\n  dup2\n  mstore\n    /* \"#utility.yul\":1339:1341   */\n  0x20\n    /* \"quantum/UBI4ALLQuantumGovernance.sol\":2129:2191  require(_customOracle != address(0), \"Invalid oracle address\") */\n  0x04\n  dup3\n  add\n    /* \"#utility.yul\":1321:1342   */\n  mstore\n    /* \"#utility.yul\":1378:1380   */\n  0x16\n    /* \"#utility.yul\":1358:1376   */\n  0x24\n  dup3\n  add\n    /* \"#utility.yul\":1351:1381   */\n  mstore\n    /* \"#utility.yul\":1417:1441   */\n  0x496e76616c6964206f7261636c65206164647265737300000000000000000000\n    /* \"#utility.yul\":1397:1415   */\n  0x44\n  dup3\n  add\n    /* \"#utility.yul\":1390:1442   */\n  mstore\n    /* \"#utility.yul\":1459:1477   */\n  0x64\n  add\n    /* \"quantum/UBI4ALLQuantumGovernance.sol\":2129:2191  require(_customOracle != address(0), \"Invalid oracle address\") */\n  tag_8\n    /* \"#utility.yul\":1137:1483   */\n  jump\n    /* \"quantum/UBI4ALLQuantumGovernance.sol\":2129:2191  require(_customOracle != address(0), \"Invalid oracle address\") */\ntag_16:\n  pop\n    /* \"quantum/UBI4ALLQuantumGovernance.sol\":2201:2213  quantumToken */\n  0x01\n    /* \"quantum/UBI4ALLQuantumGovernance.sol\":2201:2246  quantumToken = IUBI4ALLQuantum(_quantumToken) */\n  dup1\n  sload\n  sub(shl(0xa0, 0x01), 0x01)\n  swap4\n  dup5\n  and\n  not(sub(shl(0xa0, 0x01), 0x01))\n  swap2\n  dup3\n  and\n  or\n  swap1\n  swap2\n  sstore\n    /* \"quantum/UBI4ALLQuantumGovernance.sol\":2256:2268  customOracle */\n  0x02\n    /* \"quantum/UBI4ALLQuantumGovernance.sol\":2256:2306  customOracle = IUBI4ALLCustomOracle(_customOracle) */\n  dup1\n  sload\n  swap3\n  swap1\n  swap4\n  and\n  swap2\n  and\n  or\n  swap1\n  sstore\n    /* \"quantum/UBI4ALLQuantumGovernance.sol\":267:6892  contract UBI4ALLQuantumGovernance is IUBI4ALLQuantumGovernance, Ownable {... */\n  jump(tag_22)\n    /* \"@openzeppelin/contracts/access/Ownable.sol\":2912:3099  function _transferOwnership(address newOwner) internal virtual {... */\ntag_11:\n    /* \"@openzeppelin/contracts/access/Ownable.sol\":2985:3001  address oldOwner */\n  0x00\n    /* \"@openzeppelin/contracts/access/Ownable.sol\":3004:3010  _owner */\n  dup1\n  sload\n  sub(shl(0xa0, 0x01), 0x01)\n    /* \"@openzeppelin/contracts/access/Ownable.sol\":3020:3037  _owner = newOwner */\n  dup4\n  dup2\n  and\n  not(sub(shl(0xa0, 0x01), 0x01))\n  dup4\n  and\n  dup2\n  or\n  dup5\n  sstore\n    /* \"@openzeppelin/contracts/access/Ownable.sol\":3052:3092  OwnershipTransferred(oldOwner, newOwner) */\n  mload(0x40)\n    /* \"@openzeppelin/contracts/access/Ownable.sol\":3004:3010  _owner */\n  swap2\n  swap1\n  swap3\n  and\n  swap3\n  dup4\n  swap2\n    /* \"@openzeppelin/contracts/access/Ownable.sol\":3052:3092  OwnershipTransferred(oldOwner, newOwner) */\n  0x8be0079c531659141344cd1fd0a4f28419497f9722a3daafe3b4186f6b6457e0\n  swap2\n    /* \"@openzeppelin/contracts/access/Ownable.sol\":2985:3001  address oldOwner */\n  swap1\n    /* \"@openzeppelin/contracts/access/Ownable.sol\":3052:3092  OwnershipTransferred(oldOwner, newOwner) */\n  log3\n    /* \"@openzeppelin/contracts/access/Ownable.sol\":2975:3099  {... */\n  pop\n    /* \"@openzeppelin/contracts/access/Ownable.sol\":2912:3099  function _transferOwnership(address newOwner) internal virtual {... */\n  pop\n  jump\t// out\n    /* \"#utility.yul\":14:191   */\ntag_21:\n    /* \"#utility.yul\":93:106   */\n  dup1\n  mload\n  sub(shl(0xa0, 0x01), 0x01)\n    /* \"#utility.yul\":135:166   */\n  dup2\n  and\n    /* \"#utility.yul\":125:167   */\n  dup2\n  eq\n    /* \"#utility.yul\":115:185   */\n  tag_24\n  jumpi\n    /* \"#utility.yul\":181:182   */\n  0x00\n    /* \"#utility.yul\":178:179   */\n  dup1\n    /* \"#utility.yul\":171:183   */\n  revert\n    /* \"#utility.yul\":115:185   */\ntag_24:\n    /* \"#utility.yul\":14:191   */\n  swap2\n  swap1\n  pop\n  jump\t// out\n    /* \"#utility.yul\":196:574   */\ntag_3:\n    /* \"#utility.yul\":284:290   */\n  0x00\n    /* \"#utility.yul\":292:298   */\n  dup1\n    /* \"#utility.yul\":300:306   */\n  0x00\n    /* \"#utility.yul\":353:355   */\n  0x60\n    /* \"#utility.yul\":341:350   */\n  dup5\n    /* \"#utility.yul\":332:339   */\n  dup7\n    /* \"#utility.yul\":328:351   */\n  sub\n    /* \"#utility.yul\":324:356   */\n  slt\n    /* \"#utility.yul\":321:373   */\n  iszero\n  tag_26\n  jumpi\n    /* \"#utility.yul\":369:370   */\n  0x00\n    /* \"#utility.yul\":366:367   */\n  dup1\n    /* \"#utility.yul\":359:371   */\n  revert\n    /* \"#utility.yul\":321:373   */\ntag_26:\n    /* \"#utility.yul\":392:432   */\n  tag_27\n    /* \"#utility.yul\":422:431   */\n  dup5\n    /* \"#utility.yul\":392:432   */\n  tag_21\n  jump\t// in\ntag_27:\n    /* \"#utility.yul\":382:432   */\n  swap3\n  pop\n    /* \"#utility.yul\":451:500   */\n  tag_28\n    /* \"#utility.yul\":496:498   */\n  0x20\n    /* \"#utility.yul\":485:494   */\n  dup6\n    /* \"#utility.yul\":481:499   */\n  add\n    /* \"#utility.yul\":451:500   */\n  tag_21\n  jump\t// in\ntag_28:\n    /* \"#utility.yul\":441:500   */\n  swap2\n  pop\n    /* \"#utility.yul\":519:568   */\n  tag_29\n    /* \"#utility.yul\":564:566   */\n  0x40\n    /* \"#utility.yul\":553:562   */\n  dup6\n    /* \"#utility.yul\":549:567   */\n  add\n    /* \"#utility.yul\":519:568   */\n  tag_21\n  jump\t// in\ntag_29:\n    /* \"#utility.yul\":509:568   */\n  swap1\n  pop\n    /* \"#utility.yul\":196:574   */\n  swap3\n  pop\n  swap3\n  pop\n  swap3\n  jump\t// out\n    /* \"#utility.yul\":1137:1483   */\ntag_22:\n    /* \"quantum/UBI4ALLQuantumGovernance.sol\":267:6892  contract UBI4ALLQuantumGovernance is IUBI4ALLQuantumGovernance, Ownable {... */\n  dataSize(sub_0)\n  dup1\n  dataOffset(sub_0)\n  0x00\n  codecopy\n  0x00\n  return\nstop\n\nsub_0: assembly {\n        /* \"quantum/UBI4ALLQuantumGovernance.sol\":267:6892  contract UBI4ALLQuantumGovernance is IUBI4ALLQuantumGovernance, Ownable {... */\n      mstore(0x40, 0x80)\n      callvalue\n      dup1\n      iszero\n      tag_1\n      jumpi\n      0x00\n      dup1\n      revert\n    tag_1:\n      pop\n      jumpi(tag_2, lt(calldatasize, 0x04))\n      shr(0xe0, calldataload(0x00))\n      dup1\n      0x8da5cb5b\n      gt\n      tag_22\n      jumpi\n      dup1\n      0xb8fda670\n      gt\n      tag_23\n      jumpi\n      dup1\n      0xb8fda670\n      eq\n      tag_17\n      jumpi\n      dup1\n      0xda35c664\n      eq\n      tag_18\n      jumpi\n      dup1\n      0xecd04582\n      eq\n      tag_19\n      jumpi\n      dup1\n      0xee8a7c15\n      eq\n      tag_20\n      jumpi\n      dup1\n      0xf2fde38b\n      eq\n      tag_21\n      jumpi\n      0x00\n      dup1\n      revert\n    tag_23:\n      dup1\n      0x8da5cb5b\n      eq\n      tag_12\n      jumpi\n      dup1\n      0x93565b4c\n      eq\n      tag_13\n      jumpi\n      dup1\n      0x9690c50b\n      eq\n      tag_14\n      jumpi\n      dup1\n      0xb1610d7e\n      eq\n      tag_15\n      jumpi\n      dup1\n      0xb5519fec\n      eq\n      tag_16\n      jumpi\n      0x00\n      dup1\n      revert\n    tag_22:\n      dup1\n      0x1cb44dfc\n      gt\n      tag_24\n      jumpi\n      dup1\n      0x1cb44dfc\n      eq\n      tag_7\n      jumpi\n      dup1\n      0x49c2a1a6\n      eq\n      tag_8\n      jumpi\n      dup1\n      0x6ae728d8\n      eq\n      tag_9\n      jumpi\n      dup1\n      0x715018a6\n      eq\n      tag_10\n      jumpi\n      dup1\n      0x8c61ec16\n      eq\n      tag_11\n      jumpi\n      0x00\n      dup1\n      revert\n    tag_24:\n      dup1\n      0x013cf08b\n      eq\n      tag_3\n      jumpi\n      dup1\n      0x0a494840\n      eq\n      tag_4\n      jumpi\n      dup1\n      0x0d61b519\n      eq\n      tag_5\n      jumpi\n      dup1\n      0x1614665c\n      eq\n      tag_6\n      jumpi\n    tag_2:\n      0x00\n      dup1\n      revert\n        /* \"quantum/UBI4ALLQuantumGovernance.sol\":6623:6890  function proposals(uint256 proposalId) external view override returns (uint256 id, string memory description, bool isExecuted) {... */\n    tag_3:\n      tag_25\n      tag_26\n      calldatasize\n      0x04\n      tag_27\n      jump\t// in\n    tag_26:\n      tag_28\n      jump\t// in\n    tag_25:\n      mload(0x40)\n      tag_29\n      swap4\n      swap3\n      swap2\n      swap1\n      tag_30\n      jump\t// in\n    tag_29:\n      mload(0x40)\n      dup1\n      swap2\n      sub\n      swap1\n      return\n        /* \"quantum/UBI4ALLQuantumGovernance.sol\":1474:1520  mapping(uint256 => Proposal) public _proposals */\n    tag_4:\n      tag_31\n      tag_32\n      calldatasize\n      0x04\n      tag_27\n      jump\t// in\n    tag_32:\n      tag_33\n      jump\t// in\n    tag_31:\n      mload(0x40)\n      tag_29\n      swap8\n      swap7\n      swap6\n      swap5\n      swap4\n      swap3\n      swap2\n      swap1\n      tag_35\n      jump\t// in\n        /* \"quantum/UBI4ALLQuantumGovernance.sol\":5699:6417  function executeProposal(uint256 proposalId) external override onlyOwner {... */\n    tag_5:\n      tag_36\n      tag_37\n      calldatasize\n      0x04\n      tag_27\n      jump\t// in\n    tag_37:\n      tag_38\n      jump\t// in\n    tag_36:\n      stop\n        /* \"quantum/UBI4ALLQuantumGovernance.sol\":2901:4160  function voteOnProposal(uint256 proposalId, bool support) external {... */\n    tag_6:\n      tag_36\n      tag_40\n      calldatasize\n      0x04\n      tag_41\n      jump\t// in\n    tag_40:\n      tag_42\n      jump\t// in\n        /* \"quantum/UBI4ALLQuantumGovernance.sol\":6423:6617  function updateOracle(address _newOracle) external onlyOwner {... */\n    tag_7:\n      tag_36\n      tag_44\n      calldatasize\n      0x04\n      tag_45\n      jump\t// in\n    tag_44:\n      tag_46\n      jump\t// in\n        /* \"quantum/UBI4ALLQuantumGovernance.sol\":2319:2895  function createProposal(string memory description) external override {... */\n    tag_8:\n      tag_36\n      tag_48\n      calldatasize\n      0x04\n      tag_49\n      jump\t// in\n    tag_48:\n      tag_50\n      jump\t// in\n        /* \"quantum/UBI4ALLQuantumGovernance.sol\":813:863  uint256 public constant ACTIVE_VOTER_THRESHOLD = 5 */\n    tag_9:\n      tag_51\n        /* \"quantum/UBI4ALLQuantumGovernance.sol\":862:863  5 */\n      0x05\n        /* \"quantum/UBI4ALLQuantumGovernance.sol\":813:863  uint256 public constant ACTIVE_VOTER_THRESHOLD = 5 */\n      dup2\n      jump\n    tag_51:\n      mload(0x40)\n        /* \"#utility.yul\":3612:3637   */\n      swap1\n      dup2\n      mstore\n        /* \"#utility.yul\":3600:3602   */\n      0x20\n        /* \"#utility.yul\":3585:3603   */\n      add\n        /* \"quantum/UBI4ALLQuantumGovernance.sol\":813:863  uint256 public constant ACTIVE_VOTER_THRESHOLD = 5 */\n      tag_29\n        /* \"#utility.yul\":3466:3643   */\n      jump\n        /* \"@openzeppelin/contracts/access/Ownable.sol\":2293:2394  function renounceOwnership() public virtual onlyOwner {... */\n    tag_10:\n      tag_36\n      tag_56\n      jump\t// in\n        /* \"quantum/UBI4ALLQuantumGovernance.sol\":433:505  uint256 public constant MINIMUM_TOKENS_FOR_PROPOSAL = 1_000_000 * 10**18 */\n    tag_11:\n      tag_51\n        /* \"quantum/UBI4ALLQuantumGovernance.sol\":487:505  1_000_000 * 10**18 */\n      0xd3c21bcecceda1000000\n        /* \"quantum/UBI4ALLQuantumGovernance.sol\":433:505  uint256 public constant MINIMUM_TOKENS_FOR_PROPOSAL = 1_000_000 * 10**18 */\n      dup2\n      jump\n        /* \"@openzeppelin/contracts/access/Ownable.sol\":1638:1723  function owner() public view virtual returns (address) {... */\n    tag_12:\n        /* \"@openzeppelin/contracts/access/Ownable.sol\":1684:1691  address */\n      0x00\n        /* \"@openzeppelin/contracts/access/Ownable.sol\":1710:1716  _owner */\n      sload\n      sub(shl(0xa0, 0x01), 0x01)\n      and\n        /* \"@openzeppelin/contracts/access/Ownable.sol\":1638:1723  function owner() public view virtual returns (address) {... */\n    tag_60:\n      mload(0x40)\n      sub(shl(0xa0, 0x01), 0x01)\n        /* \"#utility.yul\":3812:3844   */\n      swap1\n      swap2\n      and\n        /* \"#utility.yul\":3794:3845   */\n      dup2\n      mstore\n        /* \"#utility.yul\":3782:3784   */\n      0x20\n        /* \"#utility.yul\":3767:3785   */\n      add\n        /* \"@openzeppelin/contracts/access/Ownable.sol\":1638:1723  function owner() public view virtual returns (address) {... */\n      tag_29\n        /* \"#utility.yul\":3648:3851   */\n      jump\n        /* \"quantum/UBI4ALLQuantumGovernance.sol\":345:380  IUBI4ALLQuantum public quantumToken */\n    tag_13:\n      sload(0x01)\n      tag_60\n      swap1\n      sub(shl(0xa0, 0x01), 0x01)\n      and\n      dup2\n      jump\n        /* \"quantum/UBI4ALLQuantumGovernance.sol\":651:699  uint256 public constant MAX_INFLUENCE_BONUS = 20 */\n    tag_14:\n      tag_51\n        /* \"quantum/UBI4ALLQuantumGovernance.sol\":697:699  20 */\n      0x14\n        /* \"quantum/UBI4ALLQuantumGovernance.sol\":651:699  uint256 public constant MAX_INFLUENCE_BONUS = 20 */\n      dup2\n      jump\n        /* \"quantum/UBI4ALLQuantumGovernance.sol\":521:567  uint256 public constant VOTING_PERIOD = 7 days */\n    tag_15:\n      tag_51\n        /* \"quantum/UBI4ALLQuantumGovernance.sol\":561:567  7 days */\n      0x093a80\n        /* \"quantum/UBI4ALLQuantumGovernance.sol\":521:567  uint256 public constant VOTING_PERIOD = 7 days */\n      dup2\n      jump\n        /* \"quantum/UBI4ALLQuantumGovernance.sol\":386:426  IUBI4ALLCustomOracle public customOracle */\n    tag_16:\n      sload(0x02)\n      tag_60\n      swap1\n      sub(shl(0xa0, 0x01), 0x01)\n      and\n      dup2\n      jump\n        /* \"quantum/UBI4ALLQuantumGovernance.sol\":1526:1579  mapping(address => VoterProfile) public voterProfiles */\n    tag_17:\n      tag_78\n      tag_79\n      calldatasize\n      0x04\n      tag_45\n      jump\t// in\n    tag_79:\n      mstore(0x20, 0x04)\n      0x00\n      swap1\n      dup2\n      mstore\n      0x40\n      swap1\n      keccak256\n      dup1\n      sload\n      0x01\n      dup3\n      add\n      sload\n      0x02\n      dup4\n      add\n      sload\n      0x03\n      swap1\n      swap4\n      add\n      sload\n      swap2\n      swap3\n      swap1\n      swap2\n      dup5\n      jump\n    tag_78:\n      0x40\n      dup1\n      mload\n        /* \"#utility.yul\":4554:4579   */\n      swap5\n      dup6\n      mstore\n        /* \"#utility.yul\":4610:4612   */\n      0x20\n        /* \"#utility.yul\":4595:4613   */\n      dup6\n      add\n        /* \"#utility.yul\":4588:4622   */\n      swap4\n      swap1\n      swap4\n      mstore\n        /* \"#utility.yul\":4638:4656   */\n      swap2\n      dup4\n      add\n        /* \"#utility.yul\":4631:4665   */\n      mstore\n        /* \"#utility.yul\":4696:4698   */\n      0x60\n        /* \"#utility.yul\":4681:4699   */\n      dup3\n      add\n        /* \"#utility.yul\":4674:4708   */\n      mstore\n        /* \"#utility.yul\":4541:4544   */\n      0x80\n        /* \"#utility.yul\":4526:4545   */\n      add\n        /* \"quantum/UBI4ALLQuantumGovernance.sol\":1526:1579  mapping(address => VoterProfile) public voterProfiles */\n      tag_29\n        /* \"#utility.yul\":4323:4714   */\n      jump\n        /* \"quantum/UBI4ALLQuantumGovernance.sol\":1585:1622  uint256 public override proposalCount */\n    tag_18:\n      tag_51\n      sload(0x05)\n      dup2\n      jump\n        /* \"quantum/UBI4ALLQuantumGovernance.sol\":730:781  uint256 public constant MAX_ENTANGLEMENT_BONUS = 30 */\n    tag_19:\n      tag_51\n        /* \"quantum/UBI4ALLQuantumGovernance.sol\":779:781  30 */\n      0x1e\n        /* \"quantum/UBI4ALLQuantumGovernance.sol\":730:781  uint256 public constant MAX_ENTANGLEMENT_BONUS = 30 */\n      dup2\n      jump\n        /* \"quantum/UBI4ALLQuantumGovernance.sol\":573:619  uint256 public constant QUORUM_PERCENTAGE = 10 */\n    tag_20:\n      tag_51\n        /* \"quantum/UBI4ALLQuantumGovernance.sol\":617:619  10 */\n      0x0a\n        /* \"quantum/UBI4ALLQuantumGovernance.sol\":573:619  uint256 public constant QUORUM_PERCENTAGE = 10 */\n      dup2\n      jump\n        /* \"@openzeppelin/contracts/access/Ownable.sol\":2543:2758  function transferOwnership(address newOwner) public virtual onlyOwner {... */\n    tag_21:\n      tag_36\n      tag_93\n      calldatasize\n      0x04\n      tag_45\n      jump\t// in\n    tag_93:\n      tag_94\n      jump\t// in\n        /* \"quantum/UBI4ALLQuantumGovernance.sol\":6623:6890  function proposals(uint256 proposalId) external view override returns (uint256 id, string memory description, bool isExecuted) {... */\n    tag_28:\n        /* \"quantum/UBI4ALLQuantumGovernance.sol\":6694:6704  uint256 id */\n      0x00\n        /* \"quantum/UBI4ALLQuantumGovernance.sol\":6788:6810  _proposals[proposalId] */\n      dup2\n      dup2\n      mstore\n        /* \"quantum/UBI4ALLQuantumGovernance.sol\":6788:6798  _proposals */\n      0x03\n        /* \"quantum/UBI4ALLQuantumGovernance.sol\":6788:6810  _proposals[proposalId] */\n      0x20\n      mstore\n      0x40\n      dup2\n      keccak256\n        /* \"quantum/UBI4ALLQuantumGovernance.sol\":6828:6839  proposal.id */\n      dup1\n      sload\n        /* \"quantum/UBI4ALLQuantumGovernance.sol\":6863:6882  proposal.isExecuted */\n      0x02\n      dup3\n      add\n      sload\n        /* \"quantum/UBI4ALLQuantumGovernance.sol\":6841:6861  proposal.description */\n      0x01\n      dup4\n      add\n        /* \"quantum/UBI4ALLQuantumGovernance.sol\":6820:6883  return (proposal.id, proposal.description, proposal.isExecuted) */\n      dup1\n      sload\n        /* \"quantum/UBI4ALLQuantumGovernance.sol\":6706:6731  string memory description */\n      0x60\n      swap5\n        /* \"quantum/UBI4ALLQuantumGovernance.sol\":6694:6704  uint256 id */\n      dup7\n      swap5\n        /* \"quantum/UBI4ALLQuantumGovernance.sol\":6788:6810  _proposals[proposalId] */\n      swap1\n      swap4\n        /* \"quantum/UBI4ALLQuantumGovernance.sol\":6828:6839  proposal.id */\n      swap1\n      swap3\n        /* \"quantum/UBI4ALLQuantumGovernance.sol\":6841:6861  proposal.description */\n      swap2\n        /* \"quantum/UBI4ALLQuantumGovernance.sol\":6863:6882  proposal.isExecuted */\n      0xff\n      swap1\n      swap2\n      and\n      swap1\n        /* \"quantum/UBI4ALLQuantumGovernance.sol\":6841:6861  proposal.description */\n      dup3\n      swap1\n        /* \"quantum/UBI4ALLQuantumGovernance.sol\":6820:6883  return (proposal.id, proposal.description, proposal.isExecuted) */\n      tag_96\n      swap1\n      tag_97\n      jump\t// in\n    tag_96:\n      dup1\n      0x1f\n      add\n      0x20\n      dup1\n      swap2\n      div\n      mul\n      0x20\n      add\n      mload(0x40)\n      swap1\n      dup2\n      add\n      0x40\n      mstore\n      dup1\n      swap3\n      swap2\n      swap1\n      dup2\n      dup2\n      mstore\n      0x20\n      add\n      dup3\n      dup1\n      sload\n      tag_98\n      swap1\n      tag_97\n      jump\t// in\n    tag_98:\n      dup1\n      iszero\n      tag_99\n      jumpi\n      dup1\n      0x1f\n      lt\n      tag_100\n      jumpi\n      0x0100\n      dup1\n      dup4\n      sload\n      div\n      mul\n      dup4\n      mstore\n      swap2\n      0x20\n      add\n      swap2\n      jump(tag_99)\n    tag_100:\n      dup3\n      add\n      swap2\n      swap1\n      0x00\n      mstore\n      keccak256(0x00, 0x20)\n      swap1\n    tag_101:\n      dup2\n      sload\n      dup2\n      mstore\n      swap1\n      0x01\n      add\n      swap1\n      0x20\n      add\n      dup1\n      dup4\n      gt\n      tag_101\n      jumpi\n      dup3\n      swap1\n      sub\n      0x1f\n      and\n      dup3\n      add\n      swap2\n    tag_99:\n      pop\n      pop\n      pop\n      pop\n      pop\n      swap2\n      pop\n      swap4\n      pop\n      swap4\n      pop\n      swap4\n      pop\n      pop\n        /* \"quantum/UBI4ALLQuantumGovernance.sol\":6623:6890  function proposals(uint256 proposalId) external view override returns (uint256 id, string memory description, bool isExecuted) {... */\n      swap2\n      swap4\n      swap1\n      swap3\n      pop\n      jump\t// out\n        /* \"quantum/UBI4ALLQuantumGovernance.sol\":1474:1520  mapping(uint256 => Proposal) public _proposals */\n    tag_33:\n      mstore(0x20, 0x03)\n      0x00\n      swap1\n      dup2\n      mstore\n      0x40\n      swap1\n      keccak256\n      dup1\n      sload\n      0x01\n      dup3\n      add\n      dup1\n      sload\n      swap2\n      swap3\n      swap2\n      tag_102\n      swap1\n      tag_97\n      jump\t// in\n    tag_102:\n      dup1\n      0x1f\n      add\n      0x20\n      dup1\n      swap2\n      div\n      mul\n      0x20\n      add\n      mload(0x40)\n      swap1\n      dup2\n      add\n      0x40\n      mstore\n      dup1\n      swap3\n      swap2\n      swap1\n      dup2\n      dup2\n      mstore\n      0x20\n      add\n      dup3\n      dup1\n      sload\n      tag_103\n      swap1\n      tag_97\n      jump\t// in\n    tag_103:\n      dup1\n      iszero\n      tag_104\n      jumpi\n      dup1\n      0x1f\n      lt\n      tag_105\n      jumpi\n      0x0100\n      dup1\n      dup4\n      sload\n      div\n      mul\n      dup4\n      mstore\n      swap2\n      0x20\n      add\n      swap2\n      jump(tag_104)\n    tag_105:\n      dup3\n      add\n      swap2\n      swap1\n      0x00\n      mstore\n      keccak256(0x00, 0x20)\n      swap1\n    tag_106:\n      dup2\n      sload\n      dup2\n      mstore\n      swap1\n      0x01\n      add\n      swap1\n      0x20\n      add\n      dup1\n      dup4\n      gt\n      tag_106\n      jumpi\n      dup3\n      swap1\n      sub\n      0x1f\n      and\n      dup3\n      add\n      swap2\n    tag_104:\n      pop\n      pop\n      pop\n      0x02\n      dup5\n      add\n      sload\n      0x03\n      dup6\n      add\n      sload\n      0x04\n      dup7\n      add\n      sload\n      0x05\n      dup8\n      add\n      sload\n      0x06\n      swap1\n      swap8\n      add\n      sload\n      swap6\n      swap7\n      0xff\n      swap1\n      swap4\n      and\n      swap6\n      swap2\n      swap5\n      pop\n      swap3\n      pop\n      dup8\n      jump\t// out\n        /* \"quantum/UBI4ALLQuantumGovernance.sol\":5699:6417  function executeProposal(uint256 proposalId) external override onlyOwner {... */\n    tag_38:\n        /* \"@openzeppelin/contracts/access/Ownable.sol\":1531:1544  _checkOwner() */\n      tag_108\n        /* \"@openzeppelin/contracts/access/Ownable.sol\":1531:1542  _checkOwner */\n      tag_109\n        /* \"@openzeppelin/contracts/access/Ownable.sol\":1531:1544  _checkOwner() */\n      jump\t// in\n    tag_108:\n        /* \"quantum/UBI4ALLQuantumGovernance.sol\":5803:5804  0 */\n      0x00\n        /* \"quantum/UBI4ALLQuantumGovernance.sol\":5790:5800  proposalId */\n      dup2\n        /* \"quantum/UBI4ALLQuantumGovernance.sol\":5790:5804  proposalId > 0 */\n      gt\n        /* \"quantum/UBI4ALLQuantumGovernance.sol\":5790:5835  proposalId > 0 && proposalId <= proposalCount */\n      dup1\n      iszero\n      tag_111\n      jumpi\n      pop\n        /* \"quantum/UBI4ALLQuantumGovernance.sol\":5822:5835  proposalCount */\n      sload(0x05)\n        /* \"quantum/UBI4ALLQuantumGovernance.sol\":5808:5818  proposalId */\n      dup2\n        /* \"quantum/UBI4ALLQuantumGovernance.sol\":5808:5835  proposalId <= proposalCount */\n      gt\n      iszero\n        /* \"quantum/UBI4ALLQuantumGovernance.sol\":5790:5835  proposalId > 0 && proposalId <= proposalCount */\n    tag_111:\n        /* \"quantum/UBI4ALLQuantumGovernance.sol\":5782:5859  require(proposalId > 0 && proposalId <= proposalCount, \"Invalid proposal ID\") */\n      tag_112\n      jumpi\n      mload(0x40)\n      shl(0xe5, 0x461bcd)\n      dup2\n      mstore\n        /* \"#utility.yul\":5306:5308   */\n      0x20\n        /* \"quantum/UBI4ALLQuantumGovernance.sol\":5782:5859  require(proposalId > 0 && proposalId <= proposalCount, \"Invalid proposal ID\") */\n      0x04\n      dup3\n      add\n        /* \"#utility.yul\":5288:5309   */\n      mstore\n        /* \"#utility.yul\":5345:5347   */\n      0x13\n        /* \"#utility.yul\":5325:5343   */\n      0x24\n      dup3\n      add\n        /* \"#utility.yul\":5318:5348   */\n      mstore\n      shl(0x6a, 0x125b9d985b1a59081c1c9bdc1bdcd85b081251)\n        /* \"#utility.yul\":5364:5382   */\n      0x44\n      dup3\n      add\n        /* \"#utility.yul\":5357:5406   */\n      mstore\n        /* \"#utility.yul\":5423:5441   */\n      0x64\n      add\n        /* \"quantum/UBI4ALLQuantumGovernance.sol\":5782:5859  require(proposalId > 0 && proposalId <= proposalCount, \"Invalid proposal ID\") */\n    tag_113:\n      mload(0x40)\n      dup1\n      swap2\n      sub\n      swap1\n      revert\n    tag_112:\n        /* \"quantum/UBI4ALLQuantumGovernance.sol\":5869:5894  Proposal storage proposal */\n      0x00\n        /* \"quantum/UBI4ALLQuantumGovernance.sol\":5897:5919  _proposals[proposalId] */\n      dup2\n      dup2\n      mstore\n        /* \"quantum/UBI4ALLQuantumGovernance.sol\":5897:5907  _proposals */\n      0x03\n        /* \"quantum/UBI4ALLQuantumGovernance.sol\":5897:5919  _proposals[proposalId] */\n      0x20\n      mstore\n      0x40\n      swap1\n      keccak256\n        /* \"quantum/UBI4ALLQuantumGovernance.sol\":5955:5971  proposal.endTime */\n      0x04\n      dup2\n      add\n      sload\n        /* \"quantum/UBI4ALLQuantumGovernance.sol\":5937:5952  block.timestamp */\n      timestamp\n        /* \"quantum/UBI4ALLQuantumGovernance.sol\":5937:5971  block.timestamp > proposal.endTime */\n      gt\n        /* \"quantum/UBI4ALLQuantumGovernance.sol\":5929:5999  require(block.timestamp > proposal.endTime, \"Voting period not ended\") */\n      tag_115\n      jumpi\n      mload(0x40)\n      shl(0xe5, 0x461bcd)\n      dup2\n      mstore\n        /* \"#utility.yul\":5654:5656   */\n      0x20\n        /* \"quantum/UBI4ALLQuantumGovernance.sol\":5929:5999  require(block.timestamp > proposal.endTime, \"Voting period not ended\") */\n      0x04\n      dup3\n      add\n        /* \"#utility.yul\":5636:5657   */\n      mstore\n        /* \"#utility.yul\":5693:5695   */\n      0x17\n        /* \"#utility.yul\":5673:5691   */\n      0x24\n      dup3\n      add\n        /* \"#utility.yul\":5666:5696   */\n      mstore\n        /* \"#utility.yul\":5732:5757   */\n      0x566f74696e6720706572696f64206e6f7420656e646564000000000000000000\n        /* \"#utility.yul\":5712:5730   */\n      0x44\n      dup3\n      add\n        /* \"#utility.yul\":5705:5758   */\n      mstore\n        /* \"#utility.yul\":5775:5793   */\n      0x64\n      add\n        /* \"quantum/UBI4ALLQuantumGovernance.sol\":5929:5999  require(block.timestamp > proposal.endTime, \"Voting period not ended\") */\n      tag_113\n        /* \"#utility.yul\":5452:5799   */\n      jump\n        /* \"quantum/UBI4ALLQuantumGovernance.sol\":5929:5999  require(block.timestamp > proposal.endTime, \"Voting period not ended\") */\n    tag_115:\n        /* \"quantum/UBI4ALLQuantumGovernance.sol\":6018:6037  proposal.isExecuted */\n      0x02\n      dup2\n      add\n      sload\n      0xff\n      and\n        /* \"quantum/UBI4ALLQuantumGovernance.sol\":6017:6037  !proposal.isExecuted */\n      iszero\n        /* \"quantum/UBI4ALLQuantumGovernance.sol\":6009:6067  require(!proposal.isExecuted, \"Proposal already executed\") */\n      tag_118\n      jumpi\n      mload(0x40)\n      shl(0xe5, 0x461bcd)\n      dup2\n      mstore\n        /* \"#utility.yul\":6006:6008   */\n      0x20\n        /* \"quantum/UBI4ALLQuantumGovernance.sol\":6009:6067  require(!proposal.isExecuted, \"Proposal already executed\") */\n      0x04\n      dup3\n      add\n        /* \"#utility.yul\":5988:6009   */\n      mstore\n        /* \"#utility.yul\":6045:6047   */\n      0x19\n        /* \"#utility.yul\":6025:6043   */\n      0x24\n      dup3\n      add\n        /* \"#utility.yul\":6018:6048   */\n      mstore\n        /* \"#utility.yul\":6084:6111   */\n      0x50726f706f73616c20616c726561647920657865637574656400000000000000\n        /* \"#utility.yul\":6064:6082   */\n      0x44\n      dup3\n      add\n        /* \"#utility.yul\":6057:6112   */\n      mstore\n        /* \"#utility.yul\":6129:6147   */\n      0x64\n      add\n        /* \"quantum/UBI4ALLQuantumGovernance.sol\":6009:6067  require(!proposal.isExecuted, \"Proposal already executed\") */\n      tag_113\n        /* \"#utility.yul\":5804:6153   */\n      jump\n        /* \"quantum/UBI4ALLQuantumGovernance.sol\":6009:6067  require(!proposal.isExecuted, \"Proposal already executed\") */\n    tag_118:\n        /* \"quantum/UBI4ALLQuantumGovernance.sol\":6077:6091  uint256 quorum */\n      0x00\n        /* \"quantum/UBI4ALLQuantumGovernance.sol\":6151:6154  100 */\n      0x64\n        /* \"quantum/UBI4ALLQuantumGovernance.sol\":617:619  10 */\n      0x0a\n        /* \"quantum/UBI4ALLQuantumGovernance.sol\":6095:6107  quantumToken */\n      0x01\n      0x00\n      swap1\n      sload\n      swap1\n      0x0100\n      exp\n      swap1\n      div\n      sub(shl(0xa0, 0x01), 0x01)\n      and\n      sub(shl(0xa0, 0x01), 0x01)\n        /* \"quantum/UBI4ALLQuantumGovernance.sol\":6095:6125  quantumToken.totalLockedForDAO */\n      and\n      0x4a0ced96\n        /* \"quantum/UBI4ALLQuantumGovernance.sol\":6095:6127  quantumToken.totalLockedForDAO() */\n      mload(0x40)\n      dup2\n      0xffffffff\n      and\n      0xe0\n      shl\n      dup2\n      mstore\n      0x04\n      add\n      0x20\n      mload(0x40)\n      dup1\n      dup4\n      sub\n      dup2\n      dup7\n      gas\n      staticcall\n      iszero\n      dup1\n      iszero\n      tag_122\n      jumpi\n      returndatasize\n      0x00\n      dup1\n      returndatacopy\n      revert(0x00, returndatasize)\n    tag_122:\n      pop\n      pop\n      pop\n      pop\n      mload(0x40)\n      returndatasize\n      not(0x1f)\n      0x1f\n      dup3\n      add\n      and\n      dup3\n      add\n      dup1\n      0x40\n      mstore\n      pop\n      dup2\n      add\n      swap1\n      tag_123\n      swap2\n      swap1\n      tag_124\n      jump\t// in\n    tag_123:\n        /* \"quantum/UBI4ALLQuantumGovernance.sol\":6095:6147  quantumToken.totalLockedForDAO() * QUORUM_PERCENTAGE */\n      tag_125\n      swap2\n      swap1\n      tag_126\n      jump\t// in\n    tag_125:\n        /* \"quantum/UBI4ALLQuantumGovernance.sol\":6094:6154  (quantumToken.totalLockedForDAO() * QUORUM_PERCENTAGE) / 100 */\n      tag_127\n      swap2\n      swap1\n      tag_128\n      jump\t// in\n    tag_127:\n        /* \"quantum/UBI4ALLQuantumGovernance.sol\":6077:6154  uint256 quorum = (quantumToken.totalLockedForDAO() * QUORUM_PERCENTAGE) / 100 */\n      swap1\n      pop\n        /* \"quantum/UBI4ALLQuantumGovernance.sol\":6217:6223  quorum */\n      dup1\n        /* \"quantum/UBI4ALLQuantumGovernance.sol\":6192:6200  proposal */\n      dup3\n        /* \"quantum/UBI4ALLQuantumGovernance.sol\":6192:6213  proposal.againstVotes */\n      0x06\n      add\n      sload\n        /* \"quantum/UBI4ALLQuantumGovernance.sol\":6172:6180  proposal */\n      dup4\n        /* \"quantum/UBI4ALLQuantumGovernance.sol\":6172:6189  proposal.forVotes */\n      0x05\n      add\n      sload\n        /* \"quantum/UBI4ALLQuantumGovernance.sol\":6172:6213  proposal.forVotes + proposal.againstVotes */\n      tag_129\n      swap2\n      swap1\n      tag_130\n      jump\t// in\n    tag_129:\n        /* \"quantum/UBI4ALLQuantumGovernance.sol\":6172:6223  proposal.forVotes + proposal.againstVotes >= quorum */\n      lt\n      iszero\n        /* \"quantum/UBI4ALLQuantumGovernance.sol\":6164:6246  require(proposal.forVotes + proposal.againstVotes >= quorum, \"Quorum not reached\") */\n      tag_131\n      jumpi\n      mload(0x40)\n      shl(0xe5, 0x461bcd)\n      dup2\n      mstore\n        /* \"#utility.yul\":7206:7208   */\n      0x20\n        /* \"quantum/UBI4ALLQuantumGovernance.sol\":6164:6246  require(proposal.forVotes + proposal.againstVotes >= quorum, \"Quorum not reached\") */\n      0x04\n      dup3\n      add\n        /* \"#utility.yul\":7188:7209   */\n      mstore\n        /* \"#utility.yul\":7245:7247   */\n      0x12\n        /* \"#utility.yul\":7225:7243   */\n      0x24\n      dup3\n      add\n        /* \"#utility.yul\":7218:7248   */\n      mstore\n      shl(0x72, 0x145d5bdc9d5b481b9bdd081c995858da1959)\n        /* \"#utility.yul\":7264:7282   */\n      0x44\n      dup3\n      add\n        /* \"#utility.yul\":7257:7305   */\n      mstore\n        /* \"#utility.yul\":7322:7340   */\n      0x64\n      add\n        /* \"quantum/UBI4ALLQuantumGovernance.sol\":6164:6246  require(proposal.forVotes + proposal.againstVotes >= quorum, \"Quorum not reached\") */\n      tag_113\n        /* \"#utility.yul\":7004:7346   */\n      jump\n        /* \"quantum/UBI4ALLQuantumGovernance.sol\":6164:6246  require(proposal.forVotes + proposal.againstVotes >= quorum, \"Quorum not reached\") */\n    tag_131:\n        /* \"quantum/UBI4ALLQuantumGovernance.sol\":6284:6292  proposal */\n      dup2\n        /* \"quantum/UBI4ALLQuantumGovernance.sol\":6284:6305  proposal.againstVotes */\n      0x06\n      add\n      sload\n        /* \"quantum/UBI4ALLQuantumGovernance.sol\":6264:6272  proposal */\n      dup3\n        /* \"quantum/UBI4ALLQuantumGovernance.sol\":6264:6281  proposal.forVotes */\n      0x05\n      add\n      sload\n        /* \"quantum/UBI4ALLQuantumGovernance.sol\":6264:6305  proposal.forVotes > proposal.againstVotes */\n      gt\n        /* \"quantum/UBI4ALLQuantumGovernance.sol\":6256:6331  require(proposal.forVotes > proposal.againstVotes, \"Proposal not approved\") */\n      tag_134\n      jumpi\n      mload(0x40)\n      shl(0xe5, 0x461bcd)\n      dup2\n      mstore\n        /* \"#utility.yul\":7553:7555   */\n      0x20\n        /* \"quantum/UBI4ALLQuantumGovernance.sol\":6256:6331  require(proposal.forVotes > proposal.againstVotes, \"Proposal not approved\") */\n      0x04\n      dup3\n      add\n        /* \"#utility.yul\":7535:7556   */\n      mstore\n        /* \"#utility.yul\":7592:7594   */\n      0x15\n        /* \"#utility.yul\":7572:7590   */\n      0x24\n      dup3\n      add\n        /* \"#utility.yul\":7565:7595   */\n      mstore\n      shl(0x5a, 0x141c9bdc1bdcd85b081b9bdd08185c1c1c9bdd9959)\n        /* \"#utility.yul\":7611:7629   */\n      0x44\n      dup3\n      add\n        /* \"#utility.yul\":7604:7655   */\n      mstore\n        /* \"#utility.yul\":7672:7690   */\n      0x64\n      add\n        /* \"quantum/UBI4ALLQuantumGovernance.sol\":6256:6331  require(proposal.forVotes > proposal.againstVotes, \"Proposal not approved\") */\n      tag_113\n        /* \"#utility.yul\":7351:7696   */\n      jump\n        /* \"quantum/UBI4ALLQuantumGovernance.sol\":6256:6331  require(proposal.forVotes > proposal.againstVotes, \"Proposal not approved\") */\n    tag_134:\n        /* \"quantum/UBI4ALLQuantumGovernance.sol\":6341:6360  proposal.isExecuted */\n      0x02\n      dup3\n      add\n        /* \"quantum/UBI4ALLQuantumGovernance.sol\":6341:6367  proposal.isExecuted = true */\n      dup1\n      sload\n      not(0xff)\n      and\n        /* \"quantum/UBI4ALLQuantumGovernance.sol\":6363:6367  true */\n      0x01\n        /* \"quantum/UBI4ALLQuantumGovernance.sol\":6341:6367  proposal.isExecuted = true */\n      or\n      swap1\n      sstore\n        /* \"quantum/UBI4ALLQuantumGovernance.sol\":6382:6410  ProposalExecuted(proposalId) */\n      mload(0x40)\n        /* \"quantum/UBI4ALLQuantumGovernance.sol\":6399:6409  proposalId */\n      dup4\n      swap1\n        /* \"quantum/UBI4ALLQuantumGovernance.sol\":6382:6410  ProposalExecuted(proposalId) */\n      0x712ae1383f79ac853f8d882153778e0260ef8f03b504e2866e0593e04d2b291f\n      swap1\n        /* \"quantum/UBI4ALLQuantumGovernance.sol\":6341:6360  proposal.isExecuted */\n      0x00\n      swap1\n        /* \"quantum/UBI4ALLQuantumGovernance.sol\":6382:6410  ProposalExecuted(proposalId) */\n      log2\n        /* \"quantum/UBI4ALLQuantumGovernance.sol\":5772:6417  {... */\n      pop\n      pop\n        /* \"quantum/UBI4ALLQuantumGovernance.sol\":5699:6417  function executeProposal(uint256 proposalId) external override onlyOwner {... */\n      pop\n      jump\t// out\n        /* \"quantum/UBI4ALLQuantumGovernance.sol\":2901:4160  function voteOnProposal(uint256 proposalId, bool support) external {... */\n    tag_42:\n        /* \"quantum/UBI4ALLQuantumGovernance.sol\":2999:3000  0 */\n      0x00\n        /* \"quantum/UBI4ALLQuantumGovernance.sol\":2986:2996  proposalId */\n      dup3\n        /* \"quantum/UBI4ALLQuantumGovernance.sol\":2986:3000  proposalId > 0 */\n      gt\n        /* \"quantum/UBI4ALLQuantumGovernance.sol\":2986:3031  proposalId > 0 && proposalId <= proposalCount */\n      dup1\n      iszero\n      tag_138\n      jumpi\n      pop\n        /* \"quantum/UBI4ALLQuantumGovernance.sol\":3018:3031  proposalCount */\n      sload(0x05)\n        /* \"quantum/UBI4ALLQuantumGovernance.sol\":3004:3014  proposalId */\n      dup3\n        /* \"quantum/UBI4ALLQuantumGovernance.sol\":3004:3031  proposalId <= proposalCount */\n      gt\n      iszero\n        /* \"quantum/UBI4ALLQuantumGovernance.sol\":2986:3031  proposalId > 0 && proposalId <= proposalCount */\n    tag_138:\n        /* \"quantum/UBI4ALLQuantumGovernance.sol\":2978:3055  require(proposalId > 0 && proposalId <= proposalCount, \"Invalid proposal ID\") */\n      tag_139\n      jumpi\n      mload(0x40)\n      shl(0xe5, 0x461bcd)\n      dup2\n      mstore\n        /* \"#utility.yul\":5306:5308   */\n      0x20\n        /* \"quantum/UBI4ALLQuantumGovernance.sol\":2978:3055  require(proposalId > 0 && proposalId <= proposalCount, \"Invalid proposal ID\") */\n      0x04\n      dup3\n      add\n        /* \"#utility.yul\":5288:5309   */\n      mstore\n        /* \"#utility.yul\":5345:5347   */\n      0x13\n        /* \"#utility.yul\":5325:5343   */\n      0x24\n      dup3\n      add\n        /* \"#utility.yul\":5318:5348   */\n      mstore\n      shl(0x6a, 0x125b9d985b1a59081c1c9bdc1bdcd85b081251)\n        /* \"#utility.yul\":5364:5382   */\n      0x44\n      dup3\n      add\n        /* \"#utility.yul\":5357:5406   */\n      mstore\n        /* \"#utility.yul\":5423:5441   */\n      0x64\n      add\n        /* \"quantum/UBI4ALLQuantumGovernance.sol\":2978:3055  require(proposalId > 0 && proposalId <= proposalCount, \"Invalid proposal ID\") */\n      tag_113\n        /* \"#utility.yul\":5104:5447   */\n      jump\n        /* \"quantum/UBI4ALLQuantumGovernance.sol\":2978:3055  require(proposalId > 0 && proposalId <= proposalCount, \"Invalid proposal ID\") */\n    tag_139:\n        /* \"quantum/UBI4ALLQuantumGovernance.sol\":3065:3090  Proposal storage proposal */\n      0x00\n        /* \"quantum/UBI4ALLQuantumGovernance.sol\":3093:3115  _proposals[proposalId] */\n      dup3\n      dup2\n      mstore\n        /* \"quantum/UBI4ALLQuantumGovernance.sol\":3093:3103  _proposals */\n      0x03\n        /* \"quantum/UBI4ALLQuantumGovernance.sol\":3093:3115  _proposals[proposalId] */\n      0x20\n      dup2\n      swap1\n      mstore\n      0x40\n      swap1\n      swap2\n      keccak256\n        /* \"quantum/UBI4ALLQuantumGovernance.sol\":3152:3170  proposal.startTime */\n      swap1\n      dup2\n      add\n      sload\n        /* \"quantum/UBI4ALLQuantumGovernance.sol\":3133:3148  block.timestamp */\n      timestamp\n        /* \"quantum/UBI4ALLQuantumGovernance.sol\":3133:3170  block.timestamp >= proposal.startTime */\n      lt\n      dup1\n      iszero\n      swap1\n        /* \"quantum/UBI4ALLQuantumGovernance.sol\":3133:3209  block.timestamp >= proposal.startTime && block.timestamp <= proposal.endTime */\n      tag_141\n      jumpi\n      pop\n        /* \"quantum/UBI4ALLQuantumGovernance.sol\":3193:3201  proposal */\n      dup1\n        /* \"quantum/UBI4ALLQuantumGovernance.sol\":3193:3209  proposal.endTime */\n      0x04\n      add\n      sload\n        /* \"quantum/UBI4ALLQuantumGovernance.sol\":3174:3189  block.timestamp */\n      timestamp\n        /* \"quantum/UBI4ALLQuantumGovernance.sol\":3174:3209  block.timestamp <= proposal.endTime */\n      gt\n      iszero\n        /* \"quantum/UBI4ALLQuantumGovernance.sol\":3133:3209  block.timestamp >= proposal.startTime && block.timestamp <= proposal.endTime */\n    tag_141:\n        /* \"quantum/UBI4ALLQuantumGovernance.sol\":3125:3234  require(block.timestamp >= proposal.startTime && block.timestamp <= proposal.endTime, \"Voting period closed\") */\n      tag_142\n      jumpi\n      mload(0x40)\n      shl(0xe5, 0x461bcd)\n      dup2\n      mstore\n        /* \"#utility.yul\":7903:7905   */\n      0x20\n        /* \"quantum/UBI4ALLQuantumGovernance.sol\":3125:3234  require(block.timestamp >= proposal.startTime && block.timestamp <= proposal.endTime, \"Voting period closed\") */\n      0x04\n      dup3\n      add\n        /* \"#utility.yul\":7885:7906   */\n      mstore\n        /* \"#utility.yul\":7942:7944   */\n      0x14\n        /* \"#utility.yul\":7922:7940   */\n      0x24\n      dup3\n      add\n        /* \"#utility.yul\":7915:7945   */\n      mstore\n      shl(0x62, 0x159bdd1a5b99c81c195c9a5bd90818db1bdcd959)\n        /* \"#utility.yul\":7961:7979   */\n      0x44\n      dup3\n      add\n        /* \"#utility.yul\":7954:8004   */\n      mstore\n        /* \"#utility.yul\":8021:8039   */\n      0x64\n      add\n        /* \"quantum/UBI4ALLQuantumGovernance.sol\":3125:3234  require(block.timestamp >= proposal.startTime && block.timestamp <= proposal.endTime, \"Voting period closed\") */\n      tag_113\n        /* \"#utility.yul\":7701:8045   */\n      jump\n        /* \"quantum/UBI4ALLQuantumGovernance.sol\":3125:3234  require(block.timestamp >= proposal.startTime && block.timestamp <= proposal.endTime, \"Voting period closed\") */\n    tag_142:\n        /* \"quantum/UBI4ALLQuantumGovernance.sol\":3271:3281  msg.sender */\n      caller\n        /* \"quantum/UBI4ALLQuantumGovernance.sol\":3253:3282  proposal.hasVoted[msg.sender] */\n      0x00\n      swap1\n      dup2\n      mstore\n        /* \"quantum/UBI4ALLQuantumGovernance.sol\":3253:3270  proposal.hasVoted */\n      0x07\n      dup3\n      add\n        /* \"quantum/UBI4ALLQuantumGovernance.sol\":3253:3282  proposal.hasVoted[msg.sender] */\n      0x20\n      mstore\n      0x40\n      swap1\n      keccak256\n      sload\n      0xff\n      and\n        /* \"quantum/UBI4ALLQuantumGovernance.sol\":3252:3282  !proposal.hasVoted[msg.sender] */\n      iszero\n        /* \"quantum/UBI4ALLQuantumGovernance.sol\":3244:3300  require(!proposal.hasVoted[msg.sender], \"Already voted\") */\n      tag_145\n      jumpi\n      mload(0x40)\n      shl(0xe5, 0x461bcd)\n      dup2\n      mstore\n        /* \"#utility.yul\":8252:8254   */\n      0x20\n        /* \"quantum/UBI4ALLQuantumGovernance.sol\":3244:3300  require(!proposal.hasVoted[msg.sender], \"Already voted\") */\n      0x04\n      dup3\n      add\n        /* \"#utility.yul\":8234:8255   */\n      mstore\n        /* \"#utility.yul\":8291:8293   */\n      0x0d\n        /* \"#utility.yul\":8271:8289   */\n      0x24\n      dup3\n      add\n        /* \"#utility.yul\":8264:8294   */\n      mstore\n      shl(0x9a, 0x105b1c9958591e481d9bdd1959)\n        /* \"#utility.yul\":8310:8328   */\n      0x44\n      dup3\n      add\n        /* \"#utility.yul\":8303:8346   */\n      mstore\n        /* \"#utility.yul\":8363:8381   */\n      0x64\n      add\n        /* \"quantum/UBI4ALLQuantumGovernance.sol\":3244:3300  require(!proposal.hasVoted[msg.sender], \"Already voted\") */\n      tag_113\n        /* \"#utility.yul\":8050:8387   */\n      jump\n        /* \"quantum/UBI4ALLQuantumGovernance.sol\":3244:3300  require(!proposal.hasVoted[msg.sender], \"Already voted\") */\n    tag_145:\n        /* \"quantum/UBI4ALLQuantumGovernance.sol\":3355:3365  msg.sender */\n      caller\n        /* \"quantum/UBI4ALLQuantumGovernance.sol\":3310:3338  VoterProfile storage profile */\n      0x00\n        /* \"quantum/UBI4ALLQuantumGovernance.sol\":3341:3366  voterProfiles[msg.sender] */\n      dup2\n      dup2\n      mstore\n        /* \"quantum/UBI4ALLQuantumGovernance.sol\":3341:3354  voterProfiles */\n      0x04\n        /* \"quantum/UBI4ALLQuantumGovernance.sol\":3341:3366  voterProfiles[msg.sender] */\n      0x20\n      dup2\n      swap1\n      mstore\n      0x40\n      dup1\n      dup4\n      keccak256\n        /* \"quantum/UBI4ALLQuantumGovernance.sol\":3397:3409  quantumToken */\n      sload(0x01)\n        /* \"quantum/UBI4ALLQuantumGovernance.sol\":3397:3434  quantumToken.lockedForDAO(msg.sender) */\n      swap2\n      mload\n      shl(0xe1, 0x157a22c9)\n      dup2\n      mstore\n      swap3\n      dup4\n      add\n        /* \"#utility.yul\":3794:3845   */\n      swap5\n      swap1\n      swap5\n      mstore\n      sub(shl(0xa0, 0x01), 0x01)\n        /* \"quantum/UBI4ALLQuantumGovernance.sol\":3397:3409  quantumToken */\n      and\n      swap1\n        /* \"quantum/UBI4ALLQuantumGovernance.sol\":3397:3422  quantumToken.lockedForDAO */\n      0x2af44592\n      swap1\n        /* \"#utility.yul\":3767:3785   */\n      0x24\n      add\n        /* \"quantum/UBI4ALLQuantumGovernance.sol\":3397:3434  quantumToken.lockedForDAO(msg.sender) */\n      0x20\n      mload(0x40)\n      dup1\n      dup4\n      sub\n      dup2\n      dup7\n      gas\n      staticcall\n      iszero\n      dup1\n      iszero\n      tag_150\n      jumpi\n      returndatasize\n      0x00\n      dup1\n      returndatacopy\n      revert(0x00, returndatasize)\n    tag_150:\n      pop\n      pop\n      pop\n      pop\n      mload(0x40)\n      returndatasize\n      not(0x1f)\n      0x1f\n      dup3\n      add\n      and\n      dup3\n      add\n      dup1\n      0x40\n      mstore\n      pop\n      dup2\n      add\n      swap1\n      tag_151\n      swap2\n      swap1\n      tag_124\n      jump\t// in\n    tag_151:\n        /* \"quantum/UBI4ALLQuantumGovernance.sol\":3376:3434  uint256 baseWeight = quantumToken.lockedForDAO(msg.sender) */\n      swap1\n      pop\n        /* \"quantum/UBI4ALLQuantumGovernance.sol\":3465:3466  0 */\n      0x00\n        /* \"quantum/UBI4ALLQuantumGovernance.sol\":3452:3462  baseWeight */\n      dup2\n        /* \"quantum/UBI4ALLQuantumGovernance.sol\":3452:3466  baseWeight > 0 */\n      gt\n        /* \"quantum/UBI4ALLQuantumGovernance.sol\":3444:3484  require(baseWeight > 0, \"No locked Q4A\") */\n      tag_152\n      jumpi\n      mload(0x40)\n      shl(0xe5, 0x461bcd)\n      dup2\n      mstore\n        /* \"#utility.yul\":8594:8596   */\n      0x20\n        /* \"quantum/UBI4ALLQuantumGovernance.sol\":3444:3484  require(baseWeight > 0, \"No locked Q4A\") */\n      0x04\n      dup3\n      add\n        /* \"#utility.yul\":8576:8597   */\n      mstore\n        /* \"#utility.yul\":8633:8635   */\n      0x0d\n        /* \"#utility.yul\":8613:8631   */\n      0x24\n      dup3\n      add\n        /* \"#utility.yul\":8606:8636   */\n      mstore\n      shl(0x98, 0x4e6f206c6f636b656420513441)\n        /* \"#utility.yul\":8652:8670   */\n      0x44\n      dup3\n      add\n        /* \"#utility.yul\":8645:8688   */\n      mstore\n        /* \"#utility.yul\":8705:8723   */\n      0x64\n      add\n        /* \"quantum/UBI4ALLQuantumGovernance.sol\":3444:3484  require(baseWeight > 0, \"No locked Q4A\") */\n      tag_113\n        /* \"#utility.yul\":8392:8729   */\n      jump\n        /* \"quantum/UBI4ALLQuantumGovernance.sol\":3444:3484  require(baseWeight > 0, \"No locked Q4A\") */\n    tag_152:\n        /* \"quantum/UBI4ALLQuantumGovernance.sol\":3494:3524  updateVoterProfile(msg.sender) */\n      tag_155\n        /* \"quantum/UBI4ALLQuantumGovernance.sol\":3513:3523  msg.sender */\n      caller\n        /* \"quantum/UBI4ALLQuantumGovernance.sol\":3494:3512  updateVoterProfile */\n      tag_156\n        /* \"quantum/UBI4ALLQuantumGovernance.sol\":3494:3524  updateVoterProfile(msg.sender) */\n      jump\t// in\n    tag_155:\n        /* \"quantum/UBI4ALLQuantumGovernance.sol\":3534:3553  uint256 totalWeight */\n      0x00\n        /* \"quantum/UBI4ALLQuantumGovernance.sol\":3609:3612  100 */\n      0x64\n        /* \"quantum/UBI4ALLQuantumGovernance.sol\":3583:3590  profile */\n      dup4\n        /* \"quantum/UBI4ALLQuantumGovernance.sol\":3583:3605  profile.influenceBonus */\n      0x03\n      add\n      sload\n        /* \"quantum/UBI4ALLQuantumGovernance.sol\":3570:3580  baseWeight */\n      dup4\n        /* \"quantum/UBI4ALLQuantumGovernance.sol\":3570:3605  baseWeight * profile.influenceBonus */\n      tag_157\n      swap2\n      swap1\n      tag_126\n      jump\t// in\n    tag_157:\n        /* \"quantum/UBI4ALLQuantumGovernance.sol\":3569:3612  (baseWeight * profile.influenceBonus) / 100 */\n      tag_158\n      swap2\n      swap1\n      tag_128\n      jump\t// in\n    tag_158:\n        /* \"quantum/UBI4ALLQuantumGovernance.sol\":3556:3612  baseWeight + (baseWeight * profile.influenceBonus) / 100 */\n      tag_159\n      swap1\n        /* \"quantum/UBI4ALLQuantumGovernance.sol\":3556:3566  baseWeight */\n      dup4\n        /* \"quantum/UBI4ALLQuantumGovernance.sol\":3556:3612  baseWeight + (baseWeight * profile.influenceBonus) / 100 */\n      tag_130\n      jump\t// in\n    tag_159:\n        /* \"quantum/UBI4ALLQuantumGovernance.sol\":3534:3612  uint256 totalWeight = baseWeight + (baseWeight * profile.influenceBonus) / 100 */\n      swap1\n      pop\n        /* \"quantum/UBI4ALLQuantumGovernance.sol\":3622:3647  uint256 entanglementBonus */\n      0x00\n        /* \"quantum/UBI4ALLQuantumGovernance.sol\":3650:3709  calculateEntanglementBonus(proposalId, msg.sender, support) */\n      tag_160\n        /* \"quantum/UBI4ALLQuantumGovernance.sol\":3677:3687  proposalId */\n      dup8\n        /* \"quantum/UBI4ALLQuantumGovernance.sol\":3689:3699  msg.sender */\n      caller\n        /* \"quantum/UBI4ALLQuantumGovernance.sol\":3701:3708  support */\n      dup9\n        /* \"quantum/UBI4ALLQuantumGovernance.sol\":3650:3676  calculateEntanglementBonus */\n      tag_161\n        /* \"quantum/UBI4ALLQuantumGovernance.sol\":3650:3709  calculateEntanglementBonus(proposalId, msg.sender, support) */\n      jump\t// in\n    tag_160:\n        /* \"quantum/UBI4ALLQuantumGovernance.sol\":3622:3709  uint256 entanglementBonus = calculateEntanglementBonus(proposalId, msg.sender, support) */\n      swap1\n      pop\n        /* \"quantum/UBI4ALLQuantumGovernance.sol\":3719:3751  totalWeight += entanglementBonus */\n      tag_162\n        /* \"quantum/UBI4ALLQuantumGovernance.sol\":3622:3709  uint256 entanglementBonus = calculateEntanglementBonus(proposalId, msg.sender, support) */\n      dup2\n        /* \"quantum/UBI4ALLQuantumGovernance.sol\":3719:3751  totalWeight += entanglementBonus */\n      dup4\n      tag_130\n      jump\t// in\n    tag_162:\n        /* \"quantum/UBI4ALLQuantumGovernance.sol\":3779:3789  msg.sender */\n      caller\n        /* \"quantum/UBI4ALLQuantumGovernance.sol\":3761:3790  proposal.hasVoted[msg.sender] */\n      0x00\n      swap1\n      dup2\n      mstore\n        /* \"quantum/UBI4ALLQuantumGovernance.sol\":3761:3778  proposal.hasVoted */\n      0x07\n      dup8\n      add\n        /* \"quantum/UBI4ALLQuantumGovernance.sol\":3761:3790  proposal.hasVoted[msg.sender] */\n      0x20\n      mstore\n      0x40\n      swap1\n      keccak256\n        /* \"quantum/UBI4ALLQuantumGovernance.sol\":3761:3797  proposal.hasVoted[msg.sender] = true */\n      dup1\n      sload\n      not(0xff)\n      and\n        /* \"quantum/UBI4ALLQuantumGovernance.sol\":3793:3797  true */\n      0x01\n        /* \"quantum/UBI4ALLQuantumGovernance.sol\":3761:3797  proposal.hasVoted[msg.sender] = true */\n      or\n      swap1\n      sstore\n        /* \"quantum/UBI4ALLQuantumGovernance.sol\":3719:3751  totalWeight += entanglementBonus */\n      swap2\n      pop\n        /* \"quantum/UBI4ALLQuantumGovernance.sol\":3807:3944  if (support) {... */\n      dup6\n      iszero\n      tag_163\n      jumpi\n        /* \"quantum/UBI4ALLQuantumGovernance.sol\":3855:3866  totalWeight */\n      dup2\n        /* \"quantum/UBI4ALLQuantumGovernance.sol\":3834:3842  proposal */\n      dup6\n        /* \"quantum/UBI4ALLQuantumGovernance.sol\":3834:3851  proposal.forVotes */\n      0x05\n      add\n      0x00\n        /* \"quantum/UBI4ALLQuantumGovernance.sol\":3834:3866  proposal.forVotes += totalWeight */\n      dup3\n      dup3\n      sload\n      tag_164\n      swap2\n      swap1\n      tag_130\n      jump\t// in\n    tag_164:\n      swap1\n      swap2\n      sstore\n      pop\n        /* \"quantum/UBI4ALLQuantumGovernance.sol\":3807:3944  if (support) {... */\n      tag_165\n      swap1\n      pop\n      jump\n    tag_163:\n        /* \"quantum/UBI4ALLQuantumGovernance.sol\":3922:3933  totalWeight */\n      dup2\n        /* \"quantum/UBI4ALLQuantumGovernance.sol\":3897:3905  proposal */\n      dup6\n        /* \"quantum/UBI4ALLQuantumGovernance.sol\":3897:3918  proposal.againstVotes */\n      0x06\n      add\n      0x00\n        /* \"quantum/UBI4ALLQuantumGovernance.sol\":3897:3933  proposal.againstVotes += totalWeight */\n      dup3\n      dup3\n      sload\n      tag_166\n      swap2\n      swap1\n      tag_130\n      jump\t// in\n    tag_166:\n      swap1\n      swap2\n      sstore\n      pop\n      pop\n        /* \"quantum/UBI4ALLQuantumGovernance.sol\":3807:3944  if (support) {... */\n    tag_165:\n        /* \"quantum/UBI4ALLQuantumGovernance.sol\":3979:3989  proposalId */\n      dup7\n        /* \"quantum/UBI4ALLQuantumGovernance.sol\":3967:3977  msg.sender */\n      caller\n        /* \"quantum/UBI4ALLQuantumGovernance.sol\":3958:4020  VoteCast(msg.sender, proposalId, support ? 1 : 0, totalWeight) */\n      0x2c9deb38f462962eadbd85a9d3a4120503ee091f1582eaaa10aa8c6797651d29\n        /* \"quantum/UBI4ALLQuantumGovernance.sol\":3991:3998  support */\n      dup9\n        /* \"quantum/UBI4ALLQuantumGovernance.sol\":3991:4006  support ? 1 : 0 */\n      tag_167\n      jumpi\n        /* \"quantum/UBI4ALLQuantumGovernance.sol\":4005:4006  0 */\n      0x00\n        /* \"quantum/UBI4ALLQuantumGovernance.sol\":3991:4006  support ? 1 : 0 */\n      jump(tag_168)\n    tag_167:\n        /* \"quantum/UBI4ALLQuantumGovernance.sol\":4001:4002  1 */\n      0x01\n        /* \"quantum/UBI4ALLQuantumGovernance.sol\":3991:4006  support ? 1 : 0 */\n    tag_168:\n        /* \"quantum/UBI4ALLQuantumGovernance.sol\":3958:4020  VoteCast(msg.sender, proposalId, support ? 1 : 0, totalWeight) */\n      0x40\n      dup1\n      mload\n        /* \"#utility.yul\":8934:8938   */\n      0xff\n        /* \"#utility.yul\":8922:8939   */\n      swap1\n      swap3\n      and\n        /* \"#utility.yul\":8904:8940   */\n      dup3\n      mstore\n        /* \"#utility.yul\":8971:8973   */\n      0x20\n        /* \"#utility.yul\":8956:8974   */\n      dup3\n      add\n        /* \"#utility.yul\":8949:8983   */\n      dup8\n      swap1\n      mstore\n        /* \"#utility.yul\":8877:8895   */\n      add\n        /* \"quantum/UBI4ALLQuantumGovernance.sol\":3958:4020  VoteCast(msg.sender, proposalId, support ? 1 : 0, totalWeight) */\n      mload(0x40)\n      dup1\n      swap2\n      sub\n      swap1\n      log3\n        /* \"quantum/UBI4ALLQuantumGovernance.sol\":4034:4055  entanglementBonus > 0 */\n      dup1\n      iszero\n        /* \"quantum/UBI4ALLQuantumGovernance.sol\":4030:4154  if (entanglementBonus > 0) {... */\n      tag_171\n      jumpi\n        /* \"quantum/UBI4ALLQuantumGovernance.sol\":4076:4143  EntanglementBonusApplied(proposalId, msg.sender, entanglementBonus) */\n      mload(0x40)\n        /* \"#utility.yul\":3612:3637   */\n      dup2\n      dup2\n      mstore\n        /* \"quantum/UBI4ALLQuantumGovernance.sol\":4113:4123  msg.sender */\n      caller\n      swap1\n        /* \"quantum/UBI4ALLQuantumGovernance.sol\":4101:4111  proposalId */\n      dup9\n      swap1\n        /* \"quantum/UBI4ALLQuantumGovernance.sol\":4076:4143  EntanglementBonusApplied(proposalId, msg.sender, entanglementBonus) */\n      0xe95559e9b7c2df54acbffab56c67bc5bdcb3bc229c747a9b3f47765b84ba3180\n      swap1\n        /* \"#utility.yul\":3600:3602   */\n      0x20\n        /* \"#utility.yul\":3585:3603   */\n      add\n        /* \"quantum/UBI4ALLQuantumGovernance.sol\":4076:4143  EntanglementBonusApplied(proposalId, msg.sender, entanglementBonus) */\n      mload(0x40)\n      dup1\n      swap2\n      sub\n      swap1\n      log3\n        /* \"quantum/UBI4ALLQuantumGovernance.sol\":4030:4154  if (entanglementBonus > 0) {... */\n    tag_171:\n        /* \"quantum/UBI4ALLQuantumGovernance.sol\":2968:4160  {... */\n      pop\n      pop\n      pop\n      pop\n      pop\n        /* \"quantum/UBI4ALLQuantumGovernance.sol\":2901:4160  function voteOnProposal(uint256 proposalId, bool support) external {... */\n      pop\n      pop\n      jump\t// out\n        /* \"quantum/UBI4ALLQuantumGovernance.sol\":6423:6617  function updateOracle(address _newOracle) external onlyOwner {... */\n    tag_46:\n        /* \"@openzeppelin/contracts/access/Ownable.sol\":1531:1544  _checkOwner() */\n      tag_174\n        /* \"@openzeppelin/contracts/access/Ownable.sol\":1531:1542  _checkOwner */\n      tag_109\n        /* \"@openzeppelin/contracts/access/Ownable.sol\":1531:1544  _checkOwner() */\n      jump\t// in\n    tag_174:\n      sub(shl(0xa0, 0x01), 0x01)\n        /* \"quantum/UBI4ALLQuantumGovernance.sol\":6502:6526  _newOracle != address(0) */\n      dup2\n      and\n        /* \"quantum/UBI4ALLQuantumGovernance.sol\":6494:6553  require(_newOracle != address(0), \"Invalid oracle address\") */\n      tag_176\n      jumpi\n      mload(0x40)\n      shl(0xe5, 0x461bcd)\n      dup2\n      mstore\n        /* \"#utility.yul\":9196:9198   */\n      0x20\n        /* \"quantum/UBI4ALLQuantumGovernance.sol\":6494:6553  require(_newOracle != address(0), \"Invalid oracle address\") */\n      0x04\n      dup3\n      add\n        /* \"#utility.yul\":9178:9199   */\n      mstore\n        /* \"#utility.yul\":9235:9237   */\n      0x16\n        /* \"#utility.yul\":9215:9233   */\n      0x24\n      dup3\n      add\n        /* \"#utility.yul\":9208:9238   */\n      mstore\n      shl(0x50, 0x496e76616c6964206f7261636c652061646472657373)\n        /* \"#utility.yul\":9254:9272   */\n      0x44\n      dup3\n      add\n        /* \"#utility.yul\":9247:9299   */\n      mstore\n        /* \"#utility.yul\":9316:9334   */\n      0x64\n      add\n        /* \"quantum/UBI4ALLQuantumGovernance.sol\":6494:6553  require(_newOracle != address(0), \"Invalid oracle address\") */\n      tag_113\n        /* \"#utility.yul\":8994:9340   */\n      jump\n        /* \"quantum/UBI4ALLQuantumGovernance.sol\":6494:6553  require(_newOracle != address(0), \"Invalid oracle address\") */\n    tag_176:\n        /* \"quantum/UBI4ALLQuantumGovernance.sol\":6563:6575  customOracle */\n      0x02\n        /* \"quantum/UBI4ALLQuantumGovernance.sol\":6563:6610  customOracle = IUBI4ALLCustomOracle(_newOracle) */\n      dup1\n      sload\n      not(sub(shl(0xa0, 0x01), 0x01))\n      and\n      sub(shl(0xa0, 0x01), 0x01)\n      swap3\n      swap1\n      swap3\n      and\n      swap2\n      swap1\n      swap2\n      or\n      swap1\n      sstore\n        /* \"quantum/UBI4ALLQuantumGovernance.sol\":6423:6617  function updateOracle(address _newOracle) external onlyOwner {... */\n      jump\t// out\n        /* \"quantum/UBI4ALLQuantumGovernance.sol\":2319:2895  function createProposal(string memory description) external override {... */\n    tag_50:\n        /* \"quantum/UBI4ALLQuantumGovernance.sol\":2406:2418  quantumToken */\n      sload(0x01)\n        /* \"quantum/UBI4ALLQuantumGovernance.sol\":2406:2440  quantumToken.balanceOf(msg.sender) */\n      mload(0x40)\n      shl(0xe0, 0x70a08231)\n      dup2\n      mstore\n        /* \"quantum/UBI4ALLQuantumGovernance.sol\":2429:2439  msg.sender */\n      caller\n        /* \"quantum/UBI4ALLQuantumGovernance.sol\":2406:2440  quantumToken.balanceOf(msg.sender) */\n      0x04\n      dup3\n      add\n        /* \"#utility.yul\":3794:3845   */\n      mstore\n        /* \"quantum/UBI4ALLQuantumGovernance.sol\":487:505  1_000_000 * 10**18 */\n      0xd3c21bcecceda1000000\n      swap2\n      sub(shl(0xa0, 0x01), 0x01)\n        /* \"quantum/UBI4ALLQuantumGovernance.sol\":2406:2418  quantumToken */\n      and\n      swap1\n        /* \"quantum/UBI4ALLQuantumGovernance.sol\":2406:2428  quantumToken.balanceOf */\n      0x70a08231\n      swap1\n        /* \"#utility.yul\":3767:3785   */\n      0x24\n      add\n        /* \"quantum/UBI4ALLQuantumGovernance.sol\":2406:2440  quantumToken.balanceOf(msg.sender) */\n      0x20\n      mload(0x40)\n      dup1\n      dup4\n      sub\n      dup2\n      dup7\n      gas\n      staticcall\n      iszero\n      dup1\n      iszero\n      tag_182\n      jumpi\n      returndatasize\n      0x00\n      dup1\n      returndatacopy\n      revert(0x00, returndatasize)\n    tag_182:\n      pop\n      pop\n      pop\n      pop\n      mload(0x40)\n      returndatasize\n      not(0x1f)\n      0x1f\n      dup3\n      add\n      and\n      dup3\n      add\n      dup1\n      0x40\n      mstore\n      pop\n      dup2\n      add\n      swap1\n      tag_183\n      swap2\n      swap1\n      tag_124\n      jump\t// in\n    tag_183:\n        /* \"quantum/UBI4ALLQuantumGovernance.sol\":2406:2471  quantumToken.balanceOf(msg.sender) >= MINIMUM_TOKENS_FOR_PROPOSAL */\n      lt\n      iszero\n        /* \"quantum/UBI4ALLQuantumGovernance.sol\":2398:2500  require(quantumToken.balanceOf(msg.sender) >= MINIMUM_TOKENS_FOR_PROPOSAL, \"Insufficient Q4A balance\") */\n      tag_184\n      jumpi\n      mload(0x40)\n      shl(0xe5, 0x461bcd)\n      dup2\n      mstore\n        /* \"#utility.yul\":9547:9549   */\n      0x20\n        /* \"quantum/UBI4ALLQuantumGovernance.sol\":2398:2500  require(quantumToken.balanceOf(msg.sender) >= MINIMUM_TOKENS_FOR_PROPOSAL, \"Insufficient Q4A balance\") */\n      0x04\n      dup3\n      add\n        /* \"#utility.yul\":9529:9550   */\n      mstore\n        /* \"#utility.yul\":9586:9588   */\n      0x18\n        /* \"#utility.yul\":9566:9584   */\n      0x24\n      dup3\n      add\n        /* \"#utility.yul\":9559:9589   */\n      mstore\n        /* \"#utility.yul\":9625:9651   */\n      0x496e73756666696369656e74205134412062616c616e63650000000000000000\n        /* \"#utility.yul\":9605:9623   */\n      0x44\n      dup3\n      add\n        /* \"#utility.yul\":9598:9652   */\n      mstore\n        /* \"#utility.yul\":9669:9687   */\n      0x64\n      add\n        /* \"quantum/UBI4ALLQuantumGovernance.sol\":2398:2500  require(quantumToken.balanceOf(msg.sender) >= MINIMUM_TOKENS_FOR_PROPOSAL, \"Insufficient Q4A balance\") */\n      tag_113\n        /* \"#utility.yul\":9345:9693   */\n      jump\n        /* \"quantum/UBI4ALLQuantumGovernance.sol\":2398:2500  require(quantumToken.balanceOf(msg.sender) >= MINIMUM_TOKENS_FOR_PROPOSAL, \"Insufficient Q4A balance\") */\n    tag_184:\n        /* \"quantum/UBI4ALLQuantumGovernance.sol\":2510:2523  proposalCount */\n      0x05\n        /* \"quantum/UBI4ALLQuantumGovernance.sol\":2510:2525  proposalCount++ */\n      dup1\n      sload\n      swap1\n        /* \"quantum/UBI4ALLQuantumGovernance.sol\":2510:2523  proposalCount */\n      0x00\n        /* \"quantum/UBI4ALLQuantumGovernance.sol\":2510:2525  proposalCount++ */\n      tag_187\n      dup4\n      tag_188\n      jump\t// in\n    tag_187:\n      swap1\n      swap2\n      sstore\n      pop\n      pop\n        /* \"quantum/UBI4ALLQuantumGovernance.sol\":2577:2590  proposalCount */\n      sload(0x05)\n        /* \"quantum/UBI4ALLQuantumGovernance.sol\":2535:2563  Proposal storage newProposal */\n      0x00\n        /* \"quantum/UBI4ALLQuantumGovernance.sol\":2566:2591  _proposals[proposalCount] */\n      dup2\n      dup2\n      mstore\n        /* \"quantum/UBI4ALLQuantumGovernance.sol\":2566:2576  _proposals */\n      0x03\n        /* \"quantum/UBI4ALLQuantumGovernance.sol\":2566:2591  _proposals[proposalCount] */\n      0x20\n      mstore\n      0x40\n      swap1\n      keccak256\n        /* \"quantum/UBI4ALLQuantumGovernance.sol\":2601:2631  newProposal.id = proposalCount */\n      swap1\n      dup2\n      sstore\n        /* \"quantum/UBI4ALLQuantumGovernance.sol\":2641:2664  newProposal.description */\n      0x01\n      dup2\n      add\n        /* \"quantum/UBI4ALLQuantumGovernance.sol\":2641:2678  newProposal.description = description */\n      tag_189\n        /* \"quantum/UBI4ALLQuantumGovernance.sol\":2667:2678  description */\n      dup4\n        /* \"quantum/UBI4ALLQuantumGovernance.sol\":2641:2664  newProposal.description */\n      dup3\n        /* \"quantum/UBI4ALLQuantumGovernance.sol\":2641:2678  newProposal.description = description */\n      tag_190\n      jump\t// in\n    tag_189:\n      pop\n        /* \"quantum/UBI4ALLQuantumGovernance.sol\":2688:2710  newProposal.isExecuted */\n      0x02\n      dup2\n      add\n        /* \"quantum/UBI4ALLQuantumGovernance.sol\":2688:2718  newProposal.isExecuted = false */\n      dup1\n      sload\n      not(0xff)\n      and\n      swap1\n      sstore\n        /* \"quantum/UBI4ALLQuantumGovernance.sol\":2752:2767  block.timestamp */\n      timestamp\n        /* \"quantum/UBI4ALLQuantumGovernance.sol\":2728:2749  newProposal.startTime */\n      0x03\n      dup3\n      add\n        /* \"quantum/UBI4ALLQuantumGovernance.sol\":2728:2767  newProposal.startTime = block.timestamp */\n      dup2\n      swap1\n      sstore\n        /* \"quantum/UBI4ALLQuantumGovernance.sol\":2799:2830  block.timestamp + VOTING_PERIOD */\n      tag_191\n      swap1\n        /* \"quantum/UBI4ALLQuantumGovernance.sol\":561:567  7 days */\n      0x093a80\n      swap1\n        /* \"quantum/UBI4ALLQuantumGovernance.sol\":2799:2830  block.timestamp + VOTING_PERIOD */\n      tag_130\n      jump\t// in\n    tag_191:\n        /* \"quantum/UBI4ALLQuantumGovernance.sol\":2777:2796  newProposal.endTime */\n      0x04\n      dup3\n      add\n        /* \"quantum/UBI4ALLQuantumGovernance.sol\":2777:2830  newProposal.endTime = block.timestamp + VOTING_PERIOD */\n      sstore\n        /* \"quantum/UBI4ALLQuantumGovernance.sol\":2861:2874  proposalCount */\n      sload(0x05)\n        /* \"quantum/UBI4ALLQuantumGovernance.sol\":2845:2888  ProposalCreated(proposalCount, description) */\n      mload(0x40)\n      0x9c770c289ab5bf7e57cb1d23c8ceae993aea46eb64847072fd3d78ca60d3e432\n      swap1\n      tag_192\n      swap1\n        /* \"quantum/UBI4ALLQuantumGovernance.sol\":2876:2887  description */\n      dup6\n      swap1\n        /* \"quantum/UBI4ALLQuantumGovernance.sol\":2845:2888  ProposalCreated(proposalCount, description) */\n      tag_193\n      jump\t// in\n    tag_192:\n      mload(0x40)\n      dup1\n      swap2\n      sub\n      swap1\n      log2\n        /* \"quantum/UBI4ALLQuantumGovernance.sol\":2388:2895  {... */\n      pop\n        /* \"quantum/UBI4ALLQuantumGovernance.sol\":2319:2895  function createProposal(string memory description) external override {... */\n      pop\n      jump\t// out\n        /* \"@openzeppelin/contracts/access/Ownable.sol\":2293:2394  function renounceOwnership() public virtual onlyOwner {... */\n    tag_56:\n        /* \"@openzeppelin/contracts/access/Ownable.sol\":1531:1544  _checkOwner() */\n      tag_195\n        /* \"@openzeppelin/contracts/access/Ownable.sol\":1531:1542  _checkOwner */\n      tag_109\n        /* \"@openzeppelin/contracts/access/Ownable.sol\":1531:1544  _checkOwner() */\n      jump\t// in\n    tag_195:\n        /* \"@openzeppelin/contracts/access/Ownable.sol\":2357:2387  _transferOwnership(address(0)) */\n      tag_197\n        /* \"@openzeppelin/contracts/access/Ownable.sol\":2384:2385  0 */\n      0x00\n        /* \"@openzeppelin/contracts/access/Ownable.sol\":2357:2375  _transferOwnership */\n      tag_198\n        /* \"@openzeppelin/contracts/access/Ownable.sol\":2357:2387  _transferOwnership(address(0)) */\n      jump\t// in\n    tag_197:\n        /* \"@openzeppelin/contracts/access/Ownable.sol\":2293:2394  function renounceOwnership() public virtual onlyOwner {... */\n      jump\t// out\n        /* \"@openzeppelin/contracts/access/Ownable.sol\":2543:2758  function transferOwnership(address newOwner) public virtual onlyOwner {... */\n    tag_94:\n        /* \"@openzeppelin/contracts/access/Ownable.sol\":1531:1544  _checkOwner() */\n      tag_201\n        /* \"@openzeppelin/contracts/access/Ownable.sol\":1531:1542  _checkOwner */\n      tag_109\n        /* \"@openzeppelin/contracts/access/Ownable.sol\":1531:1544  _checkOwner() */\n      jump\t// in\n    tag_201:\n      sub(shl(0xa0, 0x01), 0x01)\n        /* \"@openzeppelin/contracts/access/Ownable.sol\":2627:2649  newOwner == address(0) */\n      dup2\n      and\n        /* \"@openzeppelin/contracts/access/Ownable.sol\":2623:2714  if (newOwner == address(0)) {... */\n      tag_203\n      jumpi\n        /* \"@openzeppelin/contracts/access/Ownable.sol\":2672:2703  OwnableInvalidOwner(address(0)) */\n      mload(0x40)\n      shl(0xe0, 0x1e4fbdf7)\n      dup2\n      mstore\n        /* \"@openzeppelin/contracts/access/Ownable.sol\":2700:2701  0 */\n      0x00\n        /* \"@openzeppelin/contracts/access/Ownable.sol\":2672:2703  OwnableInvalidOwner(address(0)) */\n      0x04\n      dup3\n      add\n        /* \"#utility.yul\":3794:3845   */\n      mstore\n        /* \"#utility.yul\":3767:3785   */\n      0x24\n      add\n        /* \"@openzeppelin/contracts/access/Ownable.sol\":2672:2703  OwnableInvalidOwner(address(0)) */\n      tag_113\n        /* \"#utility.yul\":3648:3851   */\n      jump\n        /* \"@openzeppelin/contracts/access/Ownable.sol\":2623:2714  if (newOwner == address(0)) {... */\n    tag_203:\n        /* \"@openzeppelin/contracts/access/Ownable.sol\":2723:2751  _transferOwnership(newOwner) */\n      tag_205\n        /* \"@openzeppelin/contracts/access/Ownable.sol\":2742:2750  newOwner */\n      dup2\n        /* \"@openzeppelin/contracts/access/Ownable.sol\":2723:2741  _transferOwnership */\n      tag_198\n        /* \"@openzeppelin/contracts/access/Ownable.sol\":2723:2751  _transferOwnership(newOwner) */\n      jump\t// in\n    tag_205:\n        /* \"@openzeppelin/contracts/access/Ownable.sol\":2543:2758  function transferOwnership(address newOwner) public virtual onlyOwner {... */\n      pop\n      jump\t// out\n        /* \"@openzeppelin/contracts/access/Ownable.sol\":1796:1958  function _checkOwner() internal view virtual {... */\n    tag_109:\n        /* \"@openzeppelin/contracts/access/Ownable.sol\":1684:1691  address */\n      0x00\n        /* \"@openzeppelin/contracts/access/Ownable.sol\":1710:1716  _owner */\n      sload\n      sub(shl(0xa0, 0x01), 0x01)\n      and\n        /* \"@openzeppelin/contracts/utils/Context.sol\":735:745  msg.sender */\n      caller\n        /* \"@openzeppelin/contracts/access/Ownable.sol\":1855:1878  owner() != _msgSender() */\n      eq\n        /* \"@openzeppelin/contracts/access/Ownable.sol\":1851:1952  if (owner() != _msgSender()) {... */\n      tag_197\n      jumpi\n        /* \"@openzeppelin/contracts/access/Ownable.sol\":1901:1941  OwnableUnauthorizedAccount(_msgSender()) */\n      mload(0x40)\n      shl(0xe0, 0x118cdaa7)\n      dup2\n      mstore\n        /* \"@openzeppelin/contracts/utils/Context.sol\":735:745  msg.sender */\n      caller\n        /* \"@openzeppelin/contracts/access/Ownable.sol\":1901:1941  OwnableUnauthorizedAccount(_msgSender()) */\n      0x04\n      dup3\n      add\n        /* \"#utility.yul\":3794:3845   */\n      mstore\n        /* \"#utility.yul\":3767:3785   */\n      0x24\n      add\n        /* \"@openzeppelin/contracts/access/Ownable.sol\":1901:1941  OwnableUnauthorizedAccount(_msgSender()) */\n      tag_113\n        /* \"#utility.yul\":3648:3851   */\n      jump\n        /* \"quantum/UBI4ALLQuantumGovernance.sol\":4166:4894  function updateVoterProfile(address voter) internal {... */\n    tag_156:\n      sub(shl(0xa0, 0x01), 0x01)\n        /* \"quantum/UBI4ALLQuantumGovernance.sol\":4259:4279  voterProfiles[voter] */\n      dup2\n      dup2\n      and\n        /* \"quantum/UBI4ALLQuantumGovernance.sol\":4228:4256  VoterProfile storage profile */\n      0x00\n        /* \"quantum/UBI4ALLQuantumGovernance.sol\":4259:4279  voterProfiles[voter] */\n      dup2\n      dup2\n      mstore\n        /* \"quantum/UBI4ALLQuantumGovernance.sol\":4259:4272  voterProfiles */\n      0x04\n        /* \"quantum/UBI4ALLQuantumGovernance.sol\":4259:4279  voterProfiles[voter] */\n      0x20\n      dup2\n      swap1\n      mstore\n      0x40\n      swap2\n      dup3\n      swap1\n      keccak256\n        /* \"quantum/UBI4ALLQuantumGovernance.sol\":4311:4323  quantumToken */\n      sload(0x01)\n        /* \"quantum/UBI4ALLQuantumGovernance.sol\":4311:4343  quantumToken.lockedForDAO(voter) */\n      swap3\n      mload\n      shl(0xe1, 0x157a22c9)\n      dup2\n      mstore\n      swap2\n      dup3\n      add\n        /* \"#utility.yul\":3794:3845   */\n      swap4\n      swap1\n      swap4\n      mstore\n        /* \"quantum/UBI4ALLQuantumGovernance.sol\":4259:4279  voterProfiles[voter] */\n      swap2\n      swap3\n        /* \"quantum/UBI4ALLQuantumGovernance.sol\":4311:4323  quantumToken */\n      and\n      swap1\n        /* \"quantum/UBI4ALLQuantumGovernance.sol\":4311:4336  quantumToken.lockedForDAO */\n      0x2af44592\n      swap1\n        /* \"#utility.yul\":3767:3785   */\n      0x24\n      add\n        /* \"quantum/UBI4ALLQuantumGovernance.sol\":4311:4343  quantumToken.lockedForDAO(voter) */\n      0x20\n      mload(0x40)\n      dup1\n      dup4\n      sub\n      dup2\n      dup7\n      gas\n      staticcall\n      iszero\n      dup1\n      iszero\n      tag_216\n      jumpi\n      returndatasize\n      0x00\n      dup1\n      returndatacopy\n      revert(0x00, returndatasize)\n    tag_216:\n      pop\n      pop\n      pop\n      pop\n      mload(0x40)\n      returndatasize\n      not(0x1f)\n      0x1f\n      dup3\n      add\n      and\n      dup3\n      add\n      dup1\n      0x40\n      mstore\n      pop\n      dup2\n      add\n      swap1\n      tag_217\n      swap2\n      swap1\n      tag_124\n      jump\t// in\n    tag_217:\n        /* \"quantum/UBI4ALLQuantumGovernance.sol\":4289:4343  profile.totalLocked = quantumToken.lockedForDAO(voter) */\n      dup2\n      sstore\n        /* \"quantum/UBI4ALLQuantumGovernance.sol\":4353:4374  profile.proposalCount */\n      0x01\n      dup2\n      add\n        /* \"quantum/UBI4ALLQuantumGovernance.sol\":4353:4376  profile.proposalCount++ */\n      dup1\n      sload\n      swap1\n        /* \"quantum/UBI4ALLQuantumGovernance.sol\":4289:4308  profile.totalLocked */\n      0x00\n        /* \"quantum/UBI4ALLQuantumGovernance.sol\":4353:4376  profile.proposalCount++ */\n      tag_218\n      dup4\n      tag_188\n      jump\t// in\n    tag_218:\n      swap1\n      swap2\n      sstore\n      pop\n      pop\n        /* \"quantum/UBI4ALLQuantumGovernance.sol\":4414:4429  block.timestamp */\n      timestamp\n        /* \"quantum/UBI4ALLQuantumGovernance.sol\":4386:4411  profile.lastParticipation */\n      0x02\n      dup3\n      dup2\n      add\n        /* \"quantum/UBI4ALLQuantumGovernance.sol\":4386:4429  profile.lastParticipation = block.timestamp */\n      swap2\n      swap1\n      swap2\n      sstore\n        /* \"quantum/UBI4ALLQuantumGovernance.sol\":4465:4477  customOracle */\n      sload\n        /* \"quantum/UBI4ALLQuantumGovernance.sol\":4465:4503  customOracle.getReputationScore(voter) */\n      mload(0x40)\n      shl(0xe2, 0x1d699f57)\n      dup2\n      mstore\n      sub(shl(0xa0, 0x01), 0x01)\n        /* \"#utility.yul\":3812:3844   */\n      dup5\n      dup2\n      and\n        /* \"quantum/UBI4ALLQuantumGovernance.sol\":4465:4503  customOracle.getReputationScore(voter) */\n      0x04\n      dup4\n      add\n        /* \"#utility.yul\":3794:3845   */\n      mstore\n        /* \"quantum/UBI4ALLQuantumGovernance.sol\":4439:4462  uint256 reputationScore */\n      0x00\n      swap3\n        /* \"quantum/UBI4ALLQuantumGovernance.sol\":4465:4477  customOracle */\n      and\n      swap1\n        /* \"quantum/UBI4ALLQuantumGovernance.sol\":4465:4496  customOracle.getReputationScore */\n      0x75a67d5c\n      swap1\n        /* \"#utility.yul\":3767:3785   */\n      0x24\n      add\n        /* \"quantum/UBI4ALLQuantumGovernance.sol\":4465:4503  customOracle.getReputationScore(voter) */\n      0x20\n      mload(0x40)\n      dup1\n      dup4\n      sub\n      dup2\n      dup7\n      gas\n      staticcall\n      iszero\n      dup1\n      iszero\n      tag_221\n      jumpi\n      returndatasize\n      0x00\n      dup1\n      returndatacopy\n      revert(0x00, returndatasize)\n    tag_221:\n      pop\n      pop\n      pop\n      pop\n      mload(0x40)\n      returndatasize\n      not(0x1f)\n      0x1f\n      dup3\n      add\n      and\n      dup3\n      add\n      dup1\n      0x40\n      mstore\n      pop\n      dup2\n      add\n      swap1\n      tag_222\n      swap2\n      swap1\n      tag_124\n      jump\t// in\n    tag_222:\n        /* \"quantum/UBI4ALLQuantumGovernance.sol\":4439:4503  uint256 reputationScore = customOracle.getReputationScore(voter) */\n      swap1\n      pop\n        /* \"quantum/UBI4ALLQuantumGovernance.sol\":862:863  5 */\n      0x05\n        /* \"quantum/UBI4ALLQuantumGovernance.sol\":4517:4524  profile */\n      dup3\n        /* \"quantum/UBI4ALLQuantumGovernance.sol\":4517:4538  profile.proposalCount */\n      0x01\n      add\n      sload\n        /* \"quantum/UBI4ALLQuantumGovernance.sol\":4517:4564  profile.proposalCount >= ACTIVE_VOTER_THRESHOLD */\n      lt\n      iszero\n        /* \"quantum/UBI4ALLQuantumGovernance.sol\":4517:4621  profile.proposalCount >= ACTIVE_VOTER_THRESHOLD && block.timestamp - profile.lastParticipation < 30 days */\n      dup1\n      iszero\n      tag_223\n      jumpi\n      pop\n        /* \"quantum/UBI4ALLQuantumGovernance.sol\":4614:4621  30 days */\n      0x278d00\n        /* \"quantum/UBI4ALLQuantumGovernance.sol\":4586:4593  profile */\n      dup3\n        /* \"quantum/UBI4ALLQuantumGovernance.sol\":4586:4611  profile.lastParticipation */\n      0x02\n      add\n      sload\n        /* \"quantum/UBI4ALLQuantumGovernance.sol\":4568:4583  block.timestamp */\n      timestamp\n        /* \"quantum/UBI4ALLQuantumGovernance.sol\":4568:4611  block.timestamp - profile.lastParticipation */\n      tag_224\n      swap2\n      swap1\n      tag_225\n      jump\t// in\n    tag_224:\n        /* \"quantum/UBI4ALLQuantumGovernance.sol\":4568:4621  block.timestamp - profile.lastParticipation < 30 days */\n      lt\n        /* \"quantum/UBI4ALLQuantumGovernance.sol\":4517:4621  profile.proposalCount >= ACTIVE_VOTER_THRESHOLD && block.timestamp - profile.lastParticipation < 30 days */\n    tag_223:\n        /* \"quantum/UBI4ALLQuantumGovernance.sol\":4513:4825  if (profile.proposalCount >= ACTIVE_VOTER_THRESHOLD && block.timestamp - profile.lastParticipation < 30 days) {... */\n      iszero\n      tag_226\n      jumpi\n        /* \"quantum/UBI4ALLQuantumGovernance.sol\":697:699  20 */\n      0x14\n        /* \"quantum/UBI4ALLQuantumGovernance.sol\":4662:4677  reputationScore */\n      dup2\n        /* \"quantum/UBI4ALLQuantumGovernance.sol\":4662:4699  reputationScore > MAX_INFLUENCE_BONUS */\n      gt\n        /* \"quantum/UBI4ALLQuantumGovernance.sol\":4662:4739  reputationScore > MAX_INFLUENCE_BONUS ? MAX_INFLUENCE_BONUS : reputationScore */\n      tag_227\n      jumpi\n        /* \"quantum/UBI4ALLQuantumGovernance.sol\":4724:4739  reputationScore */\n      dup1\n        /* \"quantum/UBI4ALLQuantumGovernance.sol\":4662:4739  reputationScore > MAX_INFLUENCE_BONUS ? MAX_INFLUENCE_BONUS : reputationScore */\n      jump(tag_228)\n    tag_227:\n        /* \"quantum/UBI4ALLQuantumGovernance.sol\":697:699  20 */\n      0x14\n        /* \"quantum/UBI4ALLQuantumGovernance.sol\":4662:4739  reputationScore > MAX_INFLUENCE_BONUS ? MAX_INFLUENCE_BONUS : reputationScore */\n    tag_228:\n        /* \"quantum/UBI4ALLQuantumGovernance.sol\":4637:4659  profile.influenceBonus */\n      0x03\n      dup4\n      add\n        /* \"quantum/UBI4ALLQuantumGovernance.sol\":4637:4739  profile.influenceBonus = reputationScore > MAX_INFLUENCE_BONUS ? MAX_INFLUENCE_BONUS : reputationScore */\n      sstore\n        /* \"quantum/UBI4ALLQuantumGovernance.sol\":4513:4825  if (profile.proposalCount >= ACTIVE_VOTER_THRESHOLD && block.timestamp - profile.lastParticipation < 30 days) {... */\n      jump(tag_229)\n    tag_226:\n        /* \"quantum/UBI4ALLQuantumGovernance.sol\":4795:4814  reputationScore / 2 */\n      tag_230\n        /* \"quantum/UBI4ALLQuantumGovernance.sol\":4813:4814  2 */\n      0x02\n        /* \"quantum/UBI4ALLQuantumGovernance.sol\":4795:4810  reputationScore */\n      dup3\n        /* \"quantum/UBI4ALLQuantumGovernance.sol\":4795:4814  reputationScore / 2 */\n      tag_128\n      jump\t// in\n    tag_230:\n        /* \"quantum/UBI4ALLQuantumGovernance.sol\":4770:4792  profile.influenceBonus */\n      0x03\n      dup4\n      add\n        /* \"quantum/UBI4ALLQuantumGovernance.sol\":4770:4814  profile.influenceBonus = reputationScore / 2 */\n      sstore\n        /* \"quantum/UBI4ALLQuantumGovernance.sol\":4513:4825  if (profile.proposalCount >= ACTIVE_VOTER_THRESHOLD && block.timestamp - profile.lastParticipation < 30 days) {... */\n    tag_229:\n        /* \"quantum/UBI4ALLQuantumGovernance.sol\":4857:4862  voter */\n      dup3\n      sub(shl(0xa0, 0x01), 0x01)\n        /* \"quantum/UBI4ALLQuantumGovernance.sol\":4839:4887  ReputationUpdated(voter, profile.influenceBonus) */\n      and\n      0xfc577563f1b9a0461e24abef1e1fcc0d33d3d881f20b5df6dda59de4aae2c821\n        /* \"quantum/UBI4ALLQuantumGovernance.sol\":4864:4871  profile */\n      dup4\n        /* \"quantum/UBI4ALLQuantumGovernance.sol\":4864:4886  profile.influenceBonus */\n      0x03\n      add\n      sload\n        /* \"quantum/UBI4ALLQuantumGovernance.sol\":4839:4887  ReputationUpdated(voter, profile.influenceBonus) */\n      mload(0x40)\n      tag_231\n      swap2\n        /* \"#utility.yul\":3612:3637   */\n      dup2\n      mstore\n        /* \"#utility.yul\":3600:3602   */\n      0x20\n        /* \"#utility.yul\":3585:3603   */\n      add\n      swap1\n        /* \"#utility.yul\":3466:3643   */\n      jump\n        /* \"quantum/UBI4ALLQuantumGovernance.sol\":4839:4887  ReputationUpdated(voter, profile.influenceBonus) */\n    tag_231:\n      mload(0x40)\n      dup1\n      swap2\n      sub\n      swap1\n      log2\n        /* \"quantum/UBI4ALLQuantumGovernance.sol\":4218:4894  {... */\n      pop\n      pop\n        /* \"quantum/UBI4ALLQuantumGovernance.sol\":4166:4894  function updateVoterProfile(address voter) internal {... */\n      pop\n      jump\t// out\n        /* \"quantum/UBI4ALLQuantumGovernance.sol\":4900:5693  function calculateEntanglementBonus(uint256 proposalId, address voter, bool support) internal returns (uint256) {... */\n    tag_161:\n        /* \"quantum/UBI4ALLQuantumGovernance.sol\":5003:5010  uint256 */\n      0x00\n        /* \"quantum/UBI4ALLQuantumGovernance.sol\":5050:5072  _proposals[proposalId] */\n      dup4\n      dup2\n      mstore\n        /* \"quantum/UBI4ALLQuantumGovernance.sol\":5050:5060  _proposals */\n      0x03\n        /* \"quantum/UBI4ALLQuantumGovernance.sol\":5050:5072  _proposals[proposalId] */\n      0x20\n      swap1\n      dup2\n      mstore\n      0x40\n      dup1\n      dup4\n      keccak256\n      sub(shl(0xa0, 0x01), 0x01)\n        /* \"quantum/UBI4ALLQuantumGovernance.sol\":5116:5150  proposal.entanglementGroups[voter] */\n      dup7\n      and\n      dup5\n      mstore\n        /* \"quantum/UBI4ALLQuantumGovernance.sol\":5116:5143  proposal.entanglementGroups */\n      0x08\n      dup2\n      add\n        /* \"quantum/UBI4ALLQuantumGovernance.sol\":5116:5150  proposal.entanglementGroups[voter] */\n      swap1\n      swap3\n      mstore\n      dup3\n      keccak256\n        /* \"quantum/UBI4ALLQuantumGovernance.sol\":5164:5183  group.voters.length */\n      dup1\n      sload\n        /* \"quantum/UBI4ALLQuantumGovernance.sol\":5164:5188  group.voters.length == 0 */\n      dup4\n      sub\n        /* \"quantum/UBI4ALLQuantumGovernance.sol\":5160:5239  if (group.voters.length == 0) {... */\n      tag_233\n      jumpi\n        /* \"quantum/UBI4ALLQuantumGovernance.sol\":5204:5228  group.voters.push(voter) */\n      dup1\n      sload\n      0x01\n      dup2\n      add\n      dup3\n      sstore\n      0x00\n      dup3\n      dup2\n      mstore\n      0x20\n      swap1\n      keccak256\n      add\n      dup1\n      sload\n      not(sub(shl(0xa0, 0x01), 0x01))\n      and\n      sub(shl(0xa0, 0x01), 0x01)\n      dup8\n      and\n      or\n      swap1\n      sstore\n        /* \"quantum/UBI4ALLQuantumGovernance.sol\":5160:5239  if (group.voters.length == 0) {... */\n    tag_233:\n        /* \"quantum/UBI4ALLQuantumGovernance.sol\":5275:5287  customOracle */\n      sload(0x02)\n        /* \"quantum/UBI4ALLQuantumGovernance.sol\":5275:5326  customOracle.getCorrelationScore(voter, proposalId) */\n      mload(0x40)\n      shl(0xe0, 0x53d2262b)\n      dup2\n      mstore\n      sub(shl(0xa0, 0x01), 0x01)\n        /* \"#utility.yul\":12512:12544   */\n      dup8\n      dup2\n      and\n        /* \"quantum/UBI4ALLQuantumGovernance.sol\":5275:5326  customOracle.getCorrelationScore(voter, proposalId) */\n      0x04\n      dup4\n      add\n        /* \"#utility.yul\":12494:12545   */\n      mstore\n        /* \"#utility.yul\":12561:12579   */\n      0x24\n      dup3\n      add\n        /* \"#utility.yul\":12554:12588   */\n      dup10\n      swap1\n      mstore\n        /* \"quantum/UBI4ALLQuantumGovernance.sol\":5248:5272  uint256 correlationScore */\n      0x00\n      swap3\n        /* \"quantum/UBI4ALLQuantumGovernance.sol\":5275:5287  customOracle */\n      and\n      swap1\n        /* \"quantum/UBI4ALLQuantumGovernance.sol\":5275:5307  customOracle.getCorrelationScore */\n      0x53d2262b\n      swap1\n        /* \"#utility.yul\":12467:12485   */\n      0x44\n      add\n        /* \"quantum/UBI4ALLQuantumGovernance.sol\":5275:5326  customOracle.getCorrelationScore(voter, proposalId) */\n      0x20\n      mload(0x40)\n      dup1\n      dup4\n      sub\n      dup2\n      dup7\n      gas\n      staticcall\n      iszero\n      dup1\n      iszero\n      tag_238\n      jumpi\n      returndatasize\n      0x00\n      dup1\n      returndatacopy\n      revert(0x00, returndatasize)\n    tag_238:\n      pop\n      pop\n      pop\n      pop\n      mload(0x40)\n      returndatasize\n      not(0x1f)\n      0x1f\n      dup3\n      add\n      and\n      dup3\n      add\n      dup1\n      0x40\n      mstore\n      pop\n      dup2\n      add\n      swap1\n      tag_239\n      swap2\n      swap1\n      tag_124\n      jump\t// in\n    tag_239:\n        /* \"quantum/UBI4ALLQuantumGovernance.sol\":5248:5326  uint256 correlationScore = customOracle.getCorrelationScore(voter, proposalId) */\n      swap1\n      pop\n        /* \"quantum/UBI4ALLQuantumGovernance.sol\":5340:5347  support */\n      dup5\n        /* \"quantum/UBI4ALLQuantumGovernance.sol\":5340:5371  support && correlationScore > 0 */\n      dup1\n      iszero\n      tag_240\n      jumpi\n      pop\n        /* \"quantum/UBI4ALLQuantumGovernance.sol\":5370:5371  0 */\n      0x00\n        /* \"quantum/UBI4ALLQuantumGovernance.sol\":5351:5367  correlationScore */\n      dup2\n        /* \"quantum/UBI4ALLQuantumGovernance.sol\":5351:5371  correlationScore > 0 */\n      gt\n        /* \"quantum/UBI4ALLQuantumGovernance.sol\":5340:5371  support && correlationScore > 0 */\n    tag_240:\n        /* \"quantum/UBI4ALLQuantumGovernance.sol\":5336:5669  if (support && correlationScore > 0) {... */\n      iszero\n      tag_241\n      jumpi\n        /* \"quantum/UBI4ALLQuantumGovernance.sol\":5431:5434  100 */\n      0x64\n        /* \"quantum/UBI4ALLQuantumGovernance.sol\":5412:5428  correlationScore */\n      dup2\n        /* \"quantum/UBI4ALLQuantumGovernance.sol\":5412:5434  correlationScore > 100 */\n      gt\n        /* \"quantum/UBI4ALLQuantumGovernance.sol\":5412:5459  correlationScore > 100 ? 100 : correlationScore */\n      tag_242\n      jumpi\n        /* \"quantum/UBI4ALLQuantumGovernance.sol\":5443:5459  correlationScore */\n      dup1\n        /* \"quantum/UBI4ALLQuantumGovernance.sol\":5412:5459  correlationScore > 100 ? 100 : correlationScore */\n      jump(tag_243)\n    tag_242:\n        /* \"quantum/UBI4ALLQuantumGovernance.sol\":5437:5440  100 */\n      0x64\n        /* \"quantum/UBI4ALLQuantumGovernance.sol\":5412:5459  correlationScore > 100 ? 100 : correlationScore */\n    tag_243:\n        /* \"quantum/UBI4ALLQuantumGovernance.sol\":5387:5409  group.correlationScore */\n      0x01\n      dup4\n      dup2\n      add\n        /* \"quantum/UBI4ALLQuantumGovernance.sol\":5387:5459  group.correlationScore = correlationScore > 100 ? 100 : correlationScore */\n      swap2\n      swap1\n      swap2\n      sstore\n        /* \"quantum/UBI4ALLQuantumGovernance.sol\":5494:5506  quantumToken */\n      sload\n        /* \"quantum/UBI4ALLQuantumGovernance.sol\":5494:5526  quantumToken.lockedForDAO(voter) */\n      mload(0x40)\n      shl(0xe1, 0x157a22c9)\n      dup2\n      mstore\n      sub(shl(0xa0, 0x01), 0x01)\n        /* \"#utility.yul\":3812:3844   */\n      dup9\n      dup2\n      and\n        /* \"quantum/UBI4ALLQuantumGovernance.sol\":5494:5526  quantumToken.lockedForDAO(voter) */\n      0x04\n      dup4\n      add\n        /* \"#utility.yul\":3794:3845   */\n      mstore\n        /* \"quantum/UBI4ALLQuantumGovernance.sol\":5473:5491  uint256 baseWeight */\n      0x00\n      swap3\n        /* \"quantum/UBI4ALLQuantumGovernance.sol\":5494:5506  quantumToken */\n      and\n      swap1\n        /* \"quantum/UBI4ALLQuantumGovernance.sol\":5494:5519  quantumToken.lockedForDAO */\n      0x2af44592\n      swap1\n        /* \"#utility.yul\":3767:3785   */\n      0x24\n      add\n        /* \"quantum/UBI4ALLQuantumGovernance.sol\":5494:5526  quantumToken.lockedForDAO(voter) */\n      0x20\n      mload(0x40)\n      dup1\n      dup4\n      sub\n      dup2\n      dup7\n      gas\n      staticcall\n      iszero\n      dup1\n      iszero\n      tag_246\n      jumpi\n      returndatasize\n      0x00\n      dup1\n      returndatacopy\n      revert(0x00, returndatasize)\n    tag_246:\n      pop\n      pop\n      pop\n      pop\n      mload(0x40)\n      returndatasize\n      not(0x1f)\n      0x1f\n      dup3\n      add\n      and\n      dup3\n      add\n      dup1\n      0x40\n      mstore\n      pop\n      dup2\n      add\n      swap1\n      tag_247\n      swap2\n      swap1\n      tag_124\n      jump\t// in\n    tag_247:\n        /* \"quantum/UBI4ALLQuantumGovernance.sol\":5473:5526  uint256 baseWeight = quantumToken.lockedForDAO(voter) */\n      swap1\n      pop\n        /* \"quantum/UBI4ALLQuantumGovernance.sol\":5540:5553  uint256 bonus */\n      0x00\n        /* \"quantum/UBI4ALLQuantumGovernance.sol\":5622:5631  100 * 100 */\n      0x2710\n        /* \"quantum/UBI4ALLQuantumGovernance.sol\":779:781  30 */\n      0x1e\n        /* \"quantum/UBI4ALLQuantumGovernance.sol\":5570:5575  group */\n      dup6\n        /* \"quantum/UBI4ALLQuantumGovernance.sol\":5570:5592  group.correlationScore */\n      0x01\n      add\n      sload\n        /* \"quantum/UBI4ALLQuantumGovernance.sol\":5557:5567  baseWeight */\n      dup5\n        /* \"quantum/UBI4ALLQuantumGovernance.sol\":5557:5592  baseWeight * group.correlationScore */\n      tag_248\n      swap2\n      swap1\n      tag_126\n      jump\t// in\n    tag_248:\n        /* \"quantum/UBI4ALLQuantumGovernance.sol\":5557:5617  baseWeight * group.correlationScore * MAX_ENTANGLEMENT_BONUS */\n      tag_249\n      swap2\n      swap1\n      tag_126\n      jump\t// in\n    tag_249:\n        /* \"quantum/UBI4ALLQuantumGovernance.sol\":5556:5632  (baseWeight * group.correlationScore * MAX_ENTANGLEMENT_BONUS) / (100 * 100) */\n      tag_250\n      swap2\n      swap1\n      tag_128\n      jump\t// in\n    tag_250:\n        /* \"quantum/UBI4ALLQuantumGovernance.sol\":5540:5632  uint256 bonus = (baseWeight * group.correlationScore * MAX_ENTANGLEMENT_BONUS) / (100 * 100) */\n      swap6\n      pop\n        /* \"quantum/UBI4ALLQuantumGovernance.sol\":5646:5658  return bonus */\n      tag_232\n      swap5\n      pop\n      pop\n      pop\n      pop\n      pop\n      jump\n        /* \"quantum/UBI4ALLQuantumGovernance.sol\":5336:5669  if (support && correlationScore > 0) {... */\n    tag_241:\n        /* \"quantum/UBI4ALLQuantumGovernance.sol\":5685:5686  0 */\n      0x00\n        /* \"quantum/UBI4ALLQuantumGovernance.sol\":5678:5686  return 0 */\n      swap4\n      pop\n      pop\n      pop\n      pop\n        /* \"quantum/UBI4ALLQuantumGovernance.sol\":4900:5693  function calculateEntanglementBonus(uint256 proposalId, address voter, bool support) internal returns (uint256) {... */\n    tag_232:\n      swap4\n      swap3\n      pop\n      pop\n      pop\n      jump\t// out\n        /* \"@openzeppelin/contracts/access/Ownable.sol\":2912:3099  function _transferOwnership(address newOwner) internal virtual {... */\n    tag_198:\n        /* \"@openzeppelin/contracts/access/Ownable.sol\":2985:3001  address oldOwner */\n      0x00\n        /* \"@openzeppelin/contracts/access/Ownable.sol\":3004:3010  _owner */\n      dup1\n      sload\n      sub(shl(0xa0, 0x01), 0x01)\n        /* \"@openzeppelin/contracts/access/Ownable.sol\":3020:3037  _owner = newOwner */\n      dup4\n      dup2\n      and\n      not(sub(shl(0xa0, 0x01), 0x01))\n      dup4\n      and\n      dup2\n      or\n      dup5\n      sstore\n        /* \"@openzeppelin/contracts/access/Ownable.sol\":3052:3092  OwnershipTransferred(oldOwner, newOwner) */\n      mload(0x40)\n        /* \"@openzeppelin/contracts/access/Ownable.sol\":3004:3010  _owner */\n      swap2\n      swap1\n      swap3\n      and\n      swap3\n      dup4\n      swap2\n        /* \"@openzeppelin/contracts/access/Ownable.sol\":3052:3092  OwnershipTransferred(oldOwner, newOwner) */\n      0x8be0079c531659141344cd1fd0a4f28419497f9722a3daafe3b4186f6b6457e0\n      swap2\n        /* \"@openzeppelin/contracts/access/Ownable.sol\":2985:3001  address oldOwner */\n      swap1\n        /* \"@openzeppelin/contracts/access/Ownable.sol\":3052:3092  OwnershipTransferred(oldOwner, newOwner) */\n      log3\n        /* \"@openzeppelin/contracts/access/Ownable.sol\":2975:3099  {... */\n      pop\n        /* \"@openzeppelin/contracts/access/Ownable.sol\":2912:3099  function _transferOwnership(address newOwner) internal virtual {... */\n      pop\n      jump\t// out\n        /* \"#utility.yul\":14:240   */\n    tag_27:\n        /* \"#utility.yul\":73:79   */\n      0x00\n        /* \"#utility.yul\":126:128   */\n      0x20\n        /* \"#utility.yul\":114:123   */\n      dup3\n        /* \"#utility.yul\":105:112   */\n      dup5\n        /* \"#utility.yul\":101:124   */\n      sub\n        /* \"#utility.yul\":97:129   */\n      slt\n        /* \"#utility.yul\":94:146   */\n      iszero\n      tag_261\n      jumpi\n        /* \"#utility.yul\":142:143   */\n      0x00\n        /* \"#utility.yul\":139:140   */\n      dup1\n        /* \"#utility.yul\":132:144   */\n      revert\n        /* \"#utility.yul\":94:146   */\n    tag_261:\n      pop\n        /* \"#utility.yul\":187:210   */\n      calldataload\n      swap2\n        /* \"#utility.yul\":14:240   */\n      swap1\n      pop\n      jump\t// out\n        /* \"#utility.yul\":245:645   */\n    tag_253:\n        /* \"#utility.yul\":287:290   */\n      0x00\n        /* \"#utility.yul\":325:330   */\n      dup2\n        /* \"#utility.yul\":319:331   */\n      mload\n        /* \"#utility.yul\":352:358   */\n      dup1\n        /* \"#utility.yul\":347:350   */\n      dup5\n        /* \"#utility.yul\":340:359   */\n      mstore\n        /* \"#utility.yul\":377:378   */\n      0x00\n        /* \"#utility.yul\":387:526   */\n    tag_263:\n        /* \"#utility.yul\":401:407   */\n      dup2\n        /* \"#utility.yul\":398:399   */\n      dup2\n        /* \"#utility.yul\":395:408   */\n      lt\n        /* \"#utility.yul\":387:526   */\n      iszero\n      tag_265\n      jumpi\n        /* \"#utility.yul\":509:513   */\n      0x20\n        /* \"#utility.yul\":494:507   */\n      dup2\n      dup6\n      add\n        /* \"#utility.yul\":490:514   */\n      dup2\n      add\n        /* \"#utility.yul\":484:515   */\n      mload\n        /* \"#utility.yul\":464:475   */\n      dup7\n      dup4\n      add\n        /* \"#utility.yul\":460:482   */\n      dup3\n      add\n        /* \"#utility.yul\":453:516   */\n      mstore\n        /* \"#utility.yul\":416:428   */\n      add\n        /* \"#utility.yul\":387:526   */\n      jump(tag_263)\n    tag_265:\n        /* \"#utility.yul\":391:394   */\n      pop\n        /* \"#utility.yul\":571:572   */\n      0x00\n        /* \"#utility.yul\":564:568   */\n      0x20\n        /* \"#utility.yul\":555:561   */\n      dup3\n        /* \"#utility.yul\":550:553   */\n      dup7\n        /* \"#utility.yul\":546:562   */\n      add\n        /* \"#utility.yul\":542:569   */\n      add\n        /* \"#utility.yul\":535:573   */\n      mstore\n        /* \"#utility.yul\":634:638   */\n      0x20\n        /* \"#utility.yul\":627:629   */\n      0x1f\n        /* \"#utility.yul\":623:630   */\n      not\n        /* \"#utility.yul\":618:620   */\n      0x1f\n        /* \"#utility.yul\":610:616   */\n      dup4\n        /* \"#utility.yul\":606:621   */\n      add\n        /* \"#utility.yul\":602:631   */\n      and\n        /* \"#utility.yul\":597:600   */\n      dup6\n        /* \"#utility.yul\":593:632   */\n      add\n        /* \"#utility.yul\":589:639   */\n      add\n        /* \"#utility.yul\":582:639   */\n      swap2\n      pop\n      pop\n        /* \"#utility.yul\":245:645   */\n      swap3\n      swap2\n      pop\n      pop\n      jump\t// out\n        /* \"#utility.yul\":650:1022   */\n    tag_30:\n        /* \"#utility.yul\":849:855   */\n      dup4\n        /* \"#utility.yul\":838:847   */\n      dup2\n        /* \"#utility.yul\":831:856   */\n      mstore\n        /* \"#utility.yul\":892:894   */\n      0x60\n        /* \"#utility.yul\":887:889   */\n      0x20\n        /* \"#utility.yul\":876:885   */\n      dup3\n        /* \"#utility.yul\":872:890   */\n      add\n        /* \"#utility.yul\":865:895   */\n      mstore\n        /* \"#utility.yul\":812:816   */\n      0x00\n        /* \"#utility.yul\":912:957   */\n      tag_267\n        /* \"#utility.yul\":953:955   */\n      0x60\n        /* \"#utility.yul\":942:951   */\n      dup4\n        /* \"#utility.yul\":938:956   */\n      add\n        /* \"#utility.yul\":930:936   */\n      dup6\n        /* \"#utility.yul\":912:957   */\n      tag_253\n      jump\t// in\n    tag_267:\n        /* \"#utility.yul\":904:957   */\n      swap1\n      pop\n        /* \"#utility.yul\":1007:1013   */\n      dup3\n        /* \"#utility.yul\":1000:1014   */\n      iszero\n        /* \"#utility.yul\":993:1015   */\n      iszero\n        /* \"#utility.yul\":988:990   */\n      0x40\n        /* \"#utility.yul\":977:986   */\n      dup4\n        /* \"#utility.yul\":973:991   */\n      add\n        /* \"#utility.yul\":966:1016   */\n      mstore\n        /* \"#utility.yul\":650:1022   */\n      swap5\n      swap4\n      pop\n      pop\n      pop\n      pop\n      jump\t// out\n        /* \"#utility.yul\":1027:1688   */\n    tag_35:\n        /* \"#utility.yul\":1338:1344   */\n      dup8\n        /* \"#utility.yul\":1327:1336   */\n      dup2\n        /* \"#utility.yul\":1320:1345   */\n      mstore\n        /* \"#utility.yul\":1381:1384   */\n      0xe0\n        /* \"#utility.yul\":1376:1378   */\n      0x20\n        /* \"#utility.yul\":1365:1374   */\n      dup3\n        /* \"#utility.yul\":1361:1379   */\n      add\n        /* \"#utility.yul\":1354:1385   */\n      mstore\n        /* \"#utility.yul\":1301:1305   */\n      0x00\n        /* \"#utility.yul\":1402:1448   */\n      tag_269\n        /* \"#utility.yul\":1443:1446   */\n      0xe0\n        /* \"#utility.yul\":1432:1441   */\n      dup4\n        /* \"#utility.yul\":1428:1447   */\n      add\n        /* \"#utility.yul\":1420:1426   */\n      dup10\n        /* \"#utility.yul\":1402:1448   */\n      tag_253\n      jump\t// in\n    tag_269:\n        /* \"#utility.yul\":1491:1505   */\n      swap7\n      iszero\n        /* \"#utility.yul\":1484:1506   */\n      iszero\n        /* \"#utility.yul\":1479:1481   */\n      0x40\n        /* \"#utility.yul\":1464:1482   */\n      dup4\n      add\n        /* \"#utility.yul\":1457:1507   */\n      mstore\n      pop\n        /* \"#utility.yul\":1538:1540   */\n      0x60\n        /* \"#utility.yul\":1523:1541   */\n      dup2\n      add\n        /* \"#utility.yul\":1516:1550   */\n      swap5\n      swap1\n      swap5\n      mstore\n        /* \"#utility.yul\":1581:1584   */\n      0x80\n        /* \"#utility.yul\":1566:1585   */\n      dup5\n      add\n        /* \"#utility.yul\":1559:1594   */\n      swap3\n      swap1\n      swap3\n      mstore\n        /* \"#utility.yul\":1625:1628   */\n      0xa0\n        /* \"#utility.yul\":1610:1629   */\n      dup4\n      add\n        /* \"#utility.yul\":1603:1638   */\n      mstore\n        /* \"#utility.yul\":1669:1672   */\n      0xc0\n        /* \"#utility.yul\":1654:1673   */\n      swap1\n      swap2\n      add\n        /* \"#utility.yul\":1647:1682   */\n      mstore\n        /* \"#utility.yul\":1394:1448   */\n      swap3\n        /* \"#utility.yul\":1027:1688   */\n      swap2\n      pop\n      pop\n      jump\t// out\n        /* \"#utility.yul\":1693:2088   */\n    tag_41:\n        /* \"#utility.yul\":1758:1764   */\n      0x00\n        /* \"#utility.yul\":1766:1772   */\n      dup1\n        /* \"#utility.yul\":1819:1821   */\n      0x40\n        /* \"#utility.yul\":1807:1816   */\n      dup4\n        /* \"#utility.yul\":1798:1805   */\n      dup6\n        /* \"#utility.yul\":1794:1817   */\n      sub\n        /* \"#utility.yul\":1790:1822   */\n      slt\n        /* \"#utility.yul\":1787:1839   */\n      iszero\n      tag_271\n      jumpi\n        /* \"#utility.yul\":1835:1836   */\n      0x00\n        /* \"#utility.yul\":1832:1833   */\n      dup1\n        /* \"#utility.yul\":1825:1837   */\n      revert\n        /* \"#utility.yul\":1787:1839   */\n    tag_271:\n        /* \"#utility.yul\":1880:1903   */\n      dup3\n      calldataload\n      swap2\n      pop\n        /* \"#utility.yul\":1979:1981   */\n      0x20\n        /* \"#utility.yul\":1964:1982   */\n      dup4\n      add\n        /* \"#utility.yul\":1951:1983   */\n      calldataload\n        /* \"#utility.yul\":2021:2036   */\n      dup1\n      iszero\n        /* \"#utility.yul\":2014:2037   */\n      iszero\n        /* \"#utility.yul\":2002:2038   */\n      dup2\n      eq\n        /* \"#utility.yul\":1992:2056   */\n      tag_272\n      jumpi\n        /* \"#utility.yul\":2052:2053   */\n      0x00\n        /* \"#utility.yul\":2049:2050   */\n      dup1\n        /* \"#utility.yul\":2042:2054   */\n      revert\n        /* \"#utility.yul\":1992:2056   */\n    tag_272:\n        /* \"#utility.yul\":2075:2082   */\n      dup1\n        /* \"#utility.yul\":2065:2082   */\n      swap2\n      pop\n      pop\n        /* \"#utility.yul\":1693:2088   */\n      swap3\n      pop\n      swap3\n      swap1\n      pop\n      jump\t// out\n        /* \"#utility.yul\":2093:2379   */\n    tag_45:\n        /* \"#utility.yul\":2152:2158   */\n      0x00\n        /* \"#utility.yul\":2205:2207   */\n      0x20\n        /* \"#utility.yul\":2193:2202   */\n      dup3\n        /* \"#utility.yul\":2184:2191   */\n      dup5\n        /* \"#utility.yul\":2180:2203   */\n      sub\n        /* \"#utility.yul\":2176:2208   */\n      slt\n        /* \"#utility.yul\":2173:2225   */\n      iszero\n      tag_274\n      jumpi\n        /* \"#utility.yul\":2221:2222   */\n      0x00\n        /* \"#utility.yul\":2218:2219   */\n      dup1\n        /* \"#utility.yul\":2211:2223   */\n      revert\n        /* \"#utility.yul\":2173:2225   */\n    tag_274:\n        /* \"#utility.yul\":2247:2270   */\n      dup2\n      calldataload\n      sub(shl(0xa0, 0x01), 0x01)\n        /* \"#utility.yul\":2299:2330   */\n      dup2\n      and\n        /* \"#utility.yul\":2289:2331   */\n      dup2\n      eq\n        /* \"#utility.yul\":2279:2349   */\n      tag_232\n      jumpi\n        /* \"#utility.yul\":2345:2346   */\n      0x00\n        /* \"#utility.yul\":2342:2343   */\n      dup1\n        /* \"#utility.yul\":2335:2347   */\n      revert\n        /* \"#utility.yul\":2384:2511   */\n    tag_254:\n        /* \"#utility.yul\":2445:2455   */\n      0x4e487b71\n        /* \"#utility.yul\":2440:2443   */\n      0xe0\n        /* \"#utility.yul\":2436:2456   */\n      shl\n        /* \"#utility.yul\":2433:2434   */\n      0x00\n        /* \"#utility.yul\":2426:2457   */\n      mstore\n        /* \"#utility.yul\":2476:2480   */\n      0x41\n        /* \"#utility.yul\":2473:2474   */\n      0x04\n        /* \"#utility.yul\":2466:2481   */\n      mstore\n        /* \"#utility.yul\":2500:2504   */\n      0x24\n        /* \"#utility.yul\":2497:2498   */\n      0x00\n        /* \"#utility.yul\":2490:2505   */\n      revert\n        /* \"#utility.yul\":2516:3461   */\n    tag_49:\n        /* \"#utility.yul\":2585:2591   */\n      0x00\n        /* \"#utility.yul\":2638:2640   */\n      0x20\n        /* \"#utility.yul\":2626:2635   */\n      dup3\n        /* \"#utility.yul\":2617:2624   */\n      dup5\n        /* \"#utility.yul\":2613:2636   */\n      sub\n        /* \"#utility.yul\":2609:2641   */\n      slt\n        /* \"#utility.yul\":2606:2658   */\n      iszero\n      tag_278\n      jumpi\n        /* \"#utility.yul\":2654:2655   */\n      0x00\n        /* \"#utility.yul\":2651:2652   */\n      dup1\n        /* \"#utility.yul\":2644:2656   */\n      revert\n        /* \"#utility.yul\":2606:2658   */\n    tag_278:\n        /* \"#utility.yul\":2694:2703   */\n      dup2\n        /* \"#utility.yul\":2681:2704   */\n      calldataload\n        /* \"#utility.yul\":2727:2745   */\n      0xffffffffffffffff\n        /* \"#utility.yul\":2719:2725   */\n      dup2\n        /* \"#utility.yul\":2716:2746   */\n      gt\n        /* \"#utility.yul\":2713:2763   */\n      iszero\n      tag_279\n      jumpi\n        /* \"#utility.yul\":2759:2760   */\n      0x00\n        /* \"#utility.yul\":2756:2757   */\n      dup1\n        /* \"#utility.yul\":2749:2761   */\n      revert\n        /* \"#utility.yul\":2713:2763   */\n    tag_279:\n        /* \"#utility.yul\":2782:2804   */\n      dup3\n      add\n        /* \"#utility.yul\":2835:2839   */\n      0x1f\n        /* \"#utility.yul\":2827:2840   */\n      dup2\n      add\n        /* \"#utility.yul\":2823:2850   */\n      dup5\n      sgt\n        /* \"#utility.yul\":2813:2868   */\n      tag_280\n      jumpi\n        /* \"#utility.yul\":2864:2865   */\n      0x00\n        /* \"#utility.yul\":2861:2862   */\n      dup1\n        /* \"#utility.yul\":2854:2866   */\n      revert\n        /* \"#utility.yul\":2813:2868   */\n    tag_280:\n        /* \"#utility.yul\":2904:2906   */\n      dup1\n        /* \"#utility.yul\":2891:2907   */\n      calldataload\n        /* \"#utility.yul\":2930:2948   */\n      0xffffffffffffffff\n        /* \"#utility.yul\":2922:2928   */\n      dup2\n        /* \"#utility.yul\":2919:2949   */\n      gt\n        /* \"#utility.yul\":2916:2972   */\n      iszero\n      tag_282\n      jumpi\n        /* \"#utility.yul\":2952:2970   */\n      tag_282\n      tag_254\n      jump\t// in\n    tag_282:\n        /* \"#utility.yul\":3001:3003   */\n      0x40\n        /* \"#utility.yul\":2995:3004   */\n      mload\n        /* \"#utility.yul\":3093:3095   */\n      0x1f\n        /* \"#utility.yul\":3055:3072   */\n      dup3\n      add\n      not(0x1f)\n        /* \"#utility.yul\":3051:3082   */\n      swap1\n      dup2\n      and\n        /* \"#utility.yul\":3084:3086   */\n      0x3f\n        /* \"#utility.yul\":3047:3087   */\n      add\n        /* \"#utility.yul\":3043:3097   */\n      and\n        /* \"#utility.yul\":3031:3098   */\n      dup2\n      add\n        /* \"#utility.yul\":3128:3146   */\n      0xffffffffffffffff\n        /* \"#utility.yul\":3113:3147   */\n      dup2\n      gt\n        /* \"#utility.yul\":3149:3171   */\n      dup3\n      dup3\n      lt\n        /* \"#utility.yul\":3110:3172   */\n      or\n        /* \"#utility.yul\":3107:3195   */\n      iszero\n      tag_284\n      jumpi\n        /* \"#utility.yul\":3175:3193   */\n      tag_284\n      tag_254\n      jump\t// in\n    tag_284:\n        /* \"#utility.yul\":3211:3213   */\n      0x40\n        /* \"#utility.yul\":3204:3226   */\n      mstore\n        /* \"#utility.yul\":3235:3257   */\n      dup2\n      dup2\n      mstore\n        /* \"#utility.yul\":3276:3291   */\n      dup3\n      dup3\n      add\n        /* \"#utility.yul\":3293:3295   */\n      0x20\n        /* \"#utility.yul\":3272:3296   */\n      add\n        /* \"#utility.yul\":3269:3306   */\n      dup7\n      lt\n        /* \"#utility.yul\":3266:3323   */\n      iszero\n      tag_285\n      jumpi\n        /* \"#utility.yul\":3319:3320   */\n      0x00\n        /* \"#utility.yul\":3316:3317   */\n      dup1\n        /* \"#utility.yul\":3309:3321   */\n      revert\n        /* \"#utility.yul\":3266:3323   */\n    tag_285:\n        /* \"#utility.yul\":3375:3381   */\n      dup2\n        /* \"#utility.yul\":3370:3372   */\n      0x20\n        /* \"#utility.yul\":3366:3368   */\n      dup5\n        /* \"#utility.yul\":3362:3373   */\n      add\n        /* \"#utility.yul\":3357:3359   */\n      0x20\n        /* \"#utility.yul\":3349:3355   */\n      dup4\n        /* \"#utility.yul\":3345:3360   */\n      add\n        /* \"#utility.yul\":3332:3382   */\n      calldatacopy\n        /* \"#utility.yul\":3428:3429   */\n      0x00\n        /* \"#utility.yul\":3402:3421   */\n      swap2\n      dup2\n      add\n        /* \"#utility.yul\":3423:3425   */\n      0x20\n        /* \"#utility.yul\":3398:3426   */\n      add\n        /* \"#utility.yul\":3391:3430   */\n      swap2\n      swap1\n      swap2\n      mstore\n        /* \"#utility.yul\":3406:3412   */\n      swap5\n        /* \"#utility.yul\":2516:3461   */\n      swap4\n      pop\n      pop\n      pop\n      pop\n      jump\t// out\n        /* \"#utility.yul\":4719:5099   */\n    tag_97:\n        /* \"#utility.yul\":4798:4799   */\n      0x01\n        /* \"#utility.yul\":4794:4806   */\n      dup2\n      dup2\n      shr\n      swap1\n        /* \"#utility.yul\":4841:4853   */\n      dup3\n      and\n      dup1\n        /* \"#utility.yul\":4862:4923   */\n      tag_292\n      jumpi\n        /* \"#utility.yul\":4916:4920   */\n      0x7f\n        /* \"#utility.yul\":4908:4914   */\n      dup3\n        /* \"#utility.yul\":4904:4921   */\n      and\n        /* \"#utility.yul\":4894:4921   */\n      swap2\n      pop\n        /* \"#utility.yul\":4862:4923   */\n    tag_292:\n        /* \"#utility.yul\":4969:4971   */\n      0x20\n        /* \"#utility.yul\":4961:4967   */\n      dup3\n        /* \"#utility.yul\":4958:4972   */\n      lt\n        /* \"#utility.yul\":4938:4956   */\n      dup2\n        /* \"#utility.yul\":4935:4973   */\n      sub\n        /* \"#utility.yul\":4932:5093   */\n      tag_293\n      jumpi\n        /* \"#utility.yul\":5015:5025   */\n      0x4e487b71\n        /* \"#utility.yul\":5010:5013   */\n      0xe0\n        /* \"#utility.yul\":5006:5026   */\n      shl\n        /* \"#utility.yul\":5003:5004   */\n      0x00\n        /* \"#utility.yul\":4996:5027   */\n      mstore\n        /* \"#utility.yul\":5050:5054   */\n      0x22\n        /* \"#utility.yul\":5047:5048   */\n      0x04\n        /* \"#utility.yul\":5040:5055   */\n      mstore\n        /* \"#utility.yul\":5078:5082   */\n      0x24\n        /* \"#utility.yul\":5075:5076   */\n      0x00\n        /* \"#utility.yul\":5068:5083   */\n      revert\n        /* \"#utility.yul\":4932:5093   */\n    tag_293:\n      pop\n        /* \"#utility.yul\":4719:5099   */\n      swap2\n      swap1\n      pop\n      jump\t// out\n        /* \"#utility.yul\":6158:6342   */\n    tag_124:\n        /* \"#utility.yul\":6228:6234   */\n      0x00\n        /* \"#utility.yul\":6281:6283   */\n      0x20\n        /* \"#utility.yul\":6269:6278   */\n      dup3\n        /* \"#utility.yul\":6260:6267   */\n      dup5\n        /* \"#utility.yul\":6256:6279   */\n      sub\n        /* \"#utility.yul\":6252:6284   */\n      slt\n        /* \"#utility.yul\":6249:6301   */\n      iszero\n      tag_298\n      jumpi\n        /* \"#utility.yul\":6297:6298   */\n      0x00\n        /* \"#utility.yul\":6294:6295   */\n      dup1\n        /* \"#utility.yul\":6287:6299   */\n      revert\n        /* \"#utility.yul\":6249:6301   */\n    tag_298:\n      pop\n        /* \"#utility.yul\":6320:6336   */\n      mload\n      swap2\n        /* \"#utility.yul\":6158:6342   */\n      swap1\n      pop\n      jump\t// out\n        /* \"#utility.yul\":6347:6474   */\n    tag_255:\n        /* \"#utility.yul\":6408:6418   */\n      0x4e487b71\n        /* \"#utility.yul\":6403:6406   */\n      0xe0\n        /* \"#utility.yul\":6399:6419   */\n      shl\n        /* \"#utility.yul\":6396:6397   */\n      0x00\n        /* \"#utility.yul\":6389:6420   */\n      mstore\n        /* \"#utility.yul\":6439:6443   */\n      0x11\n        /* \"#utility.yul\":6436:6437   */\n      0x04\n        /* \"#utility.yul\":6429:6444   */\n      mstore\n        /* \"#utility.yul\":6463:6467   */\n      0x24\n        /* \"#utility.yul\":6460:6461   */\n      0x00\n        /* \"#utility.yul\":6453:6468   */\n      revert\n        /* \"#utility.yul\":6479:6647   */\n    tag_126:\n        /* \"#utility.yul\":6552:6561   */\n      dup1\n      dup3\n      mul\n        /* \"#utility.yul\":6583:6592   */\n      dup2\n      iszero\n        /* \"#utility.yul\":6600:6615   */\n      dup3\n      dup3\n      div\n        /* \"#utility.yul\":6594:6616   */\n      dup5\n      eq\n        /* \"#utility.yul\":6580:6617   */\n      or\n        /* \"#utility.yul\":6570:6641   */\n      tag_302\n      jumpi\n        /* \"#utility.yul\":6621:6639   */\n      tag_302\n      tag_255\n      jump\t// in\n    tag_302:\n        /* \"#utility.yul\":6479:6647   */\n      swap3\n      swap2\n      pop\n      pop\n      jump\t// out\n        /* \"#utility.yul\":6652:6869   */\n    tag_128:\n        /* \"#utility.yul\":6692:6693   */\n      0x00\n        /* \"#utility.yul\":6718:6719   */\n      dup3\n        /* \"#utility.yul\":6708:6840   */\n      tag_304\n      jumpi\n        /* \"#utility.yul\":6762:6772   */\n      0x4e487b71\n        /* \"#utility.yul\":6757:6760   */\n      0xe0\n        /* \"#utility.yul\":6753:6773   */\n      shl\n        /* \"#utility.yul\":6750:6751   */\n      0x00\n        /* \"#utility.yul\":6743:6774   */\n      mstore\n        /* \"#utility.yul\":6797:6801   */\n      0x12\n        /* \"#utility.yul\":6794:6795   */\n      0x04\n        /* \"#utility.yul\":6787:6802   */\n      mstore\n        /* \"#utility.yul\":6825:6829   */\n      0x24\n        /* \"#utility.yul\":6822:6823   */\n      0x00\n        /* \"#utility.yul\":6815:6830   */\n      revert\n        /* \"#utility.yul\":6708:6840   */\n    tag_304:\n      pop\n        /* \"#utility.yul\":6854:6863   */\n      div\n      swap1\n        /* \"#utility.yul\":6652:6869   */\n      jump\t// out\n        /* \"#utility.yul\":6874:6999   */\n    tag_130:\n        /* \"#utility.yul\":6939:6948   */\n      dup1\n      dup3\n      add\n        /* \"#utility.yul\":6960:6970   */\n      dup1\n      dup3\n      gt\n        /* \"#utility.yul\":6957:6993   */\n      iszero\n      tag_302\n      jumpi\n        /* \"#utility.yul\":6973:6991   */\n      tag_302\n      tag_255\n      jump\t// in\n        /* \"#utility.yul\":9698:9833   */\n    tag_188:\n        /* \"#utility.yul\":9737:9740   */\n      0x00\n        /* \"#utility.yul\":9758:9775   */\n      0x01\n      dup3\n      add\n        /* \"#utility.yul\":9755:9798   */\n      tag_318\n      jumpi\n        /* \"#utility.yul\":9778:9796   */\n      tag_318\n      tag_255\n      jump\t// in\n    tag_318:\n      pop\n        /* \"#utility.yul\":9825:9826   */\n      0x01\n        /* \"#utility.yul\":9814:9827   */\n      add\n      swap1\n        /* \"#utility.yul\":9698:9833   */\n      jump\t// out\n        /* \"#utility.yul\":9964:10482   */\n    tag_257:\n        /* \"#utility.yul\":10066:10068   */\n      0x1f\n        /* \"#utility.yul\":10061:10064   */\n      dup3\n        /* \"#utility.yul\":10058:10069   */\n      gt\n        /* \"#utility.yul\":10055:10476   */\n      iszero\n      tag_321\n      jumpi\n        /* \"#utility.yul\":10102:10107   */\n      dup1\n        /* \"#utility.yul\":10099:10100   */\n      0x00\n        /* \"#utility.yul\":10092:10108   */\n      mstore\n        /* \"#utility.yul\":10146:10150   */\n      0x20\n        /* \"#utility.yul\":10143:10144   */\n      0x00\n        /* \"#utility.yul\":10133:10151   */\n      keccak256\n        /* \"#utility.yul\":10216:10218   */\n      0x1f\n        /* \"#utility.yul\":10204:10214   */\n      dup5\n        /* \"#utility.yul\":10200:10219   */\n      add\n        /* \"#utility.yul\":10197:10198   */\n      0x05\n        /* \"#utility.yul\":10193:10220   */\n      shr\n        /* \"#utility.yul\":10187:10191   */\n      dup2\n        /* \"#utility.yul\":10183:10221   */\n      add\n        /* \"#utility.yul\":10252:10256   */\n      0x20\n        /* \"#utility.yul\":10240:10250   */\n      dup6\n        /* \"#utility.yul\":10237:10257   */\n      lt\n        /* \"#utility.yul\":10234:10281   */\n      iszero\n      tag_322\n      jumpi\n      pop\n        /* \"#utility.yul\":10275:10279   */\n      dup1\n        /* \"#utility.yul\":10234:10281   */\n    tag_322:\n        /* \"#utility.yul\":10330:10332   */\n      0x1f\n        /* \"#utility.yul\":10325:10328   */\n      dup5\n        /* \"#utility.yul\":10321:10333   */\n      add\n        /* \"#utility.yul\":10318:10319   */\n      0x05\n        /* \"#utility.yul\":10314:10334   */\n      shr\n        /* \"#utility.yul\":10308:10312   */\n      dup3\n        /* \"#utility.yul\":10304:10335   */\n      add\n        /* \"#utility.yul\":10294:10335   */\n      swap2\n      pop\n        /* \"#utility.yul\":10385:10466   */\n    tag_323:\n        /* \"#utility.yul\":10403:10405   */\n      dup2\n        /* \"#utility.yul\":10396:10401   */\n      dup2\n        /* \"#utility.yul\":10393:10406   */\n      lt\n        /* \"#utility.yul\":10385:10466   */\n      iszero\n      tag_325\n      jumpi\n        /* \"#utility.yul\":10462:10463   */\n      0x00\n        /* \"#utility.yul\":10448:10464   */\n      dup2\n      sstore\n        /* \"#utility.yul\":10429:10430   */\n      0x01\n        /* \"#utility.yul\":10418:10431   */\n      add\n        /* \"#utility.yul\":10385:10466   */\n      jump(tag_323)\n    tag_325:\n        /* \"#utility.yul\":10389:10392   */\n      pop\n      pop\n        /* \"#utility.yul\":10055:10476   */\n    tag_321:\n        /* \"#utility.yul\":9964:10482   */\n      pop\n      pop\n      pop\n      jump\t// out\n        /* \"#utility.yul\":10658:11957   */\n    tag_190:\n        /* \"#utility.yul\":10784:10787   */\n      dup2\n        /* \"#utility.yul\":10778:10788   */\n      mload\n        /* \"#utility.yul\":10811:10829   */\n      0xffffffffffffffff\n        /* \"#utility.yul\":10803:10809   */\n      dup2\n        /* \"#utility.yul\":10800:10830   */\n      gt\n        /* \"#utility.yul\":10797:10853   */\n      iszero\n      tag_329\n      jumpi\n        /* \"#utility.yul\":10833:10851   */\n      tag_329\n      tag_254\n      jump\t// in\n    tag_329:\n        /* \"#utility.yul\":10862:10959   */\n      tag_330\n        /* \"#utility.yul\":10952:10958   */\n      dup2\n        /* \"#utility.yul\":10912:10950   */\n      tag_331\n        /* \"#utility.yul\":10944:10948   */\n      dup5\n        /* \"#utility.yul\":10938:10949   */\n      sload\n        /* \"#utility.yul\":10912:10950   */\n      tag_97\n      jump\t// in\n    tag_331:\n        /* \"#utility.yul\":10906:10910   */\n      dup5\n        /* \"#utility.yul\":10862:10959   */\n      tag_257\n      jump\t// in\n    tag_330:\n        /* \"#utility.yul\":11008:11012   */\n      0x20\n        /* \"#utility.yul\":11039:11041   */\n      0x1f\n        /* \"#utility.yul\":11028:11042   */\n      dup3\n      gt\n        /* \"#utility.yul\":11056:11057   */\n      0x01\n        /* \"#utility.yul\":11051:11700   */\n      dup2\n      eq\n      tag_333\n      jumpi\n        /* \"#utility.yul\":11744:11745   */\n      0x00\n        /* \"#utility.yul\":11761:11767   */\n      dup4\n        /* \"#utility.yul\":11758:11847   */\n      iszero\n      tag_334\n      jumpi\n      pop\n        /* \"#utility.yul\":11813:11832   */\n      dup5\n      dup3\n      add\n        /* \"#utility.yul\":11807:11833   */\n      mload\n        /* \"#utility.yul\":11758:11847   */\n    tag_334:\n      not(0x00)\n        /* \"#utility.yul\":10615:10616   */\n      0x03\n        /* \"#utility.yul\":10611:10622   */\n      dup6\n      swap1\n      shl\n        /* \"#utility.yul\":10607:10631   */\n      shr\n        /* \"#utility.yul\":10603:10632   */\n      not\n        /* \"#utility.yul\":10593:10633   */\n      and\n        /* \"#utility.yul\":10639:10640   */\n      0x01\n        /* \"#utility.yul\":10635:10646   */\n      dup5\n      swap1\n      shl\n        /* \"#utility.yul\":10590:10647   */\n      or\n        /* \"#utility.yul\":11860:11941   */\n      dup5\n      sstore\n        /* \"#utility.yul\":11021:11951   */\n      jump(tag_325)\n        /* \"#utility.yul\":11051:11700   */\n    tag_333:\n        /* \"#utility.yul\":9911:9912   */\n      0x00\n        /* \"#utility.yul\":9904:9918   */\n      dup5\n      dup2\n      mstore\n        /* \"#utility.yul\":9948:9952   */\n      0x20\n        /* \"#utility.yul\":9935:9953   */\n      dup2\n      keccak256\n      not(0x1f)\n        /* \"#utility.yul\":11087:11107   */\n      dup6\n      and\n      swap2\n        /* \"#utility.yul\":11205:11427   */\n    tag_337:\n        /* \"#utility.yul\":11219:11226   */\n      dup3\n        /* \"#utility.yul\":11216:11217   */\n      dup2\n        /* \"#utility.yul\":11213:11227   */\n      lt\n        /* \"#utility.yul\":11205:11427   */\n      iszero\n      tag_339\n      jumpi\n        /* \"#utility.yul\":11301:11320   */\n      dup8\n      dup6\n      add\n        /* \"#utility.yul\":11295:11321   */\n      mload\n        /* \"#utility.yul\":11280:11322   */\n      dup3\n      sstore\n        /* \"#utility.yul\":11408:11412   */\n      0x20\n        /* \"#utility.yul\":11393:11413   */\n      swap5\n      dup6\n      add\n      swap5\n        /* \"#utility.yul\":11361:11362   */\n      0x01\n        /* \"#utility.yul\":11349:11363   */\n      swap1\n      swap3\n      add\n      swap2\n        /* \"#utility.yul\":11235:11247   */\n      add\n        /* \"#utility.yul\":11205:11427   */\n      jump(tag_337)\n    tag_339:\n        /* \"#utility.yul\":11209:11212   */\n      pop\n        /* \"#utility.yul\":11455:11461   */\n      dup5\n        /* \"#utility.yul\":11446:11453   */\n      dup3\n        /* \"#utility.yul\":11443:11462   */\n      lt\n        /* \"#utility.yul\":11440:11641   */\n      iszero\n      tag_340\n      jumpi\n        /* \"#utility.yul\":11516:11535   */\n      dup7\n      dup5\n      add\n        /* \"#utility.yul\":11510:11536   */\n      mload\n      not(0x00)\n        /* \"#utility.yul\":11599:11600   */\n      0x03\n        /* \"#utility.yul\":11595:11609   */\n      dup8\n      swap1\n      shl\n        /* \"#utility.yul\":11611:11614   */\n      0xf8\n        /* \"#utility.yul\":11591:11615   */\n      and\n        /* \"#utility.yul\":11587:11624   */\n      shr\n        /* \"#utility.yul\":11583:11625   */\n      not\n        /* \"#utility.yul\":11568:11626   */\n      and\n        /* \"#utility.yul\":11553:11627   */\n      dup2\n      sstore\n        /* \"#utility.yul\":11440:11641   */\n    tag_340:\n      pop\n      pop\n      pop\n      pop\n        /* \"#utility.yul\":11687:11688   */\n      0x01\n        /* \"#utility.yul\":11671:11685   */\n      swap1\n      dup2\n      shl\n        /* \"#utility.yul\":11667:11689   */\n      add\n        /* \"#utility.yul\":11654:11690   */\n      swap1\n      sstore\n      pop\n        /* \"#utility.yul\":10658:11957   */\n      jump\t// out\n        /* \"#utility.yul\":11962:12182   */\n    tag_193:\n        /* \"#utility.yul\":12111:12113   */\n      0x20\n        /* \"#utility.yul\":12100:12109   */\n      dup2\n        /* \"#utility.yul\":12093:12114   */\n      mstore\n        /* \"#utility.yul\":12074:12078   */\n      0x00\n        /* \"#utility.yul\":12131:12176   */\n      tag_232\n        /* \"#utility.yul\":12172:12174   */\n      0x20\n        /* \"#utility.yul\":12161:12170   */\n      dup4\n        /* \"#utility.yul\":12157:12175   */\n      add\n        /* \"#utility.yul\":12149:12155   */\n      dup5\n        /* \"#utility.yul\":12131:12176   */\n      tag_253\n      jump\t// in\n        /* \"#utility.yul\":12187:12315   */\n    tag_225:\n        /* \"#utility.yul\":12254:12263   */\n      dup2\n      dup2\n      sub\n        /* \"#utility.yul\":12275:12286   */\n      dup2\n      dup2\n      gt\n        /* \"#utility.yul\":12272:12309   */\n      iszero\n      tag_302\n      jumpi\n        /* \"#utility.yul\":12289:12307   */\n      tag_302\n      tag_255\n      jump\t// in\n\n    auxdata: 0xa264697066735822122019e99d6334c9dedc4e97dd6790fdd4ea37dcc81bade22addab66a47abfff133b64736f6c634300081c0033\n}\n",
				"bytecode": {
					"linkReferences": {},
					"object": "608060405234801561001057600080fd5b5060405161164b38038061164b83398101604081905261002f916101b3565b806001600160a01b03811661005f57604051631e4fbdf760e01b8152600060048201526024015b60405180910390fd5b61006881610147565b506001600160a01b0383166100bf5760405162461bcd60e51b815260206004820152601560248201527f496e76616c696420746f6b656e206164647265737300000000000000000000006044820152606401610056565b6001600160a01b0382166101155760405162461bcd60e51b815260206004820152601660248201527f496e76616c6964206f7261636c652061646472657373000000000000000000006044820152606401610056565b50600180546001600160a01b039384166001600160a01b031991821617909155600280549290931691161790556101f6565b600080546001600160a01b038381166001600160a01b0319831681178455604051919092169283917f8be0079c531659141344cd1fd0a4f28419497f9722a3daafe3b4186f6b6457e09190a35050565b80516001600160a01b03811681146101ae57600080fd5b919050565b6000806000606084860312156101c857600080fd5b6101d184610197565b92506101df60208501610197565b91506101ed60408501610197565b90509250925092565b611446806102056000396000f3fe608060405234801561001057600080fd5b50600436106101215760003560e01c80638da5cb5b116100ad578063b8fda67011610071578063b8fda67014610251578063da35c664146102a6578063ecd04582146102af578063ee8a7c15146102b7578063f2fde38b146102bf57600080fd5b80638da5cb5b146101f457806393565b4c146102195780639690c50b1461022c578063b1610d7e14610234578063b5519fec1461023e57600080fd5b80631cb44dfc116100f45780631cb44dfc1461019f57806349c2a1a6146101b25780636ae728d8146101c5578063715018a6146101db5780638c61ec16146101e357600080fd5b8063013cf08b146101265780630a494840146101515780630d61b519146101775780631614665c1461018c575b600080fd5b61013961013436600461100e565b6102d2565b6040516101489392919061106d565b60405180910390f35b61016461015f36600461100e565b610396565b6040516101489796959493929190611098565b61018a61018536600461100e565b61045e565b005b61018a61019a3660046110db565b6106ee565b61018a6101ad366004611110565b6109fa565b61018a6101c036600461114f565b610a73565b6101cd600581565b604051908152602001610148565b61018a610bd5565b6101cd69d3c21bcecceda100000081565b6000546001600160a01b03165b6040516001600160a01b039091168152602001610148565b600154610201906001600160a01b031681565b6101cd601481565b6101cd62093a8081565b600254610201906001600160a01b031681565b61028661025f366004611110565b60046020526000908152604090208054600182015460028301546003909301549192909184565b604080519485526020850193909352918301526060820152608001610148565b6101cd60055481565b6101cd601e81565b6101cd600a81565b61018a6102cd366004611110565b610be9565b6000818152600360205260408120805460028201546001830180546060948694909390929160ff90911690829061030890611208565b80601f016020809104026020016040519081016040528092919081815260200182805461033490611208565b80156103815780601f1061035657610100808354040283529160200191610381565b820191906000526020600020905b81548152906001019060200180831161036457829003601f168201915b50505050509150935093509350509193909250565b600360205260009081526040902080546001820180549192916103b890611208565b80601f01602080910402602001604051908101604052809291908181526020018280546103e490611208565b80156104315780601f1061040657610100808354040283529160200191610431565b820191906000526020600020905b81548152906001019060200180831161041457829003601f168201915b5050506002840154600385015460048601546005870154600690970154959660ff90931695919450925087565b610466610c27565b60008111801561047857506005548111155b6104bf5760405162461bcd60e51b8152602060048201526013602482015272125b9d985b1a59081c1c9bdc1bdcd85b081251606a1b60448201526064015b60405180910390fd5b6000818152600360205260409020600481015442116105205760405162461bcd60e51b815260206004820152601760248201527f566f74696e6720706572696f64206e6f7420656e64656400000000000000000060448201526064016104b6565b600281015460ff16156105755760405162461bcd60e51b815260206004820152601960248201527f50726f706f73616c20616c72656164792065786563757465640000000000000060448201526064016104b6565b60006064600a600160009054906101000a90046001600160a01b03166001600160a01b0316634a0ced966040518163ffffffff1660e01b8152600401602060405180830381865afa1580156105ce573d6000803e3d6000fd5b505050506040513d601f19601f820116820180604052508101906105f29190611242565b6105fc9190611271565b610606919061128e565b9050808260060154836005015461061d91906112b0565b10156106605760405162461bcd60e51b8152602060048201526012602482015271145d5bdc9d5b481b9bdd081c995858da195960721b60448201526064016104b6565b81600601548260050154116106af5760405162461bcd60e51b8152602060048201526015602482015274141c9bdc1bdcd85b081b9bdd08185c1c1c9bdd9959605a1b60448201526064016104b6565b60028201805460ff1916600117905560405183907f712ae1383f79ac853f8d882153778e0260ef8f03b504e2866e0593e04d2b291f90600090a2505050565b60008211801561070057506005548211155b6107425760405162461bcd60e51b8152602060048201526013602482015272125b9d985b1a59081c1c9bdc1bdcd85b081251606a1b60448201526064016104b6565b600082815260036020819052604090912090810154421080159061076a575080600401544211155b6107ad5760405162461bcd60e51b8152602060048201526014602482015273159bdd1a5b99c81c195c9a5bd90818db1bdcd95960621b60448201526064016104b6565b33600090815260078201602052604090205460ff16156107ff5760405162461bcd60e51b815260206004820152600d60248201526c105b1c9958591e481d9bdd1959609a1b60448201526064016104b6565b336000818152600460208190526040808320600154915163157a22c960e11b8152928301949094526001600160a01b031690632af4459290602401602060405180830381865afa158015610857573d6000803e3d6000fd5b505050506040513d601f19601f8201168201806040525081019061087b9190611242565b9050600081116108bd5760405162461bcd60e51b815260206004820152600d60248201526c4e6f206c6f636b65642051344160981b60448201526064016104b6565b6108c633610c54565b600060648360030154836108da9190611271565b6108e4919061128e565b6108ee90836112b0565b905060006108fd873388610e0a565b905061090981836112b0565b3360009081526007870160205260409020805460ff191660011790559150851561094c578185600501600082825461094191906112b0565b909155506109669050565b8185600601600082825461096091906112b0565b90915550505b86337f2c9deb38f462962eadbd85a9d3a4120503ee091f1582eaaa10aa8c6797651d2988610995576000610998565b60015b6040805160ff9092168252602082018790520160405180910390a380156109f157604051818152339088907fe95559e9b7c2df54acbffab56c67bc5bdcb3bc229c747a9b3f47765b84ba31809060200160405180910390a35b50505050505050565b610a02610c27565b6001600160a01b038116610a515760405162461bcd60e51b8152602060048201526016602482015275496e76616c6964206f7261636c65206164647265737360501b60448201526064016104b6565b600280546001600160a01b0319166001600160a01b0392909216919091179055565b6001546040516370a0823160e01b815233600482015269d3c21bcecceda1000000916001600160a01b0316906370a0823190602401602060405180830381865afa158015610ac5573d6000803e3d6000fd5b505050506040513d601f19601f82011682018060405250810190610ae99190611242565b1015610b375760405162461bcd60e51b815260206004820152601860248201527f496e73756666696369656e74205134412062616c616e6365000000000000000060448201526064016104b6565b60058054906000610b47836112c3565b9091555050600554600081815260036020526040902090815560018101610b6e838261132b565b5060028101805460ff191690554260038201819055610b919062093a80906112b0565b60048201556005546040517f9c770c289ab5bf7e57cb1d23c8ceae993aea46eb64847072fd3d78ca60d3e43290610bc99085906113ea565b60405180910390a25050565b610bdd610c27565b610be76000610fbe565b565b610bf1610c27565b6001600160a01b038116610c1b57604051631e4fbdf760e01b8152600060048201526024016104b6565b610c2481610fbe565b50565b6000546001600160a01b03163314610be75760405163118cdaa760e01b81523360048201526024016104b6565b6001600160a01b03818116600081815260046020819052604091829020600154925163157a22c960e11b81529182019390935291921690632af4459290602401602060405180830381865afa158015610cb1573d6000803e3d6000fd5b505050506040513d601f19601f82011682018060405250810190610cd59190611242565b8155600181018054906000610ce9836112c3565b90915550504260028281019190915554604051631d699f5760e21b81526001600160a01b03848116600483015260009216906375a67d5c90602401602060405180830381865afa158015610d41573d6000803e3d6000fd5b505050506040513d601f19601f82011682018060405250810190610d659190611242565b90506005826001015410158015610d8d575062278d00826002015442610d8b91906113fd565b105b15610dad5760148111610da05780610da3565b60145b6003830155610dbe565b610db860028261128e565b60038301555b826001600160a01b03167ffc577563f1b9a0461e24abef1e1fcc0d33d3d881f20b5df6dda59de4aae2c8218360030154604051610dfd91815260200190565b60405180910390a2505050565b60008381526003602090815260408083206001600160a01b038616845260088101909252822080548303610e645780546001810182556000828152602090200180546001600160a01b0319166001600160a01b0387161790555b6002546040516353d2262b60e01b81526001600160a01b0387811660048301526024820189905260009216906353d2262b90604401602060405180830381865afa158015610eb6573d6000803e3d6000fd5b505050506040513d601f19601f82011682018060405250810190610eda9190611242565b9050848015610ee95750600081115b15610faf5760648111610efc5780610eff565b60645b6001838101919091555460405163157a22c960e11b81526001600160a01b0388811660048301526000921690632af4459290602401602060405180830381865afa158015610f51573d6000803e3d6000fd5b505050506040513d601f19601f82011682018060405250810190610f759190611242565b90506000612710601e856001015484610f8e9190611271565b610f989190611271565b610fa2919061128e565b9550610fb7945050505050565b600093505050505b9392505050565b600080546001600160a01b038381166001600160a01b0319831681178455604051919092169283917f8be0079c531659141344cd1fd0a4f28419497f9722a3daafe3b4186f6b6457e09190a35050565b60006020828403121561102057600080fd5b5035919050565b6000815180845260005b8181101561104d57602081850181015186830182015201611031565b506000602082860101526020601f19601f83011685010191505092915050565b8381526060602082015260006110866060830185611027565b90508215156040830152949350505050565b87815260e0602082015260006110b160e0830189611027565b9615156040830152506060810194909452608084019290925260a083015260c09091015292915050565b600080604083850312156110ee57600080fd5b823591506020830135801515811461110557600080fd5b809150509250929050565b60006020828403121561112257600080fd5b81356001600160a01b0381168114610fb757600080fd5b634e487b7160e01b600052604160045260246000fd5b60006020828403121561116157600080fd5b813567ffffffffffffffff81111561117857600080fd5b8201601f8101841361118957600080fd5b803567ffffffffffffffff8111156111a3576111a3611139565b604051601f8201601f19908116603f0116810167ffffffffffffffff811182821017156111d2576111d2611139565b6040528181528282016020018610156111ea57600080fd5b81602084016020830137600091810160200191909152949350505050565b600181811c9082168061121c57607f821691505b60208210810361123c57634e487b7160e01b600052602260045260246000fd5b50919050565b60006020828403121561125457600080fd5b5051919050565b634e487b7160e01b600052601160045260246000fd5b80820281158282048414176112885761128861125b565b92915050565b6000826112ab57634e487b7160e01b600052601260045260246000fd5b500490565b808201808211156112885761128861125b565b6000600182016112d5576112d561125b565b5060010190565b601f82111561132657806000526020600020601f840160051c810160208510156113035750805b601f840160051c820191505b81811015611323576000815560010161130f565b50505b505050565b815167ffffffffffffffff81111561134557611345611139565b611359816113538454611208565b846112dc565b6020601f82116001811461138d57600083156113755750848201515b600019600385901b1c1916600184901b178455611323565b600084815260208120601f198516915b828110156113bd578785015182556020948501946001909201910161139d565b50848210156113db5786840151600019600387901b60f8161c191681555b50505050600190811b01905550565b602081526000610fb76020830184611027565b818103818111156112885761128861125b56fea264697066735822122019e99d6334c9dedc4e97dd6790fdd4ea37dcc81bade22addab66a47abfff133b64736f6c634300081c0033",
					"opcodes": "PUSH1 0x80 PUSH1 0x40 MSTORE CALLVALUE DUP1 ISZERO PUSH2 0x10 JUMPI PUSH1 0x0 DUP1 REVERT JUMPDEST POP PUSH1 0x40 MLOAD PUSH2 0x164B CODESIZE SUB DUP1 PUSH2 0x164B DUP4 CODECOPY DUP2 ADD PUSH1 0x40 DUP2 SWAP1 MSTORE PUSH2 0x2F SWAP2 PUSH2 0x1B3 JUMP JUMPDEST DUP1 PUSH1 0x1 PUSH1 0x1 PUSH1 0xA0 SHL SUB DUP2 AND PUSH2 0x5F JUMPI PUSH1 0x40 MLOAD PUSH4 0x1E4FBDF7 PUSH1 0xE0 SHL DUP2 MSTORE PUSH1 0x0 PUSH1 0x4 DUP3 ADD MSTORE PUSH1 0x24 ADD JUMPDEST PUSH1 0x40 MLOAD DUP1 SWAP2 SUB SWAP1 REVERT JUMPDEST PUSH2 0x68 DUP2 PUSH2 0x147 JUMP JUMPDEST POP PUSH1 0x1 PUSH1 0x1 PUSH1 0xA0 SHL SUB DUP4 AND PUSH2 0xBF JUMPI PUSH1 0x40 MLOAD PUSH3 0x461BCD PUSH1 0xE5 SHL DUP2 MSTORE PUSH1 0x20 PUSH1 0x4 DUP3 ADD MSTORE PUSH1 0x15 PUSH1 0x24 DUP3 ADD MSTORE PUSH32 0x496E76616C696420746F6B656E20616464726573730000000000000000000000 PUSH1 0x44 DUP3 ADD MSTORE PUSH1 0x64 ADD PUSH2 0x56 JUMP JUMPDEST PUSH1 0x1 PUSH1 0x1 PUSH1 0xA0 SHL SUB DUP3 AND PUSH2 0x115 JUMPI PUSH1 0x40 MLOAD PUSH3 0x461BCD PUSH1 0xE5 SHL DUP2 MSTORE PUSH1 0x20 PUSH1 0x4 DUP3 ADD MSTORE PUSH1 0x16 PUSH1 0x24 DUP3 ADD MSTORE PUSH32 0x496E76616C6964206F7261636C65206164647265737300000000000000000000 PUSH1 0x44 DUP3 ADD MSTORE PUSH1 0x64 ADD PUSH2 0x56 JUMP JUMPDEST POP PUSH1 0x1 DUP1 SLOAD PUSH1 0x1 PUSH1 0x1 PUSH1 0xA0 SHL SUB SWAP4 DUP5 AND PUSH1 0x1 PUSH1 0x1 PUSH1 0xA0 SHL SUB NOT SWAP2 DUP3 AND OR SWAP1 SWAP2 SSTORE PUSH1 0x2 DUP1 SLOAD SWAP3 SWAP1 SWAP4 AND SWAP2 AND OR SWAP1 SSTORE PUSH2 0x1F6 JUMP JUMPDEST PUSH1 0x0 DUP1 SLOAD PUSH1 0x1 PUSH1 0x1 PUSH1 0xA0 SHL SUB DUP4 DUP2 AND PUSH1 0x1 PUSH1 0x1 PUSH1 0xA0 SHL SUB NOT DUP4 AND DUP2 OR DUP5 SSTORE PUSH1 0x40 MLOAD SWAP2 SWAP1 SWAP3 AND SWAP3 DUP4 SWAP2 PUSH32 0x8BE0079C531659141344CD1FD0A4F28419497F9722A3DAAFE3B4186F6B6457E0 SWAP2 SWAP1 LOG3 POP POP JUMP JUMPDEST DUP1 MLOAD PUSH1 0x1 PUSH1 0x1 PUSH1 0xA0 SHL SUB DUP2 AND DUP2 EQ PUSH2 0x1AE JUMPI PUSH1 0x0 DUP1 REVERT JUMPDEST SWAP2 SWAP1 POP JUMP JUMPDEST PUSH1 0x0 DUP1 PUSH1 0x0 PUSH1 0x60 DUP5 DUP7 SUB SLT ISZERO PUSH2 0x1C8 JUMPI PUSH1 0x0 DUP1 REVERT JUMPDEST PUSH2 0x1D1 DUP5 PUSH2 0x197 JUMP JUMPDEST SWAP3 POP PUSH2 0x1DF PUSH1 0x20 DUP6 ADD PUSH2 0x197 JUMP JUMPDEST SWAP2 POP PUSH2 0x1ED PUSH1 0x40 DUP6 ADD PUSH2 0x197 JUMP JUMPDEST SWAP1 POP SWAP3 POP SWAP3 POP SWAP3 JUMP JUMPDEST PUSH2 0x1446 DUP1 PUSH2 0x205 PUSH1 0x0 CODECOPY PUSH1 0x0 RETURN INVALID PUSH1 0x80 PUSH1 0x40 MSTORE CALLVALUE DUP1 ISZERO PUSH2 0x10 JUMPI PUSH1 0x0 DUP1 REVERT JUMPDEST POP PUSH1 0x4 CALLDATASIZE LT PUSH2 0x121 JUMPI PUSH1 0x0 CALLDATALOAD PUSH1 0xE0 SHR DUP1 PUSH4 0x8DA5CB5B GT PUSH2 0xAD JUMPI DUP1 PUSH4 0xB8FDA670 GT PUSH2 0x71 JUMPI DUP1 PUSH4 0xB8FDA670 EQ PUSH2 0x251 JUMPI DUP1 PUSH4 0xDA35C664 EQ PUSH2 0x2A6 JUMPI DUP1 PUSH4 0xECD04582 EQ PUSH2 0x2AF JUMPI DUP1 PUSH4 0xEE8A7C15 EQ PUSH2 0x2B7 JUMPI DUP1 PUSH4 0xF2FDE38B EQ PUSH2 0x2BF JUMPI PUSH1 0x0 DUP1 REVERT JUMPDEST DUP1 PUSH4 0x8DA5CB5B EQ PUSH2 0x1F4 JUMPI DUP1 PUSH4 0x93565B4C EQ PUSH2 0x219 JUMPI DUP1 PUSH4 0x9690C50B EQ PUSH2 0x22C JUMPI DUP1 PUSH4 0xB1610D7E EQ PUSH2 0x234 JUMPI DUP1 PUSH4 0xB5519FEC EQ PUSH2 0x23E JUMPI PUSH1 0x0 DUP1 REVERT JUMPDEST DUP1 PUSH4 0x1CB44DFC GT PUSH2 0xF4 JUMPI DUP1 PUSH4 0x1CB44DFC EQ PUSH2 0x19F JUMPI DUP1 PUSH4 0x49C2A1A6 EQ PUSH2 0x1B2 JUMPI DUP1 PUSH4 0x6AE728D8 EQ PUSH2 0x1C5 JUMPI DUP1 PUSH4 0x715018A6 EQ PUSH2 0x1DB JUMPI DUP1 PUSH4 0x8C61EC16 EQ PUSH2 0x1E3 JUMPI PUSH1 0x0 DUP1 REVERT JUMPDEST DUP1 PUSH4 0x13CF08B EQ PUSH2 0x126 JUMPI DUP1 PUSH4 0xA494840 EQ PUSH2 0x151 JUMPI DUP1 PUSH4 0xD61B519 EQ PUSH2 0x177 JUMPI DUP1 PUSH4 0x1614665C EQ PUSH2 0x18C JUMPI JUMPDEST PUSH1 0x0 DUP1 REVERT JUMPDEST PUSH2 0x139 PUSH2 0x134 CALLDATASIZE PUSH1 0x4 PUSH2 0x100E JUMP JUMPDEST PUSH2 0x2D2 JUMP JUMPDEST PUSH1 0x40 MLOAD PUSH2 0x148 SWAP4 SWAP3 SWAP2 SWAP1 PUSH2 0x106D JUMP JUMPDEST PUSH1 0x40 MLOAD DUP1 SWAP2 SUB SWAP1 RETURN JUMPDEST PUSH2 0x164 PUSH2 0x15F CALLDATASIZE PUSH1 0x4 PUSH2 0x100E JUMP JUMPDEST PUSH2 0x396 JUMP JUMPDEST PUSH1 0x40 MLOAD PUSH2 0x148 SWAP8 SWAP7 SWAP6 SWAP5 SWAP4 SWAP3 SWAP2 SWAP1 PUSH2 0x1098 JUMP JUMPDEST PUSH2 0x18A PUSH2 0x185 CALLDATASIZE PUSH1 0x4 PUSH2 0x100E JUMP JUMPDEST PUSH2 0x45E JUMP JUMPDEST STOP JUMPDEST PUSH2 0x18A PUSH2 0x19A CALLDATASIZE PUSH1 0x4 PUSH2 0x10DB JUMP JUMPDEST PUSH2 0x6EE JUMP JUMPDEST PUSH2 0x18A PUSH2 0x1AD CALLDATASIZE PUSH1 0x4 PUSH2 0x1110 JUMP JUMPDEST PUSH2 0x9FA JUMP JUMPDEST PUSH2 0x18A PUSH2 0x1C0 CALLDATASIZE PUSH1 0x4 PUSH2 0x114F JUMP JUMPDEST PUSH2 0xA73 JUMP JUMPDEST PUSH2 0x1CD PUSH1 0x5 DUP2 JUMP JUMPDEST PUSH1 0x40 MLOAD SWAP1 DUP2 MSTORE PUSH1 0x20 ADD PUSH2 0x148 JUMP JUMPDEST PUSH2 0x18A PUSH2 0xBD5 JUMP JUMPDEST PUSH2 0x1CD PUSH10 0xD3C21BCECCEDA1000000 DUP2 JUMP JUMPDEST PUSH1 0x0 SLOAD PUSH1 0x1 PUSH1 0x1 PUSH1 0xA0 SHL SUB AND JUMPDEST PUSH1 0x40 MLOAD PUSH1 0x1 PUSH1 0x1 PUSH1 0xA0 SHL SUB SWAP1 SWAP2 AND DUP2 MSTORE PUSH1 0x20 ADD PUSH2 0x148 JUMP JUMPDEST PUSH1 0x1 SLOAD PUSH2 0x201 SWAP1 PUSH1 0x1 PUSH1 0x1 PUSH1 0xA0 SHL SUB AND DUP2 JUMP JUMPDEST PUSH2 0x1CD PUSH1 0x14 DUP2 JUMP JUMPDEST PUSH2 0x1CD PUSH3 0x93A80 DUP2 JUMP JUMPDEST PUSH1 0x2 SLOAD PUSH2 0x201 SWAP1 PUSH1 0x1 PUSH1 0x1 PUSH1 0xA0 SHL SUB AND DUP2 JUMP JUMPDEST PUSH2 0x286 PUSH2 0x25F CALLDATASIZE PUSH1 0x4 PUSH2 0x1110 JUMP JUMPDEST PUSH1 0x4 PUSH1 0x20 MSTORE PUSH1 0x0 SWAP1 DUP2 MSTORE PUSH1 0x40 SWAP1 KECCAK256 DUP1 SLOAD PUSH1 0x1 DUP3 ADD SLOAD PUSH1 0x2 DUP4 ADD SLOAD PUSH1 0x3 SWAP1 SWAP4 ADD SLOAD SWAP2 SWAP3 SWAP1 SWAP2 DUP5 JUMP JUMPDEST PUSH1 0x40 DUP1 MLOAD SWAP5 DUP6 MSTORE PUSH1 0x20 DUP6 ADD SWAP4 SWAP1 SWAP4 MSTORE SWAP2 DUP4 ADD MSTORE PUSH1 0x60 DUP3 ADD MSTORE PUSH1 0x80 ADD PUSH2 0x148 JUMP JUMPDEST PUSH2 0x1CD PUSH1 0x5 SLOAD DUP2 JUMP JUMPDEST PUSH2 0x1CD PUSH1 0x1E DUP2 JUMP JUMPDEST PUSH2 0x1CD PUSH1 0xA DUP2 JUMP JUMPDEST PUSH2 0x18A PUSH2 0x2CD CALLDATASIZE PUSH1 0x4 PUSH2 0x1110 JUMP JUMPDEST PUSH2 0xBE9 JUMP JUMPDEST PUSH1 0x0 DUP2 DUP2 MSTORE PUSH1 0x3 PUSH1 0x20 MSTORE PUSH1 0x40 DUP2 KECCAK256 DUP1 SLOAD PUSH1 0x2 DUP3 ADD SLOAD PUSH1 0x1 DUP4 ADD DUP1 SLOAD PUSH1 0x60 SWAP5 DUP7 SWAP5 SWAP1 SWAP4 SWAP1 SWAP3 SWAP2 PUSH1 0xFF SWAP1 SWAP2 AND SWAP1 DUP3 SWAP1 PUSH2 0x308 SWAP1 PUSH2 0x1208 JUMP JUMPDEST DUP1 PUSH1 0x1F ADD PUSH1 0x20 DUP1 SWAP2 DIV MUL PUSH1 0x20 ADD PUSH1 0x40 MLOAD SWAP1 DUP2 ADD PUSH1 0x40 MSTORE DUP1 SWAP3 SWAP2 SWAP1 DUP2 DUP2 MSTORE PUSH1 0x20 ADD DUP3 DUP1 SLOAD PUSH2 0x334 SWAP1 PUSH2 0x1208 JUMP JUMPDEST DUP1 ISZERO PUSH2 0x381 JUMPI DUP1 PUSH1 0x1F LT PUSH2 0x356 JUMPI PUSH2 0x100 DUP1 DUP4 SLOAD DIV MUL DUP4 MSTORE SWAP2 PUSH1 0x20 ADD SWAP2 PUSH2 0x381 JUMP JUMPDEST DUP3 ADD SWAP2 SWAP1 PUSH1 0x0 MSTORE PUSH1 0x20 PUSH1 0x0 KECCAK256 SWAP1 JUMPDEST DUP2 SLOAD DUP2 MSTORE SWAP1 PUSH1 0x1 ADD SWAP1 PUSH1 0x20 ADD DUP1 DUP4 GT PUSH2 0x364 JUMPI DUP3 SWAP1 SUB PUSH1 0x1F AND DUP3 ADD SWAP2 JUMPDEST POP POP POP POP POP SWAP2 POP SWAP4 POP SWAP4 POP SWAP4 POP POP SWAP2 SWAP4 SWAP1 SWAP3 POP JUMP JUMPDEST PUSH1 0x3 PUSH1 0x20 MSTORE PUSH1 0x0 SWAP1 DUP2 MSTORE PUSH1 0x40 SWAP1 KECCAK256 DUP1 SLOAD PUSH1 0x1 DUP3 ADD DUP1 SLOAD SWAP2 SWAP3 SWAP2 PUSH2 0x3B8 SWAP1 PUSH2 0x1208 JUMP JUMPDEST DUP1 PUSH1 0x1F ADD PUSH1 0x20 DUP1 SWAP2 DIV MUL PUSH1 0x20 ADD PUSH1 0x40 MLOAD SWAP1 DUP2 ADD PUSH1 0x40 MSTORE DUP1 SWAP3 SWAP2 SWAP1 DUP2 DUP2 MSTORE PUSH1 0x20 ADD DUP3 DUP1 SLOAD PUSH2 0x3E4 SWAP1 PUSH2 0x1208 JUMP JUMPDEST DUP1 ISZERO PUSH2 0x431 JUMPI DUP1 PUSH1 0x1F LT PUSH2 0x406 JUMPI PUSH2 0x100 DUP1 DUP4 SLOAD DIV MUL DUP4 MSTORE SWAP2 PUSH1 0x20 ADD SWAP2 PUSH2 0x431 JUMP JUMPDEST DUP3 ADD SWAP2 SWAP1 PUSH1 0x0 MSTORE PUSH1 0x20 PUSH1 0x0 KECCAK256 SWAP1 JUMPDEST DUP2 SLOAD DUP2 MSTORE SWAP1 PUSH1 0x1 ADD SWAP1 PUSH1 0x20 ADD DUP1 DUP4 GT PUSH2 0x414 JUMPI DUP3 SWAP1 SUB PUSH1 0x1F AND DUP3 ADD SWAP2 JUMPDEST POP POP POP PUSH1 0x2 DUP5 ADD SLOAD PUSH1 0x3 DUP6 ADD SLOAD PUSH1 0x4 DUP7 ADD SLOAD PUSH1 0x5 DUP8 ADD SLOAD PUSH1 0x6 SWAP1 SWAP8 ADD SLOAD SWAP6 SWAP7 PUSH1 0xFF SWAP1 SWAP4 AND SWAP6 SWAP2 SWAP5 POP SWAP3 POP DUP8 JUMP JUMPDEST PUSH2 0x466 PUSH2 0xC27 JUMP JUMPDEST PUSH1 0x0 DUP2 GT DUP1 ISZERO PUSH2 0x478 JUMPI POP PUSH1 0x5 SLOAD DUP2 GT ISZERO JUMPDEST PUSH2 0x4BF JUMPI PUSH1 0x40 MLOAD PUSH3 0x461BCD PUSH1 0xE5 SHL DUP2 MSTORE PUSH1 0x20 PUSH1 0x4 DUP3 ADD MSTORE PUSH1 0x13 PUSH1 0x24 DUP3 ADD MSTORE PUSH19 0x125B9D985B1A59081C1C9BDC1BDCD85B081251 PUSH1 0x6A SHL PUSH1 0x44 DUP3 ADD MSTORE PUSH1 0x64 ADD JUMPDEST PUSH1 0x40 MLOAD DUP1 SWAP2 SUB SWAP1 REVERT JUMPDEST PUSH1 0x0 DUP2 DUP2 MSTORE PUSH1 0x3 PUSH1 0x20 MSTORE PUSH1 0x40 SWAP1 KECCAK256 PUSH1 0x4 DUP2 ADD SLOAD TIMESTAMP GT PUSH2 0x520 JUMPI PUSH1 0x40 MLOAD PUSH3 0x461BCD PUSH1 0xE5 SHL DUP2 MSTORE PUSH1 0x20 PUSH1 0x4 DUP3 ADD MSTORE PUSH1 0x17 PUSH1 0x24 DUP3 ADD MSTORE PUSH32 0x566F74696E6720706572696F64206E6F7420656E646564000000000000000000 PUSH1 0x44 DUP3 ADD MSTORE PUSH1 0x64 ADD PUSH2 0x4B6 JUMP JUMPDEST PUSH1 0x2 DUP2 ADD SLOAD PUSH1 0xFF AND ISZERO PUSH2 0x575 JUMPI PUSH1 0x40 MLOAD PUSH3 0x461BCD PUSH1 0xE5 SHL DUP2 MSTORE PUSH1 0x20 PUSH1 0x4 DUP3 ADD MSTORE PUSH1 0x19 PUSH1 0x24 DUP3 ADD MSTORE PUSH32 0x50726F706F73616C20616C726561647920657865637574656400000000000000 PUSH1 0x44 DUP3 ADD MSTORE PUSH1 0x64 ADD PUSH2 0x4B6 JUMP JUMPDEST PUSH1 0x0 PUSH1 0x64 PUSH1 0xA PUSH1 0x1 PUSH1 0x0 SWAP1 SLOAD SWAP1 PUSH2 0x100 EXP SWAP1 DIV PUSH1 0x1 PUSH1 0x1 PUSH1 0xA0 SHL SUB AND PUSH1 0x1 PUSH1 0x1 PUSH1 0xA0 SHL SUB AND PUSH4 0x4A0CED96 PUSH1 0x40 MLOAD DUP2 PUSH4 0xFFFFFFFF AND PUSH1 0xE0 SHL DUP2 MSTORE PUSH1 0x4 ADD PUSH1 0x20 PUSH1 0x40 MLOAD DUP1 DUP4 SUB DUP2 DUP7 GAS STATICCALL ISZERO DUP1 ISZERO PUSH2 0x5CE JUMPI RETURNDATASIZE PUSH1 0x0 DUP1 RETURNDATACOPY RETURNDATASIZE PUSH1 0x0 REVERT JUMPDEST POP POP POP POP PUSH1 0x40 MLOAD RETURNDATASIZE PUSH1 0x1F NOT PUSH1 0x1F DUP3 ADD AND DUP3 ADD DUP1 PUSH1 0x40 MSTORE POP DUP2 ADD SWAP1 PUSH2 0x5F2 SWAP2 SWAP1 PUSH2 0x1242 JUMP JUMPDEST PUSH2 0x5FC SWAP2 SWAP1 PUSH2 0x1271 JUMP JUMPDEST PUSH2 0x606 SWAP2 SWAP1 PUSH2 0x128E JUMP JUMPDEST SWAP1 POP DUP1 DUP3 PUSH1 0x6 ADD SLOAD DUP4 PUSH1 0x5 ADD SLOAD PUSH2 0x61D SWAP2 SWAP1 PUSH2 0x12B0 JUMP JUMPDEST LT ISZERO PUSH2 0x660 JUMPI PUSH1 0x40 MLOAD PUSH3 0x461BCD PUSH1 0xE5 SHL DUP2 MSTORE PUSH1 0x20 PUSH1 0x4 DUP3 ADD MSTORE PUSH1 0x12 PUSH1 0x24 DUP3 ADD MSTORE PUSH18 0x145D5BDC9D5B481B9BDD081C995858DA1959 PUSH1 0x72 SHL PUSH1 0x44 DUP3 ADD MSTORE PUSH1 0x64 ADD PUSH2 0x4B6 JUMP JUMPDEST DUP2 PUSH1 0x6 ADD SLOAD DUP3 PUSH1 0x5 ADD SLOAD GT PUSH2 0x6AF JUMPI PUSH1 0x40 MLOAD PUSH3 0x461BCD PUSH1 0xE5 SHL DUP2 MSTORE PUSH1 0x20 PUSH1 0x4 DUP3 ADD MSTORE PUSH1 0x15 PUSH1 0x24 DUP3 ADD MSTORE PUSH21 0x141C9BDC1BDCD85B081B9BDD08185C1C1C9BDD9959 PUSH1 0x5A SHL PUSH1 0x44 DUP3 ADD MSTORE PUSH1 0x64 ADD PUSH2 0x4B6 JUMP JUMPDEST PUSH1 0x2 DUP3 ADD DUP1 SLOAD PUSH1 0xFF NOT AND PUSH1 0x1 OR SWAP1 SSTORE PUSH1 0x40 MLOAD DUP4 SWAP1 PUSH32 0x712AE1383F79AC853F8D882153778E0260EF8F03B504E2866E0593E04D2B291F SWAP1 PUSH1 0x0 SWAP1 LOG2 POP POP POP JUMP JUMPDEST PUSH1 0x0 DUP3 GT DUP1 ISZERO PUSH2 0x700 JUMPI POP PUSH1 0x5 SLOAD DUP3 GT ISZERO JUMPDEST PUSH2 0x742 JUMPI PUSH1 0x40 MLOAD PUSH3 0x461BCD PUSH1 0xE5 SHL DUP2 MSTORE PUSH1 0x20 PUSH1 0x4 DUP3 ADD MSTORE PUSH1 0x13 PUSH1 0x24 DUP3 ADD MSTORE PUSH19 0x125B9D985B1A59081C1C9BDC1BDCD85B081251 PUSH1 0x6A SHL PUSH1 0x44 DUP3 ADD MSTORE PUSH1 0x64 ADD PUSH2 0x4B6 JUMP JUMPDEST PUSH1 0x0 DUP3 DUP2 MSTORE PUSH1 0x3 PUSH1 0x20 DUP2 SWAP1 MSTORE PUSH1 0x40 SWAP1 SWAP2 KECCAK256 SWAP1 DUP2 ADD SLOAD TIMESTAMP LT DUP1 ISZERO SWAP1 PUSH2 0x76A JUMPI POP DUP1 PUSH1 0x4 ADD SLOAD TIMESTAMP GT ISZERO JUMPDEST PUSH2 0x7AD JUMPI PUSH1 0x40 MLOAD PUSH3 0x461BCD PUSH1 0xE5 SHL DUP2 MSTORE PUSH1 0x20 PUSH1 0x4 DUP3 ADD MSTORE PUSH1 0x14 PUSH1 0x24 DUP3 ADD MSTORE PUSH20 0x159BDD1A5B99C81C195C9A5BD90818DB1BDCD959 PUSH1 0x62 SHL PUSH1 0x44 DUP3 ADD MSTORE PUSH1 0x64 ADD PUSH2 0x4B6 JUMP JUMPDEST CALLER PUSH1 0x0 SWAP1 DUP2 MSTORE PUSH1 0x7 DUP3 ADD PUSH1 0x20 MSTORE PUSH1 0x40 SWAP1 KECCAK256 SLOAD PUSH1 0xFF AND ISZERO PUSH2 0x7FF JUMPI PUSH1 0x40 MLOAD PUSH3 0x461BCD PUSH1 0xE5 SHL DUP2 MSTORE PUSH1 0x20 PUSH1 0x4 DUP3 ADD MSTORE PUSH1 0xD PUSH1 0x24 DUP3 ADD MSTORE PUSH13 0x105B1C9958591E481D9BDD1959 PUSH1 0x9A SHL PUSH1 0x44 DUP3 ADD MSTORE PUSH1 0x64 ADD PUSH2 0x4B6 JUMP JUMPDEST CALLER PUSH1 0x0 DUP2 DUP2 MSTORE PUSH1 0x4 PUSH1 0x20 DUP2 SWAP1 MSTORE PUSH1 0x40 DUP1 DUP4 KECCAK256 PUSH1 0x1 SLOAD SWAP2 MLOAD PUSH4 0x157A22C9 PUSH1 0xE1 SHL DUP2 MSTORE SWAP3 DUP4 ADD SWAP5 SWAP1 SWAP5 MSTORE PUSH1 0x1 PUSH1 0x1 PUSH1 0xA0 SHL SUB AND SWAP1 PUSH4 0x2AF44592 SWAP1 PUSH1 0x24 ADD PUSH1 0x20 PUSH1 0x40 MLOAD DUP1 DUP4 SUB DUP2 DUP7 GAS STATICCALL ISZERO DUP1 ISZERO PUSH2 0x857 JUMPI RETURNDATASIZE PUSH1 0x0 DUP1 RETURNDATACOPY RETURNDATASIZE PUSH1 0x0 REVERT JUMPDEST POP POP POP POP PUSH1 0x40 MLOAD RETURNDATASIZE PUSH1 0x1F NOT PUSH1 0x1F DUP3 ADD AND DUP3 ADD DUP1 PUSH1 0x40 MSTORE POP DUP2 ADD SWAP1 PUSH2 0x87B SWAP2 SWAP1 PUSH2 0x1242 JUMP JUMPDEST SWAP1 POP PUSH1 0x0 DUP2 GT PUSH2 0x8BD JUMPI PUSH1 0x40 MLOAD PUSH3 0x461BCD PUSH1 0xE5 SHL DUP2 MSTORE PUSH1 0x20 PUSH1 0x4 DUP3 ADD MSTORE PUSH1 0xD PUSH1 0x24 DUP3 ADD MSTORE PUSH13 0x4E6F206C6F636B656420513441 PUSH1 0x98 SHL PUSH1 0x44 DUP3 ADD MSTORE PUSH1 0x64 ADD PUSH2 0x4B6 JUMP JUMPDEST PUSH2 0x8C6 CALLER PUSH2 0xC54 JUMP JUMPDEST PUSH1 0x0 PUSH1 0x64 DUP4 PUSH1 0x3 ADD SLOAD DUP4 PUSH2 0x8DA SWAP2 SWAP1 PUSH2 0x1271 JUMP JUMPDEST PUSH2 0x8E4 SWAP2 SWAP1 PUSH2 0x128E JUMP JUMPDEST PUSH2 0x8EE SWAP1 DUP4 PUSH2 0x12B0 JUMP JUMPDEST SWAP1 POP PUSH1 0x0 PUSH2 0x8FD DUP8 CALLER DUP9 PUSH2 0xE0A JUMP JUMPDEST SWAP1 POP PUSH2 0x909 DUP2 DUP4 PUSH2 0x12B0 JUMP JUMPDEST CALLER PUSH1 0x0 SWAP1 DUP2 MSTORE PUSH1 0x7 DUP8 ADD PUSH1 0x20 MSTORE PUSH1 0x40 SWAP1 KECCAK256 DUP1 SLOAD PUSH1 0xFF NOT AND PUSH1 0x1 OR SWAP1 SSTORE SWAP2 POP DUP6 ISZERO PUSH2 0x94C JUMPI DUP2 DUP6 PUSH1 0x5 ADD PUSH1 0x0 DUP3 DUP3 SLOAD PUSH2 0x941 SWAP2 SWAP1 PUSH2 0x12B0 JUMP JUMPDEST SWAP1 SWAP2 SSTORE POP PUSH2 0x966 SWAP1 POP JUMP JUMPDEST DUP2 DUP6 PUSH1 0x6 ADD PUSH1 0x0 DUP3 DUP3 SLOAD PUSH2 0x960 SWAP2 SWAP1 PUSH2 0x12B0 JUMP JUMPDEST SWAP1 SWAP2 SSTORE POP POP JUMPDEST DUP7 CALLER PUSH32 0x2C9DEB38F462962EADBD85A9D3A4120503EE091F1582EAAA10AA8C6797651D29 DUP9 PUSH2 0x995 JUMPI PUSH1 0x0 PUSH2 0x998 JUMP JUMPDEST PUSH1 0x1 JUMPDEST PUSH1 0x40 DUP1 MLOAD PUSH1 0xFF SWAP1 SWAP3 AND DUP3 MSTORE PUSH1 0x20 DUP3 ADD DUP8 SWAP1 MSTORE ADD PUSH1 0x40 MLOAD DUP1 SWAP2 SUB SWAP1 LOG3 DUP1 ISZERO PUSH2 0x9F1 JUMPI PUSH1 0x40 MLOAD DUP2 DUP2 MSTORE CALLER SWAP1 DUP9 SWAP1 PUSH32 0xE95559E9B7C2DF54ACBFFAB56C67BC5BDCB3BC229C747A9B3F47765B84BA3180 SWAP1 PUSH1 0x20 ADD PUSH1 0x40 MLOAD DUP1 SWAP2 SUB SWAP1 LOG3 JUMPDEST POP POP POP POP POP POP POP JUMP JUMPDEST PUSH2 0xA02 PUSH2 0xC27 JUMP JUMPDEST PUSH1 0x1 PUSH1 0x1 PUSH1 0xA0 SHL SUB DUP2 AND PUSH2 0xA51 JUMPI PUSH1 0x40 MLOAD PUSH3 0x461BCD PUSH1 0xE5 SHL DUP2 MSTORE PUSH1 0x20 PUSH1 0x4 DUP3 ADD MSTORE PUSH1 0x16 PUSH1 0x24 DUP3 ADD MSTORE PUSH22 0x496E76616C6964206F7261636C652061646472657373 PUSH1 0x50 SHL PUSH1 0x44 DUP3 ADD MSTORE PUSH1 0x64 ADD PUSH2 0x4B6 JUMP JUMPDEST PUSH1 0x2 DUP1 SLOAD PUSH1 0x1 PUSH1 0x1 PUSH1 0xA0 SHL SUB NOT AND PUSH1 0x1 PUSH1 0x1 PUSH1 0xA0 SHL SUB SWAP3 SWAP1 SWAP3 AND SWAP2 SWAP1 SWAP2 OR SWAP1 SSTORE JUMP JUMPDEST PUSH1 0x1 SLOAD PUSH1 0x40 MLOAD PUSH4 0x70A08231 PUSH1 0xE0 SHL DUP2 MSTORE CALLER PUSH1 0x4 DUP3 ADD MSTORE PUSH10 0xD3C21BCECCEDA1000000 SWAP2 PUSH1 0x1 PUSH1 0x1 PUSH1 0xA0 SHL SUB AND SWAP1 PUSH4 0x70A08231 SWAP1 PUSH1 0x24 ADD PUSH1 0x20 PUSH1 0x40 MLOAD DUP1 DUP4 SUB DUP2 DUP7 GAS STATICCALL ISZERO DUP1 ISZERO PUSH2 0xAC5 JUMPI RETURNDATASIZE PUSH1 0x0 DUP1 RETURNDATACOPY RETURNDATASIZE PUSH1 0x0 REVERT JUMPDEST POP POP POP POP PUSH1 0x40 MLOAD RETURNDATASIZE PUSH1 0x1F NOT PUSH1 0x1F DUP3 ADD AND DUP3 ADD DUP1 PUSH1 0x40 MSTORE POP DUP2 ADD SWAP1 PUSH2 0xAE9 SWAP2 SWAP1 PUSH2 0x1242 JUMP JUMPDEST LT ISZERO PUSH2 0xB37 JUMPI PUSH1 0x40 MLOAD PUSH3 0x461BCD PUSH1 0xE5 SHL DUP2 MSTORE PUSH1 0x20 PUSH1 0x4 DUP3 ADD MSTORE PUSH1 0x18 PUSH1 0x24 DUP3 ADD MSTORE PUSH32 0x496E73756666696369656E74205134412062616C616E63650000000000000000 PUSH1 0x44 DUP3 ADD MSTORE PUSH1 0x64 ADD PUSH2 0x4B6 JUMP JUMPDEST PUSH1 0x5 DUP1 SLOAD SWAP1 PUSH1 0x0 PUSH2 0xB47 DUP4 PUSH2 0x12C3 JUMP JUMPDEST SWAP1 SWAP2 SSTORE POP POP PUSH1 0x5 SLOAD PUSH1 0x0 DUP2 DUP2 MSTORE PUSH1 0x3 PUSH1 0x20 MSTORE PUSH1 0x40 SWAP1 KECCAK256 SWAP1 DUP2 SSTORE PUSH1 0x1 DUP2 ADD PUSH2 0xB6E DUP4 DUP3 PUSH2 0x132B JUMP JUMPDEST POP PUSH1 0x2 DUP2 ADD DUP1 SLOAD PUSH1 0xFF NOT AND SWAP1 SSTORE TIMESTAMP PUSH1 0x3 DUP3 ADD DUP2 SWAP1 SSTORE PUSH2 0xB91 SWAP1 PUSH3 0x93A80 SWAP1 PUSH2 0x12B0 JUMP JUMPDEST PUSH1 0x4 DUP3 ADD SSTORE PUSH1 0x5 SLOAD PUSH1 0x40 MLOAD PUSH32 0x9C770C289AB5BF7E57CB1D23C8CEAE993AEA46EB64847072FD3D78CA60D3E432 SWAP1 PUSH2 0xBC9 SWAP1 DUP6 SWAP1 PUSH2 0x13EA JUMP JUMPDEST PUSH1 0x40 MLOAD DUP1 SWAP2 SUB SWAP1 LOG2 POP POP JUMP JUMPDEST PUSH2 0xBDD PUSH2 0xC27 JUMP JUMPDEST PUSH2 0xBE7 PUSH1 0x0 PUSH2 0xFBE JUMP JUMPDEST JUMP JUMPDEST PUSH2 0xBF1 PUSH2 0xC27 JUMP JUMPDEST PUSH1 0x1 PUSH1 0x1 PUSH1 0xA0 SHL SUB DUP2 AND PUSH2 0xC1B JUMPI PUSH1 0x40 MLOAD PUSH4 0x1E4FBDF7 PUSH1 0xE0 SHL DUP2 MSTORE PUSH1 0x0 PUSH1 0x4 DUP3 ADD MSTORE PUSH1 0x24 ADD PUSH2 0x4B6 JUMP JUMPDEST PUSH2 0xC24 DUP2 PUSH2 0xFBE JUMP JUMPDEST POP JUMP JUMPDEST PUSH1 0x0 SLOAD PUSH1 0x1 PUSH1 0x1 PUSH1 0xA0 SHL SUB AND CALLER EQ PUSH2 0xBE7 JUMPI PUSH1 0x40 MLOAD PUSH4 0x118CDAA7 PUSH1 0xE0 SHL DUP2 MSTORE CALLER PUSH1 0x4 DUP3 ADD MSTORE PUSH1 0x24 ADD PUSH2 0x4B6 JUMP JUMPDEST PUSH1 0x1 PUSH1 0x1 PUSH1 0xA0 SHL SUB DUP2 DUP2 AND PUSH1 0x0 DUP2 DUP2 MSTORE PUSH1 0x4 PUSH1 0x20 DUP2 SWAP1 MSTORE PUSH1 0x40 SWAP2 DUP3 SWAP1 KECCAK256 PUSH1 0x1 SLOAD SWAP3 MLOAD PUSH4 0x157A22C9 PUSH1 0xE1 SHL DUP2 MSTORE SWAP2 DUP3 ADD SWAP4 SWAP1 SWAP4 MSTORE SWAP2 SWAP3 AND SWAP1 PUSH4 0x2AF44592 SWAP1 PUSH1 0x24 ADD PUSH1 0x20 PUSH1 0x40 MLOAD DUP1 DUP4 SUB DUP2 DUP7 GAS STATICCALL ISZERO DUP1 ISZERO PUSH2 0xCB1 JUMPI RETURNDATASIZE PUSH1 0x0 DUP1 RETURNDATACOPY RETURNDATASIZE PUSH1 0x0 REVERT JUMPDEST POP POP POP POP PUSH1 0x40 MLOAD RETURNDATASIZE PUSH1 0x1F NOT PUSH1 0x1F DUP3 ADD AND DUP3 ADD DUP1 PUSH1 0x40 MSTORE POP DUP2 ADD SWAP1 PUSH2 0xCD5 SWAP2 SWAP1 PUSH2 0x1242 JUMP JUMPDEST DUP2 SSTORE PUSH1 0x1 DUP2 ADD DUP1 SLOAD SWAP1 PUSH1 0x0 PUSH2 0xCE9 DUP4 PUSH2 0x12C3 JUMP JUMPDEST SWAP1 SWAP2 SSTORE POP POP TIMESTAMP PUSH1 0x2 DUP3 DUP2 ADD SWAP2 SWAP1 SWAP2 SSTORE SLOAD PUSH1 0x40 MLOAD PUSH4 0x1D699F57 PUSH1 0xE2 SHL DUP2 MSTORE PUSH1 0x1 PUSH1 0x1 PUSH1 0xA0 SHL SUB DUP5 DUP2 AND PUSH1 0x4 DUP4 ADD MSTORE PUSH1 0x0 SWAP3 AND SWAP1 PUSH4 0x75A67D5C SWAP1 PUSH1 0x24 ADD PUSH1 0x20 PUSH1 0x40 MLOAD DUP1 DUP4 SUB DUP2 DUP7 GAS STATICCALL ISZERO DUP1 ISZERO PUSH2 0xD41 JUMPI RETURNDATASIZE PUSH1 0x0 DUP1 RETURNDATACOPY RETURNDATASIZE PUSH1 0x0 REVERT JUMPDEST POP POP POP POP PUSH1 0x40 MLOAD RETURNDATASIZE PUSH1 0x1F NOT PUSH1 0x1F DUP3 ADD AND DUP3 ADD DUP1 PUSH1 0x40 MSTORE POP DUP2 ADD SWAP1 PUSH2 0xD65 SWAP2 SWAP1 PUSH2 0x1242 JUMP JUMPDEST SWAP1 POP PUSH1 0x5 DUP3 PUSH1 0x1 ADD SLOAD LT ISZERO DUP1 ISZERO PUSH2 0xD8D JUMPI POP PUSH3 0x278D00 DUP3 PUSH1 0x2 ADD SLOAD TIMESTAMP PUSH2 0xD8B SWAP2 SWAP1 PUSH2 0x13FD JUMP JUMPDEST LT JUMPDEST ISZERO PUSH2 0xDAD JUMPI PUSH1 0x14 DUP2 GT PUSH2 0xDA0 JUMPI DUP1 PUSH2 0xDA3 JUMP JUMPDEST PUSH1 0x14 JUMPDEST PUSH1 0x3 DUP4 ADD SSTORE PUSH2 0xDBE JUMP JUMPDEST PUSH2 0xDB8 PUSH1 0x2 DUP3 PUSH2 0x128E JUMP JUMPDEST PUSH1 0x3 DUP4 ADD SSTORE JUMPDEST DUP3 PUSH1 0x1 PUSH1 0x1 PUSH1 0xA0 SHL SUB AND PUSH32 0xFC577563F1B9A0461E24ABEF1E1FCC0D33D3D881F20B5DF6DDA59DE4AAE2C821 DUP4 PUSH1 0x3 ADD SLOAD PUSH1 0x40 MLOAD PUSH2 0xDFD SWAP2 DUP2 MSTORE PUSH1 0x20 ADD SWAP1 JUMP JUMPDEST PUSH1 0x40 MLOAD DUP1 SWAP2 SUB SWAP1 LOG2 POP POP POP JUMP JUMPDEST PUSH1 0x0 DUP4 DUP2 MSTORE PUSH1 0x3 PUSH1 0x20 SWAP1 DUP2 MSTORE PUSH1 0x40 DUP1 DUP4 KECCAK256 PUSH1 0x1 PUSH1 0x1 PUSH1 0xA0 SHL SUB DUP7 AND DUP5 MSTORE PUSH1 0x8 DUP2 ADD SWAP1 SWAP3 MSTORE DUP3 KECCAK256 DUP1 SLOAD DUP4 SUB PUSH2 0xE64 JUMPI DUP1 SLOAD PUSH1 0x1 DUP2 ADD DUP3 SSTORE PUSH1 0x0 DUP3 DUP2 MSTORE PUSH1 0x20 SWAP1 KECCAK256 ADD DUP1 SLOAD PUSH1 0x1 PUSH1 0x1 PUSH1 0xA0 SHL SUB NOT AND PUSH1 0x1 PUSH1 0x1 PUSH1 0xA0 SHL SUB DUP8 AND OR SWAP1 SSTORE JUMPDEST PUSH1 0x2 SLOAD PUSH1 0x40 MLOAD PUSH4 0x53D2262B PUSH1 0xE0 SHL DUP2 MSTORE PUSH1 0x1 PUSH1 0x1 PUSH1 0xA0 SHL SUB DUP8 DUP2 AND PUSH1 0x4 DUP4 ADD MSTORE PUSH1 0x24 DUP3 ADD DUP10 SWAP1 MSTORE PUSH1 0x0 SWAP3 AND SWAP1 PUSH4 0x53D2262B SWAP1 PUSH1 0x44 ADD PUSH1 0x20 PUSH1 0x40 MLOAD DUP1 DUP4 SUB DUP2 DUP7 GAS STATICCALL ISZERO DUP1 ISZERO PUSH2 0xEB6 JUMPI RETURNDATASIZE PUSH1 0x0 DUP1 RETURNDATACOPY RETURNDATASIZE PUSH1 0x0 REVERT JUMPDEST POP POP POP POP PUSH1 0x40 MLOAD RETURNDATASIZE PUSH1 0x1F NOT PUSH1 0x1F DUP3 ADD AND DUP3 ADD DUP1 PUSH1 0x40 MSTORE POP DUP2 ADD SWAP1 PUSH2 0xEDA SWAP2 SWAP1 PUSH2 0x1242 JUMP JUMPDEST SWAP1 POP DUP5 DUP1 ISZERO PUSH2 0xEE9 JUMPI POP PUSH1 0x0 DUP2 GT JUMPDEST ISZERO PUSH2 0xFAF JUMPI PUSH1 0x64 DUP2 GT PUSH2 0xEFC JUMPI DUP1 PUSH2 0xEFF JUMP JUMPDEST PUSH1 0x64 JUMPDEST PUSH1 0x1 DUP4 DUP2 ADD SWAP2 SWAP1 SWAP2 SSTORE SLOAD PUSH1 0x40 MLOAD PUSH4 0x157A22C9 PUSH1 0xE1 SHL DUP2 MSTORE PUSH1 0x1 PUSH1 0x1 PUSH1 0xA0 SHL SUB DUP9 DUP2 AND PUSH1 0x4 DUP4 ADD MSTORE PUSH1 0x0 SWAP3 AND SWAP1 PUSH4 0x2AF44592 SWAP1 PUSH1 0x24 ADD PUSH1 0x20 PUSH1 0x40 MLOAD DUP1 DUP4 SUB DUP2 DUP7 GAS STATICCALL ISZERO DUP1 ISZERO PUSH2 0xF51 JUMPI RETURNDATASIZE PUSH1 0x0 DUP1 RETURNDATACOPY RETURNDATASIZE PUSH1 0x0 REVERT JUMPDEST POP POP POP POP PUSH1 0x40 MLOAD RETURNDATASIZE PUSH1 0x1F NOT PUSH1 0x1F DUP3 ADD AND DUP3 ADD DUP1 PUSH1 0x40 MSTORE POP DUP2 ADD SWAP1 PUSH2 0xF75 SWAP2 SWAP1 PUSH2 0x1242 JUMP JUMPDEST SWAP1 POP PUSH1 0x0 PUSH2 0x2710 PUSH1 0x1E DUP6 PUSH1 0x1 ADD SLOAD DUP5 PUSH2 0xF8E SWAP2 SWAP1 PUSH2 0x1271 JUMP JUMPDEST PUSH2 0xF98 SWAP2 SWAP1 PUSH2 0x1271 JUMP JUMPDEST PUSH2 0xFA2 SWAP2 SWAP1 PUSH2 0x128E JUMP JUMPDEST SWAP6 POP PUSH2 0xFB7 SWAP5 POP POP POP POP POP JUMP JUMPDEST PUSH1 0x0 SWAP4 POP POP POP POP JUMPDEST SWAP4 SWAP3 POP POP POP JUMP JUMPDEST PUSH1 0x0 DUP1 SLOAD PUSH1 0x1 PUSH1 0x1 PUSH1 0xA0 SHL SUB DUP4 DUP2 AND PUSH1 0x1 PUSH1 0x1 PUSH1 0xA0 SHL SUB NOT DUP4 AND DUP2 OR DUP5 SSTORE PUSH1 0x40 MLOAD SWAP2 SWAP1 SWAP3 AND SWAP3 DUP4 SWAP2 PUSH32 0x8BE0079C531659141344CD1FD0A4F28419497F9722A3DAAFE3B4186F6B6457E0 SWAP2 SWAP1 LOG3 POP POP JUMP JUMPDEST PUSH1 0x0 PUSH1 0x20 DUP3 DUP5 SUB SLT ISZERO PUSH2 0x1020 JUMPI PUSH1 0x0 DUP1 REVERT JUMPDEST POP CALLDATALOAD SWAP2 SWAP1 POP JUMP JUMPDEST PUSH1 0x0 DUP2 MLOAD DUP1 DUP5 MSTORE PUSH1 0x0 JUMPDEST DUP2 DUP2 LT ISZERO PUSH2 0x104D JUMPI PUSH1 0x20 DUP2 DUP6 ADD DUP2 ADD MLOAD DUP7 DUP4 ADD DUP3 ADD MSTORE ADD PUSH2 0x1031 JUMP JUMPDEST POP PUSH1 0x0 PUSH1 0x20 DUP3 DUP7 ADD ADD MSTORE PUSH1 0x20 PUSH1 0x1F NOT PUSH1 0x1F DUP4 ADD AND DUP6 ADD ADD SWAP2 POP POP SWAP3 SWAP2 POP POP JUMP JUMPDEST DUP4 DUP2 MSTORE PUSH1 0x60 PUSH1 0x20 DUP3 ADD MSTORE PUSH1 0x0 PUSH2 0x1086 PUSH1 0x60 DUP4 ADD DUP6 PUSH2 0x1027 JUMP JUMPDEST SWAP1 POP DUP3 ISZERO ISZERO PUSH1 0x40 DUP4 ADD MSTORE SWAP5 SWAP4 POP POP POP POP JUMP JUMPDEST DUP8 DUP2 MSTORE PUSH1 0xE0 PUSH1 0x20 DUP3 ADD MSTORE PUSH1 0x0 PUSH2 0x10B1 PUSH1 0xE0 DUP4 ADD DUP10 PUSH2 0x1027 JUMP JUMPDEST SWAP7 ISZERO ISZERO PUSH1 0x40 DUP4 ADD MSTORE POP PUSH1 0x60 DUP2 ADD SWAP5 SWAP1 SWAP5 MSTORE PUSH1 0x80 DUP5 ADD SWAP3 SWAP1 SWAP3 MSTORE PUSH1 0xA0 DUP4 ADD MSTORE PUSH1 0xC0 SWAP1 SWAP2 ADD MSTORE SWAP3 SWAP2 POP POP JUMP JUMPDEST PUSH1 0x0 DUP1 PUSH1 0x40 DUP4 DUP6 SUB SLT ISZERO PUSH2 0x10EE JUMPI PUSH1 0x0 DUP1 REVERT JUMPDEST DUP3 CALLDATALOAD SWAP2 POP PUSH1 0x20 DUP4 ADD CALLDATALOAD DUP1 ISZERO ISZERO DUP2 EQ PUSH2 0x1105 JUMPI PUSH1 0x0 DUP1 REVERT JUMPDEST DUP1 SWAP2 POP POP SWAP3 POP SWAP3 SWAP1 POP JUMP JUMPDEST PUSH1 0x0 PUSH1 0x20 DUP3 DUP5 SUB SLT ISZERO PUSH2 0x1122 JUMPI PUSH1 0x0 DUP1 REVERT JUMPDEST DUP2 CALLDATALOAD PUSH1 0x1 PUSH1 0x1 PUSH1 0xA0 SHL SUB DUP2 AND DUP2 EQ PUSH2 0xFB7 JUMPI PUSH1 0x0 DUP1 REVERT JUMPDEST PUSH4 0x4E487B71 PUSH1 0xE0 SHL PUSH1 0x0 MSTORE PUSH1 0x41 PUSH1 0x4 MSTORE PUSH1 0x24 PUSH1 0x0 REVERT JUMPDEST PUSH1 0x0 PUSH1 0x20 DUP3 DUP5 SUB SLT ISZERO PUSH2 0x1161 JUMPI PUSH1 0x0 DUP1 REVERT JUMPDEST DUP2 CALLDATALOAD PUSH8 0xFFFFFFFFFFFFFFFF DUP2 GT ISZERO PUSH2 0x1178 JUMPI PUSH1 0x0 DUP1 REVERT JUMPDEST DUP3 ADD PUSH1 0x1F DUP2 ADD DUP5 SGT PUSH2 0x1189 JUMPI PUSH1 0x0 DUP1 REVERT JUMPDEST DUP1 CALLDATALOAD PUSH8 0xFFFFFFFFFFFFFFFF DUP2 GT ISZERO PUSH2 0x11A3 JUMPI PUSH2 0x11A3 PUSH2 0x1139 JUMP JUMPDEST PUSH1 0x40 MLOAD PUSH1 0x1F DUP3 ADD PUSH1 0x1F NOT SWAP1 DUP2 AND PUSH1 0x3F ADD AND DUP2 ADD PUSH8 0xFFFFFFFFFFFFFFFF DUP2 GT DUP3 DUP3 LT OR ISZERO PUSH2 0x11D2 JUMPI PUSH2 0x11D2 PUSH2 0x1139 JUMP JUMPDEST PUSH1 0x40 MSTORE DUP2 DUP2 MSTORE DUP3 DUP3 ADD PUSH1 0x20 ADD DUP7 LT ISZERO PUSH2 0x11EA JUMPI PUSH1 0x0 DUP1 REVERT JUMPDEST DUP2 PUSH1 0x20 DUP5 ADD PUSH1 0x20 DUP4 ADD CALLDATACOPY PUSH1 0x0 SWAP2 DUP2 ADD PUSH1 0x20 ADD SWAP2 SWAP1 SWAP2 MSTORE SWAP5 SWAP4 POP POP POP POP JUMP JUMPDEST PUSH1 0x1 DUP2 DUP2 SHR SWAP1 DUP3 AND DUP1 PUSH2 0x121C JUMPI PUSH1 0x7F DUP3 AND SWAP2 POP JUMPDEST PUSH1 0x20 DUP3 LT DUP2 SUB PUSH2 0x123C JUMPI PUSH4 0x4E487B71 PUSH1 0xE0 SHL PUSH1 0x0 MSTORE PUSH1 0x22 PUSH1 0x4 MSTORE PUSH1 0x24 PUSH1 0x0 REVERT JUMPDEST POP SWAP2 SWAP1 POP JUMP JUMPDEST PUSH1 0x0 PUSH1 0x20 DUP3 DUP5 SUB SLT ISZERO PUSH2 0x1254 JUMPI PUSH1 0x0 DUP1 REVERT JUMPDEST POP MLOAD SWAP2 SWAP1 POP JUMP JUMPDEST PUSH4 0x4E487B71 PUSH1 0xE0 SHL PUSH1 0x0 MSTORE PUSH1 0x11 PUSH1 0x4 MSTORE PUSH1 0x24 PUSH1 0x0 REVERT JUMPDEST DUP1 DUP3 MUL DUP2 ISZERO DUP3 DUP3 DIV DUP5 EQ OR PUSH2 0x1288 JUMPI PUSH2 0x1288 PUSH2 0x125B JUMP JUMPDEST SWAP3 SWAP2 POP POP JUMP JUMPDEST PUSH1 0x0 DUP3 PUSH2 0x12AB JUMPI PUSH4 0x4E487B71 PUSH1 0xE0 SHL PUSH1 0x0 MSTORE PUSH1 0x12 PUSH1 0x4 MSTORE PUSH1 0x24 PUSH1 0x0 REVERT JUMPDEST POP DIV SWAP1 JUMP JUMPDEST DUP1 DUP3 ADD DUP1 DUP3 GT ISZERO PUSH2 0x1288 JUMPI PUSH2 0x1288 PUSH2 0x125B JUMP JUMPDEST PUSH1 0x0 PUSH1 0x1 DUP3 ADD PUSH2 0x12D5 JUMPI PUSH2 0x12D5 PUSH2 0x125B JUMP JUMPDEST POP PUSH1 0x1 ADD SWAP1 JUMP JUMPDEST PUSH1 0x1F DUP3 GT ISZERO PUSH2 0x1326 JUMPI DUP1 PUSH1 0x0 MSTORE PUSH1 0x20 PUSH1 0x0 KECCAK256 PUSH1 0x1F DUP5 ADD PUSH1 0x5 SHR DUP2 ADD PUSH1 0x20 DUP6 LT ISZERO PUSH2 0x1303 JUMPI POP DUP1 JUMPDEST PUSH1 0x1F DUP5 ADD PUSH1 0x5 SHR DUP3 ADD SWAP2 POP JUMPDEST DUP2 DUP2 LT ISZERO PUSH2 0x1323 JUMPI PUSH1 0x0 DUP2 SSTORE PUSH1 0x1 ADD PUSH2 0x130F JUMP JUMPDEST POP POP JUMPDEST POP POP POP JUMP JUMPDEST DUP2 MLOAD PUSH8 0xFFFFFFFFFFFFFFFF DUP2 GT ISZERO PUSH2 0x1345 JUMPI PUSH2 0x1345 PUSH2 0x1139 JUMP JUMPDEST PUSH2 0x1359 DUP2 PUSH2 0x1353 DUP5 SLOAD PUSH2 0x1208 JUMP JUMPDEST DUP5 PUSH2 0x12DC JUMP JUMPDEST PUSH1 0x20 PUSH1 0x1F DUP3 GT PUSH1 0x1 DUP2 EQ PUSH2 0x138D JUMPI PUSH1 0x0 DUP4 ISZERO PUSH2 0x1375 JUMPI POP DUP5 DUP3 ADD MLOAD JUMPDEST PUSH1 0x0 NOT PUSH1 0x3 DUP6 SWAP1 SHL SHR NOT AND PUSH1 0x1 DUP5 SWAP1 SHL OR DUP5 SSTORE PUSH2 0x1323 JUMP JUMPDEST PUSH1 0x0 DUP5 DUP2 MSTORE PUSH1 0x20 DUP2 KECCAK256 PUSH1 0x1F NOT DUP6 AND SWAP2 JUMPDEST DUP3 DUP2 LT ISZERO PUSH2 0x13BD JUMPI DUP8 DUP6 ADD MLOAD DUP3 SSTORE PUSH1 0x20 SWAP5 DUP6 ADD SWAP5 PUSH1 0x1 SWAP1 SWAP3 ADD SWAP2 ADD PUSH2 0x139D JUMP JUMPDEST POP DUP5 DUP3 LT ISZERO PUSH2 0x13DB JUMPI DUP7 DUP5 ADD MLOAD PUSH1 0x0 NOT PUSH1 0x3 DUP8 SWAP1 SHL PUSH1 0xF8 AND SHR NOT AND DUP2 SSTORE JUMPDEST POP POP POP POP PUSH1 0x1 SWAP1 DUP2 SHL ADD SWAP1 SSTORE POP JUMP JUMPDEST PUSH1 0x20 DUP2 MSTORE PUSH1 0x0 PUSH2 0xFB7 PUSH1 0x20 DUP4 ADD DUP5 PUSH2 0x1027 JUMP JUMPDEST DUP2 DUP2 SUB DUP2 DUP2 GT ISZERO PUSH2 0x1288 JUMPI PUSH2 0x1288 PUSH2 0x125B JUMP INVALID LOG2 PUSH5 0x6970667358 0x22 SLT KECCAK256 NOT 0xE9 SWAP14 PUSH4 0x34C9DEDC 0x4E SWAP8 0xDD PUSH8 0x90FDD4EA37DCC81B 0xAD 0xE2 0x2A 0xDD 0xAB PUSH7 0xA47ABFFF133B64 PUSH20 0x6F6C634300081C00330000000000000000000000 "
				},
				"gasEstimates": {
					"creation": {
						"codeDepositCost": "1038000",
						"executionCost": "infinite",
						"totalCost": "infinite"
					},
					"external": {
						"ACTIVE_VOTER_THRESHOLD()": "262",
						"MAX_ENTANGLEMENT_BONUS()": "261",
						"MAX_INFLUENCE_BONUS()": "262",
						"MINIMUM_TOKENS_FOR_PROPOSAL()": "306",
						"QUORUM_PERCENTAGE()": "283",
						"VOTING_PERIOD()": "284",
						"_proposals(uint256)": "infinite",
						"createProposal(string)": "infinite",
						"customOracle()": "2448",
						"executeProposal(uint256)": "infinite",
						"owner()": "2343",
						"proposalCount()": "2339",
						"proposals(uint256)": "infinite",
						"quantumToken()": "2382",
						"renounceOwnership()": "infinite",
						"transferOwnership(address)": "28408",
						"updateOracle(address)": "26758",
						"voteOnProposal(uint256,bool)": "infinite",
						"voterProfiles(address)": "8908"
					},
					"internal": {
						"calculateEntanglementBonus(uint256,address,bool)": "infinite",
						"updateVoterProfile(address)": "infinite"
					}
				},
				"methodIdentifiers": {
					"ACTIVE_VOTER_THRESHOLD()": "6ae728d8",
					"MAX_ENTANGLEMENT_BONUS()": "ecd04582",
					"MAX_INFLUENCE_BONUS()": "9690c50b",
					"MINIMUM_TOKENS_FOR_PROPOSAL()": "8c61ec16",
					"QUORUM_PERCENTAGE()": "ee8a7c15",
					"VOTING_PERIOD()": "b1610d7e",
					"_proposals(uint256)": "0a494840",
					"createProposal(string)": "49c2a1a6",
					"customOracle()": "b5519fec",
					"executeProposal(uint256)": "0d61b519",
					"owner()": "8da5cb5b",
					"proposalCount()": "da35c664",
					"proposals(uint256)": "013cf08b",
					"quantumToken()": "93565b4c",
					"renounceOwnership()": "715018a6",
					"transferOwnership(address)": "f2fde38b",
					"updateOracle(address)": "1cb44dfc",
					"voteOnProposal(uint256,bool)": "1614665c",
					"voterProfiles(address)": "b8fda670"
				}
			},
			"storageLayout": {
				"storage": [
					{
						"astId": 8,
						"contract": "quantum/UBI4ALLQuantumGovernance.sol:UBI4ALLQuantumGovernance",
						"label": "_owner",
						"offset": 0,
						"slot": "0",
						"type": "t_address"
					},
					{
						"astId": 406,
						"contract": "quantum/UBI4ALLQuantumGovernance.sol:UBI4ALLQuantumGovernance",
						"label": "quantumToken",
						"offset": 0,
						"slot": "1",
						"type": "t_contract(IUBI4ALLQuantum)354"
					},
					{
						"astId": 409,
						"contract": "quantum/UBI4ALLQuantumGovernance.sol:UBI4ALLQuantumGovernance",
						"label": "customOracle",
						"offset": 0,
						"slot": "2",
						"type": "t_contract(IUBI4ALLCustomOracle)201"
					},
					{
						"astId": 475,
						"contract": "quantum/UBI4ALLQuantumGovernance.sol:UBI4ALLQuantumGovernance",
						"label": "_proposals",
						"offset": 0,
						"slot": "3",
						"type": "t_mapping(t_uint256,t_struct(Proposal)470_storage)"
					},
					{
						"astId": 480,
						"contract": "quantum/UBI4ALLQuantumGovernance.sol:UBI4ALLQuantumGovernance",
						"label": "voterProfiles",
						"offset": 0,
						"slot": "4",
						"type": "t_mapping(t_address,t_struct(VoterProfile)440_storage)"
					},
					{
						"astId": 483,
						"contract": "quantum/UBI4ALLQuantumGovernance.sol:UBI4ALLQuantumGovernance",
						"label": "proposalCount",
						"offset": 0,
						"slot": "5",
						"type": "t_uint256"
					}
				],
				"types": {
					"t_address": {
						"encoding": "inplace",
						"label": "address",
						"numberOfBytes": "20"
					},
					"t_array(t_address)dyn_storage": {
						"base": "t_address",
						"encoding": "dynamic_array",
						"label": "address[]",
						"numberOfBytes": "32"
					},
					"t_bool": {
						"encoding": "inplace",
						"label": "bool",
						"numberOfBytes": "1"
					},
					"t_contract(IUBI4ALLCustomOracle)201": {
						"encoding": "inplace",
						"label": "contract IUBI4ALLCustomOracle",
						"numberOfBytes": "20"
					},
					"t_contract(IUBI4ALLQuantum)354": {
						"encoding": "inplace",
						"label": "contract IUBI4ALLQuantum",
						"numberOfBytes": "20"
					},
					"t_mapping(t_address,t_bool)": {
						"encoding": "mapping",
						"key": "t_address",
						"label": "mapping(address => bool)",
						"numberOfBytes": "32",
						"value": "t_bool"
					},
					"t_mapping(t_address,t_struct(EntanglementGroup)446_storage)": {
						"encoding": "mapping",
						"key": "t_address",
						"label": "mapping(address => struct UBI4ALLQuantumGovernance.EntanglementGroup)",
						"numberOfBytes": "32",
						"value": "t_struct(EntanglementGroup)446_storage"
					},
					"t_mapping(t_address,t_struct(VoterProfile)440_storage)": {
						"encoding": "mapping",
						"key": "t_address",
						"label": "mapping(address => struct UBI4ALLQuantumGovernance.VoterProfile)",
						"numberOfBytes": "32",
						"value": "t_struct(VoterProfile)440_storage"
					},
					"t_mapping(t_uint256,t_struct(Proposal)470_storage)": {
						"encoding": "mapping",
						"key": "t_uint256",
						"label": "mapping(uint256 => struct UBI4ALLQuantumGovernance.Proposal)",
						"numberOfBytes": "32",
						"value": "t_struct(Proposal)470_storage"
					},
					"t_string_storage": {
						"encoding": "bytes",
						"label": "string",
						"numberOfBytes": "32"
					},
					"t_struct(EntanglementGroup)446_storage": {
						"encoding": "inplace",
						"label": "struct UBI4ALLQuantumGovernance.EntanglementGroup",
						"members": [
							{
								"astId": 443,
								"contract": "quantum/UBI4ALLQuantumGovernance.sol:UBI4ALLQuantumGovernance",
								"label": "voters",
								"offset": 0,
								"slot": "0",
								"type": "t_array(t_address)dyn_storage"
							},
							{
								"astId": 445,
								"contract": "quantum/UBI4ALLQuantumGovernance.sol:UBI4ALLQuantumGovernance",
								"label": "correlationScore",
								"offset": 0,
								"slot": "1",
								"type": "t_uint256"
							}
						],
						"numberOfBytes": "64"
					},
					"t_struct(Proposal)470_storage": {
						"encoding": "inplace",
						"label": "struct UBI4ALLQuantumGovernance.Proposal",
						"members": [
							{
								"astId": 448,
								"contract": "quantum/UBI4ALLQuantumGovernance.sol:UBI4ALLQuantumGovernance",
								"label": "id",
								"offset": 0,
								"slot": "0",
								"type": "t_uint256"
							},
							{
								"astId": 450,
								"contract": "quantum/UBI4ALLQuantumGovernance.sol:UBI4ALLQuantumGovernance",
								"label": "description",
								"offset": 0,
								"slot": "1",
								"type": "t_string_storage"
							},
							{
								"astId": 452,
								"contract": "quantum/UBI4ALLQuantumGovernance.sol:UBI4ALLQuantumGovernance",
								"label": "isExecuted",
								"offset": 0,
								"slot": "2",
								"type": "t_bool"
							},
							{
								"astId": 454,
								"contract": "quantum/UBI4ALLQuantumGovernance.sol:UBI4ALLQuantumGovernance",
								"label": "startTime",
								"offset": 0,
								"slot": "3",
								"type": "t_uint256"
							},
							{
								"astId": 456,
								"contract": "quantum/UBI4ALLQuantumGovernance.sol:UBI4ALLQuantumGovernance",
								"label": "endTime",
								"offset": 0,
								"slot": "4",
								"type": "t_uint256"
							},
							{
								"astId": 458,
								"contract": "quantum/UBI4ALLQuantumGovernance.sol:UBI4ALLQuantumGovernance",
								"label": "forVotes",
								"offset": 0,
								"slot": "5",
								"type": "t_uint256"
							},
							{
								"astId": 460,
								"contract": "quantum/UBI4ALLQuantumGovernance.sol:UBI4ALLQuantumGovernance",
								"label": "againstVotes",
								"offset": 0,
								"slot": "6",
								"type": "t_uint256"
							},
							{
								"astId": 464,
								"contract": "quantum/UBI4ALLQuantumGovernance.sol:UBI4ALLQuantumGovernance",
								"label": "hasVoted",
								"offset": 0,
								"slot": "7",
								"type": "t_mapping(t_address,t_bool)"
							},
							{
								"astId": 469,
								"contract": "quantum/UBI4ALLQuantumGovernance.sol:UBI4ALLQuantumGovernance",
								"label": "entanglementGroups",
								"offset": 0,
								"slot": "8",
								"type": "t_mapping(t_address,t_struct(EntanglementGroup)446_storage)"
							}
						],
						"numberOfBytes": "288"
					},
					"t_struct(VoterProfile)440_storage": {
						"encoding": "inplace",
						"label": "struct UBI4ALLQuantumGovernance.VoterProfile",
						"members": [
							{
								"astId": 433,
								"contract": "quantum/UBI4ALLQuantumGovernance.sol:UBI4ALLQuantumGovernance",
								"label": "totalLocked",
								"offset": 0,
								"slot": "0",
								"type": "t_uint256"
							},
							{
								"astId": 435,
								"contract": "quantum/UBI4ALLQuantumGovernance.sol:UBI4ALLQuantumGovernance",
								"label": "proposalCount",
								"offset": 0,
								"slot": "1",
								"type": "t_uint256"
							},
							{
								"astId": 437,
								"contract": "quantum/UBI4ALLQuantumGovernance.sol:UBI4ALLQuantumGovernance",
								"label": "lastParticipation",
								"offset": 0,
								"slot": "2",
								"type": "t_uint256"
							},
							{
								"astId": 439,
								"contract": "quantum/UBI4ALLQuantumGovernance.sol:UBI4ALLQuantumGovernance",
								"label": "influenceBonus",
								"offset": 0,
								"slot": "3",
								"type": "t_uint256"
							}
						],
						"numberOfBytes": "128"
					},
					"t_uint256": {
						"encoding": "inplace",
						"label": "uint256",
						"numberOfBytes": "32"
					}
				}
			},
			"userdoc": {
				"kind": "user",
				"methods": {},
				"version": 1
			}
		}
	}
}