{
	"data": {
		"bytecode": {
			"linkReferences": {},
			"object": "60a06040526007805463ffffffff60401b19166a0493e0000000000000000017905534801561002d57600080fd5b506040516128fb3803806128fb83398101604081905261004c91610197565b83816001600160a01b03811661007d57604051631e4fbdf760e01b8152600060048201526024015b60405180910390fd5b6100868161012b565b506001600160a01b0390811660805284166100e35760405162461bcd60e51b815260206004820152601660248201527f496e76616c696420726f757465722061646472657373000000000000000000006044820152606401610074565b6006839055600780546001600160401b0319166001600160401b03841617905561010f6008600a6102f2565b61011a906001610308565b6003555050426004555061031f9050565b600080546001600160a01b038381166001600160a01b0319831681178455604051919092169283917f8be0079c531659141344cd1fd0a4f28419497f9722a3daafe3b4186f6b6457e09190a35050565b80516001600160a01b038116811461019257600080fd5b919050565b600080600080608085870312156101ad57600080fd5b6101b68561017b565b6020860151604087015191955093506001600160401b03811681146101da57600080fd5b91506101e86060860161017b565b905092959194509250565b634e487b7160e01b600052601160045260246000fd5b6001815b600184111561024457808504811115610228576102286101f3565b600184161561023657908102905b60019390931c92800261020d565b935093915050565b60008261025b575060016102ec565b81610268575060006102ec565b816001811461027e5760028114610288576102a4565b60019150506102ec565b60ff841115610299576102996101f3565b50506001821b6102ec565b5060208310610133831016604e8410600b84101617156102c7575081810a6102ec565b6102d46000198484610209565b80600019048211156102e8576102e86101f3565b0290505b92915050565b600061030160ff84168361024c565b9392505050565b80820281158282048414176102ec576102ec6101f3565b6080516125ba610341600039600081816103a6015261120101526125ba6000f3fe608060405234801561001057600080fd5b50600436106101585760003560e01c806393db5e37116100c3578063dede852f1161007c578063dede852f146102eb578063e7ec0533146102fe578063f2fde38b14610329578063f55494f81461033c578063f68016b71461034f578063fe0438b21461037b57600080fd5b806393db5e37146102ad578063964ea12a146102c05780639af6bca5146102c8578063b331799e146102d0578063be152b61146102c0578063d98e7821146102d857600080fd5b80636e74336b116101155780636e74336b1461023c578063715018a614610245578063751bb5981461024d57806375a67d5c146102565780638213b4cf1461027f5780638da5cb5b1461029257600080fd5b806309c1ba2e1461015d5780630ca761751461018d5780632795ad20146101a25780632e0f2625146101f857806353d2262b146102125780636949faeb14610233575b600080fd5b600754610170906001600160401b031681565b6040516001600160401b0390911681526020015b60405180910390f35b6101a061019b366004611c9c565b61039b565b005b6101e86101b0366004611d0c565b6005602052600090815260409020805460018201546002909201546001600160a01b0380831693600160a01b90930460ff1692169084565b6040516101849493929190611d5d565b610200600881565b60405160ff9091168152602001610184565b610225610220366004611dac565b61041f565b604051908152602001610184565b61022560045481565b61022560065481565b6101a061044a565b61022560035481565b610225610264366004611dd6565b6001600160a01b031660009081526001602052604090205490565b61022561028d366004611dac565b61045e565b6000546040516001600160a01b039091168152602001610184565b6101a06102bb366004611dac565b610626565b610225606481565b600354610225565b6102256106fe565b6101a06102e6366004611df1565b61081c565b6102256102f9366004611dd6565b610940565b61022561030c366004611dac565b600260209081526000928352604080842090915290825290205481565b6101a0610337366004611dd6565b610a97565b6101a061034a366004611d0c565b610ad5565b60075461036690600160401b900463ffffffff1681565b60405163ffffffff9091168152602001610184565b610225610389366004611dd6565b60016020526000908152604090205481565b336001600160a01b037f000000000000000000000000000000000000000000000000000000000000000016146103e45760405163c6829f8360e01b815260040160405180910390fd5b6103ef838383610b65565b60405183907f85e1543bf2f84fe80c6badbce3648c8539ad1df4d2b3d822938ca0538be727e690600090a2505050565b6001600160a01b03821660009081526002602090815260408083208484529091529020545b92915050565b610452610e6a565b61045c6000610e97565b565b6000610468610e6a565b6001600160a01b0383166104975760405162461bcd60e51b815260040161048e90611e24565b60405180910390fd5b600082116104dd5760405162461bcd60e51b8152602060048201526013602482015272125b9d985b1a59081c1c9bdc1bdcd85b081251606a1b604482015260640161048e565b6104e5611b86565b6104f96104f28585610ee7565b8290610f23565b61052961050582610f34565b6007546006546001600160401b03821691600160401b900463ffffffff16906111fc565b604080516080810190915233815290925060208101600281526001600160a01b038087166020808401919091526040928301879052600086815260058252929092208351815492166001600160a01b0319831681178255928401519092909183916001600160a81b031990911617600160a01b8360028111156105ae576105ae611d25565b02179055506040828101516001830180546001600160a01b0319166001600160a01b039092169190911790556060909201516002918201559051339184917fe0cbca9c6411f8084bc50b0eedbc1c05f0a53cdcfdc0fd487cda1a66ec73e8d49161061791611e52565b60405180910390a35092915050565b61062e610e6a565b6001600160a01b0382166106545760405162461bcd60e51b815260040161048e90611e24565b60648111156106a55760405162461bcd60e51b815260206004820152601860248201527f496e76616c69642072657075746174696f6e2073636f72650000000000000000604482015260640161048e565b6001600160a01b03821660008181526001602052604090819020839055517fe00f1b5d37e934593fb70fcb5fd4703e66f533b6f2560437ec119178a815812d906106f29084815260200190565b60405180910390a25050565b6000610708610e6a565b610710611b86565b61071b6104f26112ce565b61072761050582610f34565b6040805160808101909152338152909250602081016000815260006020808301829052604092830182905285825260058152919020825181546001600160a01b03919091166001600160a01b031982168117835592840151919283916001600160a81b03191617600160a01b8360028111156107a5576107a5611d25565b02179055506040828101516001830180546001600160a01b0319166001600160a01b0390921691909117905560609092015160029091015551339083907fe0cbca9c6411f8084bc50b0eedbc1c05f0a53cdcfdc0fd487cda1a66ec73e8d49061081090600090611e52565b60405180910390a35090565b610824610e6a565b6001600160a01b03831661084a5760405162461bcd60e51b815260040161048e90611e24565b600082116108905760405162461bcd60e51b8152602060048201526013602482015272125b9d985b1a59081c1c9bdc1bdcd85b081251606a1b604482015260640161048e565b60648111156108e15760405162461bcd60e51b815260206004820152601960248201527f496e76616c696420636f7272656c6174696f6e2073636f726500000000000000604482015260640161048e565b6001600160a01b038316600081815260026020908152604080832086845282529182902084905590518381528492917fddf0bec76d6b8f0ec241ee38557441a708ebfe4f327f1955afc54e21a977fc71910160405180910390a3505050565b600061094a610e6a565b6001600160a01b0382166109705760405162461bcd60e51b815260040161048e90611e24565b610978611b86565b6109846104f2846112f1565b61099061050582610f34565b60408051608081018252338152600160208083019182526001600160a01b038881168486015260006060850181905286815260059092529390208251815494166001600160a01b031985168117825591519496509193919283916001600160a81b031990911617600160a01b836002811115610a0e57610a0e611d25565b021790555060408201518160010160006101000a8154816001600160a01b0302191690836001600160a01b0316021790555060608201518160020155905050336001600160a01b0316827fe0cbca9c6411f8084bc50b0eedbc1c05f0a53cdcfdc0fd487cda1a66ec73e8d46001604051610a889190611e52565b60405180910390a3505b919050565b610a9f610e6a565b6001600160a01b038116610ac957604051631e4fbdf760e01b81526000600482015260240161048e565b610ad281610e97565b50565b610add610e6a565b60008113610b1d5760405162461bcd60e51b815260206004820152600d60248201526c496e76616c696420707269636560981b604482015260640161048e565b60038190554260048190556040805183815260208101929092527ff6c5a7ca37753b0680a888953fc4f298aac5757f9639486009b92df9c9bdadfa910160405180910390a150565b600083815260056020908152604080832081516080810190925280546001600160a01b03811683529192909190830190600160a01b900460ff166002811115610bb057610bb0611d25565b6002811115610bc157610bc1611d25565b815260018201546001600160a01b039081166020830152600290920154604090910152815191925016610c2b5760405162461bcd60e51b8152602060048201526012602482015271125b9d985b1a59081c995c5d595cdd08125160721b604482015260640161048e565b600080600085806020019051810190610c449190611e60565b91945092509050600084602001516002811115610c6357610c63611d25565b148015610c705750600083135b15610cbf5760038390554260048190556040805185815260208101929092527ff6c5a7ca37753b0680a888953fc4f298aac5757f9639486009b92df9c9bdadfa910160405180910390a1610ded565b600184602001516002811115610cd757610cd7611d25565b148015610ce5575060648211155b15610d4f57604080850180516001600160a01b0390811660009081526001602052839020859055905191519116907fe00f1b5d37e934593fb70fcb5fd4703e66f533b6f2560437ec119178a815812d90610d429085815260200190565b60405180910390a2610ded565b600284602001516002811115610d6757610d67611d25565b148015610d75575060648111155b15610ded57604080850180516001600160a01b0390811660009081526002602090815284822060608a01805184529152908490208590555191519251919216907fddf0bec76d6b8f0ec241ee38557441a708ebfe4f327f1955afc54e21a977fc7190610de49085815260200190565b60405180910390a35b604080518481526020810184905290810182905287907fe9f0d70093154e9443bd931bc5cf30b0c45f5e41fadaf654f5a548a6523d10099060600160405180910390a2505050600093845250506005602052506040812080546001600160a81b03191681556001810180546001600160a01b031916905560020155565b6000546001600160a01b0316331461045c5760405163118cdaa760e01b815233600482015260240161048e565b600080546001600160a01b038381166001600160a01b0319831681178455604051919092169283917f8be0079c531659141344cd1fd0a4f28419497f9722a3daafe3b4186f6b6457e09190a35050565b6060610ef283611322565b610efb8361158d565b604051602001610f0c929190611eb2565b604051602081830303815290604052905092915050565b610f308260008084611696565b5050565b60606000610f43610100611714565b9050610f7c6040518060400160405280600c81526020016b31b7b232a637b1b0ba34b7b760a11b8152508261173590919063ffffffff16565b8251610f9a906002811115610f9357610f93611d25565b8290611753565b6040805180820190915260088152676c616e677561676560c01b6020820152610fc4908290611735565b6040830151610fdb908015610f9357610f93611d25565b604080518082019091526006815265736f7572636560d01b6020820152611003908290611735565b6060830151611013908290611735565b60a0830151511561109f576040805180820190915260048152636172677360e01b6020820152611044908290611735565b61104d8161178c565b60005b8360a00151518110156110955761108d8460a0015182815181106110765761107661209b565b60200260200101518361173590919063ffffffff16565b600101611050565b5061109f816117b0565b60808301515115611163576000836020015160028111156110c2576110c2611d25565b036110e05760405163a80d31f760e01b815260040160405180910390fd5b60408051808201909152600f81526e39b2b1b932ba39a637b1b0ba34b7b760891b6020820152611111908290611735565b61112a83602001516002811115610f9357610f93611d25565b6040805180820190915260078152667365637265747360c81b6020820152611153908290611735565b60808301516111639082906117ce565b60c083015151156111f45760408051808201909152600981526862797465734172677360b81b6020820152611199908290611735565b6111a28161178c565b60005b8360c00151518110156111ea576111e28460c0015182815181106111cb576111cb61209b565b6020026020010151836117ce90919063ffffffff16565b6001016111a5565b506111f4816117b0565b515192915050565b6000807f00000000000000000000000000000000000000000000000000000000000000006001600160a01b031663461d27628688600188886040518663ffffffff1660e01b81526004016112549594939291906120b1565b6020604051808303816000875af1158015611273573d6000803e3d6000fd5b505050506040513d601f19601f820116820180604052508101906112979190612112565b60405190915081907f1131472297a800fee664d1d89cfa8f7676ff07189ecc53f80bbb5f4969099db890600090a295945050505050565b606060405180610140016040528061011e815260200161246761011e9139905090565b60606112fc82611322565b60405160200161130c919061212b565b6040516020818303038152906040529050919050565b604051606082811b6bffffffffffffffffffffffff191660208301529060009060340160408051808303601f1901815261020083018252600360fc1b8352603160f81b6020840152601960f91b83830152603360f81b606080850191909152600d60fa1b6080850152603560f81b60a0850152601b60f91b60c0850152603760f81b60e0850152600760fb1b610100850152603960f81b610120850152606160f81b610140850152603160f91b610160850152606360f81b610180850152601960fa1b6101a0850152606560f81b6101c0850152603360f91b6101e08501528251602a80825291810190935290935060009190602082018180368337019050509050600360fc1b8160008151811061143c5761143c61209b565b60200101906001600160f81b031916908160001a905350600f60fb1b8160018151811061146b5761146b61209b565b60200101906001600160f81b031916908160001a90535060005b6014811015611584578260048583815181106114a3576114a361209b565b01602001516001600160f81b031916901c60f81c601081106114c7576114c761209b565b6020020151826114d88360026122c8565b6114e39060026122df565b815181106114f3576114f361209b565b60200101906001600160f81b031916908160001a9053508284828151811061151d5761151d61209b565b60209101015160f81c600f16601081106115395761153961209b565b60200201518261154a8360026122c8565b6115559060036122df565b815181106115655761156561209b565b60200101906001600160f81b031916908160001a905350600101611485565b50949350505050565b6060816000036115b45750506040805180820190915260018152600360fc1b602082015290565b8160005b81156115de57806115c8816122f2565b91506115d79050600a83612321565b91506115b8565b6000816001600160401b038111156115f8576115f8611bf9565b6040519080825280601f01601f191660200182016040528015611622576020820181803683370190505b5090505b841561168e578161163681612335565b92506116459050600a8661234c565b6116509060306122df565b60f81b8183815181106116655761166561209b565b60200101906001600160f81b031916908160001a905350611687600a86612321565b9450611626565b949350505050565b80516000036116b8576040516322ce3edd60e01b815260040160405180910390fd5b838360028111156116cb576116cb611d25565b908160028111156116de576116de611d25565b905250604084018280156116f4576116f4611d25565b9081801561170457611704611d25565b9052506060909301929092525050565b61171c611bc4565b805161172890836117db565b5060006020820152919050565b6117428260038351611852565b815161174e9082611971565b505050565b81516117609060c2611999565b50610f30828260405160200161177891815260200190565b6040516020818303038152906040526117ce565b611797816004611a02565b6001816020018181516117aa91906122df565b90525050565b6117bb816007611a02565b6001816020018181516117aa9190612360565b6117428260028351611852565b6040805180820190915260608152600060208201526117fb60208361234c565b156118235761180b60208361234c565b611816906020612360565b61182090836122df565b91505b60208084018390526040518085526000815290818401018181101561184757600080fd5b604052509192915050565b6017816001600160401b03161161187e5782516118789060e0600585901b168317611999565b50505050565b60ff816001600160401b0316116118be5782516118a6906018611fe0600586901b1617611999565b508251611878906001600160401b0383166001611a19565b61ffff816001600160401b0316116118ff5782516118e7906019611fe0600586901b1617611999565b508251611878906001600160401b0383166002611a19565b63ffffffff816001600160401b03161161194257825161192a90601a611fe0600586901b1617611999565b508251611878906001600160401b0383166004611a19565b825161195990601b611fe0600586901b1617611999565b508251611878906001600160401b0383166008611a19565b60408051808201909152606081526000602082015261199283838451611a9e565b9392505050565b60408051808201909152606081526000602082015282515160006119be8260016122df565b9050846020015182106119df576119df856119da8360026122c8565b611b6f565b84516020838201018581535080518211156119f8578181525b5093949350505050565b815161174e90601f611fe0600585901b1617611999565b6040805180820190915260608152600060208201528351516000611a3d82856122df565b90508560200151811115611a5a57611a5a866119da8360026122c8565b60006001611a6a8661010061245a565b611a749190612360565b90508651828101878319825116178152508051831115611a92578281525b50959695505050505050565b6040805180820190915260608152600060208201528251821115611ac157600080fd5b8351516000611ad084836122df565b90508560200151811115611aed57611aed866119da8360026122c8565b855180518382016020019160009180851115611b07578482525b505050602086015b60208610611b475780518252611b266020836122df565b9150611b336020826122df565b9050611b40602087612360565b9550611b0f565b51815160001960208890036101000a0190811690199190911617905250849150509392505050565b8151611b7b83836117db565b506118788382611971565b6040805160e0810190915280600081526020016000815260200160008152602001606081526020016060815260200160608152602001606081525090565b6040518060400160405280611bec604051806040016040528060608152602001600081525090565b8152602001600081525090565b634e487b7160e01b600052604160045260246000fd5b600082601f830112611c2057600080fd5b81356001600160401b03811115611c3957611c39611bf9565b604051601f8201601f19908116603f011681016001600160401b0381118282101715611c6757611c67611bf9565b604052818152838201602001851015611c7f57600080fd5b816020850160208301376000918101602001919091529392505050565b600080600060608486031215611cb157600080fd5b8335925060208401356001600160401b03811115611cce57600080fd5b611cda86828701611c0f565b92505060408401356001600160401b03811115611cf657600080fd5b611d0286828701611c0f565b9150509250925092565b600060208284031215611d1e57600080fd5b5035919050565b634e487b7160e01b600052602160045260246000fd5b60038110611d5957634e487b7160e01b600052602160045260246000fd5b9052565b6001600160a01b038516815260808101611d7a6020830186611d3b565b6001600160a01b039390931660408201526060015292915050565b80356001600160a01b0381168114610a9257600080fd5b60008060408385031215611dbf57600080fd5b611dc883611d95565b946020939093013593505050565b600060208284031215611de857600080fd5b61199282611d95565b600080600060608486031215611e0657600080fd5b611e0f84611d95565b95602085013595506040909401359392505050565b602080825260149082015273496e76616c69642075736572206164647265737360601b604082015260600190565b602081016104448284611d3b565b600080600060608486031215611e7557600080fd5b5050815160208301516040909301519094929350919050565b60005b83811015611ea9578181015183820152602001611e91565b50506000910152565b6d636f6e73742075736572203d202760901b815260008351611edb81600e850160208801611e8e565b61273b60f01b600e9184019182015273636f6e73742070726f706f73616c4964203d202760601b60108201528351611f1a816024840160208801611e8e565b61273b60f01b602492909101918201527f636f6e737420617069526573706f6e7365203d2061776169742046756e63746960268201527f6f6e732e6d616b654874747052657175657374287b75726c3a2027687474707360468201527f3a2f2f75626934616c6c2d64616f2d6170692e636f6d2f636f7272656c61746960668201527f6f6e272c706172616d733a207b20757365723a20757365722c2070726f706f7360868201527f616c49643a2070726f706f73616c4964207d7d293b696620286170695265737060a68201527f6f6e73652e6572726f7229207b207468726f77204572726f722827415049204560c68201527f72726f7227293b207d636f6e73742073636f7265203d204d6174682e6d696e2860e68201527f617069526573706f6e73652e646174612e73636f72652c20313030293b7265746101068201527f75726e2046756e6374696f6e732e656e636f646555696e743235362873636f726101268201526265293b60e81b61014682015261014901949350505050565b634e487b7160e01b600052603260045260246000fd5b6001600160401b038616815260a06020820152600085518060a08401526120df8160c0850160208a01611e8e565b61ffff9590951660408301525063ffffffff929092166060830152608082015260c0601f909201601f1916010192915050565b60006020828403121561212457600080fd5b5051919050565b6d636f6e73742075736572203d202760901b81526000825161215481600e850160208701611e8e565b61273b60f01b600e9390910192830152507f636f6e737420617069526573706f6e7365203d2061776169742046756e63746960108201527f6f6e732e6d616b654874747052657175657374287b75726c3a2027687474707360308201527f3a2f2f75626934616c6c2d64616f2d6170692e636f6d2f72657075746174696f60508201527f6e272c706172616d733a207b20757365723a2075736572207d7d293b6966202860708201527f617069526573706f6e73652e6572726f7229207b207468726f77204572726f7260908201527f2827415049204572726f7227293b207d636f6e73742073636f7265203d204d6160b08201527f74682e6d696e28617069526573706f6e73652e646174612e73636f72652c203160d08201527f3030293b72657475726e2046756e6374696f6e732e656e636f646555696e743260f08201526935362873636f7265293b60b01b61011082015261011a01919050565b634e487b7160e01b600052601160045260246000fd5b8082028115828204841417610444576104446122b2565b80820180821115610444576104446122b2565b600060018201612304576123046122b2565b5060010190565b634e487b7160e01b600052601260045260246000fd5b6000826123305761233061230b565b500490565b600081612344576123446122b2565b506000190190565b60008261235b5761235b61230b565b500690565b81810381811115610444576104446122b2565b6001815b60018411156123ae57808504811115612392576123926122b2565b60018416156123a057908102905b60019390931c928002612377565b935093915050565b6000826123c557506001610444565b816123d257506000610444565b81600181146123e857600281146123f25761240e565b6001915050610444565b60ff841115612403576124036122b2565b50506001821b610444565b5060208310610133831016604e8410600b8410161715612431575081810a610444565b61243e6000198484612373565b8060001904821115612452576124526122b2565b029392505050565b600061199283836123b656fe636f6e737420617069526573706f6e7365203d2061776169742046756e6374696f6e732e6d616b654874747052657175657374287b75726c3a202768747470733a2f2f6170692e717569636b737761702e65786368616e67652f76312f7072696365272c706172616d733a207b20746f6b656e3a2027513441272c20626173653a202755534427207d7d293b69662028617069526573706f6e73652e6572726f7229207b207468726f77204572726f722827415049204572726f7227293b207d636f6e7374207072696365203d204d6174682e726f756e6428617069526573706f6e73652e646174612e7072696365202a2031302a2a38293b72657475726e2046756e6374696f6e732e656e636f6465496e74323536287072696365293ba2646970667358221220d3ad49c78239b2f0504ebbd707a7c120d284befe98eebc26c2ffd02a2c65d40164736f6c634300081c0033",
			"opcodes": "PUSH1 0xA0 PUSH1 0x40 MSTORE PUSH1 0x7 DUP1 SLOAD PUSH4 0xFFFFFFFF PUSH1 0x40 SHL NOT AND PUSH11 0x493E00000000000000000 OR SWAP1 SSTORE CALLVALUE DUP1 ISZERO PUSH2 0x2D JUMPI PUSH1 0x0 DUP1 REVERT JUMPDEST POP PUSH1 0x40 MLOAD PUSH2 0x28FB CODESIZE SUB DUP1 PUSH2 0x28FB DUP4 CODECOPY DUP2 ADD PUSH1 0x40 DUP2 SWAP1 MSTORE PUSH2 0x4C SWAP2 PUSH2 0x197 JUMP JUMPDEST DUP4 DUP2 PUSH1 0x1 PUSH1 0x1 PUSH1 0xA0 SHL SUB DUP2 AND PUSH2 0x7D JUMPI PUSH1 0x40 MLOAD PUSH4 0x1E4FBDF7 PUSH1 0xE0 SHL DUP2 MSTORE PUSH1 0x0 PUSH1 0x4 DUP3 ADD MSTORE PUSH1 0x24 ADD JUMPDEST PUSH1 0x40 MLOAD DUP1 SWAP2 SUB SWAP1 REVERT JUMPDEST PUSH2 0x86 DUP2 PUSH2 0x12B JUMP JUMPDEST POP PUSH1 0x1 PUSH1 0x1 PUSH1 0xA0 SHL SUB SWAP1 DUP2 AND PUSH1 0x80 MSTORE DUP5 AND PUSH2 0xE3 JUMPI PUSH1 0x40 MLOAD PUSH3 0x461BCD PUSH1 0xE5 SHL DUP2 MSTORE PUSH1 0x20 PUSH1 0x4 DUP3 ADD MSTORE PUSH1 0x16 PUSH1 0x24 DUP3 ADD MSTORE PUSH32 0x496E76616C696420726F75746572206164647265737300000000000000000000 PUSH1 0x44 DUP3 ADD MSTORE PUSH1 0x64 ADD PUSH2 0x74 JUMP JUMPDEST PUSH1 0x6 DUP4 SWAP1 SSTORE PUSH1 0x7 DUP1 SLOAD PUSH1 0x1 PUSH1 0x1 PUSH1 0x40 SHL SUB NOT AND PUSH1 0x1 PUSH1 0x1 PUSH1 0x40 SHL SUB DUP5 AND OR SWAP1 SSTORE PUSH2 0x10F PUSH1 0x8 PUSH1 0xA PUSH2 0x2F2 JUMP JUMPDEST PUSH2 0x11A SWAP1 PUSH1 0x1 PUSH2 0x308 JUMP JUMPDEST PUSH1 0x3 SSTORE POP POP TIMESTAMP PUSH1 0x4 SSTORE POP PUSH2 0x31F SWAP1 POP JUMP JUMPDEST PUSH1 0x0 DUP1 SLOAD PUSH1 0x1 PUSH1 0x1 PUSH1 0xA0 SHL SUB DUP4 DUP2 AND PUSH1 0x1 PUSH1 0x1 PUSH1 0xA0 SHL SUB NOT DUP4 AND DUP2 OR DUP5 SSTORE PUSH1 0x40 MLOAD SWAP2 SWAP1 SWAP3 AND SWAP3 DUP4 SWAP2 PUSH32 0x8BE0079C531659141344CD1FD0A4F28419497F9722A3DAAFE3B4186F6B6457E0 SWAP2 SWAP1 LOG3 POP POP JUMP JUMPDEST DUP1 MLOAD PUSH1 0x1 PUSH1 0x1 PUSH1 0xA0 SHL SUB DUP2 AND DUP2 EQ PUSH2 0x192 JUMPI PUSH1 0x0 DUP1 REVERT JUMPDEST SWAP2 SWAP1 POP JUMP JUMPDEST PUSH1 0x0 DUP1 PUSH1 0x0 DUP1 PUSH1 0x80 DUP6 DUP8 SUB SLT ISZERO PUSH2 0x1AD JUMPI PUSH1 0x0 DUP1 REVERT JUMPDEST PUSH2 0x1B6 DUP6 PUSH2 0x17B JUMP JUMPDEST PUSH1 0x20 DUP7 ADD MLOAD PUSH1 0x40 DUP8 ADD MLOAD SWAP2 SWAP6 POP SWAP4 POP PUSH1 0x1 PUSH1 0x1 PUSH1 0x40 SHL SUB DUP2 AND DUP2 EQ PUSH2 0x1DA JUMPI PUSH1 0x0 DUP1 REVERT JUMPDEST SWAP2 POP PUSH2 0x1E8 PUSH1 0x60 DUP7 ADD PUSH2 0x17B JUMP JUMPDEST SWAP1 POP SWAP3 SWAP6 SWAP2 SWAP5 POP SWAP3 POP JUMP JUMPDEST PUSH4 0x4E487B71 PUSH1 0xE0 SHL PUSH1 0x0 MSTORE PUSH1 0x11 PUSH1 0x4 MSTORE PUSH1 0x24 PUSH1 0x0 REVERT JUMPDEST PUSH1 0x1 DUP2 JUMPDEST PUSH1 0x1 DUP5 GT ISZERO PUSH2 0x244 JUMPI DUP1 DUP6 DIV DUP2 GT ISZERO PUSH2 0x228 JUMPI PUSH2 0x228 PUSH2 0x1F3 JUMP JUMPDEST PUSH1 0x1 DUP5 AND ISZERO PUSH2 0x236 JUMPI SWAP1 DUP2 MUL SWAP1 JUMPDEST PUSH1 0x1 SWAP4 SWAP1 SWAP4 SHR SWAP3 DUP1 MUL PUSH2 0x20D JUMP JUMPDEST SWAP4 POP SWAP4 SWAP2 POP POP JUMP JUMPDEST PUSH1 0x0 DUP3 PUSH2 0x25B JUMPI POP PUSH1 0x1 PUSH2 0x2EC JUMP JUMPDEST DUP2 PUSH2 0x268 JUMPI POP PUSH1 0x0 PUSH2 0x2EC JUMP JUMPDEST DUP2 PUSH1 0x1 DUP2 EQ PUSH2 0x27E JUMPI PUSH1 0x2 DUP2 EQ PUSH2 0x288 JUMPI PUSH2 0x2A4 JUMP JUMPDEST PUSH1 0x1 SWAP2 POP POP PUSH2 0x2EC JUMP JUMPDEST PUSH1 0xFF DUP5 GT ISZERO PUSH2 0x299 JUMPI PUSH2 0x299 PUSH2 0x1F3 JUMP JUMPDEST POP POP PUSH1 0x1 DUP3 SHL PUSH2 0x2EC JUMP JUMPDEST POP PUSH1 0x20 DUP4 LT PUSH2 0x133 DUP4 LT AND PUSH1 0x4E DUP5 LT PUSH1 0xB DUP5 LT AND OR ISZERO PUSH2 0x2C7 JUMPI POP DUP2 DUP2 EXP PUSH2 0x2EC JUMP JUMPDEST PUSH2 0x2D4 PUSH1 0x0 NOT DUP5 DUP5 PUSH2 0x209 JUMP JUMPDEST DUP1 PUSH1 0x0 NOT DIV DUP3 GT ISZERO PUSH2 0x2E8 JUMPI PUSH2 0x2E8 PUSH2 0x1F3 JUMP JUMPDEST MUL SWAP1 POP JUMPDEST SWAP3 SWAP2 POP POP JUMP JUMPDEST PUSH1 0x0 PUSH2 0x301 PUSH1 0xFF DUP5 AND DUP4 PUSH2 0x24C JUMP JUMPDEST SWAP4 SWAP3 POP POP POP JUMP JUMPDEST DUP1 DUP3 MUL DUP2 ISZERO DUP3 DUP3 DIV DUP5 EQ OR PUSH2 0x2EC JUMPI PUSH2 0x2EC PUSH2 0x1F3 JUMP JUMPDEST PUSH1 0x80 MLOAD PUSH2 0x25BA PUSH2 0x341 PUSH1 0x0 CODECOPY PUSH1 0x0 DUP2 DUP2 PUSH2 0x3A6 ADD MSTORE PUSH2 0x1201 ADD MSTORE PUSH2 0x25BA PUSH1 0x0 RETURN INVALID PUSH1 0x80 PUSH1 0x40 MSTORE CALLVALUE DUP1 ISZERO PUSH2 0x10 JUMPI PUSH1 0x0 DUP1 REVERT JUMPDEST POP PUSH1 0x4 CALLDATASIZE LT PUSH2 0x158 JUMPI PUSH1 0x0 CALLDATALOAD PUSH1 0xE0 SHR DUP1 PUSH4 0x93DB5E37 GT PUSH2 0xC3 JUMPI DUP1 PUSH4 0xDEDE852F GT PUSH2 0x7C JUMPI DUP1 PUSH4 0xDEDE852F EQ PUSH2 0x2EB JUMPI DUP1 PUSH4 0xE7EC0533 EQ PUSH2 0x2FE JUMPI DUP1 PUSH4 0xF2FDE38B EQ PUSH2 0x329 JUMPI DUP1 PUSH4 0xF55494F8 EQ PUSH2 0x33C JUMPI DUP1 PUSH4 0xF68016B7 EQ PUSH2 0x34F JUMPI DUP1 PUSH4 0xFE0438B2 EQ PUSH2 0x37B JUMPI PUSH1 0x0 DUP1 REVERT JUMPDEST DUP1 PUSH4 0x93DB5E37 EQ PUSH2 0x2AD JUMPI DUP1 PUSH4 0x964EA12A EQ PUSH2 0x2C0 JUMPI DUP1 PUSH4 0x9AF6BCA5 EQ PUSH2 0x2C8 JUMPI DUP1 PUSH4 0xB331799E EQ PUSH2 0x2D0 JUMPI DUP1 PUSH4 0xBE152B61 EQ PUSH2 0x2C0 JUMPI DUP1 PUSH4 0xD98E7821 EQ PUSH2 0x2D8 JUMPI PUSH1 0x0 DUP1 REVERT JUMPDEST DUP1 PUSH4 0x6E74336B GT PUSH2 0x115 JUMPI DUP1 PUSH4 0x6E74336B EQ PUSH2 0x23C JUMPI DUP1 PUSH4 0x715018A6 EQ PUSH2 0x245 JUMPI DUP1 PUSH4 0x751BB598 EQ PUSH2 0x24D JUMPI DUP1 PUSH4 0x75A67D5C EQ PUSH2 0x256 JUMPI DUP1 PUSH4 0x8213B4CF EQ PUSH2 0x27F JUMPI DUP1 PUSH4 0x8DA5CB5B EQ PUSH2 0x292 JUMPI PUSH1 0x0 DUP1 REVERT JUMPDEST DUP1 PUSH4 0x9C1BA2E EQ PUSH2 0x15D JUMPI DUP1 PUSH4 0xCA76175 EQ PUSH2 0x18D JUMPI DUP1 PUSH4 0x2795AD20 EQ PUSH2 0x1A2 JUMPI DUP1 PUSH4 0x2E0F2625 EQ PUSH2 0x1F8 JUMPI DUP1 PUSH4 0x53D2262B EQ PUSH2 0x212 JUMPI DUP1 PUSH4 0x6949FAEB EQ PUSH2 0x233 JUMPI JUMPDEST PUSH1 0x0 DUP1 REVERT JUMPDEST PUSH1 0x7 SLOAD PUSH2 0x170 SWAP1 PUSH1 0x1 PUSH1 0x1 PUSH1 0x40 SHL SUB AND DUP2 JUMP JUMPDEST PUSH1 0x40 MLOAD PUSH1 0x1 PUSH1 0x1 PUSH1 0x40 SHL SUB SWAP1 SWAP2 AND DUP2 MSTORE PUSH1 0x20 ADD JUMPDEST PUSH1 0x40 MLOAD DUP1 SWAP2 SUB SWAP1 RETURN JUMPDEST PUSH2 0x1A0 PUSH2 0x19B CALLDATASIZE PUSH1 0x4 PUSH2 0x1C9C JUMP JUMPDEST PUSH2 0x39B JUMP JUMPDEST STOP JUMPDEST PUSH2 0x1E8 PUSH2 0x1B0 CALLDATASIZE PUSH1 0x4 PUSH2 0x1D0C JUMP JUMPDEST PUSH1 0x5 PUSH1 0x20 MSTORE PUSH1 0x0 SWAP1 DUP2 MSTORE PUSH1 0x40 SWAP1 KECCAK256 DUP1 SLOAD PUSH1 0x1 DUP3 ADD SLOAD PUSH1 0x2 SWAP1 SWAP3 ADD SLOAD PUSH1 0x1 PUSH1 0x1 PUSH1 0xA0 SHL SUB DUP1 DUP4 AND SWAP4 PUSH1 0x1 PUSH1 0xA0 SHL SWAP1 SWAP4 DIV PUSH1 0xFF AND SWAP3 AND SWAP1 DUP5 JUMP JUMPDEST PUSH1 0x40 MLOAD PUSH2 0x184 SWAP5 SWAP4 SWAP3 SWAP2 SWAP1 PUSH2 0x1D5D JUMP JUMPDEST PUSH2 0x200 PUSH1 0x8 DUP2 JUMP JUMPDEST PUSH1 0x40 MLOAD PUSH1 0xFF SWAP1 SWAP2 AND DUP2 MSTORE PUSH1 0x20 ADD PUSH2 0x184 JUMP JUMPDEST PUSH2 0x225 PUSH2 0x220 CALLDATASIZE PUSH1 0x4 PUSH2 0x1DAC JUMP JUMPDEST PUSH2 0x41F JUMP JUMPDEST PUSH1 0x40 MLOAD SWAP1 DUP2 MSTORE PUSH1 0x20 ADD PUSH2 0x184 JUMP JUMPDEST PUSH2 0x225 PUSH1 0x4 SLOAD DUP2 JUMP JUMPDEST PUSH2 0x225 PUSH1 0x6 SLOAD DUP2 JUMP JUMPDEST PUSH2 0x1A0 PUSH2 0x44A JUMP JUMPDEST PUSH2 0x225 PUSH1 0x3 SLOAD DUP2 JUMP JUMPDEST PUSH2 0x225 PUSH2 0x264 CALLDATASIZE PUSH1 0x4 PUSH2 0x1DD6 JUMP JUMPDEST PUSH1 0x1 PUSH1 0x1 PUSH1 0xA0 SHL SUB AND PUSH1 0x0 SWAP1 DUP2 MSTORE PUSH1 0x1 PUSH1 0x20 MSTORE PUSH1 0x40 SWAP1 KECCAK256 SLOAD SWAP1 JUMP JUMPDEST PUSH2 0x225 PUSH2 0x28D CALLDATASIZE PUSH1 0x4 PUSH2 0x1DAC JUMP JUMPDEST PUSH2 0x45E JUMP JUMPDEST PUSH1 0x0 SLOAD PUSH1 0x40 MLOAD PUSH1 0x1 PUSH1 0x1 PUSH1 0xA0 SHL SUB SWAP1 SWAP2 AND DUP2 MSTORE PUSH1 0x20 ADD PUSH2 0x184 JUMP JUMPDEST PUSH2 0x1A0 PUSH2 0x2BB CALLDATASIZE PUSH1 0x4 PUSH2 0x1DAC JUMP JUMPDEST PUSH2 0x626 JUMP JUMPDEST PUSH2 0x225 PUSH1 0x64 DUP2 JUMP JUMPDEST PUSH1 0x3 SLOAD PUSH2 0x225 JUMP JUMPDEST PUSH2 0x225 PUSH2 0x6FE JUMP JUMPDEST PUSH2 0x1A0 PUSH2 0x2E6 CALLDATASIZE PUSH1 0x4 PUSH2 0x1DF1 JUMP JUMPDEST PUSH2 0x81C JUMP JUMPDEST PUSH2 0x225 PUSH2 0x2F9 CALLDATASIZE PUSH1 0x4 PUSH2 0x1DD6 JUMP JUMPDEST PUSH2 0x940 JUMP JUMPDEST PUSH2 0x225 PUSH2 0x30C CALLDATASIZE PUSH1 0x4 PUSH2 0x1DAC JUMP JUMPDEST PUSH1 0x2 PUSH1 0x20 SWAP1 DUP2 MSTORE PUSH1 0x0 SWAP3 DUP4 MSTORE PUSH1 0x40 DUP1 DUP5 KECCAK256 SWAP1 SWAP2 MSTORE SWAP1 DUP3 MSTORE SWAP1 KECCAK256 SLOAD DUP2 JUMP JUMPDEST PUSH2 0x1A0 PUSH2 0x337 CALLDATASIZE PUSH1 0x4 PUSH2 0x1DD6 JUMP JUMPDEST PUSH2 0xA97 JUMP JUMPDEST PUSH2 0x1A0 PUSH2 0x34A CALLDATASIZE PUSH1 0x4 PUSH2 0x1D0C JUMP JUMPDEST PUSH2 0xAD5 JUMP JUMPDEST PUSH1 0x7 SLOAD PUSH2 0x366 SWAP1 PUSH1 0x1 PUSH1 0x40 SHL SWAP1 DIV PUSH4 0xFFFFFFFF AND DUP2 JUMP JUMPDEST PUSH1 0x40 MLOAD PUSH4 0xFFFFFFFF SWAP1 SWAP2 AND DUP2 MSTORE PUSH1 0x20 ADD PUSH2 0x184 JUMP JUMPDEST PUSH2 0x225 PUSH2 0x389 CALLDATASIZE PUSH1 0x4 PUSH2 0x1DD6 JUMP JUMPDEST PUSH1 0x1 PUSH1 0x20 MSTORE PUSH1 0x0 SWAP1 DUP2 MSTORE PUSH1 0x40 SWAP1 KECCAK256 SLOAD DUP2 JUMP JUMPDEST CALLER PUSH1 0x1 PUSH1 0x1 PUSH1 0xA0 SHL SUB PUSH32 0x0 AND EQ PUSH2 0x3E4 JUMPI PUSH1 0x40 MLOAD PUSH4 0xC6829F83 PUSH1 0xE0 SHL DUP2 MSTORE PUSH1 0x4 ADD PUSH1 0x40 MLOAD DUP1 SWAP2 SUB SWAP1 REVERT JUMPDEST PUSH2 0x3EF DUP4 DUP4 DUP4 PUSH2 0xB65 JUMP JUMPDEST PUSH1 0x40 MLOAD DUP4 SWAP1 PUSH32 0x85E1543BF2F84FE80C6BADBCE3648C8539AD1DF4D2B3D822938CA0538BE727E6 SWAP1 PUSH1 0x0 SWAP1 LOG2 POP POP POP JUMP JUMPDEST PUSH1 0x1 PUSH1 0x1 PUSH1 0xA0 SHL SUB DUP3 AND PUSH1 0x0 SWAP1 DUP2 MSTORE PUSH1 0x2 PUSH1 0x20 SWAP1 DUP2 MSTORE PUSH1 0x40 DUP1 DUP4 KECCAK256 DUP5 DUP5 MSTORE SWAP1 SWAP2 MSTORE SWAP1 KECCAK256 SLOAD JUMPDEST SWAP3 SWAP2 POP POP JUMP JUMPDEST PUSH2 0x452 PUSH2 0xE6A JUMP JUMPDEST PUSH2 0x45C PUSH1 0x0 PUSH2 0xE97 JUMP JUMPDEST JUMP JUMPDEST PUSH1 0x0 PUSH2 0x468 PUSH2 0xE6A JUMP JUMPDEST PUSH1 0x1 PUSH1 0x1 PUSH1 0xA0 SHL SUB DUP4 AND PUSH2 0x497 JUMPI PUSH1 0x40 MLOAD PUSH3 0x461BCD PUSH1 0xE5 SHL DUP2 MSTORE PUSH1 0x4 ADD PUSH2 0x48E SWAP1 PUSH2 0x1E24 JUMP JUMPDEST PUSH1 0x40 MLOAD DUP1 SWAP2 SUB SWAP1 REVERT JUMPDEST PUSH1 0x0 DUP3 GT PUSH2 0x4DD JUMPI PUSH1 0x40 MLOAD PUSH3 0x461BCD PUSH1 0xE5 SHL DUP2 MSTORE PUSH1 0x20 PUSH1 0x4 DUP3 ADD MSTORE PUSH1 0x13 PUSH1 0x24 DUP3 ADD MSTORE PUSH19 0x125B9D985B1A59081C1C9BDC1BDCD85B081251 PUSH1 0x6A SHL PUSH1 0x44 DUP3 ADD MSTORE PUSH1 0x64 ADD PUSH2 0x48E JUMP JUMPDEST PUSH2 0x4E5 PUSH2 0x1B86 JUMP JUMPDEST PUSH2 0x4F9 PUSH2 0x4F2 DUP6 DUP6 PUSH2 0xEE7 JUMP JUMPDEST DUP3 SWAP1 PUSH2 0xF23 JUMP JUMPDEST PUSH2 0x529 PUSH2 0x505 DUP3 PUSH2 0xF34 JUMP JUMPDEST PUSH1 0x7 SLOAD PUSH1 0x6 SLOAD PUSH1 0x1 PUSH1 0x1 PUSH1 0x40 SHL SUB DUP3 AND SWAP2 PUSH1 0x1 PUSH1 0x40 SHL SWAP1 DIV PUSH4 0xFFFFFFFF AND SWAP1 PUSH2 0x11FC JUMP JUMPDEST PUSH1 0x40 DUP1 MLOAD PUSH1 0x80 DUP2 ADD SWAP1 SWAP2 MSTORE CALLER DUP2 MSTORE SWAP1 SWAP3 POP PUSH1 0x20 DUP2 ADD PUSH1 0x2 DUP2 MSTORE PUSH1 0x1 PUSH1 0x1 PUSH1 0xA0 SHL SUB DUP1 DUP8 AND PUSH1 0x20 DUP1 DUP5 ADD SWAP2 SWAP1 SWAP2 MSTORE PUSH1 0x40 SWAP3 DUP4 ADD DUP8 SWAP1 MSTORE PUSH1 0x0 DUP7 DUP2 MSTORE PUSH1 0x5 DUP3 MSTORE SWAP3 SWAP1 SWAP3 KECCAK256 DUP4 MLOAD DUP2 SLOAD SWAP3 AND PUSH1 0x1 PUSH1 0x1 PUSH1 0xA0 SHL SUB NOT DUP4 AND DUP2 OR DUP3 SSTORE SWAP3 DUP5 ADD MLOAD SWAP1 SWAP3 SWAP1 SWAP2 DUP4 SWAP2 PUSH1 0x1 PUSH1 0x1 PUSH1 0xA8 SHL SUB NOT SWAP1 SWAP2 AND OR PUSH1 0x1 PUSH1 0xA0 SHL DUP4 PUSH1 0x2 DUP2 GT ISZERO PUSH2 0x5AE JUMPI PUSH2 0x5AE PUSH2 0x1D25 JUMP JUMPDEST MUL OR SWAP1 SSTORE POP PUSH1 0x40 DUP3 DUP2 ADD MLOAD PUSH1 0x1 DUP4 ADD DUP1 SLOAD PUSH1 0x1 PUSH1 0x1 PUSH1 0xA0 SHL SUB NOT AND PUSH1 0x1 PUSH1 0x1 PUSH1 0xA0 SHL SUB SWAP1 SWAP3 AND SWAP2 SWAP1 SWAP2 OR SWAP1 SSTORE PUSH1 0x60 SWAP1 SWAP3 ADD MLOAD PUSH1 0x2 SWAP2 DUP3 ADD SSTORE SWAP1 MLOAD CALLER SWAP2 DUP5 SWAP2 PUSH32 0xE0CBCA9C6411F8084BC50B0EEDBC1C05F0A53CDCFDC0FD487CDA1A66EC73E8D4 SWAP2 PUSH2 0x617 SWAP2 PUSH2 0x1E52 JUMP JUMPDEST PUSH1 0x40 MLOAD DUP1 SWAP2 SUB SWAP1 LOG3 POP SWAP3 SWAP2 POP POP JUMP JUMPDEST PUSH2 0x62E PUSH2 0xE6A JUMP JUMPDEST PUSH1 0x1 PUSH1 0x1 PUSH1 0xA0 SHL SUB DUP3 AND PUSH2 0x654 JUMPI PUSH1 0x40 MLOAD PUSH3 0x461BCD PUSH1 0xE5 SHL DUP2 MSTORE PUSH1 0x4 ADD PUSH2 0x48E SWAP1 PUSH2 0x1E24 JUMP JUMPDEST PUSH1 0x64 DUP2 GT ISZERO PUSH2 0x6A5 JUMPI PUSH1 0x40 MLOAD PUSH3 0x461BCD PUSH1 0xE5 SHL DUP2 MSTORE PUSH1 0x20 PUSH1 0x4 DUP3 ADD MSTORE PUSH1 0x18 PUSH1 0x24 DUP3 ADD MSTORE PUSH32 0x496E76616C69642072657075746174696F6E2073636F72650000000000000000 PUSH1 0x44 DUP3 ADD MSTORE PUSH1 0x64 ADD PUSH2 0x48E JUMP JUMPDEST PUSH1 0x1 PUSH1 0x1 PUSH1 0xA0 SHL SUB DUP3 AND PUSH1 0x0 DUP2 DUP2 MSTORE PUSH1 0x1 PUSH1 0x20 MSTORE PUSH1 0x40 SWAP1 DUP2 SWAP1 KECCAK256 DUP4 SWAP1 SSTORE MLOAD PUSH32 0xE00F1B5D37E934593FB70FCB5FD4703E66F533B6F2560437EC119178A815812D SWAP1 PUSH2 0x6F2 SWAP1 DUP5 DUP2 MSTORE PUSH1 0x20 ADD SWAP1 JUMP JUMPDEST PUSH1 0x40 MLOAD DUP1 SWAP2 SUB SWAP1 LOG2 POP POP JUMP JUMPDEST PUSH1 0x0 PUSH2 0x708 PUSH2 0xE6A JUMP JUMPDEST PUSH2 0x710 PUSH2 0x1B86 JUMP JUMPDEST PUSH2 0x71B PUSH2 0x4F2 PUSH2 0x12CE JUMP JUMPDEST PUSH2 0x727 PUSH2 0x505 DUP3 PUSH2 0xF34 JUMP JUMPDEST PUSH1 0x40 DUP1 MLOAD PUSH1 0x80 DUP2 ADD SWAP1 SWAP2 MSTORE CALLER DUP2 MSTORE SWAP1 SWAP3 POP PUSH1 0x20 DUP2 ADD PUSH1 0x0 DUP2 MSTORE PUSH1 0x0 PUSH1 0x20 DUP1 DUP4 ADD DUP3 SWAP1 MSTORE PUSH1 0x40 SWAP3 DUP4 ADD DUP3 SWAP1 MSTORE DUP6 DUP3 MSTORE PUSH1 0x5 DUP2 MSTORE SWAP2 SWAP1 KECCAK256 DUP3 MLOAD DUP2 SLOAD PUSH1 0x1 PUSH1 0x1 PUSH1 0xA0 SHL SUB SWAP2 SWAP1 SWAP2 AND PUSH1 0x1 PUSH1 0x1 PUSH1 0xA0 SHL SUB NOT DUP3 AND DUP2 OR DUP4 SSTORE SWAP3 DUP5 ADD MLOAD SWAP2 SWAP3 DUP4 SWAP2 PUSH1 0x1 PUSH1 0x1 PUSH1 0xA8 SHL SUB NOT AND OR PUSH1 0x1 PUSH1 0xA0 SHL DUP4 PUSH1 0x2 DUP2 GT ISZERO PUSH2 0x7A5 JUMPI PUSH2 0x7A5 PUSH2 0x1D25 JUMP JUMPDEST MUL OR SWAP1 SSTORE POP PUSH1 0x40 DUP3 DUP2 ADD MLOAD PUSH1 0x1 DUP4 ADD DUP1 SLOAD PUSH1 0x1 PUSH1 0x1 PUSH1 0xA0 SHL SUB NOT AND PUSH1 0x1 PUSH1 0x1 PUSH1 0xA0 SHL SUB SWAP1 SWAP3 AND SWAP2 SWAP1 SWAP2 OR SWAP1 SSTORE PUSH1 0x60 SWAP1 SWAP3 ADD MLOAD PUSH1 0x2 SWAP1 SWAP2 ADD SSTORE MLOAD CALLER SWAP1 DUP4 SWAP1 PUSH32 0xE0CBCA9C6411F8084BC50B0EEDBC1C05F0A53CDCFDC0FD487CDA1A66EC73E8D4 SWAP1 PUSH2 0x810 SWAP1 PUSH1 0x0 SWAP1 PUSH2 0x1E52 JUMP JUMPDEST PUSH1 0x40 MLOAD DUP1 SWAP2 SUB SWAP1 LOG3 POP SWAP1 JUMP JUMPDEST PUSH2 0x824 PUSH2 0xE6A JUMP JUMPDEST PUSH1 0x1 PUSH1 0x1 PUSH1 0xA0 SHL SUB DUP4 AND PUSH2 0x84A JUMPI PUSH1 0x40 MLOAD PUSH3 0x461BCD PUSH1 0xE5 SHL DUP2 MSTORE PUSH1 0x4 ADD PUSH2 0x48E SWAP1 PUSH2 0x1E24 JUMP JUMPDEST PUSH1 0x0 DUP3 GT PUSH2 0x890 JUMPI PUSH1 0x40 MLOAD PUSH3 0x461BCD PUSH1 0xE5 SHL DUP2 MSTORE PUSH1 0x20 PUSH1 0x4 DUP3 ADD MSTORE PUSH1 0x13 PUSH1 0x24 DUP3 ADD MSTORE PUSH19 0x125B9D985B1A59081C1C9BDC1BDCD85B081251 PUSH1 0x6A SHL PUSH1 0x44 DUP3 ADD MSTORE PUSH1 0x64 ADD PUSH2 0x48E JUMP JUMPDEST PUSH1 0x64 DUP2 GT ISZERO PUSH2 0x8E1 JUMPI PUSH1 0x40 MLOAD PUSH3 0x461BCD PUSH1 0xE5 SHL DUP2 MSTORE PUSH1 0x20 PUSH1 0x4 DUP3 ADD MSTORE PUSH1 0x19 PUSH1 0x24 DUP3 ADD MSTORE PUSH32 0x496E76616C696420636F7272656C6174696F6E2073636F726500000000000000 PUSH1 0x44 DUP3 ADD MSTORE PUSH1 0x64 ADD PUSH2 0x48E JUMP JUMPDEST PUSH1 0x1 PUSH1 0x1 PUSH1 0xA0 SHL SUB DUP4 AND PUSH1 0x0 DUP2 DUP2 MSTORE PUSH1 0x2 PUSH1 0x20 SWAP1 DUP2 MSTORE PUSH1 0x40 DUP1 DUP4 KECCAK256 DUP7 DUP5 MSTORE DUP3 MSTORE SWAP2 DUP3 SWAP1 KECCAK256 DUP5 SWAP1 SSTORE SWAP1 MLOAD DUP4 DUP2 MSTORE DUP5 SWAP3 SWAP2 PUSH32 0xDDF0BEC76D6B8F0EC241EE38557441A708EBFE4F327F1955AFC54E21A977FC71 SWAP2 ADD PUSH1 0x40 MLOAD DUP1 SWAP2 SUB SWAP1 LOG3 POP POP POP JUMP JUMPDEST PUSH1 0x0 PUSH2 0x94A PUSH2 0xE6A JUMP JUMPDEST PUSH1 0x1 PUSH1 0x1 PUSH1 0xA0 SHL SUB DUP3 AND PUSH2 0x970 JUMPI PUSH1 0x40 MLOAD PUSH3 0x461BCD PUSH1 0xE5 SHL DUP2 MSTORE PUSH1 0x4 ADD PUSH2 0x48E SWAP1 PUSH2 0x1E24 JUMP JUMPDEST PUSH2 0x978 PUSH2 0x1B86 JUMP JUMPDEST PUSH2 0x984 PUSH2 0x4F2 DUP5 PUSH2 0x12F1 JUMP JUMPDEST PUSH2 0x990 PUSH2 0x505 DUP3 PUSH2 0xF34 JUMP JUMPDEST PUSH1 0x40 DUP1 MLOAD PUSH1 0x80 DUP2 ADD DUP3 MSTORE CALLER DUP2 MSTORE PUSH1 0x1 PUSH1 0x20 DUP1 DUP4 ADD SWAP2 DUP3 MSTORE PUSH1 0x1 PUSH1 0x1 PUSH1 0xA0 SHL SUB DUP9 DUP2 AND DUP5 DUP7 ADD MSTORE PUSH1 0x0 PUSH1 0x60 DUP6 ADD DUP2 SWAP1 MSTORE DUP7 DUP2 MSTORE PUSH1 0x5 SWAP1 SWAP3 MSTORE SWAP4 SWAP1 KECCAK256 DUP3 MLOAD DUP2 SLOAD SWAP5 AND PUSH1 0x1 PUSH1 0x1 PUSH1 0xA0 SHL SUB NOT DUP6 AND DUP2 OR DUP3 SSTORE SWAP2 MLOAD SWAP5 SWAP7 POP SWAP2 SWAP4 SWAP2 SWAP3 DUP4 SWAP2 PUSH1 0x1 PUSH1 0x1 PUSH1 0xA8 SHL SUB NOT SWAP1 SWAP2 AND OR PUSH1 0x1 PUSH1 0xA0 SHL DUP4 PUSH1 0x2 DUP2 GT ISZERO PUSH2 0xA0E JUMPI PUSH2 0xA0E PUSH2 0x1D25 JUMP JUMPDEST MUL OR SWAP1 SSTORE POP PUSH1 0x40 DUP3 ADD MLOAD DUP2 PUSH1 0x1 ADD PUSH1 0x0 PUSH2 0x100 EXP DUP2 SLOAD DUP2 PUSH1 0x1 PUSH1 0x1 PUSH1 0xA0 SHL SUB MUL NOT AND SWAP1 DUP4 PUSH1 0x1 PUSH1 0x1 PUSH1 0xA0 SHL SUB AND MUL OR SWAP1 SSTORE POP PUSH1 0x60 DUP3 ADD MLOAD DUP2 PUSH1 0x2 ADD SSTORE SWAP1 POP POP CALLER PUSH1 0x1 PUSH1 0x1 PUSH1 0xA0 SHL SUB AND DUP3 PUSH32 0xE0CBCA9C6411F8084BC50B0EEDBC1C05F0A53CDCFDC0FD487CDA1A66EC73E8D4 PUSH1 0x1 PUSH1 0x40 MLOAD PUSH2 0xA88 SWAP2 SWAP1 PUSH2 0x1E52 JUMP JUMPDEST PUSH1 0x40 MLOAD DUP1 SWAP2 SUB SWAP1 LOG3 POP JUMPDEST SWAP2 SWAP1 POP JUMP JUMPDEST PUSH2 0xA9F PUSH2 0xE6A JUMP JUMPDEST PUSH1 0x1 PUSH1 0x1 PUSH1 0xA0 SHL SUB DUP2 AND PUSH2 0xAC9 JUMPI PUSH1 0x40 MLOAD PUSH4 0x1E4FBDF7 PUSH1 0xE0 SHL DUP2 MSTORE PUSH1 0x0 PUSH1 0x4 DUP3 ADD MSTORE PUSH1 0x24 ADD PUSH2 0x48E JUMP JUMPDEST PUSH2 0xAD2 DUP2 PUSH2 0xE97 JUMP JUMPDEST POP JUMP JUMPDEST PUSH2 0xADD PUSH2 0xE6A JUMP JUMPDEST PUSH1 0x0 DUP2 SGT PUSH2 0xB1D JUMPI PUSH1 0x40 MLOAD PUSH3 0x461BCD PUSH1 0xE5 SHL DUP2 MSTORE PUSH1 0x20 PUSH1 0x4 DUP3 ADD MSTORE PUSH1 0xD PUSH1 0x24 DUP3 ADD MSTORE PUSH13 0x496E76616C6964207072696365 PUSH1 0x98 SHL PUSH1 0x44 DUP3 ADD MSTORE PUSH1 0x64 ADD PUSH2 0x48E JUMP JUMPDEST PUSH1 0x3 DUP2 SWAP1 SSTORE TIMESTAMP PUSH1 0x4 DUP2 SWAP1 SSTORE PUSH1 0x40 DUP1 MLOAD DUP4 DUP2 MSTORE PUSH1 0x20 DUP2 ADD SWAP3 SWAP1 SWAP3 MSTORE PUSH32 0xF6C5A7CA37753B0680A888953FC4F298AAC5757F9639486009B92DF9C9BDADFA SWAP2 ADD PUSH1 0x40 MLOAD DUP1 SWAP2 SUB SWAP1 LOG1 POP JUMP JUMPDEST PUSH1 0x0 DUP4 DUP2 MSTORE PUSH1 0x5 PUSH1 0x20 SWAP1 DUP2 MSTORE PUSH1 0x40 DUP1 DUP4 KECCAK256 DUP2 MLOAD PUSH1 0x80 DUP2 ADD SWAP1 SWAP3 MSTORE DUP1 SLOAD PUSH1 0x1 PUSH1 0x1 PUSH1 0xA0 SHL SUB DUP2 AND DUP4 MSTORE SWAP2 SWAP3 SWAP1 SWAP2 SWAP1 DUP4 ADD SWAP1 PUSH1 0x1 PUSH1 0xA0 SHL SWAP1 DIV PUSH1 0xFF AND PUSH1 0x2 DUP2 GT ISZERO PUSH2 0xBB0 JUMPI PUSH2 0xBB0 PUSH2 0x1D25 JUMP JUMPDEST PUSH1 0x2 DUP2 GT ISZERO PUSH2 0xBC1 JUMPI PUSH2 0xBC1 PUSH2 0x1D25 JUMP JUMPDEST DUP2 MSTORE PUSH1 0x1 DUP3 ADD SLOAD PUSH1 0x1 PUSH1 0x1 PUSH1 0xA0 SHL SUB SWAP1 DUP2 AND PUSH1 0x20 DUP4 ADD MSTORE PUSH1 0x2 SWAP1 SWAP3 ADD SLOAD PUSH1 0x40 SWAP1 SWAP2 ADD MSTORE DUP2 MLOAD SWAP2 SWAP3 POP AND PUSH2 0xC2B JUMPI PUSH1 0x40 MLOAD PUSH3 0x461BCD PUSH1 0xE5 SHL DUP2 MSTORE PUSH1 0x20 PUSH1 0x4 DUP3 ADD MSTORE PUSH1 0x12 PUSH1 0x24 DUP3 ADD MSTORE PUSH18 0x125B9D985B1A59081C995C5D595CDD081251 PUSH1 0x72 SHL PUSH1 0x44 DUP3 ADD MSTORE PUSH1 0x64 ADD PUSH2 0x48E JUMP JUMPDEST PUSH1 0x0 DUP1 PUSH1 0x0 DUP6 DUP1 PUSH1 0x20 ADD SWAP1 MLOAD DUP2 ADD SWAP1 PUSH2 0xC44 SWAP2 SWAP1 PUSH2 0x1E60 JUMP JUMPDEST SWAP2 SWAP5 POP SWAP3 POP SWAP1 POP PUSH1 0x0 DUP5 PUSH1 0x20 ADD MLOAD PUSH1 0x2 DUP2 GT ISZERO PUSH2 0xC63 JUMPI PUSH2 0xC63 PUSH2 0x1D25 JUMP JUMPDEST EQ DUP1 ISZERO PUSH2 0xC70 JUMPI POP PUSH1 0x0 DUP4 SGT JUMPDEST ISZERO PUSH2 0xCBF JUMPI PUSH1 0x3 DUP4 SWAP1 SSTORE TIMESTAMP PUSH1 0x4 DUP2 SWAP1 SSTORE PUSH1 0x40 DUP1 MLOAD DUP6 DUP2 MSTORE PUSH1 0x20 DUP2 ADD SWAP3 SWAP1 SWAP3 MSTORE PUSH32 0xF6C5A7CA37753B0680A888953FC4F298AAC5757F9639486009B92DF9C9BDADFA SWAP2 ADD PUSH1 0x40 MLOAD DUP1 SWAP2 SUB SWAP1 LOG1 PUSH2 0xDED JUMP JUMPDEST PUSH1 0x1 DUP5 PUSH1 0x20 ADD MLOAD PUSH1 0x2 DUP2 GT ISZERO PUSH2 0xCD7 JUMPI PUSH2 0xCD7 PUSH2 0x1D25 JUMP JUMPDEST EQ DUP1 ISZERO PUSH2 0xCE5 JUMPI POP PUSH1 0x64 DUP3 GT ISZERO JUMPDEST ISZERO PUSH2 0xD4F JUMPI PUSH1 0x40 DUP1 DUP6 ADD DUP1 MLOAD PUSH1 0x1 PUSH1 0x1 PUSH1 0xA0 SHL SUB SWAP1 DUP2 AND PUSH1 0x0 SWAP1 DUP2 MSTORE PUSH1 0x1 PUSH1 0x20 MSTORE DUP4 SWAP1 KECCAK256 DUP6 SWAP1 SSTORE SWAP1 MLOAD SWAP2 MLOAD SWAP2 AND SWAP1 PUSH32 0xE00F1B5D37E934593FB70FCB5FD4703E66F533B6F2560437EC119178A815812D SWAP1 PUSH2 0xD42 SWAP1 DUP6 DUP2 MSTORE PUSH1 0x20 ADD SWAP1 JUMP JUMPDEST PUSH1 0x40 MLOAD DUP1 SWAP2 SUB SWAP1 LOG2 PUSH2 0xDED JUMP JUMPDEST PUSH1 0x2 DUP5 PUSH1 0x20 ADD MLOAD PUSH1 0x2 DUP2 GT ISZERO PUSH2 0xD67 JUMPI PUSH2 0xD67 PUSH2 0x1D25 JUMP JUMPDEST EQ DUP1 ISZERO PUSH2 0xD75 JUMPI POP PUSH1 0x64 DUP2 GT ISZERO JUMPDEST ISZERO PUSH2 0xDED JUMPI PUSH1 0x40 DUP1 DUP6 ADD DUP1 MLOAD PUSH1 0x1 PUSH1 0x1 PUSH1 0xA0 SHL SUB SWAP1 DUP2 AND PUSH1 0x0 SWAP1 DUP2 MSTORE PUSH1 0x2 PUSH1 0x20 SWAP1 DUP2 MSTORE DUP5 DUP3 KECCAK256 PUSH1 0x60 DUP11 ADD DUP1 MLOAD DUP5 MSTORE SWAP2 MSTORE SWAP1 DUP5 SWAP1 KECCAK256 DUP6 SWAP1 SSTORE MLOAD SWAP2 MLOAD SWAP3 MLOAD SWAP2 SWAP3 AND SWAP1 PUSH32 0xDDF0BEC76D6B8F0EC241EE38557441A708EBFE4F327F1955AFC54E21A977FC71 SWAP1 PUSH2 0xDE4 SWAP1 DUP6 DUP2 MSTORE PUSH1 0x20 ADD SWAP1 JUMP JUMPDEST PUSH1 0x40 MLOAD DUP1 SWAP2 SUB SWAP1 LOG3 JUMPDEST PUSH1 0x40 DUP1 MLOAD DUP5 DUP2 MSTORE PUSH1 0x20 DUP2 ADD DUP5 SWAP1 MSTORE SWAP1 DUP2 ADD DUP3 SWAP1 MSTORE DUP8 SWAP1 PUSH32 0xE9F0D70093154E9443BD931BC5CF30B0C45F5E41FADAF654F5A548A6523D1009 SWAP1 PUSH1 0x60 ADD PUSH1 0x40 MLOAD DUP1 SWAP2 SUB SWAP1 LOG2 POP POP POP PUSH1 0x0 SWAP4 DUP5 MSTORE POP POP PUSH1 0x5 PUSH1 0x20 MSTORE POP PUSH1 0x40 DUP2 KECCAK256 DUP1 SLOAD PUSH1 0x1 PUSH1 0x1 PUSH1 0xA8 SHL SUB NOT AND DUP2 SSTORE PUSH1 0x1 DUP2 ADD DUP1 SLOAD PUSH1 0x1 PUSH1 0x1 PUSH1 0xA0 SHL SUB NOT AND SWAP1 SSTORE PUSH1 0x2 ADD SSTORE JUMP JUMPDEST PUSH1 0x0 SLOAD PUSH1 0x1 PUSH1 0x1 PUSH1 0xA0 SHL SUB AND CALLER EQ PUSH2 0x45C JUMPI PUSH1 0x40 MLOAD PUSH4 0x118CDAA7 PUSH1 0xE0 SHL DUP2 MSTORE CALLER PUSH1 0x4 DUP3 ADD MSTORE PUSH1 0x24 ADD PUSH2 0x48E JUMP JUMPDEST PUSH1 0x0 DUP1 SLOAD PUSH1 0x1 PUSH1 0x1 PUSH1 0xA0 SHL SUB DUP4 DUP2 AND PUSH1 0x1 PUSH1 0x1 PUSH1 0xA0 SHL SUB NOT DUP4 AND DUP2 OR DUP5 SSTORE PUSH1 0x40 MLOAD SWAP2 SWAP1 SWAP3 AND SWAP3 DUP4 SWAP2 PUSH32 0x8BE0079C531659141344CD1FD0A4F28419497F9722A3DAAFE3B4186F6B6457E0 SWAP2 SWAP1 LOG3 POP POP JUMP JUMPDEST PUSH1 0x60 PUSH2 0xEF2 DUP4 PUSH2 0x1322 JUMP JUMPDEST PUSH2 0xEFB DUP4 PUSH2 0x158D JUMP JUMPDEST PUSH1 0x40 MLOAD PUSH1 0x20 ADD PUSH2 0xF0C SWAP3 SWAP2 SWAP1 PUSH2 0x1EB2 JUMP JUMPDEST PUSH1 0x40 MLOAD PUSH1 0x20 DUP2 DUP4 SUB SUB DUP2 MSTORE SWAP1 PUSH1 0x40 MSTORE SWAP1 POP SWAP3 SWAP2 POP POP JUMP JUMPDEST PUSH2 0xF30 DUP3 PUSH1 0x0 DUP1 DUP5 PUSH2 0x1696 JUMP JUMPDEST POP POP JUMP JUMPDEST PUSH1 0x60 PUSH1 0x0 PUSH2 0xF43 PUSH2 0x100 PUSH2 0x1714 JUMP JUMPDEST SWAP1 POP PUSH2 0xF7C PUSH1 0x40 MLOAD DUP1 PUSH1 0x40 ADD PUSH1 0x40 MSTORE DUP1 PUSH1 0xC DUP2 MSTORE PUSH1 0x20 ADD PUSH12 0x31B7B232A637B1B0BA34B7B7 PUSH1 0xA1 SHL DUP2 MSTORE POP DUP3 PUSH2 0x1735 SWAP1 SWAP2 SWAP1 PUSH4 0xFFFFFFFF AND JUMP JUMPDEST DUP3 MLOAD PUSH2 0xF9A SWAP1 PUSH1 0x2 DUP2 GT ISZERO PUSH2 0xF93 JUMPI PUSH2 0xF93 PUSH2 0x1D25 JUMP JUMPDEST DUP3 SWAP1 PUSH2 0x1753 JUMP JUMPDEST PUSH1 0x40 DUP1 MLOAD DUP1 DUP3 ADD SWAP1 SWAP2 MSTORE PUSH1 0x8 DUP2 MSTORE PUSH8 0x6C616E6775616765 PUSH1 0xC0 SHL PUSH1 0x20 DUP3 ADD MSTORE PUSH2 0xFC4 SWAP1 DUP3 SWAP1 PUSH2 0x1735 JUMP JUMPDEST PUSH1 0x40 DUP4 ADD MLOAD PUSH2 0xFDB SWAP1 DUP1 ISZERO PUSH2 0xF93 JUMPI PUSH2 0xF93 PUSH2 0x1D25 JUMP JUMPDEST PUSH1 0x40 DUP1 MLOAD DUP1 DUP3 ADD SWAP1 SWAP2 MSTORE PUSH1 0x6 DUP2 MSTORE PUSH6 0x736F75726365 PUSH1 0xD0 SHL PUSH1 0x20 DUP3 ADD MSTORE PUSH2 0x1003 SWAP1 DUP3 SWAP1 PUSH2 0x1735 JUMP JUMPDEST PUSH1 0x60 DUP4 ADD MLOAD PUSH2 0x1013 SWAP1 DUP3 SWAP1 PUSH2 0x1735 JUMP JUMPDEST PUSH1 0xA0 DUP4 ADD MLOAD MLOAD ISZERO PUSH2 0x109F JUMPI PUSH1 0x40 DUP1 MLOAD DUP1 DUP3 ADD SWAP1 SWAP2 MSTORE PUSH1 0x4 DUP2 MSTORE PUSH4 0x61726773 PUSH1 0xE0 SHL PUSH1 0x20 DUP3 ADD MSTORE PUSH2 0x1044 SWAP1 DUP3 SWAP1 PUSH2 0x1735 JUMP JUMPDEST PUSH2 0x104D DUP2 PUSH2 0x178C JUMP JUMPDEST PUSH1 0x0 JUMPDEST DUP4 PUSH1 0xA0 ADD MLOAD MLOAD DUP2 LT ISZERO PUSH2 0x1095 JUMPI PUSH2 0x108D DUP5 PUSH1 0xA0 ADD MLOAD DUP3 DUP2 MLOAD DUP2 LT PUSH2 0x1076 JUMPI PUSH2 0x1076 PUSH2 0x209B JUMP JUMPDEST PUSH1 0x20 MUL PUSH1 0x20 ADD ADD MLOAD DUP4 PUSH2 0x1735 SWAP1 SWAP2 SWAP1 PUSH4 0xFFFFFFFF AND JUMP JUMPDEST PUSH1 0x1 ADD PUSH2 0x1050 JUMP JUMPDEST POP PUSH2 0x109F DUP2 PUSH2 0x17B0 JUMP JUMPDEST PUSH1 0x80 DUP4 ADD MLOAD MLOAD ISZERO PUSH2 0x1163 JUMPI PUSH1 0x0 DUP4 PUSH1 0x20 ADD MLOAD PUSH1 0x2 DUP2 GT ISZERO PUSH2 0x10C2 JUMPI PUSH2 0x10C2 PUSH2 0x1D25 JUMP JUMPDEST SUB PUSH2 0x10E0 JUMPI PUSH1 0x40 MLOAD PUSH4 0xA80D31F7 PUSH1 0xE0 SHL DUP2 MSTORE PUSH1 0x4 ADD PUSH1 0x40 MLOAD DUP1 SWAP2 SUB SWAP1 REVERT JUMPDEST PUSH1 0x40 DUP1 MLOAD DUP1 DUP3 ADD SWAP1 SWAP2 MSTORE PUSH1 0xF DUP2 MSTORE PUSH15 0x39B2B1B932BA39A637B1B0BA34B7B7 PUSH1 0x89 SHL PUSH1 0x20 DUP3 ADD MSTORE PUSH2 0x1111 SWAP1 DUP3 SWAP1 PUSH2 0x1735 JUMP JUMPDEST PUSH2 0x112A DUP4 PUSH1 0x20 ADD MLOAD PUSH1 0x2 DUP2 GT ISZERO PUSH2 0xF93 JUMPI PUSH2 0xF93 PUSH2 0x1D25 JUMP JUMPDEST PUSH1 0x40 DUP1 MLOAD DUP1 DUP3 ADD SWAP1 SWAP2 MSTORE PUSH1 0x7 DUP2 MSTORE PUSH7 0x73656372657473 PUSH1 0xC8 SHL PUSH1 0x20 DUP3 ADD MSTORE PUSH2 0x1153 SWAP1 DUP3 SWAP1 PUSH2 0x1735 JUMP JUMPDEST PUSH1 0x80 DUP4 ADD MLOAD PUSH2 0x1163 SWAP1 DUP3 SWAP1 PUSH2 0x17CE JUMP JUMPDEST PUSH1 0xC0 DUP4 ADD MLOAD MLOAD ISZERO PUSH2 0x11F4 JUMPI PUSH1 0x40 DUP1 MLOAD DUP1 DUP3 ADD SWAP1 SWAP2 MSTORE PUSH1 0x9 DUP2 MSTORE PUSH9 0x627974657341726773 PUSH1 0xB8 SHL PUSH1 0x20 DUP3 ADD MSTORE PUSH2 0x1199 SWAP1 DUP3 SWAP1 PUSH2 0x1735 JUMP JUMPDEST PUSH2 0x11A2 DUP2 PUSH2 0x178C JUMP JUMPDEST PUSH1 0x0 JUMPDEST DUP4 PUSH1 0xC0 ADD MLOAD MLOAD DUP2 LT ISZERO PUSH2 0x11EA JUMPI PUSH2 0x11E2 DUP5 PUSH1 0xC0 ADD MLOAD DUP3 DUP2 MLOAD DUP2 LT PUSH2 0x11CB JUMPI PUSH2 0x11CB PUSH2 0x209B JUMP JUMPDEST PUSH1 0x20 MUL PUSH1 0x20 ADD ADD MLOAD DUP4 PUSH2 0x17CE SWAP1 SWAP2 SWAP1 PUSH4 0xFFFFFFFF AND JUMP JUMPDEST PUSH1 0x1 ADD PUSH2 0x11A5 JUMP JUMPDEST POP PUSH2 0x11F4 DUP2 PUSH2 0x17B0 JUMP JUMPDEST MLOAD MLOAD SWAP3 SWAP2 POP POP JUMP JUMPDEST PUSH1 0x0 DUP1 PUSH32 0x0 PUSH1 0x1 PUSH1 0x1 PUSH1 0xA0 SHL SUB AND PUSH4 0x461D2762 DUP7 DUP9 PUSH1 0x1 DUP9 DUP9 PUSH1 0x40 MLOAD DUP7 PUSH4 0xFFFFFFFF AND PUSH1 0xE0 SHL DUP2 MSTORE PUSH1 0x4 ADD PUSH2 0x1254 SWAP6 SWAP5 SWAP4 SWAP3 SWAP2 SWAP1 PUSH2 0x20B1 JUMP JUMPDEST PUSH1 0x20 PUSH1 0x40 MLOAD DUP1 DUP4 SUB DUP2 PUSH1 0x0 DUP8 GAS CALL ISZERO DUP1 ISZERO PUSH2 0x1273 JUMPI RETURNDATASIZE PUSH1 0x0 DUP1 RETURNDATACOPY RETURNDATASIZE PUSH1 0x0 REVERT JUMPDEST POP POP POP POP PUSH1 0x40 MLOAD RETURNDATASIZE PUSH1 0x1F NOT PUSH1 0x1F DUP3 ADD AND DUP3 ADD DUP1 PUSH1 0x40 MSTORE POP DUP2 ADD SWAP1 PUSH2 0x1297 SWAP2 SWAP1 PUSH2 0x2112 JUMP JUMPDEST PUSH1 0x40 MLOAD SWAP1 SWAP2 POP DUP2 SWAP1 PUSH32 0x1131472297A800FEE664D1D89CFA8F7676FF07189ECC53F80BBB5F4969099DB8 SWAP1 PUSH1 0x0 SWAP1 LOG2 SWAP6 SWAP5 POP POP POP POP POP JUMP JUMPDEST PUSH1 0x60 PUSH1 0x40 MLOAD DUP1 PUSH2 0x140 ADD PUSH1 0x40 MSTORE DUP1 PUSH2 0x11E DUP2 MSTORE PUSH1 0x20 ADD PUSH2 0x2467 PUSH2 0x11E SWAP2 CODECOPY SWAP1 POP SWAP1 JUMP JUMPDEST PUSH1 0x60 PUSH2 0x12FC DUP3 PUSH2 0x1322 JUMP JUMPDEST PUSH1 0x40 MLOAD PUSH1 0x20 ADD PUSH2 0x130C SWAP2 SWAP1 PUSH2 0x212B JUMP JUMPDEST PUSH1 0x40 MLOAD PUSH1 0x20 DUP2 DUP4 SUB SUB DUP2 MSTORE SWAP1 PUSH1 0x40 MSTORE SWAP1 POP SWAP2 SWAP1 POP JUMP JUMPDEST PUSH1 0x40 MLOAD PUSH1 0x60 DUP3 DUP2 SHL PUSH12 0xFFFFFFFFFFFFFFFFFFFFFFFF NOT AND PUSH1 0x20 DUP4 ADD MSTORE SWAP1 PUSH1 0x0 SWAP1 PUSH1 0x34 ADD PUSH1 0x40 DUP1 MLOAD DUP1 DUP4 SUB PUSH1 0x1F NOT ADD DUP2 MSTORE PUSH2 0x200 DUP4 ADD DUP3 MSTORE PUSH1 0x3 PUSH1 0xFC SHL DUP4 MSTORE PUSH1 0x31 PUSH1 0xF8 SHL PUSH1 0x20 DUP5 ADD MSTORE PUSH1 0x19 PUSH1 0xF9 SHL DUP4 DUP4 ADD MSTORE PUSH1 0x33 PUSH1 0xF8 SHL PUSH1 0x60 DUP1 DUP6 ADD SWAP2 SWAP1 SWAP2 MSTORE PUSH1 0xD PUSH1 0xFA SHL PUSH1 0x80 DUP6 ADD MSTORE PUSH1 0x35 PUSH1 0xF8 SHL PUSH1 0xA0 DUP6 ADD MSTORE PUSH1 0x1B PUSH1 0xF9 SHL PUSH1 0xC0 DUP6 ADD MSTORE PUSH1 0x37 PUSH1 0xF8 SHL PUSH1 0xE0 DUP6 ADD MSTORE PUSH1 0x7 PUSH1 0xFB SHL PUSH2 0x100 DUP6 ADD MSTORE PUSH1 0x39 PUSH1 0xF8 SHL PUSH2 0x120 DUP6 ADD MSTORE PUSH1 0x61 PUSH1 0xF8 SHL PUSH2 0x140 DUP6 ADD MSTORE PUSH1 0x31 PUSH1 0xF9 SHL PUSH2 0x160 DUP6 ADD MSTORE PUSH1 0x63 PUSH1 0xF8 SHL PUSH2 0x180 DUP6 ADD MSTORE PUSH1 0x19 PUSH1 0xFA SHL PUSH2 0x1A0 DUP6 ADD MSTORE PUSH1 0x65 PUSH1 0xF8 SHL PUSH2 0x1C0 DUP6 ADD MSTORE PUSH1 0x33 PUSH1 0xF9 SHL PUSH2 0x1E0 DUP6 ADD MSTORE DUP3 MLOAD PUSH1 0x2A DUP1 DUP3 MSTORE SWAP2 DUP2 ADD SWAP1 SWAP4 MSTORE SWAP1 SWAP4 POP PUSH1 0x0 SWAP2 SWAP1 PUSH1 0x20 DUP3 ADD DUP2 DUP1 CALLDATASIZE DUP4 CALLDATACOPY ADD SWAP1 POP POP SWAP1 POP PUSH1 0x3 PUSH1 0xFC SHL DUP2 PUSH1 0x0 DUP2 MLOAD DUP2 LT PUSH2 0x143C JUMPI PUSH2 0x143C PUSH2 0x209B JUMP JUMPDEST PUSH1 0x20 ADD ADD SWAP1 PUSH1 0x1 PUSH1 0x1 PUSH1 0xF8 SHL SUB NOT AND SWAP1 DUP2 PUSH1 0x0 BYTE SWAP1 MSTORE8 POP PUSH1 0xF PUSH1 0xFB SHL DUP2 PUSH1 0x1 DUP2 MLOAD DUP2 LT PUSH2 0x146B JUMPI PUSH2 0x146B PUSH2 0x209B JUMP JUMPDEST PUSH1 0x20 ADD ADD SWAP1 PUSH1 0x1 PUSH1 0x1 PUSH1 0xF8 SHL SUB NOT AND SWAP1 DUP2 PUSH1 0x0 BYTE SWAP1 MSTORE8 POP PUSH1 0x0 JUMPDEST PUSH1 0x14 DUP2 LT ISZERO PUSH2 0x1584 JUMPI DUP3 PUSH1 0x4 DUP6 DUP4 DUP2 MLOAD DUP2 LT PUSH2 0x14A3 JUMPI PUSH2 0x14A3 PUSH2 0x209B JUMP JUMPDEST ADD PUSH1 0x20 ADD MLOAD PUSH1 0x1 PUSH1 0x1 PUSH1 0xF8 SHL SUB NOT AND SWAP1 SHR PUSH1 0xF8 SHR PUSH1 0x10 DUP2 LT PUSH2 0x14C7 JUMPI PUSH2 0x14C7 PUSH2 0x209B JUMP JUMPDEST PUSH1 0x20 MUL ADD MLOAD DUP3 PUSH2 0x14D8 DUP4 PUSH1 0x2 PUSH2 0x22C8 JUMP JUMPDEST PUSH2 0x14E3 SWAP1 PUSH1 0x2 PUSH2 0x22DF JUMP JUMPDEST DUP2 MLOAD DUP2 LT PUSH2 0x14F3 JUMPI PUSH2 0x14F3 PUSH2 0x209B JUMP JUMPDEST PUSH1 0x20 ADD ADD SWAP1 PUSH1 0x1 PUSH1 0x1 PUSH1 0xF8 SHL SUB NOT AND SWAP1 DUP2 PUSH1 0x0 BYTE SWAP1 MSTORE8 POP DUP3 DUP5 DUP3 DUP2 MLOAD DUP2 LT PUSH2 0x151D JUMPI PUSH2 0x151D PUSH2 0x209B JUMP JUMPDEST PUSH1 0x20 SWAP2 ADD ADD MLOAD PUSH1 0xF8 SHR PUSH1 0xF AND PUSH1 0x10 DUP2 LT PUSH2 0x1539 JUMPI PUSH2 0x1539 PUSH2 0x209B JUMP JUMPDEST PUSH1 0x20 MUL ADD MLOAD DUP3 PUSH2 0x154A DUP4 PUSH1 0x2 PUSH2 0x22C8 JUMP JUMPDEST PUSH2 0x1555 SWAP1 PUSH1 0x3 PUSH2 0x22DF JUMP JUMPDEST DUP2 MLOAD DUP2 LT PUSH2 0x1565 JUMPI PUSH2 0x1565 PUSH2 0x209B JUMP JUMPDEST PUSH1 0x20 ADD ADD SWAP1 PUSH1 0x1 PUSH1 0x1 PUSH1 0xF8 SHL SUB NOT AND SWAP1 DUP2 PUSH1 0x0 BYTE SWAP1 MSTORE8 POP PUSH1 0x1 ADD PUSH2 0x1485 JUMP JUMPDEST POP SWAP5 SWAP4 POP POP POP POP JUMP JUMPDEST PUSH1 0x60 DUP2 PUSH1 0x0 SUB PUSH2 0x15B4 JUMPI POP POP PUSH1 0x40 DUP1 MLOAD DUP1 DUP3 ADD SWAP1 SWAP2 MSTORE PUSH1 0x1 DUP2 MSTORE PUSH1 0x3 PUSH1 0xFC SHL PUSH1 0x20 DUP3 ADD MSTORE SWAP1 JUMP JUMPDEST DUP2 PUSH1 0x0 JUMPDEST DUP2 ISZERO PUSH2 0x15DE JUMPI DUP1 PUSH2 0x15C8 DUP2 PUSH2 0x22F2 JUMP JUMPDEST SWAP2 POP PUSH2 0x15D7 SWAP1 POP PUSH1 0xA DUP4 PUSH2 0x2321 JUMP JUMPDEST SWAP2 POP PUSH2 0x15B8 JUMP JUMPDEST PUSH1 0x0 DUP2 PUSH1 0x1 PUSH1 0x1 PUSH1 0x40 SHL SUB DUP2 GT ISZERO PUSH2 0x15F8 JUMPI PUSH2 0x15F8 PUSH2 0x1BF9 JUMP JUMPDEST PUSH1 0x40 MLOAD SWAP1 DUP1 DUP3 MSTORE DUP1 PUSH1 0x1F ADD PUSH1 0x1F NOT AND PUSH1 0x20 ADD DUP3 ADD PUSH1 0x40 MSTORE DUP1 ISZERO PUSH2 0x1622 JUMPI PUSH1 0x20 DUP3 ADD DUP2 DUP1 CALLDATASIZE DUP4 CALLDATACOPY ADD SWAP1 POP JUMPDEST POP SWAP1 POP JUMPDEST DUP5 ISZERO PUSH2 0x168E JUMPI DUP2 PUSH2 0x1636 DUP2 PUSH2 0x2335 JUMP JUMPDEST SWAP3 POP PUSH2 0x1645 SWAP1 POP PUSH1 0xA DUP7 PUSH2 0x234C JUMP JUMPDEST PUSH2 0x1650 SWAP1 PUSH1 0x30 PUSH2 0x22DF JUMP JUMPDEST PUSH1 0xF8 SHL DUP2 DUP4 DUP2 MLOAD DUP2 LT PUSH2 0x1665 JUMPI PUSH2 0x1665 PUSH2 0x209B JUMP JUMPDEST PUSH1 0x20 ADD ADD SWAP1 PUSH1 0x1 PUSH1 0x1 PUSH1 0xF8 SHL SUB NOT AND SWAP1 DUP2 PUSH1 0x0 BYTE SWAP1 MSTORE8 POP PUSH2 0x1687 PUSH1 0xA DUP7 PUSH2 0x2321 JUMP JUMPDEST SWAP5 POP PUSH2 0x1626 JUMP JUMPDEST SWAP5 SWAP4 POP POP POP POP JUMP JUMPDEST DUP1 MLOAD PUSH1 0x0 SUB PUSH2 0x16B8 JUMPI PUSH1 0x40 MLOAD PUSH4 0x22CE3EDD PUSH1 0xE0 SHL DUP2 MSTORE PUSH1 0x4 ADD PUSH1 0x40 MLOAD DUP1 SWAP2 SUB SWAP1 REVERT JUMPDEST DUP4 DUP4 PUSH1 0x2 DUP2 GT ISZERO PUSH2 0x16CB JUMPI PUSH2 0x16CB PUSH2 0x1D25 JUMP JUMPDEST SWAP1 DUP2 PUSH1 0x2 DUP2 GT ISZERO PUSH2 0x16DE JUMPI PUSH2 0x16DE PUSH2 0x1D25 JUMP JUMPDEST SWAP1 MSTORE POP PUSH1 0x40 DUP5 ADD DUP3 DUP1 ISZERO PUSH2 0x16F4 JUMPI PUSH2 0x16F4 PUSH2 0x1D25 JUMP JUMPDEST SWAP1 DUP2 DUP1 ISZERO PUSH2 0x1704 JUMPI PUSH2 0x1704 PUSH2 0x1D25 JUMP JUMPDEST SWAP1 MSTORE POP PUSH1 0x60 SWAP1 SWAP4 ADD SWAP3 SWAP1 SWAP3 MSTORE POP POP JUMP JUMPDEST PUSH2 0x171C PUSH2 0x1BC4 JUMP JUMPDEST DUP1 MLOAD PUSH2 0x1728 SWAP1 DUP4 PUSH2 0x17DB JUMP JUMPDEST POP PUSH1 0x0 PUSH1 0x20 DUP3 ADD MSTORE SWAP2 SWAP1 POP JUMP JUMPDEST PUSH2 0x1742 DUP3 PUSH1 0x3 DUP4 MLOAD PUSH2 0x1852 JUMP JUMPDEST DUP2 MLOAD PUSH2 0x174E SWAP1 DUP3 PUSH2 0x1971 JUMP JUMPDEST POP POP POP JUMP JUMPDEST DUP2 MLOAD PUSH2 0x1760 SWAP1 PUSH1 0xC2 PUSH2 0x1999 JUMP JUMPDEST POP PUSH2 0xF30 DUP3 DUP3 PUSH1 0x40 MLOAD PUSH1 0x20 ADD PUSH2 0x1778 SWAP2 DUP2 MSTORE PUSH1 0x20 ADD SWAP1 JUMP JUMPDEST PUSH1 0x40 MLOAD PUSH1 0x20 DUP2 DUP4 SUB SUB DUP2 MSTORE SWAP1 PUSH1 0x40 MSTORE PUSH2 0x17CE JUMP JUMPDEST PUSH2 0x1797 DUP2 PUSH1 0x4 PUSH2 0x1A02 JUMP JUMPDEST PUSH1 0x1 DUP2 PUSH1 0x20 ADD DUP2 DUP2 MLOAD PUSH2 0x17AA SWAP2 SWAP1 PUSH2 0x22DF JUMP JUMPDEST SWAP1 MSTORE POP POP JUMP JUMPDEST PUSH2 0x17BB DUP2 PUSH1 0x7 PUSH2 0x1A02 JUMP JUMPDEST PUSH1 0x1 DUP2 PUSH1 0x20 ADD DUP2 DUP2 MLOAD PUSH2 0x17AA SWAP2 SWAP1 PUSH2 0x2360 JUMP JUMPDEST PUSH2 0x1742 DUP3 PUSH1 0x2 DUP4 MLOAD PUSH2 0x1852 JUMP JUMPDEST PUSH1 0x40 DUP1 MLOAD DUP1 DUP3 ADD SWAP1 SWAP2 MSTORE PUSH1 0x60 DUP2 MSTORE PUSH1 0x0 PUSH1 0x20 DUP3 ADD MSTORE PUSH2 0x17FB PUSH1 0x20 DUP4 PUSH2 0x234C JUMP JUMPDEST ISZERO PUSH2 0x1823 JUMPI PUSH2 0x180B PUSH1 0x20 DUP4 PUSH2 0x234C JUMP JUMPDEST PUSH2 0x1816 SWAP1 PUSH1 0x20 PUSH2 0x2360 JUMP JUMPDEST PUSH2 0x1820 SWAP1 DUP4 PUSH2 0x22DF JUMP JUMPDEST SWAP2 POP JUMPDEST PUSH1 0x20 DUP1 DUP5 ADD DUP4 SWAP1 MSTORE PUSH1 0x40 MLOAD DUP1 DUP6 MSTORE PUSH1 0x0 DUP2 MSTORE SWAP1 DUP2 DUP5 ADD ADD DUP2 DUP2 LT ISZERO PUSH2 0x1847 JUMPI PUSH1 0x0 DUP1 REVERT JUMPDEST PUSH1 0x40 MSTORE POP SWAP2 SWAP3 SWAP2 POP POP JUMP JUMPDEST PUSH1 0x17 DUP2 PUSH1 0x1 PUSH1 0x1 PUSH1 0x40 SHL SUB AND GT PUSH2 0x187E JUMPI DUP3 MLOAD PUSH2 0x1878 SWAP1 PUSH1 0xE0 PUSH1 0x5 DUP6 SWAP1 SHL AND DUP4 OR PUSH2 0x1999 JUMP JUMPDEST POP POP POP POP JUMP JUMPDEST PUSH1 0xFF DUP2 PUSH1 0x1 PUSH1 0x1 PUSH1 0x40 SHL SUB AND GT PUSH2 0x18BE JUMPI DUP3 MLOAD PUSH2 0x18A6 SWAP1 PUSH1 0x18 PUSH2 0x1FE0 PUSH1 0x5 DUP7 SWAP1 SHL AND OR PUSH2 0x1999 JUMP JUMPDEST POP DUP3 MLOAD PUSH2 0x1878 SWAP1 PUSH1 0x1 PUSH1 0x1 PUSH1 0x40 SHL SUB DUP4 AND PUSH1 0x1 PUSH2 0x1A19 JUMP JUMPDEST PUSH2 0xFFFF DUP2 PUSH1 0x1 PUSH1 0x1 PUSH1 0x40 SHL SUB AND GT PUSH2 0x18FF JUMPI DUP3 MLOAD PUSH2 0x18E7 SWAP1 PUSH1 0x19 PUSH2 0x1FE0 PUSH1 0x5 DUP7 SWAP1 SHL AND OR PUSH2 0x1999 JUMP JUMPDEST POP DUP3 MLOAD PUSH2 0x1878 SWAP1 PUSH1 0x1 PUSH1 0x1 PUSH1 0x40 SHL SUB DUP4 AND PUSH1 0x2 PUSH2 0x1A19 JUMP JUMPDEST PUSH4 0xFFFFFFFF DUP2 PUSH1 0x1 PUSH1 0x1 PUSH1 0x40 SHL SUB AND GT PUSH2 0x1942 JUMPI DUP3 MLOAD PUSH2 0x192A SWAP1 PUSH1 0x1A PUSH2 0x1FE0 PUSH1 0x5 DUP7 SWAP1 SHL AND OR PUSH2 0x1999 JUMP JUMPDEST POP DUP3 MLOAD PUSH2 0x1878 SWAP1 PUSH1 0x1 PUSH1 0x1 PUSH1 0x40 SHL SUB DUP4 AND PUSH1 0x4 PUSH2 0x1A19 JUMP JUMPDEST DUP3 MLOAD PUSH2 0x1959 SWAP1 PUSH1 0x1B PUSH2 0x1FE0 PUSH1 0x5 DUP7 SWAP1 SHL AND OR PUSH2 0x1999 JUMP JUMPDEST POP DUP3 MLOAD PUSH2 0x1878 SWAP1 PUSH1 0x1 PUSH1 0x1 PUSH1 0x40 SHL SUB DUP4 AND PUSH1 0x8 PUSH2 0x1A19 JUMP JUMPDEST PUSH1 0x40 DUP1 MLOAD DUP1 DUP3 ADD SWAP1 SWAP2 MSTORE PUSH1 0x60 DUP2 MSTORE PUSH1 0x0 PUSH1 0x20 DUP3 ADD MSTORE PUSH2 0x1992 DUP4 DUP4 DUP5 MLOAD PUSH2 0x1A9E JUMP JUMPDEST SWAP4 SWAP3 POP POP POP JUMP JUMPDEST PUSH1 0x40 DUP1 MLOAD DUP1 DUP3 ADD SWAP1 SWAP2 MSTORE PUSH1 0x60 DUP2 MSTORE PUSH1 0x0 PUSH1 0x20 DUP3 ADD MSTORE DUP3 MLOAD MLOAD PUSH1 0x0 PUSH2 0x19BE DUP3 PUSH1 0x1 PUSH2 0x22DF JUMP JUMPDEST SWAP1 POP DUP5 PUSH1 0x20 ADD MLOAD DUP3 LT PUSH2 0x19DF JUMPI PUSH2 0x19DF DUP6 PUSH2 0x19DA DUP4 PUSH1 0x2 PUSH2 0x22C8 JUMP JUMPDEST PUSH2 0x1B6F JUMP JUMPDEST DUP5 MLOAD PUSH1 0x20 DUP4 DUP3 ADD ADD DUP6 DUP2 MSTORE8 POP DUP1 MLOAD DUP3 GT ISZERO PUSH2 0x19F8 JUMPI DUP2 DUP2 MSTORE JUMPDEST POP SWAP4 SWAP5 SWAP4 POP POP POP POP JUMP JUMPDEST DUP2 MLOAD PUSH2 0x174E SWAP1 PUSH1 0x1F PUSH2 0x1FE0 PUSH1 0x5 DUP6 SWAP1 SHL AND OR PUSH2 0x1999 JUMP JUMPDEST PUSH1 0x40 DUP1 MLOAD DUP1 DUP3 ADD SWAP1 SWAP2 MSTORE PUSH1 0x60 DUP2 MSTORE PUSH1 0x0 PUSH1 0x20 DUP3 ADD MSTORE DUP4 MLOAD MLOAD PUSH1 0x0 PUSH2 0x1A3D DUP3 DUP6 PUSH2 0x22DF JUMP JUMPDEST SWAP1 POP DUP6 PUSH1 0x20 ADD MLOAD DUP2 GT ISZERO PUSH2 0x1A5A JUMPI PUSH2 0x1A5A DUP7 PUSH2 0x19DA DUP4 PUSH1 0x2 PUSH2 0x22C8 JUMP JUMPDEST PUSH1 0x0 PUSH1 0x1 PUSH2 0x1A6A DUP7 PUSH2 0x100 PUSH2 0x245A JUMP JUMPDEST PUSH2 0x1A74 SWAP2 SWAP1 PUSH2 0x2360 JUMP JUMPDEST SWAP1 POP DUP7 MLOAD DUP3 DUP2 ADD DUP8 DUP4 NOT DUP3 MLOAD AND OR DUP2 MSTORE POP DUP1 MLOAD DUP4 GT ISZERO PUSH2 0x1A92 JUMPI DUP3 DUP2 MSTORE JUMPDEST POP SWAP6 SWAP7 SWAP6 POP POP POP POP POP POP JUMP JUMPDEST PUSH1 0x40 DUP1 MLOAD DUP1 DUP3 ADD SWAP1 SWAP2 MSTORE PUSH1 0x60 DUP2 MSTORE PUSH1 0x0 PUSH1 0x20 DUP3 ADD MSTORE DUP3 MLOAD DUP3 GT ISZERO PUSH2 0x1AC1 JUMPI PUSH1 0x0 DUP1 REVERT JUMPDEST DUP4 MLOAD MLOAD PUSH1 0x0 PUSH2 0x1AD0 DUP5 DUP4 PUSH2 0x22DF JUMP JUMPDEST SWAP1 POP DUP6 PUSH1 0x20 ADD MLOAD DUP2 GT ISZERO PUSH2 0x1AED JUMPI PUSH2 0x1AED DUP7 PUSH2 0x19DA DUP4 PUSH1 0x2 PUSH2 0x22C8 JUMP JUMPDEST DUP6 MLOAD DUP1 MLOAD DUP4 DUP3 ADD PUSH1 0x20 ADD SWAP2 PUSH1 0x0 SWAP2 DUP1 DUP6 GT ISZERO PUSH2 0x1B07 JUMPI DUP5 DUP3 MSTORE JUMPDEST POP POP POP PUSH1 0x20 DUP7 ADD JUMPDEST PUSH1 0x20 DUP7 LT PUSH2 0x1B47 JUMPI DUP1 MLOAD DUP3 MSTORE PUSH2 0x1B26 PUSH1 0x20 DUP4 PUSH2 0x22DF JUMP JUMPDEST SWAP2 POP PUSH2 0x1B33 PUSH1 0x20 DUP3 PUSH2 0x22DF JUMP JUMPDEST SWAP1 POP PUSH2 0x1B40 PUSH1 0x20 DUP8 PUSH2 0x2360 JUMP JUMPDEST SWAP6 POP PUSH2 0x1B0F JUMP JUMPDEST MLOAD DUP2 MLOAD PUSH1 0x0 NOT PUSH1 0x20 DUP9 SWAP1 SUB PUSH2 0x100 EXP ADD SWAP1 DUP2 AND SWAP1 NOT SWAP2 SWAP1 SWAP2 AND OR SWAP1 MSTORE POP DUP5 SWAP2 POP POP SWAP4 SWAP3 POP POP POP JUMP JUMPDEST DUP2 MLOAD PUSH2 0x1B7B DUP4 DUP4 PUSH2 0x17DB JUMP JUMPDEST POP PUSH2 0x1878 DUP4 DUP3 PUSH2 0x1971 JUMP JUMPDEST PUSH1 0x40 DUP1 MLOAD PUSH1 0xE0 DUP2 ADD SWAP1 SWAP2 MSTORE DUP1 PUSH1 0x0 DUP2 MSTORE PUSH1 0x20 ADD PUSH1 0x0 DUP2 MSTORE PUSH1 0x20 ADD PUSH1 0x0 DUP2 MSTORE PUSH1 0x20 ADD PUSH1 0x60 DUP2 MSTORE PUSH1 0x20 ADD PUSH1 0x60 DUP2 MSTORE PUSH1 0x20 ADD PUSH1 0x60 DUP2 MSTORE PUSH1 0x20 ADD PUSH1 0x60 DUP2 MSTORE POP SWAP1 JUMP JUMPDEST PUSH1 0x40 MLOAD DUP1 PUSH1 0x40 ADD PUSH1 0x40 MSTORE DUP1 PUSH2 0x1BEC PUSH1 0x40 MLOAD DUP1 PUSH1 0x40 ADD PUSH1 0x40 MSTORE DUP1 PUSH1 0x60 DUP2 MSTORE PUSH1 0x20 ADD PUSH1 0x0 DUP2 MSTORE POP SWAP1 JUMP JUMPDEST DUP2 MSTORE PUSH1 0x20 ADD PUSH1 0x0 DUP2 MSTORE POP SWAP1 JUMP JUMPDEST PUSH4 0x4E487B71 PUSH1 0xE0 SHL PUSH1 0x0 MSTORE PUSH1 0x41 PUSH1 0x4 MSTORE PUSH1 0x24 PUSH1 0x0 REVERT JUMPDEST PUSH1 0x0 DUP3 PUSH1 0x1F DUP4 ADD SLT PUSH2 0x1C20 JUMPI PUSH1 0x0 DUP1 REVERT JUMPDEST DUP2 CALLDATALOAD PUSH1 0x1 PUSH1 0x1 PUSH1 0x40 SHL SUB DUP2 GT ISZERO PUSH2 0x1C39 JUMPI PUSH2 0x1C39 PUSH2 0x1BF9 JUMP JUMPDEST PUSH1 0x40 MLOAD PUSH1 0x1F DUP3 ADD PUSH1 0x1F NOT SWAP1 DUP2 AND PUSH1 0x3F ADD AND DUP2 ADD PUSH1 0x1 PUSH1 0x1 PUSH1 0x40 SHL SUB DUP2 GT DUP3 DUP3 LT OR ISZERO PUSH2 0x1C67 JUMPI PUSH2 0x1C67 PUSH2 0x1BF9 JUMP JUMPDEST PUSH1 0x40 MSTORE DUP2 DUP2 MSTORE DUP4 DUP3 ADD PUSH1 0x20 ADD DUP6 LT ISZERO PUSH2 0x1C7F JUMPI PUSH1 0x0 DUP1 REVERT JUMPDEST DUP2 PUSH1 0x20 DUP6 ADD PUSH1 0x20 DUP4 ADD CALLDATACOPY PUSH1 0x0 SWAP2 DUP2 ADD PUSH1 0x20 ADD SWAP2 SWAP1 SWAP2 MSTORE SWAP4 SWAP3 POP POP POP JUMP JUMPDEST PUSH1 0x0 DUP1 PUSH1 0x0 PUSH1 0x60 DUP5 DUP7 SUB SLT ISZERO PUSH2 0x1CB1 JUMPI PUSH1 0x0 DUP1 REVERT JUMPDEST DUP4 CALLDATALOAD SWAP3 POP PUSH1 0x20 DUP5 ADD CALLDATALOAD PUSH1 0x1 PUSH1 0x1 PUSH1 0x40 SHL SUB DUP2 GT ISZERO PUSH2 0x1CCE JUMPI PUSH1 0x0 DUP1 REVERT JUMPDEST PUSH2 0x1CDA DUP7 DUP3 DUP8 ADD PUSH2 0x1C0F JUMP JUMPDEST SWAP3 POP POP PUSH1 0x40 DUP5 ADD CALLDATALOAD PUSH1 0x1 PUSH1 0x1 PUSH1 0x40 SHL SUB DUP2 GT ISZERO PUSH2 0x1CF6 JUMPI PUSH1 0x0 DUP1 REVERT JUMPDEST PUSH2 0x1D02 DUP7 DUP3 DUP8 ADD PUSH2 0x1C0F JUMP JUMPDEST SWAP2 POP POP SWAP3 POP SWAP3 POP SWAP3 JUMP JUMPDEST PUSH1 0x0 PUSH1 0x20 DUP3 DUP5 SUB SLT ISZERO PUSH2 0x1D1E JUMPI PUSH1 0x0 DUP1 REVERT JUMPDEST POP CALLDATALOAD SWAP2 SWAP1 POP JUMP JUMPDEST PUSH4 0x4E487B71 PUSH1 0xE0 SHL PUSH1 0x0 MSTORE PUSH1 0x21 PUSH1 0x4 MSTORE PUSH1 0x24 PUSH1 0x0 REVERT JUMPDEST PUSH1 0x3 DUP2 LT PUSH2 0x1D59 JUMPI PUSH4 0x4E487B71 PUSH1 0xE0 SHL PUSH1 0x0 MSTORE PUSH1 0x21 PUSH1 0x4 MSTORE PUSH1 0x24 PUSH1 0x0 REVERT JUMPDEST SWAP1 MSTORE JUMP JUMPDEST PUSH1 0x1 PUSH1 0x1 PUSH1 0xA0 SHL SUB DUP6 AND DUP2 MSTORE PUSH1 0x80 DUP2 ADD PUSH2 0x1D7A PUSH1 0x20 DUP4 ADD DUP7 PUSH2 0x1D3B JUMP JUMPDEST PUSH1 0x1 PUSH1 0x1 PUSH1 0xA0 SHL SUB SWAP4 SWAP1 SWAP4 AND PUSH1 0x40 DUP3 ADD MSTORE PUSH1 0x60 ADD MSTORE SWAP3 SWAP2 POP POP JUMP JUMPDEST DUP1 CALLDATALOAD PUSH1 0x1 PUSH1 0x1 PUSH1 0xA0 SHL SUB DUP2 AND DUP2 EQ PUSH2 0xA92 JUMPI PUSH1 0x0 DUP1 REVERT JUMPDEST PUSH1 0x0 DUP1 PUSH1 0x40 DUP4 DUP6 SUB SLT ISZERO PUSH2 0x1DBF JUMPI PUSH1 0x0 DUP1 REVERT JUMPDEST PUSH2 0x1DC8 DUP4 PUSH2 0x1D95 JUMP JUMPDEST SWAP5 PUSH1 0x20 SWAP4 SWAP1 SWAP4 ADD CALLDATALOAD SWAP4 POP POP POP JUMP JUMPDEST PUSH1 0x0 PUSH1 0x20 DUP3 DUP5 SUB SLT ISZERO PUSH2 0x1DE8 JUMPI PUSH1 0x0 DUP1 REVERT JUMPDEST PUSH2 0x1992 DUP3 PUSH2 0x1D95 JUMP JUMPDEST PUSH1 0x0 DUP1 PUSH1 0x0 PUSH1 0x60 DUP5 DUP7 SUB SLT ISZERO PUSH2 0x1E06 JUMPI PUSH1 0x0 DUP1 REVERT JUMPDEST PUSH2 0x1E0F DUP5 PUSH2 0x1D95 JUMP JUMPDEST SWAP6 PUSH1 0x20 DUP6 ADD CALLDATALOAD SWAP6 POP PUSH1 0x40 SWAP1 SWAP5 ADD CALLDATALOAD SWAP4 SWAP3 POP POP POP JUMP JUMPDEST PUSH1 0x20 DUP1 DUP3 MSTORE PUSH1 0x14 SWAP1 DUP3 ADD MSTORE PUSH20 0x496E76616C696420757365722061646472657373 PUSH1 0x60 SHL PUSH1 0x40 DUP3 ADD MSTORE PUSH1 0x60 ADD SWAP1 JUMP JUMPDEST PUSH1 0x20 DUP2 ADD PUSH2 0x444 DUP3 DUP5 PUSH2 0x1D3B JUMP JUMPDEST PUSH1 0x0 DUP1 PUSH1 0x0 PUSH1 0x60 DUP5 DUP7 SUB SLT ISZERO PUSH2 0x1E75 JUMPI PUSH1 0x0 DUP1 REVERT JUMPDEST POP POP DUP2 MLOAD PUSH1 0x20 DUP4 ADD MLOAD PUSH1 0x40 SWAP1 SWAP4 ADD MLOAD SWAP1 SWAP5 SWAP3 SWAP4 POP SWAP2 SWAP1 POP JUMP JUMPDEST PUSH1 0x0 JUMPDEST DUP4 DUP2 LT ISZERO PUSH2 0x1EA9 JUMPI DUP2 DUP2 ADD MLOAD DUP4 DUP3 ADD MSTORE PUSH1 0x20 ADD PUSH2 0x1E91 JUMP JUMPDEST POP POP PUSH1 0x0 SWAP2 ADD MSTORE JUMP JUMPDEST PUSH14 0x636F6E73742075736572203D2027 PUSH1 0x90 SHL DUP2 MSTORE PUSH1 0x0 DUP4 MLOAD PUSH2 0x1EDB DUP2 PUSH1 0xE DUP6 ADD PUSH1 0x20 DUP9 ADD PUSH2 0x1E8E JUMP JUMPDEST PUSH2 0x273B PUSH1 0xF0 SHL PUSH1 0xE SWAP2 DUP5 ADD SWAP2 DUP3 ADD MSTORE PUSH20 0x636F6E73742070726F706F73616C4964203D2027 PUSH1 0x60 SHL PUSH1 0x10 DUP3 ADD MSTORE DUP4 MLOAD PUSH2 0x1F1A DUP2 PUSH1 0x24 DUP5 ADD PUSH1 0x20 DUP9 ADD PUSH2 0x1E8E JUMP JUMPDEST PUSH2 0x273B PUSH1 0xF0 SHL PUSH1 0x24 SWAP3 SWAP1 SWAP2 ADD SWAP2 DUP3 ADD MSTORE PUSH32 0x636F6E737420617069526573706F6E7365203D2061776169742046756E637469 PUSH1 0x26 DUP3 ADD MSTORE PUSH32 0x6F6E732E6D616B654874747052657175657374287B75726C3A20276874747073 PUSH1 0x46 DUP3 ADD MSTORE PUSH32 0x3A2F2F75626934616C6C2D64616F2D6170692E636F6D2F636F7272656C617469 PUSH1 0x66 DUP3 ADD MSTORE PUSH32 0x6F6E272C706172616D733A207B20757365723A20757365722C2070726F706F73 PUSH1 0x86 DUP3 ADD MSTORE PUSH32 0x616C49643A2070726F706F73616C4964207D7D293B6966202861706952657370 PUSH1 0xA6 DUP3 ADD MSTORE PUSH32 0x6F6E73652E6572726F7229207B207468726F77204572726F7228274150492045 PUSH1 0xC6 DUP3 ADD MSTORE PUSH32 0x72726F7227293B207D636F6E73742073636F7265203D204D6174682E6D696E28 PUSH1 0xE6 DUP3 ADD MSTORE PUSH32 0x617069526573706F6E73652E646174612E73636F72652C20313030293B726574 PUSH2 0x106 DUP3 ADD MSTORE PUSH32 0x75726E2046756E6374696F6E732E656E636F646555696E743235362873636F72 PUSH2 0x126 DUP3 ADD MSTORE PUSH3 0x65293B PUSH1 0xE8 SHL PUSH2 0x146 DUP3 ADD MSTORE PUSH2 0x149 ADD SWAP5 SWAP4 POP POP POP POP JUMP JUMPDEST PUSH4 0x4E487B71 PUSH1 0xE0 SHL PUSH1 0x0 MSTORE PUSH1 0x32 PUSH1 0x4 MSTORE PUSH1 0x24 PUSH1 0x0 REVERT JUMPDEST PUSH1 0x1 PUSH1 0x1 PUSH1 0x40 SHL SUB DUP7 AND DUP2 MSTORE PUSH1 0xA0 PUSH1 0x20 DUP3 ADD MSTORE PUSH1 0x0 DUP6 MLOAD DUP1 PUSH1 0xA0 DUP5 ADD MSTORE PUSH2 0x20DF DUP2 PUSH1 0xC0 DUP6 ADD PUSH1 0x20 DUP11 ADD PUSH2 0x1E8E JUMP JUMPDEST PUSH2 0xFFFF SWAP6 SWAP1 SWAP6 AND PUSH1 0x40 DUP4 ADD MSTORE POP PUSH4 0xFFFFFFFF SWAP3 SWAP1 SWAP3 AND PUSH1 0x60 DUP4 ADD MSTORE PUSH1 0x80 DUP3 ADD MSTORE PUSH1 0xC0 PUSH1 0x1F SWAP1 SWAP3 ADD PUSH1 0x1F NOT AND ADD ADD SWAP3 SWAP2 POP POP JUMP JUMPDEST PUSH1 0x0 PUSH1 0x20 DUP3 DUP5 SUB SLT ISZERO PUSH2 0x2124 JUMPI PUSH1 0x0 DUP1 REVERT JUMPDEST POP MLOAD SWAP2 SWAP1 POP JUMP JUMPDEST PUSH14 0x636F6E73742075736572203D2027 PUSH1 0x90 SHL DUP2 MSTORE PUSH1 0x0 DUP3 MLOAD PUSH2 0x2154 DUP2 PUSH1 0xE DUP6 ADD PUSH1 0x20 DUP8 ADD PUSH2 0x1E8E JUMP JUMPDEST PUSH2 0x273B PUSH1 0xF0 SHL PUSH1 0xE SWAP4 SWAP1 SWAP2 ADD SWAP3 DUP4 ADD MSTORE POP PUSH32 0x636F6E737420617069526573706F6E7365203D2061776169742046756E637469 PUSH1 0x10 DUP3 ADD MSTORE PUSH32 0x6F6E732E6D616B654874747052657175657374287B75726C3A20276874747073 PUSH1 0x30 DUP3 ADD MSTORE PUSH32 0x3A2F2F75626934616C6C2D64616F2D6170692E636F6D2F72657075746174696F PUSH1 0x50 DUP3 ADD MSTORE PUSH32 0x6E272C706172616D733A207B20757365723A2075736572207D7D293B69662028 PUSH1 0x70 DUP3 ADD MSTORE PUSH32 0x617069526573706F6E73652E6572726F7229207B207468726F77204572726F72 PUSH1 0x90 DUP3 ADD MSTORE PUSH32 0x2827415049204572726F7227293B207D636F6E73742073636F7265203D204D61 PUSH1 0xB0 DUP3 ADD MSTORE PUSH32 0x74682E6D696E28617069526573706F6E73652E646174612E73636F72652C2031 PUSH1 0xD0 DUP3 ADD MSTORE PUSH32 0x3030293B72657475726E2046756E6374696F6E732E656E636F646555696E7432 PUSH1 0xF0 DUP3 ADD MSTORE PUSH10 0x35362873636F7265293B PUSH1 0xB0 SHL PUSH2 0x110 DUP3 ADD MSTORE PUSH2 0x11A ADD SWAP2 SWAP1 POP JUMP JUMPDEST PUSH4 0x4E487B71 PUSH1 0xE0 SHL PUSH1 0x0 MSTORE PUSH1 0x11 PUSH1 0x4 MSTORE PUSH1 0x24 PUSH1 0x0 REVERT JUMPDEST DUP1 DUP3 MUL DUP2 ISZERO DUP3 DUP3 DIV DUP5 EQ OR PUSH2 0x444 JUMPI PUSH2 0x444 PUSH2 0x22B2 JUMP JUMPDEST DUP1 DUP3 ADD DUP1 DUP3 GT ISZERO PUSH2 0x444 JUMPI PUSH2 0x444 PUSH2 0x22B2 JUMP JUMPDEST PUSH1 0x0 PUSH1 0x1 DUP3 ADD PUSH2 0x2304 JUMPI PUSH2 0x2304 PUSH2 0x22B2 JUMP JUMPDEST POP PUSH1 0x1 ADD SWAP1 JUMP JUMPDEST PUSH4 0x4E487B71 PUSH1 0xE0 SHL PUSH1 0x0 MSTORE PUSH1 0x12 PUSH1 0x4 MSTORE PUSH1 0x24 PUSH1 0x0 REVERT JUMPDEST PUSH1 0x0 DUP3 PUSH2 0x2330 JUMPI PUSH2 0x2330 PUSH2 0x230B JUMP JUMPDEST POP DIV SWAP1 JUMP JUMPDEST PUSH1 0x0 DUP2 PUSH2 0x2344 JUMPI PUSH2 0x2344 PUSH2 0x22B2 JUMP JUMPDEST POP PUSH1 0x0 NOT ADD SWAP1 JUMP JUMPDEST PUSH1 0x0 DUP3 PUSH2 0x235B JUMPI PUSH2 0x235B PUSH2 0x230B JUMP JUMPDEST POP MOD SWAP1 JUMP JUMPDEST DUP2 DUP2 SUB DUP2 DUP2 GT ISZERO PUSH2 0x444 JUMPI PUSH2 0x444 PUSH2 0x22B2 JUMP JUMPDEST PUSH1 0x1 DUP2 JUMPDEST PUSH1 0x1 DUP5 GT ISZERO PUSH2 0x23AE JUMPI DUP1 DUP6 DIV DUP2 GT ISZERO PUSH2 0x2392 JUMPI PUSH2 0x2392 PUSH2 0x22B2 JUMP JUMPDEST PUSH1 0x1 DUP5 AND ISZERO PUSH2 0x23A0 JUMPI SWAP1 DUP2 MUL SWAP1 JUMPDEST PUSH1 0x1 SWAP4 SWAP1 SWAP4 SHR SWAP3 DUP1 MUL PUSH2 0x2377 JUMP JUMPDEST SWAP4 POP SWAP4 SWAP2 POP POP JUMP JUMPDEST PUSH1 0x0 DUP3 PUSH2 0x23C5 JUMPI POP PUSH1 0x1 PUSH2 0x444 JUMP JUMPDEST DUP2 PUSH2 0x23D2 JUMPI POP PUSH1 0x0 PUSH2 0x444 JUMP JUMPDEST DUP2 PUSH1 0x1 DUP2 EQ PUSH2 0x23E8 JUMPI PUSH1 0x2 DUP2 EQ PUSH2 0x23F2 JUMPI PUSH2 0x240E JUMP JUMPDEST PUSH1 0x1 SWAP2 POP POP PUSH2 0x444 JUMP JUMPDEST PUSH1 0xFF DUP5 GT ISZERO PUSH2 0x2403 JUMPI PUSH2 0x2403 PUSH2 0x22B2 JUMP JUMPDEST POP POP PUSH1 0x1 DUP3 SHL PUSH2 0x444 JUMP JUMPDEST POP PUSH1 0x20 DUP4 LT PUSH2 0x133 DUP4 LT AND PUSH1 0x4E DUP5 LT PUSH1 0xB DUP5 LT AND OR ISZERO PUSH2 0x2431 JUMPI POP DUP2 DUP2 EXP PUSH2 0x444 JUMP JUMPDEST PUSH2 0x243E PUSH1 0x0 NOT DUP5 DUP5 PUSH2 0x2373 JUMP JUMPDEST DUP1 PUSH1 0x0 NOT DIV DUP3 GT ISZERO PUSH2 0x2452 JUMPI PUSH2 0x2452 PUSH2 0x22B2 JUMP JUMPDEST MUL SWAP4 SWAP3 POP POP POP JUMP JUMPDEST PUSH1 0x0 PUSH2 0x1992 DUP4 DUP4 PUSH2 0x23B6 JUMP INVALID PUSH4 0x6F6E7374 KECCAK256 PUSH2 0x7069 MSTORE PUSH6 0x73706F6E7365 KECCAK256 RETURNDATASIZE KECCAK256 PUSH2 0x7761 PUSH10 0x742046756E6374696F6E PUSH20 0x2E6D616B654874747052657175657374287B7572 PUSH13 0x3A202768747470733A2F2F6170 PUSH10 0x2E717569636B73776170 0x2E PUSH6 0x786368616E67 PUSH6 0x2F76312F7072 PUSH10 0x6365272C706172616D73 GASPRICE KECCAK256 PUSH28 0x20746F6B656E3A2027513441272C20626173653A202755534427207D PUSH30 0x293B69662028617069526573706F6E73652E6572726F7229207B20746872 PUSH16 0x77204572726F72282741504920457272 PUSH16 0x7227293B207D636F6E73742070726963 PUSH6 0x203D204D6174 PUSH9 0x2E726F756E64286170 PUSH10 0x526573706F6E73652E64 PUSH2 0x7461 0x2E PUSH17 0x72696365202A2031302A2A38293B726574 PUSH22 0x726E2046756E6374696F6E732E656E636F6465496E74 ORIGIN CALLDATALOAD CALLDATASIZE 0x28 PUSH17 0x72696365293BA2646970667358221220D3 0xAD BLOBHASH 0xC7 DUP3 CODECOPY 0xB2 CREATE POP 0x4E 0xBB 0xD7 SMOD 0xA7 0xC1 KECCAK256 0xD2 DUP5 0xBE INVALID SWAP9 0xEE 0xBC 0x26 0xC2 SELFDESTRUCT 0xD0 0x2A 0x2C PUSH6 0xD40164736F6C PUSH4 0x4300081C STOP CALLER "
		},
		"gasEstimates": {
			"creation": {
				"codeDepositCost": "1931600",
				"executionCost": "infinite",
				"totalCost": "infinite"
			},
			"external": {
				"CORRELATION_SCALE()": "240",
				"DECIMALS()": "294",
				"REPUTATION_SCALE()": "306",
				"correlationScores(address,uint256)": "2656",
				"donID()": "2318",
				"gasLimit()": "2440",
				"getCorrelationScore(address,uint256)": "2765",
				"getQ4APrice()": "2359",
				"getReputationScore(address)": "2626",
				"handleOracleFulfillment(bytes32,bytes,bytes)": "infinite",
				"lastPriceUpdate()": "2429",
				"owner()": "2434",
				"pendingRequests(bytes32)": "6972",
				"q4aPrice()": "2362",
				"renounceOwnership()": "infinite",
				"reputationScores(address)": "2651",
				"requestCorrelationScore(address,uint256)": "infinite",
				"requestQ4APrice()": "infinite",
				"requestReputationScore(address)": "infinite",
				"subscriptionId()": "2350",
				"transferOwnership(address)": "28399",
				"updateManualCorrelationScore(address,uint256,uint256)": "26814",
				"updateManualQ4APrice(int256)": "48055",
				"updateManualReputationScore(address,uint256)": "26224"
			},
			"internal": {
				"fulfillRequest(bytes32,bytes memory,bytes memory)": "infinite",
				"getCorrelationScript(address,uint256)": "infinite",
				"getPriceScript()": "infinite",
				"getReputationScript(address)": "infinite",
				"toHexString(address)": "infinite",
				"uint256ToString(uint256)": "infinite"
			}
		},
		"methodIdentifiers": {
			"CORRELATION_SCALE()": "964ea12a",
			"DECIMALS()": "2e0f2625",
			"REPUTATION_SCALE()": "be152b61",
			"correlationScores(address,uint256)": "e7ec0533",
			"donID()": "6e74336b",
			"gasLimit()": "f68016b7",
			"getCorrelationScore(address,uint256)": "53d2262b",
			"getQ4APrice()": "9af6bca5",
			"getReputationScore(address)": "75a67d5c",
			"handleOracleFulfillment(bytes32,bytes,bytes)": "0ca76175",
			"lastPriceUpdate()": "6949faeb",
			"owner()": "8da5cb5b",
			"pendingRequests(bytes32)": "2795ad20",
			"q4aPrice()": "751bb598",
			"renounceOwnership()": "715018a6",
			"reputationScores(address)": "fe0438b2",
			"requestCorrelationScore(address,uint256)": "8213b4cf",
			"requestQ4APrice()": "b331799e",
			"requestReputationScore(address)": "dede852f",
			"subscriptionId()": "09c1ba2e",
			"transferOwnership(address)": "f2fde38b",
			"updateManualCorrelationScore(address,uint256,uint256)": "d98e7821",
			"updateManualQ4APrice(int256)": "f55494f8",
			"updateManualReputationScore(address,uint256)": "93db5e37"
		}
	},
	"abi": [
		{
			"inputs": [
				{
					"internalType": "address",
					"name": "_functionsRouter",
					"type": "address"
				},
				{
					"internalType": "bytes32",
					"name": "_donID",
					"type": "bytes32"
				},
				{
					"internalType": "uint64",
					"name": "_subscriptionId",
					"type": "uint64"
				},
				{
					"internalType": "address",
					"name": "initialOwner",
					"type": "address"
				}
			],
			"stateMutability": "nonpayable",
			"type": "constructor"
		},
		{
			"inputs": [],
			"name": "EmptySource",
			"type": "error"
		},
		{
			"inputs": [],
			"name": "NoInlineSecrets",
			"type": "error"
		},
		{
			"inputs": [],
			"name": "OnlyRouterCanFulfill",
			"type": "error"
		},
		{
			"inputs": [
				{
					"internalType": "address",
					"name": "owner",
					"type": "address"
				}
			],
			"name": "OwnableInvalidOwner",
			"type": "error"
		},
		{
			"inputs": [
				{
					"internalType": "address",
					"name": "account",
					"type": "address"
				}
			],
			"name": "OwnableUnauthorizedAccount",
			"type": "error"
		},
		{
			"anonymous": false,
			"inputs": [
				{
					"indexed": true,
					"internalType": "address",
					"name": "user",
					"type": "address"
				},
				{
					"indexed": true,
					"internalType": "uint256",
					"name": "proposalId",
					"type": "uint256"
				},
				{
					"indexed": false,
					"internalType": "uint256",
					"name": "score",
					"type": "uint256"
				}
			],
			"name": "CorrelationScoreUpdated",
			"type": "event"
		},
		{
			"anonymous": false,
			"inputs": [
				{
					"indexed": true,
					"internalType": "bytes32",
					"name": "requestId",
					"type": "bytes32"
				},
				{
					"indexed": true,
					"internalType": "address",
					"name": "requester",
					"type": "address"
				},
				{
					"indexed": false,
					"internalType": "enum UBI4ALLCustomOracle.RequestType",
					"name": "requestType",
					"type": "uint8"
				}
			],
			"name": "OracleRequest",
			"type": "event"
		},
		{
			"anonymous": false,
			"inputs": [
				{
					"indexed": true,
					"internalType": "bytes32",
					"name": "requestId",
					"type": "bytes32"
				},
				{
					"indexed": false,
					"internalType": "int256",
					"name": "price",
					"type": "int256"
				},
				{
					"indexed": false,
					"internalType": "uint256",
					"name": "reputation",
					"type": "uint256"
				},
				{
					"indexed": false,
					"internalType": "uint256",
					"name": "correlation",
					"type": "uint256"
				}
			],
			"name": "OracleResponse",
			"type": "event"
		},
		{
			"anonymous": false,
			"inputs": [
				{
					"indexed": true,
					"internalType": "address",
					"name": "previousOwner",
					"type": "address"
				},
				{
					"indexed": true,
					"internalType": "address",
					"name": "newOwner",
					"type": "address"
				}
			],
			"name": "OwnershipTransferred",
			"type": "event"
		},
		{
			"anonymous": false,
			"inputs": [
				{
					"indexed": false,
					"internalType": "int256",
					"name": "price",
					"type": "int256"
				},
				{
					"indexed": false,
					"internalType": "uint256",
					"name": "timestamp",
					"type": "uint256"
				}
			],
			"name": "Q4APriceUpdated",
			"type": "event"
		},
		{
			"anonymous": false,
			"inputs": [
				{
					"indexed": true,
					"internalType": "address",
					"name": "user",
					"type": "address"
				},
				{
					"indexed": false,
					"internalType": "uint256",
					"name": "score",
					"type": "uint256"
				}
			],
			"name": "ReputationScoreUpdated",
			"type": "event"
		},
		{
			"anonymous": false,
			"inputs": [
				{
					"indexed": true,
					"internalType": "bytes32",
					"name": "id",
					"type": "bytes32"
				}
			],
			"name": "RequestFulfilled",
			"type": "event"
		},
		{
			"anonymous": false,
			"inputs": [
				{
					"indexed": true,
					"internalType": "bytes32",
					"name": "id",
					"type": "bytes32"
				}
			],
			"name": "RequestSent",
			"type": "event"
		},
		{
			"inputs": [],
			"name": "CORRELATION_SCALE",
			"outputs": [
				{
					"internalType": "uint256",
					"name": "",
					"type": "uint256"
				}
			],
			"stateMutability": "view",
			"type": "function"
		},
		{
			"inputs": [],
			"name": "DECIMALS",
			"outputs": [
				{
					"internalType": "uint8",
					"name": "",
					"type": "uint8"
				}
			],
			"stateMutability": "view",
			"type": "function"
		},
		{
			"inputs": [],
			"name": "REPUTATION_SCALE",
			"outputs": [
				{
					"internalType": "uint256",
					"name": "",
					"type": "uint256"
				}
			],
			"stateMutability": "view",
			"type": "function"
		},
		{
			"inputs": [
				{
					"internalType": "address",
					"name": "",
					"type": "address"
				},
				{
					"internalType": "uint256",
					"name": "",
					"type": "uint256"
				}
			],
			"name": "correlationScores",
			"outputs": [
				{
					"internalType": "uint256",
					"name": "",
					"type": "uint256"
				}
			],
			"stateMutability": "view",
			"type": "function"
		},
		{
			"inputs": [],
			"name": "donID",
			"outputs": [
				{
					"internalType": "bytes32",
					"name": "",
					"type": "bytes32"
				}
			],
			"stateMutability": "view",
			"type": "function"
		},
		{
			"inputs": [],
			"name": "gasLimit",
			"outputs": [
				{
					"internalType": "uint32",
					"name": "",
					"type": "uint32"
				}
			],
			"stateMutability": "view",
			"type": "function"
		},
		{
			"inputs": [
				{
					"internalType": "address",
					"name": "_user",
					"type": "address"
				},
				{
					"internalType": "uint256",
					"name": "_proposalId",
					"type": "uint256"
				}
			],
			"name": "getCorrelationScore",
			"outputs": [
				{
					"internalType": "uint256",
					"name": "",
					"type": "uint256"
				}
			],
			"stateMutability": "view",
			"type": "function"
		},
		{
			"inputs": [],
			"name": "getQ4APrice",
			"outputs": [
				{
					"internalType": "int256",
					"name": "",
					"type": "int256"
				}
			],
			"stateMutability": "view",
			"type": "function"
		},
		{
			"inputs": [
				{
					"internalType": "address",
					"name": "_user",
					"type": "address"
				}
			],
			"name": "getReputationScore",
			"outputs": [
				{
					"internalType": "uint256",
					"name": "",
					"type": "uint256"
				}
			],
			"stateMutability": "view",
			"type": "function"
		},
		{
			"inputs": [
				{
					"internalType": "bytes32",
					"name": "requestId",
					"type": "bytes32"
				},
				{
					"internalType": "bytes",
					"name": "response",
					"type": "bytes"
				},
				{
					"internalType": "bytes",
					"name": "err",
					"type": "bytes"
				}
			],
			"name": "handleOracleFulfillment",
			"outputs": [],
			"stateMutability": "nonpayable",
			"type": "function"
		},
		{
			"inputs": [],
			"name": "lastPriceUpdate",
			"outputs": [
				{
					"internalType": "uint256",
					"name": "",
					"type": "uint256"
				}
			],
			"stateMutability": "view",
			"type": "function"
		},
		{
			"inputs": [],
			"name": "owner",
			"outputs": [
				{
					"internalType": "address",
					"name": "",
					"type": "address"
				}
			],
			"stateMutability": "view",
			"type": "function"
		},
		{
			"inputs": [
				{
					"internalType": "bytes32",
					"name": "",
					"type": "bytes32"
				}
			],
			"name": "pendingRequests",
			"outputs": [
				{
					"internalType": "address",
					"name": "requester",
					"type": "address"
				},
				{
					"internalType": "enum UBI4ALLCustomOracle.RequestType",
					"name": "requestType",
					"type": "uint8"
				},
				{
					"internalType": "address",
					"name": "user",
					"type": "address"
				},
				{
					"internalType": "uint256",
					"name": "proposalId",
					"type": "uint256"
				}
			],
			"stateMutability": "view",
			"type": "function"
		},
		{
			"inputs": [],
			"name": "q4aPrice",
			"outputs": [
				{
					"internalType": "int256",
					"name": "",
					"type": "int256"
				}
			],
			"stateMutability": "view",
			"type": "function"
		},
		{
			"inputs": [],
			"name": "renounceOwnership",
			"outputs": [],
			"stateMutability": "nonpayable",
			"type": "function"
		},
		{
			"inputs": [
				{
					"internalType": "address",
					"name": "",
					"type": "address"
				}
			],
			"name": "reputationScores",
			"outputs": [
				{
					"internalType": "uint256",
					"name": "",
					"type": "uint256"
				}
			],
			"stateMutability": "view",
			"type": "function"
		},
		{
			"inputs": [
				{
					"internalType": "address",
					"name": "_user",
					"type": "address"
				},
				{
					"internalType": "uint256",
					"name": "_proposalId",
					"type": "uint256"
				}
			],
			"name": "requestCorrelationScore",
			"outputs": [
				{
					"internalType": "bytes32",
					"name": "requestId",
					"type": "bytes32"
				}
			],
			"stateMutability": "nonpayable",
			"type": "function"
		},
		{
			"inputs": [],
			"name": "requestQ4APrice",
			"outputs": [
				{
					"internalType": "bytes32",
					"name": "requestId",
					"type": "bytes32"
				}
			],
			"stateMutability": "nonpayable",
			"type": "function"
		},
		{
			"inputs": [
				{
					"internalType": "address",
					"name": "_user",
					"type": "address"
				}
			],
			"name": "requestReputationScore",
			"outputs": [
				{
					"internalType": "bytes32",
					"name": "requestId",
					"type": "bytes32"
				}
			],
			"stateMutability": "nonpayable",
			"type": "function"
		},
		{
			"inputs": [],
			"name": "subscriptionId",
			"outputs": [
				{
					"internalType": "uint64",
					"name": "",
					"type": "uint64"
				}
			],
			"stateMutability": "view",
			"type": "function"
		},
		{
			"inputs": [
				{
					"internalType": "address",
					"name": "newOwner",
					"type": "address"
				}
			],
			"name": "transferOwnership",
			"outputs": [],
			"stateMutability": "nonpayable",
			"type": "function"
		},
		{
			"inputs": [
				{
					"internalType": "address",
					"name": "_user",
					"type": "address"
				},
				{
					"internalType": "uint256",
					"name": "_proposalId",
					"type": "uint256"
				},
				{
					"internalType": "uint256",
					"name": "_score",
					"type": "uint256"
				}
			],
			"name": "updateManualCorrelationScore",
			"outputs": [],
			"stateMutability": "nonpayable",
			"type": "function"
		},
		{
			"inputs": [
				{
					"internalType": "int256",
					"name": "_price",
					"type": "int256"
				}
			],
			"name": "updateManualQ4APrice",
			"outputs": [],
			"stateMutability": "nonpayable",
			"type": "function"
		},
		{
			"inputs": [
				{
					"internalType": "address",
					"name": "_user",
					"type": "address"
				},
				{
					"internalType": "uint256",
					"name": "_score",
					"type": "uint256"
				}
			],
			"name": "updateManualReputationScore",
			"outputs": [],
			"stateMutability": "nonpayable",
			"type": "function"
		}
	]
}