{
	".deps/npm/@openzeppelin/contracts/governance/TimelockController.sol": {
		"TimelockController": {
			"abi": [
				{
					"inputs": [
						{
							"internalType": "uint256",
							"name": "minDelay",
							"type": "uint256"
						},
						{
							"internalType": "address[]",
							"name": "proposers",
							"type": "address[]"
						},
						{
							"internalType": "address[]",
							"name": "executors",
							"type": "address[]"
						},
						{
							"internalType": "address",
							"name": "admin",
							"type": "address"
						}
					],
					"stateMutability": "nonpayable",
					"type": "constructor"
				},
				{
					"inputs": [],
					"name": "AccessControlBadConfirmation",
					"type": "error"
				},
				{
					"inputs": [
						{
							"internalType": "address",
							"name": "account",
							"type": "address"
						},
						{
							"internalType": "bytes32",
							"name": "neededRole",
							"type": "bytes32"
						}
					],
					"name": "AccessControlUnauthorizedAccount",
					"type": "error"
				},
				{
					"inputs": [],
					"name": "FailedCall",
					"type": "error"
				},
				{
					"inputs": [
						{
							"internalType": "uint256",
							"name": "delay",
							"type": "uint256"
						},
						{
							"internalType": "uint256",
							"name": "minDelay",
							"type": "uint256"
						}
					],
					"name": "TimelockInsufficientDelay",
					"type": "error"
				},
				{
					"inputs": [
						{
							"internalType": "uint256",
							"name": "targets",
							"type": "uint256"
						},
						{
							"internalType": "uint256",
							"name": "payloads",
							"type": "uint256"
						},
						{
							"internalType": "uint256",
							"name": "values",
							"type": "uint256"
						}
					],
					"name": "TimelockInvalidOperationLength",
					"type": "error"
				},
				{
					"inputs": [
						{
							"internalType": "address",
							"name": "caller",
							"type": "address"
						}
					],
					"name": "TimelockUnauthorizedCaller",
					"type": "error"
				},
				{
					"inputs": [
						{
							"internalType": "bytes32",
							"name": "predecessorId",
							"type": "bytes32"
						}
					],
					"name": "TimelockUnexecutedPredecessor",
					"type": "error"
				},
				{
					"inputs": [
						{
							"internalType": "bytes32",
							"name": "operationId",
							"type": "bytes32"
						},
						{
							"internalType": "bytes32",
							"name": "expectedStates",
							"type": "bytes32"
						}
					],
					"name": "TimelockUnexpectedOperationState",
					"type": "error"
				},
				{
					"anonymous": false,
					"inputs": [
						{
							"indexed": true,
							"internalType": "bytes32",
							"name": "id",
							"type": "bytes32"
						},
						{
							"indexed": true,
							"internalType": "uint256",
							"name": "index",
							"type": "uint256"
						},
						{
							"indexed": false,
							"internalType": "address",
							"name": "target",
							"type": "address"
						},
						{
							"indexed": false,
							"internalType": "uint256",
							"name": "value",
							"type": "uint256"
						},
						{
							"indexed": false,
							"internalType": "bytes",
							"name": "data",
							"type": "bytes"
						}
					],
					"name": "CallExecuted",
					"type": "event"
				},
				{
					"anonymous": false,
					"inputs": [
						{
							"indexed": true,
							"internalType": "bytes32",
							"name": "id",
							"type": "bytes32"
						},
						{
							"indexed": false,
							"internalType": "bytes32",
							"name": "salt",
							"type": "bytes32"
						}
					],
					"name": "CallSalt",
					"type": "event"
				},
				{
					"anonymous": false,
					"inputs": [
						{
							"indexed": true,
							"internalType": "bytes32",
							"name": "id",
							"type": "bytes32"
						},
						{
							"indexed": true,
							"internalType": "uint256",
							"name": "index",
							"type": "uint256"
						},
						{
							"indexed": false,
							"internalType": "address",
							"name": "target",
							"type": "address"
						},
						{
							"indexed": false,
							"internalType": "uint256",
							"name": "value",
							"type": "uint256"
						},
						{
							"indexed": false,
							"internalType": "bytes",
							"name": "data",
							"type": "bytes"
						},
						{
							"indexed": false,
							"internalType": "bytes32",
							"name": "predecessor",
							"type": "bytes32"
						},
						{
							"indexed": false,
							"internalType": "uint256",
							"name": "delay",
							"type": "uint256"
						}
					],
					"name": "CallScheduled",
					"type": "event"
				},
				{
					"anonymous": false,
					"inputs": [
						{
							"indexed": true,
							"internalType": "bytes32",
							"name": "id",
							"type": "bytes32"
						}
					],
					"name": "Cancelled",
					"type": "event"
				},
				{
					"anonymous": false,
					"inputs": [
						{
							"indexed": false,
							"internalType": "uint256",
							"name": "oldDuration",
							"type": "uint256"
						},
						{
							"indexed": false,
							"internalType": "uint256",
							"name": "newDuration",
							"type": "uint256"
						}
					],
					"name": "MinDelayChange",
					"type": "event"
				},
				{
					"anonymous": false,
					"inputs": [
						{
							"indexed": true,
							"internalType": "bytes32",
							"name": "role",
							"type": "bytes32"
						},
						{
							"indexed": true,
							"internalType": "bytes32",
							"name": "previousAdminRole",
							"type": "bytes32"
						},
						{
							"indexed": true,
							"internalType": "bytes32",
							"name": "newAdminRole",
							"type": "bytes32"
						}
					],
					"name": "RoleAdminChanged",
					"type": "event"
				},
				{
					"anonymous": false,
					"inputs": [
						{
							"indexed": true,
							"internalType": "bytes32",
							"name": "role",
							"type": "bytes32"
						},
						{
							"indexed": true,
							"internalType": "address",
							"name": "account",
							"type": "address"
						},
						{
							"indexed": true,
							"internalType": "address",
							"name": "sender",
							"type": "address"
						}
					],
					"name": "RoleGranted",
					"type": "event"
				},
				{
					"anonymous": false,
					"inputs": [
						{
							"indexed": true,
							"internalType": "bytes32",
							"name": "role",
							"type": "bytes32"
						},
						{
							"indexed": true,
							"internalType": "address",
							"name": "account",
							"type": "address"
						},
						{
							"indexed": true,
							"internalType": "address",
							"name": "sender",
							"type": "address"
						}
					],
					"name": "RoleRevoked",
					"type": "event"
				},
				{
					"inputs": [],
					"name": "CANCELLER_ROLE",
					"outputs": [
						{
							"internalType": "bytes32",
							"name": "",
							"type": "bytes32"
						}
					],
					"stateMutability": "view",
					"type": "function"
				},
				{
					"inputs": [],
					"name": "DEFAULT_ADMIN_ROLE",
					"outputs": [
						{
							"internalType": "bytes32",
							"name": "",
							"type": "bytes32"
						}
					],
					"stateMutability": "view",
					"type": "function"
				},
				{
					"inputs": [],
					"name": "EXECUTOR_ROLE",
					"outputs": [
						{
							"internalType": "bytes32",
							"name": "",
							"type": "bytes32"
						}
					],
					"stateMutability": "view",
					"type": "function"
				},
				{
					"inputs": [],
					"name": "PROPOSER_ROLE",
					"outputs": [
						{
							"internalType": "bytes32",
							"name": "",
							"type": "bytes32"
						}
					],
					"stateMutability": "view",
					"type": "function"
				},
				{
					"inputs": [
						{
							"internalType": "bytes32",
							"name": "id",
							"type": "bytes32"
						}
					],
					"name": "cancel",
					"outputs": [],
					"stateMutability": "nonpayable",
					"type": "function"
				},
				{
					"inputs": [
						{
							"internalType": "address",
							"name": "target",
							"type": "address"
						},
						{
							"internalType": "uint256",
							"name": "value",
							"type": "uint256"
						},
						{
							"internalType": "bytes",
							"name": "payload",
							"type": "bytes"
						},
						{
							"internalType": "bytes32",
							"name": "predecessor",
							"type": "bytes32"
						},
						{
							"internalType": "bytes32",
							"name": "salt",
							"type": "bytes32"
						}
					],
					"name": "execute",
					"outputs": [],
					"stateMutability": "payable",
					"type": "function"
				},
				{
					"inputs": [
						{
							"internalType": "address[]",
							"name": "targets",
							"type": "address[]"
						},
						{
							"internalType": "uint256[]",
							"name": "values",
							"type": "uint256[]"
						},
						{
							"internalType": "bytes[]",
							"name": "payloads",
							"type": "bytes[]"
						},
						{
							"internalType": "bytes32",
							"name": "predecessor",
							"type": "bytes32"
						},
						{
							"internalType": "bytes32",
							"name": "salt",
							"type": "bytes32"
						}
					],
					"name": "executeBatch",
					"outputs": [],
					"stateMutability": "payable",
					"type": "function"
				},
				{
					"inputs": [],
					"name": "getMinDelay",
					"outputs": [
						{
							"internalType": "uint256",
							"name": "",
							"type": "uint256"
						}
					],
					"stateMutability": "view",
					"type": "function"
				},
				{
					"inputs": [
						{
							"internalType": "bytes32",
							"name": "id",
							"type": "bytes32"
						}
					],
					"name": "getOperationState",
					"outputs": [
						{
							"internalType": "enum TimelockController.OperationState",
							"name": "",
							"type": "uint8"
						}
					],
					"stateMutability": "view",
					"type": "function"
				},
				{
					"inputs": [
						{
							"internalType": "bytes32",
							"name": "role",
							"type": "bytes32"
						}
					],
					"name": "getRoleAdmin",
					"outputs": [
						{
							"internalType": "bytes32",
							"name": "",
							"type": "bytes32"
						}
					],
					"stateMutability": "view",
					"type": "function"
				},
				{
					"inputs": [
						{
							"internalType": "bytes32",
							"name": "id",
							"type": "bytes32"
						}
					],
					"name": "getTimestamp",
					"outputs": [
						{
							"internalType": "uint256",
							"name": "",
							"type": "uint256"
						}
					],
					"stateMutability": "view",
					"type": "function"
				},
				{
					"inputs": [
						{
							"internalType": "bytes32",
							"name": "role",
							"type": "bytes32"
						},
						{
							"internalType": "address",
							"name": "account",
							"type": "address"
						}
					],
					"name": "grantRole",
					"outputs": [],
					"stateMutability": "nonpayable",
					"type": "function"
				},
				{
					"inputs": [
						{
							"internalType": "bytes32",
							"name": "role",
							"type": "bytes32"
						},
						{
							"internalType": "address",
							"name": "account",
							"type": "address"
						}
					],
					"name": "hasRole",
					"outputs": [
						{
							"internalType": "bool",
							"name": "",
							"type": "bool"
						}
					],
					"stateMutability": "view",
					"type": "function"
				},
				{
					"inputs": [
						{
							"internalType": "address",
							"name": "target",
							"type": "address"
						},
						{
							"internalType": "uint256",
							"name": "value",
							"type": "uint256"
						},
						{
							"internalType": "bytes",
							"name": "data",
							"type": "bytes"
						},
						{
							"internalType": "bytes32",
							"name": "predecessor",
							"type": "bytes32"
						},
						{
							"internalType": "bytes32",
							"name": "salt",
							"type": "bytes32"
						}
					],
					"name": "hashOperation",
					"outputs": [
						{
							"internalType": "bytes32",
							"name": "",
							"type": "bytes32"
						}
					],
					"stateMutability": "pure",
					"type": "function"
				},
				{
					"inputs": [
						{
							"internalType": "address[]",
							"name": "targets",
							"type": "address[]"
						},
						{
							"internalType": "uint256[]",
							"name": "values",
							"type": "uint256[]"
						},
						{
							"internalType": "bytes[]",
							"name": "payloads",
							"type": "bytes[]"
						},
						{
							"internalType": "bytes32",
							"name": "predecessor",
							"type": "bytes32"
						},
						{
							"internalType": "bytes32",
							"name": "salt",
							"type": "bytes32"
						}
					],
					"name": "hashOperationBatch",
					"outputs": [
						{
							"internalType": "bytes32",
							"name": "",
							"type": "bytes32"
						}
					],
					"stateMutability": "pure",
					"type": "function"
				},
				{
					"inputs": [
						{
							"internalType": "bytes32",
							"name": "id",
							"type": "bytes32"
						}
					],
					"name": "isOperation",
					"outputs": [
						{
							"internalType": "bool",
							"name": "",
							"type": "bool"
						}
					],
					"stateMutability": "view",
					"type": "function"
				},
				{
					"inputs": [
						{
							"internalType": "bytes32",
							"name": "id",
							"type": "bytes32"
						}
					],
					"name": "isOperationDone",
					"outputs": [
						{
							"internalType": "bool",
							"name": "",
							"type": "bool"
						}
					],
					"stateMutability": "view",
					"type": "function"
				},
				{
					"inputs": [
						{
							"internalType": "bytes32",
							"name": "id",
							"type": "bytes32"
						}
					],
					"name": "isOperationPending",
					"outputs": [
						{
							"internalType": "bool",
							"name": "",
							"type": "bool"
						}
					],
					"stateMutability": "view",
					"type": "function"
				},
				{
					"inputs": [
						{
							"internalType": "bytes32",
							"name": "id",
							"type": "bytes32"
						}
					],
					"name": "isOperationReady",
					"outputs": [
						{
							"internalType": "bool",
							"name": "",
							"type": "bool"
						}
					],
					"stateMutability": "view",
					"type": "function"
				},
				{
					"inputs": [
						{
							"internalType": "address",
							"name": "",
							"type": "address"
						},
						{
							"internalType": "address",
							"name": "",
							"type": "address"
						},
						{
							"internalType": "uint256[]",
							"name": "",
							"type": "uint256[]"
						},
						{
							"internalType": "uint256[]",
							"name": "",
							"type": "uint256[]"
						},
						{
							"internalType": "bytes",
							"name": "",
							"type": "bytes"
						}
					],
					"name": "onERC1155BatchReceived",
					"outputs": [
						{
							"internalType": "bytes4",
							"name": "",
							"type": "bytes4"
						}
					],
					"stateMutability": "nonpayable",
					"type": "function"
				},
				{
					"inputs": [
						{
							"internalType": "address",
							"name": "",
							"type": "address"
						},
						{
							"internalType": "address",
							"name": "",
							"type": "address"
						},
						{
							"internalType": "uint256",
							"name": "",
							"type": "uint256"
						},
						{
							"internalType": "uint256",
							"name": "",
							"type": "uint256"
						},
						{
							"internalType": "bytes",
							"name": "",
							"type": "bytes"
						}
					],
					"name": "onERC1155Received",
					"outputs": [
						{
							"internalType": "bytes4",
							"name": "",
							"type": "bytes4"
						}
					],
					"stateMutability": "nonpayable",
					"type": "function"
				},
				{
					"inputs": [
						{
							"internalType": "address",
							"name": "",
							"type": "address"
						},
						{
							"internalType": "address",
							"name": "",
							"type": "address"
						},
						{
							"internalType": "uint256",
							"name": "",
							"type": "uint256"
						},
						{
							"internalType": "bytes",
							"name": "",
							"type": "bytes"
						}
					],
					"name": "onERC721Received",
					"outputs": [
						{
							"internalType": "bytes4",
							"name": "",
							"type": "bytes4"
						}
					],
					"stateMutability": "nonpayable",
					"type": "function"
				},
				{
					"inputs": [
						{
							"internalType": "bytes32",
							"name": "role",
							"type": "bytes32"
						},
						{
							"internalType": "address",
							"name": "callerConfirmation",
							"type": "address"
						}
					],
					"name": "renounceRole",
					"outputs": [],
					"stateMutability": "nonpayable",
					"type": "function"
				},
				{
					"inputs": [
						{
							"internalType": "bytes32",
							"name": "role",
							"type": "bytes32"
						},
						{
							"internalType": "address",
							"name": "account",
							"type": "address"
						}
					],
					"name": "revokeRole",
					"outputs": [],
					"stateMutability": "nonpayable",
					"type": "function"
				},
				{
					"inputs": [
						{
							"internalType": "address",
							"name": "target",
							"type": "address"
						},
						{
							"internalType": "uint256",
							"name": "value",
							"type": "uint256"
						},
						{
							"internalType": "bytes",
							"name": "data",
							"type": "bytes"
						},
						{
							"internalType": "bytes32",
							"name": "predecessor",
							"type": "bytes32"
						},
						{
							"internalType": "bytes32",
							"name": "salt",
							"type": "bytes32"
						},
						{
							"internalType": "uint256",
							"name": "delay",
							"type": "uint256"
						}
					],
					"name": "schedule",
					"outputs": [],
					"stateMutability": "nonpayable",
					"type": "function"
				},
				{
					"inputs": [
						{
							"internalType": "address[]",
							"name": "targets",
							"type": "address[]"
						},
						{
							"internalType": "uint256[]",
							"name": "values",
							"type": "uint256[]"
						},
						{
							"internalType": "bytes[]",
							"name": "payloads",
							"type": "bytes[]"
						},
						{
							"internalType": "bytes32",
							"name": "predecessor",
							"type": "bytes32"
						},
						{
							"internalType": "bytes32",
							"name": "salt",
							"type": "bytes32"
						},
						{
							"internalType": "uint256",
							"name": "delay",
							"type": "uint256"
						}
					],
					"name": "scheduleBatch",
					"outputs": [],
					"stateMutability": "nonpayable",
					"type": "function"
				},
				{
					"inputs": [
						{
							"internalType": "bytes4",
							"name": "interfaceId",
							"type": "bytes4"
						}
					],
					"name": "supportsInterface",
					"outputs": [
						{
							"internalType": "bool",
							"name": "",
							"type": "bool"
						}
					],
					"stateMutability": "view",
					"type": "function"
				},
				{
					"inputs": [
						{
							"internalType": "uint256",
							"name": "newDelay",
							"type": "uint256"
						}
					],
					"name": "updateDelay",
					"outputs": [],
					"stateMutability": "nonpayable",
					"type": "function"
				},
				{
					"stateMutability": "payable",
					"type": "receive"
				}
			],
			"devdoc": {
				"details": "Contract module which acts as a timelocked controller. When set as the owner of an `Ownable` smart contract, it enforces a timelock on all `onlyOwner` maintenance operations. This gives time for users of the controlled contract to exit before a potentially dangerous maintenance operation is applied. By default, this contract is self administered, meaning administration tasks have to go through the timelock process. The proposer (resp executor) role is in charge of proposing (resp executing) operations. A common use case is to position this {TimelockController} as the owner of a smart contract, with a multisig or a DAO as the sole proposer.",
				"errors": {
					"AccessControlBadConfirmation()": [
						{
							"details": "The caller of a function is not the expected one. NOTE: Don't confuse with {AccessControlUnauthorizedAccount}."
						}
					],
					"AccessControlUnauthorizedAccount(address,bytes32)": [
						{
							"details": "The `account` is missing a role."
						}
					],
					"FailedCall()": [
						{
							"details": "A call to an address target failed. The target may have reverted."
						}
					],
					"TimelockInsufficientDelay(uint256,uint256)": [
						{
							"details": "The schedule operation doesn't meet the minimum delay."
						}
					],
					"TimelockInvalidOperationLength(uint256,uint256,uint256)": [
						{
							"details": "Mismatch between the parameters length for an operation call."
						}
					],
					"TimelockUnauthorizedCaller(address)": [
						{
							"details": "The caller account is not authorized."
						}
					],
					"TimelockUnexecutedPredecessor(bytes32)": [
						{
							"details": "The predecessor to an operation not yet done."
						}
					],
					"TimelockUnexpectedOperationState(bytes32,bytes32)": [
						{
							"details": "The current state of an operation is not as required. The `expectedStates` is a bitmap with the bits enabled for each OperationState enum position counting from right to left. See {_encodeStateBitmap}."
						}
					]
				},
				"events": {
					"CallExecuted(bytes32,uint256,address,uint256,bytes)": {
						"details": "Emitted when a call is performed as part of operation `id`."
					},
					"CallSalt(bytes32,bytes32)": {
						"details": "Emitted when new proposal is scheduled with non-zero salt."
					},
					"CallScheduled(bytes32,uint256,address,uint256,bytes,bytes32,uint256)": {
						"details": "Emitted when a call is scheduled as part of operation `id`."
					},
					"Cancelled(bytes32)": {
						"details": "Emitted when operation `id` is cancelled."
					},
					"MinDelayChange(uint256,uint256)": {
						"details": "Emitted when the minimum delay for future operations is modified."
					},
					"RoleAdminChanged(bytes32,bytes32,bytes32)": {
						"details": "Emitted when `newAdminRole` is set as ``role``'s admin role, replacing `previousAdminRole` `DEFAULT_ADMIN_ROLE` is the starting admin for all roles, despite {RoleAdminChanged} not being emitted to signal this."
					},
					"RoleGranted(bytes32,address,address)": {
						"details": "Emitted when `account` is granted `role`. `sender` is the account that originated the contract call. This account bears the admin role (for the granted role). Expected in cases where the role was granted using the internal {AccessControl-_grantRole}."
					},
					"RoleRevoked(bytes32,address,address)": {
						"details": "Emitted when `account` is revoked `role`. `sender` is the account that originated the contract call:   - if using `revokeRole`, it is the admin role bearer   - if using `renounceRole`, it is the role bearer (i.e. `account`)"
					}
				},
				"kind": "dev",
				"methods": {
					"cancel(bytes32)": {
						"details": "Cancel an operation. Requirements: - the caller must have the 'canceller' role."
					},
					"constructor": {
						"details": "Initializes the contract with the following parameters: - `minDelay`: initial minimum delay in seconds for operations - `proposers`: accounts to be granted proposer and canceller roles - `executors`: accounts to be granted executor role - `admin`: optional account to be granted admin role; disable with zero address IMPORTANT: The optional admin can aid with initial configuration of roles after deployment without being subject to delay, but this role should be subsequently renounced in favor of administration through timelocked proposals. Previous versions of this contract would assign this admin to the deployer automatically and should be renounced as well."
					},
					"execute(address,uint256,bytes,bytes32,bytes32)": {
						"details": "Execute an (ready) operation containing a single transaction. Emits a {CallExecuted} event. Requirements: - the caller must have the 'executor' role."
					},
					"executeBatch(address[],uint256[],bytes[],bytes32,bytes32)": {
						"details": "Execute an (ready) operation containing a batch of transactions. Emits one {CallExecuted} event per transaction in the batch. Requirements: - the caller must have the 'executor' role."
					},
					"getMinDelay()": {
						"details": "Returns the minimum delay in seconds for an operation to become valid. This value can be changed by executing an operation that calls `updateDelay`."
					},
					"getOperationState(bytes32)": {
						"details": "Returns operation state."
					},
					"getRoleAdmin(bytes32)": {
						"details": "Returns the admin role that controls `role`. See {grantRole} and {revokeRole}. To change a role's admin, use {_setRoleAdmin}."
					},
					"getTimestamp(bytes32)": {
						"details": "Returns the timestamp at which an operation becomes ready (0 for unset operations, 1 for done operations)."
					},
					"grantRole(bytes32,address)": {
						"details": "Grants `role` to `account`. If `account` had not been already granted `role`, emits a {RoleGranted} event. Requirements: - the caller must have ``role``'s admin role. May emit a {RoleGranted} event."
					},
					"hasRole(bytes32,address)": {
						"details": "Returns `true` if `account` has been granted `role`."
					},
					"hashOperation(address,uint256,bytes,bytes32,bytes32)": {
						"details": "Returns the identifier of an operation containing a single transaction."
					},
					"hashOperationBatch(address[],uint256[],bytes[],bytes32,bytes32)": {
						"details": "Returns the identifier of an operation containing a batch of transactions."
					},
					"isOperation(bytes32)": {
						"details": "Returns whether an id corresponds to a registered operation. This includes both Waiting, Ready, and Done operations."
					},
					"isOperationDone(bytes32)": {
						"details": "Returns whether an operation is done or not."
					},
					"isOperationPending(bytes32)": {
						"details": "Returns whether an operation is pending or not. Note that a \"pending\" operation may also be \"ready\"."
					},
					"isOperationReady(bytes32)": {
						"details": "Returns whether an operation is ready for execution. Note that a \"ready\" operation is also \"pending\"."
					},
					"onERC721Received(address,address,uint256,bytes)": {
						"details": "See {IERC721Receiver-onERC721Received}. Always returns `IERC721Receiver.onERC721Received.selector`."
					},
					"renounceRole(bytes32,address)": {
						"details": "Revokes `role` from the calling account. Roles are often managed via {grantRole} and {revokeRole}: this function's purpose is to provide a mechanism for accounts to lose their privileges if they are compromised (such as when a trusted device is misplaced). If the calling account had been revoked `role`, emits a {RoleRevoked} event. Requirements: - the caller must be `callerConfirmation`. May emit a {RoleRevoked} event."
					},
					"revokeRole(bytes32,address)": {
						"details": "Revokes `role` from `account`. If `account` had been granted `role`, emits a {RoleRevoked} event. Requirements: - the caller must have ``role``'s admin role. May emit a {RoleRevoked} event."
					},
					"schedule(address,uint256,bytes,bytes32,bytes32,uint256)": {
						"details": "Schedule an operation containing a single transaction. Emits {CallSalt} if salt is nonzero, and {CallScheduled}. Requirements: - the caller must have the 'proposer' role."
					},
					"scheduleBatch(address[],uint256[],bytes[],bytes32,bytes32,uint256)": {
						"details": "Schedule an operation containing a batch of transactions. Emits {CallSalt} if salt is nonzero, and one {CallScheduled} event per transaction in the batch. Requirements: - the caller must have the 'proposer' role."
					},
					"supportsInterface(bytes4)": {
						"details": "See {IERC165-supportsInterface}."
					},
					"updateDelay(uint256)": {
						"details": "Changes the minimum timelock duration for future operations. Emits a {MinDelayChange} event. Requirements: - the caller must be the timelock itself. This can only be achieved by scheduling and later executing an operation where the timelock is the target and the data is the ABI-encoded call to this function."
					}
				},
				"version": 1
			},
			"evm": {
				"assembly": "    /* \".deps/npm/@openzeppelin/contracts/governance/TimelockController.sol\":1084:16297  contract TimelockController is AccessControl, ERC721Holder, ERC1155Holder {... */\n  mstore(0x40, 0x80)\n    /* \".deps/npm/@openzeppelin/contracts/governance/TimelockController.sol\":4248:5009  constructor(uint256 minDelay, address[] memory proposers, address[] memory executors, address admin) {... */\n  callvalue\n  dup1\n  iszero\n  tag_1\n  jumpi\n  0x00\n  dup1\n  revert\ntag_1:\n  pop\n  mload(0x40)\n  sub(codesize, bytecodeSize)\n  dup1\n  bytecodeSize\n  dup4\n  codecopy\n  dup2\n  add\n  0x40\n  dup2\n  swap1\n  mstore\n  tag_2\n  swap2\n  tag_3\n  jump\t// in\ntag_2:\n    /* \".deps/npm/@openzeppelin/contracts/governance/TimelockController.sol\":4390:4435  _grantRole(DEFAULT_ADMIN_ROLE, address(this)) */\n  tag_6\n    /* \".deps/npm/@openzeppelin/contracts/access/AccessControl.sol\":2232:2236  0x00 */\n  0x00\n    /* \".deps/npm/@openzeppelin/contracts/governance/TimelockController.sol\":4429:4433  this */\n  address\n    /* \".deps/npm/@openzeppelin/contracts/governance/TimelockController.sol\":4390:4400  _grantRole */\n  tag_7\n    /* \".deps/npm/@openzeppelin/contracts/governance/TimelockController.sol\":4390:4435  _grantRole(DEFAULT_ADMIN_ROLE, address(this)) */\n  jump\t// in\ntag_6:\n  pop\n  sub(shl(0xa0, 0x01), 0x01)\n    /* \".deps/npm/@openzeppelin/contracts/governance/TimelockController.sol\":4476:4495  admin != address(0) */\n  dup2\n  and\n  iszero\n    /* \".deps/npm/@openzeppelin/contracts/governance/TimelockController.sol\":4472:4559  if (admin != address(0)) {... */\n  tag_8\n  jumpi\n    /* \".deps/npm/@openzeppelin/contracts/governance/TimelockController.sol\":4511:4548  _grantRole(DEFAULT_ADMIN_ROLE, admin) */\n  tag_9\n    /* \".deps/npm/@openzeppelin/contracts/access/AccessControl.sol\":2232:2236  0x00 */\n  0x00\n    /* \".deps/npm/@openzeppelin/contracts/governance/TimelockController.sol\":4542:4547  admin */\n  dup3\n    /* \".deps/npm/@openzeppelin/contracts/governance/TimelockController.sol\":4511:4521  _grantRole */\n  tag_7\n    /* \".deps/npm/@openzeppelin/contracts/governance/TimelockController.sol\":4511:4548  _grantRole(DEFAULT_ADMIN_ROLE, admin) */\n  jump\t// in\ntag_9:\n  pop\n    /* \".deps/npm/@openzeppelin/contracts/governance/TimelockController.sol\":4472:4559  if (admin != address(0)) {... */\ntag_8:\n    /* \".deps/npm/@openzeppelin/contracts/governance/TimelockController.sol\":4619:4628  uint256 i */\n  0x00\n    /* \".deps/npm/@openzeppelin/contracts/governance/TimelockController.sol\":4614:4779  for (uint256 i = 0; i < proposers.length; ++i) {... */\ntag_10:\n    /* \".deps/npm/@openzeppelin/contracts/governance/TimelockController.sol\":4638:4647  proposers */\n  dup4\n    /* \".deps/npm/@openzeppelin/contracts/governance/TimelockController.sol\":4638:4654  proposers.length */\n  mload\n    /* \".deps/npm/@openzeppelin/contracts/governance/TimelockController.sol\":4634:4635  i */\n  dup2\n    /* \".deps/npm/@openzeppelin/contracts/governance/TimelockController.sol\":4634:4654  i < proposers.length */\n  lt\n    /* \".deps/npm/@openzeppelin/contracts/governance/TimelockController.sol\":4614:4779  for (uint256 i = 0; i < proposers.length; ++i) {... */\n  iszero\n  tag_11\n  jumpi\n    /* \".deps/npm/@openzeppelin/contracts/governance/TimelockController.sol\":4675:4714  _grantRole(PROPOSER_ROLE, proposers[i]) */\n  tag_13\n    /* \".deps/npm/@openzeppelin/contracts/governance/TimelockController.sol\":1204:1230  keccak256(\"PROPOSER_ROLE\") */\n  0xb09aa5aeb3702cfd50b6b62bc4532604938f21248a27a1d5ca736082b6819cc1\n    /* \".deps/npm/@openzeppelin/contracts/governance/TimelockController.sol\":4701:4710  proposers */\n  dup6\n    /* \".deps/npm/@openzeppelin/contracts/governance/TimelockController.sol\":4711:4712  i */\n  dup4\n    /* \".deps/npm/@openzeppelin/contracts/governance/TimelockController.sol\":4701:4713  proposers[i] */\n  dup2\n  mload\n  dup2\n  lt\n  tag_15\n  jumpi\n  tag_15\n  tag_16\n  jump\t// in\ntag_15:\n  0x20\n  mul\n  0x20\n  add\n  add\n  mload\n    /* \".deps/npm/@openzeppelin/contracts/governance/TimelockController.sol\":4675:4685  _grantRole */\n  shl(0x20, tag_7)\n    /* \".deps/npm/@openzeppelin/contracts/governance/TimelockController.sol\":4675:4714  _grantRole(PROPOSER_ROLE, proposers[i]) */\n  0x20\n  shr\n  jump\t// in\ntag_13:\n  pop\n    /* \".deps/npm/@openzeppelin/contracts/governance/TimelockController.sol\":4728:4768  _grantRole(CANCELLER_ROLE, proposers[i]) */\n  tag_17\n    /* \".deps/npm/@openzeppelin/contracts/governance/TimelockController.sol\":1349:1376  keccak256(\"CANCELLER_ROLE\") */\n  0xfd643c72710c63c0180259aba6b2d05451e3591a24e58b62239378085726f783\n    /* \".deps/npm/@openzeppelin/contracts/governance/TimelockController.sol\":4755:4764  proposers */\n  dup6\n    /* \".deps/npm/@openzeppelin/contracts/governance/TimelockController.sol\":4765:4766  i */\n  dup4\n    /* \".deps/npm/@openzeppelin/contracts/governance/TimelockController.sol\":4755:4767  proposers[i] */\n  dup2\n  mload\n  dup2\n  lt\n  tag_15\n  jumpi\n  tag_15\n  tag_16\n  jump\t// in\n    /* \".deps/npm/@openzeppelin/contracts/governance/TimelockController.sol\":4728:4768  _grantRole(CANCELLER_ROLE, proposers[i]) */\ntag_17:\n  pop\n    /* \".deps/npm/@openzeppelin/contracts/governance/TimelockController.sol\":4656:4659  ++i */\n  0x01\n  add\n    /* \".deps/npm/@openzeppelin/contracts/governance/TimelockController.sol\":4614:4779  for (uint256 i = 0; i < proposers.length; ++i) {... */\n  jump(tag_10)\ntag_11:\n  pop\n    /* \".deps/npm/@openzeppelin/contracts/governance/TimelockController.sol\":4824:4833  uint256 i */\n  0x00\n    /* \".deps/npm/@openzeppelin/contracts/governance/TimelockController.sol\":4819:4930  for (uint256 i = 0; i < executors.length; ++i) {... */\ntag_20:\n    /* \".deps/npm/@openzeppelin/contracts/governance/TimelockController.sol\":4843:4852  executors */\n  dup3\n    /* \".deps/npm/@openzeppelin/contracts/governance/TimelockController.sol\":4843:4859  executors.length */\n  mload\n    /* \".deps/npm/@openzeppelin/contracts/governance/TimelockController.sol\":4839:4840  i */\n  dup2\n    /* \".deps/npm/@openzeppelin/contracts/governance/TimelockController.sol\":4839:4859  i < executors.length */\n  lt\n    /* \".deps/npm/@openzeppelin/contracts/governance/TimelockController.sol\":4819:4930  for (uint256 i = 0; i < executors.length; ++i) {... */\n  iszero\n  tag_21\n  jumpi\n    /* \".deps/npm/@openzeppelin/contracts/governance/TimelockController.sol\":4880:4919  _grantRole(EXECUTOR_ROLE, executors[i]) */\n  tag_23\n    /* \".deps/npm/@openzeppelin/contracts/governance/TimelockController.sol\":1276:1302  keccak256(\"EXECUTOR_ROLE\") */\n  0xd8aa0f3194971a2a116679f7c2090f6939c8d4e01a2a8d7e41d55e5351469e63\n    /* \".deps/npm/@openzeppelin/contracts/governance/TimelockController.sol\":4906:4915  executors */\n  dup5\n    /* \".deps/npm/@openzeppelin/contracts/governance/TimelockController.sol\":4916:4917  i */\n  dup4\n    /* \".deps/npm/@openzeppelin/contracts/governance/TimelockController.sol\":4906:4918  executors[i] */\n  dup2\n  mload\n  dup2\n  lt\n  tag_15\n  jumpi\n  tag_15\n  tag_16\n  jump\t// in\n    /* \".deps/npm/@openzeppelin/contracts/governance/TimelockController.sol\":4880:4919  _grantRole(EXECUTOR_ROLE, executors[i]) */\ntag_23:\n  pop\n    /* \".deps/npm/@openzeppelin/contracts/governance/TimelockController.sol\":4861:4864  ++i */\n  0x01\n  add\n    /* \".deps/npm/@openzeppelin/contracts/governance/TimelockController.sol\":4819:4930  for (uint256 i = 0; i < executors.length; ++i) {... */\n  jump(tag_20)\ntag_21:\n  pop\n    /* \".deps/npm/@openzeppelin/contracts/governance/TimelockController.sol\":4940:4949  _minDelay */\n  0x02\n    /* \".deps/npm/@openzeppelin/contracts/governance/TimelockController.sol\":4940:4960  _minDelay = minDelay */\n  dup5\n  swap1\n  sstore\n    /* \".deps/npm/@openzeppelin/contracts/governance/TimelockController.sol\":4975:5002  MinDelayChange(0, minDelay) */\n  0x40\n  dup1\n  mload\n    /* \".deps/npm/@openzeppelin/contracts/governance/TimelockController.sol\":4990:4991  0 */\n  0x00\n    /* \"#utility.yul\":2329:2354   */\n  dup2\n  mstore\n    /* \"#utility.yul\":2385:2387   */\n  0x20\n    /* \"#utility.yul\":2370:2388   */\n  dup2\n  add\n    /* \"#utility.yul\":2363:2397   */\n  dup7\n  swap1\n  mstore\n    /* \".deps/npm/@openzeppelin/contracts/governance/TimelockController.sol\":4975:5002  MinDelayChange(0, minDelay) */\n  0x11c24f4ead16507c69ac467fbd5e4eed5fb5c699626d2cc6d66421df253886d5\n  swap2\n    /* \"#utility.yul\":2302:2320   */\n  add\n    /* \".deps/npm/@openzeppelin/contracts/governance/TimelockController.sol\":4975:5002  MinDelayChange(0, minDelay) */\n  mload(0x40)\n  dup1\n  swap2\n  sub\n  swap1\n  log1\n    /* \".deps/npm/@openzeppelin/contracts/governance/TimelockController.sol\":4248:5009  constructor(uint256 minDelay, address[] memory proposers, address[] memory executors, address admin) {... */\n  pop\n  pop\n  pop\n  pop\n    /* \".deps/npm/@openzeppelin/contracts/governance/TimelockController.sol\":1084:16297  contract TimelockController is AccessControl, ERC721Holder, ERC1155Holder {... */\n  jump(tag_41)\n    /* \".deps/npm/@openzeppelin/contracts/access/AccessControl.sol\":6179:6495  function _grantRole(bytes32 role, address account) internal virtual returns (bool) {... */\ntag_7:\n    /* \".deps/npm/@openzeppelin/contracts/access/AccessControl.sol\":6256:6260  bool */\n  0x00\n    /* \".deps/npm/@openzeppelin/contracts/access/AccessControl.sol\":2954:2966  _roles[role] */\n  dup3\n  dup2\n  mstore\n  0x20\n  dup2\n  dup2\n  mstore\n  0x40\n  dup1\n  dup4\n  keccak256\n  sub(shl(0xa0, 0x01), 0x01)\n    /* \".deps/npm/@openzeppelin/contracts/access/AccessControl.sol\":2954:2983  _roles[role].hasRole[account] */\n  dup6\n  and\n  dup5\n  mstore\n  swap1\n  swap2\n  mstore\n  dup2\n  keccak256\n  sload\n  0xff\n  and\n    /* \".deps/npm/@openzeppelin/contracts/access/AccessControl.sol\":6272:6489  if (!hasRole(role, account)) {... */\n  tag_32\n  jumpi\n    /* \".deps/npm/@openzeppelin/contracts/access/AccessControl.sol\":6315:6321  _roles */\n  0x00\n    /* \".deps/npm/@openzeppelin/contracts/access/AccessControl.sol\":6315:6327  _roles[role] */\n  dup4\n  dup2\n  mstore\n  0x20\n  dup2\n  dup2\n  mstore\n  0x40\n  dup1\n  dup4\n  keccak256\n  sub(shl(0xa0, 0x01), 0x01)\n    /* \".deps/npm/@openzeppelin/contracts/access/AccessControl.sol\":6315:6344  _roles[role].hasRole[account] */\n  dup7\n  and\n  dup5\n  mstore\n  swap1\n  swap2\n  mstore\n  swap1\n  keccak256\n    /* \".deps/npm/@openzeppelin/contracts/access/AccessControl.sol\":6315:6351  _roles[role].hasRole[account] = true */\n  dup1\n  sload\n  not(0xff)\n  and\n    /* \".deps/npm/@openzeppelin/contracts/access/AccessControl.sol\":6347:6351  true */\n  0x01\n    /* \".deps/npm/@openzeppelin/contracts/access/AccessControl.sol\":6315:6351  _roles[role].hasRole[account] = true */\n  or\n  swap1\n  sstore\n    /* \".deps/npm/@openzeppelin/contracts/access/AccessControl.sol\":6397:6409  _msgSender() */\n  tag_33\n    /* \".deps/npm/@openzeppelin/contracts/utils/Context.sol\":735:745  msg.sender */\n  caller\n  swap1\n    /* \".deps/npm/@openzeppelin/contracts/utils/Context.sol\":656:752  function _msgSender() internal view virtual returns (address) {... */\n  jump\n    /* \".deps/npm/@openzeppelin/contracts/access/AccessControl.sol\":6397:6409  _msgSender() */\ntag_33:\n  sub(shl(0xa0, 0x01), 0x01)\n    /* \".deps/npm/@openzeppelin/contracts/access/AccessControl.sol\":6370:6410  RoleGranted(role, account, _msgSender()) */\n  and\n    /* \".deps/npm/@openzeppelin/contracts/access/AccessControl.sol\":6388:6395  account */\n  dup3\n  sub(shl(0xa0, 0x01), 0x01)\n    /* \".deps/npm/@openzeppelin/contracts/access/AccessControl.sol\":6370:6410  RoleGranted(role, account, _msgSender()) */\n  and\n    /* \".deps/npm/@openzeppelin/contracts/access/AccessControl.sol\":6382:6386  role */\n  dup5\n    /* \".deps/npm/@openzeppelin/contracts/access/AccessControl.sol\":6370:6410  RoleGranted(role, account, _msgSender()) */\n  0x2f8788117e7eff1d82e926ec794901d17c78024a50270940304540a733656f0d\n  mload(0x40)\n  mload(0x40)\n  dup1\n  swap2\n  sub\n  swap1\n  log4\n  pop\n    /* \".deps/npm/@openzeppelin/contracts/access/AccessControl.sol\":6431:6435  true */\n  0x01\n    /* \".deps/npm/@openzeppelin/contracts/access/AccessControl.sol\":6424:6435  return true */\n  jump(tag_35)\n    /* \".deps/npm/@openzeppelin/contracts/access/AccessControl.sol\":6272:6489  if (!hasRole(role, account)) {... */\ntag_32:\n  pop\n    /* \".deps/npm/@openzeppelin/contracts/access/AccessControl.sol\":6473:6478  false */\n  0x00\n    /* \".deps/npm/@openzeppelin/contracts/access/AccessControl.sol\":6272:6489  if (!hasRole(role, account)) {... */\ntag_35:\n    /* \".deps/npm/@openzeppelin/contracts/access/AccessControl.sol\":6179:6495  function _grantRole(bytes32 role, address account) internal virtual returns (bool) {... */\n  swap3\n  swap2\n  pop\n  pop\n  jump\t// out\n    /* \"#utility.yul\":14:141   */\ntag_38:\n    /* \"#utility.yul\":75:85   */\n  0x4e487b71\n    /* \"#utility.yul\":70:73   */\n  0xe0\n    /* \"#utility.yul\":66:86   */\n  shl\n    /* \"#utility.yul\":63:64   */\n  0x00\n    /* \"#utility.yul\":56:87   */\n  mstore\n    /* \"#utility.yul\":106:110   */\n  0x41\n    /* \"#utility.yul\":103:104   */\n  0x04\n    /* \"#utility.yul\":96:111   */\n  mstore\n    /* \"#utility.yul\":130:134   */\n  0x24\n    /* \"#utility.yul\":127:128   */\n  0x00\n    /* \"#utility.yul\":120:135   */\n  revert\n    /* \"#utility.yul\":146:323   */\ntag_39:\n    /* \"#utility.yul\":225:238   */\n  dup1\n  mload\n  sub(shl(0xa0, 0x01), 0x01)\n    /* \"#utility.yul\":267:298   */\n  dup2\n  and\n    /* \"#utility.yul\":257:299   */\n  dup2\n  eq\n    /* \"#utility.yul\":247:317   */\n  tag_44\n  jumpi\n    /* \"#utility.yul\":313:314   */\n  0x00\n    /* \"#utility.yul\":310:311   */\n  dup1\n    /* \"#utility.yul\":303:315   */\n  revert\n    /* \"#utility.yul\":247:317   */\ntag_44:\n    /* \"#utility.yul\":146:323   */\n  swap2\n  swap1\n  pop\n  jump\t// out\n    /* \"#utility.yul\":328:1249   */\ntag_40:\n    /* \"#utility.yul\":393:398   */\n  0x00\n    /* \"#utility.yul\":446:449   */\n  dup3\n    /* \"#utility.yul\":439:443   */\n  0x1f\n    /* \"#utility.yul\":431:437   */\n  dup4\n    /* \"#utility.yul\":427:444   */\n  add\n    /* \"#utility.yul\":423:450   */\n  slt\n    /* \"#utility.yul\":413:468   */\n  tag_46\n  jumpi\n    /* \"#utility.yul\":464:465   */\n  0x00\n    /* \"#utility.yul\":461:462   */\n  dup1\n    /* \"#utility.yul\":454:466   */\n  revert\n    /* \"#utility.yul\":413:468   */\ntag_46:\n    /* \"#utility.yul\":491:504   */\n  dup2\n  mload\n  sub(shl(0x40, 0x01), 0x01)\n    /* \"#utility.yul\":516:546   */\n  dup2\n  gt\n    /* \"#utility.yul\":513:569   */\n  iszero\n  tag_48\n  jumpi\n    /* \"#utility.yul\":549:567   */\n  tag_48\n  tag_38\n  jump\t// in\ntag_48:\n    /* \"#utility.yul\":631:633   */\n  0x40\n    /* \"#utility.yul\":625:634   */\n  mload\n    /* \"#utility.yul\":592:593   */\n  0x05\n    /* \"#utility.yul\":588:602   */\n  dup3\n  swap1\n  shl\n  swap1\n    /* \"#utility.yul\":685:687   */\n  0x3f\n    /* \"#utility.yul\":677:688   */\n  dup3\n  add\n  not(0x1f)\n    /* \"#utility.yul\":673:698   */\n  and\n    /* \"#utility.yul\":661:699   */\n  dup2\n  add\n  sub(shl(0x40, 0x01), 0x01)\n    /* \"#utility.yul\":714:748   */\n  dup2\n  gt\n    /* \"#utility.yul\":750:772   */\n  dup3\n  dup3\n  lt\n    /* \"#utility.yul\":711:773   */\n  or\n    /* \"#utility.yul\":708:796   */\n  iszero\n  tag_50\n  jumpi\n    /* \"#utility.yul\":776:794   */\n  tag_50\n  tag_38\n  jump\t// in\ntag_50:\n    /* \"#utility.yul\":812:814   */\n  0x40\n    /* \"#utility.yul\":805:827   */\n  mstore\n    /* \"#utility.yul\":862:884   */\n  swap2\n  dup3\n  mstore\n    /* \"#utility.yul\":912:916   */\n  0x20\n    /* \"#utility.yul\":944:959   */\n  dup2\n  dup6\n  add\n    /* \"#utility.yul\":940:966   */\n  dup2\n  add\n  swap3\n    /* \"#utility.yul\":862:884   */\n  swap1\n    /* \"#utility.yul\":900:917   */\n  dup2\n  add\n    /* \"#utility.yul\":978:993   */\n  dup7\n  dup5\n  gt\n    /* \"#utility.yul\":975:1010   */\n  iszero\n  tag_51\n  jumpi\n    /* \"#utility.yul\":1006:1007   */\n  0x00\n    /* \"#utility.yul\":1003:1004   */\n  dup1\n    /* \"#utility.yul\":996:1008   */\n  revert\n    /* \"#utility.yul\":975:1010   */\ntag_51:\n    /* \"#utility.yul\":1042:1046   */\n  0x20\n    /* \"#utility.yul\":1034:1040   */\n  dup7\n    /* \"#utility.yul\":1030:1047   */\n  add\n    /* \"#utility.yul\":1019:1047   */\n  swap3\n  pop\n    /* \"#utility.yul\":1056:1219   */\ntag_52:\n    /* \"#utility.yul\":1072:1078   */\n  dup4\n    /* \"#utility.yul\":1067:1070   */\n  dup4\n    /* \"#utility.yul\":1064:1079   */\n  lt\n    /* \"#utility.yul\":1056:1219   */\n  iszero\n  tag_54\n  jumpi\n    /* \"#utility.yul\":1140:1174   */\n  tag_55\n    /* \"#utility.yul\":1170:1173   */\n  dup4\n    /* \"#utility.yul\":1140:1174   */\n  tag_39\n  jump\t// in\ntag_55:\n    /* \"#utility.yul\":1128:1175   */\n  dup2\n  mstore\n    /* \"#utility.yul\":1204:1208   */\n  0x20\n    /* \"#utility.yul\":1089:1103   */\n  swap3\n  dup4\n  add\n  swap3\n    /* \"#utility.yul\":1195:1209   */\n  add\n    /* \"#utility.yul\":1056:1219   */\n  jump(tag_52)\ntag_54:\n  pop\n    /* \"#utility.yul\":1237:1243   */\n  swap6\n    /* \"#utility.yul\":328:1249   */\n  swap5\n  pop\n  pop\n  pop\n  pop\n  pop\n  jump\t// out\n    /* \"#utility.yul\":1254:2010   */\ntag_3:\n    /* \"#utility.yul\":1401:1407   */\n  0x00\n    /* \"#utility.yul\":1409:1415   */\n  dup1\n    /* \"#utility.yul\":1417:1423   */\n  0x00\n    /* \"#utility.yul\":1425:1431   */\n  dup1\n    /* \"#utility.yul\":1478:1481   */\n  0x80\n    /* \"#utility.yul\":1466:1475   */\n  dup6\n    /* \"#utility.yul\":1457:1464   */\n  dup8\n    /* \"#utility.yul\":1453:1476   */\n  sub\n    /* \"#utility.yul\":1449:1482   */\n  slt\n    /* \"#utility.yul\":1446:1499   */\n  iszero\n  tag_57\n  jumpi\n    /* \"#utility.yul\":1495:1496   */\n  0x00\n    /* \"#utility.yul\":1492:1493   */\n  dup1\n    /* \"#utility.yul\":1485:1497   */\n  revert\n    /* \"#utility.yul\":1446:1499   */\ntag_57:\n    /* \"#utility.yul\":1518:1534   */\n  dup5\n  mload\n    /* \"#utility.yul\":1578:1580   */\n  0x20\n    /* \"#utility.yul\":1563:1581   */\n  dup7\n  add\n    /* \"#utility.yul\":1557:1582   */\n  mload\n    /* \"#utility.yul\":1518:1534   */\n  swap1\n  swap5\n  pop\n  sub(shl(0x40, 0x01), 0x01)\n    /* \"#utility.yul\":1594:1624   */\n  dup2\n  gt\n    /* \"#utility.yul\":1591:1641   */\n  iszero\n  tag_58\n  jumpi\n    /* \"#utility.yul\":1637:1638   */\n  0x00\n    /* \"#utility.yul\":1634:1635   */\n  dup1\n    /* \"#utility.yul\":1627:1639   */\n  revert\n    /* \"#utility.yul\":1591:1641   */\ntag_58:\n    /* \"#utility.yul\":1660:1732   */\n  tag_59\n    /* \"#utility.yul\":1724:1731   */\n  dup8\n    /* \"#utility.yul\":1715:1721   */\n  dup3\n    /* \"#utility.yul\":1704:1713   */\n  dup9\n    /* \"#utility.yul\":1700:1722   */\n  add\n    /* \"#utility.yul\":1660:1732   */\n  tag_40\n  jump\t// in\ntag_59:\n    /* \"#utility.yul\":1778:1780   */\n  0x40\n    /* \"#utility.yul\":1763:1781   */\n  dup8\n  add\n    /* \"#utility.yul\":1757:1782   */\n  mload\n    /* \"#utility.yul\":1650:1732   */\n  swap1\n  swap5\n  pop\n    /* \"#utility.yul\":1757:1782   */\n  swap1\n  pop\n  sub(shl(0x40, 0x01), 0x01)\n    /* \"#utility.yul\":1794:1826   */\n  dup2\n  gt\n    /* \"#utility.yul\":1791:1843   */\n  iszero\n  tag_60\n  jumpi\n    /* \"#utility.yul\":1839:1840   */\n  0x00\n    /* \"#utility.yul\":1836:1837   */\n  dup1\n    /* \"#utility.yul\":1829:1841   */\n  revert\n    /* \"#utility.yul\":1791:1843   */\ntag_60:\n    /* \"#utility.yul\":1862:1936   */\n  tag_61\n    /* \"#utility.yul\":1928:1935   */\n  dup8\n    /* \"#utility.yul\":1917:1925   */\n  dup3\n    /* \"#utility.yul\":1906:1915   */\n  dup9\n    /* \"#utility.yul\":1902:1926   */\n  add\n    /* \"#utility.yul\":1862:1936   */\n  tag_40\n  jump\t// in\ntag_61:\n    /* \"#utility.yul\":1852:1936   */\n  swap3\n  pop\n  pop\n    /* \"#utility.yul\":1955:2004   */\n  tag_62\n    /* \"#utility.yul\":2000:2002   */\n  0x60\n    /* \"#utility.yul\":1989:1998   */\n  dup7\n    /* \"#utility.yul\":1985:2003   */\n  add\n    /* \"#utility.yul\":1955:2004   */\n  tag_39\n  jump\t// in\ntag_62:\n    /* \"#utility.yul\":1945:2004   */\n  swap1\n  pop\n    /* \"#utility.yul\":1254:2010   */\n  swap3\n  swap6\n  swap2\n  swap5\n  pop\n  swap3\n  pop\n  jump\t// out\n    /* \"#utility.yul\":2015:2142   */\ntag_16:\n    /* \"#utility.yul\":2076:2086   */\n  0x4e487b71\n    /* \"#utility.yul\":2071:2074   */\n  0xe0\n    /* \"#utility.yul\":2067:2087   */\n  shl\n    /* \"#utility.yul\":2064:2065   */\n  0x00\n    /* \"#utility.yul\":2057:2088   */\n  mstore\n    /* \"#utility.yul\":2107:2111   */\n  0x32\n    /* \"#utility.yul\":2104:2105   */\n  0x04\n    /* \"#utility.yul\":2097:2112   */\n  mstore\n    /* \"#utility.yul\":2131:2135   */\n  0x24\n    /* \"#utility.yul\":2128:2129   */\n  0x00\n    /* \"#utility.yul\":2121:2136   */\n  revert\n    /* \"#utility.yul\":2147:2403   */\ntag_41:\n    /* \".deps/npm/@openzeppelin/contracts/governance/TimelockController.sol\":1084:16297  contract TimelockController is AccessControl, ERC721Holder, ERC1155Holder {... */\n  dataSize(sub_0)\n  dup1\n  dataOffset(sub_0)\n  0x00\n  codecopy\n  0x00\n  return\nstop\n\nsub_0: assembly {\n        /* \".deps/npm/@openzeppelin/contracts/governance/TimelockController.sol\":1084:16297  contract TimelockController is AccessControl, ERC721Holder, ERC1155Holder {... */\n      mstore(0x40, 0x80)\n      jumpi(tag_1, lt(calldatasize, 0x04))\n      shr(0xe0, calldataload(0x00))\n      dup1\n      0x8065657f\n      gt\n      tag_31\n      jumpi\n      dup1\n      0xbc197c81\n      gt\n      tag_32\n      jumpi\n      dup1\n      0xd547741f\n      gt\n      tag_33\n      jumpi\n      dup1\n      0xd547741f\n      eq\n      tag_27\n      jumpi\n      dup1\n      0xe38335e5\n      eq\n      tag_28\n      jumpi\n      dup1\n      0xf23a6e61\n      eq\n      tag_29\n      jumpi\n      dup1\n      0xf27a0c92\n      eq\n      tag_30\n      jumpi\n      0x00\n      dup1\n      revert\n    tag_33:\n      dup1\n      0xbc197c81\n      eq\n      tag_24\n      jumpi\n      dup1\n      0xc4d252f5\n      eq\n      tag_25\n      jumpi\n      dup1\n      0xd45c4435\n      eq\n      tag_26\n      jumpi\n      0x00\n      dup1\n      revert\n    tag_32:\n      dup1\n      0x91d14854\n      gt\n      tag_34\n      jumpi\n      dup1\n      0x91d14854\n      eq\n      tag_20\n      jumpi\n      dup1\n      0xa217fddf\n      eq\n      tag_21\n      jumpi\n      dup1\n      0xb08e51c0\n      eq\n      tag_22\n      jumpi\n      dup1\n      0xb1c5f427\n      eq\n      tag_23\n      jumpi\n      0x00\n      dup1\n      revert\n    tag_34:\n      dup1\n      0x8065657f\n      eq\n      tag_17\n      jumpi\n      dup1\n      0x8f2a0bb0\n      eq\n      tag_18\n      jumpi\n      dup1\n      0x8f61f4f5\n      eq\n      tag_19\n      jumpi\n      0x00\n      dup1\n      revert\n    tag_31:\n      dup1\n      0x2ab0f529\n      gt\n      tag_35\n      jumpi\n      dup1\n      0x36568abe\n      gt\n      tag_36\n      jumpi\n      dup1\n      0x36568abe\n      eq\n      tag_13\n      jumpi\n      dup1\n      0x584b153e\n      eq\n      tag_14\n      jumpi\n      dup1\n      0x64d62353\n      eq\n      tag_15\n      jumpi\n      dup1\n      0x7958004c\n      eq\n      tag_16\n      jumpi\n      0x00\n      dup1\n      revert\n    tag_36:\n      dup1\n      0x2ab0f529\n      eq\n      tag_10\n      jumpi\n      dup1\n      0x2f2ff15d\n      eq\n      tag_11\n      jumpi\n      dup1\n      0x31d50750\n      eq\n      tag_12\n      jumpi\n      0x00\n      dup1\n      revert\n    tag_35:\n      dup1\n      0x134008d3\n      gt\n      tag_37\n      jumpi\n      dup1\n      0x134008d3\n      eq\n      tag_6\n      jumpi\n      dup1\n      0x13bc9f20\n      eq\n      tag_7\n      jumpi\n      dup1\n      0x150b7a02\n      eq\n      tag_8\n      jumpi\n      dup1\n      0x248a9ca3\n      eq\n      tag_9\n      jumpi\n      0x00\n      dup1\n      revert\n    tag_37:\n      dup1\n      0x01d5062a\n      eq\n      tag_3\n      jumpi\n      dup1\n      0x01ffc9a7\n      eq\n      tag_4\n      jumpi\n      dup1\n      0x07bd0265\n      eq\n      tag_5\n      jumpi\n      0x00\n      dup1\n      revert\n    tag_1:\n      jumpi(tag_2, calldatasize)\n      stop\n    tag_2:\n      0x00\n      dup1\n      revert\n        /* \".deps/npm/@openzeppelin/contracts/governance/TimelockController.sol\":9104:9587  function schedule(... */\n    tag_3:\n      callvalue\n      dup1\n      iszero\n      tag_40\n      jumpi\n      0x00\n      dup1\n      revert\n    tag_40:\n      pop\n      tag_41\n      tag_42\n      calldatasize\n      0x04\n      tag_43\n      jump\t// in\n    tag_42:\n      tag_44\n      jump\t// in\n    tag_41:\n      stop\n        /* \".deps/npm/@openzeppelin/contracts/governance/TimelockController.sol\":5653:5848  function supportsInterface(... */\n    tag_4:\n      callvalue\n      dup1\n      iszero\n      tag_45\n      jumpi\n      0x00\n      dup1\n      revert\n    tag_45:\n      pop\n      tag_46\n      tag_47\n      calldatasize\n      0x04\n      tag_48\n      jump\t// in\n    tag_47:\n      tag_49\n      jump\t// in\n    tag_46:\n      mload(0x40)\n        /* \"#utility.yul\":1965:1979   */\n      swap1\n      iszero\n        /* \"#utility.yul\":1958:1980   */\n      iszero\n        /* \"#utility.yul\":1940:1981   */\n      dup2\n      mstore\n        /* \"#utility.yul\":1928:1930   */\n      0x20\n        /* \"#utility.yul\":1913:1931   */\n      add\n        /* \".deps/npm/@openzeppelin/contracts/governance/TimelockController.sol\":5653:5848  function supportsInterface(... */\n    tag_50:\n      mload(0x40)\n      dup1\n      swap2\n      sub\n      swap1\n      return\n        /* \".deps/npm/@openzeppelin/contracts/governance/TimelockController.sol\":1236:1302  bytes32 public constant EXECUTOR_ROLE = keccak256(\"EXECUTOR_ROLE\") */\n    tag_5:\n      callvalue\n      dup1\n      iszero\n      tag_52\n      jumpi\n      0x00\n      dup1\n      revert\n    tag_52:\n      pop\n      tag_53\n        /* \".deps/npm/@openzeppelin/contracts/governance/TimelockController.sol\":1276:1302  keccak256(\"EXECUTOR_ROLE\") */\n      0xd8aa0f3194971a2a116679f7c2090f6939c8d4e01a2a8d7e41d55e5351469e63\n        /* \".deps/npm/@openzeppelin/contracts/governance/TimelockController.sol\":1236:1302  bytes32 public constant EXECUTOR_ROLE = keccak256(\"EXECUTOR_ROLE\") */\n      dup2\n      jump\n    tag_53:\n      mload(0x40)\n        /* \"#utility.yul\":2138:2163   */\n      swap1\n      dup2\n      mstore\n        /* \"#utility.yul\":2126:2128   */\n      0x20\n        /* \"#utility.yul\":2111:2129   */\n      add\n        /* \".deps/npm/@openzeppelin/contracts/governance/TimelockController.sol\":1236:1302  bytes32 public constant EXECUTOR_ROLE = keccak256(\"EXECUTOR_ROLE\") */\n      tag_50\n        /* \"#utility.yul\":1992:2169   */\n      jump\n        /* \".deps/npm/@openzeppelin/contracts/governance/TimelockController.sol\":12174:12633  function execute(... */\n    tag_6:\n      tag_41\n      tag_58\n      calldatasize\n      0x04\n      tag_59\n      jump\t// in\n    tag_58:\n      tag_60\n      jump\t// in\n        /* \".deps/npm/@openzeppelin/contracts/governance/TimelockController.sol\":6615:6749  function isOperationReady(bytes32 id) public view returns (bool) {... */\n    tag_7:\n      callvalue\n      dup1\n      iszero\n      tag_61\n      jumpi\n      0x00\n      dup1\n      revert\n    tag_61:\n      pop\n      tag_46\n      tag_63\n      calldatasize\n      0x04\n      tag_64\n      jump\t// in\n    tag_63:\n      tag_65\n      jump\t// in\n        /* \".deps/npm/@openzeppelin/contracts/token/ERC721/utils/ERC721Holder.sol\":639:792  function onERC721Received(address, address, uint256, bytes memory) public virtual returns (bytes4) {... */\n    tag_8:\n      callvalue\n      dup1\n      iszero\n      tag_67\n      jumpi\n      0x00\n      dup1\n      revert\n    tag_67:\n      pop\n      tag_68\n      tag_69\n      calldatasize\n      0x04\n      tag_70\n      jump\t// in\n    tag_69:\n      shl(0xe1, 0x0a85bd01)\n      swap5\n      swap4\n      pop\n      pop\n      pop\n      pop\n      jump\n    tag_68:\n      mload(0x40)\n      not(sub(shl(0xe0, 0x01), 0x01))\n        /* \"#utility.yul\":4974:5007   */\n      swap1\n      swap2\n      and\n        /* \"#utility.yul\":4956:5008   */\n      dup2\n      mstore\n        /* \"#utility.yul\":4944:4946   */\n      0x20\n        /* \"#utility.yul\":4929:4947   */\n      add\n        /* \".deps/npm/@openzeppelin/contracts/token/ERC721/utils/ERC721Holder.sol\":639:792  function onERC721Received(address, address, uint256, bytes memory) public virtual returns (bytes4) {... */\n      tag_50\n        /* \"#utility.yul\":4812:5014   */\n      jump\n        /* \".deps/npm/@openzeppelin/contracts/access/AccessControl.sol\":3810:3930  function getRoleAdmin(bytes32 role) public view virtual returns (bytes32) {... */\n    tag_9:\n      callvalue\n      dup1\n      iszero\n      tag_74\n      jumpi\n      0x00\n      dup1\n      revert\n    tag_74:\n      pop\n      tag_53\n      tag_76\n      calldatasize\n      0x04\n      tag_64\n      jump\t// in\n    tag_76:\n        /* \".deps/npm/@openzeppelin/contracts/access/AccessControl.sol\":3875:3882  bytes32 */\n      0x00\n        /* \".deps/npm/@openzeppelin/contracts/access/AccessControl.sol\":3901:3913  _roles[role] */\n      swap1\n      dup2\n      mstore\n      0x20\n      dup2\n      swap1\n      mstore\n      0x40\n      swap1\n      keccak256\n        /* \".deps/npm/@openzeppelin/contracts/access/AccessControl.sol\":3901:3923  _roles[role].adminRole */\n      0x01\n      add\n      sload\n      swap1\n        /* \".deps/npm/@openzeppelin/contracts/access/AccessControl.sol\":3810:3930  function getRoleAdmin(bytes32 role) public view virtual returns (bytes32) {... */\n      jump\n        /* \".deps/npm/@openzeppelin/contracts/governance/TimelockController.sol\":6828:6960  function isOperationDone(bytes32 id) public view returns (bool) {... */\n    tag_10:\n      callvalue\n      dup1\n      iszero\n      tag_79\n      jumpi\n      0x00\n      dup1\n      revert\n    tag_79:\n      pop\n      tag_46\n      tag_81\n      calldatasize\n      0x04\n      tag_64\n      jump\t// in\n    tag_81:\n      tag_82\n      jump\t// in\n        /* \".deps/npm/@openzeppelin/contracts/access/AccessControl.sol\":4226:4362  function grantRole(bytes32 role, address account) public virtual onlyRole(getRoleAdmin(role)) {... */\n    tag_11:\n      callvalue\n      dup1\n      iszero\n      tag_84\n      jumpi\n      0x00\n      dup1\n      revert\n    tag_84:\n      pop\n      tag_41\n      tag_86\n      calldatasize\n      0x04\n      tag_87\n      jump\t// in\n    tag_86:\n      tag_88\n      jump\t// in\n        /* \".deps/npm/@openzeppelin/contracts/governance/TimelockController.sol\":6006:6135  function isOperation(bytes32 id) public view returns (bool) {... */\n    tag_12:\n      callvalue\n      dup1\n      iszero\n      tag_89\n      jumpi\n      0x00\n      dup1\n      revert\n    tag_89:\n      pop\n      tag_46\n      tag_91\n      calldatasize\n      0x04\n      tag_64\n      jump\t// in\n    tag_91:\n      tag_92\n      jump\t// in\n        /* \".deps/npm/@openzeppelin/contracts/access/AccessControl.sol\":5328:5573  function renounceRole(bytes32 role, address callerConfirmation) public virtual {... */\n    tag_13:\n      callvalue\n      dup1\n      iszero\n      tag_94\n      jumpi\n      0x00\n      dup1\n      revert\n    tag_94:\n      pop\n      tag_41\n      tag_96\n      calldatasize\n      0x04\n      tag_87\n      jump\t// in\n    tag_96:\n      tag_97\n      jump\t// in\n        /* \".deps/npm/@openzeppelin/contracts/governance/TimelockController.sol\":6270:6479  function isOperationPending(bytes32 id) public view returns (bool) {... */\n    tag_14:\n      callvalue\n      dup1\n      iszero\n      tag_98\n      jumpi\n      0x00\n      dup1\n      revert\n    tag_98:\n      pop\n      tag_46\n      tag_100\n      calldatasize\n      0x04\n      tag_64\n      jump\t// in\n    tag_100:\n      tag_101\n      jump\t// in\n        /* \".deps/npm/@openzeppelin/contracts/governance/TimelockController.sol\":15493:15779  function updateDelay(uint256 newDelay) external virtual {... */\n    tag_15:\n      callvalue\n      dup1\n      iszero\n      tag_103\n      jumpi\n      0x00\n      dup1\n      revert\n    tag_103:\n      pop\n      tag_41\n      tag_105\n      calldatasize\n      0x04\n      tag_64\n      jump\t// in\n    tag_105:\n      tag_107\n      jump\t// in\n        /* \".deps/npm/@openzeppelin/contracts/governance/TimelockController.sol\":7278:7738  function getOperationState(bytes32 id) public view virtual returns (OperationState) {... */\n    tag_16:\n      callvalue\n      dup1\n      iszero\n      tag_108\n      jumpi\n      0x00\n      dup1\n      revert\n    tag_108:\n      pop\n      tag_109\n      tag_110\n      calldatasize\n      0x04\n      tag_64\n      jump\t// in\n    tag_110:\n      tag_111\n      jump\t// in\n    tag_109:\n      mload(0x40)\n      tag_50\n      swap2\n      swap1\n      tag_113\n      jump\t// in\n        /* \".deps/npm/@openzeppelin/contracts/governance/TimelockController.sol\":8142:8421  function hashOperation(... */\n    tag_17:\n      callvalue\n      dup1\n      iszero\n      tag_114\n      jumpi\n      0x00\n      dup1\n      revert\n    tag_114:\n      pop\n      tag_53\n      tag_116\n      calldatasize\n      0x04\n      tag_59\n      jump\t// in\n    tag_116:\n      tag_117\n      jump\t// in\n        /* \".deps/npm/@openzeppelin/contracts/governance/TimelockController.sol\":9876:10683  function scheduleBatch(... */\n    tag_18:\n      callvalue\n      dup1\n      iszero\n      tag_119\n      jumpi\n      0x00\n      dup1\n      revert\n    tag_119:\n      pop\n      tag_41\n      tag_121\n      calldatasize\n      0x04\n      tag_122\n      jump\t// in\n    tag_121:\n      tag_123\n      jump\t// in\n        /* \".deps/npm/@openzeppelin/contracts/governance/TimelockController.sol\":1164:1230  bytes32 public constant PROPOSER_ROLE = keccak256(\"PROPOSER_ROLE\") */\n    tag_19:\n      callvalue\n      dup1\n      iszero\n      tag_124\n      jumpi\n      0x00\n      dup1\n      revert\n    tag_124:\n      pop\n      tag_53\n        /* \".deps/npm/@openzeppelin/contracts/governance/TimelockController.sol\":1204:1230  keccak256(\"PROPOSER_ROLE\") */\n      0xb09aa5aeb3702cfd50b6b62bc4532604938f21248a27a1d5ca736082b6819cc1\n        /* \".deps/npm/@openzeppelin/contracts/governance/TimelockController.sol\":1164:1230  bytes32 public constant PROPOSER_ROLE = keccak256(\"PROPOSER_ROLE\") */\n      dup2\n      jump\n        /* \".deps/npm/@openzeppelin/contracts/access/AccessControl.sol\":2854:2990  function hasRole(bytes32 role, address account) public view virtual returns (bool) {... */\n    tag_20:\n      callvalue\n      dup1\n      iszero\n      tag_128\n      jumpi\n      0x00\n      dup1\n      revert\n    tag_128:\n      pop\n      tag_46\n      tag_130\n      calldatasize\n      0x04\n      tag_87\n      jump\t// in\n    tag_130:\n      tag_131\n      jump\t// in\n        /* \".deps/npm/@openzeppelin/contracts/access/AccessControl.sol\":2187:2236  bytes32 public constant DEFAULT_ADMIN_ROLE = 0x00 */\n    tag_21:\n      callvalue\n      dup1\n      iszero\n      tag_133\n      jumpi\n      0x00\n      dup1\n      revert\n    tag_133:\n      pop\n      tag_53\n        /* \".deps/npm/@openzeppelin/contracts/access/AccessControl.sol\":2232:2236  0x00 */\n      0x00\n        /* \".deps/npm/@openzeppelin/contracts/access/AccessControl.sol\":2187:2236  bytes32 public constant DEFAULT_ADMIN_ROLE = 0x00 */\n      dup2\n      jump\n        /* \".deps/npm/@openzeppelin/contracts/governance/TimelockController.sol\":1308:1376  bytes32 public constant CANCELLER_ROLE = keccak256(\"CANCELLER_ROLE\") */\n    tag_22:\n      callvalue\n      dup1\n      iszero\n      tag_137\n      jumpi\n      0x00\n      dup1\n      revert\n    tag_137:\n      pop\n      tag_53\n        /* \".deps/npm/@openzeppelin/contracts/governance/TimelockController.sol\":1349:1376  keccak256(\"CANCELLER_ROLE\") */\n      0xfd643c72710c63c0180259aba6b2d05451e3591a24e58b62239378085726f783\n        /* \".deps/npm/@openzeppelin/contracts/governance/TimelockController.sol\":1308:1376  bytes32 public constant CANCELLER_ROLE = keccak256(\"CANCELLER_ROLE\") */\n      dup2\n      jump\n        /* \".deps/npm/@openzeppelin/contracts/governance/TimelockController.sol\":8537:8857  function hashOperationBatch(... */\n    tag_23:\n      callvalue\n      dup1\n      iszero\n      tag_141\n      jumpi\n      0x00\n      dup1\n      revert\n    tag_141:\n      pop\n      tag_53\n      tag_143\n      calldatasize\n      0x04\n      tag_144\n      jump\t// in\n    tag_143:\n      tag_145\n      jump\t// in\n        /* \".deps/npm/@openzeppelin/contracts/token/ERC1155/utils/ERC1155Holder.sol\":1102:1349  function onERC1155BatchReceived(... */\n    tag_24:\n      callvalue\n      dup1\n      iszero\n      tag_147\n      jumpi\n      0x00\n      dup1\n      revert\n    tag_147:\n      pop\n      tag_68\n      tag_149\n      calldatasize\n      0x04\n      tag_150\n      jump\t// in\n    tag_149:\n      shl(0xe0, 0xbc197c81)\n      swap6\n      swap5\n      pop\n      pop\n      pop\n      pop\n      pop\n      jump\n        /* \".deps/npm/@openzeppelin/contracts/governance/TimelockController.sol\":11325:11700  function cancel(bytes32 id) public virtual onlyRole(CANCELLER_ROLE) {... */\n    tag_25:\n      callvalue\n      dup1\n      iszero\n      tag_153\n      jumpi\n      0x00\n      dup1\n      revert\n    tag_153:\n      pop\n      tag_41\n      tag_155\n      calldatasize\n      0x04\n      tag_64\n      jump\t// in\n    tag_155:\n      tag_156\n      jump\t// in\n        /* \".deps/npm/@openzeppelin/contracts/governance/TimelockController.sol\":7108:7219  function getTimestamp(bytes32 id) public view virtual returns (uint256) {... */\n    tag_26:\n      callvalue\n      dup1\n      iszero\n      tag_157\n      jumpi\n      0x00\n      dup1\n      revert\n    tag_157:\n      pop\n      tag_53\n      tag_159\n      calldatasize\n      0x04\n      tag_64\n      jump\t// in\n    tag_159:\n        /* \".deps/npm/@openzeppelin/contracts/governance/TimelockController.sol\":7171:7178  uint256 */\n      0x00\n        /* \".deps/npm/@openzeppelin/contracts/governance/TimelockController.sol\":7197:7212  _timestamps[id] */\n      swap1\n      dup2\n      mstore\n        /* \".deps/npm/@openzeppelin/contracts/governance/TimelockController.sol\":7197:7208  _timestamps */\n      0x01\n        /* \".deps/npm/@openzeppelin/contracts/governance/TimelockController.sol\":7197:7212  _timestamps[id] */\n      0x20\n      mstore\n      0x40\n      swap1\n      keccak256\n      sload\n      swap1\n        /* \".deps/npm/@openzeppelin/contracts/governance/TimelockController.sol\":7108:7219  function getTimestamp(bytes32 id) public view virtual returns (uint256) {... */\n      jump\n        /* \".deps/npm/@openzeppelin/contracts/access/AccessControl.sol\":4642:4780  function revokeRole(bytes32 role, address account) public virtual onlyRole(getRoleAdmin(role)) {... */\n    tag_27:\n      callvalue\n      dup1\n      iszero\n      tag_163\n      jumpi\n      0x00\n      dup1\n      revert\n    tag_163:\n      pop\n      tag_41\n      tag_165\n      calldatasize\n      0x04\n      tag_87\n      jump\t// in\n    tag_165:\n      tag_166\n      jump\t// in\n        /* \".deps/npm/@openzeppelin/contracts/governance/TimelockController.sol\":13141:14037  function executeBatch(... */\n    tag_28:\n      tag_41\n      tag_168\n      calldatasize\n      0x04\n      tag_144\n      jump\t// in\n    tag_168:\n      tag_169\n      jump\t// in\n        /* \".deps/npm/@openzeppelin/contracts/token/ERC1155/utils/ERC1155Holder.sol\":877:1096  function onERC1155Received(... */\n    tag_29:\n      callvalue\n      dup1\n      iszero\n      tag_170\n      jumpi\n      0x00\n      dup1\n      revert\n    tag_170:\n      pop\n      tag_68\n      tag_172\n      calldatasize\n      0x04\n      tag_173\n      jump\t// in\n    tag_172:\n      shl(0xe0, 0xf23a6e61)\n      swap6\n      swap5\n      pop\n      pop\n      pop\n      pop\n      pop\n      jump\n        /* \".deps/npm/@openzeppelin/contracts/governance/TimelockController.sol\":7935:8029  function getMinDelay() public view virtual returns (uint256) {... */\n    tag_30:\n      callvalue\n      dup1\n      iszero\n      tag_176\n      jumpi\n      0x00\n      dup1\n      revert\n    tag_176:\n      pop\n        /* \".deps/npm/@openzeppelin/contracts/governance/TimelockController.sol\":8013:8022  _minDelay */\n      sload(0x02)\n        /* \".deps/npm/@openzeppelin/contracts/governance/TimelockController.sol\":7935:8029  function getMinDelay() public view virtual returns (uint256) {... */\n      jump(tag_53)\n        /* \".deps/npm/@openzeppelin/contracts/governance/TimelockController.sol\":9104:9587  function schedule(... */\n    tag_44:\n        /* \".deps/npm/@openzeppelin/contracts/governance/TimelockController.sol\":1204:1230  keccak256(\"PROPOSER_ROLE\") */\n      0xb09aa5aeb3702cfd50b6b62bc4532604938f21248a27a1d5ca736082b6819cc1\n        /* \".deps/npm/@openzeppelin/contracts/access/AccessControl.sol\":2464:2480  _checkRole(role) */\n      tag_181\n        /* \".deps/npm/@openzeppelin/contracts/access/AccessControl.sol\":2475:2479  role */\n      dup2\n        /* \".deps/npm/@openzeppelin/contracts/access/AccessControl.sol\":2464:2474  _checkRole */\n      tag_182\n        /* \".deps/npm/@openzeppelin/contracts/access/AccessControl.sol\":2464:2480  _checkRole(role) */\n      jump\t// in\n    tag_181:\n        /* \".deps/npm/@openzeppelin/contracts/governance/TimelockController.sol\":9327:9337  bytes32 id */\n      0x00\n        /* \".deps/npm/@openzeppelin/contracts/governance/TimelockController.sol\":9340:9393  hashOperation(target, value, data, predecessor, salt) */\n      tag_184\n        /* \".deps/npm/@openzeppelin/contracts/governance/TimelockController.sol\":9354:9360  target */\n      dup10\n        /* \".deps/npm/@openzeppelin/contracts/governance/TimelockController.sol\":9362:9367  value */\n      dup10\n        /* \".deps/npm/@openzeppelin/contracts/governance/TimelockController.sol\":9369:9373  data */\n      dup10\n      dup10\n        /* \".deps/npm/@openzeppelin/contracts/governance/TimelockController.sol\":9375:9386  predecessor */\n      dup10\n        /* \".deps/npm/@openzeppelin/contracts/governance/TimelockController.sol\":9388:9392  salt */\n      dup10\n        /* \".deps/npm/@openzeppelin/contracts/governance/TimelockController.sol\":9340:9353  hashOperation */\n      tag_117\n        /* \".deps/npm/@openzeppelin/contracts/governance/TimelockController.sol\":9340:9393  hashOperation(target, value, data, predecessor, salt) */\n      jump\t// in\n    tag_184:\n        /* \".deps/npm/@openzeppelin/contracts/governance/TimelockController.sol\":9327:9393  bytes32 id = hashOperation(target, value, data, predecessor, salt) */\n      swap1\n      pop\n        /* \".deps/npm/@openzeppelin/contracts/governance/TimelockController.sol\":9403:9423  _schedule(id, delay) */\n      tag_185\n        /* \".deps/npm/@openzeppelin/contracts/governance/TimelockController.sol\":9413:9415  id */\n      dup2\n        /* \".deps/npm/@openzeppelin/contracts/governance/TimelockController.sol\":9417:9422  delay */\n      dup5\n        /* \".deps/npm/@openzeppelin/contracts/governance/TimelockController.sol\":9403:9412  _schedule */\n      tag_186\n        /* \".deps/npm/@openzeppelin/contracts/governance/TimelockController.sol\":9403:9423  _schedule(id, delay) */\n      jump\t// in\n    tag_185:\n        /* \".deps/npm/@openzeppelin/contracts/governance/TimelockController.sol\":9456:9457  0 */\n      0x00\n        /* \".deps/npm/@openzeppelin/contracts/governance/TimelockController.sol\":9452:9454  id */\n      dup2\n        /* \".deps/npm/@openzeppelin/contracts/governance/TimelockController.sol\":9438:9499  CallScheduled(id, 0, target, value, data, predecessor, delay) */\n      0x4cf4410cc57040e44862ef0f45f3dd5a5e02db8eb8add648d4b0e236f1d07dca\n        /* \".deps/npm/@openzeppelin/contracts/governance/TimelockController.sol\":9459:9465  target */\n      dup12\n        /* \".deps/npm/@openzeppelin/contracts/governance/TimelockController.sol\":9467:9472  value */\n      dup12\n        /* \".deps/npm/@openzeppelin/contracts/governance/TimelockController.sol\":9474:9478  data */\n      dup12\n      dup12\n        /* \".deps/npm/@openzeppelin/contracts/governance/TimelockController.sol\":9480:9491  predecessor */\n      dup12\n        /* \".deps/npm/@openzeppelin/contracts/governance/TimelockController.sol\":9493:9498  delay */\n      dup11\n        /* \".deps/npm/@openzeppelin/contracts/governance/TimelockController.sol\":9438:9499  CallScheduled(id, 0, target, value, data, predecessor, delay) */\n      mload(0x40)\n      tag_187\n      swap7\n      swap6\n      swap5\n      swap4\n      swap3\n      swap2\n      swap1\n      tag_188\n      jump\t// in\n    tag_187:\n      mload(0x40)\n      dup1\n      swap2\n      sub\n      swap1\n      log3\n        /* \".deps/npm/@openzeppelin/contracts/governance/TimelockController.sol\":9513:9531  salt != bytes32(0) */\n      dup4\n      iszero\n        /* \".deps/npm/@openzeppelin/contracts/governance/TimelockController.sol\":9509:9581  if (salt != bytes32(0)) {... */\n      tag_189\n      jumpi\n        /* \".deps/npm/@openzeppelin/contracts/governance/TimelockController.sol\":9561:9563  id */\n      dup1\n        /* \".deps/npm/@openzeppelin/contracts/governance/TimelockController.sol\":9552:9570  CallSalt(id, salt) */\n      0x20fda5fd27a1ea7bf5b9567f143ac5470bb059374a27e8f67cb44f946f6d0387\n        /* \".deps/npm/@openzeppelin/contracts/governance/TimelockController.sol\":9565:9569  salt */\n      dup6\n        /* \".deps/npm/@openzeppelin/contracts/governance/TimelockController.sol\":9552:9570  CallSalt(id, salt) */\n      mload(0x40)\n      tag_190\n      swap2\n        /* \"#utility.yul\":2138:2163   */\n      dup2\n      mstore\n        /* \"#utility.yul\":2126:2128   */\n      0x20\n        /* \"#utility.yul\":2111:2129   */\n      add\n      swap1\n        /* \"#utility.yul\":1992:2169   */\n      jump\n        /* \".deps/npm/@openzeppelin/contracts/governance/TimelockController.sol\":9552:9570  CallSalt(id, salt) */\n    tag_190:\n      mload(0x40)\n      dup1\n      swap2\n      sub\n      swap1\n      log2\n        /* \".deps/npm/@openzeppelin/contracts/governance/TimelockController.sol\":9509:9581  if (salt != bytes32(0)) {... */\n    tag_189:\n        /* \".deps/npm/@openzeppelin/contracts/governance/TimelockController.sol\":9317:9587  {... */\n      pop\n        /* \".deps/npm/@openzeppelin/contracts/governance/TimelockController.sol\":9104:9587  function schedule(... */\n      pop\n      pop\n      pop\n      pop\n      pop\n      pop\n      pop\n      pop\n      jump\t// out\n        /* \".deps/npm/@openzeppelin/contracts/governance/TimelockController.sol\":5653:5848  function supportsInterface(... */\n    tag_49:\n        /* \".deps/npm/@openzeppelin/contracts/governance/TimelockController.sol\":5782:5786  bool */\n      0x00\n        /* \".deps/npm/@openzeppelin/contracts/governance/TimelockController.sol\":5805:5841  super.supportsInterface(interfaceId) */\n      tag_192\n        /* \".deps/npm/@openzeppelin/contracts/governance/TimelockController.sol\":5829:5840  interfaceId */\n      dup3\n        /* \".deps/npm/@openzeppelin/contracts/governance/TimelockController.sol\":5805:5828  super.supportsInterface */\n      tag_193\n        /* \".deps/npm/@openzeppelin/contracts/governance/TimelockController.sol\":5805:5841  super.supportsInterface(interfaceId) */\n      jump\t// in\n    tag_192:\n        /* \".deps/npm/@openzeppelin/contracts/governance/TimelockController.sol\":5798:5841  return super.supportsInterface(interfaceId) */\n      swap3\n        /* \".deps/npm/@openzeppelin/contracts/governance/TimelockController.sol\":5653:5848  function supportsInterface(... */\n      swap2\n      pop\n      pop\n      jump\t// out\n        /* \".deps/npm/@openzeppelin/contracts/governance/TimelockController.sol\":12174:12633  function execute(... */\n    tag_60:\n        /* \".deps/npm/@openzeppelin/contracts/governance/TimelockController.sol\":1276:1302  keccak256(\"EXECUTOR_ROLE\") */\n      0xd8aa0f3194971a2a116679f7c2090f6939c8d4e01a2a8d7e41d55e5351469e63\n        /* \".deps/npm/@openzeppelin/contracts/governance/TimelockController.sol\":5348:5373  hasRole(role, address(0)) */\n      tag_195\n        /* \".deps/npm/@openzeppelin/contracts/governance/TimelockController.sol\":5356:5360  role */\n      dup2\n        /* \".deps/npm/@openzeppelin/contracts/governance/TimelockController.sol\":5370:5371  0 */\n      0x00\n        /* \".deps/npm/@openzeppelin/contracts/governance/TimelockController.sol\":5348:5355  hasRole */\n      tag_131\n        /* \".deps/npm/@openzeppelin/contracts/governance/TimelockController.sol\":5348:5373  hasRole(role, address(0)) */\n      jump\t// in\n    tag_195:\n        /* \".deps/npm/@openzeppelin/contracts/governance/TimelockController.sol\":5343:5430  if (!hasRole(role, address(0))) {... */\n      tag_197\n      jumpi\n        /* \".deps/npm/@openzeppelin/contracts/governance/TimelockController.sol\":5389:5419  _checkRole(role, _msgSender()) */\n      tag_197\n        /* \".deps/npm/@openzeppelin/contracts/governance/TimelockController.sol\":5400:5404  role */\n      dup2\n        /* \".deps/npm/@openzeppelin/contracts/utils/Context.sol\":735:745  msg.sender */\n      caller\n        /* \".deps/npm/@openzeppelin/contracts/governance/TimelockController.sol\":5389:5399  _checkRole */\n      tag_200\n        /* \".deps/npm/@openzeppelin/contracts/governance/TimelockController.sol\":5389:5419  _checkRole(role, _msgSender()) */\n      jump\t// in\n    tag_197:\n        /* \".deps/npm/@openzeppelin/contracts/governance/TimelockController.sol\":12394:12404  bytes32 id */\n      0x00\n        /* \".deps/npm/@openzeppelin/contracts/governance/TimelockController.sol\":12407:12463  hashOperation(target, value, payload, predecessor, salt) */\n      tag_202\n        /* \".deps/npm/@openzeppelin/contracts/governance/TimelockController.sol\":12421:12427  target */\n      dup9\n        /* \".deps/npm/@openzeppelin/contracts/governance/TimelockController.sol\":12429:12434  value */\n      dup9\n        /* \".deps/npm/@openzeppelin/contracts/governance/TimelockController.sol\":12436:12443  payload */\n      dup9\n      dup9\n        /* \".deps/npm/@openzeppelin/contracts/governance/TimelockController.sol\":12445:12456  predecessor */\n      dup9\n        /* \".deps/npm/@openzeppelin/contracts/governance/TimelockController.sol\":12458:12462  salt */\n      dup9\n        /* \".deps/npm/@openzeppelin/contracts/governance/TimelockController.sol\":12407:12420  hashOperation */\n      tag_117\n        /* \".deps/npm/@openzeppelin/contracts/governance/TimelockController.sol\":12407:12463  hashOperation(target, value, payload, predecessor, salt) */\n      jump\t// in\n    tag_202:\n        /* \".deps/npm/@openzeppelin/contracts/governance/TimelockController.sol\":12394:12463  bytes32 id = hashOperation(target, value, payload, predecessor, salt) */\n      swap1\n      pop\n        /* \".deps/npm/@openzeppelin/contracts/governance/TimelockController.sol\":12474:12502  _beforeCall(id, predecessor) */\n      tag_203\n        /* \".deps/npm/@openzeppelin/contracts/governance/TimelockController.sol\":12486:12488  id */\n      dup2\n        /* \".deps/npm/@openzeppelin/contracts/governance/TimelockController.sol\":12490:12501  predecessor */\n      dup6\n        /* \".deps/npm/@openzeppelin/contracts/governance/TimelockController.sol\":12474:12485  _beforeCall */\n      tag_204\n        /* \".deps/npm/@openzeppelin/contracts/governance/TimelockController.sol\":12474:12502  _beforeCall(id, predecessor) */\n      jump\t// in\n    tag_203:\n        /* \".deps/npm/@openzeppelin/contracts/governance/TimelockController.sol\":12512:12544  _execute(target, value, payload) */\n      tag_205\n        /* \".deps/npm/@openzeppelin/contracts/governance/TimelockController.sol\":12521:12527  target */\n      dup9\n        /* \".deps/npm/@openzeppelin/contracts/governance/TimelockController.sol\":12529:12534  value */\n      dup9\n        /* \".deps/npm/@openzeppelin/contracts/governance/TimelockController.sol\":12536:12543  payload */\n      dup9\n      dup9\n        /* \".deps/npm/@openzeppelin/contracts/governance/TimelockController.sol\":12512:12520  _execute */\n      tag_206\n        /* \".deps/npm/@openzeppelin/contracts/governance/TimelockController.sol\":12512:12544  _execute(target, value, payload) */\n      jump\t// in\n    tag_205:\n        /* \".deps/npm/@openzeppelin/contracts/governance/TimelockController.sol\":12576:12577  0 */\n      0x00\n        /* \".deps/npm/@openzeppelin/contracts/governance/TimelockController.sol\":12572:12574  id */\n      dup2\n        /* \".deps/npm/@openzeppelin/contracts/governance/TimelockController.sol\":12559:12602  CallExecuted(id, 0, target, value, payload) */\n      0xc2617efa69bab66782fa219543714338489c4e9e178271560a91b82c3f612b58\n        /* \".deps/npm/@openzeppelin/contracts/governance/TimelockController.sol\":12579:12585  target */\n      dup11\n        /* \".deps/npm/@openzeppelin/contracts/governance/TimelockController.sol\":12587:12592  value */\n      dup11\n        /* \".deps/npm/@openzeppelin/contracts/governance/TimelockController.sol\":12594:12601  payload */\n      dup11\n      dup11\n        /* \".deps/npm/@openzeppelin/contracts/governance/TimelockController.sol\":12559:12602  CallExecuted(id, 0, target, value, payload) */\n      mload(0x40)\n      tag_207\n      swap5\n      swap4\n      swap3\n      swap2\n      swap1\n      tag_208\n      jump\t// in\n    tag_207:\n      mload(0x40)\n      dup1\n      swap2\n      sub\n      swap1\n      log3\n        /* \".deps/npm/@openzeppelin/contracts/governance/TimelockController.sol\":12612:12626  _afterCall(id) */\n      tag_209\n        /* \".deps/npm/@openzeppelin/contracts/governance/TimelockController.sol\":12623:12625  id */\n      dup2\n        /* \".deps/npm/@openzeppelin/contracts/governance/TimelockController.sol\":12612:12622  _afterCall */\n      tag_210\n        /* \".deps/npm/@openzeppelin/contracts/governance/TimelockController.sol\":12612:12626  _afterCall(id) */\n      jump\t// in\n    tag_209:\n        /* \".deps/npm/@openzeppelin/contracts/governance/TimelockController.sol\":12384:12633  {... */\n      pop\n        /* \".deps/npm/@openzeppelin/contracts/governance/TimelockController.sol\":12174:12633  function execute(... */\n      pop\n      pop\n      pop\n      pop\n      pop\n      pop\n      pop\n      jump\t// out\n        /* \".deps/npm/@openzeppelin/contracts/governance/TimelockController.sol\":6615:6749  function isOperationReady(bytes32 id) public view returns (bool) {... */\n    tag_65:\n        /* \".deps/npm/@openzeppelin/contracts/governance/TimelockController.sol\":6674:6678  bool */\n      0x00\n        /* \".deps/npm/@openzeppelin/contracts/governance/TimelockController.sol\":6722:6742  OperationState.Ready */\n      0x02\n        /* \".deps/npm/@openzeppelin/contracts/governance/TimelockController.sol\":6697:6742  getOperationState(id) == OperationState.Ready */\n    tag_213:\n        /* \".deps/npm/@openzeppelin/contracts/governance/TimelockController.sol\":6697:6718  getOperationState(id) */\n      tag_215\n        /* \".deps/npm/@openzeppelin/contracts/governance/TimelockController.sol\":6715:6717  id */\n      dup4\n        /* \".deps/npm/@openzeppelin/contracts/governance/TimelockController.sol\":6697:6714  getOperationState */\n      tag_111\n        /* \".deps/npm/@openzeppelin/contracts/governance/TimelockController.sol\":6697:6718  getOperationState(id) */\n      jump\t// in\n    tag_215:\n        /* \".deps/npm/@openzeppelin/contracts/governance/TimelockController.sol\":6697:6742  getOperationState(id) == OperationState.Ready */\n      0x03\n      dup2\n      gt\n      iszero\n      tag_217\n      jumpi\n      tag_217\n      tag_214\n      jump\t// in\n    tag_217:\n      eq\n      swap3\n        /* \".deps/npm/@openzeppelin/contracts/governance/TimelockController.sol\":6615:6749  function isOperationReady(bytes32 id) public view returns (bool) {... */\n      swap2\n      pop\n      pop\n      jump\t// out\n        /* \".deps/npm/@openzeppelin/contracts/governance/TimelockController.sol\":6828:6960  function isOperationDone(bytes32 id) public view returns (bool) {... */\n    tag_82:\n        /* \".deps/npm/@openzeppelin/contracts/governance/TimelockController.sol\":6886:6890  bool */\n      0x00\n        /* \".deps/npm/@openzeppelin/contracts/governance/TimelockController.sol\":6934:6953  OperationState.Done */\n      0x03\n        /* \".deps/npm/@openzeppelin/contracts/governance/TimelockController.sol\":6909:6953  getOperationState(id) == OperationState.Done */\n      jump(tag_213)\n        /* \".deps/npm/@openzeppelin/contracts/access/AccessControl.sol\":4226:4362  function grantRole(bytes32 role, address account) public virtual onlyRole(getRoleAdmin(role)) {... */\n    tag_88:\n        /* \".deps/npm/@openzeppelin/contracts/access/AccessControl.sol\":3875:3882  bytes32 */\n      0x00\n        /* \".deps/npm/@openzeppelin/contracts/access/AccessControl.sol\":3901:3913  _roles[role] */\n      dup3\n      dup2\n      mstore\n      0x20\n      dup2\n      swap1\n      mstore\n      0x40\n      swap1\n      keccak256\n        /* \".deps/npm/@openzeppelin/contracts/access/AccessControl.sol\":3901:3923  _roles[role].adminRole */\n      0x01\n      add\n      sload\n        /* \".deps/npm/@openzeppelin/contracts/access/AccessControl.sol\":2464:2480  _checkRole(role) */\n      tag_228\n        /* \".deps/npm/@openzeppelin/contracts/access/AccessControl.sol\":2475:2479  role */\n      dup2\n        /* \".deps/npm/@openzeppelin/contracts/access/AccessControl.sol\":2464:2474  _checkRole */\n      tag_182\n        /* \".deps/npm/@openzeppelin/contracts/access/AccessControl.sol\":2464:2480  _checkRole(role) */\n      jump\t// in\n    tag_228:\n        /* \".deps/npm/@openzeppelin/contracts/access/AccessControl.sol\":4330:4355  _grantRole(role, account) */\n      tag_230\n        /* \".deps/npm/@openzeppelin/contracts/access/AccessControl.sol\":4341:4345  role */\n      dup4\n        /* \".deps/npm/@openzeppelin/contracts/access/AccessControl.sol\":4347:4354  account */\n      dup4\n        /* \".deps/npm/@openzeppelin/contracts/access/AccessControl.sol\":4330:4340  _grantRole */\n      tag_231\n        /* \".deps/npm/@openzeppelin/contracts/access/AccessControl.sol\":4330:4355  _grantRole(role, account) */\n      jump\t// in\n    tag_230:\n      pop\n        /* \".deps/npm/@openzeppelin/contracts/access/AccessControl.sol\":4226:4362  function grantRole(bytes32 role, address account) public virtual onlyRole(getRoleAdmin(role)) {... */\n      pop\n      pop\n      pop\n      jump\t// out\n        /* \".deps/npm/@openzeppelin/contracts/governance/TimelockController.sol\":6006:6135  function isOperation(bytes32 id) public view returns (bool) {... */\n    tag_92:\n        /* \".deps/npm/@openzeppelin/contracts/governance/TimelockController.sol\":6060:6064  bool */\n      0x00\n      dup1\n        /* \".deps/npm/@openzeppelin/contracts/governance/TimelockController.sol\":6083:6104  getOperationState(id) */\n      tag_235\n        /* \".deps/npm/@openzeppelin/contracts/governance/TimelockController.sol\":6101:6103  id */\n      dup4\n        /* \".deps/npm/@openzeppelin/contracts/governance/TimelockController.sol\":6083:6100  getOperationState */\n      tag_111\n        /* \".deps/npm/@openzeppelin/contracts/governance/TimelockController.sol\":6083:6104  getOperationState(id) */\n      jump\t// in\n    tag_235:\n        /* \".deps/npm/@openzeppelin/contracts/governance/TimelockController.sol\":6083:6128  getOperationState(id) != OperationState.Unset */\n      0x03\n      dup2\n      gt\n      iszero\n      tag_237\n      jumpi\n      tag_237\n      tag_214\n      jump\t// in\n    tag_237:\n      eq\n      iszero\n      swap3\n        /* \".deps/npm/@openzeppelin/contracts/governance/TimelockController.sol\":6006:6135  function isOperation(bytes32 id) public view returns (bool) {... */\n      swap2\n      pop\n      pop\n      jump\t// out\n        /* \".deps/npm/@openzeppelin/contracts/access/AccessControl.sol\":5328:5573  function renounceRole(bytes32 role, address callerConfirmation) public virtual {... */\n    tag_97:\n      sub(shl(0xa0, 0x01), 0x01)\n        /* \".deps/npm/@openzeppelin/contracts/access/AccessControl.sol\":5421:5455  callerConfirmation != _msgSender() */\n      dup2\n      and\n        /* \".deps/npm/@openzeppelin/contracts/utils/Context.sol\":735:745  msg.sender */\n      caller\n        /* \".deps/npm/@openzeppelin/contracts/access/AccessControl.sol\":5421:5455  callerConfirmation != _msgSender() */\n      eq\n        /* \".deps/npm/@openzeppelin/contracts/access/AccessControl.sol\":5417:5519  if (callerConfirmation != _msgSender()) {... */\n      tag_240\n      jumpi\n        /* \".deps/npm/@openzeppelin/contracts/access/AccessControl.sol\":5478:5508  AccessControlBadConfirmation() */\n      mload(0x40)\n      shl(0xe1, 0x334bd919)\n      dup2\n      mstore\n      0x04\n      add\n      mload(0x40)\n      dup1\n      swap2\n      sub\n      swap1\n      revert\n        /* \".deps/npm/@openzeppelin/contracts/access/AccessControl.sol\":5417:5519  if (callerConfirmation != _msgSender()) {... */\n    tag_240:\n        /* \".deps/npm/@openzeppelin/contracts/access/AccessControl.sol\":5529:5566  _revokeRole(role, callerConfirmation) */\n      tag_241\n        /* \".deps/npm/@openzeppelin/contracts/access/AccessControl.sol\":5541:5545  role */\n      dup3\n        /* \".deps/npm/@openzeppelin/contracts/access/AccessControl.sol\":5547:5565  callerConfirmation */\n      dup3\n        /* \".deps/npm/@openzeppelin/contracts/access/AccessControl.sol\":5529:5540  _revokeRole */\n      tag_242\n        /* \".deps/npm/@openzeppelin/contracts/access/AccessControl.sol\":5529:5566  _revokeRole(role, callerConfirmation) */\n      jump\t// in\n    tag_241:\n      pop\n        /* \".deps/npm/@openzeppelin/contracts/access/AccessControl.sol\":5328:5573  function renounceRole(bytes32 role, address callerConfirmation) public virtual {... */\n      pop\n      pop\n      jump\t// out\n        /* \".deps/npm/@openzeppelin/contracts/governance/TimelockController.sol\":6270:6479  function isOperationPending(bytes32 id) public view returns (bool) {... */\n    tag_101:\n        /* \".deps/npm/@openzeppelin/contracts/governance/TimelockController.sol\":6331:6335  bool */\n      0x00\n        /* \".deps/npm/@openzeppelin/contracts/governance/TimelockController.sol\":6347:6367  OperationState state */\n      dup1\n        /* \".deps/npm/@openzeppelin/contracts/governance/TimelockController.sol\":6370:6391  getOperationState(id) */\n      tag_244\n        /* \".deps/npm/@openzeppelin/contracts/governance/TimelockController.sol\":6388:6390  id */\n      dup4\n        /* \".deps/npm/@openzeppelin/contracts/governance/TimelockController.sol\":6370:6387  getOperationState */\n      tag_111\n        /* \".deps/npm/@openzeppelin/contracts/governance/TimelockController.sol\":6370:6391  getOperationState(id) */\n      jump\t// in\n    tag_244:\n        /* \".deps/npm/@openzeppelin/contracts/governance/TimelockController.sol\":6347:6391  OperationState state = getOperationState(id) */\n      swap1\n      pop\n        /* \".deps/npm/@openzeppelin/contracts/governance/TimelockController.sol\":6417:6439  OperationState.Waiting */\n      0x01\n        /* \".deps/npm/@openzeppelin/contracts/governance/TimelockController.sol\":6408:6413  state */\n      dup2\n        /* \".deps/npm/@openzeppelin/contracts/governance/TimelockController.sol\":6408:6439  state == OperationState.Waiting */\n      0x03\n      dup2\n      gt\n      iszero\n      tag_248\n      jumpi\n      tag_248\n      tag_214\n      jump\t// in\n    tag_248:\n      eq\n        /* \".deps/npm/@openzeppelin/contracts/governance/TimelockController.sol\":6408:6472  state == OperationState.Waiting || state == OperationState.Ready */\n      dup1\n      tag_249\n      jumpi\n      pop\n        /* \".deps/npm/@openzeppelin/contracts/governance/TimelockController.sol\":6452:6472  OperationState.Ready */\n      0x02\n        /* \".deps/npm/@openzeppelin/contracts/governance/TimelockController.sol\":6443:6448  state */\n      dup2\n        /* \".deps/npm/@openzeppelin/contracts/governance/TimelockController.sol\":6443:6472  state == OperationState.Ready */\n      0x03\n      dup2\n      gt\n      iszero\n      tag_253\n      jumpi\n      tag_253\n      tag_214\n      jump\t// in\n    tag_253:\n      eq\n        /* \".deps/npm/@openzeppelin/contracts/governance/TimelockController.sol\":6408:6472  state == OperationState.Waiting || state == OperationState.Ready */\n    tag_249:\n        /* \".deps/npm/@openzeppelin/contracts/governance/TimelockController.sol\":6401:6472  return state == OperationState.Waiting || state == OperationState.Ready */\n      swap4\n        /* \".deps/npm/@openzeppelin/contracts/governance/TimelockController.sol\":6270:6479  function isOperationPending(bytes32 id) public view returns (bool) {... */\n      swap3\n      pop\n      pop\n      pop\n      jump\t// out\n        /* \".deps/npm/@openzeppelin/contracts/governance/TimelockController.sol\":15493:15779  function updateDelay(uint256 newDelay) external virtual {... */\n    tag_107:\n        /* \".deps/npm/@openzeppelin/contracts/utils/Context.sol\":735:745  msg.sender */\n      caller\n        /* \".deps/npm/@openzeppelin/contracts/governance/TimelockController.sol\":15620:15624  this */\n      address\n        /* \".deps/npm/@openzeppelin/contracts/governance/TimelockController.sol\":15602:15625  sender != address(this) */\n      dup2\n      eq\n        /* \".deps/npm/@openzeppelin/contracts/governance/TimelockController.sol\":15598:15693  if (sender != address(this)) {... */\n      tag_256\n      jumpi\n        /* \".deps/npm/@openzeppelin/contracts/governance/TimelockController.sol\":15648:15682  TimelockUnauthorizedCaller(sender) */\n      mload(0x40)\n      shl(0xe0, 0xe2850c59)\n      dup2\n      mstore\n      sub(shl(0xa0, 0x01), 0x01)\n        /* \"#utility.yul\":13277:13309   */\n      dup3\n      and\n        /* \".deps/npm/@openzeppelin/contracts/governance/TimelockController.sol\":15648:15682  TimelockUnauthorizedCaller(sender) */\n      0x04\n      dup3\n      add\n        /* \"#utility.yul\":13259:13310   */\n      mstore\n        /* \"#utility.yul\":13232:13250   */\n      0x24\n      add\n        /* \".deps/npm/@openzeppelin/contracts/governance/TimelockController.sol\":15648:15682  TimelockUnauthorizedCaller(sender) */\n    tag_257:\n      mload(0x40)\n      dup1\n      swap2\n      sub\n      swap1\n      revert\n        /* \".deps/npm/@openzeppelin/contracts/governance/TimelockController.sol\":15598:15693  if (sender != address(this)) {... */\n    tag_256:\n        /* \".deps/npm/@openzeppelin/contracts/governance/TimelockController.sol\":15722:15731  _minDelay */\n      sload(0x02)\n        /* \".deps/npm/@openzeppelin/contracts/governance/TimelockController.sol\":15707:15742  MinDelayChange(_minDelay, newDelay) */\n      0x40\n      dup1\n      mload\n        /* \"#utility.yul\":13495:13520   */\n      swap2\n      dup3\n      mstore\n        /* \"#utility.yul\":13551:13553   */\n      0x20\n        /* \"#utility.yul\":13536:13554   */\n      dup3\n      add\n        /* \"#utility.yul\":13529:13563   */\n      dup5\n      swap1\n      mstore\n        /* \".deps/npm/@openzeppelin/contracts/governance/TimelockController.sol\":15707:15742  MinDelayChange(_minDelay, newDelay) */\n      0x11c24f4ead16507c69ac467fbd5e4eed5fb5c699626d2cc6d66421df253886d5\n      swap2\n        /* \"#utility.yul\":13468:13486   */\n      add\n        /* \".deps/npm/@openzeppelin/contracts/governance/TimelockController.sol\":15707:15742  MinDelayChange(_minDelay, newDelay) */\n      mload(0x40)\n      dup1\n      swap2\n      sub\n      swap1\n      log1\n      pop\n        /* \".deps/npm/@openzeppelin/contracts/governance/TimelockController.sol\":15752:15761  _minDelay */\n      0x02\n        /* \".deps/npm/@openzeppelin/contracts/governance/TimelockController.sol\":15752:15772  _minDelay = newDelay */\n      sstore\n        /* \".deps/npm/@openzeppelin/contracts/governance/TimelockController.sol\":15493:15779  function updateDelay(uint256 newDelay) external virtual {... */\n      jump\t// out\n        /* \".deps/npm/@openzeppelin/contracts/governance/TimelockController.sol\":7278:7738  function getOperationState(bytes32 id) public view virtual returns (OperationState) {... */\n    tag_111:\n        /* \".deps/npm/@openzeppelin/contracts/governance/TimelockController.sol\":7346:7360  OperationState */\n      0x00\n        /* \".deps/npm/@openzeppelin/contracts/governance/TimelockController.sol\":7197:7212  _timestamps[id] */\n      dup2\n      dup2\n      mstore\n        /* \".deps/npm/@openzeppelin/contracts/governance/TimelockController.sol\":7197:7208  _timestamps */\n      0x01\n        /* \".deps/npm/@openzeppelin/contracts/governance/TimelockController.sol\":7197:7212  _timestamps[id] */\n      0x20\n      mstore\n      0x40\n      dup2\n      keccak256\n      sload\n        /* \".deps/npm/@openzeppelin/contracts/governance/TimelockController.sol\":7422:7431  timestamp */\n      dup1\n        /* \".deps/npm/@openzeppelin/contracts/governance/TimelockController.sol\":7435:7436  0 */\n      0x00\n        /* \".deps/npm/@openzeppelin/contracts/governance/TimelockController.sol\":7422:7436  timestamp == 0 */\n      sub\n        /* \".deps/npm/@openzeppelin/contracts/governance/TimelockController.sol\":7418:7732  if (timestamp == 0) {... */\n      tag_263\n      jumpi\n      pop\n        /* \".deps/npm/@openzeppelin/contracts/governance/TimelockController.sol\":7459:7479  OperationState.Unset */\n      0x00\n      swap3\n        /* \".deps/npm/@openzeppelin/contracts/governance/TimelockController.sol\":7278:7738  function getOperationState(bytes32 id) public view virtual returns (OperationState) {... */\n      swap2\n      pop\n      pop\n      jump\t// out\n        /* \".deps/npm/@openzeppelin/contracts/governance/TimelockController.sol\":7418:7732  if (timestamp == 0) {... */\n    tag_263:\n        /* \".deps/npm/@openzeppelin/contracts/governance/TimelockController.sol\":1434:1435  1 */\n      0x01\n        /* \".deps/npm/@openzeppelin/contracts/governance/TimelockController.sol\":7500:7509  timestamp */\n      dup2\n        /* \".deps/npm/@openzeppelin/contracts/governance/TimelockController.sol\":7500:7528  timestamp == _DONE_TIMESTAMP */\n      sub\n        /* \".deps/npm/@openzeppelin/contracts/governance/TimelockController.sol\":7496:7732  if (timestamp == _DONE_TIMESTAMP) {... */\n      tag_265\n      jumpi\n      pop\n        /* \".deps/npm/@openzeppelin/contracts/governance/TimelockController.sol\":7551:7570  OperationState.Done */\n      0x03\n      swap3\n        /* \".deps/npm/@openzeppelin/contracts/governance/TimelockController.sol\":7278:7738  function getOperationState(bytes32 id) public view virtual returns (OperationState) {... */\n      swap2\n      pop\n      pop\n      jump\t// out\n        /* \".deps/npm/@openzeppelin/contracts/governance/TimelockController.sol\":7496:7732  if (timestamp == _DONE_TIMESTAMP) {... */\n    tag_265:\n        /* \".deps/npm/@openzeppelin/contracts/governance/TimelockController.sol\":7603:7618  block.timestamp */\n      timestamp\n        /* \".deps/npm/@openzeppelin/contracts/governance/TimelockController.sol\":7591:7600  timestamp */\n      dup2\n        /* \".deps/npm/@openzeppelin/contracts/governance/TimelockController.sol\":7591:7618  timestamp > block.timestamp */\n      gt\n        /* \".deps/npm/@openzeppelin/contracts/governance/TimelockController.sol\":7587:7732  if (timestamp > block.timestamp) {... */\n      iszero\n      tag_267\n      jumpi\n      pop\n        /* \".deps/npm/@openzeppelin/contracts/governance/TimelockController.sol\":7641:7663  OperationState.Waiting */\n      0x01\n      swap3\n        /* \".deps/npm/@openzeppelin/contracts/governance/TimelockController.sol\":7278:7738  function getOperationState(bytes32 id) public view virtual returns (OperationState) {... */\n      swap2\n      pop\n      pop\n      jump\t// out\n        /* \".deps/npm/@openzeppelin/contracts/governance/TimelockController.sol\":7587:7732  if (timestamp > block.timestamp) {... */\n    tag_267:\n      pop\n        /* \".deps/npm/@openzeppelin/contracts/governance/TimelockController.sol\":7701:7721  OperationState.Ready */\n      0x02\n      swap3\n        /* \".deps/npm/@openzeppelin/contracts/governance/TimelockController.sol\":7278:7738  function getOperationState(bytes32 id) public view virtual returns (OperationState) {... */\n      swap2\n      pop\n      pop\n      jump\t// out\n        /* \".deps/npm/@openzeppelin/contracts/governance/TimelockController.sol\":8142:8421  function hashOperation(... */\n    tag_117:\n        /* \".deps/npm/@openzeppelin/contracts/governance/TimelockController.sol\":8327:8334  bytes32 */\n      0x00\n        /* \".deps/npm/@openzeppelin/contracts/governance/TimelockController.sol\":8374:8380  target */\n      dup7\n        /* \".deps/npm/@openzeppelin/contracts/governance/TimelockController.sol\":8382:8387  value */\n      dup7\n        /* \".deps/npm/@openzeppelin/contracts/governance/TimelockController.sol\":8389:8393  data */\n      dup7\n      dup7\n        /* \".deps/npm/@openzeppelin/contracts/governance/TimelockController.sol\":8395:8406  predecessor */\n      dup7\n        /* \".deps/npm/@openzeppelin/contracts/governance/TimelockController.sol\":8408:8412  salt */\n      dup7\n        /* \".deps/npm/@openzeppelin/contracts/governance/TimelockController.sol\":8363:8413  abi.encode(target, value, data, predecessor, salt) */\n      add(0x20, mload(0x40))\n      tag_270\n      swap7\n      swap6\n      swap5\n      swap4\n      swap3\n      swap2\n      swap1\n      tag_188\n      jump\t// in\n    tag_270:\n      mload(0x40)\n      0x20\n      dup2\n      dup4\n      sub\n      sub\n      dup2\n      mstore\n      swap1\n      0x40\n      mstore\n        /* \".deps/npm/@openzeppelin/contracts/governance/TimelockController.sol\":8353:8414  keccak256(abi.encode(target, value, data, predecessor, salt)) */\n      dup1\n      mload\n      swap1\n      0x20\n      add\n      keccak256\n        /* \".deps/npm/@openzeppelin/contracts/governance/TimelockController.sol\":8346:8414  return keccak256(abi.encode(target, value, data, predecessor, salt)) */\n      swap1\n      pop\n        /* \".deps/npm/@openzeppelin/contracts/governance/TimelockController.sol\":8142:8421  function hashOperation(... */\n      swap7\n      swap6\n      pop\n      pop\n      pop\n      pop\n      pop\n      pop\n      jump\t// out\n        /* \".deps/npm/@openzeppelin/contracts/governance/TimelockController.sol\":9876:10683  function scheduleBatch(... */\n    tag_123:\n        /* \".deps/npm/@openzeppelin/contracts/governance/TimelockController.sol\":1204:1230  keccak256(\"PROPOSER_ROLE\") */\n      0xb09aa5aeb3702cfd50b6b62bc4532604938f21248a27a1d5ca736082b6819cc1\n        /* \".deps/npm/@openzeppelin/contracts/access/AccessControl.sol\":2464:2480  _checkRole(role) */\n      tag_273\n        /* \".deps/npm/@openzeppelin/contracts/access/AccessControl.sol\":2475:2479  role */\n      dup2\n        /* \".deps/npm/@openzeppelin/contracts/access/AccessControl.sol\":2464:2474  _checkRole */\n      tag_182\n        /* \".deps/npm/@openzeppelin/contracts/access/AccessControl.sol\":2464:2480  _checkRole(role) */\n      jump\t// in\n    tag_273:\n        /* \".deps/npm/@openzeppelin/contracts/governance/TimelockController.sol\":10138:10169  targets.length != values.length */\n      dup9\n      dup8\n      eq\n      iszero\n      dup1\n        /* \".deps/npm/@openzeppelin/contracts/governance/TimelockController.sol\":10138:10206  targets.length != values.length || targets.length != payloads.length */\n      tag_275\n      jumpi\n      pop\n        /* \".deps/npm/@openzeppelin/contracts/governance/TimelockController.sol\":10173:10206  targets.length != payloads.length */\n      dup9\n      dup6\n      eq\n      iszero\n        /* \".deps/npm/@openzeppelin/contracts/governance/TimelockController.sol\":10138:10206  targets.length != values.length || targets.length != payloads.length */\n    tag_275:\n        /* \".deps/npm/@openzeppelin/contracts/governance/TimelockController.sol\":10134:10318  if (targets.length != values.length || targets.length != payloads.length) {... */\n      iszero\n      tag_276\n      jumpi\n        /* \".deps/npm/@openzeppelin/contracts/governance/TimelockController.sol\":10229:10307  TimelockInvalidOperationLength(targets.length, payloads.length, values.length) */\n      mload(0x40)\n      not(sub(shl(0xe0, 0x4fcdef), 0x01))\n      dup2\n      mstore\n      0x04\n      dup2\n      add\n        /* \"#utility.yul\":14338:14363   */\n      dup11\n      swap1\n      mstore\n        /* \"#utility.yul\":14379:14397   */\n      0x24\n      dup2\n      add\n        /* \"#utility.yul\":14372:14406   */\n      dup7\n      swap1\n      mstore\n        /* \"#utility.yul\":14422:14440   */\n      0x44\n      dup2\n      add\n        /* \"#utility.yul\":14415:14449   */\n      dup9\n      swap1\n      mstore\n        /* \"#utility.yul\":14311:14329   */\n      0x64\n      add\n        /* \".deps/npm/@openzeppelin/contracts/governance/TimelockController.sol\":10229:10307  TimelockInvalidOperationLength(targets.length, payloads.length, values.length) */\n      tag_257\n        /* \"#utility.yul\":14136:14455   */\n      jump\n        /* \".deps/npm/@openzeppelin/contracts/governance/TimelockController.sol\":10134:10318  if (targets.length != values.length || targets.length != payloads.length) {... */\n    tag_276:\n        /* \".deps/npm/@openzeppelin/contracts/governance/TimelockController.sol\":10328:10338  bytes32 id */\n      0x00\n        /* \".deps/npm/@openzeppelin/contracts/governance/TimelockController.sol\":10341:10405  hashOperationBatch(targets, values, payloads, predecessor, salt) */\n      tag_279\n        /* \".deps/npm/@openzeppelin/contracts/governance/TimelockController.sol\":10360:10367  targets */\n      dup12\n      dup12\n        /* \".deps/npm/@openzeppelin/contracts/governance/TimelockController.sol\":10369:10375  values */\n      dup12\n      dup12\n        /* \".deps/npm/@openzeppelin/contracts/governance/TimelockController.sol\":10377:10385  payloads */\n      dup12\n      dup12\n        /* \".deps/npm/@openzeppelin/contracts/governance/TimelockController.sol\":10387:10398  predecessor */\n      dup12\n        /* \".deps/npm/@openzeppelin/contracts/governance/TimelockController.sol\":10400:10404  salt */\n      dup12\n        /* \".deps/npm/@openzeppelin/contracts/governance/TimelockController.sol\":10341:10359  hashOperationBatch */\n      tag_145\n        /* \".deps/npm/@openzeppelin/contracts/governance/TimelockController.sol\":10341:10405  hashOperationBatch(targets, values, payloads, predecessor, salt) */\n      jump\t// in\n    tag_279:\n        /* \".deps/npm/@openzeppelin/contracts/governance/TimelockController.sol\":10328:10405  bytes32 id = hashOperationBatch(targets, values, payloads, predecessor, salt) */\n      swap1\n      pop\n        /* \".deps/npm/@openzeppelin/contracts/governance/TimelockController.sol\":10415:10435  _schedule(id, delay) */\n      tag_280\n        /* \".deps/npm/@openzeppelin/contracts/governance/TimelockController.sol\":10425:10427  id */\n      dup2\n        /* \".deps/npm/@openzeppelin/contracts/governance/TimelockController.sol\":10429:10434  delay */\n      dup5\n        /* \".deps/npm/@openzeppelin/contracts/governance/TimelockController.sol\":10415:10424  _schedule */\n      tag_186\n        /* \".deps/npm/@openzeppelin/contracts/governance/TimelockController.sol\":10415:10435  _schedule(id, delay) */\n      jump\t// in\n    tag_280:\n        /* \".deps/npm/@openzeppelin/contracts/governance/TimelockController.sol\":10450:10459  uint256 i */\n      0x00\n        /* \".deps/npm/@openzeppelin/contracts/governance/TimelockController.sol\":10445:10596  for (uint256 i = 0; i < targets.length; ++i) {... */\n    tag_281:\n        /* \".deps/npm/@openzeppelin/contracts/governance/TimelockController.sol\":10465:10483  i < targets.length */\n      dup11\n      dup2\n      lt\n        /* \".deps/npm/@openzeppelin/contracts/governance/TimelockController.sol\":10445:10596  for (uint256 i = 0; i < targets.length; ++i) {... */\n      iszero\n      tag_282\n      jumpi\n        /* \".deps/npm/@openzeppelin/contracts/governance/TimelockController.sol\":10527:10528  i */\n      dup1\n        /* \".deps/npm/@openzeppelin/contracts/governance/TimelockController.sol\":10523:10525  id */\n      dup3\n        /* \".deps/npm/@openzeppelin/contracts/governance/TimelockController.sol\":10509:10585  CallScheduled(id, i, targets[i], values[i], payloads[i], predecessor, delay) */\n      0x4cf4410cc57040e44862ef0f45f3dd5a5e02db8eb8add648d4b0e236f1d07dca\n        /* \".deps/npm/@openzeppelin/contracts/governance/TimelockController.sol\":10530:10537  targets */\n      dup15\n      dup15\n        /* \".deps/npm/@openzeppelin/contracts/governance/TimelockController.sol\":10538:10539  i */\n      dup6\n        /* \".deps/npm/@openzeppelin/contracts/governance/TimelockController.sol\":10530:10540  targets[i] */\n      dup2\n      dup2\n      lt\n      tag_285\n      jumpi\n      tag_285\n      tag_286\n      jump\t// in\n    tag_285:\n      swap1\n      pop\n      0x20\n      mul\n      add\n      0x20\n      dup2\n      add\n      swap1\n      tag_287\n      swap2\n      swap1\n      tag_288\n      jump\t// in\n    tag_287:\n        /* \".deps/npm/@openzeppelin/contracts/governance/TimelockController.sol\":10542:10548  values */\n      dup14\n      dup14\n        /* \".deps/npm/@openzeppelin/contracts/governance/TimelockController.sol\":10549:10550  i */\n      dup7\n        /* \".deps/npm/@openzeppelin/contracts/governance/TimelockController.sol\":10542:10551  values[i] */\n      dup2\n      dup2\n      lt\n      tag_290\n      jumpi\n      tag_290\n      tag_286\n      jump\t// in\n    tag_290:\n      swap1\n      pop\n      0x20\n      mul\n      add\n      calldataload\n        /* \".deps/npm/@openzeppelin/contracts/governance/TimelockController.sol\":10553:10561  payloads */\n      dup13\n      dup13\n        /* \".deps/npm/@openzeppelin/contracts/governance/TimelockController.sol\":10562:10563  i */\n      dup8\n        /* \".deps/npm/@openzeppelin/contracts/governance/TimelockController.sol\":10553:10564  payloads[i] */\n      dup2\n      dup2\n      lt\n      tag_292\n      jumpi\n      tag_292\n      tag_286\n      jump\t// in\n    tag_292:\n      swap1\n      pop\n      0x20\n      mul\n      dup2\n      add\n      swap1\n      tag_293\n      swap2\n      swap1\n      tag_294\n      jump\t// in\n    tag_293:\n        /* \".deps/npm/@openzeppelin/contracts/governance/TimelockController.sol\":10566:10577  predecessor */\n      dup13\n        /* \".deps/npm/@openzeppelin/contracts/governance/TimelockController.sol\":10579:10584  delay */\n      dup12\n        /* \".deps/npm/@openzeppelin/contracts/governance/TimelockController.sol\":10509:10585  CallScheduled(id, i, targets[i], values[i], payloads[i], predecessor, delay) */\n      mload(0x40)\n      tag_295\n      swap7\n      swap6\n      swap5\n      swap4\n      swap3\n      swap2\n      swap1\n      tag_188\n      jump\t// in\n    tag_295:\n      mload(0x40)\n      dup1\n      swap2\n      sub\n      swap1\n      log3\n        /* \".deps/npm/@openzeppelin/contracts/governance/TimelockController.sol\":10485:10488  ++i */\n      0x01\n      add\n        /* \".deps/npm/@openzeppelin/contracts/governance/TimelockController.sol\":10445:10596  for (uint256 i = 0; i < targets.length; ++i) {... */\n      jump(tag_281)\n    tag_282:\n      pop\n        /* \".deps/npm/@openzeppelin/contracts/governance/TimelockController.sol\":10609:10627  salt != bytes32(0) */\n      dup4\n      iszero\n        /* \".deps/npm/@openzeppelin/contracts/governance/TimelockController.sol\":10605:10677  if (salt != bytes32(0)) {... */\n      tag_296\n      jumpi\n        /* \".deps/npm/@openzeppelin/contracts/governance/TimelockController.sol\":10657:10659  id */\n      dup1\n        /* \".deps/npm/@openzeppelin/contracts/governance/TimelockController.sol\":10648:10666  CallSalt(id, salt) */\n      0x20fda5fd27a1ea7bf5b9567f143ac5470bb059374a27e8f67cb44f946f6d0387\n        /* \".deps/npm/@openzeppelin/contracts/governance/TimelockController.sol\":10661:10665  salt */\n      dup6\n        /* \".deps/npm/@openzeppelin/contracts/governance/TimelockController.sol\":10648:10666  CallSalt(id, salt) */\n      mload(0x40)\n      tag_297\n      swap2\n        /* \"#utility.yul\":2138:2163   */\n      dup2\n      mstore\n        /* \"#utility.yul\":2126:2128   */\n      0x20\n        /* \"#utility.yul\":2111:2129   */\n      add\n      swap1\n        /* \"#utility.yul\":1992:2169   */\n      jump\n        /* \".deps/npm/@openzeppelin/contracts/governance/TimelockController.sol\":10648:10666  CallSalt(id, salt) */\n    tag_297:\n      mload(0x40)\n      dup1\n      swap2\n      sub\n      swap1\n      log2\n        /* \".deps/npm/@openzeppelin/contracts/governance/TimelockController.sol\":10605:10677  if (salt != bytes32(0)) {... */\n    tag_296:\n        /* \".deps/npm/@openzeppelin/contracts/governance/TimelockController.sol\":10124:10683  {... */\n      pop\n        /* \".deps/npm/@openzeppelin/contracts/governance/TimelockController.sol\":9876:10683  function scheduleBatch(... */\n      pop\n      pop\n      pop\n      pop\n      pop\n      pop\n      pop\n      pop\n      pop\n      pop\n      jump\t// out\n        /* \".deps/npm/@openzeppelin/contracts/access/AccessControl.sol\":2854:2990  function hasRole(bytes32 role, address account) public view virtual returns (bool) {... */\n    tag_131:\n        /* \".deps/npm/@openzeppelin/contracts/access/AccessControl.sol\":2931:2935  bool */\n      0x00\n        /* \".deps/npm/@openzeppelin/contracts/access/AccessControl.sol\":2954:2966  _roles[role] */\n      swap2\n      dup3\n      mstore\n      0x20\n      dup3\n      dup2\n      mstore\n      0x40\n      dup1\n      dup5\n      keccak256\n      sub(shl(0xa0, 0x01), 0x01)\n        /* \".deps/npm/@openzeppelin/contracts/access/AccessControl.sol\":2954:2983  _roles[role].hasRole[account] */\n      swap4\n      swap1\n      swap4\n      and\n      dup5\n      mstore\n      swap2\n      swap1\n      mstore\n      swap1\n      keccak256\n      sload\n      0xff\n      and\n      swap1\n        /* \".deps/npm/@openzeppelin/contracts/access/AccessControl.sol\":2854:2990  function hasRole(bytes32 role, address account) public view virtual returns (bool) {... */\n      jump\t// out\n        /* \".deps/npm/@openzeppelin/contracts/governance/TimelockController.sol\":8537:8857  function hashOperationBatch(... */\n    tag_145:\n        /* \".deps/npm/@openzeppelin/contracts/governance/TimelockController.sol\":8757:8764  bytes32 */\n      0x00\n        /* \".deps/npm/@openzeppelin/contracts/governance/TimelockController.sol\":8804:8811  targets */\n      dup9\n      dup9\n        /* \".deps/npm/@openzeppelin/contracts/governance/TimelockController.sol\":8813:8819  values */\n      dup9\n      dup9\n        /* \".deps/npm/@openzeppelin/contracts/governance/TimelockController.sol\":8821:8829  payloads */\n      dup9\n      dup9\n        /* \".deps/npm/@openzeppelin/contracts/governance/TimelockController.sol\":8831:8842  predecessor */\n      dup9\n        /* \".deps/npm/@openzeppelin/contracts/governance/TimelockController.sol\":8844:8848  salt */\n      dup9\n        /* \".deps/npm/@openzeppelin/contracts/governance/TimelockController.sol\":8793:8849  abi.encode(targets, values, payloads, predecessor, salt) */\n      add(0x20, mload(0x40))\n      tag_300\n      swap9\n      swap8\n      swap7\n      swap6\n      swap5\n      swap4\n      swap3\n      swap2\n      swap1\n      tag_301\n      jump\t// in\n    tag_300:\n      mload(0x40)\n      0x20\n      dup2\n      dup4\n      sub\n      sub\n      dup2\n      mstore\n      swap1\n      0x40\n      mstore\n        /* \".deps/npm/@openzeppelin/contracts/governance/TimelockController.sol\":8783:8850  keccak256(abi.encode(targets, values, payloads, predecessor, salt)) */\n      dup1\n      mload\n      swap1\n      0x20\n      add\n      keccak256\n        /* \".deps/npm/@openzeppelin/contracts/governance/TimelockController.sol\":8776:8850  return keccak256(abi.encode(targets, values, payloads, predecessor, salt)) */\n      swap1\n      pop\n        /* \".deps/npm/@openzeppelin/contracts/governance/TimelockController.sol\":8537:8857  function hashOperationBatch(... */\n      swap9\n      swap8\n      pop\n      pop\n      pop\n      pop\n      pop\n      pop\n      pop\n      pop\n      jump\t// out\n        /* \".deps/npm/@openzeppelin/contracts/governance/TimelockController.sol\":11325:11700  function cancel(bytes32 id) public virtual onlyRole(CANCELLER_ROLE) {... */\n    tag_156:\n        /* \".deps/npm/@openzeppelin/contracts/governance/TimelockController.sol\":1349:1376  keccak256(\"CANCELLER_ROLE\") */\n      0xfd643c72710c63c0180259aba6b2d05451e3591a24e58b62239378085726f783\n        /* \".deps/npm/@openzeppelin/contracts/access/AccessControl.sol\":2464:2480  _checkRole(role) */\n      tag_304\n        /* \".deps/npm/@openzeppelin/contracts/access/AccessControl.sol\":2475:2479  role */\n      dup2\n        /* \".deps/npm/@openzeppelin/contracts/access/AccessControl.sol\":2464:2474  _checkRole */\n      tag_182\n        /* \".deps/npm/@openzeppelin/contracts/access/AccessControl.sol\":2464:2480  _checkRole(role) */\n      jump\t// in\n    tag_304:\n        /* \".deps/npm/@openzeppelin/contracts/governance/TimelockController.sol\":11408:11430  isOperationPending(id) */\n      tag_306\n        /* \".deps/npm/@openzeppelin/contracts/governance/TimelockController.sol\":11427:11429  id */\n      dup3\n        /* \".deps/npm/@openzeppelin/contracts/governance/TimelockController.sol\":11408:11426  isOperationPending */\n      tag_101\n        /* \".deps/npm/@openzeppelin/contracts/governance/TimelockController.sol\":11408:11430  isOperationPending(id) */\n      jump\t// in\n    tag_306:\n        /* \".deps/npm/@openzeppelin/contracts/governance/TimelockController.sol\":11403:11633  if (!isOperationPending(id)) {... */\n      tag_307\n      jumpi\n        /* \".deps/npm/@openzeppelin/contracts/governance/TimelockController.sol\":11503:11505  id */\n      dup2\n        /* \".deps/npm/@openzeppelin/contracts/governance/TimelockController.sol\":11568:11608  _encodeStateBitmap(OperationState.Ready) */\n      tag_308\n        /* \".deps/npm/@openzeppelin/contracts/governance/TimelockController.sol\":11587:11607  OperationState.Ready */\n      0x02\n        /* \".deps/npm/@openzeppelin/contracts/governance/TimelockController.sol\":11568:11586  _encodeStateBitmap */\n      tag_309\n        /* \".deps/npm/@openzeppelin/contracts/governance/TimelockController.sol\":11568:11608  _encodeStateBitmap(OperationState.Ready) */\n      jump\t// in\n    tag_308:\n        /* \".deps/npm/@openzeppelin/contracts/governance/TimelockController.sol\":11523:11565  _encodeStateBitmap(OperationState.Waiting) */\n      tag_310\n        /* \".deps/npm/@openzeppelin/contracts/governance/TimelockController.sol\":11542:11564  OperationState.Waiting */\n      0x01\n        /* \".deps/npm/@openzeppelin/contracts/governance/TimelockController.sol\":11523:11541  _encodeStateBitmap */\n      tag_309\n        /* \".deps/npm/@openzeppelin/contracts/governance/TimelockController.sol\":11523:11565  _encodeStateBitmap(OperationState.Waiting) */\n      jump\t// in\n    tag_310:\n        /* \".deps/npm/@openzeppelin/contracts/governance/TimelockController.sol\":11453:11622  TimelockUnexpectedOperationState(... */\n      mload(0x40)\n      shl(0xe0, 0x5ead8eb5)\n      dup2\n      mstore\n      0x04\n      dup2\n      add\n        /* \"#utility.yul\":13495:13520   */\n      swap4\n      swap1\n      swap4\n      mstore\n        /* \".deps/npm/@openzeppelin/contracts/governance/TimelockController.sol\":11523:11608  _encodeStateBitmap(OperationState.Waiting) | _encodeStateBitmap(OperationState.Ready) */\n      or\n        /* \"#utility.yul\":13536:13554   */\n      0x24\n      dup3\n      add\n        /* \"#utility.yul\":13529:13563   */\n      mstore\n        /* \"#utility.yul\":13468:13486   */\n      0x44\n      add\n        /* \".deps/npm/@openzeppelin/contracts/governance/TimelockController.sol\":11453:11622  TimelockUnexpectedOperationState(... */\n      tag_257\n        /* \"#utility.yul\":13321:13569   */\n      jump\n        /* \".deps/npm/@openzeppelin/contracts/governance/TimelockController.sol\":11403:11633  if (!isOperationPending(id)) {... */\n    tag_307:\n        /* \".deps/npm/@openzeppelin/contracts/governance/TimelockController.sol\":11649:11664  _timestamps[id] */\n      0x00\n      dup3\n      dup2\n      mstore\n        /* \".deps/npm/@openzeppelin/contracts/governance/TimelockController.sol\":11649:11660  _timestamps */\n      0x01\n        /* \".deps/npm/@openzeppelin/contracts/governance/TimelockController.sol\":11649:11664  _timestamps[id] */\n      0x20\n      mstore\n      0x40\n      dup1\n      dup3\n      keccak256\n        /* \".deps/npm/@openzeppelin/contracts/governance/TimelockController.sol\":11642:11664  delete _timestamps[id] */\n      dup3\n      swap1\n      sstore\n        /* \".deps/npm/@openzeppelin/contracts/governance/TimelockController.sol\":11680:11693  Cancelled(id) */\n      mload\n        /* \".deps/npm/@openzeppelin/contracts/governance/TimelockController.sol\":11661:11663  id */\n      dup4\n      swap2\n        /* \".deps/npm/@openzeppelin/contracts/governance/TimelockController.sol\":11680:11693  Cancelled(id) */\n      0xbaa1eb22f2a492ba1a5fea61b8df4d27c6c8b5f3971e63bb58fa14ff72eedb70\n      swap2\n      log2\n        /* \".deps/npm/@openzeppelin/contracts/governance/TimelockController.sol\":11325:11700  function cancel(bytes32 id) public virtual onlyRole(CANCELLER_ROLE) {... */\n      pop\n      pop\n      jump\t// out\n        /* \".deps/npm/@openzeppelin/contracts/access/AccessControl.sol\":4642:4780  function revokeRole(bytes32 role, address account) public virtual onlyRole(getRoleAdmin(role)) {... */\n    tag_166:\n        /* \".deps/npm/@openzeppelin/contracts/access/AccessControl.sol\":3875:3882  bytes32 */\n      0x00\n        /* \".deps/npm/@openzeppelin/contracts/access/AccessControl.sol\":3901:3913  _roles[role] */\n      dup3\n      dup2\n      mstore\n      0x20\n      dup2\n      swap1\n      mstore\n      0x40\n      swap1\n      keccak256\n        /* \".deps/npm/@openzeppelin/contracts/access/AccessControl.sol\":3901:3923  _roles[role].adminRole */\n      0x01\n      add\n      sload\n        /* \".deps/npm/@openzeppelin/contracts/access/AccessControl.sol\":2464:2480  _checkRole(role) */\n      tag_316\n        /* \".deps/npm/@openzeppelin/contracts/access/AccessControl.sol\":2475:2479  role */\n      dup2\n        /* \".deps/npm/@openzeppelin/contracts/access/AccessControl.sol\":2464:2474  _checkRole */\n      tag_182\n        /* \".deps/npm/@openzeppelin/contracts/access/AccessControl.sol\":2464:2480  _checkRole(role) */\n      jump\t// in\n    tag_316:\n        /* \".deps/npm/@openzeppelin/contracts/access/AccessControl.sol\":4747:4773  _revokeRole(role, account) */\n      tag_230\n        /* \".deps/npm/@openzeppelin/contracts/access/AccessControl.sol\":4759:4763  role */\n      dup4\n        /* \".deps/npm/@openzeppelin/contracts/access/AccessControl.sol\":4765:4772  account */\n      dup4\n        /* \".deps/npm/@openzeppelin/contracts/access/AccessControl.sol\":4747:4758  _revokeRole */\n      tag_242\n        /* \".deps/npm/@openzeppelin/contracts/access/AccessControl.sol\":4747:4773  _revokeRole(role, account) */\n      jump\t// in\n        /* \".deps/npm/@openzeppelin/contracts/governance/TimelockController.sol\":13141:14037  function executeBatch(... */\n    tag_169:\n        /* \".deps/npm/@openzeppelin/contracts/governance/TimelockController.sol\":1276:1302  keccak256(\"EXECUTOR_ROLE\") */\n      0xd8aa0f3194971a2a116679f7c2090f6939c8d4e01a2a8d7e41d55e5351469e63\n        /* \".deps/npm/@openzeppelin/contracts/governance/TimelockController.sol\":5348:5373  hasRole(role, address(0)) */\n      tag_320\n        /* \".deps/npm/@openzeppelin/contracts/governance/TimelockController.sol\":5356:5360  role */\n      dup2\n        /* \".deps/npm/@openzeppelin/contracts/governance/TimelockController.sol\":5370:5371  0 */\n      0x00\n        /* \".deps/npm/@openzeppelin/contracts/governance/TimelockController.sol\":5348:5355  hasRole */\n      tag_131\n        /* \".deps/npm/@openzeppelin/contracts/governance/TimelockController.sol\":5348:5373  hasRole(role, address(0)) */\n      jump\t// in\n    tag_320:\n        /* \".deps/npm/@openzeppelin/contracts/governance/TimelockController.sol\":5343:5430  if (!hasRole(role, address(0))) {... */\n      tag_322\n      jumpi\n        /* \".deps/npm/@openzeppelin/contracts/governance/TimelockController.sol\":5389:5419  _checkRole(role, _msgSender()) */\n      tag_322\n        /* \".deps/npm/@openzeppelin/contracts/governance/TimelockController.sol\":5400:5404  role */\n      dup2\n        /* \".deps/npm/@openzeppelin/contracts/utils/Context.sol\":735:745  msg.sender */\n      caller\n        /* \".deps/npm/@openzeppelin/contracts/governance/TimelockController.sol\":5389:5399  _checkRole */\n      tag_200\n        /* \".deps/npm/@openzeppelin/contracts/governance/TimelockController.sol\":5389:5419  _checkRole(role, _msgSender()) */\n      jump\t// in\n    tag_322:\n        /* \".deps/npm/@openzeppelin/contracts/governance/TimelockController.sol\":13397:13428  targets.length != values.length */\n      dup8\n      dup7\n      eq\n      iszero\n      dup1\n        /* \".deps/npm/@openzeppelin/contracts/governance/TimelockController.sol\":13397:13465  targets.length != values.length || targets.length != payloads.length */\n      tag_325\n      jumpi\n      pop\n        /* \".deps/npm/@openzeppelin/contracts/governance/TimelockController.sol\":13432:13465  targets.length != payloads.length */\n      dup8\n      dup5\n      eq\n      iszero\n        /* \".deps/npm/@openzeppelin/contracts/governance/TimelockController.sol\":13397:13465  targets.length != values.length || targets.length != payloads.length */\n    tag_325:\n        /* \".deps/npm/@openzeppelin/contracts/governance/TimelockController.sol\":13393:13577  if (targets.length != values.length || targets.length != payloads.length) {... */\n      iszero\n      tag_326\n      jumpi\n        /* \".deps/npm/@openzeppelin/contracts/governance/TimelockController.sol\":13488:13566  TimelockInvalidOperationLength(targets.length, payloads.length, values.length) */\n      mload(0x40)\n      not(sub(shl(0xe0, 0x4fcdef), 0x01))\n      dup2\n      mstore\n      0x04\n      dup2\n      add\n        /* \"#utility.yul\":14338:14363   */\n      dup10\n      swap1\n      mstore\n        /* \"#utility.yul\":14379:14397   */\n      0x24\n      dup2\n      add\n        /* \"#utility.yul\":14372:14406   */\n      dup6\n      swap1\n      mstore\n        /* \"#utility.yul\":14422:14440   */\n      0x44\n      dup2\n      add\n        /* \"#utility.yul\":14415:14449   */\n      dup8\n      swap1\n      mstore\n        /* \"#utility.yul\":14311:14329   */\n      0x64\n      add\n        /* \".deps/npm/@openzeppelin/contracts/governance/TimelockController.sol\":13488:13566  TimelockInvalidOperationLength(targets.length, payloads.length, values.length) */\n      tag_257\n        /* \"#utility.yul\":14136:14455   */\n      jump\n        /* \".deps/npm/@openzeppelin/contracts/governance/TimelockController.sol\":13393:13577  if (targets.length != values.length || targets.length != payloads.length) {... */\n    tag_326:\n        /* \".deps/npm/@openzeppelin/contracts/governance/TimelockController.sol\":13587:13597  bytes32 id */\n      0x00\n        /* \".deps/npm/@openzeppelin/contracts/governance/TimelockController.sol\":13600:13664  hashOperationBatch(targets, values, payloads, predecessor, salt) */\n      tag_328\n        /* \".deps/npm/@openzeppelin/contracts/governance/TimelockController.sol\":13619:13626  targets */\n      dup11\n      dup11\n        /* \".deps/npm/@openzeppelin/contracts/governance/TimelockController.sol\":13628:13634  values */\n      dup11\n      dup11\n        /* \".deps/npm/@openzeppelin/contracts/governance/TimelockController.sol\":13636:13644  payloads */\n      dup11\n      dup11\n        /* \".deps/npm/@openzeppelin/contracts/governance/TimelockController.sol\":13646:13657  predecessor */\n      dup11\n        /* \".deps/npm/@openzeppelin/contracts/governance/TimelockController.sol\":13659:13663  salt */\n      dup11\n        /* \".deps/npm/@openzeppelin/contracts/governance/TimelockController.sol\":13600:13618  hashOperationBatch */\n      tag_145\n        /* \".deps/npm/@openzeppelin/contracts/governance/TimelockController.sol\":13600:13664  hashOperationBatch(targets, values, payloads, predecessor, salt) */\n      jump\t// in\n    tag_328:\n        /* \".deps/npm/@openzeppelin/contracts/governance/TimelockController.sol\":13587:13664  bytes32 id = hashOperationBatch(targets, values, payloads, predecessor, salt) */\n      swap1\n      pop\n        /* \".deps/npm/@openzeppelin/contracts/governance/TimelockController.sol\":13675:13703  _beforeCall(id, predecessor) */\n      tag_329\n        /* \".deps/npm/@openzeppelin/contracts/governance/TimelockController.sol\":13687:13689  id */\n      dup2\n        /* \".deps/npm/@openzeppelin/contracts/governance/TimelockController.sol\":13691:13702  predecessor */\n      dup6\n        /* \".deps/npm/@openzeppelin/contracts/governance/TimelockController.sol\":13675:13686  _beforeCall */\n      tag_204\n        /* \".deps/npm/@openzeppelin/contracts/governance/TimelockController.sol\":13675:13703  _beforeCall(id, predecessor) */\n      jump\t// in\n    tag_329:\n        /* \".deps/npm/@openzeppelin/contracts/governance/TimelockController.sol\":13718:13727  uint256 i */\n      0x00\n        /* \".deps/npm/@openzeppelin/contracts/governance/TimelockController.sol\":13713:14007  for (uint256 i = 0; i < targets.length; ++i) {... */\n    tag_330:\n        /* \".deps/npm/@openzeppelin/contracts/governance/TimelockController.sol\":13733:13751  i < targets.length */\n      dup10\n      dup2\n      lt\n        /* \".deps/npm/@openzeppelin/contracts/governance/TimelockController.sol\":13713:14007  for (uint256 i = 0; i < targets.length; ++i) {... */\n      iszero\n      tag_331\n      jumpi\n        /* \".deps/npm/@openzeppelin/contracts/governance/TimelockController.sol\":13772:13786  address target */\n      0x00\n        /* \".deps/npm/@openzeppelin/contracts/governance/TimelockController.sol\":13789:13796  targets */\n      dup12\n      dup12\n        /* \".deps/npm/@openzeppelin/contracts/governance/TimelockController.sol\":13797:13798  i */\n      dup4\n        /* \".deps/npm/@openzeppelin/contracts/governance/TimelockController.sol\":13789:13799  targets[i] */\n      dup2\n      dup2\n      lt\n      tag_334\n      jumpi\n      tag_334\n      tag_286\n      jump\t// in\n    tag_334:\n      swap1\n      pop\n      0x20\n      mul\n      add\n      0x20\n      dup2\n      add\n      swap1\n      tag_335\n      swap2\n      swap1\n      tag_288\n      jump\t// in\n    tag_335:\n        /* \".deps/npm/@openzeppelin/contracts/governance/TimelockController.sol\":13772:13799  address target = targets[i] */\n      swap1\n      pop\n        /* \".deps/npm/@openzeppelin/contracts/governance/TimelockController.sol\":13813:13826  uint256 value */\n      0x00\n        /* \".deps/npm/@openzeppelin/contracts/governance/TimelockController.sol\":13829:13835  values */\n      dup11\n      dup11\n        /* \".deps/npm/@openzeppelin/contracts/governance/TimelockController.sol\":13836:13837  i */\n      dup5\n        /* \".deps/npm/@openzeppelin/contracts/governance/TimelockController.sol\":13829:13838  values[i] */\n      dup2\n      dup2\n      lt\n      tag_337\n      jumpi\n      tag_337\n      tag_286\n      jump\t// in\n    tag_337:\n      swap1\n      pop\n      0x20\n      mul\n      add\n      calldataload\n        /* \".deps/npm/@openzeppelin/contracts/governance/TimelockController.sol\":13813:13838  uint256 value = values[i] */\n      swap1\n      pop\n        /* \".deps/npm/@openzeppelin/contracts/governance/TimelockController.sol\":13852:13874  bytes calldata payload */\n      calldatasize\n      0x00\n        /* \".deps/npm/@openzeppelin/contracts/governance/TimelockController.sol\":13877:13885  payloads */\n      dup11\n      dup11\n        /* \".deps/npm/@openzeppelin/contracts/governance/TimelockController.sol\":13886:13887  i */\n      dup7\n        /* \".deps/npm/@openzeppelin/contracts/governance/TimelockController.sol\":13877:13888  payloads[i] */\n      dup2\n      dup2\n      lt\n      tag_339\n      jumpi\n      tag_339\n      tag_286\n      jump\t// in\n    tag_339:\n      swap1\n      pop\n      0x20\n      mul\n      dup2\n      add\n      swap1\n      tag_340\n      swap2\n      swap1\n      tag_294\n      jump\t// in\n    tag_340:\n        /* \".deps/npm/@openzeppelin/contracts/governance/TimelockController.sol\":13852:13888  bytes calldata payload = payloads[i] */\n      swap2\n      pop\n      swap2\n      pop\n        /* \".deps/npm/@openzeppelin/contracts/governance/TimelockController.sol\":13902:13934  _execute(target, value, payload) */\n      tag_341\n        /* \".deps/npm/@openzeppelin/contracts/governance/TimelockController.sol\":13911:13917  target */\n      dup5\n        /* \".deps/npm/@openzeppelin/contracts/governance/TimelockController.sol\":13919:13924  value */\n      dup5\n        /* \".deps/npm/@openzeppelin/contracts/governance/TimelockController.sol\":13926:13933  payload */\n      dup5\n      dup5\n        /* \".deps/npm/@openzeppelin/contracts/governance/TimelockController.sol\":13902:13910  _execute */\n      tag_206\n        /* \".deps/npm/@openzeppelin/contracts/governance/TimelockController.sol\":13902:13934  _execute(target, value, payload) */\n      jump\t// in\n    tag_341:\n        /* \".deps/npm/@openzeppelin/contracts/governance/TimelockController.sol\":13970:13971  i */\n      dup5\n        /* \".deps/npm/@openzeppelin/contracts/governance/TimelockController.sol\":13966:13968  id */\n      dup7\n        /* \".deps/npm/@openzeppelin/contracts/governance/TimelockController.sol\":13953:13996  CallExecuted(id, i, target, value, payload) */\n      0xc2617efa69bab66782fa219543714338489c4e9e178271560a91b82c3f612b58\n        /* \".deps/npm/@openzeppelin/contracts/governance/TimelockController.sol\":13973:13979  target */\n      dup7\n        /* \".deps/npm/@openzeppelin/contracts/governance/TimelockController.sol\":13981:13986  value */\n      dup7\n        /* \".deps/npm/@openzeppelin/contracts/governance/TimelockController.sol\":13988:13995  payload */\n      dup7\n      dup7\n        /* \".deps/npm/@openzeppelin/contracts/governance/TimelockController.sol\":13953:13996  CallExecuted(id, i, target, value, payload) */\n      mload(0x40)\n      tag_342\n      swap5\n      swap4\n      swap3\n      swap2\n      swap1\n      tag_208\n      jump\t// in\n    tag_342:\n      mload(0x40)\n      dup1\n      swap2\n      sub\n      swap1\n      log3\n        /* \".deps/npm/@openzeppelin/contracts/governance/TimelockController.sol\":13758:14007  {... */\n      pop\n      pop\n      pop\n      pop\n        /* \".deps/npm/@openzeppelin/contracts/governance/TimelockController.sol\":13753:13756  ++i */\n      dup1\n      0x01\n      add\n      swap1\n      pop\n        /* \".deps/npm/@openzeppelin/contracts/governance/TimelockController.sol\":13713:14007  for (uint256 i = 0; i < targets.length; ++i) {... */\n      jump(tag_330)\n    tag_331:\n      pop\n        /* \".deps/npm/@openzeppelin/contracts/governance/TimelockController.sol\":14016:14030  _afterCall(id) */\n      tag_343\n        /* \".deps/npm/@openzeppelin/contracts/governance/TimelockController.sol\":14027:14029  id */\n      dup2\n        /* \".deps/npm/@openzeppelin/contracts/governance/TimelockController.sol\":14016:14026  _afterCall */\n      tag_210\n        /* \".deps/npm/@openzeppelin/contracts/governance/TimelockController.sol\":14016:14030  _afterCall(id) */\n      jump\t// in\n    tag_343:\n        /* \".deps/npm/@openzeppelin/contracts/governance/TimelockController.sol\":13383:14037  {... */\n      pop\n        /* \".deps/npm/@openzeppelin/contracts/governance/TimelockController.sol\":13141:14037  function executeBatch(... */\n      pop\n      pop\n      pop\n      pop\n      pop\n      pop\n      pop\n      pop\n      pop\n      jump\t// out\n        /* \".deps/npm/@openzeppelin/contracts/access/AccessControl.sol\":3199:3302  function _checkRole(bytes32 role) internal view virtual {... */\n    tag_182:\n        /* \".deps/npm/@openzeppelin/contracts/access/AccessControl.sol\":3265:3295  _checkRole(role, _msgSender()) */\n      tag_347\n        /* \".deps/npm/@openzeppelin/contracts/access/AccessControl.sol\":3276:3280  role */\n      dup2\n        /* \".deps/npm/@openzeppelin/contracts/utils/Context.sol\":735:745  msg.sender */\n      caller\n        /* \".deps/npm/@openzeppelin/contracts/governance/TimelockController.sol\":5389:5399  _checkRole */\n      tag_200\n        /* \".deps/npm/@openzeppelin/contracts/governance/TimelockController.sol\":5389:5419  _checkRole(role, _msgSender()) */\n      jump\t// in\n        /* \".deps/npm/@openzeppelin/contracts/access/AccessControl.sol\":3265:3295  _checkRole(role, _msgSender()) */\n    tag_347:\n        /* \".deps/npm/@openzeppelin/contracts/access/AccessControl.sol\":3199:3302  function _checkRole(bytes32 role) internal view virtual {... */\n      pop\n      jump\t// out\n        /* \".deps/npm/@openzeppelin/contracts/governance/TimelockController.sol\":10784:11183  function _schedule(bytes32 id, uint256 delay) private {... */\n    tag_186:\n        /* \".deps/npm/@openzeppelin/contracts/governance/TimelockController.sol\":10852:10867  isOperation(id) */\n      tag_350\n        /* \".deps/npm/@openzeppelin/contracts/governance/TimelockController.sol\":10864:10866  id */\n      dup3\n        /* \".deps/npm/@openzeppelin/contracts/governance/TimelockController.sol\":10852:10863  isOperation */\n      tag_92\n        /* \".deps/npm/@openzeppelin/contracts/governance/TimelockController.sol\":10852:10867  isOperation(id) */\n      jump\t// in\n    tag_350:\n        /* \".deps/npm/@openzeppelin/contracts/governance/TimelockController.sol\":10848:10979  if (isOperation(id)) {... */\n      iszero\n      tag_351\n      jumpi\n        /* \".deps/npm/@openzeppelin/contracts/governance/TimelockController.sol\":10923:10925  id */\n      dup2\n        /* \".deps/npm/@openzeppelin/contracts/governance/TimelockController.sol\":10927:10967  _encodeStateBitmap(OperationState.Unset) */\n      tag_352\n        /* \".deps/npm/@openzeppelin/contracts/governance/TimelockController.sol\":10946:10966  OperationState.Unset */\n      0x00\n        /* \".deps/npm/@openzeppelin/contracts/governance/TimelockController.sol\":10927:10945  _encodeStateBitmap */\n      tag_309\n        /* \".deps/npm/@openzeppelin/contracts/governance/TimelockController.sol\":10927:10967  _encodeStateBitmap(OperationState.Unset) */\n      jump\t// in\n    tag_352:\n        /* \".deps/npm/@openzeppelin/contracts/governance/TimelockController.sol\":10890:10968  TimelockUnexpectedOperationState(id, _encodeStateBitmap(OperationState.Unset)) */\n      mload(0x40)\n      shl(0xe0, 0x5ead8eb5)\n      dup2\n      mstore\n      0x04\n      dup2\n      add\n        /* \"#utility.yul\":13495:13520   */\n      swap3\n      swap1\n      swap3\n      mstore\n        /* \"#utility.yul\":13536:13554   */\n      0x24\n      dup3\n      add\n        /* \"#utility.yul\":13529:13563   */\n      mstore\n        /* \"#utility.yul\":13468:13486   */\n      0x44\n      add\n        /* \".deps/npm/@openzeppelin/contracts/governance/TimelockController.sol\":10890:10968  TimelockUnexpectedOperationState(id, _encodeStateBitmap(OperationState.Unset)) */\n      tag_257\n        /* \"#utility.yul\":13321:13569   */\n      jump\n        /* \".deps/npm/@openzeppelin/contracts/governance/TimelockController.sol\":10848:10979  if (isOperation(id)) {... */\n    tag_351:\n        /* \".deps/npm/@openzeppelin/contracts/governance/TimelockController.sol\":10988:11004  uint256 minDelay */\n      0x00\n        /* \".deps/npm/@openzeppelin/contracts/governance/TimelockController.sol\":11007:11020  getMinDelay() */\n      tag_354\n        /* \".deps/npm/@openzeppelin/contracts/governance/TimelockController.sol\":8013:8022  _minDelay */\n      sload(0x02)\n      swap1\n        /* \".deps/npm/@openzeppelin/contracts/governance/TimelockController.sol\":7935:8029  function getMinDelay() public view virtual returns (uint256) {... */\n      jump\n        /* \".deps/npm/@openzeppelin/contracts/governance/TimelockController.sol\":11007:11020  getMinDelay() */\n    tag_354:\n        /* \".deps/npm/@openzeppelin/contracts/governance/TimelockController.sol\":10988:11020  uint256 minDelay = getMinDelay() */\n      swap1\n      pop\n        /* \".deps/npm/@openzeppelin/contracts/governance/TimelockController.sol\":11042:11050  minDelay */\n      dup1\n        /* \".deps/npm/@openzeppelin/contracts/governance/TimelockController.sol\":11034:11039  delay */\n      dup3\n        /* \".deps/npm/@openzeppelin/contracts/governance/TimelockController.sol\":11034:11050  delay < minDelay */\n      lt\n        /* \".deps/npm/@openzeppelin/contracts/governance/TimelockController.sol\":11030:11126  if (delay < minDelay) {... */\n      iszero\n      tag_355\n      jumpi\n        /* \".deps/npm/@openzeppelin/contracts/governance/TimelockController.sol\":11073:11115  TimelockInsufficientDelay(delay, minDelay) */\n      mload(0x40)\n      shl(0xe0, 0x54336609)\n      dup2\n      mstore\n      0x04\n      dup2\n      add\n        /* \"#utility.yul\":13495:13520   */\n      dup4\n      swap1\n      mstore\n        /* \"#utility.yul\":13536:13554   */\n      0x24\n      dup2\n      add\n        /* \"#utility.yul\":13529:13563   */\n      dup3\n      swap1\n      mstore\n        /* \"#utility.yul\":13468:13486   */\n      0x44\n      add\n        /* \".deps/npm/@openzeppelin/contracts/governance/TimelockController.sol\":11073:11115  TimelockInsufficientDelay(delay, minDelay) */\n      tag_257\n        /* \"#utility.yul\":13321:13569   */\n      jump\n        /* \".deps/npm/@openzeppelin/contracts/governance/TimelockController.sol\":11030:11126  if (delay < minDelay) {... */\n    tag_355:\n        /* \".deps/npm/@openzeppelin/contracts/governance/TimelockController.sol\":11153:11176  block.timestamp + delay */\n      tag_357\n        /* \".deps/npm/@openzeppelin/contracts/governance/TimelockController.sol\":11171:11176  delay */\n      dup3\n        /* \".deps/npm/@openzeppelin/contracts/governance/TimelockController.sol\":11153:11168  block.timestamp */\n      timestamp\n        /* \".deps/npm/@openzeppelin/contracts/governance/TimelockController.sol\":11153:11176  block.timestamp + delay */\n      tag_358\n      jump\t// in\n    tag_357:\n        /* \".deps/npm/@openzeppelin/contracts/governance/TimelockController.sol\":11135:11150  _timestamps[id] */\n      0x00\n      swap4\n      dup5\n      mstore\n        /* \".deps/npm/@openzeppelin/contracts/governance/TimelockController.sol\":11135:11146  _timestamps */\n      0x01\n        /* \".deps/npm/@openzeppelin/contracts/governance/TimelockController.sol\":11135:11150  _timestamps[id] */\n      0x20\n      mstore\n      0x40\n      swap1\n      swap4\n      keccak256\n        /* \".deps/npm/@openzeppelin/contracts/governance/TimelockController.sol\":11135:11176  _timestamps[id] = block.timestamp + delay */\n      swap3\n      swap1\n      swap3\n      sstore\n      pop\n      pop\n        /* \".deps/npm/@openzeppelin/contracts/governance/TimelockController.sol\":10784:11183  function _schedule(bytes32 id, uint256 delay) private {... */\n      jump\t// out\n        /* \".deps/npm/@openzeppelin/contracts/token/ERC1155/utils/ERC1155Holder.sol\":650:871  function supportsInterface(bytes4 interfaceId) public view virtual override(ERC165, IERC165) returns (bool) {... */\n    tag_193:\n        /* \".deps/npm/@openzeppelin/contracts/token/ERC1155/utils/ERC1155Holder.sol\":752:756  bool */\n      0x00\n      not(sub(shl(0xe0, 0x01), 0x01))\n        /* \".deps/npm/@openzeppelin/contracts/token/ERC1155/utils/ERC1155Holder.sol\":775:824  interfaceId == type(IERC1155Receiver).interfaceId */\n      dup3\n      and\n      shl(0xe5, 0x02711897)\n      eq\n      dup1\n        /* \".deps/npm/@openzeppelin/contracts/token/ERC1155/utils/ERC1155Holder.sol\":775:864  interfaceId == type(IERC1155Receiver).interfaceId || super.supportsInterface(interfaceId) */\n      tag_192\n      jumpi\n      pop\n        /* \".deps/npm/@openzeppelin/contracts/token/ERC1155/utils/ERC1155Holder.sol\":828:864  super.supportsInterface(interfaceId) */\n      tag_192\n        /* \".deps/npm/@openzeppelin/contracts/token/ERC1155/utils/ERC1155Holder.sol\":852:863  interfaceId */\n      dup3\n        /* \".deps/npm/@openzeppelin/contracts/token/ERC1155/utils/ERC1155Holder.sol\":828:851  super.supportsInterface */\n      tag_362\n        /* \".deps/npm/@openzeppelin/contracts/token/ERC1155/utils/ERC1155Holder.sol\":828:864  super.supportsInterface(interfaceId) */\n      jump\t// in\n        /* \".deps/npm/@openzeppelin/contracts/access/AccessControl.sol\":3432:3629  function _checkRole(bytes32 role, address account) internal view virtual {... */\n    tag_200:\n        /* \".deps/npm/@openzeppelin/contracts/access/AccessControl.sol\":3520:3542  hasRole(role, account) */\n      tag_365\n        /* \".deps/npm/@openzeppelin/contracts/access/AccessControl.sol\":3528:3532  role */\n      dup3\n        /* \".deps/npm/@openzeppelin/contracts/access/AccessControl.sol\":3534:3541  account */\n      dup3\n        /* \".deps/npm/@openzeppelin/contracts/access/AccessControl.sol\":3520:3527  hasRole */\n      tag_131\n        /* \".deps/npm/@openzeppelin/contracts/access/AccessControl.sol\":3520:3542  hasRole(role, account) */\n      jump\t// in\n    tag_365:\n        /* \".deps/npm/@openzeppelin/contracts/access/AccessControl.sol\":3515:3623  if (!hasRole(role, account)) {... */\n      tag_366\n      jumpi\n        /* \".deps/npm/@openzeppelin/contracts/access/AccessControl.sol\":3565:3612  AccessControlUnauthorizedAccount(account, role) */\n      mload(0x40)\n      shl(0xe0, 0xe2517d3f)\n      dup2\n      mstore\n      sub(shl(0xa0, 0x01), 0x01)\n        /* \"#utility.yul\":18391:18423   */\n      dup3\n      and\n        /* \".deps/npm/@openzeppelin/contracts/access/AccessControl.sol\":3565:3612  AccessControlUnauthorizedAccount(account, role) */\n      0x04\n      dup3\n      add\n        /* \"#utility.yul\":18373:18424   */\n      mstore\n        /* \"#utility.yul\":18440:18458   */\n      0x24\n      dup2\n      add\n        /* \"#utility.yul\":18433:18467   */\n      dup4\n      swap1\n      mstore\n        /* \"#utility.yul\":18346:18364   */\n      0x44\n      add\n        /* \".deps/npm/@openzeppelin/contracts/access/AccessControl.sol\":3565:3612  AccessControlUnauthorizedAccount(account, role) */\n      tag_257\n        /* \"#utility.yul\":18199:18473   */\n      jump\n        /* \".deps/npm/@openzeppelin/contracts/access/AccessControl.sol\":3515:3623  if (!hasRole(role, account)) {... */\n    tag_366:\n        /* \".deps/npm/@openzeppelin/contracts/access/AccessControl.sol\":3432:3629  function _checkRole(bytes32 role, address account) internal view virtual {... */\n      pop\n      pop\n      jump\t// out\n        /* \".deps/npm/@openzeppelin/contracts/governance/TimelockController.sol\":14415:14782  function _beforeCall(bytes32 id, bytes32 predecessor) private view {... */\n    tag_204:\n        /* \".deps/npm/@openzeppelin/contracts/governance/TimelockController.sol\":14497:14517  isOperationReady(id) */\n      tag_370\n        /* \".deps/npm/@openzeppelin/contracts/governance/TimelockController.sol\":14514:14516  id */\n      dup3\n        /* \".deps/npm/@openzeppelin/contracts/governance/TimelockController.sol\":14497:14513  isOperationReady */\n      tag_65\n        /* \".deps/npm/@openzeppelin/contracts/governance/TimelockController.sol\":14497:14517  isOperationReady(id) */\n      jump\t// in\n    tag_370:\n        /* \".deps/npm/@openzeppelin/contracts/governance/TimelockController.sol\":14492:14629  if (!isOperationReady(id)) {... */\n      tag_371\n      jumpi\n        /* \".deps/npm/@openzeppelin/contracts/governance/TimelockController.sol\":14573:14575  id */\n      dup2\n        /* \".deps/npm/@openzeppelin/contracts/governance/TimelockController.sol\":14577:14617  _encodeStateBitmap(OperationState.Ready) */\n      tag_352\n        /* \".deps/npm/@openzeppelin/contracts/governance/TimelockController.sol\":14596:14616  OperationState.Ready */\n      0x02\n        /* \".deps/npm/@openzeppelin/contracts/governance/TimelockController.sol\":14577:14595  _encodeStateBitmap */\n      tag_309\n        /* \".deps/npm/@openzeppelin/contracts/governance/TimelockController.sol\":14577:14617  _encodeStateBitmap(OperationState.Ready) */\n      jump\t// in\n        /* \".deps/npm/@openzeppelin/contracts/governance/TimelockController.sol\":14492:14629  if (!isOperationReady(id)) {... */\n    tag_371:\n        /* \".deps/npm/@openzeppelin/contracts/governance/TimelockController.sol\":14642:14667  predecessor != bytes32(0) */\n      dup1\n      iszero\n      dup1\n      iszero\n      swap1\n        /* \".deps/npm/@openzeppelin/contracts/governance/TimelockController.sol\":14642:14700  predecessor != bytes32(0) && !isOperationDone(predecessor) */\n      tag_374\n      jumpi\n      pop\n        /* \".deps/npm/@openzeppelin/contracts/governance/TimelockController.sol\":14672:14700  isOperationDone(predecessor) */\n      tag_375\n        /* \".deps/npm/@openzeppelin/contracts/governance/TimelockController.sol\":14688:14699  predecessor */\n      dup2\n        /* \".deps/npm/@openzeppelin/contracts/governance/TimelockController.sol\":14672:14687  isOperationDone */\n      tag_82\n        /* \".deps/npm/@openzeppelin/contracts/governance/TimelockController.sol\":14672:14700  isOperationDone(predecessor) */\n      jump\t// in\n    tag_375:\n        /* \".deps/npm/@openzeppelin/contracts/governance/TimelockController.sol\":14671:14700  !isOperationDone(predecessor) */\n      iszero\n        /* \".deps/npm/@openzeppelin/contracts/governance/TimelockController.sol\":14642:14700  predecessor != bytes32(0) && !isOperationDone(predecessor) */\n    tag_374:\n        /* \".deps/npm/@openzeppelin/contracts/governance/TimelockController.sol\":14638:14776  if (predecessor != bytes32(0) && !isOperationDone(predecessor)) {... */\n      iszero\n      tag_366\n      jumpi\n        /* \".deps/npm/@openzeppelin/contracts/governance/TimelockController.sol\":14723:14765  TimelockUnexecutedPredecessor(predecessor) */\n      mload(0x40)\n      shl(0xe3, 0x121534c3)\n      dup2\n      mstore\n      0x04\n      dup2\n      add\n        /* \"#utility.yul\":2138:2163   */\n      dup3\n      swap1\n      mstore\n        /* \"#utility.yul\":2111:2129   */\n      0x24\n      add\n        /* \".deps/npm/@openzeppelin/contracts/governance/TimelockController.sol\":14723:14765  TimelockUnexecutedPredecessor(predecessor) */\n      tag_257\n        /* \"#utility.yul\":1992:2169   */\n      jump\n        /* \".deps/npm/@openzeppelin/contracts/governance/TimelockController.sol\":14100:14332  function _execute(address target, uint256 value, bytes calldata data) internal virtual {... */\n    tag_206:\n        /* \".deps/npm/@openzeppelin/contracts/governance/TimelockController.sol\":14198:14210  bool success */\n      0x00\n        /* \".deps/npm/@openzeppelin/contracts/governance/TimelockController.sol\":14212:14235  bytes memory returndata */\n      dup1\n        /* \".deps/npm/@openzeppelin/contracts/governance/TimelockController.sol\":14239:14245  target */\n      dup6\n      sub(shl(0xa0, 0x01), 0x01)\n        /* \".deps/npm/@openzeppelin/contracts/governance/TimelockController.sol\":14239:14250  target.call */\n      and\n        /* \".deps/npm/@openzeppelin/contracts/governance/TimelockController.sol\":14258:14263  value */\n      dup6\n        /* \".deps/npm/@openzeppelin/contracts/governance/TimelockController.sol\":14265:14269  data */\n      dup6\n      dup6\n        /* \".deps/npm/@openzeppelin/contracts/governance/TimelockController.sol\":14239:14270  target.call{value: value}(data) */\n      mload(0x40)\n      tag_379\n      swap3\n      swap2\n      swap1\n      tag_380\n      jump\t// in\n    tag_379:\n      0x00\n      mload(0x40)\n      dup1\n      dup4\n      sub\n      dup2\n      dup6\n      dup8\n      gas\n      call\n      swap3\n      pop\n      pop\n      pop\n      returndatasize\n      dup1\n      0x00\n      dup2\n      eq\n      tag_383\n      jumpi\n      mload(0x40)\n      swap2\n      pop\n      and(add(returndatasize, 0x3f), not(0x1f))\n      dup3\n      add\n      0x40\n      mstore\n      returndatasize\n      dup3\n      mstore\n      returndatasize\n      0x00\n      0x20\n      dup5\n      add\n      returndatacopy\n      jump(tag_382)\n    tag_383:\n      0x60\n      swap2\n      pop\n    tag_382:\n      pop\n        /* \".deps/npm/@openzeppelin/contracts/governance/TimelockController.sol\":14197:14270  (bool success, bytes memory returndata) = target.call{value: value}(data) */\n      swap2\n      pop\n      swap2\n      pop\n        /* \".deps/npm/@openzeppelin/contracts/governance/TimelockController.sol\":14280:14325  Address.verifyCallResult(success, returndata) */\n      tag_384\n        /* \".deps/npm/@openzeppelin/contracts/governance/TimelockController.sol\":14305:14312  success */\n      dup3\n        /* \".deps/npm/@openzeppelin/contracts/governance/TimelockController.sol\":14314:14324  returndata */\n      dup3\n        /* \".deps/npm/@openzeppelin/contracts/governance/TimelockController.sol\":14280:14304  Address.verifyCallResult */\n      tag_385\n        /* \".deps/npm/@openzeppelin/contracts/governance/TimelockController.sol\":14280:14325  Address.verifyCallResult(success, returndata) */\n      jump\t// in\n    tag_384:\n      pop\n        /* \".deps/npm/@openzeppelin/contracts/governance/TimelockController.sol\":14187:14332  {... */\n      pop\n      pop\n        /* \".deps/npm/@openzeppelin/contracts/governance/TimelockController.sol\":14100:14332  function _execute(address target, uint256 value, bytes calldata data) internal virtual {... */\n      pop\n      pop\n      pop\n      pop\n      jump\t// out\n        /* \".deps/npm/@openzeppelin/contracts/governance/TimelockController.sol\":14864:15100  function _afterCall(bytes32 id) private {... */\n    tag_210:\n        /* \".deps/npm/@openzeppelin/contracts/governance/TimelockController.sol\":14919:14939  isOperationReady(id) */\n      tag_387\n        /* \".deps/npm/@openzeppelin/contracts/governance/TimelockController.sol\":14936:14938  id */\n      dup2\n        /* \".deps/npm/@openzeppelin/contracts/governance/TimelockController.sol\":14919:14935  isOperationReady */\n      tag_65\n        /* \".deps/npm/@openzeppelin/contracts/governance/TimelockController.sol\":14919:14939  isOperationReady(id) */\n      jump\t// in\n    tag_387:\n        /* \".deps/npm/@openzeppelin/contracts/governance/TimelockController.sol\":14914:15051  if (!isOperationReady(id)) {... */\n      tag_388\n      jumpi\n        /* \".deps/npm/@openzeppelin/contracts/governance/TimelockController.sol\":14995:14997  id */\n      dup1\n        /* \".deps/npm/@openzeppelin/contracts/governance/TimelockController.sol\":14999:15039  _encodeStateBitmap(OperationState.Ready) */\n      tag_352\n        /* \".deps/npm/@openzeppelin/contracts/governance/TimelockController.sol\":15018:15038  OperationState.Ready */\n      0x02\n        /* \".deps/npm/@openzeppelin/contracts/governance/TimelockController.sol\":14999:15017  _encodeStateBitmap */\n      tag_309\n        /* \".deps/npm/@openzeppelin/contracts/governance/TimelockController.sol\":14999:15039  _encodeStateBitmap(OperationState.Ready) */\n      jump\t// in\n        /* \".deps/npm/@openzeppelin/contracts/governance/TimelockController.sol\":14914:15051  if (!isOperationReady(id)) {... */\n    tag_388:\n        /* \".deps/npm/@openzeppelin/contracts/governance/TimelockController.sol\":15060:15075  _timestamps[id] */\n      0x00\n      swap1\n      dup2\n      mstore\n        /* \".deps/npm/@openzeppelin/contracts/governance/TimelockController.sol\":1434:1435  1 */\n      0x01\n        /* \".deps/npm/@openzeppelin/contracts/governance/TimelockController.sol\":15060:15075  _timestamps[id] */\n      0x20\n      dup2\n      swap1\n      mstore\n      0x40\n      swap1\n      swap2\n      keccak256\n        /* \".deps/npm/@openzeppelin/contracts/governance/TimelockController.sol\":15060:15093  _timestamps[id] = _DONE_TIMESTAMP */\n      sstore\n        /* \".deps/npm/@openzeppelin/contracts/governance/TimelockController.sol\":14864:15100  function _afterCall(bytes32 id) private {... */\n      jump\t// out\n        /* \".deps/npm/@openzeppelin/contracts/access/AccessControl.sol\":6179:6495  function _grantRole(bytes32 role, address account) internal virtual returns (bool) {... */\n    tag_231:\n        /* \".deps/npm/@openzeppelin/contracts/access/AccessControl.sol\":6256:6260  bool */\n      0x00\n        /* \".deps/npm/@openzeppelin/contracts/access/AccessControl.sol\":6277:6299  hasRole(role, account) */\n      tag_392\n        /* \".deps/npm/@openzeppelin/contracts/access/AccessControl.sol\":6285:6289  role */\n      dup4\n        /* \".deps/npm/@openzeppelin/contracts/access/AccessControl.sol\":6291:6298  account */\n      dup4\n        /* \".deps/npm/@openzeppelin/contracts/access/AccessControl.sol\":6277:6284  hasRole */\n      tag_131\n        /* \".deps/npm/@openzeppelin/contracts/access/AccessControl.sol\":6277:6299  hasRole(role, account) */\n      jump\t// in\n    tag_392:\n        /* \".deps/npm/@openzeppelin/contracts/access/AccessControl.sol\":6272:6489  if (!hasRole(role, account)) {... */\n      tag_393\n      jumpi\n        /* \".deps/npm/@openzeppelin/contracts/access/AccessControl.sol\":6315:6321  _roles */\n      0x00\n        /* \".deps/npm/@openzeppelin/contracts/access/AccessControl.sol\":6315:6327  _roles[role] */\n      dup4\n      dup2\n      mstore\n      0x20\n      dup2\n      dup2\n      mstore\n      0x40\n      dup1\n      dup4\n      keccak256\n      sub(shl(0xa0, 0x01), 0x01)\n        /* \".deps/npm/@openzeppelin/contracts/access/AccessControl.sol\":6315:6344  _roles[role].hasRole[account] */\n      dup7\n      and\n      dup5\n      mstore\n      swap1\n      swap2\n      mstore\n      swap1\n      keccak256\n        /* \".deps/npm/@openzeppelin/contracts/access/AccessControl.sol\":6315:6351  _roles[role].hasRole[account] = true */\n      dup1\n      sload\n      not(0xff)\n      and\n        /* \".deps/npm/@openzeppelin/contracts/access/AccessControl.sol\":6347:6351  true */\n      0x01\n        /* \".deps/npm/@openzeppelin/contracts/access/AccessControl.sol\":6315:6351  _roles[role].hasRole[account] = true */\n      or\n      swap1\n      sstore\n        /* \".deps/npm/@openzeppelin/contracts/access/AccessControl.sol\":6397:6409  _msgSender() */\n      tag_394\n        /* \".deps/npm/@openzeppelin/contracts/utils/Context.sol\":735:745  msg.sender */\n      caller\n      swap1\n        /* \".deps/npm/@openzeppelin/contracts/utils/Context.sol\":656:752  function _msgSender() internal view virtual returns (address) {... */\n      jump\n        /* \".deps/npm/@openzeppelin/contracts/access/AccessControl.sol\":6397:6409  _msgSender() */\n    tag_394:\n      sub(shl(0xa0, 0x01), 0x01)\n        /* \".deps/npm/@openzeppelin/contracts/access/AccessControl.sol\":6370:6410  RoleGranted(role, account, _msgSender()) */\n      and\n        /* \".deps/npm/@openzeppelin/contracts/access/AccessControl.sol\":6388:6395  account */\n      dup3\n      sub(shl(0xa0, 0x01), 0x01)\n        /* \".deps/npm/@openzeppelin/contracts/access/AccessControl.sol\":6370:6410  RoleGranted(role, account, _msgSender()) */\n      and\n        /* \".deps/npm/@openzeppelin/contracts/access/AccessControl.sol\":6382:6386  role */\n      dup5\n        /* \".deps/npm/@openzeppelin/contracts/access/AccessControl.sol\":6370:6410  RoleGranted(role, account, _msgSender()) */\n      0x2f8788117e7eff1d82e926ec794901d17c78024a50270940304540a733656f0d\n      mload(0x40)\n      mload(0x40)\n      dup1\n      swap2\n      sub\n      swap1\n      log4\n      pop\n        /* \".deps/npm/@openzeppelin/contracts/access/AccessControl.sol\":6431:6435  true */\n      0x01\n        /* \".deps/npm/@openzeppelin/contracts/access/AccessControl.sol\":6424:6435  return true */\n      jump(tag_192)\n        /* \".deps/npm/@openzeppelin/contracts/access/AccessControl.sol\":6272:6489  if (!hasRole(role, account)) {... */\n    tag_393:\n      pop\n        /* \".deps/npm/@openzeppelin/contracts/access/AccessControl.sol\":6473:6478  false */\n      0x00\n        /* \".deps/npm/@openzeppelin/contracts/access/AccessControl.sol\":6466:6478  return false */\n      jump(tag_192)\n        /* \".deps/npm/@openzeppelin/contracts/access/AccessControl.sol\":6732:7049  function _revokeRole(bytes32 role, address account) internal virtual returns (bool) {... */\n    tag_242:\n        /* \".deps/npm/@openzeppelin/contracts/access/AccessControl.sol\":6810:6814  bool */\n      0x00\n        /* \".deps/npm/@openzeppelin/contracts/access/AccessControl.sol\":6830:6852  hasRole(role, account) */\n      tag_397\n        /* \".deps/npm/@openzeppelin/contracts/access/AccessControl.sol\":6838:6842  role */\n      dup4\n        /* \".deps/npm/@openzeppelin/contracts/access/AccessControl.sol\":6844:6851  account */\n      dup4\n        /* \".deps/npm/@openzeppelin/contracts/access/AccessControl.sol\":6830:6837  hasRole */\n      tag_131\n        /* \".deps/npm/@openzeppelin/contracts/access/AccessControl.sol\":6830:6852  hasRole(role, account) */\n      jump\t// in\n    tag_397:\n        /* \".deps/npm/@openzeppelin/contracts/access/AccessControl.sol\":6826:7043  if (hasRole(role, account)) {... */\n      iszero\n      tag_393\n      jumpi\n        /* \".deps/npm/@openzeppelin/contracts/access/AccessControl.sol\":6900:6905  false */\n      0x00\n        /* \".deps/npm/@openzeppelin/contracts/access/AccessControl.sol\":6868:6880  _roles[role] */\n      dup4\n      dup2\n      mstore\n      0x20\n      dup2\n      dup2\n      mstore\n      0x40\n      dup1\n      dup4\n      keccak256\n      sub(shl(0xa0, 0x01), 0x01)\n        /* \".deps/npm/@openzeppelin/contracts/access/AccessControl.sol\":6868:6897  _roles[role].hasRole[account] */\n      dup7\n      and\n      dup1\n      dup6\n      mstore\n      swap3\n      mstore\n      dup1\n      dup4\n      keccak256\n        /* \".deps/npm/@openzeppelin/contracts/access/AccessControl.sol\":6868:6905  _roles[role].hasRole[account] = false */\n      dup1\n      sload\n      not(0xff)\n      and\n      swap1\n      sstore\n        /* \".deps/npm/@openzeppelin/contracts/access/AccessControl.sol\":6924:6964  RoleRevoked(role, account, _msgSender()) */\n      mload\n        /* \".deps/npm/@openzeppelin/contracts/utils/Context.sol\":735:745  msg.sender */\n      caller\n      swap3\n        /* \".deps/npm/@openzeppelin/contracts/access/AccessControl.sol\":6868:6880  _roles[role] */\n      dup7\n      swap2\n        /* \".deps/npm/@openzeppelin/contracts/access/AccessControl.sol\":6924:6964  RoleRevoked(role, account, _msgSender()) */\n      0xf6391f5c32d9c69d2a47ea670b442974b53935d1edc7fd64eb21e047a839171b\n      swap2\n        /* \".deps/npm/@openzeppelin/contracts/access/AccessControl.sol\":6900:6905  false */\n      swap1\n        /* \".deps/npm/@openzeppelin/contracts/access/AccessControl.sol\":6924:6964  RoleRevoked(role, account, _msgSender()) */\n      log4\n      pop\n        /* \".deps/npm/@openzeppelin/contracts/access/AccessControl.sol\":6985:6989  true */\n      0x01\n        /* \".deps/npm/@openzeppelin/contracts/access/AccessControl.sol\":6978:6989  return true */\n      jump(tag_192)\n        /* \".deps/npm/@openzeppelin/contracts/governance/TimelockController.sol\":16145:16295  function _encodeStateBitmap(OperationState operationState) internal pure returns (bytes32) {... */\n    tag_309:\n        /* \".deps/npm/@openzeppelin/contracts/governance/TimelockController.sol\":16227:16234  bytes32 */\n      0x00\n        /* \".deps/npm/@openzeppelin/contracts/governance/TimelockController.sol\":16272:16286  operationState */\n      dup2\n        /* \".deps/npm/@openzeppelin/contracts/governance/TimelockController.sol\":16266:16287  uint8(operationState) */\n      0x03\n      dup2\n      gt\n      iszero\n      tag_403\n      jumpi\n      tag_403\n      tag_214\n      jump\t// in\n    tag_403:\n        /* \".deps/npm/@openzeppelin/contracts/governance/TimelockController.sol\":16261:16262  1 */\n      0x01\n        /* \".deps/npm/@openzeppelin/contracts/governance/TimelockController.sol\":16261:16287  1 << uint8(operationState) */\n      0xff\n      swap2\n      swap1\n      swap2\n      and\n      shl\n      swap3\n        /* \".deps/npm/@openzeppelin/contracts/governance/TimelockController.sol\":16145:16295  function _encodeStateBitmap(OperationState operationState) internal pure returns (bytes32) {... */\n      swap2\n      pop\n      pop\n      jump\t// out\n        /* \".deps/npm/@openzeppelin/contracts/access/AccessControl.sol\":2565:2767  function supportsInterface(bytes4 interfaceId) public view virtual override returns (bool) {... */\n    tag_362:\n        /* \".deps/npm/@openzeppelin/contracts/access/AccessControl.sol\":2650:2654  bool */\n      0x00\n      not(sub(shl(0xe0, 0x01), 0x01))\n        /* \".deps/npm/@openzeppelin/contracts/access/AccessControl.sol\":2673:2720  interfaceId == type(IAccessControl).interfaceId */\n      dup3\n      and\n      shl(0xe0, 0x7965db0b)\n      eq\n      dup1\n        /* \".deps/npm/@openzeppelin/contracts/access/AccessControl.sol\":2673:2760  interfaceId == type(IAccessControl).interfaceId || super.supportsInterface(interfaceId) */\n      tag_192\n      jumpi\n      pop\n      shl(0xe0, 0x01ffc9a7)\n      not(sub(shl(0xe0, 0x01), 0x01))\n        /* \".deps/npm/@openzeppelin/contracts/utils/introspection/ERC165.sol\":862:902  interfaceId == type(IERC165).interfaceId */\n      dup4\n      and\n      eq\n        /* \".deps/npm/@openzeppelin/contracts/access/AccessControl.sol\":2724:2760  super.supportsInterface(interfaceId) */\n      tag_192\n        /* \".deps/npm/@openzeppelin/contracts/utils/introspection/ERC165.sol\":763:909  function supportsInterface(bytes4 interfaceId) public view virtual returns (bool) {... */\n      jump\n        /* \".deps/npm/@openzeppelin/contracts/utils/Address.sol\":5221:5445  function verifyCallResult(bool success, bytes memory returndata) internal pure returns (bytes memory) {... */\n    tag_385:\n        /* \".deps/npm/@openzeppelin/contracts/utils/Address.sol\":5309:5321  bytes memory */\n      0x60\n        /* \".deps/npm/@openzeppelin/contracts/utils/Address.sol\":5338:5345  success */\n      dup3\n        /* \".deps/npm/@openzeppelin/contracts/utils/Address.sol\":5333:5439  if (!success) {... */\n      tag_409\n      jumpi\n        /* \".deps/npm/@openzeppelin/contracts/utils/Address.sol\":5361:5380  _revert(returndata) */\n      tag_410\n        /* \".deps/npm/@openzeppelin/contracts/utils/Address.sol\":5369:5379  returndata */\n      dup3\n        /* \".deps/npm/@openzeppelin/contracts/utils/Address.sol\":5361:5368  _revert */\n      tag_411\n        /* \".deps/npm/@openzeppelin/contracts/utils/Address.sol\":5361:5380  _revert(returndata) */\n      jump\t// in\n    tag_410:\n        /* \".deps/npm/@openzeppelin/contracts/utils/Address.sol\":5333:5439  if (!success) {... */\n      jump(tag_192)\n    tag_409:\n      pop\n        /* \".deps/npm/@openzeppelin/contracts/utils/Address.sol\":5418:5428  returndata */\n      dup1\n        /* \".deps/npm/@openzeppelin/contracts/utils/Address.sol\":5411:5428  return returndata */\n      jump(tag_192)\n        /* \".deps/npm/@openzeppelin/contracts/utils/Address.sol\":5559:6046  function _revert(bytes memory returndata) private pure {... */\n    tag_411:\n        /* \".deps/npm/@openzeppelin/contracts/utils/Address.sol\":5690:5707  returndata.length */\n      dup1\n      mload\n        /* \".deps/npm/@openzeppelin/contracts/utils/Address.sol\":5690:5711  returndata.length > 0 */\n      iszero\n        /* \".deps/npm/@openzeppelin/contracts/utils/Address.sol\":5686:6040  if (returndata.length > 0) {... */\n      tag_415\n      jumpi\n        /* \".deps/npm/@openzeppelin/contracts/utils/Address.sol\":5887:5897  returndata */\n      dup1\n        /* \".deps/npm/@openzeppelin/contracts/utils/Address.sol\":5881:5898  mload(returndata) */\n      mload\n        /* \".deps/npm/@openzeppelin/contracts/utils/Address.sol\":5943:5958  returndata_size */\n      dup1\n        /* \".deps/npm/@openzeppelin/contracts/utils/Address.sol\":5930:5940  returndata */\n      dup3\n        /* \".deps/npm/@openzeppelin/contracts/utils/Address.sol\":5926:5928  32 */\n      0x20\n        /* \".deps/npm/@openzeppelin/contracts/utils/Address.sol\":5922:5941  add(32, returndata) */\n      add\n        /* \".deps/npm/@openzeppelin/contracts/utils/Address.sol\":5915:5959  revert(add(32, returndata), returndata_size) */\n      revert\n        /* \".deps/npm/@openzeppelin/contracts/utils/Address.sol\":5686:6040  if (returndata.length > 0) {... */\n    tag_415:\n        /* \".deps/npm/@openzeppelin/contracts/utils/Address.sol\":6010:6029  Errors.FailedCall() */\n      mload(0x40)\n      shl(0xe0, 0xd6bda275)\n      dup2\n      mstore\n      0x04\n      add\n      mload(0x40)\n      dup1\n      swap2\n      sub\n      swap1\n      revert\n        /* \"#utility.yul\":14:187   */\n    tag_417:\n        /* \"#utility.yul\":82:102   */\n      dup1\n      calldataload\n      sub(shl(0xa0, 0x01), 0x01)\n        /* \"#utility.yul\":131:162   */\n      dup2\n      and\n        /* \"#utility.yul\":121:163   */\n      dup2\n      eq\n        /* \"#utility.yul\":111:181   */\n      tag_428\n      jumpi\n        /* \"#utility.yul\":177:178   */\n      0x00\n        /* \"#utility.yul\":174:175   */\n      dup1\n        /* \"#utility.yul\":167:179   */\n      revert\n        /* \"#utility.yul\":111:181   */\n    tag_428:\n        /* \"#utility.yul\":14:187   */\n      swap2\n      swap1\n      pop\n      jump\t// out\n        /* \"#utility.yul\":192:539   */\n    tag_418:\n        /* \"#utility.yul\":243:251   */\n      0x00\n        /* \"#utility.yul\":253:259   */\n      dup1\n        /* \"#utility.yul\":307:310   */\n      dup4\n        /* \"#utility.yul\":300:304   */\n      0x1f\n        /* \"#utility.yul\":292:298   */\n      dup5\n        /* \"#utility.yul\":288:305   */\n      add\n        /* \"#utility.yul\":284:311   */\n      slt\n        /* \"#utility.yul\":274:329   */\n      tag_430\n      jumpi\n        /* \"#utility.yul\":325:326   */\n      0x00\n        /* \"#utility.yul\":322:323   */\n      dup1\n        /* \"#utility.yul\":315:327   */\n      revert\n        /* \"#utility.yul\":274:329   */\n    tag_430:\n      pop\n        /* \"#utility.yul\":348:368   */\n      dup2\n      calldataload\n      sub(shl(0x40, 0x01), 0x01)\n        /* \"#utility.yul\":380:410   */\n      dup2\n      gt\n        /* \"#utility.yul\":377:427   */\n      iszero\n      tag_431\n      jumpi\n        /* \"#utility.yul\":423:424   */\n      0x00\n        /* \"#utility.yul\":420:421   */\n      dup1\n        /* \"#utility.yul\":413:425   */\n      revert\n        /* \"#utility.yul\":377:427   */\n    tag_431:\n        /* \"#utility.yul\":460:464   */\n      0x20\n        /* \"#utility.yul\":452:458   */\n      dup4\n        /* \"#utility.yul\":448:465   */\n      add\n        /* \"#utility.yul\":436:465   */\n      swap2\n      pop\n        /* \"#utility.yul\":512:515   */\n      dup4\n        /* \"#utility.yul\":505:509   */\n      0x20\n        /* \"#utility.yul\":496:502   */\n      dup3\n        /* \"#utility.yul\":488:494   */\n      dup6\n        /* \"#utility.yul\":484:503   */\n      add\n        /* \"#utility.yul\":480:510   */\n      add\n        /* \"#utility.yul\":477:516   */\n      gt\n        /* \"#utility.yul\":474:533   */\n      iszero\n      tag_432\n      jumpi\n        /* \"#utility.yul\":529:530   */\n      0x00\n        /* \"#utility.yul\":526:527   */\n      dup1\n        /* \"#utility.yul\":519:531   */\n      revert\n        /* \"#utility.yul\":474:533   */\n    tag_432:\n        /* \"#utility.yul\":192:539   */\n      swap3\n      pop\n      swap3\n      swap1\n      pop\n      jump\t// out\n        /* \"#utility.yul\":544:1504   */\n    tag_43:\n        /* \"#utility.yul\":659:665   */\n      0x00\n        /* \"#utility.yul\":667:673   */\n      dup1\n        /* \"#utility.yul\":675:681   */\n      0x00\n        /* \"#utility.yul\":683:689   */\n      dup1\n        /* \"#utility.yul\":691:697   */\n      0x00\n        /* \"#utility.yul\":699:705   */\n      dup1\n        /* \"#utility.yul\":707:713   */\n      0x00\n        /* \"#utility.yul\":760:763   */\n      0xc0\n        /* \"#utility.yul\":748:757   */\n      dup9\n        /* \"#utility.yul\":739:746   */\n      dup11\n        /* \"#utility.yul\":735:758   */\n      sub\n        /* \"#utility.yul\":731:764   */\n      slt\n        /* \"#utility.yul\":728:781   */\n      iszero\n      tag_434\n      jumpi\n        /* \"#utility.yul\":777:778   */\n      0x00\n        /* \"#utility.yul\":774:775   */\n      dup1\n        /* \"#utility.yul\":767:779   */\n      revert\n        /* \"#utility.yul\":728:781   */\n    tag_434:\n        /* \"#utility.yul\":800:829   */\n      tag_435\n        /* \"#utility.yul\":819:828   */\n      dup9\n        /* \"#utility.yul\":800:829   */\n      tag_417\n      jump\t// in\n    tag_435:\n        /* \"#utility.yul\":790:829   */\n      swap7\n      pop\n        /* \"#utility.yul\":898:900   */\n      0x20\n        /* \"#utility.yul\":883:901   */\n      dup9\n      add\n        /* \"#utility.yul\":870:902   */\n      calldataload\n      swap6\n      pop\n        /* \"#utility.yul\":977:979   */\n      0x40\n        /* \"#utility.yul\":962:980   */\n      dup9\n      add\n        /* \"#utility.yul\":949:981   */\n      calldataload\n      sub(shl(0x40, 0x01), 0x01)\n        /* \"#utility.yul\":993:1023   */\n      dup2\n      gt\n        /* \"#utility.yul\":990:1040   */\n      iszero\n      tag_436\n      jumpi\n        /* \"#utility.yul\":1036:1037   */\n      0x00\n        /* \"#utility.yul\":1033:1034   */\n      dup1\n        /* \"#utility.yul\":1026:1038   */\n      revert\n        /* \"#utility.yul\":990:1040   */\n    tag_436:\n        /* \"#utility.yul\":1075:1133   */\n      tag_437\n        /* \"#utility.yul\":1125:1132   */\n      dup11\n        /* \"#utility.yul\":1116:1122   */\n      dup3\n        /* \"#utility.yul\":1105:1114   */\n      dup12\n        /* \"#utility.yul\":1101:1123   */\n      add\n        /* \"#utility.yul\":1075:1133   */\n      tag_418\n      jump\t// in\n    tag_437:\n        /* \"#utility.yul\":544:1504   */\n      swap9\n      swap12\n      swap8\n      swap11\n      pop\n        /* \"#utility.yul\":1152:1160   */\n      swap9\n        /* \"#utility.yul\":1260:1262   */\n      0x60\n        /* \"#utility.yul\":1245:1263   */\n      dup2\n      add\n        /* \"#utility.yul\":1232:1264   */\n      calldataload\n      swap8\n        /* \"#utility.yul\":1363:1366   */\n      0x80\n        /* \"#utility.yul\":1348:1367   */\n      dup3\n      add\n        /* \"#utility.yul\":1335:1368   */\n      calldataload\n      swap8\n      pop\n        /* \"#utility.yul\":1467:1470   */\n      0xa0\n        /* \"#utility.yul\":1452:1471   */\n      swap1\n      swap2\n      add\n        /* \"#utility.yul\":1439:1472   */\n      calldataload\n      swap6\n      pop\n        /* \"#utility.yul\":544:1504   */\n      swap4\n      pop\n      pop\n      pop\n      pop\n      jump\t// out\n        /* \"#utility.yul\":1509:1795   */\n    tag_48:\n        /* \"#utility.yul\":1567:1573   */\n      0x00\n        /* \"#utility.yul\":1620:1622   */\n      0x20\n        /* \"#utility.yul\":1608:1617   */\n      dup3\n        /* \"#utility.yul\":1599:1606   */\n      dup5\n        /* \"#utility.yul\":1595:1618   */\n      sub\n        /* \"#utility.yul\":1591:1623   */\n      slt\n        /* \"#utility.yul\":1588:1640   */\n      iszero\n      tag_439\n      jumpi\n        /* \"#utility.yul\":1636:1637   */\n      0x00\n        /* \"#utility.yul\":1633:1634   */\n      dup1\n        /* \"#utility.yul\":1626:1638   */\n      revert\n        /* \"#utility.yul\":1588:1640   */\n    tag_439:\n        /* \"#utility.yul\":1662:1685   */\n      dup2\n      calldataload\n      not(sub(shl(0xe0, 0x01), 0x01))\n        /* \"#utility.yul\":1714:1746   */\n      dup2\n      and\n        /* \"#utility.yul\":1704:1747   */\n      dup2\n      eq\n        /* \"#utility.yul\":1694:1765   */\n      tag_249\n      jumpi\n        /* \"#utility.yul\":1761:1762   */\n      0x00\n        /* \"#utility.yul\":1758:1759   */\n      dup1\n        /* \"#utility.yul\":1751:1763   */\n      revert\n        /* \"#utility.yul\":2174:3013   */\n    tag_59:\n        /* \"#utility.yul\":2280:2286   */\n      0x00\n        /* \"#utility.yul\":2288:2294   */\n      dup1\n        /* \"#utility.yul\":2296:2302   */\n      0x00\n        /* \"#utility.yul\":2304:2310   */\n      dup1\n        /* \"#utility.yul\":2312:2318   */\n      0x00\n        /* \"#utility.yul\":2320:2326   */\n      dup1\n        /* \"#utility.yul\":2373:2376   */\n      0xa0\n        /* \"#utility.yul\":2361:2370   */\n      dup8\n        /* \"#utility.yul\":2352:2359   */\n      dup10\n        /* \"#utility.yul\":2348:2371   */\n      sub\n        /* \"#utility.yul\":2344:2377   */\n      slt\n        /* \"#utility.yul\":2341:2394   */\n      iszero\n      tag_444\n      jumpi\n        /* \"#utility.yul\":2390:2391   */\n      0x00\n        /* \"#utility.yul\":2387:2388   */\n      dup1\n        /* \"#utility.yul\":2380:2392   */\n      revert\n        /* \"#utility.yul\":2341:2394   */\n    tag_444:\n        /* \"#utility.yul\":2413:2442   */\n      tag_445\n        /* \"#utility.yul\":2432:2441   */\n      dup8\n        /* \"#utility.yul\":2413:2442   */\n      tag_417\n      jump\t// in\n    tag_445:\n        /* \"#utility.yul\":2403:2442   */\n      swap6\n      pop\n        /* \"#utility.yul\":2511:2513   */\n      0x20\n        /* \"#utility.yul\":2496:2514   */\n      dup8\n      add\n        /* \"#utility.yul\":2483:2515   */\n      calldataload\n      swap5\n      pop\n        /* \"#utility.yul\":2590:2592   */\n      0x40\n        /* \"#utility.yul\":2575:2593   */\n      dup8\n      add\n        /* \"#utility.yul\":2562:2594   */\n      calldataload\n      sub(shl(0x40, 0x01), 0x01)\n        /* \"#utility.yul\":2606:2636   */\n      dup2\n      gt\n        /* \"#utility.yul\":2603:2653   */\n      iszero\n      tag_446\n      jumpi\n        /* \"#utility.yul\":2649:2650   */\n      0x00\n        /* \"#utility.yul\":2646:2647   */\n      dup1\n        /* \"#utility.yul\":2639:2651   */\n      revert\n        /* \"#utility.yul\":2603:2653   */\n    tag_446:\n        /* \"#utility.yul\":2688:2746   */\n      tag_447\n        /* \"#utility.yul\":2738:2745   */\n      dup10\n        /* \"#utility.yul\":2729:2735   */\n      dup3\n        /* \"#utility.yul\":2718:2727   */\n      dup11\n        /* \"#utility.yul\":2714:2736   */\n      add\n        /* \"#utility.yul\":2688:2746   */\n      tag_418\n      jump\t// in\n    tag_447:\n        /* \"#utility.yul\":2174:3013   */\n      swap8\n      swap11\n      swap7\n      swap10\n      pop\n        /* \"#utility.yul\":2765:2773   */\n      swap8\n        /* \"#utility.yul\":2873:2875   */\n      0x60\n        /* \"#utility.yul\":2858:2876   */\n      dup2\n      add\n        /* \"#utility.yul\":2845:2877   */\n      calldataload\n      swap7\n        /* \"#utility.yul\":2976:2979   */\n      0x80\n        /* \"#utility.yul\":2961:2980   */\n      swap1\n      swap2\n      add\n        /* \"#utility.yul\":2948:2981   */\n      calldataload\n      swap6\n      pop\n        /* \"#utility.yul\":2174:3013   */\n      swap4\n      pop\n      pop\n      pop\n      pop\n      jump\t// out\n        /* \"#utility.yul\":3018:3244   */\n    tag_64:\n        /* \"#utility.yul\":3077:3083   */\n      0x00\n        /* \"#utility.yul\":3130:3132   */\n      0x20\n        /* \"#utility.yul\":3118:3127   */\n      dup3\n        /* \"#utility.yul\":3109:3116   */\n      dup5\n        /* \"#utility.yul\":3105:3128   */\n      sub\n        /* \"#utility.yul\":3101:3133   */\n      slt\n        /* \"#utility.yul\":3098:3150   */\n      iszero\n      tag_449\n      jumpi\n        /* \"#utility.yul\":3146:3147   */\n      0x00\n        /* \"#utility.yul\":3143:3144   */\n      dup1\n        /* \"#utility.yul\":3136:3148   */\n      revert\n        /* \"#utility.yul\":3098:3150   */\n    tag_449:\n      pop\n        /* \"#utility.yul\":3191:3214   */\n      calldataload\n      swap2\n        /* \"#utility.yul\":3018:3244   */\n      swap1\n      pop\n      jump\t// out\n        /* \"#utility.yul\":3249:3376   */\n    tag_419:\n        /* \"#utility.yul\":3310:3320   */\n      0x4e487b71\n        /* \"#utility.yul\":3305:3308   */\n      0xe0\n        /* \"#utility.yul\":3301:3321   */\n      shl\n        /* \"#utility.yul\":3298:3299   */\n      0x00\n        /* \"#utility.yul\":3291:3322   */\n      mstore\n        /* \"#utility.yul\":3341:3345   */\n      0x41\n        /* \"#utility.yul\":3338:3339   */\n      0x04\n        /* \"#utility.yul\":3331:3346   */\n      mstore\n        /* \"#utility.yul\":3365:3369   */\n      0x24\n        /* \"#utility.yul\":3362:3363   */\n      0x00\n        /* \"#utility.yul\":3355:3370   */\n      revert\n        /* \"#utility.yul\":3381:3656   */\n    tag_420:\n        /* \"#utility.yul\":3452:3454   */\n      0x40\n        /* \"#utility.yul\":3446:3455   */\n      mload\n        /* \"#utility.yul\":3517:3519   */\n      0x1f\n        /* \"#utility.yul\":3498:3511   */\n      dup3\n      add\n      not(0x1f)\n        /* \"#utility.yul\":3494:3521   */\n      and\n        /* \"#utility.yul\":3482:3522   */\n      dup2\n      add\n      sub(shl(0x40, 0x01), 0x01)\n        /* \"#utility.yul\":3537:3571   */\n      dup2\n      gt\n        /* \"#utility.yul\":3573:3595   */\n      dup3\n      dup3\n      lt\n        /* \"#utility.yul\":3534:3596   */\n      or\n        /* \"#utility.yul\":3531:3619   */\n      iszero\n      tag_453\n      jumpi\n        /* \"#utility.yul\":3599:3617   */\n      tag_453\n      tag_419\n      jump\t// in\n    tag_453:\n        /* \"#utility.yul\":3635:3637   */\n      0x40\n        /* \"#utility.yul\":3628:3650   */\n      mstore\n        /* \"#utility.yul\":3381:3656   */\n      swap2\n      swap1\n      pop\n      jump\t// out\n        /* \"#utility.yul\":3661:4219   */\n    tag_421:\n        /* \"#utility.yul\":3703:3708   */\n      0x00\n        /* \"#utility.yul\":3756:3759   */\n      dup3\n        /* \"#utility.yul\":3749:3753   */\n      0x1f\n        /* \"#utility.yul\":3741:3747   */\n      dup4\n        /* \"#utility.yul\":3737:3754   */\n      add\n        /* \"#utility.yul\":3733:3760   */\n      slt\n        /* \"#utility.yul\":3723:3778   */\n      tag_455\n      jumpi\n        /* \"#utility.yul\":3774:3775   */\n      0x00\n        /* \"#utility.yul\":3771:3772   */\n      dup1\n        /* \"#utility.yul\":3764:3776   */\n      revert\n        /* \"#utility.yul\":3723:3778   */\n    tag_455:\n        /* \"#utility.yul\":3814:3820   */\n      dup2\n        /* \"#utility.yul\":3801:3821   */\n      calldataload\n      sub(shl(0x40, 0x01), 0x01)\n        /* \"#utility.yul\":3836:3842   */\n      dup2\n        /* \"#utility.yul\":3833:3863   */\n      gt\n        /* \"#utility.yul\":3830:3886   */\n      iszero\n      tag_457\n      jumpi\n        /* \"#utility.yul\":3866:3884   */\n      tag_457\n      tag_419\n      jump\t// in\n    tag_457:\n        /* \"#utility.yul\":3910:3969   */\n      tag_458\n        /* \"#utility.yul\":3957:3959   */\n      0x1f\n        /* \"#utility.yul\":3934:3951   */\n      dup3\n      add\n      not(0x1f)\n        /* \"#utility.yul\":3930:3961   */\n      and\n        /* \"#utility.yul\":3963:3967   */\n      0x20\n        /* \"#utility.yul\":3926:3968   */\n      add\n        /* \"#utility.yul\":3910:3969   */\n      tag_420\n      jump\t// in\n    tag_458:\n        /* \"#utility.yul\":3994:4000   */\n      dup2\n        /* \"#utility.yul\":3985:3992   */\n      dup2\n        /* \"#utility.yul\":3978:4001   */\n      mstore\n        /* \"#utility.yul\":4048:4051   */\n      dup5\n        /* \"#utility.yul\":4041:4045   */\n      0x20\n        /* \"#utility.yul\":4032:4038   */\n      dup4\n        /* \"#utility.yul\":4024:4030   */\n      dup7\n        /* \"#utility.yul\":4020:4039   */\n      add\n        /* \"#utility.yul\":4016:4046   */\n      add\n        /* \"#utility.yul\":4013:4052   */\n      gt\n        /* \"#utility.yul\":4010:4069   */\n      iszero\n      tag_459\n      jumpi\n        /* \"#utility.yul\":4065:4066   */\n      0x00\n        /* \"#utility.yul\":4062:4063   */\n      dup1\n        /* \"#utility.yul\":4055:4067   */\n      revert\n        /* \"#utility.yul\":4010:4069   */\n    tag_459:\n        /* \"#utility.yul\":4130:4136   */\n      dup2\n        /* \"#utility.yul\":4123:4127   */\n      0x20\n        /* \"#utility.yul\":4115:4121   */\n      dup6\n        /* \"#utility.yul\":4111:4128   */\n      add\n        /* \"#utility.yul\":4104:4108   */\n      0x20\n        /* \"#utility.yul\":4095:4102   */\n      dup4\n        /* \"#utility.yul\":4091:4109   */\n      add\n        /* \"#utility.yul\":4078:4137   */\n      calldatacopy\n        /* \"#utility.yul\":4186:4187   */\n      0x00\n        /* \"#utility.yul\":4157:4177   */\n      swap2\n      dup2\n      add\n        /* \"#utility.yul\":4179:4183   */\n      0x20\n        /* \"#utility.yul\":4153:4184   */\n      add\n        /* \"#utility.yul\":4146:4188   */\n      swap2\n      swap1\n      swap2\n      mstore\n        /* \"#utility.yul\":4161:4168   */\n      swap4\n        /* \"#utility.yul\":3661:4219   */\n      swap3\n      pop\n      pop\n      pop\n      jump\t// out\n        /* \"#utility.yul\":4224:4807   */\n    tag_70:\n        /* \"#utility.yul\":4319:4325   */\n      0x00\n        /* \"#utility.yul\":4327:4333   */\n      dup1\n        /* \"#utility.yul\":4335:4341   */\n      0x00\n        /* \"#utility.yul\":4343:4349   */\n      dup1\n        /* \"#utility.yul\":4396:4399   */\n      0x80\n        /* \"#utility.yul\":4384:4393   */\n      dup6\n        /* \"#utility.yul\":4375:4382   */\n      dup8\n        /* \"#utility.yul\":4371:4394   */\n      sub\n        /* \"#utility.yul\":4367:4400   */\n      slt\n        /* \"#utility.yul\":4364:4417   */\n      iszero\n      tag_461\n      jumpi\n        /* \"#utility.yul\":4413:4414   */\n      0x00\n        /* \"#utility.yul\":4410:4411   */\n      dup1\n        /* \"#utility.yul\":4403:4415   */\n      revert\n        /* \"#utility.yul\":4364:4417   */\n    tag_461:\n        /* \"#utility.yul\":4436:4465   */\n      tag_462\n        /* \"#utility.yul\":4455:4464   */\n      dup6\n        /* \"#utility.yul\":4436:4465   */\n      tag_417\n      jump\t// in\n    tag_462:\n        /* \"#utility.yul\":4426:4465   */\n      swap4\n      pop\n        /* \"#utility.yul\":4484:4522   */\n      tag_463\n        /* \"#utility.yul\":4518:4520   */\n      0x20\n        /* \"#utility.yul\":4507:4516   */\n      dup7\n        /* \"#utility.yul\":4503:4521   */\n      add\n        /* \"#utility.yul\":4484:4522   */\n      tag_417\n      jump\t// in\n    tag_463:\n        /* \"#utility.yul\":4474:4522   */\n      swap3\n      pop\n        /* \"#utility.yul\":4591:4593   */\n      0x40\n        /* \"#utility.yul\":4576:4594   */\n      dup6\n      add\n        /* \"#utility.yul\":4563:4595   */\n      calldataload\n      swap2\n      pop\n        /* \"#utility.yul\":4670:4672   */\n      0x60\n        /* \"#utility.yul\":4655:4673   */\n      dup6\n      add\n        /* \"#utility.yul\":4642:4674   */\n      calldataload\n      sub(shl(0x40, 0x01), 0x01)\n        /* \"#utility.yul\":4686:4716   */\n      dup2\n      gt\n        /* \"#utility.yul\":4683:4733   */\n      iszero\n      tag_464\n      jumpi\n        /* \"#utility.yul\":4729:4730   */\n      0x00\n        /* \"#utility.yul\":4726:4727   */\n      dup1\n        /* \"#utility.yul\":4719:4731   */\n      revert\n        /* \"#utility.yul\":4683:4733   */\n    tag_464:\n        /* \"#utility.yul\":4752:4801   */\n      tag_465\n        /* \"#utility.yul\":4793:4800   */\n      dup8\n        /* \"#utility.yul\":4784:4790   */\n      dup3\n        /* \"#utility.yul\":4773:4782   */\n      dup9\n        /* \"#utility.yul\":4769:4791   */\n      add\n        /* \"#utility.yul\":4752:4801   */\n      tag_421\n      jump\t// in\n    tag_465:\n        /* \"#utility.yul\":4742:4801   */\n      swap2\n      pop\n      pop\n        /* \"#utility.yul\":4224:4807   */\n      swap3\n      swap6\n      swap2\n      swap5\n      pop\n      swap3\n      pop\n      jump\t// out\n        /* \"#utility.yul\":5019:5319   */\n    tag_87:\n        /* \"#utility.yul\":5087:5093   */\n      0x00\n        /* \"#utility.yul\":5095:5101   */\n      dup1\n        /* \"#utility.yul\":5148:5150   */\n      0x40\n        /* \"#utility.yul\":5136:5145   */\n      dup4\n        /* \"#utility.yul\":5127:5134   */\n      dup6\n        /* \"#utility.yul\":5123:5146   */\n      sub\n        /* \"#utility.yul\":5119:5151   */\n      slt\n        /* \"#utility.yul\":5116:5168   */\n      iszero\n      tag_468\n      jumpi\n        /* \"#utility.yul\":5164:5165   */\n      0x00\n        /* \"#utility.yul\":5161:5162   */\n      dup1\n        /* \"#utility.yul\":5154:5166   */\n      revert\n        /* \"#utility.yul\":5116:5168   */\n    tag_468:\n        /* \"#utility.yul\":5209:5232   */\n      dup3\n      calldataload\n      swap2\n      pop\n        /* \"#utility.yul\":5275:5313   */\n      tag_469\n        /* \"#utility.yul\":5309:5311   */\n      0x20\n        /* \"#utility.yul\":5294:5312   */\n      dup5\n      add\n        /* \"#utility.yul\":5275:5313   */\n      tag_417\n      jump\t// in\n    tag_469:\n        /* \"#utility.yul\":5265:5313   */\n      swap1\n      pop\n        /* \"#utility.yul\":5019:5319   */\n      swap3\n      pop\n      swap3\n      swap1\n      pop\n      jump\t// out\n        /* \"#utility.yul\":5555:5682   */\n    tag_214:\n        /* \"#utility.yul\":5616:5626   */\n      0x4e487b71\n        /* \"#utility.yul\":5611:5614   */\n      0xe0\n        /* \"#utility.yul\":5607:5627   */\n      shl\n        /* \"#utility.yul\":5604:5605   */\n      0x00\n        /* \"#utility.yul\":5597:5628   */\n      mstore\n        /* \"#utility.yul\":5647:5651   */\n      0x21\n        /* \"#utility.yul\":5644:5645   */\n      0x04\n        /* \"#utility.yul\":5637:5652   */\n      mstore\n        /* \"#utility.yul\":5671:5675   */\n      0x24\n        /* \"#utility.yul\":5668:5669   */\n      0x00\n        /* \"#utility.yul\":5661:5676   */\n      revert\n        /* \"#utility.yul\":5687:6033   */\n    tag_113:\n        /* \"#utility.yul\":5837:5839   */\n      0x20\n        /* \"#utility.yul\":5822:5840   */\n      dup2\n      add\n        /* \"#utility.yul\":5870:5871   */\n      0x04\n        /* \"#utility.yul\":5859:5872   */\n      dup4\n      lt\n        /* \"#utility.yul\":5849:5993   */\n      tag_474\n      jumpi\n        /* \"#utility.yul\":5915:5925   */\n      0x4e487b71\n        /* \"#utility.yul\":5910:5913   */\n      0xe0\n        /* \"#utility.yul\":5906:5926   */\n      shl\n        /* \"#utility.yul\":5903:5904   */\n      0x00\n        /* \"#utility.yul\":5896:5927   */\n      mstore\n        /* \"#utility.yul\":5950:5954   */\n      0x21\n        /* \"#utility.yul\":5947:5948   */\n      0x04\n        /* \"#utility.yul\":5940:5955   */\n      mstore\n        /* \"#utility.yul\":5978:5982   */\n      0x24\n        /* \"#utility.yul\":5975:5976   */\n      0x00\n        /* \"#utility.yul\":5968:5983   */\n      revert\n        /* \"#utility.yul\":5849:5993   */\n    tag_474:\n        /* \"#utility.yul\":6002:6027   */\n      swap2\n      swap1\n      mstore\n        /* \"#utility.yul\":5687:6033   */\n      swap1\n      jump\t// out\n        /* \"#utility.yul\":6038:6405   */\n    tag_422:\n        /* \"#utility.yul\":6101:6109   */\n      0x00\n        /* \"#utility.yul\":6111:6117   */\n      dup1\n        /* \"#utility.yul\":6165:6168   */\n      dup4\n        /* \"#utility.yul\":6158:6162   */\n      0x1f\n        /* \"#utility.yul\":6150:6156   */\n      dup5\n        /* \"#utility.yul\":6146:6163   */\n      add\n        /* \"#utility.yul\":6142:6169   */\n      slt\n        /* \"#utility.yul\":6132:6187   */\n      tag_476\n      jumpi\n        /* \"#utility.yul\":6183:6184   */\n      0x00\n        /* \"#utility.yul\":6180:6181   */\n      dup1\n        /* \"#utility.yul\":6173:6185   */\n      revert\n        /* \"#utility.yul\":6132:6187   */\n    tag_476:\n      pop\n        /* \"#utility.yul\":6206:6226   */\n      dup2\n      calldataload\n      sub(shl(0x40, 0x01), 0x01)\n        /* \"#utility.yul\":6238:6268   */\n      dup2\n      gt\n        /* \"#utility.yul\":6235:6285   */\n      iszero\n      tag_477\n      jumpi\n        /* \"#utility.yul\":6281:6282   */\n      0x00\n        /* \"#utility.yul\":6278:6279   */\n      dup1\n        /* \"#utility.yul\":6271:6283   */\n      revert\n        /* \"#utility.yul\":6235:6285   */\n    tag_477:\n        /* \"#utility.yul\":6318:6322   */\n      0x20\n        /* \"#utility.yul\":6310:6316   */\n      dup4\n        /* \"#utility.yul\":6306:6323   */\n      add\n        /* \"#utility.yul\":6294:6323   */\n      swap2\n      pop\n        /* \"#utility.yul\":6378:6381   */\n      dup4\n        /* \"#utility.yul\":6371:6375   */\n      0x20\n        /* \"#utility.yul\":6361:6367   */\n      dup3\n        /* \"#utility.yul\":6358:6359   */\n      0x05\n        /* \"#utility.yul\":6354:6368   */\n      shl\n        /* \"#utility.yul\":6346:6352   */\n      dup6\n        /* \"#utility.yul\":6342:6369   */\n      add\n        /* \"#utility.yul\":6338:6376   */\n      add\n        /* \"#utility.yul\":6335:6382   */\n      gt\n        /* \"#utility.yul\":6332:6399   */\n      iszero\n      tag_432\n      jumpi\n        /* \"#utility.yul\":6395:6396   */\n      0x00\n        /* \"#utility.yul\":6392:6393   */\n      dup1\n        /* \"#utility.yul\":6385:6397   */\n      revert\n        /* \"#utility.yul\":6410:7877   */\n    tag_122:\n        /* \"#utility.yul\":6606:6612   */\n      0x00\n        /* \"#utility.yul\":6614:6620   */\n      dup1\n        /* \"#utility.yul\":6622:6628   */\n      0x00\n        /* \"#utility.yul\":6630:6636   */\n      dup1\n        /* \"#utility.yul\":6638:6644   */\n      0x00\n        /* \"#utility.yul\":6646:6652   */\n      dup1\n        /* \"#utility.yul\":6654:6660   */\n      0x00\n        /* \"#utility.yul\":6662:6668   */\n      dup1\n        /* \"#utility.yul\":6670:6676   */\n      0x00\n        /* \"#utility.yul\":6723:6726   */\n      0xc0\n        /* \"#utility.yul\":6711:6720   */\n      dup11\n        /* \"#utility.yul\":6702:6709   */\n      dup13\n        /* \"#utility.yul\":6698:6721   */\n      sub\n        /* \"#utility.yul\":6694:6727   */\n      slt\n        /* \"#utility.yul\":6691:6744   */\n      iszero\n      tag_480\n      jumpi\n        /* \"#utility.yul\":6740:6741   */\n      0x00\n        /* \"#utility.yul\":6737:6738   */\n      dup1\n        /* \"#utility.yul\":6730:6742   */\n      revert\n        /* \"#utility.yul\":6691:6744   */\n    tag_480:\n        /* \"#utility.yul\":6780:6789   */\n      dup10\n        /* \"#utility.yul\":6767:6790   */\n      calldataload\n      sub(shl(0x40, 0x01), 0x01)\n        /* \"#utility.yul\":6805:6811   */\n      dup2\n        /* \"#utility.yul\":6802:6832   */\n      gt\n        /* \"#utility.yul\":6799:6849   */\n      iszero\n      tag_481\n      jumpi\n        /* \"#utility.yul\":6845:6846   */\n      0x00\n        /* \"#utility.yul\":6842:6843   */\n      dup1\n        /* \"#utility.yul\":6835:6847   */\n      revert\n        /* \"#utility.yul\":6799:6849   */\n    tag_481:\n        /* \"#utility.yul\":6884:6954   */\n      tag_482\n        /* \"#utility.yul\":6946:6953   */\n      dup13\n        /* \"#utility.yul\":6937:6943   */\n      dup3\n        /* \"#utility.yul\":6926:6935   */\n      dup14\n        /* \"#utility.yul\":6922:6944   */\n      add\n        /* \"#utility.yul\":6884:6954   */\n      tag_422\n      jump\t// in\n    tag_482:\n        /* \"#utility.yul\":6973:6981   */\n      swap1\n      swap11\n      pop\n        /* \"#utility.yul\":6858:6954   */\n      swap9\n      pop\n      pop\n        /* \"#utility.yul\":7061:7063   */\n      0x20\n        /* \"#utility.yul\":7046:7064   */\n      dup11\n      add\n        /* \"#utility.yul\":7033:7065   */\n      calldataload\n      sub(shl(0x40, 0x01), 0x01)\n        /* \"#utility.yul\":7077:7109   */\n      dup2\n      gt\n        /* \"#utility.yul\":7074:7126   */\n      iszero\n      tag_483\n      jumpi\n        /* \"#utility.yul\":7122:7123   */\n      0x00\n        /* \"#utility.yul\":7119:7120   */\n      dup1\n        /* \"#utility.yul\":7112:7124   */\n      revert\n        /* \"#utility.yul\":7074:7126   */\n    tag_483:\n        /* \"#utility.yul\":7161:7233   */\n      tag_484\n        /* \"#utility.yul\":7225:7232   */\n      dup13\n        /* \"#utility.yul\":7214:7222   */\n      dup3\n        /* \"#utility.yul\":7203:7212   */\n      dup14\n        /* \"#utility.yul\":7199:7223   */\n      add\n        /* \"#utility.yul\":7161:7233   */\n      tag_422\n      jump\t// in\n    tag_484:\n        /* \"#utility.yul\":7252:7260   */\n      swap1\n      swap9\n      pop\n        /* \"#utility.yul\":7135:7233   */\n      swap7\n      pop\n      pop\n        /* \"#utility.yul\":7340:7342   */\n      0x40\n        /* \"#utility.yul\":7325:7343   */\n      dup11\n      add\n        /* \"#utility.yul\":7312:7344   */\n      calldataload\n      sub(shl(0x40, 0x01), 0x01)\n        /* \"#utility.yul\":7356:7388   */\n      dup2\n      gt\n        /* \"#utility.yul\":7353:7405   */\n      iszero\n      tag_485\n      jumpi\n        /* \"#utility.yul\":7401:7402   */\n      0x00\n        /* \"#utility.yul\":7398:7399   */\n      dup1\n        /* \"#utility.yul\":7391:7403   */\n      revert\n        /* \"#utility.yul\":7353:7405   */\n    tag_485:\n        /* \"#utility.yul\":7440:7512   */\n      tag_486\n        /* \"#utility.yul\":7504:7511   */\n      dup13\n        /* \"#utility.yul\":7493:7501   */\n      dup3\n        /* \"#utility.yul\":7482:7491   */\n      dup14\n        /* \"#utility.yul\":7478:7502   */\n      add\n        /* \"#utility.yul\":7440:7512   */\n      tag_422\n      jump\t// in\n    tag_486:\n        /* \"#utility.yul\":6410:7877   */\n      swap11\n      swap14\n      swap10\n      swap13\n      pop\n      swap8\n      swap11\n      swap7\n      swap10\n        /* \"#utility.yul\":7531:7539   */\n      swap8\n      swap9\n        /* \"#utility.yul\":7635:7637   */\n      0x60\n        /* \"#utility.yul\":7620:7638   */\n      dup9\n      add\n        /* \"#utility.yul\":7607:7639   */\n      calldataload\n      swap8\n        /* \"#utility.yul\":7736:7739   */\n      0x80\n        /* \"#utility.yul\":7721:7740   */\n      dup2\n      add\n        /* \"#utility.yul\":7708:7741   */\n      calldataload\n      swap8\n      pop\n        /* \"#utility.yul\":7840:7843   */\n      0xa0\n        /* \"#utility.yul\":7825:7844   */\n      add\n        /* \"#utility.yul\":7812:7845   */\n      calldataload\n      swap6\n      pop\n        /* \"#utility.yul\":6410:7877   */\n      swap4\n      pop\n      pop\n      pop\n      pop\n      jump\t// out\n        /* \"#utility.yul\":7882:9228   */\n    tag_144:\n        /* \"#utility.yul\":8069:8075   */\n      0x00\n        /* \"#utility.yul\":8077:8083   */\n      dup1\n        /* \"#utility.yul\":8085:8091   */\n      0x00\n        /* \"#utility.yul\":8093:8099   */\n      dup1\n        /* \"#utility.yul\":8101:8107   */\n      0x00\n        /* \"#utility.yul\":8109:8115   */\n      dup1\n        /* \"#utility.yul\":8117:8123   */\n      0x00\n        /* \"#utility.yul\":8125:8131   */\n      dup1\n        /* \"#utility.yul\":8178:8181   */\n      0xa0\n        /* \"#utility.yul\":8166:8175   */\n      dup10\n        /* \"#utility.yul\":8157:8164   */\n      dup12\n        /* \"#utility.yul\":8153:8176   */\n      sub\n        /* \"#utility.yul\":8149:8182   */\n      slt\n        /* \"#utility.yul\":8146:8199   */\n      iszero\n      tag_488\n      jumpi\n        /* \"#utility.yul\":8195:8196   */\n      0x00\n        /* \"#utility.yul\":8192:8193   */\n      dup1\n        /* \"#utility.yul\":8185:8197   */\n      revert\n        /* \"#utility.yul\":8146:8199   */\n    tag_488:\n        /* \"#utility.yul\":8235:8244   */\n      dup9\n        /* \"#utility.yul\":8222:8245   */\n      calldataload\n      sub(shl(0x40, 0x01), 0x01)\n        /* \"#utility.yul\":8260:8266   */\n      dup2\n        /* \"#utility.yul\":8257:8287   */\n      gt\n        /* \"#utility.yul\":8254:8304   */\n      iszero\n      tag_489\n      jumpi\n        /* \"#utility.yul\":8300:8301   */\n      0x00\n        /* \"#utility.yul\":8297:8298   */\n      dup1\n        /* \"#utility.yul\":8290:8302   */\n      revert\n        /* \"#utility.yul\":8254:8304   */\n    tag_489:\n        /* \"#utility.yul\":8339:8409   */\n      tag_490\n        /* \"#utility.yul\":8401:8408   */\n      dup12\n        /* \"#utility.yul\":8392:8398   */\n      dup3\n        /* \"#utility.yul\":8381:8390   */\n      dup13\n        /* \"#utility.yul\":8377:8399   */\n      add\n        /* \"#utility.yul\":8339:8409   */\n      tag_422\n      jump\t// in\n    tag_490:\n        /* \"#utility.yul\":8428:8436   */\n      swap1\n      swap10\n      pop\n        /* \"#utility.yul\":8313:8409   */\n      swap8\n      pop\n      pop\n        /* \"#utility.yul\":8516:8518   */\n      0x20\n        /* \"#utility.yul\":8501:8519   */\n      dup10\n      add\n        /* \"#utility.yul\":8488:8520   */\n      calldataload\n      sub(shl(0x40, 0x01), 0x01)\n        /* \"#utility.yul\":8532:8564   */\n      dup2\n      gt\n        /* \"#utility.yul\":8529:8581   */\n      iszero\n      tag_491\n      jumpi\n        /* \"#utility.yul\":8577:8578   */\n      0x00\n        /* \"#utility.yul\":8574:8575   */\n      dup1\n        /* \"#utility.yul\":8567:8579   */\n      revert\n        /* \"#utility.yul\":8529:8581   */\n    tag_491:\n        /* \"#utility.yul\":8616:8688   */\n      tag_492\n        /* \"#utility.yul\":8680:8687   */\n      dup12\n        /* \"#utility.yul\":8669:8677   */\n      dup3\n        /* \"#utility.yul\":8658:8667   */\n      dup13\n        /* \"#utility.yul\":8654:8678   */\n      add\n        /* \"#utility.yul\":8616:8688   */\n      tag_422\n      jump\t// in\n    tag_492:\n        /* \"#utility.yul\":8707:8715   */\n      swap1\n      swap8\n      pop\n        /* \"#utility.yul\":8590:8688   */\n      swap6\n      pop\n      pop\n        /* \"#utility.yul\":8795:8797   */\n      0x40\n        /* \"#utility.yul\":8780:8798   */\n      dup10\n      add\n        /* \"#utility.yul\":8767:8799   */\n      calldataload\n      sub(shl(0x40, 0x01), 0x01)\n        /* \"#utility.yul\":8811:8843   */\n      dup2\n      gt\n        /* \"#utility.yul\":8808:8860   */\n      iszero\n      tag_493\n      jumpi\n        /* \"#utility.yul\":8856:8857   */\n      0x00\n        /* \"#utility.yul\":8853:8854   */\n      dup1\n        /* \"#utility.yul\":8846:8858   */\n      revert\n        /* \"#utility.yul\":8808:8860   */\n    tag_493:\n        /* \"#utility.yul\":8895:8967   */\n      tag_494\n        /* \"#utility.yul\":8959:8966   */\n      dup12\n        /* \"#utility.yul\":8948:8956   */\n      dup3\n        /* \"#utility.yul\":8937:8946   */\n      dup13\n        /* \"#utility.yul\":8933:8957   */\n      add\n        /* \"#utility.yul\":8895:8967   */\n      tag_422\n      jump\t// in\n    tag_494:\n        /* \"#utility.yul\":7882:9228   */\n      swap10\n      swap13\n      swap9\n      swap12\n      pop\n      swap7\n      swap10\n      swap6\n      swap9\n        /* \"#utility.yul\":8986:8994   */\n      swap7\n      swap8\n        /* \"#utility.yul\":9090:9092   */\n      0x60\n        /* \"#utility.yul\":9075:9093   */\n      dup8\n      add\n        /* \"#utility.yul\":9062:9094   */\n      calldataload\n      swap7\n        /* \"#utility.yul\":9191:9194   */\n      0x80\n        /* \"#utility.yul\":9176:9195   */\n      add\n        /* \"#utility.yul\":9163:9196   */\n      calldataload\n      swap6\n      pop\n        /* \"#utility.yul\":7882:9228   */\n      swap4\n      pop\n      pop\n      pop\n      pop\n      jump\t// out\n        /* \"#utility.yul\":9233:10008   */\n    tag_423:\n        /* \"#utility.yul\":9287:9292   */\n      0x00\n        /* \"#utility.yul\":9340:9343   */\n      dup3\n        /* \"#utility.yul\":9333:9337   */\n      0x1f\n        /* \"#utility.yul\":9325:9331   */\n      dup4\n        /* \"#utility.yul\":9321:9338   */\n      add\n        /* \"#utility.yul\":9317:9344   */\n      slt\n        /* \"#utility.yul\":9307:9362   */\n      tag_496\n      jumpi\n        /* \"#utility.yul\":9358:9359   */\n      0x00\n        /* \"#utility.yul\":9355:9356   */\n      dup1\n        /* \"#utility.yul\":9348:9360   */\n      revert\n        /* \"#utility.yul\":9307:9362   */\n    tag_496:\n        /* \"#utility.yul\":9398:9404   */\n      dup2\n        /* \"#utility.yul\":9385:9405   */\n      calldataload\n      sub(shl(0x40, 0x01), 0x01)\n        /* \"#utility.yul\":9420:9426   */\n      dup2\n        /* \"#utility.yul\":9417:9447   */\n      gt\n        /* \"#utility.yul\":9414:9470   */\n      iszero\n      tag_498\n      jumpi\n        /* \"#utility.yul\":9450:9468   */\n      tag_498\n      tag_419\n      jump\t// in\n    tag_498:\n        /* \"#utility.yul\":9496:9502   */\n      dup1\n        /* \"#utility.yul\":9493:9494   */\n      0x05\n        /* \"#utility.yul\":9489:9503   */\n      shl\n        /* \"#utility.yul\":9523:9553   */\n      tag_499\n        /* \"#utility.yul\":9547:9551   */\n      0x20\n        /* \"#utility.yul\":9543:9545   */\n      dup3\n        /* \"#utility.yul\":9539:9552   */\n      add\n        /* \"#utility.yul\":9523:9553   */\n      tag_420\n      jump\t// in\n    tag_499:\n        /* \"#utility.yul\":9589:9608   */\n      swap2\n      dup3\n      mstore\n        /* \"#utility.yul\":9633:9637   */\n      0x20\n        /* \"#utility.yul\":9665:9680   */\n      dup2\n      dup6\n      add\n        /* \"#utility.yul\":9661:9687   */\n      dup2\n      add\n      swap3\n        /* \"#utility.yul\":9624:9638   */\n      swap1\n      dup2\n      add\n      swap1\n        /* \"#utility.yul\":9699:9714   */\n      dup7\n      dup5\n      gt\n        /* \"#utility.yul\":9696:9731   */\n      iszero\n      tag_500\n      jumpi\n        /* \"#utility.yul\":9727:9728   */\n      0x00\n        /* \"#utility.yul\":9724:9725   */\n      dup1\n        /* \"#utility.yul\":9717:9729   */\n      revert\n        /* \"#utility.yul\":9696:9731   */\n    tag_500:\n        /* \"#utility.yul\":9763:9767   */\n      0x20\n        /* \"#utility.yul\":9755:9761   */\n      dup7\n        /* \"#utility.yul\":9751:9768   */\n      add\n        /* \"#utility.yul\":9740:9768   */\n      swap3\n      pop\n        /* \"#utility.yul\":9777:9977   */\n    tag_501:\n        /* \"#utility.yul\":9793:9799   */\n      dup4\n        /* \"#utility.yul\":9788:9791   */\n      dup4\n        /* \"#utility.yul\":9785:9800   */\n      lt\n        /* \"#utility.yul\":9777:9977   */\n      iszero\n      tag_503\n      jumpi\n        /* \"#utility.yul\":9885:9902   */\n      dup3\n      calldataload\n        /* \"#utility.yul\":9915:9933   */\n      dup3\n      mstore\n        /* \"#utility.yul\":9962:9966   */\n      0x20\n        /* \"#utility.yul\":9810:9824   */\n      swap3\n      dup4\n      add\n      swap3\n        /* \"#utility.yul\":9953:9967   */\n      swap1\n      swap2\n      add\n      swap1\n        /* \"#utility.yul\":9777:9977   */\n      jump(tag_501)\n    tag_503:\n        /* \"#utility.yul\":9995:10002   */\n      swap7\n        /* \"#utility.yul\":9233:10008   */\n      swap6\n      pop\n      pop\n      pop\n      pop\n      pop\n      pop\n      jump\t// out\n        /* \"#utility.yul\":10013:10967   */\n    tag_150:\n        /* \"#utility.yul\":10167:10173   */\n      0x00\n        /* \"#utility.yul\":10175:10181   */\n      dup1\n        /* \"#utility.yul\":10183:10189   */\n      0x00\n        /* \"#utility.yul\":10191:10197   */\n      dup1\n        /* \"#utility.yul\":10199:10205   */\n      0x00\n        /* \"#utility.yul\":10252:10255   */\n      0xa0\n        /* \"#utility.yul\":10240:10249   */\n      dup7\n        /* \"#utility.yul\":10231:10238   */\n      dup9\n        /* \"#utility.yul\":10227:10250   */\n      sub\n        /* \"#utility.yul\":10223:10256   */\n      slt\n        /* \"#utility.yul\":10220:10273   */\n      iszero\n      tag_505\n      jumpi\n        /* \"#utility.yul\":10269:10270   */\n      0x00\n        /* \"#utility.yul\":10266:10267   */\n      dup1\n        /* \"#utility.yul\":10259:10271   */\n      revert\n        /* \"#utility.yul\":10220:10273   */\n    tag_505:\n        /* \"#utility.yul\":10292:10321   */\n      tag_506\n        /* \"#utility.yul\":10311:10320   */\n      dup7\n        /* \"#utility.yul\":10292:10321   */\n      tag_417\n      jump\t// in\n    tag_506:\n        /* \"#utility.yul\":10282:10321   */\n      swap5\n      pop\n        /* \"#utility.yul\":10340:10378   */\n      tag_507\n        /* \"#utility.yul\":10374:10376   */\n      0x20\n        /* \"#utility.yul\":10363:10372   */\n      dup8\n        /* \"#utility.yul\":10359:10377   */\n      add\n        /* \"#utility.yul\":10340:10378   */\n      tag_417\n      jump\t// in\n    tag_507:\n        /* \"#utility.yul\":10330:10378   */\n      swap4\n      pop\n        /* \"#utility.yul\":10429:10431   */\n      0x40\n        /* \"#utility.yul\":10418:10427   */\n      dup7\n        /* \"#utility.yul\":10414:10432   */\n      add\n        /* \"#utility.yul\":10401:10433   */\n      calldataload\n      sub(shl(0x40, 0x01), 0x01)\n        /* \"#utility.yul\":10448:10454   */\n      dup2\n        /* \"#utility.yul\":10445:10475   */\n      gt\n        /* \"#utility.yul\":10442:10492   */\n      iszero\n      tag_508\n      jumpi\n        /* \"#utility.yul\":10488:10489   */\n      0x00\n        /* \"#utility.yul\":10485:10486   */\n      dup1\n        /* \"#utility.yul\":10478:10490   */\n      revert\n        /* \"#utility.yul\":10442:10492   */\n    tag_508:\n        /* \"#utility.yul\":10511:10572   */\n      tag_509\n        /* \"#utility.yul\":10564:10571   */\n      dup9\n        /* \"#utility.yul\":10555:10561   */\n      dup3\n        /* \"#utility.yul\":10544:10553   */\n      dup10\n        /* \"#utility.yul\":10540:10562   */\n      add\n        /* \"#utility.yul\":10511:10572   */\n      tag_423\n      jump\t// in\n    tag_509:\n        /* \"#utility.yul\":10501:10572   */\n      swap4\n      pop\n      pop\n        /* \"#utility.yul\":10625:10627   */\n      0x60\n        /* \"#utility.yul\":10614:10623   */\n      dup7\n        /* \"#utility.yul\":10610:10628   */\n      add\n        /* \"#utility.yul\":10597:10629   */\n      calldataload\n      sub(shl(0x40, 0x01), 0x01)\n        /* \"#utility.yul\":10644:10652   */\n      dup2\n        /* \"#utility.yul\":10641:10673   */\n      gt\n        /* \"#utility.yul\":10638:10690   */\n      iszero\n      tag_510\n      jumpi\n        /* \"#utility.yul\":10686:10687   */\n      0x00\n        /* \"#utility.yul\":10683:10684   */\n      dup1\n        /* \"#utility.yul\":10676:10688   */\n      revert\n        /* \"#utility.yul\":10638:10690   */\n    tag_510:\n        /* \"#utility.yul\":10709:10772   */\n      tag_511\n        /* \"#utility.yul\":10764:10771   */\n      dup9\n        /* \"#utility.yul\":10753:10761   */\n      dup3\n        /* \"#utility.yul\":10742:10751   */\n      dup10\n        /* \"#utility.yul\":10738:10762   */\n      add\n        /* \"#utility.yul\":10709:10772   */\n      tag_423\n      jump\t// in\n    tag_511:\n        /* \"#utility.yul\":10699:10772   */\n      swap3\n      pop\n      pop\n        /* \"#utility.yul\":10825:10828   */\n      0x80\n        /* \"#utility.yul\":10814:10823   */\n      dup7\n        /* \"#utility.yul\":10810:10829   */\n      add\n        /* \"#utility.yul\":10797:10830   */\n      calldataload\n      sub(shl(0x40, 0x01), 0x01)\n        /* \"#utility.yul\":10845:10853   */\n      dup2\n        /* \"#utility.yul\":10842:10874   */\n      gt\n        /* \"#utility.yul\":10839:10891   */\n      iszero\n      tag_512\n      jumpi\n        /* \"#utility.yul\":10887:10888   */\n      0x00\n        /* \"#utility.yul\":10884:10885   */\n      dup1\n        /* \"#utility.yul\":10877:10889   */\n      revert\n        /* \"#utility.yul\":10839:10891   */\n    tag_512:\n        /* \"#utility.yul\":10910:10961   */\n      tag_513\n        /* \"#utility.yul\":10953:10960   */\n      dup9\n        /* \"#utility.yul\":10942:10950   */\n      dup3\n        /* \"#utility.yul\":10931:10940   */\n      dup10\n        /* \"#utility.yul\":10927:10951   */\n      add\n        /* \"#utility.yul\":10910:10961   */\n      tag_421\n      jump\t// in\n    tag_513:\n        /* \"#utility.yul\":10900:10961   */\n      swap2\n      pop\n      pop\n        /* \"#utility.yul\":10013:10967   */\n      swap3\n      swap6\n      pop\n      swap3\n      swap6\n      swap1\n      swap4\n      pop\n      jump\t// out\n        /* \"#utility.yul\":11154:11858   */\n    tag_173:\n        /* \"#utility.yul\":11258:11264   */\n      0x00\n        /* \"#utility.yul\":11266:11272   */\n      dup1\n        /* \"#utility.yul\":11274:11280   */\n      0x00\n        /* \"#utility.yul\":11282:11288   */\n      dup1\n        /* \"#utility.yul\":11290:11296   */\n      0x00\n        /* \"#utility.yul\":11343:11346   */\n      0xa0\n        /* \"#utility.yul\":11331:11340   */\n      dup7\n        /* \"#utility.yul\":11322:11329   */\n      dup9\n        /* \"#utility.yul\":11318:11341   */\n      sub\n        /* \"#utility.yul\":11314:11347   */\n      slt\n        /* \"#utility.yul\":11311:11364   */\n      iszero\n      tag_516\n      jumpi\n        /* \"#utility.yul\":11360:11361   */\n      0x00\n        /* \"#utility.yul\":11357:11358   */\n      dup1\n        /* \"#utility.yul\":11350:11362   */\n      revert\n        /* \"#utility.yul\":11311:11364   */\n    tag_516:\n        /* \"#utility.yul\":11383:11412   */\n      tag_517\n        /* \"#utility.yul\":11402:11411   */\n      dup7\n        /* \"#utility.yul\":11383:11412   */\n      tag_417\n      jump\t// in\n    tag_517:\n        /* \"#utility.yul\":11373:11412   */\n      swap5\n      pop\n        /* \"#utility.yul\":11431:11469   */\n      tag_518\n        /* \"#utility.yul\":11465:11467   */\n      0x20\n        /* \"#utility.yul\":11454:11463   */\n      dup8\n        /* \"#utility.yul\":11450:11468   */\n      add\n        /* \"#utility.yul\":11431:11469   */\n      tag_417\n      jump\t// in\n    tag_518:\n        /* \"#utility.yul\":11421:11469   */\n      swap4\n      pop\n        /* \"#utility.yul\":11538:11540   */\n      0x40\n        /* \"#utility.yul\":11523:11541   */\n      dup7\n      add\n        /* \"#utility.yul\":11510:11542   */\n      calldataload\n      swap3\n      pop\n        /* \"#utility.yul\":11639:11641   */\n      0x60\n        /* \"#utility.yul\":11624:11642   */\n      dup7\n      add\n        /* \"#utility.yul\":11611:11643   */\n      calldataload\n      swap2\n      pop\n        /* \"#utility.yul\":11720:11723   */\n      0x80\n        /* \"#utility.yul\":11705:11724   */\n      dup7\n      add\n        /* \"#utility.yul\":11692:11725   */\n      calldataload\n      sub(shl(0x40, 0x01), 0x01)\n        /* \"#utility.yul\":11737:11767   */\n      dup2\n      gt\n        /* \"#utility.yul\":11734:11784   */\n      iszero\n      tag_512\n      jumpi\n        /* \"#utility.yul\":11780:11781   */\n      0x00\n        /* \"#utility.yul\":11777:11778   */\n      dup1\n        /* \"#utility.yul\":11770:11782   */\n      revert\n        /* \"#utility.yul\":11863:12129   */\n    tag_424:\n        /* \"#utility.yul\":11951:11957   */\n      dup2\n        /* \"#utility.yul\":11946:11949   */\n      dup4\n        /* \"#utility.yul\":11939:11958   */\n      mstore\n        /* \"#utility.yul\":12003:12009   */\n      dup2\n        /* \"#utility.yul\":11996:12001   */\n      dup2\n        /* \"#utility.yul\":11989:11993   */\n      0x20\n        /* \"#utility.yul\":11984:11987   */\n      dup6\n        /* \"#utility.yul\":11980:11994   */\n      add\n        /* \"#utility.yul\":11967:12010   */\n      calldatacopy\n      pop\n        /* \"#utility.yul\":12055:12056   */\n      0x00\n        /* \"#utility.yul\":12030:12046   */\n      dup3\n      dup3\n      add\n        /* \"#utility.yul\":12048:12052   */\n      0x20\n        /* \"#utility.yul\":12026:12053   */\n      swap1\n      dup2\n      add\n        /* \"#utility.yul\":12019:12057   */\n      swap2\n      swap1\n      swap2\n      mstore\n        /* \"#utility.yul\":12111:12113   */\n      0x1f\n        /* \"#utility.yul\":12090:12105   */\n      swap1\n      swap2\n      add\n      not(0x1f)\n        /* \"#utility.yul\":12086:12115   */\n      and\n        /* \"#utility.yul\":12077:12116   */\n      swap1\n      swap2\n      add\n        /* \"#utility.yul\":12073:12123   */\n      add\n      swap1\n        /* \"#utility.yul\":11863:12129   */\n      jump\t// out\n        /* \"#utility.yul\":12134:12691   */\n    tag_188:\n        /* \"#utility.yul\":12432:12433   */\n      0x01\n        /* \"#utility.yul\":12428:12429   */\n      dup1\n        /* \"#utility.yul\":12423:12426   */\n      0xa0\n        /* \"#utility.yul\":12419:12430   */\n      shl\n        /* \"#utility.yul\":12415:12434   */\n      sub\n        /* \"#utility.yul\":12407:12413   */\n      dup8\n        /* \"#utility.yul\":12403:12435   */\n      and\n        /* \"#utility.yul\":12392:12401   */\n      dup2\n        /* \"#utility.yul\":12385:12436   */\n      mstore\n        /* \"#utility.yul\":12472:12478   */\n      dup6\n        /* \"#utility.yul\":12467:12469   */\n      0x20\n        /* \"#utility.yul\":12456:12465   */\n      dup3\n        /* \"#utility.yul\":12452:12470   */\n      add\n        /* \"#utility.yul\":12445:12479   */\n      mstore\n        /* \"#utility.yul\":12515:12518   */\n      0xa0\n        /* \"#utility.yul\":12510:12512   */\n      0x40\n        /* \"#utility.yul\":12499:12508   */\n      dup3\n        /* \"#utility.yul\":12495:12513   */\n      add\n        /* \"#utility.yul\":12488:12519   */\n      mstore\n        /* \"#utility.yul\":12366:12370   */\n      0x00\n        /* \"#utility.yul\":12536:12598   */\n      tag_523\n        /* \"#utility.yul\":12593:12596   */\n      0xa0\n        /* \"#utility.yul\":12582:12591   */\n      dup4\n        /* \"#utility.yul\":12578:12597   */\n      add\n        /* \"#utility.yul\":12570:12576   */\n      dup7\n        /* \"#utility.yul\":12562:12568   */\n      dup9\n        /* \"#utility.yul\":12536:12598   */\n      tag_424\n      jump\t// in\n    tag_523:\n        /* \"#utility.yul\":12629:12631   */\n      0x60\n        /* \"#utility.yul\":12614:12632   */\n      dup4\n      add\n        /* \"#utility.yul\":12607:12641   */\n      swap5\n      swap1\n      swap5\n      mstore\n      pop\n        /* \"#utility.yul\":12672:12675   */\n      0x80\n        /* \"#utility.yul\":12657:12676   */\n      add\n        /* \"#utility.yul\":12650:12685   */\n      mstore\n        /* \"#utility.yul\":12528:12598   */\n      swap5\n        /* \"#utility.yul\":12134:12691   */\n      swap4\n      pop\n      pop\n      pop\n      pop\n      jump\t// out\n        /* \"#utility.yul\":12696:13108   */\n    tag_208:\n        /* \"#utility.yul\":12938:12939   */\n      0x01\n        /* \"#utility.yul\":12934:12935   */\n      dup1\n        /* \"#utility.yul\":12929:12932   */\n      0xa0\n        /* \"#utility.yul\":12925:12936   */\n      shl\n        /* \"#utility.yul\":12921:12940   */\n      sub\n        /* \"#utility.yul\":12913:12919   */\n      dup6\n        /* \"#utility.yul\":12909:12941   */\n      and\n        /* \"#utility.yul\":12898:12907   */\n      dup2\n        /* \"#utility.yul\":12891:12942   */\n      mstore\n        /* \"#utility.yul\":12978:12984   */\n      dup4\n        /* \"#utility.yul\":12973:12975   */\n      0x20\n        /* \"#utility.yul\":12962:12971   */\n      dup3\n        /* \"#utility.yul\":12958:12976   */\n      add\n        /* \"#utility.yul\":12951:12985   */\n      mstore\n        /* \"#utility.yul\":13021:13023   */\n      0x60\n        /* \"#utility.yul\":13016:13018   */\n      0x40\n        /* \"#utility.yul\":13005:13014   */\n      dup3\n        /* \"#utility.yul\":13001:13019   */\n      add\n        /* \"#utility.yul\":12994:13024   */\n      mstore\n        /* \"#utility.yul\":12872:12876   */\n      0x00\n        /* \"#utility.yul\":13041:13102   */\n      tag_503\n        /* \"#utility.yul\":13098:13100   */\n      0x60\n        /* \"#utility.yul\":13087:13096   */\n      dup4\n        /* \"#utility.yul\":13083:13101   */\n      add\n        /* \"#utility.yul\":13075:13081   */\n      dup5\n        /* \"#utility.yul\":13067:13073   */\n      dup7\n        /* \"#utility.yul\":13041:13102   */\n      tag_424\n      jump\t// in\n        /* \"#utility.yul\":14460:14587   */\n    tag_286:\n        /* \"#utility.yul\":14521:14531   */\n      0x4e487b71\n        /* \"#utility.yul\":14516:14519   */\n      0xe0\n        /* \"#utility.yul\":14512:14532   */\n      shl\n        /* \"#utility.yul\":14509:14510   */\n      0x00\n        /* \"#utility.yul\":14502:14533   */\n      mstore\n        /* \"#utility.yul\":14552:14556   */\n      0x32\n        /* \"#utility.yul\":14549:14550   */\n      0x04\n        /* \"#utility.yul\":14542:14557   */\n      mstore\n        /* \"#utility.yul\":14576:14580   */\n      0x24\n        /* \"#utility.yul\":14573:14574   */\n      0x00\n        /* \"#utility.yul\":14566:14581   */\n      revert\n        /* \"#utility.yul\":14592:14778   */\n    tag_288:\n        /* \"#utility.yul\":14651:14657   */\n      0x00\n        /* \"#utility.yul\":14704:14706   */\n      0x20\n        /* \"#utility.yul\":14692:14701   */\n      dup3\n        /* \"#utility.yul\":14683:14690   */\n      dup5\n        /* \"#utility.yul\":14679:14702   */\n      sub\n        /* \"#utility.yul\":14675:14707   */\n      slt\n        /* \"#utility.yul\":14672:14724   */\n      iszero\n      tag_533\n      jumpi\n        /* \"#utility.yul\":14720:14721   */\n      0x00\n        /* \"#utility.yul\":14717:14718   */\n      dup1\n        /* \"#utility.yul\":14710:14722   */\n      revert\n        /* \"#utility.yul\":14672:14724   */\n    tag_533:\n        /* \"#utility.yul\":14743:14772   */\n      tag_249\n        /* \"#utility.yul\":14762:14771   */\n      dup3\n        /* \"#utility.yul\":14743:14772   */\n      tag_417\n      jump\t// in\n        /* \"#utility.yul\":14783:15304   */\n    tag_294:\n        /* \"#utility.yul\":14860:14864   */\n      0x00\n        /* \"#utility.yul\":14866:14872   */\n      dup1\n        /* \"#utility.yul\":14926:14937   */\n      dup4\n        /* \"#utility.yul\":14913:14938   */\n      calldataload\n        /* \"#utility.yul\":15020:15022   */\n      0x1e\n        /* \"#utility.yul\":15016:15023   */\n      not\n        /* \"#utility.yul\":15005:15013   */\n      dup5\n        /* \"#utility.yul\":14989:15003   */\n      calldatasize\n        /* \"#utility.yul\":14985:15014   */\n      sub\n        /* \"#utility.yul\":14981:15024   */\n      add\n        /* \"#utility.yul\":14961:14979   */\n      dup2\n        /* \"#utility.yul\":14957:15025   */\n      slt\n        /* \"#utility.yul\":14947:15043   */\n      tag_536\n      jumpi\n        /* \"#utility.yul\":15039:15040   */\n      0x00\n        /* \"#utility.yul\":15036:15037   */\n      dup1\n        /* \"#utility.yul\":15029:15041   */\n      revert\n        /* \"#utility.yul\":14947:15043   */\n    tag_536:\n        /* \"#utility.yul\":15066:15099   */\n      dup4\n      add\n        /* \"#utility.yul\":15118:15138   */\n      dup1\n      calldataload\n      swap2\n      pop\n      sub(shl(0x40, 0x01), 0x01)\n        /* \"#utility.yul\":15150:15180   */\n      dup3\n      gt\n        /* \"#utility.yul\":15147:15197   */\n      iszero\n      tag_537\n      jumpi\n        /* \"#utility.yul\":15193:15194   */\n      0x00\n        /* \"#utility.yul\":15190:15191   */\n      dup1\n        /* \"#utility.yul\":15183:15195   */\n      revert\n        /* \"#utility.yul\":15147:15197   */\n    tag_537:\n        /* \"#utility.yul\":15226:15230   */\n      0x20\n        /* \"#utility.yul\":15214:15231   */\n      add\n      swap2\n      pop\n        /* \"#utility.yul\":15257:15271   */\n      calldatasize\n        /* \"#utility.yul\":15253:15280   */\n      dup2\n      swap1\n      sub\n        /* \"#utility.yul\":15243:15281   */\n      dup3\n      sgt\n        /* \"#utility.yul\":15240:15298   */\n      iszero\n      tag_432\n      jumpi\n        /* \"#utility.yul\":15294:15295   */\n      0x00\n        /* \"#utility.yul\":15291:15292   */\n      dup1\n        /* \"#utility.yul\":15284:15296   */\n      revert\n        /* \"#utility.yul\":15309:16339   */\n    tag_425:\n        /* \"#utility.yul\":15386:15389   */\n      0x00\n        /* \"#utility.yul\":15417:15420   */\n      dup4\n        /* \"#utility.yul\":15441:15447   */\n      dup4\n        /* \"#utility.yul\":15436:15439   */\n      dup6\n        /* \"#utility.yul\":15429:15448   */\n      mstore\n        /* \"#utility.yul\":15473:15477   */\n      0x20\n        /* \"#utility.yul\":15468:15471   */\n      dup6\n        /* \"#utility.yul\":15464:15478   */\n      add\n        /* \"#utility.yul\":15457:15478   */\n      swap5\n      pop\n        /* \"#utility.yul\":15531:15535   */\n      0x20\n        /* \"#utility.yul\":15521:15527   */\n      dup5\n        /* \"#utility.yul\":15518:15519   */\n      0x05\n        /* \"#utility.yul\":15514:15528   */\n      shl\n        /* \"#utility.yul\":15507:15512   */\n      dup3\n        /* \"#utility.yul\":15503:15529   */\n      add\n        /* \"#utility.yul\":15499:15536   */\n      add\n        /* \"#utility.yul\":15559:15564   */\n      dup4\n        /* \"#utility.yul\":15582:15583   */\n      0x00\n        /* \"#utility.yul\":15592:16313   */\n    tag_540:\n        /* \"#utility.yul\":15606:15612   */\n      dup7\n        /* \"#utility.yul\":15603:15604   */\n      dup2\n        /* \"#utility.yul\":15600:15613   */\n      lt\n        /* \"#utility.yul\":15592:16313   */\n      iszero\n      tag_542\n      jumpi\n        /* \"#utility.yul\":15671:15687   */\n      dup4\n      dup4\n      sub\n      not(0x1f)\n        /* \"#utility.yul\":15667:15697   */\n      add\n        /* \"#utility.yul\":15655:15698   */\n      dup9\n      mstore\n        /* \"#utility.yul\":15737:15757   */\n      dup2\n      calldataload\n        /* \"#utility.yul\":15812:15826   */\n      calldatasize\n        /* \"#utility.yul\":15808:15834   */\n      dup8\n      swap1\n      sub\n      not(0x1e)\n        /* \"#utility.yul\":15804:15844   */\n      add\n        /* \"#utility.yul\":15780:15845   */\n      dup2\n      slt\n        /* \"#utility.yul\":15770:15863   */\n      tag_543\n      jumpi\n        /* \"#utility.yul\":15859:15860   */\n      0x00\n        /* \"#utility.yul\":15856:15857   */\n      dup1\n        /* \"#utility.yul\":15849:15861   */\n      revert\n        /* \"#utility.yul\":15770:15863   */\n    tag_543:\n        /* \"#utility.yul\":15891:15921   */\n      dup7\n      add\n        /* \"#utility.yul\":16012:16016   */\n      0x20\n        /* \"#utility.yul\":15999:16017   */\n      dup2\n      add\n      swap1\n        /* \"#utility.yul\":15950:15971   */\n      calldataload\n      sub(shl(0x40, 0x01), 0x01)\n        /* \"#utility.yul\":16033:16065   */\n      dup2\n      gt\n        /* \"#utility.yul\":16030:16082   */\n      iszero\n      tag_544\n      jumpi\n        /* \"#utility.yul\":16078:16079   */\n      0x00\n        /* \"#utility.yul\":16075:16076   */\n      dup1\n        /* \"#utility.yul\":16068:16080   */\n      revert\n        /* \"#utility.yul\":16030:16082   */\n    tag_544:\n        /* \"#utility.yul\":16131:16139   */\n      dup1\n        /* \"#utility.yul\":16115:16129   */\n      calldatasize\n        /* \"#utility.yul\":16111:16140   */\n      sub\n        /* \"#utility.yul\":16102:16109   */\n      dup3\n        /* \"#utility.yul\":16098:16141   */\n      sgt\n        /* \"#utility.yul\":16095:16158   */\n      iszero\n      tag_545\n      jumpi\n        /* \"#utility.yul\":16154:16155   */\n      0x00\n        /* \"#utility.yul\":16151:16152   */\n      dup1\n        /* \"#utility.yul\":16144:16156   */\n      revert\n        /* \"#utility.yul\":16095:16158   */\n    tag_545:\n        /* \"#utility.yul\":16179:16229   */\n      tag_546\n        /* \"#utility.yul\":16224:16228   */\n      dup6\n        /* \"#utility.yul\":16214:16222   */\n      dup3\n        /* \"#utility.yul\":16205:16212   */\n      dup5\n        /* \"#utility.yul\":16179:16229   */\n      tag_424\n      jump\t// in\n    tag_546:\n        /* \"#utility.yul\":16264:16268   */\n      0x20\n        /* \"#utility.yul\":16289:16303   */\n      swap11\n      dup12\n      add\n      swap11\n        /* \"#utility.yul\":16171:16229   */\n      swap1\n      swap6\n      pop\n        /* \"#utility.yul\":16252:16269   */\n      swap4\n      swap1\n      swap4\n      add\n      swap3\n      pop\n      pop\n        /* \"#utility.yul\":15628:15629   */\n      0x01\n        /* \"#utility.yul\":15621:15630   */\n      add\n        /* \"#utility.yul\":15592:16313   */\n      jump(tag_540)\n    tag_542:\n      pop\n        /* \"#utility.yul\":16329:16333   */\n      swap1\n      swap7\n        /* \"#utility.yul\":15309:16339   */\n      swap6\n      pop\n      pop\n      pop\n      pop\n      pop\n      pop\n      jump\t// out\n        /* \"#utility.yul\":16344:17714   */\n    tag_301:\n        /* \"#utility.yul\":16796:16799   */\n      0xa0\n        /* \"#utility.yul\":16809:16831   */\n      dup1\n      dup3\n      mstore\n        /* \"#utility.yul\":16781:16800   */\n      dup2\n      add\n        /* \"#utility.yul\":16866:16888   */\n      dup9\n      swap1\n      mstore\n        /* \"#utility.yul\":16748:16752   */\n      0x00\n        /* \"#utility.yul\":16946:16952   */\n      dup10\n        /* \"#utility.yul\":16919:16922   */\n      0xc0\n        /* \"#utility.yul\":16904:16923   */\n      dup4\n      add\n        /* \"#utility.yul\":16748:16752   */\n      dup3\n        /* \"#utility.yul\":16980:17192   */\n    tag_548:\n        /* \"#utility.yul\":16994:17000   */\n      dup12\n        /* \"#utility.yul\":16991:16992   */\n      dup2\n        /* \"#utility.yul\":16988:17001   */\n      lt\n        /* \"#utility.yul\":16980:17192   */\n      iszero\n      tag_550\n      jumpi\n      sub(shl(0xa0, 0x01), 0x01)\n        /* \"#utility.yul\":17059:17085   */\n      tag_551\n        /* \"#utility.yul\":17078:17084   */\n      dup5\n        /* \"#utility.yul\":17059:17085   */\n      tag_417\n      jump\t// in\n    tag_551:\n        /* \"#utility.yul\":17055:17107   */\n      and\n        /* \"#utility.yul\":17043:17108   */\n      dup3\n      mstore\n        /* \"#utility.yul\":17137:17141   */\n      0x20\n        /* \"#utility.yul\":17165:17182   */\n      swap3\n      dup4\n      add\n      swap3\n        /* \"#utility.yul\":17128:17142   */\n      swap1\n      swap2\n      add\n      swap1\n        /* \"#utility.yul\":17016:17017   */\n      0x01\n        /* \"#utility.yul\":17009:17018   */\n      add\n        /* \"#utility.yul\":16980:17192   */\n      jump(tag_548)\n    tag_550:\n      pop\n        /* \"#utility.yul\":17230:17249   */\n      dup4\n      dup2\n      sub\n        /* \"#utility.yul\":17223:17227   */\n      0x20\n        /* \"#utility.yul\":17208:17228   */\n      dup6\n      add\n        /* \"#utility.yul\":17201:17250   */\n      mstore\n        /* \"#utility.yul\":17259:17278   */\n      dup9\n      dup2\n      mstore\n      sub(shl(0xfb, 0x01), 0x01)\n        /* \"#utility.yul\":17290:17321   */\n      dup10\n      gt\n        /* \"#utility.yul\":17287:17338   */\n      iszero\n      tag_552\n      jumpi\n        /* \"#utility.yul\":17334:17335   */\n      0x00\n        /* \"#utility.yul\":17331:17332   */\n      dup1\n        /* \"#utility.yul\":17324:17336   */\n      revert\n        /* \"#utility.yul\":17287:17338   */\n    tag_552:\n        /* \"#utility.yul\":17368:17374   */\n      dup9\n        /* \"#utility.yul\":17365:17366   */\n      0x05\n        /* \"#utility.yul\":17361:17375   */\n      shl\n        /* \"#utility.yul\":17347:17375   */\n      swap2\n      pop\n        /* \"#utility.yul\":17421:17427   */\n      dup2\n        /* \"#utility.yul\":17413:17419   */\n      dup11\n        /* \"#utility.yul\":17406:17410   */\n      0x20\n        /* \"#utility.yul\":17401:17404   */\n      dup4\n        /* \"#utility.yul\":17397:17411   */\n      add\n        /* \"#utility.yul\":17384:17428   */\n      calldatacopy\n        /* \"#utility.yul\":17447:17463   */\n      add\n        /* \"#utility.yul\":17503:17521   */\n      dup3\n      dup2\n      sub\n        /* \"#utility.yul\":17523:17527   */\n      0x20\n        /* \"#utility.yul\":17499:17528   */\n      swap1\n      dup2\n      add\n        /* \"#utility.yul\":17494:17496   */\n      0x40\n        /* \"#utility.yul\":17479:17497   */\n      dup6\n      add\n        /* \"#utility.yul\":17472:17529   */\n      mstore\n        /* \"#utility.yul\":17546:17621   */\n      tag_553\n      swap1\n        /* \"#utility.yul\":17607:17620   */\n      dup3\n      add\n        /* \"#utility.yul\":17599:17605   */\n      dup8\n        /* \"#utility.yul\":17591:17597   */\n      dup10\n        /* \"#utility.yul\":17546:17621   */\n      tag_425\n      jump\t// in\n    tag_553:\n        /* \"#utility.yul\":17652:17654   */\n      0x60\n        /* \"#utility.yul\":17637:17655   */\n      dup5\n      add\n        /* \"#utility.yul\":17630:17664   */\n      swap6\n      swap1\n      swap6\n      mstore\n      pop\n      pop\n        /* \"#utility.yul\":17695:17698   */\n      0x80\n        /* \"#utility.yul\":17680:17699   */\n      add\n        /* \"#utility.yul\":17673:17708   */\n      mstore\n        /* \"#utility.yul\":17538:17621   */\n      swap7\n        /* \"#utility.yul\":16344:17714   */\n      swap6\n      pop\n      pop\n      pop\n      pop\n      pop\n      pop\n      jump\t// out\n        /* \"#utility.yul\":17972:18194   */\n    tag_358:\n        /* \"#utility.yul\":18037:18046   */\n      dup1\n      dup3\n      add\n        /* \"#utility.yul\":18058:18068   */\n      dup1\n      dup3\n      gt\n        /* \"#utility.yul\":18055:18188   */\n      iszero\n      tag_192\n      jumpi\n        /* \"#utility.yul\":18110:18120   */\n      0x4e487b71\n        /* \"#utility.yul\":18105:18108   */\n      0xe0\n        /* \"#utility.yul\":18101:18121   */\n      shl\n        /* \"#utility.yul\":18098:18099   */\n      0x00\n        /* \"#utility.yul\":18091:18122   */\n      mstore\n        /* \"#utility.yul\":18145:18149   */\n      0x11\n        /* \"#utility.yul\":18142:18143   */\n      0x04\n        /* \"#utility.yul\":18135:18150   */\n      mstore\n        /* \"#utility.yul\":18173:18177   */\n      0x24\n        /* \"#utility.yul\":18170:18171   */\n      0x00\n        /* \"#utility.yul\":18163:18178   */\n      revert\n        /* \"#utility.yul\":18478:18749   */\n    tag_380:\n        /* \"#utility.yul\":18661:18667   */\n      dup2\n        /* \"#utility.yul\":18653:18659   */\n      dup4\n        /* \"#utility.yul\":18648:18651   */\n      dup3\n        /* \"#utility.yul\":18635:18668   */\n      calldatacopy\n        /* \"#utility.yul\":18617:18620   */\n      0x00\n        /* \"#utility.yul\":18687:18703   */\n      swap2\n      add\n        /* \"#utility.yul\":18712:18725   */\n      swap1\n      dup2\n      mstore\n        /* \"#utility.yul\":18687:18703   */\n      swap2\n        /* \"#utility.yul\":18478:18749   */\n      swap1\n      pop\n      jump\t// out\n\n    auxdata: 0xa2646970667358221220c53410f4c0bc0b62fba0c689694546cc852547f0c055264962a8ee5bf73a96bc64736f6c634300081c0033\n}\n",
				"bytecode": {
					"linkReferences": {},
					"object": "608060405234801561001057600080fd5b50604051611df4380380611df483398101604081905261002f91610305565b61003a600030610181565b506001600160a01b0381161561005757610055600082610181565b505b60005b83518110156100ec576100ac7fb09aa5aeb3702cfd50b6b62bc4532604938f21248a27a1d5ca736082b6819cc185838151811061009957610099610389565b602002602001015161018160201b60201c565b506100e37ffd643c72710c63c0180259aba6b2d05451e3591a24e58b62239378085726f78385838151811061009957610099610389565b5060010161005a565b5060005b82518110156101385761012f7fd8aa0f3194971a2a116679f7c2090f6939c8d4e01a2a8d7e41d55e5351469e6384838151811061009957610099610389565b506001016100f0565b5060028490556040805160008152602081018690527f11c24f4ead16507c69ac467fbd5e4eed5fb5c699626d2cc6d66421df253886d5910160405180910390a15050505061039f565b6000828152602081815260408083206001600160a01b038516845290915281205460ff16610223576000838152602081815260408083206001600160a01b03861684529091529020805460ff191660011790556101db3390565b6001600160a01b0316826001600160a01b0316847f2f8788117e7eff1d82e926ec794901d17c78024a50270940304540a733656f0d60405160405180910390a4506001610227565b5060005b92915050565b634e487b7160e01b600052604160045260246000fd5b80516001600160a01b038116811461025a57600080fd5b919050565b600082601f83011261027057600080fd5b81516001600160401b038111156102895761028961022d565b604051600582901b90603f8201601f191681016001600160401b03811182821017156102b7576102b761022d565b6040529182526020818501810192908101868411156102d557600080fd5b6020860192505b838310156102fb576102ed83610243565b8152602092830192016102dc565b5095945050505050565b6000806000806080858703121561031b57600080fd5b845160208601519094506001600160401b0381111561033957600080fd5b6103458782880161025f565b604087015190945090506001600160401b0381111561036357600080fd5b61036f8782880161025f565b92505061037e60608601610243565b905092959194509250565b634e487b7160e01b600052603260045260246000fd5b611a46806103ae6000396000f3fe6080604052600436106101bb5760003560e01c80638065657f116100ec578063bc197c811161008a578063d547741f11610064578063d547741f1461056a578063e38335e51461058a578063f23a6e611461059d578063f27a0c92146105c957600080fd5b8063bc197c81146104f1578063c4d252f51461051d578063d45c44351461053d57600080fd5b806391d14854116100c657806391d1485414610468578063a217fddf14610488578063b08e51c01461049d578063b1c5f427146104d157600080fd5b80638065657f146103f45780638f2a0bb0146104145780638f61f4f51461043457600080fd5b80632ab0f5291161015957806336568abe1161013357806336568abe14610367578063584b153e1461038757806364d62353146103a75780637958004c146103c757600080fd5b80632ab0f529146103075780632f2ff15d1461032757806331d507501461034757600080fd5b8063134008d311610195578063134008d31461026057806313bc9f2014610273578063150b7a0214610293578063248a9ca3146102d757600080fd5b806301d5062a146101c757806301ffc9a7146101e957806307bd02651461021e57600080fd5b366101c257005b600080fd5b3480156101d357600080fd5b506101e76101e23660046111ba565b6105de565b005b3480156101f557600080fd5b5061020961020436600461122e565b6106b4565b60405190151581526020015b60405180910390f35b34801561022a57600080fd5b506102527fd8aa0f3194971a2a116679f7c2090f6939c8d4e01a2a8d7e41d55e5351469e6381565b604051908152602001610215565b6101e761026e366004611258565b6106c5565b34801561027f57600080fd5b5061020961028e3660046112c3565b61077a565b34801561029f57600080fd5b506102be6102ae366004611391565b630a85bd0160e11b949350505050565b6040516001600160e01b03199091168152602001610215565b3480156102e357600080fd5b506102526102f23660046112c3565b60009081526020819052604090206001015490565b34801561031357600080fd5b506102096103223660046112c3565b6107a0565b34801561033357600080fd5b506101e76103423660046113f8565b6107a9565b34801561035357600080fd5b506102096103623660046112c3565b6107d4565b34801561037357600080fd5b506101e76103823660046113f8565b6107f9565b34801561039357600080fd5b506102096103a23660046112c3565b610831565b3480156103b357600080fd5b506101e76103c23660046112c3565b610877565b3480156103d357600080fd5b506103e76103e23660046112c3565b6108ea565b604051610215919061143a565b34801561040057600080fd5b5061025261040f366004611258565b610935565b34801561042057600080fd5b506101e761042f3660046114a6565b610974565b34801561044057600080fd5b506102527fb09aa5aeb3702cfd50b6b62bc4532604938f21248a27a1d5ca736082b6819cc181565b34801561047457600080fd5b506102096104833660046113f8565b610b02565b34801561049457600080fd5b50610252600081565b3480156104a957600080fd5b506102527ffd643c72710c63c0180259aba6b2d05451e3591a24e58b62239378085726f78381565b3480156104dd57600080fd5b506102526104ec366004611561565b610b2b565b3480156104fd57600080fd5b506102be61050c366004611695565b63bc197c8160e01b95945050505050565b34801561052957600080fd5b506101e76105383660046112c3565b610b70565b34801561054957600080fd5b506102526105583660046112c3565b60009081526001602052604090205490565b34801561057657600080fd5b506101e76105853660046113f8565b610c1b565b6101e7610598366004611561565b610c40565b3480156105a957600080fd5b506102be6105b8366004611748565b63f23a6e6160e01b95945050505050565b3480156105d557600080fd5b50600254610252565b7fb09aa5aeb3702cfd50b6b62bc4532604938f21248a27a1d5ca736082b6819cc161060881610dc7565b6000610618898989898989610935565b90506106248184610dd4565b6000817f4cf4410cc57040e44862ef0f45f3dd5a5e02db8eb8add648d4b0e236f1d07dca8b8b8b8b8b8a604051610660969594939291906117c9565b60405180910390a383156106a957807f20fda5fd27a1ea7bf5b9567f143ac5470bb059374a27e8f67cb44f946f6d0387856040516106a091815260200190565b60405180910390a25b505050505050505050565b60006106bf82610e68565b92915050565b7fd8aa0f3194971a2a116679f7c2090f6939c8d4e01a2a8d7e41d55e5351469e636106f1816000610b02565b6106ff576106ff8133610e8d565b600061070f888888888888610935565b905061071b8185610eca565b61072788888888610f18565b6000817fc2617efa69bab66782fa219543714338489c4e9e178271560a91b82c3f612b588a8a8a8a60405161075f9493929190611806565b60405180910390a361077081610f90565b5050505050505050565b600060025b610788836108ea565b600381111561079957610799611424565b1492915050565b6000600361077f565b6000828152602081905260409020600101546107c481610dc7565b6107ce8383610fbc565b50505050565b6000806107e0836108ea565b60038111156107f1576107f1611424565b141592915050565b6001600160a01b03811633146108225760405163334bd91960e11b815260040160405180910390fd5b61082c828261104e565b505050565b60008061083d836108ea565b9050600181600381111561085357610853611424565b14806108705750600281600381111561086e5761086e611424565b145b9392505050565b333081146108a85760405163e2850c5960e01b81526001600160a01b03821660048201526024015b60405180910390fd5b60025460408051918252602082018490527f11c24f4ead16507c69ac467fbd5e4eed5fb5c699626d2cc6d66421df253886d5910160405180910390a150600255565b6000818152600160205260408120548060000361090a5750600092915050565b6001810361091b5750600392915050565b4281111561092c5750600192915050565b50600292915050565b6000868686868686604051602001610952969594939291906117c9565b6040516020818303038152906040528051906020012090509695505050505050565b7fb09aa5aeb3702cfd50b6b62bc4532604938f21248a27a1d5ca736082b6819cc161099e81610dc7565b88871415806109ad5750888514155b156109df576040516001624fcdef60e01b03198152600481018a9052602481018690526044810188905260640161089f565b60006109f18b8b8b8b8b8b8b8b610b2b565b90506109fd8184610dd4565b60005b8a811015610ab35780827f4cf4410cc57040e44862ef0f45f3dd5a5e02db8eb8add648d4b0e236f1d07dca8e8e85818110610a3d57610a3d61182e565b9050602002016020810190610a529190611844565b8d8d86818110610a6457610a6461182e565b905060200201358c8c87818110610a7d57610a7d61182e565b9050602002810190610a8f919061185f565b8c8b604051610aa3969594939291906117c9565b60405180910390a3600101610a00565b508315610af557807f20fda5fd27a1ea7bf5b9567f143ac5470bb059374a27e8f67cb44f946f6d038785604051610aec91815260200190565b60405180910390a25b5050505050505050505050565b6000918252602082815260408084206001600160a01b0393909316845291905290205460ff1690565b60008888888888888888604051602001610b4c98979695949392919061193e565b60405160208183030381529060405280519060200120905098975050505050505050565b7ffd643c72710c63c0180259aba6b2d05451e3591a24e58b62239378085726f783610b9a81610dc7565b610ba382610831565b610bdf5781610bb260026110b9565b610bbc60016110b9565b604051635ead8eb560e01b8152600481019390935217602482015260440161089f565b6000828152600160205260408082208290555183917fbaa1eb22f2a492ba1a5fea61b8df4d27c6c8b5f3971e63bb58fa14ff72eedb7091a25050565b600082815260208190526040902060010154610c3681610dc7565b6107ce838361104e565b7fd8aa0f3194971a2a116679f7c2090f6939c8d4e01a2a8d7e41d55e5351469e63610c6c816000610b02565b610c7a57610c7a8133610e8d565b8786141580610c895750878414155b15610cbb576040516001624fcdef60e01b0319815260048101899052602481018590526044810187905260640161089f565b6000610ccd8a8a8a8a8a8a8a8a610b2b565b9050610cd98185610eca565b60005b89811015610db15760008b8b83818110610cf857610cf861182e565b9050602002016020810190610d0d9190611844565b905060008a8a84818110610d2357610d2361182e565b9050602002013590503660008a8a86818110610d4157610d4161182e565b9050602002810190610d53919061185f565b91509150610d6384848484610f18565b84867fc2617efa69bab66782fa219543714338489c4e9e178271560a91b82c3f612b5886868686604051610d9a9493929190611806565b60405180910390a350505050806001019050610cdc565b50610dbb81610f90565b50505050505050505050565b610dd18133610e8d565b50565b610ddd826107d4565b15610e0f5781610ded60006110b9565b604051635ead8eb560e01b81526004810192909252602482015260440161089f565b6000610e1a60025490565b905080821015610e4757604051635433660960e01b8152600481018390526024810182905260440161089f565b610e5182426119df565b600093845260016020526040909320929092555050565b60006001600160e01b03198216630271189760e51b14806106bf57506106bf826110dc565b610e978282610b02565b610ec65760405163e2517d3f60e01b81526001600160a01b03821660048201526024810183905260440161089f565b5050565b610ed38261077a565b610ee25781610ded60026110b9565b8015801590610ef75750610ef5816107a0565b155b15610ec65760405163121534c360e31b81526004810182905260240161089f565b600080856001600160a01b0316858585604051610f36929190611a00565b60006040518083038185875af1925050503d8060008114610f73576040519150601f19603f3d011682016040523d82523d6000602084013e610f78565b606091505b5091509150610f878282611111565b50505050505050565b610f998161077a565b610fa85780610ded60026110b9565b600090815260016020819052604090912055565b6000610fc88383610b02565b611046576000838152602081815260408083206001600160a01b03861684529091529020805460ff19166001179055610ffe3390565b6001600160a01b0316826001600160a01b0316847f2f8788117e7eff1d82e926ec794901d17c78024a50270940304540a733656f0d60405160405180910390a45060016106bf565b5060006106bf565b600061105a8383610b02565b15611046576000838152602081815260408083206001600160a01b0386168085529252808320805460ff1916905551339286917ff6391f5c32d9c69d2a47ea670b442974b53935d1edc7fd64eb21e047a839171b9190a45060016106bf565b60008160038111156110cd576110cd611424565b600160ff919091161b92915050565b60006001600160e01b03198216637965db0b60e01b14806106bf57506301ffc9a760e01b6001600160e01b03198316146106bf565b606082611126576111218261112d565b6106bf565b50806106bf565b80511561113d5780518082602001fd5b60405163d6bda27560e01b815260040160405180910390fd5b80356001600160a01b038116811461116d57600080fd5b919050565b60008083601f84011261118457600080fd5b5081356001600160401b0381111561119b57600080fd5b6020830191508360208285010111156111b357600080fd5b9250929050565b600080600080600080600060c0888a0312156111d557600080fd5b6111de88611156565b96506020880135955060408801356001600160401b0381111561120057600080fd5b61120c8a828b01611172565b989b979a50986060810135976080820135975060a09091013595509350505050565b60006020828403121561124057600080fd5b81356001600160e01b03198116811461087057600080fd5b60008060008060008060a0878903121561127157600080fd5b61127a87611156565b95506020870135945060408701356001600160401b0381111561129c57600080fd5b6112a889828a01611172565b979a9699509760608101359660809091013595509350505050565b6000602082840312156112d557600080fd5b5035919050565b634e487b7160e01b600052604160045260246000fd5b604051601f8201601f191681016001600160401b038111828210171561131a5761131a6112dc565b604052919050565b600082601f83011261133357600080fd5b81356001600160401b0381111561134c5761134c6112dc565b61135f601f8201601f19166020016112f2565b81815284602083860101111561137457600080fd5b816020850160208301376000918101602001919091529392505050565b600080600080608085870312156113a757600080fd5b6113b085611156565b93506113be60208601611156565b92506040850135915060608501356001600160401b038111156113e057600080fd5b6113ec87828801611322565b91505092959194509250565b6000806040838503121561140b57600080fd5b8235915061141b60208401611156565b90509250929050565b634e487b7160e01b600052602160045260246000fd5b602081016004831061145c57634e487b7160e01b600052602160045260246000fd5b91905290565b60008083601f84011261147457600080fd5b5081356001600160401b0381111561148b57600080fd5b6020830191508360208260051b85010111156111b357600080fd5b600080600080600080600080600060c08a8c0312156114c457600080fd5b89356001600160401b038111156114da57600080fd5b6114e68c828d01611462565b909a5098505060208a01356001600160401b0381111561150557600080fd5b6115118c828d01611462565b90985096505060408a01356001600160401b0381111561153057600080fd5b61153c8c828d01611462565b9a9d999c50979a969997986060880135976080810135975060a0013595509350505050565b60008060008060008060008060a0898b03121561157d57600080fd5b88356001600160401b0381111561159357600080fd5b61159f8b828c01611462565b90995097505060208901356001600160401b038111156115be57600080fd5b6115ca8b828c01611462565b90975095505060408901356001600160401b038111156115e957600080fd5b6115f58b828c01611462565b999c989b509699959896976060870135966080013595509350505050565b600082601f83011261162457600080fd5b81356001600160401b0381111561163d5761163d6112dc565b8060051b61164d602082016112f2565b9182526020818501810192908101908684111561166957600080fd5b6020860192505b8383101561168b578235825260209283019290910190611670565b9695505050505050565b600080600080600060a086880312156116ad57600080fd5b6116b686611156565b94506116c460208701611156565b935060408601356001600160401b038111156116df57600080fd5b6116eb88828901611613565b93505060608601356001600160401b0381111561170757600080fd5b61171388828901611613565b92505060808601356001600160401b0381111561172f57600080fd5b61173b88828901611322565b9150509295509295909350565b600080600080600060a0868803121561176057600080fd5b61176986611156565b945061177760208701611156565b9350604086013592506060860135915060808601356001600160401b0381111561172f57600080fd5b81835281816020850137506000828201602090810191909152601f909101601f19169091010190565b60018060a01b038716815285602082015260a0604082015260006117f160a0830186886117a0565b60608301949094525060800152949350505050565b60018060a01b038516815283602082015260606040820152600061168b6060830184866117a0565b634e487b7160e01b600052603260045260246000fd5b60006020828403121561185657600080fd5b61087082611156565b6000808335601e1984360301811261187657600080fd5b8301803591506001600160401b0382111561189057600080fd5b6020019150368190038213156111b357600080fd5b60008383855260208501945060208460051b8201018360005b8681101561193257838303601f19018852813536879003601e190181126118e457600080fd5b86016020810190356001600160401b0381111561190057600080fd5b80360382131561190f57600080fd5b61191a8582846117a0565b60209a8b019a909550939093019250506001016118be565b50909695505050505050565b60a0808252810188905260008960c08301825b8b81101561197f576001600160a01b0361196a84611156565b16825260209283019290910190600101611951565b5083810360208501528881526001600160fb1b0389111561199f57600080fd5b8860051b9150818a602083013701828103602090810160408501526119c790820187896118a5565b60608401959095525050608001529695505050505050565b808201808211156106bf57634e487b7160e01b600052601160045260246000fd5b818382376000910190815291905056fea2646970667358221220c53410f4c0bc0b62fba0c689694546cc852547f0c055264962a8ee5bf73a96bc64736f6c634300081c0033",
					"opcodes": "PUSH1 0x80 PUSH1 0x40 MSTORE CALLVALUE DUP1 ISZERO PUSH2 0x10 JUMPI PUSH1 0x0 DUP1 REVERT JUMPDEST POP PUSH1 0x40 MLOAD PUSH2 0x1DF4 CODESIZE SUB DUP1 PUSH2 0x1DF4 DUP4 CODECOPY DUP2 ADD PUSH1 0x40 DUP2 SWAP1 MSTORE PUSH2 0x2F SWAP2 PUSH2 0x305 JUMP JUMPDEST PUSH2 0x3A PUSH1 0x0 ADDRESS PUSH2 0x181 JUMP JUMPDEST POP PUSH1 0x1 PUSH1 0x1 PUSH1 0xA0 SHL SUB DUP2 AND ISZERO PUSH2 0x57 JUMPI PUSH2 0x55 PUSH1 0x0 DUP3 PUSH2 0x181 JUMP JUMPDEST POP JUMPDEST PUSH1 0x0 JUMPDEST DUP4 MLOAD DUP2 LT ISZERO PUSH2 0xEC JUMPI PUSH2 0xAC PUSH32 0xB09AA5AEB3702CFD50B6B62BC4532604938F21248A27A1D5CA736082B6819CC1 DUP6 DUP4 DUP2 MLOAD DUP2 LT PUSH2 0x99 JUMPI PUSH2 0x99 PUSH2 0x389 JUMP JUMPDEST PUSH1 0x20 MUL PUSH1 0x20 ADD ADD MLOAD PUSH2 0x181 PUSH1 0x20 SHL PUSH1 0x20 SHR JUMP JUMPDEST POP PUSH2 0xE3 PUSH32 0xFD643C72710C63C0180259ABA6B2D05451E3591A24E58B62239378085726F783 DUP6 DUP4 DUP2 MLOAD DUP2 LT PUSH2 0x99 JUMPI PUSH2 0x99 PUSH2 0x389 JUMP JUMPDEST POP PUSH1 0x1 ADD PUSH2 0x5A JUMP JUMPDEST POP PUSH1 0x0 JUMPDEST DUP3 MLOAD DUP2 LT ISZERO PUSH2 0x138 JUMPI PUSH2 0x12F PUSH32 0xD8AA0F3194971A2A116679F7C2090F6939C8D4E01A2A8D7E41D55E5351469E63 DUP5 DUP4 DUP2 MLOAD DUP2 LT PUSH2 0x99 JUMPI PUSH2 0x99 PUSH2 0x389 JUMP JUMPDEST POP PUSH1 0x1 ADD PUSH2 0xF0 JUMP JUMPDEST POP PUSH1 0x2 DUP5 SWAP1 SSTORE PUSH1 0x40 DUP1 MLOAD PUSH1 0x0 DUP2 MSTORE PUSH1 0x20 DUP2 ADD DUP7 SWAP1 MSTORE PUSH32 0x11C24F4EAD16507C69AC467FBD5E4EED5FB5C699626D2CC6D66421DF253886D5 SWAP2 ADD PUSH1 0x40 MLOAD DUP1 SWAP2 SUB SWAP1 LOG1 POP POP POP POP PUSH2 0x39F JUMP JUMPDEST PUSH1 0x0 DUP3 DUP2 MSTORE PUSH1 0x20 DUP2 DUP2 MSTORE PUSH1 0x40 DUP1 DUP4 KECCAK256 PUSH1 0x1 PUSH1 0x1 PUSH1 0xA0 SHL SUB DUP6 AND DUP5 MSTORE SWAP1 SWAP2 MSTORE DUP2 KECCAK256 SLOAD PUSH1 0xFF AND PUSH2 0x223 JUMPI PUSH1 0x0 DUP4 DUP2 MSTORE PUSH1 0x20 DUP2 DUP2 MSTORE PUSH1 0x40 DUP1 DUP4 KECCAK256 PUSH1 0x1 PUSH1 0x1 PUSH1 0xA0 SHL SUB DUP7 AND DUP5 MSTORE SWAP1 SWAP2 MSTORE SWAP1 KECCAK256 DUP1 SLOAD PUSH1 0xFF NOT AND PUSH1 0x1 OR SWAP1 SSTORE PUSH2 0x1DB CALLER SWAP1 JUMP JUMPDEST PUSH1 0x1 PUSH1 0x1 PUSH1 0xA0 SHL SUB AND DUP3 PUSH1 0x1 PUSH1 0x1 PUSH1 0xA0 SHL SUB AND DUP5 PUSH32 0x2F8788117E7EFF1D82E926EC794901D17C78024A50270940304540A733656F0D PUSH1 0x40 MLOAD PUSH1 0x40 MLOAD DUP1 SWAP2 SUB SWAP1 LOG4 POP PUSH1 0x1 PUSH2 0x227 JUMP JUMPDEST POP PUSH1 0x0 JUMPDEST SWAP3 SWAP2 POP POP JUMP JUMPDEST PUSH4 0x4E487B71 PUSH1 0xE0 SHL PUSH1 0x0 MSTORE PUSH1 0x41 PUSH1 0x4 MSTORE PUSH1 0x24 PUSH1 0x0 REVERT JUMPDEST DUP1 MLOAD PUSH1 0x1 PUSH1 0x1 PUSH1 0xA0 SHL SUB DUP2 AND DUP2 EQ PUSH2 0x25A JUMPI PUSH1 0x0 DUP1 REVERT JUMPDEST SWAP2 SWAP1 POP JUMP JUMPDEST PUSH1 0x0 DUP3 PUSH1 0x1F DUP4 ADD SLT PUSH2 0x270 JUMPI PUSH1 0x0 DUP1 REVERT JUMPDEST DUP2 MLOAD PUSH1 0x1 PUSH1 0x1 PUSH1 0x40 SHL SUB DUP2 GT ISZERO PUSH2 0x289 JUMPI PUSH2 0x289 PUSH2 0x22D JUMP JUMPDEST PUSH1 0x40 MLOAD PUSH1 0x5 DUP3 SWAP1 SHL SWAP1 PUSH1 0x3F DUP3 ADD PUSH1 0x1F NOT AND DUP2 ADD PUSH1 0x1 PUSH1 0x1 PUSH1 0x40 SHL SUB DUP2 GT DUP3 DUP3 LT OR ISZERO PUSH2 0x2B7 JUMPI PUSH2 0x2B7 PUSH2 0x22D JUMP JUMPDEST PUSH1 0x40 MSTORE SWAP2 DUP3 MSTORE PUSH1 0x20 DUP2 DUP6 ADD DUP2 ADD SWAP3 SWAP1 DUP2 ADD DUP7 DUP5 GT ISZERO PUSH2 0x2D5 JUMPI PUSH1 0x0 DUP1 REVERT JUMPDEST PUSH1 0x20 DUP7 ADD SWAP3 POP JUMPDEST DUP4 DUP4 LT ISZERO PUSH2 0x2FB JUMPI PUSH2 0x2ED DUP4 PUSH2 0x243 JUMP JUMPDEST DUP2 MSTORE PUSH1 0x20 SWAP3 DUP4 ADD SWAP3 ADD PUSH2 0x2DC JUMP JUMPDEST POP SWAP6 SWAP5 POP POP POP POP POP JUMP JUMPDEST PUSH1 0x0 DUP1 PUSH1 0x0 DUP1 PUSH1 0x80 DUP6 DUP8 SUB SLT ISZERO PUSH2 0x31B JUMPI PUSH1 0x0 DUP1 REVERT JUMPDEST DUP5 MLOAD PUSH1 0x20 DUP7 ADD MLOAD SWAP1 SWAP5 POP PUSH1 0x1 PUSH1 0x1 PUSH1 0x40 SHL SUB DUP2 GT ISZERO PUSH2 0x339 JUMPI PUSH1 0x0 DUP1 REVERT JUMPDEST PUSH2 0x345 DUP8 DUP3 DUP9 ADD PUSH2 0x25F JUMP JUMPDEST PUSH1 0x40 DUP8 ADD MLOAD SWAP1 SWAP5 POP SWAP1 POP PUSH1 0x1 PUSH1 0x1 PUSH1 0x40 SHL SUB DUP2 GT ISZERO PUSH2 0x363 JUMPI PUSH1 0x0 DUP1 REVERT JUMPDEST PUSH2 0x36F DUP8 DUP3 DUP9 ADD PUSH2 0x25F JUMP JUMPDEST SWAP3 POP POP PUSH2 0x37E PUSH1 0x60 DUP7 ADD PUSH2 0x243 JUMP JUMPDEST SWAP1 POP SWAP3 SWAP6 SWAP2 SWAP5 POP SWAP3 POP JUMP JUMPDEST PUSH4 0x4E487B71 PUSH1 0xE0 SHL PUSH1 0x0 MSTORE PUSH1 0x32 PUSH1 0x4 MSTORE PUSH1 0x24 PUSH1 0x0 REVERT JUMPDEST PUSH2 0x1A46 DUP1 PUSH2 0x3AE PUSH1 0x0 CODECOPY PUSH1 0x0 RETURN INVALID PUSH1 0x80 PUSH1 0x40 MSTORE PUSH1 0x4 CALLDATASIZE LT PUSH2 0x1BB JUMPI PUSH1 0x0 CALLDATALOAD PUSH1 0xE0 SHR DUP1 PUSH4 0x8065657F GT PUSH2 0xEC JUMPI DUP1 PUSH4 0xBC197C81 GT PUSH2 0x8A JUMPI DUP1 PUSH4 0xD547741F GT PUSH2 0x64 JUMPI DUP1 PUSH4 0xD547741F EQ PUSH2 0x56A JUMPI DUP1 PUSH4 0xE38335E5 EQ PUSH2 0x58A JUMPI DUP1 PUSH4 0xF23A6E61 EQ PUSH2 0x59D JUMPI DUP1 PUSH4 0xF27A0C92 EQ PUSH2 0x5C9 JUMPI PUSH1 0x0 DUP1 REVERT JUMPDEST DUP1 PUSH4 0xBC197C81 EQ PUSH2 0x4F1 JUMPI DUP1 PUSH4 0xC4D252F5 EQ PUSH2 0x51D JUMPI DUP1 PUSH4 0xD45C4435 EQ PUSH2 0x53D JUMPI PUSH1 0x0 DUP1 REVERT JUMPDEST DUP1 PUSH4 0x91D14854 GT PUSH2 0xC6 JUMPI DUP1 PUSH4 0x91D14854 EQ PUSH2 0x468 JUMPI DUP1 PUSH4 0xA217FDDF EQ PUSH2 0x488 JUMPI DUP1 PUSH4 0xB08E51C0 EQ PUSH2 0x49D JUMPI DUP1 PUSH4 0xB1C5F427 EQ PUSH2 0x4D1 JUMPI PUSH1 0x0 DUP1 REVERT JUMPDEST DUP1 PUSH4 0x8065657F EQ PUSH2 0x3F4 JUMPI DUP1 PUSH4 0x8F2A0BB0 EQ PUSH2 0x414 JUMPI DUP1 PUSH4 0x8F61F4F5 EQ PUSH2 0x434 JUMPI PUSH1 0x0 DUP1 REVERT JUMPDEST DUP1 PUSH4 0x2AB0F529 GT PUSH2 0x159 JUMPI DUP1 PUSH4 0x36568ABE GT PUSH2 0x133 JUMPI DUP1 PUSH4 0x36568ABE EQ PUSH2 0x367 JUMPI DUP1 PUSH4 0x584B153E EQ PUSH2 0x387 JUMPI DUP1 PUSH4 0x64D62353 EQ PUSH2 0x3A7 JUMPI DUP1 PUSH4 0x7958004C EQ PUSH2 0x3C7 JUMPI PUSH1 0x0 DUP1 REVERT JUMPDEST DUP1 PUSH4 0x2AB0F529 EQ PUSH2 0x307 JUMPI DUP1 PUSH4 0x2F2FF15D EQ PUSH2 0x327 JUMPI DUP1 PUSH4 0x31D50750 EQ PUSH2 0x347 JUMPI PUSH1 0x0 DUP1 REVERT JUMPDEST DUP1 PUSH4 0x134008D3 GT PUSH2 0x195 JUMPI DUP1 PUSH4 0x134008D3 EQ PUSH2 0x260 JUMPI DUP1 PUSH4 0x13BC9F20 EQ PUSH2 0x273 JUMPI DUP1 PUSH4 0x150B7A02 EQ PUSH2 0x293 JUMPI DUP1 PUSH4 0x248A9CA3 EQ PUSH2 0x2D7 JUMPI PUSH1 0x0 DUP1 REVERT JUMPDEST DUP1 PUSH4 0x1D5062A EQ PUSH2 0x1C7 JUMPI DUP1 PUSH4 0x1FFC9A7 EQ PUSH2 0x1E9 JUMPI DUP1 PUSH4 0x7BD0265 EQ PUSH2 0x21E JUMPI PUSH1 0x0 DUP1 REVERT JUMPDEST CALLDATASIZE PUSH2 0x1C2 JUMPI STOP JUMPDEST PUSH1 0x0 DUP1 REVERT JUMPDEST CALLVALUE DUP1 ISZERO PUSH2 0x1D3 JUMPI PUSH1 0x0 DUP1 REVERT JUMPDEST POP PUSH2 0x1E7 PUSH2 0x1E2 CALLDATASIZE PUSH1 0x4 PUSH2 0x11BA JUMP JUMPDEST PUSH2 0x5DE JUMP JUMPDEST STOP JUMPDEST CALLVALUE DUP1 ISZERO PUSH2 0x1F5 JUMPI PUSH1 0x0 DUP1 REVERT JUMPDEST POP PUSH2 0x209 PUSH2 0x204 CALLDATASIZE PUSH1 0x4 PUSH2 0x122E JUMP JUMPDEST PUSH2 0x6B4 JUMP JUMPDEST PUSH1 0x40 MLOAD SWAP1 ISZERO ISZERO DUP2 MSTORE PUSH1 0x20 ADD JUMPDEST PUSH1 0x40 MLOAD DUP1 SWAP2 SUB SWAP1 RETURN JUMPDEST CALLVALUE DUP1 ISZERO PUSH2 0x22A JUMPI PUSH1 0x0 DUP1 REVERT JUMPDEST POP PUSH2 0x252 PUSH32 0xD8AA0F3194971A2A116679F7C2090F6939C8D4E01A2A8D7E41D55E5351469E63 DUP2 JUMP JUMPDEST PUSH1 0x40 MLOAD SWAP1 DUP2 MSTORE PUSH1 0x20 ADD PUSH2 0x215 JUMP JUMPDEST PUSH2 0x1E7 PUSH2 0x26E CALLDATASIZE PUSH1 0x4 PUSH2 0x1258 JUMP JUMPDEST PUSH2 0x6C5 JUMP JUMPDEST CALLVALUE DUP1 ISZERO PUSH2 0x27F JUMPI PUSH1 0x0 DUP1 REVERT JUMPDEST POP PUSH2 0x209 PUSH2 0x28E CALLDATASIZE PUSH1 0x4 PUSH2 0x12C3 JUMP JUMPDEST PUSH2 0x77A JUMP JUMPDEST CALLVALUE DUP1 ISZERO PUSH2 0x29F JUMPI PUSH1 0x0 DUP1 REVERT JUMPDEST POP PUSH2 0x2BE PUSH2 0x2AE CALLDATASIZE PUSH1 0x4 PUSH2 0x1391 JUMP JUMPDEST PUSH4 0xA85BD01 PUSH1 0xE1 SHL SWAP5 SWAP4 POP POP POP POP JUMP JUMPDEST PUSH1 0x40 MLOAD PUSH1 0x1 PUSH1 0x1 PUSH1 0xE0 SHL SUB NOT SWAP1 SWAP2 AND DUP2 MSTORE PUSH1 0x20 ADD PUSH2 0x215 JUMP JUMPDEST CALLVALUE DUP1 ISZERO PUSH2 0x2E3 JUMPI PUSH1 0x0 DUP1 REVERT JUMPDEST POP PUSH2 0x252 PUSH2 0x2F2 CALLDATASIZE PUSH1 0x4 PUSH2 0x12C3 JUMP JUMPDEST PUSH1 0x0 SWAP1 DUP2 MSTORE PUSH1 0x20 DUP2 SWAP1 MSTORE PUSH1 0x40 SWAP1 KECCAK256 PUSH1 0x1 ADD SLOAD SWAP1 JUMP JUMPDEST CALLVALUE DUP1 ISZERO PUSH2 0x313 JUMPI PUSH1 0x0 DUP1 REVERT JUMPDEST POP PUSH2 0x209 PUSH2 0x322 CALLDATASIZE PUSH1 0x4 PUSH2 0x12C3 JUMP JUMPDEST PUSH2 0x7A0 JUMP JUMPDEST CALLVALUE DUP1 ISZERO PUSH2 0x333 JUMPI PUSH1 0x0 DUP1 REVERT JUMPDEST POP PUSH2 0x1E7 PUSH2 0x342 CALLDATASIZE PUSH1 0x4 PUSH2 0x13F8 JUMP JUMPDEST PUSH2 0x7A9 JUMP JUMPDEST CALLVALUE DUP1 ISZERO PUSH2 0x353 JUMPI PUSH1 0x0 DUP1 REVERT JUMPDEST POP PUSH2 0x209 PUSH2 0x362 CALLDATASIZE PUSH1 0x4 PUSH2 0x12C3 JUMP JUMPDEST PUSH2 0x7D4 JUMP JUMPDEST CALLVALUE DUP1 ISZERO PUSH2 0x373 JUMPI PUSH1 0x0 DUP1 REVERT JUMPDEST POP PUSH2 0x1E7 PUSH2 0x382 CALLDATASIZE PUSH1 0x4 PUSH2 0x13F8 JUMP JUMPDEST PUSH2 0x7F9 JUMP JUMPDEST CALLVALUE DUP1 ISZERO PUSH2 0x393 JUMPI PUSH1 0x0 DUP1 REVERT JUMPDEST POP PUSH2 0x209 PUSH2 0x3A2 CALLDATASIZE PUSH1 0x4 PUSH2 0x12C3 JUMP JUMPDEST PUSH2 0x831 JUMP JUMPDEST CALLVALUE DUP1 ISZERO PUSH2 0x3B3 JUMPI PUSH1 0x0 DUP1 REVERT JUMPDEST POP PUSH2 0x1E7 PUSH2 0x3C2 CALLDATASIZE PUSH1 0x4 PUSH2 0x12C3 JUMP JUMPDEST PUSH2 0x877 JUMP JUMPDEST CALLVALUE DUP1 ISZERO PUSH2 0x3D3 JUMPI PUSH1 0x0 DUP1 REVERT JUMPDEST POP PUSH2 0x3E7 PUSH2 0x3E2 CALLDATASIZE PUSH1 0x4 PUSH2 0x12C3 JUMP JUMPDEST PUSH2 0x8EA JUMP JUMPDEST PUSH1 0x40 MLOAD PUSH2 0x215 SWAP2 SWAP1 PUSH2 0x143A JUMP JUMPDEST CALLVALUE DUP1 ISZERO PUSH2 0x400 JUMPI PUSH1 0x0 DUP1 REVERT JUMPDEST POP PUSH2 0x252 PUSH2 0x40F CALLDATASIZE PUSH1 0x4 PUSH2 0x1258 JUMP JUMPDEST PUSH2 0x935 JUMP JUMPDEST CALLVALUE DUP1 ISZERO PUSH2 0x420 JUMPI PUSH1 0x0 DUP1 REVERT JUMPDEST POP PUSH2 0x1E7 PUSH2 0x42F CALLDATASIZE PUSH1 0x4 PUSH2 0x14A6 JUMP JUMPDEST PUSH2 0x974 JUMP JUMPDEST CALLVALUE DUP1 ISZERO PUSH2 0x440 JUMPI PUSH1 0x0 DUP1 REVERT JUMPDEST POP PUSH2 0x252 PUSH32 0xB09AA5AEB3702CFD50B6B62BC4532604938F21248A27A1D5CA736082B6819CC1 DUP2 JUMP JUMPDEST CALLVALUE DUP1 ISZERO PUSH2 0x474 JUMPI PUSH1 0x0 DUP1 REVERT JUMPDEST POP PUSH2 0x209 PUSH2 0x483 CALLDATASIZE PUSH1 0x4 PUSH2 0x13F8 JUMP JUMPDEST PUSH2 0xB02 JUMP JUMPDEST CALLVALUE DUP1 ISZERO PUSH2 0x494 JUMPI PUSH1 0x0 DUP1 REVERT JUMPDEST POP PUSH2 0x252 PUSH1 0x0 DUP2 JUMP JUMPDEST CALLVALUE DUP1 ISZERO PUSH2 0x4A9 JUMPI PUSH1 0x0 DUP1 REVERT JUMPDEST POP PUSH2 0x252 PUSH32 0xFD643C72710C63C0180259ABA6B2D05451E3591A24E58B62239378085726F783 DUP2 JUMP JUMPDEST CALLVALUE DUP1 ISZERO PUSH2 0x4DD JUMPI PUSH1 0x0 DUP1 REVERT JUMPDEST POP PUSH2 0x252 PUSH2 0x4EC CALLDATASIZE PUSH1 0x4 PUSH2 0x1561 JUMP JUMPDEST PUSH2 0xB2B JUMP JUMPDEST CALLVALUE DUP1 ISZERO PUSH2 0x4FD JUMPI PUSH1 0x0 DUP1 REVERT JUMPDEST POP PUSH2 0x2BE PUSH2 0x50C CALLDATASIZE PUSH1 0x4 PUSH2 0x1695 JUMP JUMPDEST PUSH4 0xBC197C81 PUSH1 0xE0 SHL SWAP6 SWAP5 POP POP POP POP POP JUMP JUMPDEST CALLVALUE DUP1 ISZERO PUSH2 0x529 JUMPI PUSH1 0x0 DUP1 REVERT JUMPDEST POP PUSH2 0x1E7 PUSH2 0x538 CALLDATASIZE PUSH1 0x4 PUSH2 0x12C3 JUMP JUMPDEST PUSH2 0xB70 JUMP JUMPDEST CALLVALUE DUP1 ISZERO PUSH2 0x549 JUMPI PUSH1 0x0 DUP1 REVERT JUMPDEST POP PUSH2 0x252 PUSH2 0x558 CALLDATASIZE PUSH1 0x4 PUSH2 0x12C3 JUMP JUMPDEST PUSH1 0x0 SWAP1 DUP2 MSTORE PUSH1 0x1 PUSH1 0x20 MSTORE PUSH1 0x40 SWAP1 KECCAK256 SLOAD SWAP1 JUMP JUMPDEST CALLVALUE DUP1 ISZERO PUSH2 0x576 JUMPI PUSH1 0x0 DUP1 REVERT JUMPDEST POP PUSH2 0x1E7 PUSH2 0x585 CALLDATASIZE PUSH1 0x4 PUSH2 0x13F8 JUMP JUMPDEST PUSH2 0xC1B JUMP JUMPDEST PUSH2 0x1E7 PUSH2 0x598 CALLDATASIZE PUSH1 0x4 PUSH2 0x1561 JUMP JUMPDEST PUSH2 0xC40 JUMP JUMPDEST CALLVALUE DUP1 ISZERO PUSH2 0x5A9 JUMPI PUSH1 0x0 DUP1 REVERT JUMPDEST POP PUSH2 0x2BE PUSH2 0x5B8 CALLDATASIZE PUSH1 0x4 PUSH2 0x1748 JUMP JUMPDEST PUSH4 0xF23A6E61 PUSH1 0xE0 SHL SWAP6 SWAP5 POP POP POP POP POP JUMP JUMPDEST CALLVALUE DUP1 ISZERO PUSH2 0x5D5 JUMPI PUSH1 0x0 DUP1 REVERT JUMPDEST POP PUSH1 0x2 SLOAD PUSH2 0x252 JUMP JUMPDEST PUSH32 0xB09AA5AEB3702CFD50B6B62BC4532604938F21248A27A1D5CA736082B6819CC1 PUSH2 0x608 DUP2 PUSH2 0xDC7 JUMP JUMPDEST PUSH1 0x0 PUSH2 0x618 DUP10 DUP10 DUP10 DUP10 DUP10 DUP10 PUSH2 0x935 JUMP JUMPDEST SWAP1 POP PUSH2 0x624 DUP2 DUP5 PUSH2 0xDD4 JUMP JUMPDEST PUSH1 0x0 DUP2 PUSH32 0x4CF4410CC57040E44862EF0F45F3DD5A5E02DB8EB8ADD648D4B0E236F1D07DCA DUP12 DUP12 DUP12 DUP12 DUP12 DUP11 PUSH1 0x40 MLOAD PUSH2 0x660 SWAP7 SWAP6 SWAP5 SWAP4 SWAP3 SWAP2 SWAP1 PUSH2 0x17C9 JUMP JUMPDEST PUSH1 0x40 MLOAD DUP1 SWAP2 SUB SWAP1 LOG3 DUP4 ISZERO PUSH2 0x6A9 JUMPI DUP1 PUSH32 0x20FDA5FD27A1EA7BF5B9567F143AC5470BB059374A27E8F67CB44F946F6D0387 DUP6 PUSH1 0x40 MLOAD PUSH2 0x6A0 SWAP2 DUP2 MSTORE PUSH1 0x20 ADD SWAP1 JUMP JUMPDEST PUSH1 0x40 MLOAD DUP1 SWAP2 SUB SWAP1 LOG2 JUMPDEST POP POP POP POP POP POP POP POP POP JUMP JUMPDEST PUSH1 0x0 PUSH2 0x6BF DUP3 PUSH2 0xE68 JUMP JUMPDEST SWAP3 SWAP2 POP POP JUMP JUMPDEST PUSH32 0xD8AA0F3194971A2A116679F7C2090F6939C8D4E01A2A8D7E41D55E5351469E63 PUSH2 0x6F1 DUP2 PUSH1 0x0 PUSH2 0xB02 JUMP JUMPDEST PUSH2 0x6FF JUMPI PUSH2 0x6FF DUP2 CALLER PUSH2 0xE8D JUMP JUMPDEST PUSH1 0x0 PUSH2 0x70F DUP9 DUP9 DUP9 DUP9 DUP9 DUP9 PUSH2 0x935 JUMP JUMPDEST SWAP1 POP PUSH2 0x71B DUP2 DUP6 PUSH2 0xECA JUMP JUMPDEST PUSH2 0x727 DUP9 DUP9 DUP9 DUP9 PUSH2 0xF18 JUMP JUMPDEST PUSH1 0x0 DUP2 PUSH32 0xC2617EFA69BAB66782FA219543714338489C4E9E178271560A91B82C3F612B58 DUP11 DUP11 DUP11 DUP11 PUSH1 0x40 MLOAD PUSH2 0x75F SWAP5 SWAP4 SWAP3 SWAP2 SWAP1 PUSH2 0x1806 JUMP JUMPDEST PUSH1 0x40 MLOAD DUP1 SWAP2 SUB SWAP1 LOG3 PUSH2 0x770 DUP2 PUSH2 0xF90 JUMP JUMPDEST POP POP POP POP POP POP POP POP JUMP JUMPDEST PUSH1 0x0 PUSH1 0x2 JUMPDEST PUSH2 0x788 DUP4 PUSH2 0x8EA JUMP JUMPDEST PUSH1 0x3 DUP2 GT ISZERO PUSH2 0x799 JUMPI PUSH2 0x799 PUSH2 0x1424 JUMP JUMPDEST EQ SWAP3 SWAP2 POP POP JUMP JUMPDEST PUSH1 0x0 PUSH1 0x3 PUSH2 0x77F JUMP JUMPDEST PUSH1 0x0 DUP3 DUP2 MSTORE PUSH1 0x20 DUP2 SWAP1 MSTORE PUSH1 0x40 SWAP1 KECCAK256 PUSH1 0x1 ADD SLOAD PUSH2 0x7C4 DUP2 PUSH2 0xDC7 JUMP JUMPDEST PUSH2 0x7CE DUP4 DUP4 PUSH2 0xFBC JUMP JUMPDEST POP POP POP POP JUMP JUMPDEST PUSH1 0x0 DUP1 PUSH2 0x7E0 DUP4 PUSH2 0x8EA JUMP JUMPDEST PUSH1 0x3 DUP2 GT ISZERO PUSH2 0x7F1 JUMPI PUSH2 0x7F1 PUSH2 0x1424 JUMP JUMPDEST EQ ISZERO SWAP3 SWAP2 POP POP JUMP JUMPDEST PUSH1 0x1 PUSH1 0x1 PUSH1 0xA0 SHL SUB DUP2 AND CALLER EQ PUSH2 0x822 JUMPI PUSH1 0x40 MLOAD PUSH4 0x334BD919 PUSH1 0xE1 SHL DUP2 MSTORE PUSH1 0x4 ADD PUSH1 0x40 MLOAD DUP1 SWAP2 SUB SWAP1 REVERT JUMPDEST PUSH2 0x82C DUP3 DUP3 PUSH2 0x104E JUMP JUMPDEST POP POP POP JUMP JUMPDEST PUSH1 0x0 DUP1 PUSH2 0x83D DUP4 PUSH2 0x8EA JUMP JUMPDEST SWAP1 POP PUSH1 0x1 DUP2 PUSH1 0x3 DUP2 GT ISZERO PUSH2 0x853 JUMPI PUSH2 0x853 PUSH2 0x1424 JUMP JUMPDEST EQ DUP1 PUSH2 0x870 JUMPI POP PUSH1 0x2 DUP2 PUSH1 0x3 DUP2 GT ISZERO PUSH2 0x86E JUMPI PUSH2 0x86E PUSH2 0x1424 JUMP JUMPDEST EQ JUMPDEST SWAP4 SWAP3 POP POP POP JUMP JUMPDEST CALLER ADDRESS DUP2 EQ PUSH2 0x8A8 JUMPI PUSH1 0x40 MLOAD PUSH4 0xE2850C59 PUSH1 0xE0 SHL DUP2 MSTORE PUSH1 0x1 PUSH1 0x1 PUSH1 0xA0 SHL SUB DUP3 AND PUSH1 0x4 DUP3 ADD MSTORE PUSH1 0x24 ADD JUMPDEST PUSH1 0x40 MLOAD DUP1 SWAP2 SUB SWAP1 REVERT JUMPDEST PUSH1 0x2 SLOAD PUSH1 0x40 DUP1 MLOAD SWAP2 DUP3 MSTORE PUSH1 0x20 DUP3 ADD DUP5 SWAP1 MSTORE PUSH32 0x11C24F4EAD16507C69AC467FBD5E4EED5FB5C699626D2CC6D66421DF253886D5 SWAP2 ADD PUSH1 0x40 MLOAD DUP1 SWAP2 SUB SWAP1 LOG1 POP PUSH1 0x2 SSTORE JUMP JUMPDEST PUSH1 0x0 DUP2 DUP2 MSTORE PUSH1 0x1 PUSH1 0x20 MSTORE PUSH1 0x40 DUP2 KECCAK256 SLOAD DUP1 PUSH1 0x0 SUB PUSH2 0x90A JUMPI POP PUSH1 0x0 SWAP3 SWAP2 POP POP JUMP JUMPDEST PUSH1 0x1 DUP2 SUB PUSH2 0x91B JUMPI POP PUSH1 0x3 SWAP3 SWAP2 POP POP JUMP JUMPDEST TIMESTAMP DUP2 GT ISZERO PUSH2 0x92C JUMPI POP PUSH1 0x1 SWAP3 SWAP2 POP POP JUMP JUMPDEST POP PUSH1 0x2 SWAP3 SWAP2 POP POP JUMP JUMPDEST PUSH1 0x0 DUP7 DUP7 DUP7 DUP7 DUP7 DUP7 PUSH1 0x40 MLOAD PUSH1 0x20 ADD PUSH2 0x952 SWAP7 SWAP6 SWAP5 SWAP4 SWAP3 SWAP2 SWAP1 PUSH2 0x17C9 JUMP JUMPDEST PUSH1 0x40 MLOAD PUSH1 0x20 DUP2 DUP4 SUB SUB DUP2 MSTORE SWAP1 PUSH1 0x40 MSTORE DUP1 MLOAD SWAP1 PUSH1 0x20 ADD KECCAK256 SWAP1 POP SWAP7 SWAP6 POP POP POP POP POP POP JUMP JUMPDEST PUSH32 0xB09AA5AEB3702CFD50B6B62BC4532604938F21248A27A1D5CA736082B6819CC1 PUSH2 0x99E DUP2 PUSH2 0xDC7 JUMP JUMPDEST DUP9 DUP8 EQ ISZERO DUP1 PUSH2 0x9AD JUMPI POP DUP9 DUP6 EQ ISZERO JUMPDEST ISZERO PUSH2 0x9DF JUMPI PUSH1 0x40 MLOAD PUSH1 0x1 PUSH3 0x4FCDEF PUSH1 0xE0 SHL SUB NOT DUP2 MSTORE PUSH1 0x4 DUP2 ADD DUP11 SWAP1 MSTORE PUSH1 0x24 DUP2 ADD DUP7 SWAP1 MSTORE PUSH1 0x44 DUP2 ADD DUP9 SWAP1 MSTORE PUSH1 0x64 ADD PUSH2 0x89F JUMP JUMPDEST PUSH1 0x0 PUSH2 0x9F1 DUP12 DUP12 DUP12 DUP12 DUP12 DUP12 DUP12 DUP12 PUSH2 0xB2B JUMP JUMPDEST SWAP1 POP PUSH2 0x9FD DUP2 DUP5 PUSH2 0xDD4 JUMP JUMPDEST PUSH1 0x0 JUMPDEST DUP11 DUP2 LT ISZERO PUSH2 0xAB3 JUMPI DUP1 DUP3 PUSH32 0x4CF4410CC57040E44862EF0F45F3DD5A5E02DB8EB8ADD648D4B0E236F1D07DCA DUP15 DUP15 DUP6 DUP2 DUP2 LT PUSH2 0xA3D JUMPI PUSH2 0xA3D PUSH2 0x182E JUMP JUMPDEST SWAP1 POP PUSH1 0x20 MUL ADD PUSH1 0x20 DUP2 ADD SWAP1 PUSH2 0xA52 SWAP2 SWAP1 PUSH2 0x1844 JUMP JUMPDEST DUP14 DUP14 DUP7 DUP2 DUP2 LT PUSH2 0xA64 JUMPI PUSH2 0xA64 PUSH2 0x182E JUMP JUMPDEST SWAP1 POP PUSH1 0x20 MUL ADD CALLDATALOAD DUP13 DUP13 DUP8 DUP2 DUP2 LT PUSH2 0xA7D JUMPI PUSH2 0xA7D PUSH2 0x182E JUMP JUMPDEST SWAP1 POP PUSH1 0x20 MUL DUP2 ADD SWAP1 PUSH2 0xA8F SWAP2 SWAP1 PUSH2 0x185F JUMP JUMPDEST DUP13 DUP12 PUSH1 0x40 MLOAD PUSH2 0xAA3 SWAP7 SWAP6 SWAP5 SWAP4 SWAP3 SWAP2 SWAP1 PUSH2 0x17C9 JUMP JUMPDEST PUSH1 0x40 MLOAD DUP1 SWAP2 SUB SWAP1 LOG3 PUSH1 0x1 ADD PUSH2 0xA00 JUMP JUMPDEST POP DUP4 ISZERO PUSH2 0xAF5 JUMPI DUP1 PUSH32 0x20FDA5FD27A1EA7BF5B9567F143AC5470BB059374A27E8F67CB44F946F6D0387 DUP6 PUSH1 0x40 MLOAD PUSH2 0xAEC SWAP2 DUP2 MSTORE PUSH1 0x20 ADD SWAP1 JUMP JUMPDEST PUSH1 0x40 MLOAD DUP1 SWAP2 SUB SWAP1 LOG2 JUMPDEST POP POP POP POP POP POP POP POP POP POP POP JUMP JUMPDEST PUSH1 0x0 SWAP2 DUP3 MSTORE PUSH1 0x20 DUP3 DUP2 MSTORE PUSH1 0x40 DUP1 DUP5 KECCAK256 PUSH1 0x1 PUSH1 0x1 PUSH1 0xA0 SHL SUB SWAP4 SWAP1 SWAP4 AND DUP5 MSTORE SWAP2 SWAP1 MSTORE SWAP1 KECCAK256 SLOAD PUSH1 0xFF AND SWAP1 JUMP JUMPDEST PUSH1 0x0 DUP9 DUP9 DUP9 DUP9 DUP9 DUP9 DUP9 DUP9 PUSH1 0x40 MLOAD PUSH1 0x20 ADD PUSH2 0xB4C SWAP9 SWAP8 SWAP7 SWAP6 SWAP5 SWAP4 SWAP3 SWAP2 SWAP1 PUSH2 0x193E JUMP JUMPDEST PUSH1 0x40 MLOAD PUSH1 0x20 DUP2 DUP4 SUB SUB DUP2 MSTORE SWAP1 PUSH1 0x40 MSTORE DUP1 MLOAD SWAP1 PUSH1 0x20 ADD KECCAK256 SWAP1 POP SWAP9 SWAP8 POP POP POP POP POP POP POP POP JUMP JUMPDEST PUSH32 0xFD643C72710C63C0180259ABA6B2D05451E3591A24E58B62239378085726F783 PUSH2 0xB9A DUP2 PUSH2 0xDC7 JUMP JUMPDEST PUSH2 0xBA3 DUP3 PUSH2 0x831 JUMP JUMPDEST PUSH2 0xBDF JUMPI DUP2 PUSH2 0xBB2 PUSH1 0x2 PUSH2 0x10B9 JUMP JUMPDEST PUSH2 0xBBC PUSH1 0x1 PUSH2 0x10B9 JUMP JUMPDEST PUSH1 0x40 MLOAD PUSH4 0x5EAD8EB5 PUSH1 0xE0 SHL DUP2 MSTORE PUSH1 0x4 DUP2 ADD SWAP4 SWAP1 SWAP4 MSTORE OR PUSH1 0x24 DUP3 ADD MSTORE PUSH1 0x44 ADD PUSH2 0x89F JUMP JUMPDEST PUSH1 0x0 DUP3 DUP2 MSTORE PUSH1 0x1 PUSH1 0x20 MSTORE PUSH1 0x40 DUP1 DUP3 KECCAK256 DUP3 SWAP1 SSTORE MLOAD DUP4 SWAP2 PUSH32 0xBAA1EB22F2A492BA1A5FEA61B8DF4D27C6C8B5F3971E63BB58FA14FF72EEDB70 SWAP2 LOG2 POP POP JUMP JUMPDEST PUSH1 0x0 DUP3 DUP2 MSTORE PUSH1 0x20 DUP2 SWAP1 MSTORE PUSH1 0x40 SWAP1 KECCAK256 PUSH1 0x1 ADD SLOAD PUSH2 0xC36 DUP2 PUSH2 0xDC7 JUMP JUMPDEST PUSH2 0x7CE DUP4 DUP4 PUSH2 0x104E JUMP JUMPDEST PUSH32 0xD8AA0F3194971A2A116679F7C2090F6939C8D4E01A2A8D7E41D55E5351469E63 PUSH2 0xC6C DUP2 PUSH1 0x0 PUSH2 0xB02 JUMP JUMPDEST PUSH2 0xC7A JUMPI PUSH2 0xC7A DUP2 CALLER PUSH2 0xE8D JUMP JUMPDEST DUP8 DUP7 EQ ISZERO DUP1 PUSH2 0xC89 JUMPI POP DUP8 DUP5 EQ ISZERO JUMPDEST ISZERO PUSH2 0xCBB JUMPI PUSH1 0x40 MLOAD PUSH1 0x1 PUSH3 0x4FCDEF PUSH1 0xE0 SHL SUB NOT DUP2 MSTORE PUSH1 0x4 DUP2 ADD DUP10 SWAP1 MSTORE PUSH1 0x24 DUP2 ADD DUP6 SWAP1 MSTORE PUSH1 0x44 DUP2 ADD DUP8 SWAP1 MSTORE PUSH1 0x64 ADD PUSH2 0x89F JUMP JUMPDEST PUSH1 0x0 PUSH2 0xCCD DUP11 DUP11 DUP11 DUP11 DUP11 DUP11 DUP11 DUP11 PUSH2 0xB2B JUMP JUMPDEST SWAP1 POP PUSH2 0xCD9 DUP2 DUP6 PUSH2 0xECA JUMP JUMPDEST PUSH1 0x0 JUMPDEST DUP10 DUP2 LT ISZERO PUSH2 0xDB1 JUMPI PUSH1 0x0 DUP12 DUP12 DUP4 DUP2 DUP2 LT PUSH2 0xCF8 JUMPI PUSH2 0xCF8 PUSH2 0x182E JUMP JUMPDEST SWAP1 POP PUSH1 0x20 MUL ADD PUSH1 0x20 DUP2 ADD SWAP1 PUSH2 0xD0D SWAP2 SWAP1 PUSH2 0x1844 JUMP JUMPDEST SWAP1 POP PUSH1 0x0 DUP11 DUP11 DUP5 DUP2 DUP2 LT PUSH2 0xD23 JUMPI PUSH2 0xD23 PUSH2 0x182E JUMP JUMPDEST SWAP1 POP PUSH1 0x20 MUL ADD CALLDATALOAD SWAP1 POP CALLDATASIZE PUSH1 0x0 DUP11 DUP11 DUP7 DUP2 DUP2 LT PUSH2 0xD41 JUMPI PUSH2 0xD41 PUSH2 0x182E JUMP JUMPDEST SWAP1 POP PUSH1 0x20 MUL DUP2 ADD SWAP1 PUSH2 0xD53 SWAP2 SWAP1 PUSH2 0x185F JUMP JUMPDEST SWAP2 POP SWAP2 POP PUSH2 0xD63 DUP5 DUP5 DUP5 DUP5 PUSH2 0xF18 JUMP JUMPDEST DUP5 DUP7 PUSH32 0xC2617EFA69BAB66782FA219543714338489C4E9E178271560A91B82C3F612B58 DUP7 DUP7 DUP7 DUP7 PUSH1 0x40 MLOAD PUSH2 0xD9A SWAP5 SWAP4 SWAP3 SWAP2 SWAP1 PUSH2 0x1806 JUMP JUMPDEST PUSH1 0x40 MLOAD DUP1 SWAP2 SUB SWAP1 LOG3 POP POP POP POP DUP1 PUSH1 0x1 ADD SWAP1 POP PUSH2 0xCDC JUMP JUMPDEST POP PUSH2 0xDBB DUP2 PUSH2 0xF90 JUMP JUMPDEST POP POP POP POP POP POP POP POP POP POP JUMP JUMPDEST PUSH2 0xDD1 DUP2 CALLER PUSH2 0xE8D JUMP JUMPDEST POP JUMP JUMPDEST PUSH2 0xDDD DUP3 PUSH2 0x7D4 JUMP JUMPDEST ISZERO PUSH2 0xE0F JUMPI DUP2 PUSH2 0xDED PUSH1 0x0 PUSH2 0x10B9 JUMP JUMPDEST PUSH1 0x40 MLOAD PUSH4 0x5EAD8EB5 PUSH1 0xE0 SHL DUP2 MSTORE PUSH1 0x4 DUP2 ADD SWAP3 SWAP1 SWAP3 MSTORE PUSH1 0x24 DUP3 ADD MSTORE PUSH1 0x44 ADD PUSH2 0x89F JUMP JUMPDEST PUSH1 0x0 PUSH2 0xE1A PUSH1 0x2 SLOAD SWAP1 JUMP JUMPDEST SWAP1 POP DUP1 DUP3 LT ISZERO PUSH2 0xE47 JUMPI PUSH1 0x40 MLOAD PUSH4 0x54336609 PUSH1 0xE0 SHL DUP2 MSTORE PUSH1 0x4 DUP2 ADD DUP4 SWAP1 MSTORE PUSH1 0x24 DUP2 ADD DUP3 SWAP1 MSTORE PUSH1 0x44 ADD PUSH2 0x89F JUMP JUMPDEST PUSH2 0xE51 DUP3 TIMESTAMP PUSH2 0x19DF JUMP JUMPDEST PUSH1 0x0 SWAP4 DUP5 MSTORE PUSH1 0x1 PUSH1 0x20 MSTORE PUSH1 0x40 SWAP1 SWAP4 KECCAK256 SWAP3 SWAP1 SWAP3 SSTORE POP POP JUMP JUMPDEST PUSH1 0x0 PUSH1 0x1 PUSH1 0x1 PUSH1 0xE0 SHL SUB NOT DUP3 AND PUSH4 0x2711897 PUSH1 0xE5 SHL EQ DUP1 PUSH2 0x6BF JUMPI POP PUSH2 0x6BF DUP3 PUSH2 0x10DC JUMP JUMPDEST PUSH2 0xE97 DUP3 DUP3 PUSH2 0xB02 JUMP JUMPDEST PUSH2 0xEC6 JUMPI PUSH1 0x40 MLOAD PUSH4 0xE2517D3F PUSH1 0xE0 SHL DUP2 MSTORE PUSH1 0x1 PUSH1 0x1 PUSH1 0xA0 SHL SUB DUP3 AND PUSH1 0x4 DUP3 ADD MSTORE PUSH1 0x24 DUP2 ADD DUP4 SWAP1 MSTORE PUSH1 0x44 ADD PUSH2 0x89F JUMP JUMPDEST POP POP JUMP JUMPDEST PUSH2 0xED3 DUP3 PUSH2 0x77A JUMP JUMPDEST PUSH2 0xEE2 JUMPI DUP2 PUSH2 0xDED PUSH1 0x2 PUSH2 0x10B9 JUMP JUMPDEST DUP1 ISZERO DUP1 ISZERO SWAP1 PUSH2 0xEF7 JUMPI POP PUSH2 0xEF5 DUP2 PUSH2 0x7A0 JUMP JUMPDEST ISZERO JUMPDEST ISZERO PUSH2 0xEC6 JUMPI PUSH1 0x40 MLOAD PUSH4 0x121534C3 PUSH1 0xE3 SHL DUP2 MSTORE PUSH1 0x4 DUP2 ADD DUP3 SWAP1 MSTORE PUSH1 0x24 ADD PUSH2 0x89F JUMP JUMPDEST PUSH1 0x0 DUP1 DUP6 PUSH1 0x1 PUSH1 0x1 PUSH1 0xA0 SHL SUB AND DUP6 DUP6 DUP6 PUSH1 0x40 MLOAD PUSH2 0xF36 SWAP3 SWAP2 SWAP1 PUSH2 0x1A00 JUMP JUMPDEST PUSH1 0x0 PUSH1 0x40 MLOAD DUP1 DUP4 SUB DUP2 DUP6 DUP8 GAS CALL SWAP3 POP POP POP RETURNDATASIZE DUP1 PUSH1 0x0 DUP2 EQ PUSH2 0xF73 JUMPI PUSH1 0x40 MLOAD SWAP2 POP PUSH1 0x1F NOT PUSH1 0x3F RETURNDATASIZE ADD AND DUP3 ADD PUSH1 0x40 MSTORE RETURNDATASIZE DUP3 MSTORE RETURNDATASIZE PUSH1 0x0 PUSH1 0x20 DUP5 ADD RETURNDATACOPY PUSH2 0xF78 JUMP JUMPDEST PUSH1 0x60 SWAP2 POP JUMPDEST POP SWAP2 POP SWAP2 POP PUSH2 0xF87 DUP3 DUP3 PUSH2 0x1111 JUMP JUMPDEST POP POP POP POP POP POP POP JUMP JUMPDEST PUSH2 0xF99 DUP2 PUSH2 0x77A JUMP JUMPDEST PUSH2 0xFA8 JUMPI DUP1 PUSH2 0xDED PUSH1 0x2 PUSH2 0x10B9 JUMP JUMPDEST PUSH1 0x0 SWAP1 DUP2 MSTORE PUSH1 0x1 PUSH1 0x20 DUP2 SWAP1 MSTORE PUSH1 0x40 SWAP1 SWAP2 KECCAK256 SSTORE JUMP JUMPDEST PUSH1 0x0 PUSH2 0xFC8 DUP4 DUP4 PUSH2 0xB02 JUMP JUMPDEST PUSH2 0x1046 JUMPI PUSH1 0x0 DUP4 DUP2 MSTORE PUSH1 0x20 DUP2 DUP2 MSTORE PUSH1 0x40 DUP1 DUP4 KECCAK256 PUSH1 0x1 PUSH1 0x1 PUSH1 0xA0 SHL SUB DUP7 AND DUP5 MSTORE SWAP1 SWAP2 MSTORE SWAP1 KECCAK256 DUP1 SLOAD PUSH1 0xFF NOT AND PUSH1 0x1 OR SWAP1 SSTORE PUSH2 0xFFE CALLER SWAP1 JUMP JUMPDEST PUSH1 0x1 PUSH1 0x1 PUSH1 0xA0 SHL SUB AND DUP3 PUSH1 0x1 PUSH1 0x1 PUSH1 0xA0 SHL SUB AND DUP5 PUSH32 0x2F8788117E7EFF1D82E926EC794901D17C78024A50270940304540A733656F0D PUSH1 0x40 MLOAD PUSH1 0x40 MLOAD DUP1 SWAP2 SUB SWAP1 LOG4 POP PUSH1 0x1 PUSH2 0x6BF JUMP JUMPDEST POP PUSH1 0x0 PUSH2 0x6BF JUMP JUMPDEST PUSH1 0x0 PUSH2 0x105A DUP4 DUP4 PUSH2 0xB02 JUMP JUMPDEST ISZERO PUSH2 0x1046 JUMPI PUSH1 0x0 DUP4 DUP2 MSTORE PUSH1 0x20 DUP2 DUP2 MSTORE PUSH1 0x40 DUP1 DUP4 KECCAK256 PUSH1 0x1 PUSH1 0x1 PUSH1 0xA0 SHL SUB DUP7 AND DUP1 DUP6 MSTORE SWAP3 MSTORE DUP1 DUP4 KECCAK256 DUP1 SLOAD PUSH1 0xFF NOT AND SWAP1 SSTORE MLOAD CALLER SWAP3 DUP7 SWAP2 PUSH32 0xF6391F5C32D9C69D2A47EA670B442974B53935D1EDC7FD64EB21E047A839171B SWAP2 SWAP1 LOG4 POP PUSH1 0x1 PUSH2 0x6BF JUMP JUMPDEST PUSH1 0x0 DUP2 PUSH1 0x3 DUP2 GT ISZERO PUSH2 0x10CD JUMPI PUSH2 0x10CD PUSH2 0x1424 JUMP JUMPDEST PUSH1 0x1 PUSH1 0xFF SWAP2 SWAP1 SWAP2 AND SHL SWAP3 SWAP2 POP POP JUMP JUMPDEST PUSH1 0x0 PUSH1 0x1 PUSH1 0x1 PUSH1 0xE0 SHL SUB NOT DUP3 AND PUSH4 0x7965DB0B PUSH1 0xE0 SHL EQ DUP1 PUSH2 0x6BF JUMPI POP PUSH4 0x1FFC9A7 PUSH1 0xE0 SHL PUSH1 0x1 PUSH1 0x1 PUSH1 0xE0 SHL SUB NOT DUP4 AND EQ PUSH2 0x6BF JUMP JUMPDEST PUSH1 0x60 DUP3 PUSH2 0x1126 JUMPI PUSH2 0x1121 DUP3 PUSH2 0x112D JUMP JUMPDEST PUSH2 0x6BF JUMP JUMPDEST POP DUP1 PUSH2 0x6BF JUMP JUMPDEST DUP1 MLOAD ISZERO PUSH2 0x113D JUMPI DUP1 MLOAD DUP1 DUP3 PUSH1 0x20 ADD REVERT JUMPDEST PUSH1 0x40 MLOAD PUSH4 0xD6BDA275 PUSH1 0xE0 SHL DUP2 MSTORE PUSH1 0x4 ADD PUSH1 0x40 MLOAD DUP1 SWAP2 SUB SWAP1 REVERT JUMPDEST DUP1 CALLDATALOAD PUSH1 0x1 PUSH1 0x1 PUSH1 0xA0 SHL SUB DUP2 AND DUP2 EQ PUSH2 0x116D JUMPI PUSH1 0x0 DUP1 REVERT JUMPDEST SWAP2 SWAP1 POP JUMP JUMPDEST PUSH1 0x0 DUP1 DUP4 PUSH1 0x1F DUP5 ADD SLT PUSH2 0x1184 JUMPI PUSH1 0x0 DUP1 REVERT JUMPDEST POP DUP2 CALLDATALOAD PUSH1 0x1 PUSH1 0x1 PUSH1 0x40 SHL SUB DUP2 GT ISZERO PUSH2 0x119B JUMPI PUSH1 0x0 DUP1 REVERT JUMPDEST PUSH1 0x20 DUP4 ADD SWAP2 POP DUP4 PUSH1 0x20 DUP3 DUP6 ADD ADD GT ISZERO PUSH2 0x11B3 JUMPI PUSH1 0x0 DUP1 REVERT JUMPDEST SWAP3 POP SWAP3 SWAP1 POP JUMP JUMPDEST PUSH1 0x0 DUP1 PUSH1 0x0 DUP1 PUSH1 0x0 DUP1 PUSH1 0x0 PUSH1 0xC0 DUP9 DUP11 SUB SLT ISZERO PUSH2 0x11D5 JUMPI PUSH1 0x0 DUP1 REVERT JUMPDEST PUSH2 0x11DE DUP9 PUSH2 0x1156 JUMP JUMPDEST SWAP7 POP PUSH1 0x20 DUP9 ADD CALLDATALOAD SWAP6 POP PUSH1 0x40 DUP9 ADD CALLDATALOAD PUSH1 0x1 PUSH1 0x1 PUSH1 0x40 SHL SUB DUP2 GT ISZERO PUSH2 0x1200 JUMPI PUSH1 0x0 DUP1 REVERT JUMPDEST PUSH2 0x120C DUP11 DUP3 DUP12 ADD PUSH2 0x1172 JUMP JUMPDEST SWAP9 SWAP12 SWAP8 SWAP11 POP SWAP9 PUSH1 0x60 DUP2 ADD CALLDATALOAD SWAP8 PUSH1 0x80 DUP3 ADD CALLDATALOAD SWAP8 POP PUSH1 0xA0 SWAP1 SWAP2 ADD CALLDATALOAD SWAP6 POP SWAP4 POP POP POP POP JUMP JUMPDEST PUSH1 0x0 PUSH1 0x20 DUP3 DUP5 SUB SLT ISZERO PUSH2 0x1240 JUMPI PUSH1 0x0 DUP1 REVERT JUMPDEST DUP2 CALLDATALOAD PUSH1 0x1 PUSH1 0x1 PUSH1 0xE0 SHL SUB NOT DUP2 AND DUP2 EQ PUSH2 0x870 JUMPI PUSH1 0x0 DUP1 REVERT JUMPDEST PUSH1 0x0 DUP1 PUSH1 0x0 DUP1 PUSH1 0x0 DUP1 PUSH1 0xA0 DUP8 DUP10 SUB SLT ISZERO PUSH2 0x1271 JUMPI PUSH1 0x0 DUP1 REVERT JUMPDEST PUSH2 0x127A DUP8 PUSH2 0x1156 JUMP JUMPDEST SWAP6 POP PUSH1 0x20 DUP8 ADD CALLDATALOAD SWAP5 POP PUSH1 0x40 DUP8 ADD CALLDATALOAD PUSH1 0x1 PUSH1 0x1 PUSH1 0x40 SHL SUB DUP2 GT ISZERO PUSH2 0x129C JUMPI PUSH1 0x0 DUP1 REVERT JUMPDEST PUSH2 0x12A8 DUP10 DUP3 DUP11 ADD PUSH2 0x1172 JUMP JUMPDEST SWAP8 SWAP11 SWAP7 SWAP10 POP SWAP8 PUSH1 0x60 DUP2 ADD CALLDATALOAD SWAP7 PUSH1 0x80 SWAP1 SWAP2 ADD CALLDATALOAD SWAP6 POP SWAP4 POP POP POP POP JUMP JUMPDEST PUSH1 0x0 PUSH1 0x20 DUP3 DUP5 SUB SLT ISZERO PUSH2 0x12D5 JUMPI PUSH1 0x0 DUP1 REVERT JUMPDEST POP CALLDATALOAD SWAP2 SWAP1 POP JUMP JUMPDEST PUSH4 0x4E487B71 PUSH1 0xE0 SHL PUSH1 0x0 MSTORE PUSH1 0x41 PUSH1 0x4 MSTORE PUSH1 0x24 PUSH1 0x0 REVERT JUMPDEST PUSH1 0x40 MLOAD PUSH1 0x1F DUP3 ADD PUSH1 0x1F NOT AND DUP2 ADD PUSH1 0x1 PUSH1 0x1 PUSH1 0x40 SHL SUB DUP2 GT DUP3 DUP3 LT OR ISZERO PUSH2 0x131A JUMPI PUSH2 0x131A PUSH2 0x12DC JUMP JUMPDEST PUSH1 0x40 MSTORE SWAP2 SWAP1 POP JUMP JUMPDEST PUSH1 0x0 DUP3 PUSH1 0x1F DUP4 ADD SLT PUSH2 0x1333 JUMPI PUSH1 0x0 DUP1 REVERT JUMPDEST DUP2 CALLDATALOAD PUSH1 0x1 PUSH1 0x1 PUSH1 0x40 SHL SUB DUP2 GT ISZERO PUSH2 0x134C JUMPI PUSH2 0x134C PUSH2 0x12DC JUMP JUMPDEST PUSH2 0x135F PUSH1 0x1F DUP3 ADD PUSH1 0x1F NOT AND PUSH1 0x20 ADD PUSH2 0x12F2 JUMP JUMPDEST DUP2 DUP2 MSTORE DUP5 PUSH1 0x20 DUP4 DUP7 ADD ADD GT ISZERO PUSH2 0x1374 JUMPI PUSH1 0x0 DUP1 REVERT JUMPDEST DUP2 PUSH1 0x20 DUP6 ADD PUSH1 0x20 DUP4 ADD CALLDATACOPY PUSH1 0x0 SWAP2 DUP2 ADD PUSH1 0x20 ADD SWAP2 SWAP1 SWAP2 MSTORE SWAP4 SWAP3 POP POP POP JUMP JUMPDEST PUSH1 0x0 DUP1 PUSH1 0x0 DUP1 PUSH1 0x80 DUP6 DUP8 SUB SLT ISZERO PUSH2 0x13A7 JUMPI PUSH1 0x0 DUP1 REVERT JUMPDEST PUSH2 0x13B0 DUP6 PUSH2 0x1156 JUMP JUMPDEST SWAP4 POP PUSH2 0x13BE PUSH1 0x20 DUP7 ADD PUSH2 0x1156 JUMP JUMPDEST SWAP3 POP PUSH1 0x40 DUP6 ADD CALLDATALOAD SWAP2 POP PUSH1 0x60 DUP6 ADD CALLDATALOAD PUSH1 0x1 PUSH1 0x1 PUSH1 0x40 SHL SUB DUP2 GT ISZERO PUSH2 0x13E0 JUMPI PUSH1 0x0 DUP1 REVERT JUMPDEST PUSH2 0x13EC DUP8 DUP3 DUP9 ADD PUSH2 0x1322 JUMP JUMPDEST SWAP2 POP POP SWAP3 SWAP6 SWAP2 SWAP5 POP SWAP3 POP JUMP JUMPDEST PUSH1 0x0 DUP1 PUSH1 0x40 DUP4 DUP6 SUB SLT ISZERO PUSH2 0x140B JUMPI PUSH1 0x0 DUP1 REVERT JUMPDEST DUP3 CALLDATALOAD SWAP2 POP PUSH2 0x141B PUSH1 0x20 DUP5 ADD PUSH2 0x1156 JUMP JUMPDEST SWAP1 POP SWAP3 POP SWAP3 SWAP1 POP JUMP JUMPDEST PUSH4 0x4E487B71 PUSH1 0xE0 SHL PUSH1 0x0 MSTORE PUSH1 0x21 PUSH1 0x4 MSTORE PUSH1 0x24 PUSH1 0x0 REVERT JUMPDEST PUSH1 0x20 DUP2 ADD PUSH1 0x4 DUP4 LT PUSH2 0x145C JUMPI PUSH4 0x4E487B71 PUSH1 0xE0 SHL PUSH1 0x0 MSTORE PUSH1 0x21 PUSH1 0x4 MSTORE PUSH1 0x24 PUSH1 0x0 REVERT JUMPDEST SWAP2 SWAP1 MSTORE SWAP1 JUMP JUMPDEST PUSH1 0x0 DUP1 DUP4 PUSH1 0x1F DUP5 ADD SLT PUSH2 0x1474 JUMPI PUSH1 0x0 DUP1 REVERT JUMPDEST POP DUP2 CALLDATALOAD PUSH1 0x1 PUSH1 0x1 PUSH1 0x40 SHL SUB DUP2 GT ISZERO PUSH2 0x148B JUMPI PUSH1 0x0 DUP1 REVERT JUMPDEST PUSH1 0x20 DUP4 ADD SWAP2 POP DUP4 PUSH1 0x20 DUP3 PUSH1 0x5 SHL DUP6 ADD ADD GT ISZERO PUSH2 0x11B3 JUMPI PUSH1 0x0 DUP1 REVERT JUMPDEST PUSH1 0x0 DUP1 PUSH1 0x0 DUP1 PUSH1 0x0 DUP1 PUSH1 0x0 DUP1 PUSH1 0x0 PUSH1 0xC0 DUP11 DUP13 SUB SLT ISZERO PUSH2 0x14C4 JUMPI PUSH1 0x0 DUP1 REVERT JUMPDEST DUP10 CALLDATALOAD PUSH1 0x1 PUSH1 0x1 PUSH1 0x40 SHL SUB DUP2 GT ISZERO PUSH2 0x14DA JUMPI PUSH1 0x0 DUP1 REVERT JUMPDEST PUSH2 0x14E6 DUP13 DUP3 DUP14 ADD PUSH2 0x1462 JUMP JUMPDEST SWAP1 SWAP11 POP SWAP9 POP POP PUSH1 0x20 DUP11 ADD CALLDATALOAD PUSH1 0x1 PUSH1 0x1 PUSH1 0x40 SHL SUB DUP2 GT ISZERO PUSH2 0x1505 JUMPI PUSH1 0x0 DUP1 REVERT JUMPDEST PUSH2 0x1511 DUP13 DUP3 DUP14 ADD PUSH2 0x1462 JUMP JUMPDEST SWAP1 SWAP9 POP SWAP7 POP POP PUSH1 0x40 DUP11 ADD CALLDATALOAD PUSH1 0x1 PUSH1 0x1 PUSH1 0x40 SHL SUB DUP2 GT ISZERO PUSH2 0x1530 JUMPI PUSH1 0x0 DUP1 REVERT JUMPDEST PUSH2 0x153C DUP13 DUP3 DUP14 ADD PUSH2 0x1462 JUMP JUMPDEST SWAP11 SWAP14 SWAP10 SWAP13 POP SWAP8 SWAP11 SWAP7 SWAP10 SWAP8 SWAP9 PUSH1 0x60 DUP9 ADD CALLDATALOAD SWAP8 PUSH1 0x80 DUP2 ADD CALLDATALOAD SWAP8 POP PUSH1 0xA0 ADD CALLDATALOAD SWAP6 POP SWAP4 POP POP POP POP JUMP JUMPDEST PUSH1 0x0 DUP1 PUSH1 0x0 DUP1 PUSH1 0x0 DUP1 PUSH1 0x0 DUP1 PUSH1 0xA0 DUP10 DUP12 SUB SLT ISZERO PUSH2 0x157D JUMPI PUSH1 0x0 DUP1 REVERT JUMPDEST DUP9 CALLDATALOAD PUSH1 0x1 PUSH1 0x1 PUSH1 0x40 SHL SUB DUP2 GT ISZERO PUSH2 0x1593 JUMPI PUSH1 0x0 DUP1 REVERT JUMPDEST PUSH2 0x159F DUP12 DUP3 DUP13 ADD PUSH2 0x1462 JUMP JUMPDEST SWAP1 SWAP10 POP SWAP8 POP POP PUSH1 0x20 DUP10 ADD CALLDATALOAD PUSH1 0x1 PUSH1 0x1 PUSH1 0x40 SHL SUB DUP2 GT ISZERO PUSH2 0x15BE JUMPI PUSH1 0x0 DUP1 REVERT JUMPDEST PUSH2 0x15CA DUP12 DUP3 DUP13 ADD PUSH2 0x1462 JUMP JUMPDEST SWAP1 SWAP8 POP SWAP6 POP POP PUSH1 0x40 DUP10 ADD CALLDATALOAD PUSH1 0x1 PUSH1 0x1 PUSH1 0x40 SHL SUB DUP2 GT ISZERO PUSH2 0x15E9 JUMPI PUSH1 0x0 DUP1 REVERT JUMPDEST PUSH2 0x15F5 DUP12 DUP3 DUP13 ADD PUSH2 0x1462 JUMP JUMPDEST SWAP10 SWAP13 SWAP9 SWAP12 POP SWAP7 SWAP10 SWAP6 SWAP9 SWAP7 SWAP8 PUSH1 0x60 DUP8 ADD CALLDATALOAD SWAP7 PUSH1 0x80 ADD CALLDATALOAD SWAP6 POP SWAP4 POP POP POP POP JUMP JUMPDEST PUSH1 0x0 DUP3 PUSH1 0x1F DUP4 ADD SLT PUSH2 0x1624 JUMPI PUSH1 0x0 DUP1 REVERT JUMPDEST DUP2 CALLDATALOAD PUSH1 0x1 PUSH1 0x1 PUSH1 0x40 SHL SUB DUP2 GT ISZERO PUSH2 0x163D JUMPI PUSH2 0x163D PUSH2 0x12DC JUMP JUMPDEST DUP1 PUSH1 0x5 SHL PUSH2 0x164D PUSH1 0x20 DUP3 ADD PUSH2 0x12F2 JUMP JUMPDEST SWAP2 DUP3 MSTORE PUSH1 0x20 DUP2 DUP6 ADD DUP2 ADD SWAP3 SWAP1 DUP2 ADD SWAP1 DUP7 DUP5 GT ISZERO PUSH2 0x1669 JUMPI PUSH1 0x0 DUP1 REVERT JUMPDEST PUSH1 0x20 DUP7 ADD SWAP3 POP JUMPDEST DUP4 DUP4 LT ISZERO PUSH2 0x168B JUMPI DUP3 CALLDATALOAD DUP3 MSTORE PUSH1 0x20 SWAP3 DUP4 ADD SWAP3 SWAP1 SWAP2 ADD SWAP1 PUSH2 0x1670 JUMP JUMPDEST SWAP7 SWAP6 POP POP POP POP POP POP JUMP JUMPDEST PUSH1 0x0 DUP1 PUSH1 0x0 DUP1 PUSH1 0x0 PUSH1 0xA0 DUP7 DUP9 SUB SLT ISZERO PUSH2 0x16AD JUMPI PUSH1 0x0 DUP1 REVERT JUMPDEST PUSH2 0x16B6 DUP7 PUSH2 0x1156 JUMP JUMPDEST SWAP5 POP PUSH2 0x16C4 PUSH1 0x20 DUP8 ADD PUSH2 0x1156 JUMP JUMPDEST SWAP4 POP PUSH1 0x40 DUP7 ADD CALLDATALOAD PUSH1 0x1 PUSH1 0x1 PUSH1 0x40 SHL SUB DUP2 GT ISZERO PUSH2 0x16DF JUMPI PUSH1 0x0 DUP1 REVERT JUMPDEST PUSH2 0x16EB DUP9 DUP3 DUP10 ADD PUSH2 0x1613 JUMP JUMPDEST SWAP4 POP POP PUSH1 0x60 DUP7 ADD CALLDATALOAD PUSH1 0x1 PUSH1 0x1 PUSH1 0x40 SHL SUB DUP2 GT ISZERO PUSH2 0x1707 JUMPI PUSH1 0x0 DUP1 REVERT JUMPDEST PUSH2 0x1713 DUP9 DUP3 DUP10 ADD PUSH2 0x1613 JUMP JUMPDEST SWAP3 POP POP PUSH1 0x80 DUP7 ADD CALLDATALOAD PUSH1 0x1 PUSH1 0x1 PUSH1 0x40 SHL SUB DUP2 GT ISZERO PUSH2 0x172F JUMPI PUSH1 0x0 DUP1 REVERT JUMPDEST PUSH2 0x173B DUP9 DUP3 DUP10 ADD PUSH2 0x1322 JUMP JUMPDEST SWAP2 POP POP SWAP3 SWAP6 POP SWAP3 SWAP6 SWAP1 SWAP4 POP JUMP JUMPDEST PUSH1 0x0 DUP1 PUSH1 0x0 DUP1 PUSH1 0x0 PUSH1 0xA0 DUP7 DUP9 SUB SLT ISZERO PUSH2 0x1760 JUMPI PUSH1 0x0 DUP1 REVERT JUMPDEST PUSH2 0x1769 DUP7 PUSH2 0x1156 JUMP JUMPDEST SWAP5 POP PUSH2 0x1777 PUSH1 0x20 DUP8 ADD PUSH2 0x1156 JUMP JUMPDEST SWAP4 POP PUSH1 0x40 DUP7 ADD CALLDATALOAD SWAP3 POP PUSH1 0x60 DUP7 ADD CALLDATALOAD SWAP2 POP PUSH1 0x80 DUP7 ADD CALLDATALOAD PUSH1 0x1 PUSH1 0x1 PUSH1 0x40 SHL SUB DUP2 GT ISZERO PUSH2 0x172F JUMPI PUSH1 0x0 DUP1 REVERT JUMPDEST DUP2 DUP4 MSTORE DUP2 DUP2 PUSH1 0x20 DUP6 ADD CALLDATACOPY POP PUSH1 0x0 DUP3 DUP3 ADD PUSH1 0x20 SWAP1 DUP2 ADD SWAP2 SWAP1 SWAP2 MSTORE PUSH1 0x1F SWAP1 SWAP2 ADD PUSH1 0x1F NOT AND SWAP1 SWAP2 ADD ADD SWAP1 JUMP JUMPDEST PUSH1 0x1 DUP1 PUSH1 0xA0 SHL SUB DUP8 AND DUP2 MSTORE DUP6 PUSH1 0x20 DUP3 ADD MSTORE PUSH1 0xA0 PUSH1 0x40 DUP3 ADD MSTORE PUSH1 0x0 PUSH2 0x17F1 PUSH1 0xA0 DUP4 ADD DUP7 DUP9 PUSH2 0x17A0 JUMP JUMPDEST PUSH1 0x60 DUP4 ADD SWAP5 SWAP1 SWAP5 MSTORE POP PUSH1 0x80 ADD MSTORE SWAP5 SWAP4 POP POP POP POP JUMP JUMPDEST PUSH1 0x1 DUP1 PUSH1 0xA0 SHL SUB DUP6 AND DUP2 MSTORE DUP4 PUSH1 0x20 DUP3 ADD MSTORE PUSH1 0x60 PUSH1 0x40 DUP3 ADD MSTORE PUSH1 0x0 PUSH2 0x168B PUSH1 0x60 DUP4 ADD DUP5 DUP7 PUSH2 0x17A0 JUMP JUMPDEST PUSH4 0x4E487B71 PUSH1 0xE0 SHL PUSH1 0x0 MSTORE PUSH1 0x32 PUSH1 0x4 MSTORE PUSH1 0x24 PUSH1 0x0 REVERT JUMPDEST PUSH1 0x0 PUSH1 0x20 DUP3 DUP5 SUB SLT ISZERO PUSH2 0x1856 JUMPI PUSH1 0x0 DUP1 REVERT JUMPDEST PUSH2 0x870 DUP3 PUSH2 0x1156 JUMP JUMPDEST PUSH1 0x0 DUP1 DUP4 CALLDATALOAD PUSH1 0x1E NOT DUP5 CALLDATASIZE SUB ADD DUP2 SLT PUSH2 0x1876 JUMPI PUSH1 0x0 DUP1 REVERT JUMPDEST DUP4 ADD DUP1 CALLDATALOAD SWAP2 POP PUSH1 0x1 PUSH1 0x1 PUSH1 0x40 SHL SUB DUP3 GT ISZERO PUSH2 0x1890 JUMPI PUSH1 0x0 DUP1 REVERT JUMPDEST PUSH1 0x20 ADD SWAP2 POP CALLDATASIZE DUP2 SWAP1 SUB DUP3 SGT ISZERO PUSH2 0x11B3 JUMPI PUSH1 0x0 DUP1 REVERT JUMPDEST PUSH1 0x0 DUP4 DUP4 DUP6 MSTORE PUSH1 0x20 DUP6 ADD SWAP5 POP PUSH1 0x20 DUP5 PUSH1 0x5 SHL DUP3 ADD ADD DUP4 PUSH1 0x0 JUMPDEST DUP7 DUP2 LT ISZERO PUSH2 0x1932 JUMPI DUP4 DUP4 SUB PUSH1 0x1F NOT ADD DUP9 MSTORE DUP2 CALLDATALOAD CALLDATASIZE DUP8 SWAP1 SUB PUSH1 0x1E NOT ADD DUP2 SLT PUSH2 0x18E4 JUMPI PUSH1 0x0 DUP1 REVERT JUMPDEST DUP7 ADD PUSH1 0x20 DUP2 ADD SWAP1 CALLDATALOAD PUSH1 0x1 PUSH1 0x1 PUSH1 0x40 SHL SUB DUP2 GT ISZERO PUSH2 0x1900 JUMPI PUSH1 0x0 DUP1 REVERT JUMPDEST DUP1 CALLDATASIZE SUB DUP3 SGT ISZERO PUSH2 0x190F JUMPI PUSH1 0x0 DUP1 REVERT JUMPDEST PUSH2 0x191A DUP6 DUP3 DUP5 PUSH2 0x17A0 JUMP JUMPDEST PUSH1 0x20 SWAP11 DUP12 ADD SWAP11 SWAP1 SWAP6 POP SWAP4 SWAP1 SWAP4 ADD SWAP3 POP POP PUSH1 0x1 ADD PUSH2 0x18BE JUMP JUMPDEST POP SWAP1 SWAP7 SWAP6 POP POP POP POP POP POP JUMP JUMPDEST PUSH1 0xA0 DUP1 DUP3 MSTORE DUP2 ADD DUP9 SWAP1 MSTORE PUSH1 0x0 DUP10 PUSH1 0xC0 DUP4 ADD DUP3 JUMPDEST DUP12 DUP2 LT ISZERO PUSH2 0x197F JUMPI PUSH1 0x1 PUSH1 0x1 PUSH1 0xA0 SHL SUB PUSH2 0x196A DUP5 PUSH2 0x1156 JUMP JUMPDEST AND DUP3 MSTORE PUSH1 0x20 SWAP3 DUP4 ADD SWAP3 SWAP1 SWAP2 ADD SWAP1 PUSH1 0x1 ADD PUSH2 0x1951 JUMP JUMPDEST POP DUP4 DUP2 SUB PUSH1 0x20 DUP6 ADD MSTORE DUP9 DUP2 MSTORE PUSH1 0x1 PUSH1 0x1 PUSH1 0xFB SHL SUB DUP10 GT ISZERO PUSH2 0x199F JUMPI PUSH1 0x0 DUP1 REVERT JUMPDEST DUP9 PUSH1 0x5 SHL SWAP2 POP DUP2 DUP11 PUSH1 0x20 DUP4 ADD CALLDATACOPY ADD DUP3 DUP2 SUB PUSH1 0x20 SWAP1 DUP2 ADD PUSH1 0x40 DUP6 ADD MSTORE PUSH2 0x19C7 SWAP1 DUP3 ADD DUP8 DUP10 PUSH2 0x18A5 JUMP JUMPDEST PUSH1 0x60 DUP5 ADD SWAP6 SWAP1 SWAP6 MSTORE POP POP PUSH1 0x80 ADD MSTORE SWAP7 SWAP6 POP POP POP POP POP POP JUMP JUMPDEST DUP1 DUP3 ADD DUP1 DUP3 GT ISZERO PUSH2 0x6BF JUMPI PUSH4 0x4E487B71 PUSH1 0xE0 SHL PUSH1 0x0 MSTORE PUSH1 0x11 PUSH1 0x4 MSTORE PUSH1 0x24 PUSH1 0x0 REVERT JUMPDEST DUP2 DUP4 DUP3 CALLDATACOPY PUSH1 0x0 SWAP2 ADD SWAP1 DUP2 MSTORE SWAP2 SWAP1 POP JUMP INVALID LOG2 PUSH5 0x6970667358 0x22 SLT KECCAK256 0xC5 CALLVALUE LT DELEGATECALL 0xC0 0xBC SIGNEXTEND PUSH3 0xFBA0C6 DUP10 PUSH10 0x4546CC852547F0C05526 BLOBHASH PUSH3 0xA8EE5B 0xF7 GASPRICE SWAP7 0xBC PUSH5 0x736F6C6343 STOP ADDMOD SHR STOP CALLER "
				},
				"gasEstimates": {
					"creation": {
						"codeDepositCost": "1345200",
						"executionCost": "infinite",
						"totalCost": "infinite"
					},
					"external": {
						"CANCELLER_ROLE()": "284",
						"DEFAULT_ADMIN_ROLE()": "262",
						"EXECUTOR_ROLE()": "286",
						"PROPOSER_ROLE()": "285",
						"cancel(bytes32)": "11325",
						"execute(address,uint256,bytes,bytes32,bytes32)": "infinite",
						"executeBatch(address[],uint256[],bytes[],bytes32,bytes32)": "infinite",
						"getMinDelay()": "2402",
						"getOperationState(bytes32)": "2691",
						"getRoleAdmin(bytes32)": "2559",
						"getTimestamp(bytes32)": "2527",
						"grantRole(bytes32,address)": "infinite",
						"hasRole(bytes32,address)": "2696",
						"hashOperation(address,uint256,bytes,bytes32,bytes32)": "infinite",
						"hashOperationBatch(address[],uint256[],bytes[],bytes32,bytes32)": "infinite",
						"isOperation(bytes32)": "2693",
						"isOperationDone(bytes32)": "2658",
						"isOperationPending(bytes32)": "2734",
						"isOperationReady(bytes32)": "2669",
						"onERC1155BatchReceived(address,address,uint256[],uint256[],bytes)": "infinite",
						"onERC1155Received(address,address,uint256,uint256,bytes)": "infinite",
						"onERC721Received(address,address,uint256,bytes)": "infinite",
						"renounceRole(bytes32,address)": "29068",
						"revokeRole(bytes32,address)": "infinite",
						"schedule(address,uint256,bytes,bytes32,bytes32,uint256)": "infinite",
						"scheduleBatch(address[],uint256[],bytes[],bytes32,bytes32,uint256)": "infinite",
						"supportsInterface(bytes4)": "infinite",
						"updateDelay(uint256)": "25876"
					},
					"internal": {
						"_afterCall(bytes32)": "24562",
						"_beforeCall(bytes32,bytes32)": "infinite",
						"_encodeStateBitmap(enum TimelockController.OperationState)": "83",
						"_execute(address,uint256,bytes calldata)": "infinite",
						"_schedule(bytes32,uint256)": "infinite"
					}
				},
				"methodIdentifiers": {
					"CANCELLER_ROLE()": "b08e51c0",
					"DEFAULT_ADMIN_ROLE()": "a217fddf",
					"EXECUTOR_ROLE()": "07bd0265",
					"PROPOSER_ROLE()": "8f61f4f5",
					"cancel(bytes32)": "c4d252f5",
					"execute(address,uint256,bytes,bytes32,bytes32)": "134008d3",
					"executeBatch(address[],uint256[],bytes[],bytes32,bytes32)": "e38335e5",
					"getMinDelay()": "f27a0c92",
					"getOperationState(bytes32)": "7958004c",
					"getRoleAdmin(bytes32)": "248a9ca3",
					"getTimestamp(bytes32)": "d45c4435",
					"grantRole(bytes32,address)": "2f2ff15d",
					"hasRole(bytes32,address)": "91d14854",
					"hashOperation(address,uint256,bytes,bytes32,bytes32)": "8065657f",
					"hashOperationBatch(address[],uint256[],bytes[],bytes32,bytes32)": "b1c5f427",
					"isOperation(bytes32)": "31d50750",
					"isOperationDone(bytes32)": "2ab0f529",
					"isOperationPending(bytes32)": "584b153e",
					"isOperationReady(bytes32)": "13bc9f20",
					"onERC1155BatchReceived(address,address,uint256[],uint256[],bytes)": "bc197c81",
					"onERC1155Received(address,address,uint256,uint256,bytes)": "f23a6e61",
					"onERC721Received(address,address,uint256,bytes)": "150b7a02",
					"renounceRole(bytes32,address)": "36568abe",
					"revokeRole(bytes32,address)": "d547741f",
					"schedule(address,uint256,bytes,bytes32,bytes32,uint256)": "01d5062a",
					"scheduleBatch(address[],uint256[],bytes[],bytes32,bytes32,uint256)": "8f2a0bb0",
					"supportsInterface(bytes4)": "01ffc9a7",
					"updateDelay(uint256)": "64d62353"
				}
			},
			"storageLayout": {
				"storage": [
					{
						"astId": 26,
						"contract": ".deps/npm/@openzeppelin/contracts/governance/TimelockController.sol:TimelockController",
						"label": "_roles",
						"offset": 0,
						"slot": "0",
						"type": "t_mapping(t_bytes32,t_struct(RoleData)21_storage)"
					},
					{
						"astId": 420,
						"contract": ".deps/npm/@openzeppelin/contracts/governance/TimelockController.sol:TimelockController",
						"label": "_timestamps",
						"offset": 0,
						"slot": "1",
						"type": "t_mapping(t_bytes32,t_uint256)"
					},
					{
						"astId": 422,
						"contract": ".deps/npm/@openzeppelin/contracts/governance/TimelockController.sol:TimelockController",
						"label": "_minDelay",
						"offset": 0,
						"slot": "2",
						"type": "t_uint256"
					}
				],
				"types": {
					"t_address": {
						"encoding": "inplace",
						"label": "address",
						"numberOfBytes": "20"
					},
					"t_bool": {
						"encoding": "inplace",
						"label": "bool",
						"numberOfBytes": "1"
					},
					"t_bytes32": {
						"encoding": "inplace",
						"label": "bytes32",
						"numberOfBytes": "32"
					},
					"t_mapping(t_address,t_bool)": {
						"encoding": "mapping",
						"key": "t_address",
						"label": "mapping(address => bool)",
						"numberOfBytes": "32",
						"value": "t_bool"
					},
					"t_mapping(t_bytes32,t_struct(RoleData)21_storage)": {
						"encoding": "mapping",
						"key": "t_bytes32",
						"label": "mapping(bytes32 => struct AccessControl.RoleData)",
						"numberOfBytes": "32",
						"value": "t_struct(RoleData)21_storage"
					},
					"t_mapping(t_bytes32,t_uint256)": {
						"encoding": "mapping",
						"key": "t_bytes32",
						"label": "mapping(bytes32 => uint256)",
						"numberOfBytes": "32",
						"value": "t_uint256"
					},
					"t_struct(RoleData)21_storage": {
						"encoding": "inplace",
						"label": "struct AccessControl.RoleData",
						"members": [
							{
								"astId": 18,
								"contract": ".deps/npm/@openzeppelin/contracts/governance/TimelockController.sol:TimelockController",
								"label": "hasRole",
								"offset": 0,
								"slot": "0",
								"type": "t_mapping(t_address,t_bool)"
							},
							{
								"astId": 20,
								"contract": ".deps/npm/@openzeppelin/contracts/governance/TimelockController.sol:TimelockController",
								"label": "adminRole",
								"offset": 0,
								"slot": "1",
								"type": "t_bytes32"
							}
						],
						"numberOfBytes": "64"
					},
					"t_uint256": {
						"encoding": "inplace",
						"label": "uint256",
						"numberOfBytes": "32"
					}
				}
			},
			"userdoc": {
				"kind": "user",
				"methods": {},
				"version": 1
			}
		}
	}
}