{
	"core/UBI4ALLTrading.sol": {
		"UBI4ALLTrading": {
			"abi": [
				{
					"inputs": [
						{
							"internalType": "address",
							"name": "_ubi4allToken",
							"type": "address"
						},
						{
							"internalType": "address",
							"name": "_oracle",
							"type": "address"
						},
						{
							"internalType": "address",
							"name": "initialOwner",
							"type": "address"
						}
					],
					"stateMutability": "nonpayable",
					"type": "constructor"
				},
				{
					"inputs": [
						{
							"internalType": "address",
							"name": "owner",
							"type": "address"
						}
					],
					"name": "OwnableInvalidOwner",
					"type": "error"
				},
				{
					"inputs": [
						{
							"internalType": "address",
							"name": "account",
							"type": "address"
						}
					],
					"name": "OwnableUnauthorizedAccount",
					"type": "error"
				},
				{
					"anonymous": false,
					"inputs": [
						{
							"indexed": true,
							"internalType": "address",
							"name": "previousOwner",
							"type": "address"
						},
						{
							"indexed": true,
							"internalType": "address",
							"name": "newOwner",
							"type": "address"
						}
					],
					"name": "OwnershipTransferred",
					"type": "event"
				},
				{
					"anonymous": false,
					"inputs": [
						{
							"indexed": true,
							"internalType": "uint256",
							"name": "positionId",
							"type": "uint256"
						},
						{
							"indexed": false,
							"internalType": "int256",
							"name": "pnl",
							"type": "int256"
						}
					],
					"name": "PositionClosed",
					"type": "event"
				},
				{
					"anonymous": false,
					"inputs": [
						{
							"indexed": true,
							"internalType": "uint256",
							"name": "positionId",
							"type": "uint256"
						},
						{
							"indexed": false,
							"internalType": "address",
							"name": "liquidator",
							"type": "address"
						}
					],
					"name": "PositionLiquidated",
					"type": "event"
				},
				{
					"anonymous": false,
					"inputs": [
						{
							"indexed": true,
							"internalType": "uint256",
							"name": "positionId",
							"type": "uint256"
						},
						{
							"indexed": true,
							"internalType": "address",
							"name": "trader",
							"type": "address"
						},
						{
							"indexed": false,
							"internalType": "uint256",
							"name": "collateral",
							"type": "uint256"
						},
						{
							"indexed": false,
							"internalType": "uint256",
							"name": "size",
							"type": "uint256"
						},
						{
							"indexed": false,
							"internalType": "uint256",
							"name": "leverage",
							"type": "uint256"
						},
						{
							"indexed": false,
							"internalType": "bool",
							"name": "isLong",
							"type": "bool"
						}
					],
					"name": "PositionOpened",
					"type": "event"
				},
				{
					"inputs": [
						{
							"internalType": "uint256",
							"name": "positionId",
							"type": "uint256"
						}
					],
					"name": "closePosition",
					"outputs": [],
					"stateMutability": "nonpayable",
					"type": "function"
				},
				{
					"inputs": [],
					"name": "fundingRate",
					"outputs": [
						{
							"internalType": "uint256",
							"name": "",
							"type": "uint256"
						}
					],
					"stateMutability": "view",
					"type": "function"
				},
				{
					"inputs": [
						{
							"internalType": "uint256",
							"name": "positionId",
							"type": "uint256"
						}
					],
					"name": "liquidatePosition",
					"outputs": [],
					"stateMutability": "nonpayable",
					"type": "function"
				},
				{
					"inputs": [],
					"name": "liquidationThreshold",
					"outputs": [
						{
							"internalType": "uint256",
							"name": "",
							"type": "uint256"
						}
					],
					"stateMutability": "view",
					"type": "function"
				},
				{
					"inputs": [],
					"name": "maxLeverage",
					"outputs": [
						{
							"internalType": "uint256",
							"name": "",
							"type": "uint256"
						}
					],
					"stateMutability": "view",
					"type": "function"
				},
				{
					"inputs": [],
					"name": "minCollateral",
					"outputs": [
						{
							"internalType": "uint256",
							"name": "",
							"type": "uint256"
						}
					],
					"stateMutability": "view",
					"type": "function"
				},
				{
					"inputs": [],
					"name": "nextPositionId",
					"outputs": [
						{
							"internalType": "uint256",
							"name": "",
							"type": "uint256"
						}
					],
					"stateMutability": "view",
					"type": "function"
				},
				{
					"inputs": [
						{
							"internalType": "uint256",
							"name": "collateral",
							"type": "uint256"
						},
						{
							"internalType": "uint256",
							"name": "leverage",
							"type": "uint256"
						},
						{
							"internalType": "bool",
							"name": "isLong",
							"type": "bool"
						}
					],
					"name": "openPosition",
					"outputs": [],
					"stateMutability": "nonpayable",
					"type": "function"
				},
				{
					"inputs": [],
					"name": "oracle",
					"outputs": [
						{
							"internalType": "contract IUBI4ALLOracle",
							"name": "",
							"type": "address"
						}
					],
					"stateMutability": "view",
					"type": "function"
				},
				{
					"inputs": [],
					"name": "owner",
					"outputs": [
						{
							"internalType": "address",
							"name": "",
							"type": "address"
						}
					],
					"stateMutability": "view",
					"type": "function"
				},
				{
					"inputs": [
						{
							"internalType": "uint256",
							"name": "",
							"type": "uint256"
						}
					],
					"name": "positions",
					"outputs": [
						{
							"internalType": "address",
							"name": "trader",
							"type": "address"
						},
						{
							"internalType": "uint256",
							"name": "collateral",
							"type": "uint256"
						},
						{
							"internalType": "uint256",
							"name": "size",
							"type": "uint256"
						},
						{
							"internalType": "uint256",
							"name": "entryPrice",
							"type": "uint256"
						},
						{
							"internalType": "uint256",
							"name": "leverage",
							"type": "uint256"
						},
						{
							"internalType": "bool",
							"name": "isLong",
							"type": "bool"
						},
						{
							"internalType": "uint256",
							"name": "timestamp",
							"type": "uint256"
						},
						{
							"internalType": "uint256",
							"name": "liquidationPrice",
							"type": "uint256"
						}
					],
					"stateMutability": "view",
					"type": "function"
				},
				{
					"inputs": [],
					"name": "protocolFee",
					"outputs": [
						{
							"internalType": "uint256",
							"name": "",
							"type": "uint256"
						}
					],
					"stateMutability": "view",
					"type": "function"
				},
				{
					"inputs": [],
					"name": "renounceOwnership",
					"outputs": [],
					"stateMutability": "nonpayable",
					"type": "function"
				},
				{
					"inputs": [
						{
							"internalType": "uint256",
							"name": "_maxLeverage",
							"type": "uint256"
						}
					],
					"name": "setMaxLeverage",
					"outputs": [],
					"stateMutability": "nonpayable",
					"type": "function"
				},
				{
					"inputs": [
						{
							"internalType": "uint256",
							"name": "_minCollateral",
							"type": "uint256"
						}
					],
					"name": "setMinCollateral",
					"outputs": [],
					"stateMutability": "nonpayable",
					"type": "function"
				},
				{
					"inputs": [
						{
							"internalType": "address",
							"name": "newOwner",
							"type": "address"
						}
					],
					"name": "transferOwnership",
					"outputs": [],
					"stateMutability": "nonpayable",
					"type": "function"
				},
				{
					"inputs": [],
					"name": "ubi4allToken",
					"outputs": [
						{
							"internalType": "contract IERC20",
							"name": "",
							"type": "address"
						}
					],
					"stateMutability": "view",
					"type": "function"
				},
				{
					"inputs": [
						{
							"internalType": "address",
							"name": "",
							"type": "address"
						},
						{
							"internalType": "uint256",
							"name": "",
							"type": "uint256"
						}
					],
					"name": "userPositions",
					"outputs": [
						{
							"internalType": "uint256",
							"name": "",
							"type": "uint256"
						}
					],
					"stateMutability": "view",
					"type": "function"
				}
			],
			"devdoc": {
				"errors": {
					"OwnableInvalidOwner(address)": [
						{
							"details": "The owner is not a valid owner account. (eg. `address(0)`)"
						}
					],
					"OwnableUnauthorizedAccount(address)": [
						{
							"details": "The caller account is not authorized to perform an operation."
						}
					]
				},
				"kind": "dev",
				"methods": {
					"closePosition(uint256)": {
						"params": {
							"positionId": "ID della posizione da chiudere"
						}
					},
					"constructor": {
						"params": {
							"_oracle": "Indirizzo dell'oracolo",
							"_ubi4allToken": "Indirizzo del token UB4",
							"initialOwner": "Indirizzo del proprietario iniziale"
						}
					},
					"liquidatePosition(uint256)": {
						"params": {
							"positionId": "ID della posizione da liquidare"
						}
					},
					"openPosition(uint256,uint256,bool)": {
						"params": {
							"collateral": "Importo del collateral in UB4",
							"isLong": "True per posizione long, false per short",
							"leverage": "Livello di leva (1x a maxLeverage)"
						}
					},
					"owner()": {
						"details": "Returns the address of the current owner."
					},
					"renounceOwnership()": {
						"details": "Leaves the contract without owner. It will not be possible to call `onlyOwner` functions. Can only be called by the current owner. NOTE: Renouncing ownership will leave the contract without an owner, thereby disabling any functionality that is only available to the owner."
					},
					"setMaxLeverage(uint256)": {
						"params": {
							"_maxLeverage": "Nuovo valore della leva massima"
						}
					},
					"setMinCollateral(uint256)": {
						"params": {
							"_minCollateral": "Nuovo valore del collateral minimo"
						}
					},
					"transferOwnership(address)": {
						"details": "Transfers ownership of the contract to a new account (`newOwner`). Can only be called by the current owner."
					}
				},
				"title": "UBI4ALLTrading - Contratto per il trading con leva di UB4",
				"version": 1
			},
			"evm": {
				"assembly": "    /* \"core/UBI4ALLTrading.sol\":489:8899  contract UBI4ALLTrading is ReentrancyGuard, Ownable {... */\n  mstore(0x40, 0x80)\n    /* \"core/UBI4ALLTrading.sol\":1389:1390  1 */\n  0x01\n    /* \"core/UBI4ALLTrading.sol\":1357:1390  uint256 public nextPositionId = 1 */\n  0x04\n  sstore\n    /* \"core/UBI4ALLTrading.sol\":1459:1471  100 * 10**18 */\n  0x056bc75e2d63100000\n    /* \"core/UBI4ALLTrading.sol\":1428:1471  uint256 public minCollateral = 100 * 10**18 */\n  0x05\n  sstore\n    /* \"core/UBI4ALLTrading.sol\":1518:1520  10 */\n  0x0a\n    /* \"core/UBI4ALLTrading.sol\":1489:1520  uint256 public maxLeverage = 10 */\n  0x06\n  sstore\n    /* \"core/UBI4ALLTrading.sol\":1572:1576  8000 */\n  0x1f40\n    /* \"core/UBI4ALLTrading.sol\":1534:1576  uint256 public liquidationThreshold = 8000 */\n  0x07\n  sstore\n    /* \"core/UBI4ALLTrading.sol\":1632:1634  10 */\n  0x0a\n    /* \"core/UBI4ALLTrading.sol\":1603:1634  uint256 public fundingRate = 10 */\n  0x08\n  sstore\n    /* \"core/UBI4ALLTrading.sol\":1689:1691  50 */\n  0x32\n    /* \"core/UBI4ALLTrading.sol\":1660:1691  uint256 public protocolFee = 50 */\n  0x09\n  sstore\n    /* \"core/UBI4ALLTrading.sol\":2440:2773  constructor(address _ubi4allToken, address _oracle, address initialOwner) Ownable(initialOwner) {... */\n  callvalue\n  dup1\n  iszero\n  tag_1\n  jumpi\n  0x00\n  dup1\n  revert\ntag_1:\n  pop\n  mload(0x40)\n  sub(codesize, bytecodeSize)\n  dup1\n  bytecodeSize\n  dup4\n  codecopy\n  dup2\n  add\n  0x40\n  dup2\n  swap1\n  mstore\n  tag_2\n  swap2\n  tag_3\n  jump\t// in\ntag_2:\n    /* \"@openzeppelin/contracts/security/ReentrancyGuard.sol\":1717:1718  1 */\n  0x01\n    /* \"@openzeppelin/contracts/security/ReentrancyGuard.sol\":1822:1829  _status */\n  0x00\n    /* \"@openzeppelin/contracts/security/ReentrancyGuard.sol\":1822:1844  _status = _NOT_ENTERED */\n  sstore\n    /* \"core/UBI4ALLTrading.sol\":2522:2534  initialOwner */\n  dup1\n  sub(shl(0xa0, 0x01), 0x01)\n    /* \"@openzeppelin/contracts/access/Ownable.sol\":1273:1299  initialOwner == address(0) */\n  dup2\n  and\n    /* \"@openzeppelin/contracts/access/Ownable.sol\":1269:1364  if (initialOwner == address(0)) {... */\n  tag_9\n  jumpi\n    /* \"@openzeppelin/contracts/access/Ownable.sol\":1322:1353  OwnableInvalidOwner(address(0)) */\n  mload(0x40)\n  shl(0xe0, 0x1e4fbdf7)\n  dup2\n  mstore\n    /* \"@openzeppelin/contracts/access/Ownable.sol\":1350:1351  0 */\n  0x00\n    /* \"@openzeppelin/contracts/access/Ownable.sol\":1322:1353  OwnableInvalidOwner(address(0)) */\n  0x04\n  dup3\n  add\n    /* \"#utility.yul\":725:776   */\n  mstore\n    /* \"#utility.yul\":698:716   */\n  0x24\n  add\n    /* \"@openzeppelin/contracts/access/Ownable.sol\":1322:1353  OwnableInvalidOwner(address(0)) */\ntag_10:\n  mload(0x40)\n  dup1\n  swap2\n  sub\n  swap1\n  revert\n    /* \"@openzeppelin/contracts/access/Ownable.sol\":1269:1364  if (initialOwner == address(0)) {... */\ntag_9:\n    /* \"@openzeppelin/contracts/access/Ownable.sol\":1373:1405  _transferOwnership(initialOwner) */\n  tag_12\n    /* \"@openzeppelin/contracts/access/Ownable.sol\":1392:1404  initialOwner */\n  dup2\n    /* \"@openzeppelin/contracts/access/Ownable.sol\":1373:1391  _transferOwnership */\n  tag_13\n    /* \"@openzeppelin/contracts/access/Ownable.sol\":1373:1405  _transferOwnership(initialOwner) */\n  jump\t// in\ntag_12:\n  pop\n  sub(shl(0xa0, 0x01), 0x01)\n    /* \"core/UBI4ALLTrading.sol\":2555:2582  _ubi4allToken != address(0) */\n  dup4\n  and\n    /* \"core/UBI4ALLTrading.sol\":2547:2608  require(_ubi4allToken != address(0), \"Invalid token address\") */\n  tag_15\n  jumpi\n  mload(0x40)\n  shl(0xe5, 0x461bcd)\n  dup2\n  mstore\n    /* \"#utility.yul\":989:991   */\n  0x20\n    /* \"core/UBI4ALLTrading.sol\":2547:2608  require(_ubi4allToken != address(0), \"Invalid token address\") */\n  0x04\n  dup3\n  add\n    /* \"#utility.yul\":971:992   */\n  mstore\n    /* \"#utility.yul\":1028:1030   */\n  0x15\n    /* \"#utility.yul\":1008:1026   */\n  0x24\n  dup3\n  add\n    /* \"#utility.yul\":1001:1031   */\n  mstore\n    /* \"#utility.yul\":1067:1090   */\n  0x496e76616c696420746f6b656e20616464726573730000000000000000000000\n    /* \"#utility.yul\":1047:1065   */\n  0x44\n  dup3\n  add\n    /* \"#utility.yul\":1040:1091   */\n  mstore\n    /* \"#utility.yul\":1108:1126   */\n  0x64\n  add\n    /* \"core/UBI4ALLTrading.sol\":2547:2608  require(_ubi4allToken != address(0), \"Invalid token address\") */\n  tag_10\n    /* \"#utility.yul\":787:1132   */\n  jump\n    /* \"core/UBI4ALLTrading.sol\":2547:2608  require(_ubi4allToken != address(0), \"Invalid token address\") */\ntag_15:\n  sub(shl(0xa0, 0x01), 0x01)\n    /* \"core/UBI4ALLTrading.sol\":2627:2648  _oracle != address(0) */\n  dup3\n  and\n    /* \"core/UBI4ALLTrading.sol\":2619:2675  require(_oracle != address(0), \"Invalid oracle address\") */\n  tag_18\n  jumpi\n  mload(0x40)\n  shl(0xe5, 0x461bcd)\n  dup2\n  mstore\n    /* \"#utility.yul\":1339:1341   */\n  0x20\n    /* \"core/UBI4ALLTrading.sol\":2619:2675  require(_oracle != address(0), \"Invalid oracle address\") */\n  0x04\n  dup3\n  add\n    /* \"#utility.yul\":1321:1342   */\n  mstore\n    /* \"#utility.yul\":1378:1380   */\n  0x16\n    /* \"#utility.yul\":1358:1376   */\n  0x24\n  dup3\n  add\n    /* \"#utility.yul\":1351:1381   */\n  mstore\n    /* \"#utility.yul\":1417:1441   */\n  0x496e76616c6964206f7261636c65206164647265737300000000000000000000\n    /* \"#utility.yul\":1397:1415   */\n  0x44\n  dup3\n  add\n    /* \"#utility.yul\":1390:1442   */\n  mstore\n    /* \"#utility.yul\":1459:1477   */\n  0x64\n  add\n    /* \"core/UBI4ALLTrading.sol\":2619:2675  require(_oracle != address(0), \"Invalid oracle address\") */\n  tag_10\n    /* \"#utility.yul\":1137:1483   */\n  jump\n    /* \"core/UBI4ALLTrading.sol\":2619:2675  require(_oracle != address(0), \"Invalid oracle address\") */\ntag_18:\n  pop\n    /* \"core/UBI4ALLTrading.sol\":2686:2698  ubi4allToken */\n  0x0a\n    /* \"core/UBI4ALLTrading.sol\":2686:2722  ubi4allToken = IERC20(_ubi4allToken) */\n  dup1\n  sload\n  sub(shl(0xa0, 0x01), 0x01)\n  swap4\n  dup5\n  and\n  not(sub(shl(0xa0, 0x01), 0x01))\n  swap2\n  dup3\n  and\n  or\n  swap1\n  swap2\n  sstore\n    /* \"core/UBI4ALLTrading.sol\":2733:2739  oracle */\n  0x0b\n    /* \"core/UBI4ALLTrading.sol\":2733:2765  oracle = IUBI4ALLOracle(_oracle) */\n  dup1\n  sload\n  swap3\n  swap1\n  swap4\n  and\n  swap2\n  and\n  or\n  swap1\n  sstore\n    /* \"core/UBI4ALLTrading.sol\":489:8899  contract UBI4ALLTrading is ReentrancyGuard, Ownable {... */\n  jump(tag_24)\n    /* \"@openzeppelin/contracts/access/Ownable.sol\":2912:3099  function _transferOwnership(address newOwner) internal virtual {... */\ntag_13:\n    /* \"@openzeppelin/contracts/access/Ownable.sol\":3004:3010  _owner */\n  0x01\n  dup1\n  sload\n  sub(shl(0xa0, 0x01), 0x01)\n    /* \"@openzeppelin/contracts/access/Ownable.sol\":3020:3037  _owner = newOwner */\n  dup4\n  dup2\n  and\n  not(sub(shl(0xa0, 0x01), 0x01))\n  dup4\n  and\n  dup2\n  or\n  swap1\n  swap4\n  sstore\n    /* \"@openzeppelin/contracts/access/Ownable.sol\":3052:3092  OwnershipTransferred(oldOwner, newOwner) */\n  mload(0x40)\n    /* \"@openzeppelin/contracts/access/Ownable.sol\":3004:3010  _owner */\n  swap2\n  and\n  swap2\n    /* \"@openzeppelin/contracts/access/Ownable.sol\":3020:3037  _owner = newOwner */\n  swap1\n    /* \"@openzeppelin/contracts/access/Ownable.sol\":3004:3010  _owner */\n  dup3\n  swap1\n    /* \"@openzeppelin/contracts/access/Ownable.sol\":3052:3092  OwnershipTransferred(oldOwner, newOwner) */\n  0x8be0079c531659141344cd1fd0a4f28419497f9722a3daafe3b4186f6b6457e0\n  swap1\n    /* \"@openzeppelin/contracts/access/Ownable.sol\":2985:3001  address oldOwner */\n  0x00\n  swap1\n    /* \"@openzeppelin/contracts/access/Ownable.sol\":3052:3092  OwnershipTransferred(oldOwner, newOwner) */\n  log3\n    /* \"@openzeppelin/contracts/access/Ownable.sol\":2975:3099  {... */\n  pop\n    /* \"@openzeppelin/contracts/access/Ownable.sol\":2912:3099  function _transferOwnership(address newOwner) internal virtual {... */\n  pop\n  jump\t// out\n    /* \"#utility.yul\":14:191   */\ntag_23:\n    /* \"#utility.yul\":93:106   */\n  dup1\n  mload\n  sub(shl(0xa0, 0x01), 0x01)\n    /* \"#utility.yul\":135:166   */\n  dup2\n  and\n    /* \"#utility.yul\":125:167   */\n  dup2\n  eq\n    /* \"#utility.yul\":115:185   */\n  tag_26\n  jumpi\n    /* \"#utility.yul\":181:182   */\n  0x00\n    /* \"#utility.yul\":178:179   */\n  dup1\n    /* \"#utility.yul\":171:183   */\n  revert\n    /* \"#utility.yul\":115:185   */\ntag_26:\n    /* \"#utility.yul\":14:191   */\n  swap2\n  swap1\n  pop\n  jump\t// out\n    /* \"#utility.yul\":196:574   */\ntag_3:\n    /* \"#utility.yul\":284:290   */\n  0x00\n    /* \"#utility.yul\":292:298   */\n  dup1\n    /* \"#utility.yul\":300:306   */\n  0x00\n    /* \"#utility.yul\":353:355   */\n  0x60\n    /* \"#utility.yul\":341:350   */\n  dup5\n    /* \"#utility.yul\":332:339   */\n  dup7\n    /* \"#utility.yul\":328:351   */\n  sub\n    /* \"#utility.yul\":324:356   */\n  slt\n    /* \"#utility.yul\":321:373   */\n  iszero\n  tag_28\n  jumpi\n    /* \"#utility.yul\":369:370   */\n  0x00\n    /* \"#utility.yul\":366:367   */\n  dup1\n    /* \"#utility.yul\":359:371   */\n  revert\n    /* \"#utility.yul\":321:373   */\ntag_28:\n    /* \"#utility.yul\":392:432   */\n  tag_29\n    /* \"#utility.yul\":422:431   */\n  dup5\n    /* \"#utility.yul\":392:432   */\n  tag_23\n  jump\t// in\ntag_29:\n    /* \"#utility.yul\":382:432   */\n  swap3\n  pop\n    /* \"#utility.yul\":451:500   */\n  tag_30\n    /* \"#utility.yul\":496:498   */\n  0x20\n    /* \"#utility.yul\":485:494   */\n  dup6\n    /* \"#utility.yul\":481:499   */\n  add\n    /* \"#utility.yul\":451:500   */\n  tag_23\n  jump\t// in\ntag_30:\n    /* \"#utility.yul\":441:500   */\n  swap2\n  pop\n    /* \"#utility.yul\":519:568   */\n  tag_31\n    /* \"#utility.yul\":564:566   */\n  0x40\n    /* \"#utility.yul\":553:562   */\n  dup6\n    /* \"#utility.yul\":549:567   */\n  add\n    /* \"#utility.yul\":519:568   */\n  tag_23\n  jump\t// in\ntag_31:\n    /* \"#utility.yul\":509:568   */\n  swap1\n  pop\n    /* \"#utility.yul\":196:574   */\n  swap3\n  pop\n  swap3\n  pop\n  swap3\n  jump\t// out\n    /* \"#utility.yul\":1137:1483   */\ntag_24:\n    /* \"core/UBI4ALLTrading.sol\":489:8899  contract UBI4ALLTrading is ReentrancyGuard, Ownable {... */\n  dataSize(sub_0)\n  dup1\n  dataOffset(sub_0)\n  0x00\n  codecopy\n  0x00\n  return\nstop\n\nsub_0: assembly {\n        /* \"core/UBI4ALLTrading.sol\":489:8899  contract UBI4ALLTrading is ReentrancyGuard, Ownable {... */\n      mstore(0x40, 0x80)\n      callvalue\n      dup1\n      iszero\n      tag_1\n      jumpi\n      0x00\n      dup1\n      revert\n    tag_1:\n      pop\n      jumpi(tag_2, lt(calldatasize, 0x04))\n      shr(0xe0, calldataload(0x00))\n      dup1\n      0x8da5cb5b\n      gt\n      tag_21\n      jumpi\n      dup1\n      0xb0e21e8a\n      gt\n      tag_22\n      jumpi\n      dup1\n      0xb0e21e8a\n      eq\n      tag_16\n      jumpi\n      dup1\n      0xba2de9bc\n      eq\n      tag_17\n      jumpi\n      dup1\n      0xcdddd4e5\n      eq\n      tag_18\n      jumpi\n      dup1\n      0xd3127e63\n      eq\n      tag_19\n      jumpi\n      dup1\n      0xf2fde38b\n      eq\n      tag_20\n      jumpi\n      0x00\n      dup1\n      revert\n    tag_22:\n      dup1\n      0x8da5cb5b\n      eq\n      tag_12\n      jumpi\n      dup1\n      0x99fbab88\n      eq\n      tag_13\n      jumpi\n      dup1\n      0xa126d601\n      eq\n      tag_14\n      jumpi\n      dup1\n      0xae3302c2\n      eq\n      tag_15\n      jumpi\n      0x00\n      dup1\n      revert\n    tag_21:\n      dup1\n      0x5e1b4d99\n      gt\n      tag_23\n      jumpi\n      dup1\n      0x5e1b4d99\n      eq\n      tag_7\n      jumpi\n      dup1\n      0x715018a6\n      eq\n      tag_8\n      jumpi\n      dup1\n      0x7dc0d1d0\n      eq\n      tag_9\n      jumpi\n      dup1\n      0x846321a4\n      eq\n      tag_10\n      jumpi\n      dup1\n      0x899346c7\n      eq\n      tag_11\n      jumpi\n      0x00\n      dup1\n      revert\n    tag_23:\n      dup1\n      0x10d67098\n      eq\n      tag_3\n      jumpi\n      dup1\n      0x1558c966\n      eq\n      tag_4\n      jumpi\n      dup1\n      0x4031234c\n      eq\n      tag_5\n      jumpi\n      dup1\n      0x41d3c84c\n      eq\n      tag_6\n      jumpi\n    tag_2:\n      0x00\n      dup1\n      revert\n        /* \"core/UBI4ALLTrading.sol\":1747:1773  IERC20 public ubi4allToken */\n    tag_3:\n      sload(0x0a)\n      tag_24\n      swap1\n      sub(shl(0xa0, 0x01), 0x01)\n      and\n      dup2\n      jump\n    tag_24:\n      mload(0x40)\n      sub(shl(0xa0, 0x01), 0x01)\n        /* \"#utility.yul\":192:224   */\n      swap1\n      swap2\n      and\n        /* \"#utility.yul\":174:225   */\n      dup2\n      mstore\n        /* \"#utility.yul\":162:164   */\n      0x20\n        /* \"#utility.yul\":147:165   */\n      add\n        /* \"core/UBI4ALLTrading.sol\":1747:1773  IERC20 public ubi4allToken */\n    tag_26:\n      mload(0x40)\n      dup1\n      swap2\n      sub\n      swap1\n      return\n        /* \"core/UBI4ALLTrading.sol\":3007:4424  function openPosition(uint256 collateral, uint256 leverage, bool isLong) external nonReentrant {... */\n    tag_4:\n      tag_28\n      tag_29\n      calldatasize\n      0x04\n      tag_30\n      jump\t// in\n    tag_29:\n      tag_31\n      jump\t// in\n    tag_28:\n      stop\n        /* \"core/UBI4ALLTrading.sol\":1534:1576  uint256 public liquidationThreshold = 8000 */\n    tag_5:\n      tag_32\n      sload(0x07)\n      dup2\n      jump\n    tag_32:\n      mload(0x40)\n        /* \"#utility.yul\":991:1016   */\n      swap1\n      dup2\n      mstore\n        /* \"#utility.yul\":979:981   */\n      0x20\n        /* \"#utility.yul\":964:982   */\n      add\n        /* \"core/UBI4ALLTrading.sol\":1534:1576  uint256 public liquidationThreshold = 8000 */\n      tag_26\n        /* \"#utility.yul\":845:1022   */\n      jump\n        /* \"core/UBI4ALLTrading.sol\":1603:1634  uint256 public fundingRate = 10 */\n    tag_6:\n      tag_32\n      sload(0x08)\n      dup2\n      jump\n        /* \"core/UBI4ALLTrading.sol\":1237:1287  mapping(address => uint256[]) public userPositions */\n    tag_7:\n      tag_32\n      tag_40\n      calldatasize\n      0x04\n      tag_41\n      jump\t// in\n    tag_40:\n      tag_42\n      jump\t// in\n        /* \"@openzeppelin/contracts/access/Ownable.sol\":2293:2394  function renounceOwnership() public virtual onlyOwner {... */\n    tag_8:\n      tag_28\n      tag_45\n      jump\t// in\n        /* \"core/UBI4ALLTrading.sol\":1793:1821  IUBI4ALLOracle public oracle */\n    tag_9:\n      sload(0x0b)\n      tag_24\n      swap1\n      sub(shl(0xa0, 0x01), 0x01)\n      and\n      dup2\n      jump\n        /* \"core/UBI4ALLTrading.sol\":7858:8036  function setMinCollateral(uint256 _minCollateral) external onlyOwner {... */\n    tag_10:\n      tag_28\n      tag_51\n      calldatasize\n      0x04\n      tag_52\n      jump\t// in\n    tag_51:\n      tag_53\n      jump\t// in\n        /* \"core/UBI4ALLTrading.sol\":1357:1390  uint256 public nextPositionId = 1 */\n    tag_11:\n      tag_32\n      sload(0x04)\n      dup2\n      jump\n        /* \"@openzeppelin/contracts/access/Ownable.sol\":1638:1723  function owner() public view virtual returns (address) {... */\n    tag_12:\n        /* \"@openzeppelin/contracts/access/Ownable.sol\":1710:1716  _owner */\n      and(sub(shl(0xa0, 0x01), 0x01), sload(0x01))\n        /* \"@openzeppelin/contracts/access/Ownable.sol\":1638:1723  function owner() public view virtual returns (address) {... */\n      jump(tag_24)\n        /* \"core/UBI4ALLTrading.sol\":1147:1192  mapping(uint256 => Position) public positions */\n    tag_13:\n      tag_61\n      tag_62\n      calldatasize\n      0x04\n      tag_52\n      jump\t// in\n    tag_62:\n      0x02\n      0x20\n      dup2\n      swap1\n      mstore\n      0x00\n      swap2\n      dup3\n      mstore\n      0x40\n      swap1\n      swap2\n      keccak256\n      dup1\n      sload\n      0x01\n      dup3\n      add\n      sload\n      swap3\n      dup3\n      add\n      sload\n      0x03\n      dup4\n      add\n      sload\n      0x04\n      dup5\n      add\n      sload\n      0x05\n      dup6\n      add\n      sload\n      0x06\n      dup7\n      add\n      sload\n      0x07\n      swap1\n      swap7\n      add\n      sload\n      sub(shl(0xa0, 0x01), 0x01)\n      swap1\n      swap6\n      and\n      swap7\n      swap6\n      swap4\n      swap5\n      swap3\n      swap4\n      swap2\n      swap3\n      0xff\n      swap1\n      swap2\n      and\n      swap2\n      swap1\n      dup9\n      jump\n    tag_61:\n      0x40\n      dup1\n      mload\n      sub(shl(0xa0, 0x01), 0x01)\n        /* \"#utility.yul\":2535:2567   */\n      swap1\n      swap10\n      and\n        /* \"#utility.yul\":2517:2568   */\n      dup10\n      mstore\n        /* \"#utility.yul\":2599:2601   */\n      0x20\n        /* \"#utility.yul\":2584:2602   */\n      dup10\n      add\n        /* \"#utility.yul\":2577:2611   */\n      swap8\n      swap1\n      swap8\n      mstore\n        /* \"#utility.yul\":2627:2645   */\n      swap6\n      dup8\n      add\n        /* \"#utility.yul\":2620:2654   */\n      swap5\n      swap1\n      swap5\n      mstore\n        /* \"#utility.yul\":2685:2687   */\n      0x60\n        /* \"#utility.yul\":2670:2688   */\n      dup7\n      add\n        /* \"#utility.yul\":2663:2697   */\n      swap3\n      swap1\n      swap3\n      mstore\n        /* \"#utility.yul\":2728:2731   */\n      0x80\n        /* \"#utility.yul\":2713:2732   */\n      dup6\n      add\n        /* \"#utility.yul\":2706:2741   */\n      mstore\n        /* \"#utility.yul\":2785:2799   */\n      iszero\n        /* \"#utility.yul\":2778:2800   */\n      iszero\n        /* \"#utility.yul\":2555:2558   */\n      0xa0\n        /* \"#utility.yul\":2757:2776   */\n      dup5\n      add\n        /* \"#utility.yul\":2750:2801   */\n      mstore\n        /* \"#utility.yul\":2832:2835   */\n      0xc0\n        /* \"#utility.yul\":2817:2836   */\n      dup4\n      add\n        /* \"#utility.yul\":2810:2845   */\n      mstore\n        /* \"#utility.yul\":2876:2879   */\n      0xe0\n        /* \"#utility.yul\":2861:2880   */\n      dup3\n      add\n        /* \"#utility.yul\":2854:2889   */\n      mstore\n        /* \"#utility.yul\":2504:2507   */\n      0x0100\n        /* \"#utility.yul\":2489:2508   */\n      add\n        /* \"core/UBI4ALLTrading.sol\":1147:1192  mapping(uint256 => Position) public positions */\n      tag_26\n        /* \"#utility.yul\":2180:2895   */\n      jump\n        /* \"core/UBI4ALLTrading.sol\":4550:5745  function closePosition(uint256 positionId) external nonReentrant {... */\n    tag_14:\n      tag_28\n      tag_67\n      calldatasize\n      0x04\n      tag_52\n      jump\t// in\n    tag_67:\n      tag_68\n      jump\t// in\n        /* \"core/UBI4ALLTrading.sol\":1489:1520  uint256 public maxLeverage = 10 */\n    tag_15:\n      tag_32\n      sload(0x06)\n      dup2\n      jump\n        /* \"core/UBI4ALLTrading.sol\":1660:1691  uint256 public protocolFee = 50 */\n    tag_16:\n      tag_32\n      sload(0x09)\n      dup2\n      jump\n        /* \"core/UBI4ALLTrading.sol\":1428:1471  uint256 public minCollateral = 100 * 10**18 */\n    tag_17:\n      tag_32\n      sload(0x05)\n      dup2\n      jump\n        /* \"core/UBI4ALLTrading.sol\":5890:6925  function liquidatePosition(uint256 positionId) external nonReentrant {... */\n    tag_18:\n      tag_28\n      tag_79\n      calldatasize\n      0x04\n      tag_52\n      jump\t// in\n    tag_79:\n      tag_80\n      jump\t// in\n        /* \"core/UBI4ALLTrading.sol\":8146:8313  function setMaxLeverage(uint256 _maxLeverage) external onlyOwner {... */\n    tag_19:\n      tag_28\n      tag_82\n      calldatasize\n      0x04\n      tag_52\n      jump\t// in\n    tag_82:\n      tag_83\n      jump\t// in\n        /* \"@openzeppelin/contracts/access/Ownable.sol\":2543:2758  function transferOwnership(address newOwner) public virtual onlyOwner {... */\n    tag_20:\n      tag_28\n      tag_85\n      calldatasize\n      0x04\n      tag_86\n      jump\t// in\n    tag_85:\n      tag_87\n      jump\t// in\n        /* \"core/UBI4ALLTrading.sol\":3007:4424  function openPosition(uint256 collateral, uint256 leverage, bool isLong) external nonReentrant {... */\n    tag_31:\n        /* \"@openzeppelin/contracts/security/ReentrancyGuard.sol\":2262:2283  _nonReentrantBefore() */\n      tag_89\n        /* \"@openzeppelin/contracts/security/ReentrancyGuard.sol\":2262:2281  _nonReentrantBefore */\n      tag_90\n        /* \"@openzeppelin/contracts/security/ReentrancyGuard.sol\":2262:2283  _nonReentrantBefore() */\n      jump\t// in\n    tag_89:\n        /* \"core/UBI4ALLTrading.sol\":3135:3148  minCollateral */\n      sload(0x05)\n        /* \"core/UBI4ALLTrading.sol\":3121:3131  collateral */\n      dup4\n        /* \"core/UBI4ALLTrading.sol\":3121:3148  collateral >= minCollateral */\n      lt\n      iszero\n        /* \"core/UBI4ALLTrading.sol\":3113:3176  require(collateral >= minCollateral, \"Insufficient collateral\") */\n      tag_92\n      jumpi\n      mload(0x40)\n      shl(0xe5, 0x461bcd)\n      dup2\n      mstore\n        /* \"#utility.yul\":3293:3295   */\n      0x20\n        /* \"core/UBI4ALLTrading.sol\":3113:3176  require(collateral >= minCollateral, \"Insufficient collateral\") */\n      0x04\n      dup3\n      add\n        /* \"#utility.yul\":3275:3296   */\n      mstore\n        /* \"#utility.yul\":3332:3334   */\n      0x17\n        /* \"#utility.yul\":3312:3330   */\n      0x24\n      dup3\n      add\n        /* \"#utility.yul\":3305:3335   */\n      mstore\n        /* \"#utility.yul\":3371:3396   */\n      0x496e73756666696369656e7420636f6c6c61746572616c000000000000000000\n        /* \"#utility.yul\":3351:3369   */\n      0x44\n      dup3\n      add\n        /* \"#utility.yul\":3344:3397   */\n      mstore\n        /* \"#utility.yul\":3414:3432   */\n      0x64\n      add\n        /* \"core/UBI4ALLTrading.sol\":3113:3176  require(collateral >= minCollateral, \"Insufficient collateral\") */\n    tag_93:\n      mload(0x40)\n      dup1\n      swap2\n      sub\n      swap1\n      revert\n    tag_92:\n        /* \"core/UBI4ALLTrading.sol\":3207:3208  1 */\n      0x01\n        /* \"core/UBI4ALLTrading.sol\":3195:3203  leverage */\n      dup3\n        /* \"core/UBI4ALLTrading.sol\":3195:3208  leverage >= 1 */\n      lt\n      iszero\n        /* \"core/UBI4ALLTrading.sol\":3195:3235  leverage >= 1 && leverage <= maxLeverage */\n      dup1\n      iszero\n      tag_95\n      jumpi\n      pop\n        /* \"core/UBI4ALLTrading.sol\":3224:3235  maxLeverage */\n      sload(0x06)\n        /* \"core/UBI4ALLTrading.sol\":3212:3220  leverage */\n      dup3\n        /* \"core/UBI4ALLTrading.sol\":3212:3235  leverage <= maxLeverage */\n      gt\n      iszero\n        /* \"core/UBI4ALLTrading.sol\":3195:3235  leverage >= 1 && leverage <= maxLeverage */\n    tag_95:\n        /* \"core/UBI4ALLTrading.sol\":3187:3256  require(leverage >= 1 && leverage <= maxLeverage, \"Invalid leverage\") */\n      tag_96\n      jumpi\n      mload(0x40)\n      shl(0xe5, 0x461bcd)\n      dup2\n      mstore\n        /* \"#utility.yul\":3645:3647   */\n      0x20\n        /* \"core/UBI4ALLTrading.sol\":3187:3256  require(leverage >= 1 && leverage <= maxLeverage, \"Invalid leverage\") */\n      0x04\n      dup3\n      add\n        /* \"#utility.yul\":3627:3648   */\n      mstore\n        /* \"#utility.yul\":3684:3686   */\n      0x10\n        /* \"#utility.yul\":3664:3682   */\n      0x24\n      dup3\n      add\n        /* \"#utility.yul\":3657:3687   */\n      mstore\n      shl(0x80, 0x496e76616c6964206c65766572616765)\n        /* \"#utility.yul\":3703:3721   */\n      0x44\n      dup3\n      add\n        /* \"#utility.yul\":3696:3742   */\n      mstore\n        /* \"#utility.yul\":3759:3777   */\n      0x64\n      add\n        /* \"core/UBI4ALLTrading.sol\":3187:3256  require(leverage >= 1 && leverage <= maxLeverage, \"Invalid leverage\") */\n      tag_93\n        /* \"#utility.yul\":3443:3783   */\n      jump\n        /* \"core/UBI4ALLTrading.sol\":3187:3256  require(leverage >= 1 && leverage <= maxLeverage, \"Invalid leverage\") */\n    tag_96:\n        /* \"core/UBI4ALLTrading.sol\":3315:3327  ubi4allToken */\n      sload(0x0a)\n        /* \"core/UBI4ALLTrading.sol\":3315:3379  ubi4allToken.transferFrom(msg.sender, address(this), collateral) */\n      mload(0x40)\n      shl(0xe0, 0x23b872dd)\n      dup2\n      mstore\n        /* \"core/UBI4ALLTrading.sol\":3341:3351  msg.sender */\n      caller\n        /* \"core/UBI4ALLTrading.sol\":3315:3379  ubi4allToken.transferFrom(msg.sender, address(this), collateral) */\n      0x04\n      dup3\n      add\n        /* \"#utility.yul\":3990:4041   */\n      mstore\n        /* \"core/UBI4ALLTrading.sol\":3361:3365  this */\n      address\n        /* \"#utility.yul\":4057:4075   */\n      0x24\n      dup3\n      add\n        /* \"#utility.yul\":4050:4110   */\n      mstore\n        /* \"#utility.yul\":4126:4144   */\n      0x44\n      dup2\n      add\n        /* \"#utility.yul\":4119:4153   */\n      dup6\n      swap1\n      mstore\n      sub(shl(0xa0, 0x01), 0x01)\n        /* \"core/UBI4ALLTrading.sol\":3315:3327  ubi4allToken */\n      swap1\n      swap2\n      and\n      swap1\n        /* \"core/UBI4ALLTrading.sol\":3315:3340  ubi4allToken.transferFrom */\n      0x23b872dd\n      swap1\n        /* \"#utility.yul\":3963:3981   */\n      0x64\n      add\n        /* \"core/UBI4ALLTrading.sol\":3315:3379  ubi4allToken.transferFrom(msg.sender, address(this), collateral) */\n      0x20\n      mload(0x40)\n      dup1\n      dup4\n      sub\n      dup2\n      0x00\n      dup8\n      gas\n      call\n      iszero\n      dup1\n      iszero\n      tag_102\n      jumpi\n      returndatasize\n      0x00\n      dup1\n      returndatacopy\n      revert(0x00, returndatasize)\n    tag_102:\n      pop\n      pop\n      pop\n      pop\n      mload(0x40)\n      returndatasize\n      not(0x1f)\n      0x1f\n      dup3\n      add\n      and\n      dup3\n      add\n      dup1\n      0x40\n      mstore\n      pop\n      dup2\n      add\n      swap1\n      tag_103\n      swap2\n      swap1\n      tag_104\n      jump\t// in\n    tag_103:\n        /* \"core/UBI4ALLTrading.sol\":3307:3399  require(ubi4allToken.transferFrom(msg.sender, address(this), collateral), \"Transfer failed\") */\n      tag_105\n      jumpi\n      mload(0x40)\n      shl(0xe5, 0x461bcd)\n      dup2\n      mstore\n      0x04\n      add\n      tag_93\n      swap1\n      tag_107\n      jump\t// in\n    tag_105:\n        /* \"core/UBI4ALLTrading.sol\":3489:3495  oracle */\n      sload(0x0b)\n        /* \"core/UBI4ALLTrading.sol\":3489:3524  oracle.getPrice(bytes32(\"EUR/USD\")) */\n      mload(0x40)\n      shl(0xe0, 0x31d98b3f)\n      dup2\n      mstore\n      shl(0xca, 0x1155548bd554d1)\n      0x04\n      dup3\n      add\n        /* \"#utility.yul\":991:1016   */\n      mstore\n        /* \"core/UBI4ALLTrading.sol\":3451:3469  uint256 entryPrice */\n      0x00\n      swap2\n      dup3\n      swap2\n      sub(shl(0xa0, 0x01), 0x01)\n        /* \"core/UBI4ALLTrading.sol\":3489:3495  oracle */\n      swap1\n      swap2\n      and\n      swap1\n        /* \"core/UBI4ALLTrading.sol\":3489:3504  oracle.getPrice */\n      0x31d98b3f\n      swap1\n        /* \"#utility.yul\":964:982   */\n      0x24\n      add\n        /* \"core/UBI4ALLTrading.sol\":3489:3524  oracle.getPrice(bytes32(\"EUR/USD\")) */\n      0x60\n      mload(0x40)\n      dup1\n      dup4\n      sub\n      dup2\n      dup7\n      gas\n      staticcall\n      iszero\n      dup1\n      iszero\n      tag_111\n      jumpi\n      returndatasize\n      0x00\n      dup1\n      returndatacopy\n      revert(0x00, returndatasize)\n    tag_111:\n      pop\n      pop\n      pop\n      pop\n      mload(0x40)\n      returndatasize\n      not(0x1f)\n      0x1f\n      dup3\n      add\n      and\n      dup3\n      add\n      dup1\n      0x40\n      mstore\n      pop\n      dup2\n      add\n      swap1\n      tag_112\n      swap2\n      swap1\n      tag_113\n      jump\t// in\n    tag_112:\n        /* \"core/UBI4ALLTrading.sol\":3450:3524  (uint256 entryPrice, , bool isValid) = oracle.getPrice(bytes32(\"EUR/USD\")) */\n      swap3\n      pop\n      pop\n      swap2\n      pop\n        /* \"core/UBI4ALLTrading.sol\":3543:3550  isValid */\n      dup1\n        /* \"core/UBI4ALLTrading.sol\":3535:3568  require(isValid, \"Invalid price\") */\n      tag_114\n      jumpi\n      mload(0x40)\n      shl(0xe5, 0x461bcd)\n      dup2\n      mstore\n      0x04\n      add\n      tag_93\n      swap1\n      tag_116\n      jump\t// in\n    tag_114:\n        /* \"core/UBI4ALLTrading.sol\":3626:3638  uint256 size */\n      0x00\n        /* \"core/UBI4ALLTrading.sol\":3641:3662  collateral * leverage */\n      tag_117\n        /* \"core/UBI4ALLTrading.sol\":3654:3662  leverage */\n      dup6\n        /* \"core/UBI4ALLTrading.sol\":3641:3651  collateral */\n      dup8\n        /* \"core/UBI4ALLTrading.sol\":3641:3662  collateral * leverage */\n      tag_118\n      jump\t// in\n    tag_117:\n        /* \"core/UBI4ALLTrading.sol\":3626:3662  uint256 size = collateral * leverage */\n      swap1\n      pop\n        /* \"core/UBI4ALLTrading.sol\":3673:3697  uint256 liquidationPrice */\n      0x00\n        /* \"core/UBI4ALLTrading.sol\":3700:3706  isLong */\n      dup5\n        /* \"core/UBI4ALLTrading.sol\":3700:3860  isLong... */\n      tag_119\n      jumpi\n        /* \"core/UBI4ALLTrading.sol\":3795:3860  entryPrice.mulDiv(10000 + liquidationThreshold, 10000 * leverage) */\n      tag_120\n        /* \"core/UBI4ALLTrading.sol\":3821:3841  liquidationThreshold */\n      sload(0x07)\n        /* \"core/UBI4ALLTrading.sol\":3813:3818  10000 */\n      0x2710\n        /* \"core/UBI4ALLTrading.sol\":3813:3841  10000 + liquidationThreshold */\n      tag_121\n      swap2\n      swap1\n      tag_122\n      jump\t// in\n    tag_121:\n        /* \"core/UBI4ALLTrading.sol\":3843:3859  10000 * leverage */\n      tag_123\n        /* \"core/UBI4ALLTrading.sol\":3851:3859  leverage */\n      dup9\n        /* \"core/UBI4ALLTrading.sol\":3843:3848  10000 */\n      0x2710\n        /* \"core/UBI4ALLTrading.sol\":3843:3859  10000 * leverage */\n      tag_118\n      jump\t// in\n    tag_123:\n        /* \"core/UBI4ALLTrading.sol\":3795:3805  entryPrice */\n      dup7\n      swap2\n        /* \"core/UBI4ALLTrading.sol\":3795:3860  entryPrice.mulDiv(10000 + liquidationThreshold, 10000 * leverage) */\n      swap1\n        /* \"core/UBI4ALLTrading.sol\":3795:3812  entryPrice.mulDiv */\n      tag_124\n        /* \"core/UBI4ALLTrading.sol\":3795:3860  entryPrice.mulDiv(10000 + liquidationThreshold, 10000 * leverage) */\n      jump\t// in\n    tag_120:\n        /* \"core/UBI4ALLTrading.sol\":3700:3860  isLong... */\n      jump(tag_126)\n    tag_119:\n        /* \"core/UBI4ALLTrading.sol\":3740:3760  liquidationThreshold */\n      sload(0x07)\n        /* \"core/UBI4ALLTrading.sol\":3722:3779  entryPrice.mulDiv(liquidationThreshold, 10000 * leverage) */\n      tag_126\n      swap1\n        /* \"core/UBI4ALLTrading.sol\":3762:3778  10000 * leverage */\n      tag_123\n        /* \"core/UBI4ALLTrading.sol\":3770:3778  leverage */\n      dup9\n        /* \"core/UBI4ALLTrading.sol\":3762:3767  10000 */\n      0x2710\n        /* \"core/UBI4ALLTrading.sol\":3762:3778  10000 * leverage */\n      tag_118\n      jump\t// in\n        /* \"core/UBI4ALLTrading.sol\":3722:3779  entryPrice.mulDiv(liquidationThreshold, 10000 * leverage) */\n    tag_126:\n        /* \"core/UBI4ALLTrading.sol\":3931:4236  Position({... */\n      0x40\n      dup1\n      mload\n      0x0100\n      dup2\n      add\n      dup3\n      mstore\n        /* \"core/UBI4ALLTrading.sol\":3963:3973  msg.sender */\n      caller\n        /* \"core/UBI4ALLTrading.sol\":3931:4236  Position({... */\n      dup1\n      dup3\n      mstore\n      0x20\n      dup1\n      dup4\n      add\n      dup13\n      dup2\n      mstore\n      dup4\n      dup6\n      add\n      dup9\n      dup2\n      mstore\n      0x60\n      dup6\n      add\n      dup12\n      dup2\n      mstore\n      0x80\n      dup7\n      add\n      dup15\n      dup2\n      mstore\n      dup14\n      iszero\n      iszero\n      0xa0\n      dup9\n      add\n      swap1\n      dup2\n      mstore\n        /* \"core/UBI4ALLTrading.sol\":4160:4175  block.timestamp */\n      timestamp\n        /* \"core/UBI4ALLTrading.sol\":3931:4236  Position({... */\n      0xc0\n      dup10\n      add\n      swap1\n      dup2\n      mstore\n      0xe0\n      dup10\n      add\n      dup12\n      dup2\n      mstore\n        /* \"core/UBI4ALLTrading.sol\":3913:3927  nextPositionId */\n      0x04\n      dup1\n      sload\n      0x00\n        /* \"core/UBI4ALLTrading.sol\":3903:3928  positions[nextPositionId] */\n      swap1\n      dup2\n      mstore\n        /* \"core/UBI4ALLTrading.sol\":3903:3912  positions */\n      0x02\n        /* \"core/UBI4ALLTrading.sol\":3903:3928  positions[nextPositionId] */\n      dup1\n      dup12\n      mstore\n      dup14\n      dup3\n      keccak256\n        /* \"core/UBI4ALLTrading.sol\":3903:4236  positions[nextPositionId] = Position({... */\n      swap13\n      mload\n      dup14\n      sload\n      sub(shl(0xa0, 0x01), 0x01)\n      swap2\n      swap1\n      swap2\n      and\n      not(sub(shl(0xa0, 0x01), 0x01))\n      swap1\n      swap2\n      and\n      or\n      dup14\n      sstore\n      swap9\n      mload\n      0x01\n      dup1\n      dup15\n      add\n      swap2\n      swap1\n      swap2\n      sstore\n      swap8\n      mload\n      swap9\n      dup13\n      add\n      swap9\n      swap1\n      swap9\n      sstore\n      swap5\n      mload\n      0x03\n      dup1\n      dup13\n      add\n      swap2\n      swap1\n      swap2\n      sstore\n      swap4\n      mload\n      dup11\n      dup7\n      add\n      sstore\n      swap2\n      mload\n      0x05\n      dup11\n      add\n      dup1\n      sload\n      swap2\n      iszero\n      iszero\n      not(0xff)\n      swap1\n      swap3\n      and\n      swap2\n      swap1\n      swap2\n      or\n      swap1\n      sstore\n      mload\n      0x06\n      dup10\n      add\n      sstore\n      mload\n      0x07\n      swap1\n      swap8\n      add\n      swap7\n      swap1\n      swap7\n      sstore\n        /* \"core/UBI4ALLTrading.sol\":4249:4274  userPositions[msg.sender] */\n      dup5\n      dup4\n      mstore\n      swap5\n      dup4\n      mstore\n      dup6\n      dup3\n      keccak256\n        /* \"core/UBI4ALLTrading.sol\":4280:4294  nextPositionId */\n      dup6\n      sload\n        /* \"core/UBI4ALLTrading.sol\":4249:4295  userPositions[msg.sender].push(nextPositionId) */\n      dup2\n      sload\n      swap3\n      dup4\n      add\n      dup3\n      sstore\n      swap1\n      dup4\n      mstore\n      swap3\n      swap1\n      swap2\n      keccak256\n      add\n      sstore\n        /* \"core/UBI4ALLTrading.sol\":4326:4340  nextPositionId */\n      swap1\n      sload\n        /* \"core/UBI4ALLTrading.sol\":4311:4389  PositionOpened(nextPositionId, msg.sender, collateral, size, leverage, isLong) */\n      swap2\n      mload\n        /* \"core/UBI4ALLTrading.sol\":3673:3860  uint256 liquidationPrice = isLong... */\n      swap3\n      swap4\n      pop\n        /* \"core/UBI4ALLTrading.sol\":3963:3973  msg.sender */\n      swap2\n        /* \"core/UBI4ALLTrading.sol\":4311:4389  PositionOpened(nextPositionId, msg.sender, collateral, size, leverage, isLong) */\n      0xc777b444aea25c2f8905fb974030d522f61d044da18f577cfdb67b3f4f66df40\n      swap1\n      tag_129\n      swap1\n        /* \"core/UBI4ALLTrading.sol\":4000:4010  collateral */\n      dup12\n      swap1\n        /* \"core/UBI4ALLTrading.sol\":4031:4035  size */\n      dup8\n      swap1\n        /* \"core/UBI4ALLTrading.sol\":4097:4105  leverage */\n      dup13\n      swap1\n        /* \"core/UBI4ALLTrading.sol\":4128:4134  isLong */\n      dup13\n      swap1\n        /* \"#utility.yul\":6418:6443   */\n      swap4\n      dup5\n      mstore\n        /* \"#utility.yul\":6474:6476   */\n      0x20\n        /* \"#utility.yul\":6459:6477   */\n      dup5\n      add\n        /* \"#utility.yul\":6452:6486   */\n      swap3\n      swap1\n      swap3\n      mstore\n        /* \"#utility.yul\":6517:6519   */\n      0x40\n        /* \"#utility.yul\":6502:6520   */\n      dup4\n      add\n        /* \"#utility.yul\":6495:6529   */\n      mstore\n        /* \"#utility.yul\":6572:6586   */\n      iszero\n        /* \"#utility.yul\":6565:6587   */\n      iszero\n        /* \"#utility.yul\":6560:6562   */\n      0x60\n        /* \"#utility.yul\":6545:6563   */\n      dup3\n      add\n        /* \"#utility.yul\":6538:6588   */\n      mstore\n        /* \"#utility.yul\":6405:6408   */\n      0x80\n        /* \"#utility.yul\":6390:6409   */\n      add\n      swap1\n        /* \"#utility.yul\":6193:6594   */\n      jump\n        /* \"core/UBI4ALLTrading.sol\":4311:4389  PositionOpened(nextPositionId, msg.sender, collateral, size, leverage, isLong) */\n    tag_129:\n      mload(0x40)\n      dup1\n      swap2\n      sub\n      swap1\n      log3\n        /* \"core/UBI4ALLTrading.sol\":4400:4414  nextPositionId */\n      0x04\n        /* \"core/UBI4ALLTrading.sol\":4400:4416  nextPositionId++ */\n      dup1\n      sload\n      swap1\n        /* \"core/UBI4ALLTrading.sol\":4400:4414  nextPositionId */\n      0x00\n        /* \"core/UBI4ALLTrading.sol\":4400:4416  nextPositionId++ */\n      tag_131\n      dup4\n      tag_132\n      jump\t// in\n    tag_131:\n      swap2\n      swap1\n      pop\n      sstore\n      pop\n        /* \"core/UBI4ALLTrading.sol\":3102:4424  {... */\n      pop\n      pop\n      pop\n      pop\n        /* \"@openzeppelin/contracts/security/ReentrancyGuard.sol\":2304:2324  _nonReentrantAfter() */\n      tag_133\n        /* \"@openzeppelin/contracts/security/ReentrancyGuard.sol\":1717:1718  1 */\n      0x01\n        /* \"@openzeppelin/contracts/security/ReentrancyGuard.sol\":2810:2817  _status */\n      0x00\n        /* \"@openzeppelin/contracts/security/ReentrancyGuard.sol\":2810:2832  _status = _NOT_ENTERED */\n      sstore\n        /* \"@openzeppelin/contracts/security/ReentrancyGuard.sol\":2630:2839  function _nonReentrantAfter() private {... */\n      jump\n        /* \"@openzeppelin/contracts/security/ReentrancyGuard.sol\":2304:2324  _nonReentrantAfter() */\n    tag_133:\n        /* \"core/UBI4ALLTrading.sol\":3007:4424  function openPosition(uint256 collateral, uint256 leverage, bool isLong) external nonReentrant {... */\n      pop\n      pop\n      pop\n      jump\t// out\n        /* \"core/UBI4ALLTrading.sol\":1237:1287  mapping(address => uint256[]) public userPositions */\n    tag_42:\n      mstore(0x20, 0x03)\n      dup2\n      0x00\n      mstore\n      keccak256(0x00, 0x40)\n      dup2\n      dup2\n      sload\n      dup2\n      lt\n      tag_135\n      jumpi\n      0x00\n      dup1\n      revert\n    tag_135:\n      swap1\n      0x00\n      mstore\n      keccak256(0x00, 0x20)\n      add\n      0x00\n      swap2\n      pop\n      swap2\n      pop\n      pop\n      sload\n      dup2\n      jump\t// out\n        /* \"@openzeppelin/contracts/access/Ownable.sol\":2293:2394  function renounceOwnership() public virtual onlyOwner {... */\n    tag_45:\n        /* \"@openzeppelin/contracts/access/Ownable.sol\":1531:1544  _checkOwner() */\n      tag_138\n        /* \"@openzeppelin/contracts/access/Ownable.sol\":1531:1542  _checkOwner */\n      tag_139\n        /* \"@openzeppelin/contracts/access/Ownable.sol\":1531:1544  _checkOwner() */\n      jump\t// in\n    tag_138:\n        /* \"@openzeppelin/contracts/access/Ownable.sol\":2357:2387  _transferOwnership(address(0)) */\n      tag_141\n        /* \"@openzeppelin/contracts/access/Ownable.sol\":2384:2385  0 */\n      0x00\n        /* \"@openzeppelin/contracts/access/Ownable.sol\":2357:2375  _transferOwnership */\n      tag_142\n        /* \"@openzeppelin/contracts/access/Ownable.sol\":2357:2387  _transferOwnership(address(0)) */\n      jump\t// in\n    tag_141:\n        /* \"@openzeppelin/contracts/access/Ownable.sol\":2293:2394  function renounceOwnership() public virtual onlyOwner {... */\n      jump\t// out\n        /* \"core/UBI4ALLTrading.sol\":7858:8036  function setMinCollateral(uint256 _minCollateral) external onlyOwner {... */\n    tag_53:\n        /* \"@openzeppelin/contracts/access/Ownable.sol\":1531:1544  _checkOwner() */\n      tag_144\n        /* \"@openzeppelin/contracts/access/Ownable.sol\":1531:1542  _checkOwner */\n      tag_139\n        /* \"@openzeppelin/contracts/access/Ownable.sol\":1531:1544  _checkOwner() */\n      jump\t// in\n    tag_144:\n        /* \"core/UBI4ALLTrading.sol\":7963:7964  0 */\n      0x00\n        /* \"core/UBI4ALLTrading.sol\":7946:7960  _minCollateral */\n      dup2\n        /* \"core/UBI4ALLTrading.sol\":7946:7964  _minCollateral > 0 */\n      gt\n        /* \"core/UBI4ALLTrading.sol\":7938:7987  require(_minCollateral > 0, \"Invalid collateral\") */\n      tag_146\n      jumpi\n      mload(0x40)\n      shl(0xe5, 0x461bcd)\n      dup2\n      mstore\n        /* \"#utility.yul\":6941:6943   */\n      0x20\n        /* \"core/UBI4ALLTrading.sol\":7938:7987  require(_minCollateral > 0, \"Invalid collateral\") */\n      0x04\n      dup3\n      add\n        /* \"#utility.yul\":6923:6944   */\n      mstore\n        /* \"#utility.yul\":6980:6982   */\n      0x12\n        /* \"#utility.yul\":6960:6978   */\n      0x24\n      dup3\n      add\n        /* \"#utility.yul\":6953:6983   */\n      mstore\n      shl(0x72, 0x125b9d985b1a590818dbdb1b185d195c985b)\n        /* \"#utility.yul\":6999:7017   */\n      0x44\n      dup3\n      add\n        /* \"#utility.yul\":6992:7040   */\n      mstore\n        /* \"#utility.yul\":7057:7075   */\n      0x64\n      add\n        /* \"core/UBI4ALLTrading.sol\":7938:7987  require(_minCollateral > 0, \"Invalid collateral\") */\n      tag_93\n        /* \"#utility.yul\":6739:7081   */\n      jump\n        /* \"core/UBI4ALLTrading.sol\":7938:7987  require(_minCollateral > 0, \"Invalid collateral\") */\n    tag_146:\n        /* \"core/UBI4ALLTrading.sol\":7998:8011  minCollateral */\n      0x05\n        /* \"core/UBI4ALLTrading.sol\":7998:8028  minCollateral = _minCollateral */\n      sstore\n        /* \"core/UBI4ALLTrading.sol\":7858:8036  function setMinCollateral(uint256 _minCollateral) external onlyOwner {... */\n      jump\t// out\n        /* \"core/UBI4ALLTrading.sol\":4550:5745  function closePosition(uint256 positionId) external nonReentrant {... */\n    tag_68:\n        /* \"@openzeppelin/contracts/security/ReentrancyGuard.sol\":2262:2283  _nonReentrantBefore() */\n      tag_151\n        /* \"@openzeppelin/contracts/security/ReentrancyGuard.sol\":2262:2281  _nonReentrantBefore */\n      tag_90\n        /* \"@openzeppelin/contracts/security/ReentrancyGuard.sol\":2262:2283  _nonReentrantBefore() */\n      jump\t// in\n    tag_151:\n        /* \"core/UBI4ALLTrading.sol\":4626:4651  Position storage position */\n      0x00\n        /* \"core/UBI4ALLTrading.sol\":4654:4675  positions[positionId] */\n      dup2\n      dup2\n      mstore\n        /* \"core/UBI4ALLTrading.sol\":4654:4663  positions */\n      0x02\n        /* \"core/UBI4ALLTrading.sol\":4654:4675  positions[positionId] */\n      0x20\n      mstore\n      0x40\n      swap1\n      keccak256\n        /* \"core/UBI4ALLTrading.sol\":4694:4709  position.trader */\n      dup1\n      sload\n      sub(shl(0xa0, 0x01), 0x01)\n      and\n        /* \"core/UBI4ALLTrading.sol\":4713:4723  msg.sender */\n      caller\n        /* \"core/UBI4ALLTrading.sol\":4694:4723  position.trader == msg.sender */\n      eq\n        /* \"core/UBI4ALLTrading.sol\":4686:4745  require(position.trader == msg.sender, \"Not your position\") */\n      tag_153\n      jumpi\n      mload(0x40)\n      shl(0xe5, 0x461bcd)\n      dup2\n      mstore\n        /* \"#utility.yul\":7288:7290   */\n      0x20\n        /* \"core/UBI4ALLTrading.sol\":4686:4745  require(position.trader == msg.sender, \"Not your position\") */\n      0x04\n      dup3\n      add\n        /* \"#utility.yul\":7270:7291   */\n      mstore\n        /* \"#utility.yul\":7327:7329   */\n      0x11\n        /* \"#utility.yul\":7307:7325   */\n      0x24\n      dup3\n      add\n        /* \"#utility.yul\":7300:7330   */\n      mstore\n      shl(0x79, 0x2737ba103cb7bab9103837b9b4ba34b7b7)\n        /* \"#utility.yul\":7346:7364   */\n      0x44\n      dup3\n      add\n        /* \"#utility.yul\":7339:7386   */\n      mstore\n        /* \"#utility.yul\":7403:7421   */\n      0x64\n      add\n        /* \"core/UBI4ALLTrading.sol\":4686:4745  require(position.trader == msg.sender, \"Not your position\") */\n      tag_93\n        /* \"#utility.yul\":7086:7427   */\n      jump\n        /* \"core/UBI4ALLTrading.sol\":4686:4745  require(position.trader == msg.sender, \"Not your position\") */\n    tag_153:\n        /* \"core/UBI4ALLTrading.sol\":4786:4787  0 */\n      0x00\n        /* \"core/UBI4ALLTrading.sol\":4764:4772  position */\n      dup2\n        /* \"core/UBI4ALLTrading.sol\":4764:4783  position.collateral */\n      0x01\n      add\n      sload\n        /* \"core/UBI4ALLTrading.sol\":4764:4787  position.collateral > 0 */\n      gt\n        /* \"core/UBI4ALLTrading.sol\":4756:4815  require(position.collateral > 0, \"Position does not exist\") */\n      tag_156\n      jumpi\n      mload(0x40)\n      shl(0xe5, 0x461bcd)\n      dup2\n      mstore\n        /* \"#utility.yul\":7634:7636   */\n      0x20\n        /* \"core/UBI4ALLTrading.sol\":4756:4815  require(position.collateral > 0, \"Position does not exist\") */\n      0x04\n      dup3\n      add\n        /* \"#utility.yul\":7616:7637   */\n      mstore\n        /* \"#utility.yul\":7673:7675   */\n      0x17\n        /* \"#utility.yul\":7653:7671   */\n      0x24\n      dup3\n      add\n        /* \"#utility.yul\":7646:7676   */\n      mstore\n      shl(0x4a, 0x141bdcda5d1a5bdb88191bd95cc81b9bdd08195e1a5cdd)\n        /* \"#utility.yul\":7692:7710   */\n      0x44\n      dup3\n      add\n        /* \"#utility.yul\":7685:7738   */\n      mstore\n        /* \"#utility.yul\":7755:7773   */\n      0x64\n      add\n        /* \"core/UBI4ALLTrading.sol\":4756:4815  require(position.collateral > 0, \"Position does not exist\") */\n      tag_93\n        /* \"#utility.yul\":7432:7779   */\n      jump\n        /* \"core/UBI4ALLTrading.sol\":4756:4815  require(position.collateral > 0, \"Position does not exist\") */\n    tag_156:\n        /* \"core/UBI4ALLTrading.sol\":4907:4913  oracle */\n      sload(0x0b)\n        /* \"core/UBI4ALLTrading.sol\":4907:4942  oracle.getPrice(bytes32(\"EUR/USD\")) */\n      mload(0x40)\n      shl(0xe0, 0x31d98b3f)\n      dup2\n      mstore\n      shl(0xca, 0x1155548bd554d1)\n      0x04\n      dup3\n      add\n        /* \"#utility.yul\":991:1016   */\n      mstore\n        /* \"core/UBI4ALLTrading.sol\":4867:4887  uint256 currentPrice */\n      0x00\n      swap2\n      dup3\n      swap2\n      sub(shl(0xa0, 0x01), 0x01)\n        /* \"core/UBI4ALLTrading.sol\":4907:4913  oracle */\n      swap1\n      swap2\n      and\n      swap1\n        /* \"core/UBI4ALLTrading.sol\":4907:4922  oracle.getPrice */\n      0x31d98b3f\n      swap1\n        /* \"#utility.yul\":964:982   */\n      0x24\n      add\n        /* \"core/UBI4ALLTrading.sol\":4907:4942  oracle.getPrice(bytes32(\"EUR/USD\")) */\n      0x60\n      mload(0x40)\n      dup1\n      dup4\n      sub\n      dup2\n      dup7\n      gas\n      staticcall\n      iszero\n      dup1\n      iszero\n      tag_161\n      jumpi\n      returndatasize\n      0x00\n      dup1\n      returndatacopy\n      revert(0x00, returndatasize)\n    tag_161:\n      pop\n      pop\n      pop\n      pop\n      mload(0x40)\n      returndatasize\n      not(0x1f)\n      0x1f\n      dup3\n      add\n      and\n      dup3\n      add\n      dup1\n      0x40\n      mstore\n      pop\n      dup2\n      add\n      swap1\n      tag_162\n      swap2\n      swap1\n      tag_113\n      jump\t// in\n    tag_162:\n        /* \"core/UBI4ALLTrading.sol\":4866:4942  (uint256 currentPrice, , bool isValid) = oracle.getPrice(bytes32(\"EUR/USD\")) */\n      swap3\n      pop\n      pop\n      swap2\n      pop\n        /* \"core/UBI4ALLTrading.sol\":4961:4968  isValid */\n      dup1\n        /* \"core/UBI4ALLTrading.sol\":4953:4986  require(isValid, \"Invalid price\") */\n      tag_163\n      jumpi\n      mload(0x40)\n      shl(0xe5, 0x461bcd)\n      dup2\n      mstore\n      0x04\n      add\n      tag_93\n      swap1\n      tag_116\n      jump\t// in\n    tag_163:\n        /* \"core/UBI4ALLTrading.sol\":5036:5072  calculatePnL(position, currentPrice) */\n      0x40\n      dup1\n      mload\n      0x0100\n      dup2\n      add\n      dup3\n      mstore\n      dup5\n      sload\n      sub(shl(0xa0, 0x01), 0x01)\n      and\n      dup2\n      mstore\n      0x01\n      dup6\n      add\n      sload\n      0x20\n      dup3\n      add\n      mstore\n      0x02\n      dup6\n      add\n      sload\n      swap2\n      dup2\n      add\n      swap2\n      swap1\n      swap2\n      mstore\n      0x03\n      dup5\n      add\n      sload\n      0x60\n      dup3\n      add\n      mstore\n      0x04\n      dup5\n      add\n      sload\n      0x80\n      dup3\n      add\n      mstore\n      0x05\n      dup5\n      add\n      sload\n      0xff\n      and\n      iszero\n      iszero\n      0xa0\n      dup3\n      add\n      mstore\n      0x06\n      dup5\n      add\n      sload\n      0xc0\n      dup3\n      add\n      mstore\n      0x07\n      dup5\n      add\n      sload\n      0xe0\n      dup3\n      add\n      mstore\n        /* \"core/UBI4ALLTrading.sol\":5023:5033  int256 pnl */\n      0x00\n      swap1\n        /* \"core/UBI4ALLTrading.sol\":5036:5072  calculatePnL(position, currentPrice) */\n      tag_165\n      swap1\n        /* \"core/UBI4ALLTrading.sol\":5059:5071  currentPrice */\n      dup5\n        /* \"core/UBI4ALLTrading.sol\":5036:5048  calculatePnL */\n      tag_166\n        /* \"core/UBI4ALLTrading.sol\":5036:5072  calculatePnL(position, currentPrice) */\n      jump\t// in\n    tag_165:\n        /* \"core/UBI4ALLTrading.sol\":5023:5072  int256 pnl = calculatePnL(position, currentPrice) */\n      swap1\n      pop\n        /* \"core/UBI4ALLTrading.sol\":5129:5148  uint256 totalAmount */\n      0x00\n        /* \"core/UBI4ALLTrading.sol\":5170:5171  0 */\n      dup1\n        /* \"core/UBI4ALLTrading.sol\":5163:5166  pnl */\n      dup3\n        /* \"core/UBI4ALLTrading.sol\":5163:5171  pnl >= 0 */\n      slt\n        /* \"core/UBI4ALLTrading.sol\":5159:5397  if (pnl >= 0) {... */\n      tag_167\n      jumpi\n        /* \"core/UBI4ALLTrading.sol\":5232:5235  pnl */\n      dup2\n        /* \"core/UBI4ALLTrading.sol\":5202:5210  position */\n      dup6\n        /* \"core/UBI4ALLTrading.sol\":5202:5221  position.collateral */\n      0x01\n      add\n      sload\n        /* \"core/UBI4ALLTrading.sol\":5202:5236  position.collateral + uint256(pnl) */\n      tag_168\n      swap2\n      swap1\n      tag_122\n      jump\t// in\n    tag_168:\n        /* \"core/UBI4ALLTrading.sol\":5188:5236  totalAmount = position.collateral + uint256(pnl) */\n      swap1\n      pop\n        /* \"core/UBI4ALLTrading.sol\":5159:5397  if (pnl >= 0) {... */\n      jump(tag_169)\n    tag_167:\n        /* \"core/UBI4ALLTrading.sol\":5269:5281  uint256 loss */\n      0x00\n        /* \"core/UBI4ALLTrading.sol\":5292:5296  -pnl */\n      tag_170\n        /* \"core/UBI4ALLTrading.sol\":5293:5296  pnl */\n      dup4\n        /* \"core/UBI4ALLTrading.sol\":5292:5296  -pnl */\n      tag_171\n      jump\t// in\n    tag_170:\n        /* \"core/UBI4ALLTrading.sol\":5269:5297  uint256 loss = uint256(-pnl) */\n      swap1\n      pop\n        /* \"core/UBI4ALLTrading.sol\":5333:5341  position */\n      dup6\n        /* \"core/UBI4ALLTrading.sol\":5333:5352  position.collateral */\n      0x01\n      add\n      sload\n        /* \"core/UBI4ALLTrading.sol\":5326:5330  loss */\n      dup2\n        /* \"core/UBI4ALLTrading.sol\":5326:5352  loss > position.collateral */\n      gt\n        /* \"core/UBI4ALLTrading.sol\":5326:5385  loss > position.collateral ? 0 : position.collateral - loss */\n      tag_172\n      jumpi\n        /* \"core/UBI4ALLTrading.sol\":5381:5385  loss */\n      dup1\n        /* \"core/UBI4ALLTrading.sol\":5359:5367  position */\n      dup7\n        /* \"core/UBI4ALLTrading.sol\":5359:5378  position.collateral */\n      0x01\n      add\n      sload\n        /* \"core/UBI4ALLTrading.sol\":5359:5385  position.collateral - loss */\n      tag_173\n      swap2\n      swap1\n      tag_174\n      jump\t// in\n    tag_173:\n        /* \"core/UBI4ALLTrading.sol\":5326:5385  loss > position.collateral ? 0 : position.collateral - loss */\n      jump(tag_175)\n    tag_172:\n        /* \"core/UBI4ALLTrading.sol\":5355:5356  0 */\n      0x00\n        /* \"core/UBI4ALLTrading.sol\":5326:5385  loss > position.collateral ? 0 : position.collateral - loss */\n    tag_175:\n        /* \"core/UBI4ALLTrading.sol\":5312:5385  totalAmount = loss > position.collateral ? 0 : position.collateral - loss */\n      swap2\n      pop\n        /* \"core/UBI4ALLTrading.sol\":5254:5397  {... */\n      pop\n        /* \"core/UBI4ALLTrading.sol\":5159:5397  if (pnl >= 0) {... */\n    tag_169:\n        /* \"core/UBI4ALLTrading.sol\":5443:5458  totalAmount > 0 */\n      dup1\n      iszero\n        /* \"core/UBI4ALLTrading.sol\":5439:5561  if (totalAmount > 0) {... */\n      tag_182\n      jumpi\n        /* \"core/UBI4ALLTrading.sol\":5483:5495  ubi4allToken */\n      sload(0x0a)\n        /* \"core/UBI4ALLTrading.sol\":5483:5529  ubi4allToken.transfer(msg.sender, totalAmount) */\n      mload(0x40)\n      shl(0xe0, 0xa9059cbb)\n      dup2\n      mstore\n        /* \"core/UBI4ALLTrading.sol\":5505:5515  msg.sender */\n      caller\n        /* \"core/UBI4ALLTrading.sol\":5483:5529  ubi4allToken.transfer(msg.sender, totalAmount) */\n      0x04\n      dup3\n      add\n        /* \"#utility.yul\":8232:8283   */\n      mstore\n        /* \"#utility.yul\":8299:8317   */\n      0x24\n      dup2\n      add\n        /* \"#utility.yul\":8292:8326   */\n      dup4\n      swap1\n      mstore\n      sub(shl(0xa0, 0x01), 0x01)\n        /* \"core/UBI4ALLTrading.sol\":5483:5495  ubi4allToken */\n      swap1\n      swap2\n      and\n      swap1\n        /* \"core/UBI4ALLTrading.sol\":5483:5504  ubi4allToken.transfer */\n      0xa9059cbb\n      swap1\n        /* \"#utility.yul\":8205:8223   */\n      0x44\n      add\n        /* \"core/UBI4ALLTrading.sol\":5483:5529  ubi4allToken.transfer(msg.sender, totalAmount) */\n      0x20\n      mload(0x40)\n      dup1\n      dup4\n      sub\n      dup2\n      0x00\n      dup8\n      gas\n      call\n      iszero\n      dup1\n      iszero\n      tag_180\n      jumpi\n      returndatasize\n      0x00\n      dup1\n      returndatacopy\n      revert(0x00, returndatasize)\n    tag_180:\n      pop\n      pop\n      pop\n      pop\n      mload(0x40)\n      returndatasize\n      not(0x1f)\n      0x1f\n      dup3\n      add\n      and\n      dup3\n      add\n      dup1\n      0x40\n      mstore\n      pop\n      dup2\n      add\n      swap1\n      tag_181\n      swap2\n      swap1\n      tag_104\n      jump\t// in\n    tag_181:\n        /* \"core/UBI4ALLTrading.sol\":5475:5549  require(ubi4allToken.transfer(msg.sender, totalAmount), \"Transfer failed\") */\n      tag_182\n      jumpi\n      mload(0x40)\n      shl(0xe5, 0x461bcd)\n      dup2\n      mstore\n      0x04\n      add\n      tag_93\n      swap1\n      tag_107\n      jump\t// in\n    tag_182:\n        /* \"core/UBI4ALLTrading.sol\":5593:5603  positionId */\n      dup6\n        /* \"core/UBI4ALLTrading.sol\":5578:5609  PositionClosed(positionId, pnl) */\n      0x33fe89afd23cab21b9e7372fefbd5f105f651931b65a97a5164898f3a723c48d\n        /* \"core/UBI4ALLTrading.sol\":5605:5608  pnl */\n      dup4\n        /* \"core/UBI4ALLTrading.sol\":5578:5609  PositionClosed(positionId, pnl) */\n      mload(0x40)\n      tag_184\n      swap2\n        /* \"#utility.yul\":991:1016   */\n      dup2\n      mstore\n        /* \"#utility.yul\":979:981   */\n      0x20\n        /* \"#utility.yul\":964:982   */\n      add\n      swap1\n        /* \"#utility.yul\":845:1022   */\n      jump\n        /* \"core/UBI4ALLTrading.sol\":5578:5609  PositionClosed(positionId, pnl) */\n    tag_184:\n      mload(0x40)\n      dup1\n      swap2\n      sub\n      swap1\n      log2\n        /* \"core/UBI4ALLTrading.sol\":5662:5683  positions[positionId] */\n      0x00\n      dup7\n      dup2\n      mstore\n        /* \"core/UBI4ALLTrading.sol\":5662:5671  positions */\n      0x02\n        /* \"core/UBI4ALLTrading.sol\":5662:5683  positions[positionId] */\n      0x20\n      dup2\n      swap1\n      mstore\n      0x40\n      dup3\n      keccak256\n        /* \"core/UBI4ALLTrading.sol\":5655:5683  delete positions[positionId] */\n      dup1\n      sload\n      not(sub(shl(0xa0, 0x01), 0x01))\n      and\n      dup2\n      sstore\n      0x01\n      dup2\n      add\n      dup4\n      swap1\n      sstore\n      swap1\n      dup2\n      add\n      dup3\n      swap1\n      sstore\n      0x03\n      dup2\n      add\n      dup3\n      swap1\n      sstore\n      0x04\n      dup2\n      add\n      dup3\n      swap1\n      sstore\n      0x05\n      dup2\n      add\n      dup1\n      sload\n      not(0xff)\n      and\n      swap1\n      sstore\n      0x06\n      dup2\n      add\n      dup3\n      swap1\n      sstore\n      0x07\n      add\n      sstore\n        /* \"core/UBI4ALLTrading.sol\":5694:5737  _removeUserPosition(msg.sender, positionId) */\n      tag_186\n        /* \"core/UBI4ALLTrading.sol\":5714:5724  msg.sender */\n      caller\n        /* \"core/UBI4ALLTrading.sol\":5672:5682  positionId */\n      dup8\n        /* \"core/UBI4ALLTrading.sol\":5694:5713  _removeUserPosition */\n      tag_187\n        /* \"core/UBI4ALLTrading.sol\":5694:5737  _removeUserPosition(msg.sender, positionId) */\n      jump\t// in\n    tag_186:\n        /* \"core/UBI4ALLTrading.sol\":4615:5745  {... */\n      pop\n      pop\n      pop\n      pop\n      pop\n        /* \"@openzeppelin/contracts/security/ReentrancyGuard.sol\":2304:2324  _nonReentrantAfter() */\n      tag_188\n        /* \"@openzeppelin/contracts/security/ReentrancyGuard.sol\":1717:1718  1 */\n      0x01\n        /* \"@openzeppelin/contracts/security/ReentrancyGuard.sol\":2810:2817  _status */\n      0x00\n        /* \"@openzeppelin/contracts/security/ReentrancyGuard.sol\":2810:2832  _status = _NOT_ENTERED */\n      sstore\n        /* \"@openzeppelin/contracts/security/ReentrancyGuard.sol\":2630:2839  function _nonReentrantAfter() private {... */\n      jump\n        /* \"@openzeppelin/contracts/security/ReentrancyGuard.sol\":2304:2324  _nonReentrantAfter() */\n    tag_188:\n        /* \"core/UBI4ALLTrading.sol\":4550:5745  function closePosition(uint256 positionId) external nonReentrant {... */\n      pop\n      jump\t// out\n        /* \"core/UBI4ALLTrading.sol\":5890:6925  function liquidatePosition(uint256 positionId) external nonReentrant {... */\n    tag_80:\n        /* \"@openzeppelin/contracts/security/ReentrancyGuard.sol\":2262:2283  _nonReentrantBefore() */\n      tag_190\n        /* \"@openzeppelin/contracts/security/ReentrancyGuard.sol\":2262:2281  _nonReentrantBefore */\n      tag_90\n        /* \"@openzeppelin/contracts/security/ReentrancyGuard.sol\":2262:2283  _nonReentrantBefore() */\n      jump\t// in\n    tag_190:\n        /* \"core/UBI4ALLTrading.sol\":5970:5995  Position storage position */\n      0x00\n        /* \"core/UBI4ALLTrading.sol\":5998:6019  positions[positionId] */\n      dup2\n      dup2\n      mstore\n        /* \"core/UBI4ALLTrading.sol\":5998:6007  positions */\n      0x02\n        /* \"core/UBI4ALLTrading.sol\":5998:6019  positions[positionId] */\n      0x20\n      mstore\n      0x40\n      swap1\n      keccak256\n        /* \"core/UBI4ALLTrading.sol\":6038:6057  position.collateral */\n      0x01\n      dup2\n      add\n      sload\n        /* \"core/UBI4ALLTrading.sol\":6030:6089  require(position.collateral > 0, \"Position does not exist\") */\n      tag_192\n      jumpi\n      mload(0x40)\n      shl(0xe5, 0x461bcd)\n      dup2\n      mstore\n        /* \"#utility.yul\":7634:7636   */\n      0x20\n        /* \"core/UBI4ALLTrading.sol\":6030:6089  require(position.collateral > 0, \"Position does not exist\") */\n      0x04\n      dup3\n      add\n        /* \"#utility.yul\":7616:7637   */\n      mstore\n        /* \"#utility.yul\":7673:7675   */\n      0x17\n        /* \"#utility.yul\":7653:7671   */\n      0x24\n      dup3\n      add\n        /* \"#utility.yul\":7646:7676   */\n      mstore\n      shl(0x4a, 0x141bdcda5d1a5bdb88191bd95cc81b9bdd08195e1a5cdd)\n        /* \"#utility.yul\":7692:7710   */\n      0x44\n      dup3\n      add\n        /* \"#utility.yul\":7685:7738   */\n      mstore\n        /* \"#utility.yul\":7755:7773   */\n      0x64\n      add\n        /* \"core/UBI4ALLTrading.sol\":6030:6089  require(position.collateral > 0, \"Position does not exist\") */\n      tag_93\n        /* \"#utility.yul\":7432:7779   */\n      jump\n        /* \"core/UBI4ALLTrading.sol\":6030:6089  require(position.collateral > 0, \"Position does not exist\") */\n    tag_192:\n        /* \"core/UBI4ALLTrading.sol\":6181:6187  oracle */\n      sload(0x0b)\n        /* \"core/UBI4ALLTrading.sol\":6181:6216  oracle.getPrice(bytes32(\"EUR/USD\")) */\n      mload(0x40)\n      shl(0xe0, 0x31d98b3f)\n      dup2\n      mstore\n      shl(0xca, 0x1155548bd554d1)\n      0x04\n      dup3\n      add\n        /* \"#utility.yul\":991:1016   */\n      mstore\n        /* \"core/UBI4ALLTrading.sol\":6141:6161  uint256 currentPrice */\n      0x00\n      swap2\n      dup3\n      swap2\n      sub(shl(0xa0, 0x01), 0x01)\n        /* \"core/UBI4ALLTrading.sol\":6181:6187  oracle */\n      swap1\n      swap2\n      and\n      swap1\n        /* \"core/UBI4ALLTrading.sol\":6181:6196  oracle.getPrice */\n      0x31d98b3f\n      swap1\n        /* \"#utility.yul\":964:982   */\n      0x24\n      add\n        /* \"core/UBI4ALLTrading.sol\":6181:6216  oracle.getPrice(bytes32(\"EUR/USD\")) */\n      0x60\n      mload(0x40)\n      dup1\n      dup4\n      sub\n      dup2\n      dup7\n      gas\n      staticcall\n      iszero\n      dup1\n      iszero\n      tag_196\n      jumpi\n      returndatasize\n      0x00\n      dup1\n      returndatacopy\n      revert(0x00, returndatasize)\n    tag_196:\n      pop\n      pop\n      pop\n      pop\n      mload(0x40)\n      returndatasize\n      not(0x1f)\n      0x1f\n      dup3\n      add\n      and\n      dup3\n      add\n      dup1\n      0x40\n      mstore\n      pop\n      dup2\n      add\n      swap1\n      tag_197\n      swap2\n      swap1\n      tag_113\n      jump\t// in\n    tag_197:\n        /* \"core/UBI4ALLTrading.sol\":6140:6216  (uint256 currentPrice, , bool isValid) = oracle.getPrice(bytes32(\"EUR/USD\")) */\n      swap3\n      pop\n      pop\n      swap2\n      pop\n        /* \"core/UBI4ALLTrading.sol\":6235:6242  isValid */\n      dup1\n        /* \"core/UBI4ALLTrading.sol\":6227:6260  require(isValid, \"Invalid price\") */\n      tag_198\n      jumpi\n      mload(0x40)\n      shl(0xe5, 0x461bcd)\n      dup2\n      mstore\n      0x04\n      add\n      tag_93\n      swap1\n      tag_116\n      jump\t// in\n    tag_198:\n        /* \"core/UBI4ALLTrading.sol\":6348:6363  position.isLong */\n      0x05\n      dup4\n      add\n      sload\n      0xff\n      and\n        /* \"core/UBI4ALLTrading.sol\":6348:6408  position.isLong && currentPrice <= position.liquidationPrice */\n      dup1\n      iszero\n      tag_200\n      jumpi\n      pop\n        /* \"core/UBI4ALLTrading.sol\":6383:6391  position */\n      dup3\n        /* \"core/UBI4ALLTrading.sol\":6383:6408  position.liquidationPrice */\n      0x07\n      add\n      sload\n        /* \"core/UBI4ALLTrading.sol\":6367:6379  currentPrice */\n      dup3\n        /* \"core/UBI4ALLTrading.sol\":6367:6408  currentPrice <= position.liquidationPrice */\n      gt\n      iszero\n        /* \"core/UBI4ALLTrading.sol\":6348:6408  position.isLong && currentPrice <= position.liquidationPrice */\n    tag_200:\n        /* \"core/UBI4ALLTrading.sol\":6347:6489  (position.isLong && currentPrice <= position.liquidationPrice) ||... */\n      dup1\n      tag_202\n      jumpi\n      pop\n        /* \"core/UBI4ALLTrading.sol\":6428:6443  position.isLong */\n      0x05\n      dup4\n      add\n      sload\n      0xff\n      and\n        /* \"core/UBI4ALLTrading.sol\":6427:6443  !position.isLong */\n      iszero\n        /* \"core/UBI4ALLTrading.sol\":6427:6488  !position.isLong && currentPrice >= position.liquidationPrice */\n      dup1\n      iszero\n      tag_202\n      jumpi\n      pop\n        /* \"core/UBI4ALLTrading.sol\":6463:6471  position */\n      dup3\n        /* \"core/UBI4ALLTrading.sol\":6463:6488  position.liquidationPrice */\n      0x07\n      add\n      sload\n        /* \"core/UBI4ALLTrading.sol\":6447:6459  currentPrice */\n      dup3\n        /* \"core/UBI4ALLTrading.sol\":6447:6488  currentPrice >= position.liquidationPrice */\n      lt\n      iszero\n        /* \"core/UBI4ALLTrading.sol\":6427:6488  !position.isLong && currentPrice >= position.liquidationPrice */\n    tag_202:\n        /* \"core/UBI4ALLTrading.sol\":6325:6533  require(... */\n      tag_203\n      jumpi\n      mload(0x40)\n      shl(0xe5, 0x461bcd)\n      dup2\n      mstore\n        /* \"#utility.yul\":8719:8721   */\n      0x20\n        /* \"core/UBI4ALLTrading.sol\":6325:6533  require(... */\n      0x04\n      dup3\n      add\n        /* \"#utility.yul\":8701:8722   */\n      mstore\n        /* \"#utility.yul\":8758:8760   */\n      0x10\n        /* \"#utility.yul\":8738:8756   */\n      0x24\n      dup3\n      add\n        /* \"#utility.yul\":8731:8761   */\n      mstore\n      shl(0x80, 0x4e6f74206c6971756964617461626c65)\n        /* \"#utility.yul\":8777:8795   */\n      0x44\n      dup3\n      add\n        /* \"#utility.yul\":8770:8816   */\n      mstore\n        /* \"#utility.yul\":8833:8851   */\n      0x64\n      add\n        /* \"core/UBI4ALLTrading.sol\":6325:6533  require(... */\n      tag_93\n        /* \"#utility.yul\":8517:8857   */\n      jump\n        /* \"core/UBI4ALLTrading.sol\":6325:6533  require(... */\n    tag_203:\n        /* \"core/UBI4ALLTrading.sol\":6598:6612  uint256 reward */\n      0x00\n        /* \"core/UBI4ALLTrading.sol\":6641:6644  100 */\n      0x64\n        /* \"core/UBI4ALLTrading.sol\":6615:6623  position */\n      dup5\n        /* \"core/UBI4ALLTrading.sol\":6615:6634  position.collateral */\n      0x01\n      add\n      sload\n        /* \"core/UBI4ALLTrading.sol\":6637:6638  5 */\n      0x05\n        /* \"core/UBI4ALLTrading.sol\":6615:6638  position.collateral * 5 */\n      tag_206\n      swap2\n      swap1\n      tag_118\n      jump\t// in\n    tag_206:\n        /* \"core/UBI4ALLTrading.sol\":6615:6644  position.collateral * 5 / 100 */\n      tag_207\n      swap2\n      swap1\n      tag_208\n      jump\t// in\n    tag_207:\n        /* \"core/UBI4ALLTrading.sol\":6663:6675  ubi4allToken */\n      sload(0x0a)\n        /* \"core/UBI4ALLTrading.sol\":6663:6704  ubi4allToken.transfer(msg.sender, reward) */\n      mload(0x40)\n      shl(0xe0, 0xa9059cbb)\n      dup2\n      mstore\n        /* \"core/UBI4ALLTrading.sol\":6685:6695  msg.sender */\n      caller\n        /* \"core/UBI4ALLTrading.sol\":6663:6704  ubi4allToken.transfer(msg.sender, reward) */\n      0x04\n      dup3\n      add\n        /* \"#utility.yul\":8232:8283   */\n      mstore\n        /* \"#utility.yul\":8299:8317   */\n      0x24\n      dup2\n      add\n        /* \"#utility.yul\":8292:8326   */\n      dup4\n      swap1\n      mstore\n        /* \"core/UBI4ALLTrading.sol\":6598:6644  uint256 reward = position.collateral * 5 / 100 */\n      swap2\n      swap3\n      pop\n      sub(shl(0xa0, 0x01), 0x01)\n        /* \"core/UBI4ALLTrading.sol\":6663:6675  ubi4allToken */\n      and\n      swap1\n        /* \"core/UBI4ALLTrading.sol\":6663:6684  ubi4allToken.transfer */\n      0xa9059cbb\n      swap1\n        /* \"#utility.yul\":8205:8223   */\n      0x44\n      add\n        /* \"core/UBI4ALLTrading.sol\":6663:6704  ubi4allToken.transfer(msg.sender, reward) */\n      0x20\n      mload(0x40)\n      dup1\n      dup4\n      sub\n      dup2\n      0x00\n      dup8\n      gas\n      call\n      iszero\n      dup1\n      iszero\n      tag_211\n      jumpi\n      returndatasize\n      0x00\n      dup1\n      returndatacopy\n      revert(0x00, returndatasize)\n    tag_211:\n      pop\n      pop\n      pop\n      pop\n      mload(0x40)\n      returndatasize\n      not(0x1f)\n      0x1f\n      dup3\n      add\n      and\n      dup3\n      add\n      dup1\n      0x40\n      mstore\n      pop\n      dup2\n      add\n      swap1\n      tag_212\n      swap2\n      swap1\n      tag_104\n      jump\t// in\n    tag_212:\n        /* \"core/UBI4ALLTrading.sol\":6655:6724  require(ubi4allToken.transfer(msg.sender, reward), \"Transfer failed\") */\n      tag_213\n      jumpi\n      mload(0x40)\n      shl(0xe5, 0x461bcd)\n      dup2\n      mstore\n      0x04\n      add\n      tag_93\n      swap1\n      tag_107\n      jump\t// in\n    tag_213:\n        /* \"core/UBI4ALLTrading.sol\":6742:6784  PositionLiquidated(positionId, msg.sender) */\n      mload(0x40)\n        /* \"core/UBI4ALLTrading.sol\":6773:6783  msg.sender */\n      caller\n        /* \"#utility.yul\":174:225   */\n      dup2\n      mstore\n        /* \"core/UBI4ALLTrading.sol\":6761:6771  positionId */\n      dup6\n      swap1\n        /* \"core/UBI4ALLTrading.sol\":6742:6784  PositionLiquidated(positionId, msg.sender) */\n      0xa9ae24adea380a0aaa5f1e18bfe4427ac76c27d30a0159971c13f930c4d4e5a3\n      swap1\n        /* \"#utility.yul\":162:164   */\n      0x20\n        /* \"#utility.yul\":147:165   */\n      add\n        /* \"core/UBI4ALLTrading.sol\":6742:6784  PositionLiquidated(positionId, msg.sender) */\n      mload(0x40)\n      dup1\n      swap2\n      sub\n      swap1\n      log2\n        /* \"core/UBI4ALLTrading.sol\":6837:6858  positions[positionId] */\n      0x00\n      dup6\n      dup2\n      mstore\n        /* \"core/UBI4ALLTrading.sol\":6837:6846  positions */\n      0x02\n        /* \"core/UBI4ALLTrading.sol\":6837:6858  positions[positionId] */\n      0x20\n      dup2\n      swap1\n      mstore\n      0x40\n      dup3\n      keccak256\n        /* \"core/UBI4ALLTrading.sol\":6830:6858  delete positions[positionId] */\n      dup1\n      sload\n      not(sub(shl(0xa0, 0x01), 0x01))\n      and\n      dup2\n      sstore\n      0x01\n      dup2\n      add\n      dup4\n      swap1\n      sstore\n      swap1\n      dup2\n      add\n      dup3\n      swap1\n      sstore\n      0x03\n      dup2\n      add\n      dup3\n      swap1\n      sstore\n      0x04\n      dup2\n      add\n      dup3\n      swap1\n      sstore\n      0x05\n      dup2\n      add\n      dup1\n      sload\n      not(0xff)\n      and\n      swap1\n      sstore\n      0x06\n      dup2\n      add\n      dup3\n      swap1\n      sstore\n      0x07\n      add\n      sstore\n        /* \"core/UBI4ALLTrading.sol\":6889:6904  position.trader */\n      dup4\n      sload\n        /* \"core/UBI4ALLTrading.sol\":6869:6917  _removeUserPosition(position.trader, positionId) */\n      tag_216\n      swap1\n      sub(shl(0xa0, 0x01), 0x01)\n        /* \"core/UBI4ALLTrading.sol\":6889:6904  position.trader */\n      and\n        /* \"core/UBI4ALLTrading.sol\":6847:6857  positionId */\n      dup7\n        /* \"core/UBI4ALLTrading.sol\":6869:6888  _removeUserPosition */\n      tag_187\n        /* \"core/UBI4ALLTrading.sol\":6869:6917  _removeUserPosition(position.trader, positionId) */\n      jump\t// in\n    tag_216:\n        /* \"core/UBI4ALLTrading.sol\":5959:6925  {... */\n      pop\n      pop\n      pop\n      pop\n        /* \"@openzeppelin/contracts/security/ReentrancyGuard.sol\":2304:2324  _nonReentrantAfter() */\n      tag_188\n        /* \"@openzeppelin/contracts/security/ReentrancyGuard.sol\":1717:1718  1 */\n      0x01\n        /* \"@openzeppelin/contracts/security/ReentrancyGuard.sol\":2810:2817  _status */\n      0x00\n        /* \"@openzeppelin/contracts/security/ReentrancyGuard.sol\":2810:2832  _status = _NOT_ENTERED */\n      sstore\n        /* \"@openzeppelin/contracts/security/ReentrancyGuard.sol\":2630:2839  function _nonReentrantAfter() private {... */\n      jump\n        /* \"core/UBI4ALLTrading.sol\":8146:8313  function setMaxLeverage(uint256 _maxLeverage) external onlyOwner {... */\n    tag_83:\n        /* \"@openzeppelin/contracts/access/Ownable.sol\":1531:1544  _checkOwner() */\n      tag_219\n        /* \"@openzeppelin/contracts/access/Ownable.sol\":1531:1542  _checkOwner */\n      tag_139\n        /* \"@openzeppelin/contracts/access/Ownable.sol\":1531:1544  _checkOwner() */\n      jump\t// in\n    tag_219:\n        /* \"core/UBI4ALLTrading.sol\":8246:8247  1 */\n      0x01\n        /* \"core/UBI4ALLTrading.sol\":8230:8242  _maxLeverage */\n      dup2\n        /* \"core/UBI4ALLTrading.sol\":8230:8247  _maxLeverage >= 1 */\n      lt\n      iszero\n        /* \"core/UBI4ALLTrading.sol\":8222:8268  require(_maxLeverage >= 1, \"Invalid leverage\") */\n      tag_221\n      jumpi\n      mload(0x40)\n      shl(0xe5, 0x461bcd)\n      dup2\n      mstore\n        /* \"#utility.yul\":3645:3647   */\n      0x20\n        /* \"core/UBI4ALLTrading.sol\":8222:8268  require(_maxLeverage >= 1, \"Invalid leverage\") */\n      0x04\n      dup3\n      add\n        /* \"#utility.yul\":3627:3648   */\n      mstore\n        /* \"#utility.yul\":3684:3686   */\n      0x10\n        /* \"#utility.yul\":3664:3682   */\n      0x24\n      dup3\n      add\n        /* \"#utility.yul\":3657:3687   */\n      mstore\n      shl(0x80, 0x496e76616c6964206c65766572616765)\n        /* \"#utility.yul\":3703:3721   */\n      0x44\n      dup3\n      add\n        /* \"#utility.yul\":3696:3742   */\n      mstore\n        /* \"#utility.yul\":3759:3777   */\n      0x64\n      add\n        /* \"core/UBI4ALLTrading.sol\":8222:8268  require(_maxLeverage >= 1, \"Invalid leverage\") */\n      tag_93\n        /* \"#utility.yul\":3443:3783   */\n      jump\n        /* \"core/UBI4ALLTrading.sol\":8222:8268  require(_maxLeverage >= 1, \"Invalid leverage\") */\n    tag_221:\n        /* \"core/UBI4ALLTrading.sol\":8279:8290  maxLeverage */\n      0x06\n        /* \"core/UBI4ALLTrading.sol\":8279:8305  maxLeverage = _maxLeverage */\n      sstore\n        /* \"core/UBI4ALLTrading.sol\":8146:8313  function setMaxLeverage(uint256 _maxLeverage) external onlyOwner {... */\n      jump\t// out\n        /* \"@openzeppelin/contracts/access/Ownable.sol\":2543:2758  function transferOwnership(address newOwner) public virtual onlyOwner {... */\n    tag_87:\n        /* \"@openzeppelin/contracts/access/Ownable.sol\":1531:1544  _checkOwner() */\n      tag_224\n        /* \"@openzeppelin/contracts/access/Ownable.sol\":1531:1542  _checkOwner */\n      tag_139\n        /* \"@openzeppelin/contracts/access/Ownable.sol\":1531:1544  _checkOwner() */\n      jump\t// in\n    tag_224:\n      sub(shl(0xa0, 0x01), 0x01)\n        /* \"@openzeppelin/contracts/access/Ownable.sol\":2627:2649  newOwner == address(0) */\n      dup2\n      and\n        /* \"@openzeppelin/contracts/access/Ownable.sol\":2623:2714  if (newOwner == address(0)) {... */\n      tag_226\n      jumpi\n        /* \"@openzeppelin/contracts/access/Ownable.sol\":2672:2703  OwnableInvalidOwner(address(0)) */\n      mload(0x40)\n      shl(0xe0, 0x1e4fbdf7)\n      dup2\n      mstore\n        /* \"@openzeppelin/contracts/access/Ownable.sol\":2700:2701  0 */\n      0x00\n        /* \"@openzeppelin/contracts/access/Ownable.sol\":2672:2703  OwnableInvalidOwner(address(0)) */\n      0x04\n      dup3\n      add\n        /* \"#utility.yul\":174:225   */\n      mstore\n        /* \"#utility.yul\":147:165   */\n      0x24\n      add\n        /* \"@openzeppelin/contracts/access/Ownable.sol\":2672:2703  OwnableInvalidOwner(address(0)) */\n      tag_93\n        /* \"#utility.yul\":14:231   */\n      jump\n        /* \"@openzeppelin/contracts/access/Ownable.sol\":2623:2714  if (newOwner == address(0)) {... */\n    tag_226:\n        /* \"@openzeppelin/contracts/access/Ownable.sol\":2723:2751  _transferOwnership(newOwner) */\n      tag_188\n        /* \"@openzeppelin/contracts/access/Ownable.sol\":2742:2750  newOwner */\n      dup2\n        /* \"@openzeppelin/contracts/access/Ownable.sol\":2723:2741  _transferOwnership */\n      tag_142\n        /* \"@openzeppelin/contracts/access/Ownable.sol\":2723:2751  _transferOwnership(newOwner) */\n      jump\t// in\n        /* \"@openzeppelin/contracts/security/ReentrancyGuard.sol\":2337:2624  function _nonReentrantBefore() private {... */\n    tag_90:\n        /* \"@openzeppelin/contracts/security/ReentrancyGuard.sol\":1760:1761  2 */\n      0x02\n        /* \"@openzeppelin/contracts/security/ReentrancyGuard.sol\":2469:2476  _status */\n      sload(0x00)\n        /* \"@openzeppelin/contracts/security/ReentrancyGuard.sol\":2469:2488  _status != _ENTERED */\n      sub\n        /* \"@openzeppelin/contracts/security/ReentrancyGuard.sol\":2461:2524  require(_status != _ENTERED, \"ReentrancyGuard: reentrant call\") */\n      tag_230\n      jumpi\n      mload(0x40)\n      shl(0xe5, 0x461bcd)\n      dup2\n      mstore\n        /* \"#utility.yul\":9321:9323   */\n      0x20\n        /* \"@openzeppelin/contracts/security/ReentrancyGuard.sol\":2461:2524  require(_status != _ENTERED, \"ReentrancyGuard: reentrant call\") */\n      0x04\n      dup3\n      add\n        /* \"#utility.yul\":9303:9324   */\n      mstore\n        /* \"#utility.yul\":9360:9362   */\n      0x1f\n        /* \"#utility.yul\":9340:9358   */\n      0x24\n      dup3\n      add\n        /* \"#utility.yul\":9333:9363   */\n      mstore\n        /* \"#utility.yul\":9399:9432   */\n      0x5265656e7472616e637947756172643a207265656e7472616e742063616c6c00\n        /* \"#utility.yul\":9379:9397   */\n      0x44\n      dup3\n      add\n        /* \"#utility.yul\":9372:9433   */\n      mstore\n        /* \"#utility.yul\":9450:9468   */\n      0x64\n      add\n        /* \"@openzeppelin/contracts/security/ReentrancyGuard.sol\":2461:2524  require(_status != _ENTERED, \"ReentrancyGuard: reentrant call\") */\n      tag_93\n        /* \"#utility.yul\":9119:9474   */\n      jump\n        /* \"@openzeppelin/contracts/security/ReentrancyGuard.sol\":2461:2524  require(_status != _ENTERED, \"ReentrancyGuard: reentrant call\") */\n    tag_230:\n        /* \"@openzeppelin/contracts/security/ReentrancyGuard.sol\":1760:1761  2 */\n      0x02\n        /* \"@openzeppelin/contracts/security/ReentrancyGuard.sol\":2599:2606  _status */\n      0x00\n        /* \"@openzeppelin/contracts/security/ReentrancyGuard.sol\":2599:2617  _status = _ENTERED */\n      sstore\n        /* \"@openzeppelin/contracts/security/ReentrancyGuard.sol\":2337:2624  function _nonReentrantBefore() private {... */\n      jump\t// out\n        /* \"libraries/UBI4ALLMath.sol\":125:277  function mulDiv(... */\n    tag_124:\n        /* \"libraries/UBI4ALLMath.sol\":231:238  uint256 */\n      0x00\n        /* \"libraries/UBI4ALLMath.sol\":268:269  c */\n      dup2\n        /* \"libraries/UBI4ALLMath.sol\":259:264  a * b */\n      tag_234\n        /* \"libraries/UBI4ALLMath.sol\":263:264  b */\n      dup5\n        /* \"libraries/UBI4ALLMath.sol\":259:260  a */\n      dup7\n        /* \"libraries/UBI4ALLMath.sol\":259:264  a * b */\n      tag_118\n      jump\t// in\n    tag_234:\n        /* \"libraries/UBI4ALLMath.sol\":258:269  (a * b) / c */\n      tag_235\n      swap2\n      swap1\n      tag_208\n      jump\t// in\n    tag_235:\n        /* \"libraries/UBI4ALLMath.sol\":251:269  return (a * b) / c */\n      swap5\n        /* \"libraries/UBI4ALLMath.sol\":125:277  function mulDiv(... */\n      swap4\n      pop\n      pop\n      pop\n      pop\n      jump\t// out\n        /* \"@openzeppelin/contracts/access/Ownable.sol\":1796:1958  function _checkOwner() internal view virtual {... */\n    tag_139:\n        /* \"@openzeppelin/contracts/access/Ownable.sol\":1710:1716  _owner */\n      and(sub(shl(0xa0, 0x01), 0x01), sload(0x01))\n        /* \"@openzeppelin/contracts/utils/Context.sol\":735:745  msg.sender */\n      caller\n        /* \"@openzeppelin/contracts/access/Ownable.sol\":1855:1878  owner() != _msgSender() */\n      eq\n        /* \"@openzeppelin/contracts/access/Ownable.sol\":1851:1952  if (owner() != _msgSender()) {... */\n      tag_141\n      jumpi\n        /* \"@openzeppelin/contracts/access/Ownable.sol\":1901:1941  OwnableUnauthorizedAccount(_msgSender()) */\n      mload(0x40)\n      shl(0xe0, 0x118cdaa7)\n      dup2\n      mstore\n        /* \"@openzeppelin/contracts/utils/Context.sol\":735:745  msg.sender */\n      caller\n        /* \"@openzeppelin/contracts/access/Ownable.sol\":1901:1941  OwnableUnauthorizedAccount(_msgSender()) */\n      0x04\n      dup3\n      add\n        /* \"#utility.yul\":174:225   */\n      mstore\n        /* \"#utility.yul\":147:165   */\n      0x24\n      add\n        /* \"@openzeppelin/contracts/access/Ownable.sol\":1901:1941  OwnableUnauthorizedAccount(_msgSender()) */\n      tag_93\n        /* \"#utility.yul\":14:231   */\n      jump\n        /* \"@openzeppelin/contracts/access/Ownable.sol\":2912:3099  function _transferOwnership(address newOwner) internal virtual {... */\n    tag_142:\n        /* \"@openzeppelin/contracts/access/Ownable.sol\":3004:3010  _owner */\n      0x01\n      dup1\n      sload\n      sub(shl(0xa0, 0x01), 0x01)\n        /* \"@openzeppelin/contracts/access/Ownable.sol\":3020:3037  _owner = newOwner */\n      dup4\n      dup2\n      and\n      not(sub(shl(0xa0, 0x01), 0x01))\n      dup4\n      and\n      dup2\n      or\n      swap1\n      swap4\n      sstore\n        /* \"@openzeppelin/contracts/access/Ownable.sol\":3052:3092  OwnershipTransferred(oldOwner, newOwner) */\n      mload(0x40)\n        /* \"@openzeppelin/contracts/access/Ownable.sol\":3004:3010  _owner */\n      swap2\n      and\n      swap2\n        /* \"@openzeppelin/contracts/access/Ownable.sol\":3020:3037  _owner = newOwner */\n      swap1\n        /* \"@openzeppelin/contracts/access/Ownable.sol\":3004:3010  _owner */\n      dup3\n      swap1\n        /* \"@openzeppelin/contracts/access/Ownable.sol\":3052:3092  OwnershipTransferred(oldOwner, newOwner) */\n      0x8be0079c531659141344cd1fd0a4f28419497f9722a3daafe3b4186f6b6457e0\n      swap1\n        /* \"@openzeppelin/contracts/access/Ownable.sol\":2985:3001  address oldOwner */\n      0x00\n      swap1\n        /* \"@openzeppelin/contracts/access/Ownable.sol\":3052:3092  OwnershipTransferred(oldOwner, newOwner) */\n      log3\n        /* \"@openzeppelin/contracts/access/Ownable.sol\":2975:3099  {... */\n      pop\n        /* \"@openzeppelin/contracts/access/Ownable.sol\":2912:3099  function _transferOwnership(address newOwner) internal virtual {... */\n      pop\n      jump\t// out\n        /* \"core/UBI4ALLTrading.sol\":7174:7738  function calculatePnL(Position memory position, uint256 currentPrice) internal pure returns (int256) {... */\n    tag_166:\n        /* \"core/UBI4ALLTrading.sol\":7267:7273  int256 */\n      0x00\n        /* \"core/UBI4ALLTrading.sol\":7316:7317  0 */\n      dup1\n        /* \"core/UBI4ALLTrading.sol\":7294:7302  position */\n      dup4\n        /* \"core/UBI4ALLTrading.sol\":7294:7313  position.entryPrice */\n      0x60\n      add\n      mload\n        /* \"core/UBI4ALLTrading.sol\":7294:7317  position.entryPrice > 0 */\n      gt\n        /* \"core/UBI4ALLTrading.sol\":7286:7341  require(position.entryPrice > 0, \"Invalid entry price\") */\n      tag_246\n      jumpi\n      mload(0x40)\n      shl(0xe5, 0x461bcd)\n      dup2\n      mstore\n        /* \"#utility.yul\":9681:9683   */\n      0x20\n        /* \"core/UBI4ALLTrading.sol\":7286:7341  require(position.entryPrice > 0, \"Invalid entry price\") */\n      0x04\n      dup3\n      add\n        /* \"#utility.yul\":9663:9684   */\n      mstore\n        /* \"#utility.yul\":9720:9722   */\n      0x13\n        /* \"#utility.yul\":9700:9718   */\n      0x24\n      dup3\n      add\n        /* \"#utility.yul\":9693:9723   */\n      mstore\n      shl(0x68, 0x496e76616c696420656e747279207072696365)\n        /* \"#utility.yul\":9739:9757   */\n      0x44\n      dup3\n      add\n        /* \"#utility.yul\":9732:9781   */\n      mstore\n        /* \"#utility.yul\":9798:9816   */\n      0x64\n      add\n        /* \"core/UBI4ALLTrading.sol\":7286:7341  require(position.entryPrice > 0, \"Invalid entry price\") */\n      tag_93\n        /* \"#utility.yul\":9479:9822   */\n      jump\n        /* \"core/UBI4ALLTrading.sol\":7286:7341  require(position.entryPrice > 0, \"Invalid entry price\") */\n    tag_246:\n        /* \"core/UBI4ALLTrading.sol\":7356:7364  position */\n      dup3\n        /* \"core/UBI4ALLTrading.sol\":7356:7371  position.isLong */\n      0xa0\n      add\n      mload\n        /* \"core/UBI4ALLTrading.sol\":7352:7731  if (position.isLong) {... */\n      iszero\n      tag_249\n      jumpi\n        /* \"core/UBI4ALLTrading.sol\":7517:7536  position.entryPrice */\n      0x60\n      dup4\n      add\n      mload\n        /* \"core/UBI4ALLTrading.sol\":7438:7488  int256(currentPrice) - int256(position.entryPrice) */\n      tag_250\n        /* \"core/UBI4ALLTrading.sol\":7517:7536  position.entryPrice */\n      dup2\n        /* \"core/UBI4ALLTrading.sol\":7445:7457  currentPrice */\n      dup5\n        /* \"core/UBI4ALLTrading.sol\":7438:7488  int256(currentPrice) - int256(position.entryPrice) */\n      tag_251\n      jump\t// in\n    tag_250:\n        /* \"core/UBI4ALLTrading.sol\":7420:7428  position */\n      dup5\n        /* \"core/UBI4ALLTrading.sol\":7420:7433  position.size */\n      0x40\n      add\n      mload\n        /* \"core/UBI4ALLTrading.sol\":7413:7489  int256(position.size) * (int256(currentPrice) - int256(position.entryPrice)) */\n      tag_252\n      swap2\n      swap1\n      tag_253\n      jump\t// in\n    tag_252:\n        /* \"core/UBI4ALLTrading.sol\":7412:7537  (int256(position.size) * (int256(currentPrice) - int256(position.entryPrice))) /... */\n      tag_254\n      swap2\n      swap1\n      tag_255\n      jump\t// in\n    tag_254:\n        /* \"core/UBI4ALLTrading.sol\":7388:7537  return... */\n      swap1\n      pop\n      jump(tag_256)\n        /* \"core/UBI4ALLTrading.sol\":7352:7731  if (position.isLong) {... */\n    tag_249:\n        /* \"core/UBI4ALLTrading.sol\":7699:7718  position.entryPrice */\n      0x60\n      dup4\n      add\n      mload\n        /* \"core/UBI4ALLTrading.sol\":7620:7670  int256(position.entryPrice) - int256(currentPrice) */\n      tag_250\n        /* \"core/UBI4ALLTrading.sol\":7657:7669  currentPrice */\n      dup4\n        /* \"core/UBI4ALLTrading.sol\":7699:7718  position.entryPrice */\n      dup3\n        /* \"core/UBI4ALLTrading.sol\":7620:7670  int256(position.entryPrice) - int256(currentPrice) */\n      tag_251\n      jump\t// in\n        /* \"core/UBI4ALLTrading.sol\":7352:7731  if (position.isLong) {... */\n    tag_256:\n        /* \"core/UBI4ALLTrading.sol\":7174:7738  function calculatePnL(Position memory position, uint256 currentPrice) internal pure returns (int256) {... */\n      swap3\n      swap2\n      pop\n      pop\n      jump\t// out\n        /* \"core/UBI4ALLTrading.sol\":8488:8896  function _removeUserPosition(address user, uint256 positionId) internal {... */\n    tag_187:\n      sub(shl(0xa0, 0x01), 0x01)\n        /* \"core/UBI4ALLTrading.sol\":8603:8622  userPositions[user] */\n      dup3\n      and\n        /* \"core/UBI4ALLTrading.sol\":8571:8600  uint256[] storage positionIds */\n      0x00\n        /* \"core/UBI4ALLTrading.sol\":8603:8622  userPositions[user] */\n      swap1\n      dup2\n      mstore\n        /* \"core/UBI4ALLTrading.sol\":8603:8616  userPositions */\n      0x03\n        /* \"core/UBI4ALLTrading.sol\":8603:8622  userPositions[user] */\n      0x20\n      mstore\n      0x40\n      dup2\n      keccak256\n      swap1\n        /* \"core/UBI4ALLTrading.sol\":8633:8889  for (uint256 i = 0; i < positionIds.length; i++) {... */\n    tag_261:\n        /* \"core/UBI4ALLTrading.sol\":8657:8675  positionIds.length */\n      dup2\n      sload\n        /* \"core/UBI4ALLTrading.sol\":8653:8675  i < positionIds.length */\n      dup2\n      lt\n        /* \"core/UBI4ALLTrading.sol\":8633:8889  for (uint256 i = 0; i < positionIds.length; i++) {... */\n      iszero\n      tag_262\n      jumpi\n        /* \"core/UBI4ALLTrading.sol\":8719:8729  positionId */\n      dup3\n        /* \"core/UBI4ALLTrading.sol\":8701:8712  positionIds */\n      dup3\n        /* \"core/UBI4ALLTrading.sol\":8713:8714  i */\n      dup3\n        /* \"core/UBI4ALLTrading.sol\":8701:8715  positionIds[i] */\n      dup2\n      sload\n      dup2\n      lt\n      tag_265\n      jumpi\n      tag_265\n      tag_266\n      jump\t// in\n    tag_265:\n      swap1\n      0x00\n      mstore\n      keccak256(0x00, 0x20)\n      add\n      sload\n        /* \"core/UBI4ALLTrading.sol\":8701:8729  positionIds[i] == positionId */\n      sub\n        /* \"core/UBI4ALLTrading.sol\":8697:8878  if (positionIds[i] == positionId) {... */\n      tag_268\n      jumpi\n        /* \"core/UBI4ALLTrading.sol\":8779:8797  positionIds.length */\n      dup2\n      sload\n        /* \"core/UBI4ALLTrading.sol\":8767:8778  positionIds */\n      dup3\n      swap1\n        /* \"core/UBI4ALLTrading.sol\":8779:8801  positionIds.length - 1 */\n      tag_269\n      swap1\n        /* \"core/UBI4ALLTrading.sol\":8800:8801  1 */\n      0x01\n      swap1\n        /* \"core/UBI4ALLTrading.sol\":8779:8801  positionIds.length - 1 */\n      tag_174\n      jump\t// in\n    tag_269:\n        /* \"core/UBI4ALLTrading.sol\":8767:8802  positionIds[positionIds.length - 1] */\n      dup2\n      sload\n      dup2\n      lt\n      tag_271\n      jumpi\n      tag_271\n      tag_266\n      jump\t// in\n    tag_271:\n      swap1\n      0x00\n      mstore\n      keccak256(0x00, 0x20)\n      add\n      sload\n        /* \"core/UBI4ALLTrading.sol\":8750:8761  positionIds */\n      dup3\n        /* \"core/UBI4ALLTrading.sol\":8762:8763  i */\n      dup3\n        /* \"core/UBI4ALLTrading.sol\":8750:8764  positionIds[i] */\n      dup2\n      sload\n      dup2\n      lt\n      tag_274\n      jumpi\n      tag_274\n      tag_266\n      jump\t// in\n    tag_274:\n      swap1\n      0x00\n      mstore\n      keccak256(0x00, 0x20)\n      add\n        /* \"core/UBI4ALLTrading.sol\":8750:8802  positionIds[i] = positionIds[positionIds.length - 1] */\n      dup2\n      swap1\n      sstore\n      pop\n        /* \"core/UBI4ALLTrading.sol\":8821:8832  positionIds */\n      dup2\n        /* \"core/UBI4ALLTrading.sol\":8821:8838  positionIds.pop() */\n      dup1\n      sload\n      dup1\n      tag_277\n      jumpi\n      tag_277\n      tag_278\n      jump\t// in\n    tag_277:\n      0x01\n      swap1\n      sub\n      dup2\n      dup2\n      swap1\n      0x00\n      mstore\n      keccak256(0x00, 0x20)\n      add\n      0x00\n      swap1\n      sstore\n      swap1\n      sstore\n        /* \"core/UBI4ALLTrading.sol\":8857:8862  break */\n      jump(tag_262)\n        /* \"core/UBI4ALLTrading.sol\":8697:8878  if (positionIds[i] == positionId) {... */\n    tag_268:\n        /* \"core/UBI4ALLTrading.sol\":8677:8680  i++ */\n      0x01\n      add\n        /* \"core/UBI4ALLTrading.sol\":8633:8889  for (uint256 i = 0; i < positionIds.length; i++) {... */\n      jump(tag_261)\n    tag_262:\n      pop\n        /* \"core/UBI4ALLTrading.sol\":8560:8896  {... */\n      pop\n        /* \"core/UBI4ALLTrading.sol\":8488:8896  function _removeUserPosition(address user, uint256 positionId) internal {... */\n      pop\n      pop\n      jump\t// out\n        /* \"#utility.yul\":236:354   */\n    tag_281:\n        /* \"#utility.yul\":322:327   */\n      dup1\n        /* \"#utility.yul\":315:328   */\n      iszero\n        /* \"#utility.yul\":308:329   */\n      iszero\n        /* \"#utility.yul\":301:306   */\n      dup2\n        /* \"#utility.yul\":298:330   */\n      eq\n        /* \"#utility.yul\":288:348   */\n      tag_188\n      jumpi\n        /* \"#utility.yul\":344:345   */\n      0x00\n        /* \"#utility.yul\":341:342   */\n      dup1\n        /* \"#utility.yul\":334:346   */\n      revert\n        /* \"#utility.yul\":359:840   */\n    tag_30:\n        /* \"#utility.yul\":433:439   */\n      0x00\n        /* \"#utility.yul\":441:447   */\n      dup1\n        /* \"#utility.yul\":449:455   */\n      0x00\n        /* \"#utility.yul\":502:504   */\n      0x60\n        /* \"#utility.yul\":490:499   */\n      dup5\n        /* \"#utility.yul\":481:488   */\n      dup7\n        /* \"#utility.yul\":477:500   */\n      sub\n        /* \"#utility.yul\":473:505   */\n      slt\n        /* \"#utility.yul\":470:522   */\n      iszero\n      tag_290\n      jumpi\n        /* \"#utility.yul\":518:519   */\n      0x00\n        /* \"#utility.yul\":515:516   */\n      dup1\n        /* \"#utility.yul\":508:520   */\n      revert\n        /* \"#utility.yul\":470:522   */\n    tag_290:\n        /* \"#utility.yul\":563:586   */\n      dup4\n      calldataload\n      swap3\n      pop\n        /* \"#utility.yul\":683:685   */\n      0x20\n        /* \"#utility.yul\":668:686   */\n      dup5\n      add\n        /* \"#utility.yul\":655:687   */\n      calldataload\n      swap2\n      pop\n        /* \"#utility.yul\":765:767   */\n      0x40\n        /* \"#utility.yul\":750:768   */\n      dup5\n      add\n        /* \"#utility.yul\":737:769   */\n      calldataload\n        /* \"#utility.yul\":778:808   */\n      tag_291\n        /* \"#utility.yul\":737:769   */\n      dup2\n        /* \"#utility.yul\":778:808   */\n      tag_281\n      jump\t// in\n    tag_291:\n        /* \"#utility.yul\":827:834   */\n      dup1\n        /* \"#utility.yul\":817:834   */\n      swap2\n      pop\n      pop\n        /* \"#utility.yul\":359:840   */\n      swap3\n      pop\n      swap3\n      pop\n      swap3\n      jump\t// out\n        /* \"#utility.yul\":1027:1200   */\n    tag_282:\n        /* \"#utility.yul\":1095:1115   */\n      dup1\n      calldataload\n      sub(shl(0xa0, 0x01), 0x01)\n        /* \"#utility.yul\":1144:1175   */\n      dup2\n      and\n        /* \"#utility.yul\":1134:1176   */\n      dup2\n      eq\n        /* \"#utility.yul\":1124:1194   */\n      tag_294\n      jumpi\n        /* \"#utility.yul\":1190:1191   */\n      0x00\n        /* \"#utility.yul\":1187:1188   */\n      dup1\n        /* \"#utility.yul\":1180:1192   */\n      revert\n        /* \"#utility.yul\":1124:1194   */\n    tag_294:\n        /* \"#utility.yul\":1027:1200   */\n      swap2\n      swap1\n      pop\n      jump\t// out\n        /* \"#utility.yul\":1205:1505   */\n    tag_41:\n        /* \"#utility.yul\":1273:1279   */\n      0x00\n        /* \"#utility.yul\":1281:1287   */\n      dup1\n        /* \"#utility.yul\":1334:1336   */\n      0x40\n        /* \"#utility.yul\":1322:1331   */\n      dup4\n        /* \"#utility.yul\":1313:1320   */\n      dup6\n        /* \"#utility.yul\":1309:1332   */\n      sub\n        /* \"#utility.yul\":1305:1337   */\n      slt\n        /* \"#utility.yul\":1302:1354   */\n      iszero\n      tag_296\n      jumpi\n        /* \"#utility.yul\":1350:1351   */\n      0x00\n        /* \"#utility.yul\":1347:1348   */\n      dup1\n        /* \"#utility.yul\":1340:1352   */\n      revert\n        /* \"#utility.yul\":1302:1354   */\n    tag_296:\n        /* \"#utility.yul\":1373:1402   */\n      tag_297\n        /* \"#utility.yul\":1392:1401   */\n      dup4\n        /* \"#utility.yul\":1373:1402   */\n      tag_282\n      jump\t// in\n    tag_297:\n        /* \"#utility.yul\":1363:1402   */\n      swap5\n        /* \"#utility.yul\":1471:1473   */\n      0x20\n        /* \"#utility.yul\":1456:1474   */\n      swap4\n      swap1\n      swap4\n      add\n        /* \"#utility.yul\":1443:1475   */\n      calldataload\n      swap4\n      pop\n      pop\n      pop\n        /* \"#utility.yul\":1205:1505   */\n      jump\t// out\n        /* \"#utility.yul\":1741:1967   */\n    tag_52:\n        /* \"#utility.yul\":1800:1806   */\n      0x00\n        /* \"#utility.yul\":1853:1855   */\n      0x20\n        /* \"#utility.yul\":1841:1850   */\n      dup3\n        /* \"#utility.yul\":1832:1839   */\n      dup5\n        /* \"#utility.yul\":1828:1851   */\n      sub\n        /* \"#utility.yul\":1824:1856   */\n      slt\n        /* \"#utility.yul\":1821:1873   */\n      iszero\n      tag_300\n      jumpi\n        /* \"#utility.yul\":1869:1870   */\n      0x00\n        /* \"#utility.yul\":1866:1867   */\n      dup1\n        /* \"#utility.yul\":1859:1871   */\n      revert\n        /* \"#utility.yul\":1821:1873   */\n    tag_300:\n      pop\n        /* \"#utility.yul\":1914:1937   */\n      calldataload\n      swap2\n        /* \"#utility.yul\":1741:1967   */\n      swap1\n      pop\n      jump\t// out\n        /* \"#utility.yul\":2900:3086   */\n    tag_86:\n        /* \"#utility.yul\":2959:2965   */\n      0x00\n        /* \"#utility.yul\":3012:3014   */\n      0x20\n        /* \"#utility.yul\":3000:3009   */\n      dup3\n        /* \"#utility.yul\":2991:2998   */\n      dup5\n        /* \"#utility.yul\":2987:3010   */\n      sub\n        /* \"#utility.yul\":2983:3015   */\n      slt\n        /* \"#utility.yul\":2980:3032   */\n      iszero\n      tag_304\n      jumpi\n        /* \"#utility.yul\":3028:3029   */\n      0x00\n        /* \"#utility.yul\":3025:3026   */\n      dup1\n        /* \"#utility.yul\":3018:3030   */\n      revert\n        /* \"#utility.yul\":2980:3032   */\n    tag_304:\n        /* \"#utility.yul\":3051:3080   */\n      tag_305\n        /* \"#utility.yul\":3070:3079   */\n      dup3\n        /* \"#utility.yul\":3051:3080   */\n      tag_282\n      jump\t// in\n    tag_305:\n        /* \"#utility.yul\":3041:3080   */\n      swap4\n        /* \"#utility.yul\":2900:3086   */\n      swap3\n      pop\n      pop\n      pop\n      jump\t// out\n        /* \"#utility.yul\":4164:4409   */\n    tag_104:\n        /* \"#utility.yul\":4231:4237   */\n      0x00\n        /* \"#utility.yul\":4284:4286   */\n      0x20\n        /* \"#utility.yul\":4272:4281   */\n      dup3\n        /* \"#utility.yul\":4263:4270   */\n      dup5\n        /* \"#utility.yul\":4259:4282   */\n      sub\n        /* \"#utility.yul\":4255:4287   */\n      slt\n        /* \"#utility.yul\":4252:4304   */\n      iszero\n      tag_310\n      jumpi\n        /* \"#utility.yul\":4300:4301   */\n      0x00\n        /* \"#utility.yul\":4297:4298   */\n      dup1\n        /* \"#utility.yul\":4290:4302   */\n      revert\n        /* \"#utility.yul\":4252:4304   */\n    tag_310:\n        /* \"#utility.yul\":4332:4341   */\n      dup2\n        /* \"#utility.yul\":4326:4342   */\n      mload\n        /* \"#utility.yul\":4351:4379   */\n      tag_305\n        /* \"#utility.yul\":4373:4378   */\n      dup2\n        /* \"#utility.yul\":4351:4379   */\n      tag_281\n      jump\t// in\n        /* \"#utility.yul\":4414:4753   */\n    tag_107:\n        /* \"#utility.yul\":4616:4618   */\n      0x20\n        /* \"#utility.yul\":4598:4619   */\n      dup1\n      dup3\n      mstore\n        /* \"#utility.yul\":4655:4657   */\n      0x0f\n        /* \"#utility.yul\":4635:4653   */\n      swap1\n      dup3\n      add\n        /* \"#utility.yul\":4628:4658   */\n      mstore\n      shl(0x8a, 0x151c985b9cd9995c8819985a5b1959)\n        /* \"#utility.yul\":4689:4691   */\n      0x40\n        /* \"#utility.yul\":4674:4692   */\n      dup3\n      add\n        /* \"#utility.yul\":4667:4712   */\n      mstore\n        /* \"#utility.yul\":4744:4746   */\n      0x60\n        /* \"#utility.yul\":4729:4747   */\n      add\n      swap1\n        /* \"#utility.yul\":4414:4753   */\n      jump\t// out\n        /* \"#utility.yul\":4940:5411   */\n    tag_113:\n        /* \"#utility.yul\":5025:5031   */\n      0x00\n        /* \"#utility.yul\":5033:5039   */\n      dup1\n        /* \"#utility.yul\":5041:5047   */\n      0x00\n        /* \"#utility.yul\":5094:5096   */\n      0x60\n        /* \"#utility.yul\":5082:5091   */\n      dup5\n        /* \"#utility.yul\":5073:5080   */\n      dup7\n        /* \"#utility.yul\":5069:5092   */\n      sub\n        /* \"#utility.yul\":5065:5097   */\n      slt\n        /* \"#utility.yul\":5062:5114   */\n      iszero\n      tag_315\n      jumpi\n        /* \"#utility.yul\":5110:5111   */\n      0x00\n        /* \"#utility.yul\":5107:5108   */\n      dup1\n        /* \"#utility.yul\":5100:5112   */\n      revert\n        /* \"#utility.yul\":5062:5114   */\n    tag_315:\n        /* \"#utility.yul\":5155:5171   */\n      dup4\n      mload\n        /* \"#utility.yul\":5261:5263   */\n      0x20\n        /* \"#utility.yul\":5246:5264   */\n      dup6\n      add\n        /* \"#utility.yul\":5240:5265   */\n      mload\n        /* \"#utility.yul\":5336:5338   */\n      0x40\n        /* \"#utility.yul\":5321:5339   */\n      dup7\n      add\n        /* \"#utility.yul\":5315:5340   */\n      mload\n        /* \"#utility.yul\":5155:5171   */\n      swap2\n      swap5\n      pop\n        /* \"#utility.yul\":5240:5265   */\n      swap3\n      pop\n        /* \"#utility.yul\":5349:5379   */\n      tag_291\n        /* \"#utility.yul\":5315:5340   */\n      dup2\n        /* \"#utility.yul\":5349:5379   */\n      tag_281\n      jump\t// in\n        /* \"#utility.yul\":5416:5753   */\n    tag_116:\n        /* \"#utility.yul\":5618:5620   */\n      0x20\n        /* \"#utility.yul\":5600:5621   */\n      dup1\n      dup3\n      mstore\n        /* \"#utility.yul\":5657:5659   */\n      0x0d\n        /* \"#utility.yul\":5637:5655   */\n      swap1\n      dup3\n      add\n        /* \"#utility.yul\":5630:5660   */\n      mstore\n      shl(0x98, 0x496e76616c6964207072696365)\n        /* \"#utility.yul\":5691:5693   */\n      0x40\n        /* \"#utility.yul\":5676:5694   */\n      dup3\n      add\n        /* \"#utility.yul\":5669:5712   */\n      mstore\n        /* \"#utility.yul\":5744:5746   */\n      0x60\n        /* \"#utility.yul\":5729:5747   */\n      add\n      swap1\n        /* \"#utility.yul\":5416:5753   */\n      jump\t// out\n        /* \"#utility.yul\":5758:5885   */\n    tag_283:\n        /* \"#utility.yul\":5819:5829   */\n      0x4e487b71\n        /* \"#utility.yul\":5814:5817   */\n      0xe0\n        /* \"#utility.yul\":5810:5830   */\n      shl\n        /* \"#utility.yul\":5807:5808   */\n      0x00\n        /* \"#utility.yul\":5800:5831   */\n      mstore\n        /* \"#utility.yul\":5850:5854   */\n      0x11\n        /* \"#utility.yul\":5847:5848   */\n      0x04\n        /* \"#utility.yul\":5840:5855   */\n      mstore\n        /* \"#utility.yul\":5874:5878   */\n      0x24\n        /* \"#utility.yul\":5871:5872   */\n      0x00\n        /* \"#utility.yul\":5864:5879   */\n      revert\n        /* \"#utility.yul\":5890:6058   */\n    tag_118:\n        /* \"#utility.yul\":5963:5972   */\n      dup1\n      dup3\n      mul\n        /* \"#utility.yul\":5994:6003   */\n      dup2\n      iszero\n        /* \"#utility.yul\":6011:6026   */\n      dup3\n      dup3\n      div\n        /* \"#utility.yul\":6005:6027   */\n      dup5\n      eq\n        /* \"#utility.yul\":5991:6028   */\n      or\n        /* \"#utility.yul\":5981:6052   */\n      tag_256\n      jumpi\n        /* \"#utility.yul\":6032:6050   */\n      tag_256\n      tag_283\n      jump\t// in\n        /* \"#utility.yul\":6063:6188   */\n    tag_122:\n        /* \"#utility.yul\":6128:6137   */\n      dup1\n      dup3\n      add\n        /* \"#utility.yul\":6149:6159   */\n      dup1\n      dup3\n      gt\n        /* \"#utility.yul\":6146:6182   */\n      iszero\n      tag_256\n      jumpi\n        /* \"#utility.yul\":6162:6180   */\n      tag_256\n      tag_283\n      jump\t// in\n        /* \"#utility.yul\":6599:6734   */\n    tag_132:\n        /* \"#utility.yul\":6638:6641   */\n      0x00\n        /* \"#utility.yul\":6659:6676   */\n      0x01\n      dup3\n      add\n        /* \"#utility.yul\":6656:6699   */\n      tag_328\n      jumpi\n        /* \"#utility.yul\":6679:6697   */\n      tag_328\n      tag_283\n      jump\t// in\n    tag_328:\n      pop\n        /* \"#utility.yul\":6726:6727   */\n      0x01\n        /* \"#utility.yul\":6715:6728   */\n      add\n      swap1\n        /* \"#utility.yul\":6599:6734   */\n      jump\t// out\n        /* \"#utility.yul\":7784:7920   */\n    tag_171:\n        /* \"#utility.yul\":7819:7822   */\n      0x00\n      shl(0xff, 0x01)\n        /* \"#utility.yul\":7840:7862   */\n      dup3\n      add\n        /* \"#utility.yul\":7837:7885   */\n      tag_334\n      jumpi\n        /* \"#utility.yul\":7865:7883   */\n      tag_334\n      tag_283\n      jump\t// in\n    tag_334:\n      pop\n        /* \"#utility.yul\":7905:7906   */\n      0x00\n        /* \"#utility.yul\":7901:7914   */\n      sub\n      swap1\n        /* \"#utility.yul\":7784:7920   */\n      jump\t// out\n        /* \"#utility.yul\":7925:8053   */\n    tag_174:\n        /* \"#utility.yul\":7992:8001   */\n      dup2\n      dup2\n      sub\n        /* \"#utility.yul\":8013:8024   */\n      dup2\n      dup2\n      gt\n        /* \"#utility.yul\":8010:8047   */\n      iszero\n      tag_256\n      jumpi\n        /* \"#utility.yul\":8027:8045   */\n      tag_256\n      tag_283\n      jump\t// in\n        /* \"#utility.yul\":8862:8989   */\n    tag_284:\n        /* \"#utility.yul\":8923:8933   */\n      0x4e487b71\n        /* \"#utility.yul\":8918:8921   */\n      0xe0\n        /* \"#utility.yul\":8914:8934   */\n      shl\n        /* \"#utility.yul\":8911:8912   */\n      0x00\n        /* \"#utility.yul\":8904:8935   */\n      mstore\n        /* \"#utility.yul\":8954:8958   */\n      0x12\n        /* \"#utility.yul\":8951:8952   */\n      0x04\n        /* \"#utility.yul\":8944:8959   */\n      mstore\n        /* \"#utility.yul\":8978:8982   */\n      0x24\n        /* \"#utility.yul\":8975:8976   */\n      0x00\n        /* \"#utility.yul\":8968:8983   */\n      revert\n        /* \"#utility.yul\":8994:9114   */\n    tag_208:\n        /* \"#utility.yul\":9034:9035   */\n      0x00\n        /* \"#utility.yul\":9060:9061   */\n      dup3\n        /* \"#utility.yul\":9050:9085   */\n      tag_344\n      jumpi\n        /* \"#utility.yul\":9065:9083   */\n      tag_344\n      tag_284\n      jump\t// in\n    tag_344:\n      pop\n        /* \"#utility.yul\":9099:9108   */\n      div\n      swap1\n        /* \"#utility.yul\":8994:9114   */\n      jump\t// out\n        /* \"#utility.yul\":9827:10027   */\n    tag_251:\n        /* \"#utility.yul\":9893:9902   */\n      dup2\n      dup2\n      sub\n        /* \"#utility.yul\":9866:9870   */\n      0x00\n        /* \"#utility.yul\":9921:9930   */\n      dup4\n      slt\n        /* \"#utility.yul\":9949:9959   */\n      dup1\n      iszero\n        /* \"#utility.yul\":9961:9973   */\n      dup4\n      dup4\n      sgt\n        /* \"#utility.yul\":9945:9974   */\n      and\n        /* \"#utility.yul\":9984:9996   */\n      dup4\n      dup4\n      slt\n        /* \"#utility.yul\":9976:9997   */\n      dup3\n      and\n        /* \"#utility.yul\":9942:9998   */\n      or\n        /* \"#utility.yul\":9939:10021   */\n      iszero\n      tag_349\n      jumpi\n        /* \"#utility.yul\":10001:10019   */\n      tag_349\n      tag_283\n      jump\t// in\n    tag_349:\n        /* \"#utility.yul\":9939:10021   */\n      pop\n        /* \"#utility.yul\":9827:10027   */\n      swap3\n      swap2\n      pop\n      pop\n      jump\t// out\n        /* \"#utility.yul\":10032:10269   */\n    tag_253:\n        /* \"#utility.yul\":10104:10113   */\n      dup1\n      dup3\n      mul\n        /* \"#utility.yul\":10071:10078   */\n      0x00\n        /* \"#utility.yul\":10129:10138   */\n      dup3\n      slt\n      shl(0xff, 0x01)\n        /* \"#utility.yul\":10140:10158   */\n      dup5\n      eq\n        /* \"#utility.yul\":10125:10159   */\n      and\n        /* \"#utility.yul\":10122:10182   */\n      iszero\n      tag_352\n      jumpi\n        /* \"#utility.yul\":10162:10180   */\n      tag_352\n      tag_283\n      jump\t// in\n    tag_352:\n        /* \"#utility.yul\":10235:10236   */\n      dup2\n        /* \"#utility.yul\":10226:10233   */\n      dup2\n        /* \"#utility.yul\":10221:10237   */\n      sdiv\n        /* \"#utility.yul\":10218:10219   */\n      dup4\n        /* \"#utility.yul\":10215:10238   */\n      eq\n        /* \"#utility.yul\":10211:10212   */\n      dup3\n        /* \"#utility.yul\":10204:10213   */\n      iszero\n        /* \"#utility.yul\":10201:10239   */\n      or\n        /* \"#utility.yul\":10191:10263   */\n      tag_256\n      jumpi\n        /* \"#utility.yul\":10243:10261   */\n      tag_256\n      tag_283\n      jump\t// in\n        /* \"#utility.yul\":10274:10467   */\n    tag_255:\n        /* \"#utility.yul\":10313:10314   */\n      0x00\n        /* \"#utility.yul\":10339:10340   */\n      dup3\n        /* \"#utility.yul\":10329:10364   */\n      tag_357\n      jumpi\n        /* \"#utility.yul\":10344:10362   */\n      tag_357\n      tag_284\n      jump\t// in\n    tag_357:\n      shl(0xff, 0x01)\n        /* \"#utility.yul\":10380:10398   */\n      dup3\n      eq\n      not(0x00)\n        /* \"#utility.yul\":10400:10413   */\n      dup5\n      eq\n        /* \"#utility.yul\":10376:10414   */\n      and\n        /* \"#utility.yul\":10373:10437   */\n      iszero\n      tag_359\n      jumpi\n        /* \"#utility.yul\":10417:10435   */\n      tag_359\n      tag_283\n      jump\t// in\n    tag_359:\n      pop\n        /* \"#utility.yul\":10451:10461   */\n      sdiv\n      swap1\n        /* \"#utility.yul\":10274:10467   */\n      jump\t// out\n        /* \"#utility.yul\":10472:10599   */\n    tag_266:\n        /* \"#utility.yul\":10533:10543   */\n      0x4e487b71\n        /* \"#utility.yul\":10528:10531   */\n      0xe0\n        /* \"#utility.yul\":10524:10544   */\n      shl\n        /* \"#utility.yul\":10521:10522   */\n      0x00\n        /* \"#utility.yul\":10514:10545   */\n      mstore\n        /* \"#utility.yul\":10564:10568   */\n      0x32\n        /* \"#utility.yul\":10561:10562   */\n      0x04\n        /* \"#utility.yul\":10554:10569   */\n      mstore\n        /* \"#utility.yul\":10588:10592   */\n      0x24\n        /* \"#utility.yul\":10585:10586   */\n      0x00\n        /* \"#utility.yul\":10578:10593   */\n      revert\n        /* \"#utility.yul\":10604:10731   */\n    tag_278:\n        /* \"#utility.yul\":10665:10675   */\n      0x4e487b71\n        /* \"#utility.yul\":10660:10663   */\n      0xe0\n        /* \"#utility.yul\":10656:10676   */\n      shl\n        /* \"#utility.yul\":10653:10654   */\n      0x00\n        /* \"#utility.yul\":10646:10677   */\n      mstore\n        /* \"#utility.yul\":10696:10700   */\n      0x31\n        /* \"#utility.yul\":10693:10694   */\n      0x04\n        /* \"#utility.yul\":10686:10701   */\n      mstore\n        /* \"#utility.yul\":10720:10724   */\n      0x24\n        /* \"#utility.yul\":10717:10718   */\n      0x00\n        /* \"#utility.yul\":10710:10725   */\n      revert\n\n    auxdata: 0xa2646970667358221220d6c80c0e54ea0f8c9714300bac7bdecfae6ac6590d4af67c1ab07aba97569f7164736f6c634300081c0033\n}\n",
				"bytecode": {
					"linkReferences": {},
					"object": "6080604052600160045568056bc75e2d63100000600555600a600655611f40600755600a600855603260095534801561003757600080fd5b5060405161154e38038061154e833981016040819052610056916101e1565b6001600055806001600160a01b03811661008b57604051631e4fbdf760e01b8152600060048201526024015b60405180910390fd5b61009481610173565b506001600160a01b0383166100eb5760405162461bcd60e51b815260206004820152601560248201527f496e76616c696420746f6b656e206164647265737300000000000000000000006044820152606401610082565b6001600160a01b0382166101415760405162461bcd60e51b815260206004820152601660248201527f496e76616c6964206f7261636c652061646472657373000000000000000000006044820152606401610082565b50600a80546001600160a01b039384166001600160a01b031991821617909155600b8054929093169116179055610224565b600180546001600160a01b038381166001600160a01b0319831681179093556040519116919082907f8be0079c531659141344cd1fd0a4f28419497f9722a3daafe3b4186f6b6457e090600090a35050565b80516001600160a01b03811681146101dc57600080fd5b919050565b6000806000606084860312156101f657600080fd5b6101ff846101c5565b925061020d602085016101c5565b915061021b604085016101c5565b90509250925092565b61131b806102336000396000f3fe608060405234801561001057600080fd5b50600436106101165760003560e01c80638da5cb5b116100a2578063b0e21e8a11610071578063b0e21e8a1461029f578063ba2de9bc146102a8578063cdddd4e5146102b1578063d3127e63146102c4578063f2fde38b146102d757600080fd5b80638da5cb5b146101ca57806399fbab88146101db578063a126d60114610283578063ae3302c21461029657600080fd5b80635e1b4d99116100e95780635e1b4d9914610180578063715018a6146101935780637dc0d1d01461019b578063846321a4146101ae578063899346c7146101c157600080fd5b806310d670981461011b5780631558c9661461014b5780634031234c1461016057806341d3c84c14610177575b600080fd5b600a5461012e906001600160a01b031681565b6040516001600160a01b0390911681526020015b60405180910390f35b61015e61015936600461102c565b6102ea565b005b61016960075481565b604051908152602001610142565b61016960085481565b61016961018e366004611081565b610681565b61015e6106b2565b600b5461012e906001600160a01b031681565b61015e6101bc3660046110ab565b6106c6565b61016960045481565b6001546001600160a01b031661012e565b61023c6101e93660046110ab565b6002602081905260009182526040909120805460018201549282015460038301546004840154600585015460068601546007909601546001600160a01b03909516969593949293919260ff909116919088565b604080516001600160a01b03909916895260208901979097529587019490945260608601929092526080850152151560a084015260c083015260e082015261010001610142565b61015e6102913660046110ab565b610718565b61016960065481565b61016960095481565b61016960055481565b61015e6102bf3660046110ab565b610a6b565b61015e6102d23660046110ab565b610d38565b61015e6102e53660046110c4565b610d89565b6102f2610dc4565b6005548310156103495760405162461bcd60e51b815260206004820152601760248201527f496e73756666696369656e7420636f6c6c61746572616c00000000000000000060448201526064015b60405180910390fd5b6001821015801561035c57506006548211155b61039b5760405162461bcd60e51b815260206004820152601060248201526f496e76616c6964206c6576657261676560801b6044820152606401610340565b600a546040516323b872dd60e01b8152336004820152306024820152604481018590526001600160a01b03909116906323b872dd906064016020604051808303816000875af11580156103f2573d6000803e3d6000fd5b505050506040513d601f19601f8201168201806040525081019061041691906110e6565b6104325760405162461bcd60e51b815260040161034090611103565b600b546040516331d98b3f60e01b8152661155548bd554d160ca1b600482015260009182916001600160a01b03909116906331d98b3f90602401606060405180830381865afa158015610489573d6000803e3d6000fd5b505050506040513d601f19601f820116820180604052508101906104ad919061112c565b9250509150806104cf5760405162461bcd60e51b81526004016103409061115b565b60006104db8587611198565b90506000846105105761050b6007546127106104f791906111af565b61050388612710611198565b869190610e1d565b610523565b6007546105239061050388612710611198565b60408051610100810182523380825260208083018c8152838501888152606085018b8152608086018e81528d151560a088019081524260c0890190815260e089018b81526004805460009081526002808b528d82209c518d546001600160a01b03919091166001600160a01b0319909116178d5598516001808e01919091559751988c019890985594516003808c019190915593518a860155915160058a01805491151560ff199092169190911790555160068901555160079097019690965584835294835285822085548154928301825590835292909120015590549151929350917fc777b444aea25c2f8905fb974030d522f61d044da18f577cfdb67b3f4f66df4090610651908b9087908c908c90938452602084019290925260408301521515606082015260800190565b60405180910390a360048054906000610669836111c2565b91905055505050505061067c6001600055565b505050565b6003602052816000526040600020818154811061069d57600080fd5b90600052602060002001600091509150505481565b6106ba610e3c565b6106c46000610e69565b565b6106ce610e3c565b600081116107135760405162461bcd60e51b8152602060048201526012602482015271125b9d985b1a590818dbdb1b185d195c985b60721b6044820152606401610340565b600555565b610720610dc4565b600081815260026020526040902080546001600160a01b0316331461077b5760405162461bcd60e51b81526020600482015260116024820152702737ba103cb7bab9103837b9b4ba34b7b760791b6044820152606401610340565b60008160010154116107c95760405162461bcd60e51b8152602060048201526017602482015276141bdcda5d1a5bdb88191bd95cc81b9bdd08195e1a5cdd604a1b6044820152606401610340565b600b546040516331d98b3f60e01b8152661155548bd554d160ca1b600482015260009182916001600160a01b03909116906331d98b3f90602401606060405180830381865afa158015610820573d6000803e3d6000fd5b505050506040513d601f19601f82011682018060405250810190610844919061112c565b9250509150806108665760405162461bcd60e51b81526004016103409061115b565b604080516101008101825284546001600160a01b03168152600185015460208201526002850154918101919091526003840154606082015260048401546080820152600584015460ff16151560a0820152600684015460c0820152600784015460e08201526000906108d89084610ebb565b905060008082126108fa578185600101546108f391906111af565b905061092e565b6000610905836111db565b9050856001015481116109275780866001015461092291906111f7565b61092a565b60005b9150505b80156109c557600a5460405163a9059cbb60e01b8152336004820152602481018390526001600160a01b039091169063a9059cbb906044016020604051808303816000875af1158015610985573d6000803e3d6000fd5b505050506040513d601f19601f820116820180604052508101906109a991906110e6565b6109c55760405162461bcd60e51b815260040161034090611103565b857f33fe89afd23cab21b9e7372fefbd5f105f651931b65a97a5164898f3a723c48d836040516109f791815260200190565b60405180910390a26000868152600260208190526040822080546001600160a01b031916815560018101839055908101829055600381018290556004810182905560058101805460ff191690556006810182905560070155610a593387610f54565b5050505050610a686001600055565b50565b610a73610dc4565b60008181526002602052604090206001810154610acc5760405162461bcd60e51b8152602060048201526017602482015276141bdcda5d1a5bdb88191bd95cc81b9bdd08195e1a5cdd604a1b6044820152606401610340565b600b546040516331d98b3f60e01b8152661155548bd554d160ca1b600482015260009182916001600160a01b03909116906331d98b3f90602401606060405180830381865afa158015610b23573d6000803e3d6000fd5b505050506040513d601f19601f82011682018060405250810190610b47919061112c565b925050915080610b695760405162461bcd60e51b81526004016103409061115b565b600583015460ff168015610b81575082600701548211155b80610ba05750600583015460ff16158015610ba0575082600701548210155b610bdf5760405162461bcd60e51b815260206004820152601060248201526f4e6f74206c6971756964617461626c6560801b6044820152606401610340565b6000606484600101546005610bf49190611198565b610bfe9190611220565b600a5460405163a9059cbb60e01b8152336004820152602481018390529192506001600160a01b03169063a9059cbb906044016020604051808303816000875af1158015610c50573d6000803e3d6000fd5b505050506040513d601f19601f82011682018060405250810190610c7491906110e6565b610c905760405162461bcd60e51b815260040161034090611103565b60405133815285907fa9ae24adea380a0aaa5f1e18bfe4427ac76c27d30a0159971c13f930c4d4e5a39060200160405180910390a26000858152600260208190526040822080546001600160a01b031916815560018101839055908101829055600381018290556004810182905560058101805460ff1916905560068101829055600701558354610d2a906001600160a01b031686610f54565b50505050610a686001600055565b610d40610e3c565b6001811015610d845760405162461bcd60e51b815260206004820152601060248201526f496e76616c6964206c6576657261676560801b6044820152606401610340565b600655565b610d91610e3c565b6001600160a01b038116610dbb57604051631e4fbdf760e01b815260006004820152602401610340565b610a6881610e69565b600260005403610e165760405162461bcd60e51b815260206004820152601f60248201527f5265656e7472616e637947756172643a207265656e7472616e742063616c6c006044820152606401610340565b6002600055565b600081610e2a8486611198565b610e349190611220565b949350505050565b6001546001600160a01b031633146106c45760405163118cdaa760e01b8152336004820152602401610340565b600180546001600160a01b038381166001600160a01b0319831681179093556040519116919082907f8be0079c531659141344cd1fd0a4f28419497f9722a3daafe3b4186f6b6457e090600090a35050565b600080836060015111610f065760405162461bcd60e51b8152602060048201526013602482015272496e76616c696420656e74727920707269636560681b6044820152606401610340565b8260a0015115610f3f576060830151610f1f8184611234565b8460400151610f2e919061125b565b610f38919061128b565b9050610f4e565b6060830151610f1f8382611234565b92915050565b6001600160a01b0382166000908152600360205260408120905b81548110156110185782828281548110610f8a57610f8a6112b9565b9060005260206000200154036110105781548290610faa906001906111f7565b81548110610fba57610fba6112b9565b9060005260206000200154828281548110610fd757610fd76112b9565b906000526020600020018190555081805480610ff557610ff56112cf565b60019003818190600052602060002001600090559055611018565b600101610f6e565b50505050565b8015158114610a6857600080fd5b60008060006060848603121561104157600080fd5b8335925060208401359150604084013561105a8161101e565b809150509250925092565b80356001600160a01b038116811461107c57600080fd5b919050565b6000806040838503121561109457600080fd5b61109d83611065565b946020939093013593505050565b6000602082840312156110bd57600080fd5b5035919050565b6000602082840312156110d657600080fd5b6110df82611065565b9392505050565b6000602082840312156110f857600080fd5b81516110df8161101e565b6020808252600f908201526e151c985b9cd9995c8819985a5b1959608a1b604082015260600190565b60008060006060848603121561114157600080fd5b835160208501516040860151919450925061105a8161101e565b6020808252600d908201526c496e76616c696420707269636560981b604082015260600190565b634e487b7160e01b600052601160045260246000fd5b8082028115828204841417610f4e57610f4e611182565b80820180821115610f4e57610f4e611182565b6000600182016111d4576111d4611182565b5060010190565b6000600160ff1b82016111f0576111f0611182565b5060000390565b81810381811115610f4e57610f4e611182565b634e487b7160e01b600052601260045260246000fd5b60008261122f5761122f61120a565b500490565b818103600083128015838313168383128216171561125457611254611182565b5092915050565b80820260008212600160ff1b8414161561127757611277611182565b8181058314821517610f4e57610f4e611182565b60008261129a5761129a61120a565b600160ff1b8214600019841416156112b4576112b4611182565b500590565b634e487b7160e01b600052603260045260246000fd5b634e487b7160e01b600052603160045260246000fdfea2646970667358221220d6c80c0e54ea0f8c9714300bac7bdecfae6ac6590d4af67c1ab07aba97569f7164736f6c634300081c0033",
					"opcodes": "PUSH1 0x80 PUSH1 0x40 MSTORE PUSH1 0x1 PUSH1 0x4 SSTORE PUSH9 0x56BC75E2D63100000 PUSH1 0x5 SSTORE PUSH1 0xA PUSH1 0x6 SSTORE PUSH2 0x1F40 PUSH1 0x7 SSTORE PUSH1 0xA PUSH1 0x8 SSTORE PUSH1 0x32 PUSH1 0x9 SSTORE CALLVALUE DUP1 ISZERO PUSH2 0x37 JUMPI PUSH1 0x0 DUP1 REVERT JUMPDEST POP PUSH1 0x40 MLOAD PUSH2 0x154E CODESIZE SUB DUP1 PUSH2 0x154E DUP4 CODECOPY DUP2 ADD PUSH1 0x40 DUP2 SWAP1 MSTORE PUSH2 0x56 SWAP2 PUSH2 0x1E1 JUMP JUMPDEST PUSH1 0x1 PUSH1 0x0 SSTORE DUP1 PUSH1 0x1 PUSH1 0x1 PUSH1 0xA0 SHL SUB DUP2 AND PUSH2 0x8B JUMPI PUSH1 0x40 MLOAD PUSH4 0x1E4FBDF7 PUSH1 0xE0 SHL DUP2 MSTORE PUSH1 0x0 PUSH1 0x4 DUP3 ADD MSTORE PUSH1 0x24 ADD JUMPDEST PUSH1 0x40 MLOAD DUP1 SWAP2 SUB SWAP1 REVERT JUMPDEST PUSH2 0x94 DUP2 PUSH2 0x173 JUMP JUMPDEST POP PUSH1 0x1 PUSH1 0x1 PUSH1 0xA0 SHL SUB DUP4 AND PUSH2 0xEB JUMPI PUSH1 0x40 MLOAD PUSH3 0x461BCD PUSH1 0xE5 SHL DUP2 MSTORE PUSH1 0x20 PUSH1 0x4 DUP3 ADD MSTORE PUSH1 0x15 PUSH1 0x24 DUP3 ADD MSTORE PUSH32 0x496E76616C696420746F6B656E20616464726573730000000000000000000000 PUSH1 0x44 DUP3 ADD MSTORE PUSH1 0x64 ADD PUSH2 0x82 JUMP JUMPDEST PUSH1 0x1 PUSH1 0x1 PUSH1 0xA0 SHL SUB DUP3 AND PUSH2 0x141 JUMPI PUSH1 0x40 MLOAD PUSH3 0x461BCD PUSH1 0xE5 SHL DUP2 MSTORE PUSH1 0x20 PUSH1 0x4 DUP3 ADD MSTORE PUSH1 0x16 PUSH1 0x24 DUP3 ADD MSTORE PUSH32 0x496E76616C6964206F7261636C65206164647265737300000000000000000000 PUSH1 0x44 DUP3 ADD MSTORE PUSH1 0x64 ADD PUSH2 0x82 JUMP JUMPDEST POP PUSH1 0xA DUP1 SLOAD PUSH1 0x1 PUSH1 0x1 PUSH1 0xA0 SHL SUB SWAP4 DUP5 AND PUSH1 0x1 PUSH1 0x1 PUSH1 0xA0 SHL SUB NOT SWAP2 DUP3 AND OR SWAP1 SWAP2 SSTORE PUSH1 0xB DUP1 SLOAD SWAP3 SWAP1 SWAP4 AND SWAP2 AND OR SWAP1 SSTORE PUSH2 0x224 JUMP JUMPDEST PUSH1 0x1 DUP1 SLOAD PUSH1 0x1 PUSH1 0x1 PUSH1 0xA0 SHL SUB DUP4 DUP2 AND PUSH1 0x1 PUSH1 0x1 PUSH1 0xA0 SHL SUB NOT DUP4 AND DUP2 OR SWAP1 SWAP4 SSTORE PUSH1 0x40 MLOAD SWAP2 AND SWAP2 SWAP1 DUP3 SWAP1 PUSH32 0x8BE0079C531659141344CD1FD0A4F28419497F9722A3DAAFE3B4186F6B6457E0 SWAP1 PUSH1 0x0 SWAP1 LOG3 POP POP JUMP JUMPDEST DUP1 MLOAD PUSH1 0x1 PUSH1 0x1 PUSH1 0xA0 SHL SUB DUP2 AND DUP2 EQ PUSH2 0x1DC JUMPI PUSH1 0x0 DUP1 REVERT JUMPDEST SWAP2 SWAP1 POP JUMP JUMPDEST PUSH1 0x0 DUP1 PUSH1 0x0 PUSH1 0x60 DUP5 DUP7 SUB SLT ISZERO PUSH2 0x1F6 JUMPI PUSH1 0x0 DUP1 REVERT JUMPDEST PUSH2 0x1FF DUP5 PUSH2 0x1C5 JUMP JUMPDEST SWAP3 POP PUSH2 0x20D PUSH1 0x20 DUP6 ADD PUSH2 0x1C5 JUMP JUMPDEST SWAP2 POP PUSH2 0x21B PUSH1 0x40 DUP6 ADD PUSH2 0x1C5 JUMP JUMPDEST SWAP1 POP SWAP3 POP SWAP3 POP SWAP3 JUMP JUMPDEST PUSH2 0x131B DUP1 PUSH2 0x233 PUSH1 0x0 CODECOPY PUSH1 0x0 RETURN INVALID PUSH1 0x80 PUSH1 0x40 MSTORE CALLVALUE DUP1 ISZERO PUSH2 0x10 JUMPI PUSH1 0x0 DUP1 REVERT JUMPDEST POP PUSH1 0x4 CALLDATASIZE LT PUSH2 0x116 JUMPI PUSH1 0x0 CALLDATALOAD PUSH1 0xE0 SHR DUP1 PUSH4 0x8DA5CB5B GT PUSH2 0xA2 JUMPI DUP1 PUSH4 0xB0E21E8A GT PUSH2 0x71 JUMPI DUP1 PUSH4 0xB0E21E8A EQ PUSH2 0x29F JUMPI DUP1 PUSH4 0xBA2DE9BC EQ PUSH2 0x2A8 JUMPI DUP1 PUSH4 0xCDDDD4E5 EQ PUSH2 0x2B1 JUMPI DUP1 PUSH4 0xD3127E63 EQ PUSH2 0x2C4 JUMPI DUP1 PUSH4 0xF2FDE38B EQ PUSH2 0x2D7 JUMPI PUSH1 0x0 DUP1 REVERT JUMPDEST DUP1 PUSH4 0x8DA5CB5B EQ PUSH2 0x1CA JUMPI DUP1 PUSH4 0x99FBAB88 EQ PUSH2 0x1DB JUMPI DUP1 PUSH4 0xA126D601 EQ PUSH2 0x283 JUMPI DUP1 PUSH4 0xAE3302C2 EQ PUSH2 0x296 JUMPI PUSH1 0x0 DUP1 REVERT JUMPDEST DUP1 PUSH4 0x5E1B4D99 GT PUSH2 0xE9 JUMPI DUP1 PUSH4 0x5E1B4D99 EQ PUSH2 0x180 JUMPI DUP1 PUSH4 0x715018A6 EQ PUSH2 0x193 JUMPI DUP1 PUSH4 0x7DC0D1D0 EQ PUSH2 0x19B JUMPI DUP1 PUSH4 0x846321A4 EQ PUSH2 0x1AE JUMPI DUP1 PUSH4 0x899346C7 EQ PUSH2 0x1C1 JUMPI PUSH1 0x0 DUP1 REVERT JUMPDEST DUP1 PUSH4 0x10D67098 EQ PUSH2 0x11B JUMPI DUP1 PUSH4 0x1558C966 EQ PUSH2 0x14B JUMPI DUP1 PUSH4 0x4031234C EQ PUSH2 0x160 JUMPI DUP1 PUSH4 0x41D3C84C EQ PUSH2 0x177 JUMPI JUMPDEST PUSH1 0x0 DUP1 REVERT JUMPDEST PUSH1 0xA SLOAD PUSH2 0x12E SWAP1 PUSH1 0x1 PUSH1 0x1 PUSH1 0xA0 SHL SUB AND DUP2 JUMP JUMPDEST PUSH1 0x40 MLOAD PUSH1 0x1 PUSH1 0x1 PUSH1 0xA0 SHL SUB SWAP1 SWAP2 AND DUP2 MSTORE PUSH1 0x20 ADD JUMPDEST PUSH1 0x40 MLOAD DUP1 SWAP2 SUB SWAP1 RETURN JUMPDEST PUSH2 0x15E PUSH2 0x159 CALLDATASIZE PUSH1 0x4 PUSH2 0x102C JUMP JUMPDEST PUSH2 0x2EA JUMP JUMPDEST STOP JUMPDEST PUSH2 0x169 PUSH1 0x7 SLOAD DUP2 JUMP JUMPDEST PUSH1 0x40 MLOAD SWAP1 DUP2 MSTORE PUSH1 0x20 ADD PUSH2 0x142 JUMP JUMPDEST PUSH2 0x169 PUSH1 0x8 SLOAD DUP2 JUMP JUMPDEST PUSH2 0x169 PUSH2 0x18E CALLDATASIZE PUSH1 0x4 PUSH2 0x1081 JUMP JUMPDEST PUSH2 0x681 JUMP JUMPDEST PUSH2 0x15E PUSH2 0x6B2 JUMP JUMPDEST PUSH1 0xB SLOAD PUSH2 0x12E SWAP1 PUSH1 0x1 PUSH1 0x1 PUSH1 0xA0 SHL SUB AND DUP2 JUMP JUMPDEST PUSH2 0x15E PUSH2 0x1BC CALLDATASIZE PUSH1 0x4 PUSH2 0x10AB JUMP JUMPDEST PUSH2 0x6C6 JUMP JUMPDEST PUSH2 0x169 PUSH1 0x4 SLOAD DUP2 JUMP JUMPDEST PUSH1 0x1 SLOAD PUSH1 0x1 PUSH1 0x1 PUSH1 0xA0 SHL SUB AND PUSH2 0x12E JUMP JUMPDEST PUSH2 0x23C PUSH2 0x1E9 CALLDATASIZE PUSH1 0x4 PUSH2 0x10AB JUMP JUMPDEST PUSH1 0x2 PUSH1 0x20 DUP2 SWAP1 MSTORE PUSH1 0x0 SWAP2 DUP3 MSTORE PUSH1 0x40 SWAP1 SWAP2 KECCAK256 DUP1 SLOAD PUSH1 0x1 DUP3 ADD SLOAD SWAP3 DUP3 ADD SLOAD PUSH1 0x3 DUP4 ADD SLOAD PUSH1 0x4 DUP5 ADD SLOAD PUSH1 0x5 DUP6 ADD SLOAD PUSH1 0x6 DUP7 ADD SLOAD PUSH1 0x7 SWAP1 SWAP7 ADD SLOAD PUSH1 0x1 PUSH1 0x1 PUSH1 0xA0 SHL SUB SWAP1 SWAP6 AND SWAP7 SWAP6 SWAP4 SWAP5 SWAP3 SWAP4 SWAP2 SWAP3 PUSH1 0xFF SWAP1 SWAP2 AND SWAP2 SWAP1 DUP9 JUMP JUMPDEST PUSH1 0x40 DUP1 MLOAD PUSH1 0x1 PUSH1 0x1 PUSH1 0xA0 SHL SUB SWAP1 SWAP10 AND DUP10 MSTORE PUSH1 0x20 DUP10 ADD SWAP8 SWAP1 SWAP8 MSTORE SWAP6 DUP8 ADD SWAP5 SWAP1 SWAP5 MSTORE PUSH1 0x60 DUP7 ADD SWAP3 SWAP1 SWAP3 MSTORE PUSH1 0x80 DUP6 ADD MSTORE ISZERO ISZERO PUSH1 0xA0 DUP5 ADD MSTORE PUSH1 0xC0 DUP4 ADD MSTORE PUSH1 0xE0 DUP3 ADD MSTORE PUSH2 0x100 ADD PUSH2 0x142 JUMP JUMPDEST PUSH2 0x15E PUSH2 0x291 CALLDATASIZE PUSH1 0x4 PUSH2 0x10AB JUMP JUMPDEST PUSH2 0x718 JUMP JUMPDEST PUSH2 0x169 PUSH1 0x6 SLOAD DUP2 JUMP JUMPDEST PUSH2 0x169 PUSH1 0x9 SLOAD DUP2 JUMP JUMPDEST PUSH2 0x169 PUSH1 0x5 SLOAD DUP2 JUMP JUMPDEST PUSH2 0x15E PUSH2 0x2BF CALLDATASIZE PUSH1 0x4 PUSH2 0x10AB JUMP JUMPDEST PUSH2 0xA6B JUMP JUMPDEST PUSH2 0x15E PUSH2 0x2D2 CALLDATASIZE PUSH1 0x4 PUSH2 0x10AB JUMP JUMPDEST PUSH2 0xD38 JUMP JUMPDEST PUSH2 0x15E PUSH2 0x2E5 CALLDATASIZE PUSH1 0x4 PUSH2 0x10C4 JUMP JUMPDEST PUSH2 0xD89 JUMP JUMPDEST PUSH2 0x2F2 PUSH2 0xDC4 JUMP JUMPDEST PUSH1 0x5 SLOAD DUP4 LT ISZERO PUSH2 0x349 JUMPI PUSH1 0x40 MLOAD PUSH3 0x461BCD PUSH1 0xE5 SHL DUP2 MSTORE PUSH1 0x20 PUSH1 0x4 DUP3 ADD MSTORE PUSH1 0x17 PUSH1 0x24 DUP3 ADD MSTORE PUSH32 0x496E73756666696369656E7420636F6C6C61746572616C000000000000000000 PUSH1 0x44 DUP3 ADD MSTORE PUSH1 0x64 ADD JUMPDEST PUSH1 0x40 MLOAD DUP1 SWAP2 SUB SWAP1 REVERT JUMPDEST PUSH1 0x1 DUP3 LT ISZERO DUP1 ISZERO PUSH2 0x35C JUMPI POP PUSH1 0x6 SLOAD DUP3 GT ISZERO JUMPDEST PUSH2 0x39B JUMPI PUSH1 0x40 MLOAD PUSH3 0x461BCD PUSH1 0xE5 SHL DUP2 MSTORE PUSH1 0x20 PUSH1 0x4 DUP3 ADD MSTORE PUSH1 0x10 PUSH1 0x24 DUP3 ADD MSTORE PUSH16 0x496E76616C6964206C65766572616765 PUSH1 0x80 SHL PUSH1 0x44 DUP3 ADD MSTORE PUSH1 0x64 ADD PUSH2 0x340 JUMP JUMPDEST PUSH1 0xA SLOAD PUSH1 0x40 MLOAD PUSH4 0x23B872DD PUSH1 0xE0 SHL DUP2 MSTORE CALLER PUSH1 0x4 DUP3 ADD MSTORE ADDRESS PUSH1 0x24 DUP3 ADD MSTORE PUSH1 0x44 DUP2 ADD DUP6 SWAP1 MSTORE PUSH1 0x1 PUSH1 0x1 PUSH1 0xA0 SHL SUB SWAP1 SWAP2 AND SWAP1 PUSH4 0x23B872DD SWAP1 PUSH1 0x64 ADD PUSH1 0x20 PUSH1 0x40 MLOAD DUP1 DUP4 SUB DUP2 PUSH1 0x0 DUP8 GAS CALL ISZERO DUP1 ISZERO PUSH2 0x3F2 JUMPI RETURNDATASIZE PUSH1 0x0 DUP1 RETURNDATACOPY RETURNDATASIZE PUSH1 0x0 REVERT JUMPDEST POP POP POP POP PUSH1 0x40 MLOAD RETURNDATASIZE PUSH1 0x1F NOT PUSH1 0x1F DUP3 ADD AND DUP3 ADD DUP1 PUSH1 0x40 MSTORE POP DUP2 ADD SWAP1 PUSH2 0x416 SWAP2 SWAP1 PUSH2 0x10E6 JUMP JUMPDEST PUSH2 0x432 JUMPI PUSH1 0x40 MLOAD PUSH3 0x461BCD PUSH1 0xE5 SHL DUP2 MSTORE PUSH1 0x4 ADD PUSH2 0x340 SWAP1 PUSH2 0x1103 JUMP JUMPDEST PUSH1 0xB SLOAD PUSH1 0x40 MLOAD PUSH4 0x31D98B3F PUSH1 0xE0 SHL DUP2 MSTORE PUSH7 0x1155548BD554D1 PUSH1 0xCA SHL PUSH1 0x4 DUP3 ADD MSTORE PUSH1 0x0 SWAP2 DUP3 SWAP2 PUSH1 0x1 PUSH1 0x1 PUSH1 0xA0 SHL SUB SWAP1 SWAP2 AND SWAP1 PUSH4 0x31D98B3F SWAP1 PUSH1 0x24 ADD PUSH1 0x60 PUSH1 0x40 MLOAD DUP1 DUP4 SUB DUP2 DUP7 GAS STATICCALL ISZERO DUP1 ISZERO PUSH2 0x489 JUMPI RETURNDATASIZE PUSH1 0x0 DUP1 RETURNDATACOPY RETURNDATASIZE PUSH1 0x0 REVERT JUMPDEST POP POP POP POP PUSH1 0x40 MLOAD RETURNDATASIZE PUSH1 0x1F NOT PUSH1 0x1F DUP3 ADD AND DUP3 ADD DUP1 PUSH1 0x40 MSTORE POP DUP2 ADD SWAP1 PUSH2 0x4AD SWAP2 SWAP1 PUSH2 0x112C JUMP JUMPDEST SWAP3 POP POP SWAP2 POP DUP1 PUSH2 0x4CF JUMPI PUSH1 0x40 MLOAD PUSH3 0x461BCD PUSH1 0xE5 SHL DUP2 MSTORE PUSH1 0x4 ADD PUSH2 0x340 SWAP1 PUSH2 0x115B JUMP JUMPDEST PUSH1 0x0 PUSH2 0x4DB DUP6 DUP8 PUSH2 0x1198 JUMP JUMPDEST SWAP1 POP PUSH1 0x0 DUP5 PUSH2 0x510 JUMPI PUSH2 0x50B PUSH1 0x7 SLOAD PUSH2 0x2710 PUSH2 0x4F7 SWAP2 SWAP1 PUSH2 0x11AF JUMP JUMPDEST PUSH2 0x503 DUP9 PUSH2 0x2710 PUSH2 0x1198 JUMP JUMPDEST DUP7 SWAP2 SWAP1 PUSH2 0xE1D JUMP JUMPDEST PUSH2 0x523 JUMP JUMPDEST PUSH1 0x7 SLOAD PUSH2 0x523 SWAP1 PUSH2 0x503 DUP9 PUSH2 0x2710 PUSH2 0x1198 JUMP JUMPDEST PUSH1 0x40 DUP1 MLOAD PUSH2 0x100 DUP2 ADD DUP3 MSTORE CALLER DUP1 DUP3 MSTORE PUSH1 0x20 DUP1 DUP4 ADD DUP13 DUP2 MSTORE DUP4 DUP6 ADD DUP9 DUP2 MSTORE PUSH1 0x60 DUP6 ADD DUP12 DUP2 MSTORE PUSH1 0x80 DUP7 ADD DUP15 DUP2 MSTORE DUP14 ISZERO ISZERO PUSH1 0xA0 DUP9 ADD SWAP1 DUP2 MSTORE TIMESTAMP PUSH1 0xC0 DUP10 ADD SWAP1 DUP2 MSTORE PUSH1 0xE0 DUP10 ADD DUP12 DUP2 MSTORE PUSH1 0x4 DUP1 SLOAD PUSH1 0x0 SWAP1 DUP2 MSTORE PUSH1 0x2 DUP1 DUP12 MSTORE DUP14 DUP3 KECCAK256 SWAP13 MLOAD DUP14 SLOAD PUSH1 0x1 PUSH1 0x1 PUSH1 0xA0 SHL SUB SWAP2 SWAP1 SWAP2 AND PUSH1 0x1 PUSH1 0x1 PUSH1 0xA0 SHL SUB NOT SWAP1 SWAP2 AND OR DUP14 SSTORE SWAP9 MLOAD PUSH1 0x1 DUP1 DUP15 ADD SWAP2 SWAP1 SWAP2 SSTORE SWAP8 MLOAD SWAP9 DUP13 ADD SWAP9 SWAP1 SWAP9 SSTORE SWAP5 MLOAD PUSH1 0x3 DUP1 DUP13 ADD SWAP2 SWAP1 SWAP2 SSTORE SWAP4 MLOAD DUP11 DUP7 ADD SSTORE SWAP2 MLOAD PUSH1 0x5 DUP11 ADD DUP1 SLOAD SWAP2 ISZERO ISZERO PUSH1 0xFF NOT SWAP1 SWAP3 AND SWAP2 SWAP1 SWAP2 OR SWAP1 SSTORE MLOAD PUSH1 0x6 DUP10 ADD SSTORE MLOAD PUSH1 0x7 SWAP1 SWAP8 ADD SWAP7 SWAP1 SWAP7 SSTORE DUP5 DUP4 MSTORE SWAP5 DUP4 MSTORE DUP6 DUP3 KECCAK256 DUP6 SLOAD DUP2 SLOAD SWAP3 DUP4 ADD DUP3 SSTORE SWAP1 DUP4 MSTORE SWAP3 SWAP1 SWAP2 KECCAK256 ADD SSTORE SWAP1 SLOAD SWAP2 MLOAD SWAP3 SWAP4 POP SWAP2 PUSH32 0xC777B444AEA25C2F8905FB974030D522F61D044DA18F577CFDB67B3F4F66DF40 SWAP1 PUSH2 0x651 SWAP1 DUP12 SWAP1 DUP8 SWAP1 DUP13 SWAP1 DUP13 SWAP1 SWAP4 DUP5 MSTORE PUSH1 0x20 DUP5 ADD SWAP3 SWAP1 SWAP3 MSTORE PUSH1 0x40 DUP4 ADD MSTORE ISZERO ISZERO PUSH1 0x60 DUP3 ADD MSTORE PUSH1 0x80 ADD SWAP1 JUMP JUMPDEST PUSH1 0x40 MLOAD DUP1 SWAP2 SUB SWAP1 LOG3 PUSH1 0x4 DUP1 SLOAD SWAP1 PUSH1 0x0 PUSH2 0x669 DUP4 PUSH2 0x11C2 JUMP JUMPDEST SWAP2 SWAP1 POP SSTORE POP POP POP POP POP PUSH2 0x67C PUSH1 0x1 PUSH1 0x0 SSTORE JUMP JUMPDEST POP POP POP JUMP JUMPDEST PUSH1 0x3 PUSH1 0x20 MSTORE DUP2 PUSH1 0x0 MSTORE PUSH1 0x40 PUSH1 0x0 KECCAK256 DUP2 DUP2 SLOAD DUP2 LT PUSH2 0x69D JUMPI PUSH1 0x0 DUP1 REVERT JUMPDEST SWAP1 PUSH1 0x0 MSTORE PUSH1 0x20 PUSH1 0x0 KECCAK256 ADD PUSH1 0x0 SWAP2 POP SWAP2 POP POP SLOAD DUP2 JUMP JUMPDEST PUSH2 0x6BA PUSH2 0xE3C JUMP JUMPDEST PUSH2 0x6C4 PUSH1 0x0 PUSH2 0xE69 JUMP JUMPDEST JUMP JUMPDEST PUSH2 0x6CE PUSH2 0xE3C JUMP JUMPDEST PUSH1 0x0 DUP2 GT PUSH2 0x713 JUMPI PUSH1 0x40 MLOAD PUSH3 0x461BCD PUSH1 0xE5 SHL DUP2 MSTORE PUSH1 0x20 PUSH1 0x4 DUP3 ADD MSTORE PUSH1 0x12 PUSH1 0x24 DUP3 ADD MSTORE PUSH18 0x125B9D985B1A590818DBDB1B185D195C985B PUSH1 0x72 SHL PUSH1 0x44 DUP3 ADD MSTORE PUSH1 0x64 ADD PUSH2 0x340 JUMP JUMPDEST PUSH1 0x5 SSTORE JUMP JUMPDEST PUSH2 0x720 PUSH2 0xDC4 JUMP JUMPDEST PUSH1 0x0 DUP2 DUP2 MSTORE PUSH1 0x2 PUSH1 0x20 MSTORE PUSH1 0x40 SWAP1 KECCAK256 DUP1 SLOAD PUSH1 0x1 PUSH1 0x1 PUSH1 0xA0 SHL SUB AND CALLER EQ PUSH2 0x77B JUMPI PUSH1 0x40 MLOAD PUSH3 0x461BCD PUSH1 0xE5 SHL DUP2 MSTORE PUSH1 0x20 PUSH1 0x4 DUP3 ADD MSTORE PUSH1 0x11 PUSH1 0x24 DUP3 ADD MSTORE PUSH17 0x2737BA103CB7BAB9103837B9B4BA34B7B7 PUSH1 0x79 SHL PUSH1 0x44 DUP3 ADD MSTORE PUSH1 0x64 ADD PUSH2 0x340 JUMP JUMPDEST PUSH1 0x0 DUP2 PUSH1 0x1 ADD SLOAD GT PUSH2 0x7C9 JUMPI PUSH1 0x40 MLOAD PUSH3 0x461BCD PUSH1 0xE5 SHL DUP2 MSTORE PUSH1 0x20 PUSH1 0x4 DUP3 ADD MSTORE PUSH1 0x17 PUSH1 0x24 DUP3 ADD MSTORE PUSH23 0x141BDCDA5D1A5BDB88191BD95CC81B9BDD08195E1A5CDD PUSH1 0x4A SHL PUSH1 0x44 DUP3 ADD MSTORE PUSH1 0x64 ADD PUSH2 0x340 JUMP JUMPDEST PUSH1 0xB SLOAD PUSH1 0x40 MLOAD PUSH4 0x31D98B3F PUSH1 0xE0 SHL DUP2 MSTORE PUSH7 0x1155548BD554D1 PUSH1 0xCA SHL PUSH1 0x4 DUP3 ADD MSTORE PUSH1 0x0 SWAP2 DUP3 SWAP2 PUSH1 0x1 PUSH1 0x1 PUSH1 0xA0 SHL SUB SWAP1 SWAP2 AND SWAP1 PUSH4 0x31D98B3F SWAP1 PUSH1 0x24 ADD PUSH1 0x60 PUSH1 0x40 MLOAD DUP1 DUP4 SUB DUP2 DUP7 GAS STATICCALL ISZERO DUP1 ISZERO PUSH2 0x820 JUMPI RETURNDATASIZE PUSH1 0x0 DUP1 RETURNDATACOPY RETURNDATASIZE PUSH1 0x0 REVERT JUMPDEST POP POP POP POP PUSH1 0x40 MLOAD RETURNDATASIZE PUSH1 0x1F NOT PUSH1 0x1F DUP3 ADD AND DUP3 ADD DUP1 PUSH1 0x40 MSTORE POP DUP2 ADD SWAP1 PUSH2 0x844 SWAP2 SWAP1 PUSH2 0x112C JUMP JUMPDEST SWAP3 POP POP SWAP2 POP DUP1 PUSH2 0x866 JUMPI PUSH1 0x40 MLOAD PUSH3 0x461BCD PUSH1 0xE5 SHL DUP2 MSTORE PUSH1 0x4 ADD PUSH2 0x340 SWAP1 PUSH2 0x115B JUMP JUMPDEST PUSH1 0x40 DUP1 MLOAD PUSH2 0x100 DUP2 ADD DUP3 MSTORE DUP5 SLOAD PUSH1 0x1 PUSH1 0x1 PUSH1 0xA0 SHL SUB AND DUP2 MSTORE PUSH1 0x1 DUP6 ADD SLOAD PUSH1 0x20 DUP3 ADD MSTORE PUSH1 0x2 DUP6 ADD SLOAD SWAP2 DUP2 ADD SWAP2 SWAP1 SWAP2 MSTORE PUSH1 0x3 DUP5 ADD SLOAD PUSH1 0x60 DUP3 ADD MSTORE PUSH1 0x4 DUP5 ADD SLOAD PUSH1 0x80 DUP3 ADD MSTORE PUSH1 0x5 DUP5 ADD SLOAD PUSH1 0xFF AND ISZERO ISZERO PUSH1 0xA0 DUP3 ADD MSTORE PUSH1 0x6 DUP5 ADD SLOAD PUSH1 0xC0 DUP3 ADD MSTORE PUSH1 0x7 DUP5 ADD SLOAD PUSH1 0xE0 DUP3 ADD MSTORE PUSH1 0x0 SWAP1 PUSH2 0x8D8 SWAP1 DUP5 PUSH2 0xEBB JUMP JUMPDEST SWAP1 POP PUSH1 0x0 DUP1 DUP3 SLT PUSH2 0x8FA JUMPI DUP2 DUP6 PUSH1 0x1 ADD SLOAD PUSH2 0x8F3 SWAP2 SWAP1 PUSH2 0x11AF JUMP JUMPDEST SWAP1 POP PUSH2 0x92E JUMP JUMPDEST PUSH1 0x0 PUSH2 0x905 DUP4 PUSH2 0x11DB JUMP JUMPDEST SWAP1 POP DUP6 PUSH1 0x1 ADD SLOAD DUP2 GT PUSH2 0x927 JUMPI DUP1 DUP7 PUSH1 0x1 ADD SLOAD PUSH2 0x922 SWAP2 SWAP1 PUSH2 0x11F7 JUMP JUMPDEST PUSH2 0x92A JUMP JUMPDEST PUSH1 0x0 JUMPDEST SWAP2 POP POP JUMPDEST DUP1 ISZERO PUSH2 0x9C5 JUMPI PUSH1 0xA SLOAD PUSH1 0x40 MLOAD PUSH4 0xA9059CBB PUSH1 0xE0 SHL DUP2 MSTORE CALLER PUSH1 0x4 DUP3 ADD MSTORE PUSH1 0x24 DUP2 ADD DUP4 SWAP1 MSTORE PUSH1 0x1 PUSH1 0x1 PUSH1 0xA0 SHL SUB SWAP1 SWAP2 AND SWAP1 PUSH4 0xA9059CBB SWAP1 PUSH1 0x44 ADD PUSH1 0x20 PUSH1 0x40 MLOAD DUP1 DUP4 SUB DUP2 PUSH1 0x0 DUP8 GAS CALL ISZERO DUP1 ISZERO PUSH2 0x985 JUMPI RETURNDATASIZE PUSH1 0x0 DUP1 RETURNDATACOPY RETURNDATASIZE PUSH1 0x0 REVERT JUMPDEST POP POP POP POP PUSH1 0x40 MLOAD RETURNDATASIZE PUSH1 0x1F NOT PUSH1 0x1F DUP3 ADD AND DUP3 ADD DUP1 PUSH1 0x40 MSTORE POP DUP2 ADD SWAP1 PUSH2 0x9A9 SWAP2 SWAP1 PUSH2 0x10E6 JUMP JUMPDEST PUSH2 0x9C5 JUMPI PUSH1 0x40 MLOAD PUSH3 0x461BCD PUSH1 0xE5 SHL DUP2 MSTORE PUSH1 0x4 ADD PUSH2 0x340 SWAP1 PUSH2 0x1103 JUMP JUMPDEST DUP6 PUSH32 0x33FE89AFD23CAB21B9E7372FEFBD5F105F651931B65A97A5164898F3A723C48D DUP4 PUSH1 0x40 MLOAD PUSH2 0x9F7 SWAP2 DUP2 MSTORE PUSH1 0x20 ADD SWAP1 JUMP JUMPDEST PUSH1 0x40 MLOAD DUP1 SWAP2 SUB SWAP1 LOG2 PUSH1 0x0 DUP7 DUP2 MSTORE PUSH1 0x2 PUSH1 0x20 DUP2 SWAP1 MSTORE PUSH1 0x40 DUP3 KECCAK256 DUP1 SLOAD PUSH1 0x1 PUSH1 0x1 PUSH1 0xA0 SHL SUB NOT AND DUP2 SSTORE PUSH1 0x1 DUP2 ADD DUP4 SWAP1 SSTORE SWAP1 DUP2 ADD DUP3 SWAP1 SSTORE PUSH1 0x3 DUP2 ADD DUP3 SWAP1 SSTORE PUSH1 0x4 DUP2 ADD DUP3 SWAP1 SSTORE PUSH1 0x5 DUP2 ADD DUP1 SLOAD PUSH1 0xFF NOT AND SWAP1 SSTORE PUSH1 0x6 DUP2 ADD DUP3 SWAP1 SSTORE PUSH1 0x7 ADD SSTORE PUSH2 0xA59 CALLER DUP8 PUSH2 0xF54 JUMP JUMPDEST POP POP POP POP POP PUSH2 0xA68 PUSH1 0x1 PUSH1 0x0 SSTORE JUMP JUMPDEST POP JUMP JUMPDEST PUSH2 0xA73 PUSH2 0xDC4 JUMP JUMPDEST PUSH1 0x0 DUP2 DUP2 MSTORE PUSH1 0x2 PUSH1 0x20 MSTORE PUSH1 0x40 SWAP1 KECCAK256 PUSH1 0x1 DUP2 ADD SLOAD PUSH2 0xACC JUMPI PUSH1 0x40 MLOAD PUSH3 0x461BCD PUSH1 0xE5 SHL DUP2 MSTORE PUSH1 0x20 PUSH1 0x4 DUP3 ADD MSTORE PUSH1 0x17 PUSH1 0x24 DUP3 ADD MSTORE PUSH23 0x141BDCDA5D1A5BDB88191BD95CC81B9BDD08195E1A5CDD PUSH1 0x4A SHL PUSH1 0x44 DUP3 ADD MSTORE PUSH1 0x64 ADD PUSH2 0x340 JUMP JUMPDEST PUSH1 0xB SLOAD PUSH1 0x40 MLOAD PUSH4 0x31D98B3F PUSH1 0xE0 SHL DUP2 MSTORE PUSH7 0x1155548BD554D1 PUSH1 0xCA SHL PUSH1 0x4 DUP3 ADD MSTORE PUSH1 0x0 SWAP2 DUP3 SWAP2 PUSH1 0x1 PUSH1 0x1 PUSH1 0xA0 SHL SUB SWAP1 SWAP2 AND SWAP1 PUSH4 0x31D98B3F SWAP1 PUSH1 0x24 ADD PUSH1 0x60 PUSH1 0x40 MLOAD DUP1 DUP4 SUB DUP2 DUP7 GAS STATICCALL ISZERO DUP1 ISZERO PUSH2 0xB23 JUMPI RETURNDATASIZE PUSH1 0x0 DUP1 RETURNDATACOPY RETURNDATASIZE PUSH1 0x0 REVERT JUMPDEST POP POP POP POP PUSH1 0x40 MLOAD RETURNDATASIZE PUSH1 0x1F NOT PUSH1 0x1F DUP3 ADD AND DUP3 ADD DUP1 PUSH1 0x40 MSTORE POP DUP2 ADD SWAP1 PUSH2 0xB47 SWAP2 SWAP1 PUSH2 0x112C JUMP JUMPDEST SWAP3 POP POP SWAP2 POP DUP1 PUSH2 0xB69 JUMPI PUSH1 0x40 MLOAD PUSH3 0x461BCD PUSH1 0xE5 SHL DUP2 MSTORE PUSH1 0x4 ADD PUSH2 0x340 SWAP1 PUSH2 0x115B JUMP JUMPDEST PUSH1 0x5 DUP4 ADD SLOAD PUSH1 0xFF AND DUP1 ISZERO PUSH2 0xB81 JUMPI POP DUP3 PUSH1 0x7 ADD SLOAD DUP3 GT ISZERO JUMPDEST DUP1 PUSH2 0xBA0 JUMPI POP PUSH1 0x5 DUP4 ADD SLOAD PUSH1 0xFF AND ISZERO DUP1 ISZERO PUSH2 0xBA0 JUMPI POP DUP3 PUSH1 0x7 ADD SLOAD DUP3 LT ISZERO JUMPDEST PUSH2 0xBDF JUMPI PUSH1 0x40 MLOAD PUSH3 0x461BCD PUSH1 0xE5 SHL DUP2 MSTORE PUSH1 0x20 PUSH1 0x4 DUP3 ADD MSTORE PUSH1 0x10 PUSH1 0x24 DUP3 ADD MSTORE PUSH16 0x4E6F74206C6971756964617461626C65 PUSH1 0x80 SHL PUSH1 0x44 DUP3 ADD MSTORE PUSH1 0x64 ADD PUSH2 0x340 JUMP JUMPDEST PUSH1 0x0 PUSH1 0x64 DUP5 PUSH1 0x1 ADD SLOAD PUSH1 0x5 PUSH2 0xBF4 SWAP2 SWAP1 PUSH2 0x1198 JUMP JUMPDEST PUSH2 0xBFE SWAP2 SWAP1 PUSH2 0x1220 JUMP JUMPDEST PUSH1 0xA SLOAD PUSH1 0x40 MLOAD PUSH4 0xA9059CBB PUSH1 0xE0 SHL DUP2 MSTORE CALLER PUSH1 0x4 DUP3 ADD MSTORE PUSH1 0x24 DUP2 ADD DUP4 SWAP1 MSTORE SWAP2 SWAP3 POP PUSH1 0x1 PUSH1 0x1 PUSH1 0xA0 SHL SUB AND SWAP1 PUSH4 0xA9059CBB SWAP1 PUSH1 0x44 ADD PUSH1 0x20 PUSH1 0x40 MLOAD DUP1 DUP4 SUB DUP2 PUSH1 0x0 DUP8 GAS CALL ISZERO DUP1 ISZERO PUSH2 0xC50 JUMPI RETURNDATASIZE PUSH1 0x0 DUP1 RETURNDATACOPY RETURNDATASIZE PUSH1 0x0 REVERT JUMPDEST POP POP POP POP PUSH1 0x40 MLOAD RETURNDATASIZE PUSH1 0x1F NOT PUSH1 0x1F DUP3 ADD AND DUP3 ADD DUP1 PUSH1 0x40 MSTORE POP DUP2 ADD SWAP1 PUSH2 0xC74 SWAP2 SWAP1 PUSH2 0x10E6 JUMP JUMPDEST PUSH2 0xC90 JUMPI PUSH1 0x40 MLOAD PUSH3 0x461BCD PUSH1 0xE5 SHL DUP2 MSTORE PUSH1 0x4 ADD PUSH2 0x340 SWAP1 PUSH2 0x1103 JUMP JUMPDEST PUSH1 0x40 MLOAD CALLER DUP2 MSTORE DUP6 SWAP1 PUSH32 0xA9AE24ADEA380A0AAA5F1E18BFE4427AC76C27D30A0159971C13F930C4D4E5A3 SWAP1 PUSH1 0x20 ADD PUSH1 0x40 MLOAD DUP1 SWAP2 SUB SWAP1 LOG2 PUSH1 0x0 DUP6 DUP2 MSTORE PUSH1 0x2 PUSH1 0x20 DUP2 SWAP1 MSTORE PUSH1 0x40 DUP3 KECCAK256 DUP1 SLOAD PUSH1 0x1 PUSH1 0x1 PUSH1 0xA0 SHL SUB NOT AND DUP2 SSTORE PUSH1 0x1 DUP2 ADD DUP4 SWAP1 SSTORE SWAP1 DUP2 ADD DUP3 SWAP1 SSTORE PUSH1 0x3 DUP2 ADD DUP3 SWAP1 SSTORE PUSH1 0x4 DUP2 ADD DUP3 SWAP1 SSTORE PUSH1 0x5 DUP2 ADD DUP1 SLOAD PUSH1 0xFF NOT AND SWAP1 SSTORE PUSH1 0x6 DUP2 ADD DUP3 SWAP1 SSTORE PUSH1 0x7 ADD SSTORE DUP4 SLOAD PUSH2 0xD2A SWAP1 PUSH1 0x1 PUSH1 0x1 PUSH1 0xA0 SHL SUB AND DUP7 PUSH2 0xF54 JUMP JUMPDEST POP POP POP POP PUSH2 0xA68 PUSH1 0x1 PUSH1 0x0 SSTORE JUMP JUMPDEST PUSH2 0xD40 PUSH2 0xE3C JUMP JUMPDEST PUSH1 0x1 DUP2 LT ISZERO PUSH2 0xD84 JUMPI PUSH1 0x40 MLOAD PUSH3 0x461BCD PUSH1 0xE5 SHL DUP2 MSTORE PUSH1 0x20 PUSH1 0x4 DUP3 ADD MSTORE PUSH1 0x10 PUSH1 0x24 DUP3 ADD MSTORE PUSH16 0x496E76616C6964206C65766572616765 PUSH1 0x80 SHL PUSH1 0x44 DUP3 ADD MSTORE PUSH1 0x64 ADD PUSH2 0x340 JUMP JUMPDEST PUSH1 0x6 SSTORE JUMP JUMPDEST PUSH2 0xD91 PUSH2 0xE3C JUMP JUMPDEST PUSH1 0x1 PUSH1 0x1 PUSH1 0xA0 SHL SUB DUP2 AND PUSH2 0xDBB JUMPI PUSH1 0x40 MLOAD PUSH4 0x1E4FBDF7 PUSH1 0xE0 SHL DUP2 MSTORE PUSH1 0x0 PUSH1 0x4 DUP3 ADD MSTORE PUSH1 0x24 ADD PUSH2 0x340 JUMP JUMPDEST PUSH2 0xA68 DUP2 PUSH2 0xE69 JUMP JUMPDEST PUSH1 0x2 PUSH1 0x0 SLOAD SUB PUSH2 0xE16 JUMPI PUSH1 0x40 MLOAD PUSH3 0x461BCD PUSH1 0xE5 SHL DUP2 MSTORE PUSH1 0x20 PUSH1 0x4 DUP3 ADD MSTORE PUSH1 0x1F PUSH1 0x24 DUP3 ADD MSTORE PUSH32 0x5265656E7472616E637947756172643A207265656E7472616E742063616C6C00 PUSH1 0x44 DUP3 ADD MSTORE PUSH1 0x64 ADD PUSH2 0x340 JUMP JUMPDEST PUSH1 0x2 PUSH1 0x0 SSTORE JUMP JUMPDEST PUSH1 0x0 DUP2 PUSH2 0xE2A DUP5 DUP7 PUSH2 0x1198 JUMP JUMPDEST PUSH2 0xE34 SWAP2 SWAP1 PUSH2 0x1220 JUMP JUMPDEST SWAP5 SWAP4 POP POP POP POP JUMP JUMPDEST PUSH1 0x1 SLOAD PUSH1 0x1 PUSH1 0x1 PUSH1 0xA0 SHL SUB AND CALLER EQ PUSH2 0x6C4 JUMPI PUSH1 0x40 MLOAD PUSH4 0x118CDAA7 PUSH1 0xE0 SHL DUP2 MSTORE CALLER PUSH1 0x4 DUP3 ADD MSTORE PUSH1 0x24 ADD PUSH2 0x340 JUMP JUMPDEST PUSH1 0x1 DUP1 SLOAD PUSH1 0x1 PUSH1 0x1 PUSH1 0xA0 SHL SUB DUP4 DUP2 AND PUSH1 0x1 PUSH1 0x1 PUSH1 0xA0 SHL SUB NOT DUP4 AND DUP2 OR SWAP1 SWAP4 SSTORE PUSH1 0x40 MLOAD SWAP2 AND SWAP2 SWAP1 DUP3 SWAP1 PUSH32 0x8BE0079C531659141344CD1FD0A4F28419497F9722A3DAAFE3B4186F6B6457E0 SWAP1 PUSH1 0x0 SWAP1 LOG3 POP POP JUMP JUMPDEST PUSH1 0x0 DUP1 DUP4 PUSH1 0x60 ADD MLOAD GT PUSH2 0xF06 JUMPI PUSH1 0x40 MLOAD PUSH3 0x461BCD PUSH1 0xE5 SHL DUP2 MSTORE PUSH1 0x20 PUSH1 0x4 DUP3 ADD MSTORE PUSH1 0x13 PUSH1 0x24 DUP3 ADD MSTORE PUSH19 0x496E76616C696420656E747279207072696365 PUSH1 0x68 SHL PUSH1 0x44 DUP3 ADD MSTORE PUSH1 0x64 ADD PUSH2 0x340 JUMP JUMPDEST DUP3 PUSH1 0xA0 ADD MLOAD ISZERO PUSH2 0xF3F JUMPI PUSH1 0x60 DUP4 ADD MLOAD PUSH2 0xF1F DUP2 DUP5 PUSH2 0x1234 JUMP JUMPDEST DUP5 PUSH1 0x40 ADD MLOAD PUSH2 0xF2E SWAP2 SWAP1 PUSH2 0x125B JUMP JUMPDEST PUSH2 0xF38 SWAP2 SWAP1 PUSH2 0x128B JUMP JUMPDEST SWAP1 POP PUSH2 0xF4E JUMP JUMPDEST PUSH1 0x60 DUP4 ADD MLOAD PUSH2 0xF1F DUP4 DUP3 PUSH2 0x1234 JUMP JUMPDEST SWAP3 SWAP2 POP POP JUMP JUMPDEST PUSH1 0x1 PUSH1 0x1 PUSH1 0xA0 SHL SUB DUP3 AND PUSH1 0x0 SWAP1 DUP2 MSTORE PUSH1 0x3 PUSH1 0x20 MSTORE PUSH1 0x40 DUP2 KECCAK256 SWAP1 JUMPDEST DUP2 SLOAD DUP2 LT ISZERO PUSH2 0x1018 JUMPI DUP3 DUP3 DUP3 DUP2 SLOAD DUP2 LT PUSH2 0xF8A JUMPI PUSH2 0xF8A PUSH2 0x12B9 JUMP JUMPDEST SWAP1 PUSH1 0x0 MSTORE PUSH1 0x20 PUSH1 0x0 KECCAK256 ADD SLOAD SUB PUSH2 0x1010 JUMPI DUP2 SLOAD DUP3 SWAP1 PUSH2 0xFAA SWAP1 PUSH1 0x1 SWAP1 PUSH2 0x11F7 JUMP JUMPDEST DUP2 SLOAD DUP2 LT PUSH2 0xFBA JUMPI PUSH2 0xFBA PUSH2 0x12B9 JUMP JUMPDEST SWAP1 PUSH1 0x0 MSTORE PUSH1 0x20 PUSH1 0x0 KECCAK256 ADD SLOAD DUP3 DUP3 DUP2 SLOAD DUP2 LT PUSH2 0xFD7 JUMPI PUSH2 0xFD7 PUSH2 0x12B9 JUMP JUMPDEST SWAP1 PUSH1 0x0 MSTORE PUSH1 0x20 PUSH1 0x0 KECCAK256 ADD DUP2 SWAP1 SSTORE POP DUP2 DUP1 SLOAD DUP1 PUSH2 0xFF5 JUMPI PUSH2 0xFF5 PUSH2 0x12CF JUMP JUMPDEST PUSH1 0x1 SWAP1 SUB DUP2 DUP2 SWAP1 PUSH1 0x0 MSTORE PUSH1 0x20 PUSH1 0x0 KECCAK256 ADD PUSH1 0x0 SWAP1 SSTORE SWAP1 SSTORE PUSH2 0x1018 JUMP JUMPDEST PUSH1 0x1 ADD PUSH2 0xF6E JUMP JUMPDEST POP POP POP POP JUMP JUMPDEST DUP1 ISZERO ISZERO DUP2 EQ PUSH2 0xA68 JUMPI PUSH1 0x0 DUP1 REVERT JUMPDEST PUSH1 0x0 DUP1 PUSH1 0x0 PUSH1 0x60 DUP5 DUP7 SUB SLT ISZERO PUSH2 0x1041 JUMPI PUSH1 0x0 DUP1 REVERT JUMPDEST DUP4 CALLDATALOAD SWAP3 POP PUSH1 0x20 DUP5 ADD CALLDATALOAD SWAP2 POP PUSH1 0x40 DUP5 ADD CALLDATALOAD PUSH2 0x105A DUP2 PUSH2 0x101E JUMP JUMPDEST DUP1 SWAP2 POP POP SWAP3 POP SWAP3 POP SWAP3 JUMP JUMPDEST DUP1 CALLDATALOAD PUSH1 0x1 PUSH1 0x1 PUSH1 0xA0 SHL SUB DUP2 AND DUP2 EQ PUSH2 0x107C JUMPI PUSH1 0x0 DUP1 REVERT JUMPDEST SWAP2 SWAP1 POP JUMP JUMPDEST PUSH1 0x0 DUP1 PUSH1 0x40 DUP4 DUP6 SUB SLT ISZERO PUSH2 0x1094 JUMPI PUSH1 0x0 DUP1 REVERT JUMPDEST PUSH2 0x109D DUP4 PUSH2 0x1065 JUMP JUMPDEST SWAP5 PUSH1 0x20 SWAP4 SWAP1 SWAP4 ADD CALLDATALOAD SWAP4 POP POP POP JUMP JUMPDEST PUSH1 0x0 PUSH1 0x20 DUP3 DUP5 SUB SLT ISZERO PUSH2 0x10BD JUMPI PUSH1 0x0 DUP1 REVERT JUMPDEST POP CALLDATALOAD SWAP2 SWAP1 POP JUMP JUMPDEST PUSH1 0x0 PUSH1 0x20 DUP3 DUP5 SUB SLT ISZERO PUSH2 0x10D6 JUMPI PUSH1 0x0 DUP1 REVERT JUMPDEST PUSH2 0x10DF DUP3 PUSH2 0x1065 JUMP JUMPDEST SWAP4 SWAP3 POP POP POP JUMP JUMPDEST PUSH1 0x0 PUSH1 0x20 DUP3 DUP5 SUB SLT ISZERO PUSH2 0x10F8 JUMPI PUSH1 0x0 DUP1 REVERT JUMPDEST DUP2 MLOAD PUSH2 0x10DF DUP2 PUSH2 0x101E JUMP JUMPDEST PUSH1 0x20 DUP1 DUP3 MSTORE PUSH1 0xF SWAP1 DUP3 ADD MSTORE PUSH15 0x151C985B9CD9995C8819985A5B1959 PUSH1 0x8A SHL PUSH1 0x40 DUP3 ADD MSTORE PUSH1 0x60 ADD SWAP1 JUMP JUMPDEST PUSH1 0x0 DUP1 PUSH1 0x0 PUSH1 0x60 DUP5 DUP7 SUB SLT ISZERO PUSH2 0x1141 JUMPI PUSH1 0x0 DUP1 REVERT JUMPDEST DUP4 MLOAD PUSH1 0x20 DUP6 ADD MLOAD PUSH1 0x40 DUP7 ADD MLOAD SWAP2 SWAP5 POP SWAP3 POP PUSH2 0x105A DUP2 PUSH2 0x101E JUMP JUMPDEST PUSH1 0x20 DUP1 DUP3 MSTORE PUSH1 0xD SWAP1 DUP3 ADD MSTORE PUSH13 0x496E76616C6964207072696365 PUSH1 0x98 SHL PUSH1 0x40 DUP3 ADD MSTORE PUSH1 0x60 ADD SWAP1 JUMP JUMPDEST PUSH4 0x4E487B71 PUSH1 0xE0 SHL PUSH1 0x0 MSTORE PUSH1 0x11 PUSH1 0x4 MSTORE PUSH1 0x24 PUSH1 0x0 REVERT JUMPDEST DUP1 DUP3 MUL DUP2 ISZERO DUP3 DUP3 DIV DUP5 EQ OR PUSH2 0xF4E JUMPI PUSH2 0xF4E PUSH2 0x1182 JUMP JUMPDEST DUP1 DUP3 ADD DUP1 DUP3 GT ISZERO PUSH2 0xF4E JUMPI PUSH2 0xF4E PUSH2 0x1182 JUMP JUMPDEST PUSH1 0x0 PUSH1 0x1 DUP3 ADD PUSH2 0x11D4 JUMPI PUSH2 0x11D4 PUSH2 0x1182 JUMP JUMPDEST POP PUSH1 0x1 ADD SWAP1 JUMP JUMPDEST PUSH1 0x0 PUSH1 0x1 PUSH1 0xFF SHL DUP3 ADD PUSH2 0x11F0 JUMPI PUSH2 0x11F0 PUSH2 0x1182 JUMP JUMPDEST POP PUSH1 0x0 SUB SWAP1 JUMP JUMPDEST DUP2 DUP2 SUB DUP2 DUP2 GT ISZERO PUSH2 0xF4E JUMPI PUSH2 0xF4E PUSH2 0x1182 JUMP JUMPDEST PUSH4 0x4E487B71 PUSH1 0xE0 SHL PUSH1 0x0 MSTORE PUSH1 0x12 PUSH1 0x4 MSTORE PUSH1 0x24 PUSH1 0x0 REVERT JUMPDEST PUSH1 0x0 DUP3 PUSH2 0x122F JUMPI PUSH2 0x122F PUSH2 0x120A JUMP JUMPDEST POP DIV SWAP1 JUMP JUMPDEST DUP2 DUP2 SUB PUSH1 0x0 DUP4 SLT DUP1 ISZERO DUP4 DUP4 SGT AND DUP4 DUP4 SLT DUP3 AND OR ISZERO PUSH2 0x1254 JUMPI PUSH2 0x1254 PUSH2 0x1182 JUMP JUMPDEST POP SWAP3 SWAP2 POP POP JUMP JUMPDEST DUP1 DUP3 MUL PUSH1 0x0 DUP3 SLT PUSH1 0x1 PUSH1 0xFF SHL DUP5 EQ AND ISZERO PUSH2 0x1277 JUMPI PUSH2 0x1277 PUSH2 0x1182 JUMP JUMPDEST DUP2 DUP2 SDIV DUP4 EQ DUP3 ISZERO OR PUSH2 0xF4E JUMPI PUSH2 0xF4E PUSH2 0x1182 JUMP JUMPDEST PUSH1 0x0 DUP3 PUSH2 0x129A JUMPI PUSH2 0x129A PUSH2 0x120A JUMP JUMPDEST PUSH1 0x1 PUSH1 0xFF SHL DUP3 EQ PUSH1 0x0 NOT DUP5 EQ AND ISZERO PUSH2 0x12B4 JUMPI PUSH2 0x12B4 PUSH2 0x1182 JUMP JUMPDEST POP SDIV SWAP1 JUMP JUMPDEST PUSH4 0x4E487B71 PUSH1 0xE0 SHL PUSH1 0x0 MSTORE PUSH1 0x32 PUSH1 0x4 MSTORE PUSH1 0x24 PUSH1 0x0 REVERT JUMPDEST PUSH4 0x4E487B71 PUSH1 0xE0 SHL PUSH1 0x0 MSTORE PUSH1 0x31 PUSH1 0x4 MSTORE PUSH1 0x24 PUSH1 0x0 REVERT INVALID LOG2 PUSH5 0x6970667358 0x22 SLT KECCAK256 0xD6 0xC8 0xC 0xE SLOAD 0xEA 0xF DUP13 SWAP8 EQ ADDRESS SIGNEXTEND 0xAC PUSH28 0xDECFAE6AC6590D4AF67C1AB07ABA97569F7164736F6C634300081C00 CALLER "
				},
				"gasEstimates": {
					"creation": {
						"codeDepositCost": "978200",
						"executionCost": "infinite",
						"totalCost": "infinite"
					},
					"external": {
						"closePosition(uint256)": "infinite",
						"fundingRate()": "2385",
						"liquidatePosition(uint256)": "infinite",
						"liquidationThreshold()": "2363",
						"maxLeverage()": "2384",
						"minCollateral()": "2339",
						"nextPositionId()": "2406",
						"openPosition(uint256,uint256,bool)": "infinite",
						"oracle()": "2393",
						"owner()": "2343",
						"positions(uint256)": "17489",
						"protocolFee()": "2317",
						"renounceOwnership()": "infinite",
						"setMaxLeverage(uint256)": "24602",
						"setMinCollateral(uint256)": "24600",
						"transferOwnership(address)": "28446",
						"ubi4allToken()": "2350",
						"userPositions(address,uint256)": "4767"
					},
					"internal": {
						"_removeUserPosition(address,uint256)": "infinite",
						"calculatePnL(struct UBI4ALLTrading.Position memory,uint256)": "infinite"
					}
				},
				"methodIdentifiers": {
					"closePosition(uint256)": "a126d601",
					"fundingRate()": "41d3c84c",
					"liquidatePosition(uint256)": "cdddd4e5",
					"liquidationThreshold()": "4031234c",
					"maxLeverage()": "ae3302c2",
					"minCollateral()": "ba2de9bc",
					"nextPositionId()": "899346c7",
					"openPosition(uint256,uint256,bool)": "1558c966",
					"oracle()": "7dc0d1d0",
					"owner()": "8da5cb5b",
					"positions(uint256)": "99fbab88",
					"protocolFee()": "b0e21e8a",
					"renounceOwnership()": "715018a6",
					"setMaxLeverage(uint256)": "d3127e63",
					"setMinCollateral(uint256)": "846321a4",
					"transferOwnership(address)": "f2fde38b",
					"ubi4allToken()": "10d67098",
					"userPositions(address,uint256)": "5e1b4d99"
				}
			},
			"storageLayout": {
				"storage": [
					{
						"astId": 158,
						"contract": "core/UBI4ALLTrading.sol:UBI4ALLTrading",
						"label": "_status",
						"offset": 0,
						"slot": "0",
						"type": "t_uint256"
					},
					{
						"astId": 8,
						"contract": "core/UBI4ALLTrading.sol:UBI4ALLTrading",
						"label": "_owner",
						"offset": 0,
						"slot": "1",
						"type": "t_address"
					},
					{
						"astId": 357,
						"contract": "core/UBI4ALLTrading.sol:UBI4ALLTrading",
						"label": "positions",
						"offset": 0,
						"slot": "2",
						"type": "t_mapping(t_uint256,t_struct(Position)352_storage)"
					},
					{
						"astId": 362,
						"contract": "core/UBI4ALLTrading.sol:UBI4ALLTrading",
						"label": "userPositions",
						"offset": 0,
						"slot": "3",
						"type": "t_mapping(t_address,t_array(t_uint256)dyn_storage)"
					},
					{
						"astId": 365,
						"contract": "core/UBI4ALLTrading.sol:UBI4ALLTrading",
						"label": "nextPositionId",
						"offset": 0,
						"slot": "4",
						"type": "t_uint256"
					},
					{
						"astId": 372,
						"contract": "core/UBI4ALLTrading.sol:UBI4ALLTrading",
						"label": "minCollateral",
						"offset": 0,
						"slot": "5",
						"type": "t_uint256"
					},
					{
						"astId": 375,
						"contract": "core/UBI4ALLTrading.sol:UBI4ALLTrading",
						"label": "maxLeverage",
						"offset": 0,
						"slot": "6",
						"type": "t_uint256"
					},
					{
						"astId": 378,
						"contract": "core/UBI4ALLTrading.sol:UBI4ALLTrading",
						"label": "liquidationThreshold",
						"offset": 0,
						"slot": "7",
						"type": "t_uint256"
					},
					{
						"astId": 381,
						"contract": "core/UBI4ALLTrading.sol:UBI4ALLTrading",
						"label": "fundingRate",
						"offset": 0,
						"slot": "8",
						"type": "t_uint256"
					},
					{
						"astId": 384,
						"contract": "core/UBI4ALLTrading.sol:UBI4ALLTrading",
						"label": "protocolFee",
						"offset": 0,
						"slot": "9",
						"type": "t_uint256"
					},
					{
						"astId": 387,
						"contract": "core/UBI4ALLTrading.sol:UBI4ALLTrading",
						"label": "ubi4allToken",
						"offset": 0,
						"slot": "10",
						"type": "t_contract(IERC20)290"
					},
					{
						"astId": 390,
						"contract": "core/UBI4ALLTrading.sol:UBI4ALLTrading",
						"label": "oracle",
						"offset": 0,
						"slot": "11",
						"type": "t_contract(IUBI4ALLOracle)1056"
					}
				],
				"types": {
					"t_address": {
						"encoding": "inplace",
						"label": "address",
						"numberOfBytes": "20"
					},
					"t_array(t_uint256)dyn_storage": {
						"base": "t_uint256",
						"encoding": "dynamic_array",
						"label": "uint256[]",
						"numberOfBytes": "32"
					},
					"t_bool": {
						"encoding": "inplace",
						"label": "bool",
						"numberOfBytes": "1"
					},
					"t_contract(IERC20)290": {
						"encoding": "inplace",
						"label": "contract IERC20",
						"numberOfBytes": "20"
					},
					"t_contract(IUBI4ALLOracle)1056": {
						"encoding": "inplace",
						"label": "contract IUBI4ALLOracle",
						"numberOfBytes": "20"
					},
					"t_mapping(t_address,t_array(t_uint256)dyn_storage)": {
						"encoding": "mapping",
						"key": "t_address",
						"label": "mapping(address => uint256[])",
						"numberOfBytes": "32",
						"value": "t_array(t_uint256)dyn_storage"
					},
					"t_mapping(t_uint256,t_struct(Position)352_storage)": {
						"encoding": "mapping",
						"key": "t_uint256",
						"label": "mapping(uint256 => struct UBI4ALLTrading.Position)",
						"numberOfBytes": "32",
						"value": "t_struct(Position)352_storage"
					},
					"t_struct(Position)352_storage": {
						"encoding": "inplace",
						"label": "struct UBI4ALLTrading.Position",
						"members": [
							{
								"astId": 337,
								"contract": "core/UBI4ALLTrading.sol:UBI4ALLTrading",
								"label": "trader",
								"offset": 0,
								"slot": "0",
								"type": "t_address"
							},
							{
								"astId": 339,
								"contract": "core/UBI4ALLTrading.sol:UBI4ALLTrading",
								"label": "collateral",
								"offset": 0,
								"slot": "1",
								"type": "t_uint256"
							},
							{
								"astId": 341,
								"contract": "core/UBI4ALLTrading.sol:UBI4ALLTrading",
								"label": "size",
								"offset": 0,
								"slot": "2",
								"type": "t_uint256"
							},
							{
								"astId": 343,
								"contract": "core/UBI4ALLTrading.sol:UBI4ALLTrading",
								"label": "entryPrice",
								"offset": 0,
								"slot": "3",
								"type": "t_uint256"
							},
							{
								"astId": 345,
								"contract": "core/UBI4ALLTrading.sol:UBI4ALLTrading",
								"label": "leverage",
								"offset": 0,
								"slot": "4",
								"type": "t_uint256"
							},
							{
								"astId": 347,
								"contract": "core/UBI4ALLTrading.sol:UBI4ALLTrading",
								"label": "isLong",
								"offset": 0,
								"slot": "5",
								"type": "t_bool"
							},
							{
								"astId": 349,
								"contract": "core/UBI4ALLTrading.sol:UBI4ALLTrading",
								"label": "timestamp",
								"offset": 0,
								"slot": "6",
								"type": "t_uint256"
							},
							{
								"astId": 351,
								"contract": "core/UBI4ALLTrading.sol:UBI4ALLTrading",
								"label": "liquidationPrice",
								"offset": 0,
								"slot": "7",
								"type": "t_uint256"
							}
						],
						"numberOfBytes": "256"
					},
					"t_uint256": {
						"encoding": "inplace",
						"label": "uint256",
						"numberOfBytes": "32"
					}
				}
			},
			"userdoc": {
				"kind": "user",
				"methods": {
					"closePosition(uint256)": {
						"notice": "Chiude una posizione e trasferisce i fondi"
					},
					"constructor": {
						"notice": "Costruttore del contratto"
					},
					"liquidatePosition(uint256)": {
						"notice": "Liquida una posizione se raggiunge il prezzo di liquidazione"
					},
					"openPosition(uint256,uint256,bool)": {
						"notice": "Apre una posizione con leva"
					},
					"setMaxLeverage(uint256)": {
						"notice": "Imposta la leva massima"
					},
					"setMinCollateral(uint256)": {
						"notice": "Imposta il collateral minimo"
					}
				},
				"notice": "Permette agli utenti di aprire, chiudere e liquidare posizioni con leva su EUR/USD",
				"version": 1
			}
		}
	}
}